0056065900999991949010106004+49617+006200FM-12+038099999V0201801N01541002401CN0090001N9+00221+00111099311ADDAY161999GF108991061071002501999999KA1999N+00111MW1631
0043065900999991949010112004+49617+006200FM-12+038099999V0201801N01541004501CN0200001N9+00501-00111098751ADDAY121999GF107991051051004501999999MW1021
0056065900999991949010118004+49617+006200FM-12+038099999V0201801N01541001501CN0140001N9+00391+00391098521ADDAY161999GF108991061071001501021999KA1999M+00611MW1631
0043065900999991949010200004+49617+006200FM-12+038099999V0202001N00931004501CN0200001N9+00391+00221098911ADDAY121999GF108991051051004501999999MW1021
0056065900999991949010206004+49617+006200FM-12+038099999V0201801N00931002401CN0160001N9+00111+00001099101ADDAY121999GF108991051051002501999999KA1999N+00111MW1021
0043065900999991949010212004+49617+006200FM-12+038099999V0201601N006719999999N0120001N9+00281+00111099551ADDAY121999GF107991041051004501001021MW1111
0056065900999991949010218004+49617+006200FM-12+038099999V0201801N001019999999N0150001N9+00221+00111099531ADDAY121999GF108991041051004501999999KA1999M+00501MW1021
0043065900999991949010300004+49617+006200FM-12+038099999V0201801N002619999999N0080001N9+00111+00111099931ADDAY121999GF108991041051004501999999MW1601
0056065900999991949010306004+49617+006200FM-12+038099999V0202001N006719999999N0100001N9+00221+00111100311ADDAY121999GF108991041051004501999999KA1999N+00111MW1021
0043065900999991949010312004+49617+006200FM-12+038099999V0202301N01231001501CN0400001N9+00281+00001100601ADDAY181999GF108991061051001501999999MW1021
0056065900999991949010318004+49617+006200FM-12+038099999V0202701N00461220001CN0060001N9+00001-00111101071ADDAY121999GF104991041051004501001001KA1999M+00281MW1021
0043065900999991949010400004+49617+006200FM-12+038099999V0202001N00461220001CN0120001N9+00001-00111101261ADDAY121999GF100991001001999999001001MW1001
0056065900999991949010406004+49617+006200FM-12+038099999V0202501N006719999999N0120001N9+00001-00111101441ADDAY121999GF108991041051004501999999KA1999N-00221MW1021
0043065900999991949010412004+49617+006200FM-12+038099999V0201801N004619999999N0050001N9+00111-00111101541ADDAY171999GF107991041051008001999999MW1011
0056065900999991949010418004+49617+006200FM-12+038099999V0201801N00931004501CN0060001N9+00001-00111101351ADDAY121999GF108991071071004501071999KA1999M+00221MW1701
0043065900999991949010500004+49617+006200FM-12+038099999V0201801N00671000151CN0002001N9+00001+00001101391ADDAY151999GF109991091999000251999999MW1611
0056065900999991949010506004+49617+006200FM-12+038099999V0201601N00671000151CN0002001N9+00221+00221101721ADDAY141999GF109991091999000251999999KA1999N-00111MW1601
0043065900999991949010512004+49617+006200FM-12+038099999V0201601N00261000151CN0000001N9+00281+00221102381ADDAY151999GF109991091999000251999999MW1451
0056065900999991949010518004+49617+006200FM-12+038099999V0209991C00001000151CN0000001N9+00281+00281102971ADDAY141999GF109991091999000251999999KA1999M+00391MW1451
0043065900999991949010600004+49617+006200FM-12+038099999V0209991C00001000151CN0000001N9+00281+00281103411ADDAY141999GF109991091999000251999999MW1451
0056065900999991949010606004+49617+006200FM-12+038099999V0200501N00101001501CN0030001N9+00281+00281103661ADDAY141999GF107991071061001501999999KA1999N+00221MW1031
0043065900999991949010612004+49617+006200FM-12+038099999V0209991C00001004501CN0060001N9+00281+00221103861ADDAY121999GF108991081051004501999999MW1021
0056065900999991949010618004+49617+006200FM-12+038099999V0200201N00261002401CN0060001N9+00281+00221103901ADDAY121999GF108991081051002501999999KA1999M+00391MW1021
0043065900999991949010700004+49617+006200FM-12+038099999V0203401N00101004501CN0080001N9+00111+00001103941ADDAY121999GF108991081051004501999999MW1021
0056065900999991949010706004+49617+006200FM-12+038099999V0200901N00101000151CN0000001N9+00001+00001103891ADDAY121999GF109991091999000251999999KA1999N+00001MW1451
0043065900999991949010712004+49617+006200FM-12+038099999V0209991C00001000151CN0000001N9+00001+00001103741ADDAY141999GF109991091999000251999999MW1451
0056065900999991949010718004+49617+006200FM-12+038099999V0202001N00101000151CN0000001N9-00111-00111103331ADDAY141999GF109991091999000251999999KA1999M+00001MW1451
0043065900999991949010800004+49617+006200FM-12+038099999V0202001N00261000151CN0000001N9-00221-00221102971ADDAY151999GF109991091999000251999999MW1571
0056065900999991949010806004+49617+006200FM-12+038099999V0202301N00671000601CN0014001N9-00221-00221102431ADDAY151999GF108991071071000751999999KA1999N-00281MW1281
0043065900999991949010812004+49617+006200FM-12+038099999V0202101N00671000151CN0008001N9-00111-00111102121ADDAY151999GF109991091999000251999999MW1561
0056065900999991949010818004+49617+006200FM-12+038099999V0202501N00261000151CN0002001N9+00001+00001101981ADDAY171999GF109991091999000251999999KA1999M+00001MW1451
0043065900999991949010900004+49617+006200FM-12+038099999V0203601N00261220001CN0080001N9+00111+00001102191ADDAY141999GF104991041051004501001001MW1221
0056065900999991949010906004+49617+006200FM-12+038099999V0203401N00261220001CN0120001N9-00221-00281102551ADDAY121999GF100991001001999999001001KA1999N-00221MW1001
0043065900999991949010912004+49617+006200FM-12+038099999V0203201N002619999999N0100001N9+00001-00281102651ADDAY121999GF107991041051008001051061MW1281
0056065900999991949010918004+49617+006200FM-12+038099999V0202701N002619999999N0080001N9+00001-00111102551ADDAY121999GF108991041051004501999999KA1999M+00111MW1021
0043065900999991949011000004+49617+006200FM-12+038099999V0203601N00101220001CN0120001N9-00221-00391102711ADDAY121999GF100991001001999999001001MW1001
0056065900999991949011006004+49617+006200FM-12+038099999V0203601N00261220001CN0120001N9-00281-00281102691ADDAY101999GF100991001001999999001001KA1999N-00391MW1001
0043065900999991949011012004+49617+006200FM-12+038099999V0201401N001019999999N0120001N9-00111-00281102731ADDAY121999GF105991041051004501999999MW1021
0056065900999991949011018004+49617+006200FM-12+038099999V0200501N00101220001CN0120001N9-00221-00391102471ADDAY121999GF104991041051004501001001KA1999M+00221MW1021
0043065900999991949011100004+49617+006200FM-12+038099999V0202001N00101220001CN0090001N9-00501-00501102291ADDAY101999GF102991001001999999001011MW1021
0056065900999991949011106004+49617+006200FM-12+038099999V0202101N00101000151CN0002001N9-00611-00611101991ADDAY111999GF109991091999000251999999KA1999N-00611MW1451
0043065900999991949011112004+49617+006200FM-12+038099999V0201801N00461000601CN0008001N9-00391-00391101781ADDAY121999GF108991061051000751999999MW1701
0056065900999991949011118004+49617+006200FM-12+038099999V0202201N00931001501CN0060001N9-00111-00111101491ADDAY171999GF108991071061001501999999KA1999M-00111MW1711
0043065900999991949011200004+49617+006200FM-12+038099999V0202301N00931001501CN0050001N9-00111-00111101401ADDAY171999GF108991071061001501999999MW1561
0056065900999991949011206004+49617+006200FM-12+038099999V0202301N00671000151CN0006001N9+00001+00001101341ADDAY181999GF109991091999000251999999KA1999N-00221MW1431
0043065900999991949011212004+49617+006200FM-12+038099999V0202901N00671220001CN0150001N9+00111-00111101751ADDAY171999GF104991041081004501001001MW1021
0056065900999991949011218004+49617+006200FM-12+038099999V0202701N00101220001CN0150001N9-00111-00281102371ADDAY121999GF103991031051004501001001KA1999M+00221MW1021
0043065900999991949011300004+49617+006200FM-12+038099999V0202901N00461000151CN0002001N9-00111-00111102891ADDAY121999GF108991081071000251999999MW1721
0056065900999991949011306004+49617+006200FM-12+038099999V0202901N004619999999N0080001N9-00111-00221103301ADDAY121999GF107991041051004501999999KA1999N-00281MW1021
0043065900999991949011312004+49617+006200FM-12+038099999V0202901N00461220001CN0110001N9+00221-00391103581ADDAY121999GF103991011051008001031001MW1021
0056065900999991949011318004+49617+006200FM-12+038099999V0202601N00101220001CN0070001N9-00111-00111103731ADDAY121999GF104991001001999999001071KA1999M+00281MW1021
0043065900999991949011400004+49617+006200FM-12+038099999V0202601N00461002401CN0010001N9-00221-00221103741ADDAY121999GF108991071061002501071999MW1101
0056065900999991949011406004+49617+006200FM-12+038099999V0202301N00461001501CN0012001N9-00111-00221103491ADDAY171999GF108991081061001501999999KA1999N-00281MW1501
0043065900999991949011412004+49617+006200FM-12+038099999V0202501N00671000601CN0004001N9+00001+00001103231ADDAY151999GF108991081061000751999999MW1511
0056065900999991949011418004+49617+006200FM-12+038099999V0202501N00461000151CN0000001N9+00111+00111102971ADDAY151999GF109991091999000251999999KA1999M+00221MW1451
0043065900999991949011500004+49617+006200FM-12+038099999V0202701N00261000151CN0000001N9+00281+00281102771ADDAY141999GF109991091999000251999999MW1451
0056065900999991949011506004+49617+006200FM-12+038099999V0202901N002619999999N0060001N9+00391+00221102691ADDAY161999GF108991041051002501999999KA1999N+00111MW1021
0043065900999991949011512004+49617+006200FM-12+038099999V0202501N002619999999N0030001N9+00281+00221102771ADDAY121999GF107991041051004501999999MW1021
0056065900999991949011518004+49617+006200FM-12+038099999V0202701N002619999999N0050001N9+00221+00111102691ADDAY121999GF106991021051004501011999KA1999M+00391MW1021
0043065900999991949011600004+49617+006200FM-12+038099999V0202701N00261001501CN0002001N9+00111+00111102611ADDAY161999GF108991081061001501999999MW1461
0056065900999991949011606004+49617+006200FM-12+038099999V0202601N00261000151CN0002001N9+00221+00221102271ADDAY151999GF109991091999000251021999KA1999N+00111MW1451
0062065900999991949011612004+49617+006200FM-12+038099999V0202501N00671000601CN0024001N9+00611+00611101991ADDAY151999GF108991999061000751021999MW1511EQDQ01+000082SCOTLC
0056065900999991949011618004+49617+006200FM-12+038099999V0203201N00931004501CN0120001N9+00611+00281101971ADDAY121999GF108991061051004501021999KA1999M+00721MW1021
0043065900999991949011700004+49617+006200FM-12+038099999V0202701N00671004501CN0100001N9+00501+00221102121ADDAY121999GF108991061051004501021999MW1021
0056065900999991949011706004+49617+006200FM-12+038099999V0202701N00461004501CN0080001N9+00281+00281102221ADDAY151999GF108991051051004501999999KA1999N+00281MW1021
0043065900999991949011712004+49617+006200FM-12+038099999V0202501N00671000601CN0024001N9+00391+00391102271ADDAY151999GF108991061061000751999999MW1021
0056065900999991949011718004+49617+006200FM-12+038099999V0202501N00931001501CN0050001N9+00501+00501102061ADDAY151999GF108991061051001501999999KA1999M+00501MW1201
0043065900999991949011800004+49617+006200FM-12+038099999V0202501N01231000601CN0080001N9+00501+00501101981ADDAY151999GF108991071061000751999999MW1511
0056065900999991949011806004+49617+006200FM-12+038099999V0202701N00931001501CN0080001N9+00611+00611102101ADDAY121999GF108991081071001501999999KA1999N+00501MW1611
0043065900999991949011812004+49617+006200FM-12+038099999V0202701N00671001501CN0120001N9+00721+00501102341ADDAY161999GF108991061051001501999999MW1021
0056065900999991949011818004+49617+006200FM-12+038099999V0202501N00931002401CN0120001N9+00611+00221102491ADDAY121999GF108991061051002501999999KA1999M+00721MW1021
0043065900999991949011900004+49617+006200FM-12+038099999V0202501N00931004501CN0120001N9+00611+00391102501ADDAY121999GF108991061051004501999999MW1021
0056065900999991949011906004+49617+006200FM-12+038099999V0202501N00671000601CN0020001N9+00611+00611102501ADDAY151999GF108991071061000751999999KA1999N+00501MW1511
0043065900999991949011912004+49617+006200FM-12+038099999V0202501N015419999999N0160001N9+00721+00501102531ADDAY151999GF108991041061002501999999MW1021
0056065900999991949011918004+49617+006200FM-12+038099999V0202501N01231004501CN0160001N9+00611+00391102381ADDAY121999GF108991051051004501999999KA1999M+00611MW1021
0043065900999991949012000004+49617+006200FM-12+038099999V0202501N01231004501CN0120001N9+00611+00281102291ADDAY121999GF108991051051004501999999MW1021
0056065900999991949012006004+49617+006200FM-12+038099999V0202501N00931004501CN0100001N9+00501+00281102271ADDAY121999GF108991051051004501999999KA1999N+00501MW1021
0043065900999991949012012004+49617+006200FM-12+038099999V0202301N00931000601CN0034001N9+00501+00391102151ADDAY151999GF108991071061000751999999MW1581
0056065900999991949012018004+49617+006200FM-12+038099999V0202701N00931001501CN0060001N9+00611+00501102031ADDAY151999GF108991061071001501999999KA1999M+00721MW1601
0043065900999991949012100004+49617+006200FM-12+038099999V0202501N00671004501CN0080001N9+00281+00221102111ADDAY121999GF108991051051004501999999MW1021
0056065900999991949012106004+49617+006200FM-12+038099999V0202701N00931004501CN0060001N9+00281+00221101971ADDAY181999GF108991051081004501999999KA1999N+00221MW1251
0043065900999991949012112004+49617+006200FM-12+038099999V0202601N01231004501CN0160001N9+00501+00221102061ADDAY121999GF106991061081004501999999MW1021
0056065900999991949012118004+49617+006200FM-12+038099999V0202701N00931004501CN0150001N9+00391+00111102021ADDAY181999GF108991061081004501999999KA1999M+00611MW1021
0043065900999991949012200004+49617+006200FM-12+038099999V0202701N00931004501CN0150001N9+00391+00111102061ADDAY121999GF108991071051004501999999MW1251
0056065900999991949012206004+49617+006200FM-12+038099999V0202901N004619999999N0150001N9+00221-00111102371ADDAY121999GF105991041051004501031001KA1999N+00111MW1021
0043065900999991949012212004+49617+006200FM-12+038099999V0203601N00461220001CN0400001N9+00391-00391102911ADDAY121999GF104991041051008001001001MW1021
0056065900999991949012218004+49617+006200FM-12+038099999V0203601N00101220001CN0150001N9+00111-00391103171ADDAY121999GF101991011051008001001001KA1999M+00501MW1011
0062065900999991949012300004+49617+006200FM-12+038099999V0200201N00261220001CN0160001N9+00001-00501103341ADDAY101999GF102991999051008001001001MW1011EQDQ01+000012SCOTLC
0056065900999991949012306004+49617+006200FM-12+038099999V0200201N00261220001CN0160001N9-00221-00391103291ADDAY101999GF100991001001999999001001KA1999N-00281MW1021
0043065900999991949012312004+49617+006200FM-12+038099999V0201101N00261220001CN0120001N9+00221-00221103231ADDAY101999GF100991001001999999001001MW1021
0056065900999991949012318004+49617+006200FM-12+038099999V0200901N00261220001CN0070001N9+00111-00281102971ADDAY101999GF100991001001999999001001KA1999M+00281MW1021
0043065900999991949012400004+49617+006200FM-12+038099999V0201101N00261220001CN0060001N9-00221-00391102951ADDAY101999GF100991001001999999001001MW1021
0056065900999991949012406004+49617+006200FM-12+038099999V0201601N00261220001CN0050001N9-00281-00391102891ADDAY101999GF100991001001999999001001KA1999N-00391MW1021
0043065900999991949012412004+49617+006200FM-12+038099999V0202301N00261220001CN0050001N9+99999+99999999999ADDAY101999GF100991001001999999001001MW1011
0056065900999991949012418004+49617+006200FM-12+038099999V0202501N00101220001CN0060001N9+00221-00111103111ADDAY111999GF103991001001999999001051KA1999M+00501MW1011
0043065900999991949012500004+49617+006200FM-12+038099999V0203601N00101220001CN0100001N9+00111-00281103311ADDAY101999GF100991001001999999001001MW1021
0056065900999991949012506004+49617+006200FM-12+038099999V0200501N00261220001CN0140001N9-00111-00281103501ADDAY101999GF100991001001999999001001KA1999N-00281MW1021
0043065900999991949012512004+49617+006200FM-12+038099999V0200701N00261220001CN0070001N9+00281-00611103571ADDAY111999GF102991001001999999001061MW1021
0056065900999991949012518004+49617+006200FM-12+038099999V0200701N00461220001CN0060001N9+00281-00501103381ADDAY101999GF101991001001999999001051KA1999M+00501MW1021
0043065900999991949012600004+49617+006200FM-12+038099999V0200501N00261220001CN0060001N9-00111-00281103411ADDAY101999GF100991001001999999001001MW1001
0056065900999991949012606004+49617+006200FM-12+038099999V0201101N00101220001CN0060001N9-00221-00281103461ADDAY101999GF100991001001999999001001KA1999N-00281MW1001
0043065900999991949012612004+49617+006200FM-12+038099999V0201801N00261220001CN0050001N9+00281-00111103571ADDAY101999GF100991001001999999001001MW1001
0056065900999991949012618004+49617+006200FM-12+038099999V0201901N00101220001CN0060001N9+00281+00001103621ADDAY101999GF100991001001999999001001KA1999M+00501MW1001
0043065900999991949012700004+49617+006200FM-12+038099999V0200901N00101220001CN0050001N9+00221+00001103751ADDAY101999GF100991001001999999001001MW1021
0056065900999991949012706004+49617+006200FM-12+038099999V0200901N00261220001CN0046001N9+00001-00111103831ADDAY101999GF100991001001999999001001KA1999N-00111MW1021
0043065900999991949012712004+49617+006200FM-12+038099999V0201101N00261220001CN0040001N9+00611-00111103771ADDAY111999GF102991001001999999001061MW1021
0056065900999991949012718004+49617+006200FM-12+038099999V0200901N00101220001CN0048001N9+00391+00001103701ADDAY111999GF101991001001999999001051KA1999M+00781MW1011
0043065900999991949012800004+49617+006200FM-12+038099999V0201101N00101220001CN0060001N9+00001-00221103861ADDAY101999GF100991001001999999001001MW1021
0056065900999991949012806004+49617+006200FM-12+038099999V0200901N00101220001CN0060001N9-00111-00391103951ADDAY101999GF100991001001999999001001KA1999N-00221MW1021
0043065900999991949012812004+49617+006200FM-12+038099999V0201101N00101220001CN0034001N9+00611-00111103981ADDAY101999GF101991001001999999001051MW1021
0056065900999991949012818004+49617+006200FM-12+038099999V0200901N00101220001CN0032001N9+00281+00111103971ADDAY111999GF103991001001999999001051KA1999M+00891MW1021
0043065900999991949012900004+49617+006200FM-12+038099999V0200501N00261220001CN0070001N9+00111-00221104131ADDAY111999GF101991001001999999001051MW1021
0056065900999991949012906004+49617+006200FM-12+038099999V0200501N00261220001CN0080001N9+00111-00391104171ADDAY101999GF102991001001999999001051KA1999N-00221MW1021
0043065900999991949012912004+49617+006200FM-12+038099999V0201101N00101220001CN0050001N9+00781-00281104131ADDAY101999GF101991001001999999001051MW1021
0075065900999991949012918004+49617+006200FM-12+038099999V0209991C00001220001CN9999999N9+00391-00221104071ADDAY101999GF100991001001999999001001KA1999M+01001MW1001EQDQ01+040002VODIS 
0043065900999991949013000004+49617+006200FM-12+038099999V0202701N00101220001CN0080001N9+00111-00721104071ADDAY101999GF100991001001999999001001MW1021
0056065900999991949013006004+49617+006200FM-12+038099999V0203601N00101220001CN0100001N9+00221-00781103951ADDAY101999GF100991001001999999001001KA1999N-00221MW1021
0043065900999991949013012004+49617+006200FM-12+038099999V0200101N006719999999N0050001N9+00391+00221104011ADDAY111999GF106991021051001501001061MW1031
0056065900999991949013018004+49617+006200FM-12+038099999V0203401N00101220001CN0160001N9+00111-00221104061ADDAY121999GF103991001001999999001051KA1999M+00501MW1011
0043065900999991949013100004+49617+006200FM-12+038099999V0209991C00001220001CN0030001N9-00221-00221104111ADDAY101999GF100991001001999999001001MW1001
0056065900999991949013106004+49617+006200FM-12+038099999V0202901N00101220001CN0080001N9-00221-00221103971ADDAY101999GF103991031051008001001001KA1999N-00391MW1031
0062065900999991949013112004+49617+006200FM-12+038099999V0202501N00461002401CN0020001N9+00001-00111103771ADDAY141999GF107991999051002501001001MW1281EQDQ01+000062SCOTLC
0056065900999991949013118004+49617+006200FM-12+038099999V0202701N00671004501CN0060001N9+00001-00111103181ADDAY121999GF108991051051004501999999KA1999M+00111MW1021
0043065900999991949020100004+49617+006200FM-12+038099999V0202901N00101002401CN0040001N9+00001+00001102901ADDAY151999GF108991061051002501999999MW1261
0056065900999991949020106004+49617+006200FM-12+038099999V0203601N00261004501CN0120001N9+00001-00281102971ADDAY121999GF106991051051004501999999KA1999N-00221MW1021
0043065900999991949020112004+49617+006200FM-12+038099999V0200201N00931220001CN0200001N9+00001-00721103251ADDAY121999GF101991011011008001001001MW1021
0056065900999991949020118004+49617+006200FM-12+038099999V0203401N00261220001CN0200001N9-00221-00781103391ADDAY101999GF101991011011008001001001KA1999M+00111MW1021
0043065900999991949020200004+49617+006200FM-12+038099999V0203501N00461220001CN0200001N9-00281-00611103751ADDAY101999GF101991011011004501001001MW1021
0056065900999991949020206004+49617+006200FM-12+038099999V0200201N00461220001CN0080001N9-00611-00781103981ADDAY101999GF100991001001999999001001KA1999N-00611MW1021
0043065900999991949020212004+49617+006200FM-12+038099999V0200701N00461220001CN0080001N9-00221-01001104171ADDAY111999GF102991021011008001001001MW1021
0056065900999991949020218004+49617+006200FM-12+038099999V0200701N00261220001CN0200001N9-00391-01111104231ADDAY111999GF101991011051008001001011KA1999M-00111MW1011
0043065900999991949020300004+49617+006200FM-12+038099999V0200201N00261220001CN0200001N9-00721-01111104451ADDAY101999GF100991001001999999001001MW1001
0056065900999991949020306004+49617+006200FM-12+038099999V0200201N00261220001CN0200001N9-00781-01111104501ADDAY101999GF100991001001999999001001KA1999N-00781MW1001
0043065900999991949020312004+49617+006200FM-12+038099999V0200901N00671220001CN0160001N9-00221-00891104371ADDAY101999GF100991001001999999001001MW1021
0056065900999991949020318004+49617+006200FM-12+038099999V0200501N00461220001CN0160001N9-00221-01001104191ADDAY101999GF100991001001999999001001KA1999M+00001MW1021
0043065900999991949020400004+49617+006200FM-12+038099999V0200501N00461220001CN0150001N9-00501-01001104191ADDAY101999GF100991001001999999001001MW1021
0056065900999991949020406004+49617+006200FM-12+038099999V0200501N00671220001CN0150001N9-00391-00891104141ADDAY101999GF100991001001999999001001KA1999N-00611MW1021
0062065900999991949020412004+49617+006200FM-12+038099999V0200501N00261220001CN9999999N9+00111-01111103981ADDAY101999GF100991001001999999001001MW1001EQDQ01+060002VODIS 
0056065900999991949020418004+49617+006200FM-12+038099999V0200501N00101220001CN0120001N9+00111-00611103731ADDAY101999GF100991001001999999001001KA1999M+00391MW1001
0043065900999991949020500004+49617+006200FM-12+038099999V0200201N00101220001CN0150001N9-00111-00721103681ADDAY101999GF100991001001999999001001MW1001
0056065900999991949020506004+49617+006200FM-12+038099999V0200201N99999220001CN0150001N9-00221-00611103501ADDAY101999GF100991001001999999001001KA1999N-00281MW1001
0043065900999991949020512004+49617+006200FM-12+038099999V0200201N00461220001CN0080001N9+00501-01611103141ADDAY101999GF100991001001999999001001MW1041
0056065900999991949020518004+49617+006200FM-12+038099999V0200201N00101220001CN0150001N9+00281-00781103331ADDAY101999GF100991001001999999001001KA1999M+00721MW1001
0043065900999991949020600004+49617+006200FM-12+038099999V0200501N00461220001CN0060001N9-00111-00391103491ADDAY101999GF104991041051004501001001MW1031
0056065900999991949020606004+49617+006200FM-12+038099999V0200501N00671220001CN0080001N9-00111-00221103451ADDAY121999GF100991001001999999001001KA1999N-00111MW1001
0043065900999991949020612004+49617+006200FM-12+038099999V0200701N00461004501CN0040001N9+00111-00281103431ADDAY121999GF107991071051004501999999MW1021
0056065900999991949020618004+49617+006200FM-12+038099999V0200501N00461220001CN0080001N9+00001-00281103271ADDAY101999GF100991001001999999001001KA1999M+00501MW1001
0043065900999991949020700004+49617+006200FM-12+038099999V0200501N00101220001CN0060001N9-00391-00391103341ADDAY101999GF100991001001999999001001MW1001
0056065900999991949020706004+49617+006200FM-12+038099999V0201801N00461000151CN0000001N9-00281-00281103301ADDAY141999GF109991091999000251999999KA1999N-00501MW1451
0043065900999991949020712004+49617+006200FM-12+038099999V0201801N00261000151CN0001001N9-00281-00281103381ADDAY141999GF109991091999000251999999MW1451
0056065900999991949020718004+49617+006200FM-12+038099999V0202001N00101004501CN0026001N9+00001-00111103191ADDAY141999GF107991061051004501999999KA1999M+00001MW1021
0043065900999991949020800004+49617+006200FM-12+038099999V0202301N00101004501CN0060001N9+00281+00221103061ADDAY121999GF108991061051004501999999MW1021
0056065900999991949020806004+49617+006200FM-12+038099999V0201401N00261001501CN0070001N9+00111+00001102821ADDAY121999GF108991051051001501999999KA1999N-00111MW1021
0043065900999991949020812004+49617+006200FM-12+038099999V0202001N00671000601CN0010001N9+00281+00281102621ADDAY161999GF108991081061000751999999MW1581
0056065900999991949020818004+49617+006200FM-12+038099999V0202301N00461000601CN0014001N9+00391+00391102671ADDAY141999GF108991081061000751999999KA1999M+00501MW1281
0043065900999991949020900004+49617+006200FM-12+038099999V0202301N00101000151CN0006001N9+00281+00281102911ADDAY141999GF109991091999000251999999MW1431
0056065900999991949020906004+49617+006200FM-12+038099999V0201601N00461000151CN0002001N9+00281+00281102511ADDAY141999GF109991091999000251999999KA1999N+00221MW1451
0043065900999991949020912004+49617+006200FM-12+038099999V0202001N00931000151CN0004001N9+00391+00391101631ADDAY161999GF108991081061000251999999MW1531
0056065900999991949020918004+49617+006200FM-12+038099999V0202701N01901000601CN0050001N9+00721+00611101171ADDAY161999GF108991061071000751999999KA1999M+00891MW1651
0043065900999991949021000004+49617+006200FM-12+038099999V0202701N00931220001CN0200001N9+00111-00281102011ADDAY161999GF101991011071001501001001MW1011
0056065900999991949021006004+49617+006200FM-12+038099999V0202501N00931001501CN0140001N9+00111-00111102221ADDAY101999GF108991061081001501021999KA1999N+00001MW1021
0043065900999991949021012004+49617+006200FM-12+038099999V0202701N00931004501CN0160001N9+00391-00221102411ADDAY181999GF105991051081004501001001MW1021
0075065900999991949021018004+49617+006200FM-12+038099999V0202801N00261220001CN0160001N9+00221-00281102501ADDAY101999GF101991999001999999041001KA1999M+00611MW1021EQDQ01+000002SCOTLC
0043065900999991949021100004+49617+006200FM-12+038099999V0201601N00101220001CN0160001N9-00111-00281102631ADDAY101999GF100991001001999999001001MW1001
0056065900999991949021106004+49617+006200FM-12+038099999V0202901N00101220001CN0150001N9-00281-00391102631ADDAY101999GF100991001001999999001001KA1999N-00391MW1001
0043065900999991949021112004+49617+006200FM-12+038099999V0201101N00261220001CN0120001N9+00281-00221102581ADDAY111999GF104991011011004501001061MW1031
0056065900999991949021118004+49617+006200FM-12+038099999V0200201N00101220001CN0100001N9+00111-00221102581ADDAY121999GF103991001001999999071061KA1999M+00391MW1021
0043065900999991949021200004+49617+006200FM-12+038099999V0200701N00101220001CN0090001N9+00001-00281102661ADDAY121999GF107991001001999999031999MW1031
0075065900999991949021206004+49617+006200FM-12+038099999V0209991C00001220001CN0080001N9-00221-00281102591ADDAY121999GF104991999001999999031001KA1999N-00391MW1021EQDQ01+000002SCOTLC
0043065900999991949021212004+49617+006200FM-12+038099999V0201801N002619999999N0034001N9+00281-00111102431ADDAY121999GF107991011021004501001071MW1031
0056065900999991949021218004+49617+006200FM-12+038099999V0202001N00671004501CN0050001N9+00111-00221101951ADDAY121999GF108991061051004501071999KA1999M+00281MW1021
0043065900999991949021300004+49617+006200FM-12+038099999V0202501N00101001501CN0020001N9-00111-00111101581ADDAY171999GF108991081061001501999999MW1021
0056065900999991949021306004+49617+006200FM-12+038099999V0202701N00101001501CN0050001N9+00001+00001101891ADDAY171999GF108991081061001501999999KA1999N-00111MW1221
0043065900999991949021312004+49617+006200FM-12+038099999V0200501N00101001501CN0050001N9+00001+00001102571ADDAY121999GF108991081061001501999999MW1281
0056065900999991949021318004+49617+006200FM-12+038099999V0203601N00101004501CN0080001N9-00111-00221102931ADDAY121999GF108991061051004501999999KA1999M+00001MW1021
0043065900999991949021400004+49617+006200FM-12+038099999V0201601N00101004501CN0060001N9-00111-00281103071ADDAY121999GF108991061051004501999999MW1021
0056065900999991949021406004+49617+006200FM-12+038099999V0201801N00101004501CN0036001N9-00111-00281103141ADDAY121999GF108991061051004501999999KA1999N-00221MW1021
0043065900999991949021412004+49617+006200FM-12+038099999V0202501N00261002401CN0030001N9+00001-00221103231ADDAY121999GF108991071051002501999999MW1021
0056065900999991949021418004+49617+006200FM-12+038099999V0202001N00101002401CN0018001N9+99999+99999103231ADDAY121999GF108991081061002501999999KA1999M+00111MW1101
0043065900999991949021500004+49617+006200FM-12+038099999V0202001N00261002401CN0018001N9-00111-00111103391ADDAY121999GF108991081061002501999999MW1021
0056065900999991949021506004+49617+006200FM-12+038099999V0202001N00261002401CN0012001N9-00111-00111103511ADDAY141999GF108991081061002501999999KA1999N-00221MW1101
0043065900999991949021512004+49617+006200FM-12+038099999V0202001N00461002401CN0020001N9+00221-00111103671ADDAY141999GF108991071051002501999999MW1021
0056065900999991949021518004+49617+006200FM-12+038099999V0201801N00261004501CN0022001N9+00221+00111103651ADDAY121999GF108991061051004501999999KA1999M+00281MW1021
0043065900999991949021600004+49617+006200FM-12+038099999V0201801N00261004501CN0022001N9+00221+00111103661ADDAY121999GF107991061051004501999999MW1021
0056065900999991949021606004+49617+006200FM-12+038099999V0201601N00101004501CN0020001N9+00221+00111103571ADDAY121999GF108991061051004501999999KA1999N+00111MW1021
0043065900999991949021612004+49617+006200FM-12+038099999V0202301N00101004501CN0024001N9+00611+00281103511ADDAY121999GF108991061051004501999999MW1021
0056065900999991949021618004+49617+006200FM-12+038099999V0200901N00101007801CN0140001N9+00721+00281103271ADDAY121999GF106991051051008001999999KA1999M+00781MW1021
0043065900999991949021700004+49617+006200FM-12+038099999V0200901N00101220001CN0140001N9+00281+00221103231ADDAY101999GF100991001001999999001001MW1001
0056065900999991949021706004+49617+006200FM-12+038099999V0200901N00261220001CN0080001N9+00111+00111103171ADDAY101999GF101991001001999999001011KA1999N+00111MW1031
0043065900999991949021712004+49617+006200FM-12+038099999V0201601N00101220001CN0060001N9+00721+00001103031ADDAY101999GF101991001001999999001021MW1031
0056065900999991949021718004+49617+006200FM-12+038099999V0201801N00101220001CN0050001N9+00721+00001102851ADDAY101999GF101991001001999999001051KA1999M+01111MW1031
0043065900999991949021800004+49617+006200FM-12+038099999V0200201N00101220001CN0030001N9+00501+00001102851ADDAY101999GF101991001001999999001051MW1031
0056065900999991949021806004+49617+006200FM-12+038099999V0200501N00261220001CN0026001N9+00281-00221102791ADDAY121999GF106991001001999999071061KA1999N+00221MW1021
0043065900999991949021812004+49617+006200FM-12+038099999V0201101N00101220001CN0060001N9+01001+00001102651ADDAY121999GF106991001001999999001081MW1021
0056065900999991949021818004+49617+006200FM-12+038099999V0209991C00001220001CN0080001N9+00781+00111102531ADDAY121999GF106991001001999999071011KA1999M+01221MW1021
0043065900999991949021900004+49617+006200FM-12+038099999V0201601N00101220001CN0050001N9+00501+00001102661ADDAY101999GF100991001001999999001001MW1001
0075065900999991949021906004+49617+006200FM-12+038099999V0201601N00101220001CN0050001N9+00111-00111102861ADDAY111999GF102991999001999999071001KA1999N+00111MW1021EQDQ01+000002SCOTLC
0043065900999991949021912004+49617+006200FM-12+038099999V0201601N00101220001CN0030001N9+00781+00111102911ADDAY121999GF102991001001999999001031MW1021
0056065900999991949021918004+49617+006200FM-12+038099999V0202501N00261004501CN0100001N9+00891+00391102941ADDAY121999GF108991081051004501999999KA1999M+01221MW1021
0043065900999991949022000004+49617+006200FM-12+038099999V0209991C00001004501CN0060001N9+00721+00721103171ADDAY121999GF108991071061004501999999MW1021
0056065900999991949022006004+49617+006200FM-12+038099999V0202001N00101000151CN0004001N9+00721+00721103141ADDAY141999GF109991091999000251999999KA1999N+00611MW1471
0043065900999991949022012004+49617+006200FM-12+038099999V0201601N00261000151CN0008001N9+00721+00721103251ADDAY141999GF109991091999000251999999MW1431
0056065900999991949022018004+49617+006200FM-12+038099999V0203201N00101004501CN0140001N9+00721+00611103171ADDAY111999GF199999071051004501001051KA1999M+01001MW1011
0043065900999991949022100004+49617+006200FM-12+038099999V0200501N00261220001CN0100001N9+00611+00501103171ADDAY101999GF100991001001999999001001MW1001
0075065900999991949022106004+49617+006200FM-12+038099999V0200901N00261220001CN0030001N9+00391+00281103221ADDAY101999GF101991999001999999071001KA1999N+00281MW1111EQDQ01+000002SCOTLC
0043065900999991949022112004+49617+006200FM-12+038099999V0209991C00001220001CN0050001N9+00891+00281103151ADDAY101999GF100991001001999999001001MW1051
0056065900999991949022118004+49617+006200FM-12+038099999V0201601N00101220001CN0030001N9+00721+00391102991ADDAY101999GF100991001001999999001001KA1999M+01221MW1051
0062065900999991949022200004+49617+006200FM-12+038099999V0201801N00101220001CN0030001N9+00391+00281103051ADDAY101999GF104991999001999999031001MW1021EQDQ01+000002SCOTLC
0056065900999991949022206004+49617+006200FM-12+038099999V0202501N002619999999N0160001N9+00501+00281103171ADDAY181999GF107991041051001501999999KA1999N+00391MW1021
0043065900999991949022212004+49617+006200FM-12+038099999V0202901N00461220001CN0200001N9+00721-00501103691ADDAY101999GF100991001001999999001001MW1001
0056065900999991949022218004+49617+006200FM-12+038099999V0202301N00261220001CN0160001N9+00501-00391103711ADDAY111999GF102991001001999999001051KA1999M+01001MW1021
0043065900999991949022300004+49617+006200FM-12+038099999V0202301N00461220001CN0160001N9+00281-00221103731ADDAY101999GF102991001001999999001051MW1031
0056065900999991949022306004+49617+006200FM-12+038099999V0202301N00461220001CN0140001N9+00221-00111103531ADDAY101999GF101991001001999999001051KA1999N+00111MW1031
0043065900999991949022312004+49617+006200FM-12+038099999V0202501N006719999999N0060001N9+00611+00281103491ADDAY121999GF108991041051001501999999MW1021
0056065900999991949022318004+49617+006200FM-12+038099999V0202501N00671001501CN0070001N9+00611+00391103371ADDAY121999GF108991051051001501999999KA1999M+00721MW1021
0043065900999991949022400004+49617+006200FM-12+038099999V0202501N00671001501CN0030001N9+00611+00611103341ADDAY121999GF106991051051001501999999MW1511
0056065900999991949022406004+49617+006200FM-12+038099999V0202501N00461000151CN0001001N9+00611+00611103231ADDAY141999GF109991091999000251999999KA1999N+00501MW1471
0043065900999991949022412004+49617+006200FM-12+038099999V0202901N00931001501CN0060001N9+00781+00721103191ADDAY151999GF108991071061001501999999MW1501
0056065900999991949022418004+49617+006200FM-12+038099999V0202701N00931000151CN0022001N9+00781+00721103151ADDAY151999GF108991071071000251999999KA1999M+00781MW1591
0043065900999991949022500004+49617+006200FM-12+038099999V0203201N00261220001CN0160001N9+00281+00221103431ADDAY161999GF102991021051004501001001MW1011
0056065900999991949022506004+49617+006200FM-12+038099999V0203201N00101004501CN0160001N9+00111+00001103571ADDAY111999GF108991051051004501999999KA1999N+00001MW1021
0043065900999991949022512004+49617+006200FM-12+038099999V0202901N00461007801CN0160001N9+00501-00221103661ADDAY121999GF107991061051008001999999MW1021
0056065900999991949022518004+49617+006200FM-12+038099999V0202701N001019999999N0140001N9+00391-00111103621ADDAY121999GF108991041051008001999999KA1999M+00611MW1021
0043065900999991949022600004+49617+006200FM-12+038099999V0202701N001019999999N0140001N9+00221-00111103591ADDAY121999GF106991041051008001999999MW1021
0056065900999991949022606004+49617+006200FM-12+038099999V0202701N001019999999N0140001N9+00221-00221103291ADDAY121999GF108991041051004501999999KA1999N+00111MW1021
0043065900999991949022612004+49617+006200FM-12+038099999V0202501N00931004501CN0200001N9+00281-00281103111ADDAY121999GF108991061051004501999999MW1021
0056065900999991949022618004+49617+006200FM-12+038099999V0202501N00931004501CN0160001N9+00281+00001102711ADDAY121999GF108991061051004501999999KA1999M+00391MW1021
0043065900999991949022700004+49617+006200FM-12+038099999V0202301N00671004501CN0160001N9+00221+00001102391ADDAY121999GF108991051051004501999999MW1021
0056065900999991949022706004+49617+006200FM-12+038099999V0202501N01231004501CN0160001N9+00281+00221101891ADDAY161999GF108991061051004501999999KA1999N+00221MW1601
0043065900999991949022712004+49617+006200FM-12+038099999V0202701N01541004501CN0200001N9+00501-00221101711ADDAY161999GF107991061051004501999999MW1021
0056065900999991949022718004+49617+006200FM-12+038099999V0202901N00931004501CN0140001N9+00001+00001101701ADDAY181999GF107991061071004501999999KA1999M+00611MW1271
0043065900999991949022800004+49617+006200FM-12+038099999V0202901N00931220001CN0140001N9+00111-00221101991ADDAY101999GF100991001001999999001001MW1001
0056065900999991949022806004+49617+006200FM-12+038099999V0203201N00931000601CN0004001N9+00001+00001102411ADDAY111999GF108991081071000751999999KA1999N-00111MW1741
0062065900999991949022812004+49617+006200FM-12+038099999V0202901N006719999999N0200001N9+00221-00221102791ADDAY181999GF105991999081002501001001MW1021EQDQ01+000042SCOTLC
0075065900999991949022818004+49617+006200FM-12+038099999V0202701N004619999999N0120001N9+00111-00111102821ADDAY181999GF106991999031004501001001KA1999M+00391MW1021EQDQ01+000042SCOTLC
0043065900999991949030100004+49617+006200FM-12+038099999V0202401N00931004501CN0120001N9+00111-00501102291ADDAY121999GF108991081051004501999999MW1021
0075065900999991949030106004+49617+006200FM-12+038099999V0202501N01901001501CN0100001N9+00111+00111100982ADDAY171999GF108991071071001501999999KA1999N-00111MW1681EQDQ01+100983APOSLP
0043065900999991949030112004+49617+006200FM-12+038099999V0202901N01541001501CN0030001N9+00111+00001101181ADDAY161999GF107991061081001501999999MW1831
0056065900999991949030118004+49617+006200FM-12+038099999V0203201N012319999999N0050001N9-00111-00221101751ADDAY181999GF106991041051002501999999KA1999M+00391MW1841
0043065900999991949030200004+49617+006200FM-12+038099999V0203401N009319999999N0050001N9-00221-00391102061ADDAY181999GF106991041051002501999999MW1021
0056065900999991949030206004+49617+006200FM-12+038099999V0202901N00461220001CN0070001N9-00281-00391102201ADDAY181999GF104991021051002501071001KA1999N-00391MW1021
0043065900999991949030212004+49617+006200FM-12+038099999V0203201N01231220001CN0060001N9+00001-00721102351ADDAY181999GF104991041081004501001031MW1021
0075065900999991949030218004+49617+006200FM-12+038099999V0203601N01231220001CN0140001N9-00391-00781102941ADDAY181999GF104991999081004501001001KA1999M+00111MW1021EQDQ01+000032SCOTLC
0043065900999991949030300004+49617+006200FM-12+038099999V0203401N00261220001CN0160001N9-00611-00781103251ADDAY101999GF100991001001999999001001MW1001
0056065900999991949030306004+49617+006200FM-12+038099999V0202501N00931000601CN0008001N9-00501-00611102741ADDAY171999GF108991081071000751999999KA1999N-00781MW1721
0043065900999991949030312004+49617+006200FM-12+038099999V0203401N00671004501CN0150001N9+00001-00501102671ADDAY121999GF106991061081004501999999MW1021
0056065900999991949030318004+49617+006200FM-12+038099999V0203601N00261220001CN0200001N9-00221-00611102861ADDAY121999GF101991011051004501001001KA1999M+00111MW1021
0043065900999991949030400004+49617+006200FM-12+038099999V0203401N00101220001CN0160001N9-00501-00721103091ADDAY121999GF100991001001999999001001MW1001
0056065900999991949030406004+49617+006200FM-12+038099999V0200201N00261220001CN0160001N9-00721-00781103181ADDAY101999GF102991001001999999041051KA1999N-00781MW1031
0043065900999991949030412004+49617+006200FM-12+038099999V0200501N00261220001CN0160001N9-00221-01111103251ADDAY121999GF103991021011008001071001MW1021
0056065900999991949030418004+49617+006200FM-12+038099999V0200701N001019999999N0160001N9-00221-01221102891ADDAY111999GF105991041051004501071001KA1999M+00721MW1021
0043065900999991949030500004+49617+006200FM-12+038099999V0200701N00261220001CN0100001N9-00611-01001102861ADDAY111999GF101991011051008001001001MW1021
0075065900999991949030506004+49617+006200FM-12+038099999V0200501N00461220001CN0070001N9-00891-01221102731ADDAY101999GF101991999001999999041001KA1999N-01001MW1001EQDQ01+000002SCOTLC
0043065900999991949030512004+49617+006200FM-12+038099999V0200701N00101220001CN0200001N9-00221-00781102451ADDAY111999GF104991041021004501001001MW1021
0056065900999991949030518004+49617+006200FM-12+038099999V0200201N00101220001CN0150001N9-00391-00721102351ADDAY111999GF102991011051008001071001KA1999M-00221MW1021
0043065900999991949030600004+49617+006200FM-12+038099999V0203601N00101220001CN0150001N9-00781-01001102411ADDAY101999GF100991001001999999001001MW1001
0075065900999991949030606004+49617+006200FM-12+038099999V0200201N00261220001CN0120001N9-00891-01001102271ADDAY101999GF101991999001999999071001KA1999N-01111MW1021EQDQ01+000002SCOTLC
0043065900999991949030612004+49617+006200FM-12+038099999V0202701N002619999999N0120001N9-00391-01221102111ADDAY111999GF106991021011008001001061MW1021
0056065900999991949030618004+49617+006200FM-12+038099999V0200501N00261007801CN0160001N9-00281-01111101941ADDAY121999GF106991061051008001041999KA1999M-00111MW1021
0043065900999991949030700004+49617+006200FM-12+038099999V0200901N00261220001CN0060001N9-00501-00781101671ADDAY101999GF101991001001999999001091MW1011
0056065900999991949030706004+49617+006200FM-12+038099999V0200501N00261004501CN0100001N9-00611-00781101891ADDAY111999GF108991061051004501999999KA1999N-00721MW1031
0043065900999991949030712004+49617+006200FM-12+038099999V0201401N002619999999N0060001N9-00221-00781101751ADDAY121999GF106991011011004501031061MW1021
0056065900999991949030718004+49617+006200FM-12+038099999V0200701N00261220001CN0050001N9-00221-00891101621ADDAY111999GF101991001001999999001061KA1999M+00111MW1021
0062065900999991949030800004+49617+006200FM-12+038099999V0200501N00461220001CN0120001N9-00281-00781101251ADDAY101999GF103991999001999999031001MW1031EQDQ01+000002SCOTLC
0056065900999991949030806004+49617+006200FM-12+038099999V0200701N002619999999N0060001N9-00721-00781101651ADDAY101999GF106991021051004501031999KA1999N-00721MW1021
0043065900999991949030812004+49617+006200FM-12+038099999V0201101N00671220001CN0090001N9+00111-00781101391ADDAY101999GF100991001001999999001001MW1001
0056065900999991949030818004+49617+006200FM-12+038099999V0200701N00461220001CN0090001N9-00111-00781101221ADDAY101999GF101991001001999999001051KA1999M+00221MW1021
0043065900999991949030900004+49617+006200FM-12+038099999V0200901N00101002401CN0050001N9+00111+00111101391ADDAY121999GF108991081051002501999999MW1501
0056065900999991949030906004+49617+006200FM-12+038099999V0200501N00461004501CN0080001N9-00391-00781101181ADDAY111999GF107991061051004501041999KA1999N-00501MW1031
0043065900999991949030912004+49617+006200FM-12+038099999V0201101N00671004501CN0070001N9+00221-00611101131ADDAY121999GF108991061051004501999999MW1021
0056065900999991949030918004+49617+006200FM-12+038099999V0201101N00671007801CN0060001N9+00111-00281101261ADDAY121999GF108991071051008001999999KA1999M+00221MW1021
0043065900999991949031000004+49617+006200FM-12+038099999V0200501N00101000151CN0001001N9+00281+00281101551ADDAY161999GF109991091999000251999999MW1471
0056065900999991949031006004+49617+006200FM-12+038099999V0200901N00101000151CN0001001N9+00111+00111101461ADDAY141999GF109991091999000251999999KA1999N+00001MW1451
0043065900999991949031012004+49617+006200FM-12+038099999V0200901N00101000151CN0008001N9+00391+00391101531ADDAY141999GF109991091999000251999999MW1431
0056065900999991949031018004+49617+006200FM-12+038099999V0200901N00261000601CN0008001N9+00501+00501101501ADDAY141999GF108991071071000751999999KA1999M+00501MW1611
0043065900999991949031100004+49617+006200FM-12+038099999V0200201N00101007801CN0120001N9+00391+00221101471ADDAY121999GF107991071051008001999999MW1021
0056065900999991949031106004+49617+006200FM-12+038099999V0200201N00101000151CN0000001N9+00221+00221101501ADDAY141999GF109991091999000251999999KA1999N+00221MW1451
0043065900999991949031112004+49617+006200FM-12+038099999V0200501N00101004501CN0060001N9+00611+00391101501ADDAY141999GF107991051081004501031999MW1021
0056065900999991949031118004+49617+006200FM-12+038099999V0200501N00261007801CN0120001N9+00611+00281101431ADDAY121999GF108991071051008001999999KA1999M+00781MW1021
0043065900999991949031200004+49617+006200FM-12+038099999V0202301N00461004501CN0060001N9+00391+00281101581ADDAY111999GF108991061051004501999999MW1021
0056065900999991949031206004+49617+006200FM-12+038099999V0200901N00101004501CN0100001N9+00281+00221101431ADDAY121999GF108991081051004501999999KA1999N+00221MW1021
0043065900999991949031212004+49617+006200FM-12+038099999V0202301N002619999999N0036001N9+00721+00281101421ADDAY121999GF107991031051008001999999MW1021
0056065900999991949031218004+49617+006200FM-12+038099999V0202001N00261220001CN0024001N9+00611+00281101321ADDAY111999GF100991001001999999001001KA1999M+00891MW1011
0043065900999991949031300004+49617+006200FM-12+038099999V0202301N01541001501CN0080001N9+00611+00501101541ADDAY181999GF108991071051001501999999MW1021
0056065900999991949031306004+49617+006200FM-12+038099999V0202301N00671002401CN0030001N9+00281+00281101581ADDAY141999GF108991071051002501999999KA1999N+00221MW1021
0043065900999991949031312004+49617+006200FM-12+038099999V0202301N00671000601CN0010001N9+00391+00391101691ADDAY151999GF108991071061000751999999MW1511
0056065900999991949031318004+49617+006200FM-12+038099999V0202301N01231001501CN0040001N9+00611+00391101591ADDAY121999GF108991071071001501999999KA1999M+00611MW1021
0043065900999991949031400004+49617+006200FM-12+038099999V0202501N01231000601CN0120001N9+00781+00721101231ADDAY161999GF108991061071000751999999MW1211
0056065900999991949031406004+49617+006200FM-12+038099999V0202501N01231000601CN0050001N9+00721+00611101581ADDAY151999GF108991071071000751999999KA1999N+00501MW1251
0043065900999991949031412004+49617+006200FM-12+038099999V0202501N00931002401CN0120001N9+00891+00391101801ADDAY161999GF107991061081002501999999MW1021
0056065900999991949031418004+49617+006200FM-12+038099999V0202501N00671000601CN0018001N9+00721+00721101591ADDAY151999GF108991071071000751999999KA1999M+00891MW1611
0043065900999991949031500004+49617+006200FM-12+038099999V0202701N00261220001CN0100001N9+01001-00281101281ADDAY121999GF108991001001999999071999MW1021
0056065900999991949031506004+49617+006200FM-12+038099999V0203301N00931001501CN0070001N9+00221+00111101841ADDAY181999GF108991061081001501999999KA1999N+00221MW1021
0043065900999991949031512004+49617+006200FM-12+038099999V0202901N00671004501CN0200001N9+00391-00391102491ADDAY121999GF106991061081004501999999MW1261
0056065900999991949031518004+49617+006200FM-12+038099999V0203201N00261220001CN0150001N9+00281-00221102771ADDAY121999GF103991031051004501001021KA1999M+00611MW1021
0062065900999991949031600004+49617+006200FM-12+038099999V0203201N00671004501CN0120001N9+00391+00001999999ADDAY121999GF107991051051004501999999MW1021EQDQ01+101553APOSLP
0056065900999991949031606004+49617+006200FM-12+038099999V0202301N00461007801CN0050001N9+00001-00111102391ADDAY121999GF108991081051008001999999KA1999N-00111MW1021
0043065900999991949031612004+49617+006200FM-12+038099999V0202501N00931007801CN0120001N9+00391-00281101591ADDAY121999GF108991061051008001999999MW1021
0056065900999991949031618004+49617+006200FM-12+038099999V0202501N00931000601CN0080001N9+00501+00391101131ADDAY161999GF108991071071000751999999KA1999M+00501MW1611
0043065900999991949031700004+49617+006200FM-12+038099999V0202301N01231004501CN0120001N9+00391+00111100961ADDAY121999GF107991061051004501999999MW1021
0056065900999991949031706004+49617+006200FM-12+038099999V0202901N002619999999N0160001N9+00111-00221101871ADDAY121999GF108991041051004501999999KA1999N+00001MW1021
0043065900999991949031712004+49617+006200FM-12+038099999V0202501N002619999999N0200001N9+00391+00001101971ADDAY181999GF105991031081004501061001MW1021
0056065900999991949031718004+49617+006200FM-12+038099999V0202501N00671004501CN0150001N9+00391+00001101541ADDAY121999GF107991061051004501999999KA1999M+00501MW1021
0043065900999991949031800004+49617+006200FM-12+038099999V0203401N00461220001CN0120001N9-00111-00111101671ADDAY181999GF103991031031004501001001MW1261
0075065900999991949031806004+49617+006200FM-12+038099999V0202901N009319999999N0150001N9+00281+00001100712ADDAY181999GF106991041051004501001061KA1999N+00281MW1021EQDQ01+100713APOSLP
0043065900999991949031812004+49617+006200FM-12+038099999V0203201N01541004501CN0160001N9+00501-00221100911ADDAY181999GF106991051081004501031999MW1021
0056065900999991949031818004+49617+006200FM-12+038099999V0203401N00931004501CN0160001N9+00111-00111101271ADDAY181999GF107991051051004501071051KA1999M+00611MW1021
0062065900999991949031900004+49617+006200FM-12+038099999V0200201N00671220001CN0150001N9-00281-00611102712ADDAY101999GF100991001001999999001001MW1001EQDQ01+102713APOSLP
0056065900999991949031906004+49617+006200FM-12+038099999V0203601N00671220001CN0100001N9-00281-00501102071ADDAY101999GF101991011051004501001001KA1999N-00281MW1031
0043065900999991949031912004+49617+006200FM-12+038099999V0200201N00671220001CN0200001N9+00111-00391102261ADDAY111999GF104991041021008001001001MW1021
0056065900999991949031918004+49617+006200FM-12+038099999V0200501N00261220001CN0150001N9+00111-00221102381ADDAY111999GF102991021051008001001001KA1999M+00281MW1021
0043065900999991949032000004+49617+006200FM-12+038099999V0202501N00101220001CN0150001N9-00221-00781102901ADDAY101999GF100991001001999999001001MW1001
0075065900999991949032006004+49617+006200FM-12+038099999V0200201N00461220001CN0120001N9-00391-00611102851ADDAY101999GF101991011051008001001001KA1999N+99999MW1031EQDQ01 -00282ATMN  
0043065900999991949032012004+49617+006200FM-12+038099999V0200501N00461220001CN0160001N9+00111-01221102911ADDAY111999GF104991041021008001001001MW1021
0056065900999991949032018004+49617+006200FM-12+038099999V0200201N001019999999N0200001N9+00111-00891102821ADDAY111999GF105991041051004501999999KA1999M+00281MW1021
0043065900999991949032100004+49617+006200FM-12+038099999V0200901N00101220001CN0080001N9+00111-00891102971ADDAY101999GF100991001001999999001001MW1001
0056065900999991949032106004+49617+006200FM-12+038099999V0202901N00101220001CN0050001N9-00391-00891102821ADDAY101999GF101991001001999999001051KA1999N-00721MW1031
0043065900999991949032112004+49617+006200FM-12+038099999V0201601N00261220001CN0160001N9+00281-00891102691ADDAY101999GF101991001001999999001051MW1021
0056065900999991949032118004+49617+006200FM-12+038099999V0200201N00101220001CN0160001N9+00391-00891102651ADDAY111999GF101991001001999999001051KA1999M+00611MW1011
0043065900999991949032200004+49617+006200FM-12+038099999V0200501N00461220001CN0160001N9+00221-00501103271ADDAY101999GF100991001001999999001001MW1001
0056065900999991949032206004+49617+006200FM-12+038099999V0200501N00261220001CN0060001N9-00221-00611103131ADDAY101999GF101991001001999999001051KA1999N-00281MW1031
0043065900999991949032212004+49617+006200FM-12+038099999V0200501N00671220001CN0160001N9+00611-00781103091ADDAY101999GF100991001001999999001001MW1001
0056065900999991949032218004+49617+006200FM-12+038099999V0200501N00671220001CN0200001N9+00721-00611103101ADDAY101999GF101991001001999999041051KA1999M+00891MW1021
0043065900999991949032300004+49617+006200FM-12+038099999V0200701N00671220001CN0150001N9+00501+00281102971ADDAY101999GF100991001001999999001001MW1001
0075065900999991949032306004+49617+006200FM-12+038099999V0200501N00671220001CN9999999N9+00111-00611103271ADDAY101999GF100991001001999999001001KA1999N+00111MW1001EQDQ01+060002VODIS 
0043065900999991949032312004+49617+006200FM-12+038099999V0200701N00211220001CN0160001N9+01001-00611103141ADDAY101999GF100991001001999999001001MW1001
0056065900999991949032318004+49617+006200FM-12+038099999V0200501N00671220001CN0160001N9+01221+00001103021ADDAY101999GF100991001001999999001001KA1999M+01281MW1001
0043065900999991949032400004+49617+006200FM-12+038099999V0200701N00261220001CN0150001N9+00891-00221102381ADDAY101999GF100991001001999999001001MW1001
0056065900999991949032406004+49617+006200FM-12+038099999V0200501N00671220001CN0060001N9+00281-00111102911ADDAY101999GF100991001001999999001001KA1999N+00221MW1051
0043065900999991949032412004+49617+006200FM-12+038099999V0200701N00931220001CN0120001N9+01221-00281102591ADDAY101999GF100991001001999999001001MW1001
0056065900999991949032418004+49617+006200FM-12+038099999V0200701N00461220001CN0150001N9+01221-00281102331ADDAY101999GF100991001001999999001001KA1999M+01501MW1001
0043065900999991949032500004+49617+006200FM-12+038099999V0203401N00101220001CN0100001N9+01001+00111102381ADDAY101999GF100991001001999999001001MW1001
0056065900999991949032506004+49617+006200FM-12+038099999V0200901N00101220001CN0100001N9+00391-00111102501ADDAY101999GF100991001001999999001001KA1999N+00281MW1021
0043065900999991949032512004+49617+006200FM-12+038099999V0201801N00101220001CN0050001N9+01611+00281102231ADDAY101999GF100991001001999999001001MW1051
0056065900999991949032518004+49617+006200FM-12+038099999V0209991C00001220001CN0100001N9+01391+00391102231ADDAY101999GF101991001001999999001041KA1999M+01611MW1051
0043065900999991949032600004+49617+006200FM-12+038099999V0200501N00461220001CN0080001N9+00781+00111102271ADDAY101999GF100991001001999999001001MW1001
0056065900999991949032606004+49617+006200FM-12+038099999V0203601N00101220001CN0070001N9+00721+00221102461ADDAY101999GF104991001001999999031021KA1999N+00501MW1031
0043065900999991949032612004+49617+006200FM-12+038099999V0200201N00671220001CN0160001N9+01501-00221102311ADDAY111999GF104991001001999999001061MW1021
0056065900999991949032618004+49617+006200FM-12+038099999V0200401N00461220001CN0120001N9+01281+00111102151ADDAY111999GF102991011041008001001051KA1999M+01721MW1021
0043065900999991949032700004+49617+006200FM-12+038099999V0200201N00461220001CN0100001N9+00891+00221102091ADDAY101999GF100991001001999999001001MW1021
0056065900999991949032706004+49617+006200FM-12+038099999V0200201N00461220001CN0050001N9+00611+00111102201ADDAY101999GF100991001001999999001001KA1999N+00501MW1001
0043065900999991949032712004+49617+006200FM-12+038099999V0200201N00931220001CN0050001N9+01611-00111102021ADDAY101999GF100991001001999999001001MW1051
0056065900999991949032718004+49617+006200FM-12+038099999V0200201N00671220001CN0050001N9+01391+00111101891ADDAY101999GF100991001001999999001001KA1999M+01721MW1051
0043065900999991949032800004+49617+006200FM-12+038099999V0200301N00671220001CN0080001N9+00891+00281102291ADDAY101999GF100991001001999999001001MW1001
0056065900999991949032806004+49617+006200FM-12+038099999V0200201N00461220001CN0060001N9+00611+00281102161ADDAY101999GF100991001001999999001001KA1999N+00501MW1051
0062065900999991949032812004+49617+006200FM-12+038099999V0200701N00461220001CN9999999N9+01611+00391102101ADDAY101999GF100991001001999999001001MW1001EQDQ01+060002VODIS 
0056065900999991949032818004+49617+006200FM-12+038099999V0200501N00461220001CN0080001N9+01611+00111102091ADDAY101999GF101991001001999999001051KA1999M+01891MW1031
0043065900999991949032900004+49617+006200FM-12+038099999V0200701N00261220001CN0100001N9+01221+00221102161ADDAY101999GF100991001001999999001001MW1001
0056065900999991949032906004+49617+006200FM-12+038099999V0200501N00461220001CN0050001N9+00781+00221102381ADDAY101999GF103991001001999999001051KA1999N+00721MW1031
0043065900999991949032912004+49617+006200FM-12+038099999V0200901N00261220001CN0100001N9+01721+00281102261ADDAY101999GF100991001001999999001001MW1001
0056065900999991949032918004+49617+006200FM-12+038099999V0201101N00101220001CN0200001N9+01721+00111102061ADDAY101999GF100991001001999999001001KA1999M+02001MW1001
0043065900999991949033000004+49617+006200FM-12+038099999V0200201N00671220001CN0080001N9+01111+00221101821ADDAY101999GF100991001001999999001001MW1001
0056065900999991949033006004+49617+006200FM-12+038099999V0200501N00461220001CN0070001N9+00781+00221102141ADDAY101999GF100991001001999999001001KA1999N+00721MW1001
0062065900999991949033012004+49617+006200FM-12+038099999V0201401N00261220001CN9999999N9+01781+00111101901ADDAY101999GF100991001001999999001001MW1001EQDQ01+060002VODIS 
0056065900999991949033018004+49617+006200FM-12+038099999V0201401N00101220001CN0160001N9+01721+00001101651ADDAY111999GF103991011091012501001031KA1999M+02001MW1021
0043065900999991949033100004+49617+006200FM-12+038099999V0200201N00671220001CN0100001N9+00501+00221101691ADDAY101999GF100991001001999999001001MW1001
0056065900999991949033106004+49617+006200FM-12+038099999V0203601N00261220001CN0050001N9+00721+00281101751ADDAY101999GF101991001001999999001031KA1999N+00501MW1001
0043065900999991949033112004+49617+006200FM-12+038099999V0200201N00261220001CN0150001N9+01611+00781101511ADDAY101999GF100991001001999999001001MW1001
0056065900999991949033118004+49617+006200FM-12+038099999V0203601N00461220001CN0150001N9+01391-00221101391ADDAY101999GF100991001001999999001001KA1999M+01781MW1001
0043065900999991949040100004+49617+006200FM-12+038099999V0200201N00671220001CN0100001N9+00501+00221101691ADDAY101999GF100991001001999999001001MW1001
0056065900999991949040106004+49617+006200FM-12+038099999V0200201N00461220001CN0036001N9+00391+00111101691ADDAY101999GF100991001001999999001001KA1999N+00391MW1051
0062065900999991949040112004+49617+006200FM-12+038099999V0200901N00261220001CN9999999N9+01501+00391101491ADDAY101999GF100991001001999999001001MW1001EQDQ01+050002VODIS 
0056065900999991949040118004+49617+006200FM-12+038099999V0209991C00001220001CN0200001N9+01501+00281101351ADDAY101999GF100991001001999999001001KA1999M+01721MW1001
0043065900999991949040200004+49617+006200FM-12+038099999V0200601N00261220001CN0080001N9+01111+00001101571ADDAY101999GF100991001001999999001001MW1001
0075065900999991949040206004+49617+006200FM-12+038099999V0200701N00261220001CN9999999N9+00721+00111101691ADDAY101999GF100991001001999999001001KA1999N+00721MW1001EQDQ01+060002VODIS 
0062065900999991949040212004+49617+006200FM-12+038099999V0201801N00261220001CN9999999N9+01611+00221101761ADDAY101999GF100991001001999999001001MW1001EQDQ01+070002VODIS 
0056065900999991949040218004+49617+006200FM-12+038099999V0202001N00461004501CN0150001N9+01391+00281101841ADDAY121999GF106991051081004501999999KA1999M+01891MW1021
0043065900999991949040300004+49617+006200FM-12+038099999V0201801N00101220001CN0150001N9+00781+00721102181ADDAY101999GF103991031081008001001001MW1031
0056065900999991949040306004+49617+006200FM-12+038099999V0202001N00461007801CN0100001N9+00781+00721102271ADDAY121999GF105991051051008001999999KA1999N+00611MW1021
0043065900999991949040312004+49617+006200FM-12+038099999V0202001N00931002401CN0080001N9+01001+00891102381ADDAY151999GF108991061051002501999999MW1021
0056065900999991949040318004+49617+006200FM-12+038099999V0202001N00461220001CN0200001N9+01391+00611102151ADDAY121999GF107991001001999999071061KA1999M+01391MW1021
0043065900999991949040400004+49617+006200FM-12+038099999V0201801N00461220001CN0160001N9+01001+00611102141ADDAY121999GF106991001001999999071999MW1021
0056065900999991949040406004+49617+006200FM-12+038099999V0201601N00671220001CN0160001N9+00891+00611101951ADDAY111999GF106991001001999999031061KA1999N+00721MW1021
0043065900999991949040412004+49617+006200FM-12+038099999V0202301N012319999999N0200001N9+01781+00611101551ADDAY121999GF107991041051004501071999MW1021
0056065900999991949040418004+49617+006200FM-12+038099999V0202301N012319999999N0200001N9+01611+00781101571ADDAY121999GF107991021051004501071999KA1999M+01891MW1021
0062065900999991949040500004+49617+006200FM-12+038099999V0202301N01231220001CN0160001N9+01221+00391101661ADDAY121999GF102991999001999999071001MW1021EQDQ01+000002SCOTLC
0056065900999991949040506004+49617+006200FM-12+038099999V0202501N00931004501CN0160001N9+00891+00611101981ADDAY111999GF106991061051004501999999KA1999N+00891MW1021
0043065900999991949040512004+49617+006200FM-12+038099999V0202701N004619999999N0200001N9+01221+00721102021ADDAY121999GF107991041081004501031051MW1021
0056065900999991949040518004+49617+006200FM-12+038099999V0202101N00671004501CN0200001N9+01221+00611101901ADDAY121999GF108991061051004501071999KA1999M+01391MW1021
0043065900999991949040600004+49617+006200FM-12+038099999V0202001N00931004501CN0140001N9+01111+01111101551ADDAY121999GF108991061051004501999999MW1021
0056065900999991949040606004+49617+006200FM-12+038099999V0202001N006719999999N0160001N9+01111+01001101101ADDAY121999GF107991041051008001031999KA1999N+01001MW1031
0043065900999991949040612004+49617+006200FM-12+038099999V0202501N009319999999N0150001N9+01391+00781100661ADDAY181999GF107991041051008001021999MW1251
0056065900999991949040618004+49617+006200FM-12+038099999V0202301N009319999999N0200001N9+01281+01001100421ADDAY121999GF107991041051004501999999KA1999M+01611MW1021
0043065900999991949040700004+49617+006200FM-12+038099999V0202001N01231002401CN0100001N9+01111+01001099871ADDAY121999GF108991061051002501999999MW1811
0056065900999991949040706004+49617+006200FM-12+038099999V0201801N01231001501CN0080001N9+00781+00721099091ADDAY121999GF108991071071001501999999KA1999N+00721MW1631
0043065900999991949040712004+49617+006200FM-12+038099999V0202501N01901004501CN0070001N9+00611+00281099991ADDAY161999GF108991061081004501999999MW1811
0056065900999991949040718004+49617+006200FM-12+038099999V0202701N01541004501CN0160001N9+00111+00001100521ADDAY181999GF106991051091004501041031KA1999M+00781MW1261
0062065900999991949040800004+49617+006200FM-12+038099999V0202501N015419999999N0200001N9+00111-00221100901ADDAY121999GF106991999051001501001001MW1021EQDQ01+000042SCOTLC
0056065900999991949040806004+49617+006200FM-12+038099999V0202501N01231000601CN0200001N9+00111-00221101251ADDAY121999GF107991071081000751001001KA1999N+00001MW1851
0043065900999991949040812004+49617+006200FM-12+038099999V0202901N00931004501CN0160001N9+00391+00111101571ADDAY121999GF107991051081004501999999MW1021
0075065900999991949040818004+49617+006200FM-12+038099999V0203201N00671024001CN0200001N9+00221+00001101791ADDAY121999GF107991061081999999999999KA1999M+00611MW1021EQDQ01+000992SCOLCB
0062065900999991949040900004+49617+006200FM-12+038099999V0202701N00261220001CN0150001N9+00001-00501102111ADDAY101999GF104991999001999999061001MW1021EQDQ01+000002SCOTLC
0056065900999991949040906004+49617+006200FM-12+038099999V0202701N00671000601CN0010001N9-00111-00221102301ADDAY121999GF108991081071000751999999KA1999N-00221MW1701
0043065900999991949040912004+49617+006200FM-12+038099999V0202701N009319999999N0150001N9+00221-00111102551ADDAY181999GF107991041031004501031999MW1261
0056065900999991949040918004+49617+006200FM-12+038099999V0202901N006719999999N0160001N9+00281+00001102771ADDAY181999GF106991041091004501999999KA1999M+00391MW1801
0043065900999991949041000004+49617+006200FM-12+038099999V0202701N00261220001CN0160001N9+00111-00111103031ADDAY151999GF101991011051008001001001MW1011
0056065900999991949041006004+49617+006200FM-12+038099999V0202701N00101220001CN0060001N9-00111-00221103151ADDAY101999GF101991011051004501001011KA1999N-00221MW1021
0043065900999991949041012004+49617+006200FM-12+038099999V0202001N00461220001CN0160001N9+00721-00221103101ADDAY111999GF103991031021008001001001MW1021
0056065900999991949041018004+49617+006200FM-12+038099999V0201601N00461220001CN0200001N9+00721-00111102771ADDAY111999GF105991001001999999001011KA1999M+01001MW1021
0043065900999991949041100004+49617+006200FM-12+038099999V0201601N00101220001CN0160001N9+00281-00221102621ADDAY111999GF102991001001999999001061MW1021
0056065900999991949041106004+49617+006200FM-12+038099999V0201801N00101220001CN0100001N9+00111-00221102461ADDAY121999GF107991001001999999071999KA1999N+00111MW1021
0062065900999991949041112004+49617+006200FM-12+038099999V0201801N00671220001CN0200001N9+01391-00111101951ADDAY111999GF101991999001999999031001MW1021EQDQ01+000002SCOTLC
0056065900999991949041118004+49617+006200FM-12+038099999V0202501N00671220001CN0200001N9+01391-00111101701ADDAY121999GF107991001001999999001061KA1999M+01721MW1031
0043065900999991949041200004+49617+006200FM-12+038099999V0202501N004619999999N0200001N9+01001+00001101751ADDAY121999GF106991011011008001001081MW1021
0056065900999991949041206004+49617+006200FM-12+038099999V0202501N006719999999N0160001N9+00781+00391101741ADDAY121999GF108991011051008001071999KA1999N+00721MW1021
0043065900999991949041212004+49617+006200FM-12+038099999V0202501N00931001501CN0060001N9+01001+00781101721ADDAY161999GF108991071051001501999999MW1201
0056065900999991949041218004+49617+006200FM-12+038099999V0202501N00931004501CN0120001N9+01221+00781101711ADDAY121999GF108991061051004501999999KA1999M+01221MW1021
0043065900999991949041300004+49617+006200FM-12+038099999V0202601N009319999999N0060001N9+01111+01001101911ADDAY161999GF108991041051004501021999MW1211
0056065900999991949041306004+49617+006200FM-12+038099999V0202501N00671220001CN0050001N9+01001+00781102071ADDAY111999GF104991011011004501041061KA1999N+01001MW1031
0043065900999991949041312004+49617+006200FM-12+038099999V0202501N00931220001CN0200001N9+01781+00611101991ADDAY111999GF104991001001999999001081MW1021
0056065900999991949041318004+49617+006200FM-12+038099999V0202501N00461220001CN0200001N9+01781+00391102011ADDAY111999GF103991001001999999001061KA1999M+01891MW1031
0043065900999991949041400004+49617+006200FM-12+038099999V0203401N00101220001CN0200001N9+01001+00611102271ADDAY111999GF102991001001999999001061MW1021
0056065900999991949041406004+49617+006200FM-12+038099999V0200201N00101007801CN0160001N9+00781+00501102531ADDAY121999GF108991081061008001999999KA1999N+00721MW1021
0062065900999991949041412004+49617+006200FM-12+038099999V0201401N00261220001CN9999999N9+01501+00721102421ADDAY111999GF100991001001999999001001MW1001EQDQ01+060002VODIS 
0056065900999991949041418004+49617+006200FM-12+038099999V0200501N00101220001CN0150001N9+01721+00721102271ADDAY101999GF100991001001999999001001KA1999M+01891MW1001
0043065900999991949041500004+49617+006200FM-12+038099999V0200501N00461220001CN0120001N9+01111+00721102491ADDAY101999GF100991001001999999001001MW1001
0056065900999991949041506004+49617+006200FM-12+038099999V0200401N00461220001CN0060001N9+00891+00721102531ADDAY101999GF100991001001999999001001KA1999N+00781MW1001
0043065900999991949041512004+49617+006200FM-12+038099999V0201101N00671220001CN0160001N9+02001+00721102301ADDAY101999GF101991001001999999001011MW1021
0056065900999991949041518004+49617+006200FM-12+038099999V0201001N00461220001CN0160001N9+02001+00611102071ADDAY101999GF101991001001999999001011KA1999M+02281MW1021
0043065900999991949041600004+49617+006200FM-12+038099999V0200901N00671220001CN0150001N9+01501+00221102151ADDAY101999GF100991001001999999001001MW1001
0056065900999991949041606004+49617+006200FM-12+038099999V0200501N00101220001CN0150001N9+01111+00281102201ADDAY101999GF101991001001999999001051KA1999N+00891MW1021
0043065900999991949041612004+49617+006200FM-12+038099999V0201101N00671220001CN0160001N9+02281+00281101981ADDAY101999GF101991001001999999001011MW1021
0056065900999991949041618004+49617+006200FM-12+038099999V0200901N00261220001CN0200001N9+02111+00501101841ADDAY101999GF101991001001999999001011KA1999M+02501MW1021
0043065900999991949041700004+49617+006200FM-12+038099999V0200901N00461220001CN0200001N9+01611+00111102101ADDAY101999GF100991001001999999001001MW1001
0056065900999991949041706004+49617+006200FM-12+038099999V0201001N00261220001CN0200001N9+01281+00281102181ADDAY101999GF100991001001999999001001KA1999N+01221MW1001
0043065900999991949041712004+49617+006200FM-12+038099999V0201401N00261220001CN0150001N9+02281+00781102101ADDAY101999GF100991001001999999001001MW1001
0056065900999991949041718004+49617+006200FM-12+038099999V0203601N00261220001CN0200001N9+02391+00781102031ADDAY111999GF103991021031008001001031KA1999M+02721MW1021
0043065900999991949041800004+49617+006200FM-12+038099999V0202901N00101220001CN0160001N9+01781+01111102291ADDAY101999GF100991001001999999001001MW1001
0056065900999991949041806004+49617+006200FM-12+038099999V0200701N00101220001CN0160001N9+01611+01001102371ADDAY101999GF100991001001999999001001KA1999N+01391MW1001
0043065900999991949041812004+49617+006200FM-12+038099999V0202001N00461220001CN0120001N9+02501+01001102221ADDAY101999GF102991021011012501001001MW1031
0056065900999991949041818004+49617+006200FM-12+038099999V0202501N00461220001CN0200001N9+02281+01001102151ADDAY111999GF101991011031012501001001KA1999M+02721MW1011
0043065900999991949041900004+49617+006200FM-12+038099999V0202701N00101220001CN0200001N9+01721+00891102311ADDAY101999GF100991001001999999001001MW1001
0056065900999991949041906004+49617+006200FM-12+038099999V0203401N00461220001CN0070001N9+01281+01111102461ADDAY101999GF104991041051008001001001KA1999N+01001MW1021
0043065900999991949041912004+49617+006200FM-12+038099999V0203401N00461220001CN0150001N9+01721+00611102451ADDAY111999GF107991001001999999001071MW1021
0056065900999991949041918004+49617+006200FM-12+038099999V0203201N00261220001CN0150001N9+01721+00501102201ADDAY121999GF106991001001999999071061KA1999M+01891MW1031
0043065900999991949042000004+49617+006200FM-12+038099999V0202501N00101220001CN0160001N9+01001+00611102371ADDAY101999GF100991001001999999001001MW1001
0056065900999991949042006004+49617+006200FM-12+038099999V0202501N00461007801CN0160001N9+00781+00391102441ADDAY111999GF107991071051008001999999KA1999N+00721MW1021
0043065900999991949042012004+49617+006200FM-12+038099999V0202501N00261004501CN0120001N9+01281+00721102191ADDAY121999GF107991051081004501071999MW1021
0056065900999991949042018004+49617+006200FM-12+038099999V0203601N00261220001CN0100001N9+01221+00391102051ADDAY121999GF104991011051008001031001KA1999M+01391MW1031
0043065900999991949042100004+49617+006200FM-12+038099999V0200501N00461007801CN0130001N9+00781+00221101901ADDAY121999GF105991051051008001999999MW1011
0075065900999991949042106004+49617+006200FM-12+038099999V0200501N00261220001CN0080001N9+00721+00111101511ADDAY111999GF102991999001999999031001KA1999N+00501MW1021EQDQ01+000002SCOTLC
0062065900999991949042112004+49617+006200FM-12+038099999V0201401N00101220001CN0120001N9+01781+00781100921ADDAY111999GF101991999001999999031001MW1011EQDQ01+000002SCOTLC
0056065900999991949042118004+49617+006200FM-12+038099999V0201801N002619999999N0150001N9+01891+01111100611ADDAY111999GF105991011051008001001061KA1999M+02111MW1021
0062065900999991949042200004+49617+006200FM-12+038099999V0201801N00261220001CN0150001N9+01391+01001100741ADDAY111999GF103991999001999999041001MW1021EQDQ01+000002SCOTLC
0056065900999991949042206004+49617+006200FM-12+038099999V0203401N00671001501CN0070001N9+00781+00721101361ADDAY101999GF108991071051001501999999KA1999N+00781MW1021
0043065900999991949042212004+49617+006200FM-12+038099999V0203201N00671220001CN0200001N9+01001-00111102111ADDAY121999GF101991011011008001041001MW1011
0056065900999991949042218004+49617+006200FM-12+038099999V0203601N00461220001CN0200001N9+01111+00001102371ADDAY111999GF105991001001999999001061KA1999M+01281MW1021
0043065900999991949042300004+49617+006200FM-12+038099999V0200201N00101220001CN0200001N9+00391-00111102811ADDAY111999GF101991001001999999001051MW1031
0056065900999991949042306004+49617+006200FM-12+038099999V0200201N00261220001CN0160001N9+00391+00001102831ADDAY111999GF104991001001999999001061KA1999N+00221MW1021
0043065900999991949042312004+49617+006200FM-12+038099999V0201401N00101220001CN0160001N9+01391-00221102501ADDAY111999GF101991001001999999001061MW1021
0056065900999991949042318004+49617+006200FM-12+038099999V0200701N00261220001CN0160001N9+01611+00001102141ADDAY111999GF100991001001999999001001KA1999M+01721MW1001
0043065900999991949042400004+49617+006200FM-12+038099999V0200501N00261220001CN0160001N9+00891+00001102141ADDAY101999GF100991001001999999001001MW1001
0056065900999991949042406004+49617+006200FM-12+038099999V0200501N00261220001CN0160001N9+00781+00111101891ADDAY101999GF101991001001999999001051KA1999N+00721MW1021
0043065900999991949042412004+49617+006200FM-12+038099999V0201601N00461220001CN0200001N9+01891+00501101441ADDAY101999GF101991001001999999001011MW1021
0056065900999991949042418004+49617+006200FM-12+038099999V0201601N00261220001CN0200001N9+01891+00891101001ADDAY121999GF106991001001999999001061KA1999M+02111MW1031
0043065900999991949042500004+49617+006200FM-12+038099999V0202501N00261220001CN0160001N9+01281+01221101021ADDAY121999GF104991041051008001999999MW1021
0056065900999991949042506004+49617+006200FM-12+038099999V0202001N00261220001CN0120001N9+01221+01111100741ADDAY121999GF102991001001999999001061KA1999N+01001MW1021
0043065900999991949042512004+49617+006200FM-12+038099999V0202501N00671004501CN0050001N9+01281+01111100741ADDAY121999GF108991051071004501999999MW1211
0056065900999991949042518004+49617+006200FM-12+038099999V0203201N004119999999N0120001N9+00501+00391101221ADDAY161999GF108991041071004501021999KA1999M+01611MW1601
0043065900999991949042600004+49617+006200FM-12+038099999V0202701N00261002401CN0120001N9+00391+00281101501ADDAY121999GF108991061071002501999999MW1211
0056065900999991949042606004+49617+006200FM-12+038099999V0202701N002619999999N0060001N9+00281+00221101721ADDAY121999GF107991041051008001071999KA1999N+00281MW1021
0062065900999991949042612004+49617+006200FM-12+038099999V0203401N004619999999N0100001N9+01001+00221101801ADDAY181999GF106991999091008001001001MW1011EQDQ01+000042SCOTLC
0056065900999991949042618004+49617+006200FM-12+038099999V0202901N001019999999N0200001N9+00781+00391101991ADDAY121999GF106991041091008001001031KA1999M+01111MW1021
0043065900999991949042700004+49617+006200FM-12+038099999V0200201N00261220001CN0200001N9+00391+00221102331ADDAY121999GF100991001001999999001001MW1001
0075065900999991949042706004+49617+006200FM-12+038099999V0200201N00461220001CN0060001N9+00391+00281102531ADDAY111999GF105991999001999999031001KA1999N+00221MW1021EQDQ01+000002SCOTLC
0043065900999991949042712004+49617+006200FM-12+038099999V0200201N00511007801CN0100001N9+00891+00391102571ADDAY121999GF108991061081008001999999MW1021
0056065900999991949042718004+49617+006200FM-12+038099999V0201101N00211004501CN0090001N9+01001+00501102651ADDAY121999GF108991071051004501999999KA1999M+01111MW1021
0043065900999991949042800004+49617+006200FM-12+038099999V0209991C00001004501CN0080001N9+00781+00501102851ADDAY121999GF108991061051004501999999MW1021
0056065900999991949042806004+49617+006200FM-12+038099999V0201801N00101004501CN0030001N9+00781+00611102851ADDAY121999GF108991071051004501999999KA1999N+00721MW1051
0043065900999991949042812004+49617+006200FM-12+038099999V0202301N00461007801CN0120001N9+01391+00281102571ADDAY121999GF106991061051008001999999MW1011
0056065900999991949042818004+49617+006200FM-12+038099999V0202501N00261220001CN0100001N9+01391+00501102221ADDAY121999GF103991011011008001041001KA1999M+01501MW1021
0062065900999991949042900004+49617+006200FM-12+038099999V0202501N00101220001CN0060001N9+00891+00501102101ADDAY101999GF102991999001999999041001MW1021EQDQ01+000002SCOTLC
0056065900999991949042906004+49617+006200FM-12+038099999V0202001N00261004501CN0046001N9+00781+00611101791ADDAY101999GF108991081061004501999999KA1999N+00611MW1051
0043065900999991949042912004+49617+006200FM-12+038099999V0202501N009319999999N0160001N9+01391+00281101571ADDAY121999GF106991041081004501999999MW1021
0056065900999991949042918004+49617+006200FM-12+038099999V0203401N00671004501CN0200001N9+00721+00391101721ADDAY121999GF108991061051004501999999KA1999M+01501MW1021
0043065900999991949043000004+49617+006200FM-12+038099999V0203601N006719999999N0160001N9+00501+00221101911ADDAY121999GF106991041051004501999999MW1021
0056065900999991949043006004+49617+006200FM-12+038099999V0203401N00671220001CN0200001N9+00391+00001102011ADDAY121999GF104991011051008001001061KA1999N+00281MW1021
0043065900999991949043012004+49617+006200FM-12+038099999V0200201N012319999999N0200001N9+00281-00221102161ADDAY121999GF106991041051008001001061MW1021
0056065900999991949043018004+49617+006200FM-12+038099999V0200201N00931007801CN0160001N9+00611-00281102391ADDAY121999GF107991061051008001001061KA1999M+00891MW1021
0043065900999991949050100004+49617+006200FM-12+038099999V0203601N00671220001CN0160001N9+00281-00111102701ADDAY121999GF100991001001999999001001MW1001
0056065900999991949050106004+49617+006200FM-12+038099999V0200201N00931220001CN0160001N9+00221-00111102871ADDAY101999GF105991001001999999001061KA1999N+00111MW1021
0043065900999991949050112004+49617+006200FM-12+038099999V0200401N01651220001CN0200001N9+01001-00111102711ADDAY121999GF103991031011008001001051MW1021
0056065900999991949050118004+49617+006200FM-12+038099999V0200501N00981220001CN0200001N9+01111-00281102631ADDAY101999GF101991011081012501001051KA1999M+01221MW1021
0043065900999991949050200004+49617+006200FM-12+038099999V0200201N00931220001CN0200001N9+00721-00111102741ADDAY101999GF100991001001999999001001MW1001
0056065900999991949050206004+49617+006200FM-12+038099999V0200201N00931220001CN0200001N9+00721+00001102621ADDAY101999GF101991001001999999001051KA1999N+00501MW1021
0043065900999991949050212004+49617+006200FM-12+038099999V0200701N00931220001CN0200001N9+01501+00001102341ADDAY111999GF101991001001999999001051MW1021
0056065900999991949050218004+49617+006200FM-12+038099999V0200201N00931220001CN0200001N9+01611+00111102121ADDAY101999GF100991001001999999001001KA1999M+01721MW1001
0062065900999991949050300004+49617+006200FM-12+038099999V0200501N00931220001CN0200001N9+01111+00111102261ADDAY101999GF102991999001999999041001MW1031EQDQ01+000002SCOTLC
0075065900999991949050306004+49617+006200FM-12+038099999V0200201N00931220001CN0200001N9+01001+00281102071ADDAY101999GF101991999001999999041001KA1999N+00781MW1011EQDQ01+000002SCOTLC
0043065900999991949050312004+49617+006200FM-12+038099999V0200501N01031220001CN0200001N9+02001+00611101711ADDAY101999GF101991001001999999041011MW1021
0056065900999991949050318004+49617+006200FM-12+038099999V0200601N00621220001CN0200001N9+02111+00611101471ADDAY111999GF104991001001999999001061KA1999M+02221MW1021
0043065900999991949050400004+49617+006200FM-12+038099999V0200201N00461220001CN0200001N9+01391+00611101431ADDAY111999GF100991001001999999001001MW1001
0056065900999991949050406004+49617+006200FM-12+038099999V0200701N00261220001CN0200001N9+01221+00611101231ADDAY101999GF104991001001999999031061KA1999N+01111MW1021
0043065900999991949050412004+49617+006200FM-12+038099999V0201801N00461220001CN0060001N9+01721+01221100911ADDAY121999GF106991001001999999001061MW1021
0056065900999991949050418004+49617+006200FM-12+038099999V0202001N002619999999N0060001N9+01891+01221100541ADDAY121999GF105991021021012501001061KA1999M+02001MW1021
0043065900999991949050500004+49617+006200FM-12+038099999V0201601N00101220001CN0120001N9+01281+01111100461ADDAY121999GF106991001001999999031061MW1021
0056065900999991949050506004+49617+006200FM-12+038099999V0209991C000019999999N0050001N9+01281+01111100111ADDAY121999GF106991011021012501071061KA1999N+01001MW1021
0043065900999991949050512004+49617+006200FM-12+038099999V0202001N00461001501CN0070001N9+01111+01111100261ADDAY161999GF108991051071001501021999MW1611
0056065900999991949050518004+49617+006200FM-12+038099999V0202501N00461002401CN0200001N9+01111+01001100221ADDAY121999GF107991051051002501071999KA1999M+01391MW1021
0043065900999991949050600004+49617+006200FM-12+038099999V0202501N00261004501CN0160001N9+00891+00891100421ADDAY121999GF108991061051004501999999MW1031
0056065900999991949050606004+49617+006200FM-12+038099999V0202701N00461002401CN0080001N9+00501+00391100871ADDAY121999GF108991061051002501999999KA1999N+00391MW1601
0043065900999991949050612004+49617+006200FM-12+038099999V0202501N008219999999N0200001N9+01001+00111101251ADDAY121999GF106991041051008001031999MW1021
0056065900999991949050618004+49617+006200FM-12+038099999V0202701N008219999999N0100001N9+01001+00391101511ADDAY121999GF107991041091008001031061KA1999M+01221MW1811
0043065900999991949050700004+49617+006200FM-12+038099999V0202501N00101007801CN0200001N9+00611+00611101821ADDAY121999GF107991061051008001999999MW1021
0056065900999991949050706004+49617+006200FM-12+038099999V0202701N001019999999N0060001N9+00501+00391101941ADDAY121999GF105991021051008001041001KA1999N+00281MW1021
0043065900999991949050712004+49617+006200FM-12+038099999V0202501N004619999999N0200001N9+00891+00221102061ADDAY121999GF105991041081004501061001MW1011
0056065900999991949050718004+49617+006200FM-12+038099999V0202901N00261004501CN0200001N9+01001+00391102221ADDAY121999GF106991051051004501999999KA1999M+01221MW1021
0062065900999991949050800004+49617+006200FM-12+038099999V0200201N00151220001CN0150001N9+00501+00281102581ADDAY121999GF104991999001999999031001MW1021EQDQ01+000002SCOTLC
0056065900999991949050806004+49617+006200FM-12+038099999V0200501N00311220001CN0080001N9+00281+00111102791ADDAY101999GF101991001001999999001011KA1999N+00111MW1021
0043065900999991949050812004+49617+006200FM-12+038099999V0200801N00211220001CN0200001N9+00891-00111102701ADDAY111999GF103991031021008001001001MW1021
0056065900999991949050818004+49617+006200FM-12+038099999V0200201N00461220001CN0200001N9+01111+00001102511ADDAY111999GF101991011011008001001001KA1999M+01221MW1021
0062065900999991949050900004+49617+006200FM-12+038099999V0209991C00001220001CN0200001N9+00281+00001102671ADDAY101999GF104991999001999999031001MW1031EQDQ01+000002SCOTLC
0056065900999991949050906004+49617+006200FM-12+038099999V0202501N00261012301CN0040001N9+00501+00221102491ADDAY121999GF107991061051012501999999KA1999N+00221MW1021
0043065900999991949050912004+49617+006200FM-12+038099999V0203401N004619999999N0200001N9+00721+00001102511ADDAY121999GF106991041081004501999999MW1021
0056065900999991949050918004+49617+006200FM-12+038099999V0203601N00461220001CN0200001N9+00721-00221102621ADDAY121999GF102991021021008001001001KA1999M+00891MW1011
0043065900999991949051000004+49617+006200FM-12+038099999V0203601N00461220001CN0160001N9+00221-00221102901ADDAY111999GF100991001001999999001001MW1001
0056065900999991949051006004+49617+006200FM-12+038099999V0203601N00461220001CN0160001N9+00221-00111102951ADDAY101999GF104991011051008001001061KA1999N-00111MW1031
0043065900999991949051012004+49617+006200FM-12+038099999V0200201N01231007801CN0200001N9+00781-00281103011ADDAY121999GF106991061021008001001001MW1021
0056065900999991949051018004+49617+006200FM-12+038099999V0203601N00671220001CN0160001N9+00721-00111102971ADDAY121999GF104991041081008001001001KA1999M+01001MW1011
0043065900999991949051100004+49617+006200FM-12+038099999V0200201N00511220001CN0120001N9+00281-00111103101ADDAY101999GF101991001001999999001051MW1021
0056065900999991949051106004+49617+006200FM-12+038099999V0200301N006719999999N0060001N9+00391+00111103051ADDAY111999GF107991021051012501001081KA1999N+00221MW1021
0043065900999991949051112004+49617+006200FM-12+038099999V0200701N006719999999N0200001N9+01221-00281102811ADDAY121999GF106991041081004501001061MW1021
0056065900999991949051118004+49617+006200FM-12+038099999V0200201N00461220001CN0200001N9+01111-00281102651ADDAY121999GF104991031081004501001051KA1999M+01221MW1021
0043065900999991949051200004+49617+006200FM-12+038099999V0200301N00461220001CN0060001N9+00501+00221102791ADDAY101999GF100991001001999999001001MW1001
0056065900999991949051206004+49617+006200FM-12+038099999V0200201N00571220001CN0160001N9+00501-00111102731ADDAY101999GF103991021051008001041021KA1999N+00281MW1031
0043065900999991949051212004+49617+006200FM-12+038099999V0200501N009819999999N0200001N9+01391+00001102471ADDAY121999GF107991031051012501001061MW1031
0056065900999991949051218004+49617+006200FM-12+038099999V0200201N00571012301CN0160001N9+01281+00281102491ADDAY121999GF108991061051012501011999KA1999M+01501MW1021
0043065900999991949051300004+49617+006200FM-12+038099999V0200201N00461007801CN0200001N9+01111+00221102491ADDAY121999GF108991071051008001999999MW1021
0056065900999991949051306004+49617+006200FM-12+038099999V0200201N004619999999N0200001N9+00891+00221102421ADDAY121999GF105991021051012501031001KA1999N+00781MW1011
0043065900999991949051312004+49617+006200FM-12+038099999V0200701N009319999999N0200001N9+01391+00221102051ADDAY111999GF106991041051008001999999MW1021
0056065900999991949051318004+49617+006200FM-12+038099999V0200501N003619999999N0160001N9+01221+00611101751ADDAY121999GF105991031051008001031051KA1999M+01501MW1011
0043065900999991949051400004+49617+006200FM-12+038099999V0203601N004119999999N0160001N9+01111+00391101441ADDAY121999GF106991031051008001031999MW1021
0056065900999991949051406004+49617+006200FM-12+038099999V0200501N003619999999N0100001N9+00891+00721101141ADDAY121999GF106991041051008001031061KA1999N+00781MW1021
0043065900999991949051412004+49617+006200FM-12+038099999V0200901N00101007801CN0200001N9+01281+00721100921ADDAY121999GF108991051081008001999999MW1021
0056065900999991949051418004+49617+006200FM-12+038099999V0202001N00261012301CN0160001N9+01501+00501100701ADDAY121999GF107991051081012501001061KA1999M+01611MW1021
0062065900999991949051500004+49617+006200FM-12+038099999V0202701N00101220001CN0200001N9+00781+00611100811ADDAY111999GF101991999001999999041001MW1011EQDQ01+000002SCOTLC
0056065900999991949051506004+49617+006200FM-12+038099999V0202701N001019999999N0020001N9+00721+00611100781ADDAY141999GF105991031051008001031001KA1999N+00391MW1421
0043065900999991949051512004+49617+006200FM-12+038099999V0202701N004619999999N0030001N9+01391+00891100581ADDAY141999GF105991041081002501999999MW1021
0056065900999991949051518004+49617+006200FM-12+038099999V0202901N003119999999N0120001N9+01391+00781100431ADDAY121999GF105991041081004501001031KA1999M+01501MW1021
0043065900999991949051600004+49617+006200FM-12+038099999V0200501N00051220001CN0060001N9+00781+00721100561ADDAY101999GF100991001001999999001001MW1001
0056065900999991949051606004+49617+006200FM-12+038099999V0201401N00101007801CN0046001N9+00891+00781100641ADDAY121999GF106991051021008001031999KA1999N+00611MW1021
0043065900999991949051612004+49617+006200FM-12+038099999V0202001N00671012301CN0160001N9+01781+00721100541ADDAY121999GF106991051081012501001021MW1021
0056065900999991949051618004+49617+006200FM-12+038099999V0201801N00671012301CN0160001N9+01611+00781100501ADDAY181999GF108991051081012501021999KA1999M+01891MW1801
0043065900999991949051700004+49617+006200FM-12+038099999V0201601N00461007801CN0200001N9+01111+01001100671ADDAY121999GF108991071051008001999999MW1021
0056065900999991949051706004+49617+006200FM-12+038099999V0201601N004619999999N0050001N9+01111+01001100741ADDAY121999GF106991041051004501011999KA1999N+00891MW1021
0043065900999991949051712004+49617+006200FM-12+038099999V0201801N00871007801CN0080001N9+01501+00891100631ADDAY121999GF107991051081008001011999MW1021
0056065900999991949051718004+49617+006200FM-12+038099999V0201801N009319999999N0200001N9+01221+00891100691ADDAY161999GF107991011021008001021999KA1999M+01611MW1021
0043065900999991949051800004+49617+006200FM-12+038099999V0201801N00671220001CN0200001N9+00891+00781100811ADDAY121999GF104991011051008001071999MW1011
0056065900999991949051806004+49617+006200FM-12+038099999V0202001N00261001501CN0100001N9+00781+00781100961ADDAY111999GF107991061051001501999999KA1999N+00611MW1401
0043065900999991949051812004+49617+006200FM-12+038099999V0202301N004619999999N0200001N9+01391+00611101021ADDAY121999GF106991041081008001999999MW1021
0075065900999991949051818004+49617+006200FM-12+038099999V0202901N00101220001CN0160001N9+01391+00721101041ADDAY121999GF102991999001999999031001KA1999M+01501MW1011EQDQ01+000002SCOTLC
0043065900999991949051900004+49617+006200FM-12+038099999V0200201N00261220001CN0160001N9+00781+00611101261ADDAY101999GF100991001001999999001001MW1001
0056065900999991949051906004+49617+006200FM-12+038099999V0200201N00461220001CN0050001N9+01001+00721101261ADDAY111999GF104991001001999999041061KA1999N+00721MW1031
0043065900999991949051912004+49617+006200FM-12+038099999V0200901N00411007801CN0046001N9+01221+01111101291ADDAY161999GF108991061071008001021999MW1621
0056065900999991949051918004+49617+006200FM-12+038099999V0203401N00361004501CN0040001N9+01221+01111101191ADDAY161999GF108991051051004501999999KA1999M+01281MW1211
0043065900999991949052000004+49617+006200FM-12+038099999V0202901N00101220001CN0030001N9+01001+01001101321ADDAY121999GF104991041051004501999999MW1401
0056065900999991949052006004+49617+006200FM-12+038099999V0203401N00101002401CN0020001N9+01111+01001101251ADDAY121999GF108991071051002501999999KA1999N+01001MW1021
0043065900999991949052012004+49617+006200FM-12+038099999V0203601N00461004501CN0060001N9+01391+01111101491ADDAY121999GF108991061051004501999999MW1021
0056065900999991949052018004+49617+006200FM-12+038099999V0200201N00261004501CN0040001N9+01281+01111101701ADDAY121999GF108991071051004501021999KA1999M+01501MW1601
0043065900999991949052100004+49617+006200FM-12+038099999V0200201N00671004501CN0140001N9+01111+00781101911ADDAY121999GF108991071051004501999999MW1021
0056065900999991949052106004+49617+006200FM-12+038099999V0203401N00261012301CN0160001N9+00891+00281102061ADDAY121999GF107991071051012501999999KA1999N+00781MW1021
0043065900999991949052112004+49617+006200FM-12+038099999V0200201N00621220001CN0200001N9+01721+00281101911ADDAY101999GF101991001001999999041051MW1031
0056065900999991949052118004+49617+006200FM-12+038099999V0200301N004619999999N0200001N9+01501+00721101831ADDAY121999GF107991011041012501001061KA1999M+01781MW1021
0043065900999991949052200004+49617+006200FM-12+038099999V0203601N00261220001CN0200001N9+01111+00501101841ADDAY111999GF100991001001999999001001MW1001
0056065900999991949052206004+49617+006200FM-12+038099999V0200201N00261007801CN0160001N9+01111+00611101651ADDAY121999GF108991071051008001999999KA1999N+00891MW1021
0043065900999991949052212004+49617+006200FM-12+038099999V0200501N00261007801CN0160001N9+01391+00721101511ADDAY121999GF108991061051008001999999MW1021
0075065900999991949052218004+49617+006200FM-12+038099999V0200201N00261220001CN0200001N9+01501+00891101231ADDAY121999GF105991999001999999031001KA1999M+01721MW1011EQDQ01+000002SCOTLC
0062065900999991949052300004+49617+006200FM-12+038099999V0200201N00261220001CN0200001N9+01001+00891101261ADDAY121999GF102991999051008001001001MW1021EQDQ01+000012SCOTLC
0056065900999991949052306004+49617+006200FM-12+038099999V0200701N00261220001CN0060001N9+01111+01001101211ADDAY111999GF105991001001999999001061KA1999N+00781MW1021
0043065900999991949052312004+49617+006200FM-12+038099999V0202301N00621007801CN0100001N9+01781+00721100951ADDAY111999GF106991061081008001999999MW1031
0056065900999991949052318004+49617+006200FM-12+038099999V0200201N003119999999N0160001N9+01721+01001100831ADDAY121999GF107991041081012501999999KA1999M+02001MW1251
0043065900999991949052400004+49617+006200FM-12+038099999V0202701N00261220001CN0200001N9+01221+01001100921ADDAY121999GF100991001001999999001001MW1001
0056065900999991949052406004+49617+006200FM-12+038099999V0201801N002619999999N0060001N9+01111+01001100771ADDAY121999GF106991041051004501041999KA1999N+01001MW1021
0043065900999991949052412004+49617+006200FM-12+038099999V0202301N006219999999N0140001N9+01111+00891100511ADDAY121999GF108991041051004501021999MW1601
0075065900999991949052418004+49617+006200FM-12+038099999V0202901N008219999999N0200001N9+01281+00611100601ADDAY181999GF105991999081004501001001KA1999M+01611MW1021EQDQ01+000042SCOTLC
0043065900999991949052500004+49617+006200FM-12+038099999V0202501N00461220001CN0200001N9+00781+00611101061ADDAY111999GF102991021051008001001001MW1021
0056065900999991949052506004+49617+006200FM-12+038099999V0202301N00671004501CN0060001N9+00891+00721101151ADDAY121999GF107991061051004501999999KA1999N+00721MW1031
0043065900999991949052512004+49617+006200FM-12+038099999V0202501N00671004501CN0200001N9+01221+00611101261ADDAY121999GF107991061051004501999999MW1021
0056065900999991949052518004+49617+006200FM-12+038099999V0202501N006719999999N0200001N9+01281+00721101301ADDAY121999GF107991041051012501041999KA1999M+01391MW1021
0043065900999991949052600004+49617+006200FM-12+038099999V0201801N001019999999N0150001N9+00891+00781101401ADDAY121999GF107991041051008001999999MW1021
0056065900999991949052606004+49617+006200FM-12+038099999V0201801N003119999999N0060001N9+00891+00891101061ADDAY121999GF107991041051008001071999KA1999N+00781MW1021
0043065900999991949052612004+49617+006200FM-12+038099999V0202501N015419999999N0200001N9+01281+00391100821ADDAY161999GF106991041081004501999999MW1021
0056065900999991949052618004+49617+006200FM-12+038099999V0202501N015419999999N0200001N9+01111+00281101131ADDAY121999GF106991041081004501999999KA1999M+01281MW1021
0043065900999991949052700004+49617+006200FM-12+038099999V0202501N00931004501CN0160001N9+00891+00611101781ADDAY121999GF108991051051004501999999MW1021
0056065900999991949052706004+49617+006200FM-12+038099999V0202501N00461004501CN0100001N9+00721+00611102011ADDAY111999GF108991081051004501999999KA1999N+00611MW1021
0043065900999991949052712004+49617+006200FM-12+038099999V0202301N006719999999N0200001N9+01281+00501101901ADDAY121999GF107991041081004501071999MW1021
0056065900999991949052718004+49617+006200FM-12+038099999V0202001N004619999999N0200001N9+01501+00611101591ADDAY121999GF106991011021008001001061KA1999M+01611MW1021
0043065900999991949052800004+49617+006200FM-12+038099999V0202301N00361220001CN0150001N9+01001+00611101511ADDAY121999GF106991001001999999001061MW1021
0056065900999991949052806004+49617+006200FM-12+038099999V0202001N00621220001CN0060001N9+01001+00781101501ADDAY121999GF106991001001999999041061KA1999N+00721MW1021
0043065900999991949052812004+49617+006200FM-12+038099999V0202001N00821220001CN0200001N9+02001+00611101251ADDAY111999GF101991011011008001041051MW1021
0056065900999991949052818004+49617+006200FM-12+038099999V0202501N00461220001CN0400001N9+02221+00611101001ADDAY101999GF104991031081012501041001KA1999M+02281MW1031
0043065900999991949052900004+49617+006200FM-12+038099999V0202701N00261002401CN0200001N9+01391+01281101211ADDAY191999GF108991071071002501999999MW1611
0056065900999991949052906004+49617+006200FM-12+038099999V0201601N00261002401CN0030001N9+01391+01391101141ADDAY161999GF108991081061002501999999KA1999N+01281MW1501
0043065900999991949052912004+49617+006200FM-12+038099999V0202701N00511004501CN0150001N9+01721+01391100901ADDAY181999GF108991071081004501999999MW1251
0056065900999991949052918004+49617+006200FM-12+038099999V0202501N00101001501CN0048001N9+01221+01111101141ADDAY161999GF108991071071001501999999KA1999M+01721MW1511
0043065900999991949053000004+49617+006200FM-12+038099999V0202501N00101004501CN0150001N9+01001+01001101291ADDAY121999GF108991071051004501999999MW1021
0056065900999991949053006004+49617+006200FM-12+038099999V0209991C00001001501CN0006001N9+01111+01111101251ADDAY121999GF108991071071001501999999KA1999N+00891MW1531
0043065900999991949053012004+49617+006200FM-12+038099999V0202301N004619999999N0200001N9+01611+00891101151ADDAY121999GF105991041081008001001061MW1011
0056065900999991949053018004+49617+006200FM-12+038099999V0203401N00101007801CN0200001N9+01721+00891100851ADDAY111999GF106991061081008001031061KA1999M+01781MW1031
0043065900999991949053100004+49617+006200FM-12+038099999V0202701N00461002401CN0120001N9+01111+01111100781ADDAY161999GF108991071071002501999999MW1631
0056065900999991949053106004+49617+006200FM-12+038099999V0203201N00461001501CN0020001N9+00891+00891101071ADDAY121999GF108991071061001501999999KA1999N+00891MW1501
0043065900999991949053112004+49617+006200FM-12+038099999V0200901N001019999999N0200001N9+01221+00501101171ADDAY121999GF107991041081004501071999MW1021
0056065900999991949053118004+49617+006200FM-12+038099999V0201801N001019999999N0200001N9+01281+00781101171ADDAY121999GF107991041081008001071061KA1999M+01501MW1021
0043065900999991949060100004+49617+006200FM-12+038099999V0201601N00101220001CN0120001N9+00891+00891101301ADDAY121999GF104991041051008001001001MW1011
0056065900999991949060106004+49617+006200FM-12+038099999V0201401N00101220001CN0060001N9+00891+00781101301ADDAY111999GF100991001001999999001001KA1999N+00611MW1281
0043065900999991949060112004+49617+006200FM-12+038099999V0201601N004619999999N0200001N9+01611+00611101171ADDAY121999GF106991041081008001001061MW1031
0056065900999991949060118004+49617+006200FM-12+038099999V0201401N002619999999N0200001N9+01721+00781101031ADDAY121999GF106991041081012501001061KA1999M+01781MW1011
0043065900999991949060200004+49617+006200FM-12+038099999V0202001N00101220001CN0200001N9+01001+00891101261ADDAY111999GF100991001001999999001001MW1001
0056065900999991949060206004+49617+006200FM-12+038099999V0202501N00261004501CN0050001N9+00891+00891101421ADDAY121999GF107991071051004501999999KA1999N+00721MW1031
0043065900999991949060212004+49617+006200FM-12+038099999V0203201N00151004501CN0200001N9+01221+00891101591ADDAY181999GF107991051031004501999999MW1251
0056065900999991949060218004+49617+006200FM-12+038099999V0202501N002619999999N0200001N9+01501+00501101581ADDAY121999GF107991031081004501031001KA1999M+01721MW1021
0043065900999991949060300004+49617+006200FM-12+038099999V0209991C00001220001CN0160001N9+00891+00721101871ADDAY121999GF101991011051012501001001MW1011
0056065900999991949060306004+49617+006200FM-12+038099999V0201801N00101220001CN0060001N9+01001+00721101821ADDAY141999GF102991001001999999041051KA1999N+00611MW1031
0043065900999991949060312004+49617+006200FM-12+038099999V0201801N006719999999N0200001N9+01721+00611101491ADDAY111999GF105991041011008001001061MW1031
0056065900999991949060318004+49617+006200FM-12+038099999V0201601N007719999999N0050001N9+01001+00891101021ADDAY161999GF108991041051004501021999KA1999M+01721MW1641
0043065900999991949060400004+49617+006200FM-12+038099999V0202501N01131220001CN0200001N9+01111+00891101151ADDAY161999GF104991041051004501001001MW1021
0056065900999991949060406004+49617+006200FM-12+038099999V0202501N00461004501CN0200001N9+01001+00891101391ADDAY181999GF106991061051004501999999KA1999N+00891MW1251
0043065900999991949060412004+49617+006200FM-12+038099999V0202501N00771004501CN0200001N9+01221+00781101391ADDAY181999GF106991051081004501999999MW1251
0056065900999991949060418004+49617+006200FM-12+038099999V0202301N010319999999N0120001N9+01391+00781101461ADDAY181999GF106991041081004501031001KA1999M+01721MW1801
0043065900999991949060500004+49617+006200FM-12+038099999V0202301N00101220001CN0160001N9+00781+00781101931ADDAY111999GF103991001001999999031061MW1031
0075065900999991949060506004+49617+006200FM-12+038099999V0202301N00261220001CN0150001N9+01001+00721101971ADDAY111999GF104991999081004501001001KA1999N+00721MW1011EQDQ01+000032SCOTLC
0043065900999991949060512004+49617+006200FM-12+038099999V0202701N00671007801CN0400001N9+01391+00721101981ADDAY111999GF105991051081008001001001MW1021
0056065900999991949060518004+49617+006200FM-12+038099999V0202901N00461220001CN0400001N9+01501+00721102061ADDAY121999GF104991041081008001001001KA1999M+01611MW1011
0043065900999991949060600004+49617+006200FM-12+038099999V0203201N00151220001CN0200001N9+00781+00721102461ADDAY101999GF101991001001999999001011MW1011
0056065900999991949060606004+49617+006200FM-12+038099999V0209991C00001220001CN0080001N9+01111+00721102511ADDAY111999GF101991011051008001001001KA1999N+00611MW1021
0043065900999991949060612004+49617+006200FM-12+038099999V0202001N00461007801CN0200001N9+01781+01001102471ADDAY111999GF105991051021008001001001MW1021
0056065900999991949060618004+49617+006200FM-12+038099999V0202301N00101220001CN0200001N9+02001+01111102261ADDAY101999GF100991001001999999001001KA1999M+02111MW1001
0043065900999991949060700004+49617+006200FM-12+038099999V0200701N00101220001CN0200001N9+01391+00891102301ADDAY101999GF100991001001999999001001MW1001
0056065900999991949060706004+49617+006200FM-12+038099999V0200901N00461220001CN0160001N9+01501+00891102021ADDAY101999GF100991001001999999001001KA1999N+01111MW1001
0043065900999991949060712004+49617+006200FM-12+038099999V0201601N00461220001CN0160001N9+02391+01281101621ADDAY111999GF102991001001999999001061MW1021
0056065900999991949060718004+49617+006200FM-12+038099999V0201801N00261220001CN0200001N9+02281+01611101471ADDAY111999GF104991021081008001001061KA1999M+02611MW1011
0043065900999991949060800004+49617+006200FM-12+038099999V0202701N00461002401CN0080001N9+01611+01501101871ADDAY191999GF108991061071002501021999MW1601
0056065900999991949060806004+49617+006200FM-12+038099999V0202301N00261004501CN0060001N9+01611+01501101981ADDAY121999GF105991051051004501001061KA1999N+01391MW1021
0043065900999991949060812004+49617+006200FM-12+038099999V0201801N00511007801CN0200001N9+02111+01391101911ADDAY121999GF106991051021008001031021MW1021
0056065900999991949060818004+49617+006200FM-12+038099999V0200501N000519999999N0160001N9+02221+01611101691ADDAY121999GF107991041051008001071999KA1999M+02391MW1021
0043065900999991949060900004+49617+006200FM-12+038099999V0203401N00211004501CN0120001N9+01611+01501101721ADDAY181999GF107991061051004501071999MW1021
0056065900999991949060906004+49617+006200FM-12+038099999V0209991C00001007801CN0070001N9+01501+01391101711ADDAY121999GF108991071051008001999999KA1999N+01391MW1021
