0043065900999991955010100004+49617+006200FM-12+038099999V0200801N00721007801CN0045001N9-00111-00501102871ADDAY121999GF108991081051008001999999MW1051
0056065900999991955010106004+49617+006200FM-12+038099999V0200601N00571007801CN0130001N9-00111-00391102851ADDAY121999GF108991081051008001999999KA1999N-00221MW1021
0043065900999991955010112004+49617+006200FM-12+038099999V0200601N00511007801CN0180001N9-00111-00611102881ADDAY121999GF108991071051008001999999MW1021
0056065900999991955010118004+49617+006200FM-12+038099999V0200601N00411007801CN0150001N9-00111-00611102891ADDAY121999GF108991071051008001999999KA1999M-00111MW1021
0043065900999991955010200004+49617+006200FM-12+038099999V0200501N00621001501CN0014001N9-00281-00281102561ADDAY171999GF108991081071001501999999MW1731
0056065900999991955010206004+49617+006200FM-12+038099999V0200601N00621007801CN0070001N9-00501-00781102681ADDAY171999GF108991081051008001999999KA1999N-00721MW1701
0043065900999991955010212004+49617+006200FM-12+038099999V0200501N00511004501CN0090001N9-00281-00721102481ADDAY171999GF107991071081004501001061MW1051
0056065900999991955010218004+49617+006200FM-12+038099999V0200601N00771007801CN0060001N9-00391-00721102441ADDAY181999GF107991071051008001999999KA1999M-00281MW1701
0043065900999991955010300004+49617+006200FM-12+038099999V0200601N00621007801CN0090001N9-00391-00721102391ADDAY171999GF107991071051008001999999MW1051
0056065900999991955010306004+49617+006200FM-12+038099999V0200701N00871220001CN0140001N9-00611-01001102261ADDAY111999GF101991011051008001001001KA1999N-00611MW1021
0043065900999991955010312004+49617+006200FM-12+038099999V0200601N009319999999N0130001N9-00391-00891102071ADDAY111999GF107991011011008001071999MW1031
0056065900999991955010318004+49617+006200FM-12+038099999V0200601N01031220001CN0060001N9-00501-00781102001ADDAY111999GF102991001001999999001051KA1999M-00391MW1051
0043065900999991955010400004+49617+006200FM-12+038099999V0200601N00871220001CN0060001N9-00501-00891101941ADDAY111999GF103991001001999999001051MW1051
0056065900999991955010406004+49617+006200FM-12+038099999V0200601N005719999999N0060001N9-00391-00891101871ADDAY111999GF107991031051012501021999KA1999N-00611MW1051
0043065900999991955010412004+49617+006200FM-12+038099999V0200601N00721012301CN0040001N9-00391-00781102051ADDAY121999GF108991071051012501999999MW1661
0056065900999991955010418004+49617+006200FM-12+038099999V0200801N00461007801CN0030001N9-00281-00391102031ADDAY171999GF108991081051008001999999KA1999M-00281MW1661
0043065900999991955010500004+49617+006200FM-12+038099999V0200801N00461001501CN0045001N9-00391-00501102121ADDAY161999GF108991081071001501999999MW1241
0056065900999991955010506004+49617+006200FM-12+038099999V0200801N00461002401CN0040001N9-00501-00611102121ADDAY161999GF108991081071002501999999KA1999N-00501MW1051
0043065900999991955010512004+49617+006200FM-12+038099999V0200601N00411012301CN0030001N9-00281-00501102091ADDAY161999GF107991051051012501031999MW1051
0056065900999991955010518004+49617+006200FM-12+038099999V0200601N004119999999N0030001N9-00391-00501101951ADDAY121999GF106991011051017501031999KA1999M-00281MW1051
0043065900999991955010600004+49617+006200FM-12+038099999V0200401N00361220001CN0030001N9-00501-00721101761ADDAY111999GF103991001001999999001061MW1051
0056065900999991955010606004+49617+006200FM-12+038099999V0200301N003619999999N0040001N9-00501-00721101501ADDAY111999GF107991031001999999021061KA1999N-00501MW1051
0043065900999991955010612004+49617+006200FM-12+038099999V0200901N00211024001CN0030001N9-00281-00611101551ADDAY121999GF107991071001999999031999MW1051
0056065900999991955010618004+49617+006200FM-12+038099999V0200601N00311007801CN0024001N9-00281-00501101431ADDAY161999GF108991071051008001999999KA1999M-00221MW1051
0043065900999991955010700004+49617+006200FM-12+038099999V0200701N00261002401CN0030001N9-00281-00611101451ADDAY121999GF108991081061002501999999MW1051
0056065900999991955010706004+49617+006200FM-12+038099999V0200601N00361004501CN0040001N9-00391-00611101251ADDAY121999GF108991071051004501999999KA1999N-00391MW1051
0043065900999991955010712004+49617+006200FM-12+038099999V0200301N00261001501CN0002001N9-00281-00391101101ADDAY171999GF108991081061001501999999MW1051
0056065900999991955010718004+49617+006200FM-12+038099999V0200301N00411001501CN0024001N9-00391-00611100971ADDAY121999GF108991081061001501999999KA1999M-00281MW1051
0056065900999991955010800004+49617+006200FM-12+038099999V0200301N00311001501CN0022001N9-00501-00501100941ADDAY121999GF108991081061001501999999EQDQ01+000502PRSWM1
0056065900999991955010806004+49617+006200FM-12+038099999V0203601N00151001501CN0016001N9-00501-00611100971ADDAY121999GF108991081061001501999999KA1999N-00501MW1101
0043065900999991955010812004+49617+006200FM-12+038099999V0203101N00151001501CN0002001N9-00501-00611101171ADDAY121999GF108991071061001501999999MW1051
0056065900999991955010818004+49617+006200FM-12+038099999V0201301N00211000601CN0006001N9-00501-00611101271ADDAY141999GF108991081061000751999999KA1999M-00391MW1461
0043065900999991955010900004+49617+006200FM-12+038099999V0201801N00311000151CN0003001N9-00501-00501101351ADDAY141999GF108991081061000251999999MW1441
0056065900999991955010906004+49617+006200FM-12+038099999V0201801N00211000151CN0001001N9-00281-00391101241ADDAY141999GF108991081061000251999999KA1999N-00501MW1481
0043065900999991955010912004+49617+006200FM-12+038099999V0202001N00211000151CN0010001N9-00221-00221101141ADDAY141999GF108991081061000251999999MW1281
0056065900999991955010918004+49617+006200FM-12+038099999V0202001N00211000151CN0005001N9-00281-00281101171ADDAY121999GF108991081061000251999999KA1999M-00221MW1481
0043065900999991955011000004+49617+006200FM-12+038099999V0202201N00151000151CN0012001N9-00391-00391101211ADDAY141999GF108991081061000251999999MW1101
0056065900999991955011006004+49617+006200FM-12+038099999V0202301N00261001501CN0026001N9-00501-00611101141ADDAY121999GF108991081061001501999999KA1999N-00501MW1051
0043065900999991955011012004+49617+006200FM-12+038099999V0202101N00411000151CN0002001N9-00281-00391100921ADDAY141999GF108991081061000251999999MW1461
0056065900999991955011018004+49617+006200FM-12+038099999V0202201N00571001501CN0040001N9-00221-00281100521ADDAY141999GF108991081061001501999999KA1999M-00221MW1051
0043065900999991955011100004+49617+006200FM-12+038099999V0202201N00511000601CN0012001N9+00111+00001099941ADDAY161999GF108991081071000751999999MW1611
0056065900999991955011106004+49617+006200FM-12+038099999V0202301N00821000151CN0001001N9+00501+00501099491ADDAY161999GF108991081071000251999999KA1999N-00281MW1511
0043065900999991955011112004+49617+006200FM-12+038099999V0202301N00981001501CN0120001N9+00891+00781099191ADDAY161999GF108991071071001501999999MW1211
0056065900999991955011118004+49617+006200FM-12+038099999V0200201N00571002401CN0070001N9+00281+00281099631ADDAY181999GF108991081081002501999999KA1999M+00891MW1801
0043065900999991955011200004+49617+006200FM-12+038099999V0203001N00101012301CN0140001N9+00001-00111100381ADDAY181999GF107991071051012501999999MW1021
0056065900999991955011206004+49617+006200FM-12+038099999V0209991V00151000151CN0006001N9-00111-00111100181ADDAY171999GF109991091999000251999999KA1999N-00111MW1461
0043065900999991955011212004+49617+006200FM-12+038099999V0201201N00511001501CN0010001N9-00111-00111099651ADDAY171999GF108991081071001501999999MW1731
0056065900999991955011218004+49617+006200FM-12+038099999V0209991V00101000601CN0010001N9+00001+00001099421ADDAY171999GF108991081071000751999999KA1999M+00001MW1701
0043065900999991955011300004+49617+006200FM-12+038099999V0202901N00311220001CN0100001N9-00281-00501100271ADDAY171999GF101991011051008001001001MW1011
0056065900999991955011306004+49617+006200FM-12+038099999V0202701N00511004501CN0025001N9-00281-00391100951ADDAY111999GF107991071051004501999999KA1999N-00501MW1051
0043065900999991955011312004+49617+006200FM-12+038099999V0202301N00311002401CN0020001N9-00221-00391101101ADDAY121999GF108991071061002501999999MW1101
0056065900999991955011318004+49617+006200FM-12+038099999V0200901N00361001501CN0006001N9-00281-00391100321ADDAY171999GF108991081071001501999999KA1999M-00221MW1721
0043065900999991955011400004+49617+006200FM-12+038099999V0201301N00361000601CN0025001N9-00111-00111099541ADDAY171999GF108991081071000751999999MW1671
0056065900999991955011406004+49617+006200FM-12+038099999V0202401N00931004501CN0160001N9+00611+00501099131ADDAY161999GF108991081081004501999999KA1999N-00391MW1021
0043065900999991955011412004+49617+006200FM-12+038099999V0202401N00871001501CN0060001N9+00781+00781098861ADDAY181999GF108991081071001501999999MW1611
0075065900999991955011418004+49617+006200FM-12+038099999V0200201N00511002401CN0040001N9-00221-00391100372ADDAY181999GF108991081071002501999999KA1999M+00891MW1051EQDQ01+100373APOSLP
0043065900999991955011500004+49617+006200FM-12+038099999V0203301N00101220001CN0150001N9-00391-00501101481ADDAY111999GF100991001001999999001001MW1021
0056065900999991955011506004+49617+006200FM-12+038099999V0203301N00051220001CN0100001N9-00391-00501101721ADDAY101999GF100991001001999999001001KA1999N-00391MW1021
0043065900999991955011512004+49617+006200FM-12+038099999V0201201N00511024001CN0030001N9-00111-00391101331ADDAY111999GF107991061001999999031061MW1051
0056065900999991955011518004+49617+006200FM-12+038099999V0201601N00361000151CN0003001N9+00001+00001100501ADDAY171999GF109991091999000251999999KA1999M+00001MW1561
0043065900999991955011600004+49617+006200FM-12+038099999V0201901N00261000151CN0002001N9+00221+00221100231ADDAY161999GF109991091999000251999999MW1631
0056065900999991955011606004+49617+006200FM-12+038099999V0201901N00311000151CN0001001N9+00501+00501099691ADDAY161999GF109991091999000251999999KA1999N-00111MW1611
0043065900999991955011612004+49617+006200FM-12+038099999V0202101N00871004501CN0200001N9+00781+00721099111ADDAY161999GF107991071051004501999999MW1021
0056065900999991955011618004+49617+006200FM-12+038099999V0202201N00981002401CN0060001N9+00721+00611098351ADDAY161999GF108991071071002501999999KA1999M+00891MW1581
0043065900999991955011700004+49617+006200FM-12+038099999V0202901N01291004501CN0060001N9+00111-00111098551ADDAY191999GF108991081031004501999999MW1931
0075065900999991955011706004+49617+006200FM-12+038099999V0202801N00821004501CN0050001N9-00221-00501100222ADDAY191999GF108991081081004501999999KA1999N-00221MW1221EQDQ01+100223APOSLP
0043065900999991955011712004+49617+006200FM-12+038099999V0202601N00511220001CN0180001N9-00221-01001100621ADDAY111999GF101991011001999999031001MW1021
0056065900999991955011718004+49617+006200FM-12+038099999V0202101N00261220001CN0070001N9-00501-01111100431ADDAY111999GF103991001001999999001061KA1999M-00111MW1051
0043065900999991955011800004+49617+006200FM-12+038099999V0200801N00101220001CN0050001N9-00611-01111099921ADDAY101999GF100991001001999999001001MW1051
0056065900999991955011806004+49617+006200FM-12+038099999V0202101N002119999999N0030001N9-00611-00781099601ADDAY111999GF107991031051008001031999KA1999N-00781MW1051
0043065900999991955011812004+49617+006200FM-12+038099999V0202801N00771007801CN0080001N9-00221-00501100381ADDAY111999GF107991071051008001999999MW1051
0056065900999991955011818004+49617+006200FM-12+038099999V0202701N00571220001CN0160001N9-00221-00501100981ADDAY111999GF103991031081004501001001KA1999M-00111MW1031
0043065900999991955011900004+49617+006200FM-12+038099999V0202601N00311004501CN0090001N9-00221-00281101341ADDAY111999GF106991061051004501999999MW1051
0056065900999991955011906004+49617+006200FM-12+038099999V0202501N00261004501CN0060001N9-00281-00281101431ADDAY121999GF105991051051004501001001KA1999N-00281MW1051
0043065900999991955011912004+49617+006200FM-12+038099999V0202301N00101220001CN0013001N9-00111-00221101431ADDAY111999GF103991031061001501001001MW1101
0056065900999991955011918004+49617+006200FM-12+038099999V0200401N00261220001CN0030001N9-00221-00391101341ADDAY101999GF101991011051004501001001KA1999M+00221MW1051
0043065900999991955012000004+49617+006200FM-12+038099999V0200501N00411220001CN0030001N9-00391-00501101391ADDAY101999GF100991001001999999001001MW1051
0056065900999991955012006004+49617+006200FM-12+038099999V0200501N00311220001CN0040001N9-00611-00721101491ADDAY101999GF100991001001999999001001KA1999N-00611MW1051
0043065900999991955012012004+49617+006200FM-12+038099999V0200601N00311220001CN0040001N9-00221-00611101691ADDAY101999GF102991001001999999001051MW1051
0056065900999991955012018004+49617+006200FM-12+038099999V0200601N004119999999N0032001N9-00111-00611101831ADDAY121999GF107991031001999999041061KA1999M-00111MW1051
0043065900999991955012100004+49617+006200FM-12+038099999V0200901N00361004501CN0040001N9-00111-00781101971ADDAY121999GF108991051051004501999999MW1051
0056065900999991955012106004+49617+006200FM-12+038099999V0201101N00261004501CN0050001N9-00221-00611102021ADDAY121999GF108991081051004501999999KA1999N-00221MW1051
0043065900999991955012112004+49617+006200FM-12+038099999V0201301N00411004501CN0028001N9+00111-00221101831ADDAY121999GF107991071051004501999999MW1051
0056065900999991955012118004+49617+006200FM-12+038099999V0201301N00511001501CN0028001N9+00221+00111101321ADDAY121999GF108991071061001501999999KA1999M+00221MW1601
0043065900999991955012200004+49617+006200FM-12+038099999V0201401N00511000151CN0001001N9+00221+00221100761ADDAY161999GF108991081071000251999999MW1531
0056065900999991955012206004+49617+006200FM-12+038099999V0201301N00211000151CN0001001N9+00281+00281100411ADDAY161999GF108991081071000251999999KA1999N+00111MW1531
0043065900999991955012212004+49617+006200FM-12+038099999V0201601N00411000151CN0001001N9+00501+00501100491ADDAY151999GF108991081071000251999999MW1511
0056065900999991955012218004+49617+006200FM-12+038099999V0200801N00151000151CN0000001N9+00391+00391100711ADDAY151999GF108991081061000251999999KA1999M+00721MW1441
0043065900999991955012300004+49617+006200FM-12+038099999V0200601N00311000151CN0000001N9+00281+00281101081ADDAY161999GF108991081071000251999999MW1441
0056065900999991955012306004+49617+006200FM-12+038099999V0200201N00211000601CN0018001N9+00281+00281101471ADDAY141999GF108991051061000751999999KA1999N+00221MW1281
0043065900999991955012312004+49617+006200FM-12+038099999V0203601N00151004501CN0040001N9+00721+00611101881ADDAY141999GF108991071051004501999999MW1281
0056065900999991955012318004+49617+006200FM-12+038099999V0200401N00511001501CN0030001N9+00391+00281102271ADDAY121999GF108991071061001501999999KA1999M+00721MW1051
0043065900999991955012400004+49617+006200FM-12+038099999V0200501N00411000601CN0010001N9+00221+00111102621ADDAY121999GF108991081061000751999999MW1101
0056065900999991955012406004+49617+006200FM-12+038099999V0200501N00511000151CN0001001N9+00001+00001102691ADDAY141999GF109991091999000251999999KA1999N+00001MW1471
0043065900999991955012412004+49617+006200FM-12+038099999V0200401N00261000601CN0012001N9-00111-00111102821ADDAY141999GF108991081061000751999999MW1101
0056065900999991955012418004+49617+006200FM-12+038099999V0200301N00151000601CN0014001N9-00221-00221102771ADDAY121999GF108991081061000751999999KA1999M+00001MW1101
0043065900999991955012500004+49617+006200FM-12+038099999V0201201N00101000151CN0002001N9-00221-00281102811ADDAY141999GF108991081061000251999999MW1441
0056065900999991955012506004+49617+006200FM-12+038099999V0201401N00211000151CN0001001N9-00281-00391102661ADDAY141999GF108991081061000251999999KA1999N-00281MW1481
0043065900999991955012512004+49617+006200FM-12+038099999V0201301N00151000151CN0000001N9-00281-00391102671ADDAY141999GF108991081061000251999999MW1481
0056065900999991955012518004+49617+006200FM-12+038099999V0201501N00311000151CN0002001N9-00281-00281102461ADDAY141999GF108991081061000251999999KA1999M-00281MW1481
0043065900999991955012600004+49617+006200FM-12+038099999V0201301N00311000151CN0004001N9-00391-00391102361ADDAY141999GF108991081061000251999999MW1481
0056065900999991955012606004+49617+006200FM-12+038099999V0201601N00311000151CN0001001N9-00281-00391102121ADDAY141999GF108991081061000251999999KA1999N-00391MW1481
0043065900999991955012612004+49617+006200FM-12+038099999V0201401N00211000151CN0001001N9-00221-00221102081ADDAY141999GF108991081061000251999999MW1481
0056065900999991955012618004+49617+006200FM-12+038099999V0200901N00211000151CN0001001N9-00221-00221101871ADDAY141999GF108991081061000251999999KA1999M-00111MW1481
0043065900999991955012700004+49617+006200FM-12+038099999V0200701N00151000151CN0000001N9-00221-00221101831ADDAY141999GF108991081061000251999999MW1481
0056065900999991955012706004+49617+006200FM-12+038099999V0200501N00151000151CN0002001N9-00221-00281101571ADDAY141999GF108991081061000251999999KA1999N-00221MW1481
0043065900999991955012712004+49617+006200FM-12+038099999V0200501N00211024001CN0030001N9+00001-00111101521ADDAY141999GF107991071001999999071999MW1051
0056065900999991955012718004+49617+006200FM-12+038099999V0201501N00151220001CN0020001N9+00001-00111101441ADDAY121999GF106991001001999999001061KA1999M+00111MW1101
0043065900999991955012800004+49617+006200FM-12+038099999V0200501N00101220001CN0016001N9-00221-00221101481ADDAY111999GF100991001001999999001001MW1101
0056065900999991955012806004+49617+006200FM-12+038099999V0201301N00051220001CN0013001N9-00221-00281101501ADDAY101999GF100991001001999999001001KA1999N-00281MW1101
0043065900999991955012812004+49617+006200FM-12+038099999V0201601N00101220001CN0024001N9+00281+00001101531ADDAY101999GF102991001001999999001051MW1051
0056065900999991955012818004+49617+006200FM-12+038099999V0201501N00261220001CN0022001N9+00221-00111101511ADDAY101999GF103991001001999999001061KA1999M+00611MW1051
0043065900999991955012900004+49617+006200FM-12+038099999V0201201N00101220001CN0015001N9+00111-00111101661ADDAY101999GF100991001001999999001001MW1101
0056065900999991955012906004+49617+006200FM-12+038099999V0200901N00101220001CN0015001N9-00111-00111101601ADDAY101999GF100991001001999999001001KA1999N-00111MW1101
0043065900999991955012912004+49617+006200FM-12+038099999V0201201N00261220001CN0028001N9+00611+00001101551ADDAY141999GF100991001001999999001001MW1051
0056065900999991955012918004+49617+006200FM-12+038099999V0201001N00261220001CN0010001N9+00391+00001101431ADDAY141999GF102991021051008001001001KA1999M+00891MW1051
0043065900999991955013000004+49617+006200FM-12+038099999V0201301N00101220001CN0012001N9+00111+00001101491ADDAY101999GF101991011051017501001001MW1101
0056065900999991955013006004+49617+006200FM-12+038099999V0201501N00361015001CN0014001N9+00001-00111101391ADDAY111999GF105991051051017501001001KA1999N-00111MW1101
0043065900999991955013012004+49617+006200FM-12+038099999V0201701N004119999999N0030001N9+00611+00281101271ADDAY121999GF105991031001999999031061MW1051
0056065900999991955013018004+49617+006200FM-12+038099999V0201701N00461012301CN0040001N9+00501+00391101191ADDAY121999GF106991061051012501999999KA1999M+00721MW1051
0043065900999991955013100004+49617+006200FM-12+038099999V0201201N001519999999N0050001N9+00501+00391101071ADDAY161999GF106991031051008001021999MW1611
0056065900999991955013106004+49617+006200FM-12+038099999V0201801N00411007801CN0050001N9+00611+00501100861ADDAY161999GF108991061051008001999999KA1999N+00391MW1611
0043065900999991955013112004+49617+006200FM-12+038099999V0201601N00361007801CN0090001N9+00721+00611100731ADDAY161999GF108991071051008001999999MW1051
0056065900999991955013118004+49617+006200FM-12+038099999V0200801N003119999999N0030001N9+00501+00391100511ADDAY161999GF108991041051004501999999KA1999M+00781MW1611
0043065900999991955020100004+49617+006200FM-12+038099999V0201401N00461007801CN0040001N9+00501+00281100461ADDAY161999GF107991071051008001999999MW1211
0056065900999991955020106004+49617+006200FM-12+038099999V0200901N00261007801CN0040001N9+00281+00221100331ADDAY111999GF107991071051008001999999KA1999N+00281MW1051
0043065900999991955020112004+49617+006200FM-12+038099999V0201201N002119999999N0030001N9+00721+00281100151ADDAY161999GF107991021051017501071999MW1051
0056065900999991955020118004+49617+006200FM-12+038099999V0201201N002619999999N0030001N9+00501+00221100091ADDAY161999GF105991021051017501031001KA1999M+00781MW1051
0043065900999991955020200004+49617+006200FM-12+038099999V0200901N002119999999N0026001N9+00281+00111100191ADDAY121999GF108991031051017501031999MW1051
0056065900999991955020206004+49617+006200FM-12+038099999V0200801N000519999999N0024001N9+00221+00111100211ADDAY111999GF107991041061001501999999KA1999N+00111MW1051
0043065900999991955020212004+49617+006200FM-12+038099999V0202301N00101024001CN0022001N9+00611+00391100091ADDAY161999GF108991061001999999071999MW1211
0056065900999991955020218004+49617+006200FM-12+038099999V0202301N00261001501CN0020001N9+00501+00501100011ADDAY161999GF108991071071001501999999KA1999M+00721MW1611
0043065900999991955020300004+49617+006200FM-12+038099999V0201901N00311000151CN0001001N9+00501+00501099961ADDAY161999GF108991081061000251999999MW1461
0056065900999991955020306004+49617+006200FM-12+038099999V0202001N00571002401CN0060001N9+00391+00281099711ADDAY161999GF108991071071002501999999KA1999N+00281MW1581
0043065900999991955020312004+49617+006200FM-12+038099999V0202201N00721004501CN0200001N9+00611+00221099811ADDAY161999GF107991071051004501999999MW1021
0056065900999991955020318004+49617+006200FM-12+038099999V0202301N00411007801CN0080001N9+00391+00221099921ADDAY181999GF107991071051008001999999KA1999M+00781MW1251
0043065900999991955020400004+49617+006200FM-12+038099999V0202001N00671004501CN0180001N9+00391+00281099771ADDAY181999GF107991071081004501999999MW1011
0056065900999991955020406004+49617+006200FM-12+038099999V0201801N00511002401CN0080001N9+00281+00281099081ADDAY181999GF108991081081002501999999KA1999N+00281MW1811
0043065900999991955020412004+49617+006200FM-12+038099999V0202701N00821001501CN0030001N9+00501+00391099471ADDAY181999GF108991071071001501999999MW1601
0056065900999991955020418004+49617+006200FM-12+038099999V0202301N00511007801CN0100001N9+00391+00221100151ADDAY161999GF107991071051008001999999KA1999M+00611MW1021
0043065900999991955020500004+49617+006200FM-12+038099999V0201801N00931001501CN0050001N9+00391+00281099111ADDAY161999GF108991071071001501999999MW1651
0056065900999991955020506004+49617+006200FM-12+038099999V0202501N01031004501CN0120001N9+00391+00281099101ADDAY181999GF107991071081004501999999KA1999N+00281MW1801
0043065900999991955020512004+49617+006200FM-12+038099999V0202401N01031002401CN0040001N9+00391+00281099291ADDAY181999GF108991071071002501999999MW1801
0056065900999991955020518004+49617+006200FM-12+038099999V0202501N00931004501CN0040001N9+00281+00221099451ADDAY181999GF108991081081004501999999KA1999M+00501MW1801
0043065900999991955020600004+49617+006200FM-12+038099999V0202701N00411001501CN0040001N9+00221+00111099961ADDAY181999GF108991061071001501999999MW1611
0056065900999991955020606004+49617+006200FM-12+038099999V0203401N00101012301CN0050001N9+00111+00001100061ADDAY171999GF108991081051012501999999KA1999N+00001MW1051
0043065900999991955020612004+49617+006200FM-12+038099999V0203101N00361004501CN0060001N9+00391+00111100671ADDAY161999GF107991071081004501999999MW1051
0056065900999991955020618004+49617+006200FM-12+038099999V0203201N00311220001CN0150001N9+00111-00221101581ADDAY181999GF101991011051008001001001KA1999M+00391MW1011
0043065900999991955020700004+49617+006200FM-12+038099999V0203301N00261220001CN0080001N9+00001-00281102131ADDAY171999GF104991041051004501001001MW1051
0056065900999991955020706004+49617+006200FM-12+038099999V0202601N00151220001CN0060001N9-00221-00221102301ADDAY111999GF107991001001999999001081KA1999N-00221MW1051
0043065900999991955020712004+49617+006200FM-12+038099999V0202001N00361001501CN0030001N9+00001-00111102081ADDAY121999GF108991071061001501999999MW1051
0056065900999991955020718004+49617+006200FM-12+038099999V0202101N00771000601CN0018001N9+00001+00001101281ADDAY171999GF108991081071000751999999KA1999M+00001MW1711
0043065900999991955020800004+49617+006200FM-12+038099999V0202401N00571000151CN0001001N9+00281+00281100941ADDAY171999GF109991091999000251999999MW1511
0056065900999991955020806004+49617+006200FM-12+038099999V0202701N00511004501CN0100001N9+00721+00721100871ADDAY161999GF108991081081004501999999KA1999N+00001MW1801
0043065900999991955020812004+49617+006200FM-12+038099999V0202701N01031004501CN0120001N9+00781+00281101081ADDAY181999GF107991071081004501999999MW1031
0056065900999991955020818004+49617+006200FM-12+038099999V0202701N00671002401CN0050001N9+00721+00501100881ADDAY181999GF108991051071002501021999KA1999M+00781MW1631
0043065900999991955020900004+49617+006200FM-12+038099999V0202701N00721012301CN0110001N9+00501+00281100881ADDAY161999GF107991071051012501999999MW1031
0056065900999991955020906004+49617+006200FM-12+038099999V0202601N00671004501CN0110001N9+00391+00221100871ADDAY111999GF108991081051004501999999KA1999N+00391MW1021
0043065900999991955020912004+49617+006200FM-12+038099999V0202701N00511002401CN0100001N9+00501+00221100961ADDAY181999GF107991071081002501999999MW1031
0056065900999991955020918004+49617+006200FM-12+038099999V0202701N00261004501CN0050001N9+00281+00111100961ADDAY181999GF106991061051004501031001KA1999M+00611MW1051
0043065900999991955021000004+49617+006200FM-12+038099999V0203401N00511001501CN0050001N9+00281+00281100541ADDAY181999GF108991081081001501999999MW1811
0056065900999991955021006004+49617+006200FM-12+038099999V0203201N00621002401CN0200001N9+00001+00001100281ADDAY181999GF107991071081002501999999KA1999N+00001MW1251
0043065900999991955021012004+49617+006200FM-12+038099999V0203201N00571004501CN0160001N9+00111-00281100751ADDAY181999GF106991061081004501999999MW1011
0056065900999991955021018004+49617+006200FM-12+038099999V0203101N00261220001CN0150001N9-00111-00391101261ADDAY181999GF102991021041008001001001KA1999M+00221MW1011
0043065900999991955021100004+49617+006200FM-12+038099999V0202701N00211220001CN0100001N9-00221-00281101561ADDAY101999GF101991011051017501001001MW1011
0056065900999991955021106004+49617+006200FM-12+038099999V0202801N00311001501CN0008001N9-00221-00221101511ADDAY171999GF108991081061001501999999KA1999N-00501MW1461
0043065900999991955021112004+49617+006200FM-12+038099999V0202901N00411002401CN0100001N9+00111-00281101561ADDAY181999GF107991071031002501999999MW1261
0056065900999991955021118004+49617+006200FM-12+038099999V0202701N00361220001CN0050001N9-00111-00281101511ADDAY181999GF104991041051008001001001KA1999M+00221MW1051
0043065900999991955021200004+49617+006200FM-12+038099999V0202401N00311007801CN0060001N9-00221-00501101381ADDAY111999GF106991061051008001001001MW1051
0056065900999991955021206004+49617+006200FM-12+038099999V0201901N00311007801CN0040001N9-00391-00391101081ADDAY181999GF105991051051008001001001KA1999N-00391MW1051
0043065900999991955021212004+49617+006200FM-12+038099999V0202301N006219999999N0080001N9+00001-00501100911ADDAY121999GF107991011011004501031999MW1051
0056065900999991955021218004+49617+006200FM-12+038099999V0202501N00721002401CN0120001N9-00221-00281100801ADDAY171999GF107991061071002501999999KA1999M+00221MW1221
0043065900999991955021300004+49617+006200FM-12+038099999V0202401N00361007801CN0080001N9-00281-00391101061ADDAY111999GF108991081051008001999999MW1051
0056065900999991955021306004+49617+006200FM-12+038099999V0202001N00571001501CN0030001N9-00281-00391100961ADDAY171999GF108991081061001501999999KA1999N-00391MW1711
0043065900999991955021312004+49617+006200FM-12+038099999V0202301N00261001501CN0035001N9-00221-00391101051ADDAY171999GF108991081061001501999999MW1701
0056065900999991955021318004+49617+006200FM-12+038099999V0200301N00151004501CN0040001N9-00281-00391101191ADDAY181999GF107991071081004501999999KA1999M-00111MW1261
0043065900999991955021400004+49617+006200FM-12+038099999V0203301N00361004501CN0050001N9-00281-00611101491ADDAY181999GF107991071081004501999999MW1051
0056065900999991955021406004+49617+006200FM-12+038099999V0203101N00151007801CN0080001N9-00391-00781101581ADDAY181999GF108991071051008001999999KA1999N-00501MW1851
0043065900999991955021412004+49617+006200FM-12+038099999V0202401N00511024001CN0060001N9-00391-00721101661ADDAY181999GF106991061001999999031999MW1051
0056065900999991955021418004+49617+006200FM-12+038099999V0202401N00721001501CN0030001N9-00221-00391101451ADDAY171999GF108991081071001501999999KA1999M-00221MW1051
0043065900999991955021500004+49617+006200FM-12+038099999V0202301N00931004501CN0050001N9-00221-00391101231ADDAY171999GF108991081071004501999999MW1221
0056065900999991955021506004+49617+006200FM-12+038099999V0202301N00871004501CN0040001N9-00281-00391100991ADDAY121999GF108991081071004501999999KA1999N-00281MW1701
0043065900999991955021512004+49617+006200FM-12+038099999V0202701N00411001501CN0040001N9-00221-00281100991ADDAY171999GF108991071071001501999999MW1711
0056065900999991955021518004+49617+006200FM-12+038099999V0200401N00411002401CN0040001N9-00221-00391101001ADDAY181999GF107991071031002501999999KA1999M-00111MW1261
0043065900999991955021600004+49617+006200FM-12+038099999V0200401N00571220001CN0040001N9-00721-01221101171ADDAY111999GF102991021051008001001001MW1051
0056065900999991955021606004+49617+006200FM-12+038099999V0200401N00151220001CN0050001N9-01221-01281101001ADDAY101999GF100991001001999999001001KA1999N-01221MW1051
0043065900999991955021612004+49617+006200FM-12+038099999V0202501N00511220001CN0024001N9-00391-00781100501ADDAY101999GF100991001001999999001001MW1051
0056065900999991955021618004+49617+006200FM-12+038099999V0202401N00721007801CN0028001N9-00281-00611099971ADDAY111999GF107991071051008001999999KA1999M-00111MW1051
0043065900999991955021700004+49617+006200FM-12+038099999V0202301N00511004501CN0040001N9-00501-00781099701ADDAY121999GF108991081051004501999999MW1051
0056065900999991955021706004+49617+006200FM-12+038099999V0202501N00461002401CN0020001N9-00391-00501099191ADDAY171999GF108991081071002501999999KA1999N-00611MW1711
0043065900999991955021712004+49617+006200FM-12+038099999V0202701N00311004501CN0090001N9-00221-00781099111ADDAY181999GF106991061081004501001001MW1051
0056065900999991955021718004+49617+006200FM-12+038099999V0202501N00311004501CN0030001N9-00221-01001099171ADDAY111999GF105991051051004501001001KA1999M+00001MW1051
0043065900999991955021800004+49617+006200FM-12+038099999V0202801N00101220001CN0040001N9-00721-00891099361ADDAY111999GF100991001001999999001001MW1051
0056065900999991955021806004+49617+006200FM-12+038099999V0202501N00101002401CN0024001N9-00721-00891099421ADDAY111999GF106991061061002501999999KA1999N-00721MW1051
0043065900999991955021812004+49617+006200FM-12+038099999V0201601N00101007801CN0015001N9-00281-00501099671ADDAY171999GF107991071051008001999999MW1221
0056065900999991955021818004+49617+006200FM-12+038099999V0201901N00211007801CN0060001N9-00391-00721099821ADDAY111999GF107991071051008001999999KA1999M-00111MW1051
0043065900999991955021900004+49617+006200FM-12+038099999V0201001N00311007801CN0060001N9-00281-00721099631ADDAY111999GF106991051051008001001061MW1051
0056065900999991955021906004+49617+006200FM-12+038099999V0200701N00411012301CN0060001N9-00501-00781099191ADDAY111999GF105991051051012501001001KA1999N-00501MW1051
0043065900999991955021912004+49617+006200FM-12+038099999V0200601N004119999999N0060001N9+00001-00781098651ADDAY121999GF107991031001999999031061MW1051
0056065900999991955021918004+49617+006200FM-12+038099999V0200501N00261001501CN0010001N9-00281-00391098831ADDAY171999GF108991081071001501999999KA1999M+00001MW1711
0043065900999991955022000004+49617+006200FM-12+038099999V0202601N00821000601CN0010001N9-00281-00391099241ADDAY171999GF108991081071000751999999MW1771
0056065900999991955022006004+49617+006200FM-12+038099999V0202801N00361000601CN0010001N9-00281-00391099481ADDAY171999GF108991081071000751999999KA1999N-00281MW1711
0043065900999991955022012004+49617+006200FM-12+038099999V0202801N00361000151CN0008001N9-00501-00611099871ADDAY171999GF109991091999000251999999MW1731
0056065900999991955022018004+49617+006200FM-12+038099999V0203001N00461001501CN0020001N9-00501-00611100491ADDAY171999GF108991081071001501999999KA1999M-00281MW1711
0043065900999991955022100004+49617+006200FM-12+038099999V0203001N00261220001CN0040001N9-00611-00781101191ADDAY171999GF100991001001999999001001MW1051
0056065900999991955022106004+49617+006200FM-12+038099999V0201001N00211002401CN0020001N9-00781-00891101101ADDAY141999GF108991081071002501999999KA1999N-00891MW1701
0043065900999991955022112004+49617+006200FM-12+038099999V0201301N00621001501CN0028001N9-00391-00501100731ADDAY171999GF108991081071001501999999MW1221
0056065900999991955022118004+49617+006200FM-12+038099999V0200801N00461000151CN0005001N9-00281-00391100521ADDAY171999GF108991081071000251999999KA1999M-00281MW1731
0043065900999991955022200004+49617+006200FM-12+038099999V0200501N00311001501CN0012001N9-00281-00391100621ADDAY171999GF108991081071001501999999MW1561
0056065900999991955022206004+49617+006200FM-12+038099999V0200301N00101000601CN0012001N9-00281-00391100901ADDAY151999GF108991081071000751999999KA1999N-00281MW1101
0043065900999991955022212004+49617+006200FM-12+038099999V0200601N00151001501CN0015001N9-00111-00221101181ADDAY141999GF108991081061001501999999MW1101
0056065900999991955022218004+49617+006200FM-12+038099999V0200501N00311002401CN0009001N9-00111-00111101241ADDAY141999GF107991051061002501999999KA1999M+00001MW1441
0043065900999991955022300004+49617+006200FM-12+038099999V0200501N00511000151CN0006001N9-00111-00111101191ADDAY171999GF109991091999000251999999MW1451
0056065900999991955022306004+49617+006200FM-12+038099999V0200501N00411000601CN0010001N9-00111-00111100971ADDAY171999GF108991081071000751999999KA1999N-00221MW1711
0043065900999991955022312004+49617+006200FM-12+038099999V0200601N004119999999N0030001N9+00111+00001100791ADDAY171999GF107991031001999999031061MW1051
0056065900999991955022318004+49617+006200FM-12+038099999V0200701N00671024001CN0040001N9+00111-00111100561ADDAY121999GF108991081001999999021999KA1999M+00221MW1771
0043065900999991955022400004+49617+006200FM-12+038099999V0200501N00721024001CN0070001N9+00001-00281100391ADDAY171999GF108991081001999999021999MW1221
0056065900999991955022406004+49617+006200FM-12+038099999V0200501N00671000601CN0018001N9-00281-00281100251ADDAY171999GF108991081071000751999999KA1999N-00281MW1711
0043065900999991955022412004+49617+006200FM-12+038099999V0200601N00511001501CN0012001N9-00281-00281100411ADDAY171999GF108991081071001501999999MW1711
0056065900999991955022418004+49617+006200FM-12+038099999V0200601N00411000601CN0009001N9-00221-00281100441ADDAY171999GF108991081071000751999999KA1999M-00111MW1561
0043065900999991955022500004+49617+006200FM-12+038099999V0200501N00361001501CN0030001N9-00221-00281100551ADDAY151999GF108991071071001501999999MW1051
0056065900999991955022506004+49617+006200FM-12+038099999V0200501N00511001501CN0028001N9-00221-00281100471ADDAY121999GF108991071061001501999999KA1999N-00221MW1051
0043065900999991955022512004+49617+006200FM-12+038099999V0200601N00671004501CN0030001N9+00001-00391100541ADDAY121999GF107991071061004501999999MW1051
0056065900999991955022518004+49617+006200FM-12+038099999V0200601N00771001501CN0010001N9-00111-00391100621ADDAY171999GF108991081071001501999999KA1999M+00111MW1701
0043065900999991955022600004+49617+006200FM-12+038099999V0200601N00511012301CN0150001N9-00281-00891100791ADDAY171999GF108991071051012501999999MW1031
0056065900999991955022606004+49617+006200FM-12+038099999V0200601N00511012301CN0100001N9-00501-00891100891ADDAY171999GF107991071031012501999999KA1999N-00501MW1021
0043065900999991955022612004+49617+006200FM-12+038099999V0200701N00151024001CN0060001N9-00281-00891100991ADDAY171999GF107991071001999999011999MW1051
0056065900999991955022618004+49617+006200FM-12+038099999V0200901N001519999999N0040001N9-00221-00781101081ADDAY121999GF107991041051008001031999KA1999M-00111MW1051
0043065900999991955022700004+49617+006200FM-12+038099999V0200501N004619999999N0050001N9-00501-00891101261ADDAY121999GF107991041051012501031999MW1051
0056065900999991955022706004+49617+006200FM-12+038099999V0200401N00461007801CN0050001N9-00611-01001101461ADDAY171999GF107991071051008001999999KA1999N-00721MW1051
0043065900999991955022712004+49617+006200FM-12+038099999V0200401N00511024001CN0045001N9-00391-01001101691ADDAY121999GF106991061001999999031999MW1051
0056065900999991955022718004+49617+006200FM-12+038099999V0200501N00571220001CN0060001N9-00391-01111101991ADDAY111999GF102991021001999999031001KA1999M-00111MW1051
0043065900999991955022800004+49617+006200FM-12+038099999V0200501N00771220001CN0120001N9-00721-01111102441ADDAY101999GF100991001001999999001001MW1021
0056065900999991955022806004+49617+006200FM-12+038099999V0200401N00821220001CN0120001N9-00891-01111102691ADDAY101999GF101991011001999999031001KA1999N-01001MW1031
0043065900999991955022812004+49617+006200FM-12+038099999V0200501N00721007801CN0100001N9-00501-01001102731ADDAY111999GF107991071081008001999999MW1031
0056065900999991955022818004+49617+006200FM-12+038099999V0200501N00621007801CN0070001N9-00391-00891102851ADDAY111999GF107991071051008001999999KA1999M-00281MW1051
0043065900999991955030100004+49617+006200FM-12+038099999V0200601N00721220001CN0080001N9-00781-01001102931ADDAY111999GF100991001001999999001001MW1051
0056065900999991955030106004+49617+006200FM-12+038099999V0200501N00721220001CN0090001N9-00891-01111102861ADDAY101999GF100991001001999999001001KA1999N-00891MW1051
0043065900999991955030112004+49617+006200FM-12+038099999V0200501N00821220001CN0100001N9-00281-00781102591ADDAY101999GF100991001001999999001001MW1021
0042065900999991955030118004+49617+006200FM-12+038099999V0200501N00721220001CN9999999N9+99999+99999999999ADDGF100991001001999999001001KA1999M+00001
0043065900999991955030200004+49617+006200FM-12+038099999V0200601N00721220001CN0080001N9-00501-01111102551ADDAY101999GF100991001001999999001001MW1051
0056065900999991955030206004+49617+006200FM-12+038099999V0200501N00771220001CN0060001N9-00781-01281102691ADDAY101999GF100991001001999999001001KA1999N-00781MW1051
0043065900999991955030212004+49617+006200FM-12+038099999V0200401N00871220001CN0140001N9-00221-01111102721ADDAY101999GF100991001001999999001001MW1021
0056065900999991955030218004+49617+006200FM-12+038099999V0200501N00671220001CN0080001N9-00111-01001102801ADDAY101999GF100991001001999999001001KA1999M+00111MW1051
0043065900999991955030300004+49617+006200FM-12+038099999V0200501N00821220001CN0100001N9-00281-01111102961ADDAY101999GF101991001001999999001011MW1031
0056065900999991955030306004+49617+006200FM-12+038099999V0200501N00771220001CN0120001N9-00391-01221103071ADDAY101999GF101991011051012501001001KA1999N-00391MW1031
0043065900999991955030312004+49617+006200FM-12+038099999V0200501N00721220001CN0120001N9+00221-00891103051ADDAY101999GF100991001001999999001001MW1021
0056065900999991955030318004+49617+006200FM-12+038099999V0200701N00821220001CN0100001N9+00281-00891102961ADDAY101999GF101991001001999999001011KA1999M+00501MW1021
0043065900999991955030400004+49617+006200FM-12+038099999V0200701N00461220001CN0100001N9-00221-01001102991ADDAY101999GF100991001001999999001001MW1021
0056065900999991955030406004+49617+006200FM-12+038099999V0200301N002619999999N0080001N9-00391-01221102871ADDAY111999GF105991021001999999031061KA1999N-00391MW1051
0043065900999991955030412004+49617+006200FM-12+038099999V0202601N00261220001CN0050001N9+00281-00891102691ADDAY111999GF101991001001999999001051MW1051
0056065900999991955030418004+49617+006200FM-12+038099999V0203401N00361220001CN0030001N9+00221-00611102571ADDAY101999GF102991011051008001001051KA1999M+00501MW1051
0043065900999991955030500004+49617+006200FM-12+038099999V0202901N00411220001CN0090001N9-00111-00281102481ADDAY171999GF104991041051008001001001MW1221
0056065900999991955030506004+49617+006200FM-12+038099999V0202801N004119999999N0070001N9-00281-00281101921ADDAY181999GF107991031061004501999999KA1999N-00281MW1221
0043065900999991955030512004+49617+006200FM-12+038099999V0202801N00511002401CN0120001N9+00111-00281101391ADDAY181999GF106991061081002501999999MW1261
0056065900999991955030518004+49617+006200FM-12+038099999V0202601N00511002401CN0016001N9-00111-00221100831ADDAY181999GF108991081081002501999999KA1999M+00221MW1851
0043065900999991955030600004+49617+006200FM-12+038099999V0200401N00411000601CN0007001N9-00221-00221100481ADDAY181999GF108991081071000751999999MW1751
0056065900999991955030606004+49617+006200FM-12+038099999V0200901N00461000601CN0008001N9-00221-00281100491ADDAY171999GF108991081071000751999999KA1999N-00281MW1711
0043065900999991955030612004+49617+006200FM-12+038099999V0200501N00621004501CN0090001N9-00111-00501100721ADDAY171999GF105991051081004501001001MW1051
0056065900999991955030618004+49617+006200FM-12+038099999V0200401N007219999999N0120001N9-00111-00391100731ADDAY181999GF108991011051012501021999KA1999M+00001MW1021
0043065900999991955030700004+49617+006200FM-12+038099999V0200101N00311007801CN0040001N9-00281-00391100541ADDAY181999GF108991051051008001021999MW1701
0056065900999991955030706004+49617+006200FM-12+038099999V0200201N00151007801CN0010001N9-00391-00501100351ADDAY171999GF108991061051008001021999KA1999N-00391MW1701
0043065900999991955030712004+49617+006200FM-12+038099999V0201801N00261004501CN0030001N9-00221-00391100391ADDAY171999GF107991071051004501999999MW1051
0056065900999991955030718004+49617+006200FM-12+038099999V0201701N00151004501CN0026001N9-00281-00391100361ADDAY171999GF105991051051004501001001KA1999M-00111MW1051
0043065900999991955030800004+49617+006200FM-12+038099999V0200901N00151220001CN0035001N9-00611-00721100481ADDAY111999GF100991001001999999001001MW1051
0056065900999991955030806004+49617+006200FM-12+038099999V0200501N00261220001CN0017001N9-00721-00781100301ADDAY101999GF100991001001999999001001KA1999N-00781MW1101
0043065900999991955030812004+49617+006200FM-12+038099999V0200601N00261220001CN0030001N9-00111-00611100181ADDAY101999GF101991011011004501001001MW1051
0056065900999991955030818004+49617+006200FM-12+038099999V0200401N00151007801CN0040001N9-00111-00611100121ADDAY111999GF107991051051008001031999KA1999M+00391MW1051
0043065900999991955030900004+49617+006200FM-12+038099999V0200201N00361012301CN0080001N9-00281-00611100371ADDAY111999GF107991071051012501999999MW1051
0056065900999991955030906004+49617+006200FM-12+038099999V0200301N006219999999N0050001N9-00391-00781100611ADDAY121999GF107991041051012501031999KA1999N-00501MW1051
0043065900999991955030912004+49617+006200FM-12+038099999V0200401N00771220001CN0028001N9-00111-00611100871ADDAY111999GF104991031051008001001011MW1051
0056065900999991955030918004+49617+006200FM-12+038099999V0200401N00671220001CN0030001N9+00001-00501101161ADDAY101999GF104991041051004501001001KA1999M+00111MW1051
0043065900999991955031000004+49617+006200FM-12+038099999V0200401N01031012301CN0090001N9-00111-00611101441ADDAY111999GF107991071051012501999999MW1051
0056065900999991955031006004+49617+006200FM-12+038099999V0200401N01031015001CN0040001N9-00391-00611101641ADDAY111999GF105991051051017501001001KA1999N-00391MW1051
0043065900999991955031012004+49617+006200FM-12+038099999V0200301N01031220001CN0030001N9+00001-00611101931ADDAY111999GF100991001001999999001001MW1051
0056065900999991955031018004+49617+006200FM-12+038099999V0200401N01031220001CN0026001N9-00111-00501102001ADDAY101999GF101991001001999999001011KA1999M+00111MW1051
0043065900999991955031100004+49617+006200FM-12+038099999V0200501N00871220001CN0030001N9-00501-00721102311ADDAY101999GF100991001001999999001001MW1051
0056065900999991955031106004+49617+006200FM-12+038099999V0200501N00671220001CN0040001N9-00611-00781102301ADDAY101999GF104991041051004501001001KA1999N-00611MW1051
0043065900999991955031112004+49617+006200FM-12+038099999V0200501N01181220001CN0050001N9-00111-00721102181ADDAY111999GF101991011011004501001001MW1051
0056065900999991955031118004+49617+006200FM-12+038099999V0200601N00671220001CN0080001N9-00111-00781102091ADDAY101999GF100991001001999999001001KA1999M+00001MW1051
0043065900999991955031200004+49617+006200FM-12+038099999V0200601N00931220001CN0070001N9-00501-00781102291ADDAY101999GF100991001001999999001001MW1051
0056065900999991955031206004+49617+006200FM-12+038099999V0200601N00821220001CN0070001N9-00611-00781102261ADDAY101999GF101991011051008001001001KA1999N-00611MW1051
0043065900999991955031212004+49617+006200FM-12+038099999V0200801N00721220001CN0100001N9-00111-00721102221ADDAY111999GF101991011051008001001001MW1011
0056065900999991955031218004+49617+006200FM-12+038099999V0200501N00621220001CN0070001N9-00111-00611102221ADDAY101999GF100991001001999999001001KA1999M+00001MW1051
0043065900999991955031300004+49617+006200FM-12+038099999V0200501N00511220001CN0090001N9-00501-00721102321ADDAY101999GF100991001001999999001001MW1051
0056065900999991955031306004+49617+006200FM-12+038099999V0200301N00411220001CN0020001N9-00721-00781102331ADDAY101999GF100991001001999999001001KA1999N-00721MW1101
0043065900999991955031312004+49617+006200FM-12+038099999V0200401N00261220001CN0040001N9+00001-00501102221ADDAY101999GF100991001001999999001001MW1051
0056065900999991955031318004+49617+006200FM-12+038099999V0200201N00211220001CN0060001N9+00221-00611102131ADDAY101999GF100991001001999999001001KA1999M+00281MW1051
0043065900999991955031400004+49617+006200FM-12+038099999V0200301N00411220001CN0025001N9-00281-00501102381ADDAY101999GF100991001001999999001001MW1051
0056065900999991955031406004+49617+006200FM-12+038099999V0200101N00411220001CN0012001N9-00501-00611102471ADDAY101999GF100991001001999999001001KA1999N-00501MW1101
0043065900999991955031412004+49617+006200FM-12+038099999V0200501N00511220001CN0036001N9+00111-00281102621ADDAY101999GF101991011011008001001001MW1051
0056065900999991955031418004+49617+006200FM-12+038099999V0203601N00211220001CN0200001N9+00221-00391102631ADDAY111999GF101991011051008001001001KA1999M+00281MW1031
0043065900999991955031500004+49617+006200FM-12+038099999V0203601N00211220001CN0060001N9-00111-00281102761ADDAY101999GF100991001001999999001001MW1051
0056065900999991955031506004+49617+006200FM-12+038099999V0200201N00311000601CN0004001N9-00111-00221102751ADDAY111999GF108991061061000751999999KA1999N-00281MW1461
0043065900999991955031512004+49617+006200FM-12+038099999V0200801N003619999999N0100001N9+00391-00111102721ADDAY141999GF105991021051004501001061MW1031
0056065900999991955031518004+49617+006200FM-12+038099999V0203201N00101007801CN0100001N9+00391-00111102671ADDAY121999GF108991081051008001999999KA1999M+00501MW1021
0043065900999991955031600004+49617+006200FM-12+038099999V0203201N00101004501CN0100001N9+00221-00111102661ADDAY121999GF108991081051004501999999MW1021
0056065900999991955031606004+49617+006200FM-12+038099999V0202801N00101007801CN0040001N9+00111+00001102451ADDAY121999GF108991081051008001999999KA1999N+00111MW1051
0043065900999991955031612004+49617+006200FM-12+038099999V0202401N00511004501CN0100001N9+00281-00111102201ADDAY121999GF108991051051004501999999MW1051
0056065900999991955031618004+49617+006200FM-12+038099999V0202601N00411007801CN0026001N9+00281-00221101871ADDAY121999GF108991081051008001999999KA1999M+00281MW1051
0043065900999991955031700004+49617+006200FM-12+038099999V0202701N00621007801CN0080001N9+00221+00001101471ADDAY121999GF108991081051008001999999MW1051
0056065900999991955031706004+49617+006200FM-12+038099999V0202701N00411000601CN0010001N9+00111+00001101151ADDAY181999GF108991071071000751999999KA1999N+00001MW1601
0043065900999991955031712004+49617+006200FM-12+038099999V0203201N00511004501CN0220001N9+00001-00721101461ADDAY181999GF106991061081004501001001MW1011
0056065900999991955031718004+49617+006200FM-12+038099999V0202801N00621220001CN0220001N9+00111-00501101591ADDAY111999GF104991041081004501001001KA1999M+00221MW1021
0043065900999991955031800004+49617+006200FM-12+038099999V0203001N00411004501CN0100001N9-00111-00221101651ADDAY181999GF106991061081004501999999MW1261
0056065900999991955031806004+49617+006200FM-12+038099999V0203001N00461004501CN0100001N9-00221-00391101591ADDAY181999GF107991071081004501999999KA1999N-00221MW1261
0043065900999991955031812004+49617+006200FM-12+038099999V0203101N00411004501CN0550001N9+00111-00721101761ADDAY101999GF105991051021004501001001MW1021
0056065900999991955031818004+49617+006200FM-12+038099999V0203101N004119999999N0120001N9+00111-00721101661ADDAY121999GF105991011041008001031001KA1999M+00281MW1021
0043065900999991955031900004+49617+006200FM-12+038099999V0202601N00461220001CN0100001N9-00221-00611101411ADDAY181999GF101991011051008001001001MW1011
0056065900999991955031906004+49617+006200FM-12+038099999V0202501N00571002401CN0040001N9-00221-00281101061ADDAY181999GF108991071081002501999999KA1999N-00281MW1221
0043065900999991955031912004+49617+006200FM-12+038099999V0202401N00771001501CN0026001N9-00111-00221100801ADDAY171999GF108991071071001501999999MW1711
0056065900999991955031918004+49617+006200FM-12+038099999V0202901N00261220001CN0180001N9-00111-00721100881ADDAY181999GF102991021081004501001001KA1999M+00001MW1261
0043065900999991955032000004+49617+006200FM-12+038099999V0209991V00101220001CN0120001N9-00391-00611101271ADDAY111999GF100991001001999999001001MW1021
0056065900999991955032006004+49617+006200FM-12+038099999V0202901N00151220001CN0040001N9-00781-00891101441ADDAY111999GF100991001001999999001001KA1999N-00891MW1051
0043065900999991955032012004+49617+006200FM-12+038099999V0200901N00311220001CN0220001N9+00001-00721101251ADDAY101999GF103991021011008001001051MW1021
0056065900999991955032018004+49617+006200FM-12+038099999V0201001N00511220001CN0220001N9+00111-01001100771ADDAY111999GF105991001001999999001061KA1999M+00221MW1021
0043065900999991955032100004+49617+006200FM-12+038099999V0200701N00461220001CN0180001N9-00221-00781100251ADDAY111999GF102991021001999999031001MW1031
0056065900999991955032106004+49617+006200FM-12+038099999V0200701N00511007801CN0016001N9-00221-00281099651ADDAY171999GF108991081051008001999999KA1999N-00221MW1711
0043065900999991955032112004+49617+006200FM-12+038099999V0201301N00311000151CN0002001N9+00111+00111099401ADDAY171999GF109991091999000251999999MW1621
0056065900999991955032118004+49617+006200FM-12+038099999V0202601N00261000151CN0002001N9+00281+00281099691ADDAY161999GF109991091999000251999999KA1999M+00391MW1611
0043065900999991955032200004+49617+006200FM-12+038099999V0202201N00151000151CN0004001N9+00001+00001100421ADDAY161999GF109991091999000251999999MW1471
0056065900999991955032206004+49617+006200FM-12+038099999V0202101N00101000151CN0000001N9+00111+00111100891ADDAY141999GF109991091999000251999999KA1999N+00001MW1471
0043065900999991955032212004+49617+006200FM-12+038099999V0201501N00311000151CN0008001N9+00501+00501101071ADDAY141999GF109991091999000251999999MW1601
0056065900999991955032218004+49617+006200FM-12+038099999V0202301N00511004501CN0060001N9+00721+00721101041ADDAY181999GF108991081031004501999999KA1999M+00781MW1251
0043065900999991955032300004+49617+006200FM-12+038099999V0202401N00511001501CN0080001N9+00611+00501101521ADDAY181999GF108991081081001501999999MW1801
0056065900999991955032306004+49617+006200FM-12+038099999V0202001N00511000601CN0012001N9+00501+00501101751ADDAY181999GF108991081061000751999999KA1999N+00391MW1281
0043065900999991955032312004+49617+006200FM-12+038099999V0201801N00511007801CN0030001N9+00721+00611101671ADDAY161999GF108991061051008001021999MW1611
0056065900999991955032318004+49617+006200FM-12+038099999V0202101N007719999999N0160001N9+01111+00781101551ADDAY161999GF105991021051004501001061KA1999M+01221MW1031
0043065900999991955032400004+49617+006200FM-12+038099999V0202201N00571004501CN0080001N9+01001+00891101621ADDAY121999GF108991071051004501999999MW1051
0056065900999991955032406004+49617+006200FM-12+038099999V0201801N004119999999N0040001N9+00891+00891101361ADDAY161999GF107991031051008001071999KA1999N+00891MW1051
0043065900999991955032412004+49617+006200FM-12+038099999V0202401N008219999999N0200001N9+01611+00781101211ADDAY181999GF106991011011008001031061MW1031
0056065900999991955032418004+49617+006200FM-12+038099999V0202401N00871220001CN0200001N9+01611+00391101271ADDAY111999GF103991011011008001041061KA1999M+01781MW1021
0043065900999991955032500004+49617+006200FM-12+038099999V0202701N00311220001CN0120001N9+01111+00611101721ADDAY111999GF102991021051017501001001MW1011
0056065900999991955032506004+49617+006200FM-12+038099999V0200801N00211220001CN0150001N9+00891+00611101591ADDAY111999GF103991021051012501031051KA1999N+00891MW1011
0043065900999991955032512004+49617+006200FM-12+038099999V0201301N005119999999N0120001N9+01501+00891101261ADDAY111999GF108991011051017501031071MW1031
0056065900999991955032518004+49617+006200FM-12+038099999V0201701N006219999999N0160001N9+01781+00721100721ADDAY121999GF106991021051017501001061KA1999M+01891MW1011
0043065900999991955032600004+49617+006200FM-12+038099999V0201901N00461220001CN0100001N9+01221+00281100741ADDAY111999GF104991001001999999001061MW1021
0056065900999991955032606004+49617+006200FM-12+038099999V0202401N005119999999N0080001N9+01221+00501100811ADDAY161999GF108991041051012501021999KA1999N+01111MW1601
0043065900999991955032612004+49617+006200FM-12+038099999V0202301N00721004501CN0200001N9+01281+01001100921ADDAY161999GF107991051081004501031001MW1011
0056065900999991955032618004+49617+006200FM-12+038099999V0202301N005119999999N0180001N9+01391+00781100841ADDAY121999GF107991031081008001041061KA1999M+01611MW1021
0043065900999991955032700004+49617+006200FM-12+038099999V0202301N00511220001CN0150001N9+01111+00781100881ADDAY111999GF101991011051012501001001MW1251
0056065900999991955032706004+49617+006200FM-12+038099999V0202401N00721220001CN0200001N9+00781+00611100821ADDAY111999GF104991041081004501031061KA1999N+00781MW1031
0043065900999991955032712004+49617+006200FM-12+038099999V0202601N00931002401CN0090001N9+00891+00611101071ADDAY181999GF107991071081002501999999MW1201
0056065900999991955032718004+49617+006200FM-12+038099999V0203601N00511002401CN0040001N9+00281+00111101581ADDAY181999GF108991071061002501999999KA1999M+01001MW1051
0043065900999991955032800004+49617+006200FM-12+038099999V0200301N00511004501CN0080001N9+00111-00221101941ADDAY121999GF108991071051004501999999MW1051
0056065900999991955032806004+49617+006200FM-12+038099999V0200501N00671004501CN0060001N9-00111-00501102061ADDAY111999GF108991071051004501999999KA1999N-00111MW1051
0043065900999991955032812004+49617+006200FM-12+038099999V0200701N00721220001CN0180001N9+00391-00721102031ADDAY111999GF102991011001999999031011MW1021
0056065900999991955032818004+49617+006200FM-12+038099999V0200601N005719999999N0160001N9+00501-00891101851ADDAY111999GF106991011051017501031011KA1999M+00721MW1011
0043065900999991955032900004+49617+006200FM-12+038099999V0200401N006719999999N0090001N9+00111-00501101871ADDAY121999GF106991021001999999031061MW1051
0056065900999991955032906004+49617+006200FM-12+038099999V0200401N00671220001CN0110001N9-00111-00501101921ADDAY101999GF102991021001999999031001KA1999N-00111MW1021
0043065900999991955032912004+49617+006200FM-12+038099999V0200401N00571220001CN0220001N9+00391-00501101991ADDAY101999GF103991031011008001001001MW1021
0056065900999991955032918004+49617+006200FM-12+038099999V0203401N00361220001CN0200001N9+00221-00891102081ADDAY101999GF101991011021008001001001KA1999M+00611MW1021
0043065900999991955033000004+49617+006200FM-12+038099999V0203601N00511220001CN0200001N9-00221-00501102391ADDAY101999GF100991001001999999001001MW1021
0056065900999991955033006004+49617+006200FM-12+038099999V0200401N00671220001CN0030001N9-00221-00281102461ADDAY111999GF103991031051004501001001KA1999N-00281MW1051
0043065900999991955033012004+49617+006200FM-12+038099999V0200601N00931007801CN0140001N9+00391-00721102441ADDAY111999GF107991071011008001999999MW1031
0056065900999991955033018004+49617+006200FM-12+038099999V0200701N00931220001CN0160001N9+00281-00391102241ADDAY111999GF103991031051008001001001KA1999M+00501MW1021
0043065900999991955033100004+49617+006200FM-12+038099999V0200501N00671220001CN0120001N9-00221-00781102241ADDAY101999GF100991001001999999001001MW1021
0056065900999991955033106004+49617+006200FM-12+038099999V0200401N00671220001CN0070001N9-00391-00781102041ADDAY101999GF100991001001999999001001KA1999N-00501MW1051
0043065900999991955033112004+49617+006200FM-12+038099999V0200601N00931220001CN0200001N9+00501-01111101751ADDAY101999GF100991001001999999001001MW1021
0056065900999991955033118004+49617+006200FM-12+038099999V0200201N00671220001CN0120001N9+00501-00781101651ADDAY101999GF101991001001999999001011KA1999M+00721MW1021
0043065900999991955040100004+49617+006200FM-12+038099999V0200401N00311220001CN0080001N9-00111-00281101911ADDAY101999GF100991001001999999001001MW1051
0056065900999991955040106004+49617+006200FM-12+038099999V0203501N00261004501CN9999999N9+00111-00111102031ADDAY111999GF107991071051004501999999KA1999N-00111MW1051
0043065900999991955040112004+49617+006200FM-12+038099999V0203101N00361004501CN0140001N9+00501+00001102231ADDAY111999GF107991071081004501999999MW1021
0056065900999991955040118004+49617+006200FM-12+038099999V0203601N003119999999N0120001N9+00391-00111102421ADDAY181999GF107991011051008001071999KA1999M+00721MW1021
0043065900999991955040200004+49617+006200FM-12+038099999V0200301N00261007801CN0080001N9+00221-00221102791ADDAY121999GF107991071051008001999999MW1051
0056065900999991955040206004+49617+006200FM-12+038099999V0200601N00311220001CN0060001N9-00111-00221102811ADDAY111999GF100991001001999999001001KA1999N-00221MW1051
0043065900999991955040212004+49617+006200FM-12+038099999V0200701N00571220001CN0140001N9+00891-00391102441ADDAY101999GF100991001001999999001001MW1021
0056065900999991955040218004+49617+006200FM-12+038099999V0200901N00361220001CN0120001N9+00891-00281102091ADDAY111999GF105991001001999999001061KA1999M+01221MW1031
0043065900999991955040300004+49617+006200FM-12+038099999V0200701N00311220001CN0140001N9+00391-00391102061ADDAY111999GF100991001001999999001001MW1011
0056065900999991955040306004+49617+006200FM-12+038099999V0201001N000519999999N0050001N9+00221-00281102041ADDAY111999GF106991031001999999031061KA1999N+00221MW1051
0043065900999991955040312004+49617+006200FM-12+038099999V0202401N005719999999N0080001N9+01221-00111101991ADDAY111999GF105991021051017501031071MW1051
0056065900999991955040318004+49617+006200FM-12+038099999V0202601N00621015001CN0180001N9+01111-00111102011ADDAY121999GF107991061051017501031061KA1999M+01391MW1031
0043065900999991955040400004+49617+006200FM-12+038099999V0202401N00671007801CN0120001N9+00781+00391102041ADDAY121999GF107991071051008001999999MW1021
0056065900999991955040406004+49617+006200FM-12+038099999V0202701N00571004501CN0090001N9+00721+00501102051ADDAY121999GF108991081051004501999999KA1999N+00721MW1051
0043065900999991955040412004+49617+006200FM-12+038099999V0202501N008219999999N0160001N9+01221+00281102061ADDAY121999GF106991031081008001031061MW1021
0056065900999991955040418004+49617+006200FM-12+038099999V0203201N00361007801CN0160001N9+01111+00221102041ADDAY121999GF108991051051008001071999KA1999M+01281MW1211
0043065900999991955040500004+49617+006200FM-12+038099999V0202001N00101015001CN0180001N9+00781+00391102191ADDAY121999GF107991071051017501999999MW1021
0056065900999991955040506004+49617+006200FM-12+038099999V0202601N00101012301CN0060001N9+00721+00281102161ADDAY121999GF108991071051012501999999KA1999N+00721MW1051
0043065900999991955040512004+49617+006200FM-12+038099999V0202401N004619999999N0220001N9+01391+00111102041ADDAY121999GF107991041011008001031061MW1031
0056065900999991955040518004+49617+006200FM-12+038099999V0202601N00261220001CN0200001N9+01501+00111101881ADDAY111999GF103991021001999999031051KA1999M+01721MW1011
0043065900999991955040600004+49617+006200FM-12+038099999V0202001N00151220001CN0080001N9+01001+00111101951ADDAY111999GF105991001001999999001061MW1051
0056065900999991955040606004+49617+006200FM-12+038099999V0200901N00101220001CN0060001N9+00721+00221101871ADDAY111999GF104991021001999999031061KA1999N+00611MW1051
0043065900999991955040612004+49617+006200FM-12+038099999V0202901N00151220001CN0070001N9+01781-00281101671ADDAY101999GF102991011011012501031051MW1051
0056065900999991955040618004+49617+006200FM-12+038099999V0209991V00151220001CN0200001N9+01611-00111101591ADDAY111999GF107991001001999999001061KA1999M+02001MW1021
0043065900999991955040700004+49617+006200FM-12+038099999V0203601N002619999999N0160001N9+01221+00001101801ADDAY121999GF107991041001999999031061MW1021
0056065900999991955040706004+49617+006200FM-12+038099999V0203001N00101012301CN0040001N9+00781+00721102111ADDAY121999GF108991071051012501999999KA1999N+00781MW1051
0043065900999991955040712004+49617+006200FM-12+038099999V0202701N00411002401CN0060001N9+00891+00721102421ADDAY181999GF107991071081002501999999MW1051
0056065900999991955040718004+49617+006200FM-12+038099999V0202901N00311220001CN0140001N9+01001+00221102451ADDAY181999GF103991021081008001001051KA1999M+01221MW1021
0043065900999991955040800004+49617+006200FM-12+038099999V0202801N00211007801CN0080001N9+00611+00281102641ADDAY161999GF106991061051008001999999MW1051
0056065900999991955040806004+49617+006200FM-12+038099999V0202501N005719999999N0050001N9+00611+00611102421ADDAY161999GF108991041071002501021071KA1999N+00611MW1611
0043065900999991955040812004+49617+006200FM-12+038099999V0202501N00511000601CN0040001N9+00891+00781102311ADDAY161999GF108991071071000751999999MW1621
0056065900999991955040818004+49617+006200FM-12+038099999V0202701N00511000601CN0010001N9+00891+00781102251ADDAY161999GF108991081071000751999999KA1999M+00891MW1611
0043065900999991955040900004+49617+006200FM-12+038099999V0202701N00461001501CN0060001N9+00721+00611102361ADDAY161999GF108991081071001501999999MW1601
0056065900999991955040906004+49617+006200FM-12+038099999V0202701N00311000601CN0012001N9+00611+00611102441ADDAY161999GF108991081071000751999999KA1999N+00611MW1281
0043065900999991955040912004+49617+006200FM-12+038099999V0202401N00511004501CN0080001N9+00891+00611102471ADDAY161999GF107991071081004501999999MW1051
0056065900999991955040918004+49617+006200FM-12+038099999V0202901N00411001501CN0050001N9+00891+00781102421ADDAY181999GF108991081081001501999999KA1999M+01001MW1811
0043065900999991955041000004+49617+006200FM-12+038099999V0202901N00151007801CN0050001N9+00721+00611102561ADDAY181999GF108991081051008001999999MW1051
0056065900999991955041006004+49617+006200FM-12+038099999V0202701N002619999999N0050001N9+00391+00391102531ADDAY141999GF106991021051008001001061KA1999N+00391MW1051
0043065900999991955041012004+49617+006200FM-12+038099999V0202601N00671004501CN0100001N9+00781+00391102471ADDAY111999GF107991051081004501031071MW1021
0056065900999991955041018004+49617+006200FM-12+038099999V0202501N00461004501CN0040001N9+00721+00611102291ADDAY161999GF108991051051004501021071KA1999M+01001MW1611
0043065900999991955041100004+49617+006200FM-12+038099999V0202701N00511001501CN0050001N9+00781+00781102141ADDAY161999GF108991071071001501999999MW1511
0056065900999991955041106004+49617+006200FM-12+038099999V0202701N00411000601CN0020001N9+00781+00781102161ADDAY161999GF108991081071000751999999KA1999N+00721MW1101
0043065900999991955041112004+49617+006200FM-12+038099999V0202601N006219999999N0040001N9+01111+00891102151ADDAY161999GF107991011071001501031071MW1051
0056065900999991955041118004+49617+006200FM-12+038099999V0203101N004119999999N0150001N9+01001+00391102381ADDAY121999GF105991031021008001001061KA1999M+01281MW1011
0043065900999991955041200004+49617+006200FM-12+038099999V0203201N00211220001CN0080001N9+00501+00281102721ADDAY111999GF103991001001999999001061MW1051
0056065900999991955041206004+49617+006200FM-12+038099999V0203001N00211012301CN0060001N9+00391+00221102961ADDAY111999GF107991071051012501999999KA1999N+00281MW1051
0043065900999991955041212004+49617+006200FM-12+038099999V0200201N00511220001CN0240001N9+01111+00111103051ADDAY111999GF104991041011008001001001MW1011
0056065900999991955041218004+49617+006200FM-12+038099999V0200201N00261220001CN0200001N9+01221+00281103031ADDAY101999GF101991011041012501001001KA1999M+01391MW1021
0043065900999991955041300004+49617+006200FM-12+038099999V0203601N00051220001CN0080001N9+00721+00281103211ADDAY101999GF100991001001999999001001MW1051
0056065900999991955041306004+49617+006200FM-12+038099999V0202601N00211007801CN0030001N9+00721+00501103091ADDAY111999GF108991081051008001999999KA1999N+00611MW1051
0043065900999991955041312004+49617+006200FM-12+038099999V0203501N00361007801CN0050001N9+01281+00391103011ADDAY121999GF107991071081008001999999MW1031
0056065900999991955041318004+49617+006200FM-12+038099999V0203301N00361220001CN0180001N9+01281+00391102851ADDAY111999GF102991011011008001001061KA1999M+01501MW1011
0043065900999991955041400004+49617+006200FM-12+038099999V0203501N00151220001CN0100001N9+00501+00111102921ADDAY101999GF100991001001999999001001MW1021
0056065900999991955041406004+49617+006200FM-12+038099999V0203401N00101220001CN0060001N9+00281+00001102841ADDAY111999GF101991011051017501001001KA1999N+00221MW1051
0043065900999991955041412004+49617+006200FM-12+038099999V0203601N00361007801CN0160001N9+00721-00281102661ADDAY111999GF106991061021008001999999MW1021
0056065900999991955041418004+49617+006200FM-12+038099999V0203601N00361007801CN0250001N9+00611-00281102621ADDAY121999GF105991051081008001001001KA1999M+00781MW1021
0043065900999991955041500004+49617+006200FM-12+038099999V0203601N00311007801CN0140001N9+00281-00281102671ADDAY111999GF108991081051008001999999MW1031
0056065900999991955041506004+49617+006200FM-12+038099999V0203601N00311012301CN0150001N9+00111-00391102591ADDAY121999GF106991061051012501001001KA1999N+00111MW1011
0043065900999991955041512004+49617+006200FM-12+038099999V0200301N00671007801CN0180001N9+00891-00391102431ADDAY111999GF107991071031008001999999MW1031
0056065900999991955041518004+49617+006200FM-12+038099999V0200201N00511220001CN0110001N9+00611-00221102501ADDAY101999GF103991021031008001001031KA1999M+01001MW1011
0043065900999991955041600004+49617+006200FM-12+038099999V0200301N00311220001CN0120001N9+00221-00111102681ADDAY111999GF101991011051017501001001MW1011
0056065900999991955041606004+49617+006200FM-12+038099999V0200201N00261015001CN0030001N9+00221+00001102651ADDAY111999GF107991071051017501999999KA1999N+00221MW1051
0043065900999991955041612004+49617+006200FM-12+038099999V0200301N00721007801CN0150001N9+00501-00611102661ADDAY181999GF107991071031008001999999MW1021
0056065900999991955041618004+49617+006200FM-12+038099999V0200501N00671007801CN0220001N9+00501-00501102711ADDAY181999GF106991061031008001001031KA1999M+00721MW1261
0043065900999991955041700004+49617+006200FM-12+038099999V0200501N00511220001CN0150001N9+00111-00281102971ADDAY111999GF100991001001999999001001MW1021
0056065900999991955041706004+49617+006200FM-12+038099999V0200401N00671220001CN0140001N9+00111-00281103021ADDAY111999GF102991001001999999001051KA1999N+00001MW1021
0043065900999991955041712004+49617+006200FM-12+038099999V0200701N01231220001CN0240001N9+01001-00501102991ADDAY111999GF104991021011012501001061MW1011
0056065900999991955041718004+49617+006200FM-12+038099999V0200501N00671220001CN0300001N9+01111-00501102921ADDAY101999GF101991011011012501001001KA1999M+01221MW1011
0056065900999991955041806004+49617+006200FM-12+038099999V0200201N00211220001CN0050001N9+00281+00001103221ADDAY101999GF100991001001999999001001KA1999N+00281MW1051
0043065900999991955041812004+49617+006200FM-12+038099999V0200101N00671220001CN0250001N9+01221-00611102861ADDAY101999GF101991011011008001001001MW1021
0056065900999991955041818004+49617+006200FM-12+038099999V0200201N00621220001CN0220001N9+00891-00781102731ADDAY101999GF100991001001999999001001KA1999M+01281MW1021
0043065900999991955041900004+49617+006200FM-12+038099999V0200401N00411220001CN0080001N9+00221-00611102891ADDAY101999GF100991001001999999001001MW1051
0056065900999991955041906004+49617+006200FM-12+038099999V0200301N00571220001CN0140001N9+00001-00501102841ADDAY101999GF100991001001999999001001KA1999N+00001MW1021
0043065900999991955041912004+49617+006200FM-12+038099999V0200401N00671220001CN0240001N9+00781-01111102551ADDAY101999GF101991001001999999001011MW1021
0056065900999991955041918004+49617+006200FM-12+038099999V0200501N00461220001CN0220001N9+00891-01221102351ADDAY101999GF100991001001999999001001KA1999M+01001MW1021
0043065900999991955042000004+49617+006200FM-12+038099999V0200301N00361220001CN0120001N9+00221-00721102391ADDAY101999GF100991001001999999001001MW1021
0056065900999991955042006004+49617+006200FM-12+038099999V0200201N00461220001CN0100001N9+00221-00721102271ADDAY101999GF101991001001999999001011KA1999N+00111MW1011
0043065900999991955042012004+49617+006200FM-12+038099999V0202401N00411220001CN0150001N9+01221-00501102001ADDAY101999GF101991001001999999001051MW1021
0056065900999991955042018004+49617+006200FM-12+038099999V0209991V00261220001CN0160001N9+01111-00221101801ADDAY101999GF101991001001999999001011KA1999M+01501MW1021
0043065900999991955042100004+49617+006200FM-12+038099999V0200201N00261220001CN0030001N9+00281+00111102031ADDAY101999GF100991001001999999001001MW1051
0056065900999991955042106004+49617+006200FM-12+038099999V0203601N00101000601CN0015001N9+00111+00111102131ADDAY141999GF108991081061000751999999KA1999N-00111MW1281
0043065900999991955042112004+49617+006200FM-12+038099999V0200201N00311004501CN0090001N9+00891+00111102131ADDAY111999GF106991061011004501999999MW1051
0056065900999991955042118004+49617+006200FM-12+038099999V0203401N00361007801CN0080001N9+00781+00001102121ADDAY121999GF107991071081008001999999KA1999M+01111MW1051
0043065900999991955042200004+49617+006200FM-12+038099999V0203401N00411220001CN0080001N9+00391-00221102271ADDAY111999GF100991001001999999001001MW1051
0056065900999991955042206004+49617+006200FM-12+038099999V0200301N00511220001CN0120001N9+00111-00611102381ADDAY101999GF102991021001999999041001KA1999N-00111MW1031
0043065900999991955042212004+49617+006200FM-12+038099999V0209991V00311220001CN0160001N9+00611-00611102271ADDAY111999GF100991001001999999001001MW1011
0056065900999991955042218004+49617+006200FM-12+038099999V0200401N00151220001CN0200001N9+00891-00721102051ADDAY101999GF100991001001999999001001KA1999M+01001MW1021
0043065900999991955042300004+49617+006200FM-12+038099999V0200401N00411220001CN0120001N9+00281-00391102231ADDAY101999GF100991001001999999001001MW1021
0056065900999991955042306004+49617+006200FM-12+038099999V0200301N00101220001CN0050001N9+00001-00281102151ADDAY101999GF100991001001999999001001KA1999N-00111MW1051
0043065900999991955042312004+49617+006200FM-12+038099999V0200901N001519999999N0070001N9+01221-00281101771ADDAY111999GF108991011011008001001071MW1051
0056065900999991955042318004+49617+006200FM-12+038099999V0202601N00261220001CN0060001N9+01221+00001101481ADDAY121999GF105991001001999999001061KA1999M+01281MW1051
0043065900999991955042400004+49617+006200FM-12+038099999V0203601N00101220001CN0060001N9+00721+00001101571ADDAY111999GF100991001001999999001001MW1051
0056065900999991955042406004+49617+006200FM-12+038099999V0202901N00211220001CN0028001N9+00221+00001101611ADDAY101999GF100991001001999999001001KA1999N+00221MW1051
0043065900999991955042412004+49617+006200FM-12+038099999V0203401N00511004501CN0090001N9+00721+00221101801ADDAY111999GF105991051081004501001001MW1051
0056065900999991955042418004+49617+006200FM-12+038099999V0203601N00461220001CN0250001N9+00721-00721102011ADDAY111999GF103991031011008001001001KA1999M+01001MW1021
0043065900999991955042500004+49617+006200FM-12+038099999V0203501N00261220001CN0180001N9+00111-00501102441ADDAY101999GF100991001001999999001001MW1021
0056065900999991955042506004+49617+006200FM-12+038099999V0203601N00261220001CN0180001N9+00001-00281102561ADDAY101999GF100991001001999999001001KA1999N-00221MW1021
0043065900999991955042512004+49617+006200FM-12+038099999V0200901N00411220001CN0250001N9+00721-00891102381ADDAY101999GF100991001001999999001001MW1021
0056065900999991955042518004+49617+006200FM-12+038099999V0200701N00361220001CN0250001N9+00891-01001102101ADDAY101999GF101991001001999999001051KA1999M+01001MW1021
0043065900999991955042600004+49617+006200FM-12+038099999V0200501N00411220001CN0180001N9+00281-00891102081ADDAY101999GF101991001001999999001051MW1021
0056065900999991955042606004+49617+006200FM-12+038099999V0200801N00261220001CN0100001N9+00281-00611101801ADDAY111999GF105991001001999999001061KA1999N+00111MW1031
0043065900999991955042612004+49617+006200FM-12+038099999V0202501N005119999999N0120001N9+01221-00891101521ADDAY121999GF108991041001999999031071MW1031
0056065900999991955042618004+49617+006200FM-12+038099999V0202701N00511021001CN0220001N9+01221-00611101531ADDAY121999GF107991071001022501071071KA1999M+01391MW1021
0043065900999991955042700004+49617+006200FM-12+038099999V0202301N00461220001CN0120001N9+00781+00001101751ADDAY111999GF102991021051012501001001MW1011
0056065900999991955042706004+49617+006200FM-12+038099999V0202601N00261220001CN0050001N9+00501+00391101891ADDAY101999GF103991011051012501001061KA1999N+00501MW1051
0043065900999991955042712004+49617+006200FM-12+038099999V0202701N00411004501CN0140001N9+01391+00501101781ADDAY111999GF108991051021004501001071MW1031
0056065900999991955042718004+49617+006200FM-12+038099999V0202601N003619999999N0180001N9+01611+00111101651ADDAY121999GF106991031051017501031061KA1999M+01721MW1021
0043065900999991955042800004+49617+006200FM-12+038099999V0202401N00211220001CN0100001N9+01111+00281101801ADDAY111999GF101991011001999999031001MW1011
0056065900999991955042806004+49617+006200FM-12+038099999V0202101N00151220001CN0030001N9+00891+00611101901ADDAY101999GF102991001001999999001051KA1999N+00781MW1051
0043065900999991955042812004+49617+006200FM-12+038099999V0202101N00361220001CN0220001N9+01891+00721101781ADDAY111999GF103991031011008001001001MW1011
0056065900999991955042818004+49617+006200FM-12+038099999V0202701N00461220001CN0300001N9+02111+00611101621ADDAY101999GF101991011011012501001011KA1999M+02221MW1021
0043065900999991955042900004+49617+006200FM-12+038099999V0203601N00101220001CN0160001N9+01501+00611101851ADDAY101999GF100991001001999999001001MW1021
0056065900999991955042906004+49617+006200FM-12+038099999V0200501N00261220001CN0120001N9+01281+00781101871ADDAY101999GF100991001001999999001001KA1999N+01221MW1021
0043065900999991955042912004+49617+006200FM-12+038099999V0202201N00361220001CN0140001N9+02391+00611101661ADDAY101999GF102991021021012501001001MW1031
0056065900999991955042918004+49617+006200FM-12+038099999V0201601N00361220001CN0180001N9+02281+00501101471ADDAY101999GF102991011021012501001011KA1999M+02611MW1021
0043065900999991955043000004+49617+006200FM-12+038099999V0201701N00151220001CN0120001N9+01721+00721101671ADDAY101999GF102991021001999999031001MW1031
0056065900999991955043006004+49617+006200FM-12+038099999V0201701N00261220001CN0100001N9+01391+00611101761ADDAY101999GF101991001001999999001051KA1999N+01281MW1021
0043065900999991955043012004+49617+006200FM-12+038099999V0201801N00411220001CN0150001N9+02391+00501101661ADDAY101999GF101991011021012501001001MW1031
0056065900999991955043018004+49617+006200FM-12+038099999V0202701N00411220001CN0200001N9+02281+00501101521ADDAY111999GF103991011081017501031001KA1999M+02611MW1011
0043065900999991955050100004+49617+006200FM-12+038099999V0202701N00101220001CN0100001N9+01501+00721101651ADDAY101999GF104991011051012501001061MW1021
0056065900999991955050106004+49617+006200FM-12+038099999V0200801N00051007801CN0040001N9+01281+01111101651ADDAY161999GF106991051051008001031071KA1999N+01221MW1211
0043065900999991955050112004+49617+006200FM-12+038099999V0201801N00461220001CN0120001N9+02281+00781101251ADDAY111999GF103991011081012501001061MW1031
0056065900999991955050118004+49617+006200FM-12+038099999V0202401N00721012301CN0220001N9+02221+00501100831ADDAY121999GF106991051091012501031031KA1999M+02501MW1021
0043065900999991955050200004+49617+006200FM-12+038099999V0202201N00721012301CN0200001N9+01501+00891100831ADDAY181999GF107991071031012501999999MW1251
0056065900999991955050206004+49617+006200FM-12+038099999V0202401N00671001501CN0026001N9+01111+01001100781ADDAY181999GF108991071071001501999999KA1999N+01111MW1601
0043065900999991955050212004+49617+006200FM-12+038099999V0202601N00721002401CN0160001N9+00891+00391100771ADDAY161999GF106991061081002501999999MW1211
0056065900999991955050218004+49617+006200FM-12+038099999V0202601N006219999999N0200001N9+01001+00391100791ADDAY181999GF105991021081004501051001KA1999M+01281MW1251
0043065900999991955050300004+49617+006200FM-12+038099999V0202601N00821004501CN0100001N9+00721+00501101161ADDAY181999GF107991071081004501999999MW1021
0056065900999991955050306004+49617+006200FM-12+038099999V0202501N00571002401CN0060001N9+00721+00611101281ADDAY161999GF107991061071002501999999KA1999N+00611MW1051
0043065900999991955050312004+49617+006200FM-12+038099999V0202401N00571004501CN0180001N9+01001+00501101381ADDAY121999GF107991071081004501999999MW1021
0056065900999991955050318004+49617+006200FM-12+038099999V0202501N00571007801CN0250001N9+01281-00111101081ADDAY121999GF105991051021008001001051KA1999M+01391MW1021
0043065900999991955050400004+49617+006200FM-12+038099999V0202101N004619999999N0140001N9+00781+00221100991ADDAY111999GF107991041051017501001061MW1031
0056065900999991955050406004+49617+006200FM-12+038099999V0201901N004619999999N0100001N9+00781+00501100681ADDAY161999GF108991031051012501999999KA1999N+00721MW1601
0043065900999991955050412004+49617+006200FM-12+038099999V0202301N00821004501CN0120001N9+01221+00781100811ADDAY161999GF106991061081004501001001MW1011
0056065900999991955050418004+49617+006200FM-12+038099999V0202301N00621004501CN0180001N9+01111+00891100851ADDAY181999GF107991071031004501999999KA1999M+01501MW1251
0043065900999991955050500004+49617+006200FM-12+038099999V0202501N00821220001CN0150001N9+01111+00391101081ADDAY181999GF101991011051012501001001MW1011
0056065900999991955050506004+49617+006200FM-12+038099999V0202401N008219999999N0200001N9+00891+00611101421ADDAY111999GF107991041061002501999999KA1999N+00781MW1021
0043065900999991955050512004+49617+006200FM-12+038099999V0202301N00821002401CN0060001N9+01111+01001101391ADDAY181999GF108991081081002501999999MW1251
0056065900999991955050518004+49617+006200FM-12+038099999V0202501N00621004501CN0070001N9+01391+01111101411ADDAY181999GF108991081081004501999999KA1999M+01391MW1811
0043065900999991955050600004+49617+006200FM-12+038099999V0202901N00101012301CN0090001N9+01001+00781101801ADDAY181999GF107991071051012501999999MW1051
0056065900999991955050606004+49617+006200FM-12+038099999V0202101N003119999999N0060001N9+01001+01001101711ADDAY121999GF105991011061002501031061KA1999N+00781MW1051
0043065900999991955050612004+49617+006200FM-12+038099999V0201601N00411004501CN0120001N9+01721+01221101241ADDAY121999GF107991061051004501001061MW1021
0056065900999991955050618004+49617+006200FM-12+038099999V0202301N00411004501CN0040001N9+01281+01111100891ADDAY191999GF107991071031004501999999KA1999M+02001MW1921
0043065900999991955050700004+49617+006200FM-12+038099999V0202501N00721007801CN0160001N9+00781+00281101541ADDAY191999GF105991051081008001001001MW1031
0056065900999991955050706004+49617+006200FM-12+038099999V0202501N007219999999N0100001N9+00721+00391101871ADDAY121999GF107991041061002501999999KA1999N+00721MW1601
0043065900999991955050712004+49617+006200FM-12+038099999V0202601N00821004501CN0160001N9+01111+00391102291ADDAY161999GF107991051081004501001061MW1021
0056065900999991955050718004+49617+006200FM-12+038099999V0203001N00461007801CN0220001N9+01221+00391102531ADDAY181999GF106991051081008001031001KA1999M+01281MW1031
0043065900999991955050800004+49617+006200FM-12+038099999V0202901N00101220001CN0060001N9+00611+00391102921ADDAY111999GF100991001001999999001001MW1051
0056065900999991955050806004+49617+006200FM-12+038099999V0203101N000519999999N0090001N9+00611+00391103021ADDAY111999GF105991011051017501001061KA1999N+00281MW1051
0043065900999991955050812004+49617+006200FM-12+038099999V0202001N00621220001CN0250001N9+01501+00001102721ADDAY111999GF103991011011012501031061MW1031
0056065900999991955050818004+49617+006200FM-12+038099999V0201601N00261220001CN0200001N9+01221+00501102361ADDAY101999GF103991001001999999001061KA1999M+01781MW1021
0043065900999991955050900004+49617+006200FM-12+038099999V0201801N00211220001CN0120001N9+01001+00391102241ADDAY101999GF102991001001999999001061MW1021
0056065900999991955050906004+49617+006200FM-12+038099999V0201701N00211220001CN0060001N9+00781+00501102001ADDAY111999GF106991001001999999001061KA1999N+00721MW1051
0043065900999991955050912004+49617+006200FM-12+038099999V0202301N00821220001CN0300001N9+01891+00611101541ADDAY111999GF103991021001999999031061MW1011
0056065900999991955050918004+49617+006200FM-12+038099999V0202601N00721015001CN0200001N9+02001+00281101291ADDAY111999GF107991051051017501081061KA1999M+02221MW1031
0043065900999991955051000004+49617+006200FM-12+038099999V0202901N00151220001CN0160001N9+01221+01001101451ADDAY111999GF102991021051017501001001MW1021
0056065900999991955051006004+49617+006200FM-12+038099999V0202401N00671004501CN0120001N9+01111+00781101331ADDAY181999GF107991071081004501999999KA1999N+01001MW1801
0043065900999991955051012004+49617+006200FM-12+038099999V0202701N00721004501CN0140001N9+01221+00611101401ADDAY181999GF107991071081004501999999MW1811
0056065900999991955051018004+49617+006200FM-12+038099999V0202301N007219999999N0160001N9+01221+00781101401ADDAY181999GF106991021091004501031031KA1999M+01281MW1021
0043065900999991955051100004+49617+006200FM-12+038099999V0202401N00261220001CN0060001N9+00721+00721101701ADDAY191999GF102991011051008001001051MW1051
0056065900999991955051106004+49617+006200FM-12+038099999V0202601N00261007801CN0030001N9+00721+00611101601ADDAY141999GF107991071051008001999999KA1999N+00391MW1051
0043065900999991955051112004+49617+006200FM-12+038099999V0200101N00411004501CN0140001N9+00781+00611101721ADDAY181999GF107991071081004501999999MW1251
0056065900999991955051118004+49617+006200FM-12+038099999V0200201N00411007801CN0150001N9+00781+00001102041ADDAY121999GF105991051081008001001001KA1999M+01111MW1011
0043065900999991955051200004+49617+006200FM-12+038099999V0200201N00311220001CN0080001N9+00281-00221102491ADDAY111999GF101991011051017501001001MW1051
0056065900999991955051206004+49617+006200FM-12+038099999V0200401N00211220001CN0070001N9+00281-00111102561ADDAY101999GF100991001001999999001001KA1999N+00001MW1051
0043065900999991955051212004+49617+006200FM-12+038099999V0202401N00151220001CN0090001N9+01111-00221102281ADDAY111999GF104991041011008001001061MW1051
0056065900999991955051218004+49617+006200FM-12+038099999V0202001N00361220001CN0090001N9+01281+00001101861ADDAY111999GF106991001001999999001081KA1999M+01391MW1051
0043065900999991955051300004+49617+006200FM-12+038099999V0201901N00051220001CN0080001N9+00611+00221101791ADDAY111999GF103991001001999999001061MW1051
0056065900999991955051306004+49617+006200FM-12+038099999V0201901N002119999999N0024001N9+00501+00281101561ADDAY111999GF106991011051012501031061KA1999N+00391MW1051
0043065900999991955051312004+49617+006200FM-12+038099999V0202801N009319999999N0180001N9+01391+00391101211ADDAY161999GF107991021051008001999999MW1021
0056065900999991955051318004+49617+006200FM-12+038099999V0202201N00771012301CN0180001N9+01391+00611101001ADDAY161999GF107991071051012501999999KA1999M+01611MW1021
0043065900999991955051400004+49617+006200FM-12+038099999V0202201N00621012301CN0120001N9+01281+00721100681ADDAY161999GF108991081051012501999999MW1031
0056065900999991955051406004+49617+006200FM-12+038099999V0202301N00821002401CN0180001N9+01111+00891100491ADDAY181999GF107991071081002501999999KA1999N+01001MW1251
0043065900999991955051412004+49617+006200FM-12+038099999V0202801N007219999999N0100001N9+00781+00721100551ADDAY181999GF108991041081002501021999MW1801
0056065900999991955051418004+49617+006200FM-12+038099999V0202401N00511220001CN0200001N9+01001+00221100761ADDAY181999GF104991031081008001031051KA1999M+01281MW1011
0043065900999991955051500004+49617+006200FM-12+038099999V0201801N00211007801CN0140001N9+00721+00611100741ADDAY111999GF107991071031008001999999MW1131
0056065900999991955051506004+49617+006200FM-12+038099999V0202501N00771004501CN0220001N9+00501+00221100811ADDAY181999GF107991071081004501999999KA1999N+00501MW1021
0043065900999991955051512004+49617+006200FM-12+038099999V0202701N00621004501CN0200001N9+00891-00281101191ADDAY181999GF106991061081004501999999MW1021
0056065900999991955051518004+49617+006200FM-12+038099999V0202801N00311004501CN0200001N9+00891-00111101321ADDAY181999GF107991051031004501031061KA1999M+01111MW1151
0043065900999991955051600004+49617+006200FM-12+038099999V0202401N00211220001CN0120001N9+00281+00221101491ADDAY111999GF100991001001999999001001MW1011
0056065900999991955051606004+49617+006200FM-12+038099999V0202201N00261004501CN0060001N9+00281+00221101581ADDAY181999GF107991071081004501999999KA1999N+00111MW1251
0062065900999991955051612004+49617+006200FM-12+038099999V0202301N01031007801CN0240001N9+01111-00111101391ADDAY181999GF106991999081008001001001MW1021EQDQ01+000052SCOTLC
0056065900999991955051618004+49617+006200FM-12+038099999V0202301N00461012301CN0220001N9+01111+00221101261ADDAY181999GF107991051081012501031999KA1999M+01221MW1021
0043065900999991955051700004+49617+006200FM-12+038099999V0201501N00261007801CN0080001N9+00721+00501100901ADDAY161999GF108991081051008001999999MW1611
0056065900999991955051706004+49617+006200FM-12+038099999V0202001N00511001501CN0030001N9+00781+00781100531ADDAY161999GF108991081071001501999999KA1999N+00721MW1201
0043065900999991955051712004+49617+006200FM-12+038099999V0202001N00621002401CN0200001N9+01221+01001100461ADDAY121999GF107991051061002501999999MW1011
0056065900999991955051718004+49617+006200FM-12+038099999V0202001N00821004501CN0200001N9+01391+00891100181ADDAY121999GF107991051081004501031061KA1999M+01391MW1021
0043065900999991955051800004+49617+006200FM-12+038099999V0202401N00931004501CN0150001N9+01001+00781100301ADDAY181999GF108991081081004501999999MW1251
0056065900999991955051806004+49617+006200FM-12+038099999V0202401N00931007801CN0180001N9+00501+00001100961ADDAY111999GF107991071081008001999999KA1999N+00501MW1021
0043065900999991955051812004+49617+006200FM-12+038099999V0202501N00821004501CN0220001N9+00891-00221101231ADDAY181999GF106991061081004501999999MW1011
0056065900999991955051818004+49617+006200FM-12+038099999V0202501N00721004501CN0080001N9+00611+00221101611ADDAY181999GF106991051031004501031031KA1999M+00891MW1251
0043065900999991955051900004+49617+006200FM-12+038099999V0202501N00211220001CN0120001N9+00281+00111101931ADDAY181999GF101991011051008001001001MW1011
0056065900999991955051906004+49617+006200FM-12+038099999V0202401N00411004501CN0070001N9+00221+00111102141ADDAY111999GF107991071061004501999999KA1999N+00111MW1051
0043065900999991955051912004+49617+006200FM-12+038099999V0202301N00671004501CN0200001N9+00781-00111102221ADDAY181999GF106991061081004501031999MW1021
0056065900999991955051918004+49617+006200FM-12+038099999V0202501N00621002401CN0180001N9+00721+00111102271ADDAY181999GF107991051031002501031031KA1999M+00891MW1031
0043065900999991955052000004+49617+006200FM-12+038099999V0202801N00361220001CN0060001N9+00221+00111102581ADDAY181999GF100991001001999999001001MW1051
0056065900999991955052006004+49617+006200FM-12+038099999V0202601N00311220001CN0030001N9+00221+00111102631ADDAY141999GF103991031051004501001001KA1999N+00001MW1051
0043065900999991955052012004+49617+006200FM-12+038099999V0202801N00461004501CN0160001N9+00721+00111102591ADDAY111999GF107991071031004501999999MW1251
0056065900999991955052018004+49617+006200FM-12+038099999V0203601N00311220001CN0180001N9+00611+00281102431ADDAY181999GF104991041031004501001001KA1999M+01001MW1251
0043065900999991955052100004+49617+006200FM-12+038099999V0202701N00211220001CN0150001N9+00281+00221102431ADDAY111999GF100991001001999999001001MW1011
0056065900999991955052106004+49617+006200FM-12+038099999V0202501N00211004501CN0040001N9+00391+00281102331ADDAY111999GF106991061081004501031999KA1999N+00221MW1051
0043065900999991955052112004+49617+006200FM-12+038099999V0202501N00461004501CN0180001N9+00891+00111102171ADDAY121999GF107991071081004501999999MW1021
0056065900999991955052118004+49617+006200FM-12+038099999V0200501N00361004501CN0080001N9+00391+00281102291ADDAY181999GF107991071031004501999999KA1999M+01001MW1251
0043065900999991955052200004+49617+006200FM-12+038099999V0203201N00211220001CN0070001N9+00281+00221102601ADDAY111999GF104991041051017501001001MW1051
0056065900999991955052206004+49617+006200FM-12+038099999V0203201N00051002401CN0120001N9+00281+00111102951ADDAY111999GF105991051061002501001001KA1999N+00001MW1021
0043065900999991955052212004+49617+006200FM-12+038099999V0202901N00411004501CN0140001N9+00781+00001103101ADDAY111999GF107991071081004501999999MW1021
0056065900999991955052218004+49617+006200FM-12+038099999V0202801N00411007801CN0070001N9+00781+00281103091ADDAY181999GF107991071081008001999999KA1999M+00891MW1021
0043065900999991955052300004+49617+006200FM-12+038099999V0203301N00101220001CN0100001N9+00221+00111103261ADDAY111999GF100991001001999999001001MW1021
0056065900999991955052306004+49617+006200FM-12+038099999V0203101N00051220001CN0100001N9+00281+00111103151ADDAY101999GF100991001001999999001001KA1999N+00001MW1021
0043065900999991955052312004+49617+006200FM-12+038099999V0209991V00151220001CN0100001N9+01221+00221102801ADDAY111999GF104991041011004501001001MW1011
0056065900999991955052318004+49617+006200FM-12+038099999V0203001N00101220001CN0180001N9+01391+00221102431ADDAY101999GF101991011011012501001001KA1999M+01501MW1021
0043065900999991955052400004+49617+006200FM-12+038099999V0203401N00151220001CN0120001N9+00781+00391102461ADDAY101999GF100991001001999999001001MW1021
0056065900999991955052406004+49617+006200FM-12+038099999V0200301N00211220001CN0050001N9+00781+00501102361ADDAY101999GF103991031051012501001001KA1999N+00611MW1051
0043065900999991955052412004+49617+006200FM-12+038099999V0200801N00311220001CN0090001N9+01611+00501102091ADDAY101999GF102991021021008001001001MW1051
0056065900999991955052418004+49617+006200FM-12+038099999V0200301N00411220001CN0190001N9+01611+00611101811ADDAY111999GF101991011021012501001001KA1999M+01781MW1021
0043065900999991955052500004+49617+006200FM-12+038099999V0200501N00361220001CN0080001N9+01001+00611101821ADDAY101999GF100991001001999999001001MW1051
0056065900999991955052506004+49617+006200FM-12+038099999V0200401N00361220001CN0040001N9+01001+00721101681ADDAY111999GF106991001001999999001061KA1999N+00781MW1051
0043065900999991955052512004+49617+006200FM-12+038099999V0200601N00311220001CN0100001N9+01891+00781101311ADDAY111999GF103991021011012501001051MW1021
0056065900999991955052518004+49617+006200FM-12+038099999V0200101N00211012301CN0200001N9+01781+00721101141ADDAY111999GF107991071081012501031999KA1999M+02111MW1251
0043065900999991955052600004+49617+006200FM-12+038099999V0200401N00571220001CN0080001N9+01111+00721101401ADDAY181999GF100991001001999999001001MW1051
0056065900999991955052606004+49617+006200FM-12+038099999V0200401N00361220001CN0050001N9+01001+00611101391ADDAY101999GF100991001001999999001001KA1999N+00781MW1051
0043065900999991955052612004+49617+006200FM-12+038099999V0200501N00261220001CN0060001N9+02001+00721101201ADDAY101999GF101991011011012501001001MW1051
0056065900999991955052618004+49617+006200FM-12+038099999V0209991V00151220001CN0140001N9+02001+00391101021ADDAY101999GF102991011011012501001021KA1999M+02221MW1031
0043065900999991955052700004+49617+006200FM-12+038099999V0200701N00361220001CN0080001N9+01281+00281101111ADDAY111999GF103991001001999999001061MW1051
0056065900999991955052706004+49617+006200FM-12+038099999V0201901N00361000601CN0010001N9+01221+01221101091ADDAY181999GF108991081071000751999999KA1999N+01111MW1601
0043065900999991955052712004+49617+006200FM-12+038099999V0202701N00511004501CN0120001N9+01111+00891101241ADDAY181999GF107991071031004501999999MW1251
0056065900999991955052718004+49617+006200FM-12+038099999V0202701N007219999999N0180001N9+01111+00781101411ADDAY191999GF105991041091004501031031KA1999M+01721MW1251
0043065900999991955052800004+49617+006200FM-12+038099999V0202301N00671004501CN0140001N9+01001+00721101571ADDAY181999GF107991071081004501999999MW1021
0056065900999991955052806004+49617+006200FM-12+038099999V0202701N00211012301CN0080001N9+00781+00721101641ADDAY121999GF108991061051012501999999KA1999N+00781MW1051
0043065900999991955052812004+49617+006200FM-12+038099999V0201701N00361002401CN0018001N9+01221+01001101461ADDAY181999GF108991071031002501021999MW1811
0056065900999991955052818004+49617+006200FM-12+038099999V0209991C00001000601CN0090001N9+01111+01001101411ADDAY181999GF107991071031000751999999KA1999M+01281MW1051
0043065900999991955052900004+49617+006200FM-12+038099999V0203501N00101004501CN0120001N9+00891+00891101781ADDAY181999GF108991081081004501999999MW1051
0056065900999991955052906004+49617+006200FM-12+038099999V0200201N002119999999N0040001N9+00781+00721102041ADDAY121999GF108991041051017501999999KA1999N+00721MW1051
0043065900999991955052912004+49617+006200FM-12+038099999V0200501N00461004501CN0090001N9+01281+00721102241ADDAY121999GF105991051021004501001001MW1051
0056065900999991955052918004+49617+006200FM-12+038099999V0200701N00461220001CN0150001N9+01501+00281102371ADDAY111999GF104991041081008001001001KA1999M+01611MW1031
0043065900999991955053000004+49617+006200FM-12+038099999V0200301N00211220001CN0140001N9+00891+00501102691ADDAY101999GF100991001001999999001001MW1011
0056065900999991955053006004+49617+006200FM-12+038099999V0200401N00511220001CN0140001N9+01001+00501102711ADDAY101999GF100991001001999999001001KA1999N+00721MW1021
0043065900999991955053012004+49617+006200FM-12+038099999V0200501N00771220001CN0250001N9+01781+00281102611ADDAY101999GF102991021021012501001001MW1031
0056065900999991955053018004+49617+006200FM-12+038099999V0200601N00511220001CN0250001N9+01781+00611102441ADDAY101999GF102991021081017501001001KA1999M+01891MW1011
0043065900999991955053100004+49617+006200FM-12+038099999V0200301N00361220001CN0050001N9+01001+00611102591ADDAY101999GF100991001001999999001001MW1051
0056065900999991955053106004+49617+006200FM-12+038099999V0200401N00151220001CN0080001N9+01111+00721102521ADDAY101999GF101991011001999999031011KA1999N+00891MW1051
0043065900999991955053112004+49617+006200FM-12+038099999V0200601N00461220001CN0180001N9+01781+00611102271ADDAY101999GF104991041011012501001001MW1021
0056065900999991955053118004+49617+006200FM-12+038099999V0200601N00361220001CN0180001N9+01781+00501101991ADDAY101999GF103991031081012501001001KA1999M+02001MW1011
0043065900999991955060100004+49617+006200FM-12+038099999V0200501N00261220001CN0090001N9+01221+00611102031ADDAY101999GF103991031051017501001001MW1051
0056065900999991955060106004+49617+006200FM-12+038099999V0200401N00261220001CN0090001N9+01221+00611101911ADDAY101999GF102991021051017501001001KA1999N+00891MW1051
0043065900999991955060112004+49617+006200FM-12+038099999V0200501N00311220001CN0180001N9+01891+00391101611ADDAY101999GF103991031081012501001021MW1011
0056065900999991955060118004+49617+006200FM-12+038099999V0200301N001519999999N0200001N9+01721+00391101441ADDAY111999GF107991041051012501001061KA1999M+02001MW1021
0043065900999991955060200004+49617+006200FM-12+038099999V0200401N001019999999N0080001N9+01111+00721101581ADDAY121999GF106991021051012501001061MW1051
0056065900999991955060206004+49617+006200FM-12+038099999V0200501N00511220001CN0140001N9+00891+00391101721ADDAY111999GF101991011051017501001001KA1999N+00721MW1021
0043065900999991955060212004+49617+006200FM-12+038099999V0200701N00511220001CN0250001N9+01611+00111101821ADDAY101999GF101991011011012501001001MW1021
0056065900999991955060218004+49617+006200FM-12+038099999V0200601N00361220001CN0300001N9+01721+00221101741ADDAY101999GF101991011011012501081001KA1999M+01781MW1021
0043065900999991955060300004+49617+006200FM-12+038099999V0200701N00261220001CN0150001N9+01001+00221101981ADDAY101999GF100991001001999999001001MW1021
0056065900999991955060306004+49617+006200FM-12+038099999V0200501N00361220001CN0100001N9+01001+00221101961ADDAY101999GF103991011001999999031061KA1999N+00611MW1031
0043065900999991955060312004+49617+006200FM-12+038099999V0200901N00771220001CN0180001N9+01781+00001101651ADDAY101999GF101991001001999999001061MW1021
0056065900999991955060318004+49617+006200FM-12+038099999V0201001N007219999999N0240001N9+01781+00001101331ADDAY111999GF105991011001999999031061KA1999M+02001MW1011
0043065900999991955060400004+49617+006200FM-12+038099999V0200701N006219999999N0140001N9+01281+00111101331ADDAY121999GF105991031001999999031061MW1011
0056065900999991955060406004+49617+006200FM-12+038099999V0201001N00571024001CN0160001N9+01221+00221101141ADDAY121999GF107991071001999999071999KA1999N+01221MW1021
0043065900999991955060412004+49617+006200FM-12+038099999V0201201N00511007801CN0025001N9+01111+01001101201ADDAY161999GF108991051051008001021071MW1631
0056065900999991955060418004+49617+006200FM-12+038099999V0202701N00151001501CN0030001N9+01281+01221101331ADDAY161999GF108991071071001501999999KA1999M+01391MW1211
0043065900999991955060500004+49617+006200FM-12+038099999V0202601N00101220001CN0002001N9+00891+00891101571ADDAY141999GF100991001001999999001001MW1461
0056065900999991955060506004+49617+006200FM-12+038099999V0200501N00261220001CN0002001N9+00781+00781101731ADDAY141999GF100991001001999999001001KA1999N+00721MW1421
0043065900999991955060512004+49617+006200FM-12+038099999V0200401N001519999999N0160001N9+01501+01111101671ADDAY141999GF107991021011004501001061MW1021
0056065900999991955060518004+49617+006200FM-12+038099999V0200501N002619999999N0200001N9+01721+00891101591ADDAY121999GF107991011001999999031061KA1999M+01781MW1021
0043065900999991955060600004+49617+006200FM-12+038099999V0200501N00311220001CN0090001N9+01221+00891101631ADDAY111999GF104991031001999999031061MW1051
0056065900999991955060606004+49617+006200FM-12+038099999V0200501N00311220001CN0090001N9+01281+00781101521ADDAY111999GF104991041001999999031051KA1999N+01111MW1051
0043065900999991955060612004+49617+006200FM-12+038099999V0201301N004619999999N0120001N9+02221+01281101191ADDAY111999GF106991021011008001031061MW1031
0056065900999991955060618004+49617+006200FM-12+038099999V0201301N004119999999N0180001N9+02281+01391100821ADDAY121999GF106991011011012501001061KA1999M+02391MW1011
0043065900999991955060700004+49617+006200FM-12+038099999V0201201N003119999999N0120001N9+01721+01391100671ADDAY121999GF105991011001999999031061MW1021
0056065900999991955060706004+49617+006200FM-12+038099999V0201801N002119999999N0050001N9+01721+01611100561ADDAY191999GF105991021051012501031021KA1999N+01611MW1051
0043065900999991955060712004+49617+006200FM-12+038099999V0202501N00621002401CN0040001N9+01501+01391100521ADDAY191999GF107991071031002501999999MW1801
0056065900999991955060718004+49617+006200FM-12+038099999V0202701N00571002401CN0140001N9+01501+01221100441ADDAY181999GF108991061081002501021999KA1999M+02111MW1021
0043065900999991955060800004+49617+006200FM-12+038099999V0202901N00461004501CN0080001N9+01221+01111100651ADDAY181999GF108991071081004501999999MW1251
0056065900999991955060806004+49617+006200FM-12+038099999V0202501N00511220001CN0060001N9+01111+00891100651ADDAY111999GF103991021051012501001061KA1999N+01001MW1051
0043065900999991955060812004+49617+006200FM-12+038099999V0202401N00771004501CN0200001N9+01501+00721100591ADDAY111999GF107991071081004501999999MW1021
0056065900999991955060818004+49617+006200FM-12+038099999V0202201N00411007801CN0250001N9+01391+00781100541ADDAY181999GF107991071081008001031999KA1999M+01501MW1021
0043065900999991955060900004+49617+006200FM-12+038099999V0201801N00101007801CN0120001N9+01001+00891100621ADDAY181999GF106991061081008001001001MW1011
0056065900999991955060906004+49617+006200FM-12+038099999V0201201N001019999999N0040001N9+01111+01001100471ADDAY121999GF107991021051012501001061KA1999N+00891MW1051
0043065900999991955060912004+49617+006200FM-12+038099999V0200901N003119999999N0030001N9+01281+01111100201ADDAY161999GF108991031051008001021999MW1611
0056065900999991955060918004+49617+006200FM-12+038099999V0200701N00571000601CN0030001N9+01111+01111099961ADDAY161999GF108991071071000751999999KA1999M+01391MW1631
0043065900999991955061000004+49617+006200FM-12+038099999V0200501N00151001501CN0050001N9+01111+01111099901ADDAY161999GF108991081071001501999999MW1611
0056065900999991955061006004+49617+006200FM-12+038099999V0203301N00411004501CN0060001N9+00721+00721100551ADDAY161999GF108991071071004501999999KA1999N+00721MW1611
0043065900999991955061012004+49617+006200FM-12+038099999V0203101N00311001501CN0030001N9+00611+00611101381ADDAY161999GF108991071071001501999999MW1611
