0062065900999991952010100004+49617+006200FM-12+038099999V0202301N007219999999N0200001N9+00611+00391100631ADDAY171999GF105991999051008001001001MW1021EQDQ01+000042SCOTLC
0075065900999991952010106004+49617+006200FM-12+038099999V0202701N011319999999N0120001N9+00391+00111100461ADDAY161999GF105991999051004501001001KA1999N+00001MW1211EQDQ01+000042SCOTLC
0043065900999991952010112004+49617+006200FM-12+038099999V0202701N00981220001CN0200001N9+00281-00501101151ADDAY181999GF102991021021008001001001MW1011
0056065900999991952010118004+49617+006200FM-12+038099999V0202601N008219999999N0200001N9+00221-00221101511ADDAY111999GF106991041081008001999999KA1999M+00501MW1021
0043065900999991952010200004+49617+006200FM-12+038099999V0202701N00721007801CN0160001N9+00001-00111101611ADDAY121999GF108991081051008001999999MW1021
0056065900999991952010206004+49617+006200FM-12+038099999V0202001N01031000601CN0010001N9+00001+00001100901ADDAY171999GF108991081071000751999999KA1999N+00001MW1731
0043065900999991952010212004+49617+006200FM-12+038099999V0202301N01181001501CN0070001N9+00501+00391100671ADDAY171999GF108991081071001501999999MW1611
0056065900999991952010218004+49617+006200FM-12+038099999V0202301N01491004501CN0100001N9+00501+00391100201ADDAY161999GF108991081051004501999999KA1999M+00611MW1611
0043065900999991952010300004+49617+006200FM-12+038099999V0202301N010819999999N0200001N9+00221+00221100111ADDAY171999GF108991031071001501999999MW1601
0056065900999991952010306004+49617+006200FM-12+038099999V0202301N01031004501CN0200001N9+00221+00001100291ADDAY121999GF108991061051004501999999KA1999N+00111MW1021
0043065900999991952010312004+49617+006200FM-12+038099999V0202301N00821004501CN0160001N9+00221+00001100511ADDAY181999GF108991071051004501999999MW1021
0056065900999991952010318004+49617+006200FM-12+038099999V0202701N00571004501CN0120001N9+00111-00111100981ADDAY181999GF108991071081004501999999KA1999M+00221MW1021
0043065900999991952010400004+49617+006200FM-12+038099999V0202501N00571001501CN0050001N9+00001-00111101551ADDAY121999GF108991081061001501999999MW1051
0056065900999991952010406004+49617+006200FM-12+038099999V0202501N00361002401CN0060001N9+00001-00111101801ADDAY181999GF108991071071002501999999KA1999N-00111MW1221
0043065900999991952010412004+49617+006200FM-12+038099999V0202601N00721000601CN0014001N9+00001-00111102181ADDAY181999GF108991081031000751999999MW1261
0056065900999991952010418004+49617+006200FM-12+038099999V0202501N00571002401CN0060001N9+00001-00111102421ADDAY121999GF108991071061002501999999KA1999M+00111MW1051
0043065900999991952010500004+49617+006200FM-12+038099999V0202501N00621002401CN0060001N9+00111+00001102181ADDAY121999GF108991081061002501999999MW1051
0056065900999991952010506004+49617+006200FM-12+038099999V0202001N00461001501CN0030001N9+00001+00001101761ADDAY171999GF108991081071001501999999KA1999N-00111MW1711
0043065900999991952010512004+49617+006200FM-12+038099999V0202001N00211000151CN0001001N9+00111+00111102071ADDAY171999GF109991091999000251999999MW1451
0056065900999991952010518004+49617+006200FM-12+038099999V0202701N00211000601CN0018001N9+00221+00221102491ADDAY141999GF108991081061000751999999KA1999M+00281MW1101
0043065900999991952010600004+49617+006200FM-12+038099999V0209991C00001012301CN0030001N9+00221+00221103011ADDAY151999GF107991071051012501999999MW1051
0056065900999991952010606004+49617+006200FM-12+038099999V0203601N00051002401CN0030001N9+00221+00111103471ADDAY121999GF108991081061002501999999KA1999N+00221MW1051
0043065900999991952010612004+49617+006200FM-12+038099999V0201301N00151004501CN0070001N9+00281+00221103721ADDAY121999GF108991061051004501999999MW1051
0056065900999991952010618004+49617+006200FM-12+038099999V0201601N00151002401CN0060001N9+00221+00111103951ADDAY121999GF108991081061002501999999KA1999M+00391MW1051
0043065900999991952010700004+49617+006200FM-12+038099999V0209991C00001002401CN0060001N9+00221+00111104091ADDAY121999GF108991081061002501999999MW1051
0056065900999991952010706004+49617+006200FM-12+038099999V0209991C00001002401CN0050001N9+00001+00001104111ADDAY121999GF108991081061002501999999KA1999N-00111MW1051
0043065900999991952010712004+49617+006200FM-12+038099999V0202101N00101000151CN0000001N9-00111-00111104101ADDAY141999GF109991091999000251999999MW1451
0056065900999991952010718004+49617+006200FM-12+038099999V0202201N00151000151CN0000001N9-00111-00111104091ADDAY141999GF109991091999000251999999KA1999M+00111MW1451
0043065900999991952010800004+49617+006200FM-12+038099999V0202001N00211000151CN0000001N9-00111-00111104061ADDAY141999GF109991091999000251999999MW1451
0056065900999991952010806004+49617+006200FM-12+038099999V0202001N00051000151CN0000001N9+00001+00001103781ADDAY141999GF109991091999000251999999KA1999N-00111MW1451
0043065900999991952010812004+49617+006200FM-12+038099999V0201801N00101000151CN0000001N9-00111-00111103411ADDAY141999GF109991091999000251999999MW1451
0056065900999991952010818004+49617+006200FM-12+038099999V0201101N00151000151CN0000001N9-00221-00221102871ADDAY141999GF109991091999000251999999KA1999M-00111MW1491
0043065900999991952010900004+49617+006200FM-12+038099999V0201901N00461000601CN0002001N9-00111-00221102341ADDAY141999GF108991081061000751999999MW1481
0056065900999991952010906004+49617+006200FM-12+038099999V0201801N00511000151CN0002001N9+00221+00221101781ADDAY151999GF109991091999000251999999KA1999N-00221MW1511
0043065900999991952010912004+49617+006200FM-12+038099999V0202501N00571004501CN0160001N9+00391+00281101461ADDAY161999GF108991081051004501999999MW1601
0056065900999991952010918004+49617+006200FM-12+038099999V0202201N011819999999N0120001N9+00221+00111101651ADDAY181999GF108991031081002501999999KA1999M+00501MW1801
0043065900999991952011000004+49617+006200FM-12+038099999V0202301N00981004501CN0160001N9+00221+00001101551ADDAY181999GF108991081051004501999999MW1021
0056065900999991952011006004+49617+006200FM-12+038099999V0202501N00571000601CN0040001N9+00001+00001101191ADDAY181999GF108991081071000751999999KA1999N+00001MW1711
0043065900999991952011012004+49617+006200FM-12+038099999V0202301N00931001501CN0030001N9+00221+00111100641ADDAY171999GF108991071071001501999999MW1681
0056065900999991952011018004+49617+006200FM-12+038099999V0202301N01081001501CN0060001N9+00221+00111099701ADDAY161999GF108991061071001501999999KA1999M+00281MW1691
0043065900999991952011100004+49617+006200FM-12+038099999V0202501N01291002401CN0070001N9+00781+00781098981ADDAY161999GF108991071071002501999999MW1511
0056065900999991952011106004+49617+006200FM-12+038099999V0202501N01131002401CN0080001N9+00781+00721098791ADDAY181999GF108991061071002501999999KA1999N+00111MW1581
0043065900999991952011112004+49617+006200FM-12+038099999V0202501N01131002401CN0080001N9+00781+00611098751ADDAY181999GF108991061031002501999999MW1811
0056065900999991952011118004+49617+006200FM-12+038099999V0202701N00461004501CN0120001N9+00221+00001099041ADDAY181999GF107991051051004501071999KA1999M+00781MW1021
0043065900999991952011200004+49617+006200FM-12+038099999V0202901N00621220001CN0120001N9+00001-00111099351ADDAY121999GF100991001001999999001001MW1011
0056065900999991952011206004+49617+006200FM-12+038099999V0202501N00671002401CN0040001N9+00001-00111099431ADDAY181999GF108991071081002501999999KA1999N+00001MW1861
0043065900999991952011212004+49617+006200FM-12+038099999V0202501N00771001501CN0080001N9+00001-00111099651ADDAY181999GF108991061031001501999999MW1851
0056065900999991952011218004+49617+006200FM-12+038099999V0203101N00461004501CN0100001N9+00221-00111100181ADDAY181999GF107991051081004501999999KA1999M+00221MW1021
0043065900999991952011300004+49617+006200FM-12+038099999V0203201N00311220001CN0120001N9+00001-00111100981ADDAY121999GF101991011051012501001001MW1021
0056065900999991952011306004+49617+006200FM-12+038099999V0202901N00411220001CN0080001N9-00111-00281101611ADDAY101999GF100991001001999999001001KA1999N-00221MW1051
0043065900999991952011312004+49617+006200FM-12+038099999V0203201N00461220001CN0160001N9+00221-00281102161ADDAY111999GF103991031081012501001001MW1021
0056065900999991952011318004+49617+006200FM-12+038099999V0209991C00001220001CN0120001N9+00001-00281102391ADDAY111999GF101991011051012501001001KA1999M+00281MW1021
0043065900999991952011400004+49617+006200FM-12+038099999V0202201N00511001501CN0070001N9+00001-00111102191ADDAY141999GF108991081061001501999999MW1051
0056065900999991952011406004+49617+006200FM-12+038099999V0202201N00821001501CN0030001N9+00001-00111101941ADDAY171999GF108991081071001501999999KA1999N-00221MW1721
0043065900999991952011412004+49617+006200FM-12+038099999V0202301N00461000151CN0000001N9+00111+00111102301ADDAY141999GF109991091999000251999999MW1471
0056065900999991952011418004+49617+006200FM-12+038099999V0202301N00361000151CN0002001N9+00221+00221102581ADDAY141999GF109991091999000251999999KA1999M+00221MW1451
0043065900999991952011500004+49617+006200FM-12+038099999V0202301N00361000151CN0002001N9+00281+00281102621ADDAY141999GF109991091999000251999999MW1451
0056065900999991952011506004+49617+006200FM-12+038099999V0202301N00721002401CN0140001N9+00281+00221102511ADDAY151999GF108991081061002501999999KA1999N+00111MW1021
0043065900999991952011512004+49617+006200FM-12+038099999V0202301N00671004501CN0080001N9+00391+00281102341ADDAY151999GF108991071051004501999999MW1501
0056065900999991952011518004+49617+006200FM-12+038099999V0202301N00771001501CN0060001N9+00611+00501102121ADDAY161999GF108991071071001501999999KA1999M+00611MW1211
0043065900999991952011600004+49617+006200FM-12+038099999V0202501N00671004501CN0070001N9+00721+00611102071ADDAY161999GF107991061051004501999999MW1051
0056065900999991952011606004+49617+006200FM-12+038099999V0202301N00261007801CN0080001N9+00281+00221101991ADDAY121999GF107991061051008001999999KA1999N+00281MW1051
0043065900999991952011612004+49617+006200FM-12+038099999V0202501N008719999999N0160001N9+00501+00221101651ADDAY181999GF107991031081004501999999MW1251
0056065900999991952011618004+49617+006200FM-12+038099999V0202301N00261007801CN0140001N9+00281+00001101791ADDAY181999GF107991071051008001999999KA1999M+00611MW1021
0043065900999991952011700004+49617+006200FM-12+038099999V0202001N00101007801CN0030001N9+00001-00111101501ADDAY181999GF106991061051008001999999MW1051
0056065900999991952011706004+49617+006200FM-12+038099999V0201801N00511001501CN0060001N9+00221+00111100781ADDAY181999GF108991071071001501999999KA1999N+00001MW1051
0043065900999991952011712004+49617+006200FM-12+038099999V0202001N01081002401CN0060001N9+00281+00221099791ADDAY161999GF108991071071002501999999MW1611
0056065900999991952011718004+49617+006200FM-12+038099999V0202301N00771004501CN0120001N9+00001-00111099721ADDAY171999GF108991071051004501999999KA1999M+00391MW1021
0043065900999991952011800004+49617+006200FM-12+038099999V0202501N00871004501CN0160001N9+00001-00111099841ADDAY181999GF107991061081004501999999MW1021
0056065900999991952011806004+49617+006200FM-12+038099999V0202401N00771001501CN0120001N9-00111-00221099831ADDAY181999GF108991081071001501999999KA1999N-00111MW1711
0043065900999991952011812004+49617+006200FM-12+038099999V0202501N00871000601CN0012001N9-00111-00111099791ADDAY181999GF108991081071000751999999MW1861
0056065900999991952011818004+49617+006200FM-12+038099999V0203201N00821004501CN0080001N9+00001-00111100091ADDAY181999GF108991061051004501999999KA1999M+00111MW1261
0043065900999991952011900004+49617+006200FM-12+038099999V0203201N01031007801CN0200001N9+00001-00281100591ADDAY121999GF107991061051008001999999MW1021
0075065900999991952011906004+49617+006200FM-12+038099999V0203201N00571220001CN0120001N9-00111-00391100981ADDAY171999GF103991999051008001001001KA1999N-00111MW1021EQDQ01+000022SCOTLC
0043065900999991952011912004+49617+006200FM-12+038099999V0202901N00621004501CN0030001N9+00001-00111101211ADDAY181999GF106991061031004501999999MW1861
0056065900999991952011918004+49617+006200FM-12+038099999V0203401N00511004501CN0080001N9+00001-00221101381ADDAY181999GF105991051031004501001001KA1999M+00111MW1051
0043065900999991952012000004+49617+006200FM-12+038099999V0203401N00211220001CN0100001N9-00221-00391101631ADDAY111999GF102991021051012501001001MW1021
0056065900999991952012006004+49617+006200FM-12+038099999V0202901N001519999999N0120001N9-00281-00391101621ADDAY181999GF108991041081004501999999KA1999N-00281MW1851
0043065900999991952012012004+49617+006200FM-12+038099999V0202501N00361001501CN0010001N9-00111-00221101441ADDAY181999GF108991081071001501999999MW1771
0043065900999991952012018004+49617+006200FM-12+038099999V0200501N000519999999N0050001N9-00221-00221101491ADDAY171999GF106991031081004501031001MW1051
0043065900999991952012100004+49617+006200FM-12+038099999V0200501N00411007801CN0080001N9-00221-00281101751ADDAY141999GF108991071051008001999999MW1051
0056065900999991952012106004+49617+006200FM-12+038099999V0203201N00151002401CN0030001N9-00221-00391101841ADDAY171999GF108991071071002501999999KA1999N-00281MW1711
0043065900999991952012112004+49617+006200FM-12+038099999V0200201N00211004501CN0080001N9+00001-00221102091ADDAY171999GF108991051051004501021999MW1051
0056065900999991952012118004+49617+006200FM-12+038099999V0200201N00511004501CN0080001N9+00001-00111102311ADDAY171999GF108991071051004501999999KA1999M+00111MW1051
0043065900999991952012200004+49617+006200FM-12+038099999V0200401N00511002401CN0100001N9+00001-00111102431ADDAY121999GF108991081061002501999999MW1021
0056065900999991952012206004+49617+006200FM-12+038099999V0200601N00311001501CN0080001N9+00001-00111102471ADDAY121999GF108991071061001501999999KA1999N+00001MW1051
0043065900999991952012212004+49617+006200FM-12+038099999V0200501N00261004501CN0120001N9+00001-00111102511ADDAY121999GF108991071051004501999999MW1021
0056065900999991952012218004+49617+006200FM-12+038099999V0200701N00311004501CN0030001N9+00001-00111102331ADDAY121999GF108991081051004501999999KA1999M+00111MW1051
0043065900999991952012300004+49617+006200FM-12+038099999V0200701N00361004501CN0040001N9-00111-00221102191ADDAY121999GF108991081051004501999999MW1051
0056065900999991952012306004+49617+006200FM-12+038099999V0209991C00001004501CN0040001N9-00111-00221101971ADDAY121999GF108991081051004501999999KA1999N-00111MW1051
0043065900999991952012312004+49617+006200FM-12+038099999V0201101N00151004501CN0030001N9-00111-00281101721ADDAY121999GF108991071051004501999999MW1051
0056065900999991952012318004+49617+006200FM-12+038099999V0201401N00051004501CN0030001N9-00111-00391101431ADDAY121999GF108991081051004501999999KA1999M+00001MW1051
0043065900999991952012400004+49617+006200FM-12+038099999V0200701N00051220001CN0050001N9-00391-00611101181ADDAY121999GF100991001001999999001001MW1051
0056065900999991952012406004+49617+006200FM-12+038099999V0200501N00511220001CN0050001N9-00611-00721100821ADDAY101999GF100991001001999999001001KA1999N-00611MW1051
0043065900999991952012412004+49617+006200FM-12+038099999V0200501N00361002401CN0060001N9-00391-00611100561ADDAY121999GF108991071061002501999999MW1051
0056065900999991952012418004+49617+006200FM-12+038099999V0200501N00211002401CN0050001N9-00391-00611100261ADDAY121999GF108991081061002501999999KA1999M-00281MW1051
0043065900999991952012500004+49617+006200FM-12+038099999V0200501N00511001501CN0030001N9-00611-00721100091ADDAY121999GF108991081061001501999999MW1051
0056065900999991952012506004+49617+006200FM-12+038099999V0200501N00411001501CN0050001N9-00611-00781099941ADDAY121999GF108991081061001501999999KA1999N-00721MW1051
0043065900999991952012512004+49617+006200FM-12+038099999V0203601N00151001501CN0040001N9-00721-00781100051ADDAY121999GF108991081061001501999999MW1051
0056065900999991952012518004+49617+006200FM-12+038099999V0202301N00151004501CN0034001N9-00501-00781100101ADDAY121999GF108991081061004501999999KA1999M-00501MW1051
0043065900999991952012600004+49617+006200FM-12+038099999V0202501N00311004501CN0030001N9-00501-00721100231ADDAY121999GF108991081061004501999999MW1051
0056065900999991952012606004+49617+006200FM-12+038099999V0202301N00411001501CN0024001N9-00391-00611100301ADDAY121999GF108991081061001501999999KA1999N-00501MW1051
0043065900999991952012612004+49617+006200FM-12+038099999V0202001N00461002401CN0030001N9-00281-00501100331ADDAY121999GF108991081061002501999999MW1051
0056065900999991952012618004+49617+006200FM-12+038099999V0202001N00211007801CN0070001N9-00391-00721100141ADDAY171999GF108991081051008001999999KA1999M-00281MW1051
0043065900999991952012700004+49617+006200FM-12+038099999V0201101N00211004501CN0060001N9-00391-00501099841ADDAY171999GF108991081061004501999999MW1701
0056065900999991952012706004+49617+006200FM-12+038099999V0202001N00361002401CN0020001N9-00281-00281099711ADDAY171999GF108991081061002501999999KA1999N-00391MW1281
0043065900999991952012712004+49617+006200FM-12+038099999V0202701N00511004501CN0030001N9-00281-00391099941ADDAY181999GF107991061081004501999999MW1261
0056065900999991952012718004+49617+006200FM-12+038099999V0202301N00361001501CN0024001N9-00281-00391100381ADDAY181999GF108991081061001501999999KA1999M-00221MW1051
0043065900999991952012800004+49617+006200FM-12+038099999V0202701N00461000151CN0012001N9-00501-00611100981ADDAY181999GF108991081061000251999999MW1101
0056065900999991952012806004+49617+006200FM-12+038099999V0202301N00361002401CN0034001N9-00611-00721101251ADDAY171999GF108991081071002501999999KA1999N-00721MW1711
0043065900999991952012812004+49617+006200FM-12+038099999V0202301N00411002401CN0030001N9-00501-00611101441ADDAY171999GF108991081061002501999999MW1051
0056065900999991952012818004+49617+006200FM-12+038099999V0202001N00461220001CN0100001N9-00391-00611101431ADDAY121999GF102991021051017501001001KA1999M-00281MW1021
0043065900999991952012900004+49617+006200FM-12+038099999V0201801N00621004501CN0030001N9-00501-00781101311ADDAY171999GF108991051051004501021999MW1701
0056065900999991952012906004+49617+006200FM-12+038099999V0202001N00411002401CN0030001N9-00391-00611101211ADDAY171999GF108991081071002501999999KA1999N-00611MW1701
0043065900999991952012912004+49617+006200FM-12+038099999V0201801N00211000151CN0000001N9-00221-00221101491ADDAY141999GF109991091999000251999999MW1451
0056065900999991952012918004+49617+006200FM-12+038099999V0201801N00151000151CN0000001N9-00111-00111101541ADDAY141999GF109991091999000251999999KA1999M+00001MW1451
0043065900999991952013000004+49617+006200FM-12+038099999V0201801N00311000151CN0001001N9-00111-00111101581ADDAY171999GF109991091999000251999999MW1471
0056065900999991952013006004+49617+006200FM-12+038099999V0209991C00001001501CN0060001N9-00111-00111101621ADDAY151999GF108991061071001501999999KA1999N-00111MW1201
0043065900999991952013012004+49617+006200FM-12+038099999V0202001N00211004501CN0040001N9-00111-00111101791ADDAY151999GF108991081051004501999999MW1051
0056065900999991952013018004+49617+006200FM-12+038099999V0201801N00261002401CN0024001N9-00111-00221101691ADDAY121999GF108991081061002501999999KA1999M+00001MW1051
0043065900999991952013100004+49617+006200FM-12+038099999V0201801N00671002401CN0060001N9-00221-00281101251ADDAY121999GF108991081061002501999999MW1051
0056065900999991952013106004+49617+006200FM-12+038099999V0201801N00621001501CN0050001N9-00111-00221100261ADDAY171999GF108991081071001501999999KA1999N-00281MW1221
0043065900999991952013112004+49617+006200FM-12+038099999V0201801N00871000151CN0002001N9+00001+00001099101ADDAY171999GF108991081071000251999999MW1731
0056065900999991952013118004+49617+006200FM-12+038099999V0202301N00721001501CN0120001N9+00111+00111098821ADDAY171999GF108991081071001501999999KA1999M+00111MW1211
0043065900999991952020100004+49617+006200FM-12+038099999V0202701N00571220001CN0120001N9-00111-00221099391ADDAY181999GF104991041051008001001001MW1011
0056065900999991952020106004+49617+006200FM-12+038099999V0202701N00621002401CN0070001N9-00221-00281099661ADDAY181999GF108991061081002501999999KA1999N-00221MW1881
0043065900999991952020112004+49617+006200FM-12+038099999V0202301N00821001501CN0020001N9+00001-00111099131ADDAY171999GF108991081071001501999999MW1711
0075065900999991952020118004+49617+006200FM-12+038099999V0202001N00671001501CN0040001N9+00001+00001999999ADDAY171999GF108991081071001501999999KA1999M+00001MW1711EQDQ01+098333APOSLP
0043065900999991952020200004+49617+006200FM-12+038099999V0202901N00621002401CN0030001N9+00001-00111099621ADDAY171999GF108991071071002501999999MW1701
0056065900999991952020206004+49617+006200FM-12+038099999V0202701N00571007801CN0080001N9-00111-00221100181ADDAY171999GF108991071051008001999999KA1999N-00111MW1051
0043065900999991952020212004+49617+006200FM-12+038099999V0202301N00571004501CN0070001N9+00001-00111100421ADDAY121999GF108991071081004501999999MW1051
0056065900999991952020218004+49617+006200FM-12+038099999V0202301N00511004501CN0140001N9+00001-00111100381ADDAY181999GF107991071081004501999999KA1999M+00111MW1261
0043065900999991952020300004+49617+006200FM-12+038099999V0202301N00101000151CN0002001N9+00001+00001100201ADDAY171999GF109991091999000251999999MW1471
0056065900999991952020306004+49617+006200FM-12+038099999V0209991C00001000151CN0001001N9+00001+00001100121ADDAY141999GF109991091999000251999999KA1999N-00111MW1451
0043065900999991952020312004+49617+006200FM-12+038099999V0202501N00261002401CN0060001N9+00001+00001100271ADDAY141999GF107991061061002501999999MW1281
0056065900999991952020318004+49617+006200FM-12+038099999V0202701N00571002401CN0100001N9+00001+00001100411ADDAY181999GF108991071051002501999999KA1999M+00111MW1021
0043065900999991952020400004+49617+006200FM-12+038099999V0209991C00001002401CN0020001N9+00001+00001100641ADDAY171999GF108991071071002501999999MW1721
0056065900999991952020406004+49617+006200FM-12+038099999V0202901N00311004501CN0060001N9-00111-00221101071ADDAY141999GF107991071051004501999999KA1999N-00221MW1051
0043065900999991952020412004+49617+006200FM-12+038099999V0203201N00411004501CN0030001N9+00001-00111101651ADDAY181999GF106991061081004501999999MW1261
0056065900999991952020418004+49617+006200FM-12+038099999V0203201N00411007801CN0060001N9+00111-00111102071ADDAY121999GF106991061051008001999999KA1999M+00221MW1051
0043065900999991952020500004+49617+006200FM-12+038099999V0203401N00411007801CN0070001N9+00001-00111102631ADDAY181999GF107991051081008001999999MW1261
0056065900999991952020506004+49617+006200FM-12+038099999V0203201N004619999999N0080001N9+00001-00221102991ADDAY181999GF107991041081008001999999KA1999N-00111MW1851
0043065900999991952020512004+49617+006200FM-12+038099999V0203401N00671220001CN0200001N9+00111-00391103431ADDAY121999GF103991031081008001001001MW1021
0056065900999991952020518004+49617+006200FM-12+038099999V0203401N00461220001CN0200001N9+00001-00501103651ADDAY181999GF101991011051008001001001KA1999M+00221MW1011
0043065900999991952020600004+49617+006200FM-12+038099999V0203201N00311012301CN0090001N9-00221-00391103901ADDAY111999GF105991051051012501001001MW1051
0056065900999991952020606004+49617+006200FM-12+038099999V0203201N00311007801CN0080001N9-00111-00221103771ADDAY121999GF108991081051008001999999KA1999N-00281MW1051
0043065900999991952020612004+49617+006200FM-12+038099999V0202701N00511001501CN0030001N9+00001-00111103691ADDAY141999GF108991081061001501999999MW1051
0056065900999991952020618004+49617+006200FM-12+038099999V0202701N00771002401CN0030001N9+00001-00111103351ADDAY171999GF108991081071002501999999KA1999M+00001MW1051
0043065900999991952020700004+49617+006200FM-12+038099999V0202501N00411000151CN0002001N9+00001+00001103011ADDAY171999GF109991091999000251999999MW1561
0056065900999991952020706004+49617+006200FM-12+038099999V0202501N00311000151CN0002001N9+00001+00001102661ADDAY161999GF109991091999000251999999KA1999N+00001MW1611
0043065900999991952020712004+49617+006200FM-12+038099999V0202501N00571000151CN0000001N9+00111+00111102351ADDAY161999GF109991091999000251999999MW1451
0056065900999991952020718004+49617+006200FM-12+038099999V0202501N00411000151CN0000001N9+00221+00221101841ADDAY141999GF109991091999000251999999KA1999M+00221MW1451
0043065900999991952020800004+49617+006200FM-12+038099999V0202301N00461000151CN0000001N9+00221+00221101181ADDAY141999GF109991091999000251999999MW1451
0056065900999991952020806004+49617+006200FM-12+038099999V0202701N00621002401CN0050001N9+00111+00001100691ADDAY161999GF108991081071002501999999KA1999N+00111MW1601
0043065900999991952020812004+49617+006200FM-12+038099999V0203201N00721220001CN0200001N9+00111-00281100741ADDAY181999GF104991041081008001001001MW1011
0056065900999991952020818004+49617+006200FM-12+038099999V0203201N00821004501CN0060001N9+00111-00111100831ADDAY181999GF107991071031004501999999KA1999M+00221MW1261
0043065900999991952020900004+49617+006200FM-12+038099999V0203201N00461007801CN0120001N9-00111-00221101151ADDAY181999GF105991051051008001001001MW1261
0056065900999991952020906004+49617+006200FM-12+038099999V0202901N00571007801CN0080001N9-00111-00221101111ADDAY181999GF107991061051008001999999KA1999N-00111MW1051
0043065900999991952020912004+49617+006200FM-12+038099999V0202901N00771004501CN0160001N9-00111-00391101211ADDAY181999GF107991051031004501999999MW1261
0056065900999991952020918004+49617+006200FM-12+038099999V0202701N00621220001CN0160001N9-00111-00501101401ADDAY181999GF104991041081008001001001KA1999M+00001MW1011
0043065900999991952021000004+49617+006200FM-12+038099999V0202701N00511004501CN0012001N9-00221-00281101511ADDAY181999GF108991081031004501999999MW1861
0056065900999991952021006004+49617+006200FM-12+038099999V0202701N00621002401CN0060001N9-00281-00611101591ADDAY181999GF108991081071002501999999KA1999N-00281MW1051
0043065900999991952021012004+49617+006200FM-12+038099999V0202701N00621007801CN0060001N9-00221-00501101511ADDAY121999GF105991051081008001001001MW1051
0056065900999991952021018004+49617+006200FM-12+038099999V0202501N00621000601CN0010001N9-00111-00221101141ADDAY171999GF108991081071000751999999KA1999M-00111MW1711
0043065900999991952021100004+49617+006200FM-12+038099999V0202501N00931001501CN0060001N9+00111+00111100641ADDAY171999GF108991071071001501999999MW1611
0056065900999991952021106004+49617+006200FM-12+038099999V0202501N01031001501CN0070001N9+00221+00111100221ADDAY161999GF108991071071001501999999KA1999N+00221MW1611
0043065900999991952021112004+49617+006200FM-12+038099999V0202501N00931001501CN0100001N9+00111+00001100111ADDAY171999GF108991081071001501999999MW1681
0056065900999991952021118004+49617+006200FM-12+038099999V0202501N00511000601CN0010001N9+00001+00001099911ADDAY171999GF108991081071000751999999KA1999M+00221MW1731
0043065900999991952021200004+49617+006200FM-12+038099999V0203401N00261000601CN0008001N9-00221-00221099891ADDAY171999GF108991081071000751999999MW1731
0056065900999991952021206004+49617+006200FM-12+038099999V0200201N00361001501CN0040001N9-00221-00391100451ADDAY171999GF108991081071001501999999KA1999N-00281MW1711
0043065900999991952021212004+49617+006200FM-12+038099999V0200201N00051220001CN0080001N9-00111-00611100771ADDAY171999GF103991031051012501001001MW1051
0075065900999991952021218004+49617+006200FM-12+038099999V0209991C000019999999N0120001N9-00281-00501101041ADDAY111999GF105991999081008001001001KA1999M+00111MW1031EQDQ01+000042SCOTLC
0043065900999991952021300004+49617+006200FM-12+038099999V0209991C00001012301CN0040001N9-00501-00501101171ADDAY121999GF105991051051012501001001MW1051
0056065900999991952021306004+49617+006200FM-12+038099999V0200901N00151001501CN0030001N9-00501-00611101211ADDAY121999GF108991081061001501999999KA1999N-00611MW1051
0043065900999991952021312004+49617+006200FM-12+038099999V0202501N00101002401CN0026001N9-00221-00391101311ADDAY171999GF107991071071002501999999MW1711
0056065900999991952021318004+49617+006200FM-12+038099999V0209991C00001015001CN0030001N9-00281-00391101321ADDAY171999GF106991061051017501001001KA1999M+00111MW1051
0043065900999991952021400004+49617+006200FM-12+038099999V0202301N00051007801CN0030001N9-00501-00611101351ADDAY111999GF105991051051008001001001MW1051
0056065900999991952021406004+49617+006200FM-12+038099999V0201801N00461000601CN0012001N9-00501-00611101131ADDAY141999GF108991081061000751999999KA1999N-00721MW1101
0043065900999991952021412004+49617+006200FM-12+038099999V0201801N00461000601CN0008001N9-00281-00391100961ADDAY171999GF108991081071000751999999MW1731
0056065900999991952021418004+49617+006200FM-12+038099999V0201801N004619999999N0060001N9-00281-00501100771ADDAY171999GF107991021051008001071999KA1999M-00221MW1051
0043065900999991952021500004+49617+006200FM-12+038099999V0200901N00461220001CN0060001N9-00501-00721100811ADDAY121999GF108991001001999999001071MW1051
0056065900999991952021506004+49617+006200FM-12+038099999V0200501N00621220001CN0060001N9-00781-01001100981ADDAY121999GF106991001001999999001061KA1999N-00781MW1051
0043065900999991952021512004+49617+006200FM-12+038099999V0200501N00671220001CN0080001N9-00501-00781101361ADDAY111999GF102991001001999999001061MW1051
0056065900999991952021518004+49617+006200FM-12+038099999V0200501N00571220001CN0070001N9-00391-01001101791ADDAY101999GF100991001001999999001001KA1999M-00221MW1051
0043065900999991952021600004+49617+006200FM-12+038099999V0200501N00931220001CN0060001N9-00611-01111102101ADDAY101999GF100991001001999999001001MW1051
0056065900999991952021606004+49617+006200FM-12+038099999V0200501N00621220001CN0060001N9-00721-01221102371ADDAY101999GF100991001001999999001001KA1999N-00891MW1051
0043065900999991952021612004+49617+006200FM-12+038099999V0200201N00511220001CN0080001N9-00281-00891102491ADDAY101999GF102991001001999999001051MW1051
0056065900999991952021618004+49617+006200FM-12+038099999V0203601N00051220001CN0080001N9-00221-00891102511ADDAY101999GF102991001001999999001061KA1999M+00001MW1051
0043065900999991952021700004+49617+006200FM-12+038099999V0209991C00001220001CN0060001N9-00391-00781102611ADDAY121999GF108991001001999999001071MW1051
0056065900999991952021706004+49617+006200FM-12+038099999V0209991C00001220001CN0040001N9-00391-00781102501ADDAY121999GF108991001001999999021999KA1999N-00501MW1051
0043065900999991952021712004+49617+006200FM-12+038099999V0202701N00151002401CN0008001N9-00281-00281102331ADDAY171999GF108991081071002501999999MW1771
0075065900999991952021718004+49617+006200FM-12+038099999V0209991C00001000151CN9999999N9-00221-00221102021ADDAY141999GF109991091999000251999999KA1999M-00111MW1451EQDQ01+150002VODIS 
0043065900999991952021800004+49617+006200FM-12+038099999V0209991C00001000151CN0002001N9-00221-00221101991ADDAY171999GF109991091999000251999999MW1471
0056065900999991952021806004+49617+006200FM-12+038099999V0200501N00051000151CN0008001N9-00221-00221101991ADDAY141999GF109991091999000251999999KA1999N-00221MW1431
0043065900999991952021812004+49617+006200FM-12+038099999V0200301N00211000151CN0014001N9-00111-00111102111ADDAY141999GF108991081071000251999999MW1281
0056065900999991952021818004+49617+006200FM-12+038099999V0200201N00311007801CN0050001N9+00001-00281102291ADDAY121999GF107991071051008001001061KA1999M+00111MW1051
0043065900999991952021900004+49617+006200FM-12+038099999V0209991C00001012301CN0060001N9-00221-00281102421ADDAY121999GF108991081051012501999999MW1051
0056065900999991952021906004+49617+006200FM-12+038099999V0209991C00001007801CN0040001N9-00221-00281102451ADDAY121999GF108991081051008001999999KA1999N-00281MW1051
0043065900999991952021912004+49617+006200FM-12+038099999V0202901N00311220001CN0160001N9+00111-00391102461ADDAY141999GF104991011051008001031001MW1021
0056065900999991952021918004+49617+006200FM-12+038099999V0202701N00261004501CN0030001N9+00001+00001102471ADDAY171999GF108991081061004501999999KA1999M+00221MW1221
0043065900999991952022000004+49617+006200FM-12+038099999V0202501N00101002401CN0040001N9+00111+00001102491ADDAY151999GF108991081071002501999999MW1501
0056065900999991952022006004+49617+006200FM-12+038099999V0202901N00051001501CN0080001N9+00111+00001102611ADDAY151999GF108991071071001501999999KA1999N+00001MW1511
0043065900999991952022012004+49617+006200FM-12+038099999V0202901N00151004501CN0160001N9+00281+00001102821ADDAY151999GF107991071051004501999999MW1021
0056065900999991952022018004+49617+006200FM-12+038099999V0202901N00101007801CN0080001N9+00281+00111102871ADDAY121999GF106991061051008001999999KA1999M+00281MW1051
0043065900999991952022100004+49617+006200FM-12+038099999V0202701N00211007801CN0070001N9+00221+00001103031ADDAY121999GF108991081051008001999999MW1051
0056065900999991952022106004+49617+006200FM-12+038099999V0202701N00211001501CN0030001N9+00111+00111103031ADDAY121999GF108991081061001501999999KA1999N+00001MW1051
0043065900999991952022112004+49617+006200FM-12+038099999V0202501N00361004501CN0040001N9+00221+00001103211ADDAY121999GF108991071061004501999999MW1051
0056065900999991952022118004+49617+006200FM-12+038099999V0202501N00311001501CN0030001N9+00221+00001103151ADDAY121999GF108991071061001501999999KA1999M+00281MW1051
0043065900999991952022200004+49617+006200FM-12+038099999V0202901N00311004501CN0060001N9+00221+00001103131ADDAY121999GF108991071051004501999999MW1051
0056065900999991952022206004+49617+006200FM-12+038099999V0203201N00051004501CN0080001N9+00111+00001103011ADDAY121999GF108991071051004501999999KA1999N+00111MW1051
0043065900999991952022212004+49617+006200FM-12+038099999V0209991C00001004501CN0060001N9+00221-00111102991ADDAY121999GF108991081061004501999999MW1051
0056065900999991952022218004+49617+006200FM-12+038099999V0209991C00001004501CN0060001N9+00111-00221102831ADDAY121999GF108991081061004501999999KA1999M+00221MW1051
0043065900999991952022300004+49617+006200FM-12+038099999V0203601N00051002401CN0090001N9+00001-00221102791ADDAY121999GF107991071061002501999999MW1051
0056065900999991952022306004+49617+006200FM-12+038099999V0200201N00051000601CN0050001N9-00221-00281102701ADDAY121999GF108991081061000751999999KA1999N-00221MW1051
0043065900999991952022312004+49617+006200FM-12+038099999V0200701N00151002401CN0030001N9+00001-00221102711ADDAY121999GF105991051061002501001001MW1051
0056065900999991952022318004+49617+006200FM-12+038099999V0200501N00051220001CN0040001N9+00111-00281102671ADDAY101999GF101991001001999999001051KA1999M+00221MW1051
0043065900999991952022400004+49617+006200FM-12+038099999V0200501N00211000151CN0002001N9-00221-00221102771ADDAY141999GF109991091999000251999999MW1471
0056065900999991952022406004+49617+006200FM-12+038099999V0200501N00101000151CN0001001N9-00281-00281102811ADDAY141999GF109991091999000251999999KA1999N-00281MW1451
0043065900999991952022412004+49617+006200FM-12+038099999V0200901N00211220001CN0018001N9-00221-00281102991ADDAY141999GF104991041061002501001001MW1101
0056065900999991952022418004+49617+006200FM-12+038099999V0200501N00151220001CN0030001N9+00391+00001102851ADDAY111999GF103991001001999999001061KA1999M+00501MW1051
0043065900999991952022500004+49617+006200FM-12+038099999V0200701N00261220001CN0120001N9+00111+00001103031ADDAY111999GF104991041051004501001001MW1031
0056065900999991952022506004+49617+006200FM-12+038099999V0200701N00311004501CN0090001N9+00221+00111103061ADDAY121999GF108991081051004501999999KA1999N+00001MW1051
0043065900999991952022512004+49617+006200FM-12+038099999V0200901N00511004501CN0120001N9+00611+00111103051ADDAY121999GF105991051051004501001001MW1011
0056065900999991952022518004+49617+006200FM-12+038099999V0200901N00511007801CN0140001N9+00501-00111103011ADDAY121999GF107991071051008001999999KA1999M+00721MW1021
0043065900999991952022600004+49617+006200FM-12+038099999V0200701N00461007801CN0160001N9+00501-00111103031ADDAY121999GF108991081051008001999999MW1021
0056065900999991952022606004+49617+006200FM-12+038099999V0200401N00461012301CN0140001N9+00391+00111102931ADDAY121999GF107991071051012501999999KA1999N+00281MW1021
0043065900999991952022612004+49617+006200FM-12+038099999V0200701N00621220001CN0120001N9+00721+00001102891ADDAY111999GF102991021081012501001001MW1021
0056065900999991952022618004+49617+006200FM-12+038099999V0200501N00361220001CN0200001N9+00721-00111102821ADDAY111999GF103991031051012501001001KA1999M+00891MW1021
0043065900999991952022700004+49617+006200FM-12+038099999V0200501N00361220001CN0160001N9+00281-00111102871ADDAY111999GF100991001001999999001001MW1001
0056065900999991952022706004+49617+006200FM-12+038099999V0200501N00151220001CN0080001N9+00001-00281102861ADDAY101999GF101991001001999999001051KA1999N+00001MW1051
0043065900999991952022712004+49617+006200FM-12+038099999V0200501N00461220001CN0160001N9+00611-00221102781ADDAY111999GF100991001001999999001001MW1011
0056065900999991952022718004+49617+006200FM-12+038099999V0203601N00261220001CN0160001N9+00501-00221102731ADDAY101999GF100991001001999999001001KA1999M+00781MW1001
0043065900999991952022800004+49617+006200FM-12+038099999V0209991C00001220001CN0080001N9+00111-00111102851ADDAY101999GF100991001001999999001001MW1051
0056065900999991952022806004+49617+006200FM-12+038099999V0200201N00261000151CN0002001N9+00001+00001102911ADDAY141999GF109991091999000251999999KA1999N+00001MW1471
0043065900999991952022812004+49617+006200FM-12+038099999V0200201N00211000601CN0014001N9+00111+00111103021ADDAY141999GF108991081061000751999999MW1281
0056065900999991952022818004+49617+006200FM-12+038099999V0200701N00101220001CN0028001N9+00111+00001102861ADDAY121999GF100991001001999999001001KA1999M+00391MW1051
0043065900999991952022900004+49617+006200FM-12+038099999V0209991C00001001501CN0010001N9+00001-00111102851ADDAY121999GF108991081061001501999999MW1101
0056065900999991952022906004+49617+006200FM-12+038099999V0209991C00001000151CN0001001N9-00111-00111102631ADDAY141999GF109991091999000251999999KA1999N-00111MW1451
0043065900999991952022912004+49617+006200FM-12+038099999V0202701N00511000151CN0008001N9+00001-00111102541ADDAY171999GF109991091999000251999999MW1721
0056065900999991952022918004+49617+006200FM-12+038099999V0202701N00461000151CN0002001N9+00111-00111102351ADDAY171999GF109991091999000251999999KA1999M+00111MW1471
0043065900999991952030100004+49617+006200FM-12+038099999V0202501N00051000151CN0004001N9+00281+00281102421ADDAY151999GF109991091999000251999999MW1451
0056065900999991952030106004+49617+006200FM-12+038099999V0203401N00051015001CN0030001N9+00221+00221102471ADDAY141999GF108991081051017501999999KA1999N+00111MW1051
0043065900999991952030112004+49617+006200FM-12+038099999V0200701N00151012301CN0060001N9+00501+00001102501ADDAY121999GF107991071081012501999999MW1051
0056065900999991952030118004+49617+006200FM-12+038099999V0201801N001019999999N0050001N9+00391+00111102301ADDAY121999GF106991031051017501001061KA1999M+00721MW1051
0043065900999991952030200004+49617+006200FM-12+038099999V0209991C00001220001CN0024001N9+00221+00001102091ADDAY111999GF102991011051017501001061MW1051
0056065900999991952030206004+49617+006200FM-12+038099999V0201801N00051000151CN0000001N9+00001+00001101801ADDAY141999GF109991091999000251999999KA1999N+00001MW1471
0043065900999991952030212004+49617+006200FM-12+038099999V0201801N002119999999N0020001N9+00721+00281101621ADDAY141999GF106991021021012501031061MW1051
0056065900999991952030218004+49617+006200FM-12+038099999V0202001N00361220001CN0120001N9+00781+00111101301ADDAY111999GF102991001001999999001051KA1999M+01111MW1021
0043065900999991952030300004+49617+006200FM-12+038099999V0202001N00211220001CN0080001N9+00501+00001101321ADDAY111999GF101991011051012501001001MW1051
0056065900999991952030306004+49617+006200FM-12+038099999V0201801N00151007801CN0050001N9+00391+00111101291ADDAY111999GF106991061051008001999999KA1999N+00391MW1051
0043065900999991952030312004+49617+006200FM-12+038099999V0201801N00151220001CN0070001N9+01281+00001101151ADDAY111999GF103991001001999999001061MW1051
0056065900999991952030318004+49617+006200FM-12+038099999V0201601N00211220001CN0160001N9+01111-00221101001ADDAY111999GF104991001001999999001061KA1999M+01611MW1021
0043065900999991952030400004+49617+006200FM-12+038099999V0201801N00311220001CN0100001N9+00721+00001101041ADDAY111999GF102991001001999999001061MW1031
0056065900999991952030406004+49617+006200FM-12+038099999V0201801N00261220001CN0070001N9+00281+00001101131ADDAY101999GF103991001001999999031061KA1999N+00281MW1051
0062065900999991952030412004+49617+006200FM-12+038099999V0201601N00051220001CN0070001N9+01111+00281101091ADDAY111999GF105991999001999999031001MW1051EQDQ01+000002SCOTLC
0056065900999991952030418004+49617+006200FM-12+038099999V0202301N00211007801CN0100001N9+01001+00501101041ADDAY161999GF107991051051008001031999KA1999M+01281MW1601
0043065900999991952030500004+49617+006200FM-12+038099999V0202501N00511015001CN0160001N9+00781+00501101071ADDAY121999GF107991061051017501999999MW1021
0056065900999991952030506004+49617+006200FM-12+038099999V0201801N003619999999N0060001N9+00611+00611101001ADDAY161999GF108991041051008001021999KA1999N+00611MW1631
0043065900999991952030512004+49617+006200FM-12+038099999V0202001N00931004501CN0160001N9+01001+00721100831ADDAY181999GF107991061081004501999999MW1251
0056065900999991952030518004+49617+006200FM-12+038099999V0202701N00511220001CN0160001N9+00891+00001101151ADDAY181999GF104991041051008001001001KA1999M+01111MW1031
0043065900999991952030600004+49617+006200FM-12+038099999V0209991C00001012301CN0120001N9+00391+00281101651ADDAY111999GF105991051051012501001001MW1021
0056065900999991952030606004+49617+006200FM-12+038099999V0209991C00001220001CN0070001N9+00281+00221101901ADDAY111999GF106991001001999999031061KA1999N+00281MW1051
0043065900999991952030612004+49617+006200FM-12+038099999V0201601N00051012301CN0080001N9+00781+00221102031ADDAY121999GF107991061081012501001061MW1051
0056065900999991952030618004+49617+006200FM-12+038099999V0200901N00051220001CN0140001N9+00781+00221102031ADDAY121999GF107991001001999999031061KA1999M+01001MW1021
0043065900999991952030700004+49617+006200FM-12+038099999V0201101N004619999999N0100001N9+00391+00221102161ADDAY121999GF108991041051012501011999MW1021
0056065900999991952030706004+49617+006200FM-12+038099999V0200901N00311220001CN0050001N9+00221+00001102161ADDAY161999GF108991001001999999071999KA1999N+00221MW1601
0043065900999991952030712004+49617+006200FM-12+038099999V0201401N00361220001CN0050001N9+00281-00721102071ADDAY121999GF108991001001999999071999MW1051
0056065900999991952030718004+49617+006200FM-12+038099999V0200901N00511002401CN0050001N9+00281-00281101911ADDAY171999GF108991061071002501021999KA1999M+00391MW1681
0043065900999991952030800004+49617+006200FM-12+038099999V0201101N00621001501CN0030001N9+00001+00001101991ADDAY171999GF108991081071001501999999MW1731
0056065900999991952030806004+49617+006200FM-12+038099999V0201401N00461004501CN0050001N9-00111-00221101951ADDAY171999GF108991071051004501999999KA1999N-00111MW1041
0043065900999991952030812004+49617+006200FM-12+038099999V0201401N00461007801CN0140001N9+00221-00391102091ADDAY121999GF108991081051008001999999MW1021
0056065900999991952030818004+49617+006200FM-12+038099999V0201101N00621220001CN0080001N9+00281-00391101991ADDAY121999GF107991001001999999071999KA1999M+00391MW1051
0043065900999991952030900004+49617+006200FM-12+038099999V0200901N00461220001CN0120001N9+00001-00781101981ADDAY121999GF100991001001999999001001MW1011
0056065900999991952030906004+49617+006200FM-12+038099999V0200901N00461220001CN0060001N9-00221-00781101841ADDAY101999GF102991001001999999031061KA1999N-00221MW1051
0043065900999991952030912004+49617+006200FM-12+038099999V0201301N003119999999N0070001N9+00611-00221101611ADDAY121999GF107991041051017501031051MW1051
0056065900999991952030918004+49617+006200FM-12+038099999V0201601N00411001501CN0020001N9+00611+00611101531ADDAY161999GF108991071071001501999999KA1999M+00721MW1611
0043065900999991952031000004+49617+006200FM-12+038099999V0201601N00361000601CN0010001N9+00501+00501101461ADDAY161999GF108991081071000751999999MW1631
0056065900999991952031006004+49617+006200FM-12+038099999V0202501N00511000601CN0060001N9+00501+00501101351ADDAY161999GF108991081071000751999999KA1999N+00501MW1211
0043065900999991952031012004+49617+006200FM-12+038099999V0202701N00411004501CN0030001N9+00611+00391101781ADDAY121999GF108991061081004501999999MW1051
0056065900999991952031018004+49617+006200FM-12+038099999V0202701N00411007801CN0060001N9+00721+00391101901ADDAY161999GF108991071051008001999999KA1999M+00781MW1051
0062065900999991952031100004+49617+006200FM-12+038099999V0202701N00261220001CN0060001N9+00501+00391102031ADDAY121999GF105991999001999999031001MW1051EQDQ01+000002SCOTLC
0056065900999991952031106004+49617+006200FM-12+038099999V0202701N00101220001CN0020001N9+00281+00281102051ADDAY111999GF105991001001999999031061KA1999N+00221MW1101
0062065900999991952031112004+49617+006200FM-12+038099999V0201601N00151007801CN0080001N9+00721+00281101951ADDAY111999GF106991999081008001001001MW1051EQDQ01+000052SCOTLC
0075065900999991952031118004+49617+006200FM-12+038099999V0200501N00051220001CN0160001N9+00721+00281101751ADDAY121999GF104991999001999999031001KA1999M+00891MW1011EQDQ01+000002SCOTLC
0043065900999991952031200004+49617+006200FM-12+038099999V0200501N00571220001CN0060001N9+00281+00221101761ADDAY111999GF100991001001999999001001MW1051
0056065900999991952031206004+49617+006200FM-12+038099999V0200501N00361220001CN0020001N9+00111+00001101571ADDAY111999GF105991001001999999031061KA1999N+00001MW1101
0043065900999991952031212004+49617+006200FM-12+038099999V0200201N00461007801CN0060001N9+00721+00221101461ADDAY141999GF106991061021008001999999MW1051
0056065900999991952031218004+49617+006200FM-12+038099999V0200501N00461220001CN0060001N9+00501+00001101361ADDAY121999GF103991031051012501001001KA1999M+00781MW1051
0043065900999991952031300004+49617+006200FM-12+038099999V0200501N00411220001CN0060001N9+00111-00221101511ADDAY111999GF100991001001999999001001MW1051
0056065900999991952031306004+49617+006200FM-12+038099999V0200501N00261220001CN0030001N9-00111-00221101571ADDAY101999GF101991001001999999001051KA1999N-00111MW1051
0043065900999991952031312004+49617+006200FM-12+038099999V0200501N00311007801CN0080001N9+00391-00221101651ADDAY111999GF106991061051008001001001MW1051
0056065900999991952031318004+49617+006200FM-12+038099999V0203601N00311007801CN0070001N9+00221-00281101821ADDAY121999GF108991081051008001999999KA1999M+00501MW1051
0043065900999991952031400004+49617+006200FM-12+038099999V0200501N00051007801CN0090001N9+00111-00281102141ADDAY121999GF108991081051008001999999MW1051
0056065900999991952031406004+49617+006200FM-12+038099999V0200401N00411220001CN0200001N9-00221-00781102511ADDAY121999GF101991001001999999001051KA1999N-00221MW1011
0043065900999991952031412004+49617+006200FM-12+038099999V0200501N00721220001CN0200001N9+00221-00721102591ADDAY101999GF100991001001999999001001MW1001
0056065900999991952031418004+49617+006200FM-12+038099999V0200501N00621220001CN0200001N9+00111-00281102471ADDAY101999GF101991001001999999001051KA1999M+00391MW1031
0043065900999991952031500004+49617+006200FM-12+038099999V0200901N00511220001CN0200001N9-00221-01001102421ADDAY101999GF100991001001999999001001MW1001
0056065900999991952031506004+49617+006200FM-12+038099999V0200701N00461220001CN0200001N9-00391-01221102071ADDAY101999GF101991001001999999001051KA1999N-00391MW1031
0043065900999991952031512004+49617+006200FM-12+038099999V0201101N00771220001CN0200001N9+00721-01721101671ADDAY101999GF101991001001999999001051MW1021
0056065900999991952031518004+49617+006200FM-12+038099999V0201101N00571220001CN0080001N9+00611-00781101421ADDAY111999GF103991001001999999001061KA1999M+00891MW1051
0043065900999991952031600004+49617+006200FM-12+038099999V0201101N00261220001CN0080001N9+00221-00721101471ADDAY111999GF100991001001999999001001MW1051
0056065900999991952031606004+49617+006200FM-12+038099999V0201401N00101001501CN0020001N9+00111+00001101401ADDAY161999GF108991081061001501999999KA1999N+00111MW1501
0043065900999991952031612004+49617+006200FM-12+038099999V0201701N00211000601CN0024001N9+00611+00611101441ADDAY151999GF108991061061000751999999MW1281
0056065900999991952031618004+49617+006200FM-12+038099999V0201601N003119999999N0160001N9+00781+00721101421ADDAY181999GF107991041081008001999999KA1999M+01001MW1251
0043065900999991952031700004+49617+006200FM-12+038099999V0201701N00511012301CN0200001N9+00721+00611101531ADDAY121999GF108991071051012501999999MW1021
0043065900999991952031800004+49617+006200FM-12+038099999V0201601N00461220001CN0200001N9+00611+00281101791ADDAY111999GF106991001001999999001061MW1031
0043065900999991952031900004+49617+006200FM-12+038099999V0201501N004119999999N0200001N9+00611+00391101741ADDAY181999GF106991041051008001001021MW1251
0043065900999991952032400004+49617+006200FM-12+038099999V0202301N00051012301CN0080001N9+00721+00281101301ADDAY121999GF108991081051012501999999MW1051
0056065900999991952032406004+49617+006200FM-12+038099999V0201601N00311000151CN0002001N9+00611+00611100821ADDAY161999GF109991091999000251999999KA1999N+00611MW1611
0043065900999991952032412004+49617+006200FM-12+038099999V0202301N00671002401CN0080001N9+00781+00781100601ADDAY161999GF108991071071002501999999MW1501
0056065900999991952032418004+49617+006200FM-12+038099999V0202501N007219999999N0140001N9+00891+00781100641ADDAY161999GF107991041081004501031999KA1999M+01001MW1021
0043065900999991952032500004+49617+006200FM-12+038099999V0202701N00461004501CN0080001N9+00611+00501100771ADDAY121999GF108991071051004501999999MW1051
0056065900999991952032506004+49617+006200FM-12+038099999V0202701N00621004501CN0080001N9+00611+00501100731ADDAY161999GF107991071051004501071999KA1999N+00611MW1601
0043065900999991952032512004+49617+006200FM-12+038099999V0202301N00821004501CN0030001N9+00781+00501100671ADDAY161999GF108991071081004501999999MW1251
0056065900999991952032518004+49617+006200FM-12+038099999V0203201N00511004501CN0030001N9+00611+00501100381ADDAY181999GF108991081031004501999999KA1999M+00891MW1811
0043065900999991952032600004+49617+006200FM-12+038099999V0203401N00671004501CN0120001N9+00221+00001100631ADDAY181999GF108991071051004501999999MW1251
0056065900999991952032606004+49617+006200FM-12+038099999V0203201N00671004501CN0160001N9+00001-00391101101ADDAY181999GF107991051081004501999999KA1999N+00001MW1881
0062065900999991952032612004+49617+006200FM-12+038099999V0203201N00571002401CN0020001N9-00111-00221101271ADDAY181999GF107991999031002501999999MW1851EQDQ01+000082SCOTLC
0056065900999991952032618004+49617+006200FM-12+038099999V0203201N00461220001CN0160001N9+00001-00221101261ADDAY181999GF103991031031008001001001KA1999M+00281MW1261
0043065900999991952032700004+49617+006200FM-12+038099999V0200201N00511012301CN0160001N9-00111-00391101361ADDAY181999GF106991051081012501999999MW1851
0056065900999991952032706004+49617+006200FM-12+038099999V0200901N00051220001CN0050001N9-00281-00501101341ADDAY181999GF100991001001999999001001KA1999N-00281MW1051
0043065900999991952032712004+49617+006200FM-12+038099999V0200701N00511007801CN0120001N9+00221-00501101141ADDAY121999GF106991051081008001999999MW1021
0056065900999991952032718004+49617+006200FM-12+038099999V0200501N005719999999N0060001N9+00221-00281100891ADDAY121999GF105991041051012501999999KA1999M+00281MW1051
0043065900999991952032800004+49617+006200FM-12+038099999V0200501N00571220001CN0080001N9-00111-00281100691ADDAY111999GF100991001001999999001001MW1051
0056065900999991952032806004+49617+006200FM-12+038099999V0200401N00461220001CN0080001N9-00281-00611100341ADDAY111999GF105991001001999999001061KA1999N-00281MW1051
0043065900999991952032812004+49617+006200FM-12+038099999V0200501N01131220001CN0090001N9+00221-00721100091ADDAY121999GF106991001001999999071061MW1051
0056065900999991952032818004+49617+006200FM-12+038099999V0200901N00871002401CN0020001N9-00111-00111099941ADDAY171999GF108991081001002501021999KA1999M+00281MW1711
0043065900999991952032900004+49617+006200FM-12+038099999V0200501N01131002401CN0018001N9-00221-00221099541ADDAY171999GF108991081001002501021999MW1731
0056065900999991952032906004+49617+006200FM-12+038099999V0200501N00621001501CN0040001N9-00111-00111099171ADDAY171999GF108991081071001501999999KA1999N-00221MW1671
0043065900999991952032912004+49617+006200FM-12+038099999V0200701N00311000601CN0030001N9+00001+00001099001ADDAY161999GF108991081071000751999999MW1031
0056065900999991952032918004+49617+006200FM-12+038099999V0200901N00311000151CN0004001N9+00001+00001099071ADDAY161999GF108991081071000251999999KA1999M+00001MW1621
0043065900999991952033000004+49617+006200FM-12+038099999V0209991C00001000151CN0001001N9+00111+00111099351ADDAY161999GF109991091999000251999999MW1451
0056065900999991952033006004+49617+006200FM-12+038099999V0200501N00151000151CN0001001N9+00221+00221099291ADDAY141999GF109991091999000251999999KA1999N-00111MW1451
0043065900999991952033012004+49617+006200FM-12+038099999V0201801N00261001501CN0026001N9+00611+00611099341ADDAY161999GF108991071071001501999999MW1211
0056065900999991952033018004+49617+006200FM-12+038099999V0202301N005119999999N0160001N9+00781+00501099501ADDAY161999GF107991031051004501999999KA1999M+00891MW1021
0043065900999991952033100004+49617+006200FM-12+038099999V0202301N00571004501CN0160001N9+00611+00281099751ADDAY121999GF108991081051004501999999MW1021
0056065900999991952033106004+49617+006200FM-12+038099999V0202701N00261220001CN0050001N9+00391+00281099941ADDAY121999GF102991021051008001001001KA1999N+00391MW1051
0043065900999991952033112004+49617+006200FM-12+038099999V0202301N00311007801CN0070001N9+00781+00391099951ADDAY121999GF108991081051008001999999MW1051
0056065900999991952033118004+49617+006200FM-12+038099999V0203401N00461001501CN0050001N9+00281+00221099831ADDAY161999GF108991071071001501999999KA1999M+00781MW1611
0043065900999991952040100004+49617+006200FM-12+038099999V0200201N008219999999N0160001N9-00111-00391100061ADDAY171999GF108991041081004501021999MW1031
0056065900999991952040106004+49617+006200FM-12+038099999V0200201N00871007801CN0090001N9-00221-00611100091ADDAY181999GF108991051081008001999999KA1999N-00221MW1051
0043065900999991952040112004+49617+006200FM-12+038099999V0200201N010319999999N0140001N9+00001-00781100191ADDAY121999GF107991031051008001071999MW1021
0056065900999991952040118004+49617+006200FM-12+038099999V0200101N006719999999N0060001N9+00111-00391100341ADDAY111999GF106991011051008001031061KA1999M+00281MW1051
0043065900999991952040200004+49617+006200FM-12+038099999V0203401N00101220001CN0080001N9-00111-00501100671ADDAY111999GF104991001001999999001061MW1051
0056065900999991952040206004+49617+006200FM-12+038099999V0203401N00311220001CN0040001N9-00221-00391101001ADDAY111999GF103991031051008001001001KA1999N-00281MW1051
0043065900999991952040212004+49617+006200FM-12+038099999V0202301N003119999999N0200001N9+00221-00221101291ADDAY171999GF106991041081004501999999MW1021
0056065900999991952040218004+49617+006200FM-12+038099999V0202701N00101220001CN0040001N9+00111+00001101501ADDAY181999GF104991041091008001001001KA1999M+00501MW1141
0043065900999991952040300004+49617+006200FM-12+038099999V0203601N00311220001CN0160001N9-00111-00221101971ADDAY181999GF101991011051012501001001MW1021
0056065900999991952040306004+49617+006200FM-12+038099999V0203401N00151220001CN0060001N9-00221-00281102501ADDAY101999GF101991011051012501031001KA1999N-00221MW1051
0043065900999991952040312004+49617+006200FM-12+038099999V0200501N003619999999N0200001N9+00281-00391102611ADDAY121999GF106991041081008001999999MW1021
0075065900999991952040318004+49617+006200FM-12+038099999V0200201N00101220001CN0200001N9+00391-00611102701ADDAY111999GF103991999081008001001001KA1999M+00721MW1011EQDQ01+000012SCOTLC
0043065900999991952040400004+49617+006200FM-12+038099999V0200201N00211220001CN0160001N9+00111-00111102891ADDAY111999GF103991011051008001031001MW1021
0056065900999991952040406004+49617+006200FM-12+038099999V0200501N00311012301CN0140001N9+00221-00281102891ADDAY121999GF108991071051012501999999KA1999N+00001MW1021
0043065900999991952040412004+49617+006200FM-12+038099999V0200201N00311007801CN0140001N9+00501-00391102831ADDAY121999GF106991061051008001999999MW1021
0056065900999991952040418004+49617+006200FM-12+038099999V0200501N00361015001CN0120001N9+00611-00501102621ADDAY121999GF107991071051017501999999KA1999M+00721MW1021
0043065900999991952040500004+49617+006200FM-12+038099999V0200501N00151220001CN0090001N9+00221-00281102541ADDAY121999GF103991031051017501001001MW1051
0056065900999991952040506004+49617+006200FM-12+038099999V0200501N00261220001CN0070001N9+00001-00111102351ADDAY121999GF101991001001999999001051KA1999N-00111MW1051
0043065900999991952040512004+49617+006200FM-12+038099999V0201101N00571220001CN0120001N9+00721-00501101931ADDAY111999GF103991031011012501001001MW1021
0056065900999991952040518004+49617+006200FM-12+038099999V0202001N004119999999N0160001N9+00721-00281101721ADDAY111999GF105991041051012501031001KA1999M+00891MW1021
0043065900999991952040600004+49617+006200FM-12+038099999V0202001N00311015001CN0160001N9+00281-00281101801ADDAY121999GF107991071051017501999999MW1031
0056065900999991952040606004+49617+006200FM-12+038099999V0202201N00461000601CN0032001N9+00391+00281101861ADDAY161999GF108991071061000751999999KA1999N+00281MW1051
0043065900999991952040612004+49617+006200FM-12+038099999V0202201N00771007801CN0200001N9+00891+00221101931ADDAY181999GF107991051081008001001081MW1021
0056065900999991952040618004+49617+006200FM-12+038099999V0202301N004619999999N0200001N9+00781+00501101951ADDAY161999GF108991041051008001071999KA1999M+01111MW1611
0043065900999991952040700004+49617+006200FM-12+038099999V0202001N00771007801CN0140001N9+00781+00501101991ADDAY161999GF108991071051008001999999MW1601
0056065900999991952040706004+49617+006200FM-12+038099999V0202001N007219999999N0200001N9+00721+00501102061ADDAY161999GF106991011051008001031061KA1999N+00721MW1011
0043065900999991952040712004+49617+006200FM-12+038099999V0202401N01131007801CN0200001N9+01111+00611102241ADDAY161999GF108991071051008001999999MW1211
0056065900999991952040718004+49617+006200FM-12+038099999V0202501N00571007801CN0200001N9+01221+00611102311ADDAY161999GF108991061051008001071999KA1999M+01281MW1021
0062065900999991952040800004+49617+006200FM-12+038099999V0201801N00261220001CN0100001N9+01001+00501102431ADDAY121999GF106991999001999999031001MW1011EQDQ01+000002SCOTLC
0056065900999991952040806004+49617+006200FM-12+038099999V0201601N005119999999N0080001N9+00721+00391102501ADDAY111999GF106991031051012501031001KA1999N+00721MW1051
0043065900999991952040812004+49617+006200FM-12+038099999V0201801N00511220001CN0160001N9+01611+00611102341ADDAY121999GF104991031051022501031001MW1011
0056065900999991952040818004+49617+006200FM-12+038099999V0200401N002119999999N0200001N9+01501+00891102181ADDAY121999GF107991021081012501031061KA1999M+01781MW1021
0043065900999991952040900004+49617+006200FM-12+038099999V0201601N002119999999N0080001N9+01221+00721102221ADDAY111999GF105991021051017501001061MW1051
0056065900999991952040906004+49617+006200FM-12+038099999V0201401N00211220001CN0120001N9+00781+00281102191ADDAY111999GF104991031051017501001061KA1999N+00781MW1021
0043065900999991952040912004+49617+006200FM-12+038099999V0201801N00671220001CN0160001N9+01611+00391101981ADDAY111999GF105991001001999999001061MW1021
0056065900999991952040918004+49617+006200FM-12+038099999V0201601N00411220001CN0200001N9+01891+00001101571ADDAY111999GF104991001001999999001061KA1999M+02001MW1021
0043065900999991952041000004+49617+006200FM-12+038099999V0201601N00671220001CN0140001N9+01391+00001101471ADDAY121999GF108991001001999999001071MW1031
0056065900999991952041006004+49617+006200FM-12+038099999V0201601N00511220001CN0120001N9+00891+00111101501ADDAY121999GF107991001001999999031061KA1999N+00891MW1021
0043065900999991952041012004+49617+006200FM-12+038099999V0201601N00621220001CN0140001N9+01721+00221101361ADDAY121999GF106991001001999999001061MW1021
0056065900999991952041018004+49617+006200FM-12+038099999V0201601N00571220001CN0200001N9+01781+00111101181ADDAY121999GF106991001001999999031061KA1999M+01891MW1021
0043065900999991952041100004+49617+006200FM-12+038099999V0201701N00621220001CN0200001N9+01281+00111101391ADDAY121999GF103991001001999999001061MW1011
0056065900999991952041106004+49617+006200FM-12+038099999V0201701N00411220001CN0140001N9+00891+00501101571ADDAY111999GF103991001001999999001051KA1999N+00891MW1031
0043065900999991952041112004+49617+006200FM-12+038099999V0202001N00621220001CN0200001N9+02001+00111101491ADDAY111999GF101991001001999999001051MW1021
0056065900999991952041118004+49617+006200FM-12+038099999V0202701N00411220001CN0200001N9+02001+00111101471ADDAY111999GF104991011021012501001061KA1999M+02281MW1021
0043065900999991952041200004+49617+006200FM-12+038099999V0200901N003619999999N0200001N9+01611+00221101691ADDAY111999GF106991021051012501001061MW1021
0056065900999991952041206004+49617+006200FM-12+038099999V0200901N00261220001CN0120001N9+01221+00281101781ADDAY111999GF104991001001999999031051KA1999N+01221MW1021
0043065900999991952041212004+49617+006200FM-12+038099999V0201101N00151220001CN0160001N9+02001+00611101711ADDAY121999GF107991001001999999001061MW1021
0056065900999991952041218004+49617+006200FM-12+038099999V0202301N00151220001CN0140001N9+02001+00501101651ADDAY121999GF106991001001999999031061KA1999M+02221MW1021
0062065900999991952041300004+49617+006200FM-12+038099999V0202501N00671220001CN0080001N9+01281+00391102091ADDAY111999GF103991999001999999031001MW1051EQDQ01+000002SCOTLC
0056065900999991952041306004+49617+006200FM-12+038099999V0209991C000019999999N0120001N9+01221+00391102241ADDAY121999GF107991031051017501071081KA1999N+01111MW1031
0043065900999991952041312004+49617+006200FM-12+038099999V0201801N00771220001CN0200001N9+02001+00111102201ADDAY111999GF104991031011017501031001MW1031
0056065900999991952041318004+49617+006200FM-12+038099999V0202501N00151220001CN0200001N9+01891+00281102201ADDAY121999GF101991011041017501031001KA1999M+02111MW1011
0043065900999991952041400004+49617+006200FM-12+038099999V0200401N00461220001CN0200001N9+01281+00611102461ADDAY101999GF100991001001999999001001MW1001
0056065900999991952041406004+49617+006200FM-12+038099999V0200401N00511220001CN0160001N9+01221+00721102501ADDAY101999GF100991001001999999001001KA1999N+01111MW1001
0043065900999991952041412004+49617+006200FM-12+038099999V0200501N00461220001CN0200001N9+02111+00611102231ADDAY111999GF102991021011017501001001MW1021
0056065900999991952041418004+49617+006200FM-12+038099999V0200901N00151220001CN0200001N9+02001+00611102091ADDAY111999GF101991011011017501001001KA1999M+02281MW1011
0043065900999991952041500004+49617+006200FM-12+038099999V0200501N00461220001CN0160001N9+01391+00611102201ADDAY101999GF100991001001999999001001MW1001
0056065900999991952041506004+49617+006200FM-12+038099999V0200501N00411220001CN0160001N9+01221+00721102161ADDAY101999GF101991001001999999001051KA1999N+01111MW1021
0043065900999991952041512004+49617+006200FM-12+038099999V0200701N00511220001CN0160001N9+02111+00721101901ADDAY111999GF103991031021012501001001MW1031
0056065900999991952041518004+49617+006200FM-12+038099999V0200201N004619999999N0140001N9+01891+00721101721ADDAY111999GF106991031031012501001031KA1999M+02281MW1021
0043065900999991952041600004+49617+006200FM-12+038099999V0200401N00511220001CN0160001N9+01391+00611101901ADDAY111999GF100991001001999999001001MW1011
0056065900999991952041606004+49617+006200FM-12+038099999V0200401N00411220001CN0160001N9+01221+00611101891ADDAY101999GF101991011051012501001001KA1999N+01111MW1021
0043065900999991952041612004+49617+006200FM-12+038099999V0200601N00671220001CN0130001N9+02001+00721101741ADDAY111999GF101991011011012501001001MW1031
0056065900999991952041618004+49617+006200FM-12+038099999V0200201N00621220001CN0140001N9+01781+00721101741ADDAY111999GF104991031041017501031061KA1999M+02111MW1021
0043065900999991952041700004+49617+006200FM-12+038099999V0200201N00101220001CN0120001N9+01391+00891101931ADDAY181999GF103991021051012501001061MW1021
0056065900999991952041706004+49617+006200FM-12+038099999V0200501N00621220001CN0080001N9+01221+00501101951ADDAY101999GF100991001001999999001001KA1999N+01111MW1051
0043065900999991952041712004+49617+006200FM-12+038099999V0200501N00621220001CN0080001N9+02001+00891101911ADDAY101999GF100991001001999999001001MW1051
0056065900999991952041718004+49617+006200FM-12+038099999V0200701N00671220001CN0160001N9+02001+00391101871ADDAY111999GF101991011011017501001001KA1999M+02281MW1021
0043065900999991952041800004+49617+006200FM-12+038099999V0200401N00511220001CN0120001N9+01391+00391102111ADDAY101999GF100991001001999999001001MW1001
0056065900999991952041806004+49617+006200FM-12+038099999V0200201N00411220001CN0140001N9+01221+00391102161ADDAY101999GF100991001001999999001001KA1999N+01111MW1001
0043065900999991952041812004+49617+006200FM-12+038099999V0200801N00311220001CN0160001N9+02221+00611102051ADDAY101999GF102991021021017501001001MW1031
0056065900999991952041818004+49617+006200FM-12+038099999V0200301N00051220001CN0200001N9+02111+00501101821ADDAY111999GF104991041021017501001001KA1999M+02281MW1031
0043065900999991952041900004+49617+006200FM-12+038099999V0200601N00151220001CN0140001N9+01501+00391101981ADDAY111999GF100991001001999999001001MW1001
0056065900999991952041906004+49617+006200FM-12+038099999V0203601N00051220001CN0100001N9+01281+00391101861ADDAY101999GF101991011051017501001001KA1999N+01221MW1021
0043065900999991952041912004+49617+006200FM-12+038099999V0202301N00571220001CN0100001N9+02221+00391101551ADDAY101999GF102991021021017501001001MW1031
0056065900999991952041918004+49617+006200FM-12+038099999V0203201N00151220001CN0200001N9+02111+00281101291ADDAY111999GF104991021021017501001061KA1999M+02281MW1021
0043065900999991952042000004+49617+006200FM-12+038099999V0202301N00151220001CN0160001N9+01281+00781101391ADDAY111999GF100991001001999999001001MW1001
0056065900999991952042006004+49617+006200FM-12+038099999V0202001N00151220001CN0030001N9+00891+00721101271ADDAY111999GF105991001001999999001061KA1999N+00891MW1051
0043065900999991952042012004+49617+006200FM-12+038099999V0201801N001019999999N0040001N9+01501+00781101171ADDAY161999GF107991011011012501031081MW1051
0056065900999991952042018004+49617+006200FM-12+038099999V0202701N00101004501CN0030001N9+01221+01111101041ADDAY191999GF106991061031004501999999KA1999M+01781MW1251
0043065900999991952042100004+49617+006200FM-12+038099999V0201801N00051220001CN0022001N9+01001+01001101071ADDAY141999GF100991001001999999001001MW1281
0056065900999991952042106004+49617+006200FM-12+038099999V0201801N00511000151CN0002001N9+01001+01001100821ADDAY161999GF109991091999000251999999KA1999N+00891MW1431
0043065900999991952042112004+49617+006200FM-12+038099999V0201701N00771004501CN0160001N9+01391+01111100521ADDAY161999GF107991071051004501999999MW1021
0056065900999991952042118004+49617+006200FM-12+038099999V0202001N006719999999N0140001N9+01221+01111100351ADDAY181999GF108991031051008001021999KA1999M+01611MW1021
0043065900999991952042200004+49617+006200FM-12+038099999V0201801N006719999999N0060001N9+01111+01001100241ADDAY121999GF107991041051008001071999MW1051
0056065900999991952042206004+49617+006200FM-12+038099999V0202301N005719999999N0160001N9+00891+00781100471ADDAY161999GF107991041051004501071999KA1999N+00781MW1211
0043065900999991952042212004+49617+006200FM-12+038099999V0202301N010319999999N0200001N9+01221+00221100851ADDAY121999GF106991031011008001001061MW1021
0056065900999991952042218004+49617+006200FM-12+038099999V0202101N005719999999N0200001N9+01221+00221100991ADDAY111999GF105991021041017501031061KA1999M+01391MW1021
0043065900999991952042300004+49617+006200FM-12+038099999V0202301N00411220001CN0160001N9+00891+00391101301ADDAY111999GF104991041051012501001001MW1021
0056065900999991952042306004+49617+006200FM-12+038099999V0201601N00051220001CN0120001N9+00501+00281101551ADDAY111999GF105991001001999999001061KA1999N+00391MW1021
0043065900999991952042312004+49617+006200FM-12+038099999V0202301N004619999999N0200001N9+01221+00111101541ADDAY111999GF106991041021012501001061MW1021
0056065900999991952042318004+49617+006200FM-12+038099999V0202501N003119999999N0200001N9+01221+00001101541ADDAY121999GF107991031081012501001061KA1999M+01391MW1021
0043065900999991952042400004+49617+006200FM-12+038099999V0202701N00261012301CN0200001N9+00891+00281101721ADDAY181999GF107991071081012501999999MW1801
0056065900999991952042406004+49617+006200FM-12+038099999V0202901N00101012301CN0120001N9+00501+00281101931ADDAY181999GF107991061051012501001061KA1999N+00391MW1021
0043065900999991952042412004+49617+006200FM-12+038099999V0202901N00211012301CN0200001N9+01221+00281101951ADDAY121999GF106991051081012501001061MW1021
0056065900999991952042418004+49617+006200FM-12+038099999V0203201N003619999999N0200001N9+01221+00001102021ADDAY121999GF106991041081012501001061KA1999M+01391MW1021
0043065900999991952042500004+49617+006200FM-12+038099999V0200201N00571220001CN0140001N9+00781+00221102291ADDAY111999GF104991001001999999001061MW1021
0056065900999991952042506004+49617+006200FM-12+038099999V0200201N00511220001CN0080001N9+00611+00221102411ADDAY121999GF104991001001999999031061KA1999N+00611MW1051
0043065900999991952042512004+49617+006200FM-12+038099999V0203601N00721220001CN0160001N9+01281+00001102311ADDAY111999GF104991041011012501001001MW1031
0056065900999991952042518004+49617+006200FM-12+038099999V0200201N00511220001CN0150001N9+01281+00111102271ADDAY111999GF104991041051012501001001KA1999M+01501MW1021
0043065900999991952042600004+49617+006200FM-12+038099999V0200201N00931220001CN0160001N9+00721+00221102501ADDAY111999GF100991001001999999001001MW1001
0056065900999991952042606004+49617+006200FM-12+038099999V0200201N00571220001CN0060001N9+00501+00111102471ADDAY101999GF101991011051017501001051KA1999N+00391MW1051
0043065900999991952042612004+49617+006200FM-12+038099999V0200401N00671220001CN0140001N9+01221+00111102261ADDAY101999GF102991021011012501001001MW1021
0056065900999991952042618004+49617+006200FM-12+038099999V0200101N00931220001CN0090001N9+00781-00111102181ADDAY101999GF100991001001999999001001KA1999M+01281MW1051
0043065900999991952042700004+49617+006200FM-12+038099999V0200201N01031220001CN0070001N9+00391+00111102191ADDAY101999GF100991001001999999001001MW1051
0056065900999991952042706004+49617+006200FM-12+038099999V0200201N00771220001CN0060001N9+00281+00111102061ADDAY101999GF100991001001999999001001KA1999N+00221MW1051
0043065900999991952042712004+49617+006200FM-12+038099999V0200901N006719999999N0160001N9+01111+00001101761ADDAY111999GF106991041051008001001061MW1021
0056065900999991952042718004+49617+006200FM-12+038099999V0200201N004619999999N0200001N9+01001-00111101551ADDAY111999GF106991021051017501001061KA1999M+01281MW1021
0062065900999991952042800004+49617+006200FM-12+038099999V0200501N00511220001CN0120001N9+00611+00111101581ADDAY121999GF106991999001999999031001MW1021EQDQ01+000002SCOTLC
0056065900999991952042806004+49617+006200FM-12+038099999V0200201N00151220001CN0120001N9+00391+00221101671ADDAY181999GF102991011051012501001051KA1999N+00391MW1011
0043065900999991952042812004+49617+006200FM-12+038099999V0203401N00511220001CN0200001N9+01111-00221101651ADDAY111999GF104991041081012501001001MW1021
0075065900999991952042818004+49617+006200FM-12+038099999V0200301N00511220001CN0200001N9+01111+00001101581ADDAY111999GF104991999081012501001001KA1999M+01281MW1021EQDQ01+000032SCOTLC
0043065900999991952042900004+49617+006200FM-12+038099999V0200201N00511220001CN0120001N9+00501+00111101791ADDAY111999GF100991001001999999001001MW1001
0056065900999991952042906004+49617+006200FM-12+038099999V0200501N00511220001CN0050001N9+00501+00221101791ADDAY101999GF100991001001999999001001KA1999N+00391MW1051
0043065900999991952042912004+49617+006200FM-12+038099999V0201401N00361220001CN0160001N9+01501-00501101501ADDAY101999GF101991011011012501001011MW1021
0056065900999991952042918004+49617+006200FM-12+038099999V0202001N00361220001CN0200001N9+01721-00391101301ADDAY101999GF100991001001999999001001KA1999M+01781MW1001
0043065900999991952043000004+49617+006200FM-12+038099999V0201701N00461220001CN0120001N9+01111+00111101361ADDAY101999GF100991001001999999001001MW1001
0056065900999991952043006004+49617+006200FM-12+038099999V0200501N00411220001CN0070001N9+00891+00221101251ADDAY101999GF100991001001999999001001KA1999N+00721MW1051
0043065900999991952043012004+49617+006200FM-12+038099999V0201601N00621220001CN0140001N9+02111+00391100891ADDAY101999GF101991011011012501001001MW1031
0056065900999991952043018004+49617+006200FM-12+038099999V0201601N00361220001CN0200001N9+02111+00501100711ADDAY101999GF101991011011012501001001KA1999M+02281MW1021
0043065900999991952050100004+49617+006200FM-12+038099999V0201401N00211220001CN0160001N9+01611+00611100861ADDAY101999GF100991001001999999001001MW1001
0056065900999991952050106004+49617+006200FM-12+038099999V0202501N00261220001CN0120001N9+01391+00781100901ADDAY111999GF104991021081008001031001KA1999N+01281MW1021
0062065900999991952050112004+49617+006200FM-12+038099999V0202501N001019999999N0140001N9+01781+01281100871ADDAY181999GF105991999081008001001001MW1021EQDQ01+000022SCOTLC
0056065900999991952050118004+49617+006200FM-12+038099999V0200701N00621007801CN0140001N9+01611+01111100741ADDAY191999GF107991061031008001999999KA1999M+02281MW1131
0043065900999991952050200004+49617+006200FM-12+038099999V0202301N00571002401CN0050001N9+01111+01111101151ADDAY191999GF108991071071002501999999MW1631
0056065900999991952050206004+49617+006200FM-12+038099999V0202501N003619999999N0060001N9+01111+01111101101ADDAY161999GF105991031051008001001061KA1999N+01111MW1051
0043065900999991952050212004+49617+006200FM-12+038099999V0200201N003119999999N0140001N9+01611+01221101111ADDAY121999GF107991041051008001071999MW1021
0056065900999991952050218004+49617+006200FM-12+038099999V0203601N001519999999N0200001N9+01781+01221100811ADDAY121999GF106991011051017501041061KA1999M+02001MW1021
0043065900999991952050300004+49617+006200FM-12+038099999V0200401N00621220001CN0140001N9+01391+01001100711ADDAY111999GF106991001001999999041061MW1021
0056065900999991952050306004+49617+006200FM-12+038099999V0201401N00151007801CN0040001N9+01221+01111100701ADDAY191999GF107991071051008001999999KA1999N+01221MW1051
0043065900999991952050312004+49617+006200FM-12+038099999V0201801N00771004501CN0160001N9+01281+01221100671ADDAY181999GF107991051081004501031999MW1251
0056065900999991952050318004+49617+006200FM-12+038099999V0203201N002119999999N0200001N9+01221+00781100451ADDAY191999GF106991041091008001031031KA1999M+01721MW1291
0062065900999991952050400004+49617+006200FM-12+038099999V0201401N00261220001CN0160001N9+01001+00891100311ADDAY111999GF104991999001999999031001MW1021EQDQ01+000002SCOTLC
0056065900999991952050406004+49617+006200FM-12+038099999V0201801N00411007801CN0120001N9+01111+00891100141ADDAY161999GF108991071051008001999999KA1999N+01001MW1611
0043065900999991952050412004+49617+006200FM-12+038099999V0201601N00461004501CN0120001N9+01111+01001099931ADDAY161999GF107991051051004501071999MW1211
0056065900999991952050418004+49617+006200FM-12+038099999V0202001N009319999999N0200001N9+01391+00891099781ADDAY161999GF105991031081012501001061KA1999M+01501MW1021
0043065900999991952050500004+49617+006200FM-12+038099999V0202001N00571220001CN0160001N9+00781+00721100051ADDAY181999GF104991001001999999031061MW1021
0056065900999991952050506004+49617+006200FM-12+038099999V0202001N004619999999N0160001N9+00891+00781100221ADDAY111999GF106991021051012501031061KA1999N+00721MW1021
0043065900999991952050512004+49617+006200FM-12+038099999V0202001N01231004501CN0200001N9+01221+01001100471ADDAY181999GF107991051031004501999999MW1811
0056065900999991952050518004+49617+006200FM-12+038099999V0202301N00821007801CN0200001N9+01221+00891100671ADDAY181999GF106991061081008001999999KA1999M+01501MW1021
0062065900999991952050600004+49617+006200FM-12+038099999V0201801N00411220001CN0200001N9+00781+00721101021ADDAY181999GF101991999001999999041001MW1021EQDQ01+000002SCOTLC
0075065900999991952050606004+49617+006200FM-12+038099999V0201201N00261220001CN0100001N9+00781+00721101041ADDAY101999GF101991999001999999041001KA1999N+00611MW1021EQDQ01+000002SCOTLC
0043065900999991952050612004+49617+006200FM-12+038099999V0201401N00621012301CN0200001N9+01781+00781100661ADDAY111999GF105991051021012501001001MW1021
0056065900999991952050618004+49617+006200FM-12+038099999V0200901N00411012301CN0200001N9+01611+01001100491ADDAY181999GF106991061051012501999999KA1999M+01891MW1031
0043065900999991952050700004+49617+006200FM-12+038099999V0202301N01031007801CN0200001N9+01111+01001100901ADDAY161999GF108991071051008001999999MW1211
0056065900999991952050706004+49617+006200FM-12+038099999V0202301N00571004501CN0080001N9+01001+00891101461ADDAY161999GF108991071051004501999999KA1999N+01001MW1601
0043065900999991952050712004+49617+006200FM-12+038099999V0202501N00571220001CN0200001N9+01501+00501101701ADDAY161999GF104991041011008001001051MW1021
0056065900999991952050718004+49617+006200FM-12+038099999V0202001N00051220001CN0200001N9+01501+00501101821ADDAY111999GF101991011011012501001001KA1999M+01611MW1011
0043065900999991952050800004+49617+006200FM-12+038099999V0200701N00411220001CN0200001N9+01001+00501101971ADDAY101999GF100991001001999999001001MW1001
0056065900999991952050806004+49617+006200FM-12+038099999V0200501N00571220001CN0160001N9+01001+00501101901ADDAY101999GF101991001001999999001051KA1999N+00781MW1021
0043065900999991952050812004+49617+006200FM-12+038099999V0201101N00671220001CN0200001N9+02001+00611101591ADDAY111999GF103991031021012501001051MW1031
0056065900999991952050818004+49617+006200FM-12+038099999V0201101N004119999999N0200001N9+02001+00611101321ADDAY111999GF106991011031012501001061KA1999M+02221MW1031
0043065900999991952050900004+49617+006200FM-12+038099999V0202701N00261012301CN0080001N9+01281+01111101531ADDAY161999GF108991061051012501999999MW1601
0056065900999991952050906004+49617+006200FM-12+038099999V0201801N00511012301CN0080001N9+01111+01111101651ADDAY161999GF108991071051012501999999KA1999N+01111MW1051
0043065900999991952050912004+49617+006200FM-12+038099999V0202701N00461007801CN0200001N9+01391+00891101781ADDAY121999GF107991061081008001999999MW1021
0056065900999991952050918004+49617+006200FM-12+038099999V0209991C00001220001CN0200001N9+01611+00781101671ADDAY121999GF103991021081012501031061KA1999M+01721MW1021
0043065900999991952051000004+49617+006200FM-12+038099999V0200901N00151220001CN0160001N9+01001+00891101831ADDAY111999GF101991001001999999031051MW1021
0056065900999991952051006004+49617+006200FM-12+038099999V0200501N00311220001CN0040001N9+01001+00891101841ADDAY111999GF102991001001999999031051KA1999N+00781MW1051
0043065900999991952051012004+49617+006200FM-12+038099999V0201601N00311012301CN0160001N9+01891+00891101541ADDAY111999GF106991061021012501999999MW1021
0056065900999991952051018004+49617+006200FM-12+038099999V0201801N004119999999N0150001N9+01891+00721101351ADDAY111999GF105991031031017501031031KA1999M+02001MW1031
0043065900999991952051100004+49617+006200FM-12+038099999V0209991C00001012301CN0120001N9+01281+00891101431ADDAY111999GF105991051051012501001001MW1021
0056065900999991952051106004+49617+006200FM-12+038099999V0201801N00211015001CN0060001N9+01221+01111101471ADDAY161999GF107991061051017501999999KA1999N+01111MW1051
0043065900999991952051112004+49617+006200FM-12+038099999V0202501N00771220001CN0200001N9+01721+00781101491ADDAY121999GF103991021081012501001051MW1021
0056065900999991952051118004+49617+006200FM-12+038099999V0202601N005119999999N0200001N9+01611+00611101441ADDAY181999GF106991041081012501001061KA1999M+01891MW1021
0043065900999991952051200004+49617+006200FM-12+038099999V0202901N00101220001CN0160001N9+01001+00721101741ADDAY121999GF105991001001999999031061MW1021
0056065900999991952051206004+49617+006200FM-12+038099999V0202701N004119999999N0160001N9+00891+00611101911ADDAY121999GF107991011051017501071061KA1999N+00781MW1021
0043065900999991952051212004+49617+006200FM-12+038099999V0202501N00621007801CN0200001N9+01221+00611101951ADDAY181999GF106991051021008001001061MW1801
0056065900999991952051218004+49617+006200FM-12+038099999V0202901N004619999999N0200001N9+01221+00611102021ADDAY181999GF105991031081008001031001KA1999M+01391MW1021
0043065900999991952051300004+49617+006200FM-12+038099999V0202701N002119999999N0140001N9+00781+00611102271ADDAY121999GF106991031051017501031001MW1011
0056065900999991952051306004+49617+006200FM-12+038099999V0202701N00051220001CN0014001N9+00611+00611102391ADDAY141999GF102991021061000751001001KA1999N+00501MW1281
0043065900999991952051312004+49617+006200FM-12+038099999V0202601N006219999999N0200001N9+01391+00221102331ADDAY111999GF106991041081008001031001MW1021
0056065900999991952051318004+49617+006200FM-12+038099999V0202901N00361220001CN0200001N9+01391+00721102301ADDAY121999GF103991021081012501031001KA1999M+01501MW1011
0043065900999991952051400004+49617+006200FM-12+038099999V0209991C00001220001CN0080001N9+00781+00721102491ADDAY111999GF101991011051017501001001MW1051
0056065900999991952051406004+49617+006200FM-12+038099999V0203601N00051220001CN0030001N9+00781+00721102431ADDAY111999GF101991001001999999001051KA1999N+00611MW1051
0043065900999991952051412004+49617+006200FM-12+038099999V0202901N00361220001CN0200001N9+01611+00391102311ADDAY111999GF103991011011012501001061MW1021
0056065900999991952051418004+49617+006200FM-12+038099999V0209991V00151220001CN0200001N9+01781+00611102151ADDAY111999GF102991001001999999001061KA1999M+01891MW1021
0043065900999991952051500004+49617+006200FM-12+038099999V0200401N00511220001CN0140001N9+01221+00501102231ADDAY111999GF100991001001999999001001MW1001
0056065900999991952051506004+49617+006200FM-12+038099999V0200501N00311220001CN0050001N9+01111+00611102221ADDAY101999GF100991001001999999001001KA1999N+00891MW1051
0043065900999991952051512004+49617+006200FM-12+038099999V0200201N00461220001CN0130001N9+01891+00891102031ADDAY101999GF100991001001999999001001MW1011
0056065900999991952051518004+49617+006200FM-12+038099999V0200501N00571220001CN0200001N9+02111+01111101821ADDAY101999GF102991021011017501001001KA1999M+02221MW1021
0043065900999991952051600004+49617+006200FM-12+038099999V0200401N00151220001CN0070001N9+01221+01111102071ADDAY101999GF100991001001999999001001MW1051
0056065900999991952051606004+49617+006200FM-12+038099999V0200401N00461220001CN0032001N9+01281+01221102051ADDAY101999GF100991001001999999001001KA1999N+01111MW1051
0043065900999991952051612004+49617+006200FM-12+038099999V0200401N00411220001CN0140001N9+01891+00891101971ADDAY111999GF104991041021012501001001MW1021
0056065900999991952051618004+49617+006200FM-12+038099999V0200201N00461220001CN0140001N9+02001+01001101951ADDAY111999GF100991001001999999001001KA1999M+02221MW1011
0043065900999991952051700004+49617+006200FM-12+038099999V0200501N00571220001CN0080001N9+01281+01001102311ADDAY101999GF100991001001999999001001MW1051
0056065900999991952051706004+49617+006200FM-12+038099999V0200501N00461220001CN0060001N9+01221+01001102381ADDAY101999GF100991001001999999001001KA1999N+01001MW1051
0043065900999991952051712004+49617+006200FM-12+038099999V0200601N00311220001CN0160001N9+01781+00721102301ADDAY111999GF101991011011008001001001MW1011
0056065900999991952051718004+49617+006200FM-12+038099999V0200701N00411220001CN0200001N9+01891+00721102071ADDAY111999GF104991001001999999001061KA1999M+02111MW1021
0043065900999991952051800004+49617+006200FM-12+038099999V0200501N00411220001CN0160001N9+01111+00391102181ADDAY111999GF100991001001999999001001MW1011
0056065900999991952051806004+49617+006200FM-12+038099999V0200501N00151220001CN0120001N9+01111+00501102021ADDAY121999GF108991001001999999071999KA1999N+01001MW1021
0043065900999991952051812004+49617+006200FM-12+038099999V0209991V00261220001CN0090001N9+01891+00501101821ADDAY161999GF101991011011017501001001MW1051
0056065900999991952051818004+49617+006200FM-12+038099999V0203101N003619999999N0120001N9+01781+01111101611ADDAY121999GF107991041081012501999999KA1999M+02111MW1031
0043065900999991952051900004+49617+006200FM-12+038099999V0203201N00311220001CN0080001N9+01281+01001101691ADDAY121999GF100991001001999999001001MW1051
0056065900999991952051906004+49617+006200FM-12+038099999V0203601N00311220001CN0030001N9+01281+01111101661ADDAY111999GF103991011021012501001051KA1999N+01111MW1051
0043065900999991952051912004+49617+006200FM-12+038099999V0203601N00621012301CN0100001N9+02001+01001101531ADDAY111999GF105991051081012501001001MW1021
0056065900999991952051918004+49617+006200FM-12+038099999V0203401N00671220001CN0160001N9+01781+01001101531ADDAY111999GF104991001001999999001061KA1999M+02221MW1021
0043065900999991952052000004+49617+006200FM-12+038099999V0200201N00721220001CN0160001N9+01221+00281101841ADDAY111999GF100991001001999999001001MW1001
0056065900999991952052006004+49617+006200FM-12+038099999V0200401N00671220001CN0160001N9+00891+00281102071ADDAY101999GF102991001001999999001051KA1999N+00721MW1021
0043065900999991952052012004+49617+006200FM-12+038099999V0200601N00721220001CN0200001N9+01501-00221102071ADDAY101999GF101991011011012501001011MW1021
0056065900999991952052018004+49617+006200FM-12+038099999V0200701N00821220001CN0200001N9+01391-00391102161ADDAY101999GF101991011011012501001001KA1999M+01721MW1021
0043065900999991952052900004+49617+006200FM-12+038099999V0202701N00511007801CN0060001N9+01111+01001101171ADDAY121999GF108991051051008001021999MW1051
0056065900999991952052906004+49617+006200FM-12+038099999V0202501N00671001501CN0040001N9+01111+01001101101ADDAY161999GF108991071071001501999999KA1999N+01001MW1211
0043065900999991952052912004+49617+006200FM-12+038099999V0202901N00771012301CN0160001N9+01281+00391101231ADDAY121999GF107991051081012501999999MW1021
0056065900999991952052918004+49617+006200FM-12+038099999V0202701N00621015001CN0160001N9+01281+00281101421ADDAY121999GF107991071051017501999999KA1999M+01391MW1021
0043065900999991952053000004+49617+006200FM-12+038099999V0202901N00461007801CN0160001N9+00781+00611101721ADDAY161999GF108991071051008001999999MW1211
0056065900999991952053006004+49617+006200FM-12+038099999V0202301N00211220001CN0024001N9+00781+00721101831ADDAY121999GF100991001001999999001001KA1999N+00611MW1051
0043065900999991952053012004+49617+006200FM-12+038099999V0202701N005119999999N0200001N9+01281+00501101911ADDAY121999GF107991041051008001999999MW1021
0056065900999991952053018004+49617+006200FM-12+038099999V0202001N00211220001CN0200001N9+01611+00781101711ADDAY121999GF104991031021017501001061KA1999M+01721MW1021
0043065900999991952053100004+49617+006200FM-12+038099999V0201101N00211220001CN0200001N9+01111+00721101721ADDAY111999GF102991011051017501001051MW1011
0056065900999991952053106004+49617+006200FM-12+038099999V0201101N002119999999N0060001N9+01221+00781101471ADDAY111999GF106991011051017501031061KA1999N+01001MW1051
0043065900999991952053112004+49617+006200FM-12+038099999V0201801N007219999999N0120001N9+02001+01281101181ADDAY121999GF107991041081008001071999MW1021
0056065900999991952053118004+49617+006200FM-12+038099999V0202001N004619999999N0200001N9+01721+01391101211ADDAY161999GF107991021081008001999999KA1999M+02221MW1021
0043065900999991952060100004+49617+006200FM-12+038099999V0202001N006719999999N0090001N9+01391+01391101221ADDAY181999GF108991041071004501021999MW1211
0056065900999991952060106004+49617+006200FM-12+038099999V0202101N00671001501CN0080001N9+01391+01391101231ADDAY161999GF108991071071001501999999KA1999N+01391MW1201
0062065900999991952060112004+49617+006200FM-12+038099999V0202301N010319999999N0200001N9+02001+01281101351ADDAY161999GF105991999081008001001001MW1021EQDQ01+000042SCOTLC
0056065900999991952060118004+49617+006200FM-12+038099999V0201801N003619999999N0100001N9+01501+01221101271ADDAY191999GF107991041091008001071031KA1999M+02221MW1291
0043065900999991952060200004+49617+006200FM-12+038099999V0202001N005719999999N0160001N9+01281+01281101431ADDAY191999GF105991021051008001031999MW1021
0075065900999991952060206004+49617+006200FM-12+038099999V0202501N011819999999N0200001N9+01221+00891101801ADDAY121999GF105991999081008001001001KA1999N+01221MW1021EQDQ01+000032SCOTLC
0043065900999991952060212004+49617+006200FM-12+038099999V0202301N01231220001CN0200001N9+01721+00721102051ADDAY111999GF104991041011012501001001MW1021
0056065900999991952060218004+49617+006200FM-12+038099999V0202401N00821220001CN0200001N9+01721+00391102121ADDAY111999GF103991021011017501001061KA1999M+01891MW1021
0043065900999991952060300004+49617+006200FM-12+038099999V0202601N001519999999N0160001N9+01111+00781102381ADDAY121999GF105991011051017501001061MW1021
0056065900999991952060306004+49617+006200FM-12+038099999V0209991V00101220001CN0200001N9+01111+00891102611ADDAY181999GF104991041051017501001001KA1999N+01001MW1011
0043065900999991952060312004+49617+006200FM-12+038099999V0202701N00621220001CN0200001N9+01611+00281102691ADDAY111999GF104991041021012501001001MW1021
0056065900999991952060318004+49617+006200FM-12+038099999V0202701N00721220001CN0200001N9+01611+00111102731ADDAY111999GF102991021021012501001001KA1999M+01721MW1011
0043065900999991952060400004+49617+006200FM-12+038099999V0200201N00461220001CN0160001N9+00891+00611103031ADDAY101999GF100991001001999999001001MW1001
0056065900999991952060406004+49617+006200FM-12+038099999V0200501N00461220001CN0160001N9+01001+00721103071ADDAY101999GF100991001001999999001001KA1999N+00721MW1001
0043065900999991952060412004+49617+006200FM-12+038099999V0200501N00211220001CN0200001N9+01611+00281102911ADDAY111999GF102991021011012501001001MW1021
0056065900999991952060418004+49617+006200FM-12+038099999V0200501N00361220001CN0200001N9+01781+00391102581ADDAY101999GF101991001001999999001011KA1999M+01891MW1021
0043065900999991952060500004+49617+006200FM-12+038099999V0200501N00411220001CN0160001N9+01221+00281102581ADDAY101999GF100991001001999999001001MW1001
0056065900999991952060506004+49617+006200FM-12+038099999V0200701N00311220001CN0160001N9+01221+00501102411ADDAY101999GF101991001001999999001061KA1999N+01001MW1021
0043065900999991952060512004+49617+006200FM-12+038099999V0201801N00571220001CN0160001N9+02111+00611102091ADDAY111999GF101991011011012501001051MW1021
0056065900999991952060518004+49617+006200FM-12+038099999V0201801N002119999999N0200001N9+02221+01001101801ADDAY111999GF106991011011017501001061KA1999M+02391MW1031
0043065900999991952060600004+49617+006200FM-12+038099999V0209991C00001220001CN0160001N9+01611+00891101831ADDAY111999GF105991001001999999031061MW1021
0056065900999991952060606004+49617+006200FM-12+038099999V0201401N001019999999N0080001N9+01611+01001101591ADDAY111999GF106991021081008001001051KA1999N+01281MW1051
0043065900999991952060612004+49617+006200FM-12+038099999V0200901N00361007801CN0140001N9+01501+01501101531ADDAY191999GF108991051051008001071999MW1211
0056065900999991952060618004+49617+006200FM-12+038099999V0202001N008219999999N0200001N9+01891+01281101181ADDAY191999GF106991041081004501001061KA1999M+02001MW1021
0043065900999991952060700004+49617+006200FM-12+038099999V0203201N005719999999N0100001N9+01281+01221101271ADDAY191999GF108991041091002501999999MW1951
0056065900999991952060706004+49617+006200FM-12+038099999V0202501N00571001501CN0030001N9+01221+01221101251ADDAY181999GF108991071071001501999999KA1999N+01221MW1211
0043065900999991952060712004+49617+006200FM-12+038099999V0202701N007719999999N0160001N9+01611+01221101351ADDAY161999GF107991041081008001999999MW1011
0056065900999991952060718004+49617+006200FM-12+038099999V0203601N002119999999N0150001N9+01281+01001101741ADDAY181999GF107991031081008001999999KA1999M+01721MW1021
0043065900999991952060800004+49617+006200FM-12+038099999V0203401N00461012301CN0120001N9+00891+00721102091ADDAY121999GF107991051081012501031051MW1021
0056065900999991952060806004+49617+006200FM-12+038099999V0200101N00411220001CN0160001N9+00781+00501102301ADDAY121999GF103991001001999999001061KA1999N+00611MW1031
0043065900999991952060812004+49617+006200FM-12+038099999V0203601N00511012301CN0200001N9+01391+00111102221ADDAY111999GF106991061021012501001001MW1021
0056065900999991952060818004+49617+006200FM-12+038099999V0201401N00101220001CN0200001N9+01391+00391102161ADDAY111999GF104991041051012501001001KA1999M+01501MW1011
0043065900999991952060900004+49617+006200FM-12+038099999V0209991C00001220001CN0100001N9+01001+00781102201ADDAY121999GF108991001001999999031999MW1021
0056065900999991952060906004+49617+006200FM-12+038099999V0200901N00101220001CN0060001N9+01001+00781102121ADDAY161999GF107991001001999999071999KA1999N+00891MW1601
0043065900999991952060912004+49617+006200FM-12+038099999V0202701N005119999999N0200001N9+01501+00891102121ADDAY161999GF108991041081008001021999MW1021
0056065900999991952060918004+49617+006200FM-12+038099999V0202901N001519999999N0200001N9+01391+01111102141ADDAY121999GF108991031081008001071999KA1999M+01501MW1021
0043065900999991952061000004+49617+006200FM-12+038099999V0209991C00001012301CN0080001N9+01111+01001102241ADDAY111999GF106991051051012501999999MW1051
0056065900999991952061006004+49617+006200FM-12+038099999V0200201N001019999999N0060001N9+01221+01221102201ADDAY111999GF107991031051012501031061KA1999N+00891MW1051
0043065900999991952061012004+49617+006200FM-12+038099999V0202301N00511012301CN0200001N9+01781+01111102061ADDAY121999GF106991051081012501999999MW1021
0056065900999991952061018004+49617+006200FM-12+038099999V0201801N00671220001CN0200001N9+01891+00891101861ADDAY111999GF102991011021017501001011KA1999M+02111MW1021
0043065900999991952061100004+49617+006200FM-12+038099999V0203201N00051220001CN0080001N9+01001+00891102031ADDAY101999GF100991001001999999001001MW1051
0056065900999991952061106004+49617+006200FM-12+038099999V0202701N00211220001CN0040001N9+01111+01001101871ADDAY111999GF101991001001999999001051KA1999N+00781MW1051
0043065900999991952061112004+49617+006200FM-12+038099999V0202501N00671012301CN0160001N9+01891+00781101721ADDAY111999GF106991051081012501001061MW1021
0056065900999991952061118004+49617+006200FM-12+038099999V0202901N00461220001CN0160001N9+02001+01111101581ADDAY111999GF104991031021012501001051KA1999M+02111MW1021
0043065900999991952061200004+49617+006200FM-12+038099999V0200201N00411220001CN0080001N9+01221+01001101831ADDAY111999GF100991001001999999001001MW1051
0056065900999991952061206004+49617+006200FM-12+038099999V0201101N00151220001CN0030001N9+01281+01111101871ADDAY101999GF101991001001999999001011KA1999N+00891MW1051
0043065900999991952061212004+49617+006200FM-12+038099999V0200601N00261220001CN0200001N9+01891+01221101621ADDAY111999GF102991021011012501001001MW1011
0056065900999991952061218004+49617+006200FM-12+038099999V0200501N00411220001CN0200001N9+02111+01281101391ADDAY101999GF100991001001999999001001KA1999M+02221MW1011
0043065900999991952061300004+49617+006200FM-12+038099999V0200501N00461220001CN0120001N9+01391+01221101491ADDAY101999GF100991001001999999001001MW1001
0056065900999991952061306004+49617+006200FM-12+038099999V0200801N00101220001CN0060001N9+01501+01221101421ADDAY111999GF103991011051017501001061KA1999N+01111MW1051
0043065900999991952061312004+49617+006200FM-12+038099999V0202001N00621220001CN0080001N9+02281+01611101301ADDAY111999GF104991041021012501001001MW1051
0056065900999991952061318004+49617+006200FM-12+038099999V0202301N00621220001CN0200001N9+02221+01391101181ADDAY111999GF104991021031012501031061KA1999M+02391MW1021
0043065900999991952061400004+49617+006200FM-12+038099999V0202301N00511220001CN0080001N9+01611+01391101291ADDAY111999GF103991031051012501001001MW1051
0056065900999991952061406004+49617+006200FM-12+038099999V0202401N006219999999N0080001N9+01281+01281101311ADDAY111999GF105991041061002501999999KA1999N+01281MW1051
0043065900999991952061412004+49617+006200FM-12+038099999V0202501N00871004501CN0090001N9+01391+01281101291ADDAY181999GF108991051081004501999999MW1251
0056065900999991952061418004+49617+006200FM-12+038099999V0202901N004619999999N0060001N9+01611+01501101131ADDAY181999GF106991041081008001999999KA1999M+01721MW1251
0043065900999991952061500004+49617+006200FM-12+038099999V0202701N00461007801CN0050001N9+01391+01281101171ADDAY121999GF106991061051008001001001MW1051
0056065900999991952061506004+49617+006200FM-12+038099999V0202301N00411007801CN0032001N9+01281+01281101111ADDAY121999GF106991061051008001999999KA1999N+01281MW1051
0043065900999991952061512004+49617+006200FM-12+038099999V0202601N004119999999N0100001N9+01611+01111100961ADDAY121999GF107991041081004501999999MW1021
0056065900999991952061518004+49617+006200FM-12+038099999V0202901N003619999999N0160001N9+01891+01221100591ADDAY121999GF106991021081012501031061KA1999M+02001MW1011
0043065900999991952061600004+49617+006200FM-12+038099999V0203201N00211220001CN0090001N9+01111+01001100981ADDAY181999GF103991031051008001001001MW1051
0056065900999991952061606004+49617+006200FM-12+038099999V0203401N00101007801CN0030001N9+01001+00891101181ADDAY121999GF106991061051008001999999KA1999N+01001MW1051
0043065900999991952061612004+49617+006200FM-12+038099999V0203201N003619999999N0160001N9+01281+00501101361ADDAY121999GF106991041081012501001061MW1021
0056065900999991952061618004+49617+006200FM-12+038099999V0202701N00361220001CN0200001N9+01721+00611101441ADDAY111999GF104991031081017501031001KA1999M+01891MW1021
0043065900999991952061700004+49617+006200FM-12+038099999V0200501N00261220001CN0160001N9+01001+00721101591ADDAY111999GF100991001001999999001001MW1011
0056065900999991952061706004+49617+006200FM-12+038099999V0201101N002119999999N0090001N9+01221+00781101441ADDAY121999GF108991041051012501071999KA1999N+00891MW1051
0043065900999991952061712004+49617+006200FM-12+038099999V0201801N00621220001CN0150001N9+02001+01281101171ADDAY121999GF107991001001999999071999MW1021
0056065900999991952061718004+49617+006200FM-12+038099999V0201601N00411220001CN0160001N9+02221+01721100911ADDAY121999GF104991031031012501031001KA1999M+02221MW1021
0062065900999991952061800004+49617+006200FM-12+038099999V0200801N00211220001CN0200001N9+01391+01281101021ADDAY111999GF105991999001999999031001MW1031EQDQ01+000002SCOTLC
0056065900999991952061806004+49617+006200FM-12+038099999V0201801N006219999999N0070001N9+01611+01501100941ADDAY181999GF107991021081012501031999KA1999N+01501MW1051
0043065900999991952061812004+49617+006200FM-12+038099999V0202301N00511004501CN0080001N9+01721+01501100961ADDAY181999GF108991061081004501999999MW1801
0056065900999991952061818004+49617+006200FM-12+038099999V0202701N00511012301CN0140001N9+01611+01221101251ADDAY181999GF106991051051012501031051KA1999M+01721MW1251
0043065900999991952061900004+49617+006200FM-12+038099999V0202701N00361220001CN0080001N9+01111+01001101701ADDAY181999GF104991041051012501001001MW1051
0056065900999991952061906004+49617+006200FM-12+038099999V0202701N00361220001CN0140001N9+00891+00611102051ADDAY101999GF100991001001999999001001KA1999N+00781MW1001
0043065900999991952061912004+49617+006200FM-12+038099999V0202701N00571007801CN0200001N9+01501+00611102181ADDAY111999GF105991051021008001001001MW1021
0075065900999991952061918004+49617+006200FM-12+038099999V0202801N00571220001CN0200001N9+01501+00611102141ADDAY111999GF104991999081012501001001KA1999M+01781MW1021EQDQ01+000022SCOTLC
0043065900999991952062000004+49617+006200FM-12+038099999V0202901N00211220001CN0200001N9+00891+00721102351ADDAY111999GF101991011051017501001001MW1021
0056065900999991952062006004+49617+006200FM-12+038099999V0202901N00151220001CN0120001N9+01001+00781102351ADDAY121999GF103991001001999999031051KA1999N+00891MW1011
0043065900999991952062012004+49617+006200FM-12+038099999V0202801N008719999999N0200001N9+01391+00391102311ADDAY121999GF107991031081012501031061MW1031
0056065900999991952062018004+49617+006200FM-12+038099999V0203101N005119999999N0200001N9+01391+00611102291ADDAY121999GF106991011081012501031051KA1999M+01501MW1011
0043065900999991952062100004+49617+006200FM-12+038099999V0202701N003119999999N0160001N9+01111+00721102451ADDAY121999GF107991031051017501071999MW1021
0056065900999991952062106004+49617+006200FM-12+038099999V0202501N00671015001CN0120001N9+01001+00721102471ADDAY121999GF106991061051017501999999KA1999N+01001MW1021
0043065900999991952062112004+49617+006200FM-12+038099999V0202501N00671007801CN0080001N9+01111+00891102501ADDAY161999GF108991051051008001071999MW1601
0056065900999991952062118004+49617+006200FM-12+038099999V0202301N00821012301CN0200001N9+01391+00781102341ADDAY181999GF106991051081012501001061KA1999M+01501MW1021
0043065900999991952062200004+49617+006200FM-12+038099999V0202301N00411220001CN0160001N9+01111+00891102191ADDAY121999GF104991021051017501001061MW1021
0056065900999991952062206004+49617+006200FM-12+038099999V0202301N004619999999N0160001N9+01111+00891101931ADDAY121999GF108991031051008001999999KA1999N+00891MW1021
0043065900999991952062212004+49617+006200FM-12+038099999V0202301N01181012301CN0200001N9+01721+00721101591ADDAY121999GF107991051051012501999999MW1021
0056065900999991952062218004+49617+006200FM-12+038099999V0202701N00671012301CN0200001N9+01611+01221101441ADDAY161999GF107991051051012501031999KA1999M+01891MW1021
0043065900999991952062300004+49617+006200FM-12+038099999V0202701N00511012301CN0160001N9+01281+01221101491ADDAY111999GF105991051051012501001001MW1011
