0057065900999991973010100004+49633+006200FM-12+0378ELLX V0200501N00411220001CN0120001N9-00301-01101102811ADDAY101999GF100991001001999999001001MD1810061+9999MW1021
0037065900999991973010100204+49633+006200FM-15+0378ELLX V0200401N002519999999N0100001N9-00501-01101999999ADDMA1102511999999EQDQ01+000000PRSWM2
0037065900999991973010100504+49633+006200FM-15+0378ELLX V0200401N003019999999N0100001N9-00501-01101999999ADDMA1102511999999EQDQ01+000000PRSWM2
0057065900999991973010101004+49633+006200FM-12+0378ELLX V0200401N00301220001CN0120001N9-00501-01101102811ADDAY101999GF100991001001999999001001MD1810061+9999MW1021
0037065900999991973010101504+49633+006200FM-15+0378ELLX V0200701N003019999999N0100001N9-00501-01001999999ADDMA1102511999999EQDQ01+000000PRSWM2
0057065900999991973010102004+49633+006200FM-12+0378ELLX V0200701N00301220001CN0120001N9-00501-01001102851ADDAY101999GF100991001001999999001001MD1610061+9999MW1021
0037065900999991973010102204+49633+006200FM-15+0378ELLX V0200701N003619999999N0100001N9-00501-01001999999ADDMA1102511999999EQDQ01+000000PRSWM2
0037065900999991973010102504+49633+006200FM-15+0378ELLX V0200601N003619999999N0100001N9-00401-01001999999ADDMA1102511999999EQDQ01+000000PRSWM2
0043065900999991973010103004+49633+006200FM-12+0378ELLX V0200601N00361220001CN0120001N9-00401+99999102831ADDAY101999GF100991001001999999001001MW1021
0037065900999991973010103204+49633+006200FM-15+0378ELLX V0200601N003619999999N0100001N9-00501-01001999999ADDMA1102511999999EQDQ01+000000PRSWM2
0037065900999991973010103504+49633+006200FM-15+0378ELLX V0200601N003619999999N0100001N9-00401-01101999999ADDMA1102511999999EQDQ01+000000PRSWM2
0057065900999991973010104004+49633+006200FM-12+0378ELLX V0200601N00361220001CN0120001N9-00401-01101102841ADDAY101999GF100991001001999999001001MD1410001+9999MW1021
0037065900999991973010104504+49633+006200FM-15+0378ELLX V0200601N004119999999N0100001N9-00301-01101999999ADDMA1102511999999EQDQ01+000000PRSWM2
0057065900999991973010105004+49633+006200FM-12+0378ELLX V0200601N00411220001CN0120001N9-00301-01101102811ADDAY101999GF100991001001999999001001MD1410001+9999MW1021
0037065900999991973010105204+49633+006200FM-15+0378ELLX V0200601N002519999999N0100001N9-00501-01101999999ADDMA1102511999999EQDQ01+000000PRSWM2
0037065900999991973010105504+49633+006200FM-15+0378ELLX V0200501N003619999999N0100001N9-00301-01101999999ADDMA1102511999999EQDQ01+000000PRSWM2
0043065900999991973010106004+49633+006200FM-12+0378ELLX V0200501N00361220001CN0120001N9-00301+99999102811ADDAY101999GF100991001001999999001001MW1021
0057065900999991973010107004+49633+006200FM-12+0378ELLX V0200701N00201220001CN0120001N9-00501-01201102851ADDAY101999GF100991001001999999001001MD1410001+9999MW1021
0037065900999991973010107204+49633+006200FM-15+0378ELLX V0200801N003619999999N0100001N9-00601-01101999999ADDMA1102511999999EQDQ01+000000PRSWM2
0067065900999991973010107504+49633+006200FM-15+0378ELLX V0200601N00361220001CN0070001N9-00401-01201999999ADDGA1011+060009009MA1102611999999REMMET005NOSIGEQDQ01+000000PRSWM2
0073065900999991973010108004+49633+006200FM-12+0378ELLX V0200601N00361220001CN0070001N9-00401-01201102881ADDAY101999GA1011+060009009GF101991001001999999001021MD1310051+9999MW1031
0051065900999991973010108204+49633+006200FM-15+0378ELLX V0200701N003619999999N0070001N9-00201-01101999999ADDMA1102611999999REMMET005NOSIGEQDQ01+000000PRSWM2
0067065900999991973010108504+49633+006200FM-15+0378ELLX V0200601N00251220001CN0080001N9-00101-01001999999ADDGA1011+060009009MA1102511999999REMMET005NOSIGEQDQ01+000000PRSWM2
0057065900999991973010109004+49633+006200FM-12+0378ELLX V0200601N00251220001CN0080001N9-00101-01001102811ADDAY101999GF101991001001999999001021MD1010041+9999MW1021
0067065900999991973010109204+49633+006200FM-15+0378ELLX V0200501N00461220001CN0080001N9+00001-01101999999ADDGA1011+060009009MA1102511999999REMMET005NOSIGEQDQ01+000000PRSWM2
0067065900999991973010109504+49633+006200FM-15+0378ELLX V0200501N00561220001CN0080001N9+00101-00901999999ADDGA1011+060009009MA1102511999999REMMET005NOSIGEQDQ01+000000PRSWM2
0073065900999991973010110004+49633+006200FM-12+0378ELLX V0200501N00561220001CN0080001N9+00101-00901102721ADDAY101999GA1011+060009009GF101991001001999999001021MD1810011+9999MW1021
0067065900999991973010110204+49633+006200FM-15+0378ELLX V0200501N00611220001CN0080001N9+00301-01201999999ADDGA1011+060009009MA1102511999999REMMET005NOSIGEQDQ01+000000PRSWM2
0037065900999991973010111204+49633+006200FM-15+0378ELLX V0200601N004119999999N0100001N9+00201-01001999999ADDMA1102511999999EQDQ01+000000PRSWM2
0037065900999991973010111504+49633+006200FM-15+0378ELLX V0200501N004119999999N0100001N9+00201-01101999999ADDMA1102511999999EQDQ01+000000PRSWM2
0071065900999991973010112004+49633+006200FM-12+0378ELLX V0200501N00411220001CN0100001N9+00201-01101102661ADDAY101999GF101991001001999999001021MD1810091+9999MW1021REMSYN005209**
0037065900999991973010112204+49633+006200FM-15+0378ELLX V0200701N004119999999N0100001N9+00301-01101999999ADDMA1102401999999EQDQ01+000000PRSWM2
0037065900999991973010112504+49633+006200FM-15+0378ELLX V0200701N003619999999N0100001N9+00301-01001999999ADDMA1102401999999EQDQ01+000000PRSWM2
0073065900999991973010113004+49633+006200FM-12+0378ELLX V0200701N00361220001CN0120001N9+00301-01001102611ADDAY101999GA1011+060009009GF101991001001999999001021MD1810081+9999MW1021
0037065900999991973010113204+49633+006200FM-15+0378ELLX V0200601N004619999999N0100001N9+00401-01001999999ADDMA1102401999999EQDQ01+000000PRSWM2
0037065900999991973010113504+49633+006200FM-15+0378ELLX V0200401N004619999999N0100001N9+00401-01001999999ADDMA1102401999999EQDQ01+000000PRSWM2
0073065900999991973010114004+49633+006200FM-12+0378ELLX V0200401N00461220001CN0160001N9+00401-01001102571ADDAY101999GA1011+060009009GF101991001001999999001021MD1710121+9999MW1021
0037065900999991973010114204+49633+006200FM-15+0378ELLX V0200501N004119999999N0100001N9+00401-01001999999ADDMA1102401999999EQDQ01+000000PRSWM2
0037065900999991973010114504+49633+006200FM-15+0378ELLX V0200501N004119999999N0100001N9+00301-01101999999ADDMA1102401999999EQDQ01+000000PRSWM2
0057065900999991973010115004+49633+006200FM-12+0378ELLX V0200501N00411220001CN0200001N9+00301-01101102571ADDAY101999GF101991001001999999001021MD1610071+9999MW1021
0037065900999991973010115204+49633+006200FM-15+0378ELLX V0200501N003619999999N0100001N9+00201-01001999999ADDMA1102401999999EQDQ01+000000PRSWM2
0037065900999991973010115504+49633+006200FM-15+0378ELLX V0200501N003619999999N0100001N9+00101-00901999999ADDMA1102401999999EQDQ01+000000PRSWM2
0073065900999991973010116004+49633+006200FM-12+0378ELLX V0200501N00361220001CN0250001N9+00101-00901102591ADDAY101999GA1011+060009009GF101991001001999999001021MD1610041+9999MW1021
0037065900999991973010116204+49633+006200FM-15+0378ELLX V0200501N003619999999N0100001N9+00101-00901999999ADDMA1102401999999EQDQ01+000000PRSWM2
0073065900999991973010117004+49633+006200FM-12+0378ELLX V0200601N00251220001CN0250001N9+00001-00801102631ADDAY101999GA1011+060009009GF101991001001999999001021MD1510011+9999MW1021
0037065900999991973010117204+49633+006200FM-15+0378ELLX V0200701N002519999999N0100001N9-00101-00901999999ADDMA1102401999999EQDQ01+000000PRSWM2
0037065900999991973010117504+49633+006200FM-15+0378ELLX V0200501N003019999999N0100001N9-00201-00901999999ADDMA1102401999999EQDQ01+000000PRSWM2
0081065900999991973010118004+49633+006200FM-12+0378ELLX V0200501N00301220001CN0250001N9-00201-00901102661ADDAA199000091AY101999GF101991001001999999001021KA1999M+00401MD1310011+9999MW1021
0037065900999991973010118504+49633+006200FM-15+0378ELLX V0200401N003019999999N0100001N9-00101-00801999999ADDMA1102401999999EQDQ01+000000PRSWM2
0037065900999991973010119204+49633+006200FM-15+0378ELLX V0200201N003019999999N0100001N9+00101-00701999999ADDMA1102401999999EQDQ01+000000PRSWM2
0037065900999991973010119504+49633+006200FM-15+0378ELLX V0200501N004119999999N0100001N9+00101-00701999999ADDMA1102401999999EQDQ01+000000PRSWM2
0057065900999991973010120004+49633+006200FM-12+0378ELLX V0200501N00411220001CN0250001N9+00101-00701102681ADDAY101999GF100991001001999999001001MD1310061+9999MW1021
0037065900999991973010120504+49633+006200FM-15+0378ELLX V0200401N004119999999N0100001N9+00001-00701999999ADDMA1102511999999EQDQ01+000000PRSWM2
0057065900999991973010121004+49633+006200FM-12+0378ELLX V0200701N00201220001CN0300001N9-00301-00701102781ADDAY101999GF100991001001999999001001MD1310021+9999MW1021
0037065900999991973010121204+49633+006200FM-15+0378ELLX V0200501N004619999999N0100001N9+00101-00701999999ADDMA1102511999999EQDQ01+000000PRSWM2
0052065900999991973010121504+49633+006200FM-15+0378ELLX V0209999999999999991CY0099001N1+00101-00701999999ADDMA1102511999999REMMET006NOSIG%EQDQ01+000000PRSWM2
0057065900999991973010122004+49633+006200FM-12+0378ELLX V0200501N00411220001CN0250001N9+00101-00701102681ADDAY101999GF100991001001999999001001MD1310061+9999MW1021
0037065900999991973010122504+49633+006200FM-15+0378ELLX V0200501N003019999999N0100001N9-00101-00701999999ADDMA1102511999999EQDQ01+000000PRSWM2
0057065900999991973010123004+49633+006200FM-12+0378ELLX V0200501N00301220001CN0300001N9-00101-00701102721ADDAY101999GF100991001001999999001001MD1110011+9999MW1021
0037065900999991973010123204+49633+006200FM-15+0378ELLX V0200601N002519999999N0100001N9-00101-00701999999ADDMA1102511999999EQDQ01+000000PRSWM2
0037065900999991973010123504+49633+006200FM-15+0378ELLX V0200701N002019999999N0100001N9-00301-00701999999ADDMA1102511999999EQDQ01+000000PRSWM2
0057065900999991973010200004+49633+006200FM-12+0378ELLX V0200701N00201220001CN0300001N9-00301-00701102781ADDAY101999GF100991001001999999001001MD1310021+9999MW1021
0037065900999991973010200204+49633+006200FM-15+0378ELLX V0200801N003019999999N0100001N9-00401-00801999999ADDMA1102511999999EQDQ01+000000PRSWM2
0037065900999991973010200504+49633+006200FM-15+0378ELLX V0200601N002519999999N0100001N9-00401-00801999999ADDMA1102511999999EQDQ01+000000PRSWM2
0057065900999991973010201004+49633+006200FM-12+0378ELLX V0200601N00251220001CN0300001N9-00401-00801102831ADDAY101999GF100991001001999999001001MD1110051+9999MW1021
0037065900999991973010201204+49633+006200FM-15+0378ELLX V0200201N003019999999N0100001N9-00201-00701999999ADDMA1102511999999EQDQ01+000000PRSWM2
0037065900999991973010201504+49633+006200FM-15+0378ELLX V0200701N002019999999N0100001N9-00401-00701999999ADDMA1102611999999EQDQ01+000000PRSWM2
0057065900999991973010202004+49633+006200FM-12+0378ELLX V0200701N00201220001CN0300001N9-00401-00801102881ADDAY101999GF100991001001999999001001MD1310101+9999MW1021
0037065900999991973010202204+49633+006200FM-15+0378ELLX V0200301N002519999999N0100001N9-00301-00701999999ADDMA1102611999999EQDQ01+000000PRSWM2
0037065900999991973010202504+49633+006200FM-15+0378ELLX V0200901N002019999999N0100001N9-00401-00801999999ADDMA1102611999999EQDQ01+000000PRSWM2
0043065900999991973010203004+49633+006200FM-12+0378ELLX V0200901N00201220001CN0250001N9-00401+99999102881ADDAY101999GF100991001001999999001001MW1021
0037065900999991973010203504+49633+006200FM-15+0378ELLX V0200401N004119999999N0100001N9-00301-00701999999ADDMA1102511999999EQDQ01+000000PRSWM2
0057065900999991973010204004+49633+006200FM-12+0378ELLX V0200501N00361220001CN0250001N9-00201-00701102821ADDAY101999GF100991001001999999001001MD1010031+9999MW1021
0037065900999991973010204204+49633+006200FM-15+0378ELLX V0200501N003619999999N0100001N9-00201-00701999999ADDMA1102511999999EQDQ01+000000PRSWM2
0057065900999991973010205004+49633+006200FM-12+0378ELLX V0200701N00251220001CN0250001N9-00201-00701102821ADDAY101999GF100991001001999999001001MD1710021+9999MW1021
0037065900999991973010205204+49633+006200FM-15+0378ELLX V0200401N003019999999N0100001N9-00301-00801999999ADDMA1102611999999EQDQ01+000000PRSWM2
0037065900999991973010205504+49633+006200FM-15+0378ELLX V0200801N002519999999N0100001N9-00501-00801999999ADDMA1102611999999EQDQ01+000000PRSWM2
0057065900999991973010206004+49633+006200FM-12+0378ELLX V0200801N00251220001CN0250001N9-00501-00801102911ADDAY101999GF100991001001999999001001MD1110011+9999MW1021
0037065900999991973010206204+49633+006200FM-15+0378ELLX V0200601N002519999999N0100001N9-00501-00801999999ADDMA1102611999999EQDQ01+000000PRSWM2
0073065900999991973010207004+49633+006200FM-12+0378ELLX V0200601N00051220001CN0250001N9-00501-00801102981ADDAY101999GA1011+033009039GF101991011001999999041021MD1310091+9999MW1031
0037065900999991973010207204+49633+006200FM-15+0378ELLX V0200601N001019999999N0100001N9-00401-00801999999ADDMA1102611999999EQDQ01+000000PRSWM2
0054065900999991973010207504+49633+006200FM-15+0378ELLX V0200401N00251220001CN0050001N9-00401-00801999999ADDGA1011+033009039MA1102711999999MW1401REMMET005NOSIG
0073065900999991973010208004+49633+006200FM-12+0378ELLX V0200401N00251220001CN0050001N9-00401-00801103021ADDAY101999GA1011+033009039GF101991011001999999041021MD1310151+9999MW1401
0067065900999991973010208204+49633+006200FM-15+0378ELLX V0200401N00201220001CN0060001N9-00301-00701999999ADDGA1011+033009039MA1102711999999REMMET005NOSIGEQDQ01+000000PRSWM2
0067065900999991973010208504+49633+006200FM-15+0378ELLX V0200401N00101220001CN0060001N9-00101-00501999999ADDGA1011+033009039MA1102811999999REMMET005NOSIGEQDQ01+000000PRSWM2
0057065900999991973010209004+49633+006200FM-12+0378ELLX V0200401N00101220001CN0060001N9-00101-00501103041ADDAY101999GF101991011001999999041021MD1110201+9999MW1021
0067065900999991973010209204+49633+006200FM-15+0378ELLX V0200501N00251220001CN0060001N9+00001-00601999999ADDGA1011+060009009MA1102811999999REMMET005NOSIGEQDQ01+000000PRSWM2
0067065900999991973010209504+49633+006200FM-15+0378ELLX V0200501N00361220001CN0070001N9+00101-00601999999ADDGA1011+060009009MA1102811999999REMMET005NOSIGEQDQ01+000000PRSWM2
0092065900999991973010210004+49633+006200FM-12+0378ELLX V0200501N00361220001CN0070001N9+00101-00601103001ADDAY101999GA1011+060009009GF101991001001999999001021MD1110141+9999MW1021EQDQ01+000012SCOTLC
0067065900999991973010210204+49633+006200FM-15+0378ELLX V0200501N00361220001CN0070001N9+00101-00701999999ADDGA1011+060009009MA1102811999999REMMET005NOSIGEQDQ01+000000PRSWM2
0073065900999991973010211004+49633+006200FM-12+0378ELLX V0200601N00411220001CN0060001N9+00101-00701103001ADDAY101999GA1011+060009009GF101991001001999999001021MD1010071+9999MW1021
0067065900999991973010211204+49633+006200FM-15+0378ELLX V0200601N00301220001CN0060001N9+00201-00601999999ADDGA1011+060009009MA1102711999999REMMET005NOSIGEQDQ01+000000PRSWM2
0067065900999991973010212204+49633+006200FM-15+0378ELLX V0201001N00251220001CN0070001N9+00301-00601999999ADDGA1011+060009009MA1102711999999REMMET005NOSIGEQDQ01+000000PRSWM2
0037065900999991973010212504+49633+006200FM-15+0378ELLX V0200501N001519999999N0100001N9+00301-00601999999ADDMA1102711999999EQDQ01+000000PRSWM2
0073065900999991973010213004+49633+006200FM-12+0378ELLX V0200501N00151220001CN0100001N9+00301-00601102881ADDAY101999GA1011+060009009GF101991001001999999001021MD1710091+9999MW1021
0037065900999991973010213204+49633+006200FM-15+0378ELLX V0200701N002019999999N0100001N9+00401-00601999999ADDMA1102611999999EQDQ01+000000PRSWM2
0073065900999991973010214004+49633+006200FM-12+0378ELLX V0200601N00251220001CN0100001N9+00401-00601102841ADDAY101999GA1011+060009009GF101991001001999999001021MD1610111+9999MW1021
0037065900999991973010214204+49633+006200FM-15+0378ELLX V0200801N001519999999N0100001N9+00301-00601999999ADDMA1102711999999EQDQ01+000000PRSWM2
0037065900999991973010214504+49633+006200FM-15+0378ELLX V0200801N001019999999N0100001N9+00401-00601999999ADDMA1102711999999EQDQ01+000000PRSWM2
0057065900999991973010215004+49633+006200FM-12+0378ELLX V0200801N00101220001CN0070001N9+00401-00601102891ADDAY101999GF101991001001999999001011MD1110011+9999MW1021
0067065900999991973010215204+49633+006200FM-15+0378ELLX V0200201N00151220001CN0070001N9+00301-00701999999ADDGA1011+060009009MA1102711999999REMMET005NOSIGEQDQ01+000000PRSWM2
0067065900999991973010215504+49633+006200FM-15+0378ELLX V0200201N00101220001CN0080001N9+00101-00701999999ADDGA1011+060009009MA1102711999999REMMET005NOSIGEQDQ01+000000PRSWM2
0073065900999991973010216004+49633+006200FM-12+0378ELLX V0200201N00101220001CN0080001N9+00101-00701102941ADDAY101999GA1011+060009009GF101991001001999999001011MD1110031+9999MW1021
0067065900999991973010216204+49633+006200FM-15+0378ELLX V0200201N00051220001CN0080001N9+00001-00801999999ADDGA1011+060009009MA1102711999999REMMET005NOSIGEQDQ01+000000PRSWM2
0073065900999991973010217004+49633+006200FM-12+0378ELLX V0200201N00151220001CN0100001N9-00101-00701103011ADDAY101999GA1011+060009009GF101991001001999999001011MD1210081+9999MW1021
0037065900999991973010217204+49633+006200FM-15+0378ELLX V0200201N002019999999N0100001N9-00201-00701999999ADDMA1102811999999EQDQ01+000000PRSWM2
0037065900999991973010217504+49633+006200FM-15+0378ELLX V0200201N002519999999N0100001N9-00301-00801999999ADDMA1102811999999EQDQ01+000000PRSWM2
0081065900999991973010218004+49633+006200FM-12+0378ELLX V0200201N00251220001CN0100001N9-00301-00801103071ADDAA199000091AY101999GF100991001001999999001001KA1999M+00401MD1210071+9999MW1011
0051065900999991973010218204+49633+006200FM-15+0378ELLX V0200601N002019999999N0090001N9-00301-00701999999ADDMA1102811999999REMMET005NOSIGEQDQ01+000000PRSWM2
0039065900999991973010218504+49633+006200FM-15+0378ELLX V0200301N002519999999N0090001N9-00101-00601999999REMMET0111027.5NOSIGEQDQ01+000000PRSWM2
0057065900999991973010219004+49633+006200FM-12+0378ELLX V0200301N00251220001CN0090001N9-00101-00601103021ADDAY101999GF100991001001999999001001MD1010031+9999MW1021
0051065900999991973010219204+49633+006200FM-15+0378ELLX V0200301N002019999999N0090001N9-00101-00701999999ADDMA1102711999999REMMET005NOSIGEQDQ01+000000PRSWM2
0037065900999991973010219504+49633+006200FM-15+0378ELLX V0200201N001519999999N0100001N9-00201-00701999999ADDMA1102711999999EQDQ01+000000PRSWM2
0057065900999991973010220004+49633+006200FM-12+0378ELLX V0200201N00151220001CN0120001N9-00201-00701103031ADDAY101999GF100991001001999999001001MD1310021+9999MW1021
0037065900999991973010220204+49633+006200FM-15+0378ELLX V0200201N001019999999N0100001N9-00301-00801999999ADDMA1102711999999EQDQ01+000000PRSWM2
0037065900999991973010220504+49633+006200FM-15+0378ELLX V0200701N001519999999N0100001N9-00301+99999999999ADDMA1102811999999EQDQ01+000000PRSWM2
0037065900999991973010221204+49633+006200FM-15+0378ELLX V0200301N002519999999N0100001N9-00201-00701999999ADDMA1102811999999EQDQ01+000000PRSWM2
0037065900999991973010221504+49633+006200FM-15+0378ELLX V0200201N002019999999N0100001N9-00301-00701999999ADDMA1102811999999EQDQ01+000000PRSWM2
0057065900999991973010222004+49633+006200FM-12+0378ELLX V0200201N00201220001CN0120001N9-00301-00701103081ADDAY101999GF100991001001999999001001MD1210031+9999MW1021
0037065900999991973010222204+49633+006200FM-15+0378ELLX V0200501N002019999999N0100001N9-00301-00701999999ADDMA1102711999999EQDQ01+000000PRSWM2
0037065900999991973010222504+49633+006200FM-15+0378ELLX V0200301N001519999999N0100001N9-00301-00701999999ADDMA1102811999999EQDQ01+000000PRSWM2
0057065900999991973010223004+49633+006200FM-12+0378ELLX V0200301N00151220001CN0100001N9-00301-00701103061ADDAY101999GF100991001001999999001001MD1010001+9999MW1021
0037065900999991973010223204+49633+006200FM-15+0378ELLX V0200401N002519999999N0100001N9-00401-00801999999ADDMA1102711999999EQDQ01+000000PRSWM2
0051065900999991973010223504+49633+006200FM-15+0378ELLX V0200501N001519999999N0080001N9-00401-00801999999ADDMA1102711999999REMMET005NOSIGEQDQ01+000000PRSWM2
0087065900999991973010300004+49633+006200FM-12+0378ELLX V0200501N00151220001CN0080001N9-00401-00801103071ADDAA106000091AY101999GF100991001001999999001001MD1810011+9999MW1021EQDQ01  00003PRCP99
0051065900999991973010300204+49633+006200FM-15+0378ELLX V0200501N003019999999N0080001N9-00401-00801999999ADDMA1102711999999REMMET005NOSIGEQDQ01+000000PRSWM2
0051065900999991973010300504+49633+006200FM-15+0378ELLX V0200301N003019999999N0080001N9-00301-00601999999ADDMA1102811999999REMMET005NOSIGEQDQ01+000000PRSWM2
0057065900999991973010301004+49633+006200FM-12+0378ELLX V0200301N00301220001CN0080001N9-00301-00601103081ADDAY101999GF100991001001999999001001MD1510011+9999MW1021
0051065900999991973010301204+49633+006200FM-15+0378ELLX V0200401N002019999999N0080001N9-00401-00601999999ADDMA1102811999999REMMET005NOSIGEQDQ01+000000PRSWM2
0051065900999991973010301504+49633+006200FM-15+0378ELLX V0200401N002019999999N0080001N9-00401-00701999999ADDMA1102811999999REMMET005NOSIGEQDQ01+000000PRSWM2
0057065900999991973010302004+49633+006200FM-12+0378ELLX V0200401N00201220001CN0080001N9-00401-00701103101ADDAY101999GF100991001001999999001001MD1310021+9999MW1021
0051065900999991973010302204+49633+006200FM-15+0378ELLX V0200501N003019999999N0070001N9-00401-00701999999ADDMA1102811999999REMMET005NOSIGEQDQ01+000000PRSWM2
0051065900999991973010302504+49633+006200FM-15+0378ELLX V0200601N003619999999N0060001N9-00501-00701999999ADDMA1102811999999REMMET005NOSIGEQDQ01+000000PRSWM2
0043065900999991973010303004+49633+006200FM-12+0378ELLX V0200601N00361220001CN0060001N9-00501+99999103141ADDAY101999GF100991001001999999001001MW1021
0051065900999991973010303504+49633+006200FM-15+0378ELLX V0200501N004119999999N0050001N9-00501-00701999999ADDMA1102811999999REMMET005NOSIGEQDQ01+000000PRSWM2
0057065900999991973010304004+49633+006200FM-12+0378ELLX V0200501N00411220001CN0050001N9-00501-00701103151ADDAY101999GF100991001001999999001001MD1110031+9999MW1101
0051065900999991973010304204+49633+006200FM-15+0378ELLX V0200501N004119999999N0040001N9-00601-00701999999ADDMA1102811999999REMMET005NOSIGEQDQ01+000000PRSWM2
0051065900999991973010304504+49633+006200FM-15+0378ELLX V0200501N003619999999N0050001N9-00601-00701999999ADDMA1102811999999REMMET005NOSIGEQDQ01+000000PRSWM2
0057065900999991973010305004+49633+006200FM-12+0378ELLX V0200501N00361220001CN0050001N9-00601-00701103151ADDAY101999GF100991001001999999001001MD1110021+9999MW1101
0051065900999991973010305204+49633+006200FM-15+0378ELLX V0200401N004119999999N0050001N9-00501-00701999999ADDMA1102811999999REMMET005NOSIGEQDQ01+000000PRSWM2
0051065900999991973010305504+49633+006200FM-15+0378ELLX V0200301N004119999999N0050001N9-00501-00701999999ADDMA1102811999999REMMET005NOSIGEQDQ01+000000PRSWM2
0081065900999991973010306004+49633+006200FM-12+0378ELLX V0200301N00411220001CN0050001N9-00501-00701103131ADDAA199000091AY101999GF100991001001999999001001KA1999N-00601MD1810011+9999MW1101
0051065900999991973010306204+49633+006200FM-15+0378ELLX V0200401N004119999999N0050001N9-00601-00701999999ADDMA1102811999999REMMET005NOSIGEQDQ01+000000PRSWM2
0067065900999991973010306504+49633+006200FM-15+0378ELLX V0200601N00251220001CN0040001N9-00701-00901999999ADDGA1011+060009009MA1102811999999REMMET005NOSIGEQDQ01+000000PRSWM2
0073065900999991973010307004+49633+006200FM-12+0378ELLX V0200601N00251220001CN0040001N9-00701-00901103201ADDAY101999GA1011+060009009GF101991001001999999001021MD1310021+9999MW1101
0075065900999991973010307204+49633+006200FM-15+0378ELLX V0200501N00201220001CN0030001N9-00701-00801999999ADDGA1031+003009079MA1102911999999REMMET013GRADU 6ST005?EQDQ01+000000PRSWM2
0067065900999991973010307504+49633+006200FM-15+0378ELLX V0200301N00301001501CN0030001N9-00701-00801999999ADDGA1071+001509079MA1102911999999REMMET005NOSIGEQDQ01+000000PRSWM2
0073065900999991973010308004+49633+006200FM-12+0378ELLX V0200301N00301001501CN0030001N9-00701-00801103251ADDAY111999GA1071+001509079GF107991071061001501999999MD1310081+9999MW1101
0039065900999991973010308034+49633+006200FM-16+0378ELLX V0200401N00301000601CN0005001N9+99999+99999999999ADDGA1081+000609079MW1461REMMET005NOSIG
0054065900999991973010308204+49633+006200FM-15+0378ELLX V0200501N00301000901CN0005001N9-00601-00601999999ADDGA1071+000909079MA1102911999999MW1461REMMET005NOSIG
0081065900999991973010308504+49633+006200FM-15+0378ELLX V0200501N00301001501CN0010001N9-00501-00601999999ADDGA1071+001509079MA1102911999999REMMET019GRADU 2000  6ST008?EQDQ01+000000PRSWM2
0057065900999991973010309004+49633+006200FM-12+0378ELLX V0200501N00301001201CN0010001N9+99999+99999103261ADDAY111999GF107991071061001501999999MD1210121+9999MW1281
0075065900999991973010309204+49633+006200FM-15+0378ELLX V0200501N003019999999N0010001N9+99999+99999999999ADDMA1102911999999REMMET029SW25007ST005M05/M05     GRADUEQDQ01+000000PRSWM2
0075065900999991973010309504+49633+006200FM-15+0378ELLX V0200401N002519999999N0015001N9+99999+99999999999ADDMA1102911999999REMMET029SW25006ST007M05/M05     GRADUEQDQ01+000000PRSWM2
0073065900999991973010310004+49633+006200SY-MT+0378ELLX V0200401N00251002101CN0015001N9+00501-00501103281ADDAY121999GA1061+002109079GF106991061061002501999999MD1210121+9999MW1101
0067065900999991973010310204+49633+006200FM-15+0378ELLX V0200201N00301001501CN0012001N9-00502-00501999999ADDGA1071+001509079MA1103011999999REMMET005NOSIGEQDQ01+000000PRSWM2
0054065900999991973010310504+49633+006200FM-15+0378ELLX V0200501N00301030001CN0003001N9-00401-00501999999ADDGA1081+030009079MA1103011999999MW1481REMMET005NOSIG
0073065900999991973010311004+49633+006200FM-12+0378ELLX V0200501N00301000301CN0003001N9+99999+99999103311ADDAY121999GA1081+000309079GF108991081061000751999999MD1110091+9999MW1481
0054065900999991973010311204+49633+006200FM-15+0378ELLX V0200601N00301000301CN0003001N9-00401-00401999999ADDGA1081+000309079MA1102911999999MW1481REMMET005NOSIG
0054065900999991973010311504+49633+006200FM-15+0378ELLX V0200501N00251000301CN0004001N9-00401-00401999999ADDGA1081+000309079MA1102911999999MW1481REMMET005NOSIG
0103065900999991973010312004+49633+006200FM-12+0378ELLX V0200501N00251000301CN0004001N9+99999+99999103281ADDAA106000091AY141999GA1081+000309079GF108991081061000751999999MD1010041+9999MW1481EQDQ01  00003PRCP99
0054065900999991973010312254+49633+006200FM-15+0378ELLX V0200601N00201000301CN0005001N9-00301-00401999999ADDGA1081+000309079MA1102911999999MW1481REMMET005NOSIG
0073065900999991973010313004+49633+006200FM-12+0378ELLX V0200801N00251000301CN0003001N9+99999+99999103261ADDAY141999GA1081+000309079GF108991081061000751999999MD1010011+9999MW1481
0054065900999991973010313204+49633+006200FM-15+0378ELLX V0200701N00201000301CN0004001N9-00301-00301999999ADDGA1081+000309079MA1102911999999MW1481REMMET005NOSIG
0054065900999991973010313504+49633+006200FM-15+0378ELLX V0200701N00251000301CN0004001N9-00301-00301999999ADDGA1081+000309079MA1102911999999MW1481REMMET005NOSIG
0073065900999991973010314004+49633+006200FM-12+0378ELLX V0200801N00251000301CN0003001N9+99999+99999103261ADDAY141999GA1081+000309079GF108991081061000751999999MD1010011+9999MW1481
0054065900999991973010314204+49633+006200FM-15+0378ELLX V0200701N00251000301CN0003001N9-00301-00301999999ADDGA1081+000309079MA1102911999999MW1481REMMET005NOSIG
0054065900999991973010314504+49633+006200FM-15+0378ELLX V0200501N00201000301CN0005001N9-00301-00301999999ADDGA1081+000309079MA1102911999999MW1481REMMET005NOSIG
0057065900999991973010315004+49633+006200FM-12+0378ELLX V0200501N00201000601CN0005001N9-00301-00301103221ADDAY141999GF108991081061000751999999MD1510011+9999MW1481
0067065900999991973010315204+49633+006200FM-15+0378ELLX V0200301N00101000601CN0012001N9-00201-00301999999ADDGA1081+000609079MA1102911999999REMMET005NOSIGEQDQ01+000000PRSWM2
0083065900999991973010315504+49633+006200FM-15+0378ELLX V0200301N00151000901CN0013001N9-00201-00201999999ADDGA1051+000909079GA2081+002409079MA1102911999999REMMET005NOSIGEQDQ01+000000PRSWM2
0089065900999991973010316004+49633+006200FM-12+0378ELLX V0200301N00151000901CN0013001N9-00201-00201103231ADDAY121999GA1051+000909079GA2081+002409079GF108991081061000751999999MD1110011+9999MW1281
0083065900999991973010316204+49633+006200FM-15+0378ELLX V0200301N00151002701CN0017001N9-00201-00201999999ADDGA1071+002709079GA2081+009009059MA1102911999999REMMET005NOSIGEQDQ01+000000PRSWM2
0073065900999991973010317004+49633+006200FM-12+0378ELLX V0203601N00201002401CN0020001N9-00201-00201103231ADDAY121999GA1081+002409079GF108991081061002501999999MD1110021+9999MW1101
0067065900999991973010317204+49633+006200FM-15+0378ELLX V0203601N00101002401CN0017001N9-00201-00201999999ADDGA1081+002409079MA1102911999999REMMET005NOSIGEQDQ01+000000PRSWM2
0099065900999991973010317504+49633+006200FM-15+0378ELLX V0203601N00101003001CN0020001N9-00201-00201999999ADDGA1041+000909079GA2061+003009079GA3081+013809059MA1103011999999REMMET005NOSIGEQDQ01+000000PRSWM2
0083065900999991973010318204+49633+006200FM-15+0378ELLX V0201001N00101003001CN0020001N9-00201-00301999999ADDGA1071+003009079GA2081+012009059MA1103011999999REMMET005NOSIGEQDQ01+000000PRSWM2
0067065900999991973010318504+49633+006200FM-15+0378ELLX V0201001N00051002701CN0020001N9-00201-00201999999ADDGA1081+002709079MA1103011999999REMMET005NOSIGEQDQ01+000000PRSWM2
0073065900999991973010319004+49633+006200FM-12+0378ELLX V0201001N00051002701CN0020001N9-00201-00201103251ADDAY121999GA1081+002709079GF108991081061002501999999MD1310031+9999MW1101
0067065900999991973010319204+49633+006200FM-15+0378ELLX V0202901N00201002701CN0020001N9-00101-00201999999ADDGA1081+002709079MA1103011999999REMMET005NOSIGEQDQ01+000000PRSWM2
0067065900999991973010319504+49633+006200FM-15+0378ELLX V0202901N00201003001CN0023001N9-00101-00201999999ADDGA1081+003009079MA1103011999999REMMET005NOSIGEQDQ01+000000PRSWM2
0073065900999991973010320004+49633+006200FM-12+0378ELLX V0202901N00201003001CN0023001N9-00101-00201103281ADDAY121999GA1081+003009079GF108991081061004501999999MD1310061+9999MW1101
0067065900999991973010320204+49633+006200FM-15+0378ELLX V0202901N00201003001CN0020001N9-00101-00201999999ADDGA1081+003009079MA1103011999999REMMET005NOSIGEQDQ01+000000PRSWM2
0067065900999991973010320504+49633+006200FM-15+0378ELLX V0202901N00101003001CN0020001N9-00101-00201999999ADDGA1081+003009079MA1103011999999REMMET005NOSIGEQDQ01+000000PRSWM2
0057065900999991973010321004+49633+006200FM-12+0378ELLX V0201001N00051002101CN0020001N9-00201-00201103251ADDAY121999GF108991081061002501999999MD1310031+9999MW1101
0067065900999991973010321204+49633+006200FM-15+0378ELLX V0202901N00101003001CN0020001N9-00101-00201999999ADDGA1071+003009079MA1103011999999REMMET005NOSIGEQDQ01+000000PRSWM2
0067065900999991973010321504+49633+006200FM-15+0378ELLX V0202901N00101003001CN0020001N9-00101-00201999999ADDGA1081+003009079MA1103011999999REMMET005NOSIGEQDQ01+000000PRSWM2
0073065900999991973010322004+49633+006200FM-12+0378ELLX V0202901N00101003001CN0020001N9-00101-00201103301ADDAY121999GA1081+003009079GF108991081061004501999999MD1110051+9999MW1101
0067065900999991973010322204+49633+006200FM-15+0378ELLX V0202901N00051003001CN0018001N9-00101-00201999999ADDGA1081+003009079MA1103011999999REMMET005NOSIGEQDQ01+000000PRSWM2
0067065900999991973010322504+49633+006200FM-15+0378ELLX V0202901N00101003001CN0020001N9-00101-00201999999ADDGA1081+003009079MA1103011999999REMMET005NOSIGEQDQ01+000000PRSWM2
0073065900999991973010323004+49633+006200FM-12+0378ELLX V0202901N00101003001CN0020001N9-00101-00201103321ADDAY121999GA1081+003009079GF108991081061004501999999MD1310041+9999MW1101
0067065900999991973010323204+49633+006200FM-15+0378ELLX V0202901N00051003001CN0020001N9-00101-00201999999ADDGA1081+003009079MA1103011999999REMMET005NOSIGEQDQ01+000000PRSWM2
0087065900999991973010400004+49633+006200FM-12+0378ELLX V0202901N00101004201CN0020001N9-00101-00201103301ADDAA106000091AY121999GF108991081061004501999999MD1110011+9999MW1101EQDQ01  00003PRCP99
0067065900999991973010400204+49633+006200FM-15+0378ELLX V0202901N00151003001CN0020001N9-00101-00201999999ADDGA1081+003009079MA1103011999999REMMET005NOSIGEQDQ01+000000PRSWM2
0067065900999991973010400504+49633+006200FM-15+0378ELLX V0202901N00251003001CN0020001N9-00101-00201999999ADDGA1081+003009079MA1103011999999REMMET005NOSIGEQDQ01+000000PRSWM2
0073065900999991973010401004+49633+006200FM-12+0378ELLX V0202901N00251003001CN0020001N9-00101-00201103291ADDAY121999GA1081+003009079GF108991081061004501999999MD1410001+9999MW1101
0067065900999991973010401204+49633+006200FM-15+0378ELLX V0203001N00201003001CN0020001N9+00001-00101999999ADDGA1081+003009079MA1103011999999REMMET005NOSIGEQDQ01+000000PRSWM2
0067065900999991973010401504+49633+006200FM-15+0378ELLX V0203101N00101002101CN0025001N9+00001-00101999999ADDGA1081+002109079MA1103011999999REMMET005NOSIGEQDQ01+000000PRSWM2
0073065900999991973010402004+49633+006200FM-12+0378ELLX V0203101N00101002101CN0025001N9+00001-00101103271ADDAY121999GA1081+002109079GF108991081061002501999999MD1610021+9999MW1101
0067065900999991973010402204+49633+006200FM-15+0378ELLX V0209991C00001002101CN0020001N9-00101-00101999999ADDGA1081+002109079MA1103011999999REMMET005NOSIGEQDQ01+000000PRSWM2
0067065900999991973010402504+49633+006200FM-15+0378ELLX V0209991C00001001501CN0020001N9+00001-00101999999ADDGA1081+001509079MA1103011999999REMMET005NOSIGEQDQ01+000000PRSWM2
0057065900999991973010403004+49633+006200FM-12+0378ELLX V0209991C00001001201CN0020001N9+00001-00101103271ADDAY121999GF108991081061001501999999MD1410001+9999MW1101
0054065900999991973010403504+49633+006200FM-15+0378ELLX V0203101N00101000301CN0005001N9+00001+00001999999ADDGA1081+000309079MA1103011999999MW1461REMMET005NOSIG
0073065900999991973010404004+49633+006200FM-12+0378ELLX V0203101N00101000301CN0005001N9+00001+00001103271ADDAY121999GA1081+000309079GF108991081061000751999999MD1410001+9999MW1461
0054065900999991973010404504+49633+006200FM-15+0378ELLX V0209991C00001000301CN0005001N9+00001+00001999999ADDGA1081+000309079MA1103011999999MW1441REMMET005NOSIG
0073065900999991973010405004+49633+006200FM-12+0378ELLX V0209991C00001000301CN0005001N9+00001+00001103271ADDAY141999GA1081+000309079GF108991081061000751999999MD1410001+9999MW1441
0054065900999991973010405504+49633+006200FM-15+0378ELLX V0209991C00001000301CN0005001N9+00001+00001999999ADDGA1081+000309079MA1103011999999MW1601REMMET005NOSIG
0097065900999991973010406004+49633+006200FM-12+0378ELLX V0209991C00001000301CN0005001N9+00001+00001103281ADDAA199999929AY141999GA1081+000309079GF108991081071000751999999KA1999N-00101MD1310011+9999MW1601
0070065900999991973010406204+49633+006200FM-15+0378ELLX V0209991C00001000601CN0006001N9+00001+00001999999ADDGA1061+000609079GA2081+018009049MA1103011999999MW1601REMMET005NOSIG
0069065900999991973010406504+49633+006200FM-15+0378ELLX V0203101N00051000601CN0010001N9+00001+00001999999ADDGA1081+000609079MA1103121999999REMMET007NOSIG -EQDQ01+000000PRSWM2
0073065900999991973010407004+49633+006200FM-12+0378ELLX V0203101N00051000601CN0010001N9+00001+00001103331ADDAY161999GA1081+000609079GF108991081071000751999999MD1310051+9999MW1281
0070065900999991973010407504+49633+006200FM-15+0378ELLX V0200901N00101000901CN0003001N9+00001+00001999999ADDGA1061+000909079GA2081+002409079MA1103121999999MW1561REMMET005NOSIG
0089065900999991973010408004+49633+006200FM-12+0378ELLX V0200901N00101000901CN0003001N9+00001+00001103371ADDAY121999GA1061+000909079GA2081+002409079GF108991081061001501999999MD1310091+9999MW1561
0070065900999991973010408204+49633+006200FM-15+0378ELLX V0200901N00201001501CN0003001N9+00001+00001999999ADDGA1061+001509079GA2081+002409079MA1103121999999MW1561REMMET005NOSIG
0050065900999991973010408504+49633+006200FM-15+0378ELLX V0200801N001019999999N0003001N9+00101+00101999999ADDMA1103181999999MW1241REMMET017RA    8ST002NOSIG
0057065900999991973010409004+49633+006200FM-12+0378ELLX V0200801N00101000601CN0003001N9+00101+00101103401ADDAY161999GF108991081061000751999999MD1210121+9999MW1241
0054065900999991973010409204+49633+006200FM-15+0378ELLX V0200801N00101000601CN0002001N9+00101+00101999999ADDGA1081+000609079MA1103181999999MW1441REMMET005NOSIG
0054065900999991973010409504+49633+006200FM-15+0378ELLX V0200701N00201000601CN0001001N9+00201+00201999999ADDGA1081+000609079MA1103181999999MW1461REMMET005NOSIG
0054065900999991973010410204+49633+006200FM-15+0378ELLX V0200801N00201000601CN0001001N9+00201+00201999999ADDGA1081+000609079MA1103181999999MW1461REMMET005NOSIG
0054065900999991973010410504+49633+006200FM-15+0378ELLX V0200801N00201000901CN0002001N9+00201+00201999999ADDGA1081+000909079MA1103181999999MW1421REMMET005NOSIG
0073065900999991973010411004+49633+006200FM-12+0378ELLX V0200801N00201000901CN0002001N9+00201+00201103401ADDAY141999GA1081+000909079GF108991081061000751999999MD1110061+9999MW1421
0054065900999991973010411204+49633+006200FM-15+0378ELLX V0200501N00251000601CN0002001N9+00201+00201999999ADDGA1081+000609079MA1103181999999MW1421REMMET005NOSIG
0103065900999991973010412004+49633+006200FM-12+0378ELLX V0200601N00251000601CN0002001N9+00201+00201103391ADDAA106000591AY161999GA1081+000609079GF108991081061000751999999MD1110021+9999MW1441EQDQ01  00053PRCP99
0054065900999991973010412204+49633+006200FM-15+0378ELLX V0200601N00301000601CN0002001N9+00201+00201999999ADDGA1081+000609079MA1103181999999MW1441REMMET005NOSIG
0054065900999991973010412504+49633+006200FM-15+0378ELLX V0200701N00301000601CN0002001N9+00201+00201999999ADDGA1081+000609079MA1103121999999MW1441REMMET005NOSIG
0073065900999991973010413004+49633+006200FM-12+0378ELLX V0200701N00301000601CN0002001N9+00201+00201103361ADDAY141999GA1081+000609079GF108991081061000751999999MD1810031+9999MW1441
0054065900999991973010413204+49633+006200FM-15+0378ELLX V0200701N00301000301CN0002001N9+00201+00201999999ADDGA1081+000309079MA1103121999999MW1441REMMET005NOSIG
0054065900999991973010413504+49633+006200FM-15+0378ELLX V0200601N00411000601CN0003001N9+00201+00201999999ADDGA1081+000609079MA1103121999999MW1421REMMET005NOSIG
0073065900999991973010414004+49633+006200FM-12+0378ELLX V0200601N00411000601CN0003001N9+00201+00201103351ADDAY141999GA1081+000609079GF108991081061000751999999MD1710051+9999MW1421
0054065900999991973010414204+49633+006200FM-15+0378ELLX V0200501N00411000601CN0005001N9+00201+00201999999ADDGA1081+000609079MA1103121999999MW1421REMMET005NOSIG
0070065900999991973010414504+49633+006200FM-15+0378ELLX V0200601N00411000601CN0009001N9+00201+00201999999ADDGA1061+000609079GA2071+001209079MA1103121999999MW1421REMMET005NOSIG
0073065900999991973010415004+49633+006200FM-12+0378ELLX V0200601N00411000601CN0009001N9+00201+00201103351ADDAY141999GA1061+000609079GF108991081061000751999999MD1510041+9999MW1421
0070065900999991973010415204+49633+006200FM-15+0378ELLX V0200701N00361000601CN0009001N9+00201+00201999999ADDGA1061+000609079GA2071+001209079MA1103121999999MW1421REMMET005NOSIG
0095065900999991973010415504+49633+006200FM-15+0378ELLX V0200601N00411000601CN0010001N9+00201+00201999999ADDGA1061+000609079GA2081+001809079MA1103181999999REMMET017SW    7KM   NOSIGEQDQ01+000000PRSWM2
0089065900999991973010416004+49633+006200FM-12+0378ELLX V0200601N00411000601CN0010001N9+00201+00201103381ADDAY121999GA1061+000609079GA2081+001809079GF108991081061000751999999MD1110021+9999MW1281
0083065900999991973010416204+49633+006200FM-15+0378ELLX V0200701N00411000901CN0015001N9+00201+00201999999ADDGA1071+000909079GA2081+012009059MA1103181999999REMMET005NOSIGEQDQ01+000000PRSWM2
0083065900999991973010416504+49633+006200FM-15+0378ELLX V0200601N00361000901CN0025001N9+00201+00201999999ADDGA1061+000909079GA2081+012009059MA1103181999999REMMET005NOSIGEQDQ01+000000PRSWM2
0089065900999991973010417004+49633+006200FM-12+0378ELLX V0200601N00361000901CN0025001N9+00201+00201103401ADDAY121999GA1061+000909079GA2081+012009059GF108991081051001501999999MD1110051+9999MW1101
0083065900999991973010417204+49633+006200FM-15+0378ELLX V0200601N00361001201CN0025001N9+00201+00201999999ADDGA1071+001209079GA2081+012009059MA1103181999999REMMET005NOSIGEQDQ01+000000PRSWM2
0113065900999991973010418004+49633+006200FM-12+0378ELLX V0200601N00361001201CN0025001N9+00201+00201103411ADDAA199999999AY141999GA1071+001209079GA2081+012009059GF108991081051001501999999KA1999M+00201MD1110051+9999MW1101
0073065900999991973010419004+49633+006200FM-12+0378ELLX V0200801N00411000901CN0030001N9+00201+00101103431ADDAY121999GA1081+000909079GF108991081061000751999999MD1210041+9999MW1101
0067065900999991973010419504+49633+006200FM-15+0378ELLX V0200601N00411000901CN0035001N9+00101+00101999999ADDGA1081+000909079MA1103181999999REMMET005NOSIGEQDQ01+000000PRSWM2
0073065900999991973010420004+49633+006200FM-12+0378ELLX V0200601N00411000901CN0035001N9+00101+00101103441ADDAY121999GA1081+000909079GF108991081061001501999999MD1110031+9999MW1101
0067065900999991973010420204+49633+006200FM-15+0378ELLX V0200601N00411001201CN0035001N9+00101+00001999999ADDGA1081+001209079MA1103181999999REMMET005NOSIGEQDQ01+000000PRSWM2
0067065900999991973010420504+49633+006200FM-15+0378ELLX V0200601N00461001201CN0040001N9+00101+00001999999ADDGA1081+001209079MA1103181999999REMMET005NOSIGEQDQ01+000000PRSWM2
0057065900999991973010421004+49633+006200FM-12+0378ELLX V0200601N00461001201CN0040001N9+00101+00001103471ADDAY121999GF108991081061001501999999MD1210041+9999MW1101
0067065900999991973010421204+49633+006200FM-15+0378ELLX V0200601N00461001201CN0040001N9+00001+00001999999ADDGA1081+001209079MA1103181999999REMMET005NOSIGEQDQ01+000000PRSWM2
0067065900999991973010421504+49633+006200FM-15+0378ELLX V0200501N00511001501CN0050001N9+00001-00101999999ADDGA1081+001509079MA1103181999999REMMET005NOSIGEQDQ01+000000PRSWM2
0073065900999991973010422004+49633+006200FM-12+0378ELLX V0200501N00511001501CN0050001N9+00001-00101103471ADDAY121999GA1081+001509079GF108991081061001501999999MD1210021+9999MW1101
0067065900999991973010422204+49633+006200FM-15+0378ELLX V0200501N00411001501CN0050001N9+00001-00101999999ADDGA1081+001509079MA1103181999999REMMET005NOSIGEQDQ01+000000PRSWM2
0067065900999991973010422504+49633+006200FM-15+0378ELLX V0200601N00461000901CN0050001N9+00001-00101999999ADDGA1081+000909079MA1103291999999REMMET005NOSIGEQDQ01+000000PRSWM2
0073065900999991973010423004+49633+006200FM-12+0378ELLX V0200601N00461000901CN0050001N9+00001-00101103511ADDAY121999GA1081+000909079GF108991081061001501999999MD1210041+9999MW1101
0067065900999991973010423204+49633+006200FM-15+0378ELLX V0200701N00361000901CN0050001N9+00001-00101999999ADDGA1081+000909079MA1103291999999REMMET005NOSIGEQDQ01+000000PRSWM2
0103065900999991973010500004+49633+006200FM-12+0378ELLX V0200701N00461000901CN0040001N9+00001-00101103531ADDAA106000091AY121999GA1081+000909079GF108991081061001501999999MD1210031+9999MW1101EQDQ01  00003PRCP99
0067065900999991973010500204+49633+006200FM-15+0378ELLX V0200701N00511000901CN0050001N9-00101-00201999999ADDGA1081+000909079MA1103291999999REMMET005NOSIGEQDQ01+000000PRSWM2
0067065900999991973010500504+49633+006200FM-15+0378ELLX V0200701N00461000901CN0050001N9-00101-00101999999ADDGA1081+000909079MA1103291999999REMMET005NOSIGEQDQ01+000000PRSWM2
0073065900999991973010501004+49633+006200FM-12+0378ELLX V0200701N00461000901CN0050001N9-00101-00101103551ADDAY121999GA1081+000909079GF108991081061001501999999MD1210051+9999MW1101
0067065900999991973010501204+49633+006200FM-15+0378ELLX V0200701N00561000901CN0050001N9-00101-00201999999ADDGA1081+000909079MA1103291999999REMMET005NOSIGEQDQ01+000000PRSWM2
0067065900999991973010501504+49633+006200FM-15+0378ELLX V0200701N00611001201CN0050001N9-00101-00201999999ADDGA1081+001209079MA1103291999999REMMET005NOSIGEQDQ01+000000PRSWM2
0068065900999991973010502204+49633+006200FM-15+0378ELLX V0200701N00511000901CN0040001N9-00101-00201999999ADDGA1081+000909079REMMET005NOSIGEQDQ01+030713APOA  Q02+000000PRSWM2
0067065900999991973010502504+49633+006200FM-15+0378ELLX V0200701N00511000901CN0040001N9-00101-00201999999ADDGA1081+000909079MA1103291999999REMMET005NOSIGEQDQ01+000000PRSWM2
0073065900999991973010503004+49633+006200FM-12+0378ELLX V0200701N00511001201CN0040001N9-00101-00201103581ADDAY121999GA1081+001209079GF108991081061000751999999MD1210041+9999MW1101
0067065900999991973010504504+49633+006200FM-15+0378ELLX V0200601N00411000901CN0040001N9-00201-00201999999ADDGA1081+000909079MA1103291999999REMMET005NOSIGEQDQ01+000000PRSWM2
0067065900999991973010505204+49633+006200FM-15+0378ELLX V0200601N00411000901CN0050001N9-00201-00201999999ADDGA1081+000909079MA1103291999999REMMET005NOSIGEQDQ01+000000PRSWM2
0079065900999991973010505504+49633+006200FM-15+0378ELLX V0200701N00411001201CN0040001N9-00201-00301999999ADDGA1081+001209079MA1103291999999REMMET0171032EEE     NOSIGEQDQ01+000000PRSWM2
0097065900999991973010506004+49633+006200FM-12+0378ELLX V0200701N00411001201CN0040001N9-00201-00301103571ADDAA199000091AY121999GA1081+001209079GF108991081061001501999999KA1999N-00201MD1810031+9999MW1101
0067065900999991973010506204+49633+006200FM-15+0378ELLX V0200801N00511000901CN0050001N9-00201-00301999999ADDGA1081+000909079MA1103291999999REMMET005NOSIGEQDQ01+000000PRSWM2
0067065900999991973010506504+49633+006200FM-15+0378ELLX V0200601N00511000901CN0040001N9-00201-00301999999ADDGA1081+000909079MA1103291999999REMMET005NOSIGEQDQ01+000000PRSWM2
0073065900999991973010507004+49633+006200FM-12+0378ELLX V0200601N00511000901CN0040001N9-00201-00301103561ADDAY121999GA1081+000909079GF108991081061001501999999MD1610031+9999MW1101
0067065900999991973010507204+49633+006200FM-15+0378ELLX V0200601N00461001201CN0030001N9-00101-00201999999ADDGA1081+001209079MA1103291999999REMMET005NOSIGEQDQ01+000000PRSWM2
0081065900999991973010507504+49633+006200FM-15+0378ELLX V0200701N00511001501CN0040001N9-00201-00301999999ADDGA1071+001509079MA1103291999999REMMET019GRADU 5000  6ST007?EQDQ01+000000PRSWM2
0073065900999991973010508004+49633+006200FM-12+0378ELLX V0200701N00511001501CN0040001N9-00201-00301103621ADDAY121999GA1071+001509079GF108991071061001501999999MD1310051+9999MW1101
0075065900999991973010508204+49633+006200FM-15+0378ELLX V0200701N00461001801CN0050001N9-00201-00301999999ADDGA1071+001809079MA1103291999999REMMET013GRADU 5ST009?EQDQ01+000000PRSWM2
0075065900999991973010508504+49633+006200FM-15+0378ELLX V0200701N00411002101CN0060001N9-00201-00301999999ADDGA1071+002109079MA1103391999999REMMET013GRADU 5ST009?EQDQ01+000000PRSWM2
0073065900999991973010509004+49633+006200FM-12+0378ELLX V0200701N00411002101CN0060001N9-00201-00301103671ADDAY121999GA1071+002109079GF107991071061002501999999MD1210111+9999MW1021
0075065900999991973010509204+49633+006200FM-15+0378ELLX V0200601N00511002101CN0060001N9-00201-00301999999ADDGA1071+002109079MA1103391999999REMMET013GRADU 5ST009?EQDQ01+000000PRSWM2
0067065900999991973010509504+49633+006200FM-15+0378ELLX V0200701N00611003001CN0060001N9-00201-00401999999ADDGA1051+003009079MA1103391999999REMMET005NOSIGEQDQ01+000000PRSWM2
0073065900999991973010510004+49633+006200FM-12+0378ELLX V0200701N00611003001CN0060001N9-00201-00401103731ADDAY121999GA1051+003009079GF105991051061004501001001MD1210161+9999MW1011
0067065900999991973010510204+49633+006200FM-15+0378ELLX V0200601N00671220001CN0070001N9-00101-00301999999ADDGA1031+003009079MA1103391999999REMMET005NOSIGEQDQ01+000000PRSWM2
0067065900999991973010510504+49633+006200FM-15+0378ELLX V0200701N00611220001CN0070001N9-00101-00301999999ADDGA1011+003009079MA1103391999999REMMET005NOSIGEQDQ01+000000PRSWM2
0073065900999991973010511004+49633+006200FM-12+0378ELLX V0200701N00611220001CN0070001N9-00101-00301103681ADDAY111999GA1011+003009079GF101991011061004501001011MD1010081+9999MW1011
0067065900999991973010511204+49633+006200FM-15+0378ELLX V0200801N00721220001CN0070001N9+00001-00201999999ADDGA1011+004509089MA1103391999999REMMET005NOSIGEQDQ01+000000PRSWM2
0067065900999991973010511504+49633+006200FM-15+0378ELLX V0200801N00721220001CN0070001N9+00101-00301999999ADDGA1011+060009009MA1103391999999REMMET005NOSIGEQDQ01+000000PRSWM2
0103065900999991973010512004+49633+006200FM-12+0378ELLX V0200801N00721220001CN0070001N9+00101-00301103651ADDAA106000091AY111999GA1011+060009009GF101991001001999999001011MD1810021+9999MW1021EQDQ01  00003PRCP99
0079065900999991973010512204+49633+006200FM-15+0378ELLX V0200801N00671220001CN0070001N9+99999+99999999999ADDGA1011+036009009MA1103391999999REMMET0170     01/M02NOSIGEQDQ01+000000PRSWM2
0067065900999991973010512504+49633+006200FM-15+0378ELLX V0200701N00671220001CN0080001N9+00101-00301999999ADDGA1011+060009009MA1103291999999REMMET005NOSIGEQDQ01+000000PRSWM2
0073065900999991973010513004+49633+006200FM-12+0378ELLX V0200701N00671220001CN0080001N9+00101-00301103571ADDAY101999GA1011+060009009GF101991001001999999001011MD1710101+9999MW1021
0037065900999991973010513204+49633+006200FM-15+0378ELLX V0200701N008219999999N0100001N9+00201-00301999999ADDMA1103291999999EQDQ01+000000PRSWM2
0037065900999991973010513504+49633+006200FM-15+0378ELLX V0200701N006719999999N0100001N9+00101-00301999999ADDMA1103291999999EQDQ01+000000PRSWM2
0073065900999991973010514004+49633+006200FM-12+0378ELLX V0200701N00671220001CN0100001N9+00101-00301103581ADDAY101999GA1011+060009009GF101991001001999999001011MD1510071+9999MW1021
0037065900999991973010514204+49633+006200FM-15+0378ELLX V0200701N005619999999N0100001N9+00101-00301999999ADDMA1103291999999EQDQ01+000000PRSWM2
0037065900999991973010515004+49633+006200FM-15+0378ELLX V0200701N006119999999N0100001N9+00101-00401999999ADDMA1103391999999EQDQ01+000000PRSWM2
0037065900999991973010515204+49633+006200FM-15+0378ELLX V0200701N006719999999N0100001N9+00101-00401999999ADDMA1103391999999EQDQ01+000000PRSWM2
0037065900999991973010515504+49633+006200FM-15+0378ELLX V0200701N007219999999N0100001N9+00001-00501999999ADDMA1103391999999EQDQ01+000000PRSWM2
0073065900999991973010516004+49633+006200FM-12+0378ELLX V0200701N00721220001CN0120001N9+00001-00501103661ADDAY101999GA1011+036009039GF101991011001999999041011MD1310071+9999MW1021
0037065900999991973010516204+49633+006200FM-15+0378ELLX V0200701N007219999999N0100001N9-00101-00401999999ADDMA1103391999999EQDQ01+000000PRSWM2
0037065900999991973010516504+49633+006200FM-15+0378ELLX V0200701N008219999999N0100001N9-00101-00401999999ADDMA1103391999999EQDQ01+000000PRSWM2
0073065900999991973010517004+49633+006200FM-12+0378ELLX V0200701N00821220001CN0120001N9-00101-00401103711ADDAY101999GA1011+036009039GF101991011001999999041011MD1210091+9999MW1021
0037065900999991973010517204+49633+006200FM-15+0378ELLX V0200701N007719999999N0100001N9-00101-00401999999ADDMA1103391999999EQDQ01+000000PRSWM2
0037065900999991973010517504+49633+006200FM-15+0378ELLX V0200701N008719999999N0100001N9-00101-00401999999ADDMA1103491999999EQDQ01+000000PRSWM2
0081065900999991973010518004+49633+006200FM-12+0378ELLX V0200701N00871220001CN0100001N9-00101-00401103741ADDAA199000091AY101999GF100991001001999999001001KA1999M+00201MD1110091+9999MW1011
0051065900999991973010518204+49633+006200FM-15+0378ELLX V0200601N007219999999N0100001N9+99999+99999999999ADDMA1103491999999REMMET005NOSIGEQDQ01+000000PRSWM2
0037065900999991973010518504+49633+006200FM-15+0378ELLX V0200501N007219999999N0100001N9-00101-00501999999ADDMA1103491999999EQDQ01+000000PRSWM2
0057065900999991973010519004+49633+006200FM-12+0378ELLX V0200501N00721220001CN0100001N9-00101-00501103741ADDAY101999GF100991001001999999001001MD1110051+9999MW1021
0037065900999991973010519204+49633+006200FM-15+0378ELLX V0200601N007719999999N0100001N9-00101-00301999999ADDMA1103491999999EQDQ01+000000PRSWM2
0037065900999991973010519504+49633+006200FM-15+0378ELLX V0200601N007219999999N0100001N9-00101-00301999999ADDMA1103491999999EQDQ01+000000PRSWM2
0057065900999991973010520004+49633+006200FM-12+0378ELLX V0200601N00721220001CN0100001N9-00101-00301103741ADDAY101999GF100991001001999999001001MD1110021+9999MW1021
0037065900999991973010520204+49633+006200FM-15+0378ELLX V0200601N007219999999N0100001N9-00101-00301999999ADDMA1103491999999EQDQ01+000000PRSWM2
0037065900999991973010520504+49633+006200FM-15+0378ELLX V0200601N007219999999N0100001N9-00101-00301999999ADDMA1103491999999EQDQ01+000000PRSWM2
0057065900999991973010521004+49633+006200FM-12+0378ELLX V0200601N00721220001CN0120001N9-00101-00301103751ADDAY101999GF100991001001999999001001MD1310011+9999MW1021
0037065900999991973010521504+49633+006200FM-15+0378ELLX V0200601N007719999999N0100001N9-00101-00301999999ADDMA1103491999999EQDQ01+000000PRSWM2
0037065900999991973010522204+49633+006200FM-15+0378ELLX V0200601N007219999999N0100001N9-00101-00301999999ADDMA1103491999999EQDQ01+000000PRSWM2
0085065900999991973010522504+49633+006200FM-15+0378ELLX V0200601N00721003901CN0090001N9+99999+99999999999ADDGA1051+003909059MA1103491999999REMMET023N     M00/M02     NOSIGEQDQ01+000000PRSWM2
0073065900999991973010523004+49633+006200FM-12+0378ELLX V0200601N00721003901CN0090001N9+00001-00201103741ADDAY111999GA1051+003909059GF105991051051004501001001MD1110011+9999MW1031
0067065900999991973010523204+49633+006200FM-15+0378ELLX V0200701N00721003601CN0100001N9+00001-00201999999ADDGA1071+003609059MA1103491999999REMMET005NOSIGEQDQ01+000000PRSWM2
0067065900999991973010523504+49633+006200FM-15+0378ELLX V0200701N00611003601CN0100001N9+00001-00101999999ADDGA1071+003609059MA1103491999999REMMET005NOSIGEQDQ01+000000PRSWM2
0103065900999991973010600004+49633+006200FM-12+0378ELLX V0200701N00611003601CN0100001N9+00001-00101103731ADDAA106000091AY111999GA1071+003609059GF107991071051004501999999MD1410001+9999MW1031EQDQ01  00003PRCP99
0067065900999991973010600204+49633+006200FM-15+0378ELLX V0200601N00671003601CN0100001N9+00001-00101999999ADDGA1081+003609059MA1103491999999REMMET005NOSIGEQDQ01+000000PRSWM2
0073065900999991973010601004+49633+006200FM-12+0378ELLX V0200601N00671003601CN0100001N9+00001-00101103721ADDAY121999GA1081+003609059GF108991081051004501999999MD1410001+9999MW1031
0067065900999991973010601204+49633+006200FM-15+0378ELLX V0200701N00671003001CN0100001N9+00101-00101999999ADDGA1081+003009059MA1103491999999REMMET005NOSIGEQDQ01+000000PRSWM2
0067065900999991973010601504+49633+006200FM-15+0378ELLX V0200701N00671003001CN0100001N9+00101-00101999999ADDGA1071+003009059MA1103491999999REMMET005NOSIGEQDQ01+000000PRSWM2
0067065900999991973010602204+49633+006200FM-15+0378ELLX V0200701N00771002401CN0100001N9+00101-00101999999ADDGA1081+002409059MA1103491999999REMMET005NOSIGEQDQ01+000000PRSWM2
0067065900999991973010602504+49633+006200FM-15+0378ELLX V0200701N00721002401CN0100001N9+00101-00101999999ADDGA1071+002409079MA1103491999999REMMET005NOSIGEQDQ01+000000PRSWM2
0073065900999991973010603004+49633+006200FM-12+0378ELLX V0200701N00721002401CN0120001N9+00101-00101103711ADDAY121999GA1071+002409079GF107991071061002501999999MD1810011+9999MW1021
0067065900999991973010603504+49633+006200FM-15+0378ELLX V0200701N00771001501CN0100001N9+00101-00101999999ADDGA1071+001509079MA1103491999999REMMET005NOSIGEQDQ01+000000PRSWM2
0073065900999991973010604004+49633+006200FM-12+0378ELLX V0200701N00771001501CN0120001N9+00101-00101103711ADDAY121999GA1071+001509079GF107991071061001501999999MD1610011+9999MW1021
0095065900999991973010604504+49633+006200FM-15+0378ELLX V0200701N00721001801CN0100001N9+00101+00001999999ADDGA1051+001809079GA2071+003609059MA1103391999999REMMET0171024EEE     NOSIGEQDQ01+000000PRSWM2
0089065900999991973010605004+49633+006200FM-12+0378ELLX V0200701N00721001801CN0150001N9+00101+00001103681ADDAY121999GA1051+001809079GA2071+003609059GF107991071051001501999999MD1810031+9999MW1021
0067065900999991973010605504+49633+006200FM-15+0378ELLX V0200801N00721002401CN0100001N9+00101+00001999999ADDGA1071+002409079MA1103391999999REMMET005NOSIGEQDQ01+000000PRSWM2
0097065900999991973010606004+49633+006200FM-12+0378ELLX V0200801N00721002401CN0150001N9+00101+00001103681ADDAA199000091AY121999GA1071+002409079GF107991071061001501999999KA1999N-00101MD1710021+9999MW1021
0067065900999991973010606204+49633+006200FM-15+0378ELLX V0200701N00721002401CN0100001N9+00101+00001999999ADDGA1071+002409079MA1103391999999REMMET005NOSIGEQDQ01+000000PRSWM2
0067065900999991973010606504+49633+006200FM-15+0378ELLX V0200801N00771002701CN0080001N9+00101+00001999999ADDGA1081+002709079MA1103391999999REMMET005NOSIGEQDQ01+000000PRSWM2
0073065900999991973010607004+49633+006200FM-12+0378ELLX V0200801N00771002701CN0080001N9+00101+00001103681ADDAY121999GA1081+002709079GF108991081061002501999999MD1810021+9999MW1031
0067065900999991973010607204+49633+006200FM-15+0378ELLX V0200801N00611002401CN0080001N9+00101+00001999999ADDGA1081+002409079MA1103391999999REMMET005NOSIGEQDQ01+000000PRSWM2
0067065900999991973010607504+49633+006200FM-15+0378ELLX V0200801N00721002401CN0070001N9+00101+00001999999ADDGA1081+002409079MA1103391999999REMMET005NOSIGEQDQ01+000000PRSWM2
0073065900999991973010608004+49633+006200FM-12+0378ELLX V0200801N00721002401CN0070001N9+00101+00001103691ADDAY121999GA1081+002409079GF108991081061002501999999MD1310011+9999MW1021
0067065900999991973010608204+49633+006200FM-15+0378ELLX V0200801N00611002401CN0080001N9+00101+00001999999ADDGA1071+002409079MA1103491999999REMMET005NOSIGEQDQ01+000000PRSWM2
0067065900999991973010608504+49633+006200FM-15+0378ELLX V0200801N00611002701CN0080001N9+00101+00001999999ADDGA1071+002709079MA1103491999999REMMET005NOSIGEQDQ01+000000PRSWM2
0073065900999991973010609004+49633+006200FM-12+0378ELLX V0200801N00611002701CN0080001N9+00101+00001103761ADDAY121999GA1071+002709079GF107991071061002501999999MD1310081+9999MW1011
0083065900999991973010609204+49633+006200FM-15+0378ELLX V0200801N00611003601CN0080001N9+00101+00001999999ADDGA1051+003609079GA2061+012009059MA1103491999999REMMET005NOSIGEQDQ01+000000PRSWM2
0083065900999991973010609504+49633+006200FM-15+0378ELLX V0200801N00671003601CN0060001N9+00101+00001999999ADDGA1051+003609079GA2071+012009059MA1103491999999REMMET005NOSIGEQDQ01+000000PRSWM2
0089065900999991973010610004+49633+006200FM-12+0378ELLX V0200801N00671003601CN0060001N9+00101+00001103751ADDAY121999GA1051+003609079GA2071+012009059GF107991071051004501999999MD1110071+9999MW1021
0083065900999991973010610204+49633+006200FM-15+0378ELLX V0200801N00721003001CN0060001N9+00201+00001999999ADDGA1061+003009079GA2071+012009059MA1103491999999REMMET005NOSIGEQDQ01+000000PRSWM2
0083065900999991973010610504+49633+006200FM-15+0378ELLX V0200801N00721004501CN0060001N9+00201+00001999999ADDGA1051+004509059GA2081+012009059MA1103491999999REMMET005NOSIGEQDQ01+000000PRSWM2
0089065900999991973010611004+49633+006200FM-12+0378ELLX V0200801N00721004501CN0060001N9+00201+00001103741ADDAY121999GA1051+004509059GA2081+012009059GF108991081051004501999999MD1110061+9999MW1031
0083065900999991973010611204+49633+006200FM-15+0378ELLX V0200801N00721003601CN0050001N9+00201+00001999999ADDGA1051+003609059GA2081+012009059MA1103491999999REMMET005NOSIGEQDQ01+000000PRSWM2
0083065900999991973010611504+49633+006200FM-15+0378ELLX V0200801N00721003601CN0060001N9+00201+00001999999ADDGA1051+003609059GA2081+012009059MA1103491999999REMMET005NOSIGEQDQ01+000000PRSWM2
0119065900999991973010612004+49633+006200FM-12+0378ELLX V0200801N00721003601CN0060001N9+00201+00001103691ADDAA106000091AY121999GA1051+003609059GA2081+012009059GF108991081051004501999999MD1810061+9999MW1021EQDQ01  00003PRCP99
0083065900999991973010612204+49633+006200FM-15+0378ELLX V0200801N00721003001CN0060001N9+00201+00001999999ADDGA1051+003009079GA2081+012009059MA1103391999999REMMET005NOSIGEQDQ01+000000PRSWM2
0083065900999991973010612504+49633+006200FM-15+0378ELLX V0200801N00821003001CN0060001N9+00201+00001999999ADDGA1051+003009079GA2071+009909059MA1103391999999REMMET005NOSIGEQDQ01+000000PRSWM2
0089065900999991973010613004+49633+006200FM-12+0378ELLX V0200801N00821003001CN0060001N9+00201+00001103641ADDAY121999GA1051+003009079GA2071+009909059GF107991071051004501999999MD1710091+9999MW1011
0067065900999991973010613204+49633+006200FM-15+0378ELLX V0200801N00771003001CN0080001N9+00201-00101999999ADDGA1071+003009079MA1103391999999REMMET005NOSIGEQDQ01+000000PRSWM2
0067065900999991973010613504+49633+006200FM-15+0378ELLX V0200801N00821003301CN0070001N9+00201+00001999999ADDGA1071+003309079MA1103391999999REMMET005NOSIGEQDQ01+000000PRSWM2
0073065900999991973010614004+49633+006200FM-12+0378ELLX V0200801N00821003301CN0070001N9+00201+00001103591ADDAY121999GA1071+003309079GF107991071061004501999999MD1610141+9999MW1021
0067065900999991973010614204+49633+006200FM-15+0378ELLX V0200801N00721003001CN0070001N9+00201+00001999999ADDGA1071+003009079MA1103391999999REMMET005NOSIGEQDQ01+000000PRSWM2
0067065900999991973010614504+49633+006200FM-15+0378ELLX V0200801N00771003001CN0060001N9+00201+00001999999ADDGA1071+003009079MA1103391999999REMMET005NOSIGEQDQ01+000000PRSWM2
0073065900999991973010615004+49633+006200FM-12+0378ELLX V0200801N00771003001CN0060001N9+00201+00001103601ADDAY121999GA1071+003009079GF107991071061004501999999MD1610091+9999MW1021
0067065900999991973010615204+49633+006200FM-15+0378ELLX V0200801N00721003001CN0060001N9+00101+00001999999ADDGA1071+003009079MA1103391999999REMMET005NOSIGEQDQ01+000000PRSWM2
0067065900999991973010615504+49633+006200FM-15+0378ELLX V0200801N00611002701CN0050001N9+00101-00101999999ADDGA1071+002709079MA1103391999999REMMET005NOSIGEQDQ01+000000PRSWM2
0073065900999991973010616004+49633+006200FM-12+0378ELLX V0200801N00611002701CN0050001N9+00101-00101103621ADDAY121999GA1071+002709079GF107991071061002501999999MD1310031+9999MW1101
0067065900999991973010616204+49633+006200FM-15+0378ELLX V0200801N00611002701CN0050001N9+00101-00101999999ADDGA1071+002709079MA1103391999999REMMET005NOSIGEQDQ01+000000PRSWM2
0067065900999991973010616504+49633+006200FM-15+0378ELLX V0200801N00561002401CN0070001N9+00101-00101999999ADDGA1061+002409079MA1103391999999REMMET005NOSIGEQDQ01+000000PRSWM2
0073065900999991973010617004+49633+006200FM-12+0378ELLX V0200801N00561002401CN0070001N9+00101-00101103661ADDAY121999GA1061+002409079GF106991061061002501999999MD1310061+9999MW1101
0067065900999991973010617204+49633+006200FM-15+0378ELLX V0200801N00561002101CN0070001N9+00101-00101999999ADDGA1071+002109079MA1103391999999REMMET005NOSIGEQDQ01+000000PRSWM2
0067065900999991973010617504+49633+006200FM-15+0378ELLX V0200801N00511001801CN0070001N9+00101-00101999999ADDGA1071+001809079MA1103391999999REMMET005NOSIGEQDQ01+000000PRSWM2
0073065900999991973010618004+49633+006200FM-12+0378ELLX V0200801N00511001801CN0070001N9+00101-00101103671ADDAY121999GA1071+001809079GF107991071061001501999999MD1210071+9999MW1031
0067065900999991973010619204+49633+006200FM-15+0378ELLX V0200801N00461001801CN0050001N9+00001-00101999999ADDGA1081+001809079MA1103391999999REMMET005NOSIGEQDQ01+000000PRSWM2
0067065900999991973010619504+49633+006200FM-15+0378ELLX V0200701N00461001801CN0060001N9+00001-00101999999ADDGA1081+001809079MA1103491999999REMMET005NOSIGEQDQ01+000000PRSWM2
0073065900999991973010620004+49633+006200FM-12+0378ELLX V0200701N00461001801CN0060001N9+00001-00101103741ADDAY121999GA1081+001809079GF108991081061001501999999MD1110051+9999MW1021
0067065900999991973010620204+49633+006200FM-15+0378ELLX V0200801N00511001801CN0060001N9+00001-00201999999ADDGA1081+001809079MA1103391999999REMMET005NOSIGEQDQ01+000000PRSWM2
0067065900999991973010620504+49633+006200FM-15+0378ELLX V0200801N00511000901CN0060001N9+00001-00201999999ADDGA1081+000909079MA1103491999999REMMET005NOSIGEQDQ01+000000PRSWM2
0073065900999991973010621004+49633+006200FM-12+0378ELLX V0200801N00511000901CN0060001N9+00001-00201103731ADDAY121999GA1081+000909079GF108991081061001501999999MD1110031+9999MW1021
0067065900999991973010621204+49633+006200FM-15+0378ELLX V0200701N00511000901CN0060001N9+00001-00201999999ADDGA1081+000909079MA1103391999999REMMET005NOSIGEQDQ01+000000PRSWM2
0067065900999991973010621504+49633+006200FM-15+0378ELLX V0200801N00511000901CN0050001N9+00001-00101999999ADDGA1081+000909079MA1103391999999REMMET005NOSIGEQDQ01+000000PRSWM2
0073065900999991973010622004+49633+006200FM-12+0378ELLX V0200801N00511000901CN0050001N9+00001-00101103701ADDAY121999GA1081+000909079GF108991081061000751999999MD1110031+9999MW1101
0067065900999991973010622204+49633+006200FM-15+0378ELLX V0200701N00461000901CN0050001N9+00001-00201999999ADDGA1081+000909079MA1103391999999REMMET005NOSIGEQDQ01+000000PRSWM2
0067065900999991973010622504+49633+006200FM-15+0378ELLX V0200701N00511000901CN0050001N9-00101-00201999999ADDGA1081+000909079MA1103391999999REMMET005NOSIGEQDQ01+000000PRSWM2
0073065900999991973010623004+49633+006200FM-12+0378ELLX V0200701N00511000901CN0050001N9-00101-00201103691ADDAY121999GA1081+000909079GF108991081061000751999999MD1810051+9999MW1101
0067065900999991973010623204+49633+006200FM-15+0378ELLX V0200701N00411000601CN0040001N9-00101-00201999999ADDGA1081+000609079MA1103391999999REMMET005NOSIGEQDQ01+000000PRSWM2
0067065900999991973010623504+49633+006200FM-15+0378ELLX V0200701N00411000601CN0020001N9-00101-00201999999ADDGA1081+000609079MA1103391999999REMMET005NOSIGEQDQ01+000000PRSWM2
0103065900999991973010700004+49633+006200FM-12+0378ELLX V0200701N00411000601CN0020001N9-00101-00201103691ADDAA106000091AY121999GA1081+000609079GF108991081061000751999999MD1810051+9999MW1101EQDQ01  00003PRCP99
0067065900999991973010700204+49633+006200FM-15+0378ELLX V0200701N00411000601CN0020001N9-00101-00201999999ADDGA1081+000609079MA1103391999999REMMET005NOSIGEQDQ01+000000PRSWM2
0067065900999991973010700504+49633+006200FM-15+0378ELLX V0200601N00301000601CN0015001N9-00101-00201999999ADDGA1081+000609079MA1103391999999REMMET005NOSIGEQDQ01+000000PRSWM2
0073065900999991973010701004+49633+006200FM-12+0378ELLX V0200601N00301000601CN0015001N9-00101-00201103631ADDAY121999GA1081+000609079GF108991081061000751999999MD1810081+9999MW1101
0067065900999991973010701204+49633+006200FM-15+0378ELLX V0200701N00511000601CN0010001N9-00101-00201999999ADDGA1081+000609079MA1103391999999REMMET005NOSIGEQDQ01+000000PRSWM2
0054065900999991973010701504+49633+006200FM-15+0378ELLX V0200701N00411000601CN0008001N9-00101-00101999999ADDGA1081+000609079MA1103391999999MW1481REMMET005NOSIG
0073065900999991973010702004+49633+006200FM-12+0378ELLX V0200701N00411000601CN0008001N9-00101-00101103661ADDAY121999GA1081+000609079GF108991081061000751999999MD1510041+9999MW1481
0067065900999991973010702204+49633+006200FM-15+0378ELLX V0200701N00461000601CN0015001N9-00101-00201999999ADDGA1081+000609079MA1103391999999REMMET005NOSIGEQDQ01+000000PRSWM2
0073065900999991973010703004+49633+006200FM-12+0378ELLX V0200701N00511000601CN0015001N9-00101-00201103661ADDAY141999GA1081+000609079GF108991081061000751999999MD1710031+9999MW1281
0060065900999991973010703504+49633+006200FM-15+0378ELLX V0200601N00361000301CN0006001N9-00101-00101999999ADDGA1081+000309079MA1103391999999MW1481REMMET0111034  NOSIG
0073065900999991973010704004+49633+006200FM-12+0378ELLX V0200601N00361000301CN0006001N9-00101-00101103651ADDAY121999GA1081+000309079GF108991081061000251999999MD1810021+9999MW1481
0054065900999991973010705504+49633+006200FM-15+0378ELLX V0200701N00301000301CN0003001N9-00101-00201999999ADDGA1081+000309079MA1103291999999MW1481REMMET005NOSIG
0097065900999991973010706004+49633+006200FM-12+0378ELLX V0200701N00301000301CN0003001N9-00101-00201103631ADDAA199000091AY141999GA1081+000309079GF108991081061000251999999KA1999N-00101MD1610041+9999MW1481
0074065900999991973010706204+49633+006200FM-15+0378ELLX V0200501N00251000301CN9999999N9-00201+99999999999ADDGA1081+000309079MA1103391999999MW1481REMMET006NOSIG%EQDQ01+000002VOVAR 
0074065900999991973010706504+49633+006200FM-15+0378ELLX V0200601N00361000301CN9999999N9-00201+99999999999ADDGA1081+000309079MA1103391999999MW1461REMMET006NOSIG%EQDQ01+000002VOVAR 
0073065900999991973010707004+49633+006200FM-12+0378ELLX V0200601N00361000301CN0002001N9-00201-00201103651ADDAY141999GA1081+000309079GF108991081061000251999999MD1510011+9999MW1461
0074065900999991973010707204+49633+006200FM-15+0378ELLX V0200701N00251000301CN9999999N9-00201+99999999999ADDGA1081+000309079MA1103391999999MW1461REMMET006NOSIG%EQDQ01+000002VOVAR 
0054065900999991973010707504+49633+006200FM-15+0378ELLX V0200501N00251000301CN0001001N9-00201-00201999999ADDGA1081+000309079MA1103391999999MW1461REMMET005NOSIG
0073065900999991973010708004+49633+006200FM-12+0378ELLX V0200501N00251000301CN0001001N9-00201-00201103721ADDAY141999GA1081+000309079GF108991081061000251999999MD1310071+9999MW1461
0074065900999991973010708204+49633+006200FM-15+0378ELLX V0200701N00251000301CN9999999N9-00201+99999999999ADDGA1081+000309079MA1103391999999MW1461REMMET006NOSIG%EQDQ01+000002VOVAR 
0077065900999991973010708504+49633+006200FM-15+0378ELLX V0200501N00201000301CN9999999N9-00201+99999999999ADDGA1071+000309079MA1103491999999MW1421REMMET009GRADU600%EQDQ01+000002VOVAR 
0073065900999991973010709004+49633+006200FM-12+0378ELLX V0200501N00201000301CN0001001N9-00201-00201103751ADDAY141999GA1071+000309079GF107991071061000251999999MD1110111+9999MW1421
0079065900999991973010709204+49633+006200FM-15+0378ELLX V0200601N00251000301CN9999999N9-00101-00201999999ADDGA1071+000309079MA1103491999999MW1441REMMET011GRADU 0600%EQDQ01+000002VOVAR 
0073065900999991973010710004+49633+006200FM-12+0378ELLX V0200801N00151000301CN0001001N9-00101-00201103751ADDAY141999GA1071+000309079GF107991071061000751999999MD1110091+9999MW1441
0079065900999991973010710204+49633+006200FM-15+0378ELLX V0200701N00201220001CN9999999N9-00101+99999999999ADDGA1021+060009009MA1103491999999MW1411REMMET011GRADU 2000%EQDQ01+000002VOVAR 
0067065900999991973010710504+49633+006200FM-15+0378ELLX V0200601N00151220001CN0020001N9-00101-00101999999ADDGA1011+000909079MA1103391999999REMMET005NOSIGEQDQ01+000000PRSWM2
0073065900999991973010711004+49633+006200FM-12+0378ELLX V0200601N00151220001CN0020001N9-00101-00101103701ADDAY111999GA1011+000909079GF102991011061000751001021MD1010001+9999MW1281
0060065900999991973010711204+49633+006200FM-15+0378ELLX V0200801N00201220001CN0025001N9+00201+00101999999ADDGA1021+060009009MA1103391999999MW1401REMMET011W     6000?
0067065900999991973010711504+49633+006200FM-15+0378ELLX V0200701N00301220001CN0050001N9+00401-00101999999ADDGA1011+001809079MA1103391999999REMMET005NOSIGEQDQ01+000000PRSWM2
0103065900999991973010712004+49633+006200FM-12+0378ELLX V0200701N00301220001CN0050001N9+00401-00101103561ADDAA106000091AY141999GA1011+001809079GF102991011061001501001021MD1810091+9999MW1021EQDQ01  00003PRCP99
0067065900999991973010712204+49633+006200FM-15+0378ELLX V0200601N00301220001CN0060001N9+00501-00101999999ADDGA1021+060009009MA1103291999999REMMET005NOSIGEQDQ01+000000PRSWM2
0073065900999991973010713004+49633+006200FM-12+0378ELLX V0200601N00251220001CN0060001N9+00501-00101103501ADDAY101999GA1011+060009009GF101991001001999999001021MD1710121+9999MW1011
0067065900999991973010713204+49633+006200FM-15+0378ELLX V0200701N00251220001CN0070001N9+00601-00101999999ADDGA1011+060009009MA1103291999999REMMET005NOSIGEQDQ01+000000PRSWM2
0067065900999991973010713504+49633+006200FM-15+0378ELLX V0200701N00361220001CN0070001N9+00601-00101999999ADDGA1011+060009009MA1103291999999REMMET005NOSIGEQDQ01+000000PRSWM2
0073065900999991973010714004+49633+006200FM-12+0378ELLX V0200701N00361220001CN0070001N9+00601-00101103491ADDAY101999GA1011+060009009GF101991001001999999001021MD1610091+9999MW1021
0067065900999991973010714204+49633+006200FM-15+0378ELLX V0200701N00251220001CN0070001N9+00501-00101999999ADDGA1011+060009009MA1103291999999REMMET005NOSIGEQDQ01+000000PRSWM2
0073065900999991973010715004+49633+006200FM-12+0378ELLX V0200801N00251220001CN0070001N9+00501-00101103521ADDAY101999GA1011+060009009GF101991001001999999001021MD1510021+9999MW1021
0067065900999991973010715204+49633+006200FM-15+0378ELLX V0200601N00251220001CN0080001N9+00301-00201999999ADDGA1011+060009009MA1103291999999REMMET005NOSIGEQDQ01+000000PRSWM2
0037065900999991973010715504+49633+006200FM-15+0378ELLX V0200501N003019999999N0100001N9+00201-00301999999ADDMA1103291999999EQDQ01+000000PRSWM2
0073065900999991973010716004+49633+006200FM-12+0378ELLX V0200501N00301220001CN0120001N9+00201-00301103541ADDAY101999GA1011+060009009GF101991001001999999001021MD1810021+9999MW1021
0037065900999991973010716204+49633+006200FM-15+0378ELLX V0200501N002519999999N0100001N9+00201-00301999999ADDMA1103291999999EQDQ01+000000PRSWM2
0108065900999991973010717004+49633+006200FM-12+0378ELLX V0200501N00301220001CN0150001N9+00101-00301103561ADDAY101999GA1011+060009009GF101991001001999999001021MD1210071+9999MW1021EQDQ01+000042APCTENQ02+000012APC3  
0037065900999991973010717204+49633+006200FM-15+0378ELLX V0200601N002519999999N0100001N9+00101-00301999999ADDMA1103291999999EQDQ01+000000PRSWM2
0037065900999991973010717504+49633+006200FM-15+0378ELLX V0200601N003019999999N0100001N9+00001-00301999999ADDMA1103291999999EQDQ01+000000PRSWM2
0081065900999991973010718004+49633+006200FM-12+0378ELLX V0200601N00301220001CN0150001N9+00001-00301103581ADDAA199000091AY101999GF100991001001999999001001KA1999M+00601MD1610021+9999MW1011
0037065900999991973010718204+49633+006200FM-15+0378ELLX V0200701N003619999999N0100001N9+00001-00301999999ADDMA1103291999999EQDQ01+000000PRSWM2
0037065900999991973010718504+49633+006200FM-15+0378ELLX V0200701N004119999999N0100001N9-00101-00301999999ADDMA1103291999999EQDQ01+000000PRSWM2
0057065900999991973010719004+49633+006200FM-12+0378ELLX V0200701N00411220001CN0150001N9-00101-00301103621ADDAY101999GF100991001001999999001001MD1110021+9999MW1021
0037065900999991973010719204+49633+006200FM-15+0378ELLX V0200501N004619999999N0100001N9-00101-00201999999ADDMA1103291999999EQDQ01+000000PRSWM2
0037065900999991973010719504+49633+006200FM-15+0378ELLX V0200501N006119999999N0100001N9-00101-00301999999ADDMA1103291999999EQDQ01+000000PRSWM2
0057065900999991973010720004+49633+006200FM-12+0378ELLX V0200501N00611220001CN0150001N9-00101-00301103621ADDAY101999GF100991001001999999001001MD1110011+9999MW1021
0037065900999991973010720204+49633+006200FM-15+0378ELLX V0200701N005119999999N0100001N9-00201-00301999999ADDMA1103291999999EQDQ01+000000PRSWM2
0040065900999991973010720254+49633+006200FM-15+0378ELLX V0200601N00461000601CN0004001N9-00201-00201999999ADDGA1081+000609079MA1103291999999MW1481
0062065900999991973010720504+49633+006200FM-15+0378ELLX V0200601N005119999999N0004001N9+99999+99999999999ADDMA1103291999999MW1481REMMET029R0800 9//001M02/M02     GRADU
0073065900999991973010721004+49633+006200FM-12+0378ELLX V0200601N00511000301CN0004001N9-00201-00201103641ADDAY101999GA1091+000309999GF109991091999999999999999MD1310021+9999MW1481
0073065900999991973010722004+49633+006200FM-12+0378ELLX V0200601N00461000301CN0004001N9-00201-00201103621ADDAY141999GA1091+000309999GF109991091999999999999999MD1410001+9999MW1481
0067065900999991973010722504+49633+006200FM-15+0378ELLX V0200701N00511000601CN0010001N9-00201-00201999999ADDGA1081+000609079MA1103391999999REMMET005NOSIGEQDQ01+000000PRSWM2
0073065900999991973010723004+49633+006200FM-12+0378ELLX V0200701N00511000601CN0010001N9-00201-00201103641ADDAY121999GA1081+000609079GF108991081061000751999999MD1310021+9999MW1281
0054065900999991973010723204+49633+006200FM-15+0378ELLX V0200701N00411000601CN0004001N9-00201-00201999999ADDGA1081+000609079MA1103391999999MW1481REMMET005NOSIG
0054065900999991973010723504+49633+006200FM-15+0378ELLX V0200601N00411000301CN0005001N9-00201-00201999999ADDGA1081+000309079MA1103391999999MW1481REMMET005NOSIG
0103065900999991973010800004+49633+006200FM-12+0378ELLX V0200601N00411000301CN0005001N9-00201-00201103651ADDAA106000091AY141999GA1081+000309079GF108991081061000251999999MD1310021+9999MW1481EQDQ01  00003PRCP99
0054065900999991973010800204+49633+006200FM-15+0378ELLX V0200601N00511000301CN0005001N9-00101-00201999999ADDGA1081+000309079MA1103391999999MW1481REMMET005NOSIG
0054065900999991973010800504+49633+006200FM-15+0378ELLX V0200501N00411000301CN0005001N9-00101-00201999999ADDGA1081+000309079MA1103391999999MW1481REMMET005NOSIG
0073065900999991973010801004+49633+006200FM-12+0378ELLX V0200501N00411000301CN0005001N9-00201-00201103641ADDAY141999GA1081+000309079GF108991081061000251999999MD1010021+9999MW1481
0067065900999991973010801204+49633+006200FM-15+0378ELLX V0200501N00461000601CN0015001N9-00201-00201999999ADDGA1081+000609079MA1103391999999REMMET005NOSIGEQDQ01+000000PRSWM2
0073065900999991973010801504+49633+006200FM-15+0378ELLX V0200401N00411000901CN0050001N9-00201-00201999999ADDGA1081+000909079MA1103391999999REMMET011102EEENOSIGEQDQ01+000000PRSWM2
0067065900999991973010803204+49633+006200FM-15+0378ELLX V0200501N00461000901CN0070001N9-00201-00201999999ADDGA1081+000909079MA1103291999999REMMET005NOSIGEQDQ01+000000PRSWM2
0067065900999991973010803504+49633+006200FM-15+0378ELLX V0200401N00461001201CN0070001N9-00201-00301999999ADDGA1081+001209079MA1103291999999REMMET005NOSIGEQDQ01+000000PRSWM2
0073065900999991973010804004+49633+006200FM-12+0378ELLX V0200401N00461001201CN0070001N9-00201-00301103621ADDAY121999GA1081+001209079GF108991081061001501999999MD1710021+9999MW1021
0067065900999991973010804204+49633+006200FM-15+0378ELLX V0200601N00411001201CN0070001N9-00201-00301999999ADDGA1081+001209079MA1103291999999REMMET005NOSIGEQDQ01+000000PRSWM2
0051065900999991973010804504+49633+006200FM-15+0378ELLX V0200601N004119999999N0100001N9-00201-00201999999ADDMA1103291999999REMMET005NOSIGEQDQ01+000000PRSWM2
0073065900999991973010805004+49633+006200FM-12+0378ELLX V0200601N00411001201CN0100001N9-00201-00201103621ADDAY121999GA1081+001209079GF108991081061001501999999MD1610021+9999MW1021
0067065900999991973010805204+49633+006200FM-15+0378ELLX V0200601N00411001201CN0100001N9-00101-00201999999ADDGA1081+001209079MA1103291999999REMMET005NOSIGEQDQ01+000000PRSWM2
0067065900999991973010805504+49633+006200FM-15+0378ELLX V0200701N00411001501CN0100001N9-00101-00201999999ADDGA1081+001509079MA1103291999999REMMET005NOSIGEQDQ01+000000PRSWM2
0097065900999991973010806004+49633+006200FM-12+0378ELLX V0200701N00411001501CN0100001N9-00101-00201103611ADDAA199000091AY141999GA1081+001509079GF108991081061001501999999KA1999N-00201MD1810011+9999MW1021
0067065900999991973010806204+49633+006200FM-15+0378ELLX V0200601N00411001201CN0100001N9-00101-00201999999ADDGA1081+001209079MA1103291999999REMMET005NOSIGEQDQ01+000000PRSWM2
0073065900999991973010807004+49633+006200FM-12+0378ELLX V0200601N00411001201CN0100001N9-00101-00201103581ADDAY121999GA1081+001209079GF108991081061001501999999MD1610031+9999MW1021
0067065900999991973010807204+49633+006200FM-15+0378ELLX V0200701N00301001201CN0100001N9-00101-00201999999ADDGA1071+001209079MA1103291999999REMMET005NOSIGEQDQ01+000000PRSWM2
0089065900999991973010808004+49633+006200FM-12+0378ELLX V0200801N00411001201CN0090001N9-00101-00201103591ADDAY121999GA1061+001209079GA2081+002109079GF108991081061001501999999MD1510021+9999MW1021
0084065900999991973010808204+49633+006200FM-15+0378ELLX V0200801N00301001501CN0060001N9-00101-00201999999ADDGA1061+001509079GA2081+002409079MA1103291999999REMMET006NOSIGSEQDQ01+000000PRSWM2
0070065900999991973010808504+49633+006200FM-15+0378ELLX V0200701N00251000901CN0040001N9-00101-00201999999ADDGA1061+000909079GA2081+001509079MA1103391999999MW1561REMMET005NOSIG
0089065900999991973010809004+49633+006200FM-12+0378ELLX V0200701N00251000901CN0040001N9-00101-00201103631ADDAY121999GA1061+000909079GA2081+001509079GF108991081061001501999999MD1310041+9999MW1561
0070065900999991973010809204+49633+006200FM-15+0378ELLX V0200601N00361001201CN0045001N9-00101-00201999999ADDGA1051+001209079GA2081+002409079MA1103391999999MW1561REMMET005NOSIG
0070065900999991973010809504+49633+006200FM-15+0378ELLX V0200701N00361002401CN0040001N9-00101-00201999999ADDGA1041+001209079GA2081+002409079MA1103391999999MW1561REMMET005NOSIG
0089065900999991973010810004+49633+006200FM-12+0378ELLX V0200701N00361002401CN0040001N9-00101-00201103631ADDAY151999GA1041+001209079GA2081+002409079GF108991081061001501999999MD1110061+9999MW1561
0070065900999991973010810204+49633+006200FM-15+0378ELLX V0200801N00361002101CN0045001N9-00101-00201999999ADDGA1041+001209079GA2081+002109079MA1103391999999MW1561REMMET005NOSIG
0070065900999991973010810504+49633+006200FM-15+0378ELLX V0200801N00361001201CN0040001N9-00101-00201999999ADDGA1051+001209079GA2081+002109079MA1103291999999MW1561REMMET005NOSIG
0089065900999991973010811004+49633+006200FM-12+0378ELLX V0200801N00361001201CN0040001N9-00101-00201103601ADDAY151999GA1051+001209079GA2081+002109079GF108991081061001501999999MD1810021+9999MW1561
0058065900999991973010811204+49633+006200FM-15+0378ELLX V0200701N002519999999N0040001N9+99999+99999999999ADDMA1103291999999MW1241REMMET025RA    6ST0048ST008M01/M02
0070065900999991973010811504+49633+006200FM-15+0378ELLX V0200601N00201001201CN0040001N9-00101-00201999999ADDGA1051+001209079GA2081+002109079MA1103291999999MW1561REMMET005NOSIG
0119065900999991973010812004+49633+006200FM-12+0378ELLX V0200601N00201001201CN0040001N9-00101-00201103561ADDAA106999929AY151999GA1051+001209079GA2081+002109079GF108991081061001501999999MD1810071+9999MW1561EQDQ01  99993PRCP99
0070065900999991973010812204+49633+006200FM-15+0378ELLX V0200601N00301001201CN0025001N9+00001-00101999999ADDGA1061+001209079GA2081+002109079MA1103291999999MW1561REMMET005NOSIG
0070065900999991973010812504+49633+006200FM-15+0378ELLX V0200601N00301000901CN0010001N9+00001-00101999999ADDGA1071+000909079GA2081+001809079MA1103291999999MW1561REMMET005NOSIG
0089065900999991973010813004+49633+006200FM-12+0378ELLX V0200601N00301000901CN0010001N9+00001-00101103521ADDAY151999GA1071+000909079GA2081+001809079GF108991081061001501999999MD1810111+9999MW1561
0070065900999991973010813204+49633+006200FM-15+0378ELLX V0200601N00301000901CN0015001N9+00001-00101999999ADDGA1071+000909079GA2081+001809079MA1103181999999MW1561REMMET005NOSIG
0054065900999991973010813504+49633+006200FM-15+0378ELLX V0200501N00361000601CN0020001N9-00101-00101999999ADDGA1081+000609079MA1103181999999MW1561REMMET005NOSIG
0073065900999991973010814004+49633+006200FM-12+0378ELLX V0200501N00361000601CN0020001N9-00101-00101103491ADDAY151999GA1081+000609079GF108991081061000751999999MD1710101+9999MW1561
0058065900999991973010814204+49633+006200FM-15+0378ELLX V0200501N003019999999N0020001N9+99999+99999999999ADDMA1103181999999MW1561REMMET025Z     7ST0028ST005M00/M01
0071065900999991973010814504+49633+006200FM-15+0378ELLX V0200501N00361000601CN0025001N9+00001-00201999999ADDGA1061+000609079GA2081+001509079MA1103291999999MW1561REMMET006104EEE
0089065900999991973010815004+49633+006200FM-12+0378ELLX V0200501N00361000601CN0025001N9+00001-00201103521ADDAY151999GA1061+000609079GA2081+001509079GF108991081061000751999999MD1510041+9999MW1561
0070065900999991973010815204+49633+006200FM-15+0378ELLX V0200501N00411000601CN0020001N9+00001-00101999999ADDGA1071+000609079GA2081+001209079MA1103181999999MW1561REMMET005NOSIG
0070065900999991973010815504+49633+006200FM-15+0378ELLX V0200601N00361000601CN0015001N9-00101-00101999999ADDGA1071+000609079GA2081+001209079MA1103181999999MW1561REMMET005NOSIG
0089065900999991973010816004+49633+006200FM-12+0378ELLX V0200601N00361000601CN0015001N9-00101-00101103491ADDAY151999GA1071+000609079GA2081+001209079GF108991081061000751999999MD1710021+9999MW1561
0070065900999991973010816204+49633+006200FM-15+0378ELLX V0200601N00301000601CN0017001N9-00101-00201999999ADDGA1071+000609079GA2081+001209079MA1103181999999MW1561REMMET005NOSIG
0070065900999991973010816504+49633+006200FM-15+0378ELLX V0200601N00301000601CN0030001N9-00101-00201999999ADDGA1071+000609079GA2081+001209079MA1103181999999MW1241REMMET005NOSIG
0089065900999991973010817004+49633+006200FM-12+0378ELLX V0200601N00301000601CN0030001N9-00101-00201103491ADDAY121999GA1071+000609079GA2081+001209079GF108991081061000751999999MD1410001+9999MW1241
0058065900999991973010817204+49633+006200FM-15+0378ELLX V0200601N004119999999N0035001N9+99999+99999999999ADDMA1103181999999MW1241REMMET025DZ    7ST0038ST006M01/M02
0083065900999991973010817504+49633+006200FM-15+0378ELLX V0200601N00461000901CN0060001N9-00101-00201999999ADDGA1071+000909079GA2081+001809079MA1103291999999REMMET005NOSIGEQDQ01+000000PRSWM2
0113065900999991973010818004+49633+006200FM-12+0378ELLX V0200601N00461000901CN0060001N9-00101-00201103521ADDAA199999929AY151999GA1071+000909079GA2081+001809079GF108991081061001501999999KA1999M-00101MD1510001+9999MW1021
0067065900999991973010818204+49633+006200FM-15+0378ELLX V0200801N00301001801CN0060001N9-00101-00201999999ADDGA1071+001809079MA1103291999999REMMET005NOSIGEQDQ01+000000PRSWM2
0067065900999991973010818504+49633+006200FM-15+0378ELLX V0200701N00301001801CN0060001N9-00101-00201999999ADDGA1081+001809079MA1103291999999REMMET005NOSIGEQDQ01+000000PRSWM2
0073065900999991973010819004+49633+006200FM-12+0378ELLX V0200701N00301001801CN0060001N9-00101-00201103531ADDAY121999GA1081+001809079GF108991081061001501999999MD1310031+9999MW1021
0081065900999991973010819204+49633+006200FM-15+0378ELLX V0200701N00301002401CN0060001N9+99999+99999999999ADDGA1081+002409079MA1103291999999REMMET0190     EEE   M01/M02EQDQ01+000000PRSWM2
0067065900999991973010819504+49633+006200FM-15+0378ELLX V0200701N00511003301CN0100001N9-00101-00201999999ADDGA1081+003309059MA1103291999999REMMET005NOSIGEQDQ01+000000PRSWM2
0073065900999991973010820004+49633+006200FM-12+0378ELLX V0200701N00511003301CN0100001N9-00101-00201103561ADDAY121999GA1081+003309059GF108991081051004501999999MD1310051+9999MW1021
0083065900999991973010820204+49633+006200FM-15+0378ELLX V0200701N00361003901CN0080001N9-00101-00201999999ADDGA1041+002409079GA2071+003909059MA1103291999999REMMET005NOSIGEQDQ01+000000PRSWM2
0083065900999991973010900504+49633+006200FM-15+0378ELLX V0200501N00101006001CN0100001N9-00201-00301999999ADDGA1041+003609059GA2071+006009059MA1103181999999REMMET005NOSIGEQDQ01+000000PRSWM2
0089065900999991973010903004+49633+006200FM-12+0378ELLX V0200501N00051003601CN0100001N9-00101-00201103441ADDAY121999GA1061+003609059GA2081+009909059GF108991081051004501999999MD1710021+9999MW1021
0086065900999991973010903504+49633+006200FM-15+0378ELLX V0200501N00051003301CN0100001N9-00101-00101999999ADDGA1061+003309059GA2081+009909059MA1103181999999REMMET0081033EEEEEQDQ01+000000PRSWM2
0089065900999991973010904004+49633+006200FM-12+0378ELLX V0200501N00051003301CN0100001N9-00101-00101103421ADDAY121999GA1061+003309059GA2081+009909059GF108991081051004501999999MD1710031+9999MW1021
0083065900999991973010904504+49633+006200FM-15+0378ELLX V0200501N00151002101CN0070001N9-00101-00101999999ADDGA1051+002109079GA2081+007809059MA1103121999999REMMET005NOSIGEQDQ01+000000PRSWM2
0089065900999991973010905004+49633+006200FM-12+0378ELLX V0200501N00151002101CN0070001N9-00101-00101103441ADDAY121999GA1051+002109079GA2081+007809059GF108991999999999999999999MD1710101+9999MW1021
0073065900999991973010907004+49633+006200FM-12+0378ELLX V0200301N00201007801CN0060001N9+00001-00101103321ADDAY121999GA1071+007809079GF107991071051008001999999MD1610111+9999MW1011
0083065900999991973010907204+49633+006200FM-15+0378ELLX V0200401N00201015001CN0040001N9+00001-00101999999ADDGA1031+009009059GA2071+015009059MA1103121999999REMMET005NOSIGEQDQ01+000000PRSWM2
0089065900999991973010908004+49633+006200FM-12+0378ELLX V0200501N00201015001CN0045001N9+00001-00101103371ADDAY121999GA1041+009009059GA2071+015009059GF107991071051008001999999MD1310041+9999MW1101
0083065900999991973010908204+49633+006200FM-15+0378ELLX V0200401N00301002401CN0045001N9+00001-00101999999ADDGA1051+002409079GA2071+015009059MA1103121999999REMMET005NOSIGEQDQ01+000000PRSWM2
0083065900999991973010908504+49633+006200FM-15+0378ELLX V0200401N00301015001CN0045001N9+00001-00101999999ADDGA1041+002709079GA2071+015009059MA1103181999999REMMET005NOSIGEQDQ01+000000PRSWM2
0108065900999991973010909004+49633+006200FM-12+0378ELLX V0200401N00301015001CN0034001N9+99999+99999999999ADDAY101999GA1071+015009059GF107991051011000751999091MD1710091+9999MW1101EQDQ01+097533APOSLPQ02    003SCOMCG
0083065900999991973010909204+49633+006200FM-15+0378ELLX V0200501N00251002401CN0045001N9+00001+00001999999ADDGA1051+002409079GA2071+015009059MA1103121999999REMMET005NOSIGEQDQ01+000000PRSWM2
0083065900999991973010909504+49633+006200FM-15+0378ELLX V0200501N00251002101CN0045001N9+00101-00101999999ADDGA1051+002109079GA2071+015009059MA1103181999999REMMET005NOSIGEQDQ01+000000PRSWM2
0089065900999991973010910004+49633+006200FM-12+0378ELLX V0200501N00251002101CN0045001N9+00101-00101103401ADDAY121999GA1051+002109079GA2071+015009059GF107991071051002501999999MD1110091+9999MW1101
0083065900999991973010910204+49633+006200FM-15+0378ELLX V0200501N00251002101CN0045001N9+00101+00001999999ADDGA1061+002109079GA2071+015009059MA1103121999999REMMET005NOSIGEQDQ01+000000PRSWM2
0083065900999991973010910504+49633+006200FM-15+0378ELLX V0200401N00251015001CN0050001N9+00101+00001999999ADDGA1041+003009079GA2081+015009059MA1103121999999REMMET005NOSIGEQDQ01+000000PRSWM2
0083065900999991973010911204+49633+006200FM-15+0378ELLX V0200401N00251003301CN0060001N9+00101+00001999999ADDGA1051+003309059GA2081+013809059MA1103121999999REMMET005NOSIGEQDQ01+000000PRSWM2
0092065900999991973010912004+49633+006200FM-12+0378ELLX V0200501N00201015001CN0060001N9+00101+99999103391ADDAY121999GA1081+015009059GF108991081051004501999999MD1710101+9999MW1021EQDQ01+023823ATOD  
0099065900999991973010912204+49633+006200FM-15+0378ELLX V0200401N00251006001CN0070001N9+00101+00001999999ADDGA1011+003009079GA2061+006009059GA3081+015009059MA1103011999999REMMET005NOSIGEQDQ01+000000PRSWM2
0067065900999991973010912504+49633+006200FM-15+0378ELLX V0200401N00251004801CN0070001N9+00101+00001999999ADDGA1081+004809059MA1103011999999REMMET005NOSIGEQDQ01+000000PRSWM2
0067065900999991973010913204+49633+006200FM-15+0378ELLX V0200501N00251004801CN0070001N9+00201-00101999999ADDGA1081+004809059MA1103011999999REMMET005NOSIGEQDQ01+000000PRSWM2
0067065900999991973010913504+49633+006200FM-15+0378ELLX V0200401N00201004801CN0070001N9+00101-00201999999ADDGA1081+004809059MA1103011999999REMMET005NOSIGEQDQ01+000000PRSWM2
0073065900999991973010914004+49633+006200FM-12+0378ELLX V0200401N00201004801CN0070001N9+00101-00201103351ADDAY121999GA1081+004809059GF108991081051004501999999MD1610091+9999MW1021
0067065900999991973010914204+49633+006200FM-15+0378ELLX V0200601N00251004501CN0080001N9+00101-00101999999ADDGA1081+004509059MA1103011999999REMMET005NOSIGEQDQ01+000000PRSWM2
0067065900999991973010914504+49633+006200FM-15+0378ELLX V0200501N00251006001CN0070001N9+00101-00101999999ADDGA1081+006009059MA1103011999999REMMET005NOSIGEQDQ01+000000PRSWM2
0073065900999991973010915004+49633+006200FM-12+0378ELLX V0200501N00251006001CN0070001N9+00101-00101103351ADDAY121999GA1081+006009059GF108991081051008001999999MD1610041+9999MW1021
0067065900999991973010915204+49633+006200FM-15+0378ELLX V0200301N00251004801CN0080001N9+00101-00101999999ADDGA1081+004809059MA1103011999999REMMET005NOSIGEQDQ01+000000PRSWM2
0073065900999991973010916004+49633+006200FM-12+0378ELLX V0200401N00201004201CN0070001N9+00101-00101103341ADDAY121999GA1081+004209059GF108991081051004501999999MD1810031+9999MW1021
0067065900999991973010916204+49633+006200FM-15+0378ELLX V0200501N00201004201CN0070001N9+00101-00101999999ADDGA1081+004209059MA1103011999999REMMET005NOSIGEQDQ01+000000PRSWM2
0073065900999991973010917004+49633+006200FM-12+0378ELLX V0200701N00251004201CN0070001N9+00101-00101103341ADDAY121999GA1081+004209059GF108991081051004501999999MD1810021+9999MW1021
0067065900999991973010917204+49633+006200FM-15+0378ELLX V0200601N00201004201CN0070001N9+00001-00101999999ADDGA1081+004209059MA1103011999999REMMET005NOSIGEQDQ01+000000PRSWM2
0073065900999991973010918004+49633+006200FM-12+0378ELLX V0209999999999004201CN0070001N9+00101-00101103331ADDAY121999GA1081+004209059GF108991081051004501999999MD1810041+9999MW1021
0052065900999991973010918204+49633+006200FM-15+0378ELLX V0200501N00201003001CN0060001N9+00001-00101999999ADDGA1081+003009059REMMET005NOSIGEQDQ01+000000PRSWM2
0067065900999991973010918504+49633+006200FM-15+0378ELLX V0200701N00201004201CN0060001N9+00001-00101999999ADDGA1081+004209059MA1103011999999REMMET005NOSIGEQDQ01+000000PRSWM2
0067065900999991973010919504+49633+006200FM-15+0378ELLX V0200801N00201003601CN0070001N9+00001-00101999999ADDGA1081+003609059MA1103011999999REMMET005NOSIGEQDQ01+000000PRSWM2
0073065900999991973010920004+49633+006200FM-12+0378ELLX V0200701N00301003301CN0070001N9+00001-00101103191ADDAY121999GA1081+003309059GF108991081051004501999999MD1710041+9999MW1021
0067065900999991973011000504+49633+006200FM-15+0378ELLX V0200501N00361009001CN0080001N9+00001-00201999999ADDGA1081+009009059MA1102811999999REMMET005NOSIGEQDQ01+000000PRSWM2
0088065900999991973011002504+49633+006200FM-15+0378ELLX V0200701N00251001801CN0040001N9+00001-00101999999ADDGA1061+001809079GA2081+004509059MA1102811999999REMMET010GRADU 2000EQDQ01+000000PRSWM2
0067065900999991973011004504+49633+006200FM-15+0378ELLX V0200601N00411000151CN0030001N9+00001-00101999999ADDGA1081+000159079MA1102811999999REMMET005NOSIGEQDQ01+000000PRSWM2
0067065900999991973011005504+49633+006200FM-15+0378ELLX V0200501N00561001801CN0030001N9+00001-00101999999ADDGA1081+001809079MA1102811999999REMMET005NOSIGEQDQ01+000000PRSWM2
0099065900999991973011006504+49633+006200FM-15+0378ELLX V0200601N00361001801CN0040001N9+00001-00101999999ADDGA1051+001809079GA2061+003909059GA3081+013809059MA1102811999999REMMET005NOSIGEQDQ01+000000PRSWM2
0126065900999991973011007004+49633+006200FM-12+0378ELLX V0200601N00361001801CN0040001N9+00001-00101103051ADDAY121999GA1051+001809079GA2061+003909059GA3081+013809059GF108991081051001501999999MW1101EQDQ01+000032APCTENQ02+000002APC3  
0070065900999991973011007504+49633+006200FM-15+0378ELLX V0200601N00361001801CN0030001N9+00001-00101999999ADDGA1051+001809079GA2081+013809059MA1102811999999MW1501REMMET005NOSIG
0089065900999991973011008004+49633+006200FM-12+0378ELLX V0200601N00361001801CN0030001N9+00001-00101103041ADDAY121999GA1051+001809079GA2081+013809059GF108991081051001501999999MD1110031+9999MW1501
0067065900999991973011008204+49633+006200FM-15+0378ELLX V0201001N00511006001CN0100001N9-00101-00501999999ADDGA1071+006009059MA1102811999999REMMET005NOSIGEQDQ01+000000PRSWM2
0070065900999991973011008504+49633+006200FM-15+0378ELLX V0200601N00411001801CN0027001N9+00001-00101999999ADDGA1061+001809079GA2081+012009059MA1102811999999MW1201REMMET005NOSIG
0089065900999991973011009004+49633+006200FM-12+0378ELLX V0200601N00411001801CN0027001N9+00001-00101103061ADDAY121999GA1061+001809079GA2081+012009059GF108991081051012501999999MD1110051+9999MW1201
0068065900999991973011009204+49633+006200FM-15+0378ELLX V0200701N00361001801CN0027001N9+00001-00101999999ADDGA1051+001809079GA2071+012009059REMMET005NOSIGEQDQ01+000000PRSWM2
0083065900999991973011009504+49633+006200FM-15+0378ELLX V0200701N00461001201CN0027001N9+00101-00101999999ADDGA1071+001209079GA2081+012009059MA1102811999999REMMET005NOSIGEQDQ01+000000PRSWM2
0089065900999991973011010004+49633+006200FM-12+0378ELLX V0200701N00461001201CN0027001N9+00101-00101103061ADDAY121999GA1071+001209079GA2081+012009059GF108991081051001501999999MD1110011+9999MW1101
0083065900999991973011010204+49633+006200FM-15+0378ELLX V0200701N00361001501CN0027001N9+00101+00001999999ADDGA1061+001509079GA2071+012009059MA1102811999999REMMET005NOSIGEQDQ01+000000PRSWM2
0067065900999991973011010504+49633+006200FM-15+0378ELLX V0200701N00411001501CN0030001N9+00101+00001999999ADDGA1071+001509079MA1102811999999REMMET005NOSIGEQDQ01+000000PRSWM2
0073065900999991973011011004+49633+006200FM-12+0378ELLX V0200701N00411001501CN0030001N9+00101+00001103021ADDAY121999GA1071+001509079GF108991081061001501999999MD1410001+9999MW1101
0067065900999991973011011204+49633+006200FM-15+0378ELLX V0200701N00361001501CN0030001N9+00101-00101999999ADDGA1071+001509079MA1102811999999REMMET005NOSIGEQDQ01+000000PRSWM2
0067065900999991973011011504+49633+006200FM-15+0378ELLX V0200601N00411001501CN0035001N9+00101+00001999999ADDGA1071+001509079MA1102811999999REMMET005NOSIGEQDQ01+000000PRSWM2
0073065900999991973011012004+49633+006200FM-12+0378ELLX V0200601N00411001501CN0035001N9+00101+00001103001ADDAY121999GA1071+001509079GF108991071061001501999999MD1810041+9999MW1101
0083065900999991973011012204+49633+006200FM-15+0378ELLX V0200701N00361015001CN0035001N9+00101+00001999999ADDGA1031+001509079GA2081+015009059MA1102711999999REMMET005NOSIGEQDQ01+000000PRSWM2
0099065900999991973011012504+49633+006200FM-15+0378ELLX V0200601N00461007501CN0035001N9+00101+00001999999ADDGA1021+001809079GA2031+007509059GA3081+015009059MA1102711999999REMMET005NOSIGEQDQ01+000000PRSWM2
0105065900999991973011013004+49633+006200FM-12+0378ELLX V0200601N00461007501CN0035001N9+00101+00001102551ADDAY121999GA1021+001809079GA2031+007509059GA3081+015009059GF108991081051001501999999MD1810091+9999MW1101
0067065900999991973011013204+49633+006200FM-15+0378ELLX V0200701N00411015001CN0040001N9+00101+99999999999ADDGA1081+015009059MA1102711999999REMMET005NOSIGEQDQ01+000000PRSWM2
0083065900999991973011013504+49633+006200FM-15+0378ELLX V0200701N00411015001CN0040001N9+00101-00101999999ADDGA1021+007509059GA2071+015009059MA1102711999999REMMET005NOSIGEQDQ01+000000PRSWM2
0089065900999991973011014004+49633+006200FM-12+0378ELLX V0200701N00411015001CN0040001N9+00101-00101102541ADDAY121999GA1021+007509059GA2071+015009059GF107991071051001501999999MD1610081+9999MW1101
0083065900999991973011014204+49633+006200FM-15+0378ELLX V0200701N00411015001CN0030001N9+00101-00101999999ADDGA1021+007509059GA2081+015009059MA1102711999999REMMET005NOSIGEQDQ01+000000PRSWM2
0064065900999991973011014504+49633+006200FM-15+0378ELLX V0200701N00411015001CN0040001N9+00101-00101999999ADDGA1021+006009059GA2081+015009059REMMET001?EQDQ01+000000PRSWM2
0089065900999991973011015004+49633+006200FM-12+0378ELLX V0200701N00411015001CN0040001N9+00101-00101102531ADDAY121999GA1021+006009059GA2081+015009059GF108991081051008001999999MD1810071+9999MW1101
0083065900999991973011015204+49633+006200FM-15+0378ELLX V0200701N00411012001CN0030001N9+00101-00101999999ADDGA1011+006009059GA2081+012009059MA1102711999999REMMET005NOSIGEQDQ01+000000PRSWM2
0067065900999991973011015504+49633+006200FM-15+0378ELLX V0200701N00411012001CN0040001N9+00101-00101999999ADDGA1071+012009059MA1102711999999REMMET005NOSIGEQDQ01+000000PRSWM2
0073065900999991973011016004+49633+006200FM-12+0378ELLX V0200701N00411012001CN0040001N9+00101-00101102931ADDAY121999GA1071+012009059GF107991071051017501999999MD1610021+9999MW1101
0067065900999991973011016204+49633+006200FM-15+0378ELLX V0200801N00411012001CN0040001N9+00101-00101999999ADDGA1061+012009059MA1102711999999REMMET005NOSIGEQDQ01+000000PRSWM2
0067065900999991973011016504+49633+006200FM-15+0378ELLX V0200801N00411012001CN0060001N9+00101-00101999999ADDGA1071+012009059MA1102711999999REMMET005NOSIGEQDQ01+000000PRSWM2
0073065900999991973011017004+49633+006200FM-12+0378ELLX V0200801N00411012001CN0060001N9+00101-00101102951ADDAY121999GA1071+012009059GF107991071051017501999999MD1410001+9999MW1021
0067065900999991973011017204+49633+006200FM-15+0378ELLX V0200801N00461006001CN0060001N9+00101-00101999999ADDGA1071+006009059MA1102711999999REMMET005NOSIGEQDQ01+000000PRSWM2
0067065900999991973011017504+49633+006200FM-15+0378ELLX V0200701N00411006001CN0050001N9+00101-00101999999ADDGA1071+006009059MA1102711999999REMMET005NOSIGEQDQ01+000000PRSWM2
0097065900999991973011018004+49633+006200FM-12+0378ELLX V0200701N00411006001CN0050001N9+00101-00101102941ADDAA199000091AY121999GA1071+006009059GF107991071051008001999999KA1999M+00101MD1410001+9999MW1101
0067065900999991973011018204+49633+006200FM-15+0378ELLX V0200801N00411220001CN0060001N9+00001-00201999999ADDGA1031+006009059MA1102711999999REMMET005NOSIGEQDQ01+000000PRSWM2
0067065900999991973011018504+49633+006200FM-15+0378ELLX V0200801N00301220001CN0060001N9-00101-00201999999ADDGA1011+006009059MA1102711999999REMMET005NOSIGEQDQ01+000000PRSWM2
0073065900999991973011019004+49633+006200FM-12+0378ELLX V0200801N00301220001CN0060001N9-00101-00201102961ADDAY111999GA1011+006009059GF101991011051008001999999MD1410001+9999MW1011
0067065900999991973011019204+49633+006200FM-15+0378ELLX V0200901N00411220001CN0080001N9-00101-00201999999ADDGA1011+009009059MA1102711999999REMMET005NOSIGEQDQ01+000000PRSWM2
0067065900999991973011019504+49633+006200FM-15+0378ELLX V0200601N00361220001CN0070001N9-00101-00201999999ADDGA1021+009009059MA1102711999999REMMET005NOSIGEQDQ01+000000PRSWM2
0073065900999991973011020004+49633+006200FM-12+0378ELLX V0200601N00361220001CN0070001N9-00101-00201102971ADDAY101999GA1021+009009059GF102991021051008001999999MD1410001+9999MW1031
0067065900999991973011020204+49633+006200FM-15+0378ELLX V0201001N00361006001CN0090001N9+00001-00201999999ADDGA1051+006009059MA1102711999999REMMET005NOSIGEQDQ01+000000PRSWM2
0067065900999991973011020504+49633+006200FM-15+0378ELLX V0201001N00361006001CN0100001N9+00001-00301999999ADDGA1071+006009059MA1102711999999REMMET005NOSIGEQDQ01+000000PRSWM2
0073065900999991973011021004+49633+006200FM-12+0378ELLX V0201001N00361006001CN0100001N9+00001-00301103001ADDAY111999GA1071+006009059GF107991071051008001999999MD1310041+9999MW1031
0067065900999991973011021204+49633+006200FM-15+0378ELLX V0201001N00201006001CN0100001N9+00001-00301999999ADDGA1071+006009059MA1102711999999REMMET005NOSIGEQDQ01+000000PRSWM2
