0178065900999991994010107004+49617+006217SY-MT+0379ELLX V0209991V00151012001CN0200001N1+00131+00061101301ADDAG11999GA1021+006609999GA2071+012009999GF107991071081008001999999MA1101081999999MD1210391+9999OA149900361REMSYN028 333 84822 85640 91107 91205MET008NEW NOSIEQDQ01+000000PRSWM2
0103065900999991994010109004+49617+006217SY-MT+0379ELLX V0202801N002619999999N0100001N1+00151+00061101561ADDAG11000MA1101291999999MD1210381+9999OA149900461REMSYN016 333 91109 91206MET003NEWEQDQ01+000000PRSWM2
0103065900999991994010110004+49617+006217SY-MT+0379ELLX V0202601N003119999999N0100001N1+00141+00051101681ADDAG11999MA1101391999999MD1210351+9999OA149900571REMSYN016 333 91111 91207MET003NEWEQDQ01+000000PRSWM2
0194065900999991994010111004+49617+006217SY-MT+0379ELLX V0202701N00411007201CN0150001N1+00211+00031101721ADDAG11999GA1021+004509999GA2071+007209999GF199999061081004501001001MA1101491999999MD1210261+9999OA149900721REMSYN028 333 83815 86624 91114 91209MET008NEW NOSIEQDQ01+000062SCOTCVQ02+000000PRSWM2
0167065900999991994010112004+49617+006217SY-MT+0379ELLX V0202401N00361220001CN0150001N1+00291+00081101721ADDAA106000091AG14000GA1021+007509999GF103991031081008001001001MA1101491999999MD1210161+9999OA149900721REMSYN022 333 82825 91114 91209MET008NEW NOSIEQDQ01+000000PRSWM2
0124065900999991994010113204+49617+006217FM-15+0379ELLX V0202301N00511004201CN0112651N1+00301+00001999999ADDAG11999GA1071+004209999MA1101591999999REMMET055NEW NIIOUVREUQCV KCFWWGKT 9999 SCT008 )-917 03/02 Q1015EQDQ01+000000PRSWM2
0138065900999991994010114004+49617+006217SY-MT+0379ELLX V0202501N00461006001CN0250001N9+00241-00021101831ADDAG12999GA1071+006009999GA2071+014409999GF107991071081004501999999MD1210101+9999OA149900821REMSYN022 333 86817 91116 91211MET008NEW NOSI
0178065900999991994010115004+49617+006217SY-MT+0379ELLX V0202401N00461009001CN0200001N1+00231-00171101891ADDAG11000GA1021+004809999GA2021+015009999GF106991061081004501001001MA1101591999999MD1210151+9999OA149900821REMSYN028 333 84816 84650 91116 91211MET008NEW NOSIEQDQ01+000000PRSWM2
0163065900999991994010116004+49617+006217SY-MT+0379ELLX V0202301N00461011401CN0250001N9+00171-00191101931ADDAG12999GA1021+005409999GA2071+011409999GF199999051081004501001001MD1210131+9999OA149900671REMSYN028 333 81818 84640 91113 91210MET008NEW NOSIEQDQ01+000052SCOTCV
0077065900999991994010117204+49617+006217FM-15+0379ELLX V0202401N00361012001CN0112651N1+00101-00101999999ADDAG11999GA1071+012009999MA1101691999999REMMET008NEW NOSIEQDQ01+000000PRSWM2
0224065900999991994010118004+49617+006217SY-MT+0379ELLX V0202201N00311012001CN0200001N1+00111-00131101971ADDAA106000091AG11000GA1021+004809999GA2071+012009999GF199999061081004501001001KA1120M+00331MA1101691999999MD1210061+9999OA149900821REMSYN034 333 10033 81816 86640 91116 91211MET008NEW NOSIEQDQ01+000062SCOTCVQ02+000000PRSWM2
0178065900999991994010119004+49617+006217SY-MT+0379ELLX V0202001N00261012001CN0200001N1+00071-00171101971ADDAG11999GA1021+003009999GA2071+012009999GF107991071051004501999999MA1101691999999MD1210021+9999OA149900721REMSYN028 333 84610 87640 91114 91207MET008NEW NOSIEQDQ01+000000PRSWM2
0077065900999991994010119504+49617+006217FM-15+0379ELLX V0202001N00311002401CN0112651N1+00101-00101999999ADDAG11999GA1071+002409999MA1101591999999REMMET008NEW NOSIEQDQ01+000000PRSWM2
0156065900999991994010121004+49617+006217SY-MT+0379ELLX V0202101N00361002101CN0150001N1+00101-00081101871ADDAG11000GA1071+002109999GF107991071061002501999999MA1101591999999MD1710101+9999OA149900721REMSYN022 333 87707 91114 91208MET008NEW NOSIEQDQ01+000000PRSWM2
0144065900999991994010122004+49617+006217SY-MT+0379ELLX V0202101N00361001801CN0120001N9+00081-00021101811ADDAG12999GA1071+001809999GA2071+009009999GF107991071051001501999999MD1710151+9999OA149900621REMSYN028 333 85704 87635 91112 91209MET008NEW NOSI
0178065900999991994010123004+49617+006217SY-MT+0379ELLX V0201801N00361009901CN0150001N1+00051-00051101691ADDAG11999GA1021+001509999GA2071+009909999GF107991071051001501999999MA1101391999999MD1710181+9999OA149900621REMSYN028 333 83705 87633 91112 91209MET008NEW NOSIEQDQ01+000000PRSWM2
0189065900999991994010200004+49617+006217SY-MT+0379ELLX V0201801N00411001201CN0090001N1+00051-00021101591ADDAA106000091AG11000GA1071+001209999GA2071+009009999GF107991071051001501999999MA1101291999999MD1710261+9999OA149900721REMSYN028 333 85704 87630 91114 91209MET008NEW NOSIEQDQ01+000000PRSWM2
0103065900999991994010201004+49617+006217SY-MT+0379ELLX V0201801N004119999999N0030001N1+00081+00011101431ADDAG11999MA1101191999999MD1710351+9999OA149900671REMSYN016 333 91113 91210MET003NEWEQDQ01+000000PRSWM2
0103065900999991994010202004+49617+006217SY-MT+0379ELLX V0201801N005119999999N0100001N1+00081+00011101281ADDAG11999MA1101021999999MD1710391+9999OA149900771REMSYN016 333 91115 91210MET003NEWEQDQ01+000000PRSWM2
0159065900999991994010203004+49617+006217SY-MT+0379ELLX V0201801N00571001801CN0040001N1+00091+00031101081ADDAG12001AW1601AZ121031AZ221031GA1071+001809999GF108991071071001501999999MA1100811999999MD1710481+9999OA149900981REMSYN022 333 87706 91119 91212MET008NEW NOSI
0148065900999991994010204004+49617+006217FM-12+0379ELLX V0200801N00871220001CN0020001N9+00021-00041100891ADDAA106000091AG14999AZ171011AZ271011GA1001+999999999GF100991001001999999001001MD1710531+9999OA149901031REMSYN016 333 91120 91213EQDQ01+000712PRSWOA
0070065900999991994010204204+49617+006217FM-15+0379ELLX V0201701N00671000901CN0020001N1+00001-00101999999ADDAG11999GA1071+000909999MA1100511999999MW1101MW2711REMMET008NEW NOSI
0176065900999991994010205004+49617+006217SY-MT+0379ELLX V0201701N00771000601CN0015001N1+00011-00051100611ADDAG12999AW1711AZ171021AZ271021GA1071+000609999GF108991071071000751999999MA1100411999999MD1710661+9999MW1101OA149901081REMSYN022 333 87702 91121 91215MET019NEW NOSIG 065905 33
0260065900999991994010206004+49617+006217SY-MT+0379ELLX V0201701N00671000301CN0015001N1-00011-00051100391ADDAA199001091AG10001AJ100029199999999AW1711AZ171061AZ221061GA1071+000309999GF108991071071000251999999GJ100009IA2999-00109KA1120N-00021MA1100101999999MD1710681+9999MW1101OA149901131REMSYN046 333 21002 3/101 43002 87701 91122 91215 94000MET018NEW NOSIG 06590533
0169065900999991994010207004+49617+006217SY-MT+0379ELLX V0201701N00671000601CN0040001N1+00001-00041100231ADDAG12999AW1601AZ171011AZ221011GA1071+000609999GF108991071071000751999999MA1100001999999MD1710641+9999OA149901241REMSYN022 333 87702 91124 91215MET018NEW NOSIG 06290040
0186065900999991994010208004+49617+006217SY-MT+0379ELLX V0201901N00621000301CN0012001N1+00031-00011100111ADDAG12999AW1611AZ161021AZ261021ED199U20009GA1071+000309999GF108991071071000251999999MA1099901999999MD1710481+9999MW1101OA149901131REMSYN022 333 87701 91122 91213MET018NEW NOSIG 06290034
0186065900999991994010209004+49617+006217SY-MT+0379ELLX V0201901N00511000301CN0003001N1+00091+00091100051ADDAG12001AW1461AZ171031AZ261031ED199U16009GA1081+000309999GF108991081061000251999999MA1099801999999MD1710321+9999OA149901241REMSYN028 333 42002 88701 91124 91215MET018NEW NOSIG 06690350
0085065900999991994010209294+49617+006217FM-16+0379ELLX V0202201N00511000301CN0003001N1+00101+00101999999ADDAG11000ED199U16009GA1081+000309999MA1099801999999MW1441REMMET018NEW NOSIG 06690350
0178065900999991994010210004+49617+006217SY-MT+0379ELLX V0202201N00621001801CN0200001N1+00301+00201100021ADDAG11999AW1281AZ121011AZ221011GA1071+001809999GF107991071061001501001001MA1099801999999MD1710171+9999OA149900821REMSYN022 333 87706 91116 91212MET008NEW NOSIEQDQ01+000000PRSWM2
0208065900999991994010211004+49617+006217SY-MT+0379ELLX V0202501N00981010501CN0180001N1+00711+00601100011ADDAG12999AW1251AZ121021AZ221021GA1021+005409999GA2071+010509999GF107991071081004501999999MA1099801999999MD1710041+9999OA149901901OC101651REMSYN028 333 84818 86635 91137 91223MET008NEW NOSIEQDQ01+000000PRSWM2
0247065900999991994010212004+49617+006217SY-MT+0379ELLX V0202501N01231013501CN0300001N1+00761+00351100011ADDAA106002091AG11001AW1021AZ181061AZ271061GA1021+006009999GA2071+013509999GA3071+060009999GF107991061081008001001021MA1099801999999MD1210011+9999OA149901901OC101751REMSYN040 333 41997 82820 85645 85070 91137 91224MET008NEW NOSIEQDQ01+000000PRSWM2
0200065900999991994010213004+49617+006217SY-MT+0379ELLX V0202601N00931012001CN0100001N1+00651+00371100061ADDAG12999AW1251AZ121011AZ221011GA1021+006009999GA2021+012009999GF106991061081008001001021MA1099901999999MD1210071+9999OA149901961REMSYN028 333 82820 85640 91138 91225MET008NEW NOSIEQDQ01+000000PRSWM2
0178065900999991994010214004+49617+006217SY-MT+0379ELLX V0202601N00871012001CN0100001N1+00731+00441100091ADDAG11999GA1021+006009999GA2021+012009999GF105991051081008001001021MA1099901999999MD1210081+9999OA149901601REMSYN028 333 82820 84640 91131 91220MET008NEW NOSIEQDQ01+000000PRSWM2
0208065900999991994010215004+49617+006217SY-MT+0379ELLX V0202601N00871009001CN0100001N1+00681+00231100211ADDAG12001AW1021AZ181031AZ221031GA1021+006009999GA2071+009009999GF107991071081008001999999MA1100001999999MD1210191+9999OA149901961OC101391REMSYN028 333 84820 85630 91138 91225MET008NEW NOSIEQDQ01+000000PRSWM2
0093065900999991994010215504+49617+006217FM-15+0379ELLX V0202601N00721220001CN0112651N1+00601+00201999999ADDAG11999GA1021+006009999GA2021+009009999MA1100101999999REMMET008NEW NOSIEQDQ01+000000PRSWM2
0178065900999991994010217004+49617+006217SY-MT+0379ELLX V0202701N00671012001CN0100001N1+00631+00181100401ADDAG11999GA1021+006009999GA2021+009009999GF106991061081008001001001MA1100201999999MD1210281+9999OA149901031REMSYN028 333 83820 84630 91120 91214MET008NEW NOSIEQDQ01+000000PRSWM2
0211065900999991994010218004+49617+006217SY-MT+0379ELLX V0202501N00721012001CN0100001N1+00581+00231100461ADDAA199003091AG10001AW1021AZ181061AZ221061GA1021+006009999GA2021+009009999GF106991061081008001001001MA1100201999999MD1210231+9999OA149901961REMSYN028 333 83820 84630 91138 91225MET008NEW NOSIEQDQ01+000000PRSWM2
0178065900999991994010219004+49617+006217SY-MT+0379ELLX V0202601N00721009001CN0100001N1+00541+00221100551ADDAG11999GA1021+005109999GA2021+007509999GF106991061081004501001001MA1100311999999MD1210231+9999OA149901341REMSYN028 333 83817 84625 91126 91218MET008NEW NOSIEQDQ01+000000PRSWM2
0194065900999991994010220004+49617+006217SY-MT+0379ELLX V0202601N00511007801CN0100001N1+00521+00201100661ADDAG11999GA1021+004509999GA2071+007809999GF199999061081004501001001MA1100411999999MD1210241+9999OA149901131REMSYN028 333 82815 85626 91122 91215MET008NEW NOSIEQDQ01+000062SCOTCVQ02+000000PRSWM2
0216065900999991994010221004+49617+006217SY-MT+0379ELLX V0202501N00571004501CN0120001N1+00541+00221100691ADDAG12000AW1251AZ121031AZ221031GA1021+003609999GA2071+004509999GF199999061081004501001001MA1100511999999MD1210221+9999OA149901341REMSYN028 333 83812 85615 91126 91218MET008NEW NOSIEQDQ01+000062SCOTCVQ02+000000PRSWM2
0178065900999991994010222004+49617+006217SY-MT+0379ELLX V0202601N00621012001CN0120001N1+00551+00231100721ADDAG11999GA1021+003609999GA2071+012009999GF107991071081004501999999MA1100511999999MD1210181+9999OA149900981REMSYN028 333 84812 85640 91119 91212MET008NEW NOSIEQDQ01+000000PRSWM2
0173065900999991994010223004+49617+006217SY-MT+0379ELLX V0202501N00621004201CN0150001N1+00541+00221100701ADDAG11999GA1021+003909999GA2021+012009999GF105991051051004501001001MA1100511999999MD1210101+9999OA149901031REMSYN028 333 84613 83640 91120 91212MET003NEWEQDQ01+000000PRSWM2
0227065900999991994010300004+49617+006217SY-MT+0379ELLX V0202501N00571012001CN0150001N1+00541+00221100721ADDAA106999929AG11001AW1031AZ181061AZ221061GA1021+004509999GA2071+012009999GF199999061051004501001001MA1100611999999MD1210081+9999OA149901341REMSYN028 333 84615 85640 91126 91218MET008NEW NOSIEQDQ01+000062SCOTCVQ02+000000PRSWM2
0103065900999991994010301004+49617+006217SY-MT+0379ELLX V0202501N005719999999N0100001N1+00511+00191100781ADDAG11999MA1100611999999MD1210091+9999OA149900931REMSYN016 333 91118 91213MET003NEWEQDQ01+000000PRSWM2
0069065900999991994010302004+49617+006217SY-MT+0379ELLX V0202501N005119999999N0100001N9+00501+00181100841ADDAG12999MD1210131+9999OA149900821REMSYN016 333 91116 91212MET003NEW
0172065900999991994010303004+49617+006217SY-MT+0379ELLX V0202601N00571004501CN0150001N1+00491+00171100891ADDAG11000GA1071+004509999GF199999061051004501001001MA1100711999999MD1210151+9999OA149900931REMSYN022 333 86615 91118 91213MET008NEW NOSIEQDQ01+000062SCOTCVQ02+000000PRSWM2
0178065900999991994010304004+49617+006217SY-MT+0379ELLX V0202601N00511002401CN0090001N1+00471+00161100941ADDAG11999GA1071+002409999GA2071+003909999GF107991071051002501999999MA1100811999999MD1210141+9999OA149900821REMSYN028 333 85708 87613 91116 91210MET008NEW NOSIEQDQ01+000000PRSWM2
0156065900999991994010305004+49617+006217SY-MT+0379ELLX V0202601N00361002101CN0060001N1+00441+00131100871ADDAG11999GA1071+002109999GF107991071061002501999999MA1100711999999MD1210021+9999OA149900821REMSYN022 333 87707 91116 91211MET008NEW NOSIEQDQ01+000000PRSWM2
0093065900999991994010305304+49617+006217FM-15+0379ELLX V0202201N00311001801CN0050001N1+00401+00201999999ADDAG11999GA1071+001809999GA2071+003609999MA1100711999999REMMET008NEW NOSIEQDQ01+000000PRSWM2
0235065900999991994010306004+49617+006217SY-MT+0379ELLX V0202201N00311001801CN0050001N1+00401+00201100911ADDAG11000GA1071+001809999GA2071+003609999GF107991999999001501999999GJ100009IA1099IA2999+00309KA1120N+00351MA1100711999999MD1210011+9999OA149900931REMSYN046 333 20035 31003 85706 86612 91118 91213 94000MET008NEW NOSIEQDQ01+000000PRSWM2
0159065900999991994010307004+49617+006217SY-MT+0379ELLX V0202101N00411001201CN0021001N1+00411+00211100911ADDAG11999AW1101AZ121011AZ221011GA1071+001209999GF107991071061001501999999MA1100711999999MD1710031+9999OA149900621REMSYN022 333 87704 91112 91208MET008NEW NOSI
0198065900999991994010308004+49617+006217SY-MT+0379ELLX V0202101N00511000901CN0012001N1+00421+00261100931ADDAG12999AW1601AZ121021AZ221021ED199U20009GA1021+000309999GA2071+000909999GF108991071071000251999999MA1100711999999MD1210041+9999MW1101OA149900771REMSYN028 333 84701 87703 91115 91211MET008NEW NOSI
0200065900999991994010309004+49617+006217SY-MT+0379ELLX V0202101N00411000901CN0050001N1+00471+00401100881ADDAG12001AW1211AZ161031AZ221031GA1071+000909999GA2071+002709999GF108991071071000751999999MA1100711999999MD1710031+9999OA149900771REMSYN028 333 85703 87709 91115 91211MET008NEW NOSIEQDQ01+000000PRSWM2
0178065900999991994010310004+49617+006217SY-MT+0379ELLX V0201901N00461001201CN0070001N1+00571+00401100821ADDAG11999GA1071+001209999GA2071+002109999GF107991071061001501999999MA1100611999999MD1710081+9999OA149900621REMSYN028 333 85704 86707 91112 91209MET008NEW NOSIEQDQ01+000000PRSWM2
0108065900999991994010310204+49617+006217FM-16+0379ELLX V02099999999999999999N9999999N9+99999+99999999999ADDAG11999REMMET054NEW 1020Z UUKUAKT 40270 ( 004 BKN007 05/04 Q1006 NOSIGEQDQ01+000002VOVAR Q02+000000PRSWM2
0200065900999991994010311004+49617+006217SY-MT+0379ELLX V0201801N00311001501CN0035001N1+00541+00371100741ADDAG11999AW1101AZ121021AZ221021GA1021+000909999GA2071+001509999GF107991071061000751999999MA1100611999999MD1710171+9999OA149900671REMSYN028 333 84703 87705 91113 91209MET008NEW NOSIEQDQ01+000000PRSWM2
0211065900999991994010312004+49617+006217SY-MT+0379ELLX V0201801N00621001201CN0045001N1+00591+00421100571ADDAA106000191AG10001AW1101AZ161061AZ221061GA1071+001209999GA2071+002109999GF107991071061001501999999MA1100411999999MD1710281+9999OA149900981REMSYN028 333 85704 87707 91119 91212MET008NEW NOSIEQDQ01+000000PRSWM2
0159065900999991994010313004+49617+006217SY-MT+0379ELLX V0201801N00571002101CN0032001N1+00571+00401100431ADDAG12999AW1601AZ121011AZ221011GA1071+002109999GF107991071071002501999999MA1100311999999MD1710371+9999OA149900931REMSYN022 333 87707 91118 91212MET008NEW NOSI
0159065900999991994010314004+49617+006217SY-MT+0379ELLX V0201601N00511000601CN0035001N1+00521+00351100251ADDAG12999AW1611AZ161021AZ261021GA1071+000609999GF108991071071000751999999MA1100101999999MD1710471+9999OA149900931REMSYN022 333 87702 91118 91212MET008NEW NOSI
0165065900999991994010315004+49617+006217SY-MT+0379ELLX V0201701N00621000601CN0025001N1+00551+00381100071ADDAG12002AW1611AZ161031AZ261031GA1071+000609999GF108991071071000751999999MA1099801999999MD1710491+9999MW1101OA149900931REMSYN022 333 87702 91118 91212MET008NEW NOSI
0187065900999991994010316004+49617+006217SY-MT+0379ELLX V0201801N00721000301CN0025001N1+00621+00451099941ADDAG12999AW1611AZ161011AZ261011GA1071+000309999GA2071+000609999GF108991071071000251999999MA1099801999999MD1710471+9999MW1101OA149901081REMSYN028 333 85701 87702 91121 91214MET008NEW NOSI
0175065900999991994010317004+49617+006217SY-MT+0379ELLX V0201901N00721000601CN0033001N1+00671+00551099851ADDAG12999AW1611AZ161021AZ261021GA1071+000609999GA2071+001209999GF108991071071000751999999MA1099701999999MD1710371+9999OA149901081REMSYN022 333 87702 91121 91215MET008NEW NOSI
0211065900999991994010318004+49617+006217SY-MT+0379ELLX V0202101N00871001201CN0080001N1+00781+00661099811ADDAA199006091AG10002AW1611AZ161061AZ221061GA1071+001209999GA2071+003609999GF108991071051001501999999KA1120M+00781MA1099591999999MD1710241+9999OA149901181REMSYN034 333 10078 85704 87612 91123 91217MET008NEW NOSI
0181065900999991994010319004+49617+006217SY-MT+0379ELLX V0202101N00771001801CN0100001N1+00801+00681099791ADDAG12999AW1581AZ161011AZ261011GA1071+001809999GA2071+004509999GF108991071051001501999999MA1099591999999MD1710131+9999OA149901341REMSYN028 333 86706 87615 91126 91217MET008NEW NOSI
0178065900999991994010320004+49617+006217SY-MT+0379ELLX V0202201N00771002701CN0100001N1+00811+00571099761ADDAG12999AW1211AZ161021AZ221021GA1071+002709999GF107991071061002501999999MA1099591999999MD1710081+9999OA149901291REMSYN022 333 87709 91125 91217MET008NEW NOSIEQDQ01+000000PRSWM2
0211065900999991994010321004+49617+006217SY-MT+0379ELLX V0202601N00981002101CN0120001N1+00641+00421099881ADDAG12002AW1801AZ181031AZ261031GA1071+002109999GA2071+005409999GA3071+012009999GF107991071081002501999999MA1099701999999MD1210071+9999OA149901751OC101491REMSYN034 333 85707 86818 86640 91134 91222MET008NEW NOSI
0200065900999991994010322004+49617+006217SY-MT+0379ELLX V0202401N00621220001CN0180001N1+00611+00261099881ADDAG12999AW1251AZ121011AZ221011GA1021+007509999GA2021+015009999GF104991041081008001001001MA1099701999999MD1210081+9999OA149901601REMSYN028 333 82825 83650 91131 91219MET008NEW NOSIEQDQ01+000000PRSWM2
0178065900999991994010323004+49617+006217SY-MT+0379ELLX V0202601N00411012001CN0180001N1+00531+00181099961ADDAG12999AW1251AZ121021AZ221021GA1021+007509999GF105991051081008001001001MA1099801999999MD1210181+9999OA149901081REMSYN022 333 84825 91121 91213MET008NEW NOSIEQDQ01+000000PRSWM2
0117065900999991994010400004+49617+006217SY-MT+0379ELLX V0202401N006719999999N0120001N9+00561+00231100021ADDAG12000GA1031+007509089GF107991999999008001999999MD1210131+9999OA149901751REMSYN022 333 83825 91134 91222MET003NEW
0103065900999991994010401004+49617+006217SY-MT+0379ELLX V0202401N004619999999N0100001N1+00521+00201100091ADDAG11999MA1099901999999MD1210191+9999OA149900931REMSYN016 333 91118 91213MET003NEWEQDQ01+000000PRSWM2
0103065900999991994010402004+49617+006217SY-MT+0379ELLX V0202301N005119999999N0100001N1+00481+00161100211ADDAG11999MA1100001999999MD1210231+9999OA149900821REMSYN016 333 91116 91212MET003NEWEQDQ01+000000PRSWM2
0162065900999991994010403004+49617+006217SY-MT+0379ELLX V0202201N00721003601CN0180001N1+00461+00151100221ADDAA106000091AG11000GA1071+003609059GF107991071051004501999999MA1100001999999MD1210171+9999OA149901031REMSYN022 333 87612 91120 91214MET003NEWEQDQ01+000000PRSWM2
0167065900999991994010404004+49617+006217SY-MT+0379ELLX V0202301N00771003601CN0150001N1+00441+00141100241ADDAA106000091AG14999GA1071+003609999GF107991071051004501999999MA1100101999999MD1210141+9999OA149901131REMSYN022 333 87612 91122 91215MET008NEW NOSIEQDQ01+000000PRSWM2
0156065900999991994010405004+49617+006217SY-MT+0379ELLX V0202201N00511003301CN0150001N1+00411+00111100221ADDAG11999GA1071+003309999GF107991071051004501999999MA1100101999999MD1210021+9999OA149901031REMSYN022 333 87611 91120 91215MET008NEW NOSIEQDQ01+000000PRSWM2
0213065900999991994010406004+49617+006217SY-MT+0379ELLX V0202001N00461003301CN0120001N1+00411+00181100231ADDAG11000GA1071+003309999GF107991999999004501999999GJ100009IA1099IA2999+00409KA1120N+00371MA1100101999999MD1210021+9999OA149901131REMSYN040 333 20037 31004 87611 91122 91215 94000MET008NEW NOSIEQDQ01+000000PRSWM2
0178065900999991994010407004+49617+006217SY-MT+0379ELLX V0201901N00511004501CN0150001N1+00421+00121100191ADDAG11999GA1021+002709999GA2071+004509999GF107991071051002501999999MA1100001999999MD1710031+9999OA149900821REMSYN028 333 84709 85615 91116 91211MET008NEW NOSIEQDQ01+000000PRSWM2
0178065900999991994010408004+49617+006217SY-MT+0379ELLX V0201901N00511002101CN0200001N1+00411+00111100151ADDAG11999GA1021+002409999GA2021+004509999GF107991061051002501031021MA1100001999999MD1710061+9999OA149900821REMSYN028 333 84708 83615 91116 91211MET008NEW NOSIEQDQ01+000000PRSWM2
0181065900999991994010409004+49617+006217SY-MT+0379ELLX V0202101N00571006001CN0200001N1+00431+00131100151ADDAG12002AW1801AZ181031AZ221031GA1021+002409999GA2021+004509999GF107991061081002501031021MA1100001999999MD1710081+9999OA149900931REMSYN028 333 84708 84815 91118 91212MET008NEW NOSI
0178065900999991994010410004+49617+006217SY-MT+0379ELLX V0202101N00671006001CN0200001N1+00481+00181100151ADDAG11999GA1021+001509999GA2021+004509999GF107991071081002501999999MA1100001999999MD1710051+9999OA149900981REMSYN028 333 85708 84812 91119 91214MET008NEW NOSIEQDQ01+000000PRSWM2
0178065900999991994010411004+49617+006217SY-MT+0379ELLX V0202101N00671006001CN0200001N1+00521+00221100101ADDAG11999GA1021+002409999GA2021+004509999GF107991071081002501999999MA1099901999999MD1710061+9999OA149901131REMSYN028 333 83708 84812 91122 91215MET008NEW NOSIEQDQ01+000000PRSWM2
0233065900999991994010412004+49617+006217SY-MT+0379ELLX V0202001N00721005401CN0200001N1+00551+00431100001ADDAA106000191AG10001AW1021AZ181061AZ221061GA1021+002409999GA2021+003909999GA3071+005409999GF107991071081002501999999MA1099801999999MD1710141+9999OA149901241REMSYN034 333 82708 87813 86618 91124 91216MET008NEW NOSIEQDQ01+000000PRSWM2
0181065900999991994010413004+49617+006217SY-MT+0379ELLX V0201901N00721005401CN0040001N1+00551+00451099911ADDAG12999AW1801AZ181011AZ221011GA1021+003609999GA2071+005409999GF107991071081004501999999MA1099701999999MD1710231+9999OA149901181REMSYN028 333 84812 87618 91123 91215MET008NEW NOSI
0093065900999991994010413504+49617+006217FM-15+0379ELLX V0202001N00621012001CN0112651N1+00501+00401999999ADDAG11999GA1021+005409999GA2071+012009999MA1099701999999REMMET008NEW NOSIEQDQ01+000000PRSWM2
0203065900999991994010415004+49617+006217SY-MT+0379ELLX V0201901N00671012001CN0130001N1+00541+00341099821ADDAG12002AW1801AZ181031AZ221031GA1021+004509099GA2021+005409999GA3071+012009999GF107991071091004501999999MA1099591999999MD1710181+9999OA149901441REMSYN034 333 81915 83818 85640 91128 91218MET008NEW NOSI
0203065900999991994010416004+49617+006217SY-MT+0379ELLX V0202101N00721006001CN0150001N1+00531+00351099811ADDAG12999AW1801AZ181011AZ281011GA1021+001509999GA2021+004509099GA3071+006009999GF107991071091001501999999MA1099591999999MD1710101+9999OA149901131REMSYN034 333 82705 82915 85820 91122 91215MET008NEW NOSI
0222065900999991994010417004+49617+006217SY-MT+0379ELLX V0202201N00871009001CN0200001N1+00521+00341099841ADDAG12999AW1271AZ121021AZ221021GA1021+004509099GA2021+006009999GA3071+009009999GF107991071091004501999999MA1099701999999MD1710051+9999OA149901751REMSYN034 333 82915 83820 85630 91134 91219MET008NEW NOSIEQDQ01+000000PRSWM2
0230065900999991994010418004+49617+006217SY-MT+0379ELLX V0202301N00821012001CN0250001N1+00411+00161099881ADDAA199001091AG10001AW1251AZ181061AZ221061GA1021+005409999GA2071+012009999GF107991071081004501999999KA1120M+00581MA1099701999999MD1210041+9999OA149901751REMSYN034 333 10058 84818 86640 91134 91223MET008NEW NOSIEQDQ01+000000PRSWM2
0178065900999991994010419004+49617+006217SY-MT+0379ELLX V0202201N00821012001CN0250001N1+00461+00211099901ADDAG11999GA1021+005109999GA2071+012009999GF107991071081004501999999MA1099701999999MD1210081+9999OA149901241REMSYN028 333 84817 86640 91124 91218MET008NEW NOSIEQDQ01+000000PRSWM2
0178065900999991994010420004+49617+006217SY-MT+0379ELLX V0202001N00771004501CN0250001N1+00471+00191099871ADDAG11999GA1071+004509999GA2071+008409999GF107991071081004501999999MA1099701999999MD1210031+9999OA149901291REMSYN028 333 85815 85628 91125 91216MET008NEW NOSIEQDQ01+000000PRSWM2
0080065900999991994010420504+49617+006217FM-15+0379ELLX V0202101N00871003901CN0070001N1+00401+00101999999ADDAG11003GA1021+000909999GA2071+003909999MA1099701999999MW1821REMMET008NEW NOSI
0200065900999991994010422004+49617+006217SY-MT+0379ELLX V0202301N00771002701CN0200001N1+00401+00301099861ADDAG12999AW1251AZ121041AZ221041GA1071+002709999GA2071+004209999GF107991071081002501999999MA1099701999999MD1710041+9999OA149901601REMSYN028 333 85709 85814 91131 91222MET008NEW NOSIEQDQ01+000000PRSWM2
0181065900999991994010423004+49617+006217SY-MT+0379ELLX V0202301N01131004501CN0080001N1+00431+00231099881ADDAG12999AW1801AZ121051AZ221051GA1021+001809999GA2071+004509999GF107991071081001501999999MA1099701999999MD1210021+9999OA149901651REMSYN028 333 84706 86815 91132 91222MET008NEW NOSI
0192065900999991994010500004+49617+006217SY-MT+0379ELLX V0202301N01131002401CN0150001N1+00431+00231099921ADDAA106003091AG11002AW1801AZ181061AZ221061GA1071+002409999GA2071+004209999GF107991071081002501999999MA1099701999999MD1210081+9999OA149901851REMSYN028 333 85708 85814 91136 91225MET008NEW NOSI
0060065900999991994010501004+49617+006217FM-12+0379ELLX V0202401N011319999999N0100001N9+00361+00161099971ADDAG12999MD1210111+9999OA149901701REMSYN016 333 91133 91224
0069065900999991994010502004+49617+006217SY-MT+0379ELLX V0202501N007719999999N0100001N9+00311+00121100061ADDAG12999MD1210161+9999OA149901341REMSYN016 333 91126 91222MET003NEW
0216065900999991994010503004+49617+006217SY-MT+0379ELLX V0202501N00721002401CN0150001N1+00351+00151100121ADDAG12000AW1801AZ121031AZ221031GA1071+002409999GA2021+004509999GF199999061081002501001001MA1099901999999MD1210191+9999OA149901701REMSYN028 333 85708 84815 91133 91224MET008NEW NOSIEQDQ01+000062SCOTCVQ02+000000PRSWM2
0200065900999991994010504004+49617+006217SY-MT+0379ELLX V0202301N00671003901CN0150001N1+00361+00161100141ADDAG12999AW1251AZ121011AZ221011GA1021+002409999GA2071+003909999GF107991061021002501999999MA1099901999999MD1210151+9999OA149901131REMSYN028 333 84708 85813 91122 91214MET008NEW NOSIEQDQ01+000000PRSWM2
0178065900999991994010505004+49617+006217SY-MT+0379ELLX V0202301N00721004201CN0150001N1+00351+00141100131ADDAG11999GA1021+002409999GA2071+004209999GF107991071021002501999999MA1099901999999MD1210061+9999OA149901241REMSYN028 333 84708 85814 91124 91216MET008NEW NOSIEQDQ01+000000PRSWM2
0093065900999991994010505504+49617+006217FM-15+0379ELLX V0202201N006710036019N0112651N1+00401+00101999999ADDAG11000GA1071+003609999GA2021+024009999MA1099901999999REMMET008NEW NOSIEQDQ01+000000PRSWM2
0077065900999991994010506204+49617+006217FM-15+0379ELLX V0202101N00671002101CN0112651N1+00401+00101999999ADDAG11000GA1071+002109999MA1099901999999REMMET008NEW NOSIEQDQ01+000000PRSWM2
0156065900999991994010507004+49617+006217SY-MT+0379ELLX V0202001N00621001801CN0100001N1+00361+00081100001ADDAG11999GA1071+001809999GF107991071061001501999999MA1099801999999MD1710131+9999OA149901031REMSYN022 333 87706 91120 91214MET008NEW NOSIEQDQ01+000000PRSWM2
0181065900999991994010508004+49617+006217SY-MT+0379ELLX V0201901N00671001201CN0035001N1+00371+00271099911ADDAG12999AW1601AZ121021AZ221021GA1071+001209999GA2071+003309999GF108991071051001501999999MA1099701999999MD1710211+9999OA149901031REMSYN028 333 86704 87611 91120 91214MET008NEW NOSI
0181065900999991994010509004+49617+006217SY-MT+0379ELLX V0201901N00871001801CN0050001N1+00381+00321099831ADDAG12002AW1611AZ161031AZ221031GA1071+001809999GA2081+003609999GF108991081051001501999999MA1099591999999MD1710261+9999OA149901341REMSYN028 333 87706 88612 91126 91217MET008NEW NOSI
0181065900999991994010510004+49617+006217SY-MT+0379ELLX V0201901N00931001801CN0060001N1+00361+00301099741ADDAG12999AW1611AZ161011AZ261011GA1071+001809999GA2081+003609999GF108991081051001501999999MA1099491999999MD1710261+9999OA149901341REMSYN028 333 87706 88612 91126 91220MET008NEW NOSI
0181065900999991994010511004+49617+006217SY-MT+0379ELLX V0202001N01031002401CN0150001N1+00381+00321099581ADDAG12999AW1631AZ161021AZ261021GA1071+002409999GA2071+003609999GF107991071051002501999999MA1099391999999MD1710311+9999OA149901491REMSYN028 333 85708 87612 91129 91220MET008NEW NOSI
0192065900999991994010512004+49617+006217SY-MT+0379ELLX V0202101N00981002401CN0150001N1+00461+00401099461ADDAA106006091AG10004AW1631AZ161061AZ261061GA1071+002409999GA2081+003609999GF108991061071002501021999MA1099291999999MD1710341+9999OA149901601REMSYN028 333 86708 88512 91131 91221MET008NEW NOSI
0181065900999991994010513004+49617+006217SY-MT+0379ELLX V0202101N01081002401CN0100001N1+00501+00351099341ADDAG12999AW1631AZ161011AZ261011GA1071+002409999GA2081+003609999GF108991061071002501021999MA1099191999999MD1710371+9999OA149901651REMSYN028 333 86708 88512 91132 91222MET008NEW 99!5
0166065900999991994010514004+49617+006217SY-MT+0379ELLX V0202101N01031002401CN0100001N9+00501+00351099291ADDAG12999AW1631AZ161021AZ261021GA1071+002409999GA2081+003609999GF108991061071002501021999MD1710281+9999OA149901601REMSYN028 333 86708 88512 91131 91221MET008NEW NOSI
0181065900999991994010515004+49617+006217SY-MT+0379ELLX V0202101N00871002401CN0100001N1+00481+00331099271ADDAG12004AW1631AZ161031AZ261031GA1071+002409999GA2081+003609999GF108991061071002501021999MA1099091999999MD1710191+9999OA149901901REMSYN028 333 86708 88512 91137 91223MET008NEW NOSI
0088065900999991994010515294+49617+006217FM-16+0379ELLX V0202101N01131002401CN0112651N1+00501+00301999999ADDAG11003GA1071+002409999GA2081+003609999MA1099091999999MW1631OC101801REMMET008NEW NOSI
0181065900999991994010516004+49617+006217SY-MT+0379ELLX V0202101N01131002401CN0100001N1+00521+00371099271ADDAG12999AW1611AZ161011AZ261011GA1071+002409999GA2081+003609999GF108991061071002501021999MA1099091999999MD1710071+9999OA149901801REMSYN028 333 86708 88512 91135 91223MET008NEW NOSI
0159065900999991994010517004+49617+006217SY-MT+0379ELLX V0202101N01081002401CN0100001N1+00491+00341099271ADDAG12999AW1611AZ161021AZ261021GA1071+002409999GF108991071071002501999999MA1099091999999MD1710021+9999OA149901651REMSYN022 333 87708 91132 91222MET008NEW NOSI
0189065900999991994010518004+49617+006217SY-MT+0379ELLX V0202101N00931002401CN0100001N1+00461+00311099251ADDAA199011091AG10002AW1611AZ161061AZ261061GA1071+002409999GF108991071071002501999999KA1120M+00521MA1099091999999MD1710021+9999OA149901901REMSYN028 333 10052 87708 91137 91223MET008NEW NOSI
0159065900999991994010519004+49617+006217SY-MT+0379ELLX V0202201N01131002401CN0100001N1+00481+00331099281ADDAG12999AW1611AZ161011AZ261011GA1071+002409999GF108991071071002501999999MA1099091999999MD1210011+9999OA149901651REMSYN022 333 87708 91132 91222MET008NEW NOSI
0159065900999991994010520004+49617+006217SY-MT+0379ELLX V0202101N00671001801CN0150001N1+00451+00301099241ADDAG12999AW1611AZ161021AZ261021GA1071+001809999GF108991081071001501999999MA1099091999999MD1710031+9999OA149901601REMSYN022 333 87706 91131 91222MET008NEW NOSI
0181065900999991994010521004+49617+006217SY-MT+0379ELLX V0202001N00771001801CN0150001N1+00421+00331099211ADDAG12001AW1501AZ161031AZ251031GA1071+001809999GA2071+002709999GF108991081061001501999999MA1098981999999MD1710041+9999OA149901651REMSYN028 333 85706 87709 91132 91222MET008NEW NOSI
0159065900999991994010522004+49617+006217SY-MT+0379ELLX V0202001N00671002401CN0150001N1+00421+00331099191ADDAG12999AW1581AZ161011AZ251011GA1071+002409999GF108991081061002501999999MA1098981999999MD1710091+9999OA149901181REMSYN022 333 87708 91123 91216MET008NEW NOSI
0181065900999991994010523004+49617+006217SY-MT+0379ELLX V0202001N00821002401CN0150001N1+00431+00341099101ADDAG12999AW1581AZ161021AZ261021GA1071+002409999GA2081+004809999GF108991081051002501999999MA1098921999999MD1710131+9999OA149901181REMSYN028 333 86708 88616 91123 91217MET008NEW NOSI
0192065900999991994010600004+49617+006217SY-MT+0379ELLX V0202001N00721002101CN0100001N1+00421+00331099001ADDAA106001091AG11002AW1581AZ161061AZ251061GA1071+002109999GA2081+003609999GF108991081051002501999999MA1098821999999MD1710191+9999OA149901651REMSYN028 333 86707 88612 91132 91222MET008NEW NOSI
0103065900999991994010601004+49617+006217SY-MT+0379ELLX V0202001N007219999999N0100001N1+00451+00411098931ADDAG11999MA1098821999999MD1710231+9999OA149901031REMSYN016 333 91120 91214MET003NEWEQDQ01+000000PRSWM2
0056065900999991994010601504+49617+006217FM-15+0379ELLX V0201901N006719999999N0060001N1+00501+00401999999ADDAG11999MA1098711999999REMMET003NEWEQDQ01+000000PRSWM2
0181065900999991994010603004+49617+006217SY-MT+0379ELLX V0202001N00721001801CN0080001N1+00491+00421098821ADDAG12002AW1581AZ161031AZ261031GA1071+001809999GA2081+003309999GF108991081051001501999999MA1098611999999MD1710171+9999OA149901181REMSYN028 333 86706 88611 91123 91215MET008NEW NOSI
0152065900999991994010604004+49617+006217FM-12+0379ELLX V0202001N00721004501CN0150001N9+00521+00431098801ADDAG12999AW1211AZ161011AZ221011GA1031+002409079GA2071+004509059GF108991081051002501999999MD1710131+9999OA149901181REMSYN028 333 83708 87615 91123 91214
0122065900999991994010605004+49617+006217SY-MT+0379ELLX V0202001N00571004501CN0200001N9+00561+00461098781ADDAG12999GA1071+004509999GF107991071051004501999999MD1710081+9999OA149901031REMSYN022 333 87614 91120 91214MET008NEW NOSI
0246065900999991994010606004+49617+006217SY-MT+0379ELLX V0202101N00511004501CN0150001N1+00581+00461098771ADDAA199005091AG10001AW1021AZ161061AZ221061GA1071+004509999GF107991071051004501999999GJ100009IA1099IA2999+00409KA1120N+00411MA1098611999999MD1710041+9999OA149901181REMSYN040 333 20041 31004 87615 91123 91215 94000MET008NEW NOSIEQDQ01+000000PRSWM2
0181065900999991994010607004+49617+006217SY-MT+0379ELLX V0202001N00511030001CN0150001N1+00581+00461098791ADDAG12999AW1581AZ161011AZ221011GA1021+004509999GA2071+030009999GF108991071051004501999999MA1098611999999MD1410001+9999OA149900931REMSYN028 333 83615 87630 91118 91212MET008NEW NOSI
0086065900999991994010608204+49617+006217FM-15+0379ELLX V0201901N00361002401CN0112651N1+00501+00401999999ADDAG11999GA1071+002409999GA2071+006009999MA1098611999999MW1511MW2611REMMET008NEW NOSI
0181065900999991994010609004+49617+006217SY-MT+0379ELLX V0201801N00411001501CN0100001N1+00571+00351098781ADDAG12002AW1581AZ161031AZ251031GA1071+001509999GA2071+002409999GF108991071071001501999999MA1098611999999MD1210011+9999OA149900931REMSYN028 333 85705 87708 91118 91212MET008NEW NOSI
0166065900999991994010610004+49617+006217SY-MT+0379ELLX V0201801N00361001501CN0120001N9+00591+00371098771ADDAG12999AW1211AZ121011AZ221011GA1071+001509999GA2071+004509999GF108991071071001501999999MD1710021+9999OA149900771REMSYN028 333 85705 87620 91115 91210MET008NEW NOSI
0080065900999991994010610504+49617+006217FM-15+0379ELLX V0201701N00411000901CN0050001N1+00601+00401999999ADDAG11999GA1071+000909999GA2071+001509999MA1098611999999MW1611REMMET008NEW NOSI
0192065900999991994010612004+49617+006217SY-MT+0379ELLX V0201701N00571000901CN0035001N1+00611+00391098721ADDAA106002091AG10002AW1611AZ161061AZ221061GA1071+000909999GA2071+002109999GF108991071071000751999999MA1098611999999MD1710061+9999OA149900931REMSYN028 333 86703 87707 91118 91212MET008NEW NOSI
0096065900999991994010613204+49617+006217FM-15+0379ELLX V0201801N00361003601CN0060001N1+00601+00301999999ADDAG11999GA1021+000909999GA2071+003609999GA3081+030009999MA1098511999999MW1611REMMET008NEW NOSI
0159065900999991994010614004+49617+006217SY-MT+0379ELLX V0201601N00311000901CN0035001N1+00581+00431098641ADDAG12999AW1611AZ161021AZ261021GA1071+000909999GF108991071071000751999999MA1098511999999MD1710101+9999OA149900671REMSYN022 333 87703 91113 91211MET008NEW NOSI
0159065900999991994010615004+49617+006217SY-MT+0379ELLX V0201701N00361001201CN0040001N1+00611+00461098611ADDAG12002AW1611AZ161031AZ261031GA1071+001209999GF108991071071001501999999MA1098511999999MD1710101+9999OA149900931REMSYN022 333 87704 91118 91212MET008NEW NOSI
0153065900999991994010616004+49617+006217SY-MT+0379ELLX V0201701N00361001201CN0050001N1+00631+00481098591ADDAG12999AW1611AZ161011AZ261011GA1071+001209999GF108991071071001501999999MA1098411999999MD1710091+9999OA149900931REMSYN016 333 91118 91210MET008NEW NOSI
0181065900999991994010617004+49617+006217SY-MT+0379ELLX V0201801N00361001801CN0080001N1+00651+00501098651ADDAG12999AW1611AZ161021AZ261021GA1071+001809999GA2071+003609999GF108991071051001501999999MA1098511999999MD1210021+9999OA149900821REMSYN028 333 86706 87612 91116 91211MET008NEW NOSI
0211065900999991994010618004+49617+006217SY-MT+0379ELLX V0201601N00311001801CN0100001N1+00641+00491098631ADDAA199006091AG11002AW1611AZ161061AZ261061GA1071+001809999GA2071+003609999GF108991071051001501999999KA1120M+00671MA1098511999999MD1210031+9999OA149900931REMSYN034 333 10067 86706 87612 91118 91212MET008NEW NOSI
0159065900999991994010619004+49617+006217SY-MT+0379ELLX V0201601N00571001501CN0100001N1+00661+00511098661ADDAG12999AW1611AZ161011AZ261011GA1071+001509999GF108991071071001501999999MA1098511999999MD1210071+9999OA149900821REMSYN022 333 87705 91116 91211MET008NEW NOSI
0080065900999991994010620204+49617+006217FM-15+0379ELLX V0201801N00411008101CN0112651N1+00601+00501999999ADDAG11999GA1021+001809999GA2071+008109999MA1098611999999MW1611REMMET008NEW NOSI
0181065900999991994010621004+49617+006217SY-MT+0379ELLX V0201801N00411008401CN0120001N1+00641+00491098751ADDAG12002AW1611AZ161031AZ261031GA1021+004509999GA2071+008409999GF108991081051004501999999MA1098611999999MD1210111+9999OA149900981REMSYN028 333 84615 87628 91119 91212MET008NEW NOSI
0181065900999991994010622004+49617+006217SY-MT+0379ELLX V0202801N00511008401CN0150001N1+00351+00231098941ADDAG12999AW1611AZ161011AZ261011GA1021+004509999GA2071+008409999GF108991081051004501999999MA1098821999999MD1210241+9999OA149900981REMSYN028 333 82615 87628 91119 91213MET008NEW NOSI
0181065900999991994010623004+49617+006217SY-MT+0379ELLX V0202601N00511002101CN0100001N1+00351+00231099091ADDAG12999AW1611AZ161021AZ261021GA1071+002109999GA2071+006609999GF108991081051002501999999MA1098921999999MD1210351+9999OA149900931REMSYN028 333 85708 87622 91118 91210MET008NEW NOSI
0206065900999991994010700004+49617+006217SY-MT+0379ELLX V0202601N00411001801CN0150001N1+00231+00111099191ADDAA106006091AG10001AW1611AZ161061AZ261061GA1051+001809079GA2071+007509059GF108991081051001501999999MA1098981999999MD1210391+9999OA149900981REMSYN028 333 85706 87625 91119 91213MET003NEWEQDQ01+000000PRSWM2
0103065900999991994010701004+49617+006217SY-MT+0379ELLX V0209991V002119999999N0100001N1+00221+00121099201ADDAG11999MA1098981999999MD1210241+9999OA149900671REMSYN016 333 91113 91209MET003NEWEQDQ01+000000PRSWM2
0103065900999991994010702004+49617+006217SY-MT+0379ELLX V0202101N003119999999N0100001N1+00211+00111099351ADDAG11999MA1099191999999MD1210231+9999OA149900411REMSYN016 333 91108 91206MET003NEWEQDQ01+000000PRSWM2
0200065900999991994010703004+49617+006217SY-MT+0379ELLX V0202201N00151001801CN0200001N1+00201+00101099321ADDAG12001AW1021AZ161031AZ221031GA1071+001809999GA2071+006909999GF107991071051001501999999MA1099091999999MD1210131+9999OA149900671REMSYN028 333 85706 87623 91113 91209MET008NEW NOSIEQDQ01+000000PRSWM2
0108065900999991994010704004+49617+006217FM-12+0379ELLX V0202101N00261000601CN0150001N9+00191+00101099371ADDAG12999GA1071+000609079GF107991071061000751999999MD1210171+9999OA149900361REMSYN022 333 87702 91107 91205
0138065900999991994010705004+49617+006217SY-MT+0379ELLX V0202101N00261002401CN0080001N9+00211+00141099481ADDAG12999GA1021+000909999GA2071+002409999GF108991081061000751999999MD1210131+9999OA149900311REMSYN022 333 88703 91106 91205MET008NEW NOSI
0246065900999991994010706004+49617+006217SY-MT+0379ELLX V0202101N00151001801CN0060001N1+00201+00141099531ADDAA199007091AG10001AW1011AZ161061AZ221061GA1071+001809999GF107991071061001501999999GJ100009IA1099IA2999+00109KA1120N+00181MA1099291999999MD1210201+9999OA149900671REMSYN040 333 20018 31001 87706 91113 91209 94000MET008NEW NOSIEQDQ01+000000PRSWM2
0156065900999991994010707004+49617+006217SY-MT+0379ELLX V0202401N00151001801CN0060001N1+00221+00161099561ADDAG11999GA1071+001809999GF107991071061001501999999MA1099391999999MD1210181+9999OA149900261REMSYN022 333 87706 91105 91203MET008NEW NOSIEQDQ01+000000PRSWM2
0178065900999991994010708004+49617+006217SY-MT+0379ELLX V0202601N00151001801CN0070001N1+00251+00191099651ADDAG12999AW1211AZ121021AZ221021GA1071+001809999GF107991071071001501999999MA1099491999999MD1210171+9999OA149900361REMSYN022 333 87706 91107 91204MET008NEW NOSIEQDQ01+000000PRSWM2
0178065900999991994010709004+49617+006217SY-MT+0379ELLX V0209991V00151001201CN0070001N1+00241+00181099691ADDAG12001AW1021AZ161031AZ221031GA1071+001209999GF107991071061001501999999MA1099491999999MD1210151+9999OA149900361REMSYN022 333 87704 91107 91205MET008NEW NOSIEQDQ01+000000PRSWM2
0156065900999991994010710004+49617+006217SY-MT+0379ELLX V0209991V00101001501CN0100001N1+00271+00211099781ADDAG11999GA1071+001509999GF107991071061001501999999MA1099591999999MD1210191+9999OA149900311REMSYN022 333 87705 91106 91204MET008NEW NOSIEQDQ01+000000PRSWM2
0093065900999991994010711204+49617+006217FM-15+0379ELLX V0209991V00101004501CN0112651N1+00301+00201999999ADDAG11999GA1071+004509999GA2071+009009999MA1099591999999REMMET008NEW NOSIEQDQ01+000000PRSWM2
0177065900999991994010712004+49617+006217SY-MT+0379ELLX V0209991V00151010501CN0150001N9+00351+00121099871ADDAA106000191AG10001AW1021AZ161061AZ221061GA1021+002409999GA2071+010509999GF107991071051004501999999MD1210151+9999OA149900361REMSYN028 333 82615 87635 91107 91205MET008NEW NOSI
0178065900999991994010713004+49617+006217SY-MT+0379ELLX V0209991V00101010501CN0150001N1+00401+00101099911ADDAG11999GA1021+002409999GA2071+010509999GF107991071051002501999999MA1099701999999MD1210121+9999OA149900361REMSYN028 333 83708 87635 91107 91203MET008NEW NOSIEQDQ01+000000PRSWM2
0093065900999991994010713504+49617+006217FM-15+0379ELLX V0203301N00211011101CN0112651N1+00401+00101999999ADDAG11999GA1021+002709999GA2071+011109999MA1099801999999REMMET008NEW NOSIEQDQ01+000000PRSWM2
0181065900999991994010715004+49617+006217SY-MT+0379ELLX V0209991V00101007501CN0080001N1+00361+00071100091ADDAG12001AW1601AZ121031AZ221031GA1021+003609999GA2071+007509999GF108991081051004501999999MA1099901999999MD1210211+9999OA149900411REMSYN028 333 84612 87625 91108 91204MET008NEW NOSI
0181065900999991994010716004+49617+006217SY-MT+0379ELLX V0203301N00361003601CN0050001N1+00231+00071100181ADDAG12999AW1611AZ161011AZ261011GA1021+001509999GA2071+003609999GF108991071051001501999999MA1100001999999MD1210251+9999OA149900621REMSYN028 333 84705 87612 91112 91207MET008NEW NOSI
0181065900999991994010717004+49617+006217SY-MT+0379ELLX V0209991V00101027001CN0150001N1+00171+00011100261ADDAG12999AW1611AZ161021AZ261021GA1021+001509999GA2081+027009999GF108991031071001501071999MA1100001999999MD1210261+9999OA149900511REMSYN028 333 83705 87459 91110 91206MET008NEW NOSI
0211065900999991994010718004+49617+006217SY-MT+0379ELLX V0209991C00001027001CN0150001N1+00151+00021100341ADDAA199002091AG10002AW1611AZ161061AZ221061GA1021+001809999GA2081+027009999GF108991031061001501071999KA1120M+00411MA1100101999999MD1210221+9999OA149900621REMSYN034 333 10041 83706 88459 91112 91207MET008NEW NOSI
0093065900999991994010718504+49617+006217FM-15+0379ELLX V0201201N00101027001CN0112651N1+00201+00101999999ADDAG11999GA1021+002109999GA2081+027009999MA1100201999999REMMET008NEW NOSIEQDQ01+000000PRSWM2
0178065900999991994010720004+49617+006217SY-MT+0379ELLX V0201401N00101013801CN0150001N1+00191+00091100481ADDAG11999GA1021+002409999GA2071+013809999GF107991071051002501999999MA1100201999999MD1210211+9999OA149900461REMSYN028 333 83708 87646 91109 91203MET008NEW NOSIEQDQ01+000000PRSWM2
0178065900999991994010721004+49617+006217SY-MT+0379ELLX V0209991V00211013501CN0150001N1+00191+00091100581ADDAG11000GA1021+001509999GA2071+013509999GF107991071051001501999999MA1100411999999MD1210241+9999OA149900821REMSYN028 333 83705 86645 91116 91206MET008NEW NOSIEQDQ01+000000PRSWM2
0172065900999991994010722004+49617+006217SY-MT+0379ELLX V0202501N00261003901CN0150001N1+00181+00021100681ADDAG11999GA1071+003909999GF199999061051004501001001MA1100511999999MD1210281+9999OA149900361REMSYN022 333 86613 91107 91205MET008NEW NOSIEQDQ01+000062SCOTCVQ02+000000PRSWM2
0156065900999991994010723004+49617+006217SY-MT+0379ELLX V0202501N00311002401CN0120001N1+00171+00011100801ADDAG11999GA1071+002409999GF107991071061002501999999MA1100611999999MD1210311+9999OA149900511REMSYN022 333 87708 91110 91207MET008NEW NOSIEQDQ01+000000PRSWM2
0152065900999991994010800004+49617+006217SY-MT+0379ELLX V0202601N00411002401CN0100001N1+00191+00061100861ADDAG11000GA1071+002409999GA2071+004209999MA1100611999999MD1210271+9999OA149900821REMSYN028 333 85708 87645 91116 91209MET008NEW NOSIEQDQ01+000000PRSWM2
0103065900999991994010801004+49617+006217SY-MT+0379ELLX V0202601N004619999999N0030001N1+00201+00071100931ADDAG11999MA1100711999999MD1210241+9999OA149900671REMSYN016 333 91113 91209MET003NEWEQDQ01+000000PRSWM2
0103065900999991994010802004+49617+006217SY-MT+0379ELLX V0202601N004119999999N0030001N1+00191+00061101011ADDAG11999MA1100811999999MD1210211+9999OA149900721REMSYN016 333 91114 91210MET003NEWEQDQ01+000000PRSWM2
0178065900999991994010803004+49617+006217SY-MT+0379ELLX V0202501N00311005101CN0120001N1+00201+00071101061ADDAG11000GA1021+003909999GA2071+005109999GF107991071081004501999999MA1100811999999MD1210201+9999OA149900721REMSYN028 333 82813 85617 91114 91210MET008NEW NOSIEQDQ01+000000PRSWM2
0167065900999991994010804004+49617+006217SY-MT+0379ELLX V0202501N00261003601CN0120001N1+00171+00021101131ADDAA106000091AG11999GA1071+003609999GF107991071051004501999999MA1100911999999MD1210181+9999OA149900571REMSYN022 333 87612 91111 91208MET008NEW NOSIEQDQ01+000000PRSWM2
0156065900999991994010805004+49617+006217SY-MT+0379ELLX V0202301N00311003601CN0120001N1+00141+00041101211ADDAG11999GA1071+003609999GF107991071051004501999999MA1101021999999MD1210171+9999OA149900621REMSYN022 333 87612 91112 91209MET008NEW NOSIEQDQ01+000000PRSWM2
0213065900999991994010806004+49617+006217SY-MT+0379ELLX V0202401N00261003001CN0100001N1+00081-00021101291ADDAG11000GA1071+003009999GF107991999999004501999999GJ100009IA1099IA2999+00009KA1120N+00061MA1101021999999MD1210191+9999OA149900721REMSYN040 333 20006 31100 87610 91114 91210 94000MET008NEW NOSIEQDQ01+000000PRSWM2
0156065900999991994010807004+49617+006217SY-MT+0379ELLX V0202001N00211003601CN0100001N1+00081-00101101361ADDAG11999GA1071+003609999GF107991071051004501999999MA1101081999999MD1210211+9999OA149900411REMSYN022 333 87612 91108 91205MET008NEW NOSIEQDQ01+000000PRSWM2
0077065900999991994010807504+49617+006217FM-15+0379ELLX V0202001N00311003601CN0112651N1+00101-00201999999ADDAG11999GA1071+003609999MA1101191999999REMMET008NEW NOSIEQDQ01+000000PRSWM2
0077065900999991994010809204+49617+006217FM-15+0379ELLX V0202001N00361003001CN0112651N1+00101-00201999999ADDAG11000GA1071+003009999MA1101291999999REMMET008NEW NOSIEQDQ01+000000PRSWM2
0144065900999991994010810004+49617+006217SY-MT+0379ELLX V0202001N00361003901CN0200001N9+00111-00201101541ADDAG12999GA1021+002409999GA2071+003909999GF107991071051002501999999MD1210171+9999OA149900671REMSYN028 333 83708 87613 91113 91208MET008NEW NOSI
0178065900999991994010811004+49617+006217SY-MT+0379ELLX V0202101N00261002401CN0200001N1+00141-00171101551ADDAG11999GA1071+002409999GA2071+003609999GF107991071051002501999999MA1101291999999MD1210131+9999OA149900671REMSYN028 333 85708 87612 91113 91208MET008NEW NOSIEQDQ01+000000PRSWM2
0189065900999991994010812004+49617+006217SY-MT+0379ELLX V0202001N00311002401CN0150001N1+00161-00151101531ADDAA106000091AG11000GA1071+002409999GA2071+003309999GF107991071051002501999999MA1101291999999MD1210061+9999OA149900721REMSYN028 333 85708 87612 91114 91208MET008NEW NOSIEQDQ01+000000PRSWM2
0144065900999991994010813004+49617+006217SY-MT+0379ELLX V0209991V00211003601CN0150001N9+00181-00131101491ADDAG12999GA1021+002709999GA2071+003609999GF107991071051002501999999MD1710041+9999OA149900461REMSYN028 333 85708 87612 91109 91206MET008NEW NOSI
0194065900999991994010814004+49617+006217SY-MT+0379ELLX V0209991V00151003601CN0150001N1+00201-00111101471ADDAG11999GA1021+002709999GA2071+003609999GF199999061051002501001001MA1101191999999MD1710071+9999OA149900461REMSYN028 333 82709 85612 91109 91205MET008NEW NOSIEQDQ01+000062SCOTCVQ02+000000PRSWM2
0130065900999991994010815004+49617+006217FM-12+0379ELLX V0209991V00101060001CN0150001N9+00201-00181101481ADDAG12000GA1031+003009059GA2031+060009009GF105991031051004501001021MD1710051+9999OA149900461REMSYN028 333 83610 83070 91109 91206
0163065900999991994010816004+49617+006217SY-MT+0379ELLX V0209991C00001060001CN0140001N1+00101-00191101461ADDAG11999GA1051+060009009GF105991001001999999001021MA1101191999999MD1710031+9999OA149900311REMSYN022 333 85070 91106 91202MET015NEW CAVOK NOSIGEQDQ01+000000PRSWM2
0172065900999991994010817004+49617+006217SY-MT+0379ELLX V0209991V00151003601CN0150001N1+00041-00251101451ADDAG11999GA1071+003609999GF199999051051004501001021MA1101191999999MD1710031+9999OA149900211REMSYN022 333 85612 91104 91203MET008NEW NOSIEQDQ01+000062SCOTCVQ02+000000PRSWM2
0156065900999991994010818004+49617+006217SY-MT+0379ELLX V0200901N00151004501CN0150001N9+00051+99999999999ADDAA106000091AG14000GA1071+004509999GF199999061051999999001001KA1120M+00231REMSYN038 333 10023 51109 91206 SMOS12 LOWM /99MET008NEW NOSIEQDQ01+000062SCOTCV
0093065900999991994010818504+49617+006217FM-15+0379ELLX V0209991C00001006001CN0112651N1+00101+00001999999ADDAG11999GA1021+002109999GA2071+006009999MA1101191999999REMMET008NEW NOSIEQDQ01+000000PRSWM2
0178065900999991994010820004+49617+006217SY-MT+0379ELLX V0202101N00051006601CN0080001N1+00061-00081101541ADDAG11999GA1021+001809999GA2071+006609999GF107991071051001501999999MA1101291999999MD1210081+9999OA149900671REMSYN028 333 83706 87622 91113 91203MET008NEW NOSIEQDQ01+000000PRSWM2
0156065900999991994010821004+49617+006217SY-MT+0379ELLX V0209991V00101006601CN0050001N1+00131+00011101521ADDAG11000GA1071+006609999GF107991071051008001999999MA1101291999999MD1210071+9999OA149900671REMSYN022 333 87622 91113 91203MET008NEW NOSIEQDQ01+000000PRSWM2
0156065900999991994010822004+49617+006217SY-MT+0379ELLX V0201001N00211006601CN0060001N1+00081-00031101461ADDAG11999GA1071+006609999GF107991071051008001999999MA1101191999999MD1710031+9999OA149900461REMSYN022 333 87622 91109 91205MET008NEW NOSIEQDQ01+000000PRSWM2
0156065900999991994010823004+49617+006217SY-MT+0379ELLX V0209991V00101007501CN0035001N1+00091-00031101471ADDAG11999GA1071+007509999GF107991071051008001999999MA1101191999999MD1710061+9999OA149900671REMSYN022 333 87625 91113 91205MET008NEW NOSIEQDQ01+000000PRSWM2
0167065900999991994010900004+49617+006217SY-MT+0379ELLX V0200901N00101006901CN0040001N1+00071-00021101421ADDAA106000091AG14000GA1071+006909999GF107991071051008001999999MA1101191999999MD1710101+9999OA149900671REMSYN022 333 87623 91113 91205MET008NEW NOSIEQDQ01+000000PRSWM2
0103065900999991994010901004+49617+006217SY-MT+0379ELLX V0200901N001019999999N0100001N1+00081-00011101371ADDAG11999MA1101081999999MD1710081+9999OA149900151REMSYN016 333 91103 91202MET003NEWEQDQ01+000000PRSWM2
0103065900999991994010902004+49617+006217SY-MT+0379ELLX V0201301N001019999999N0100001N1+00041-00051101361ADDAG11999MA1101081999999MD1710101+9999OA149900261REMSYN016 333 91105 91204MET003NEWEQDQ01+000000PRSWM2
0156065900999991994010903004+49617+006217SY-MT+0379ELLX V0201401N00261004201CN0060001N1+00041-00051101341ADDAG11000GA1071+004209999GF107991071051004501999999MA1101081999999MD1710071+9999OA149900361REMSYN022 333 87614 91107 91205MET008NEW NOSIEQDQ01+000000PRSWM2
0156065900999991994010904004+49617+006217SY-MT+0379ELLX V0201301N00211003601CN0040001N1+00061-00031101311ADDAG11999GA1071+003609999GF107991071051004501999999MA1101021999999MD1710071+9999OA149900311REMSYN022 333 87612 91106 91205MET008NEW NOSIEQDQ01+000000PRSWM2
0178065900999991994010905004+49617+006217SY-MT+0379ELLX V0209991V00211001201CN0040001N1+00051-00021101311ADDAG11999GA1071+001209999GA2071+003309999GF107991071051001501999999MA1101021999999MD1710061+9999OA149900311REMSYN028 333 85704 87611 91106 91204MET008NEW NOSIEQDQ01+000000PRSWM2
0246065900999991994010906004+49617+006217SY-MT+0379ELLX V0209991V00261001201CN0040001N1+00061-00011101311ADDAA106000091AG14000GA1071+001209999GA2071+002409999GF107991071061001501999999GJ100249IA1099IA2999-00209KA1120N-00011MA1101021999999MD1710041+9999OA149900361REMSYN046 333 21001 31102 86704 87708 91107 91205 94004MET008NEW NOSIEQDQ01+000000PRSWM2
0181065900999991994010907004+49617+006217SY-MT+0379ELLX V0209991V00261000301CN0020001N1+00021-00051101361ADDAG11999AW1101AZ121011AZ221011GA1071+000309999GA2081+000909999GF108991081061000251999999MA1101081999999MD1210051+9999OA149900461REMSYN028 333 85701 88703 91109 91206MET008NEW NOSI
0177065900999991994010908004+49617+006217SY-MT+0379ELLX V0209991V00211000301CN0008001N9+00041-00031101341ADDAG11999AW1461AZ121021AZ221021ED199U16009GA1071+000309999GA2081+000909999GF108991081061000251999999MD1210031+9999OA149900511REMSYN028 333 86701 88702 91110 91206MET008NEW NOSI
0192065900999991994010909004+49617+006217SY-MT+0379ELLX V0209991V00211000601CN0010001N1+00051+00011101371ADDAG11000AW1281AZ141031AZ221031ED199U20009GA1071+000609999GA2081+001209999GF108991081061000751999999MA1101081999999MD1210061+9999OA149900571REMSYN028 333 85702 88704 91111 91206MET008NEW NOSI
0159065900999991994010910004+49617+006217SY-MT+0379ELLX V0209991V00211000901CN0015001N1+00071+00031101471ADDAG11999AW1101AZ121011AZ221011GA1081+000909999GF108991081061000751999999MA1101191999999MD1210101+9999OA149900411REMSYN022 333 88703 91108 91205MET008NEW NOSI
0159065900999991994010911004+49617+006217SY-MT+0379ELLX V0201301N00261000901CN0030001N1+00091+00051101401ADDAG11999AW1101AZ121021AZ221021GA1081+000909999GF108991081061000751999999MA1101081999999MD1210061+9999OA149900411REMSYN022 333 88703 91108 91205MET008NEW NOSI
0189065900999991994010912004+49617+006217SY-MT+0379ELLX V0201701N00361001501CN0031001N1+00101+00041101351ADDAA106000091AG11000AW1101AZ141061AZ221061GA1071+001509999GF108991071061000751999999MA1101081999999MD1710021+9999OA149900571REMSYN022 333 88703 91111 91207MET008NEW NOSIEQDQ01+000000PRSWM2
0156065900999991994010913004+49617+006217SY-MT+0379ELLX V0201401N00361001501CN0035001N1+00141+00081101251ADDAG11999GA1071+001509999GF108991071061001501999999MA1101021999999MD1710201+9999OA149900621REMSYN022 333 87705 91112 91208MET008NEW NOSIEQDQ01+000000PRSWM2
0178065900999991994010914004+49617+006217SY-MT+0379ELLX V0209991V00261001501CN0040001N1+00151-00011101201ADDAG11999AW1101AZ121021AZ221021GA1071+001509999GF108991071061001501999999MA1100911999999MD1710191+9999OA149900461REMSYN022 333 87705 91109 91207MET008NEW NOSIEQDQ01+000000PRSWM2
0178065900999991994010915004+49617+006217SY-MT+0379ELLX V0201401N00361001501CN0040001N1+00121-00041101191ADDAG11000AW1101AZ121031AZ221031GA1081+001509999GF108991081061001501999999MA1100911999999MD1710151+9999OA149900621REMSYN022 333 88705 91112 91209MET008NEW NOSIEQDQ01+000000PRSWM2
0159065900999991994010916004+49617+006217SY-MT+0379ELLX V0201401N00311001201CN0030001N1+00111-00051101161ADDAG11999AW1101AZ121011AZ221011GA1081+001209999GF108991081061001501999999MA1100911999999MD1710191+9999OA149900621REMSYN022 333 88704 91112 91207MET008NEW NOSI
0165065900999991994010917004+49617+006217SY-MT+0379ELLX V0201201N00261001201CN0030001N1+00111-00021101111ADDAG12999AW1501AZ121021AZ221021GA1081+001209999GF108991081061001501999999MA1100811999999MD1710091+9999MW1101OA149900461REMSYN022 333 88704 91109 91206MET008NEW NOSI
0189065900999991994010918004+49617+006217SY-MT+0379ELLX V0209991V00151000901CN0030001N1+00131+00001101091ADDAA106000091AG14000AW1201AZ151061AZ221061GA1081+000909999GF108991081061000751999999KA1120M+00171MA1100811999999MD1710091+9999OA149900621REMSYN028 333 10017 88703 91112 91209MET008NEW NOSI
0144065900999991994010919004+49617+006217SY-MT+0379ELLX V0201201N00261001201CN0030001N9+00121+00001101041ADDAG11999AW1101AZ121011AZ221011GA1081+001209999GF108991081061001501999999MD1710111+9999OA149900411REMSYN022 333 88704 91108 91206MET008NEW NOSI
0200065900999991994010920004+49617+006217SY-MT+0379ELLX V0209991V00211001801CN0030001N1+00141+00021100961ADDAG11999AW1101AZ121021AZ221021GA1071+001809999GA2081+004509999GF108991081051001501999999MA1100711999999MD1710141+9999OA149900411REMSYN028 333 86706 88615 91108 91205MET008NEW NOSIEQDQ01+000000PRSWM2
0178065900999991994010921004+49617+006217SY-MT+0379ELLX V0209991V00211001801CN0060001N1+00151+00051100931ADDAG11000GA1071+001809999GA2081+005109999GF108991081051001501999999MA1100711999999MD1710161+9999OA149900511REMSYN028 333 85706 88617 91110 91206MET008NEW NOSIEQDQ01+000000PRSWM2
0178065900999991994010922004+49617+006217SY-MT+0379ELLX V0201101N00261000901CN0060001N1+00121+00021100861ADDAG11999GA1071+000909999GA2081+005409999GF108991071051000751999999MA1100611999999MD1710171+9999OA149900461REMSYN028 333 85703 88618 91109 91206MET008NEW NOSIEQDQ01+000000PRSWM2
0159065900999991994010923004+49617+006217SY-MT+0379ELLX V0209991V00211000301CN0025001N1+00041-00031100801ADDAG11999AW1101AZ121021AZ221021GA1081+000309999GF108991081061000251999999MA1100511999999MD1710161+9999OA149900511REMSYN022 333 88701 91110 91207MET008NEW NOSI
0160065900999991994011000004+49617+006217FM-12+0379ELLX V0201301N00311000301CN0001001N9-00031-00031100711ADDAA106999999AG10000AW1481AZ141061AZ221061GA1081+000309079GF108991081061000251999999MD1710221+9999OA149900621REMSYN022 333 88701 91112 91207EQDQ01  00002PRCP06
0060065900999991994011001004+49617+006217FM-12+0379ELLX V0209991V002119999999N0001001N9-00061-00061100671ADDAG12999MD1710201+9999OA149900511REMSYN016 333 91110 91208
0060065900999991994011002004+49617+006217FM-12+0379ELLX V0201101N002619999999N0002001N9-00071-00071100591ADDAG12999MD1710201+9999OA149900511REMSYN016 333 91110 91206
0130065900999991994011003004+49617+006217FM-12+0379ELLX V0200901N00311000301CN0020001N9-00071-00141100511ADDAG11000AW1281AZ141031AZ221031GA1081+000309079GF108991081061000251999999MD1710191+9999OA149900571REMSYN022 333 88701 91111 91208
0144065900999991994011004004+49617+006217SY-MT+0379ELLX V0201101N00311000301CN0022001N9-00031-00101100411ADDAG11999AW1101AZ121011AZ221011GA1081+000309999GF108991081061000751999999MD1710241+9999OA149900571REMSYN022 333 88702 91111 91208MET008NEW NOSI
0144065900999991994011005004+49617+006217SY-MT+0379ELLX V0201001N00311000601CN0025001N9-00031-00111100331ADDAG11999AW1101AZ121021AZ221021GA1081+000609999GF108991081061000751999999MD1710251+9999OA149900621REMSYN022 333 88702 91112 91208MET008NEW NOSI
0212065900999991994011006004+49617+006217SY-MT+0379ELLX V0203301N00361000601CN0032001N9-00031-00141100301ADDAA106000091AG10000AW1101AZ141061AZ221061GA1071+000609999GF107991071061000751999999GJ100009IA1099IA2999-00109KA1120N-00101MD1710201+9999OA149900621REMSYN040 333 21010 31101 87703 91112 91208 94000MET008NEW NOSI
0156065900999991994011007004+49617+006217SY-MT+0379ELLX V0200701N00361220001CN0035001N1-00081-00181100271ADDAG11999GA1021+001509999GF102991021061001501001021MA1100001999999MD1710141+9999OA149900461REMSYN022 333 82705 91109 91207MET008NEW NOSIEQDQ01+000000PRSWM2
0156065900999991994011008004+49617+006217SY-MT+0379ELLX V0200901N00361220001CN0032001N1-00031-00131100221ADDAG11999GA1021+060009999GF104991001001999999001021MA1100001999999MD1710101+9999OA149900511REMSYN022 333 84070 91110 91208MET008NEW NOSIEQDQ01+000000PRSWM2
0194065900999991994011009004+49617+006217SY-MT+0379ELLX V0200901N00361060001CN0032001N1+00011-00091100221ADDAG11000GA1021+000909999GA2071+060009999GF199999031061000751001021MA1100001999999MD1710071+9999OA149900511REMSYN028 333 83703 86070 91110 91208MET008NEW NOSIEQDQ01+000062SCOTCVQ02+000000PRSWM2
0178065900999991994011010004+49617+006217SY-MT+0379ELLX V0200901N00361060001CN0035001N1+00051-00081100241ADDAG11999GA1021+015009999GA2071+060009999GF107991021051017501031021MA1100001999999MD1710021+9999OA149900511REMSYN028 333 82650 86070 91110 91207MET008NEW NOSIEQDQ01+000000PRSWM2
0178065900999991994011011004+49617+006217SY-MT+0379ELLX V0201001N00311060001CN0045001N1+00131-00081100201ADDAG11999GA1021+030009999GA2071+060009999GF107991041001999999031021MA1100001999999MD1710011+9999OA149900671REMSYN028 333 84360 87070 91113 91207MET008NEW NOSIEQDQ01+000000PRSWM2
0211065900999991994011012004+49617+006217SY-MT+0379ELLX V0209991V00151060001CN0045001N1+00161-00051100161ADDAA106000091AG14000GA1021+009009999GA2021+030009999GA3071+060009999GF107991011051008001031021MA1099901999999MD1710061+9999OA149900671REMSYN034 333 81630 84360 87070 91113 91208MET008NEW NOSIEQDQ01+000000PRSWM2
0200065900999991994011013004+49617+006217SY-MT+0379ELLX V0201101N00211060001CN0050001N1+00221+00011100101ADDAG11999GA1021+012009999GA2021+030009999GA3071+060009999GF107991011051012501031021MA1099901999999MD1710131+9999OA149900361REMSYN034 333 81640 84360 87070 91107 91205MET008NEW NOSIEQDQ01+000000PRSWM2
0200065900999991994011014004+49617+006217SY-MT+0379ELLX V0201001N00261030001CN0030001N1+00311+00071100031ADDAG11999GA1021+012009999GA2071+030009999GA3071+060009999GF107991031051012501031021MA1099801999999MD1710161+9999OA149900461REMSYN034 333 83640 85360 87070 91109 91206MET008NEW NOSIEQDQ01+000000PRSWM2
0178065900999991994011015004+49617+006217SY-MT+0379ELLX V0200901N00311012001CN0080001N1+00311+00071100001ADDAG11000GA1071+012009999GA2071+060009999GF107991051051012501031021MA1099801999999MD1710141+9999OA149900461REMSYN028 333 85640 85070 91109 91206MET008NEW NOSIEQDQ01+000000PRSWM2
0200065900999991994011016004+49617+006217SY-MT+0379ELLX V0201101N00261060001CN0070001N1+00301-00051099971ADDAG11999GA1021+012009999GA2021+030009999GA3071+060009999GF107991041051012501031021MA1099701999999MD1710121+9999OA149900671REMSYN034 333 84640 83360 85070 91113 91207MET008NEW NOSIEQDQ01+000000PRSWM2
0178065900999991994011017004+49617+006217SY-MT+0379ELLX V0201001N00311060001CN0060001N1+00301-00051099971ADDAG11999GA1021+012009999GA2071+060009999GF107991041051012501031021MA1099701999999MD1710061+9999OA149900511REMSYN028 333 84640 86070 91110 91207MET008NEW NOSIEQDQ01+000000PRSWM2
0186065900999991994011018004+49617+006217SY-MT+0379ELLX V0201001N00261018001CN0060001N1+00321-00031100001ADDAA106000091AG11000GA1071+018009999GF107991071051017501999999KA1120M+00321MA1099801999999MD1410001+9999OA149900671REMSYN028 333 10032 87656 91113 91207MET008NEW NOSIEQDQ01+000000PRSWM2
0178065900999991994011019004+49617+006217SY-MT+0379ELLX V0209991V00151030001CN0060001N1+00301+00021100031ADDAG11999GA1021+012009999GA2071+030009999GF107991031051012501031999MA1099801999999MD1210061+9999OA149900511REMSYN028 333 83640 87360 91110 91206MET008NEW NOSIEQDQ01+000000PRSWM2
0178065900999991994011020004+49617+006217SY-MT+0379ELLX V0209991V00101030001CN0050001N1+00281+00051100071ADDAG11999GA1021+007509999GA2071+030009999GF108991041051008001031999MA1099801999999MD1210101+9999OA149900311REMSYN028 333 84625 87360 91106 91204MET008NEW NOSIEQDQ01+000000PRSWM2
0200065900999991994011021004+49617+006217SY-MT+0379ELLX V0209991V00211060001CN0050001N1+00251+00021100131ADDAG11000GA1021+006009999GA2021+030009999GA3071+060009999GF108991031051008001031021MA1099901999999MD1210121+9999OA149900511REMSYN034 333 83620 84360 87070 91110 91206MET008NEW NOSIEQDQ01+000000PRSWM2
0200065900999991994011022004+49617+006217SY-MT+0379ELLX V0209991V00101006001CN0040001N1+00231+00081100181ADDAG11999GA1071+006009999GA2021+030009999GA3071+060009999GF108991051051008001031021MA1099901999999MD1210141+9999OA149900361REMSYN034 333 85620 83360 87070 91107 91205MET008NEW NOSIEQDQ01+000000PRSWM2
0159065900999991994011023004+49617+006217SY-MT+0379ELLX V0209991C00001003601CN0030001N1+00231+00081100211ADDAG11999AW1101AZ121021AZ221021GA1071+003609999GF108991071051004501999999MA1100001999999MD1210141+9999OA149900151REMSYN022 333 87612 91103 91202MET008NEW NOSI
0170065900999991994011100004+49617+006217SY-MT+0379ELLX V0200301N00101002701CN0030001N1+00261+00141100221ADDAA106000091AG11000AW1101AZ121061AZ221061GA1071+002709999GF108991071061002501999999MA1100001999999MD1210101+9999OA149900511REMSYN022 333 87709 91110 91206MET008NEW NOSI
0103065900999991994011101004+49617+006217SY-MT+0379ELLX V0209991V000519999999N0030001N1+00221+00101100251ADDAG11999MA1100001999999MD1210091+9999OA149900101REMSYN016 333 91102 91202MET003NEWEQDQ01+000000PRSWM2
0103065900999991994011102004+49617+006217SY-MT+0379ELLX V0201801N001019999999N0030001N1+00221+00101100311ADDAG11999MA1100101999999MD1210111+9999OA149900261REMSYN016 333 91105 91204MET003NEWEQDQ01+000000PRSWM2
0159065900999991994011103004+49617+006217SY-MT+0379ELLX V0202501N00051001201CN0030001N1+00231+00131100301ADDAG11000AW1101AZ121031AZ221031GA1071+001209999GF108991071061001501999999MA1100101999999MD1210091+9999OA149900261REMSYN022 333 87704 91105 91204MET008NEW NOSI
0159065900999991994011104004+49617+006217SY-MT+0379ELLX V0209991V00051000601CN0012001N1+00201+00161100321ADDAG11999AW1101AZ121011AZ221011GA1071+000609999GF108991071061000751999999MA1100101999999MD1210071+9999OA149900211REMSYN022 333 87702 91104 91203MET008NEW NOSI
0170065900999991994011105004+49617+006217SY-MT+0379ELLX V0209991V00151000301CN0001001N1+00201+00201100401ADDAG11999AW1461AZ141021AZ221021ED199U12009GA1081+000309999GF108991081061000251999999MA1100201999999MD1210081+9999OA149900311REMSYN022 333 88701 91106 91204MET008NEW NOSI
0238065900999991994011106004+49617+006217SY-MT+0379ELLX V0209991V00151000601CN0012001N1+00201+00171100491ADDAA106000091AG11000AW1281AZ121061AZ221061ED199U20009GA1071+000609999GF108991081061000751999999GJ100009IA1099IA2999+00109KA1120N+00181MA1100311999999MD1210181+9999OA149900311REMSYN040 333 20018 31001 87702 91106 91204 94000MET008NEW NOSI
0130065900999991994011107004+49617+006217FM-12+0379ELLX V0202501N00101000301CN0002001N9+00221+00221100581ADDAG11999AW1461AZ141011AZ221011GA1081+000309079GF108991081061000251999999MD1210251+9999OA149900261REMSYN022 333 88701 91105 91203
0170065900999991994011108004+49617+006217SY-MT+0379ELLX V0202701N00151000301CN0001001N1+00261+00261100651ADDAG11999AW1461AZ141021AZ241021ED199U04009GA1081+000309999GF108991081061000251999999MA1100411999999MD1210241+9999OA149900211REMSYN022 333 88701 91104 91203MET008NEW NOSI
0204065900999991994011109004+49617+006217SY-MT+0379ELLX V0209991V00211000301CN0003001N1+00311+00311100721ADDAG11000AW1421AZ141031AZ221031ED199U12009GA1071+000309999GA2071+003309999GF108991081051000251999999MA1100511999999MD1210221+9999OA149900361REMSYN028 333 85701 87611 91107 91204MET020NEW BECMG 0800 BKN00
0198065900999991994011110004+49617+006217SY-MT+0379ELLX V0209991V00151005401CN0010001N1+00331+00301100771ADDAG11999AW1281AZ141011AZ221011ED199U20009GA1021+000609999GA2071+005409999GF107991061051000751999999MA1100511999999MD1210181+9999OA149900411REMSYN028 333 82702 86618 91108 91206MET014NEW BECMG 2000
0159065900999991994011111004+49617+006217SY-MT+0379ELLX V0202801N00311000901CN0025001N1+00441+00411100821ADDAG11999AW1101AZ121021AZ221021GA1071+000909999GF107991061061000751999999MA1100611999999MD1210181+9999OA149900461REMSYN022 333 86703 91109 91206MET008NEW NOSI
0189065900999991994011112004+49617+006217SY-MT+0379ELLX V0202601N00261001201CN0035001N1+00461+00391100831ADDAA106000091AG11000AW1021AZ141061AZ221061GA1071+001209999GF107991071061001501999999MA1100611999999MD1210121+9999OA149900461REMSYN022 333 87704 91109 91207MET008NEW NOSIEQDQ01+000000PRSWM2
0156065900999991994011113004+49617+006217SY-MT+0379ELLX V0202401N00361000901CN0032001N1+00451+00361100861ADDAG11999GA1071+000909999GF107991071061000751999999MA1100711999999MD1210101+9999OA149900461REMSYN022 333 87703 91109 91207MET008NEW NOSIEQDQ01+000000PRSWM2
0130065900999991994011114004+49617+006217FM-12+0379ELLX V0202501N00311001201CN0035001N9+00491+00401100891ADDAG11999AW1101AZ121021AZ221021GA1071+001209059GF107991071061001501999999MD1210071+9999OA149900511REMSYN022 333 87604 91110 91208
0156065900999991994011115004+49617+006217SY-MT+0379ELLX V0202501N00311002101CN0060001N1+00471+00381100981ADDAG11000GA1071+002109999GF107991071061001501999999MA1100811999999MD1210141+9999OA149900511REMSYN022 333 87704 91110 91208MET008NEW NOSIEQDQ01+000000PRSWM2
0178065900999991994011116004+49617+006217SY-MT+0379ELLX V0202601N00511002101CN0080001N1+00491+00311101031ADDAG11999GA1071+002109999GA2071+003609999GF107991071051002501999999MA1100811999999MD1210161+9999OA149900721REMSYN028 333 86707 87612 91114 91211MET008NEW NOSIEQDQ01+000000PRSWM2
0128065900999991994011117004+49617+006217SY-MT+0379ELLX V0202301N00461003901CN0100001N9+00471+00291101061ADDAG12999GA1071+003909999GF107991071051002501999999MD1210161+9999OA149900621REMSYN028 333 82707 87613 91112 91210MET008NEW NOSI
0186065900999991994011118004+49617+006217SY-MT+0379ELLX V0202401N00511003001CN0100001N1+00421+00221101111ADDAA106000091AG11000GA1071+003009999GF107991071051004501999999KA1120M+00501MA1100911999999MD1210121+9999OA149900721REMSYN028 333 10050 87610 91114 91211MET008NEW NOSIEQDQ01+000000PRSWM2
0178065900999991994011119004+49617+006217SY-MT+0379ELLX V0202201N00511002101CN0100001N1+00361+00201101151ADDAG11999GA1071+002109999GA2071+003609999GF107991071051002501999999MA1100911999999MD1210111+9999OA149900721REMSYN028 333 85707 87612 91114 91210MET008NEW NOSIEQDQ01+000000PRSWM2
0077065900999991994011119504+49617+006217FM-15+0379ELLX V0202201N00621002101CN0112651N1+00301+00201999999ADDAG11999GA1071+002109999MA1100911999999REMMET008NEW NOSIEQDQ01+000000PRSWM2
0156065900999991994011121004+49617+006217SY-MT+0379ELLX V0202201N00621001501CN0150001N1+00291+00161101231ADDAG11000GA1081+001509999GF108991081061001501999999MA1101021999999MD1210111+9999OA149900931REMSYN022 333 88705 91118 91213MET008NEW NOSIEQDQ01+000000PRSWM2
0156065900999991994011122004+49617+006217SY-MT+0379ELLX V0202001N00511000901CN0130001N1+00301+00181101271ADDAG11999GA1081+000909999GF108991081061000751999999MA1101021999999MD1210111+9999OA149901131REMSYN022 333 88703 91122 91215MET008NEW NOSIEQDQ01+000000PRSWM2
0156065900999991994011123004+49617+006217SY-MT+0379ELLX V0202001N00571001501CN0130001N1+00331+00211101271ADDAG11999GA1081+001509999GF108991081061001501999999MA1101081999999MD1210111+9999OA149900771REMSYN022 333 88705 91115 91211MET008NEW NOSIEQDQ01+000000PRSWM2
0189065900999991994011200004+49617+006217SY-MT+0379ELLX V0201801N00461003001CN0130001N1+00351+00231101251ADDAA106000091AG11000GA1021+002409999GA2071+003009999GF108991071051002501999999MA1101021999999MD1210041+9999OA149901131REMSYN028 333 83708 87610 91122 91215MET008NEW NOSIEQDQ01+000000PRSWM2
0103065900999991994011201004+49617+006217SY-MT+0379ELLX V0201901N005119999999N0048001N1+00341+00221101291ADDAG11999MA1101081999999MD1210041+9999OA149900771REMSYN016 333 91115 91211MET003NEWEQDQ01+000000PRSWM2
0103065900999991994011202004+49617+006217SY-MT+0379ELLX V0201901N004619999999N0031001N1+00351+00251101281ADDAG11999MA1101081999999MD1210021+9999OA149900621REMSYN016 333 91112 91210MET003NEWEQDQ01+000000PRSWM2
0178065900999991994011203004+49617+006217SY-MT+0379ELLX V0202001N00511000601CN0080001N1+00371+00271101301ADDAG12001AW1211AZ161031AZ221031GA1071+000609999GF108991071061000751999999MA1101081999999MD1210051+9999OA149900771REMSYN022 333 87702 91115 91211MET008NEW NOSIEQDQ01+000000PRSWM2
0159065900999991994011204004+49617+006217SY-MT+0379ELLX V0201901N00511000301CN0040001N1+00371+00271101301ADDAG12999AW1501AZ121011AZ221011GA1081+000309999GF108991081061000251999999MA1101081999999MD1210011+9999OA149900771REMSYN022 333 88701 91115 91210MET008NEW NOSI
0159065900999991994011205004+49617+006217SY-MT+0379ELLX V0202101N00461000301CN0020001N1+00381+00281101321ADDAG12999AW1511AZ151021AZ251021GA1081+000309999GF108991081061000251999999MA1101081999999MD1210041+9999OA149900721REMSYN022 333 88701 91114 91210MET008NEW NOSI
0238065900999991994011206004+49617+006217SY-MT+0379ELLX V0202001N00461000301CN0005001N1+00381+00381101371ADDAA199000591AG10001AW1501AZ161061AZ241061ED199U11009GA1081+000309999GF108991081061000251999999GJ100009IA1099IA2999+00309KA1120N+00281MA1101191999999MD1210061+9999OA149900771REMSYN040 333 20028 31003 88701 91115 91211 94000MET008NEW NOSI
0165065900999991994011207004+49617+006217SY-MT+0379ELLX V0202001N00571000301CN0018001N1+00391+00361101331ADDAG12999AW1511AZ151011AZ251011GA1081+000309999GF108991081061000251999999MA1101081999999MD1210021+9999MW1101OA149900821REMSYN022 333 88701 91116 91211MET008NEW NOSI
0176065900999991994011208004+49617+006217SY-MT+0379ELLX V0202001N00571000301CN0014001N1+00411+00371101401ADDAG12999AW1511AZ151021AZ251021ED199U20009GA1081+000309999GF108991081061000251999999MA1101191999999MD1210061+9999MW1101OA149900981REMSYN022 333 88701 91119 91212MET008NEW NOSI
0176065900999991994011209004+49617+006217SY-MT+0379ELLX V0201901N00571000301CN0010001N1+00431+00401101351ADDAG12000AW1511AZ151031AZ251031ED199U14009GA1081+000309999GF108991081061000251999999MA1101081999999MD1710021+9999MW1101OA149900981REMSYN022 333 88701 91119 91212MET008NEW NOSI
0159065900999991994011210004+49617+006217SY-MT+0379ELLX V0201901N00511000301CN0015001N1+00451+00421101371ADDAG12999AW1281AZ151011AZ251011GA1081+000309999GF108991081061000251999999MA1101191999999MD1210041+9999OA149900881REMSYN022 333 88701 91117 91212MET008NEW NOSI
0176065900999991994011211004+49617+006217SY-MT+0379ELLX V0201801N00621000301CN0012001N1+00471+00411101391ADDAG12999AW1501AZ121021AZ221021ED199U20009GA1081+000309999GF108991081061000251999999MA1101191999999MD1410001+9999MW1101OA149900771REMSYN022 333 88701 91115 91211MET008NEW NOSI
0176065900999991994011212004+49617+006217SY-MT+0379ELLX V0202001N00671000301CN0018001N1+00501+00461101311ADDAA106999929AG10000AW1511AZ151061AZ241061GA1081+000309999GF108991081061000251999999MA1101081999999MD1710031+9999MW1101OA149900981REMSYN022 333 88701 91119 91212MET008NEW NOSI
0178065900999991994011213004+49617+006217SY-MT+0379ELLX V0202101N00721000301CN0040001N1+00571+00481101221ADDAG12999AW1201AZ151011AZ221011GA1081+000309999GF108991081061000251999999MA1101021999999MD1710131+9999OA149900931REMSYN022 333 88701 91118 91212MET008NEW NOSIEQDQ01+000000PRSWM2
0165065900999991994011214004+49617+006217SY-MT+0379ELLX V0202001N00771000601CN0030001N1+00621+00531101211ADDAG12999AW1581AZ151021AZ221021GA1081+000609999GF108991081071000751999999MA1101021999999MD1710161+9999MW1101OA149900931REMSYN022 333 88702 91118 91213MET008NEW NOSI
0083065900999991994011214294+49617+006217FM-16+0379ELLX V0209999999999000601CN9999999N9+00601+00601999999ADDAG11999GA1081+000609999MA1101021999999MW1101REMMET008NEW NOSIEQDQ01+000002VOVAR 
0165065900999991994011215004+49617+006217SY-MT+0379ELLX V0202001N00571000601CN0020001N1+00621+00561101191ADDAG12002AW1601AZ161031AZ251031GA1081+000609999GF108991081071000751999999MA1101021999999MD1710101+9999MW1101OA149900981REMSYN022 333 88702 91119 91212MET008NEW NOSI
0165065900999991994011216004+49617+006217SY-MT+0379ELLX V0202001N00621000601CN0020001N1+00651+00591101151ADDAG12999AW1611AZ161011AZ261011GA1081+000609999GF108991081071000751999999MA1101021999999MD1710061+9999MW1101OA149901031REMSYN022 333 88702 91120 91213MET008NEW NOSI
0070065900999991994011216504+49617+006217FM-15+0379ELLX V0202101N00721000601CN0021001N1+00801+00701999999ADDAG11999GA1081+000609999MA1101021999999MW1101MW2611REMMET008NEW NOSI
0195065900999991994011218004+49617+006217SY-MT+0379ELLX V0202101N00721000601CN0025001N1+00831+00751101121ADDAA199004091AG11002AW1631AZ161061AZ251061GA1081+000609999GF108991081071000751999999KA1120M+00831MA1101021999999MD1710051+9999MW1101OA149901031REMSYN028 333 10083 88702 91120 91215MET008NEW NOSI
0181065900999991994011219004+49617+006217SY-MT+0379ELLX V0202201N00931000901CN0032001N1+00921+00841101151ADDAG12999AW1611AZ161011AZ261011GA1071+000909999GA2081+001509999GF108991081071000751999999MA1101021999999MD1210021+9999OA149901241REMSYN028 333 86703 88705 91124 91218MET008NEW NOSI
0181065900999991994011220004+49617+006217SY-MT+0379ELLX V0202301N01081001801CN0060001N1+00991+00911101131ADDAG12999AW1611AZ161021AZ261021GA1071+001809999GA2081+003009999GF108991081051001501999999MA1101021999999MD1210021+9999OA149901541REMSYN028 333 85706 88610 91130 91221MET008NEW NOSI
0181065900999991994011221004+49617+006217SY-MT+0379ELLX V0202301N01181002401CN0080001N1+01011+00931101151ADDAG12002AW1581AZ161031AZ251031GA1071+002409999GA2071+003009999GF108991071061002501999999MA1101021999999MD1210041+9999OA149901651REMSYN028 333 85708 87710 91132 91223MET008NEW NOSI
0181065900999991994011222004+49617+006217SY-MT+0379ELLX V0202201N01031002401CN0100001N1+01001+00921101181ADDAG12999AW1601AZ161011AZ261011GA1071+002409999GA2071+003609999GF108991071051002501999999MA1101021999999MD1210041+9999OA149901541REMSYN028 333 86708 87612 91130 91223MET008NEW NOSI
0147065900999991994011223004+49617+006217SY-MT+0379ELLX V0202201N00981002401CN0100001N9+01001+00921101201ADDAG12999AW1611AZ161021AZ261021GA1071+002409079GF108991071071002501999999MD1210071+9999OA149901441OC101651REMSYN022 333 87708 91128 91222MET003NEW
0103065900999991994011300004+49617+006217SY-MT+0379ELLX V0202201N010819999999N0090001N1+01011+00931101171ADDAG11000MA1101021999999MD1210031+9999OA149901651REMSYN016 333 91132 91223MET003NEWEQDQ01+000000PRSWM2
0103065900999991994011301004+49617+006217SY-MT+0379ELLX V0202201N011319999999N0100001N1+01051+00971101161ADDAG11999MA1101021999999MD1410001+9999OA149901701REMSYN016 333 91133 91223MET003NEWEQDQ01+000000PRSWM2
0103065900999991994011302004+49617+006217SY-MT+0379ELLX V0202201N010319999999N0100001N1+01061+00981101141ADDAG11999MA1101021999999MD1710041+9999OA149901961REMSYN016 333 91138 91225MET003NEWEQDQ01+000000PRSWM2
0080065900999991994011302204+49617+006217FM-16+0379ELLX V0202201N012919999999N9999999N9+99999+99999999999ADDAG11999MA1101021999999OC103701REMMET003NEWEQDQ01+000002VOVAR Q02+000000PRSWM2
0186065900999991994011303004+49617+006217SY-MT+0379ELLX V0202201N01181004501CN0120001N1+01041+00961101111ADDAG12001AW1021AZ161031AZ221031GA1071+004509999GF108991071051004501999999MA1101021999999MD1710051+9999OA149901961OC101751REMSYN022 333 87615 91138 91225MET008NEW NOSIEQDQ01+000000PRSWM2
0156065900999991994011304004+49617+006217SY-MT+0379ELLX V0202301N01341004501CN0150001N1+01061+00821101081ADDAG11999GA1071+004509999GF108991071051004501999999MA1101021999999MD1710071+9999OA149902011REMSYN022 333 87615 91139 91226MET008NEW NOSIEQDQ01+000000PRSWM2
0159065900999991994011305004+49617+006217SY-MT+0379ELLX V0202201N01131004501CN0150001N1+01021+00831101111ADDAG12999AW1601AZ121021AZ221021GA1071+004509999GF108991071051004501999999MA1101021999999MD1710021+9999OA149901851REMSYN022 333 87615 91136 91226MET008NEW NOSI
0279065900999991994011306004+49617+006217SY-MT+0379ELLX V0202601N00821004501CN0100001N1+00771+00621101301ADDAA199004091AG10002AW1611AZ161061AZ221061GA1021+002409999GA2071+004509999GA3071+009009999GF108991071051002501999999GJ100009IA1099IA2999+00609KA1120N+00771MA1101191999999MD1210181+9999OA149902011OC101341REMSYN052 333 20077 31006 83708 85615 87630 91139 91226 94000MET008NEW NOSI
0208065900999991994011307004+49617+006217SY-MT+0379ELLX V0202501N00931030001CN0160001N1+00691+00491101351ADDAG12999AW1211AZ161011AZ221011GA1021+012009999GA2071+030009999GF107991041051012501031999MA1101191999999MD1210251+9999OA149901651OC101491REMSYN028 333 84640 87360 91132 91220MET008NEW NOSIEQDQ01+000000PRSWM2
0093065900999991994011307504+49617+006217FM-15+0379ELLX V0202501N00771030001CN0112651N1+00701+00501999999ADDAG11999GA1021+009009999GA2071+030009999MA1101291999999REMMET008NEW NOSIEQDQ01+000000PRSWM2
0109065900999991994011308504+49617+006217FM-15+0379ELLX V0202401N00671060001CN0112651N1+00801+00501999999ADDAG11000GA1021+004509999GA2021+030009999GA3071+060009999MA1101391999999REMMET008NEW NOSIEQDQ01+000000PRSWM2
0200065900999991994011310004+49617+006217SY-MT+0379ELLX V0202401N00721060001CN0250001N1+00791+00521101621ADDAG11999GA1021+005409999GA2021+030009999GA3071+060009999GF107991041081004501031021MA1101491999999MD1210271+9999OA149901031REMSYN034 333 84818 84360 86070 91120 91214MET008NEW NOSIEQDQ01+000000PRSWM2
0172065900999991994011311004+49617+006217SY-MT+0379ELLX V0202401N00821004501CN0250001N1+00851+00541101651ADDAG11999GA1071+004509999GF199999061021004501001021MA1101491999999MD1210201+9999OA149901291REMSYN022 333 86815 91125 91218MET008NEW NOSIEQDQ01+000062SCOTCVQ02+000000PRSWM2
0227065900999991994011312004+49617+006217SY-MT+0379ELLX V0202501N00931005701CN0250001N1+00871+00451101651ADDAA106001091AG11001AW1021AZ161061AZ221061GA1071+005709999GA2071+030009999GF199999051021004501031021MA1101491999999MD1210111+9999OA149901651REMSYN028 333 85819 85360 91132 91220MET008NEW NOSIEQDQ01+000062SCOTCVQ02+000000PRSWM2
0093065900999991994011312504+49617+006217FM-15+0379ELLX V0202501N00931220001CN0112651N1+00901+00401999999ADDAG11999GA1021+006309999GA2021+060009999MA1101491999999REMMET008NEW NOSIEQDQ01+000000PRSWM2
0200065900999991994011314004+49617+006217SY-MT+0379ELLX V0202401N00771012001CN0200001N1+00891+00371101661ADDAG11999GA1021+006009999GA2071+012009999GA3071+060009999GF107991061081008001031021MA1101491999999MD1210021+9999OA149901341REMSYN034 333 83820 85640 87070 91126 91218MET008NEW NOSIEQDQ01+000000PRSWM2
0109065900999991994011314504+49617+006217FM-15+0379ELLX V0202301N00871012001CN0112651N1+00801+00401999999ADDAG11000GA1021+006609999GA2071+012009999GA3071+030009999MA1101591999999REMMET008NEW NOSIEQDQ01+000000PRSWM2
0109065900999991994011315504+49617+006217FM-15+0379ELLX V0202301N00721012001CN0112651N1+00801+00401999999ADDAG11999GA1021+006609999GA2071+012009999GA3071+030009999MA1101591999999REMMET008NEW NOSIEQDQ01+000000PRSWM2
0178065900999991994011317004+49617+006217SY-MT+0379ELLX V0202201N00721007501CN0150001N1+00781+00481101741ADDAG11999GA1021+004509999GA2071+007509999GF107991071081004501999999MA1101591999999MD1210071+9999OA149901081REMSYN028 333 84815 87625 91121 91214MET008NEW NOSIEQDQ01+000000PRSWM2
0197065900999991994011318004+49617+006217SY-MT+0379ELLX V0202301N00771007501CN0150001N1+00781+00481101761ADDAG11000GA1021+005409999GA2071+007509999GF107991999999004501999999KA1120M+00911MA1101591999999MD1210031+9999OA149901341REMSYN034 333 10091 84818 86625 91126 91218MET008NEW NOSIEQDQ01+000000PRSWM2
0178065900999991994011319004+49617+006217SY-MT+0379ELLX V0202301N00721006001CN0100001N1+00751+00461101751ADDAG11999GA1021+004509999GA2071+006009999GF107991061081004501999999MA1101591999999MD1710011+9999OA149901241REMSYN028 333 84815 86620 91124 91216MET008NEW NOSIEQDQ01+000000PRSWM2
0178065900999991994011320004+49617+006217SY-MT+0379ELLX V0202201N00871004501CN0200001N1+00761+00491101751ADDAG11999GA1071+004509999GA2071+006009999GF107991071051004501999999MA1101591999999MD1710021+9999OA149901241REMSYN028 333 85815 87620 91124 91217MET008NEW NOSIEQDQ01+000000PRSWM2
0093065900999991994011320294+49617+006217FM-16+0379ELLX V0202301N00771003901CN0112651N1+00801+00501999999ADDAG11999GA1071+003909999GA2071+006009999MA1101591999999REMMET008NEW NOSIEQDQ01+000000PRSWM2
0178065900999991994011321004+49617+006217SY-MT+0379ELLX V0202301N00871006001CN0150001N1+00761+00511101701ADDAG11000GA1021+004509999GA2071+006009999GF107991071081004501999999MA1101591999999MD1710061+9999OA149901241REMSYN028 333 84815 85620 91124 91217MET008NEW NOSIEQDQ01+000000PRSWM2
0178065900999991994011322004+49617+006217SY-MT+0379ELLX V0202301N01031013501CN0150001N1+00761+00471101691ADDAG11999GA1021+004509999GA2071+013509999GF107991071081004501999999MA1101491999999MD1710051+9999OA149901441REMSYN028 333 84815 85645 91128 91220MET008NEW NOSIEQDQ01+000000PRSWM2
0178065900999991994011323004+49617+006217SY-MT+0379ELLX V0202301N00981013501CN0150001N1+00731+00441101671ADDAG11999GA1021+004509999GA2071+013509999GF107991071081004501999999MA1101491999999MD1710071+9999OA149901441REMSYN028 333 84815 85645 91128 91220MET008NEW NOSIEQDQ01+000000PRSWM2
0189065900999991994011400004+49617+006217SY-MT+0379ELLX V0202401N00821009001CN0150001N1+00731+00411101661ADDAA106000091AG11000GA1021+004509999GA2071+009009999GF107991071081004501999999MA1101491999999MD1710031+9999OA149901441REMSYN028 333 84815 85630 91128 91220MET008NEW NOSIEQDQ01+000000PRSWM2
0103065900999991994011401004+49617+006217SY-MT+0379ELLX V0202501N007719999999N0100001N1+00711+00391101671ADDAG11999MA1101491999999MD1710021+9999OA149901241REMSYN016 333 91124 91217MET003NEWEQDQ01+000000PRSWM2
0103065900999991994011402004+49617+006217SY-MT+0379ELLX V0202401N007219999999N0100001N1+00681+00381101681ADDAG11999MA1101491999999MD1210011+9999OA149901131REMSYN016 333 91122 91215MET003NEWEQDQ01+000000PRSWM2
0178065900999991994011403004+49617+006217SY-MT+0379ELLX V0202501N00721012001CN0200001N1+00671+00311101711ADDAG11000GA1021+004509999GA2071+012009999GF107991071081004501999999MA1101591999999MD1210031+9999OA149901241REMSYN028 333 84815 85640 91124 91217MET008NEW NOSIEQDQ01+000000PRSWM2
0093065900999991994011403504+49617+006217FM-15+0379ELLX V0202401N00621012001CN0112651N1+00601+00301999999ADDAG11999GA1021+004509999GA2071+012009999MA1101591999999REMMET008NEW NOSIEQDQ01+000000PRSWM2
0178065900999991994011405004+49617+006217SY-MT+0379ELLX V0202401N00721013501CN0150001N1+00621+00321101711ADDAG11999GA1021+004509999GA2071+013509999GF107991071081004501999999MA1101491999999MD1210011+9999OA149900981REMSYN028 333 83815 85645 91119 91214MET008NEW NOSIEQDQ01+000000PRSWM2
0290065900999991994011406004+49617+006217SY-MT+0379ELLX V0202301N00621012001CN0200001N1+00581+00331101731ADDAA199999929AG10000AW1251AZ121061AZ221061GA1021+003609999GA2021+004509999GA3071+012009999GF107991071081004501999999GJ100369IA1099IA2999+00609KA1120N+00571MA1101591999999MD1210011+9999OA149901241REMSYN052 333 20057 31006 82812 83615 86640 91124 91217 94006MET008NEW NOSIEQDQ01+000000PRSWM2
0077065900999991994011406504+49617+006217FM-15+0379ELLX V0202301N00671004801CN0112651N1+00601+00301999999ADDAG11999GA1071+004809999MA1101591999999REMMET008NEW NOSIEQDQ01+000000PRSWM2
0178065900999991994011408004+49617+006217SY-MT+0379ELLX V0202401N00621004501CN0200001N1+00571+00271101791ADDAG11999GA1071+004509999GA2071+007509999GF107991071081004501999999MA1101591999999MD1210071+9999OA149900981REMSYN028 333 85815 87625 91119 91214MET008NEW NOSIEQDQ01+000000PRSWM2
0093065900999991994011408294+49617+006217FM-16+0379ELLX V0202301N00671005101CN0112651N1+00501+00301999999ADDAG11999GA1071+005109999GA2071+008109999MA1101591999999REMMET008NEW NOSIEQDQ01+000000PRSWM2
0077065900999991994011408504+49617+006217FM-15+0379ELLX V0202401N00621004201CN0112651N1+00501+00301999999ADDAG11000GA1071+004209999MA1101591999999REMMET008NEW NOSIEQDQ01+000000PRSWM2
0156065900999991994011410004+49617+006217SY-MT+0379ELLX V0202301N00671004501CN0250001N1+00551+00301101831ADDAG11999GA1071+004509999GF107991071081004501999999MA1101691999999MD1210071+9999OA149901031REMSYN022 333 86813 91120 91215MET008NEW NOSIEQDQ01+000000PRSWM2
0122065900999991994011411004+49617+006217SY-MT+0379ELLX V0202401N00671003901CN0220001N9+00571+00271101851ADDAG12999GA1071+003909999GF107991071081004501999999MD1210061+9999OA149901181REMSYN022 333 87813 91123 91216MET008NEW NOSI
0211065900999991994011412004+49617+006217SY-MT+0379ELLX V0202401N00671003901CN0200001N1+00561+00311101811ADDAA106999929AG10001AW1251AZ181061AZ221061GA1021+002409999GA2071+003909999GF107991071081002501999999MA1101591999999MD1710011+9999OA149901181REMSYN028 333 82708 86813 91123 91216MET008NEW NOSIEQDQ01+000000PRSWM2
0077065900999991994011412504+49617+006217FM-15+0379ELLX V0202301N00771004501CN0112651N1+00601+00301999999ADDAG11999GA1071+004509999MA1101591999999REMMET008NEW NOSIEQDQ01+000000PRSWM2
0178065900999991994011414004+49617+006217SY-MT+0379ELLX V0202401N00671007501CN0220001N1+00611+00241101701ADDAG11999GA1021+004509999GA2071+007509999GF107991061081004501031021MA1101491999999MD1710141+9999OA149901081REMSYN028 333 84815 86625 91121 91215MET008NEW NOSIEQDQ01+000000PRSWM2
0093065900999991994011415204+49617+006217FM-15+0379ELLX V0202401N00671007501CN0112651N1+00601+00201999999ADDAG11000GA1021+004509999GA2071+007509999MA1101491999999REMMET008NEW NOSIEQDQ01+000000PRSWM2
0144065900999991994011416004+49617+006217SY-MT+0379ELLX V0202301N00621009001CN0150001N9+00551+00251101691ADDAG12999GA1021+004509999GA2071+009009999GF107991061081004501031021MD1710071+9999OA149901031REMSYN028 333 85815 86625 91120 91215MET008NEW NOSI
0216065900999991994011417004+49617+006217SY-MT+0379ELLX V0202501N00571010501CN0100001N1+00421+00191101721ADDAG12999AW1251AZ121021AZ221021GA1021+006009999GA2071+010509999GF199999051081008001001021MA1101491999999MD1710011+9999OA149901241REMSYN028 333 84820 86635 91124 91217MET008NEW NOSIEQDQ01+000062SCOTCVQ02+000000PRSWM2
0230065900999991994011418004+49617+006217SY-MT+0379ELLX V0202301N00361220001CN0100001N1+00381+00221101721ADDAA199999929AG10001AW1011AZ181061AZ211061GA1021+004509999GA2021+012009999GF103991031081004501001021KA1120M+00651MA1101491999999MD1410001+9999OA149901241REMSYN034 333 10065 81815 83640 91124 91218MET008NEW NOSIEQDQ01+000000PRSWM2
0077065900999991994011418504+49617+006217FM-15+0379ELLX V0202301N00461220001CN0112651N1+00401+00301999999ADDAG11999GA1021+003609999MA1101491999999REMMET008NEW NOSIEQDQ01+000000PRSWM2
0200065900999991994011420004+49617+006217SY-MT+0379ELLX V0202301N00771009001CN0100001N1+00371+00161101731ADDAG12999AW1251AZ111021AZ211021GA1021+004809999GA2071+009009999GF107991071081004501999999MA1101491999999MD1210011+9999OA149901391REMSYN028 333 84816 85630 91127 91219MET008NEW NOSIEQDQ01+000000PRSWM2
0096065900999991994011420504+49617+006217FM-15+0379ELLX V0202601N00411009001CN0070001N1+00301+00101999999ADDAG11001GA1021+002109999GA2021+004209999GA3071+009009999MA1101591999999MW1801REMMET008NEW NOSI
0181065900999991994011422004+49617+006217SY-MT+0379ELLX V0202301N00511004201CN0100001N1+00201+00071101751ADDAG12999AW1801AZ181041AZ221041GA1021+002409999GA2071+004209999GF107991071081002501999999MA1101491999999MD1710011+9999OA149901031REMSYN028 333 83708 85814 91120 91211MET008NEW NOSI
0201065900999991994011423004+49617+006217SY-MT+0379ELLX V0202401N00311220001CN0100001N1+00141+00011101751ADDAG12999AW1251AZ111051AZ211051GA1011+015009059GF101991011051017501999001MA1101491999999MD1410001+9999OA149900621REMSYN022 333 81650 91112 91210MET015NEW CAVOK NOSIGEQDQ01+000000PRSWM2Q02    003SCOMCG
0189065900999991994011500004+49617+006217SY-MT+0379ELLX V0202401N00361012001CN0100001N1+00181+00061101751ADDAA106005091AG11001AW1031AZ181061AZ211061GA1021+006009999GF105991051081008001001001MA1101491999999MD1710061+9999OA149901391REMSYN022 333 84820 91127 91219MET008NEW NOSIEQDQ01+000000PRSWM2
0056065900999991994011500504+49617+006217FM-15+0379ELLX V0209991V001519999999N0112651N1+00201+00101999999ADDAG11999MA1101491999999REMMET003NEWEQDQ01+000000PRSWM2
0103065900999991994011502004+49617+006217SY-MT+0379ELLX V0202601N003119999999N0080001N1+00251+00131101711ADDAG11999MA1101491999999MD1710031+9999OA149900621REMSYN016 333 91112 91207MET003NEWEQDQ01+000000PRSWM2
0156065900999991994011503004+49617+006217SY-MT+0379ELLX V0202501N00361003001CN0100001N1+00271+00151101711ADDAG11000GA1071+003009999GF107991071061004501999999MA1101491999999MD1710031+9999OA149900621REMSYN022 333 87710 91112 91207MET008NEW NOSIEQDQ01+000000PRSWM2
0156065900999991994011504004+49617+006217SY-MT+0379ELLX V0202601N00361002701CN0090001N1+00291+00171101691ADDAG11999GA1071+002709999GF107991071061002501999999MA1101491999999MD1710021+9999OA149900721REMSYN022 333 87709 91114 91209MET008NEW NOSIEQDQ01+000000PRSWM2
0077065900999991994011504504+49617+006217FM-15+0379ELLX V0202501N00151002701CN0090001N1+00301+00201999999ADDAG11999GA1071+002709999MA1101491999999REMMET008NEW NOSIEQDQ01+000000PRSWM2
0235065900999991994011506004+49617+006217SY-MT+0379ELLX V0202401N00261006001CN0100001N1+00281+00161101671ADDAG11000GA1021+002409999GA2071+006009999GF107991999999002501999999GJ100249IA1099IA2999-00109KA1120N+00071MA1101491999999MD1710051+9999OA149900721REMSYN046 333 20007 31101 83708 86620 91114 91209 94004MET008NEW NOSIEQDQ01+000000PRSWM2
0156065900999991994011507004+49617+006217SY-MT+0379ELLX V0202301N00361001801CN0100001N1+00251+00131101641ADDAG11999GA1071+001809999GF107991071061001501999999MA1101391999999MD1710061+9999OA149900571REMSYN022 333 87706 91111 91208MET008NEW NOSIEQDQ01+000000PRSWM2
0080065900999991994011507504+49617+006217FM-15+0379ELLX V0202301N00411000901CN0022001N1+00301+00101999999ADDAG11999GA1071+000909999GA2071+002409999MA1101391999999MW1101REMMET008NEW NOSI
0165065900999991994011509004+49617+006217SY-MT+0379ELLX V0202201N00461000601CN0022001N1+00231+00171101601ADDAG12000AW1501AZ121031AZ221031GA1071+000609999GF108991081061000751999999MA1101391999999MD1710081+9999MW1101OA149900671REMSYN022 333 87702 91113 91209MET008NEW NOSI
0159065900999991994011510004+49617+006217SY-MT+0379ELLX V0202001N00311001201CN0080001N1+00241+00201101591ADDAG12999AW1501AZ151011AZ221011GA1071+001209999GF108991081061001501999999MA1101291999999MD1710071+9999OA149900671REMSYN022 333 87704 91113 91209MET008NEW NOSI
0178065900999991994011511004+49617+006217SY-MT+0379ELLX V0202001N00311002701CN0180001N1+00281+00161101511ADDAG12999AW1201AZ121021AZ221021GA1071+002709999GF107991071061002501999999MA1101291999999MD1710111+9999OA149900621REMSYN022 333 87709 91112 91208MET008NEW NOSIEQDQ01+000000PRSWM2
0189065900999991994011512004+49617+006217SY-MT+0379ELLX V0202101N00411003601CN0200001N1+00361+00211101381ADDAA106999929AG10000AW1021AZ151061AZ221061GA1071+003609999GF107991071081004501999999MA1101081999999MD1710211+9999OA149900671REMSYN022 333 83812 91113 91209MET008NEW NOSIEQDQ01+000000PRSWM2
0178065900999991994011513004+49617+006217SY-MT+0379ELLX V0202101N00361009001CN0200001N1+00411+00211101271ADDAG11999GA1021+004509999GA2071+009009999GF107991071081004501999999MA1101021999999MD1710291+9999OA149900621REMSYN028 333 84815 85630 91112 91208MET008NEW NOSIEQDQ01+000000PRSWM2
0178065900999991994011514004+49617+006217SY-MT+0379ELLX V0202101N00361010501CN0200001N1+00441+00241101171ADDAG11999GA1021+004509999GA2071+010509999GF107991061081004501031021MA1101021999999MD1710311+9999OA149900571REMSYN028 333 84815 86635 91111 91208MET008NEW NOSIEQDQ01+000000PRSWM2
0178065900999991994011515004+49617+006217SY-MT+0379ELLX V0201801N00261010501CN0200001N1+00421+00141101081ADDAG11000GA1021+006009999GA2071+010509999GF107991061081008001031021MA1100911999999MD1710271+9999OA149900621REMSYN028 333 84820 86635 91112 91208MET008NEW NOSIEQDQ01+000000PRSWM2
0178065900999991994011516004+49617+006217SY-MT+0379ELLX V0201601N00211007501CN0180001N1+00371+00171101031ADDAG11999GA1021+004509999GA2071+007509999GF107991071081004501999999MA1100811999999MD1710221+9999OA149900411REMSYN028 333 82815 87625 91108 91205MET008NEW NOSIEQDQ01+000000PRSWM2
0156065900999991994011517004+49617+006217SY-MT+0379ELLX V0201501N00211009601CN0150001N1+00321+00111101021ADDAG11999GA1071+009609999GF107991071051008001999999MA1100811999999MD1710141+9999OA149900311REMSYN022 333 87632 91106 91204MET008NEW NOSIEQDQ01+000000PRSWM2
0093065900999991994011517504+49617+006217FM-15+0379ELLX V0201401N00151010501CN0112651N1+00301+00101999999ADDAG11000GA1021+007509999GA2071+010509999MA1100811999999REMMET008NEW NOSIEQDQ01+000000PRSWM2
0156065900999991994011519004+49617+006217SY-MT+0379ELLX V0201101N00261010501CN0150001N1+00231+00041100911ADDAG11999GA1071+010509999GF107991051051012501031999MA1100711999999MD1710131+9999OA149900671REMSYN022 333 85635 91113 91205MET008NEW NOSIEQDQ01+000000PRSWM2
0185065900999991994011520004+49617+006217SY-MT+0379ELLX V0201201N00151060001CN0150001N1+00201+00041100871ADDAG11999GA1021+030009039GA2071+060009009GF107991021001999999031021MA1100611999999MD1710161+9999OA149900361REMSYN028 333 82360 87070 91107 91205MET015NEW CAVOK NOSIGEQDQ01+000000PRSWM2
0149065900999991994011521004+49617+006217FM-12+0379ELLX V0201201N00151060001CN0150001N9+00161+00011100861ADDAG12000GA1021+030009039GA2071+060009009GF107991021001999999031999MD1710131+9999OA149901081REMSYN028 333 82360 87070 91121 91205EQDQ01+000002SCOHCG
0068065900999991994011522204+49617+006217FM-15+0379ELLX V0201601N00101999991CY0099001N1+00101+00001999999ADDAG11999MA1100611999999REMMET015NEW CAVOK NOSIGEQDQ01+000000PRSWM2
0185065900999991994011523004+49617+006217SY-MT+0379ELLX V0201301N00151060001CN0150001N1+00141+00011100781ADDAG11999GA1041+004509059GA2041+060009009GF106991041051004501031021MA1100511999999MD1710091+9999OA149900211REMSYN028 333 84615 84070 91104 91203MET015NEW CAVOK NOSIGEQDQ01+000000PRSWM2
0167065900999991994011600004+49617+006217SY-MT+0379ELLX V0200601N00211036001CN0060001N1+00101-00031100731ADDAA106000091AG11000GA1021+005409999GF105991031051004501031021MA1100511999999MD1710121+9999OA149901081REMSYN022 333 83618 91121 91205MET008NEW NOSIEQDQ01+000000PRSWM2
0114065900999991994011601004+49617+006217SY-MT+0379ELLX V0200701N001519999999N0001001N1+00101-00031100661ADDAG11999ED199U04509MA1100411999999MD1710141+9999OA149900261REMSYN016 333 91105 91204MET003NEWEQDQ01+000000PRSWM2
0114065900999991994011602004+49617+006217SY-MT+0379ELLX V0200601N002619999999N0002001N1+00031-00081100651ADDAG11999ED199U18009MA1100411999999MD1710121+9999OA149900311REMSYN016 333 91106 91205MET003NEWEQDQ01+000000PRSWM2
0189065900999991994011603004+49617+006217SY-MT+0379ELLX V0200701N00261000601CN0001001N1+00021+00001100611ADDAG11000AW1461AZ121031AZ221031ED199U03759GA1071+000609999GF199999061061000751001001MA1100411999999MD1710111+9999OA149900361REMSYN022 333 86702 91107 91206MET008NEW NOSIEQDQ01+000062SCOTCV
0130065900999991994011604004+49617+006217FM-12+0379ELLX V0200501N00361000601CN0001001N9+00021+00021100571ADDAG11999AW1441AZ141011AZ241011GA1061+000609079GF106991061061000751001001MD1710091+9999OA149900411REMSYN022 333 86702 91108 91207
0130065900999991994011605004+49617+006217FM-12+0379ELLX V0200401N00311000601CN0009001N9+00061+00061100551ADDAG11999AW1421AZ141021AZ241021GA1061+000609079GF106991061061000751001001MD1710101+9999OA149900461REMSYN022 333 86702 91109 91207
0262065900999991994011606004+49617+006217SY-MT+0379ELLX V0200501N00211015001CN0070001N1+00051-00061100571ADDAA106000091AG10000AW1281AZ141061AZ221061GA1071+015009999GF199999051051017501001001GJ100009IA1149IA2999-00309KA1120N-00011MA1100311999999MD1710051+9999OA149900461REMSYN040 333 21001 34103 85650 91109 91207 94000MET008NEW NOSIEQDQ01+000052SCOTCVQ02+000000PRSWM2
0192065900999991994011607004+49617+006217SY-MT+0379ELLX V0200401N00311220001CN0025001N1+00041-00071100631ADDAG11999AW1101AZ111011AZ211011GA1021+030009999GA2021+060009999GF103991011001999999031021MA1100411999999MD1210041+9999OA149900461REMSYN028 333 81360 83070 91109 91206MET019NEW NOSIG 0639// 50
0166065900999991994011608004+49617+006217SY-MT+0379ELLX V0200401N00261090001CN0025001N9+00041-00031100641ADDAG11999AW1101AZ111021AZ211021GA1021+030009999GA2021+060009999GF105991031001999999031021MD1210071+9999OA149900411REMSYN028 333 83360 83070 91108 91206MET008NEW NOSI
0194065900999991994011609004+49617+006217SY-MT+0379ELLX V0200401N00311060001CN0050001N1+00071-00061100691ADDAG11000GA1021+030009999GA2071+060009999GF199999021001999999031021MA1100411999999MD1210111+9999OA149900511REMSYN028 333 82360 85070 91110 91206MET008NEW NOSIEQDQ01+000062SCOTCVQ02+000000PRSWM2
0185065900999991994011610004+49617+006217SY-MT+0379ELLX V0200301N00411060001CN0100001N1+00131-00111100721ADDAG11999GA1021+030009039GA2031+060009009GF106991021001999999031021MA1100511999999MD1210091+9999OA149900571REMSYN028 333 82360 83070 91111 91208MET015NEW CAVOK NOSIGEQDQ01+000000PRSWM2
0194065900999991994011611004+49617+006217SY-MT+0379ELLX V0200401N00411060001CN0150001N1+00261-00051100721ADDAG11999GA1021+005409999GA2071+060009999GF199999021081004501031021MA1100511999999MD1210091+9999OA149900621REMSYN028 333 81818 85070 91112 91209MET008NEW NOSIEQDQ01+000052SCOTCVQ02+000000PRSWM2
