0043065900999991954010100004+49617+006200FM-12+038099999V0200201N00721007801CN0060001N9-00391-00721102951ADDAY121999GF107991071051008001999999MW1051
0056065900999991954010106004+49617+006200FM-12+038099999V0200201N00411220001CN0060001N9-00611-00781103111ADDAY101999GF100991001001999999001001KA1999N-00721MW1051
0043065900999991954010112004+49617+006200FM-12+038099999V0200201N00721007801CN0060001N9-00281-00501103101ADDAY171999GF105991051051008001001001MW1701
0056065900999991954010118004+49617+006200FM-12+038099999V0200201N00511012301CN0080001N9-00281-00501103101ADDAY171999GF108991071051012501999999KA1999M-00221MW1051
0043065900999991954010200004+49617+006200FM-12+038099999V0200201N00721220001CN0060001N9-00611-00781103301ADDAY121999GF100991001001999999001001MW1051
0056065900999991954010206004+49617+006200FM-12+038099999V0200401N00981220001CN0080001N9-00721-00891103331ADDAY101999GF100991001001999999001001KA1999N-00721MW1051
0043065900999991954010212004+49617+006200FM-12+038099999V0200701N00771220001CN0060001N9-00391-00781103351ADDAY111999GF101991011011004501001001MW1051
0056065900999991954010218004+49617+006200FM-12+038099999V0200301N00461220001CN0080001N9-00611-00891103331ADDAY111999GF100991001001999999001001KA1999M-00281MW1051
0043065900999991954010300004+49617+006200FM-12+038099999V0209991C00001220001CN0060001N9-01001-01111103091ADDAY101999GF100991001001999999001001MW1051
0056065900999991954010306004+49617+006200FM-12+038099999V0202301N00311007801CN0030001N9-00781-00891102231ADDAY121999GF108991081051008001999999KA1999N-01221MW1051
0043065900999991954010312004+49617+006200FM-12+038099999V0202901N00511007801CN0030001N9-00501-00721101511ADDAY171999GF106991061061008001999999MW1051
0056065900999991954010318004+49617+006200FM-12+038099999V0200201N00151001501CN0004001N9-00281-00281101261ADDAY181999GF108991071071001501999999KA1999M-00281MW1741
0043065900999991954010400004+49617+006200FM-12+038099999V0200101N00211007801CN0060001N9-00221-00281101291ADDAY171999GF107991071051008001999999MW1051
0056065900999991954010406004+49617+006200FM-12+038099999V0200401N00311007801CN0050001N9-00221-00391101261ADDAY171999GF108991071051008001999999KA1999N-00391MW1221
0043065900999991954010412004+49617+006200FM-12+038099999V0200301N006219999999N0040001N9-00221-00391101321ADDAY171999GF108991011071002501999999MW1711
0056065900999991954010418004+49617+006200FM-12+038099999V0200401N007219999999N0010001N9-00281-00501101431ADDAY171999GF108991041071004501999999KA1999M-00221MW1721
0043065900999991954010500004+49617+006200FM-12+038099999V0200501N00821004501CN0070001N9-00281-00611101511ADDAY171999GF108991081051004501999999MW1051
0056065900999991954010506004+49617+006200FM-12+038099999V0200501N01131004501CN0080001N9-00391-00721101401ADDAY121999GF107991071051004501999999KA1999N-00501MW1051
0043065900999991954010512004+49617+006200FM-12+038099999V0200401N009819999999N0120001N9-00391-00891101361ADDAY121999GF106991031051012501001061MW1021
0056065900999991954010518004+49617+006200FM-12+038099999V0200401N00151220001CN0080001N9-00501-01001101461ADDAY111999GF103991021051012501001051KA1999M-00281MW1051
0043065900999991954010600004+49617+006200FM-12+038099999V0200401N00511220001CN0070001N9-00721-01001101461ADDAY111999GF103991031051004501001001MW1051
0056065900999991954010606004+49617+006200FM-12+038099999V0200701N00511220001CN0060001N9-00781-01111101421ADDAY111999GF102991021051012501001001KA1999N-00781MW1051
0043065900999991954010612004+49617+006200FM-12+038099999V0200301N00101220001CN0030001N9-00611-01001101361ADDAY121999GF107991001001999999031061MW1051
0056065900999991954010618004+49617+006200FM-12+038099999V0202001N00151007801CN0020001N9-00611-00891101271ADDAY121999GF108991081051008001999999KA1999M-00501MW1051
0043065900999991954010700004+49617+006200FM-12+038099999V0202101N00211001501CN0018001N9-00611-00781101181ADDAY171999GF108991081071001501999999MW1721
0056065900999991954010706004+49617+006200FM-12+038099999V0209991C00001002401CN0012001N9-00721-00781101111ADDAY171999GF108991081071002501999999KA1999N-00721MW1711
0062065900999991954010712004+49617+006200FM-12+038099999V0203401N00261220001CN0026001N9-00611-00891101301ADDAY171999GF105991999001999999031001MW1051EQDQ01+000002SCOTLC
0056065900999991954010718004+49617+006200FM-12+038099999V0200201N00771220001CN0040001N9-00781-01111101671ADDAY111999GF102991001001999999001061KA1999M-00501MW1051
0043065900999991954010800004+49617+006200FM-12+038099999V0200401N00721004501CN0040001N9-00611-00891102031ADDAY121999GF108991081051004501999999MW1051
0056065900999991954010806004+49617+006200FM-12+038099999V0200401N00211001501CN0040001N9-00501-00611102421ADDAY171999GF108991081071001501999999KA1999N-00891MW1701
0043065900999991954010812004+49617+006200FM-12+038099999V0200301N004619999999N0060001N9-00281-00611102711ADDAY171999GF107991041071001501999999MW1711
0056065900999991954010818004+49617+006200FM-12+038099999V0200201N00261220001CN0100001N9-00611-00891103131ADDAY171999GF100991001001999999001001KA1999M-00221MW1011
0043065900999991954010900004+49617+006200FM-12+038099999V0203601N00261220001CN0080001N9-00781-01001103331ADDAY101999GF100991001001999999001001MW1051
0056065900999991954010906004+49617+006200FM-12+038099999V0202701N00211220001CN0016001N9-01001-01111103221ADDAY111999GF103991031051008001001001KA1999N-01111MW1101
0043065900999991954010912004+49617+006200FM-12+038099999V0202201N00461001501CN0010001N9-00611-00721102731ADDAY171999GF108991071071001501999999MW1721
0075065900999991954010918004+49617+006200FM-12+038099999V0202501N00671000601CN0016001N9-00281-00281101932ADDAY171999GF108991071071000751999999KA1999M-00281MW1711EQDQ01+101933APOSLP
0043065900999991954011000004+49617+006200FM-12+038099999V0202901N00311012301CN0030001N9-00111-00221101941ADDAY171999GF106991061051012501001001MW1051
0056065900999991954011006004+49617+006200FM-12+038099999V0202701N00511002401CN0050001N9-00111-00111101671ADDAY171999GF108991081061002501999999KA1999N-00281MW1051
0043065900999991954011012004+49617+006200FM-12+038099999V0203201N00511001501CN0040001N9+00111+00001101711ADDAY171999GF108991081071001501999999MW1701
0056065900999991954011018004+49617+006200FM-12+038099999V0202601N00511012301CN0120001N9+00001-00221101901ADDAY171999GF108991081051012501999999KA1999M+00221MW1031
0043065900999991954011100004+49617+006200FM-12+038099999V0202701N00571001501CN0040001N9+00111+00001101691ADDAY171999GF108991071071001501999999MW1711
0056065900999991954011106004+49617+006200FM-12+038099999V0202901N00931001501CN0050001N9+00221+00111101441ADDAY171999GF108991071071001501999999KA1999N+00001MW1611
0043065900999991954011112004+49617+006200FM-12+038099999V0202801N00671004501CN0160001N9+00391+00221101611ADDAY161999GF108991081051004501999999MW1021
0056065900999991954011118004+49617+006200FM-12+038099999V0203201N00621001501CN0070001N9+00281+00221101761ADDAY161999GF107991061071001501999999KA1999M+00391MW1211
0043065900999991954011200004+49617+006200FM-12+038099999V0202501N00671001501CN0050001N9+00221+00111102031ADDAY121999GF108991081061001501999999MW1051
0056065900999991954011206004+49617+006200FM-12+038099999V0202501N00411001501CN0020001N9+00221+00111102061ADDAY151999GF108991081061001501999999KA1999N+00221MW1051
0043065900999991954011212004+49617+006200FM-12+038099999V0202701N00461001501CN0012001N9+00221+00221102151ADDAY121999GF108991081061001501999999MW1101
0056065900999991954011218004+49617+006200FM-12+038099999V0202501N00311000151CN0002001N9+00221+00221102101ADDAY151999GF109991091999000251999999KA1999M+00221MW1451
0043065900999991954011300004+49617+006200FM-12+038099999V0201901N00461000151CN0004001N9+00111+00111102021ADDAY141999GF109991091999000251999999MW1451
0056065900999991954011306004+49617+006200FM-12+038099999V0202201N00511002401CN0080001N9+00111+00111101661ADDAY161999GF108991081071002501999999KA1999N+00001MW1211
0043065900999991954011312004+49617+006200FM-12+038099999V0201801N00931000601CN0060001N9+00281+00221101221ADDAY161999GF108991061071000751999999MW1611
0056065900999991954011318004+49617+006200FM-12+038099999V0201801N00871004501CN0050001N9+00221+00111100381ADDAY171999GF108991081071004501999999KA1999M+00281MW1681
0043065900999991954011400004+49617+006200FM-12+038099999V0202501N00981004501CN0120001N9+00281+00221099691ADDAY181999GF108991061081004501999999MW1251
0056065900999991954011406004+49617+006200FM-12+038099999V0202601N00771220001CN0120001N9-00111-00221100371ADDAY121999GF100991001001999999001001KA1999N-00111MW1011
0043065900999991954011412004+49617+006200FM-12+038099999V0202301N00771002401CN0040001N9+00001-00111100561ADDAY171999GF108991071071002501999999MW1701
0056065900999991954011418004+49617+006200FM-12+038099999V0202301N00721002401CN0020001N9+00111+00111100541ADDAY171999GF108991081071002501999999KA1999M+00111MW1601
0043065900999991954011500004+49617+006200FM-12+038099999V0202101N00511000601CN0050001N9+00281+00281100461ADDAY161999GF108991071071000751999999MW1631
0056065900999991954011506004+49617+006200FM-12+038099999V0202301N00571000151CN0000001N9+00501+00501100551ADDAY161999GF109991091999000251999999KA1999N+00111MW1581
0043065900999991954011512004+49617+006200FM-12+038099999V0202401N00821000151CN0010001N9+00781+00781100541ADDAY161999GF108991071071000251999999MW1581
0056065900999991954011518004+49617+006200FM-12+038099999V0202601N01341002401CN0080001N9+01001+00891100631ADDAY161999GF108991061071002501999999KA1999M+01001MW1511
0043065900999991954011600004+49617+006200FM-12+038099999V0202501N015419999999N0140001N9+00781+00281101001ADDAY181999GF106991031081004501999999MW1031
0056065900999991954011606004+49617+006200FM-12+038099999V0202601N01131015001CN0120001N9+00501+00111101531ADDAY181999GF105991051051017501001001KA1999N+00391MW1011
0043065900999991954011612004+49617+006200FM-12+038099999V0202701N01031007801CN0140001N9+00611+00111102021ADDAY181999GF106991051081008001001061MW1251
0056065900999991954011618004+49617+006200FM-12+038099999V0202401N00621007801CN0150001N9+00501+00111102351ADDAY181999GF105991051021008001001061KA1999M+00721MW1031
0043065900999991954011700004+49617+006200FM-12+038099999V0201701N00511007801CN0200001N9+00221+00221102451ADDAY181999GF106991061051008001999999MW1011
0056065900999991954011706004+49617+006200FM-12+038099999V0202401N005119999999N0200001N9+00221+00221102501ADDAY121999GF106991041081004501999999KA1999N+00111MW1011
0062065900999991954011712004+49617+006200FM-12+038099999V0202701N00821004501CN0200001N9+00391+00111102491ADDAY121999GF106991999081004501001001MW1021EQDQ01+000052SCOTLC
0075065900999991954011718004+49617+006200FM-12+038099999V0202701N006719999999N0160001N9+00391-00111102571ADDAY121999GF105991999081008001001001KA1999M+00501MW1011EQDQ01+000022SCOTLC
0043065900999991954011800004+49617+006200FM-12+038099999V0203101N00311220001CN0120001N9+00221+00001103031ADDAY181999GF101991011051008001001001MW1011
0056065900999991954011806004+49617+006200FM-12+038099999V0202901N00311220001CN0080001N9-00111-00111103301ADDAY121999GF103991031051012501001001KA1999N-00111MW1051
0062065900999991954011812004+49617+006200FM-12+038099999V0202201N00261220001CN0040001N9+00281+00001103571ADDAY121999GF104991999081008001001001MW1051EQDQ01+000032SCOTLC
0056065900999991954011818004+49617+006200FM-12+038099999V0202501N00101220001CN0050001N9+00001-00221103651ADDAY111999GF101991011051017501001001KA1999M+00391MW1051
0043065900999991954011900004+49617+006200FM-12+038099999V0209991C00001220001CN0030001N9-00111-00111103571ADDAY121999GF107991001001999999031999MW1051
0056065900999991954011906004+49617+006200FM-12+038099999V0201701N00101007801CN0002001N9-00221-00221103251ADDAY141999GF107991071051008001999999KA1999N-00221MW1441
0043065900999991954011912004+49617+006200FM-12+038099999V0201801N00261220001CN0012001N9-00111-00111102911ADDAY141999GF107991001001999999031061MW1101
0056065900999991954011918004+49617+006200FM-12+038099999V0202101N00361220001CN0026001N9+00111-00111102371ADDAY121999GF106991001001999999071061KA1999M+00111MW1051
0043065900999991954012000004+49617+006200FM-12+038099999V0202401N00721012301CN0060001N9+00221-00221102201ADDAY121999GF108991081051012501999999MW1031
0056065900999991954012006004+49617+006200FM-12+038099999V0202301N00771000601CN0010001N9+00111+00111102151ADDAY161999GF108991081071000751999999KA1999N+00001MW1201
0043065900999991954012012004+49617+006200FM-12+038099999V0202401N00871000601CN0030001N9+00391+00391102091ADDAY161999GF108991081071000751999999MW1501
0056065900999991954012018004+49617+006200FM-12+038099999V0202301N01031001501CN0070001N9+00611+00501101971ADDAY161999GF108991081071001501999999KA1999M+00611MW1501
0043065900999991954012100004+49617+006200FM-12+038099999V0202301N01181000601CN0040001N9+00611+00611101761ADDAY161999GF108991071071000751999999MW1611
0056065900999991954012106004+49617+006200FM-12+038099999V0202401N00771000601CN0040001N9+00721+00721101701ADDAY161999GF108991071071000751999999KA1999N+00501MW1611
0043065900999991954012112004+49617+006200FM-12+038099999V0202501N00771000601CN0040001N9+00781+00781101781ADDAY161999GF108991071071000751999999MW1601
0056065900999991954012118004+49617+006200FM-12+038099999V0200601N00411000151CN0008001N9+00611+00611101911ADDAY161999GF108991081071000251999999KA1999M+00781MW1511
0043065900999991954012200004+49617+006200FM-12+038099999V0200401N00411220001CN0060001N9+00111+00001102331ADDAY151999GF104991041051008001001001MW1051
0075065900999991954012206004+49617+006200FM-12+038099999V0200401N00411220001CN0080001N9-00111-00221102581ADDAY111999GF101991999001999999031001KA1999N-00111MW1051EQDQ01+000002SCOTLC
0062065900999991954012212004+49617+006200FM-12+038099999V0200601N004619999999N0120001N9+00111-00221102871ADDAY111999GF105991999081008001001001MW1021EQDQ01+000042SCOTLC
0056065900999991954012218004+49617+006200FM-12+038099999V0201001N00461220001CN0150001N9-00111-00501102991ADDAY111999GF101991011051012501001001KA1999M+00111MW1011
0043065900999991954012300004+49617+006200FM-12+038099999V0201101N00771007801CN0150001N9-00111-00391103101ADDAY121999GF108991081051008001999999MW1021
0056065900999991954012306004+49617+006200FM-12+038099999V0201001N00771007801CN0150001N9-00221-00721103061ADDAY121999GF107991071051008001999999KA1999N-00281MW1021
0043065900999991954012312004+49617+006200FM-12+038099999V0200701N00821220001CN0140001N9+00001-00721103181ADDAY121999GF101991011051012501001001MW1021
0056065900999991954012318004+49617+006200FM-12+038099999V0200801N00771220001CN0120001N9-00281-00891103151ADDAY101999GF100991001001999999001001KA1999M+00111MW1001
0043065900999991954012400004+49617+006200FM-12+038099999V0200801N00721220001CN0120001N9-00611-01111103261ADDAY101999GF100991001001999999001001MW1001
0056065900999991954012406004+49617+006200FM-12+038099999V0200801N00721220001CN0120001N9-00721-01111103271ADDAY101999GF100991001001999999001001KA1999N-00721MW1001
0043065900999991954012412004+49617+006200FM-12+038099999V0200901N00821220001CN0140001N9-00281-01111103151ADDAY101999GF100991001001999999001001MW1001
0056065900999991954012418004+49617+006200FM-12+038099999V0200901N00821220001CN0080001N9-00501-01001102971ADDAY101999GF100991001001999999001001KA1999M-00221MW1051
0043065900999991954012500004+49617+006200FM-12+038099999V0201001N00771220001CN0120001N9-00721-01221102811ADDAY101999GF100991001001999999001001MW1001
0056065900999991954012506004+49617+006200FM-12+038099999V0201101N00361220001CN0150001N9-00891-01281102491ADDAY101999GF100991001001999999001001KA1999N-00891MW1001
0043065900999991954012512004+49617+006200FM-12+038099999V0201001N00411220001CN0080001N9-00391-01281102161ADDAY101999GF100991001001999999001001MW1051
0056065900999991954012518004+49617+006200FM-12+038099999V0200701N00511220001CN0090001N9-00501-01281101791ADDAY101999GF101991001001999999001051KA1999M-00111MW1051
0043065900999991954012600004+49617+006200FM-12+038099999V0200501N00311220001CN0120001N9-00891-01281101691ADDAY101999GF100991001001999999001001MW1001
0056065900999991954012606004+49617+006200FM-12+038099999V0200701N00621220001CN0120001N9-01001-01391101491ADDAY111999GF103991031051008001001001KA1999N-01001MW1021
0062065900999991954012612004+49617+006200FM-12+038099999V0200701N00771220001CN0100001N9-00501-01281101321ADDAY111999GF101991999001999999031001MW1021EQDQ01+000002SCOTLC
0056065900999991954012618004+49617+006200FM-12+038099999V0200501N00931220001CN0060001N9-00721-01221101351ADDAY101999GF102991001001999999001011KA1999M-00281MW1051
0043065900999991954012700004+49617+006200FM-12+038099999V0200501N00931220001CN0060001N9-01111-01501101511ADDAY101999GF100991001001999999001001MW1051
0056065900999991954012706004+49617+006200FM-12+038099999V0200501N00931220001CN0060001N9-01281-01721101541ADDAY101999GF100991001001999999001001KA1999N-01281MW1051
0043065900999991954012712004+49617+006200FM-12+038099999V0200501N01031220001CN0080001N9-00781-01611101491ADDAY101999GF101991001001999999001011MW1051
0075065900999991954012718004+49617+006200FM-12+038099999V0200501N00671220001CN0060001N9-00781-01781101471ADDAY111999GF104991999001999999031001KA1999M-00611MW1051EQDQ01+000002SCOTLC
0043065900999991954012800004+49617+006200FM-12+038099999V0200601N00511007801CN0060001N9-00891-01391101421ADDAY171999GF108991081051008001999999MW1051
0056065900999991954012806004+49617+006200FM-12+038099999V0200601N00461004501CN0060001N9-01001-01111101301ADDAY171999GF108991081051004501999999KA1999N-01001MW1711
0043065900999991954012812004+49617+006200FM-12+038099999V0200901N00511007801CN0040001N9-00611-01111101091ADDAY171999GF107991071051008001999999MW1051
0056065900999991954012818004+49617+006200FM-12+038099999V0200901N00511007801CN0030001N9-00501-00781100791ADDAY171999GF108991081051008001999999KA1999M-00501MW1221
0043065900999991954012900004+49617+006200FM-12+038099999V0200601N00461007801CN0040001N9-00611-00781100631ADDAY171999GF108991081051008001999999MW1701
0056065900999991954012906004+49617+006200FM-12+038099999V0200601N00821007801CN0030001N9-00611-00721100381ADDAY171999GF108991081051008001999999KA1999N-00721MW1711
0043065900999991954012912004+49617+006200FM-12+038099999V0200701N00721001501CN0012001N9-00501-00721100331ADDAY171999GF108991081071001501999999MW1711
0056065900999991954012918004+49617+006200FM-12+038099999V0200501N00821004501CN0014001N9-00611-00891100471ADDAY171999GF108991081071004501999999KA1999M-00501MW1701
0043065900999991954013000004+49617+006200FM-12+038099999V0200601N00771220001CN0060001N9-00891-01281100741ADDAY171999GF100991001001999999001001MW1051
0056065900999991954013006004+49617+006200FM-12+038099999V0200601N00621220001CN0080001N9-01111-01391101001ADDAY101999GF100991001001999999001001KA1999N-01221MW1051
0043065900999991954013012004+49617+006200FM-12+038099999V0200501N00821220001CN0140001N9-00891-01391101351ADDAY101999GF100991001001999999001001MW1001
0056065900999991954013018004+49617+006200FM-12+038099999V0200601N00511220001CN0200001N9-00891-01781101531ADDAY101999GF100991001001999999001001KA1999M-00611MW1001
0043065900999991954013100004+49617+006200FM-12+038099999V0200401N00721220001CN0140001N9-01391-01891101801ADDAY101999GF100991001001999999001001MW1001
0056065900999991954013106004+49617+006200FM-12+038099999V0200301N01131220001CN0120001N9-01501-01781101831ADDAY101999GF100991001001999999001001KA1999N-01501MW1001
0062065900999991954013112004+49617+006200FM-12+038099999V0200401N01131220001CN0120001N9-01221-01721101861ADDAY111999GF104991999001999999031001MW1011EQDQ01+000002SCOTLC
0091065900999991954013118004+49617+006200FM-12+038099999V0200501N01131220001CN0120001N9-00111-01891101861ADDAY111999GF101991999001999999031001KA1999M+99999MW1021EQDQ01+000002SCOTLCQ02 -00892ATMX  
0043065900999991954020100004+49617+006200FM-12+038099999V0200701N00771220001CN0120001N9-01501-02001102071ADDAY101999GF100991001001999999001001MW1001
0056065900999991954020106004+49617+006200FM-12+038099999V0200601N00511220001CN0120001N9-01721-02001102111ADDAY101999GF100991001001999999001001KA1999N-01721MW1001
0062065900999991954020112004+49617+006200FM-12+038099999V0200501N00621220001CN0120001N9-01281-01781101981ADDAY101999GF101991999001999999031001MW1031EQDQ01+000002SCOTLC
0056065900999991954020118004+49617+006200FM-12+038099999V0200501N00571220001CN0080001N9-01111-01781101911ADDAY101999GF102991021051017501001001KA1999M-00891MW1051
0043065900999991954020200004+49617+006200FM-12+038099999V0200401N00511220001CN0080001N9-01391-01781101941ADDAY101999GF100991001001999999001001MW1051
0056065900999991954020206004+49617+006200FM-12+038099999V0200401N00621220001CN0080001N9-01611-01781101891ADDAY101999GF100991001001999999001001KA1999N-01611MW1051
0062065900999991954020212004+49617+006200FM-12+038099999V0200301N006219999999N0050001N9-01281-01611101891ADDAY111999GF105991999051002501001001MW1051EQDQ01+000012SCOTLC
0056065900999991954020218004+49617+006200FM-12+038099999V0200401N01031220001CN0080001N9-01001-01501101901ADDAY111999GF100991001001999999001001KA1999M-01001MW1051
0043065900999991954020300004+49617+006200FM-12+038099999V0200401N00931220001CN0140001N9-01281-01721102121ADDAY101999GF100991001001999999001001MW1001
0056065900999991954020306004+49617+006200FM-12+038099999V0200401N01441220001CN0160001N9-01391-01721102201ADDAY101999GF100991001001999999001001KA1999N-01391MW1001
0043065900999991954020312004+49617+006200FM-12+038099999V0200401N01231220001CN0160001N9-00891-01721102221ADDAY101999GF100991001001999999001001MW1001
0056065900999991954020318004+49617+006200FM-12+038099999V0200601N01291220001CN0140001N9-00781-01391102301ADDAY101999GF102991021051012501001001KA1999M-00611MW1021
0043065900999991954020400004+49617+006200FM-12+038099999V0200901N00981007801CN0120001N9-00891-01391102411ADDAY121999GF107991071051008001999999MW1021
0056065900999991954020406004+49617+006200FM-12+038099999V0200901N00721220001CN0120001N9-01001-01281102431ADDAY121999GF104991041051008001001001KA1999N-01001MW1011
0043065900999991954020412004+49617+006200FM-12+038099999V0200701N00621015001CN0100001N9-00781-01221102421ADDAY121999GF106991051051017501031999MW1021
0056065900999991954020418004+49617+006200FM-12+038099999V0200701N00621220001CN0050001N9-00721-01111102231ADDAY121999GF105991001001999999031061KA1999M-00611MW1051
0062065900999991954020500004+49617+006200FM-12+038099999V0200801N00771220001CN0070001N9-00891-01221102201ADDAY111999GF103991999001999999031001MW1051EQDQ01+000002SCOTLC
0075065900999991954020506004+49617+006200FM-12+038099999V0200701N00621220001CN0080001N9-00891-01281101951ADDAY111999GF104991999001999999031001KA1999N-01001MW1051EQDQ01+000002SCOTLC
0043065900999991954020512004+49617+006200FM-12+038099999V0200701N00571220001CN0100001N9-00501-01111101791ADDAY121999GF106991001001999999001061MW1021
0056065900999991954020518004+49617+006200FM-12+038099999V0200701N00571220001CN0050001N9-00611-01281101711ADDAY121999GF106991001001999999001061KA1999M-00281MW1051
0043065900999991954020600004+49617+006200FM-12+038099999V0200501N00411220001CN0050001N9-00781-01281101701ADDAY111999GF100991001001999999001001MW1051
0056065900999991954020606004+49617+006200FM-12+038099999V0200501N00261220001CN0050001N9-01001-01281101691ADDAY101999GF100991001001999999001001KA1999N-01001MW1051
0043065900999991954020612004+49617+006200FM-12+038099999V0200801N00101220001CN0060001N9-00391-01001101511ADDAY101999GF101991001001999999001011MW1051
0056065900999991954020618004+49617+006200FM-12+038099999V0201401N00051220001CN0040001N9-00501-01001101421ADDAY101999GF101991001001999999001011KA1999M-00111MW1051
0043065900999991954020700004+49617+006200FM-12+038099999V0201101N00101220001CN0040001N9-00781-01111101381ADDAY101999GF100991001001999999001001MW1051
0056065900999991954020706004+49617+006200FM-12+038099999V0201801N00101220001CN0016001N9-01111-01221101191ADDAY101999GF100991001001999999001001KA1999N-01221MW1101
0043065900999991954020712004+49617+006200FM-12+038099999V0201801N00261220001CN0020001N9-00501-00891100921ADDAY101999GF100991001001999999001001MW1051
0056065900999991954020718004+49617+006200FM-12+038099999V0201601N00211220001CN0030001N9-00391-00721100461ADDAY101999GF101991001001999999001051KA1999M-00221MW1051
0043065900999991954020800004+49617+006200FM-12+038099999V0202101N00411000601CN0012001N9-00501-00611100161ADDAY171999GF108991081071000751999999MW1721
0056065900999991954020806004+49617+006200FM-12+038099999V0202301N00261001501CN0018001N9-00391-00391100021ADDAY171999GF108991081071001501999999KA1999N-00501MW1221
0043065900999991954020812004+49617+006200FM-12+038099999V0202601N00771012301CN0070001N9-00111-00391100511ADDAY121999GF107991071051012501999999MW1051
0056065900999991954020818004+49617+006200FM-12+038099999V0202301N00821007801CN0050001N9-00111-00391100551ADDAY171999GF108991051051008001021999KA1999M+00001MW1051
0043065900999991954020900004+49617+006200FM-12+038099999V0202101N00931002401CN0030001N9-00111-00221100371ADDAY171999GF108991081071002501999999MW1711
0056065900999991954020906004+49617+006200FM-12+038099999V0202101N00571000601CN0012001N9-00111-00221100151ADDAY171999GF108991081071000751999999KA1999N-00221MW1711
0043065900999991954020912004+49617+006200FM-12+038099999V0201401N00411000151CN0002001N9+00001+00001100121ADDAY171999GF109991091999000251999999MW1451
0056065900999991954020918004+49617+006200FM-12+038099999V0201201N00311000151CN0002001N9+00001+00001100231ADDAY171999GF109991091999000251999999KA1999M+00001MW1451
0043065900999991954021000004+49617+006200FM-12+038099999V0201001N00151000151CN0000001N9+00001+00001100501ADDAY141999GF109991091999000251999999MW1451
0056065900999991954021006004+49617+006200FM-12+038099999V0201201N00211000151CN0000001N9+00001+00001100451ADDAY141999GF109991091999000251999999KA1999N+00001MW1451
0043065900999991954021012004+49617+006200FM-12+038099999V0201601N00571000151CN0001001N9+00001+00001100071ADDAY171999GF109991091999000251999999MW1601
0056065900999991954021018004+49617+006200FM-12+038099999V0202001N00461000151CN0002001N9+00221+00221100071ADDAY161999GF109991091999000251999999KA1999M+00221MW1451
0043065900999991954021100004+49617+006200FM-12+038099999V0202001N00261000151CN0000001N9+00391+00391100141ADDAY141999GF109991091999000251999999MW1451
0056065900999991954021106004+49617+006200FM-12+038099999V0202001N00261000151CN0000001N9+00221+00221100121ADDAY141999GF109991091999000251999999KA1999N+00221MW1451
0043065900999991954021112004+49617+006200FM-12+038099999V0201601N00311000151CN0002001N9+00281+00281100101ADDAY161999GF109991091999000251999999MW1451
0056065900999991954021118004+49617+006200FM-12+038099999V0201601N00261007801CN0040001N9+00281+00221100201ADDAY121999GF106991061051008001999999KA1999M+00391MW1051
0043065900999991954021200004+49617+006200FM-12+038099999V0200701N00261004501CN0020001N9+00281+00281100501ADDAY161999GF108991081051004501999999MW1211
0056065900999991954021206004+49617+006200FM-12+038099999V0200801N002619999999N0070001N9+00221+00221100781ADDAY121999GF108991041061004501999999KA1999N+00221MW1051
0043065900999991954021212004+49617+006200FM-12+038099999V0201101N00051007801CN0050001N9+00391+00281101001ADDAY121999GF107991071051008001999999MW1051
0056065900999991954021218004+49617+006200FM-12+038099999V0201401N00211004501CN0006001N9+00281+00281101031ADDAY141999GF108991051051004501999999KA1999M+00501MW1461
0043065900999991954021300004+49617+006200FM-12+038099999V0201501N00361000151CN0002001N9+00221+00221101001ADDAY141999GF109991091999000251999999MW1471
0056065900999991954021306004+49617+006200FM-12+038099999V0201401N00411000151CN0001001N9+00221+00221100741ADDAY141999GF109991091999000251999999KA1999N+00221MW1451
0043065900999991954021312004+49617+006200FM-12+038099999V0201601N00621000601CN0028001N9+00221+00221100551ADDAY151999GF108991081071000751999999MW1501
0056065900999991954021318004+49617+006200FM-12+038099999V0201201N00511007801CN0040001N9+00501+00221100291ADDAY151999GF108991081051008001999999KA1999M+00501MW1051
0043065900999991954021400004+49617+006200FM-12+038099999V0201201N00211007801CN0030001N9+00221+00111100341ADDAY121999GF108991081051008001999999MW1051
0056065900999991954021406004+49617+006200FM-12+038099999V0201401N00101000151CN0000001N9+00221+00221100371ADDAY151999GF109991091999000251999999KA1999N+00221MW1451
0043065900999991954021412004+49617+006200FM-12+038099999V0200401N00211000601CN0034001N9+00391+00281100381ADDAY161999GF108991071061000751999999MW1051
0056065900999991954021418004+49617+006200FM-12+038099999V0200201N00821220001CN0050001N9+00501+00281100301ADDAY121999GF108991001001999999071999KA1999M+00611MW1051
0043065900999991954021500004+49617+006200FM-12+038099999V0200401N00671220001CN0050001N9+00281+00111100491ADDAY121999GF107991001001999999001081MW1051
0056065900999991954021506004+49617+006200FM-12+038099999V0200401N00211220001CN0040001N9+00111+00001100781ADDAY121999GF105991001001999999001061KA1999N+00111MW1051
0043065900999991954021512004+49617+006200FM-12+038099999V0200401N005719999999N0030001N9+00111-00111101061ADDAY121999GF107991041061002501999999MW1051
0056065900999991954021518004+49617+006200FM-12+038099999V0200901N00311002401CN0016001N9+00111-00111101321ADDAY121999GF108991081061002501999999KA1999M+00281MW1101
0043065900999991954021600004+49617+006200FM-12+038099999V0200501N00411000151CN0008001N9-00111-00221101661ADDAY151999GF109991091999000251999999MW1451
0056065900999991954021606004+49617+006200FM-12+038099999V0200301N00311002401CN0030001N9-00221-00221101761ADDAY141999GF108991081061002501999999KA1999N-00221MW1051
0043065900999991954021612004+49617+006200FM-12+038099999V0200201N002119999999N0034001N9-00111-00221101901ADDAY171999GF108991041061002501999999MW1771
0056065900999991954021618004+49617+006200FM-12+038099999V0203601N00211002401CN0040001N9+00001-00221101931ADDAY171999GF108991051061002501999999KA1999M+00001MW1051
0043065900999991954021700004+49617+006200FM-12+038099999V0203601N00411002401CN0030001N9-00221-00281102121ADDAY151999GF108991081061002501999999MW1241
0056065900999991954021706004+49617+006200FM-12+038099999V0200501N00621001501CN0040001N9-00221-00281102181ADDAY121999GF108991081061001501999999KA1999N-00281MW1051
0043065900999991954021712004+49617+006200FM-12+038099999V0200701N00571004501CN0090001N9-00221-00721102411ADDAY171999GF107991071051004501999999MW1051
0056065900999991954021718004+49617+006200FM-12+038099999V0200501N00261007801CN0100001N9-00221-00611102341ADDAY121999GF107991061051008001999999KA1999M-00111MW1031
0043065900999991954021800004+49617+006200FM-12+038099999V0200801N00311004501CN0080001N9-00281-00611102331ADDAY121999GF108991071051004501999999MW1051
0056065900999991954021806004+49617+006200FM-12+038099999V0200801N00101004501CN0080001N9-00391-00611102111ADDAY121999GF108991071051004501999999KA1999N-00391MW1051
0043065900999991954021812004+49617+006200FM-12+038099999V0201701N00101004501CN0040001N9-00221-00611102011ADDAY171999GF108991071051004501999999MW1051
0056065900999991954021818004+49617+006200FM-12+038099999V0201401N00151220001CN0018001N9-00221-00501101701ADDAY121999GF105991001001999999031061KA1999M+00001MW1051
0043065900999991954021900004+49617+006200FM-12+038099999V0201401N00411015001CN0024001N9-00221-00391101441ADDAY121999GF107991071051017501999999MW1051
0056065900999991954021906004+49617+006200FM-12+038099999V0201601N00411002401CN0016001N9-00281-00391101091ADDAY171999GF108991081071002501999999KA1999N-00281MW1221
0043065900999991954021912004+49617+006200FM-12+038099999V0202401N00511007801CN0028001N9-00111-00391100891ADDAY171999GF107991071051008001999999MW1051
0056065900999991954021918004+49617+006200FM-12+038099999V0201201N00361007801CN0028001N9+00001-00391100791ADDAY171999GF108991081051008001999999KA1999M+00221MW1701
0043065900999991954022000004+49617+006200FM-12+038099999V0200801N00261012301CN0030001N9-00111-00281100961ADDAY121999GF107991071051012501999999MW1051
0056065900999991954022006004+49617+006200FM-12+038099999V0200501N00211004501CN0012001N9-00221-00281101221ADDAY171999GF108991071051004501999999KA1999N-00221MW1101
0043065900999991954022012004+49617+006200FM-12+038099999V0200601N00101004501CN0026001N9+00001-00391101581ADDAY121999GF108991081051004501999999MW1051
0056065900999991954022018004+49617+006200FM-12+038099999V0201501N00101007801CN0026001N9+00001-00221101901ADDAY121999GF107991071051008001999999KA1999M+00111MW1051
0043065900999991954022100004+49617+006200FM-12+038099999V0201401N00051007801CN0024001N9+00001-00221102141ADDAY121999GF107991071051008001999999MW1051
0056065900999991954022106004+49617+006200FM-12+038099999V0201601N00051007801CN0022001N9-00111-00221102351ADDAY121999GF107991071051008001999999KA1999N-00111MW1051
0043065900999991954022112004+49617+006200FM-12+038099999V0201501N00101007801CN0020001N9+00281-00281102511ADDAY121999GF107991071051008001999999MW1051
0056065900999991954022118004+49617+006200FM-12+038099999V0202901N00211220001CN0030001N9+00281-00111102651ADDAY121999GF102991001001999999031051KA1999M+00501MW1051
0043065900999991954022200004+49617+006200FM-12+038099999V0209991C00001220001CN0020001N9-00111-00221102851ADDAY101999GF100991001001999999001001MW1051
0056065900999991954022206004+49617+006200FM-12+038099999V0203101N00051004501CN0006001N9-00281-00281102991ADDAY141999GF106991061051004501999999KA1999N-00281MW1441
0043065900999991954022212004+49617+006200FM-12+038099999V0202201N002119999999N0024001N9+00391-00111102871ADDAY141999GF107991031051012501031999MW1051
0056065900999991954022218004+49617+006200FM-12+038099999V0202601N00101007801CN0030001N9+00281+00111102711ADDAY121999GF108991081051008001999999KA1999M+00501MW1051
0043065900999991954022300004+49617+006200FM-12+038099999V0209991C00001004501CN0030001N9+00221+00001102621ADDAY121999GF108991081051004501999999MW1051
0056065900999991954022306004+49617+006200FM-12+038099999V0201201N00211220001CN0012001N9+00001+00001102381ADDAY121999GF100991001001999999001001KA1999N+00001MW1101
0043065900999991954022312004+49617+006200FM-12+038099999V0201101N00461220001CN0028001N9+00611+00001102141ADDAY101999GF100991001001999999001001MW1051
0056065900999991954022318004+49617+006200FM-12+038099999V0201001N00461220001CN0030001N9+00501-00111101791ADDAY101999GF101991001001999999001011KA1999M+00891MW1051
0043065900999991954022400004+49617+006200FM-12+038099999V0200801N00311220001CN0050001N9+00111-00281101721ADDAY101999GF100991001001999999001001MW1051
0056065900999991954022406004+49617+006200FM-12+038099999V0201001N00101220001CN0030001N9-00111-00281101621ADDAY101999GF101991001001999999001011KA1999N-00111MW1051
0043065900999991954022412004+49617+006200FM-12+038099999V0201601N002119999999N0022001N9+00281-00111101581ADDAY121999GF107991041051017501031999MW1051
0056065900999991954022418004+49617+006200FM-12+038099999V0201801N00211220001CN0024001N9+00281+00111101581ADDAY161999GF106991001001999999031061KA1999M+00611MW1051
0043065900999991954022500004+49617+006200FM-12+038099999V0201801N00211000151CN0001001N9+00001+00001101541ADDAY141999GF109991091999000251999999MW1471
0056065900999991954022506004+49617+006200FM-12+038099999V0202001N00511000151CN0001001N9+00221+00221101211ADDAY151999GF109991091999000251999999KA1999N+00001MW1501
0043065900999991954022512004+49617+006200FM-12+038099999V0202101N00931004501CN0150001N9+00501+00281100981ADDAY161999GF108991081051004501999999MW1211
0056065900999991954022518004+49617+006200FM-12+038099999V0202201N01031001501CN0060001N9+00501+00391100621ADDAY161999GF108991051071001501999999KA1999M+00611MW1211
0043065900999991954022600004+49617+006200FM-12+038099999V0202201N00721004501CN0100001N9+00501+00391100191ADDAY181999GF108991071091004501999999MW1811
0056065900999991954022606004+49617+006200FM-12+038099999V0202201N00771001501CN0100001N9+00111+00001100031ADDAY191999GF108991071071001501999999KA1999N+00111MW1601
0043065900999991954022612004+49617+006200FM-12+038099999V0202401N00981002401CN0200001N9+00391-00111100261ADDAY161999GF107991061081002501999999MW1021
0056065900999991954022618004+49617+006200FM-12+038099999V0202301N00821001501CN0160001N9+00221+00111100061ADDAY181999GF107991071081001501999999KA1999M+00611MW1801
0043065900999991954022700004+49617+006200FM-12+038099999V0202701N01131002401CN0160001N9+00221+00001100151ADDAY181999GF108991051081002501999999MW1021
0056065900999991954022706004+49617+006200FM-12+038099999V0202501N01081004501CN0160001N9+00221+00001100151ADDAY121999GF107991061081004501999999KA1999N+00221MW1021
0043065900999991954022712004+49617+006200FM-12+038099999V0202301N00931002401CN0160001N9+00391+00111099991ADDAY181999GF107991071081002501999999MW1251
0056065900999991954022718004+49617+006200FM-12+038099999V0202301N008219999999N0200001N9+00391+00001100191ADDAY191999GF106991031081004501999999KA1999M+00501MW1021
0043065900999991954022800004+49617+006200FM-12+038099999V0202001N01081004501CN0150001N9+00281+00111100241ADDAY181999GF108991071081004501999999MW1801
0075065900999991954022806004+49617+006200FM-12+038099999V0202201N00721220001CN0150001N9+00221+00001100521ADDAY181999GF103991999081004501001001KA1999N+00221MW1021EQDQ01+000022SCOTLC
0043065900999991954022812004+49617+006200FM-12+038099999V0201901N00721002401CN0160001N9+00391+00111100431ADDAY181999GF107991061081002501999999MW1251
0056065900999991954022818004+49617+006200FM-12+038099999V0202401N00511002401CN0080001N9+00221+00111100161ADDAY181999GF108991071031002501999999KA1999M+00611MW1261
0043065900999991954030100004+49617+006200FM-12+038099999V0202401N01181002401CN0032001N9+00001+00001100261ADDAY181999GF108991081031002501999999MW1861
0056065900999991954030106004+49617+006200FM-12+038099999V0202301N005119999999N0080001N9-00111-00221100511ADDAY181999GF106991031081004501999999KA1999N-00111MW1051
0043065900999991954030112004+49617+006200FM-12+038099999V0202301N01031004501CN0160001N9+00001-00281100601ADDAY181999GF107991061081004501999999MW1261
0056065900999991954030118004+49617+006200FM-12+038099999V0202401N00511004501CN0100001N9-00221-00391100921ADDAY181999GF107991061081004501999999KA1999M+00001MW1261
0043065900999991954030200004+49617+006200FM-12+038099999V0202201N00211220001CN0100001N9-00501-00501101131ADDAY181999GF100991001001999999001001MW1011
0056065900999991954030206004+49617+006200FM-12+038099999V0201601N00621220001CN0120001N9-00391-00611100771ADDAY111999GF103991021051008001031001KA1999N-00501MW1031
0043065900999991954030212004+49617+006200FM-12+038099999V0201701N006219999999N0160001N9+00391-00111100311ADDAY121999GF106991021081008001001061MW1011
0056065900999991954030218004+49617+006200FM-12+038099999V0201801N00511007801CN0090001N9+00501-00111099781ADDAY121999GF106991061051008001999999KA1999M+00611MW1051
0043065900999991954030300004+49617+006200FM-12+038099999V0202301N00931007801CN0150001N9+00391+00221099761ADDAY161999GF108991071051008001999999MW1021
0056065900999991954030306004+49617+006200FM-12+038099999V0202401N00931004501CN0120001N9+00281+00111099461ADDAY161999GF108991071051004501999999KA1999N+00281MW1611
0043065900999991954030312004+49617+006200FM-12+038099999V0202101N010319999999N0200001N9+00721-01281099021ADDAY161999GF107991031051017501071081MW1021
0056065900999991954030318004+49617+006200FM-12+038099999V0201801N01231002401CN0060001N9+00611-00111098501ADDAY161999GF108991051071002501021999KA1999M+00891MW1601
0043065900999991954030400004+49617+006200FM-12+038099999V0202001N00981001501CN0080001N9+00391+00281098151ADDAY161999GF108991071071001501999999MW1631
0075065900999991954030406004+49617+006200FM-12+038099999V0202201N00871220001CN0160001N9+00221+00001098301ADDAY161999GF103991999081002501001001KA1999N+00221MW1011EQDQ01+000022SCOTLC
0043065900999991954030412004+49617+006200FM-12+038099999V0202301N00721004501CN0160001N9+00391+00281098561ADDAY181999GF107991061081004501999999MW1021
0056065900999991954030418004+49617+006200FM-12+038099999V0202301N00571220001CN0160001N9+00391-00391098631ADDAY181999GF104991031051008001001061KA1999M+00721MW1021
0043065900999991954030500004+49617+006200FM-12+038099999V0202301N00411004501CN0120001N9+00221-00111098751ADDAY161999GF108991071051004501999999MW1641
0056065900999991954030506004+49617+006200FM-12+038099999V0202301N00261000601CN0040001N9+00111+00001098901ADDAY171999GF108991071071000751999999KA1999N+00001MW1681
0043065900999991954030512004+49617+006200FM-12+038099999V0202701N00511004501CN0160001N9+00281-00221099291ADDAY171999GF106991061021004501999999MW1031
0056065900999991954030518004+49617+006200FM-12+038099999V0202701N00621004501CN0060001N9+00221-00111099841ADDAY181999GF108991071081004501999999KA1999M+00391MW1051
0043065900999991954030600004+49617+006200FM-12+038099999V0202301N00721001501CN0040001N9+00001-00111100371ADDAY181999GF108991071071001501999999MW1711
0056065900999991954030606004+49617+006200FM-12+038099999V0202301N00311220001CN0050001N9-00221-00391100891ADDAY171999GF103991031051008001001001KA1999N-00221MW1051
0043065900999991954030612004+49617+006200FM-12+038099999V0202401N005719999999N0040001N9+00111-00221101111ADDAY171999GF108991041081004501999999MW1701
0056065900999991954030618004+49617+006200FM-12+038099999V0202101N004619999999N0090001N9+00281+00001101181ADDAY181999GF107991011081004501999999KA1999M+00281MW1051
0043065900999991954030700004+49617+006200FM-12+038099999V0202001N00311220001CN0100001N9+00001-00221101221ADDAY121999GF100991001001999999001001MW1021
0056065900999991954030706004+49617+006200FM-12+038099999V0202101N00571004501CN0120001N9+00001-00221101031ADDAY121999GF108991071051004501999999KA1999N-00111MW1021
0043065900999991954030712004+49617+006200FM-12+038099999V0201701N00721007801CN0160001N9+00611+00111100861ADDAY121999GF107991061051008001999999MW1021
0056065900999991954030718004+49617+006200FM-12+038099999V0201901N00361007801CN0160001N9+00611+00001100631ADDAY121999GF105991051051008001999999KA1999M+00781MW1011
0043065900999991954030800004+49617+006200FM-12+038099999V0201701N002119999999N0120001N9+00391-00111100631ADDAY121999GF107991031051008001031999MW1021
0056065900999991954030806004+49617+006200FM-12+038099999V0201401N00311012301CN0160001N9+00281-00281100581ADDAY121999GF107991071051012501031999KA1999N+00281MW1021
0043065900999991954030812004+49617+006200FM-12+038099999V0201701N00361220001CN0150001N9+00891-00111100631ADDAY121999GF106991001001999999031999MW1021
0075065900999991954030818004+49617+006200FM-12+038099999V0201501N00101220001CN0160001N9+00891+00281100641ADDAY111999GF103991999001999999031001KA1999M+01221MW1011EQDQ01+000002SCOTLC
0043065900999991954030900004+49617+006200FM-12+038099999V0201301N00211012301CN0080001N9+00611+00001100921ADDAY111999GF106991061051012501999999MW1051
0056065900999991954030906004+49617+006200FM-12+038099999V0201201N00461220001CN0060001N9+00281-00111101061ADDAY121999GF102991021051012501001001KA1999N+00281MW1051
0043065900999991954030912004+49617+006200FM-12+038099999V0201501N00311220001CN0120001N9+01111+00001101071ADDAY101999GF101991011011008001001001MW1031
0075065900999991954030918004+49617+006200FM-12+038099999V0201501N00051220001CN0200001N9+01111+00111101091ADDAY101999GF101991999001999999041001KA1999M+01391MW1031EQDQ01+000002SCOTLC
0043065900999991954031000004+49617+006200FM-12+038099999V0201401N00211220001CN0100001N9+00611+00001101301ADDAY101999GF100991001001999999001001MW1001
0056065900999991954031006004+49617+006200FM-12+038099999V0200501N00261220001CN0060001N9+00391-00221101441ADDAY101999GF100991001001999999001001KA1999N+00281MW1051
0062065900999991954031012004+49617+006200FM-12+038099999V0202001N00151220001CN0050001N9+01221-00111101381ADDAY111999GF104991999001999999031001MW1051EQDQ01+000002SCOTLC
0056065900999991954031018004+49617+006200FM-12+038099999V0209991V000519999999N0040001N9+01111+00111101341ADDAY121999GF107991041011008001031999KA1999M+01391MW1051
0043065900999991954031100004+49617+006200FM-12+038099999V0200901N00311012301CN0060001N9+00721+00221101551ADDAY121999GF107991071051012501999999MW1051
0075065900999991954031106004+49617+006200FM-12+038099999V0201101N00211220001CN0040001N9+00221+00001101631ADDAY121999GF101991999001999999031001KA1999N+00221MW1051EQDQ01+000002SCOTLC
0043065900999991954031112004+49617+006200FM-12+038099999V0209991V00211220001CN0060001N9+00891+00001101551ADDAY101999GF101991001001999999001061MW1051
0056065900999991954031118004+49617+006200FM-12+038099999V0200501N00311220001CN0160001N9+00891-00281101401ADDAY101999GF100991001001999999001001KA1999M+01111MW1001
0043065900999991954031200004+49617+006200FM-12+038099999V0200701N00361220001CN0060001N9+00221-00111101531ADDAY101999GF100991001001999999001001MW1051
0056065900999991954031206004+49617+006200FM-12+038099999V0200301N00671220001CN0050001N9+00001-00281101461ADDAY101999GF101991001001999999001051KA1999N+00001MW1051
0043065900999991954031212004+49617+006200FM-12+038099999V0200501N00821220001CN0060001N9+00781-00111101301ADDAY101999GF101991011051012501001001MW1051
0056065900999991954031218004+49617+006200FM-12+038099999V0200701N00721220001CN0090001N9+00611-00221101251ADDAY111999GF102991021051008001001001KA1999M+00891MW1031
0043065900999991954031300004+49617+006200FM-12+038099999V0200601N00671220001CN0050001N9+00221+00001101351ADDAY101999GF100991001001999999001001MW1051
0056065900999991954031306004+49617+006200FM-12+038099999V0200601N00871004501CN0050001N9+00111+00001101311ADDAY121999GF108991081051004501999999KA1999N+00111MW1051
0043065900999991954031312004+49617+006200FM-12+038099999V0200601N00871007801CN0040001N9+00721+00001101271ADDAY121999GF105991051051008001001001MW1051
0056065900999991954031318004+49617+006200FM-12+038099999V0200601N00931220001CN0060001N9+00781+00001101261ADDAY121999GF105991001001999999031061KA1999M+01001MW1051
0043065900999991954031400004+49617+006200FM-12+038099999V0200601N00931220001CN0060001N9+00281+00001101391ADDAY121999GF100991001001999999001001MW1051
0056065900999991954031406004+49617+006200FM-12+038099999V0200601N00821220001CN0060001N9+00111-00111101381ADDAY101999GF100991001001999999001001KA1999N+00111MW1051
0043065900999991954031412004+49617+006200FM-12+038099999V0200801N00871220001CN0090001N9+00781+00111101181ADDAY101999GF101991001001999999001061MW1051
0056065900999991954031418004+49617+006200FM-12+038099999V0200501N00821220001CN0040001N9+00611+00111101141ADDAY111999GF105991001001999999031061KA1999M+01001MW1051
0043065900999991954031500004+49617+006200FM-12+038099999V0200401N00671220001CN0050001N9+00111+00111101321ADDAY111999GF104991001001999999001061MW1051
0056065900999991954031506004+49617+006200FM-12+038099999V0200401N00511000151CN0002001N9+00111+00111101431ADDAY141999GF109991091999000251999999KA1999N+00111MW1471
0043065900999991954031512004+49617+006200FM-12+038099999V0209991V00151002401CN0034001N9+00501+00111101511ADDAY141999GF108991061061002501999999MW1051
0056065900999991954031518004+49617+006200FM-12+038099999V0203601N00411004501CN0050001N9+00391-00111101621ADDAY121999GF108991071051004501999999KA1999M+00611MW1051
0043065900999991954031600004+49617+006200FM-12+038099999V0200201N00311004501CN0050001N9+00281+00111101741ADDAY121999GF108991081051004501999999MW1051
0056065900999991954031606004+49617+006200FM-12+038099999V0200301N00721001501CN0016001N9+00221+00111101781ADDAY121999GF108991081061001501999999KA1999N+00221MW1101
0043065900999991954031612004+49617+006200FM-12+038099999V0200301N00931000601CN0018001N9+00391+00111101741ADDAY121999GF108991081061000751999999MW1051
0056065900999991954031618004+49617+006200FM-12+038099999V0200401N00771012301CN0030001N9+00501+00221101551ADDAY121999GF106991061051012501999999KA1999M+00721MW1051
0043065900999991954031700004+49617+006200FM-12+038099999V0200501N01031220001CN0020001N9+00221+00111101511ADDAY111999GF100991001001999999001001MW1051
0056065900999991954031706004+49617+006200FM-12+038099999V0200501N00771000151CN0001001N9+00111+00111101471ADDAY141999GF109991091999000251999999KA1999N+00001MW1471
0043065900999991954031712004+49617+006200FM-12+038099999V0200501N00621220001CN0040001N9+01111+00391101271ADDAY141999GF100991001001999999001001MW1051
0056065900999991954031718004+49617+006200FM-12+038099999V0200601N00461220001CN0050001N9+01221-00111101171ADDAY111999GF104991001001999999001061KA1999M+01501MW1051
0043065900999991954031800004+49617+006200FM-12+038099999V0200501N00311220001CN0040001N9+00611+00111101431ADDAY111999GF103991001001999999001061MW1051
0056065900999991954031806004+49617+006200FM-12+038099999V0200901N00101220001CN0030001N9+00391+00111101441ADDAY111999GF103991031051017501001001KA1999N+00391MW1051
0062065900999991954031812004+49617+006200FM-12+038099999V0201401N00101220001CN0040001N9+01111+00391101441ADDAY121999GF105991999001999999031001MW1051EQDQ01+000002SCOTLC
0056065900999991954031818004+49617+006200FM-12+038099999V0202601N002119999999N0160001N9+01221+00501101421ADDAY121999GF107991011081008001999999KA1999M+01391MW1021
0043065900999991954031900004+49617+006200FM-12+038099999V0202701N001519999999N0140001N9+00891+00721101671ADDAY121999GF107991031081008001999999MW1021
0056065900999991954031906004+49617+006200FM-12+038099999V0202501N001019999999N0080001N9+00721+00501101791ADDAY181999GF108991031051008001999999KA1999N+00721MW1051
0043065900999991954031912004+49617+006200FM-12+038099999V0201601N00361007801CN0060001N9+01281+00391101701ADDAY121999GF106991061081008001999999MW1051
0056065900999991954031918004+49617+006200FM-12+038099999V0201701N00211012301CN0160001N9+01111+00391101461ADDAY181999GF107991071051012501999999KA1999M+01391MW1021
0062065900999991954032000004+49617+006200FM-12+038099999V0201401N00411220001CN0090001N9+00781+00721101231ADDAY121999GF104991999001999999031001MW1051EQDQ01+000002SCOTLC
0056065900999991954032006004+49617+006200FM-12+038099999V0201701N00721001501CN0060001N9+00781+00721100871ADDAY161999GF108991081071001501999999KA1999N+00721MW1631
0043065900999991954032012004+49617+006200FM-12+038099999V0202301N006219999999N0160001N9+01001+00221101131ADDAY161999GF107991031081004501999999MW1031
0056065900999991954032018004+49617+006200FM-12+038099999V0201901N001519999999N0200001N9+00891+00501101381ADDAY181999GF105991021081004501031001KA1999M+01111MW1251
0043065900999991954032100004+49617+006200FM-12+038099999V0202301N00101220001CN0060001N9+00501+00501101911ADDAY111999GF102991001001999999001061MW1051
0056065900999991954032106004+49617+006200FM-12+038099999V0202701N002119999999N0030001N9+00391+00391102151ADDAY121999GF107991041051017501031999KA1999N+00281MW1111
0043065900999991954032112004+49617+006200FM-12+038099999V0202701N00211007801CN0060001N9+00891+00611102311ADDAY141999GF107991071051008001999999MW1051
0056065900999991954032118004+49617+006200FM-12+038099999V0202201N001019999999N0030001N9+01001+00501102291ADDAY121999GF106991011081008001999999KA1999M+01221MW1051
0043065900999991954032200004+49617+006200FM-12+038099999V0201401N00261220001CN0030001N9+00501+00391102291ADDAY111999GF100991001001999999001001MW1051
0075065900999991954032206004+49617+006200FM-12+038099999V0201101N00151220001CN0014001N9+00391+00281101951ADDAY101999GF101991999001999999031001KA1999N+00281MW1111EQDQ01+000002SCOTLC
0043065900999991954032212004+49617+006200FM-12+038099999V0201301N00931220001CN0060001N9+01391+00221101401ADDAY111999GF102991001001999999001061MW1051
0056065900999991954032218004+49617+006200FM-12+038099999V0201301N00721220001CN0120001N9+01391+00111100831ADDAY111999GF106991001001999999031061KA1999M+01721MW1031
0043065900999991954032300004+49617+006200FM-12+038099999V0201101N00571220001CN0080001N9+00891+00221100731ADDAY111999GF106991001001999999001061MW1051
0056065900999991954032306004+49617+006200FM-12+038099999V0201401N00671220001CN0060001N9+00781+00221100501ADDAY111999GF106991001001999999031061KA1999N+00721MW1051
0043065900999991954032312004+49617+006200FM-12+038099999V0201901N010319999999N0160001N9+01501-00111100181ADDAY121999GF107991021081008001031061MW1031
0056065900999991954032318004+49617+006200FM-12+038099999V0202501N001519999999N0200001N9+01111+00281100151ADDAY181999GF105991021051012501071061KA1999M+01501MW1011
0043065900999991954032400004+49617+006200FM-12+038099999V0202301N00461007801CN0100001N9+00721+00611100451ADDAY161999GF108991071051008001999999MW1611
0056065900999991954032406004+49617+006200FM-12+038099999V0202301N00311000601CN0010001N9+00611+00611100581ADDAY161999GF108991081071000751999999KA1999N+00611MW1621
0043065900999991954032412004+49617+006200FM-12+038099999V0202501N00571001501CN0050001N9+00721+00611101071ADDAY181999GF108991051081001501999999MW1251
0056065900999991954032418004+49617+006200FM-12+038099999V0202501N003119999999N0160001N9+00891+00391101351ADDAY181999GF107991011081008001999999KA1999M+00891MW1021
0043065900999991954032500004+49617+006200FM-12+038099999V0202301N00571012301CN0120001N9+00721+00501101751ADDAY121999GF107991071051012501999999MW1021
0056065900999991954032506004+49617+006200FM-12+038099999V0202301N00511002401CN0060001N9+00611+00501101941ADDAY151999GF108991071071002501999999KA1999N+00611MW1201
0043065900999991954032512004+49617+006200FM-12+038099999V0202401N00571004501CN0080001N9+00721+00281102061ADDAY121999GF107991051051004501031999MW1051
0056065900999991954032518004+49617+006200FM-12+038099999V0202501N003119999999N0040001N9+00781+00391101891ADDAY121999GF106991021051012501031999KA1999M+00781MW1051
0043065900999991954032600004+49617+006200FM-12+038099999V0202101N004119999999N0100001N9+00721+00501101671ADDAY121999GF107991021051012501031999MW1031
0056065900999991954032606004+49617+006200FM-12+038099999V0202401N00821000601CN0030001N9+00611+00501101301ADDAY121999GF108991071061000751999999KA1999N+00611MW1051
0043065900999991954032612004+49617+006200FM-12+038099999V0202501N00931001501CN0030001N9+00721+00611101171ADDAY161999GF108991071071001501999999MW1611
0056065900999991954032618004+49617+006200FM-12+038099999V0203001N004619999999N0060001N9+00611+00281101621ADDAY161999GF106991021081004501999999KA1999M+00781MW1051
0043065900999991954032700004+49617+006200FM-12+038099999V0203201N00261220001CN0060001N9+00221+00001101891ADDAY111999GF100991001001999999001001MW1051
0056065900999991954032706004+49617+006200FM-12+038099999V0203601N00311220001CN0060001N9+00111-00221101871ADDAY111999GF103991031051008001001001KA1999N+00111MW1051
0043065900999991954032712004+49617+006200FM-12+038099999V0200301N00671007801CN0120001N9+00501-00221101801ADDAY121999GF107991071051008001999999MW1021
0056065900999991954032718004+49617+006200FM-12+038099999V0200501N00411220001CN0120001N9+00501-00281101721ADDAY121999GF101991001001999999031051KA1999M+00611MW1011
0043065900999991954032800004+49617+006200FM-12+038099999V0200701N00211220001CN0100001N9+00111-00281101831ADDAY101999GF100991001001999999001001MW1001
0056065900999991954032806004+49617+006200FM-12+038099999V0200501N00211220001CN0030001N9-00111-00391101791ADDAY111999GF105991001001999999041061KA1999N-00221MW1051
0043065900999991954032812004+49617+006200FM-12+038099999V0201901N00311220001CN0090001N9+00721-00391101581ADDAY121999GF107991001001999999031061MW1051
0056065900999991954032818004+49617+006200FM-12+038099999V0202401N00151220001CN0090001N9+00891-00221101391ADDAY121999GF106991001001999999031061KA1999M+01001MW1051
0043065900999991954032900004+49617+006200FM-12+038099999V0202301N00151220001CN0060001N9+00501+00001101471ADDAY111999GF103991001001999999001061MW1051
0056065900999991954032906004+49617+006200FM-12+038099999V0202601N00101007801CN0050001N9+00391+00221101461ADDAY161999GF108991071061008001999999KA1999N+00391MW1051
0043065900999991954032912004+49617+006200FM-12+038099999V0202301N00411004501CN0090001N9+00891+00281101431ADDAY161999GF106991061021004501999999MW1051
0056065900999991954032918004+49617+006200FM-12+038099999V0202701N00101012301CN0200001N9+00891+00281101301ADDAY121999GF107991071051012501999999KA1999M+01001MW1021
0043065900999991954033000004+49617+006200FM-12+038099999V0202001N00211220001CN0090001N9+00501+00221101261ADDAY121999GF104991021051012501031001MW1051
0056065900999991954033006004+49617+006200FM-12+038099999V0201801N00261015001CN0030001N9+00501+00281101151ADDAY121999GF107991051051017501031999KA1999N+00501MW1051
0043065900999991954033012004+49617+006200FM-12+038099999V0202301N00931002401CN0060001N9+00781+00721101001ADDAY161999GF108991071071002501999999MW1631
0056065900999991954033018004+49617+006200FM-12+038099999V0202301N00671002401CN0120001N9+00891+00781101001ADDAY181999GF108991051081002501999999KA1999M+01001MW1021
0043065900999991954033100004+49617+006200FM-12+038099999V0201601N00261000151CN0006001N9+00721+00721101111ADDAY181999GF109991091999000251999999MW1471
0056065900999991954033106004+49617+006200FM-12+038099999V0201801N00411004501CN0024001N9+00721+00721100921ADDAY141999GF108991071061004501999999KA1999N+00611MW1051
0043065900999991954033112004+49617+006200FM-12+038099999V0202401N008719999999N0120001N9+00721+00501100981ADDAY181999GF108991041081002501999999MW1811
0056065900999991954033118004+49617+006200FM-12+038099999V0202401N005119999999N0160001N9+00611+00391101211ADDAY181999GF107991011081004501031061KA1999M+00781MW1021
0043065900999991954040100004+49617+006200FM-12+038099999V0202301N00721220001CN0200001N9+00391+00221101401ADDAY121999GF100991001001999999001001MW1001
0056065900999991954040106004+49617+006200FM-12+038099999V0202101N009319999999N0150001N9+00391+00221101031ADDAY121999GF107991041051008001031999KA1999N+00391MW1021
0043065900999991954040112004+49617+006200FM-12+038099999V0202501N00981004501CN0200001N9+00391+00281100851ADDAY181999GF107991051081004501999999MW1261
0056065900999991954040118004+49617+006200FM-12+038099999V0202801N010319999999N0160001N9+00391+00281101181ADDAY181999GF107991041031002501999999KA1999M+00721MW1811
0043065900999991954040200004+49617+006200FM-12+038099999V0202301N00511220001CN0160001N9+00281+00221101781ADDAY181999GF101991011051008001001001MW1021
0056065900999991954040206004+49617+006200FM-12+038099999V0202301N004619999999N0030001N9+00221+00111101901ADDAY111999GF106991041051008001031999KA1999N+00221MW1051
0043065900999991954040212004+49617+006200FM-12+038099999V0202001N00361000151CN0006001N9+00611+00611101751ADDAY161999GF109991091999000251999999MW1591
0056065900999991954040218004+49617+006200FM-12+038099999V0202601N00871001501CN0060001N9+01001+01001101621ADDAY151999GF108991071071001501999999KA1999M+01111MW1201
0043065900999991954040300004+49617+006200FM-12+038099999V0202301N00931001501CN0020001N9+01001+00891101671ADDAY161999GF108991071071001501999999MW1511
0056065900999991954040306004+49617+006200FM-12+038099999V0202501N00621001501CN0050001N9+00891+00781101791ADDAY151999GF108991071071001501999999KA1999N+00891MW1201
0043065900999991954040312004+49617+006200FM-12+038099999V0202501N00771001501CN0080001N9+00891+00891102011ADDAY161999GF108991061071001501999999MW1211
0056065900999991954040318004+49617+006200FM-12+038099999V0202401N00771002401CN0060001N9+01001+00721101931ADDAY121999GF108991051071002501021999KA1999M+01111MW1051
0043065900999991954040400004+49617+006200FM-12+038099999V0202401N00721004501CN0080001N9+01001+00781101841ADDAY161999GF108991071061004501999999MW1051
0056065900999991954040406004+49617+006200FM-12+038099999V0202501N00771001501CN0040001N9+01001+00891101761ADDAY151999GF108991071071001501999999KA1999N+00891MW1501
0043065900999991954040412004+49617+006200FM-12+038099999V0202301N00621001501CN0050001N9+01111+01001101691ADDAY161999GF108991051071001501999999MW1601
0056065900999991954040418004+49617+006200FM-12+038099999V0202401N006219999999N0200001N9+01221+01001101591ADDAY181999GF107991031081004501999999KA1999M+01281MW1021
0043065900999991954040500004+49617+006200FM-12+038099999V0200301N00411007801CN0200001N9+00721+00501101831ADDAY181999GF108991071051008001999999MW1021
0056065900999991954040506004+49617+006200FM-12+038099999V0200101N00311012301CN0200001N9+00391+00111101891ADDAY121999GF107991071051012501999999KA1999N+00391MW1021
0043065900999991954040512004+49617+006200FM-12+038099999V0200201N005719999999N0160001N9+00721-00111101741ADDAY121999GF108991041051017501071999MW1021
0056065900999991954040518004+49617+006200FM-12+038099999V0200201N005119999999N0090001N9+00391+00221101631ADDAY161999GF108991011051008001071999KA1999M+00781MW1051
0043065900999991954040600004+49617+006200FM-12+038099999V0200201N002619999999N0060001N9+00281+00111101701ADDAY181999GF108991021051008001999999MW1051
0056065900999991954040606004+49617+006200FM-12+038099999V0203301N005119999999N0060001N9+00221-00221101791ADDAY161999GF108991021051012501071999KA1999N+00221MW1051
0043065900999991954040612004+49617+006200FM-12+038099999V0200101N00511004501CN0150001N9+00501-00221101931ADDAY121999GF107991061021004501001061MW1021
0056065900999991954040618004+49617+006200FM-12+038099999V0200301N005719999999N0200001N9+00501-00281102031ADDAY121999GF108991011021008001011999KA1999M+00611MW1021
0043065900999991954040700004+49617+006200FM-12+038099999V0200101N00511220001CN0120001N9+00281-00281102311ADDAY121999GF100991001001999999001001MW1001
0056065900999991954040706004+49617+006200FM-12+038099999V0200101N00361220001CN0050001N9+00221+00001102531ADDAY111999GF104991031051004501001061KA1999N+00111MW1051
0043065900999991954040712004+49617+006200FM-12+038099999V0200401N007719999999N0200001N9+00611-00111102591ADDAY171999GF107991041011008001071999MW1021
0056065900999991954040718004+49617+006200FM-12+038099999V0200101N00721007801CN0040001N9+00501-00111102701ADDAY151999GF108991071051008001999999KA1999M+00721MW1201
0043065900999991954040800004+49617+006200FM-12+038099999V0200301N00621012301CN0060001N9+00391-00111102811ADDAY151999GF108991071051012501999999MW1051
0056065900999991954040806004+49617+006200FM-12+038099999V0200301N00571012301CN0100001N9+00281-00111102851ADDAY121999GF108991071051012501999999KA1999N+00281MW1021
0043065900999991954040812004+49617+006200FM-12+038099999V0200501N009319999999N0150001N9+00611-00281102901ADDAY121999GF108991011081008001999999MW1021
0056065900999991954040818004+49617+006200FM-12+038099999V0200601N007219999999N0140001N9+00611-00221102931ADDAY121999GF106991011051012501031999KA1999M+00721MW1021
0043065900999991954040900004+49617+006200FM-12+038099999V0203501N00411220001CN0160001N9+00281-00111103101ADDAY161999GF102991021051008001001001MW1011
0056065900999991954040906004+49617+006200FM-12+038099999V0200701N00931220001CN0080001N9+00111-00281102951ADDAY111999GF103991001001999999001061KA1999N+00001MW1051
0062065900999991954040912004+49617+006200FM-12+038099999V0200601N006719999999N0100001N9+00781-00281102711ADDAY111999GF106991999081008001001001MW1021EQDQ01+000012SCOTLC
0056065900999991954040918004+49617+006200FM-12+038099999V0200501N005119999999N0100001N9+00781-00501102471ADDAY111999GF105991041051017501001011KA1999M+01111MW1031
0043065900999991954041000004+49617+006200FM-12+038099999V0200501N00571220001CN0140001N9+00221-00391102581ADDAY121999GF100991001001999999001001MW1011
0056065900999991954041006004+49617+006200FM-12+038099999V0200501N00511015001CN0060001N9+00111-00221102581ADDAY121999GF107991071051017501999999KA1999N+00001MW1051
0043065900999991954041012004+49617+006200FM-12+038099999V0200501N009319999999N0150001N9+00721-00501102491ADDAY121999GF105991031011012501031011MW1031
0056065900999991954041018004+49617+006200FM-12+038099999V0200601N00931220001CN0200001N9+00721-00781102371ADDAY111999GF105991001001999999031061KA1999M+00891MW1031
0043065900999991954041100004+49617+006200FM-12+038099999V0200401N00821220001CN0140001N9+00221-00501102631ADDAY111999GF100991001001999999001001MW1011
0043065900999991954041106004+49617+006200FM-12+038099999V0200201N00931220001CN0140001N9-00111-00611102591ADDAY101999GF102991001001999999001051MW1031
0043065900999991954041112004+49617+006200FM-12+038099999V0200501N00821220001CN0200001N9+00781-00781102421ADDAY101999GF101991001001999999001051MW1021
0043065900999991954041118004+49617+006200FM-12+038099999V0200601N00571220001CN0200001N9+01001-00721102291ADDAY101999GF100991001001999999001001MW1001
0043065900999991954041200004+49617+006200FM-12+038099999V0200601N00361220001CN0160001N9+00281-00501102511ADDAY101999GF100991001001999999001001MW1001
0056065900999991954041206004+49617+006200FM-12+038099999V0200401N00211220001CN0160001N9+00221-00611102501ADDAY101999GF100991001001999999001001KA1999N+00111MW1001
0043065900999991954041212004+49617+006200FM-12+038099999V0200201N00361220001CN0160001N9+01221-00891102301ADDAY111999GF104991001001999999051061MW1021
0056065900999991954041218004+49617+006200FM-12+038099999V0203201N00311220001CN0200001N9+01281-01281102181ADDAY111999GF105991001001999999031061KA1999M+01501MW1021
0043065900999991954041300004+49617+006200FM-12+038099999V0209991C000019999999N0120001N9+00721-00221102411ADDAY121999GF107991021051008001071061MW1021
0075065900999991954041306004+49617+006200FM-12+038099999V0203401N00211220001CN0110001N9+00501+00111102531ADDAY121999GF102991999001999999031001KA1999N+00391MW1011EQDQ01+000002SCOTLC
0043065900999991954041312004+49617+006200FM-12+038099999V0200201N00621220001CN0200001N9+00891-00501102571ADDAY111999GF101991011011012501001001MW1021
0056065900999991954041318004+49617+006200FM-12+038099999V0203401N00621220001CN0090001N9+00891-00281102581ADDAY111999GF104991031051012501001051KA1999M+01221MW1051
0043065900999991954041400004+49617+006200FM-12+038099999V0203301N00211220001CN0160001N9+00391-00111102941ADDAY101999GF100991001001999999001001MW1001
0056065900999991954041406004+49617+006200FM-12+038099999V0203201N00211220001CN0100001N9+00221-00111103021ADDAY111999GF104991001001999999031061KA1999N+00001MW1031
0043065900999991954041412004+49617+006200FM-12+038099999V0203101N006219999999N0140001N9+01111-00221102861ADDAY111999GF106991041081008001999999MW1021
0056065900999991954041418004+49617+006200FM-12+038099999V0202901N00571220001CN0200001N9+01111+00001102581ADDAY111999GF105991001001999999031061KA1999M+01281MW1021
0043065900999991954041500004+49617+006200FM-12+038099999V0202801N00671007801CN0060001N9+00781+00221102571ADDAY121999GF108991061051008001999999MW1051
0056065900999991954041506004+49617+006200FM-12+038099999V0203001N00771001501CN0030001N9+00781+00611102181ADDAY181999GF108991071071001501999999KA1999N+00721MW1581
0043065900999991954041512004+49617+006200FM-12+038099999V0203301N00821002401CN0160001N9+00611+00391102151ADDAY181999GF108991071081002501999999MW1251
0056065900999991954041518004+49617+006200FM-12+038099999V0203201N007219999999N0200001N9+00611-00221102111ADDAY181999GF107991031081004501999999KA1999M+00781MW1251
0043065900999991954041600004+49617+006200FM-12+038099999V0203401N006719999999N0200001N9+00281+00001102261ADDAY121999GF107991031081004501999999MW1031
0056065900999991954041606004+49617+006200FM-12+038099999V0203501N006219999999N0200001N9+00221+00111102551ADDAY181999GF106991021071001501999999KA1999N+00221MW1011
0062065900999991954041612004+49617+006200FM-12+038099999V0200101N008219999999N0200001N9+00501-00391102661ADDAY181999GF105991999081008001001001MW1021EQDQ01+000042SCOTLC
0056065900999991954041618004+49617+006200FM-12+038099999V0203501N007719999999N0200001N9+00391-00281102531ADDAY181999GF105991021031004501031031KA1999M+00781MW1021
0043065900999991954041700004+49617+006200FM-12+038099999V0203601N00671220001CN0140001N9+00111-00391102811ADDAY181999GF100991001001999999001001MW1001
0056065900999991954041706004+49617+006200FM-12+038099999V0203501N00671220001CN0120001N9+00001-00281102941ADDAY101999GF101991011051012501001001KA1999N-00111MW1021
0043065900999991954041712004+49617+006200FM-12+038099999V0200101N00821007801CN0200001N9+00501-00501102951ADDAY121999GF107991051081008001999999MW1021
0056065900999991954041718004+49617+006200FM-12+038099999V0203401N00621001501CN0030001N9+00111+00001103021ADDAY181999GF107991051031001501999999KA1999M+00721MW1261
0043065900999991954041800004+49617+006200FM-12+038099999V0203601N00571220001CN0200001N9+00001-00221103151ADDAY181999GF101991011051012501001001MW1031
0056065900999991954041806004+49617+006200FM-12+038099999V0200301N00461220001CN0160001N9-00111-00501103181ADDAY101999GF100991001001999999001001KA1999N-00221MW1001
0043065900999991954041812004+49617+006200FM-12+038099999V0200301N00931220001CN0200001N9+00611-00611103021ADDAY111999GF104991021011008001001061MW1021
0056065900999991954041818004+49617+006200FM-12+038099999V0200201N003619999999N0200001N9+00721-00781102661ADDAY111999GF106991031051012501001071KA1999M+00781MW1031
0043065900999991954041900004+49617+006200FM-12+038099999V0203401N00511007801CN0120001N9+00281+00001102391ADDAY181999GF107991051051008001031999MW1251
0056065900999991954041906004+49617+006200FM-12+038099999V0203401N004119999999N0140001N9+00111-00111102051ADDAY181999GF107991041081004501031999KA1999N+00001MW1261
0043065900999991954041912004+49617+006200FM-12+038099999V0203101N006219999999N0160001N9+00391-00221101671ADDAY181999GF105991031091004501001031MW1011
0056065900999991954041918004+49617+006200FM-12+038099999V0203401N00261220001CN0160001N9+00111-00111101691ADDAY181999GF102991021091004501001031KA1999M+00611MW1011
0043065900999991954042000004+49617+006200FM-12+038099999V0200101N00511220001CN0100001N9+00001-00221101861ADDAY181999GF100991001001999999001001MW1001
0056065900999991954042006004+49617+006200FM-12+038099999V0200301N00821220001CN0090001N9+00001-00221101931ADDAY111999GF103991021051008001031011KA1999N-00111MW1051
0043065900999991954042012004+49617+006200FM-12+038099999V0200301N006719999999N0200001N9+00501-00111101891ADDAY111999GF106991041081008001999999MW1021
0056065900999991954042018004+49617+006200FM-12+038099999V0200101N00721012301CN0160001N9+00611-00111101861ADDAY121999GF108991081051012501999999KA1999M+00721MW1021
0043065900999991954042100004+49617+006200FM-12+038099999V0200301N00411004501CN0050001N9+00281+00111101981ADDAY161999GF108991071051004501999999MW1611
0056065900999991954042106004+49617+006200FM-12+038099999V0200101N00571001501CN0030001N9+00281+00221101901ADDAY161999GF108991071071001501999999KA1999N+00221MW1601
0043065900999991954042112004+49617+006200FM-12+038099999V0200501N006719999999N0040001N9+00611+00391101861ADDAY161999GF108991041061002501999999MW1051
0056065900999991954042118004+49617+006200FM-12+038099999V0200301N00511002401CN0024001N9+00781+00611101861ADDAY161999GF108991071071002501999999KA1999M+00781MW1611
0043065900999991954042200004+49617+006200FM-12+038099999V0200301N00311012301CN0090001N9+00721+00391101971ADDAY161999GF106991061051012501999999MW1051
0056065900999991954042206004+49617+006200FM-12+038099999V0200201N00511007801CN0050001N9+00501+00001101981ADDAY121999GF107991061051008001999999KA1999N+00391MW1051
0043065900999991954042212004+49617+006200FM-12+038099999V0200401N00511220001CN0160001N9+01221+00111101931ADDAY121999GF104991021011012501001061MW1021
0056065900999991954042218004+49617+006200FM-12+038099999V0200601N00511220001CN0140001N9+01221+00111101871ADDAY111999GF103991021011012501031001KA1999M+01391MW1021
0043065900999991954042300004+49617+006200FM-12+038099999V0200401N00511220001CN0120001N9+00501+00111102111ADDAY101999GF100991001001999999001001MW1001
0056065900999991954042306004+49617+006200FM-12+038099999V0200401N00571220001CN0040001N9+00501+00001102091ADDAY101999GF100991001001999999001001KA1999N+00391MW1051
0043065900999991954042312004+49617+006200FM-12+038099999V0200401N004119999999N0160001N9+01391+00001101911ADDAY111999GF105991041021012501001051MW1021
0056065900999991954042318004+49617+006200FM-12+038099999V0209991V00051220001CN0160001N9+01391+00001101841ADDAY111999GF104991041051017501001001KA1999M+01501MW1021
0043065900999991954042400004+49617+006200FM-12+038099999V0200501N00311220001CN0100001N9+00721+00001102051ADDAY111999GF100991001001999999001001MW1001
0056065900999991954042406004+49617+006200FM-12+038099999V0200401N00211220001CN0070001N9+00611+00001102031ADDAY101999GF102991021051017501001001KA1999N+00501MW1051
0043065900999991954042412004+49617+006200FM-12+038099999V0201901N00361220001CN0140001N9+01611-00391101861ADDAY111999GF104991041021012501001001MW1031
0056065900999991954042418004+49617+006200FM-12+038099999V0201001N002619999999N0120001N9+01611+00111101711ADDAY111999GF105991031021012501031061KA1999M+01781MW1031
0062065900999991954042500004+49617+006200FM-12+038099999V0200401N00461220001CN0070001N9+00891+00221101831ADDAY121999GF101991999001999999031001MW1051EQDQ01+000002SCOTLC
0056065900999991954042506004+49617+006200FM-12+038099999V0200401N00211220001CN0030001N9+00721+00221101721ADDAY111999GF103991021081012501081001KA1999N+00611MW1051
0043065900999991954042512004+49617+006200FM-12+038099999V0209991V00311220001CN0090001N9+01611+00001101391ADDAY111999GF103991031021017501001021MW1051
0056065900999991954042518004+49617+006200FM-12+038099999V0200801N00511220001CN0160001N9+01111+00281101381ADDAY111999GF104991031031008001001031KA1999M+01721MW1011
0043065900999991954042600004+49617+006200FM-12+038099999V0200301N00211220001CN0140001N9+00721+00221101351ADDAY111999GF103991031051008001001001MW1021
0056065900999991954042606004+49617+006200FM-12+038099999V0200301N00721220001CN0080001N9+00501+00221101351ADDAY111999GF101991011051012501001001KA1999N+00391MW1051
0062065900999991954042612004+49617+006200FM-12+038099999V0200901N007219999999N0100001N9+01111+00281101361ADDAY111999GF105991999081008001001001MW1021EQDQ01+000042SCOTLC
0056065900999991954042618004+49617+006200FM-12+038099999V0200601N00821220001CN0200001N9+01221-00281101341ADDAY111999GF102991021011012501001051KA1999M+01281MW1021
0043065900999991954042700004+49617+006200FM-12+038099999V0200601N00621220001CN0200001N9+00501-00721101621ADDAY101999GF100991001001999999001001MW1001
0056065900999991954042706004+49617+006200FM-12+038099999V0200301N00671220001CN0160001N9+00281-00611101691ADDAY101999GF100991001001999999001001KA1999N+00221MW1001
0043065900999991954042712004+49617+006200FM-12+038099999V0200601N00671220001CN0200001N9+01281-00891101511ADDAY101999GF100991001001999999001001MW1001
0056065900999991954042718004+49617+006200FM-12+038099999V0200301N00721220001CN0200001N9+01221-00721101491ADDAY101999GF101991001001999999001011KA1999M+01391MW1031
0043065900999991954042800004+49617+006200FM-12+038099999V0200201N00931220001CN0080001N9+00501-00221101841ADDAY101999GF100991001001999999001001MW1051
0056065900999991954042806004+49617+006200FM-12+038099999V0200501N00871220001CN0140001N9+00281-00281101981ADDAY101999GF100991001001999999001001KA1999N+00221MW1001
0043065900999991954042812004+49617+006200FM-12+038099999V0200201N00621220001CN0200001N9+01221-00391101741ADDAY101999GF101991011011017501001001MW1031
0056065900999991954042818004+49617+006200FM-12+038099999V0200401N00721220001CN0200001N9+01221-00501101631ADDAY101999GF101991011051017501001001KA1999M+01391MW1021
0043065900999991954042900004+49617+006200FM-12+038099999V0200201N00931220001CN0090001N9+00501-00391101801ADDAY101999GF100991001001999999001001MW1051
0056065900999991954042906004+49617+006200FM-12+038099999V0200201N00821220001CN0140001N9+00391-00391101751ADDAY101999GF100991001001999999001001KA1999N+00281MW1011
0043065900999991954042912004+49617+006200FM-12+038099999V0200601N00721220001CN0200001N9+01281-00781101491ADDAY101999GF100991001001999999001001MW1001
0056065900999991954042918004+49617+006200FM-12+038099999V0200201N00511220001CN0200001N9+01281-00611101191ADDAY101999GF100991001001999999001001KA1999M+01501MW1001
0043065900999991954043000004+49617+006200FM-12+038099999V0200101N00771220001CN0060001N9+00611-00111101211ADDAY101999GF100991001001999999001001MW1051
0056065900999991954043006004+49617+006200FM-12+038099999V0200201N00621220001CN0090001N9+00501-00111100981ADDAY101999GF100991001001999999001001KA1999N+00391MW1051
0043065900999991954043012004+49617+006200FM-12+038099999V0201201N00511220001CN0140001N9+01501-00221100621ADDAY101999GF102991021011012501001001MW1031
0056065900999991954043018004+49617+006200FM-12+038099999V0202101N00211220001CN0100001N9+01611-00611100451ADDAY111999GF102991021011017501001001KA1999M+01781MW1011
0062065900999991954050100004+49617+006200FM-12+038099999V0209991V00151220001CN0080001N9+00891-00111100691ADDAY111999GF101991999001999999031001MW1051EQDQ01+000002SCOTLC
0056065900999991954050106004+49617+006200FM-12+038099999V0209991C00001220001CN0050001N9+00781+00001100671ADDAY111999GF104991001001999999001061KA1999N+00611MW1051
0043065900999991954050112004+49617+006200FM-12+038099999V0202101N005119999999N0150001N9+01501-00501100501ADDAY121999GF106991031011012501001061MW1021
0056065900999991954050118004+49617+006200FM-12+038099999V0202001N003119999999N0200001N9+01501-00391100371ADDAY121999GF107991021081008001031061KA1999M+01781MW1021
0043065900999991954050200004+49617+006200FM-12+038099999V0201401N00511007801CN0120001N9+01111+00221100411ADDAY161999GF108991051051008001021999MW1021
0056065900999991954050206004+49617+006200FM-12+038099999V0201601N003619999999N0100001N9+00781+00391100371ADDAY121999GF107991041051008001999999KA1999N+00721MW1031
0043065900999991954050212004+49617+006200FM-12+038099999V0202301N006219999999N0160001N9+00891+00611100241ADDAY181999GF107991031031004501999999MW1251
0075065900999991954050218004+49617+006200FM-12+038099999V0201601N003119999999N0200001N9+00611+00221100411ADDAY181999GF105991999031004501001001KA1999M+01281MW1021EQDQ01+000042SCOTLC
0043065900999991954050300004+49617+006200FM-12+038099999V0201601N00621007801CN0160001N9+00391+00221100381ADDAY181999GF106991061031008001999999MW1801
0056065900999991954050306004+49617+006200FM-12+038099999V0201601N00511220001CN0140001N9+00221+00111100351ADDAY181999GF102991021051008001001001KA1999N+00221MW1031
0043065900999991954050312004+49617+006200FM-12+038099999V0202001N008219999999N0200001N9+00891+00111100191ADDAY121999GF107991041081008001999999MW1021
0056065900999991954050318004+49617+006200FM-12+038099999V0201801N004619999999N0160001N9+00891+00111100191ADDAY181999GF107991021081008001031061KA1999M+01001MW1031
0043065900999991954050400004+49617+006200FM-12+038099999V0201901N00211004501CN0140001N9+00501+00391100341ADDAY181999GF106991051081004501999999MW1031
0056065900999991954050406004+49617+006200FM-12+038099999V0202401N002119999999N0070001N9+00501+00281100421ADDAY121999GF105991031061001501031061KA1999N+00391MW1051
0043065900999991954050412004+49617+006200FM-12+038099999V0202401N00511007801CN0160001N9+00781+00221100581ADDAY181999GF107991061081008001999999MW1801
0056065900999991954050418004+49617+006200FM-12+038099999V0209991V00211220001CN0200001N9+00721+00501100851ADDAY191999GF104991031091004501001031KA1999M+01111MW1011
0043065900999991954050500004+49617+006200FM-12+038099999V0202801N00211220001CN0050001N9+00221+00221101351ADDAY111999GF100991001001999999001001MW1051
0075065900999991954050506004+49617+006200FM-12+038099999V0202801N00051220001CN0026001N9+00221+00221101721ADDAY101999GF101991999001999999031001KA1999N+00001MW1051EQDQ01+000002SCOTLC
0043065900999991954050512004+49617+006200FM-12+038099999V0202401N00511220001CN0060001N9+01001+00221101871ADDAY111999GF104991041021008001001001MW1051
0056065900999991954050518004+49617+006200FM-12+038099999V0202401N00261220001CN0040001N9+01111+00281101981ADDAY111999GF103991031051017501001061KA1999M+01281MW1051
0043065900999991954050600004+49617+006200FM-12+038099999V0202001N00411220001CN0060001N9+00721+00391102051ADDAY111999GF103991031051012501001001MW1051
0056065900999991954050606004+49617+006200FM-12+038099999V0201801N00311002401CN0030001N9+00501+00391101861ADDAY121999GF107991071061002501999999KA1999N+00391MW1051
0043065900999991954050612004+49617+006200FM-12+038099999V0202001N00361001501CN0060001N9+00781+00721101741ADDAY161999GF108991071071001501999999MW1581
0056065900999991954050618004+49617+006200FM-12+038099999V0202901N00411220001CN0200001N9+01221-00501101751ADDAY161999GF102991021011017501001001KA1999M+01391MW1011
0043065900999991954050700004+49617+006200FM-12+038099999V0202701N00261220001CN0160001N9+00501+00001102161ADDAY101999GF100991001001999999001001MW1001
0056065900999991954050706004+49617+006200FM-12+038099999V0203001N00051220001CN0040001N9+00221+00111102331ADDAY101999GF100991001001999999001001KA1999N+00001MW1051
0043065900999991954050712004+49617+006200FM-12+038099999V0201601N00211007801CN0200001N9+01221+00111102221ADDAY111999GF105991051021008001001001MW1021
0075065900999991954050718004+49617+006200FM-12+038099999V0203201N00211220001CN0200001N9+01281-00391102201ADDAY111999GF103991999081017501001001KA1999M+01281MW1011EQDQ01+000012SCOTLC
0043065900999991954050800004+49617+006200FM-12+038099999V0200101N00461220001CN0140001N9+00611-00111102411ADDAY111999GF100991001001999999001001MW1001
0056065900999991954050806004+49617+006200FM-12+038099999V0200101N00571220001CN0080001N9+00611-00111102421ADDAY101999GF100991001001999999001001KA1999N+00391MW1051
0043065900999991954050812004+49617+006200FM-12+038099999V0200701N00511220001CN0200001N9+01391-00501102151ADDAY101999GF101991001001999999001011MW1021
0056065900999991954050818004+49617+006200FM-12+038099999V0200501N005119999999N0200001N9+01501-00281101941ADDAY111999GF105991021051017501031001KA1999M+01611MW1031
0043065900999991954050900004+49617+006200FM-12+038099999V0200601N00311007801CN0160001N9+01001+00111101851ADDAY121999GF108991081051008001999999MW1021
0056065900999991954050906004+49617+006200FM-12+038099999V0200701N00411007801CN0120001N9+01001+00611101821ADDAY121999GF107991071051008001999999KA1999N+00891MW1011
0062065900999991954050912004+49617+006200FM-12+038099999V0200901N00621220001CN0140001N9+01891+00781101541ADDAY121999GF101991999001999999041001MW1031EQDQ01+000002SCOTLC
0056065900999991954050918004+49617+006200FM-12+038099999V0200701N00621220001CN0140001N9+02111+00611101481ADDAY101999GF100991001001999999001001KA1999M+02221MW1001
0043065900999991954051000004+49617+006200FM-12+038099999V0200301N00361220001CN0100001N9+01391+00781101651ADDAY101999GF100991001001999999001001MW1001
0056065900999991954051006004+49617+006200FM-12+038099999V0200201N00461220001CN0080001N9+01281+00891101691ADDAY101999GF100991001001999999001001KA1999N+01221MW1051
0043065900999991954051012004+49617+006200FM-12+038099999V0200901N007719999999N0080001N9+02281+00611101551ADDAY111999GF105991031021012501001061MW1051
0056065900999991954051018004+49617+006200FM-12+038099999V0201001N00151220001CN0090001N9+02281+00781101531ADDAY111999GF104991001001999999031061KA1999M+02501MW1051
0043065900999991954051100004+49617+006200FM-12+038099999V0200301N00311220001CN0100001N9+01611+00891101821ADDAY111999GF106991001001999999031061MW1031
0056065900999991954051106004+49617+006200FM-12+038099999V0200401N00411220001CN0070001N9+01501+00891101831ADDAY111999GF106991001001999999081061KA1999N+01391MW1051
0043065900999991954051112004+49617+006200FM-12+038099999V0200401N00411012301CN0160001N9+02281+00891101671ADDAY111999GF106991061021012501001061MW1031
0056065900999991954051118004+49617+006200FM-12+038099999V0201101N005119999999N0200001N9+01781+01111101751ADDAY191999GF106991041091008001031031KA1999M+02391MW1811
0043065900999991954051200004+49617+006200FM-12+038099999V0200301N00211220001CN0160001N9+01501+00781101911ADDAY181999GF100991001001999999001001MW1001
0056065900999991954051206004+49617+006200FM-12+038099999V0200301N00411220001CN0160001N9+01391+00721102021ADDAY101999GF100991001001999999001001KA1999N+01281MW1001
0043065900999991954051212004+49617+006200FM-12+038099999V0200701N00511220001CN0160001N9+02281+00781101831ADDAY111999GF104991041021012501001001MW1031
0056065900999991954051218004+49617+006200FM-12+038099999V0200401N00211220001CN0200001N9+02281+00611101721ADDAY111999GF101991011021017501001001KA1999M+02501MW1011
0043065900999991954051300004+49617+006200FM-12+038099999V0200401N00411220001CN0160001N9+01611+00391101941ADDAY101999GF102991021051017501001001MW1031
0056065900999991954051306004+49617+006200FM-12+038099999V0200401N005119999999N0120001N9+01281+00111102071ADDAY111999GF105991021051017501031001KA1999N+01221MW1021
0062065900999991954051312004+49617+006200FM-12+038099999V0200701N00461220001CN0200001N9+02111+00501101971ADDAY111999GF102991999001999999031001MW1021EQDQ01+000002SCOTLC
0056065900999991954051318004+49617+006200FM-12+038099999V0200701N00411220001CN0200001N9+02001+00111101871ADDAY111999GF104991011011012501001061KA1999M+02281MW1021
0043065900999991954051400004+49617+006200FM-12+038099999V0200601N00361220001CN0160001N9+01221+00221102091ADDAY111999GF100991001001999999001001MW1011
0056065900999991954051406004+49617+006200FM-12+038099999V0200401N00511220001CN0200001N9+00891-00111102161ADDAY111999GF104991001001999999001061KA1999N+00781MW1021
0043065900999991954051412004+49617+006200FM-12+038099999V0200401N00571220001CN0200001N9+01611-00221101811ADDAY111999GF104991001001999999001061MW1021
0056065900999991954051418004+49617+006200FM-12+038099999V0200401N00461220001CN0200001N9+01611-00281101551ADDAY111999GF106991001001999999001061KA1999M+01891MW1031
0043065900999991954051500004+49617+006200FM-12+038099999V0200301N00511220001CN0200001N9+00891-00501101591ADDAY111999GF104991001001999999001061MW1021
0056065900999991954051506004+49617+006200FM-12+038099999V0200301N00571220001CN0150001N9+00781-00281101481ADDAY111999GF106991001001999999001061KA1999N+00611MW1031
0043065900999991954051512004+49617+006200FM-12+038099999V0200501N00571220001CN0200001N9+01611-00611101161ADDAY121999GF107991001001999999001061MW1031
0056065900999991954051518004+49617+006200FM-12+038099999V0200601N00571220001CN0200001N9+01501-00391100961ADDAY121999GF104991001001999999031061KA1999M+01721MW1011
0043065900999991954051600004+49617+006200FM-12+038099999V0200301N00511220001CN0160001N9+01001-00281100981ADDAY111999GF106991001001999999031999MW1021
0056065900999991954051606004+49617+006200FM-12+038099999V0200201N00721220001CN0200001N9+00781-00391100871ADDAY121999GF107991001001999999031041KA1999N+00721MW1031
0043065900999991954051612004+49617+006200FM-12+038099999V0200401N005719999999N0160001N9+01611-00501100641ADDAY121999GF107991031051017501031061MW1021
0056065900999991954051618004+49617+006200FM-12+038099999V0200301N004619999999N0160001N9+01721-00281100421ADDAY121999GF108991041051017501071999KA1999M+01781MW1021
0043065900999991954051700004+49617+006200FM-12+038099999V0200201N00511015001CN0200001N9+01281+00391100421ADDAY121999GF107991071051017501999999MW1021
0056065900999991954051706004+49617+006200FM-12+038099999V0203601N00511007801CN0040001N9+00891+00721100381ADDAY161999GF108991071051008001999999KA1999N+00891MW1611
0043065900999991954051712004+49617+006200FM-12+038099999V0203601N006219999999N0080001N9+00891+00611100531ADDAY161999GF107991041061004501999999MW1051
0056065900999991954051718004+49617+006200FM-12+038099999V0203601N00511002401CN0030001N9+01001+00611100741ADDAY121999GF108991081051002501999999KA1999M+01111MW1051
0043065900999991954051800004+49617+006200FM-12+038099999V0203401N005719999999N0090001N9+00721+00501101021ADDAY161999GF108991031071002501999999MW1611
0056065900999991954051806004+49617+006200FM-12+038099999V0203401N00621007801CN0160001N9+00501+00111101251ADDAY161999GF108991071051008001999999KA1999N+00501MW1021
0043065900999991954051812004+49617+006200FM-12+038099999V0200201N006719999999N0200001N9+01111+00221101401ADDAY161999GF105991021051017501031001MW1011
0056065900999991954051818004+49617+006200FM-12+038099999V0203501N004119999999N0160001N9+01001+00001101621ADDAY111999GF105991031051012501031001KA1999M+01391MW1031
0043065900999991954051900004+49617+006200FM-12+038099999V0203201N00261012301CN0200001N9+00721+00221101931ADDAY121999GF108991071051012501999999MW1031
0056065900999991954051906004+49617+006200FM-12+038099999V0203101N003119999999N0080001N9+00391+00281102071ADDAY161999GF108991041071001501999999KA1999N+00391MW1501
0043065900999991954051912004+49617+006200FM-12+038099999V0203101N004619999999N0160001N9+00781+00001102041ADDAY181999GF107991041081004501999999MW1031
0056065900999991954051918004+49617+006200FM-12+038099999V0202801N004619999999N0160001N9+00781+00221101991ADDAY181999GF106991011081008001031001KA1999M+01001MW1011
0043065900999991954052000004+49617+006200FM-12+038099999V0202801N002119999999N0150001N9+00611+00221102081ADDAY121999GF107991031081008001999999MW1021
0056065900999991954052006004+49617+006200FM-12+038099999V0202801N002619999999N0120001N9+00391+00221101991ADDAY121999GF107991011081004501999999KA1999N+00281MW1021
0043065900999991954052012004+49617+006200FM-12+038099999V0202601N006219999999N0200001N9+01111+00221101811ADDAY121999GF107991041081004501031999MW1021
0056065900999991954052018004+49617+006200FM-12+038099999V0203001N00361004501CN0150001N9+00781+00391101911ADDAY181999GF108991051081004501999999KA1999M+01221MW1251
0043065900999991954052100004+49617+006200FM-12+038099999V0202701N002119999999N0120001N9+00611+00391101741ADDAY161999GF108991041051008001071999MW1021
0056065900999991954052106004+49617+006200FM-12+038099999V0202901N003619999999N0060001N9+00501+00391101541ADDAY121999GF106991041081004501031999KA1999N+00501MW1051
0043065900999991954052112004+49617+006200FM-12+038099999V0202801N004119999999N0200001N9+00891-00111101531ADDAY181999GF107991041081008001999999MW1251
0056065900999991954052118004+49617+006200FM-12+038099999V0202701N00211012301CN0120001N9+00781+00501101521ADDAY181999GF107991061051012501031999KA1999M+01001MW1021
0043065900999991954052200004+49617+006200FM-12+038099999V0203001N001019999999N0140001N9+00501+00391101541ADDAY181999GF108991041081008001999999MW1031
0056065900999991954052206004+49617+006200FM-12+038099999V0202801N000519999999N0040001N9+00501+00391101461ADDAY181999GF107991021081008001031999KA1999N+00391MW1051
0043065900999991954052212004+49617+006200FM-12+038099999V0201601N002619999999N0100001N9+00781+00221101401ADDAY181999GF107991021031004501031999MW1251
0056065900999991954052218004+49617+006200FM-12+038099999V0202801N00311220001CN0150001N9+01001+00111101361ADDAY181999GF104991021031004501031031KA1999M+01001MW1011
0043065900999991954052300004+49617+006200FM-12+038099999V0203301N001019999999N0060001N9+00501+00391101511ADDAY181999GF108991041081008001999999MW1051
0075065900999991954052306004+49617+006200FM-12+038099999V0201101N00101220001CN0030001N9+00611+00501101411ADDAY181999GF103991999001999999031001KA1999N+00391MW1111EQDQ01+000002SCOTLC
0043065900999991954052312004+49617+006200FM-12+038099999V0201601N004619999999N0160001N9+01281+00221101161ADDAY121999GF106991041021004501031011MW1021
0056065900999991954052318004+49617+006200FM-12+038099999V0200901N00411004501CN0160001N9+01111+00281101181ADDAY181999GF107991051031004501031061KA1999M+01391MW1811
0043065900999991954052400004+49617+006200FM-12+038099999V0200701N000519999999N0060001N9+00611+00611101491ADDAY181999GF107991041081008001999999MW1051
0056065900999991954052406004+49617+006200FM-12+038099999V0202601N00051220001CN0001001N9+00611+00611101671ADDAY141999GF101991011051012501001001KA1999N+00281MW1441
0043065900999991954052412004+49617+006200FM-12+038099999V0202301N00151007801CN0200001N9+01281+00501101691ADDAY141999GF106991051021008001001061MW1021
0056065900999991954052418004+49617+006200FM-12+038099999V0201801N002119999999N0200001N9+01501+00221101761ADDAY121999GF106991011081012501031061KA1999M+01501MW1011
0062065900999991954052500004+49617+006200FM-12+038099999V0201701N00101220001CN0090001N9+00781+00501102051ADDAY111999GF101991999001999999031001MW1051EQDQ01+000002SCOTLC
0056065900999991954052506004+49617+006200FM-12+038099999V0200701N00211220001CN0060001N9+00891+00501102101ADDAY101999GF100991001001999999001001KA1999N+00501MW1051
0043065900999991954052512004+49617+006200FM-12+038099999V0201501N00411220001CN0160001N9+01891+00221101931ADDAY101999GF101991011011012501001011MW1021
0056065900999991954052518004+49617+006200FM-12+038099999V0201501N00361220001CN0200001N9+02001+00221101881ADDAY111999GF103991001001999999081021KA1999M+02221MW1031
0062065900999991954052600004+49617+006200FM-12+038099999V0200601N00101220001CN0200001N9+01391+00391102111ADDAY111999GF101991999001999999081001MW1021EQDQ01+000002SCOTLC
0056065900999991954052606004+49617+006200FM-12+038099999V0200901N00101220001CN0080001N9+01391+00781102231ADDAY111999GF104991001001999999031061KA1999N+01111MW1051
0043065900999991954052612004+49617+006200FM-12+038099999V0201601N00361220001CN0200001N9+02281+00781102131ADDAY111999GF105991001001999999001061MW1021
0056065900999991954052618004+49617+006200FM-12+038099999V0201801N00211220001CN0200001N9+02391+00721101941ADDAY111999GF103991011091017501001031KA1999M+02501MW1011
0043065900999991954052700004+49617+006200FM-12+038099999V0200201N00411220001CN0120001N9+01611+00891102171ADDAY111999GF100991001001999999001001MW1011
0056065900999991954052706004+49617+006200FM-12+038099999V0200401N00211220001CN0160001N9+01501+00891102161ADDAY101999GF100991001001999999001001KA1999N+01281MW1011
0043065900999991954052712004+49617+006200FM-12+038099999V0200101N00151220001CN0200001N9+02611+00501101921ADDAY111999GF103991031011017501001001MW1031
0056065900999991954052718004+49617+006200FM-12+038099999V0202201N00211220001CN0140001N9+02611+00781101711ADDAY111999GF104991031021017501031001KA1999M+02721MW1031
0062065900999991954052800004+49617+006200FM-12+038099999V0200501N00101220001CN0200001N9+01781+00891101871ADDAY111999GF102991999001999999031001MW1021EQDQ01+000002SCOTLC
0056065900999991954052806004+49617+006200FM-12+038099999V0200501N00311220001CN0160001N9+01611+01001101851ADDAY101999GF102991001001999999031061KA1999N+01391MW1021
0043065900999991954052812004+49617+006200FM-12+038099999V0201001N00361220001CN0080001N9+02611+01001101581ADDAY111999GF103991031021012501001011MW1051
0056065900999991954052818004+49617+006200FM-12+038099999V0201001N003619999999N0120001N9+02391+01001101421ADDAY111999GF106991031081012501001061KA1999M+02721MW1021
0043065900999991954052900004+49617+006200FM-12+038099999V0202501N005119999999N0080001N9+01721+01281101681ADDAY121999GF108991041081008001999999MW1051
0056065900999991954052906004+49617+006200FM-12+038099999V0202901N00511002401CN0120001N9+01111+01001101841ADDAY181999GF108991061081002501999999KA1999N+01111MW1211
0043065900999991954052912004+49617+006200FM-12+038099999V0202801N006219999999N0200001N9+01281+00781102031ADDAY181999GF107991031081004501999999MW1021
0056065900999991954052918004+49617+006200FM-12+038099999V0203201N001519999999N0200001N9+01391+00611101911ADDAY121999GF107991011081012501031999KA1999M+01501MW1021
0043065900999991954053000004+49617+006200FM-12+038099999V0203001N00151220001CN0200001N9+00781+00781102001ADDAY181999GF101991011051017501001001MW1011
0056065900999991954053006004+49617+006200FM-12+038099999V0202801N00051220001CN0100001N9+00781+00781101861ADDAY121999GF102991011051017501031001KA1999N+00611MW1021
0043065900999991954053012004+49617+006200FM-12+038099999V0202501N004619999999N0200001N9+01501+00391101581ADDAY111999GF106991041021008001031061MW1021
0056065900999991954053018004+49617+006200FM-12+038099999V0203601N001519999999N0080001N9+01111+01111101581ADDAY181999GF108991021071002501021999KA1999M+01501MW1611
0043065900999991954053100004+49617+006200FM-12+038099999V0202301N00101012301CN0030001N9+00891+00781101421ADDAY161999GF108991071051012501999999MW1051
0056065900999991954053106004+49617+006200FM-12+038099999V0202301N00511002401CN0030001N9+00891+00781101201ADDAY161999GF108991071071002501999999KA1999N+00781MW1631
0043065900999991954053112004+49617+006200FM-12+038099999V0202301N00511001501CN0040001N9+01111+01001101161ADDAY161999GF108991051071001501999999MW1051
0056065900999991954053118004+49617+006200FM-12+038099999V0202701N002119999999N0030001N9+01001+00891101051ADDAY181999GF108991021071002501999999KA1999M+01221MW1611
0043065900999991954060100004+49617+006200FM-12+038099999V0202801N00211001501CN0020001N9+01001+00891101001ADDAY161999GF108991051071001501999999MW1631
0056065900999991954060106004+49617+006200FM-12+038099999V0203001N00211001501CN0050001N9+00891+00891101051ADDAY161999GF108991071071001501999999KA1999N+00891MW1211
0043065900999991954060112004+49617+006200FM-12+038099999V0202801N00461001501CN0060001N9+01001+00891101191ADDAY151999GF108991061071001501999999MW1051
0056065900999991954060118004+49617+006200FM-12+038099999V0202701N00311001501CN0030001N9+01001+00891101301ADDAY181999GF108991081071001501999999KA1999M+01221MW1051
0043065900999991954060200004+49617+006200FM-12+038099999V0202801N002619999999N0030001N9+00891+00891101401ADDAY151999GF108991041061004501999999MW1051
0056065900999991954060206004+49617+006200FM-12+038099999V0202901N00211001501CN0022001N9+00891+00891101451ADDAY121999GF108991071061001501999999KA1999N+00891MW1051
0043065900999991954060212004+49617+006200FM-12+038099999V0203301N002619999999N0090001N9+01111+00891101551ADDAY181999GF108991031071002501999999MW1801
0043065900999991954060218004+49617+006200FM-12+038099999V0202701N001019999999N0040001N9+01221+01001101531ADDAY181999GF107991041021008001031999MW1251
0043065900999991954060300004+49617+006200FM-12+038099999V0203401N00101004501CN0006001N9+01001+01001101741ADDAY181999GF108991081081004501999999MW1461
0056065900999991954060306004+49617+006200FM-12+038099999V0200401N00511001501CN0030001N9+00891+00891101851ADDAY141999GF108991081061001501999999KA1999N+00781MW1281
0043065900999991954060312004+49617+006200FM-12+038099999V0200701N00511220001CN0160001N9+01781+00891101711ADDAY111999GF104991041021008001001001MW1021
0056065900999991954060318004+49617+006200FM-12+038099999V0200501N006219999999N0160001N9+01611+00781101581ADDAY111999GF105991031051017501031001KA1999M+02001MW1031
0043065900999991954060400004+49617+006200FM-12+038099999V0200401N00621220001CN0120001N9+01221+01001101661ADDAY111999GF102991001001999999001051MW1031
0056065900999991954060406004+49617+006200FM-12+038099999V0200401N00821220001CN0070001N9+01111+00891101531ADDAY101999GF102991001001999999001051KA1999N+01001MW1051
0043065900999991954060412004+49617+006200FM-12+038099999V0200501N00721220001CN0160001N9+02001+01111101341ADDAY111999GF104991021021012501041011MW1031
0056065900999991954060418004+49617+006200FM-12+038099999V0200301N00311220001CN0160001N9+01891+01001101291ADDAY191999GF104991011021017501041031KA1999M+02111MW1011
0043065900999991954060500004+49617+006200FM-12+038099999V0200101N00151220001CN0120001N9+01391+01001101461ADDAY111999GF103991021051012501031061MW1011
0056065900999991954060506004+49617+006200FM-12+038099999V0200301N00261007801CN0140001N9+01281+00891101401ADDAY121999GF107991071081008001999999KA1999N+01281MW1031
0043065900999991954060512004+49617+006200FM-12+038099999V0200701N002119999999N0120001N9+01781+01111101241ADDAY161999GF107991021051012501071999MW1211
0056065900999991954060518004+49617+006200FM-12+038099999V0201101N001519999999N0050001N9+01611+01391101091ADDAY181999GF107991041051012501071999KA1999M+01781MW1051
0043065900999991954060600004+49617+006200FM-12+038099999V0203001N00101002401CN0020001N9+01391+01391100971ADDAY191999GF108991081031002501999999MW1821
0056065900999991954060606004+49617+006200FM-12+038099999V0202301N00571001501CN0100001N9+01221+01001101001ADDAY161999GF108991071071001501999999KA1999N+01221MW1211
0043065900999991954060612004+49617+006200FM-12+038099999V0202601N00821004501CN0200001N9+01281+00611101051ADDAY121999GF107991061081004501031999MW1021
0056065900999991954060618004+49617+006200FM-12+038099999V0202601N005119999999N0200001N9+01501+00611100981ADDAY121999GF106991041081008001001061KA1999M+01501MW1011
0043065900999991954060700004+49617+006200FM-12+038099999V0202501N00151220001CN0150001N9+00781+00721101131ADDAY111999GF100991001001999999001001MW1011
0056065900999991954060706004+49617+006200FM-12+038099999V0202401N00211220001CN0200001N9+00891+00721101211ADDAY111999GF101991011001022501031001KA1999N+00611MW1021
0043065900999991954060712004+49617+006200FM-12+038099999V0202201N00461007801CN0200001N9+01501+00501101161ADDAY111999GF106991061081008001001001MW1021
0056065900999991954060718004+49617+006200FM-12+038099999V0201701N00311220001CN0400001N9+01721+00611100881ADDAY111999GF104991031081017501001051KA1999M+01781MW1021
0043065900999991954060800004+49617+006200FM-12+038099999V0201101N001519999999N0160001N9+01111+00721100861ADDAY121999GF106991021051017501031061MW1031
0056065900999991954060806004+49617+006200FM-12+038099999V0201101N004119999999N0140001N9+01221+00781100701ADDAY111999GF106991041051012501031999KA1999N+00891MW1021
0043065900999991954060812004+49617+006200FM-12+038099999V0201501N007219999999N0200001N9+02001+01221100431ADDAY161999GF105991021051017501071001MW1021
0056065900999991954060818004+49617+006200FM-12+038099999V0202701N002119999999N0160001N9+01781+01501100361ADDAY181999GF107991041051008001071999KA1999M+02391MW1601
0043065900999991954060900004+49617+006200FM-12+038099999V0201801N00511220001CN0160001N9+01721+01221100311ADDAY161999GF104991041001022501031001MW1011
0056065900999991954060906004+49617+006200FM-12+038099999V0201601N00311004501CN0140001N9+01111+01111100641ADDAY181999GF107991051081004501031999KA1999N+01111MW1601
