0117065900999991997010100004+49617+006217SY-MT+0379ELLX V0200501N00311999999CN0040001N1-01391-01691101901ADDAA106000091AG10000MA1101291096981MD1810071+9999OA149900411REMSYN017 333 91108 91206;MET005NEW ;EQDQ01+000000PRSWM2
0106065900999991997010101004+49617+006217SY-MT+0379ELLX V0200501N003119999999N0038001N1-01441-01711101851ADDAG10999MA1101291096931MD1810071+9999OA149900461REMSYN017 333 91109 91207;MET005NEW ;EQDQ01+000000PRSWM2
0106065900999991997010102004+49617+006217SY-MT+0379ELLX V0200501N002619999999N0035001N1-01501-01781101871ADDAG10999MA1101291096931MD1610111+9999OA149900461REMSYN017 333 91109 91206;MET005NEW ;EQDQ01+000000PRSWM2
0106065900999991997010103004+49617+006217SY-MT+0379ELLX V0200501N003119999999N0034001N1-01511-01781101871ADDAG10000MA1101291096931MD1610051+9999OA149900461REMSYN017 333 91109 91207;MET005NEW ;EQDQ01+000000PRSWM2
0106065900999991997010104004+49617+006217SY-MT+0379ELLX V0200501N003119999999N0036001N1-01551-01821101881ADDAG10999MA1101291096931MD1410001+9999OA149900461REMSYN017 333 91109 91206;MET005NEW ;EQDQ01+000000PRSWM2
0106065900999991997010105004+49617+006217SY-MT+0379ELLX V0200401N003619999999N0036001N1-01571-01841101881ADDAG10999MA1101291096931MD1410001+9999OA149900511REMSYN017 333 91110 91207;MET005NEW ;EQDQ01+000000PRSWM2
0250065900999991997010106004+49617+006217SY-MT+0379ELLX V0200401N00361220001CN0040001N1-01551-01821101901ADDAA106000091AG10000AJ100099199999999AY101061AY201061GA1021+001509999GF102991021061001501001001IA2999-00909KA1120N-01591MA1101291096951MD1310021+9999MW1101OA149900511REMSYN041 333 21159 3/109 47009 82605 91110 91207;MET008NEW NOSIEQDQ01+000000PRSWM2
0179065900999991997010107004+49617+006217SY-MT+0379ELLX V0200501N00311220001CN0040001N1-01571-01851101951ADDAG10999AY101011AY201011GA1021+001509999GF103991031061001501001001MA1101391097001MD1310071+9999MW1051OA149900571REMSYN023 333 83705 91111 91208;MET008NEW NOSIEQDQ01+000000PRSWM2
0160065900999991997010108004+49617+006217SY-MT+0379ELLX V0200401N00311220001CN0030001N1-01561-01831101991ADDAG10999AY101021AY201021GA1021+001509999GF103991031061001501001001MA1101391097041MD1210111+9999MW1101OA149900461REMSYN023 333 83705 91109 91207;MET008NEW NOSI
0185065900999991997010109004+49617+006217SY-MT+0379ELLX V0200501N00261220001CN0030001N1-01501-01801102041ADDAG10000AY101031AY201031GA1021+030009999GF199999011001999999031001MA1101491097101MD1210151+9999MW1051OA149900571REMSYN029 333 47009 81360 91111 91208;MET008NEW NOSIEQDQ01+000012SCOTCV
0151065900999991997010109504+49617+006217FM-15+0379ELLX V0200501N005710300019N0040001N1-01401-01701102011ADDAG10999GA1021+001509999GA2071+030009999GF107991999999999999999999MA1101491097091REMMET008NEW NOSIEQDQ01+999990APOSP Q02+999990APOSLPQ03+000000PRSWM2
0195065900999991997010111004+49617+006217SY-MT+0379ELLX V0200601N00261030001CN0035001N1-01401-01721102051ADDAG10999AY121021AY221021GA1071+030009999GF199999061001999999031021MA1101491097121MD1010081+9999MW1051OA149900511REMSYN023 333 86360 91110 91207;MET008NEW NOSIEQDQ01+000062SCOTCVQ02+000000PRSWM2
0168065900999991997010111504+49617+006217FM-15+0379ELLX V0200601N005110600019N0030001N1-01301-01601101991ADDAA106000091AG10000GA1021+018009999GA2021+030009999GA3071+060009999GF107991999999999999999999MA1101491097091MW1051REMMET008NEW NOSIEQDQ01+999990APOSP Q02+999990APOSLP
0151065900999991997010112504+49617+006217FM-15+0379ELLX V0200601N004110600019N0040001N1-01201-01601101971ADDAG10999GA1021+030009999GA2071+060009999GF107991999999999999999999MA1101491097091REMMET008NEW NOSIEQDQ01+999990APOSP Q02+999990APOSLPQ03+000000PRSWM2
0151065900999991997010113504+49617+006217FM-15+0379ELLX V0200701N003110600019N0040001N1-01101-01501102061ADDAG10999GA1021+030009999GA2071+060009999GF107991999999999999999999MA1101591097191REMMET008NEW NOSIEQDQ01+999990APOSP Q02+999990APOSLPQ03+000000PRSWM2
0135065900999991997010114504+49617+006217FM-15+0379ELLX V0200301N004110042019N0045001N1-01201-01501102181ADDAG10000GA1071+004209999GF107991999999999999999999MA1101691097291REMMET008NEW NOSIEQDQ01+999990APOSP Q02+999990APOSLPQ03+000000PRSWM2
0179065900999991997010116004+49617+006217SY-MT+0379ELLX V0200601N00151006001CN0050001N1-01221-01541102221ADDAG10999AY121041AY221041GA1071+006009999GF107991071051008001999999MA1101691097321MD1210171+9999MW1051OA149900311REMSYN023 333 87620 91106 91204;MET008NEW NOSIEQDQ01+000000PRSWM2
0201065900999991997010117004+49617+006217SY-MT+0379ELLX V0200601N00211006901CN0040001N1-01251-01551102221ADDAG10999AY121051AY221051GA1021+005109999GA2071+006909999GF107991071051004501999999MA1101691097311MD1010081+9999MW1051OA149900261REMSYN029 333 83617 87623 91105 91204;MET008NEW NOSIEQDQ01+000000PRSWM2
0215065900999991997010118004+49617+006217SY-MT+0379ELLX V0200601N00151007201CN0050001N1-01211-01521102241ADDAA106000091AG10000AY121061AY221061GA1071+007209999GF107991071051008001999999KA1120M-01101MA1101691097341MD1310091+9999MW1051OA149900361REMSYN035 333 11110 47009 87624 91107 91205;MET008NEW NOSIEQDQ01+000000PRSWM2
0201065900999991997010119004+49617+006217SY-MT+0379ELLX V0200601N00211008101CN0050001N1-01221-01511102251ADDAG10999AY121011AY221011GA1021+003609999GA2071+008109999GF107991071051004501999999MA1101801097351MD1310031+9999MW1051OA149900311REMSYN029 333 84612 87627 91106 91204;MET008NEW NOSIEQDQ01+000000PRSWM2
0201065900999991997010120004+49617+006217SY-MT+0379ELLX V0200701N00101004201CN0050001N1-01231-01501102291ADDAG10999AY121021AY221021GA1071+004209999GA2071+015009999GF107991071051004501999999MA1101801097381MD1210071+9999MW1221OA149900211REMSYN029 333 85614 87650 91104 91204;MET008NEW NOSIEQDQ01+000000PRSWM2
0185065900999991997010121004+49617+006217SY-MT+0379ELLX V0200701N00101015001CN0050001N1-01211-01481102331ADDAG10001AY171031AY221031GA1071+015009999GF107991071051017501999999MA1101801097431MD1210091+9999MW1101OA149900311REMSYN029 333 47009 87650 91106 91204;MET008NEW NOSIEQDQ01+000000PRSWM2
0157065900999991997010122004+49617+006217SY-MT+0379ELLX V0200701N00101015001CN0060001N1-01221-01481102351ADDAG10999GA1071+015009999GF107991071051017501999999MA1101901097441MD1210091+9999OA149900151REMSYN023 333 87650 91103 91202;MET008NEW NOSIEQDQ01+000000PRSWM2
0157065900999991997010123004+49617+006217SY-MT+0379ELLX V0209991V00051015001CN0060001N1-01191-01471102361ADDAG10999GA1071+015009999GF107991071051017501999999MA1101901097461MD1210081+9999OA149900151REMSYN023 333 87650 91103 91202;MET008NEW NOSIEQDQ01+000000PRSWM2
0196065900999991997010200004+49617+006217SY-MT+0379ELLX V0200701N00101015001CN0050001N1-01361-01661102421ADDAA106999929AG10001AY171061AY221061GA1071+015009999GF107991071051017501999999MA1101901097481MD1210051+9999MW1101OA149900311REMSYN029 333 47009 87650 91106 91204;MET008NEW NOSIEQDQ01+000000PRSWM2
0106065900999991997010201004+49617+006217SY-MT+0379ELLX V0200701N001519999999N0046001N1-01471-01711102451ADDAG10999MA1101901097491MD1210051+9999OA149900151REMSYN017 333 91103 91203;MET005NEW ;EQDQ01+000000PRSWM2
0106065900999991997010202004+49617+006217SY-MT+0379ELLX V0200601N001519999999N0050001N1-01231-01471102381ADDAG10999MA1101901097471MD1010011+9999OA149900211REMSYN017 333 91104 91203;MET005NEW ;EQDQ01+000000PRSWM2
0185065900999991997010203004+49617+006217SY-MT+0379ELLX V0200701N00101004201CN0045001N1-01241-01501102381ADDAG10000AY121031AY221031GA1071+004209999GF107991071051004501999999MA1101901097471MD1610011+9999MW1101OA149900211REMSYN029 333 47009 87614 91104 91203;MET008NEW NOSIEQDQ01+000000PRSWM2
0179065900999991997010204004+49617+006217SY-MT+0379ELLX V0200701N00101004201CN0045001N1-01241-01501102321ADDAG10999AY121011AY221011GA1071+004209999GF107991071051004501999999MA1101801097411MD1810081+9999MW1101OA149900211REMSYN023 333 87614 91104 91203;MET008NEW NOSIEQDQ01+000000PRSWM2
0201065900999991997010205004+49617+006217SY-MT+0379ELLX V0200701N00101004201CN0045001N1-01221-01481102271ADDAG10999AY121021AY221021GA1071+004209999GA2071+007509999GF107991071051004501999999MA1101801097371MD1810101+9999MW1101OA149900151REMSYN029 333 85614 87625 91103 91202;MET008NEW NOSIEQDQ01+000000PRSWM2
0250065900999991997010206004+49617+006217SY-MT+0379ELLX V0209991V00051006901CN0050001N1-01171-01431102271ADDAA106000091AG10000AJ100099199999999AY121061AY221061GA1071+006909999GF107991071051008001999999IA2999-00709KA1120N-01471MA1101801097381MD1510091+9999MW1101OA149900211REMSYN041 333 21147 3/107 47009 87623 91104 91203;MET008NEW NOSIEQDQ01+000000PRSWM2
0179065900999991997010207004+49617+006217SY-MT+0379ELLX V0200601N00101006901CN0040001N1-01171-01431102241ADDAG10999AY121011AY221011GA1071+006909999GF107991071051008001999999MA1101801097351MD1810061+9999MW1101OA149900101REMSYN023 333 87623 91102 91202;MET008NEW NOSIEQDQ01+000000PRSWM2
0201065900999991997010208004+49617+006217SY-MT+0379ELLX V0200301N00051006901CN0035001N1-01241-01501102261ADDAG10999AY121021AY221021GA1071+006909999GA2071+060009999GF107991051051008001001021MA1101801097351MD1610021+9999MW1101OA149900151REMSYN029 333 85623 86070 91103 91202;MET008NEW NOSIEQDQ01+000000PRSWM2
0185065900999991997010209004+49617+006217SY-MT+0379ELLX V0200501N00051060001CN0030001N1-01251-01511102271ADDAG10000AY121031AY221031GA1071+060009999GF199999001001999999001021MA1101801097361MD1510021+9999MW1101OA149900151REMSYN029 333 47009 86070 91103 91202;MET008NEW NOSIEQDQ01+000062SCOTCV
0179065900999991997010210004+49617+006217SY-MT+0379ELLX V0200401N00151060001CN0030001N1-01111-01471102231ADDAG10999AY121011AY221011GA1071+060009999GF199999001001999999001021MA1101801097351MD1010001+9999MW1051OA149900261REMSYN023 333 86070 91105 91203;MET008NEW NOSIEQDQ01+000062SCOTCV
0179065900999991997010211004+49617+006217SY-MT+0379ELLX V0200601N00151060001CN0030001N1-00871-01341102151ADDAG10999AY121021AY221021GA1071+060009999GF199999001001999999001021MA1101691097321MD1810031+9999MW1051OA149900261REMSYN023 333 86070 91105 91203;MET008NEW NOSIEQDQ01+000062SCOTCV
0196065900999991997010212004+49617+006217SY-MT+0379ELLX V0200701N00211060001CN0030001N1-00841-01331102041ADDAA106000091AG10000AY121061AY221061GA1071+060009999GF199999001001999999001021MA1101591097221MD1710141+9999MW1051OA149900261REMSYN029 333 47009 86070 91105 91204;MET008NEW NOSIEQDQ01+000062SCOTCV
0160065900999991997010213004+49617+006217SY-MT+0379ELLX V0200701N00211220001CN0030001N1-00811-01261101941ADDAG10999AY111011AY211011GA1021+060009999GF102991001001999999001021MA1101491097131MD1710221+9999MW1051OA149900261REMSYN023 333 82070 91105 91204;MET008NEW NOSI
0179065900999991997010214004+49617+006217SY-MT+0379ELLX V0200501N00211220001CN0035001N1-00791-01261101901ADDAG10999AY101021AY201021GA1021+060009999GF102991001001999999001021MA1101491097091MD1710231+9999MW1051OA149900261REMSYN023 333 82070 91105 91204;MET008NEW NOSIEQDQ01+000000PRSWM2
0188065900999991997010215004+49617+006217SY-MT+0379ELLX V0200401N00211220001CN0030001N1-00871-01271101881ADDAG10000AY111031AY211031GA1021+030009999GA2021+060009999GF104991011001999999031021MA1101491097061MD1710161+9999MW1051OA149900311REMSYN035 333 47008 81360 84070 91106 91204;MET008NEW NOSI
0160065900999991997010216004+49617+006217SY-MT+0379ELLX V0200401N00211220001CN0030001N1-00971-01281101841ADDAG10999AY101011AY201011GA1021+060009999GF103991001001999999001021MA1101391097001MD1710131+9999MW1051OA149900311REMSYN023 333 83070 91106 91205;MET008NEW NOSI
0195065900999991997010217004+49617+006217SY-MT+0379ELLX V0200501N00311060001CN0035001N1-01041-01271101831ADDAG10999AY111021AY211021GA1071+060009999GF199999001001999999001021MA1101391096981MD1710111+9999MW1101OA149900411REMSYN023 333 86070 91108 91206;MET008NEW NOSIEQDQ01+000062SCOTCVQ02+000000PRSWM2
0218065900999991997010218004+49617+006217SY-MT+0379ELLX V0200501N00261001501CN0026001N1-01061-01261101771ADDAA106000091AG10000AY111061AY211061GA1071+001509999GA2071+060009999GF107991051061001501001021KA1120M-00791MA1101291096921MD1710141+9999MW1101OA149900411REMSYN041 333 11079 47008 85705 87070 91108 91206;MET008NEW NOSI
0160065900999991997010219004+49617+006217SY-MT+0379ELLX V0200501N00311001201CN0021001N1-01031-01221101721ADDAG10999AY121011AY221011GA1081+001209999GF108991081061001501999999MA1101291096881MD1710121+9999MW1101OA149900461REMSYN023 333 88704 91109 91206;MET008NEW NOSI
0160065900999991997010220004+49617+006217SY-MT+0379ELLX V0200401N00261001501CN0030001N1-01011-01211101661ADDAG10999AY121021AY221021GA1081+001509999GF108991081061001501999999MA1101191096821MD1710161+9999MW1101OA149900411REMSYN023 333 88705 91108 91206;MET008NEW NOSI
0160065900999991997010221004+49617+006217SY-MT+0379ELLX V0200601N00311001501CN0026001N1-00991-01181101531ADDAG10000AY121031AY221031GA1071+001509999GF108991071061001501999999MA1101081096701MD1710221+9999MW1101OA149900461REMSYN023 333 87705 91109 91206;MET008NEW NOSI
0160065900999991997010222004+49617+006217SY-MT+0379ELLX V0200501N00311001501CN0024001N1-00971-01161101451ADDAG10999AY121011AY221011GA1071+001509999GF108991071061001501999999MA1101021096631MD1710251+9999MW1101OA149900511REMSYN023 333 87705 91110 91206;MET008NEW NOSI
0160065900999991997010223004+49617+006217SY-MT+0379ELLX V0200501N00311001501CN0030001N1-00941-01151101401ADDAG10999AY121021AY221021GA1071+001509999GF108991071061001501999999MA1101021096591MD1710231+9999MW1101OA149900461REMSYN023 333 87705 91109 91207;MET008NEW NOSI
0177065900999991997010300004+49617+006217SY-MT+0379ELLX V0200501N00261001501CN0032001N1-00861-01081101341ADDAA106000091AG10000AY121061AY221061GA1071+001509999GF108991071061001501999999MA1100911096551MD1710141+9999MW1101OA149900511REMSYN029 333 47008 87705 91110 91207;MET008NEW NOSI
0106065900999991997010302004+49617+006217SY-MT+0379ELLX V0200601N002619999999N0035001N1-00881-01131101311ADDAG10999MA1100911096511MD1510071+9999OA149900361REMSYN017 333 91107 91206;MET005NEW ;EQDQ01+000000PRSWM2
0200065900999991997010303004+49617+006217SY-MT+0379ELLX V0200501N00211001201CN0025001N1-00891-01141101271ADDAG10001AY171031AY221031GA1071+001209999GA2081+030009999GF108991051071001501021999MA1100811096471MD1810081+9999MW1101MW2701MW3711OA149900411REMSYN035 333 47008 85704 88460 91108 91206;MET008NEW NOSI
0199065900999991997010304004+49617+006217SY-MT+0379ELLX V0200501N00151030001CN0012001N1-00881-01101101231ADDAG10999AY171011AY271011ED199U20009GA1021+000909999GA2071+030009999GF108991041071000751021999MA1100811096441MD1810061+9999MW1101MW2731OA149900261REMSYN029 333 84703 88460 91105 91204;MET008NEW NOSI
0168065900999991997010305204+49617+006217FM-15+0379ELLX V0200601N003610300019N0012001N1-00901-01001101231ADDAG10999ED199U20009GA1021+000909999GA2081+030009999GF108991999999999999999999MA1100811096441MW1101MW2711REMMET018NEW NOSIG06490229;EQDQ01+999990APOSP Q02+999990APOSLP
0310065900999991997010306004+49617+006217SY-MT+0379ELLX V0200501N00211030001CN0010001N1-00851-01041101181ADDAA106999999AA299002091AG10001AJ100109199999999AY171061AY221061ED199U20009GA1021+000909999GA2071+030009999GF108991041071000751021999IA2999-01109KA1120N-01071MA1100811096401MD1510071+9999MW1101MW2711OA149900411REMSYN047 333 21107 3/111 47010 84703 88460 91108 91206;MET018NEW NOSIG06490327;EQDQ01  00002PRCP06
0199065900999991997010307004+49617+006217SY-MT+0379ELLX V0200401N00211030001CN0018001N1-00841-01031101151ADDAG10999AY171011AY271011GA1021+000909999GA2081+030009999GF108991041071000751021999MA1100711096371MD1810071+9999MW1101MW2711OA149900311REMSYN029 333 84703 88460 91106 91204;MET019NEW NOSIG 06492019;
0199065900999991997010308004+49617+006217SY-MT+0379ELLX V0200601N00211006001CN0022001N1-00811-00991101191ADDAG10999AY171021AY271021GA1071+006009999GA2081+030009999GF108991051051008001021999MA1100811096411MD1310031+9999MW1101MW2711OA149900361REMSYN029 333 85620 88460 91107 91205;MET019NEW NOSIG 06492219;
0205065900999991997010309004+49617+006217SY-MT+0379ELLX V0200501N00211004501CN0030001N1-00771-00961101151ADDAG10001AY171031AY221031GA1071+004509999GA2081+030009999GF108991061051004501021999MA1100811096381MD1810021+9999MW1101MW2221OA149900361REMSYN035 333 47011 86616 88460 91107 91205;MET019NEW NOSIG 06490156;
0190065900999991997010310004+49617+006217SY-MT+0379ELLX V0200601N00211004201CN0035001N1-00731-00951101131ADDAG10999AY121011AY221011GA1071+004209999GF108991071051004501999999MA1100711096371MD1010001+9999MW1101OA149900311REMSYN023 333 87614 91106 91205;MET019NEW NOSIG 06490156;EQDQ01+000000PRSWM2
0152065900999991997010314204+49617+006217FM-15+0379ELLX V0200501N003610300019N0030001N1-00601-00801100971ADDAG10999GA1021+003009999GA2081+030009999GF108991999999999999999999MA1100611096241MW1101REMMET019NEW NOSIG 06710069;EQDQ01+999990APOSP Q02+999990APOSLP
0137065900999991997010314504+49617+006217FM-15+0379ELLX V0200601N003610030019N0030001N1-00601-00801100971ADDAG10000GA1081+003009999GF108991999999999999999999MA1100611096241MW1101REMMET020NEW NOSIG 067100 69;EQDQ01+999990APOSP Q02+999990APOSLP
0188065900999991997010316004+49617+006217SY-MT+0379ELLX V0200501N00211001201CN0025001N1-00651-00831100901ADDAG10999AY121999AY221999GA1071+001209999GA2081+002409999GF108991081061001501999999MA1100511096161MD1810081+9999MW1101MW2241OA149900311REMSYN029 333 85704 88708 91106 91204;MET008NEW NOSI
0160065900999991997010317004+49617+006217SY-MT+0379ELLX V0200601N00211000901CN0022001N1-00661-00811100811ADDAG10999AY121999AY221999GA1071+000909999GF108991081061000751999999MA1100411096081MD1810111+9999MW1101OA149900361REMSYN023 333 87703 91107 91205;MET008NEW NOSI
0207065900999991997010318004+49617+006217SY-MT+0379ELLX V0200601N00211000901CN0018001N1-00651-00791100781ADDAA106000091AA299001091AG10001AY171061AY251061GA1071+000909999GF108991081061000751999999KA1120M-00601MA1100411096051MD1710161+9999MW1101OA149900361REMSYN035 333 11060 47011 87703 91107 91205;MET008NEW NOSI
0179065900999991997010319004+49617+006217SY-MT+0379ELLX V0200601N00211000901CN0015001N1-00651-00771100771ADDAG10999AY121011AY221011GA1071+000909999GF108991081061999999999999MA1100411096041MD1710121+9999MW1101OA149900311REMSYN023 333 88/// 91106 91204;MET008NEW NOSIEQDQ01+000000PRSWM2
0171065900999991997010320004+49617+006217SY-MT+0379ELLX V0200701N00211000901CN0012001N1-00611-00731100751ADDAG10999AY121021AY221021ED199U20009GA1071+000909999GF108991081061000751999999MA1100411096031MD1710051+9999MW1101OA149900261REMSYN023 333 87703 91105 91204;MET008NEW NOSI
0166065900999991997010321004+49617+006217SY-MT+0379ELLX V0200501N00151000901CN0025001N1-00611-00751100691ADDAG10000AY121031AY221031GA1071+000909999GF108991071061000751999999MA1100311095971MD1710081+9999MW1101OA149900311REMSYN029 333 47011 87703 91106 91204;MET008NEW NOSI
0160065900999991997010322004+49617+006217SY-MT+0379ELLX V0200501N00211001201CN0025001N1-00591-00731100581ADDAG10999AY121011AY221011GA1071+001209999GF108991071061001501999999MA1100201095871MD1710171+9999MW1101OA149900361REMSYN023 333 87704 91107 91205;MET008NEW NOSI
0176065900999991997010323004+49617+006217SY-MT+0379ELLX V0200401N00261015001CN0025001N1-00581-00751100501ADDAG10999AY121021AY221021GA1021+000909999GA2071+015009999GF108991071061001501999999MA1100101095791MD1710241+9999MW1101OA149900411REMSYN023 333 87704 91108 91206;MET008NEW NOSI
0199065900999991997010400004+49617+006217SY-MT+0379ELLX V0200401N00211015001CN0030001N1-00611-00791100441ADDAA106000091AG10000AY121061AY221061GA1021+001509999GA2071+015009999GF108991071051001501999999MA1100101095731MD1710241+9999MW1101OA149900411REMSYN035 333 47011 84705 87650 91108 91206;MET008NEW NOSI
0106065900999991997010401004+49617+006217SY-MT+0379ELLX V0200301N001519999999N0031001N1-00641-00841100421ADDAG10999MA1100001095711MD1710161+9999OA149900411REMSYN017 333 91108 91205;MET005NEW ;EQDQ01+000000PRSWM2
0106065900999991997010402004+49617+006217SY-MT+0379ELLX V0200401N002619999999N0030001N1-00651-00851100351ADDAG10999MA1100001095641MD1710151+9999OA149900411REMSYN017 333 91108 91205;MET005NEW ;EQDQ01+000000PRSWM2
0185065900999991997010403004+49617+006217SY-MT+0379ELLX V0200501N00361015001CN0035001N1-00661-00871100301ADDAG10000AY121031AY221031GA1071+015009999GF107991071051017501999999MA1099901095591MD1710141+9999MW1101OA149900511REMSYN029 333 47011 87650 91110 91207;MET008NEW NOSIEQDQ01+000000PRSWM2
0201065900999991997010404004+49617+006217SY-MT+0379ELLX V0200501N00211015001CN0035001N1-00661-00891100321ADDAG10999AY121011AY221011GA1021+002109999GA2071+015009999GF107991071051002501999999MA1100001095611MD1510101+9999MW1101OA149900511REMSYN029 333 84707 87650 91110 91208;MET008NEW NOSIEQDQ01+000000PRSWM2
0195065900999991997010405004+49617+006217SY-MT+0379ELLX V0200601N00151002101CN0039001N1-00701-00911100301ADDAG10999AY121021AY221021GA1071+002109999GF199999061061002501001021MA1099901095581MD1810061+9999MW1101OA149900361REMSYN023 333 86707 91107 91205;MET008NEW NOSIEQDQ01+000062SCOTCVQ02+000000PRSWM2
0250065900999991997010406004+49617+006217SY-MT+0379ELLX V0200601N00211002101CN0038001N1-00701-00911100321ADDAA106000091AG10000AJ100119199999999AY121061AY221061GA1071+002109999GF107991071061002501999999IA2999-00509KA1120N-00711MA1099901095601MD1310011+9999MW1101OA149900511REMSYN041 333 21071 3/105 47011 87707 91110 91208;MET008NEW NOSIEQDQ01+000000PRSWM2
0160065900999991997010407004+49617+006217SY-MT+0379ELLX V0200601N00211001801CN0030001N1-00691-00901100351ADDAG10999AY121011AY221011GA1071+001809999GF107991071061001501999999MA1100001095631MD1310021+9999MW1101OA149900311REMSYN023 333 87706 91106 91204;MET008NEW NOSI
0176065900999991997010408004+49617+006217SY-MT+0379ELLX V0200701N00211002101CN0030001N1-00691-00881100421ADDAG10999AY121021AY221021GA1071+002109999GA2071+003309999GF107991071071002501999999MA1100001095701MD1210121+9999MW1101OA149900311REMSYN023 333 87707 91106 91204;MET008NEW NOSI
0188065900999991997010409004+49617+006217SY-MT+0379ELLX V0200401N00151001501CN0030001N1-00651-00851100421ADDAG10000AY121031AY221031GA1071+001509999GA2071+003309999GF108991081051001501999999MA1100101095711MD1210111+9999MW1101OA149900311REMSYN035 333 47011 86705 87611 91106 91204;MET008NEW NOSI
0201065900999991997010410004+49617+006217SY-MT+0379ELLX V0200501N00261001501CN0035001N1-00611-00821100421ADDAG10999AY121011AY221011GA1071+001509999GA2071+003309999GF108991081051001501999999MA1100101095711MD1110081+9999MW1101OA149900311REMSYN029 333 86705 87611 91106 91205;MET008NEW NOSIEQDQ01+000000PRSWM2
0179065900999991997010411004+49617+006217SY-MT+0379ELLX V0200401N00211001801CN0035001N1-00551-00781100381ADDAG10999AY121021AY221021GA1071+001809999GF108991071061001501999999MA1100001095691MD1810011+9999MW1101OA149900411REMSYN023 333 87706 91108 91205;MET008NEW NOSIEQDQ01+000000PRSWM2
0196065900999991997010412004+49617+006217SY-MT+0379ELLX V0200401N00261002101CN0035001N1-00531-00771100351ADDAA106000091AG10000AY121061AY221061GA1071+002109999GF108991071061002501999999MA1100001095661MD1810051+9999MW1101OA149900411REMSYN029 333 47011 87707 91108 91205;MET008NEW NOSIEQDQ01+000000PRSWM2
0179065900999991997010413004+49617+006217SY-MT+0379ELLX V0200601N00311002101CN0035001N1-00491-00731100341ADDAG10999AY121011AY221011GA1081+002109999GF108991081061002501999999MA1100001095661MD1610051+9999MW1101OA149900411REMSYN023 333 88707 91108 91206;MET008NEW NOSIEQDQ01+000000PRSWM2
0160065900999991997010414004+49617+006217SY-MT+0379ELLX V0200401N00211002101CN0035001N1-00481-00691100341ADDAG10999AY121021AY221021GA1081+002109999GF108991081061002501999999MA1100001095661MD1610031+9999MW1101OA149900361REMSYN023 333 88707 91107 91206;MET008NEW NOSI
0166065900999991997010415004+49617+006217SY-MT+0379ELLX V0200601N00211001801CN0030001N1-00481-00681100411ADDAG10000AY121031AY221031GA1081+001809999GF108991081061001501999999MA1100101095731MD1310071+9999MW1101OA149900411REMSYN029 333 47011 88706 91108 91206;MET008NEW NOSI
0160065900999991997010416004+49617+006217SY-MT+0379ELLX V0200501N00211000901CN0030001N1-00491-00641100441ADDAG10999AY121011AY221011GA1081+000909999GF108991081061000751999999MA1100101095751MD1310091+9999MW1101OA149900411REMSYN023 333 88703 91108 91204;MET008NEW NOSI
0182065900999991997010417004+49617+006217SY-MT+0379ELLX V0200401N00211000301CN0020001N1-00521-00641100481ADDAG10999AY121021AY221021GA1071+000309999GA2081+000909999GF108991081061000251999999MA1100101095791MD1210131+9999MW1101OA149900311REMSYN029 333 85701 88703 91106 91205;MET008NEW NOSI
0260065900999991997010418004+49617+006217SY-MT+0379ELLX V0200401N00211000601CN0018001N1-00511-00631100481ADDAA106999999AA299999929AG10000AY121061AY221061GA1071+000609999GA2081+000909999GF108991081061000751999999KA1120M-00461MA1100101095791MD1110061+9999MW1101MW2701MW3711OA149900411REMSYN041 333 11046 47011 86702 88703 91108 91206;MET008NEW NOSIEQDQ01  00002PRCP06
0188065900999991997010419004+49617+006217SY-MT+0379ELLX V0200501N00211000301CN0018001N1-00511-00631100521ADDAG10999AY121011AY221011GA1071+000309999GA2081+000909999GF108991081061000251999999MA1100201095831MD1310081+9999MW1101MW2221OA149900311REMSYN029 333 86701 88703 91106 91204;MET008NEW NOSI
0182065900999991997010420004+49617+006217SY-MT+0379ELLX V0200501N00211000301CN0016001N1-00501-00621100581ADDAG10999AY121021AY221021GA1071+000309999GA2071+000909999GF108991081061000251999999MA1100201095881MD1310091+9999MW1101OA149900311REMSYN029 333 85701 88703 91106 91204;MET008NEW NOSI
0188065900999991997010421004+49617+006217SY-MT+0379ELLX V0200501N00151000601CN0017001N1-00491-00611100621ADDAG10000AY121031AY221031GA1071+000609999GA2071+001209999GF108991081061000751999999MA1100311095921MD1210131+9999MW1101OA149900311REMSYN035 333 47011 85702 88704 91106 91204;MET008NEW NOSI
0160065900999991997010422004+49617+006217SY-MT+0379ELLX V0200501N00151000901CN0021001N1-00481-00601100661ADDAG10999AY121011AY221011GA1071+000909999GF108991071061000751999999MA1100311095961MD1210131+9999MW1101OA149900261REMSYN023 333 87703 91105 91204;MET008NEW NOSI
0160065900999991997010423004+49617+006217SY-MT+0379ELLX V0200501N00151000901CN0024001N1-00471-00611100721ADDAG10999AY121021AY221021GA1071+000909999GF108991071061000751999999MA1100411096021MD1210141+9999MW1101OA149900261REMSYN023 333 87703 91105 91204;MET008NEW NOSI
0177065900999991997010500004+49617+006217SY-MT+0379ELLX V0200601N00101000901CN0022001N1-00471-00611100731ADDAA106999929AG10001AY171061AY221061GA1071+000909999GF108991071061000751999999MA1100411096031MD1210111+9999MW1101OA149900311REMSYN029 333 47011 87703 91106 91204;MET008NEW NOSI
0106065900999991997010501004+49617+006217SY-MT+0379ELLX V0200701N002119999999N0019001N1-00481-00621100761ADDAG10999MA1100411096061MD1210101+9999OA149900261REMSYN017 333 91105 91204;MET005NEW ;EQDQ01+000000PRSWM2
0106065900999991997010502004+49617+006217SY-MT+0379ELLX V0200701N001019999999N0018001N1-00501-00641100821ADDAG10999MA1100511096111MD1210091+9999OA149900261REMSYN017 333 91105 91204;MET005NEW ;EQDQ01+000000PRSWM2
0172065900999991997010503004+49617+006217SY-MT+0379ELLX V0200601N00101000901CN0016001N1-00491-00631100851ADDAG10001AY171031AY221031GA1071+000909999GF108991071071000751999999MA1100511096141MD1210111+9999MW1101MW2711OA149900261REMSYN029 333 47011 87703 91105 91204;MET008NEW NOSI
0166065900999991997010504004+49617+006217SY-MT+0379ELLX V0200601N00211000601CN0016001N1-00481-00621100911ADDAG10999AY171011AY271011GA1071+000609999GF108991071071000751999999MA1100611096201MD1210141+9999MW1101MW2711OA149900261REMSYN023 333 87702 91105 91204;MET008NEW NOSI
0188065900999991997010505004+49617+006217SY-MT+0379ELLX V0200601N00101000901CN0011001N1-00491-00631100921ADDAG10999AY171021AY271021ED199U20009GA1071+000909999GF108991071071000751999999MA1100611096211MD1210101+9999MW1101MW2711OA149900261REMSYN023 333 87703 91105 91204;MET019NEW NOSIG 06490543;
0300065900999991997010506004+49617+006217SY-MT+0379ELLX V0200601N00151000901CN0017001N1-00481-00621100981ADDAA106999999AA299002091AG10001AJ100139199999999AY171061AY221061GA1071+000909999GA2081+003009999GF108991081071000751999999IA2999-00509KA1120N-00531MA1100611096271MD1210131+9999MW1101MW2711OA149900261REMSYN047 333 21053 3/105 47013 86703 87710 91105 91204;MET019NEW NOSIG 06491035;EQDQ01  00002PRCP06
0188065900999991997010507004+49617+006217SY-MT+0379ELLX V0200601N00151001201CN0022001N1-00501-00641101031ADDAG10999AY171011AY271011GA1071+001209999GA2071+003609999GF108991081071001501999999MA1100711096311MD1210111+9999MW1101MW2711OA149900211REMSYN029 333 85704 87615 91104 91203;MET008NEW NOSI
0195065900999991997010508004+49617+006217SY-MT+0379ELLX V0200701N00151000901CN0025001N1-00521-00661101111ADDAG10999AY121021AY221021GA1071+000909999GA2071+003609999GF108991081051000751999999MA1100811096391MD1210181+9999MW1101MW2221OA149900261REMSYN029 333 86703 87612 91105 91204;MET015NEW RESN NOSIG;
0188065900999991997010509004+49617+006217SY-MT+0379ELLX V0200701N00151000901CN0030001N1-00541-00711101211ADDAG10001AY171031AY221031GA1071+000909999GA2071+002709999GF108991081051001501999999MA1100911096481MD1210211+9999MW1101OA149900261REMSYN035 333 47014 86704 87611 91105 91204;MET008NEW NOSI
0201065900999991997010510004+49617+006217SY-MT+0379ELLX V0200701N00051002101CN0035001N1-00521-00691101281ADDAG10999AY121011AY221011GA1021+001209999GA2071+002109999GF108991081071001501999999MA1100911096551MD1210241+9999MW1101OA149900211REMSYN029 333 84704 87709 91104 91203;MET008NEW NOSIEQDQ01+000000PRSWM2
0179065900999991997010511004+49617+006217SY-MT+0379ELLX V0200601N00101001501CN0035001N1-00471-00651101311ADDAG10999AY121021AY221021GA1081+001509999GF108991081071001501999999MA1101021096591MD1210201+9999MW1101OA149900151REMSYN023 333 88705 91103 91202;MET008NEW NOSIEQDQ01+000000PRSWM2
0196065900999991997010512004+49617+006217SY-MT+0379ELLX V0200701N00051001501CN0045001N1-00471-00651101311ADDAA106000191AG10001AY171061AY221061GA1081+001509999GF108991081061001501999999MA1101021096591MD1110111+9999MW1021OA149900261REMSYN029 333 47014 88705 91105 91204;MET008NEW NOSIEQDQ01+000000PRSWM2
0179065900999991997010513004+49617+006217SY-MT+0379ELLX V0200601N00101001501CN0035001N1-00441-00651101311ADDAG10999AY121011AY221011GA1081+001509999GF108991081061001501999999MA1101021096591MD1110041+9999MW1101OA149900151REMSYN023 333 88705 91103 91202;MET008NEW NOSIEQDQ01+000000PRSWM2
0160065900999991997010514004+49617+006217SY-MT+0379ELLX V0200701N00051001201CN0030001N1-00451-00631101341ADDAG10999AY121021AY221021GA1081+001209999GF108991081061001501999999MA1101021096621MD1310031+9999MW1101OA149900151REMSYN023 333 88704 91103 91202;MET008NEW NOSI
0166065900999991997010515004+49617+006217SY-MT+0379ELLX V0200601N00051001201CN0028001N1-00431-00611101401ADDAG10000AY121031AY221031GA1081+001209999GF108991081061001501999999MA1101081096681MD1310091+9999MW1101OA149900151REMSYN029 333 47014 88704 91103 91202;MET008NEW NOSI
0160065900999991997010516004+49617+006217SY-MT+0379ELLX V0200401N00151001501CN0030001N1-00451-00651101491ADDAG10999AY121011AY221011GA1081+001509999GF108991081061001501999999MA1101081096761MD1210171+9999MW1101OA149900211REMSYN023 333 88705 91104 91203;MET008NEW NOSI
0172065900999991997010517004+49617+006217SY-MT+0379ELLX V0200601N00101001501CN0030001N1-00471-00651101551ADDAG10999AY121021AY221021GA1081+001509999GF108991081061001501999999MA1101191096811MD1210191+9999MW1101MW2701MW3711OA149900211REMSYN023 333 88705 91104 91203;MET008NEW NOSI
0254065900999991997010518004+49617+006217SY-MT+0379ELLX V0200701N00101002401CN0030001N1-00471-00641101591ADDAA106999999AA299000191AG10000AY121061AY221061GA1071+002409999GA2081+015009999GF108991081051002501999999KA1120M-00411MA1101191096851MD1210171+9999MW1101MW2221OA149900211REMSYN041 333 11041 47014 85708 88650 91104 91203;MET008NEW NOSIEQDQ01  00002PRCP06
0201065900999991997010519004+49617+006217SY-MT+0379ELLX V0200601N00051002401CN0035001N1-00461-00661101631ADDAG10999AY121011AY221011GA1071+002409999GA2071+004209999GF108991081051002501999999MA1101291096891MD1210131+9999MW1101OA149900151REMSYN029 333 85708 87614 91103 91202;MET008NEW NOSIEQDQ01+000000PRSWM2
0179065900999991997010520004+49617+006217SY-MT+0379ELLX V0209991C00001003001CN0040001N1-00481-00691101641ADDAG10999AY121021AY221021GA1071+003009999GF108991081051004501999999MA1101291096901MD1210091+9999MW1101OA149900101REMSYN023 333 87610 91102 91202;MET008NEW NOSIEQDQ01+000000PRSWM2
0185065900999991997010521004+49617+006217SY-MT+0379ELLX V0200401N00101002701CN0042001N1-00471-00671101701ADDAG10000AY121031AY221031GA1071+002709999GF108991071061002501999999MA1101391096961MD1210111+9999MW1101OA149900151REMSYN029 333 47014 87709 91103 91202;MET008NEW NOSIEQDQ01+000000PRSWM2
0190065900999991997010522004+49617+006217SY-MT+0379ELLX V0200501N00101002401CN0035001N1-00481-00661101741ADDAG10999AY121011AY221011GA1071+002409999GF108991071061002501999999MA1101391096991MD1210101+9999MW1101OA149900211REMSYN023 333 87708 91104 91203;MET019NEW NOSIG 0629//84;EQDQ01+000000PRSWM2
0172065900999991997010523004+49617+006217SY-MT+0379ELLX V0200601N00151002401CN0031001N1-00521-00701101811ADDAG10999AY121021AY221021GA1071+002409999GF108991071061002501999999MA1101391097051MD1210151+9999MW1101OA149900211REMSYN023 333 87708 91104 91203;MET020NEW NOSIG 0629// 84;
0177065900999991997010600004+49617+006217SY-MT+0379ELLX V0200201N00051001801CN0033001N1-00571-00741101831ADDAA106000091AG10000AY121061AY221061GA1071+001809999GF108991071061001501999999MA1101491097061MD1210101+9999MW1101OA149900211REMSYN029 333 47014 87706 91104 91203;MET008NEW NOSI
0106065900999991997010601004+49617+006217SY-MT+0379ELLX V0200501N001519999999N0033001N1-00601-00781101841ADDAG10999MA1101491097071MD1210081+9999OA149900261REMSYN017 333 91105 91203;MET005NEW ;EQDQ01+000000PRSWM2
0106065900999991997010602004+49617+006217SY-MT+0379ELLX V0200501N001519999999N0022001N1-00641-00811101861ADDAG10999MA1101491097081MD1210031+9999OA149900261REMSYN017 333 91105 91204;MET005NEW ;EQDQ01+000000PRSWM2
0177065900999991997010603004+49617+006217SY-MT+0379ELLX V0200501N00211000901CN0014001N1-00681-00831101891ADDAG10000AY121031AY221031ED199U20009GA1071+000909999GF108991071061000751999999MA1101491097101MD1210041+9999MW1101OA149900261REMSYN029 333 47014 87703 91105 91204;MET008NEW NOSI
0171065900999991997010604004+49617+006217SY-MT+0379ELLX V0200301N00151000601CN0011001N1-00701-00821101911ADDAG10999AY121011AY221011ED199U19009GA1071+000609999GF108991071061000751999999MA1101491097121MD1210051+9999MW1101OA149900261REMSYN023 333 87702 91105 91204;MET008NEW NOSI
0193065900999991997010605004+49617+006217SY-MT+0379ELLX V0200301N00151000601CN0007001N1-00721-00721101931ADDAG10999AY141021AY221021ED199U20009GA1021+000309999GA2071+000609999GF108991071061000251999999MA1101491097131MD1210051+9999MW1481OA149900261REMSYN029 333 83701 87702 91105 91204;MET008NEW NOSI
0264065900999991997010606004+49617+006217SY-MT+0379ELLX V0200601N00101000601CN0003001N1-00701-00701101921ADDAA106000091AG10000AJ100149199999999AY141061AY221061ED199U14009GA1021+000309999GA2071+000609999GF108991071061000251999999IA2999-00609KA1120N-00731MA1101491097131MD1110031+9999MW1481OA149900261REMSYN047 333 21073 3/106 47014 84701 87702 91105 91204;MET008NEW NOSI
0171065900999991997010607004+49617+006217SY-MT+0379ELLX V0200501N00101000601CN0005001N1-00651-00661101951ADDAG10999AY141011AY241011ED199U14009GA1071+000609999GF108991071061000751999999MA1101591097161MD1310041+9999MW1481OA149900151REMSYN023 333 87702 91103 91202;MET008NEW NOSI
0171065900999991997010608004+49617+006217SY-MT+0379ELLX V0200601N00151000601CN0005001N1-00651-00661101981ADDAG10999AY141021AY241021ED199U16009GA1071+000609999GF108991071061000751999999MA1101591097191MD1310061+9999MW1481OA149900211REMSYN023 333 87702 91104 91203;MET008NEW NOSI
0199065900999991997010609004+49617+006217SY-MT+0379ELLX V0200701N00101000601CN0004001N1-00671-00681102021ADDAG10000AY141031AY241031ED199U17009GA1021+000309999GA2071+000609999GF108991081061000251999999MA1101591097231MD1210101+9999MW1481OA149900211REMSYN035 333 47014 84701 87702 91104 91203;MET008NEW NOSI
0193065900999991997010610004+49617+006217SY-MT+0379ELLX V0200701N00101000601CN0003001N1-00661-00671102051ADDAG10999AY141011AY241011ED199U06509GA1021+000309999GA2071+000609999GF108991081061000251999999MA1101691097261MD1210101+9999MW1481OA149900211REMSYN029 333 84701 87702 91104 91203;MET008NEW NOSI
0200065900999991997010611004+49617+006217SY-MT+0379ELLX V0200401N00051000601CN0002001N1-00621-00631102021ADDAG10999AY141021AY241021ED199U07009GA1021+000309999GA2071+000609999GF108991081061000251999999MA1101591097241MD1010051+9999MW1481OA149900151REMSYN029 333 84701 87702 91103 91202;MET015NEW BECMG 0500;
0169065900999991997010611504+49617+006217FM-15+0379ELLX V0200401N001510009019N0015001N1-00601-00601101961ADDAA106999999AG10000GA1071+000909999GF107991999999999999999999MA1101591097191MW1101MW2771REMMET019NEW BECMG 1500BKN00EQDQ01+999990APOSP Q02+999990APOSLPQ03  00002PRCP06
0201065900999991997010613004+49617+006217SY-MT+0379ELLX V0200401N00051001801CN0040001N1-00501-00641101931ADDAG10999AY121041AY221041GA1071+001809999GA2071+004509999GF108991071051001501999999MA1101591097171MD1710091+9999MW1101OA149900151REMSYN029 333 85706 87615 91103 91202;MET008NEW NOSIEQDQ01+000000PRSWM2
0157065900999991997010614004+49617+006217SY-MT+0379ELLX V0200701N00101003601CN0100001N1-00521-00671101921ADDAG10999GA1071+003609999GF108991071051004501999999MA1101591097161MD1710081+9999OA149900211REMSYN023 333 87612 91104 91202;MET008NEW NOSIEQDQ01+000000PRSWM2
0163065900999991997010615004+49617+006217SY-MT+0379ELLX V0200801N00101003601CN0070001N1-00511-00771101941ADDAG10000GA1071+003609999GF108991071051004501999999MA1101591097181MD1510021+9999OA149900211REMSYN029 333 47014 87612 91104 91203;MET008NEW NOSIEQDQ01+000000PRSWM2
0157065900999991997010616004+49617+006217SY-MT+0379ELLX V0200601N00151003601CN0080001N1-00521-00811101981ADDAG10999GA1071+003609999GF108991071051004501999999MA1101591097221MD1310051+9999OA149900261REMSYN023 333 87612 91105 91203;MET008NEW NOSIEQDQ01+000000PRSWM2
0157065900999991997010617004+49617+006217SY-MT+0379ELLX V0200601N00211003601CN0080001N1-00551-00821101981ADDAG10999GA1071+003609999GF108991071051004501999999MA1101591097211MD1010051+9999OA149900261REMSYN023 333 87612 91105 91204;MET008NEW NOSIEQDQ01+000000PRSWM2
0193065900999991997010618004+49617+006217SY-MT+0379ELLX V0200601N00211003601CN0100001N1-00571-00861102001ADDAA106000091AG10000GA1071+003609999GF108991071051004501999999KA1120M-00471MA1101591097231MD1310051+9999OA149900311REMSYN035 333 11047 47014 87612 91106 91204;MET008NEW NOSIEQDQ01+000000PRSWM2
0157065900999991997010619004+49617+006217SY-MT+0379ELLX V0200401N00211003601CN0100001N1-00651-00911102051ADDAG10999GA1071+003609999GF108991071051004501999999MA1101691097261MD1310041+9999OA149900361REMSYN023 333 87612 91107 91205;MET008NEW NOSIEQDQ01+000000PRSWM2
0157065900999991997010620004+49617+006217SY-MT+0379ELLX V0200401N00211003601CN0100001N1-00711-00961102081ADDAG10999GA1071+003609999GF108991071051004501999999MA1101691097281MD1210071+9999OA149900311REMSYN023 333 87612 91106 91204;MET008NEW NOSIEQDQ01+000000PRSWM2
0163065900999991997010621004+49617+006217SY-MT+0379ELLX V0200401N00151003601CN0120001N1-00761-01031102101ADDAG10000GA1071+003609999GF108991081051004501999999MA1101691097291MD1110051+9999OA149900361REMSYN029 333 47014 87612 91107 91205;MET008NEW NOSIEQDQ01+000000PRSWM2
0157065900999991997010622004+49617+006217SY-MT+0379ELLX V0200501N00151002401CN0120001N1-00781-01051102101ADDAG10999GA1071+002409999GF108991081061002501999999MA1101691097281MD1010011+9999OA149900311REMSYN023 333 87708 91106 91204;MET008NEW NOSIEQDQ01+000000PRSWM2
0157065900999991997010623004+49617+006217SY-MT+0379ELLX V0200501N00151002401CN0150001N1-00771-01021102061ADDAG10999GA1071+002409999GF108991081061002501999999MA1101691097251MD1810041+9999OA149900211REMSYN023 333 87708 91104 91203;MET008NEW NOSIEQDQ01+000000PRSWM2
0174065900999991997010700004+49617+006217SY-MT+0379ELLX V0200401N00151002401CN0120001N1-00771-01011102041ADDAA106000091AG10000GA1071+002409999GF108991081061002501999999MA1101591097231MD1710061+9999OA149900361REMSYN029 333 47014 87708 91107 91205;MET008NEW NOSIEQDQ01+000000PRSWM2
0106065900999991997010701004+49617+006217SY-MT+0379ELLX V0200501N002119999999N0100001N1-00761-01001102051ADDAG10999MA1101591097241MD1510041+9999OA149900311REMSYN017 333 91106 91204;MET005NEW ;EQDQ01+000000PRSWM2
0106065900999991997010702004+49617+006217SY-MT+0379ELLX V0200601N001519999999N0100001N1-00751-00961102071ADDAG10999MA1101691097261MD1310011+9999OA149900311REMSYN017 333 91106 91204;MET005NEW ;EQDQ01+000000PRSWM2
0185065900999991997010703004+49617+006217SY-MT+0379ELLX V0200401N00211001501CN0080001N1-00751-00941102071ADDAG10000GA1071+001509999GA2071+002409999GF108991081051001501999999MA1101691097261MD1110031+9999OA149900311REMSYN035 333 47014 85705 87610 91106 91204;MET008NEW NOSIEQDQ01+000000PRSWM2
0157065900999991997010704004+49617+006217SY-MT+0379ELLX V0200401N00211001501CN0060001N1-00741-00921102071ADDAG10999GA1071+001509999GF108991081061001501999999MA1101691097261MD1110021+9999OA149900261REMSYN023 333 87705 91105 91204;MET008NEW NOSIEQDQ01+000000PRSWM2
0179065900999991997010705004+49617+006217SY-MT+0379ELLX V0200601N00211001501CN0035001N1-00731-00891102051ADDAG10999AY121021AY221021GA1071+001509999GF108991081061001501999999MA1101691097251MD1410001+9999MW1101OA149900311REMSYN023 333 87705 91106 91204;MET008NEW NOSIEQDQ01+000000PRSWM2
0272065900999991997010706004+49617+006217SY-MT+0379ELLX V0200401N00211001201CN0035001N1-00731-00911102071ADDAA106000091AG10000AJ100149199999999AY121061AY221061GA1071+001209999GA2071+003309999GF108991081051001501999999IA2999-00709KA1120N-00801MA1101691097261MD1310011+9999MW1101OA149900311REMSYN047 333 21080 3/107 47014 85704 87611 91106 91204;MET008NEW NOSIEQDQ01+000000PRSWM2
0201065900999991997010707004+49617+006217SY-MT+0379ELLX V0200401N00151001501CN0040001N1-00711-00901102061ADDAG10999AY121011AY221011GA1071+001509999GA2071+003309999GF108991081051001501999999MA1101691097261MD1110011+9999MW1101OA149900311REMSYN029 333 85705 87611 91106 91204;MET008NEW NOSIEQDQ01+000000PRSWM2
0201065900999991997010708004+49617+006217SY-MT+0379ELLX V0200501N00211003301CN0040001N1-00701-00911102091ADDAG10999AY121021AY221021GA1021+001509999GA2071+003309999GF108991081051001501999999MA1101691097291MD1310041+9999MW1101OA149900311REMSYN029 333 84705 87611 91106 91205;MET008NEW NOSIEQDQ01+000000PRSWM2
0229065900999991997010709004+49617+006217SY-MT+0379ELLX V0200501N00261003301CN0040001N1-00681-00901102141ADDAG10000AY121031AY221031GA1021+001809999GA2071+003309999GA3071+009609999GF108991081051001501999999MA1101691097341MD1310081+9999MW1101OA149900311REMSYN041 333 47014 82706 85611 87632 91106 91205;MET008NEW NOSIEQDQ01+000000PRSWM2
0201065900999991997010710004+49617+006217SY-MT+0379ELLX V0200501N00151003301CN0045001N1-00611-00871102151ADDAG10999AY121011AY221011GA1071+003309999GA2071+009609999GF108991081051004501999999MA1101801097361MD1210101+9999MW1101OA149900311REMSYN029 333 85611 87632 91106 91205;MET008NEW NOSIEQDQ01+000000PRSWM2
0165065900999991997010711004+49617+006217SY-MT+0379ELLX V0200401N00211009301CN0060001N1-00571-00841102131ADDAG10999GA1071+009309999GF107991071051008001999999MA1101801097351MD1010061+9999OA149900671OC101341REMSYN023 333 87631 91113 91204;MET008NEW NOSIEQDQ01+000000PRSWM2
0174065900999991997010712004+49617+006217SY-MT+0379ELLX V0200401N00151009001CN0060001N1-00521-00811102081ADDAA106000091AG10000GA1071+009009999GF107991071051008001999999MA1101691097311MD1810031+9999OA149900671REMSYN029 333 47014 87630 91113 91205;MET008NEW NOSIEQDQ01+000000PRSWM2
0157065900999991997010713004+49617+006217SY-MT+0379ELLX V0200301N00151009001CN0070001N1-00481-00791102041ADDAG10999GA1071+009009999GF107991071051008001999999MA1101691097281MD1710081+9999OA149900211REMSYN023 333 87630 91104 91204;MET008NEW NOSIEQDQ01+000000PRSWM2
0143065900999991997010714004+49617+006217FM-12+0379ELLX V0200701N00101009601CN0080001N1-00471-00791102021ADDAG10999GA1071+009609059GF107991071051008001999999MA1101661097261MD1710091+9999OA149900211REMSYN023 333 87632 91104 91203;EQDQ01+999990APOA  
0163065900999991997010715004+49617+006217SY-MT+0379ELLX V0200701N00101009601CN0070001N1-00541-00811102021ADDAG10000GA1071+009609999GF107991071051008001999999MA1101691097251MD1710061+9999OA149900211REMSYN029 333 47014 87632 91104 91204;MET008NEW NOSIEQDQ01+000000PRSWM2
0157065900999991997010716004+49617+006217SY-MT+0379ELLX V0200801N00101009601CN0080001N1-00531-00791102031ADDAG10999GA1071+009609999GF107991071051008001999999MA1101691097261MD1510021+9999OA149900151REMSYN023 333 87632 91103 91202;MET008NEW NOSIEQDQ01+000000PRSWM2
0157065900999991997010717004+49617+006217SY-MT+0379ELLX V0200701N00051004501CN0060001N1-00581-00841102031ADDAG10999GA1071+004509999GF107991071051004501999999MA1101691097251MD1810011+9999OA149900151REMSYN023 333 87615 91103 91203;MET008NEW NOSIEQDQ01+000000PRSWM2
0237065900999991997010718004+49617+006217SY-MT+0379ELLX V0200701N00151004501CN0035001N1-00681-00901102051ADDAA106000091AG10000AY121061AY221061GA1071+004509999GA2071+009009999GF107991071051004501999999KA1120M-00461MA1101691097251MD1010001+9999MW1101OA149900211REMSYN041 333 11046 47014 86615 86630 91104 91204;MET008NEW NOSIEQDQ01+000000PRSWM2
0179065900999991997010719004+49617+006217SY-MT+0379ELLX V0200701N00101004801CN0035001N1-00671-00851102031ADDAG10999AY121011AY221011GA1071+004809999GF107991071051004501999999MA1101591097241MD1810021+9999MW1101OA149900211REMSYN023 333 87616 91104 91203;MET008NEW NOSIEQDQ01+000000PRSWM2
0179065900999991997010720004+49617+006217SY-MT+0379ELLX V0200901N00051003601CN0035001N1-00731-00911102021ADDAG10999AY121021AY221021GA1071+003609999GF107991071051004501999999MA1101591097221MD1810031+9999MW1101OA149900151REMSYN023 333 87612 91103 91202;MET008NEW NOSIEQDQ01+000000PRSWM2
0163065900999991997010721004+49617+006217SY-MT+0379ELLX V0209991V00051003001CN0060001N1-00681-00921101991ADDAG10000GA1071+003009999GF107991071051004501999999MA1101591097201MD1710051+9999OA149900261REMSYN029 333 47014 87610 91105 91203;MET008NEW NOSIEQDQ01+000000PRSWM2
0157065900999991997010722004+49617+006217SY-MT+0379ELLX V0200801N00101003001CN0060001N1-00661-00901101941ADDAG10999GA1071+003009999GF107991071051004501999999MA1101491097151MD1710091+9999OA149900211REMSYN023 333 87610 91104 91202;MET008NEW NOSIEQDQ01+000000PRSWM2
0157065900999991997010723004+49617+006217SY-MT+0379ELLX V0200701N00101002101CN0080001N1-00691-00931101901ADDAG10999GA1071+002109999GF107991071061002501999999MA1101491097111MD1710111+9999OA149900211REMSYN023 333 87707 91104 91203;MET008NEW NOSIEQDQ01+000000PRSWM2
0174065900999991997010800004+49617+006217SY-MT+0379ELLX V0201001N00101001201CN0070001N1-00701-00881101841ADDAA106000091AG10000GA1071+001209999GF107991071061001501999999MA1101391097051MD1710151+9999OA149900261REMSYN029 333 47014 87704 91105 91203;MET008NEW NOSIEQDQ01+000000PRSWM2
0106065900999991997010801004+49617+006217SY-MT+0379ELLX V0201101N001019999999N0080001N1-00731-00891101821ADDAG10999MA1101391097031MD1710121+9999OA149900311REMSYN017 333 91106 91204;MET005NEW ;EQDQ01+000000PRSWM2
0106065900999991997010802004+49617+006217SY-MT+0379ELLX V0201001N001519999999N0060001N1-00731-00881101781ADDAG10999MA1101391096991MD1710121+9999OA149900261REMSYN017 333 91105 91203;MET005NEW ;EQDQ01+000000PRSWM2
0185065900999991997010803004+49617+006217SY-MT+0379ELLX V0200701N00151000901CN0046001N1-00761-00911101711ADDAG10000AY121031AY221031GA1071+000909999GF107991071061000751999999MA1101291096921MD1710131+9999MW1101OA149900311REMSYN029 333 47014 87703 91106 91204;MET008NEW NOSIEQDQ01+000000PRSWM2
0179065900999991997010804004+49617+006217SY-MT+0379ELLX V0200701N00151000901CN0043001N1-00811-00961101691ADDAG10999AY121011AY221011GA1081+000909999GF108991081061000751999999MA1101291096891MD1710141+9999MW1101OA149900261REMSYN023 333 88703 91105 91204;MET008NEW NOSIEQDQ01+000000PRSWM2
0179065900999991997010805004+49617+006217SY-MT+0379ELLX V0200701N00211000901CN0036001N1-00831-00981101601ADDAG10999AY121021AY221021GA1081+000909999GF108991081061000751999999MA1101191096801MD1710191+9999MW1101OA149900261REMSYN023 333 88703 91105 91204;MET008NEW NOSIEQDQ01+000000PRSWM2
0250065900999991997010806004+49617+006217SY-MT+0379ELLX V0200701N00151001201CN0040001N1-00871-01031101611ADDAA106000091AG10000AJ100149199999999AY121061AY221061GA1081+001209999GF108991081061000751999999IA2999-00909KA1120N-00881MA1101191096801MD1710131+9999MW1101OA149900311REMSYN041 333 21088 3/109 47014 88703 91106 91204;MET008NEW NOSIEQDQ01+000000PRSWM2
0179065900999991997010807004+49617+006217SY-MT+0379ELLX V0200801N00151001201CN0045001N1-00911-01091101531ADDAG10999AY121011AY221011GA1081+001209999GF108991081061001501999999MA1101081096721MD1710181+9999MW1101OA149900261REMSYN023 333 88704 91105 91204;MET008NEW NOSIEQDQ01+000000PRSWM2
0179065900999991997010808004+49617+006217SY-MT+0379ELLX V0200601N00211001201CN0045001N1-00931-01121101471ADDAG10999AY121021AY221021GA1081+001209999GF108991081061001501999999MA1101021096661MD1710151+9999MW1101OA149900261REMSYN023 333 88704 91105 91204;MET008NEW NOSIEQDQ01+000000PRSWM2
0185065900999991997010809004+49617+006217SY-MT+0379ELLX V0200701N00211001201CN0050001N1-00891-01081101441ADDAG10000AY121031AY221031GA1081+001209999GF108991081061001501999999MA1101021096641MD1710151+9999MW1101OA149900261REMSYN029 333 47014 88704 91105 91204;MET008NEW NOSIEQDQ01+000000PRSWM2
0176065900999991997010810004+49617+006217SY-MT+0379ELLX V0200701N00211001201CN0045001N1-00841-01051101421ADDAG10999AY121011AY221011GA1081+001209999GF108991081061001501999999MA1101021096631MD1710081+9999MW1101OA149900261REMSYN023 333 88704 91105 91204;MET005NEW ;EQDQ01+000000PRSWM2
0201065900999991997010811004+49617+006217SY-MT+0379ELLX V0200701N00151060001CN0050001N1-00811-01051101391ADDAG10999AY121021AY221021GA1021+001809999GA2071+060009999GF107991041061001501001021MA1101021096601MD1710051+9999MW1101OA149900261REMSYN029 333 84706 86070 91105 91204;MET008NEW NOSIEQDQ01+000000PRSWM2
0234065900999991997010812004+49617+006217SY-MT+0379ELLX V0200701N00211060001CN0050001N1-00581-00931101251ADDAA106000091AG10000AY121061AY221061GA1021+013509999GA2071+060009999GF199999021061002501001021MA1100911096511MD1710131+9999MW1101OA149900261REMSYN035 333 47014 82708 85070 91105 91204;MET008NEW NOSIEQDQ01+000052SCOTCVQ02+000000PRSWM2
0135065900999991997010813204+49617+006217FM-15+0379ELLX V0200801N003110600019N0040001N1-00501-00901101161ADDAG10999GA1071+060009999GF107991999999999999999999MA1100811096441REMMET008NEW NOSIEQDQ01+999990APOSP Q02+999990APOSLPQ03+000000PRSWM2
0195065900999991997010814004+49617+006217SY-MT+0379ELLX V0200801N00211060001CN0045001N1-00521-00891101121ADDAG10999AY121021AY221021GA1071+060009999GF199999001001999999001021MA1100811096401MD1710201+9999MW1051OA149900311REMSYN023 333 86070 91106 91204;MET008NEW NOSIEQDQ01+000062SCOTCVQ02+000000PRSWM2
0223065900999991997010815004+49617+006217SY-MT+0379ELLX V0200901N00151060001CN0045001N1-00611-00901101101ADDAG10000AY121031AY221031GA1021+018009999GA2071+060009999GF199999031051017501001021MA1100711096361MD1710151+9999MW1101OA149900311REMSYN035 333 47014 83656 86070 91106 91204;MET008NEW NOSIEQDQ01+000062SCOTCVQ02+000000PRSWM2
0217065900999991997010816004+49617+006217SY-MT+0379ELLX V0201101N00101060001CN0050001N1-00681-00941101111ADDAG10999AY121011AY221011GA1021+018009999GA2071+060009999GF199999031051017501001021MA1100711096361MD1610101+9999MW1101OA149900211REMSYN029 333 83656 86070 91104 91203;MET008NEW NOSIEQDQ01+000062SCOTCVQ02+000000PRSWM2
0179065900999991997010817004+49617+006217SY-MT+0379ELLX V0201201N00101001801CN0035001N1-00731-00921101111ADDAG10999AY121021AY221021GA1071+001809999GF107991071061001501999999MA1100711096351MD1810051+9999MW1101OA149900211REMSYN023 333 87706 91104 91203;MET008NEW NOSIEQDQ01+000000PRSWM2
0155065900999991997010818004+49617+006217SY-MT+0379ELLX V0200901N001510012019N0033001N1-00741-00901101051ADDAA106000091AG10000GA1071+001209999KA1120M-00481MA1100711096291MD1810071+9999OA149900311REMSYN023 333 11048 91106 91204;MET008NEW NOSIEQDQ01+000003PRSWM1
0182065900999991997010819004+49617+006217SY-MT+0379ELLX V0201001N00151001201CN0030001N1-00781-00931101051ADDAG10999AY121011AY221011GA1071+001209999GA2071+060009999GF107991061061001501001021MA1100611096281MD1710081+9999MW1101OA149900311REMSYN029 333 86704 86070 91106 91204;MET008NEW NOSI
0160065900999991997010820004+49617+006217SY-MT+0379ELLX V0200701N00101001201CN0030001N1-00781-00931101021ADDAG10999AY121021AY221021GA1071+001209999GF107991071061001501999999MA1100611096261MD1710091+9999MW1101OA149900211REMSYN023 333 87704 91104 91203;MET008NEW NOSI
0178065900999991997010821004+49617+006217SY-MT+0379ELLX V0200801N00151001201CN0025001N1-00821-00971101001ADDAG10000AY121031AY221031GA1071+001209999GF107991071061001501999999MA1100611096231MD1710061+9999MW1101OA149900311REMSYN029 333 47013 87704 91106 91204;MET020NEW BECMG TL2145 -FZ
0160065900999991997010822004+49617+006217SY-MT+0379ELLX V0200701N00151000901CN0025001N1-00801-00951100961ADDAG10999AY121011AY221011GA1071+000909999GF108991071061000751999999MA1100611096191MD1710091+9999MW1101OA149900261REMSYN023 333 86703 91105 91204;MET008NEW NOSI
0160065900999991997010823004+49617+006217SY-MT+0379ELLX V0200701N00151001201CN0030001N1-00801-00961100921ADDAG10999AY121021AY221021GA1071+001209999GF108991071061001501999999MA1100511096161MD1710101+9999MW1101OA149900261REMSYN023 333 87704 91105 91203;MET008NEW NOSI
0155065900999991997010900004+49617+006217SY-MT+0379ELLX V0200901N001510012019N0033001N1-00741-00901101051ADDAA106000091AG10000GA1071+001209999KA1120M-00481MA1100511096291MD1810071+9999OA149900311REMSYN023 333 11048 91106 91204;MET008NEW NOSIEQDQ01+000003PRSWM1
0177065900999991997010901004+49617+006217SY-MT+0379ELLX V0200801N001010012019N0030001N1-00811-00971100891ADDAA106000091AG10999GA1071+001209079GF108991071061001501999999MA1100511096131MD1710101+9999MW1001OA149900311REMSYN029 333 47013 87704 91106 91204;MET005NEW ;EQDQ01+000000PRSWM2
0106065900999991997010902004+49617+006217SY-MT+0379ELLX V0200901N000519999999N0030001N1-00811-00961100861ADDAG10999MA1100511096101MD1610061+9999OA149900101REMSYN017 333 91102 91201;MET005NEW ;EQDQ01+000000PRSWM2
0188065900999991997010903004+49617+006217SY-MT+0379ELLX V0200901N00051015001CN0030001N1-00791-00941100861ADDAG10000AY121031AY221031GA1021+000909999GA2071+015009999GF108991071051000751999999MA1100511096101MD1610031+9999MW1101OA149900151REMSYN035 333 47013 83703 87650 91103 91202;MET008NEW NOSI
0182065900999991997010904004+49617+006217SY-MT+0379ELLX V0200601N00101015001CN0030001N1-00761-00921100791ADDAG10999AY121011AY221011GA1021+000909999GA2071+015009999GF108991071051000751999999MA1100411096041MD1810061+9999MW1101OA149900101REMSYN029 333 83703 87650 91102 91202;MET008NEW NOSI
0182065900999991997010905004+49617+006217SY-MT+0379ELLX V0200601N00101015001CN0025001N1-00781-00941100781ADDAG10999AY121021AY221021GA1021+000909999GA2071+015009999GF108991071051000751999999MA1100411096031MD1810071+9999MW1101OA149900101REMSYN029 333 82703 87650 91102 91202;MET008NEW NOSI
0253065900999991997010906004+49617+006217SY-MT+0379ELLX V0200601N00101015001CN0025001N1-00771-00921100781ADDAA106000091AG10000AJ100139199999999AY121061AY221061GA1021+000909999GA2071+015009999GF108991071051000751999999IA2999-00809KA1120N-00841MA1100411096031MD1610071+9999MW1101OA149900151REMSYN047 333 21084 3/108 47013 83703 87650 91103 91202;MET008NEW NOSI
0182065900999991997010907004+49617+006217SY-MT+0379ELLX V0200601N00101015001CN0025001N1-00791-00951100761ADDAG10999AY121011AY221011GA1021+000909999GA2071+015009999GF107991071051000751999999MA1100411096011MD1810031+9999MW1101OA149900151REMSYN029 333 84703 87650 91103 91202;MET008NEW NOSI
0182065900999991997010908004+49617+006217SY-MT+0379ELLX V0200701N00051015001CN0025001N1-00771-00931100801ADDAG10999AY121021AY221021GA1021+000609999GA2071+015009999GF107991071051000751999999MA1100411096051MD1310021+9999MW1101OA149900151REMSYN029 333 83702 87650 91103 91202;MET008NEW NOSI
0188065900999991997010909004+49617+006217SY-MT+0379ELLX V0200701N00051015001CN0025001N1-00741-00901100831ADDAG10000AY121031AY221031GA1021+000909999GA2071+015009999GF107991071051000751999999MA1100411096081MD1310051+9999MW1101OA149900151REMSYN035 333 47013 82703 87650 91103 91202;MET008NEW NOSI
0182065900999991997010910004+49617+006217SY-MT+0379ELLX V0200501N00051015001CN0030001N1-00631-00861100841ADDAG10999AY121011AY221011GA1021+000909999GA2071+015009999GF107991071051000751999999MA1100511096111MD1210101+9999MW1101OA149900101REMSYN029 333 82703 87650 91102 91201;MET008NEW NOSI
0201065900999991997010911004+49617+006217SY-MT+0379ELLX V0200801N00051060001CN0040001N1-00571-00841100851ADDAG10999AY121021AY221021GA1021+001509999GA2071+060009999GF107991021061001501001021MA1100511096131MD1210081+9999MW1101OA149900101REMSYN029 333 82705 87070 91102 91201;MET008NEW NOSIEQDQ01+000000PRSWM2
0218065900999991997010912004+49617+006217SY-MT+0379ELLX V0200601N00051060001CN0035001N1-00491-00811100851ADDAA106000091AG10000AY121061AY221061GA1021+001509999GA2071+060009999GF107991021061001501001021MA1100511096141MD1210061+9999MW1051OA149900151REMSYN035 333 47013 82705 87070 91103 91202;MET008NEW NOSIEQDQ01+000000PRSWM2
0217065900999991997010913004+49617+006217SY-MT+0379ELLX V0200701N00101060001CN0035001N1-00341-00771100781ADDAG10999AY121011AY221011GA1021+002109999GA2071+060009999GF199999021061002501031021MA1100511096101MD1810011+9999MW1051OA149900151REMSYN029 333 82707 85070 91103 91202;MET008NEW NOSIEQDQ01+000062SCOTCVQ02+000000PRSWM2
0217065900999991997010914004+49617+006217SY-MT+0379ELLX V0200801N00051060001CN0035001N1-00491-00811100831ADDAG10999AY121021AY221021GA1021+030009999GA2071+060009999GF199999031001999999031021MA1100511096121MD1510011+9999MW1051OA149900151REMSYN029 333 83360 86070 91103 91202;MET008NEW NOSIEQDQ01+000062SCOTCVQ02+000000PRSWM2
0223065900999991997010915004+49617+006217SY-MT+0379ELLX V0200701N00101060001CN0035001N1-00521-00831100851ADDAG10000AY121031AY221031GA1021+030009999GA2071+060009999GF199999021001999999031021MA1100511096141MD1510001+9999MW1051OA149900151REMSYN035 333 47013 82360 85070 91103 91202;MET008NEW NOSIEQDQ01+000062SCOTCVQ02+000000PRSWM2
0223065900999991997010916004+49617+006217SY-MT+0379ELLX V0200601N00051060001CN0030001N1-00601-00861100911ADDAG10999AY121011AY221011GA1021+015009999GA2021+030009999GA3071+060009999GF199999021051017501031021MA1100511096181MD1210081+9999MW1101OA149900101REMSYN035 333 82650 83360 85070 91102 91202;MET008NEW NOSIEQDQ01+000062SCOTCV
0217065900999991997010917004+49617+006217SY-MT+0379ELLX V0200801N00101030001CN0042001N1-00661-00901100971ADDAG10999AY121021AY221021GA1021+015009999GA2071+030009999GF199999031051017501031021MA1100611096231MD1210111+9999MW1101OA149900151REMSYN029 333 83650 85360 91103 91202;MET008NEW NOSIEQDQ01+000062SCOTCVQ02+000000PRSWM2
0215065900999991997010918004+49617+006217SY-MT+0379ELLX V0200701N00051015001CN0040001N1-00631-00841101021ADDAA106000091AG10000AY121061AY221061GA1071+015009999GF107991071051017501999999KA1120M-00311MA1100611096281MD1210141+9999MW1101OA149900151REMSYN035 333 11031 47013 87650 91103 91202;MET008NEW NOSIEQDQ01+000000PRSWM2
0179065900999991997010919004+49617+006217SY-MT+0379ELLX V0201101N00051015001CN0039001N1-00641-00841101081ADDAG10999AY121011AY221011GA1071+015009999GF107991071051017501999999MA1100711096341MD1210161+9999MW1101OA149900151REMSYN023 333 87650 91103 91201;MET008NEW NOSIEQDQ01+000000PRSWM2
0201065900999991997010920004+49617+006217SY-MT+0379ELLX V0201001N00051001801CN0036001N1-00681-00861101121ADDAG10999AY121021AY221021GA1071+001809999GA2071+015009999GF107991071051001501999999MA1100711096371MD1210141+9999MW1101OA149900101REMSYN029 333 85706 87650 91102 91201;MET008NEW NOSIEQDQ01+000000PRSWM2
0166065900999991997010921004+49617+006217SY-MT+0379ELLX V0200601N00151000901CN0028001N1-00641-00821101161ADDAG10000AY121031AY221031GA1071+000909999GF107991071061000751999999MA1100811096411MD1210131+9999MW1101OA149900211REMSYN029 333 47013 87703 91104 91203;MET008NEW NOSI
0160065900999991997010922004+49617+006217SY-MT+0379ELLX V0200601N00101001201CN0028001N1-00611-00761101241ADDAG10999AY121011AY221011GA1081+001209999GF108991081061001501999999MA1100911096491MD1210151+9999MW1101OA149900261REMSYN023 333 88704 91105 91204;MET008NEW NOSI
0160065900999991997010923004+49617+006217SY-MT+0379ELLX V0200601N00101000901CN0025001N1-00621-00771101271ADDAG10999AY121021AY221021GA1081+000909999GF108991081061000751999999MA1100911096521MD1210151+9999MW1101OA149900151REMSYN023 333 88703 91103 91202;MET008NEW NOSI
0177065900999991997011000004+49617+006217SY-MT+0379ELLX V0200501N00101000901CN0025001N1-00631-00781101301ADDAA106000091AG10000AY121061AY221061GA1081+000909999GF108991081061000751999999MA1100911096551MD1210141+9999MW1101OA149900261REMSYN029 333 47013 88703 91105 91204;MET008NEW NOSI
0106065900999991997011001004+49617+006217SY-MT+0379ELLX V0200601N001019999999N0018001N1-00631-00771101341ADDAG10999MA1101021096591MD1210101+9999OA149900151REMSYN017 333 91103 91202;MET005NEW ;EQDQ01+000000PRSWM2
0106065900999991997011002004+49617+006217SY-MT+0379ELLX V0200501N001019999999N0018001N1-00631-00751101401ADDAG10999MA1101021096641MD1210121+9999OA149900211REMSYN017 333 91104 91203;MET005NEW ;EQDQ01+000000PRSWM2
0166065900999991997011003004+49617+006217SY-MT+0379ELLX V0200601N00101000901CN0030001N1-00631-00751101451ADDAG10000AY121031AY221031GA1081+000909999GF108991081061000751999999MA1101081096691MD1210141+9999MW1101OA149900211REMSYN029 333 47013 88703 91104 91203;MET008NEW NOSI
0160065900999991997011004004+49617+006217SY-MT+0379ELLX V0200601N00101000901CN0030001N1-00621-00741101461ADDAG10999AY121011AY221011GA1081+000909999GF108991081061000751999999MA1101081096701MD1210111+9999MW1101OA149900151REMSYN023 333 88703 91103 91202;MET008NEW NOSI
0160065900999991997011005004+49617+006217SY-MT+0379ELLX V0200501N00101000901CN0030001N1-00621-00761101511ADDAG10999AY121021AY221021GA1081+000909999GF108991081061000751999999MA1101081096751MD1210111+9999MW1101OA149900211REMSYN023 333 88703 91104 91203;MET008NEW NOSI
0231065900999991997011006004+49617+006217SY-MT+0379ELLX V0200501N00151000901CN0025001N1-00651-00791101581ADDAA106000091AG10000AJ100139199999999AY121061AY221061GA1081+000909999GF108991081061000751999999IA2999-00709KA1120N-00681MA1101191096811MD1210121+9999MW1101OA149900261REMSYN041 333 21068 3/107 47013 88703 91105 91203;MET008NEW NOSI
0160065900999991997011007004+49617+006217SY-MT+0379ELLX V0200601N00101000601CN0028001N1-00651-00791101661ADDAG10999AY121011AY221011GA1081+000609999GF108991081061000751999999MA1101291096891MD1210191+9999MW1101OA149900261REMSYN023 333 88702 91105 91203;MET008NEW NOSI
0160065900999991997011008004+49617+006217SY-MT+0379ELLX V0200501N00051000901CN0030001N1-00621-00741101771ADDAG10999AY121021AY221021GA1081+000909999GF108991081061000751999999MA1101391097001MD1210251+9999MW1101OA149900151REMSYN023 333 88703 91103 91202;MET008NEW NOSI
0185065900999991997011009004+49617+006217SY-MT+0379ELLX V0200601N00101001201CN0035001N1-00571-00721101841ADDAG10000AY121031AY221031GA1081+001209999GF108991081061001501999999MA1101491097071MD1210261+9999MW1101OA149900261REMSYN029 333 47012 88704 91105 91203;MET008NEW NOSIEQDQ01+000000PRSWM2
0160065900999991997011010004+49617+006217SY-MT+0379ELLX V0200801N00151001201CN0030001N1-00541-00711101901ADDAG10999AY121011AY221011GA1081+001209999GF108991081061001501999999MA1101491097141MD1210251+9999MW1101OA149900211REMSYN023 333 88704 91104 91203;MET008NEW NOSI
0179065900999991997011011004+49617+006217SY-MT+0379ELLX V0200701N00101001501CN0040001N1-00491-00701101961ADDAG10999AY121021AY221021GA1081+001509999GF108991081061001501999999MA1101591097201MD1210201+9999MW1101OA149900151REMSYN023 333 88705 91103 91203;MET008NEW NOSIEQDQ01+000000PRSWM2
0196065900999991997011012004+49617+006217SY-MT+0379ELLX V0209991C00001001801CN0045001N1-00461-00671101991ADDAA106000091AG10000AY121061AY221061GA1081+001809999GF108991081061001501999999MA1101591097241MD1210171+9999MW1101OA149900261REMSYN029 333 47012 88706 91105 91203;MET008NEW NOSIEQDQ01+000000PRSWM2
0179065900999991997011013004+49617+006217SY-MT+0379ELLX V0209991V00051001801CN0050001N1-00491-00701102021ADDAG10999AY121011AY221011GA1081+001809999GF108991081061001501999999MA1101691097261MD1210121+9999MW1101OA149900151REMSYN023 333 88706 91103 91202;MET008NEW NOSIEQDQ01+000000PRSWM2
0179065900999991997011014004+49617+006217SY-MT+0379ELLX V0209991C00001001801CN0050001N1-00471-00681102101ADDAG10999AY121021AY221021GA1081+001809999GF108991081061001501999999MA1101691097341MD1210141+9999MW1101OA149900151REMSYN023 333 88706 91103 91202;MET008NEW NOSIEQDQ01+000000PRSWM2
0185065900999991997011015004+49617+006217SY-MT+0379ELLX V0209991V00051002401CN0045001N1-00451-00681102141ADDAG10000AY121031AY221031GA1081+002409999GF108991081061002501999999MA1101801097381MD1210141+9999MW1101OA149900151REMSYN029 333 47012 88708 91103 91202;MET008NEW NOSIEQDQ01+000000PRSWM2
0179065900999991997011016004+49617+006217SY-MT+0379ELLX V0209991C00001002101CN0045001N1-00481-00691102221ADDAG10999AY121011AY221011GA1081+002109999GF108991081061002501999999MA1101901097451MD1210191+9999MW1101OA149900151REMSYN023 333 88707 91103 91202;MET008NEW NOSIEQDQ01+000000PRSWM2
0179065900999991997011017004+49617+006217SY-MT+0379ELLX V0209991C00001001801CN0045001N1-00511-00721102301ADDAG10999AY121021AY221021GA1081+001809999GF108991081061001501999999MA1101901097521MD1210181+9999MW1101OA149900101REMSYN023 333 88706 91102 91201;MET008NEW NOSIEQDQ01+000000PRSWM2
0215065900999991997011018004+49617+006217SY-MT+0379ELLX V0209991V00051002101CN0045001N1-00521-00731102341ADDAA106000091AG10000AY121061AY221061GA1081+002109999GF108991081061002501999999KA1120M-00441MA1102001097561MD1210181+9999MW1101OA149900151REMSYN035 333 11044 47012 88707 91103 91202;MET008NEW NOSIEQDQ01+000000PRSWM2
0179065900999991997011019004+49617+006217SY-MT+0379ELLX V0209991C00001002101CN0048001N1-00511-00721102401ADDAG10999AY121011AY221011GA1081+002109999GF108991081061002501999999MA1102001097621MD1210171+9999MW1101OA149900101REMSYN023 333 88707 91102 91201;MET008NEW NOSIEQDQ01+000000PRSWM2
0190065900999991997011020004+49617+006217SY-MT+0379ELLX V0201401N00051002101CN0045001N1-00501-00711102411ADDAG10999AY121021AY221021GA1081+002109999GF108991081061002501999999MA1102001097631MD1210111+9999MW1101OA149900151REMSYN023 333 88707 91103 91201;MET019NEW NOSIG 0629//71;EQDQ01+000000PRSWM2
0185065900999991997011021004+49617+006217SY-MT+0379ELLX V0209991C00001002701CN0060001N1-00501-00741102461ADDAG10000AY121031AY221031GA1081+002709999GF108991081061002501999999MA1102101097681MD1210121+9999MW1021OA149900151REMSYN029 333 47012 88709 91103 91201;MET008NEW NOSIEQDQ01+000000PRSWM2
0157065900999991997011022004+49617+006217SY-MT+0379ELLX V0201801N00051003001CN0070001N1-00491-00721102491ADDAG10999GA1081+003009999GF108991081061004501999999MA1102101097711MD1210091+9999OA149900151REMSYN023 333 88710 91103 91202;MET008NEW NOSIEQDQ01+000000PRSWM2
0157065900999991997011023004+49617+006217SY-MT+0379ELLX V0209991V00051003001CN0070001N1-00471-00711102551ADDAG10999GA1081+003009999GF108991081061004501999999MA1102201097771MD1210141+9999OA149900151REMSYN023 333 88710 91103 91201;MET008NEW NOSIEQDQ01+000000PRSWM2
0174065900999991997011100004+49617+006217SY-MT+0379ELLX V0209991C00001003001CN0070001N1-00491-00721102581ADDAA106000091AG10000GA1081+003009999GF108991081061004501999999MA1102201097791MD1210111+9999OA149900151REMSYN029 333 47012 88710 91103 91202;MET008NEW NOSIEQDQ01+000000PRSWM2
0106065900999991997011101004+49617+006217SY-MT+0379ELLX V0202301N00051999999CN0060001N1-00461-00671102571ADDAG10999MA1102201097791MD1110081+9999OA149900151REMSYN017 333 91103 91202;MET005NEW ;EQDQ01+000000PRSWM2
0106065900999991997011102004+49617+006217SY-MT+0379ELLX V0209991V000519999999N0050001N1-00471-00671102601ADDAG10999MA1102201097821MD1310051+9999OA149900151REMSYN017 333 91103 91202;MET005NEW ;EQDQ01+000000PRSWM2
0185065900999991997011103004+49617+006217SY-MT+0379ELLX V0202101N00101002101CN0040001N1-00491-00691102611ADDAG10000AY121031AY221031GA1071+002109999GF108991081061002501999999MA1102201097821MD1110031+9999MW1101OA149900151REMSYN029 333 47012 88707 91103 91202;MET008NEW NOSIEQDQ01+000000PRSWM2
0160065900999991997011104004+49617+006217SY-MT+0379ELLX V0202101N00101001801CN0025001N1-00501-00681102621ADDAG10999AY121011AY221011GA1081+001809999GF108991081061001501999999MA1102301097831MD1310041+9999MW1101OA149900211REMSYN023 333 88706 91104 91202;MET008NEW NOSI
0160065900999991997011105004+49617+006217SY-MT+0379ELLX V0201901N00051001801CN0025001N1-00501-00671102631ADDAG10999AY121021AY221021GA1081+001809999GF108991081061001501999999MA1102301097841MD1310021+9999MW1101OA149900151REMSYN023 333 88706 91103 91202;MET008NEW NOSI
0231065900999991997011106004+49617+006217SY-MT+0379ELLX V0201901N00101001501CN0025001N1-00521-00691102691ADDAA106000091AG10000AJ100129199999999AY121061AY221061GA1081+001509999GF108991081061001501999999IA2999-00509KA1120N-00531MA1102301097891MD1210071+9999MW1101OA149900211REMSYN041 333 21053 3/105 47012 88705 91104 91203;MET008NEW NOSI
0160065900999991997011107004+49617+006217SY-MT+0379ELLX V0202101N00101001201CN0021001N1-00541-00691102731ADDAG10999AY121011AY221011GA1081+001209999GF108991081061001501999999MA1102401097931MD1210101+9999MW1101OA149900461REMSYN023 333 88705 91109 91203;MET008NEW NOSI
0160065900999991997011108004+49617+006217SY-MT+0379ELLX V0202101N00101001201CN0018001N1-00541-00681102821ADDAG10999AY121021AY221021GA1081+001209999GF108991081061001501999999MA1102511098011MD1210161+9999MW1101OA149900211REMSYN023 333 88704 91104 91202;MET008NEW NOSI
0166065900999991997011109004+49617+006217SY-MT+0379ELLX V0201901N00051001201CN0017001N1-00541-00661102871ADDAG10000AY121031AY221031GA1081+001209999GF108991081061001501999999MA1102511098061MD1210161+9999MW1101OA149900461REMSYN029 333 47011 88704 91109 91203;MET008NEW NOSI
0160065900999991997011110004+49617+006217SY-MT+0379ELLX V0202101N00101000901CN0016001N1-00511-00631102931ADDAG10999AY121011AY221011GA1081+000909999GF108991081061000751999999MA1102611098121MD1210181+9999MW1101OA149900151REMSYN023 333 88703 91103 91202;MET008NEW NOSI
0160065900999991997011111004+49617+006217SY-MT+0379ELLX V0202201N00101000901CN0018001N1-00501-00651102941ADDAG10999AY121021AY221021GA1081+000909999GF108991081061000751999999MA1102611098131MD1210131+9999MW1101OA149900211REMSYN023 333 88703 91104 91202;MET008NEW NOSI
0177065900999991997011112004+49617+006217SY-MT+0379ELLX V0202001N00051001201CN0022001N1-00491-00641102981ADDAA106000091AG10000AY121061AY221061GA1081+001209999GF108991081061001501999999MA1102611098171MD1210111+9999MW1101OA149900461REMSYN029 333 47011 88704 91109 91203;MET008NEW NOSI
0160065900999991997011113004+49617+006217SY-MT+0379ELLX V0201701N00051001201CN0026001N1-00461-00641102931ADDAG10999AY121011AY221011GA1081+001209999GF108991081061001501999999MA1102611098131MD1010021+9999MW1101OA149900261REMSYN023 333 88704 91105 91202;MET008NEW NOSI
0160065900999991997011114004+49617+006217SY-MT+0379ELLX V0201501N00051001201CN0025001N1-00511-00681102961ADDAG10999AY121021AY221021GA1081+001209999GF108991081061001501999999MA1102611098151MD1310011+9999MW1101OA149900151REMSYN023 333 88704 91103 91202;MET008NEW NOSI
0166065900999991997011115004+49617+006217SY-MT+0379ELLX V0209991V00051001201CN0024001N1-00521-00671103031ADDAG10000AY121031AY221031GA1081+001209999GF108991081061001501999999MA1102711098221MD1310051+9999MW1101OA149900261REMSYN029 333 47011 88704 91105 91202;MET008NEW NOSI
0160065900999991997011116004+49617+006217SY-MT+0379ELLX V0201601N00051000901CN0016001N1-00551-00691103081ADDAG10999AY121011AY221011GA1081+000909999GF108991081061000751999999MA1102711098261MD1210121+9999MW1101OA149900151REMSYN023 333 88703 91103 91202;MET008NEW NOSI
0141065900999991997011117004+49617+006217SY-MT+0379ELLX V0209991V000510009019N0016001N1-00561-00671103091ADDAG10999GA1021+000609999GA2081+000909999MA1102711098271MD1210121+9999OA149900151REMSYN017 333 91103 91202;MET008NEW NOSIEQDQ01+000003PRSWM1
0215065900999991997011118004+49617+006217SY-MT+0379ELLX V0201701N00101000601CN0015001N1-00601-00721103131ADDAA106000091AG10000AY121061AY221061GA1081+000609999GF108991999071000751001021KA1120M-00461MA1102711098301MD1210081+9999MW1101OA149900261REMSYN035 333 11046 47011 88702 91105 91202;MET008NEW NOSIEQDQ01+000082SCOTLC
0182065900999991997011119004+49617+006217SY-MT+0379ELLX V0201701N00051000901CN0015001N1-00631-00751103181ADDAG10999AY121011AY221011GA1021+000309999GA2081+000909999GF108991081061000251999999MA1102811098341MD1210081+9999MW1101OA149900311REMSYN029 333 83701 88703 91106 91202;MET008NEW NOSI
0160065900999991997011120004+49617+006217SY-MT+0379ELLX V0201701N00051000301CN0002001N1-00641-00651103201ADDAG10999AY141021AY221021GA1071+000309999GF108991081061000251999999MA1102811098361MD1210091+9999MW1481OA149900151REMSYN023 333 87701 91103 91202;MET008NEW NOSI
0183065900999991997011121004+49617+006217SY-MT+0379ELLX V0201701N00051000301CN0002001N1-00641-00651103241ADDAG10000AY141031AY221031ED199U20009GA1081+000309999GF108991081061000251999999MA1102811098401MD1210101+9999MW1441MW2481OA149900311REMSYN029 333 47011 88701 91106 91202;MET008NEW NOSI
0166065900999991997011122004+49617+006217SY-MT+0379ELLX V0209991V00051000301CN0002001N1-00631-00641103241ADDAG10999AY141011AY241011GA1081+000309999GF108991081061000251999999MA1102811098401MD1110061+9999MW1441MW2481OA149900151REMSYN023 333 88701 91103 91201;MET008NEW NOSI
0171065900999991997011123004+49617+006217SY-MT+0379ELLX V0201701N00051000301CN0002001N1-00631-00641103261ADDAG10999AY141021AY241021ED199U20009GA1081+000309999GF108991081061000251999999MA1102911098421MD1310061+9999MW1481OA149900151REMSYN023 333 88701 91103 91202;MET008NEW NOSI
0177065900999991997011200004+49617+006217SY-MT+0379ELLX V0209991C00001000301CN0002001N1-00641-00651103271ADDAA106000091AG10000AY141061AY221061GA1081+000309999GF108991081061000251999999MA1102911098421MD1110021+9999MW1481OA149900311REMSYN029 333 47011 88701 91106 91202;MET008NEW NOSI
0106065900999991997011201004+49617+006217SY-MT+0379ELLX V0201701N000519999999N0003001N1-00651-00661103271ADDAG10999MA1102911098421MD1110021+9999OA149900101REMSYN017 333 91102 91201;MET005NEW ;EQDQ01+000000PRSWM2
0117065900999991997011202004+49617+006217SY-MT+0379ELLX V0201401N000519999999N0010001N1-00631-00641103261ADDAG10999ED199U17009MA1102911098421MD1410001+9999OA149900101REMSYN017 333 91102 91201;MET005NEW ;EQDQ01+000000PRSWM2
0177065900999991997011203004+49617+006217SY-MT+0379ELLX V0201701N00051000301CN0002001N1-00671-00681103281ADDAG10000AY141031AY241031ED199U17009GA1081+000309999GF108991081061000251999999MA1102911098431MD1310011+9999MW1481OA149900101REMSYN029 333 47011 88701 91102 91201;MET008NEW NOSI
0160065900999991997011204004+49617+006217SY-MT+0379ELLX V0209991C00001000301CN0002001N1-00691-00701103301ADDAG10999AY141011AY241011GA1081+000309999GF108991081061000251999999MA1102911098441MD1310021+9999MW1481OA149900101REMSYN023 333 88701 91102 91201;MET008NEW NOSI
0171065900999991997011205004+49617+006217SY-MT+0379ELLX V0209991C00001000301CN0001001N1-00711-00721103301ADDAG10999AY141021AY241021ED199U09009GA1081+000309999GF108991081061000251999999MA1102911098441MD1110021+9999MW1481OA149900051REMSYN023 333 88701 91101 91200;MET008NEW NOSI
0242065900999991997011206004+49617+006217SY-MT+0379ELLX V0209991C00001000301CN0001001N1-00741-00751103321ADDAA106000091AG10000AJ100119199999999AY141061AY241061ED199U07009GA1081+000309999GF108991081061000251999999IA2999-00609KA1120N-00741MA1102911098451MD1310021+9999MW1481OA149900101REMSYN041 333 21074 3/106 47011 88701 91102 91201;MET008NEW NOSI
0160065900999991997011207004+49617+006217SY-MT+0379ELLX V0209991C00001000301CN0001001N1-00741-00751103331ADDAG10999AY141011AY241011GA1081+000309999GF108991081061000251999999MA1102911098461MD1310021+9999MW1481OA149900051REMSYN023 333 88701 91101 91200;MET008NEW NOSI
0160065900999991997011208004+49617+006217SY-MT+0379ELLX V0201201N00051000301CN0001001N1-00761-00771103341ADDAG10999AY141021AY241021GA1081+000309999GF108991081061000251999999MA1102911098471MD1210031+9999MW1481OA149900211REMSYN023 333 88701 91104 91201;MET008NEW NOSI
0177065900999991997011209004+49617+006217SY-MT+0379ELLX V0209991C00001000301CN0001001N1-00731-00741103391ADDAG10000AY141031AY241031ED199U04009GA1081+000309999GF108991081061000251999999MA1103011098521MD1210071+9999MW1481OA149900211REMSYN029 333 47011 88701 91104 91201;MET008NEW NOSI
0172065900999991997011210004+49617+006217SY-MT+0379ELLX V0209991C00001000301CN0002001N1-00711-00721103381ADDAG10999AY141011AY241011GA1081+000309999GF108991081061000251999999MA1103011098521MD1110061+9999MW1481OA149900101REMSYN023 333 88701 91102 91201;MET020NEW BECMG 1000 BKN00
0213065900999991997011211004+49617+006217SY-MT+0379ELLX V0201201N00051000301CN0004001N1-00651-00661103371ADDAG10999AY141021AY241021ED199U16009GA1071+000309999GA2081+000909999GF108991081061000251999999MA1103011098521MD1110051+9999MW1481OA149900461OC100981REMSYN029 333 86701 88703 91109 91201;MET020NEW BECMG 1000 BKN00
0217065900999991997011212004+49617+006217SY-MT+0379ELLX V0201001N00051000301CN0010001N1-00601-00741103311ADDAA106000091AG10000AY141061AY221061GA1071+000309999GA2081+000909999GF108991081061000251999999MA1102911098471MD1810051+9999MW1101MW2281OA149900461REMSYN035 333 47011 86701 88703 91109 91201;MET020NEW BECMG 2000 BKN00
0213065900999991997011213004+49617+006217SY-MT+0379ELLX V0209991C00001000901CN0012001N1-00441-00561103251ADDAG10999AY121011AY221011GA1021+000309999GA2071+000909999GF199999061061000251001001MA1102911098441MD1810081+9999MW1101OA149900101REMSYN029 333 83701 86703 91102 91201;MET020NEW BECMG 2000 BKN00EQDQ01+000062SCOTCV
0194065900999991997011214004+49617+006217SY-MT+0379ELLX V0209991C00001220001CN0028001N1-00471-00611103211ADDAG10999AY121021AY221021GA1021+001209999GA2021+060009999GF104991021061001501001021MA1102811098401MD1710121+9999MW1101OA149900051REMSYN029 333 82704 84070 91101 91200;MET020NEW BECMG 2000 BKN00
0219065900999991997011215004+49617+006217SY-MT+0379ELLX V0209991C00001220001CN0035001N1-00451-00591103231ADDAG10000AY121031AY221031GA1021+001209999GA2021+060009999GF103991011061001501001021MA1102911098421MD1510051+9999MW1101OA149900101REMSYN035 333 47010 81704 83070 91102 91201;MET020NEW BECMG 2000 BKN00EQDQ01+000000PRSWM2
0191065900999991997011216004+49617+006217SY-MT+0379ELLX V0209991V00051220001CN0035001N1-00501-00621103231ADDAG10999AY101011AY201011GA1021+060009999GF103991001001999999001021MA1102911098411MD1810031+9999MW1101OA149900151REMSYN023 333 83070 91103 91201;MET020NEW BECMG 2000 BKN00EQDQ01+000000PRSWM2
0179065900999991997011217004+49617+006217SY-MT+0379ELLX V0200501N00101220001CN0035001N1-00601-00741103241ADDAG10999AY101021AY201021GA1021+060009999GF102991001001999999001021MA1102811098401MD1010001+9999MW1101OA149900151REMSYN023 333 82070 91103 91202;MET008NEW NOSIEQDQ01+000000PRSWM2
0215065900999991997011218004+49617+006217SY-MT+0379ELLX V0209991V00051220001CN0035001N1-00591-00711103241ADDAA106000091AG10000AY111061AY211061GA1021+060009999GF102991001001999999001021KA1120M-00401MA1102811098401MD1610021+9999MW1101OA149900151REMSYN035 333 11040 47010 82070 91103 91202;MET008NEW NOSIEQDQ01+000000PRSWM2
0179065900999991997011219004+49617+006217SY-MT+0379ELLX V0200901N00051220001CN0035001N1-00661-00811103251ADDAG10999AY101011AY201011GA1021+060009999GF102991001001999999001021MA1102811098401MD1610011+9999MW1101OA149900101REMSYN023 333 82070 91102 91201;MET008NEW NOSIEQDQ01+000000PRSWM2
0138065900999991997011220004+49617+006217SY-MT+0379ELLX V0200501N00051220001CN0030001N1-00581-00721103221ADDAG10999AY101021AY201021GF100991001001999999001001MA1102811098391MD1810011+9999MW1101OA149900151REMSYN017 333 91103 91202;MET008NEW NOSI
0144065900999991997011221004+49617+006217SY-MT+0379ELLX V0209991C00001220001CN0028001N1-00581-00751103221ADDAG10000AY101031AY201031GF100991001001999999001001MA1102811098391MD1610011+9999MW1101OA149900151REMSYN023 333 47010 91103 91202;MET008NEW NOSI
0138065900999991997011222004+49617+006217SY-MT+0379ELLX V0209991C00001220001CN0029001N1-00541-00691103241ADDAG10999AY101011AY201011GF100991001001999999001001MA1102911098411MD1310011+9999MW1101OA149900101REMSYN017 333 91102 91201;MET008NEW NOSI
0138065900999991997011223004+49617+006217SY-MT+0379ELLX V0200401N00051220001CN0034001N1-00531-00731103201ADDAG10999AY101021AY201021GF100991001001999999001001MA1102811098381MD1810011+9999MW1101OA149900101REMSYN017 333 91102 91201;MET008NEW NOSI
0120065900999991997011223504+49617+006217FM-15+0379ELLX V0200501N00101220001CN0030001N1-00601-00801103201ADDAA106000091AG10000GF100991999999999999999999MA1102811098371MW1101REMMET008NEW NOSIEQDQ01+999990APOSP Q02+999990APOSLP
0106065900999991997011301004+49617+006217SY-MT+0379ELLX V0200401N000519999999N0030001N1-00611-00791103191ADDAG10999MA1102811098351MD1710061+9999OA149900101REMSYN017 333 91102 91202;MET005NEW ;EQDQ01+000000PRSWM2
0109065900999991997011302004+49617+006217SY-MT+0379ELLX V0200401N000512200019N0035001N1-00621-00801103171ADDAG10999MA1102811098331MD1710051+9999OA149900051REMSYN017 333 91101 91201;MET008NEW NOSIEQDQ01+000000PRSWM2
0163065900999991997011303004+49617+006217SY-MT+0379ELLX V0200401N00051220001CN0035001N1-00531-00731103121ADDAG10000AY101031AY201031GF100991001001999999001001MA1102711098301MD1710071+9999MW1101OA149900101REMSYN023 333 47010 91102 91202;MET008NEW NOSIEQDQ01+000000PRSWM2
0138065900999991997011304004+49617+006217SY-MT+0379ELLX V0200501N00051220001CN0034001N1-00591-00801103101ADDAG10999AY101011AY201011GF100991001001999999001001MA1102711098271MD1710081+9999MW1101OA149900151REMSYN017 333 91103 91202;MET008NEW NOSI
0138065900999991997011305004+49617+006217SY-MT+0379ELLX V0200401N00051220001CN0030001N1-00621-00771103071ADDAG10999AY101021AY201021GF100991001001999999001001MA1102711098241MD1710091+9999MW1101OA149900101REMSYN017 333 91102 91202;MET008NEW NOSI
0260065900999991997011306004+49617+006217SY-MT+0379ELLX V0200301N00051220001CN0030001N1-00531-00701103051ADDAA106000091AG10000AJ100109199999999AY101061AY201061GA1021+060009999GF199999001001999999001001IA2999-00909KA1120N-00711MA1102711098231MD1710071+9999MW1101OA149900151REMSYN035 333 21071 3/109 47010 91103 91202;MET008NEW NOSIEQDQ01+000002SCOTCVQ02+000000PRSWM2
0179065900999991997011307004+49617+006217SY-MT+0379ELLX V0200601N00101220001CN0037001N1-00611-00791103081ADDAG10999AY101011AY201011GA1021+060009999GF103991001001999999001021MA1102711098251MD1510021+9999MW1101OA149900211REMSYN023 333 83070 91104 91202;MET008NEW NOSIEQDQ01+000000PRSWM2
0179065900999991997011308004+49617+006217SY-MT+0379ELLX V0200501N00051220001CN0035001N1-00561-00741103111ADDAG10999AY101021AY201021GA1021+060009999GF103991001001999999001021MA1102711098291MD1310051+9999MW1101OA149900151REMSYN023 333 83070 91103 91203;MET008NEW NOSIEQDQ01+000000PRSWM2
0185065900999991997011309004+49617+006217SY-MT+0379ELLX V0200501N00101220001CN0037001N1-00391-00681103091ADDAG10000AY101031AY201031GA1021+060009999GF103991001001999999001021MA1102711098301MD1210081+9999MW1101OA149900211REMSYN029 333 47010 83070 91104 91203;MET008NEW NOSIEQDQ01+000000PRSWM2
0179065900999991997011310004+49617+006217SY-MT+0379ELLX V0200701N00101220001CN0045001N1-00191-00541103071ADDAG10999AY101011AY201011GA1021+060009999GF102991001001999999001021MA1102811098311MD1210071+9999MW1101OA149900151REMSYN023 333 82070 91103 91203;MET008NEW NOSIEQDQ01+000000PRSWM2
0173065900999991997011311004+49617+006217SY-MT+0379ELLX V0200601N00151220001CN0070001N1-00011-00491103051ADDAG10999GA1021+060009999GF199999001001999999001021MA1102811098321MD1210041+9999OA149900151REMSYN023 333 81070 91103 91203;MET008NEW NOSIEQDQ01+000012SCOTCVQ02+000000PRSWM2
0190065900999991997011312004+49617+006217SY-MT+0379ELLX V0200701N00101220001CN0070001N1+00081-00441102971ADDAA106000091AG10000GA1021+060009999GF199999001001999999001021MA1102711098261MD1810041+9999OA149900211REMSYN029 333 47009 81070 91104 91203;MET008NEW NOSIEQDQ01+000012SCOTCVQ02+000000PRSWM2
0173065900999991997011313004+49617+006217SY-MT+0379ELLX V0200701N00101220001CN0060001N1+00151-00461102891ADDAG10999GA1021+060009999GF199999001001999999001021MA1102611098201MD1810111+9999OA149900151REMSYN023 333 81070 91103 91203;MET008NEW NOSIEQDQ01+000012SCOTCVQ02+000000PRSWM2
0157065900999991997011314004+49617+006217SY-MT+0379ELLX V0200601N00051220001CN0060001N1+00141-00511102871ADDAG10999GA1021+060009999GF103991001001999999001021MA1102611098181MD1710141+9999OA149900151REMSYN023 333 83070 91103 91202;MET008NEW NOSIEQDQ01+000000PRSWM2
0163065900999991997011315004+49617+006217SY-MT+0379ELLX V0200801N00051220001CN0080001N1+00071-00511102881ADDAG10000GA1021+060009999GF102991001001999999001021MA1102611098171MD1710091+9999OA149900151REMSYN029 333 47009 82070 91103 91203;MET008NEW NOSIEQDQ01+000000PRSWM2
0173065900999991997011316004+49617+006217SY-MT+0379ELLX V0200501N00051220001CN0080001N1+00101-00571102861ADDAG10999GA1021+060009999GF102991001001999999001021MA1102611098161MD1710041+9999OA149900151REMSYN023 333 82070 91103 91202;MET008NEW NOSIEQDQ01+060002VODIS Q02+000000PRSWM2
0203065900999991997011317004+49617+006217SY-MT+0379ELLX V0200501N00101220001CN0050001N1-00061-00481102901ADDAG10999AY101021AY201021GA1021+060009999GF199999001001999999001021MA1102611098171MD1510011+9999MW1101OA149900461OC100931REMSYN023 333 81070 91109 91203;MET008NEW NOSIEQDQ01+000012SCOTCVQ02+000000PRSWM2
0209065900999991997011318004+49617+006217SY-MT+0379ELLX V0200501N00101220001CN0070001N1+00011-00531102881ADDAA106000091AG10000GA1021+060009999GF199999001001999999001021KA1120M+00221MA1102611098161MD1810011+9999OA149900461REMSYN035 333 10022 47009 81070 91109 91203;MET008NEW NOSIEQDQ01+000012SCOTCVQ02+000000PRSWM2
0135065900999991997011319004+49617+006217SY-MT+0379ELLX V0200501N00101220001CN0080001N1+00041-00651102881ADDAG10999GF100991001001999999001001MA1102611098171MD1310011+9999OA149900151REMSYN017 333 91103 91202;MET008NEW NOSIEQDQ01+000000PRSWM2
0135065900999991997011320004+49617+006217SY-MT+0379ELLX V0200501N00051220001CN0080001N1-00041-00641102891ADDAG10999GF100991001001999999001001MA1102611098171MD1510001+9999OA149900101REMSYN017 333 91102 91202;MET008NEW NOSIEQDQ01+000000PRSWM2
0157065900999991997011321004+49617+006217SY-MT+0379ELLX V0200401N00101220001CN0080001N1-00051-00651102901ADDAG10000GF100991001001999999001001MA1102611098171MD1110011+9999OA149900151REMSYN023 333 47009 91103 91202;MET008NEW NOSIEQDQ01+070002VODIS Q02+000000PRSWM2
0135065900999991997011322004+49617+006217SY-MT+0379ELLX V0200501N00101220001CN0060001N1-00101-00631102881ADDAG10999GF100991001001999999001001MA1102611098151MD1810021+9999OA149900151REMSYN017 333 91103 91202;MET008NEW NOSIEQDQ01+000000PRSWM2
0135065900999991997011323004+49617+006217SY-MT+0379ELLX V0200501N00151220001CN0060001N1-00061-00681102861ADDAG10999GF100991001001999999001001MA1102611098131MD1810041+9999OA149900211REMSYN017 333 91104 91203;MET008NEW NOSIEQDQ01+000000PRSWM2
0152065900999991997011400004+49617+006217SY-MT+0379ELLX V0200401N00151220001CN0060001N1-00051-00711102831ADDAA106000091AG10000GF100991001001999999001001MA1102511098111MD1710061+9999OA149900211REMSYN023 333 47009 91104 91203;MET008NEW NOSIEQDQ01+000000PRSWM2
0106065900999991997011401004+49617+006217SY-MT+0379ELLX V0200501N00151999999CN0100001N1-00051-00751102801ADDAG10999MA1102511098081MD1710071+9999OA149900211REMSYN017 333 91104 91203;MET005NEW ;EQDQ01+000000PRSWM2
0106065900999991997011402004+49617+006217SY-MT+0379ELLX V0200601N001019999999N0100001N1-00271-00761102841ADDAG10999MA1102511098081MD1610051+9999OA149900151REMSYN017 333 91103 91203;MET005NEW ;EQDQ01+000000PRSWM2
0141065900999991997011403004+49617+006217SY-MT+0379ELLX V0200701N00101220001CN0060001N1-00391-00841102851ADDAG10000GF100991001001999999001001MA1102511098071MD1810041+9999OA149900211REMSYN023 333 47009 91104 91203;MET008NEW NOSIEQDQ01+000000PRSWM2
0135065900999991997011404004+49617+006217SY-MT+0379ELLX V0200601N00101220001CN0060001N1-00381-00711102831ADDAG10999GF100991001001999999001001MA1102511098051MD1810031+9999OA149900151REMSYN017 333 91103 91202;MET008NEW NOSIEQDQ01+000000PRSWM2
0135065900999991997011405004+49617+006217SY-MT+0379ELLX V0200901N00051220001CN0060001N1-00351-00781102821ADDAG10999GF100991001001999999001001MA1102511098051MD1610031+9999OA149900101REMSYN017 333 91102 91202;MET008NEW NOSIEQDQ01+000000PRSWM2
0206065900999991997011406004+49617+006217SY-MT+0379ELLX V0209991C00001220001CN0100001N1-00371-00821102831ADDAA106000091AG10000AJ100099199999999GF100991001001999999001001IA2999-00909KA1120N-00461MA1102511098051MD1610021+9999OA149900211REMSYN035 333 21046 3/109 47009 91104 91203;MET008NEW NOSIEQDQ01+000000PRSWM2
0157065900999991997011407004+49617+006217SY-MT+0379ELLX V0200601N00051220001CN0070001N1-00481-00841102861ADDAG10999GA1021+060009999GF102991001001999999001021MA1102511098061MD1310011+9999OA149900101REMSYN023 333 82070 91102 91201;MET008NEW NOSIEQDQ01+000000PRSWM2
0179065900999991997011408004+49617+006217SY-MT+0379ELLX V0209991C00001220001CN0045001N1-00561-00921102881ADDAG10999AY101021AY201021GA1021+060009999GF102991001001999999001021MA1102511098071MD1110011+9999MW1051OA149900101REMSYN023 333 82070 91102 91201;MET008NEW NOSIEQDQ01+000000PRSWM2
0185065900999991997011409004+49617+006217SY-MT+0379ELLX V0202401N00051220001CN0050001N1-00461-00941102851ADDAG10000AY101031AY201031GA1021+060009999GF102991001001999999001021MA1102511098061MD1110011+9999MW1051OA149900101REMSYN029 333 47009 82070 91102 91201;MET008NEW NOSIEQDQ01+000000PRSWM2
0179065900999991997011410004+49617+006217SY-MT+0379ELLX V0209991C00001220001CN0050001N1-00351-00871102861ADDAG10999AY101011AY201011GA1021+060009999GF102991001001999999001021MA1102511098081MD1310021+9999MW1051OA149900051REMSYN023 333 82070 91101 91201;MET008NEW NOSIEQDQ01+000000PRSWM2
0179065900999991997011411004+49617+006217SY-MT+0379ELLX V0202601N00051220001CN0050001N1-00201-00811102831ADDAG10999AY101021AY201021GA1021+060009999GF102991001001999999001021MA1102511098081MD1110021+9999MW1051OA149900101REMSYN023 333 82070 91102 91201;MET008NEW NOSIEQDQ01+000000PRSWM2
0212065900999991997011412004+49617+006217SY-MT+0379ELLX V0201501N00051220001CN0050001N1+00031-00721102741ADDAA106000091AG10000AY101061AY201061GA1021+060009999GF199999001001999999001011MA1102511098031MD1810031+9999MW1051OA149900101REMSYN029 333 47008 81070 91102 91201;MET008NEW NOSIEQDQ01+000012SCOTCVQ02+000000PRSWM2
0205065900999991997011413004+49617+006217SY-MT+0379ELLX V0209991C00001220001CN9999999N9+00061-00691102701ADDAG10999GA1021+060009999GF199999001001999999001011MA1102401098001MD1810081+9999OA149900101REMSYN023 333 81070 91102 91201;MET008NEW NOSIEQDQ01+000012SCOTCVQ02+060002VODIS Q03+000002VOVAR Q04+000000PRSWM2
0205065900999991997011414004+49617+006217SY-MT+0379ELLX V0202201N00051220001CN9999999N9+00041-00711102661ADDAG10999GA1021+060009999GF199999001001999999001011MA1102401097961MD1710121+9999OA149900151REMSYN023 333 81070 91103 91202;MET008NEW NOSIEQDQ01+000012SCOTCVQ02+035002VODIS Q03+000002VOVAR Q04+000000PRSWM2
0163065900999991997011415004+49617+006217SY-MT+0379ELLX V0209991V00051220001CN0035001N1+00021-00751102661ADDAG10000AY101031AY201031GF100991001001999999001001MA1102401097961MD1610071+9999MW1051OA149900151REMSYN023 333 47008 91103 91202;MET008NEW NOSIEQDQ01+000000PRSWM2
0157065900999991997011416004+49617+006217SY-MT+0379ELLX V0209991C00001220001CN0035001N1-00091-00771102701ADDAG10999AY101011AY201011GF100991001001999999001001MA1102401097981MD1510021+9999MW1051OA149900101REMSYN017 333 91102 91201;MET008NEW NOSIEQDQ01+000000PRSWM2
0157065900999991997011417004+49617+006217SY-MT+0379ELLX V0209991V00051220001CN0038001N1-00201-00771102721ADDAG10999AY101021AY201021GF100991001001999999001001MA1102401097981MD1110021+9999MW1051OA149900101REMSYN017 333 91102 91201;MET008NEW NOSIEQDQ01+000000PRSWM2
0193065900999991997011418004+49617+006217SY-MT+0379ELLX V0201201N00051220001CN0042001N1-00231-00781102731ADDAA106000091AG10000AY101061AY201061GF100991001001999999001001KA1120M+00141MA1102401097981MD1110021+9999MW1051OA149900311REMSYN029 333 10014 47008 91106 91202;MET008NEW NOSIEQDQ01+000000PRSWM2
0119065900999991997011418504+49617+006217FM-15+0379ELLX V0201901N00101220001CN0035001N1-00401-00801102761ADDAG10999GF100991999999999999999999MA1102401097981REMMET008NEW NOSIEQDQ01+999990APOSP Q02+999990APOSLPQ03+000000PRSWM2
0157065900999991997011420004+49617+006217SY-MT+0379ELLX V0209991C00001220001CN0035001N1-00381-00811102761ADDAG10999AY101021AY201021GF100991001001999999001001MA1102401097981MD1010001+9999MW1051OA149900051REMSYN017 333 91101 91201;MET008NEW NOSIEQDQ01+000000PRSWM2
0163065900999991997011421004+49617+006217SY-MT+0379ELLX V0202001N00051220001CN0035001N1-00431-00811102791ADDAG10000AY101031AY201031GF100991001001999999001001MA1102401098001MD1310021+9999MW1051OA149900151REMSYN023 333 47008 91103 91201;MET008NEW NOSIEQDQ01+000000PRSWM2
0138065900999991997011422004+49617+006217SY-MT+0379ELLX V0209991C00001220001CN0029001N1-00421-00761102751ADDAG10999AY101011AY201011GF100991001001999999001001MA1102401097971MD1810021+9999MW1051OA149900311REMSYN017 333 91106 91201;MET008NEW NOSI
0157065900999991997011423004+49617+006217SY-MT+0379ELLX V0209991V00051220001CN0035001N1-00361-00761102771ADDAG10999AY101021AY201021GF100991001001999999001001MA1102401098001MD1310021+9999MW1051OA149900101REMSYN017 333 91102 91201;MET008NEW NOSIEQDQ01+000000PRSWM2
0174065900999991997011500004+49617+006217SY-MT+0379ELLX V0201101N00051220001CN0035001N1-00391-00771102761ADDAA106000091AG10000AY101061AY201061GF100991001001999999001001MA1102401097981MD1810021+9999MW1051OA149900311REMSYN023 333 47008 91106 91201;MET008NEW NOSIEQDQ01+000000PRSWM2
0106065900999991997011501004+49617+006217SY-MT+0379ELLX V0200901N00051999999CN0046001N1-00441-00821102761ADDAG10999MA1102401097971MD1010001+9999OA149900101REMSYN017 333 91102 91201;MET005NEW ;EQDQ01+000000PRSWM2
0074065900999991997011501504+49617+006217FM-15+0379ELLX V0201001N00051999999CN0040001N1+99999+99999999999ADDAG10999MA1102401097981REMMET005NEW ;EQDQ01+999990APOSP Q02+000000PRSWM2
0109065900999991997011502504+49617+006217FM-15+0379ELLX V0202601N00051220001CN0025001N1-00601-00801102791ADDAG10000GF100991999999999999999999MA1102401097981MW1101REMMET008NEW NOSIEQDQ01+999990APOSP Q02+999990APOSLP
0144065900999991997011503004+49617+006217SY-MT+0379ELLX V0209991C00001220001CN0025001N1-00631-00831102811ADDAG10000AY101031AY201031GF100991001001999999001001MA1102401097991MD1510001+9999MW1101OA149900101REMSYN023 333 47008 91102 91201;MET008NEW NOSI
0109065900999991997011503504+49617+006217FM-15+0379ELLX V0209991V00051220001CN0025001N1-00701-00801102811ADDAG10999GF100991999999999999999999MA1102401097981MW1101REMMET008NEW NOSIEQDQ01+999990APOSP Q02+999990APOSLP
0138065900999991997011505004+49617+006217SY-MT+0379ELLX V0202001N00051220001CN0030001N1-00631-00861102811ADDAG10999AY101021AY201021GF100991001001999999001001MA1102401097991MD1010001+9999MW1101OA149900051REMSYN017 333 91101 91201;MET008NEW NOSI
0262065900999991997011506004+49617+006217FM-12+0379ELLX V0209991C00001220001CN0030001N1+99999+99999102871ADDAA106000091AG10000AJ100089199999999AY101061AY201061GA1001+999999999GF100991001001999999001001IA2999-01309KA1120N-00751MA1102441098021MD1310031+9999MW1101OA149900101REMSYN035 333 21075 3/113 47008 91102 91201;EQDQ01+018573ATOT  Q02+999990APOA  Q03 -08753ATOT  
0209065900999991997011506004+49617+006217SY-MT+0379ELLX V0209991C00001220001CN0030001N1-00751-00941102871ADDAA106000091AG10000AJ100089199999999AY101061AY201061GF100991001001999999001001IA2999-01309KA1120N-00751MA1102511098021MD1310031+9999MW1101OA149900101REMSYN035 333 21075 3/113 47008 91102 91201;MET008NEW NOSI
0159065900999991997011507004+49617+006217FM-12+0379ELLX V0209991C00001220001CN0035001N1-00631-00861102851ADDAG10999AY101011AY201011GA1001+999999999GF100991001001999999001001MA1102471098031MD1310021+9999MW1101OA149900051REMSYN017 333 91101 91201;EQDQ01+999990APOA  
0195065900999991997011508004+49617+006217SY-MT+0379ELLX V0209991C00001220001CN0035001N1-00611-00851102901ADDAG10999AY101021AY201021GA1021+060009999GF199999001001999999001011MA1102511098081MD1210091+9999MW1101OA149900101REMSYN023 333 81070 91102 91201;MET008NEW NOSIEQDQ01+000012SCOTCVQ02+000000PRSWM2
0185065900999991997011509004+49617+006217SY-MT+0379ELLX V0209991C00001220001CN0035001N1-00441-00781102871ADDAG10000AY101031AY201031GA1021+060009999GF103991001001999999001011MA1102511098081MD1210071+9999MW1051OA149900101REMSYN029 333 47008 83070 91102 91201;MET008NEW NOSIEQDQ01+000000PRSWM2
0157065900999991997011510004+49617+006217SY-MT+0379ELLX V0209991C00001220001CN0035001N1-00301-00771102881ADDAG10999AY101011AY201011GF100991001001999999001001MA1102511098111MD1210091+9999MW1051OA149900211REMSYN017 333 91104 91201;MET008NEW NOSIEQDQ01+000000PRSWM2
0195065900999991997011511004+49617+006217SY-MT+0379ELLX V0209991V00051220001CN0035001N1-00141-00691102851ADDAG10999AY101021AY201021GA1021+060009999GF199999001001999999001011MA1102511098111MD1110041+9999MW1051OA149900051REMSYN023 333 81070 91101 91201;MET008NEW NOSIEQDQ01+000012SCOTCVQ02+000000PRSWM2
0174065900999991997011512004+49617+006217SY-MT+0379ELLX V0209991V00051220001CN0035001N1+00041-00651102801ADDAA106000091AG10000AY101061AY201061GF100991001001999999001001MA1102511098091MD1010011+9999MW1051OA149900211REMSYN023 333 47008 91104 91201;MET008NEW NOSIEQDQ01+000000PRSWM2
0157065900999991997011513004+49617+006217SY-MT+0379ELLX V0209991V00051220001CN0035001N1+00071-00661102771ADDAG10999AY101011AY201011GF100991001001999999001001MA1102511098071MD1810041+9999MW1051OA149900151REMSYN017 333 91103 91201;MET008NEW NOSIEQDQ01+000000PRSWM2
0138065900999991997011514004+49617+006217SY-MT+0379ELLX V0201601N00051220001CN0030001N1+00051-00641102741ADDAG10999AY101021AY201021GF100991001001999999001001MA1102511098041MD1710071+9999MW1051OA149900151REMSYN017 333 91103 91201;MET008NEW NOSI
0144065900999991997011515004+49617+006217SY-MT+0379ELLX V0209991C00001220001CN0030001N1+00081-00611102711ADDAG10000AY101031AY201031GF100991001001999999001001MA1102401098011MD1710081+9999MW1051OA149900261REMSYN023 333 47007 91105 91201;MET008NEW NOSI
0138065900999991997011516004+49617+006217SY-MT+0379ELLX V0209991C00001220001CN0028001N1-00011-00651102741ADDAG10999AY101011AY201011GF100991001001999999001001MA1102511098031MD1510041+9999MW1051OA149900051REMSYN017 333 91101 91200;MET008NEW NOSI
0138065900999991997011517004+49617+006217SY-MT+0379ELLX V0209991C00001220001CN0028001N1-00161-00651102781ADDAG10999AY101021AY201021GF100991001001999999001001MA1102511098041MD1510001+9999MW1051OA149900051REMSYN017 333 91101 91201;MET008NEW NOSI
0174065900999991997011518004+49617+006217SY-MT+0379ELLX V0209991C00001220001CN0028001N1-00141-00651102791ADDAA106000091AG10000AY101061AY201061GF100991001001999999001001KA1120M+00281MA1102511098051MD1210041+9999MW1051OA149900261REMSYN029 333 10028 47007 91105 91201;MET008NEW NOSI
0138065900999991997011519004+49617+006217SY-MT+0379ELLX V0209991C00001220001CN0030001N1-00081-00621102771ADDAG10999AY101011AY201011GF100991001001999999001001MA1102511098041MD1010011+9999MW1051OA149900051REMSYN017 333 91101 91201;MET008NEW NOSI
0138065900999991997011520004+49617+006217SY-MT+0379ELLX V0209991V00051220001CN0030001N1-00111-00641102771ADDAG10999AY101021AY201021GF100991001001999999001001MA1102511098041MD1010001+9999MW1051OA149900051REMSYN017 333 91101 91201;MET008NEW NOSI
0144065900999991997011521004+49617+006217SY-MT+0379ELLX V0200801N00051220001CN0030001N1-00121-00631102781ADDAG10000AY101031AY201031GF100991001001999999001001MA1102511098051MD1510001+9999MW1051OA149900151REMSYN023 333 47007 91103 91201;MET008NEW NOSI
0138065900999991997011522004+49617+006217SY-MT+0379ELLX V0200901N00051220001CN0030001N1-00091-00611102761ADDAG10999AY101011AY201011GF100991001001999999001001MA1102511098031MD1810011+9999MW1051OA149900101REMSYN017 333 91102 91201;MET008NEW NOSI
0138065900999991997011523004+49617+006217SY-MT+0379ELLX V0209991V00051220001CN0030001N1-00171-00631102781ADDAG10999AY101021AY201021GF100991001001999999001001MA1102511098041MD1510001+9999MW1051OA149900101REMSYN017 333 91102 91201;MET008NEW NOSI
0120065900999991997011523504+49617+006217FM-15+0379ELLX V0200601N00101220001CN0030001N1-00101-00601102801ADDAA106000091AG10000GF100991999999999999999999MA1102511098071MW1051REMMET008NEW NOSIEQDQ01+999990APOSP Q02+999990APOSLP
