0106065900999991995010100004+49617+006217SY-MT+0379ELLX V0202301N00671999999CN0100001N1+00331+00151099581ADDAG10000MA1099391999999MD1710021+9999OA149901031REMSYN017 333 91120 91214;MET005NEW ;EQDQ01+000000PRSWM2
0106065900999991995010101004+49617+006217SY-MT+0379ELLX V0202501N00721999999CN0100001N1+00331+00151099571ADDAG10999MA1099391999999MD1710021+9999OA149901031REMSYN017 333 91120 91214;MET005NEW ;EQDQ01+000000PRSWM2
0058065900999991995010101204+49617+006217FM-15+0379ELLX V0202701N00511999999CN0112651N1+00301+00101999999ADDAG10999MA1099391999999REMMET005NEW ;EQDQ01+000000PRSWM2
0106065900999991995010102004+49617+006217SY-MT+0379ELLX V0202801N004619999999N0100001N1+00311+00131099661ADDAG10999MA1099491999999MD1210061+9999OA149901031REMSYN017 333 91120 91214;MET005NEW ;EQDQ01+000000PRSWM2
0061065900999991995010103004+49617+006217FM-12+0379ELLX V0203201N004119999999N0100001N1+00201+00021099801ADDAG10000MD1210201+9999OA149901031REMSYN017 333 91120 91214;
0106065900999991995010104004+49617+006217SY-MT+0379ELLX V0203201N00311999999CN0100001N1+00161-00021099891ADDAG10999MA1099701999999MD1210281+9999OA149900721REMSYN017 333 91114 91208;MET005NEW ;EQDQ01+000000PRSWM2
0206065900999991995010106004+49617+006217SY-MT+0379ELLX V0209991V00261004501CN0200001N1+00101-00081100111ADDAG10000GA1071+004509999GF107991999999004501999999IA1099IA2999-00109KA1120N+00061MA1099901999999MD1210281+9999OA149901031REMSYN041 333 20006 31101 87615 91120 91214 94000;MET008NEW NOSIEQDQ01+000000PRSWM2
0157065900999991995010107004+49617+006217SY-MT+0379ELLX V0202901N00311004501CN0200001N1+00131-00051100241ADDAG10999GA1071+004509999GF107991071051004501999999MA1100001999999MD1210321+9999OA149900721REMSYN023 333 87615 91114 91207;MET008NEW NOSIEQDQ01+000000PRSWM2
0179065900999991995010108004+49617+006217SY-MT+0379ELLX V0202901N00361004501CN0180001N1+00121-00101100321ADDAG10999GA1021+003609999GA2071+004509999GF107991071081004501999999MA1100101999999MD1210291+9999OA149900671REMSYN029 333 82812 85615 91113 91208;MET008NEW NOSIEQDQ01+000000PRSWM2
0179065900999991995010109004+49617+006217SY-MT+0379ELLX V0202701N00461006001CN0200001N1+00111-00151100421ADDAG10000GA1021+004509999GA2071+006009999GF107991071081004501999999MA1100201999999MD1210291+9999OA149900821REMSYN029 333 83815 85620 91116 91210;MET008NEW NOSIEQDQ01+000000PRSWM2
0182065900999991995010110004+49617+006217SY-MT+0379ELLX V0202801N00461004501CN0120001N1+00121-00141100511ADDAG10999AW1851AZ121011AZ221011GA1021+002409999GA2071+004509999GF107991071081002501999999MA1100311999999MD1210271+9999OA149900881REMSYN029 333 84708 86815 91117 91211;MET008NEW NOSI
0201065900999991995010111004+49617+006217SY-MT+0379ELLX V0202801N00571002401CN0150001N1+00151-00111100551ADDAG10999AW1261AZ121021AZ221021GA1071+002409999GA2071+004509999GF107991071081002501999999MA1100311999999MD1210231+9999OA149901031REMSYN029 333 85708 86815 91120 91211;MET008NEW NOSIEQDQ01+000000PRSWM2
0250065900999991995010112004+49617+006217SY-MT+0379ELLX V0202801N00621012001CN0200001N1+00151-00281100561ADDAA106000191AG10001AW1021AZ181061AZ221061GA1021+002409999GA2021+006009999GA3071+012009999GF199999061081002501001001MA1100311999999MD1210151+9999OA149901081REMSYN035 333 82708 83820 85640 91121 91213;MET008NEW NOSIEQDQ01+000062SCOTCVQ02+000000PRSWM2
0195065900999991995010113004+49617+006217SY-MT+0379ELLX V0202801N00461006001CN0180001N1+00091-00411100551ADDAG10999GA1071+006009999GA2021+013509999GF199999061081008001001001MA1100311999999MD1210041+9999OA149901031REMSYN029 333 85820 83645 91120 91212;MET008NEW NOSIEQDQ01+000062SCOTCVQ02+000000PRSWM2
0201065900999991995010114004+49617+006217SY-MT+0379ELLX V0202901N00511007501CN0100001N1-00041-00521100631ADDAG10999AW1261AZ181021AZ221021GA1071+007509999GA2021+013509999GF107991071081008001999999MA1100411999999MD1210061+9999OA149901241REMSYN029 333 85825 84645 91124 91215;MET008NEW NOSIEQDQ01+000000PRSWM2
0179065900999991995010115004+49617+006217SY-MT+0379ELLX V0202701N00621012001CN0100001N1+00021-00661100701ADDAG10001AW1021AZ181031AZ221031GA1071+012009999GF107991071081012501999999MA1100511999999MD1210121+9999OA149901291REMSYN023 333 86840 91125 91215;MET008NEW NOSIEQDQ01+000000PRSWM2
0157065900999991995010116004+49617+006217SY-MT+0379ELLX V0202701N00571090001CN0100001N1-00061-00741100741ADDAG10999GA1021+009009999GF105991041081008001001021MA1100511999999MD1210151+9999OA149901291REMSYN023 333 83830 91125 91214;MET008NEW NOSIEQDQ01+000000PRSWM2
0173065900999991995010117004+49617+006217SY-MT+0379ELLX V0202601N00571012001CN0150001N1-00071-00671100791ADDAG10999GA1071+012009999GF199999061081012501001001MA1100511999999MD1210131+9999OA149900981REMSYN023 333 85840 91119 91212;MET008NEW NOSIEQDQ01+000062SCOTCVQ02+000000PRSWM2
0225065900999991995010118004+49617+006217SY-MT+0379ELLX V0202601N00621009901CN0150001N1-00101-00691100821ADDAA199000391AG10001AW1021AZ181061AZ221061GA1071+009909999GF199999061081008001001001KA1120M+00191MA1100511999999MD1210091+9999OA149901291REMSYN029 333 10019 86833 91125 91215;MET008NEW NOSIEQDQ01+000062SCOTCVQ02+000000PRSWM2
0157065900999991995010119004+49617+006217SY-MT+0379ELLX V0202501N00621009901CN0150001N1-00121-00691100821ADDAG10999GA1071+009909999GF107991071051008001999999MA1100511999999MD1210071+9999OA149901031REMSYN023 333 87633 91120 91213;MET008NEW NOSIEQDQ01+000000PRSWM2
0217065900999991995010120004+49617+006217SY-MT+0379ELLX V0202601N00571004801CN0150001N1-00141-00621100871ADDAG10999AW1261AZ121021AZ221021GA1071+004809999GA2021+009909999GF199999061081004501001001MA1100611999999MD1210081+9999OA149901181REMSYN029 333 85816 83633 91123 91214;MET008NEW NOSIEQDQ01+000062SCOTCVQ02+000000PRSWM2
0217065900999991995010121004+49617+006217SY-MT+0379ELLX V0202501N00511007501CN0150001N1-00151-00471100841ADDAG10001AW1021AZ181031AZ221031GA1021+002709999GA2071+007509999GF199999061081002501001001MA1100611999999MD1210021+9999OA149901181REMSYN029 333 83709 85825 91123 91214;MET008NEW NOSIEQDQ01+000062SCOTCVQ02+000000PRSWM2
0179065900999991995010122004+49617+006217SY-MT+0379ELLX V0202501N00411006001CN0200001N1-00151-00431100861ADDAG10999GA1021+002409999GA2021+007509999GF106991061081002501001001MA1100611999999MD1210041+9999OA149900721REMSYN029 333 84708 84825 91114 91210;MET008NEW NOSIEQDQ01+000000PRSWM2
0154065900999991995010123004+49617+006217SY-MT+0379ELLX V0202501N00411004501CN0200001N1-00201-00471100921ADDAG10999GA1051+004509089GF105991051081004501001001MA1100611999999MD1210041+9999OA149900621REMSYN023 333 85815 91112 91208;MET005NEW ;EQDQ01+000000PRSWM2
0206065900999991995010200004+49617+006217SY-MT+0379ELLX V0202601N00411006001CN0200001N1-00241-00501100921ADDAA106999929AG10001AW1021AZ181061AZ221061GA1071+006009999GF199999051081008001001001MA1100611999999MD1210071+9999OA149901181REMSYN023 333 85820 91123 91214;MET008NEW NOSIEQDQ01+000052SCOTCVQ02+000000PRSWM2
0106065900999991995010201004+49617+006217SY-MT+0379ELLX V0202701N00461999999CN0100001N1-00271-00531100911ADDAG10999MA1100611999999MD1210031+9999OA149900821REMSYN017 333 91116 91209;MET005NEW ;EQDQ01+000000PRSWM2
0106065900999991995010202004+49617+006217SY-MT+0379ELLX V0202701N00311999999CN0100001N1-00251-00511100951ADDAG10999MA1100711999999MD1210011+9999OA149900821REMSYN017 333 91116 91210;MET005NEW ;EQDQ01+000000PRSWM2
0179065900999991995010203004+49617+006217SY-MT+0379ELLX V0202801N00461004501CN0060001N1-00181-00451100941ADDAG10000GA1021+003009999GA2071+004509999GF107991071051004501999999MA1100711999999MD1210011+9999OA149900821REMSYN029 333 84710 86615 91116 91210;MET008NEW NOSIEQDQ01+000000PRSWM2
0179065900999991995010204004+49617+006217SY-MT+0379ELLX V0202901N00511006001CN0080001N1-00111-00361100981ADDAG10999GA1021+003009999GA2071+006009999GF107991071051004501999999MA1100711999999MD1210071+9999OA149901031REMSYN029 333 82710 86620 91120 91212;MET008NEW NOSIEQDQ01+000000PRSWM2
0179065900999991995010205004+49617+006217SY-MT+0379ELLX V0202901N00511006001CN0100001N1-00131-00501101041ADDAG10999GA1021+003009999GA2071+006009999GF107991071051004501999999MA1100811999999MD1210101+9999OA149901031REMSYN029 333 82710 86620 91120 91211;MET008NEW NOSIEQDQ01+000000PRSWM2
0228065900999991995010206004+49617+006217SY-MT+0379ELLX V0202801N00511006001CN0100001N1-00131-00531101111ADDAG10000GA1021+003009999GA2071+006009999GF107991999999004501999999IA1149IA2999-00409KA1120N-00271MA1100811999999MD1210161+9999OA149901081REMSYN047 333 21027 34104 81710 86620 91121 91213 94000;MET008NEW NOSIEQDQ01+000000PRSWM2
0195065900999991995010207004+49617+006217SY-MT+0379ELLX V0202801N00671006001CN0100001N1-00121-00521101181ADDAG10999GA1021+003009999GA2071+006009999GF199999061081004501001001MA1100911999999MD1210181+9999OA149901181REMSYN029 333 81710 85620 91123 91213;MET008NEW NOSIEQDQ01+000062SCOTCVQ02+000000PRSWM2
0179065900999991995010208004+49617+006217SY-MT+0379ELLX V0202701N00511006001CN0100001N1-00161-00581101241ADDAG10999GA1021+003909999GA2071+006009999GF107991071081004501999999MA1100911999999MD1210181+9999OA149901081REMSYN029 333 84813 86620 91121 91213;MET008NEW NOSIEQDQ01+000000PRSWM2
0204065900999991995010209004+49617+006217SY-MT+0379ELLX V0202601N00511004201CN0031001N1-00171-00521101351ADDAG10000AW1851AZ121031AZ221031GA1021+002109999GA2071+004209999GA3071+007509999GF107991071081002501999999MA1101021999999MD1210221+9999OA149901181REMSYN035 333 83707 85814 86625 91123 91213;MET008NEW NOSI
0201065900999991995010210004+49617+006217SY-MT+0379ELLX V0202601N00621002401CN0070001N1-00191-00421101451ADDAG10999AW1261AZ121011AZ221011GA1071+002409999GA2071+004509999GF107991071081002501999999MA1101081999999MD1210251+9999OA149901031REMSYN029 333 85708 85815 91120 91212;MET008NEW NOSIEQDQ01+000000PRSWM2
0091065900999991995010211004+49617+006217FM-15+0379ELLX V0202801N00511001501CN0010001N1-00101-00301999999ADDAG10999ED199U11009GA1021+000909999GA2071+001509999MA1101081999999MW1711REMMET008NEW NOSI
0212065900999991995010212004+49617+006217SY-MT+0379ELLX V0202801N00571002101CN0060001N1-00051-00211101451ADDAA106000591AG10001AW1261AZ181061AZ221061GA1071+002109999GA2071+004509999GF107991071081002501999999MA1101081999999MD1210101+9999OA149901181REMSYN029 333 85707 85815 91123 91213;MET008NEW NOSIEQDQ01+000000PRSWM2
0201065900999991995010213004+49617+006217SY-MT+0379ELLX V0202801N00621002101CN0032001N1+00001-00161101501ADDAG10999AW1261AZ121011AZ221011GA1071+002109999GA2071+003909999GF107991071081002501999999MA1101191999999MD1210061+9999OA149901081REMSYN029 333 85707 86813 91121 91212;MET008NEW NOSIEQDQ01+000000PRSWM2
0210065900999991995010214004+49617+006217SY-MT+0379ELLX V0202901N00461002101CN0025001N1+00031-00151101551ADDAG10999AW1851AZ181021AZ221021GA1071+002109999GA2071+003909999GA3071+006009999GF107991071081002501999999MA1101291999999MD1210101+9999MW1101OA149901131REMSYN035 333 85707 86813 86620 91122 91212;MET008NEW NOSI
0188065900999991995010215004+49617+006217SY-MT+0379ELLX V0202901N00571003601CN0035001N1+00051-00111101631ADDAG10001AW1851AZ181031AZ221031GA1071+003609999GA2071+006609999GF108991071081004501999999MA1101291999999MD1210191+9999OA149901131REMSYN035 333 43001 86812 87622 91122 91212;MET008NEW NOSI
0196065900999991995010216004+49617+006217SY-MT+0379ELLX V0202901N00411003601CN0100001N1+00051-00131101701ADDAG10999AW1261AZ121011AZ221011GA1071+003609999GA2071+006609999GF107991071081004501999999MD1210211+9999OA149901181REMSYN029 333 86812 87622 91123 91212;MET018NEW 1 Q1014 NOSIG;EQDQ01+000000PRSWM2
0179065900999991995010217004+49617+006217SY-MT+0379ELLX V0203101N00361003601CN0100001N1+00061-00191101821ADDAG10999GA1071+003609999GA2071+005409999GF107991071081004501999999MA1101491999999MD1210271+9999OA149900881REMSYN029 333 85812 87618 91117 91209;MET008NEW NOSIEQDQ01+000000PRSWM2
0218065900999991995010218004+49617+006217SY-MT+0379ELLX V0203101N00461004501CN0100001N1+00081-00191101911ADDAA199001091AG10001AW1021AZ181061AZ221061GA1071+004509999GA2071+006009999GF107991071081004501999999MA1101591999999MD1210271+9999OA149901181REMSYN035 333 43001 85815 87620 91123 91212;MET008NEW NOSIEQDQ01+000000PRSWM2
0179065900999991995010219004+49617+006217SY-MT+0379ELLX V0203101N00411004501CN0100001N1+00041-00261102031ADDAG10999GA1071+004509999GA2071+006009999GF107991071081004501999999MA1101691999999MD1210311+9999OA149900821REMSYN029 333 85815 87620 91116 91210;MET008NEW NOSIEQDQ01+000000PRSWM2
0210065900999991995010220004+49617+006217SY-MT+0379ELLX V0203201N00361003601CN0030001N1+00001-00191102161ADDAG10999AW1851AZ181021AZ221021GA1021+002409999GA2071+003609999GA3071+005109999GF107991071081002501999999MA1101901999999MD1210321+9999MW1101OA149900721REMSYN035 333 84708 85812 87612 91114 91208;MET008NEW NOSI
0223065900999991995010221004+49617+006217SY-MT+0379ELLX V0203201N00361012001CN0120001N1+00031-00221102261ADDAG10001AW1261AZ181031AZ221031GA1021+005109999GA2071+012009999GF199999061081004501999999MA1102001999999MD1210321+9999OA149900821REMSYN035 333 43001 84817 85640 91116 91210;MET008NEW NOSIEQDQ01+000062SCOTCVQ02+000000PRSWM2
0223065900999991995010222004+49617+006217SY-MT+0379ELLX V0203401N00311012001CN0100001N1+00021-00201102351ADDAG10999AW1851AZ121011AZ221011GA1021+002709999GA2021+004509999GA3071+012009999GF199999061081002501999999MA1102101999999MD1210301+9999OA149900821REMSYN035 333 82709 84815 86640 91116 91208;MET008NEW NOSIEQDQ01+000062SCOTCV
0157065900999991995010223004+49617+006217SY-MT+0379ELLX V0203201N00311220001CN0150001N1+00011-00181102421ADDAG10999GA1021+003609999GF102991021051004501001001MA1102101999999MD1210251+9999OA149900671REMSYN023 333 82612 91113 91207;MET008NEW NOSIEQDQ01+000000PRSWM2
0212065900999991995010300004+49617+006217SY-MT+0379ELLX V0203301N00361013501CN0150001N1-00011-00181102461ADDAA106000191AG10001AW1031AZ181061AZ211061GA1071+013509999GF199999061051012501999999MA1102201999999MD1210201+9999OA149900821REMSYN029 333 43001 86645 91116 91210;MET008NEW NOSIEQDQ01+000062SCOTCVQ02+000000PRSWM2
0058065900999991995010301204+49617+006217FM-15+0379ELLX V0203501N00311999999CN0112651N1+00001-00201999999ADDAG10999MA1102301999999REMMET005NEW ;EQDQ01+000000PRSWM2
0106065900999991995010302004+49617+006217SY-MT+0379ELLX V0209991V00211999999CN0100001N1-00021-00191102611ADDAG10999MA1102401999999MD1210191+9999OA149900511REMSYN017 333 91110 91206;MET005NEW ;EQDQ01+000000PRSWM2
0169065900999991995010303004+49617+006217SY-MT+0379ELLX V0209991V00211011401CN0150001N1-00021-00181102691ADDAG10000GA1071+011409999GF107991071051008001999999MA1102401999999MD1210231+9999OA149900671REMSYN035 333 43001 85620 87640 91113 91207;MET008NEW NOSIEQDQ01+000000PRSWM2
0173065900999991995010304004+49617+006217SY-MT+0379ELLX V0209991V00211011401CN0120001N1-00021-00161102721ADDAG10999GA1071+011409999GF199999061051012501999999MA1102401999999MD1210171+9999OA149900411REMSYN023 333 86638 91108 91205;MET008NEW NOSIEQDQ01+000062SCOTCVQ02+000000PRSWM2
0080065900999991995010305204+49617+006217FM-15+0379ELLX V0203501N00261005101CN0050001N1+00001-00201999999ADDAG10999GA1071+005109999GA2071+012009999MA1102511999999MW1711REMMET008NEW NOSI
0278065900999991995010306004+49617+006217SY-MT+0379ELLX V0200101N00261010801CN0150001N1-00041-00181102851ADDAA199000191AG10000AJ100019199999999AW1261AZ121061AZ221061GA1021+004509999GA2071+010809999GF107991071081004501999999IA2999-00309KA1120N-00081MA1102611999999MD1210151+9999OA149900671REMSYN053 333 21008 3/103 43001 83815 87636 91113 91207 94002;MET008NEW NOSIEQDQ01+000000PRSWM2
0173065900999991995010307004+49617+006217SY-MT+0379ELLX V0209991V00151010501CN0150001N1-00071-00351102941ADDAG10999GA1021+006609999GA2071+010509999GF107991071051012501999999MA1102711999999MD1210201+9999OA149900361REMSYN023 333 87640 91107 91205;MET008NEW NOSIEQDQ01+000003PRSWM1
0182065900999991995010308004+49617+006217SY-MT+0379ELLX V0200401N00361010501CN0040001N1-00101-00351103031ADDAG10999AW1851AZ121021AZ221021GA1021+006609999GA2071+010509999GF107991071081008001999999MA1102711999999MD1210221+9999OA149900621REMSYN029 333 84822 87635 91112 91209;MET008NEW NOSI
0166065900999991995010309004+49617+006217SY-MT+0379ELLX V0209991V00101006001CN0080001N1-00091-00371103051ADDAG10001AW1701AZ181031AZ221031GA1071+006009999GF108991071051008001999999MA1102811999999MD1210191+9999OA149900621REMSYN029 333 43001 87620 91112 91209;MET008NEW NOSI
0201065900999991995010310004+49617+006217SY-MT+0379ELLX V0209991V00101012001CN0060001N1+00011-00381103121ADDAG10999AW1851AZ171011AZ221011GA1021+007509999GA2071+012009999GF199999061081008001001001MA1102811999999MD1210181+9999OA149900311REMSYN029 333 83825 85640 91106 91203;MET008NEW NOSIEQDQ01+000062SCOTCV
0182065900999991995010311004+49617+006217SY-MT+0379ELLX V0200401N00311006001CN0080001N1-00021-00461103131ADDAG10999AW1851AZ181021AZ221021GA1021+003009999GA2071+006009999GF107991071081004501999999MA1102811999999MD1210111+9999OA149900571REMSYN029 333 82710 85820 91111 91208;MET008NEW NOSI
0234065900999991995010312004+49617+006217SY-MT+0379ELLX V0200601N00261006001CN0100001N1-00091-00361103161ADDAA106999929AG10001AW1261AZ181061AZ271061GA1021+002709999GA2071+006009999GF199999061081002501001001MA1102911999999MD1210101+9999OA149900621REMSYN035 333 43001 83709 85820 91112 91209;MET008NEW NOSIEQDQ01+000062SCOTCVQ02+000000PRSWM2
0157065900999991995010313004+49617+006217SY-MT+0379ELLX V0209991V00101012001CN0150001N1-00071-00551103121ADDAG10999GA1021+007509999GF106991051081008001031021MA1102811999999MD1710011+9999OA149900361REMSYN023 333 84825 91107 91205;MET008NEW NOSIEQDQ01+000000PRSWM2
0157065900999991995010314004+49617+006217SY-MT+0379ELLX V0200501N00211012001CN0150001N1-00011-00511103141ADDAG10999GA1021+009009999GF106991051081008001031021MA1102811999999MD1410001+9999OA149900461REMSYN023 333 84830 91109 91205;MET008NEW NOSIEQDQ01+000000PRSWM2
0207065900999991995010315004+49617+006217SY-MT+0379ELLX V0200401N00311009001CN0150001N1-00071-00461103161ADDAG10001AW1261AZ181031AZ221031GA1021+004509999GA2021+010509999GF106991051081004501031021MA1102911999999MD1410001+9999OA149900461REMSYN035 333 43001 83815 84635 91109 91206;MET008NEW NOSIEQDQ01+000000PRSWM2
0179065900999991995010316004+49617+006217SY-MT+0379ELLX V0200401N00361012001CN0200001N1-00151-00501103191ADDAG10999GA1021+006009999GA2021+012609999GF105991051081008001031021MA1102911999999MD1210061+9999OA149900461REMSYN029 333 82820 84642 91109 91207;MET008NEW NOSIEQDQ01+000000PRSWM2
0157065900999991995010317004+49617+006217SY-MT+0379ELLX V0200201N00261220001CN0200001N1-00211-00481103231ADDAG10999GA1021+013509999GF103991031051012501001001MA1102911999999MD1210071+9999OA149900461REMSYN023 333 83645 91109 91207;MET008NEW NOSIEQDQ01+000000PRSWM2
0143065900999991995010319004+49617+006217SY-MT+0379ELLX V0200401N00311220001CN0200001N1-00201-00571103271ADDAG10999GF100991001001999999001001MA1103011999999MD1210071+9999OA149900461REMSYN017 333 91109 91206;MET016NEW CAVOK NOSIG;EQDQ01+000000PRSWM2
0157065900999991995010320004+49617+006217SY-MT+0379ELLX V0200401N00361010801CN0200001N1-00171-00491103301ADDAG10999GA1071+010809999GF107991071051012501999999MA1103011999999MD1210071+9999OA149900511REMSYN023 333 87636 91110 91207;MET008NEW NOSIEQDQ01+000000PRSWM2
0163065900999991995010321004+49617+006217SY-MT+0379ELLX V0200501N00261010801CN0180001N1-00201-00501103301ADDAG10000GA1071+010809999GF107991071051012501999999MA1103011999999MD1210041+9999OA149900511REMSYN029 333 43001 87636 91110 91208;MET008NEW NOSIEQDQ01+000000PRSWM2
0173065900999991995010322004+49617+006217SY-MT+0379ELLX V0200501N00311010801CN0150001N1-00251-00511103321ADDAG10999GA1071+010809999GF199999061051012501999999MA1103011999999MD1210051+9999OA149900511REMSYN023 333 86636 91110 91206;MET008NEW NOSIEQDQ01+000062SCOTCVQ02+000000PRSWM2
0157065900999991995010323004+49617+006217SY-MT+0379ELLX V0200201N00151220001CN0120001N1-00351-00571103331ADDAG10999GA1021+012009999GF102991021051012501001001MA1103011999999MD1210021+9999OA149900461REMSYN023 333 82640 91109 91206;MET008NEW NOSIEQDQ01+000000PRSWM2
0174065900999991995010400004+49617+006217SY-MT+0379ELLX V0200401N00211220001CN0090001N1-00381-00551103341ADDAA106000091AG10000GA1021+012009999GF102991021051012501001001MA1103011999999MD1210031+9999OA149900511REMSYN029 333 43001 82640 91110 91208;MET008NEW NOSIEQDQ01+000000PRSWM2
0106065900999991995010401004+49617+006217SY-MT+0379ELLX V0200601N00311999999CN0090001N1-00321-00461103311ADDAG10999MA1103011999999MD1710021+9999OA149900411REMSYN017 333 91108 91206;MET005NEW ;EQDQ01+000000PRSWM2
0117065900999991995010402004+49617+006217SY-MT+0379ELLX V0200601N003619999999N0012001N1-00361-00501103341ADDAG10999ED199U20009MA1103011999999MD1210011+9999OA149900621REMSYN017 333 91112 91209;MET005NEW ;EQDQ01+000000PRSWM2
0141065900999991995010403004+49617+006217SY-MT+0379ELLX V0200501N00311220001CN0080001N1-00421-00531103351ADDAG10000GF100991001001999999001001MA1103011999999MD1410001+9999OA149900621REMSYN023 333 43001 91112 91209;MET008NEW NOSIEQDQ01+000000PRSWM2
0154065900999991995010404004+49617+006217SY-MT+0379ELLX V0209991V00211220001CN0060001N1-00471-00571103311ADDAG10999GA1021+000609079GF102991021061000751001001MA1103011999999MD1710021+9999OA149900411REMSYN023 333 82702 91108 91206;MET005NEW ;EQDQ01+000000PRSWM2
0157065900999991995010405004+49617+006217SY-MT+0379ELLX V0200101N00261220001CN0060001N1-00521-00621103321ADDAG10999GA1021+001509999GF102991021061001501001001MA1103011999999MD1710061+9999OA149900461REMSYN023 333 82705 91109 91205;MET008NEW NOSIEQDQ01+000000PRSWM2
0234065900999991995010406004+49617+006217SY-MT+0379ELLX V0200201N00211220001CN0080001N1-00561-00671103341ADDAA106000091AG10000AJ100019199999999GA1021+001509999GF102991021061001501001001IA2999-00809KA1120N-00561MA1103011999999MD1710031+9999OA149900621REMSYN047 333 21056 3/108 43001 82705 91112 91209 94020;MET008NEW NOSIEQDQ01+000000PRSWM2
0183065900999991995010407004+49617+006217SY-MT+0379ELLX V0209991V00211220001CN0080001N1-00581-00671103341ADDAG10999GA1021+000909999GF199999001001999999001001MA1103011999999MD1210011+9999OA149900411REMSYN017 333 91108 91205;MET008NEW NOSIEQDQ01+000002SCOTCVQ02+000992SCOLCBQ03+000000PRSWM2
0088065900999991995010407504+49617+006217FM-15+0379ELLX V0200601N00261220001CN0040001N1-00601-00801999999ADDAG10999GA1021+001509999MA1103011999999REMMET019NEW NOSIG 0679//47;EQDQ01+000000PRSWM2
0201065900999991995010409004+49617+006217SY-MT+0379ELLX V0200601N00261220001CN0050001N1-00561-00801103401ADDAG10000AW1101AZ101031AZ201031GA1021+001509999GF199999011061001501001001MA1103011999999MD1210061+9999OA149900511REMSYN029 333 42001 81705 91110 91207;MET008NEW NOSIEQDQ01+000012SCOTCVQ02+000000PRSWM2
0173065900999991995010410004+49617+006217SY-MT+0379ELLX V0200601N00261220001CN0080001N1-00411-00861103381ADDAG10999GA1021+001809999GF199999011061001501001001MA1103011999999MD1210051+9999OA149900411REMSYN023 333 81706 91108 91206;MET008NEW NOSIEQDQ01+000012SCOTCVQ02+000000PRSWM2
0173065900999991995010411004+49617+006217SY-MT+0379ELLX V0200601N00411220001CN0100001N1-00341-00831103341ADDAG10999GA1021+003609999GF199999011011004501001001MA1103011999999MD1710031+9999OA149900511REMSYN023 333 81812 91110 91208;MET008NEW NOSIEQDQ01+000012SCOTCVQ02+000000PRSWM2
0190065900999991995010412004+49617+006217SY-MT+0379ELLX V0200701N00261220001CN0100001N1-00221-00891103281ADDAA106000091AG10000GA1021+003609999GF199999011011004501001001MA1102911999999MD1710101+9999OA149900511REMSYN029 333 42001 81812 91110 91208;MET008NEW NOSIEQDQ01+000012SCOTCVQ02+000000PRSWM2
0143065900999991995010413004+49617+006217SY-MT+0379ELLX V0200601N00361220001CN0100001N1-00171-00931103251ADDAG10999GF100991001001999999001001MA1102911999999MD1710111+9999OA149900461REMSYN017 333 91109 91207;MET016NEW CAVOK NOSIG;EQDQ01+000000PRSWM2
0143065900999991995010414004+49617+006217SY-MT+0379ELLX V0200501N00311220001CN0100001N1-00201-00981103231ADDAG10999GF100991001001999999001001MA1102911999999MD1710101+9999OA149900511REMSYN017 333 91110 91208;MET016NEW CAVOK NOSIG;EQDQ01+000000PRSWM2
0149065900999991995010415004+49617+006217SY-MT+0379ELLX V0200601N00261220001CN0100001N1-00251-00881103241ADDAG10000GF100991001001999999001001MA1102911999999MD1710051+9999OA149900511REMSYN023 333 42001 91110 91208;MET016NEW CAVOK NOSIG;EQDQ01+000000PRSWM2
0143065900999991995010416004+49617+006217SY-MT+0379ELLX V0209991V00261220001CN0100001N1-00351-00891103251ADDAG10999GF100991001001999999001001MA1102911999999MD1710031+9999OA149900411REMSYN017 333 91108 91206;MET016NEW CAVOK NOSIG;EQDQ01+000000PRSWM2
0143065900999991995010417004+49617+006217SY-MT+0379ELLX V0200201N00311220001CN0100001N1-00471-00851103251ADDAG10999GF100991001001999999001001MA1102911999999MD1710011+9999OA149900461REMSYN017 333 91109 91206;MET016NEW CAVOK NOSIG;EQDQ01+000000PRSWM2
0160065900999991995010418004+49617+006217SY-MT+0379ELLX V0200501N00411220001CN0100001N1-00481-00821103271ADDAA106000091AG10000GF100991001001999999001001MA1102911999999MD1410001+9999OA149900621REMSYN023 333 42997 91112 91209;MET016NEW CAVOK NOSIG;EQDQ01+000000PRSWM2
0143065900999991995010419004+49617+006217SY-MT+0379ELLX V0200501N00311220001CN0100001N1-00541-00861103341ADDAG10999GF100991001001999999001001MA1102911999999MD1210061+9999OA149900511REMSYN017 333 91110 91208;MET016NEW CAVOK NOSIG;EQDQ01+000000PRSWM2
0143065900999991995010420004+49617+006217SY-MT+0379ELLX V0200501N00261220001CN0100001N1-00631-00931103341ADDAG10999GF100991001001999999001001MA1102911999999MD1210061+9999OA149900411REMSYN017 333 91108 91206;MET016NEW CAVOK NOSIG;EQDQ01+000000PRSWM2
0149065900999991995010421004+49617+006217SY-MT+0379ELLX V0200501N00311220001CN0100001N1-00671-00971103351ADDAG10000GF100991001001999999001001MA1102911999999MD1210061+9999OA149900511REMSYN023 333 42997 91110 91208;MET016NEW CAVOK NOSIG;EQDQ01+000000PRSWM2
0143065900999991995010422004+49617+006217SY-MT+0379ELLX V0200601N00461220001CN0100001N1-00791-01031103291ADDAG10999GF100991001001999999001001MA1102911999999MD1710051+9999OA149900511REMSYN017 333 91110 91209;MET016NEW CAVOK NOSIG;EQDQ01+000000PRSWM2
0143065900999991995010423004+49617+006217SY-MT+0379ELLX V0200401N00211220001CN0100001N1-00781-00991103311ADDAG10999GF100991001001999999001001MA1102911999999MD1710031+9999OA149900511REMSYN017 333 91110 91209;MET016NEW CAVOK NOSIG;EQDQ01+000000PRSWM2
0152065900999991995010500004+49617+006217SY-MT+0379ELLX V0200501N00311220001CN0080001N1-00831-01021103251ADDAA106000091AG10000GF100991001001999999001001MA1102911999999MD1710081+9999OA149900511REMSYN023 333 42997 91110 91209;MET008NEW NOSIEQDQ01+000000PRSWM2
0117065900999991995010501004+49617+006217SY-MT+0379ELLX V0200501N00311999999CN0014001N1-00791-00981103221ADDAG10999ED199U20009MA1102811999999MD1710051+9999OA149900411REMSYN017 333 91108 91207;MET005NEW ;EQDQ01+000000PRSWM2
0106065900999991995010502004+49617+006217SY-MT+0379ELLX V0200601N00411999999CN0080001N1-00811-00971103251ADDAG10999MA1102911999999MD1710041+9999OA149900571REMSYN017 333 91111 91208;MET005NEW ;EQDQ01+000000PRSWM2
0141065900999991995010503004+49617+006217SY-MT+0379ELLX V0200401N00311220001CN0080001N1-00811-00971103241ADDAG10000GF100991001001999999001001MA1102911999999MD1710011+9999OA149900571REMSYN023 333 42997 91111 91208;MET008NEW NOSIEQDQ01+000000PRSWM2
0135065900999991995010504004+49617+006217SY-MT+0379ELLX V0200501N00311220001CN0080001N1-00891-01431103211ADDAG10999GF100991001001999999001001MA1102811999999MD1710031+9999OA149900411REMSYN017 333 91108 91207;MET008NEW NOSIEQDQ01+000000PRSWM2
0135065900999991995010505004+49617+006217SY-MT+0379ELLX V0200501N00311220001CN0050001N1-00911-01121103161ADDAG10999GF100991001001999999001001MA1102711999999MD1710111+9999OA149900411REMSYN017 333 91108 91206;MET008NEW NOSIEQDQ01+000000PRSWM2
0226065900999991995010506004+49617+006217SY-MT+0379ELLX V0200601N00311220001CN0100001N1-00991-01221103171ADDAA106000091AG10000AJ100009199999999GF100991001001999999001001IA1119IA2999-01209KA1120N-01061MA1102711999999MD1710111+9999OA149900571REMSYN041 333 21106 32112 42997 91111 91208 94076;MET016NEW CAVOK NOSIG;EQDQ01+000000PRSWM2
0143065900999991995010507004+49617+006217SY-MT+0379ELLX V0200501N00311220001CN0100001N1-00901-01151103151ADDAG10999GF100991001001999999001001MA1102711999999MD1710081+9999OA149900411REMSYN017 333 91108 91207;MET016NEW CAVOK NOSIG;EQDQ01+000000PRSWM2
0143065900999991995010508004+49617+006217SY-MT+0379ELLX V0200601N00311220001CN0100001N1-00981-01241103151ADDAG10999GF100991001001999999001001MA1102711999999MD1710041+9999OA149900511REMSYN017 333 91110 91206;MET016NEW CAVOK NOSIG;EQDQ01+000000PRSWM2
0149065900999991995010509004+49617+006217SY-MT+0379ELLX V0200601N00311220001CN0100001N1-00831-01131103111ADDAG10000GF100991001001999999001001MA1102711999999MD1710061+9999OA149900511REMSYN023 333 42997 91110 91207;MET016NEW CAVOK NOSIG;EQDQ01+000000PRSWM2
0165065900999991995010510004+49617+006217SY-MT+0379ELLX V0200701N00261220001CN0100001N1-00691-01011103091ADDAG10999GA1011+060009009GF101991001001999999001021MA1102711999999MD1710061+9999OA149900411REMSYN023 333 81070 91108 91207;MET016NEW CAVOK NOSIG;EQDQ01+000000PRSWM2
0165065900999991995010511004+49617+006217SY-MT+0379ELLX V0200601N00261220001CN0100001N1-00571-00911103041ADDAG10999GA1011+060009009GF101991001001999999001021MA1102611999999MD1710081+9999OA149900461REMSYN023 333 81070 91109 91207;MET016NEW CAVOK NOSIG;EQDQ01+000000PRSWM2
0182065900999991995010512004+49617+006217SY-MT+0379ELLX V0200901N00261220001CN0100001N1-00571-00931102931ADDAA106000091AG10000GA1011+015009089GF101991011011017501001011MA1102511999999MD1710151+9999OA149900511REMSYN029 333 42997 81850 91110 91207;MET016NEW CAVOK NOSIG;EQDQ01+000000PRSWM2
0165065900999991995010513004+49617+006217SY-MT+0379ELLX V0200801N00411220001CN0100001N1-00501-00961102821ADDAG10999GA1011+060009009GF101991001001999999001021MA1102401999999MD1710241+9999OA149900571REMSYN023 333 81070 91111 91208;MET016NEW CAVOK NOSIG;EQDQ01+000000PRSWM2
0165065900999991995010514004+49617+006217SY-MT+0379ELLX V0200901N00361220001CN0120001N1-00481-00981102731ADDAG10999GA1011+060009009GF101991001001999999001021MA1102301999999MD1710291+9999OA149900671REMSYN023 333 81070 91113 91209;MET016NEW CAVOK NOSIG;EQDQ01+000000PRSWM2
0171065900999991995010515004+49617+006217SY-MT+0379ELLX V0201201N00311220001CN0100001N1-00491-01111102701ADDAG10000GA1011+060009009GF101991001001999999001021MA1102301999999MD1710221+9999OA149900671REMSYN029 333 42997 81070 91113 91209;MET016NEW CAVOK NOSIG;EQDQ01+000000PRSWM2
0165065900999991995010516004+49617+006217SY-MT+0379ELLX V0209991V00211220001CN0100001N1-00601-01191102691ADDAG10999GA1011+060009009GF101991001001999999001021MA1102301999999MD1710141+9999OA149900511REMSYN023 333 81070 91110 91207;MET016NEW CAVOK NOSIG;EQDQ01+000000PRSWM2
0165065900999991995010517004+49617+006217SY-MT+0379ELLX V0201101N00311220001CN0150001N1-00701-01231102711ADDAG10999GA1011+060009009GF101991001001999999001021MA1102301999999MD1710051+9999OA149900621REMSYN023 333 81070 91112 91206;MET016NEW CAVOK NOSIG;EQDQ01+000000PRSWM2
0182065900999991995010518004+49617+006217SY-MT+0379ELLX V0201101N00361220001CN0150001N1-00701-01171102661ADDAA106000091AG10000GA1011+060009009GF101991001001999999001021MA1102201999999MD1710071+9999OA149900671REMSYN029 333 42995 81070 91113 91209;MET016NEW CAVOK NOSIG;EQDQ01+000000PRSWM2
0165065900999991995010519004+49617+006217SY-MT+0379ELLX V0201201N00411220001CN0150001N1-00731-01151102631ADDAG10999GA1011+060009009GF101991001001999999001021MA1102201999999MD1710071+9999OA149900621REMSYN023 333 81070 91112 91208;MET016NEW CAVOK NOSIG;EQDQ01+000000PRSWM2
0165065900999991995010520004+49617+006217SY-MT+0379ELLX V0201401N00261220001CN0150001N1-00781-01161102611ADDAG10999GA1021+060009009GF102991001001999999001021MA1102201999999MD1710111+9999OA149900511REMSYN023 333 82070 91110 91208;MET016NEW CAVOK NOSIG;EQDQ01+000000PRSWM2
0171065900999991995010521004+49617+006217SY-MT+0379ELLX V0201601N00311220001CN0150001N1-00751-01101102541ADDAG10000GA1021+060009009GF102991001001999999001021MA1102101999999MD1710111+9999OA149900621REMSYN029 333 42995 82070 91112 91208;MET016NEW CAVOK NOSIG;EQDQ01+000000PRSWM2
0173065900999991995010522004+49617+006217SY-MT+0379ELLX V0201501N00411003901CN0150001N1-00781-01061102431ADDAG10999GA1071+003909999GF199999051051004501001021MA1102001999999MD1710181+9999OA149900621REMSYN023 333 85613 91112 91208;MET008NEW NOSIEQDQ01+000052SCOTCVQ02+000000PRSWM2
0157065900999991995010523004+49617+006217SY-MT+0379ELLX V0201401N00311004201CN0120001N1-00811-01061102311ADDAG10999GA1021+004209999GF105991051051004501001021MA1101801999999MD1710241+9999OA149900511REMSYN023 333 85614 91110 91208;MET008NEW NOSIEQDQ01+000000PRSWM2
0174065900999991995010600004+49617+006217SY-MT+0379ELLX V0201501N00261220001CN0120001N1-00841-01081102201ADDAA106000091AG10000GA1021+004209999GF104991031051004501001021MA1101801999999MD1710301+9999OA149900671REMSYN029 333 42995 83614 91113 91208;MET008NEW NOSIEQDQ01+000000PRSWM2
0117065900999991995010601004+49617+006217SY-MT+0379ELLX V0209991V00261999999CN0013001N1-00811-01051102111ADDAG10999ED199U20009MA1101691999999MD1710291+9999OA149900411REMSYN017 333 91108 91205;MET005NEW ;EQDQ01+000000PRSWM2
0117065900999991995010602004+49617+006217SY-MT+0379ELLX V0201401N00311999999CN0013001N1-00811-01051102061ADDAG10999ED199U20009MA1101691999999MD1710241+9999OA149900511REMSYN017 333 91110 91207;MET005NEW ;EQDQ01+000000PRSWM2
0185065900999991995010603004+49617+006217SY-MT+0379ELLX V0201601N00361060001CN0100001N1-00801-00991102011ADDAG10000GA1021+004509999GA2071+060009999GF107991021051004501001021MA1101591999999MD1710171+9999OA149900571REMSYN035 333 42995 82615 86070 91111 91207;MET008NEW NOSIEQDQ01+000000PRSWM2
0179065900999991995010604004+49617+006217SY-MT+0379ELLX V0201501N00311060001CN0100001N1-00811-01031101971ADDAG10999GA1021+002109999GA2071+060009999GF107991021061002501001021MA1101491999999MD1710141+9999OA149900571REMSYN029 333 82608 86070 91111 91208;MET008NEW NOSIEQDQ01+000000PRSWM2
0212065900999991995010605004+49617+006217SY-MT+0379ELLX V0209991V00211060001CN0100001N1-00811-01031101911ADDAG10999GA1031+001809079GA2071+060009009GF107991031041001501001021MD1710161+9999OA149900461REMSYN029 333 83706 87070 91109 91206;MET056NEW 0450Z /////KT 9999 SCT006 BKN200 M08/M10 Q1015 NOSIGEQDQ01+000000PRSWM2
0272065900999991995010606004+49617+006217SY-MT+0379ELLX V0201701N00311060001CN0120001N1-00791-01001101901ADDAA106000091AG10000AJ199999999999999GA1021+002409999GA2071+060009999GF107991041061002501001021IA2999-01009KA1120N-00861MA1101491999999MD1710131+9999OA149900571REMSYN053 333 21086 3/110 42995 84708 87270 91111 91208 94045;MET008NEW NOSIEQDQ01+000000PRSWM2Q02  09952SNDP  
0190065900999991995010607004+49617+006217SY-MT+0379ELLX V0201701N00211030001CN0100001N1-00771-01121101891ADDAG10999GA1021+009009999GA2071+030009999GF107991041051008001071999MA1101491999999MD1710091+9999OA149900411REMSYN029 333 84630 87360 91108 91206;MET019NEW BECMG 2000 -SN;EQDQ01+000000PRSWM2
0182065900999991995010608004+49617+006217SY-MT+0379ELLX V0209991V00211006001CN0011001N1-00781-01061101931ADDAG10999AW1701AZ121021AZ221021GA1071+006009999GA2071+030009999GF107991041071001501071999MA1101491999999MD1210021+9999OA149900361REMSYN029 333 84705 87360 91107 91205;MET008NEW NOSI
0188065900999991995010609004+49617+006217SY-MT+0379ELLX V0209991V00261030001CN0031001N1-00711-00981101971ADDAG10001AW1711AZ171031AZ221031GA1021+009009999GA2071+030009999GF107991041051008001071999MA1101591999999MD1210081+9999OA149900571REMSYN035 333 43001 84630 87360 91111 91206;MET008NEW NOSI
0182065900999991995010610004+49617+006217SY-MT+0379ELLX V0209991V00151012001CN0025001N1-00671-00931102041ADDAG10999AW1711AZ171011AZ271011GA1071+012009999GA2071+030009999GF108991051051012501071999MA1101591999999MD1210151+9999OA149900411REMSYN029 333 85640 87360 91108 91205;MET008NEW NOSI
0182065900999991995010611004+49617+006217SY-MT+0379ELLX V0209991V00151030001CN0032001N1-00621-00911102061ADDAG10999AW1711AZ171021AZ271021GA1021+012009999GA2071+030009999GF108991041051012501071999MA1101591999999MD1210131+9999OA149900311REMSYN029 333 84640 87360 91106 91204;MET008NEW NOSI
0251065900999991995010612004+49617+006217SY-MT+0379ELLX V0209991V00051030001CN0031001N1-00601-00891102071ADDAA106999999AG10001AW1711AZ171061AZ221061GA1021+001509999GA2021+010509999GA3071+030009999GF108991051071001501071999MA1101691999999MD1210091+9999OA149900571REMSYN041 333 43001 83705 84635 87360 91111 91206;MET019NEW NOSIG 24450164;EQDQ01  00002PRCP06
0172065900999991995010613004+49617+006217SY-MT+0379ELLX V0209991V00101009901CN0031001N1-00571-00841102051ADDAG10999AW1711AZ171011AZ271011GA1071+009909999GF108991071051008001999999MA1101591999999MD1210021+9999OA149900311REMSYN023 333 87633 91106 91202;MET020NEW NOSIG 244501 64;
0221065900999991995010614004+49617+006217SY-MT+0379ELLX V0209991V00101030001CN0020001N1-00571-00841102121ADDAG10999AW1711AZ171021AZ271021GA1081+030009049GF108991081001999999021999MD1210061+9999OA149900621REMSYN023 333 88460 91112 91203;MET065NEW 1350Z VRVKKT 2000 R24/2000 -SN BR OVC100 M06/M08 Q1017 NOSIG;EQDQ01+000000PRSWM2
0205065900999991995010615004+49617+006217SY-MT+0379ELLX V0209991V00101006001CN0020001N1-00541-00741102201ADDAG10001AW1711AZ171031AZ271031GA1021+004509999GA2071+006009999GF108991071051004501999999MA1101801999999MD1210131+9999MW1101OA149900621REMSYN035 333 43001 84615 87620 91112 91203;MET019NEW NOSIG 24490151;
0172065900999991995010616004+49617+006217SY-MT+0379ELLX V0209991V00101003001CN0020001N1-00531-00701102301ADDAG10999AW1221AZ121011AZ221011GA1081+003009999GF108991081061004501999999MA1101901999999MD1210241+9999OA149900211REMSYN023 333 88710 91104 91202;MET020NEW NOSIG 244901 51;
0160065900999991995010617004+49617+006217SY-MT+0379ELLX V0202401N00101002101CN0020001N1-00531-00681102411ADDAG10999AW1101AZ121021AZ221021GA1081+002109999GF108991081061002501999999MA1102001999999MD1210281+9999OA149900151REMSYN023 333 88707 91103 91202;MET008NEW NOSI
0189065900999991995010618004+49617+006217SY-MT+0379ELLX V0209991V00151002101CN0020001N1-00521-00671102481ADDAA199000191AG10001AW1101AZ171061AZ221061GA1081+002109999GF108991081061002501999999MA1102101999999MD1210271+9999OA149900621REMSYN029 333 43001 88707 91112 91203;MET020NEW NOSIG 244901 51;
0172065900999991995010619004+49617+006217SY-MT+0379ELLX V0201801N00101001801CN0020001N1-00521-00661102551ADDAG10999AW1101AZ121011AZ221011GA1081+001809999GF108991081061001501999999MA1102101999999MD1210241+9999OA149900211REMSYN023 333 88706 91104 91203;MET020NEW NOSIG 244901 51;
0160065900999991995010620004+49617+006217SY-MT+0379ELLX V0202101N00261002701CN0020001N1-00511-00631102581ADDAG10999AW1101AZ121021AZ221021GA1071+002709999GF108991081061002501999999MA1102201999999MD1210171+9999OA149900361REMSYN023 333 87709 91107 91205;MET008NEW NOSI
0166065900999991995010621004+49617+006217SY-MT+0379ELLX V0202401N00211002101CN0020001N1-00471-00581102661ADDAG10000AW1101AZ121031AZ221031GA1081+002109999GF108991081061002501999999MA1102301999999MD1210191+9999OA149900361REMSYN029 333 43001 88707 91107 91205;MET008NEW NOSI
0182065900999991995010622004+49617+006217SY-MT+0379ELLX V0209991V00211001801CN0018001N1-00431-00531102701ADDAG10999AW1101AZ121011AZ221011GA1071+001809999GA2071+003309999GF108991081061000751999999MA1102301999999MD1210161+9999OA149900361REMSYN029 333 84702 88707 91107 91205;MET008NEW NOSI
0182065900999991995010623004+49617+006217SY-MT+0379ELLX V0202601N00211001801CN0018001N1-00401-00481102691ADDAG10999AW1101AZ121021AZ221021GA1071+001809999GA2071+004509999GF108991081051001501999999MA1102301999999MD1210131+9999OA149900411REMSYN029 333 85706 87611 91108 91206;MET008NEW NOSI
0177065900999991995010700004+49617+006217SY-MT+0379ELLX V0202801N00311001201CN0018001N1-00411-00481102721ADDAA106000091AG10000AW1101AZ121061AZ221061GA1081+001209999GF108991081061001501999999MA1102301999999MD1210071+9999OA149900511REMSYN029 333 43001 88704 91110 91207;MET008NEW NOSI
0117065900999991995010701004+49617+006217SY-MT+0379ELLX V0202701N00101999999CN0008001N1-00371-00441102741ADDAG10999ED199U20009MA1102401999999MD1210051+9999OA149900361REMSYN017 333 91107 91206;MET005NEW ;EQDQ01+000000PRSWM2
0117065900999991995010702004+49617+006217SY-MT+0379ELLX V0202701N00211999999CN0007001N1-00341-00411102801ADDAG10999ED199U18009MA1102401999999MD1210111+9999OA149900311REMSYN017 333 91106 91204;MET005NEW ;EQDQ01+000000PRSWM2
0177065900999991995010703004+49617+006217SY-MT+0379ELLX V0202601N00211000301CN0002001N1-00341-00371102841ADDAG10000AW1481AZ141031AZ221031ED199U12009GA1081+000309999GF108991081061000251999999MA1102511999999MD1210121+9999OA149900411REMSYN029 333 43001 88701 91108 91206;MET008NEW NOSI
0171065900999991995010704004+49617+006217SY-MT+0379ELLX V0202701N00211000301CN0002001N1-00311-00321102871ADDAG10999AW1481AZ141011AZ241011ED199U06009GA1081+000309999GF108991081061000251999999MA1102511999999MD1210141+9999OA149900311REMSYN023 333 88701 91106 91205;MET008NEW NOSI
0171065900999991995010705004+49617+006217SY-MT+0379ELLX V0202501N00211000301CN0001001N1-00301-00311102921ADDAG10999AW1481AZ171021AZ241021ED199U10009GA1081+000309999GF108991081061000251999999MA1102611999999MD1210121+9999OA149900311REMSYN023 333 88701 91106 91204;MET008NEW NOSI
0248065900999991995010706004+49617+006217SY-MT+0379ELLX V0202001N00151000301CN0003001N1-00301+99999999999ADDAA199000191AG10001AJ100019199999999AW1481AZ171061AZ241061ED199U12009GA1081+000309999GF108991081061000251999999IA2999-00409KA1120N-00531MA1102611999999MD1210121+9999OA149900411REMSYN047 333 21053 3/104 43001 88701 91108 91206 94000;MET008NEW NOSI
0171065900999991995010707004+49617+006217SY-MT+0379ELLX V0202301N00151000301CN0002001N1-00281-00291103051ADDAG10999AW1481AZ141011AZ241011ED199U05509GA1081+000309999GF108991081061000251999999MA1102711999999MD1210171+9999OA149900211REMSYN023 333 88701 91104 91203;MET008NEW NOSI
0171065900999991995010708004+49617+006217SY-MT+0379ELLX V0202801N00101000301CN0001001N1-00241-00251103131ADDAG10999AW1481AZ141021AZ241021ED199U03509GA1081+000309999GF108991081061000251999999MA1102811999999MD1210211+9999OA149900211REMSYN023 333 88701 91104 91203;MET008NEW NOSI
0211065900999991995010709004+49617+006217SY-MT+0379ELLX V0209991V00101000301CN0003001N1-00111-00121103221ADDAG10000AW1481AZ141031AZ241031ED199U01509GA1071+000309999GA2071+012009999GF107991071051000251999999MA1102911999999MD1210271+9999OA149900261REMSYN035 333 43001 84701 85615 91105 91203;MET020NEW BECMG FM0920 TL1
0192065900999991995010710004+49617+006217SY-MT+0379ELLX V0200601N00261000301CN0001001N1-00171-00181103331ADDAG10999AW1481AZ141011AZ241011ED199U01759GA1071+000309999GF107991071061000251999999MA1103011999999MD1210281+9999OA149900411REMSYN023 333 87701 91108 91206;MET029NEW BECMG FM0950 TL1150 1000;
0201065900999991995010711004+49617+006217SY-MT+0379ELLX V0209991V00151000301CN0006001N1-00141-00151103341ADDAG10999AW1481AZ141021AZ241021ED199U10009GA1071+000309999GA2071+000909999GF107991071061000251999999MA1103011999999MD1210221+9999OA149900361REMSYN029 333 85701 87703 91107 91205;MET016NEW BECMG 1500M;
0210065900999991995010712004+49617+006217SY-MT+0379ELLX V0209991V00261001501CN0013001N1-00121-00231103371ADDAA106000091AG10000AW1281AZ141061AZ241061ED199U20009GA1071+001509999GA2071+003609999GF107991071051001501999999MA1103011999999MD1210151+9999OA149900671REMSYN035 333 43001 85705 87612 91113 91206;MET008NEW NOSI
0193065900999991995010713004+49617+006217SY-MT+0379ELLX V0209991V00211001801CN0012001N1-00111-00311103371ADDAG10999AW1101AZ121011AZ221011ED199U19009GA1071+001809999GA2071+003609999GF107991071051001501999999MA1103011999999MD1210051+9999OA149900461REMSYN029 333 86706 87612 91109 91206;MET008NEW NOSI
0179065900999991995010714004+49617+006217SY-MT+0379ELLX V0209991V00151002701CN0035001N1-00091-00291103401ADDAG10999AW1101AZ121021AZ221021GA1081+002709999GF108991081061002501999999MA1103121999999MD1210061+9999OA149900311REMSYN023 333 88709 91106 91205;MET008NEW NOSIEQDQ01+000000PRSWM2
0163065900999991995010715004+49617+006217SY-MT+0379ELLX V0209991V00151003601CN0100001N1-00131-00451103441ADDAG10000GA1071+003609999GF107991071051004501999999MA1103121999999MD1210071+9999OA149900511REMSYN029 333 43001 87612 91110 91206;MET008NEW NOSIEQDQ01+000000PRSWM2
0157065900999991995010716004+49617+006217SY-MT+0379ELLX V0200101N00261004201CN0100001N1-00171-00491103511ADDAG10999GA1071+004209999GF107991071051004501999999MA1103181999999MD1210141+9999OA149900461REMSYN023 333 87612 91109 91205;MET008NEW NOSIEQDQ01+000000PRSWM2
0157065900999991995010717004+49617+006217SY-MT+0379ELLX V0209991V00151003901CN0100001N1-00221-00531103581ADDAG10999GA1071+003909999GF107991071051004501999999MA1103181999999MD1210171+9999OA149900511REMSYN023 333 87613 91110 91207;MET008NEW NOSIEQDQ01+000000PRSWM2
0174065900999991995010718004+49617+006217SY-MT+0379ELLX V0200701N00361003901CN0080001N1-00341-00591103651ADDAA106000091AG10000GA1071+003909999GF107991071051004501999999MA1103291999999MD1210191+9999OA149900511REMSYN029 333 43001 87613 91110 91207;MET008NEW NOSIEQDQ01+000000PRSWM2
0157065900999991995010719004+49617+006217SY-MT+0379ELLX V0200401N00211003601CN0060001N1-00351-00601103691ADDAG10999GA1071+003609999GF107991071051004501999999MA1103291999999MD1210151+9999OA149900461REMSYN023 333 87612 91109 91207;MET008NEW NOSIEQDQ01+000000PRSWM2
0157065900999991995010720004+49617+006217SY-MT+0379ELLX V0209991V00151003601CN0060001N1-00371-00601103741ADDAG10999GA1071+003609999GF107991071051004501999999MA1103391999999MD1210151+9999OA149900411REMSYN023 333 87612 91108 91204;MET008NEW NOSIEQDQ01+000000PRSWM2
0163065900999991995010721004+49617+006217SY-MT+0379ELLX V0209991V00101003601CN0080001N1-00351-00571103761ADDAG10000GA1071+003609999GF107991071051004501999999MA1103391999999MD1210111+9999OA149900461REMSYN029 333 43001 87612 91109 91207;MET008NEW NOSIEQDQ01+000000PRSWM2
0157065900999991995010722004+49617+006217SY-MT+0379ELLX V0209991V00051003601CN0080001N1-00361-00581103781ADDAG10999GA1071+003609999GF107991071051004501999999MA1103391999999MD1210101+9999OA149900211REMSYN023 333 87612 91104 91202;MET008NEW NOSIEQDQ01+000000PRSWM2
0157065900999991995010723004+49617+006217SY-MT+0379ELLX V0209991V00051003601CN0070001N1-00401-00581103771ADDAG10999GA1071+003609999GF107991071051004501999999MA1103391999999MD1210031+9999OA149900261REMSYN023 333 87612 91105 91203;MET008NEW NOSIEQDQ01+000000PRSWM2
0174065900999991995010800004+49617+006217SY-MT+0379ELLX V0209991C00001003301CN0080001N1-00411-00561103771ADDAA106000091AG10000GA1071+003309999GF107991071051004501999999MA1103391999999MD1210011+9999OA149900461REMSYN029 333 43001 87611 91109 91207;MET008NEW NOSIEQDQ01+000000PRSWM2
0117065900999991995010801004+49617+006217SY-MT+0379ELLX V0209991C00001999999CN0014001N1-00431-00581103731ADDAG10999ED199U20009MA1103391999999MD1710051+9999OA149900361REMSYN017 333 91107 91203;MET005NEW ;EQDQ01+000000PRSWM2
0117065900999991995010802004+49617+006217SY-MT+0379ELLX V0209991V001019999999N0014001N1-00431-00581103751ADDAG10999ED199U20009MA1103391999999MD1710021+9999OA149900311REMSYN017 333 91106 91203;MET005NEW ;EQDQ01+000000PRSWM2
0163065900999991995010803004+49617+006217SY-MT+0379ELLX V0209991V00211003001CN0060001N1-00451-00561103731ADDAG10000GA1071+003009999GF107991071051004501999999MA1103391999999MD1710041+9999OA149900361REMSYN029 333 43001 87610 91107 91204;MET008NEW NOSIEQDQ01+000000PRSWM2
0157065900999991995010804004+49617+006217SY-MT+0379ELLX V0209991V00101002701CN0060001N1-00481-00581103731ADDAG10999GA1071+002709999GF107991071061002501999999MA1103391999999MD1710011+9999OA149900311REMSYN023 333 87709 91106 91204;MET008NEW NOSIEQDQ01+000000PRSWM2
0168065900999991995010805004+49617+006217SY-MT+0379ELLX V0209991C00001002701CN0050001N1-00471-00551103711ADDAG10999GA1071+002709999GF107991071061002501999999MA1103291999999MD1710051+9999OA149900211REMSYN023 333 87709 91104 91202;MET019NEW NOSIG 06720054;EQDQ01+000000PRSWM2
0245065900999991995010806004+49617+006217SY-MT+0379ELLX V0209991V00101002701CN0050001N1-00511-00591103751ADDAA106000091AG10000AJ100019199999999GA1071+002709999GF107991071061002501999999IA2999-00609KA1120N-00511MA1103391999999MD1410001+9999OA149900361REMSYN047 333 21051 3/106 43001 87709 91107 91204 94000;MET019NEW NOSIG 06720054;EQDQ01+000000PRSWM2
0157065900999991995010807004+49617+006217SY-MT+0379ELLX V0209991V00211003001CN0060001N1-00491-00701103721ADDAG10999GA1071+003009999GF107991071061004501999999MA1103291999999MD1710031+9999OA149900411REMSYN023 333 87710 91108 91204;MET008NEW NOSIEQDQ01+000000PRSWM2
0157065900999991995010808004+49617+006217SY-MT+0379ELLX V0201701N00311003001CN0060001N1-00551-00841103721ADDAG10999GA1071+003009999GF107991071061004501999999MA1103291999999MD1710011+9999OA149900721REMSYN023 333 87710 91114 91206;MET008NEW NOSIEQDQ01+000000PRSWM2
0185065900999991995010809004+49617+006217SY-MT+0379ELLX V0209991V00211002701CN0032001N1-00511-00801103721ADDAG10000AW1101AZ121031AZ221031GA1071+002709999GF107991071061002501999999MA1103291999999MD1710041+9999OA149900721REMSYN029 333 43001 87709 91114 91206;MET008NEW NOSIEQDQ01+000000PRSWM2
0064065900999991995010809504+49617+006217FM-15+0379ELLX V0201701N00311002401CN0030001N1-00501-00801999999ADDAG10999GA1071+002409999MA1103291999999MW1101REMMET008NEW NOSI
0160065900999991995010811004+49617+006217SY-MT+0379ELLX V0201701N00311002701CN0030001N1-00481-00761103621ADDAG10999AW1101AZ121021AZ221021GA1071+002709999GF107991071061002501999999MA1103181999999MD1710091+9999OA149900511REMSYN023 333 87709 91110 91207;MET008NEW NOSI
0177065900999991995010812004+49617+006217SY-MT+0379ELLX V0209991V00261002701CN0030001N1-00441-00731103551ADDAA106000091AG10000AW1101AZ121061AZ221061GA1071+002709999GF107991071061002501999999MA1103181999999MD1710161+9999OA149900721REMSYN029 333 43001 87709 91114 91207;MET008NEW NOSI
0160065900999991995010813004+49617+006217SY-MT+0379ELLX V0201801N00311002701CN0030001N1-00391-00681103431ADDAG10999AW1101AZ121011AZ221011GA1071+002709999GF107991071061002501999999MA1103121999999MD1710251+9999OA149900771REMSYN023 333 87709 91115 91207;MET008NEW NOSI
0160065900999991995010814004+49617+006217SY-MT+0379ELLX V0201901N00361003301CN0030001N1-00381-00631103321ADDAG10999AW1101AZ121021AZ221021GA1071+003309999GF107991071051004501999999MA1103011999999MD1710281+9999OA149900621REMSYN023 333 87611 91112 91208;MET008NEW NOSI
0188065900999991995010815004+49617+006217SY-MT+0379ELLX V0201701N00361003301CN0030001N1-00381-00631103271ADDAG10000AW1101AZ121031AZ221031GA1071+003309999GA2071+004509999GF108991071051004501999999MA1102911999999MD1710261+9999OA149900771REMSYN035 333 43001 85611 87615 91115 91208;MET008NEW NOSI
0086065900999991995010815504+49617+006217FM-15+0379ELLX V0201901N00411003901CN0025001N1-00401-00601999999ADDAG10999GA1071+003909999GA2071+007509999MA1102911999999MW1101MW2561REMMET008NEW NOSI
0166065900999991995010817004+49617+006217SY-MT+0379ELLX V0201801N00311003601CN0020001N1-00391-00541103171ADDAG10999AW1561AZ151021AZ221021GA1071+003609999GF108991071051004501999999MA1102811999999MD1710151+9999MW1101OA149900621REMSYN023 333 87612 91112 91209;MET008NEW NOSI
0216065900999991995010818004+49617+006217SY-MT+0379ELLX V0201801N00311001501CN0015001N1-00391-00491103101ADDAA199000191AG10001AW1771AZ161061AZ251061GA1071+001509999GA2071+003309999GF108991071051001501999999MA1102711999999MD1710171+9999MW1101OA149900771REMSYN035 333 43001 86705 87611 91115 91209;MET019NEW NOSIG 06790236;
0183065900999991995010819004+49617+006217SY-MT+0379ELLX V0201701N00361000901CN0020001N1-00381-00451103011ADDAG10999AW1791AZ171011AZ221011GA1071+000909999GF108991071051001501999999MA1102611999999MD1710211+9999MW1101OA149900721REMSYN029 333 86704 87611 91114 91208;MET019NEW NOSIG 06790236;
0188065900999991995010820004+49617+006217SY-MT+0379ELLX V0201901N00261000601CN0012001N1-00331-00401102961ADDAG10999AW1661AZ171021AZ221021ED199U17009GA1071+000609999GF108991071071000751999999MA1102611999999MD1710201+9999MW1101OA149900621REMSYN023 333 87702 91112 91208;MET019NEW NOSIG 06790236;
0086065900999991995010820504+49617+006217FM-15+0379ELLX V0201801N00261000601CN0006001N1-00301-00401999999ADDAG10000ED199U17009GA1081+000609999MA1102511999999MW1711REMMET019NEW NOSIG 06790146;
0183065900999991995010821004+49617+006217SY-MT+0379ELLX V0209991V00261000601CN0018001N1-00301-00351102911ADDAG10001AW1701AZ171031AZ261031GA1081+000609999GF108991081071000751999999MA1102511999999MD1710181+9999MW1101OA149900721REMSYN029 333 43002 88702 91114 91208;MET019NEW NOSIG 06790146;
0166065900999991995010822004+49617+006217SY-MT+0379ELLX V0201901N00211000301CN0016001N1-00271-00311102861ADDAG10999AW1771AZ171011AZ271011GA1081+000309999GF108991081071000251999999MA1102511999999MD1710141+9999MW1101OA149900361REMSYN023 333 88701 91107 91205;MET008NEW NOSI
0188065900999991995010823004+49617+006217SY-MT+0379ELLX V0201701N00211000301CN0012001N1-00251-00291102811ADDAG10999AW1701AZ171021AZ271021ED199U15009GA1081+000309999GF108991081061000251999999MA1102511999999MD1710131+9999MW1101OA149900361REMSYN023 333 88701 91107 91205;MET019NEW NOSIG 06790048;
0194065900999991995010900004+49617+006217SY-MT+0379ELLX V0209991V00151000301CN0015001N1-00241-00281102811ADDAA106005091AG10001AW1701AZ171061AZ261061GA1081+000309999GF108991081071000251999999MA1102511999999MD1710081+9999MW1101OA149900721REMSYN029 333 43002 88701 91114 91208;MET019NEW NOSIG 06790540;
0117065900999991995010901004+49617+006217SY-MT+0379ELLX V0202301N001519999999N0007001N1-00251-00291102761ADDAG10999ED199U20009MA1102401999999MD1710081+9999OA149900311REMSYN017 333 91106 91205;MET005NEW ;EQDQ01+000000PRSWM2
0117065900999991995010902004+49617+006217SY-MT+0379ELLX V0202101N00151999999CN0007001N1-00231-00271102741ADDAG10999ED199U20009MA1102401999999MD1710061+9999OA149900311REMSYN017 333 91106 91203;MET005NEW ;EQDQ01+000000PRSWM2
0193065900999991995010903004+49617+006217SY-MT+0379ELLX V0209991V00101009001CN0015001N1-00201-00241102761ADDAG10001AW1101AZ171031AZ221031ED199U20009GA1071+009009059GF108991051999008001999999MA1102401999999MD1710041+9999OA149900361REMSYN029 333 43002 87630 91107 91205;MET005NEW ;EQDQ01+000000PRSWM2
0193065900999991995010904004+49617+006217SY-MT+0379ELLX V0202301N00101001501CN0003001N1-00241-00251102731ADDAG10999AW1481AZ141011AZ221011ED199U14009GA1071+001509999GA2071+008409999GF108991071051001501999999MA1102401999999MD1710031+9999OA149900311REMSYN029 333 85705 87630 91106 91204;MET008NEW NOSI
0172065900999991995010905004+49617+006217SY-MT+0379ELLX V0202901N00211007501CN0020001N1-00121-00181102771ADDAG10999AW1281AZ121021AZ221021GA1071+007509999GF108991081051008001999999MA1102401999999MD1210041+9999OA149900361REMSYN023 333 87625 91107 91204;MET020NEW NOSIG 067905 30;
0259065900999991995010906004+49617+006217SY-MT+0379ELLX V0209991V00051009001CN0030001N1-00051-00131102781ADDAA199005091AG10001AJ100029199999999AW1101AZ171061AZ221061GA1021+003309999GA2071+009009999GF108991071051002501999999IA2999-00409KA1120N-00411MA1102401999999MD1210031+9999OA149900361REMSYN053 333 21041 3/104 43002 85707 87630 91107 91205 94000;MET008NEW NOSI
0211065900999991995010907004+49617+006217SY-MT+0379ELLX V0203201N00311006001CN0100001N1-00031-00161102871ADDAG10999GA1021+004509999GA2071+006009999GA3071+030009999GF199999061051002501001001MA1102511999999MD1210151+9999OA149900511REMSYN029 333 82708 85630 91110 91206;MET008NEW NOSIEQDQ01+000062SCOTCVQ02+000000PRSWM2
0179065900999991995010908004+49617+006217SY-MT+0379ELLX V0203001N00211009001CN0080001N1-00051-00191102871ADDAG10999GA1021+005109999GA2071+009009999GF107991071081004501999999MA1102511999999MD1210111+9999OA149900461REMSYN029 333 84817 86630 91109 91206;MET008NEW NOSIEQDQ01+000000PRSWM2
0163065900999991995010909004+49617+006217SY-MT+0379ELLX V0203001N00211003601CN0060001N1+00031-00181102931ADDAG10000GA1071+003609999GF107991071051004501999999MA1102611999999MD1210161+9999OA149900511REMSYN029 333 43002 87612 91110 91206;MET008NEW NOSIEQDQ01+000000PRSWM2
0201065900999991995010910004+49617+006217SY-MT+0379ELLX V0202501N00211006001CN0040001N1+00041-00101102971ADDAG10999AW1101AZ121011AZ221011GA1021+001509999GA2071+006009999GF107991071051001501999999MA1102711999999MD1210111+9999OA149900361REMSYN029 333 83705 87620 91107 91205;MET008NEW NOSIEQDQ01+000000PRSWM2
0182065900999991995010911004+49617+006217SY-MT+0379ELLX V0202501N00261000601CN0030001N1+00051-00051102971ADDAG10999AW1101AZ121021AZ221021GA1071+000609999GA2071+006009999GF108991071051000751999999MA1102711999999MD1210101+9999OA149900361REMSYN029 333 85702 87620 91107 91205;MET008NEW NOSI
0188065900999991995010912004+49617+006217SY-MT+0379ELLX V0202401N00261000601CN0012001N1+00071+00001102891ADDAA106000091AG10000AW1101AZ121061AZ221061ED199U14009GA1071+000609999GF108991071061000751999999MA1102611999999MD1710031+9999OA149900511REMSYN029 333 42002 87702 91110 91206;MET008NEW NOSI
0171065900999991995010913004+49617+006217SY-MT+0379ELLX V0202501N00411000601CN0005001N1+00081+00081102841ADDAG10999AW1461AZ141011AZ221011ED199U10009GA1071+000609999GF108991071061000751999999MA1102511999999MD1710121+9999OA149900621REMSYN023 333 87702 91112 91209;MET008NEW NOSI
0171065900999991995010914004+49617+006217SY-MT+0379ELLX V0202201N00361000301CN0003001N1+00051+00051102781ADDAG10999AW1461AZ141021AZ241021ED199U08009GA1071+000309999GF108991071061000251999999MA1102511999999MD1710171+9999OA149900571REMSYN023 333 87701 91111 91208;MET008NEW NOSI
0199065900999991995010915004+49617+006217SY-MT+0379ELLX V0202401N00461000301CN0007001N1+00061+00061102731ADDAG10000AW1421AZ141031AZ221031ED199U17009GA1071+000309999GA2071+000609999GF108991071071000251999999MA1102401999999MD1710151+9999OA149900671REMSYN035 333 42001 85701 87702 91113 91209;MET008NEW NOSI
0177065900999991995010916004+49617+006217SY-MT+0379ELLX V0202401N00621000301CN0002001N1+00061+00061102711ADDAG10999AW1681AZ141011AZ221011ED199U06509GA1071+000309999GF108991071061000251999999MA1102401999999MD1710121+9999MW1441OA149900821REMSYN023 333 87701 91116 91212;MET008NEW NOSI
0177065900999991995010917004+49617+006217SY-MT+0379ELLX V0202301N00621000301CN0001001N1+00061+00061102621ADDAG10999AW1681AZ141021AZ221021ED199U05509GA1071+000309999GF108991071071000251999999MA1102301999999MD1710151+9999MW1441OA149900931REMSYN023 333 87701 91118 91212;MET008NEW NOSI
0183065900999991995010918004+49617+006217SY-MT+0379ELLX V0202301N00671000601CN0004001N1+00081+00081102551ADDAA199000391AG10002AW1681AZ171061AZ241061GA1071+000609999GF108991071071000251999999MA1102201999999MD1710161+9999MW1101OA149900931REMSYN029 333 42001 87701 91118 91213;MET008NEW NOSI
0193065900999991995010919004+49617+006217SY-MT+0379ELLX V0202301N00621000301CN0007001N1+00101+00101102411ADDAG10999AW1201AZ121011AZ221011ED199U20009GA1071+000309999GA2071+000609999GF108991071061000251999999MA1102101999999MD1710271+9999OA149900931REMSYN029 333 85701 87702 91118 91214;MET008NEW NOSI
0166065900999991995010920004+49617+006217SY-MT+0379ELLX V0202301N00821000301CN0017001N1+00131+00091102251ADDAG10999AW1501AZ121021AZ221021GA1071+000309999GF108991071071000251999999MA1102001999999MD1710341+9999MW1101OA149901131REMSYN023 333 87701 91122 91217;MET008NEW NOSI
0155065900999991995010921004+49617+006217SY-MT+0379ELLX V0202301N00821000601CN0010001N1+00181+00141102071ADDAG10000GA1071+000609999GF108991011091000251999999MA1101801999999MW1101OA149901131REMSYN029 333 42001 87701 91122 91217;MET008NEW NOSIEQDQ01+000003PRSWOA
0081065900999991995010921504+49617+006217FM-15+0379ELLX V0202401N00771000601CN0012001N1+00201+00101999999ADDAG10999ED199U17009GA1071+000609999MA1101691999999MW1101MW2511REMMET008NEW NOSI
0070065900999991995010922504+49617+006217FM-15+0379ELLX V0202401N00821000901CN0020001N1+00301+00101999999ADDAG10999GA1071+000909999MA1101591999999MW1101MW2511REMMET008NEW NOSI
0183065900999991995011000004+49617+006217SY-MT+0379ELLX V0202501N00821000901CN0020001N1+00311+00211101721ADDAA106001091AG10002AW1581AZ161061AZ251061GA1071+000909999GF108991071061000751999999MA1101491999999MD1710321+9999MW1101OA149901291REMSYN029 333 42001 87703 91125 91217;MET008NEW NOSI
0069065900999991995011000504+49617+006217FM-15+0379ELLX V0202501N00821999999CN0012001N1+00301+00201999999ADDAG10999ED199U20009MA1101391999999REMMET005NEW ;EQDQ01+000000PRSWM2
0069065900999991995011001504+49617+006217FM-15+0379ELLX V0202601N00821999999CN0010001N1+00401+00301999999ADDAG10999ED199U20009MA1101291999999REMMET005NEW ;EQDQ01+000000PRSWM2
0070065900999991995011002504+49617+006217FM-15+0379ELLX V0202601N00821001201CN0025001N1+00401+00301999999ADDAG10000GA1071+001209999MA1101191999999MW1101MW2511REMMET008NEW NOSI
0064065900999991995011003504+49617+006217FM-15+0379ELLX V0202701N00571001801CN0035001N1+00401+00301999999ADDAG10999GA1071+001809999MA1101191999999MW1511REMMET008NEW NOSI
0201065900999991995011005004+49617+006217SY-MT+0379ELLX V0202801N00621004501CN0035001N1+00431+00331101501ADDAG10999AW1201AZ121021AZ221021GA1021+001809999GA2071+004509999GF108991071051001501999999MA1101291999999MD1410001+9999OA149901241REMSYN029 333 85706 87615 91124 91213;MET008NEW NOSIEQDQ01+000000PRSWM2
0280065900999991995011006004+49617+006217SY-MT+0379ELLX V0202901N00621220001CN0150001N1+00361+00131101521ADDAA199002091AG10001AJ100009199999999AW1011AZ161061AZ251061GA1041+015009059GF104991041051017501999001IA2999+00009KA1120N+00061MA1101291999999MD1210071+9999OA149901441REMSYN047 333 20006 3/100 41997 84650 91128 91218 94000;MET016NEW CAVOK NOSIG;EQDQ01+000000PRSWM2Q02    003SCOMCG
0157065900999991995011007004+49617+006217SY-MT+0379ELLX V0203001N00511220001CN0200001N1+00331+00121101571ADDAG10999GA1021+004509999GF103991011051004501031001MA1101291999999MD1210111+9999OA149901031REMSYN023 333 81615 91120 91212;MET008NEW NOSIEQDQ01+000000PRSWM2
0187065900999991995011008004+49617+006217SY-MT+0379ELLX V0203001N00621036001CN0200001N1+00311-00041101591ADDAG10999GA1021+009009999GA2021+030009999GF105991021051008001031001MA1101291999999MD1210081+9999OA149901241OC101131REMSYN029 333 82630 84360 91124 91213;MET008NEW NOSIEQDQ01+000000PRSWM2
0185065900999991995011009004+49617+006217SY-MT+0379ELLX V0202801N00461036001CN0200001N1+00321-00101101611ADDAG10000GA1021+006009999GA2021+030009999GF105991031051008001031001MA1101391999999MD1210091+9999OA149901241REMSYN035 333 41993 83820 83360 91124 91213;MET008NEW NOSIEQDQ01+000000PRSWM2
0179065900999991995011010004+49617+006217SY-MT+0379ELLX V0202901N00571036001CN0200001N1+00371-00131101591ADDAG10999GA1021+006609999GA2021+030009999GF105991031081008001031001MA1101391999999MD1210041+9999OA149901031REMSYN029 333 83822 83360 91120 91212;MET008NEW NOSIEQDQ01+000000PRSWM2
0225065900999991995011011004+49617+006217SY-MT+0379ELLX V0202901N00571006001CN0180001N1+00331-00131101591ADDAG10999AW1251AZ121021AZ221021GA1021+002709999GA2071+006009999GF199999051081002501031999MA1101391999999MD1210021+9999OA149901241OC101081REMSYN029 333 82709 85820 91124 91214;MET008NEW NOSIEQDQ01+000062SCOTCVQ02+000000PRSWM2
0164065900999991995011012004+49617+006217FM-12+0379ELLX V0202801N00621007201CN0180001N1+00371-00131101511ADDAA106999929AG10001AW1251AZ181061AZ211061GA1051+007209089GA2061+012009059GF107991071081008001999999MD1710081+9999OA149901241REMSYN029 333 85824 86640 91124 91214;
0201065900999991995011013004+49617+006217SY-MT+0379ELLX V0202801N00671007501CN0250001N1+00371-00111101481ADDAG10999AW1251AZ121011AZ221011GA1071+007509999GA2071+012009999GF107991071081008001999999MA1101291999999MD1710101+9999OA149901081REMSYN029 333 85825 86640 91121 91214;MET008NEW NOSIEQDQ01+000000PRSWM2
0179065900999991995011014004+49617+006217SY-MT+0379ELLX V0202801N00671012001CN0200001N1+00381-00121101421ADDAG10999GA1021+009009999GA2071+012009999GF107991071081008001999999MA1101191999999MD1710151+9999OA149901181REMSYN029 333 84830 86640 91123 91213;MET008NEW NOSIEQDQ01+000000PRSWM2
0201065900999991995011015004+49617+006217SY-MT+0379ELLX V0202801N00671012001CN0200001N1+00391-00111101411ADDAG10001AW1021AZ181031AZ221031GA1021+009909999GA2071+012009999GF107991071081008001999999MA1101191999999MD1710091+9999OA149901241REMSYN029 333 84833 87640 91124 91215;MET008NEW NOSIEQDQ01+000000PRSWM2
0179065900999991995011016004+49617+006217SY-MT+0379ELLX V0202601N00621015001CN0150001N1+00351-00201101331ADDAG10999GA1021+012009999GA2071+015009999GF107991071051012501999999MA1101081999999MD1710141+9999OA149901031REMSYN029 333 82640 86650 91120 91213;MET008NEW NOSIEQDQ01+000000PRSWM2
0157065900999991995011017004+49617+006217SY-MT+0379ELLX V0202501N00511006901CN0200001N1+00311-00241101261ADDAG10999GA1071+006909999GF107991071051008001999999MA1101021999999MD1710161+9999OA149900931REMSYN023 333 87623 91118 91212;MET008NEW NOSIEQDQ01+000000PRSWM2
0215065900999991995011018004+49617+006217SY-MT+0379ELLX V0202501N00511009001CN0150001N1+00251-00131101181ADDAA199000191AG10001AW1601AZ181061AZ221061GA1071+009009999GF107991071051004501999999KA1120M+00401MA1101021999999MD1710231+9999OA149901241REMSYN035 333 10040 85615 87630 91124 91215;MET008NEW NOSIEQDQ01+000000PRSWM2
0176065900999991995011019004+49617+006217SY-MT+0379ELLX V0202501N00511001201CN0100001N1+00211+00001101001ADDAG10999AW1611AZ161011AZ261011GA1071+001209999GA2071+002109999GF108991071071001501999999MA1100711999999MD1710331+9999OA149900881REMSYN023 333 87706 91117 91211;MET008NEW NOSI
0179065900999991995011020004+49617+006217SY-MT+0379ELLX V0202201N00511001201CN0040001N1+00171-00011100821ADDAG10999AW1601AZ161021AZ261021GA1071+001209999GF108991071071001501999999MA1100611999999MD1710441+9999OA149900981REMSYN023 333 87704 91119 91212;MET008NEW NOSIEQDQ01+000000PRSWM2
0160065900999991995011021004+49617+006217SY-MT+0379ELLX V0202101N00461000901CN0040001N1+00231+00141100571ADDAG10002AW1611AZ171031AZ261031GA1071+000909999GF108991071071000751999999MA1100411999999MD1710591+9999OA149900981REMSYN023 333 87703 91119 91212;MET008NEW NOSI
0160065900999991995011022004+49617+006217SY-MT+0379ELLX V0202501N00621001201CN0050001N1+00441+00351100311ADDAG10999AW1611AZ161011AZ261011GA1071+001209999GF108991071071001501999999MA1100101999999MD1710641+9999OA149900881REMSYN023 333 87704 91117 91212;MET008NEW NOSI
0160065900999991995011023004+49617+006217SY-MT+0379ELLX V0202501N00871001501CN0080001N1+00531+00441100111ADDAG10999AW1611AZ161021AZ261021GA1071+001509999GF108991071071001501999999MA1099901999999MD1710641+9999OA149901241REMSYN023 333 87705 91124 91217;MET008NEW NOSI
0171065900999991995011100004+49617+006217SY-MT+0379ELLX V0202501N00771001201CN0060001N1+00571+00481099951ADDAA106006091AG10002AW1611AZ161061AZ271061GA1071+001209999GF108991071071001501999999MA1099801999999MD1710561+9999OA149901341REMSYN023 333 87704 91126 91218;MET008NEW NOSI
0106065900999991995011101004+49617+006217SY-MT+0379ELLX V0202701N00571999999CN0100001N1+00651+00561099851ADDAG10999MA1099701999999MD1710421+9999OA149901081REMSYN017 333 91121 91215;MET005NEW ;EQDQ01+000000PRSWM2
0106065900999991995011102004+49617+006217SY-MT+0379ELLX V0202801N00621999999CN0100001N1+00721+00631099861ADDAG10999MA1099701999999MD1710221+9999OA149901081REMSYN017 333 91121 91212;MET005NEW ;EQDQ01+000000PRSWM2
0179065900999991995011103004+49617+006217SY-MT+0379ELLX V0203201N00821003601CN0150001N1+00701+00611100001ADDAG10001AW1211AZ161031AZ221031GA1071+003609999GF108991071051004501999999MA1099801999999MD1210061+9999OA149901391REMSYN023 333 87612 91127 91216;MET008NEW NOSIEQDQ01+000000PRSWM2
0165065900999991995011104004+49617+006217SY-MT+0379ELLX V0203401N00871003601CN0200001N1+00341+00111100281ADDAG10999GA1071+003609999GF107991071051004501999999MA1100101999999MD1210391+9999OA149901901OC101651REMSYN023 333 87612 91137 91219;MET008NEW NOSIEQDQ01+000000PRSWM2
0165065900999991995011105004+49617+006217SY-MT+0379ELLX V0203301N00461004501CN0200001N1+00241-00071100471ADDAG10999GA1071+004509999GF107991071051004501999999MA1100311999999MD1210541+9999OA149901961OC101031REMSYN023 333 87615 91138 91219;MET008NEW NOSIEQDQ01+000000PRSWM2
0261065900999991995011106004+49617+006217SY-MT+0379ELLX V0203301N00361004501CN0200001N1+00211-00171100661ADDAA199008091AG10001AW1021AZ161061AZ221061GA1071+004509999GA2071+009009999GF107991071051004501999999IA1099IA2999+00109KA1120N+00151MA1100411999999MD1210581+9999OA149901961REMSYN047 333 20015 31001 85615 86630 91138 91219 94013;MET008NEW NOSIEQDQ01+000000PRSWM2
0188065900999991995011107004+49617+006217SY-MT+0379ELLX V0203201N00461000901CN0022001N1+00051-00091100821ADDAG10999AW1701AZ171011AZ221011GA1071+000909999GA2071+003009999GF107991071051000751999999MA1100611999999MD1210481+9999MW1101OA149900931REMSYN029 333 85703 87610 91118 91209;MET008NEW NOSI
0212065900999991995011108004+49617+006217SY-MT+0379ELLX V0203301N00311009001CN0200001N1+00061-00241100951ADDAG10999AW1221AZ121021AZ221021GA1021+004509999GA2021+012009999GF105991051081004501001001MA1100711999999MD1210421+9999OA149901291REMSYN029 333 83815 83640 91125 91212;MET019NEW NOSIG 06590147;EQDQ01+000000PRSWM2
0179065900999991995011109004+49617+006217SY-MT+0379ELLX V0203001N00311220001CN0250001N1+00101-00331101051ADDAG10001AW1011AZ171031AZ211031GA1021+005409999GF104991041081004501001001MA1100811999999MD1210351+9999OA149901291REMSYN023 333 83818 91125 91212;MET008NEW NOSIEQDQ01+000000PRSWM2
0173065900999991995011110004+49617+006217SY-MT+0379ELLX V0203101N00361007201CN0250001N1+00121-00391101111ADDAG10999GA1071+007209999GF199999051081008001001001MA1100911999999MD1210291+9999OA149900881REMSYN023 333 85824 91117 91209;MET008NEW NOSIEQDQ01+000052SCOTCVQ02+000000PRSWM2
0173065900999991995011111004+49617+006217SY-MT+0379ELLX V0203101N00361007201CN0250001N1+00171-00421101151ADDAG10999GA1071+007209999GF199999061081008001999999MA1100911999999MD1210231+9999OA149900881REMSYN023 333 86824 91117 91207;MET008NEW NOSIEQDQ01+000062SCOTCVQ02+000000PRSWM2
0212065900999991995011112004+49617+006217SY-MT+0379ELLX V0203201N00461012001CN0220001N1+00191-00461101181ADDAA106000591AG10001AW1021AZ171061AZ211061GA1021+008409999GA2021+013509999GF106991061081008001999999MA1101021999999MD1210171+9999OA149901291REMSYN029 333 84828 84645 91125 91213;MET008NEW NOSIEQDQ01+000000PRSWM2
0221065900999991995011113004+49617+006217SY-MT+0379ELLX V0202801N00411006001CN0020001N1+00201-00521101191ADDAG10999AW1851AZ121011AZ221011GA1021+003009999GA2021+003609099GA3071+006009999GF199999061091004501999999MD1210111+9999MW1101OA149900981REMSYN035 333 81710 81912 86820 91119 91210;MET015NEW Q7027<,98<;EQDQ01+000062SCOTCV
0187065900999991995011114004+49617+006217SY-MT+0379ELLX V0203201N00311012001CN0150001N1+00271-00451101221ADDAG10999AW1261AZ121021AZ221021GA1021+009009999GF105991051081008001001001MA1101021999999MD1210091+9999OA149901031OC100821REMSYN023 333 84830 91120 91211;MET008NEW NOSIEQDQ01+000000PRSWM2
0179065900999991995011115004+49617+006217SY-MT+0379ELLX V0202801N00361012001CN0150001N1+00181-00541101301ADDAG10001AW1021AZ181031AZ221031GA1021+008109999GF105991051081008001001001MA1101081999999MD1210121+9999OA149901031REMSYN023 333 84827 91120 91211;MET008NEW NOSIEQDQ01+000000PRSWM2
0228065900999991995011116004+49617+006217SY-MT+0379ELLX V0203001N00261007501CN0070001N1+00001-00141101411ADDAG10999AW1261AZ121011AZ221011GA1021+002409999GA2071+007509999GF199999061081002501999999MA1101191999999MD1210161+9999OA149900931REMSYN029 333 83708 85825 91118 91211;MET019NEW NOSIG 06592526;EQDQ01+000062SCOTCVQ02+000000PRSWM2
0157065900999991995011117004+49617+006217SY-MT+0379ELLX V0202801N00361220001CN0200001N1-00051-00191101451ADDAG10999GA1021+003909999GF104991041051004501001001MA1101191999999MD1210161+9999OA149900621REMSYN023 333 84613 91112 91207;MET008NEW NOSIEQDQ01+000000PRSWM2
0225065900999991995011118004+49617+006217SY-MT+0379ELLX V0202801N00361006601CN0200001N1-00021-00241101491ADDAA199001091AG10001AW1031AZ181061AZ221061GA1071+006609999GF199999051051008001001001KA1120M+00271MA1101191999999MD1210131+9999OA149901031REMSYN029 333 10027 85622 91120 91211;MET008NEW NOSIEQDQ01+000052SCOTCVQ02+000000PRSWM2
0157065900999991995011119004+49617+006217SY-MT+0379ELLX V0202901N00261006001CN0200001N1-00011-00231101551ADDAG10999GA1071+006009999GF107991071051004501999999MA1101291999999MD1210111+9999OA149900771REMSYN023 333 87618 91115 91209;MET008NEW NOSIEQDQ01+000000PRSWM2
0179065900999991995011120004+49617+006217SY-MT+0379ELLX V0209991V00261009001CN0200001N1-00011-00151101601ADDAG10999GA1021+005109999GA2071+009009999GF107991071081004501999999MA1101291999999MD1210131+9999OA149900931REMSYN029 333 84813 86630 91118 91208;MET008NEW NOSIEQDQ01+000000PRSWM2
0179065900999991995011121004+49617+006217SY-MT+0379ELLX V0202801N00411220001CN0200001N1-00011-00181101641ADDAG10000GA1071+006609999GF199999031051008001001001MA1101391999999MD1210131+9999OA149900931REMSYN029 333 41993 83629 91118 91209;MET008NEW NOSIEQDQ01+000032SCOTCVQ02+000000PRSWM2
0157065900999991995011122004+49617+006217SY-MT+0379ELLX V0202901N00311220001CN0200001N1-00051-00291101641ADDAG10999GA1021+009009999GF103991031051008001001001MA1101391999999MD1210091+9999OA149900621REMSYN023 333 83630 91112 91208;MET008NEW NOSIEQDQ01+000000PRSWM2
0195065900999991995011123004+49617+006217SY-MT+0379ELLX V0202801N00411220001CN0120001N1-00061-00201101681ADDAG10999AW1221AZ121021AZ221021GA1021+001809999GA2071+004509999GF199999041051008001001001MA1101391999999MD1210081+9999OA149900721REMSYN023 333 84630 91114 91209;MET008NEW NOSIEQDQ01+000042SCOTCV
0177065900999991995011200004+49617+006217SY-MT+0379ELLX V0202701N00261002101CN0035001N1-00081-00191101681ADDAA106999929AG10001AW1701AZ171061AZ211061GA1071+002109999GF107991071071002501999999MA1101391999999MD1210041+9999OA149900931REMSYN029 333 42995 87707 91118 91209;MET008NEW NOSI
0106065900999991995011201004+49617+006217SY-MT+0379ELLX V0202801N003619999999N0050001N1-00061-00171101661ADDAG10999MA1101391999999MD1210031+9999OA149900571REMSYN017 333 91111 91207;MET005NEW ;EQDQ01+000000PRSWM2
0117065900999991995011202004+49617+006217SY-MT+0379ELLX V0202601N00261999999CN0013001N1-00061-00171101681ADDAG10999ED199U20009MA1101391999999MD1210011+9999OA149900721REMSYN017 333 91114 91209;MET005NEW ;EQDQ01+000000PRSWM2
0166065900999991995011203004+49617+006217SY-MT+0379ELLX V0202801N00361001501CN0040001N1-00061-00171101681ADDAG10001AW1711AZ171031AZ221031GA1071+001509999GF108991081071001501999999MA1101391999999MD1410001+9999OA149900771REMSYN029 333 43002 87705 91115 91209;MET008NEW NOSI
0153065900999991995011204004+49617+006217FM-12+0379ELLX V0202801N00461001501CN0060001N1-00061-00161101681ADDAG10999AW1711AZ171011AZ271011GA1051+001509079GA2071+002409079GF108991081071001501999999MD1410001+9999OA149900821REMSYN029 333 85705 87708 91116 91209;
0182065900999991995011205004+49617+006217SY-MT+0379ELLX V0202801N00461002101CN0060001N1-00041-00141101681ADDAG10999AW1701AZ171021AZ221021GA1071+002109999GA2071+003309999GF108991071051002501999999MA1101391999999MD1710021+9999OA149900821REMSYN029 333 85707 87611 91116 91210;MET008NEW NOSI
0110065900999991995011205504+49617+006217FM-15+0379ELLX V0202801N99999002401CN0070001N1+00001-00101999999ADDAG10000GA1071+002409999GA2071+003909999MA1101391999999MW1711REMMET019NEW NOSIG 06590528;EQDQ01+004583WOSPD 
0207065900999991995011207004+49617+006217SY-MT+0379ELLX V0202701N00461002401CN0025001N1-00061-00141101601ADDAG10999AW1221AZ121041AZ221041GA1071+002409999GA2071+004809999GF108991071071000751999999MA1101291999999MD1710081+9999OA149900931REMSYN023 333 87703 91118 91211;MET020NEW NOSIG 065910 22;EQDQ01+000000PRSWM2
0193065900999991995011208004+49617+006217SY-MT+0379ELLX V0202801N00571000901CN0035001N1-00011-00181101531ADDAG10999AW1851AZ181051AZ221051GA1071+000909999GA2071+003609999GF108991071081000751999999MA1101291999999MD1710141+9999OA149900931REMSYN029 333 86703 86812 91118 91213;MET019NEW NOSIG 06//99//;
0209065900999991995011209004+49617+006217SY-MT+0379ELLX V0203001N00461000901CN0030001N1+00021-00081101531ADDAG10001AW1851AZ181031AZ221031ED199U08009GA1071+000909999GA2071+003609999GF108991071081001501999999MD1710081+9999MW1101OA149900931REMSYN035 333 43006 86705 86812 91118 91213;MET027NEW 2 Q1012 NOSIG 06//99//;
0182065900999991995011210004+49617+006217SY-MT+0379ELLX V0203101N00621002701CN0120001N1+00081-00071101591ADDAG10999AW1851AZ181011AZ221011GA1071+002709999GA2071+004209999GF107991071081002501999999MA1101291999999MD1410001+9999OA149901241REMSYN029 333 85709 86814 91124 91212;MET008NEW NOSI
0201065900999991995011211004+49617+006217SY-MT+0379ELLX V0203301N00621012001CN0150001N1+00191-00041101681ADDAG10999AW1261AZ121021AZ221021GA1021+006009999GA2021+013509999GF105991051081008001001001MA1101391999999MD1210151+9999OA149901391REMSYN029 333 83820 84645 91127 91214;MET008NEW NOSIEQDQ01+000000PRSWM2
0193065900999991995011212004+49617+006217SY-MT+0379ELLX V0203501N00621999999CN0250001N1+00201-00031101861ADDAG10000GA1021+005409999GA2021+010509999GF106991999999004501999999MA1101591999999MD1210321+9999OA149901391OC101231REMSYN035 333 43005 83818 84635 91127 91214;MET008NEW NOSIEQDQ01+000000PRSWM2
0165065900999991995011213004+49617+006217SY-MT+0379ELLX V0203601N00771220001CN0300001N1+00221-00091101991ADDAG10999GA1021+008109999GF103991031081008001001001MA1101691999999MD1210391+9999OA149901601OC101291REMSYN023 333 83827 91131 91217;MET008NEW NOSIEQDQ01+000000PRSWM2
0165065900999991995011214004+49617+006217SY-MT+0379ELLX V0203501N00571220001CN0300001N1+00211-00401102161ADDAG10999GA1021+007509999GF102991021021008001001001MA1101901999999MD1210461+9999OA149901441OC101231REMSYN023 333 82825 91128 91215;MET008NEW NOSIEQDQ01+000000PRSWM2
0115065900999991995011215004+49617+006217FM-12+0379ELLX V0203501N00621220001CN0300001N1+00151-00541102311ADDAG10000GA1011+009009089GF102991021081008001001001MD1210431+9999OA149901601REMSYN029 333 42002 81830 91131 91217;
0109065900999991995011217004+49617+006217FM-12+0379ELLX V0203601N00721220001CN0300001N1-00031-00671102681ADDAG10999GA1021+012009059GF102991021051012501001001MD1210481+9999OA149901181REMSYN023 333 82640 91123 91214;
0171065900999991995011218004+49617+006217SY-MT+0379ELLX V0203601N00511220001CN0300001N1-00051-00631102831ADDAG10000GA1021+015009059GF102991999999017501999999MA1102511999999MD1210481+9999OA149901601REMSYN029 333 42001 82650 91131 91217;MET016NEW CAVOK NOSIG;EQDQ01+000000PRSWM2
0069065900999991995011219204+49617+006217FM-15+0379ELLX V0203501N00311999991CY0099001N1-00101-00701999999ADDAG10999MA1102711999999REMMET016NEW CAVOK NOSIG;EQDQ01+000000PRSWM2
0149065900999991995011221004+49617+006217SY-MT+0379ELLX V0203501N00311220001CN0250001N1-00141-00651103151ADDAG10000GF100991001001999999001001MA1102911999999MD1210301+9999OA149900981REMSYN023 333 41995 91119 91211;MET016NEW CAVOK NOSIG;EQDQ01+000000PRSWM2
0183065900999991995011222004+49617+006217SY-MT+0379ELLX V0203301N00311220001CN0250001N1-00161-00561103211ADDAG10999GA1021+012009999GF199999001001999999001001MA1102911999999MD1210201+9999OA149900931REMSYN017 333 91118 91207;MET008NEW NOSIEQDQ01+000002SCOTCVQ02+000992SCOLCBQ03+000000PRSWM2
0179065900999991995011223004+49617+006217SY-MT+0379ELLX V0203401N00411006901CN0140001N1-00111-00481103281ADDAG10999AW1701AZ171021AZ221021GA1071+006909999GF199999061051008001999999MA1103011999999MD1210191+9999OA149900771REMSYN023 333 86623 91115 91208;MET008NEW NOSIEQDQ01+000062SCOTCV
0196065900999991995011300004+49617+006217SY-MT+0379ELLX V0209991V00261220001CN0150001N1-00091-00441103321ADDAA106999929AG10001AW1221AZ171061AZ211061GA1021+009009999GF104991041051008001001001MA1103011999999MD1210191+9999OA149900981REMSYN029 333 42995 84630 91119 91211;MET008NEW NOSIEQDQ01+000000PRSWM2
0106065900999991995011301004+49617+006217SY-MT+0379ELLX V0209991V00211999999CN0100001N1-00111-00411103381ADDAG10999MA1103181999999MD1210181+9999OA149900671REMSYN017 333 91113 91207;MET005NEW ;EQDQ01+000000PRSWM2
0106065900999991995011302004+49617+006217SY-MT+0379ELLX V0203401N00261999999CN0100001N1-00121-00421103521ADDAG10999MA1103181999999MD1210231+9999OA149900511REMSYN017 333 91110 91206;MET005NEW ;EQDQ01+000000PRSWM2
0163065900999991995011303004+49617+006217SY-MT+0379ELLX V0202601N00211011401CN0120001N1-00141-00411103541ADDAG10000GA1071+011409999GF107991071051012501999999MA1103181999999MD1210201+9999OA149900671REMSYN029 333 42995 87638 91113 91207;MET008NEW NOSIEQDQ01+000000PRSWM2
0157065900999991995011304004+49617+006217SY-MT+0379ELLX V0202701N00151011401CN0150001N1-00141-00391103591ADDAG10999GA1071+011409999GF107991071051012501999999MA1103291999999MD1210191+9999OA149900311REMSYN023 333 87638 91106 91204;MET008NEW NOSIEQDQ01+000000PRSWM2
0157065900999991995011305004+49617+006217SY-MT+0379ELLX V0202701N00211011401CN0150001N1-00161-00381103631ADDAG10999GA1071+011409999GF107991071051012501999999MA1103291999999MD1210091+9999OA149900311REMSYN023 333 87638 91106 91204;MET008NEW NOSIEQDQ01+000000PRSWM2
0239065900999991995011306004+49617+006217SY-MT+0379ELLX V0209991V00151010501CN0150001N1-00181-00371103681ADDAG10000AJ199999999999999GA1071+010509999GF107991999999012501999999IA2999-00409KA1120N-00191MA1103391999999MD1210111+9999OA149900671REMSYN047 333 21019 3/104 42995 87635 91113 91207 94050;MET008NEW NOSIEQDQ01+000000PRSWM2Q02  09952SNDP  
0157065900999991995011307004+49617+006217SY-MT+0379ELLX V0202701N00211009001CN0120001N1-00151-00381103731ADDAG10999GA1071+009009999GF107991071051008001999999MA1103391999999MD1210121+9999OA149900311REMSYN023 333 87630 91106 91204;MET008NEW NOSIEQDQ01+000000PRSWM2
0157065900999991995011308004+49617+006217SY-MT+0379ELLX V0209991V00051009001CN0080001N1-00171-00441103801ADDAG10999GA1071+009009999GF107991071051008001001001MA1103491999999MD1210151+9999OA149900411REMSYN023 333 87630 91108 91204;MET008NEW NOSIEQDQ01+000000PRSWM2
0171065900999991995011309004+49617+006217SY-MT+0379ELLX V0202601N00151015001CN0100001N1-00121-00421103751ADDAG10000GA1071+015009059GF107991071051017501999999MA1103391999999MD1210061+9999OA149900411REMSYN029 333 42002 87650 91108 91204;MET016NEW CAVOK NOSIG;EQDQ01+000000PRSWM2
0165065900999991995011310004+49617+006217SY-MT+0379ELLX V0202801N00101015001CN0120001N1-00061-00351103791ADDAG10999GA1071+015009059GF107991071051017501031999MA1103491999999MD1210061+9999OA149900211REMSYN023 333 87650 91104 91203;MET016NEW CAVOK NOSIG;EQDQ01+000000PRSWM2
0165065900999991995011311004+49617+006217SY-MT+0379ELLX V0209991V00051015001CN0150001N1+00081-00281103801ADDAG10999GA1061+015009059GF107991061051017501031021MA1103491999999MD1210021+9999OA149900311REMSYN023 333 86650 91106 91204;MET016NEW CAVOK NOSIG;EQDQ01+000000PRSWM2
0204065900999991995011312004+49617+006217SY-MT+0379ELLX V0209991V00151220001CN0150001N1+00151-00241103761ADDAA106000091AG10000GA1011+015009059GA2031+060009009GF103991011051017501031021MA1103491999999MD1210041+9999OA149900411REMSYN035 333 42002 81650 83070 91108 91204;MET016NEW CAVOK NOSIG;EQDQ01+000000PRSWM2
0165065900999991995011313004+49617+006217SY-MT+0379ELLX V0202601N00151220001CN0140001N1+00341-00251103681ADDAG10999GA1011+030009039GF102991011001999999031091MA1103391999999MD1710071+9999OA149900311REMSYN023 333 81360 91106 91204;MET016NEW CAVOK NOSIG;EQDQ01+000000PRSWM2
0173065900999991995011314004+49617+006217SY-MT+0379ELLX V0202701N00211220001CN0150001N1+00291-00411103691ADDAG10999GA1021+004509999GA2021+030009999GF103991021051004501001021MA1103391999999MD1710091+9999OA149900361REMSYN023 333 82615 91107 91205;MET008NEW NOSIEQDQ01+000000PRSWM2
0171065900999991995011315004+49617+006217SY-MT+0379ELLX V0202701N00151220001CN0130001N1+00271-00411103701ADDAG10000GA1021+030009039GF102991021001999999031021MA1103391999999MD1710051+9999OA149900361REMSYN029 333 42001 82360 91107 91205;MET016NEW CAVOK NOSIG;EQDQ01+000000PRSWM2
0109065900999991995011316004+49617+006217FM-12+0379ELLX V0202701N00151030001CN0080001N1+00181-00331103681ADDAG10999GA1051+030009039GF105991051001999999031021MD1710011+9999OA149900261REMSYN023 333 85360 91105 91203;
0157065900999991995011317004+49617+006217SY-MT+0379ELLX V0202301N00211010501CN0120001N1+00101-00211103711ADDAG10999GA1071+010509999GF107991071051012501999999MA1103391999999MD1410001+9999OA149900311REMSYN023 333 87635 91106 91204;MET008NEW NOSIEQDQ01+000000PRSWM2
0174065900999991995011318004+49617+006217SY-MT+0379ELLX V0202501N00261010501CN0100001N1+00091-00221103721ADDAA106000091AG10000GA1071+010509999GF107991071051012501999999MA1103391999999MD1410001+9999OA149900361REMSYN029 333 42001 87635 91107 91206;MET008NEW NOSIEQDQ01+000000PRSWM2
0157065900999991995011319004+49617+006217SY-MT+0379ELLX V0202601N00211009001CN0050001N1+00081-00181103741ADDAG10999GA1071+009009999GF107991071051008001999999MA1103391999999MD1210041+9999OA149900311REMSYN023 333 87630 91106 91205;MET008NEW NOSIEQDQ01+000000PRSWM2
0179065900999991995011320004+49617+006217SY-MT+0379ELLX V0202401N00261006901CN0040001N1+00041-00211103761ADDAG10999GA1021+001809999GA2071+006909999GF107991071051001501999999MA1103391999999MD1210041+9999OA149900361REMSYN029 333 83706 87623 91107 91205;MET008NEW NOSIEQDQ01+000000PRSWM2
0185065900999991995011321004+49617+006217SY-MT+0379ELLX V0202301N00261000901CN0035001N1+00011-00131103701ADDAG10000AW1101AZ121031AZ221031GA1071+000909999GF107991071061000751999999MA1103391999999MD1710021+9999OA149900361REMSYN029 333 42001 87703 91107 91205;MET008NEW NOSIEQDQ01+000000PRSWM2
0171065900999991995011322004+49617+006217SY-MT+0379ELLX V0202501N00261000301CN0015001N1+00001-00041103691ADDAG10999AW1101AZ121011AZ221011ED199U11009GA1081+000309999GF108991081061000751999999MA1103391999999MD1710051+9999OA149900411REMSYN023 333 88702 91108 91206;MET008NEW NOSI
0171065900999991995011323004+49617+006217SY-MT+0379ELLX V0202301N00261000301CN0003001N1-00021-00021103671ADDAG10999AW1481AZ141021AZ221021ED199U09009GA1081+000309999GF108991081061000251999999MA1103291999999MD1710071+9999OA149900411REMSYN023 333 88701 91108 91207;MET008NEW NOSI
0207065900999991995011400004+49617+006217SY-MT+0379ELLX V0202201N00261000301CN0001001N1-00021-00021103591ADDAA106999999AG10000AW1481AZ141061AZ221061ED199U06009GA1081+000309999GF108991081061000251999999MA1103291999999MD1710081+9999OA149900461REMSYN029 333 42001 88701 91109 91207;MET008NEW NOSIEQDQ01  00002PRCP06
0061065900999991995011401004+49617+006217FM-12+0379ELLX V0202101N002619999999N0001001N1-00031-00031103521ADDAG10999MD1710131+9999OA149900361REMSYN017 333 91107 91206;
0117065900999991995011402004+49617+006217SY-MT+0379ELLX V0202201N00261999999CN0001001N1-00021-00021103491ADDAG10999ED199U08009MA1103181999999MD1710151+9999OA149900361REMSYN017 333 91107 91205;MET005NEW ;EQDQ01+000000PRSWM2
0177065900999991995011403004+49617+006217SY-MT+0379ELLX V0202001N00211000301CN0001001N1-00021-00021103451ADDAG10000AW1481AZ141031AZ241031ED199U11009GA1081+000309999GF108991081061000251999999MA1103181999999MD1710131+9999OA149900361REMSYN029 333 42001 88701 91107 91206;MET008NEW NOSI
0131065900999991995011404004+49617+006217FM-12+0379ELLX V0202001N00261000301CN0001001N1-00031-00031103391ADDAG10999AW1481AZ141011AZ241011GA1081+000309079GF108991081061000251999999MD1710131+9999OA149900411REMSYN023 333 88701 91108 91206;
0171065900999991995011405004+49617+006217SY-MT+0379ELLX V0202001N00311000301CN0001001N1-00031-00031103381ADDAG10999AW1481AZ141021AZ241021ED199U06509GA1081+000309999GF108991081061000251999999MA1103121999999MD1710121+9999OA149900411REMSYN023 333 88701 91108 91206;MET008NEW NOSI
0254065900999991995011406004+49617+006217SY-MT+0379ELLX V0202001N00311000301CN0003001N1-00041-00041103361ADDAA199000191AG10000AJ100019199999999AW1561AZ151061AZ241061ED199U09009GA1081+000309999GF108991081061000251999999IA2999-00109KA1120N-00051MA1103121999999MD1710101+9999MW1101OA149900411REMSYN047 333 21005 3/101 42001 88701 91108 91206 94037;MET008NEW NOSI
0177065900999991995011407004+49617+006217SY-MT+0379ELLX V0202101N00311000301CN0002001N1-00031-00031103341ADDAG10999AW1561AZ151011AZ251011ED199U16009GA1081+000309999GF108991081061000251999999MA1103011999999MD1710061+9999MW1481OA149900571REMSYN023 333 88701 91111 91207;MET008NEW NOSI
0177065900999991995011408004+49617+006217SY-MT+0379ELLX V0202001N00261000301CN0001001N1-00041-00041103341ADDAG10999AW1701AZ171021AZ251021ED199U04509GA1081+000309999GF108991081061000251999999MA1103011999999MD1710041+9999MW1481OA149900511REMSYN023 333 88701 91110 91206;MET008NEW NOSI
0177065900999991995011409004+49617+006217SY-MT+0379ELLX V0202001N00211000301CN0001001N1-00051-00051103351ADDAG10000AW1221AZ151031AZ241031ED199U05009GA1081+000309999GF108991081061000251999999MA1103011999999MD1710021+9999OA149900571REMSYN029 333 42001 88701 91111 91207;MET008NEW NOSI
0177065900999991995011410004+49617+006217SY-MT+0379ELLX V0202101N00211000301CN0001001N1-00031-00031103351ADDAG10999AW1561AZ151011AZ241011ED199U03259GA1081+000309999GF108991081061000251999999MA1103011999999MD1410001+9999MW1481OA149900411REMSYN023 333 88701 91108 91205;MET008NEW NOSI
0177065900999991995011411004+49617+006217SY-MT+0379ELLX V0202001N00261000301CN0001001N1-00011-00011103301ADDAG10999AW1561AZ151021AZ241021ED199U03009GA1081+000309999GF108991081061000251999999MA1103011999999MD1710051+9999MW1481OA149900361REMSYN023 333 88701 91107 91205;MET008NEW NOSI
0148065900999991995011412004+49617+006217FM-12+0379ELLX V0202001N00261000301CN0002001N1-00011-00011103231ADDAA106000191AG10000AW1661AZ151061AZ241061GA1081+000309079GF108991081061000251999999MD1710111+9999OA149900571REMSYN029 333 42001 88701 91111 91207;
0177065900999991995011413004+49617+006217SY-MT+0379ELLX V0201901N00261000301CN0002001N1+00021+00021103181ADDAG10999AW1581AZ161011AZ261011ED199U04009GA1081+000309999GF108991081061000251999999MA1102911999999MD1710161+9999MW1441OA149900361REMSYN023 333 88701 91107 91205;MET008NEW NOSI
0177065900999991995011414004+49617+006217SY-MT+0379ELLX V0202101N00211000301CN0003001N1+00031+00031103151ADDAG10999AW1581AZ161021AZ241021ED199U05509GA1081+000309999GF108991081061000251999999MA1102911999999MD1710131+9999MW1441OA149900571REMSYN023 333 88701 91111 91206;MET008NEW NOSI
0207065900999991995011415004+49617+006217SY-MT+0379ELLX V0202001N00211000301CN0001001N1+00051+00051103131ADDAA106999999AG10002AW1581AZ161031AZ241031ED199U03259GA1081+000309999GF108991081061000251999999MA1102811999999MD1710091+9999OA149900571REMSYN029 333 42001 88701 91111 91206;MET008NEW NOSIEQDQ01  00002PRCP06
0171065900999991995011416004+49617+006217SY-MT+0379ELLX V0202301N00211000301CN0001001N1+00081+00081103131ADDAG10999AW1581AZ161011AZ241011ED199U03009GA1081+000309999GF108991081061000251999999MA1102811999999MD1710041+9999OA149900721REMSYN023 333 88701 91114 91205;MET008NEW NOSI
0171065900999991995011417004+49617+006217SY-MT+0379ELLX V0202101N00211000301CN0001001N1+00081+00081103121ADDAG10999AW1581AZ161021AZ241021ED199U03009GA1081+000309999GF108991081061000251999999MA1102811999999MD1710031+9999OA149900261REMSYN023 333 88701 91105 91204;MET008NEW NOSI
0188065900999991995011418004+49617+006217SY-MT+0379ELLX V0202001N00151000301CN0001001N1+00071+00071103141ADDAA199001091AG10001AW1581AZ151061AZ281061ED199U02759GA1081+000309999GF108991081061000251999999MA1102911999999MD1210011+9999OA149900721REMSYN029 333 42001 88701 91114 91206;MET008NEW NOSI
0177065900999991995011419004+49617+006217SY-MT+0379ELLX V0202101N00211000301CN0001001N1+00071+00071103131ADDAG10999AW1581AZ161011AZ241011ED199U03009GA1081+000309999GF108991081061000251999999MA1102811999999MD1410001+9999MW1441OA149900311REMSYN023 333 88701 91106 91204;MET008NEW NOSI
0171065900999991995011420004+49617+006217SY-MT+0379ELLX V0202201N00151000301CN0001001N1+00071+00071103141ADDAG10999AW1441AZ161021AZ241021ED199U03009GA1081+000309999GF108991081061000251999999MA1102911999999MD1210021+9999OA149900261REMSYN023 333 88701 91105 91204;MET008NEW NOSI
0177065900999991995011421004+49617+006217SY-MT+0379ELLX V0202201N00261000301CN0001001N1+00101+00101103121ADDAG10001AW1441AZ161031AZ241031ED199U02759GA1081+000309999GF108991081061000251999999MA1102811999999MD1710021+9999OA149900361REMSYN029 333 42001 88701 91107 91205;MET008NEW NOSI
0171065900999991995011422004+49617+006217SY-MT+0379ELLX V0202401N00101000301CN0001001N1+00101+00101103101ADDAG10999AW1441AZ141011AZ241011ED199U02759GA1081+000309999GF108991081061000251999999MA1102811999999MD1710031+9999OA149900311REMSYN023 333 88701 91106 91205;MET008NEW NOSI
0187065900999991995011423004+49617+006217SY-MT+0379ELLX V0202301N00211000301CN0001001N1+00101+00101103101ADDAG10999AW1441AZ141021AZ241021ED199U02759GA1081+000309079GF108991081061000251999999MA1102811999999MD1710041+9999OA149900311REMSYN023 333 88701 91106 91204;MET005NEW ;EQDQ01+000000PRSWM2
0204065900999991995011500004+49617+006217SY-MT+0379ELLX V0202101N00151000301CN0001001N1+00121+00121103071ADDAA106999929AG10001AW1441AZ161061AZ241061ED199U02509GA1081+000309079GF108991081071000251999999MA1102811999999MD1710041+9999OA149900361REMSYN029 333 42001 88701 91107 91205;MET005NEW ;EQDQ01+000000PRSWM2
0117065900999991995011501004+49617+006217SY-MT+0379ELLX V0201901N00151999999CN0000001N1+00121+00121103071ADDAG10999ED199U02759MA1102811999999MD1710021+9999OA149900261REMSYN017 333 91105 91204;MET005NEW ;EQDQ01+000000PRSWM2
0117065900999991995011502004+49617+006217SY-MT+0379ELLX V0202201N00211999999CN0000001N1+00151+00151103081ADDAG10999ED199U02509MA1102811999999MD1710011+9999OA149900261REMSYN017 333 91105 91204;MET005NEW ;EQDQ01+000000PRSWM2
0171065900999991995011504004+49617+006217SY-MT+0379ELLX V0202401N00211000301CN0001001N1+00181+00181103041ADDAG10999AW1441AZ141041AZ241041ED199U03759GA1081+000309999GF108991081061000251999999MA1102811999999MD1710021+9999OA149900311REMSYN023 333 88701 91106 91205;MET008NEW NOSI
0171065900999991995011505004+49617+006217SY-MT+0379ELLX V0202201N00151000301CN0001001N1+00151+00151103021ADDAG10999AW1441AZ141051AZ241051ED199U03009GA1081+000309999GF108991081061000251999999MA1102711999999MD1710051+9999OA149900311REMSYN023 333 88701 91106 91204;MET008NEW NOSI
0267065900999991995011506004+49617+006217SY-MT+0379ELLX V0202501N00211000301CN0001001N1+00191+00191103061ADDAA199999929AG10000AJ100019199999999AW1441AZ141061AZ241061ED199U03009GA1081+000309999GF108991081061000251999999IA2999+00009KA1120N+00051MA1102811999999MD1210011+9999OA149900361REMSYN047 333 20005 3/000 42001 88701 91107 91206 94000;MET008NEW NOSIEQDQ01+000000PRSWM2
0177065900999991995011507004+49617+006217SY-MT+0379ELLX V0202301N00311000301CN0001001N1+00191+00191103081ADDAG10999AW1581AZ151011AZ241011ED199U02759GA1081+000309999GF108991081061000251999999MA1102811999999MD1210041+9999MW1441OA149900411REMSYN023 333 88701 91108 91206;MET008NEW NOSI
0171065900999991995011508004+49617+006217SY-MT+0379ELLX V0202301N00151000151CN0000001N1+00211+00211103101ADDAG10999AW1461AZ161021AZ241021ED199U02759GA1081+000159999GF108991081061000251999999MA1102811999999MD1210081+9999OA149900361REMSYN023 333 88700 91107 91206;MET008NEW NOSI
0177065900999991995011509004+49617+006217SY-MT+0379ELLX V0209991V00151000151CN0000001N1+00241+00241103101ADDAG10001AW1441AZ161031AZ241031ED199U02259GA1081+000159999GF108991081061000251999999MA1102811999999MD1210051+9999OA149900411REMSYN029 333 42995 88700 91108 91206;MET008NEW NOSI
0131065900999991995011510004+49617+006217FM-12+0379ELLX V0209991V00211000301CN0001001N1+00281+00281103141ADDAG10999AW1421AZ141011AZ241011GA1081+000309079GF108991081061000251999999MD1210071+9999OA149900411REMSYN023 333 88701 91108 91205;
0171065900999991995011511004+49617+006217SY-MT+0379ELLX V0209991V00211000301CN0001001N1+00301+00301103141ADDAG10999AW1441AZ141021AZ241021ED199U03009GA1081+000309999GF108991081061000251999999MA1102911999999MD1210051+9999OA149900311REMSYN023 333 88701 91106 91204;MET008NEW NOSI
0188065900999991995011512004+49617+006217SY-MT+0379ELLX V0202201N00151000301CN0000001N1+00311+00311103081ADDAA106999929AG10001AW1461AZ161061AZ241061ED199U03009GA1081+000309999GF108991081061000251999999MA1102811999999MD1710021+9999OA149900411REMSYN029 333 41995 88700 91108 91206;MET008NEW NOSI
0171065900999991995011513004+49617+006217SY-MT+0379ELLX V0201801N00101000301CN0001001N1+00321+00321103041ADDAG10999AW1421AZ141011AZ241011ED199U02259GA1081+000309999GF108991081061000251999999MA1102811999999MD1710091+9999OA149900461REMSYN023 333 88701 91109 91204;MET008NEW NOSI
0171065900999991995011514004+49617+006217SY-MT+0379ELLX V0201801N00101000301CN0001001N1+00341+00341103031ADDAG10999AW1441AZ141021AZ241021ED199U02509GA1081+000309999GF108991081061000251999999MA1102811999999MD1710101+9999OA149900211REMSYN023 333 88701 91104 91202;MET008NEW NOSI
0171065900999991995011515004+49617+006217SY-MT+0379ELLX V0209991V00101000301CN0001001N1+00351+00351103041ADDAG10000AW1441AZ141031AZ241031ED199U02509GA1081+000309999GF108991081061000251999999MA1102811999999MD1710031+9999OA149900461REMSYN023 333 88701 91109 91204;MET008NEW NOSI
0171065900999991995011516004+49617+006217SY-MT+0379ELLX V0201801N00051000301CN0001001N1+00331+00331103041ADDAG10999AW1441AZ141011AZ241011ED199U03009GA1081+000309999GF108991081061000251999999MA1102811999999MD1410001+9999OA149900211REMSYN023 333 88701 91104 91202;MET008NEW NOSI
0171065900999991995011517004+49617+006217SY-MT+0379ELLX V0201701N00101000301CN0001001N1+00311+00311103031ADDAG10999AW1441AZ141021AZ241021ED199U02509GA1081+000309999GF108991081061000251999999MA1102811999999MD1410001+9999OA149900311REMSYN023 333 88701 91106 91202;MET008NEW NOSI
0201065900999991995011518004+49617+006217SY-MT+0379ELLX V0201401N00101000301CN0001001N1+00311+00311103031ADDAA199000191AG10000AW1441AZ141061AZ241061ED199U02759GA1081+000309999GF108991081061000251999999KA1120M+00371MA1102811999999MD1710011+9999OA149900461REMSYN029 333 10037 88701 91109 91204;MET008NEW NOSI
0171065900999991995011519004+49617+006217SY-MT+0379ELLX V0201501N00151000301CN0001001N1+00291+00291103031ADDAG10999AW1441AZ141011AZ241011ED199U04509GA1081+000309999GF108991081061000251999999MA1102811999999MD1710011+9999OA149900361REMSYN023 333 88701 91107 91203;MET008NEW NOSI
0171065900999991995011520004+49617+006217SY-MT+0379ELLX V0201501N00151000901CN0001001N1+00281+00281103021ADDAG10999AW1441AZ141021AZ241021ED199U12009GA1081+000909999GF108991081061000251999999MA1102811999999MD1710011+9999OA149900311REMSYN023 333 88701 91106 91204;MET008NEW NOSI
0131065900999991995011521004+49617+006217FM-12+0379ELLX V0209991V00101000901CN0006001N1+00271+00271103001ADDAG10000AW1421AZ141031AZ241031GA1081+000909079GF108991081061000751999999MD1710021+9999OA149900361REMSYN023 333 88703 91107 91204;
0171065900999991995011522004+49617+006217SY-MT+0379ELLX V0201401N00151000301CN0001001N1+00261+00261103001ADDAG10999AW1461AZ141011AZ241011ED199U03509GA1081+000309999GF108991081061000251999999MA1102811999999MD1710021+9999OA149900261REMSYN023 333 88701 91105 91203;MET008NEW NOSI
0171065900999991995011523004+49617+006217SY-MT+0379ELLX V0201301N00151000301CN0001001N1+00211+00211103011ADDAG10999AW1441AZ141021AZ241021ED199U02509GA1081+000309999GF108991081061000251999999MA1102811999999MD1710011+9999OA149900361REMSYN023 333 88701 91107 91205;MET008NEW NOSI
0161065900999991995011600004+49617+006217FM-12+0379ELLX V0209991V00151000301CN0000001N1+00161+00161102961ADDAA106999999AG10000AW1441AZ141061AZ241061GA1081+000309079GF108991081061000251999999MD1710051+9999OA149900511REMSYN023 333 88701 91110 91205;EQDQ01  00002PRCP06
0061065900999991995011601004+49617+006217FM-12+0379ELLX V0201401N002119999999N0000001N1+00131+00131102931ADDAG10999MD1710081+9999OA149900361REMSYN017 333 91107 91204;
0117065900999991995011602004+49617+006217SY-MT+0379ELLX V0201201N00211999999CN0000001N1+00091+00091102921ADDAG10999ED199U03009MA1102711999999MD1710091+9999OA149900311REMSYN017 333 91106 91204;MET005NEW ;EQDQ01+000000PRSWM2
0171065900999991995011603004+49617+006217SY-MT+0379ELLX V0209991V00151000301CN0001001N1+00031+00031102891ADDAG10000AW1441AZ141031AZ241031ED199U02759GA1081+000309999GF108991081061000251999999MA1102611999999MD1710071+9999OA149900361REMSYN023 333 88701 91107 91204;MET008NEW NOSI
0171065900999991995011604004+49617+006217SY-MT+0379ELLX V0201301N00151000301CN0001001N1-00011-00011102881ADDAG10999AW1441AZ141011AZ241011ED199U02259GA1081+000309999GF108991081061000251999999MA1102611999999MD1710061+9999OA149900311REMSYN023 333 88701 91106 91204;MET008NEW NOSI
0218065900999991995011605004+49617+006217SY-MT+0379ELLX V0209991V00211000301CN0001001N1-00061-00061102841ADDAG10999AW1441AZ141021AZ241021GA1081+000309079GF108991081061000251999999MD1710091+9999OA149900311REMSYN023 333 88701 91106 91204;MET062NEW 0450Z /////KT 0100 R24/0225 FG OVC001 M01/M01 Q1026 NOSIG;EQDQ01+000000PRSWM2
0178065900999991995011607004+49617+006217SY-MT+0379ELLX V0201301N00361000301CN0002001N1-00061-00061102801ADDAG10999AW1481AZ141041AZ241041ED199U05009GA1081+000309999GF108991081061000251999999MA1102511999999MD1710081+9999OA149900621REMSYN023 333 88701 91112 91207;MET015NEW BECMG 0500;
