0071065900999991993010100004+49617+006217FM-12+0379ELLX V0200401N002119999999N0100001N9-00431-01071103171ADDAA106000091AG14000MD1210111+9999OA149900361REMSYN016 333 91107 91205
0044065900999991993010100204+49617+006217FM-15+0379ELLX V0200501N00251220001CN0112651N1-00501-01101999999ADDAG11000MA1102911999999EQDQ01+000000PRSWM2
0055065900999991993010100504+49617+006217FM-15+0379ELLX V0200501N00301220001CN0014001N1-00501-01001999999ADDAG11999ED106U20009MA1102911999999EQDQ01+000000PRSWM2
0060065900999991993010101004+49617+006217FM-12+0379ELLX V0200501N003119999999N0014001N9-00481-01041103221ADDAG12999MD1210151+9999OA149900361REMSYN016 333 91107 91206
0055065900999991993010101504+49617+006217FM-15+0379ELLX V0200401N00251220001CN0014001N1-00501-01001999999ADDAG11999ED106U20009MA1102911999999EQDQ01+000000PRSWM2
0060065900999991993010102004+49617+006217FM-12+0379ELLX V0200401N002619999999N0014001N9-00501-01001103251ADDAG12999MD1210141+9999OA149900361REMSYN016 333 91107 91206
0055065900999991993010102204+49617+006217FM-15+0379ELLX V0200401N00201220001CN0014001N1-00501-01001999999ADDAG11999ED106U20009MA1103011999999EQDQ01+000000PRSWM2
0055065900999991993010102504+49617+006217FM-15+0379ELLX V0200501N00301220001CN0014001N1-00601-01001999999ADDAG11000ED106U20009MA1103011999999EQDQ01+000000PRSWM2
0060065900999991993010103004+49617+006217FM-12+0379ELLX V0200501N003119999999N0014001N9-00561-00981103311ADDAG12000MD1210121+9999OA149900411REMSYN016 333 91108 91206
0060065900999991993010104004+49617+006217FM-12+0379ELLX V0200401N003619999999N0013001N9-00551-00961103351ADDAG12999MD1210111+9999OA149900411REMSYN016 333 91108 91207
0055065900999991993010104204+49617+006217FM-15+0379ELLX V0200401N00361220001CN0014001N1-00601-01001999999ADDAG11999ED124U20009MA1103011999999EQDQ01+000000PRSWM2
0055065900999991993010104504+49617+006217FM-15+0379ELLX V0200401N00301220001CN0013001N1-00601-01001999999ADDAG11999ED124U20009MA1103011999999EQDQ01+000000PRSWM2
0060065900999991993010105004+49617+006217FM-12+0379ELLX V0200401N003119999999N0013001N9-00581-00971103371ADDAG12999MD1210091+9999OA149900461REMSYN016 333 91109 91207
0055065900999991993010105204+49617+006217FM-15+0379ELLX V0200501N00301220001CN0013001N1-00601-01001999999ADDAG11999ED106U20009MA1103011999999EQDQ01+000000PRSWM2
0055065900999991993010105504+49617+006217FM-15+0379ELLX V0200401N00301220001CN0013001N1-00601-01001999999ADDAG11000ED106U20009MA1103011999999EQDQ01+000000PRSWM2
0122065900999991993010106004+49617+006217FM-12+0379ELLX V0200401N003119999999N0013001N9-00601-00971103421ADDAA106000091AG14000GJ103609IA2999-00709KA1120N-00611MD1210081+9999OA149900461REMSYN034 333 21061 3/107 91109 91207 94060
0056065900999991993010106204+49617+006217FM-15+0379ELLX V0200401N00361220001CN0013001N1-00601-01001999999ADDAG11000ED106U20009MA1103121999999MW1051REMMET005NOSIG
0056065900999991993010106504+49617+006217FM-15+0379ELLX V0200501N00301220001CN0013001N1-00601-01001999999ADDAG11999ED106U20009MA1103121999999MW1051REMMET005NOSIG
0093065900999991993010107004+49617+006217SY-MT+0379ELLX V0200501N00311220001CN0013001N9-00631-01001103471ADDAG11999AW1051AZ131011AZ231011ED106U20009MD1210101+9999OA149900461REMSYN016 333 91109 91207
0055065900999991993010107204+49617+006217FM-15+0379ELLX V0200501N00361220001CN0013001N1-00601-01001999999ADDAG11999ED106U20009MA1103121999999EQDQ01+000000PRSWM2
0045065900999991993010107504+49617+006217FM-15+0379ELLX V0200501N00461220001CN0016001N1-00601-01001999999ADDAG11999MA1103121999999MW1051REMMET005NOSIG
0124065900999991993010108004+49617+006217FM-12+0379ELLX V0200501N00461220001CN0016001N9-00641-00991103511ADDAG11999AW1051AZ101021AZ201021GA1001+999999999GF100991001001999999001001MD1210111+9999OA149900571REMSYN016 333 91111 91209
0045065900999991993010108204+49617+006217FM-15+0379ELLX V0200501N00461220001CN0018001N1-00601-00901999999ADDAG11999MA1103181999999MW1051REMMET005NOSIG
0045065900999991993010108504+49617+006217FM-15+0379ELLX V0200501N00461220001CN0020001N1-00601-00901999999ADDAG11000MA1103181999999MW1051REMMET005NOSIG
0124065900999991993010109004+49617+006217FM-12+0379ELLX V0200501N00461220001CN0020001N9-00551-00921103561ADDAG11000AW1051AZ101031AZ201031GA1001+999999999GF100991001001999999001001MD1210131+9999OA149900671REMSYN016 333 91113 91210
0045065900999991993010109204+49617+006217FM-15+0379ELLX V0200501N00461220001CN0020001N1-00501-00901999999ADDAG11000MA1103181999999MW1051REMMET005NOSIG
0061065900999991993010109504+49617+006217FM-15+0379ELLX V0200601N00411999991CY0099001N1-00401-00801999999ADDAG11999MA1103181999999REMMET008CAVOK NOEQDQ01+000000PRSWM2
0102065900999991993010110004+49617+006217FM-12+0379ELLX V0200601N00411220001CN0030001N9-00381-00851103581ADDAG12999GA1001+999999999GF100991001001999999001001MD1210111+9999OA149900671REMSYN016 333 91113 91210
0045065900999991993010110204+49617+006217FM-15+0379ELLX V0200501N00461220001CN0030001N1-00301-00901999999ADDAG11999MA1103181999999MW1051REMMET005NOSIG
0058065900999991993010110504+49617+006217FM-15+0379ELLX V0200601N00461220001CN0070001N1-00301-00901999999ADDAG11999MA1103181999999REMMET005NOSIGEQDQ01+000000PRSWM2
0102065900999991993010111004+49617+006217FM-12+0379ELLX V0200601N00461220001CN0070001N9-00281-00871103591ADDAG12999GA1001+999999999GF100991001001999999001001MD1210101+9999OA149900621REMSYN016 333 91112 91210
0058065900999991993010111204+49617+006217FM-15+0379ELLX V0200501N00461220001CN0060001N1-00201-00801999999ADDAG11999MA1103181999999REMMET005NOSIGEQDQ01+000000PRSWM2
0058065900999991993010111504+49617+006217FM-15+0379ELLX V0200601N00461220001CN0070001N1-00201-00801999999ADDAG11000MA1103181999999REMMET005NOSIGEQDQ01+000000PRSWM2
0113065900999991993010112004+49617+006217FM-12+0379ELLX V0200601N00461220001CN0070001N9-00201-00811103591ADDAA106000091AG14000GA1001+999999999GF100991001001999999001001MD1210051+9999OA149900671REMSYN016 333 91113 91210
0058065900999991993010112204+49617+006217FM-15+0379ELLX V0200601N00461220001CN0080001N1-00101-00801999999ADDAG11000MA1103181999999REMMET005NOSIGEQDQ01+000000PRSWM2
0058065900999991993010112504+49617+006217FM-15+0379ELLX V0200501N00361220001CN0090001N1-00101-00701999999ADDAG11999MA1103181999999REMMET005NOSIGEQDQ01+000000PRSWM2
0102065900999991993010113004+49617+006217FM-12+0379ELLX V0200501N00361220001CN0090001N9-00071-00751103541ADDAG12999GA1001+999999999GF100991001001999999001001MD1710021+9999OA149900621REMSYN016 333 91112 91210
0058065900999991993010113204+49617+006217FM-15+0379ELLX V0200701N00411220001CN0080001N1+00001-00701999999ADDAG11999MA1103181999999REMMET005NOSIGEQDQ01+000000PRSWM2
0058065900999991993010113504+49617+006217FM-15+0379ELLX V0200601N00361220001CN0070001N1+00001-00701999999ADDAG11999MA1103181999999REMMET005NOSIGEQDQ01+000000PRSWM2
0102065900999991993010114004+49617+006217FM-12+0379ELLX V0200601N00361220001CN0070001N9-00031-00691103561ADDAG12999GA1001+999999999GF100991001001999999001001MD1710021+9999OA149900511REMSYN016 333 91110 91208
0058065900999991993010114204+49617+006217FM-15+0379ELLX V0200601N00411220001CN0080001N1-00101-00701999999ADDAG11999MA1103181999999REMMET005NOSIGEQDQ01+000000PRSWM2
0058065900999991993010114504+49617+006217FM-15+0379ELLX V0200701N00361220001CN0080001N1-00101-00701999999ADDAG11000MA1103181999999REMMET005NOSIGEQDQ01+000000PRSWM2
0102065900999991993010115004+49617+006217FM-12+0379ELLX V0200701N00361220001CN0080001N9-00101-00711103581ADDAG12000GA1001+999999999GF100991001001999999001001MD1710011+9999OA149900621REMSYN016 333 91112 91210
0058065900999991993010115204+49617+006217FM-15+0379ELLX V0200601N00411220001CN0090001N1-00201-00701999999ADDAG11000MA1103181999999REMMET005NOSIGEQDQ01+000000PRSWM2
0058065900999991993010115504+49617+006217FM-15+0379ELLX V0200401N00411220001CN0080001N1-00201-00701999999ADDAG11999MA1103181999999REMMET005NOSIGEQDQ01+000000PRSWM2
0102065900999991993010116004+49617+006217FM-12+0379ELLX V0200401N00411220001CN0080001N9-00161-00731103611ADDAG12999GA1001+999999999GF100991001001999999001001MD1210051+9999OA149900571REMSYN016 333 91111 91208
0044065900999991993010116204+49617+006217FM-15+0379ELLX V0200501N00361220001CN0080001N1-00201-00701999999ADDAG11999MA1103291999999EQDQ01+000000PRSWM2
0058065900999991993010116504+49617+006217FM-15+0379ELLX V0200501N00511220001CN0070001N1-00301-00801999999ADDAG11999MA1103291999999REMMET005NOSIGEQDQ01+000000PRSWM2
0102065900999991993010117004+49617+006217FM-12+0379ELLX V0200501N00511220001CN0070001N9-00281-00791103661ADDAG12999GA1001+999999999GF100991001001999999001001MD1210071+9999OA149900721REMSYN016 333 91114 91210
0058065900999991993010117204+49617+006217FM-15+0379ELLX V0200601N00511220001CN0060001N1-00401-00901999999ADDAG11999MA1103291999999REMMET005NOSIGEQDQ01+000000PRSWM2
0058065900999991993010117504+49617+006217FM-15+0379ELLX V0200601N00611220001CN0080001N1-00501-00901999999ADDAG11000MA1103291999999REMMET005NOSIGEQDQ01+000000PRSWM2
0132065900999991993010118004+49617+006217FM-12+0379ELLX V0200601N00621220001CN0080001N9-00461-00871103701ADDAA106000091AG14000GA1001+999999999GF100991001001999999001001KA1120M-00021MD1210081+9999OA149900721REMSYN022 333 11002 91114 91212
0061065900999991993010118204+49617+006217FM-15+0379ELLX V0200701N00511999991CY0099001N1-00501-00901999999ADDAG11000MA1103291999999REMMET008CAVOK NOEQDQ01+000000PRSWM2
0102065900999991993010119004+49617+006217FM-12+0379ELLX V0200601N00511220001CN0100001N9-00451-00951103721ADDAG12999GA1001+999999999GF100991001001999999001001MD1210081+9999OA149900721REMSYN016 333 91114 91212
0058065900999991993010119204+49617+006217FM-15+0379ELLX V0200601N00461999991CY0099001N1-00501+99999999999ADDAG11999REMMET020CAVOK MKUUGWJE NOSIGEQDQ01+000000PRSWM2
0061065900999991993010119504+49617+006217FM-15+0379ELLX V0200601N00561999991CY0099001N1-00501-01001999999ADDAG11999MA1103291999999REMMET008CAVOK NOEQDQ01+000000PRSWM2
0102065900999991993010120004+49617+006217FM-12+0379ELLX V0200601N00571220001CN0120001N9-00511-00971103721ADDAG12999GA1001+999999999GF100991001001999999001001MD1210031+9999OA149900721REMSYN016 333 91114 91211
0061065900999991993010120204+49617+006217FM-15+0379ELLX V0200501N00461999991CY0099001N1-00501-01001999999ADDAG11999MA1103291999999REMMET008CAVOK NOEQDQ01+000000PRSWM2
0061065900999991993010120504+49617+006217FM-15+0379ELLX V0200501N00411999991CY0099001N1-00501-01001999999ADDAG11000MA1103291999999REMMET008CAVOK NOEQDQ01+000000PRSWM2
0102065900999991993010121004+49617+006217FM-12+0379ELLX V0200501N00411220001CN0120001N9-00521-00961103711ADDAG12000GA1001+999999999GF100991001001999999001001MD1210011+9999OA149900721REMSYN016 333 91114 91212
0061065900999991993010121204+49617+006217FM-15+0379ELLX V0200501N00611999991CY0099001N1-00501-01001999999ADDAG11000MA1103291999999REMMET008CAVOK NOEQDQ01+000000PRSWM2
0061065900999991993010121504+49617+006217FM-15+0379ELLX V0200501N00661999991CY0099001N1-00601-01001999999ADDAG11999MA1103291999999REMMET008CAVOK NOEQDQ01+000000PRSWM2
0102065900999991993010122004+49617+006217FM-12+0379ELLX V0200501N00671220001CN0100001N9-00551-00971103681ADDAG12999GA1001+999999999GF100991001001999999001001MD1710031+9999OA149900881REMSYN016 333 91117 91213
0061065900999991993010122204+49617+006217FM-15+0379ELLX V0200401N00561999991CY0099001N1-00501-01001999999ADDAG11999MA1103291999999REMMET008CAVOK NOEQDQ01+000000PRSWM2
0061065900999991993010122504+49617+006217FM-15+0379ELLX V0200501N00511999991CY0099001N1-00601-01001999999ADDAG11999MA1103291999999REMMET008CAVOK NOEQDQ01+000000PRSWM2
0102065900999991993010123004+49617+006217FM-12+0379ELLX V0200501N00511220001CN0100001N9-00551-00991103671ADDAG12999GA1001+999999999GF100991001001999999001001MD1710021+9999OA149900771REMSYN016 333 91115 91213
0061065900999991993010123204+49617+006217FM-15+0379ELLX V0200301N00461999991CY0099001N1-00601-01001999999ADDAG11999MA1103291999999REMMET008CAVOK NOEQDQ01+000000PRSWM2
0113065900999991993010200004+49617+006217FM-12+0379ELLX V0200501N00511220001CN0100001N9-00551-01011103691ADDAA106000091AG14000GA1001+999999999GF100991001001999999001001MD1410001+9999OA149900881REMSYN016 333 91117 91213
0044065900999991993010200204+49617+006217FM-15+0379ELLX V0200501N00461220001CN0112651N1-00601-01001999999ADDAG11000MA1103291999999EQDQ01+000000PRSWM2
0044065900999991993010200504+49617+006217FM-15+0379ELLX V0200401N00511220001CN0112651N1-00601-01001999999ADDAG11999MA1103291999999EQDQ01+000000PRSWM2
0060065900999991993010201004+49617+006217FM-12+0379ELLX V0200401N005119999999N0100001N9-00581-01041103681ADDAG12999MD1210021+9999OA149900721REMSYN016 333 91114 91210
0044065900999991993010201204+49617+006217FM-15+0379ELLX V0200401N00411220001CN0112651N1-00601-01001999999ADDAG11999MA1103291999999EQDQ01+000000PRSWM2
0044065900999991993010201504+49617+006217FM-15+0379ELLX V0200301N00511220001CN0112651N1-00601-01001999999ADDAG11999MA1103291999999EQDQ01+000000PRSWM2
0060065900999991993010202004+49617+006217FM-12+0379ELLX V0200301N005119999999N0100001N9-00581-01041103681ADDAG12999MD1210031+9999OA149900771REMSYN016 333 91115 91210
0044065900999991993010202204+49617+006217FM-15+0379ELLX V0200401N00511220001CN0112651N1-00601-01001999999ADDAG11999MA1103291999999EQDQ01+000000PRSWM2
0061065900999991993010202504+49617+006217FM-15+0379ELLX V0200501N00611999991CY0099001N1-00601-01001999999ADDAG11000MA1103291999999REMMET008CAVOK NOEQDQ01+000000PRSWM2
0102065900999991993010203004+49617+006217FM-12+0379ELLX V0200501N00621220001CN0100001N9-00601-01021103691ADDAG12000GA1001+999999999GF100991001001999999001001MD1210011+9999OA149900881REMSYN016 333 91117 91212
0044065900999991993010203204+49617+006217FM-15+0379ELLX V0200501N00511220001CN0112651N1-00601-01001999999ADDAG11000MA1103291999999EQDQ01+000000PRSWM2
0061065900999991993010203504+49617+006217FM-15+0379ELLX V0200501N00611999991CY0099001N1-00701-01001999999ADDAG11999MA1103291999999REMMET008CAVOK NOEQDQ01+000000PRSWM2
0044065900999991993010204204+49617+006217FM-15+0379ELLX V0200501N00561220001CN0112651N1-00701-01001999999ADDAG11999MA1103291999999EQDQ01+000000PRSWM2
0061065900999991993010204504+49617+006217FM-15+0379ELLX V0200401N00561999991CY0099001N1-00701-01101999999ADDAG11999MA1103291999999REMMET008CAVOK NOEQDQ01+000000PRSWM2
0102065900999991993010205004+49617+006217FM-12+0379ELLX V0200401N00571220001CN0100001N9-00701-01071103681ADDAG12999GA1001+999999999GF100991001001999999001001MD1710031+9999OA149900771REMSYN016 333 91115 91212
0061065900999991993010205204+49617+006217FM-15+0379ELLX V0200501N00461999991CY0099001N1-00701-01101999999ADDAG11999MA1103291999999REMMET008CAVOK NOEQDQ01+000000PRSWM2
0061065900999991993010205504+49617+006217FM-15+0379ELLX V0200501N00561999991CY0099001N1-00701-01101999999ADDAG11000MA1103291999999REMMET008CAVOK NOEQDQ01+000000PRSWM2
0170065900999991993010206004+49617+006217FM-12+0379ELLX V0200501N00571220001CN0100001N9-00741-01111103721ADDAA106000091AG14000GA1001+999999999GF100991001001999999001001GJ103309IA1149IA2999-00909KA1120N-00751MD1710021+9999OA149900881REMSYN034 333 21075 34109 91117 91212 94055
0061065900999991993010206204+49617+006217FM-15+0379ELLX V0200501N00611999991CY0099001N1-00701-01101999999ADDAG11000MA1103291999999REMMET008CAVOK NOEQDQ01+000000PRSWM2
0061065900999991993010206504+49617+006217FM-15+0379ELLX V0200501N00561999991CY0099001N1-00801-01201999999ADDAG11999MA1103291999999REMMET008CAVOK NOEQDQ01+000000PRSWM2
0102065900999991993010207004+49617+006217FM-12+0379ELLX V0200501N00571220001CN0100001N9-00751-01171103741ADDAG12999GA1001+999999999GF100991001001999999001001MD1210011+9999OA149900931REMSYN016 333 91118 91212
0061065900999991993010207204+49617+006217FM-15+0379ELLX V0200501N00561999991CY0099001N1-00801-01201999999ADDAG11999MA1103291999999REMMET008CAVOK NOEQDQ01+000000PRSWM2
0061065900999991993010207504+49617+006217FM-15+0379ELLX V0200501N00561999991CY0099001N1-00801-01201999999ADDAG11999MA1103291999999REMMET008CAVOK NOEQDQ01+000000PRSWM2
0102065900999991993010208004+49617+006217FM-12+0379ELLX V0200501N00571220001CN0100001N9-00781-01181103761ADDAG12999GA1001+999999999GF100991001001999999001001MD1210041+9999OA149900821REMSYN016 333 91116 91212
0061065900999991993010208204+49617+006217FM-15+0379ELLX V0200601N00511999991CY0099001N1-00801-01201999999ADDAG11999MA1103391999999REMMET008CAVOK NOEQDQ01+000000PRSWM2
0043065900999991993010208504+49617+006217FM-15+0379ELLX V0200601N00511999991CY0099001N1-00701-01201999999ADDAG11000REMMET005CAVOKEQDQ01+000000PRSWM2
0061065900999991993010209204+49617+006217FM-15+0379ELLX V0200501N00511999991CY0099001N1-00701-01201999999ADDAG11000MA1103391999999REMMET008CAVOK NOEQDQ01+000000PRSWM2
0061065900999991993010209504+49617+006217FM-15+0379ELLX V0200501N00561999991CY0099001N1-00601-01201999999ADDAG11999MA1103391999999REMMET008CAVOK NOEQDQ01+000000PRSWM2
0102065900999991993010210004+49617+006217FM-12+0379ELLX V0200501N00571220001CN0100001N9-00601-01151103791ADDAG12999GA1001+999999999GF100991001001999999001001MD1210051+9999OA149900771REMSYN016 333 91115 91211
0061065900999991993010210204+49617+006217FM-15+0379ELLX V0200501N00511999991CY0099001N1-00501-01201999999ADDAG11999MA1103391999999REMMET008CAVOK NOEQDQ01+000000PRSWM2
0061065900999991993010210504+49617+006217FM-15+0379ELLX V0200501N00461999991CY0099001N1-00401-01101999999ADDAG11999MA1103291999999REMMET008CAVOK NOEQDQ01+000000PRSWM2
0102065900999991993010211004+49617+006217FM-12+0379ELLX V0200501N00461220001CN0100001N9-00441-01101103741ADDAG12999GA1001+999999999GF100991001001999999001001MD1210011+9999OA149900771REMSYN016 333 91115 91212
0061065900999991993010211204+49617+006217FM-15+0379ELLX V0200601N00411999991CY0099001N1-00401-01101999999ADDAG11999MA1103291999999REMMET008CAVOK NOEQDQ01+000000PRSWM2
0061065900999991993010211504+49617+006217FM-15+0379ELLX V0200601N00461999991CY0099001N1-00301-01101999999ADDAG11000MA1103291999999REMMET008CAVOK NOEQDQ01+000000PRSWM2
0113065900999991993010212004+49617+006217FM-12+0379ELLX V0200601N00461220001CN0100001N9-00311-01091103691ADDAA106000091AG14000GA1001+999999999GF100991001001999999001001MD1710041+9999OA149900931REMSYN016 333 91118 91212
0061065900999991993010212204+49617+006217FM-15+0379ELLX V0200601N00461999991CY0099001N1-00301-01101999999ADDAG11000MA1103291999999REMMET008CAVOK NOEQDQ01+000000PRSWM2
0061065900999991993010212504+49617+006217FM-15+0379ELLX V0200601N00461999991CY0099001N1-00201-01201999999ADDAG11999MA1103291999999REMMET008CAVOK NOEQDQ01+000000PRSWM2
0102065900999991993010213004+49617+006217FM-12+0379ELLX V0200601N00461220001CN0100001N9-00211-01161103631ADDAG12999GA1001+999999999GF100991001001999999001001MD1710121+9999OA149900671REMSYN016 333 91113 91210
0061065900999991993010213204+49617+006217FM-15+0379ELLX V0200701N00561999991CY0099001N1-00201-01201999999ADDAG11999MA1103181999999REMMET008CAVOK NOEQDQ01+000000PRSWM2
0061065900999991993010213504+49617+006217FM-15+0379ELLX V0200701N00561999991CY0099001N1-00201-01201999999ADDAG11999MA1103181999999REMMET008CAVOK NOEQDQ01+000000PRSWM2
0102065900999991993010214004+49617+006217FM-12+0379ELLX V0200701N00571220001CN0100001N9-00241-01241103591ADDAG12999GA1001+999999999GF100991001001999999001001MD1710131+9999OA149900721REMSYN016 333 91114 91212
0061065900999991993010214204+49617+006217FM-15+0379ELLX V0200601N00561999991CY0099001N1-00301-01301999999ADDAG11999MA1103181999999REMMET008CAVOK NOEQDQ01+000000PRSWM2
0061065900999991993010214504+49617+006217FM-15+0379ELLX V0200601N00611999991CY0099001N1-00301-01301999999ADDAG11000MA1103181999999REMMET008CAVOK NOEQDQ01+000000PRSWM2
0102065900999991993010215004+49617+006217FM-12+0379ELLX V0200601N00621220001CN0100001N9-00291-01291103571ADDAG12000GA1001+999999999GF100991001001999999001001MD1710111+9999OA149900771REMSYN016 333 91115 91212
0061065900999991993010215204+49617+006217FM-15+0379ELLX V0200601N00561999991CY0099001N1-00401-01401999999ADDAG11000MA1103181999999REMMET008CAVOK NOEQDQ01+000000PRSWM2
0061065900999991993010215504+49617+006217FM-15+0379ELLX V0200601N00461999991CY0099001N1-00501-01401999999ADDAG11999MA1103181999999REMMET008CAVOK NOEQDQ01+000000PRSWM2
0102065900999991993010216004+49617+006217FM-12+0379ELLX V0200601N00461220001CN0100001N9-00451-01391103591ADDAG12999GA1001+999999999GF100991001001999999001001MD1710061+9999OA149900771REMSYN016 333 91115 91212
0061065900999991993010216204+49617+006217FM-15+0379ELLX V0200501N00461999991CY0099001N1-00501-01501999999ADDAG11999MA1103181999999REMMET008CAVOK NOEQDQ01+000000PRSWM2
0061065900999991993010216504+49617+006217FM-15+0379ELLX V0200501N00461999991CY0099001N1-00501-01501999999ADDAG11999MA1103181999999REMMET008CAVOK NOEQDQ01+000000PRSWM2
0102065900999991993010217004+49617+006217FM-12+0379ELLX V0200501N00461220001CN0250001N9-00451-01551103621ADDAG12999GA1001+999999999GF100991001001999999001001MD1410001+9999OA149900881REMSYN016 333 91117 91209
0061065900999991993010217204+49617+006217FM-15+0379ELLX V0200501N00411999991CY0099001N1-00501-01601999999ADDAG11999MA1103181999999REMMET008CAVOK NOEQDQ01+000000PRSWM2
0061065900999991993010217504+49617+006217FM-15+0379ELLX V0200501N00461999991CY0099001N1-00501-01601999999ADDAG11000MA1103181999999REMMET008CAVOK NOEQDQ01+000000PRSWM2
0132065900999991993010218004+49617+006217FM-12+0379ELLX V0200501N00461220001CN0250001N9-00521-01611103631ADDAA106000091AG14000GA1001+999999999GF100991001001999999001001KA1120M-00201MD1210021+9999OA149900881REMSYN022 333 11020 91117 91212
0061065900999991993010218204+49617+006217FM-15+0379ELLX V0200501N00461999991CY0099001N1-00601-01601999999ADDAG11000MA1103181999999REMMET008CAVOK NOEQDQ01+000000PRSWM2
0061065900999991993010218504+49617+006217FM-15+0379ELLX V0200501N00511999991CY0099001N1-00601-01601999999ADDAG11999MA1103181999999REMMET008CAVOK NOEQDQ01+000000PRSWM2
0102065900999991993010219004+49617+006217FM-12+0379ELLX V0200501N00511220001CN0250001N9-00601-01631103631ADDAG12999GA1001+999999999GF100991001001999999001001MD1210021+9999OA149900721REMSYN016 333 91114 91210
0061065900999991993010219204+49617+006217FM-15+0379ELLX V0200501N00411999991CY0099001N1-00701-01501999999ADDAG11999MA1103181999999REMMET008CAVOK NOEQDQ01+000000PRSWM2
0061065900999991993010219504+49617+006217FM-15+0379ELLX V0200501N00461999991CY0099001N1-00701-01501999999ADDAG11999MA1103181999999REMMET008CAVOK NOEQDQ01+000000PRSWM2
0102065900999991993010220004+49617+006217FM-12+0379ELLX V0200501N00461220001CN0250001N9-00741-01531103651ADDAG12999GA1001+999999999GF100991001001999999001001MD1410001+9999OA149900671REMSYN016 333 91113 91210
0061065900999991993010220204+49617+006217FM-15+0379ELLX V0200601N00721999991CY0099001N1-00701-01501999999ADDAG11999MA1103181999999REMMET008CAVOK NOEQDQ01+000000PRSWM2
0061065900999991993010220504+49617+006217FM-15+0379ELLX V0200501N00721999991CY0099001N1-00701-01501999999ADDAG11000MA1103181999999REMMET008CAVOK NOEQDQ01+000000PRSWM2
0102065900999991993010221004+49617+006217FM-12+0379ELLX V0200501N00721220001CN0200001N9-00741-01471103611ADDAG12000GA1001+999999999GF100991001001999999001001MD1710041+9999OA149900931REMSYN016 333 91118 91215
0061065900999991993010221204+49617+006217FM-15+0379ELLX V0200401N00611999991CY0099001N1-00801-01501999999ADDAG11000MA1103181999999REMMET008CAVOK NOEQDQ01+000000PRSWM2
0061065900999991993010221504+49617+006217FM-15+0379ELLX V0200501N00561999991CY0099001N1-00801-01501999999ADDAG11999MA1103181999999REMMET008CAVOK NOEQDQ01+000000PRSWM2
0102065900999991993010222004+49617+006217FM-12+0379ELLX V0200501N00571220001CN0150001N9-00811-01471103671ADDAG12999GA1001+999999999GF100991001001999999001001MD1210031+9999OA149900881REMSYN016 333 91117 91214
0061065900999991993010222204+49617+006217FM-15+0379ELLX V0200501N00561999991CY0099001N1-00901-01501999999ADDAG11999MA1103181999999REMMET008CAVOK NOEQDQ01+000000PRSWM2
0061065900999991993010222504+49617+006217FM-15+0379ELLX V0200501N00561999991CY0099001N1-00901-01501999999ADDAG11999MA1103181999999REMMET008CAVOK NOEQDQ01+000000PRSWM2
0102065900999991993010223004+49617+006217FM-12+0379ELLX V0200501N00571220001CN0150001N9-00861-01481103641ADDAG12999GA1001+999999999GF100991001001999999001001MD1210011+9999OA149900771REMSYN016 333 91115 91212
0061065900999991993010223204+49617+006217FM-15+0379ELLX V0200501N00561999991CY0099001N1-00901-01501999999ADDAG11999MA1103181999999REMMET008CAVOK NOEQDQ01+000000PRSWM2
0061065900999991993010223504+49617+006217FM-15+0379ELLX V0200501N00561999991CY0099001N1-00901-01501999999ADDAG11000MA1103181999999REMMET008CAVOK NOEQDQ01+000000PRSWM2
0113065900999991993010300004+49617+006217FM-12+0379ELLX V0200501N00571220001CN0120001N9-00881-01481103591ADDAA106000091AG14000GA1001+999999999GF100991001001999999001001MD1210011+9999OA149900931REMSYN016 333 91118 91215
0044065900999991993010300204+49617+006217FM-15+0379ELLX V0200401N00511220001CN0112651N1-00901-01501999999ADDAG11000MA1103181999999EQDQ01+000000PRSWM2
0044065900999991993010300504+49617+006217FM-15+0379ELLX V0200401N00511220001CN0112651N1-00901-01501999999ADDAG11999MA1103181999999EQDQ01+000000PRSWM2
0060065900999991993010301004+49617+006217FM-12+0379ELLX V0200401N005119999999N0100001N9-00901-01521103551ADDAG12999MD1710091+9999OA149900721REMSYN016 333 91114 91211
0044065900999991993010301204+49617+006217FM-15+0379ELLX V0200501N00461220001CN0112651N1-01001-01501999999ADDAG11999MA1103121999999EQDQ01+000000PRSWM2
0044065900999991993010301504+49617+006217FM-15+0379ELLX V0200501N00461220001CN0112651N1-01001-01501999999ADDAG11999MA1103181999999EQDQ01+000000PRSWM2
0060065900999991993010302004+49617+006217FM-12+0379ELLX V0200501N004619999999N0100001N9-00961-01501103571ADDAG12999MD1710061+9999OA149900671REMSYN016 333 91113 91210
0044065900999991993010302204+49617+006217FM-15+0379ELLX V0200501N00511220001CN0112651N1-01001-01501999999ADDAG11999MA1103121999999EQDQ01+000000PRSWM2
0061065900999991993010302504+49617+006217FM-15+0379ELLX V0200401N00511999991CY0099001N1-01001-01501999999ADDAG11000MA1103121999999REMMET008CAVOK NOEQDQ01+000000PRSWM2
0102065900999991993010303004+49617+006217FM-12+0379ELLX V0200401N00511220001CN0120001N9-00991-01491103561ADDAG12000GA1001+999999999GF100991001001999999001001MD1710041+9999OA149900771REMSYN016 333 91115 91211
0044065900999991993010303204+49617+006217FM-15+0379ELLX V0200401N00461220001CN0112651N1-01001-01501999999ADDAG11000MA1103121999999EQDQ01+000000PRSWM2
0061065900999991993010303504+49617+006217FM-15+0379ELLX V0200401N00511999991CY0099001N1-01001-01501999999ADDAG11999MA1103121999999REMMET008CAVOK NOEQDQ01+000000PRSWM2
0102065900999991993010304004+49617+006217FM-12+0379ELLX V0200401N00511220001CN0120001N9-00991-01511103531ADDAG12999GA1001+999999999GF100991001001999999001001MD1710051+9999OA149900821REMSYN016 333 91116 91211
0044065900999991993010304204+49617+006217FM-15+0379ELLX V0200401N00611220001CN0112651N1-01001-01501999999ADDAG11999MA1103121999999EQDQ01+000000PRSWM2
0061065900999991993010304504+49617+006217FM-15+0379ELLX V0200501N00661999991CY0099001N1-01001-01501999999ADDAG11999MA1103011999999REMMET008CAVOK NOEQDQ01+000000PRSWM2
0102065900999991993010305004+49617+006217FM-12+0379ELLX V0200501N00671220001CN0120001N9-01021-01521103481ADDAG12999GA1001+999999999GF100991001001999999001001MD1710111+9999OA149900881REMSYN016 333 91117 91213
0061065900999991993010305204+49617+006217FM-15+0379ELLX V0200401N00661999991CY0099001N1-01001-01501999999ADDAG11999MA1103011999999REMMET008CAVOK NOEQDQ01+000000PRSWM2
0061065900999991993010305504+49617+006217FM-15+0379ELLX V0200501N00561999991CY0099001N1-01001-01501999999ADDAG11000MA1103011999999REMMET008CAVOK NOEQDQ01+000000PRSWM2
0170065900999991993010306004+49617+006217FM-12+0379ELLX V0200501N00571220001CN0120001N9-01041-01521103491ADDAA106000091AG14000GA1001+999999999GF100991001001999999001001GJ103609IA1149IA2999-01109KA1120N-01061MD1710091+9999OA149900981REMSYN034 333 21106 34111 91119 91214 94060
0061065900999991993010306204+49617+006217FM-15+0379ELLX V0200401N00721999991CY0099001N1-01101-01501999999ADDAG11000MA1103011999999REMMET008CAVOK NOEQDQ01+000000PRSWM2
0061065900999991993010306504+49617+006217FM-15+0379ELLX V0200401N00821999991CY0099001N1-01001-01501999999ADDAG11999MA1103121999999REMMET008CAVOK NOEQDQ01+000000PRSWM2
0102065900999991993010307004+49617+006217FM-12+0379ELLX V0200401N00821220001CN0100001N9-01041-01521103521ADDAG12999GA1001+999999999GF100991001001999999001001MD1710031+9999OA149901081REMSYN016 333 91121 91216
0061065900999991993010307204+49617+006217FM-15+0379ELLX V0200501N00771999991CY0099001N1-01001-01501999999ADDAG11999MA1103121999999REMMET008CAVOK NOEQDQ01+000000PRSWM2
0061065900999991993010307504+49617+006217FM-15+0379ELLX V0200501N00771999991CY0099001N1-01001-01601999999ADDAG11999MA1103121999999REMMET008CAVOK NOEQDQ01+000000PRSWM2
0102065900999991993010308004+49617+006217FM-12+0379ELLX V0200501N00771220001CN0100001N9-01041-01551103551ADDAG12999GA1001+999999999GF100991001001999999001001MD1210041+9999OA149901131REMSYN016 333 91122 91216
0061065900999991993010308204+49617+006217FM-15+0379ELLX V0200501N00661999991CY0099001N1-01001-01601999999ADDAG11999MA1103121999999REMMET008CAVOK NOEQDQ01+000000PRSWM2
0061065900999991993010308504+49617+006217FM-15+0379ELLX V0200401N00661999991CY0099001N1-01001-01601999999ADDAG11000MA1103121999999REMMET008CAVOK NOEQDQ01+000000PRSWM2
0102065900999991993010309004+49617+006217FM-12+0379ELLX V0200401N00671220001CN0100001N9-00991-01561103591ADDAG12000GA1001+999999999GF100991001001999999001001MD1210081+9999OA149901131REMSYN016 333 91122 91216
0061065900999991993010309204+49617+006217FM-15+0379ELLX V0200501N00511999991CY0099001N1-01001-01501999999ADDAG11000MA1103121999999REMMET008CAVOK NOEQDQ01+000000PRSWM2
0061065900999991993010309504+49617+006217FM-15+0379ELLX V0200601N00561999991CY0099001N1-00901-01501999999ADDAG11999MA1103121999999REMMET008CAVOK NOEQDQ01+000000PRSWM2
0102065900999991993010310004+49617+006217FM-12+0379ELLX V0200601N00571220001CN0100001N9-00911-01521103571ADDAG12999GA1001+999999999GF100991001001999999001001MD1210041+9999OA149900821REMSYN016 333 91116 91213
0061065900999991993010310204+49617+006217FM-15+0379ELLX V0200501N00561999991CY0099001N1-00801-01501999999ADDAG11999MA1103121999999REMMET008CAVOK NOEQDQ01+000000PRSWM2
0061065900999991993010310504+49617+006217FM-15+0379ELLX V0200501N00661999991CY0099001N1-00801-01501999999ADDAG11999MA1103121999999REMMET008CAVOK NOEQDQ01+000000PRSWM2
0102065900999991993010311004+49617+006217FM-12+0379ELLX V0200501N00671220001CN0100001N9-00771-01501103501ADDAG12999GA1001+999999999GF100991001001999999001001MD1710031+9999OA149900931REMSYN016 333 91118 91213
0061065900999991993010311204+49617+006217FM-15+0379ELLX V0200501N00661999991CY0099001N1-00701-01501999999ADDAG11999MA1103011999999REMMET008CAVOK NOEQDQ01+000000PRSWM2
0061065900999991993010311504+49617+006217FM-15+0379ELLX V0200501N00611999991CY0099001N1-00601-01501999999ADDAG11000MA1103011999999REMMET008CAVOK NOEQDQ01+000000PRSWM2
0113065900999991993010312004+49617+006217FM-12+0379ELLX V0200501N00621220001CN0100001N9-00641-01491103421ADDAA106000091AG14000GA1001+999999999GF100991001001999999001001MD1710141+9999OA149901131REMSYN016 333 91122 91216
0061065900999991993010312204+49617+006217FM-15+0379ELLX V0200601N00461999991CY0099001N1-00601-01501999999ADDAG11000MA1102911999999REMMET008CAVOK NOEQDQ01+000000PRSWM2
0061065900999991993010312504+49617+006217FM-15+0379ELLX V0200501N00511999991CY0099001N1-00601-01501999999ADDAG11999MA1102911999999REMMET008CAVOK NOEQDQ01+000000PRSWM2
0102065900999991993010313004+49617+006217FM-12+0379ELLX V0200501N00511220001CN0100001N9-00561-01461103321ADDAG12999GA1001+999999999GF100991001001999999001001MD1710211+9999OA149900821REMSYN016 333 91116 91212
0044065900999991993010313204+49617+006217FM-15+0379ELLX V0200401N00461220001CN0112651N1-00501-01501999999ADDAG11999MA1102911999999EQDQ01+000000PRSWM2
0061065900999991993010313504+49617+006217FM-15+0379ELLX V0200301N00611999991CY0099001N1-00501-01501999999ADDAG11999MA1102911999999REMMET008CAVOK NOEQDQ01+000000PRSWM2
0102065900999991993010314004+49617+006217FM-12+0379ELLX V0200301N00621220001CN0120001N9-00521-01501103301ADDAG12999GA1001+999999999GF100991001001999999001001MD1710181+9999OA149900821REMSYN016 333 91116 91212
0061065900999991993010314204+49617+006217FM-15+0379ELLX V0200501N00461999991CY0099001N1-00501-01501999999ADDAG11999MA1102911999999REMMET008CAVOK NOEQDQ01+000000PRSWM2
0061065900999991993010314504+49617+006217FM-15+0379ELLX V0200501N00461999991CY0099001N1-00501-01501999999ADDAG11000MA1102911999999REMMET008CAVOK NOEQDQ01+000000PRSWM2
0102065900999991993010315004+49617+006217FM-12+0379ELLX V0200501N00461220001CN0120001N9-00531-01511103341ADDAG12000GA1001+999999999GF100991001001999999001001MD1710081+9999OA149900821REMSYN016 333 91116 91212
0061065900999991993010315204+49617+006217FM-15+0379ELLX V0200701N00461999991CY0099001N1-00601-01501999999ADDAG11000MA1102911999999REMMET008CAVOK NOEQDQ01+000000PRSWM2
0061065900999991993010315504+49617+006217FM-15+0379ELLX V0200701N00411999991CY0099001N1-00701-01501999999ADDAG11999MA1102911999999REMMET008CAVOK NOEQDQ01+000000PRSWM2
0102065900999991993010316004+49617+006217FM-12+0379ELLX V0200701N00411220001CN0120001N9-00681-01501103341ADDAG12999GA1001+999999999GF100991001001999999001001MD1410001+9999OA149900621REMSYN016 333 91112 91209
0061065900999991993010316204+49617+006217FM-15+0379ELLX V0200501N00411999991CY0099001N1-00601-01501999999ADDAG11999MA1102911999999REMMET008CAVOK NOEQDQ01+000000PRSWM2
0061065900999991993010316504+49617+006217FM-15+0379ELLX V0200401N00411999991CY0099001N1-00701-01501999999ADDAG11999MA1102911999999REMMET008CAVOK NOEQDQ01+000000PRSWM2
0102065900999991993010317004+49617+006217FM-12+0379ELLX V0200401N00411220001CN0120001N9-00661-01531103341ADDAG12999GA1001+999999999GF100991001001999999001001MD1210021+9999OA149900621REMSYN016 333 91112 91209
0061065900999991993010317504+49617+006217FM-15+0379ELLX V0200501N00561999991CY0099001N1-00701-01501999999ADDAG11000MA1102911999999REMMET008CAVOK NOEQDQ01+000000PRSWM2
0132065900999991993010318004+49617+006217FM-12+0379ELLX V0200501N00571220001CN0120001N9-00711-01511103331ADDAA106000091AG14000GA1001+999999999GF100991001001999999001001KA1120M-00511MD1710031+9999OA149900821REMSYN022 333 11051 91116 91212
0061065900999991993010318204+49617+006217FM-15+0379ELLX V0200501N00511999991CY0099001N1-00801-01501999999ADDAG11000MA1102911999999REMMET008CAVOK NOEQDQ01+000000PRSWM2
0061065900999991993010318504+49617+006217FM-15+0379ELLX V0200501N00411999991CY0099001N1-00801-01501999999ADDAG11999MA1102911999999REMMET008CAVOK NOEQDQ01+000000PRSWM2
0061065900999991993010319204+49617+006217FM-15+0379ELLX V0200501N00461999991CY0099001N1-00801-01501999999ADDAG11999MA1102911999999REMMET008CAVOK NOEQDQ01+000000PRSWM2
0061065900999991993010319504+49617+006217FM-15+0379ELLX V0200601N00511999991CY0099001N1-00801-01501999999ADDAG11999MA1102811999999REMMET008CAVOK NOEQDQ01+000000PRSWM2
0102065900999991993010320004+49617+006217FM-12+0379ELLX V0200601N00511220001CN0100001N9-00831-01491103301ADDAG12999GA1001+999999999GF100991001001999999001001MD1710061+9999OA149900721REMSYN016 333 91114 91210
0061065900999991993010320204+49617+006217FM-15+0379ELLX V0200601N00461999991CY0099001N1-00901-01501999999ADDAG11999MA1102811999999REMMET008CAVOK NOEQDQ01+000000PRSWM2
0061065900999991993010320504+49617+006217FM-15+0379ELLX V0200501N00411999991CY0099001N1-00801-01501999999ADDAG11000MA1102811999999REMMET008CAVOK NOEQDQ01+000000PRSWM2
0102065900999991993010321004+49617+006217FM-12+0379ELLX V0200501N00411220001CN0100001N9-00841-01501103251ADDAG12000GA1001+999999999GF100991001001999999001001MD1710081+9999OA149900771REMSYN016 333 91115 91212
0061065900999991993010321204+49617+006217FM-15+0379ELLX V0200301N00411999991CY0099001N1-00801-01501999999ADDAG11000MA1102811999999REMMET008CAVOK NOEQDQ01+000000PRSWM2
0061065900999991993010321504+49617+006217FM-15+0379ELLX V0200501N00301999991CY0099001N1-00901-01601999999ADDAG11999MA1102811999999REMMET008CAVOK NOEQDQ01+000000PRSWM2
0102065900999991993010322004+49617+006217FM-12+0379ELLX V0200501N00311220001CN0100001N9-00851-01551103221ADDAG12999GA1001+999999999GF100991001001999999001001MD1710091+9999OA149900721REMSYN016 333 91114 91211
0061065900999991993010322204+49617+006217FM-15+0379ELLX V0200601N00411999991CY0099001N1-00901-01601999999ADDAG11999MA1102811999999REMMET008CAVOK NOEQDQ01+000000PRSWM2
0061065900999991993010322504+49617+006217FM-15+0379ELLX V0200601N00301999991CY0099001N1-00901-01501999999ADDAG11999MA1102711999999REMMET008CAVOK NOEQDQ01+000000PRSWM2
0102065900999991993010323004+49617+006217FM-12+0379ELLX V0200601N00311220001CN0100001N9-00921-01531103191ADDAG12999GA1001+999999999GF100991001001999999001001MD1710091+9999OA149900571REMSYN016 333 91111 91208
0054065900999991993010323204+49617+006217FM-15+0379ELLX V0200401N00251999991CY0099001N1-00901-01501999999ADDAG11999REMMET016CAVOK 10-7 NOSIGEQDQ01+000000PRSWM2
0061065900999991993010323504+49617+006217FM-15+0379ELLX V0200701N00301999991CY0099001N1-01001-01601999999ADDAG11000MA1102711999999REMMET008CAVOK NOEQDQ01+000000PRSWM2
0113065900999991993010400004+49617+006217FM-12+0379ELLX V0200701N00311220001CN0100001N9-01011-01581103161ADDAA106000091AG14000GA1001+999999999GF100991001001999999001001MD1710071+9999OA149900771REMSYN016 333 91115 91212
0060065900999991993010401004+49617+006217FM-12+0379ELLX V0200501N002619999999N0100001N9-00941-01511103131ADDAG12999MD1710071+9999OA149900461REMSYN016 333 91109 91207
0044065900999991993010401204+49617+006217FM-15+0379ELLX V0200601N00201220001CN0112651N1-01001-01501999999ADDAG11999MA1102711999999EQDQ01+000000PRSWM2
0044065900999991993010401504+49617+006217FM-15+0379ELLX V0200501N00201220001CN0112651N1-00901-01501999999ADDAG11999MA1102711999999EQDQ01+000000PRSWM2
0060065900999991993010402004+49617+006217FM-12+0379ELLX V0200501N002119999999N0100001N9-00941-01511103131ADDAG12999MD1710031+9999OA149900411REMSYN016 333 91108 91206
0044065900999991993010402204+49617+006217FM-15+0379ELLX V0200701N00301220001CN0112651N1-01001-01601999999ADDAG11999MA1102711999999EQDQ01+000000PRSWM2
0061065900999991993010402504+49617+006217FM-15+0379ELLX V0200601N00201999991CY0099001N1-01001-01501999999ADDAG11000MA1102711999999REMMET008CAVOK NOEQDQ01+000000PRSWM2
0102065900999991993010403004+49617+006217FM-12+0379ELLX V0200601N00211220001CN0100001N9-00971-01521103121ADDAG12000GA1001+999999999GF100991001001999999001001MD1710031+9999OA149900461REMSYN016 333 91109 91207
0061065900999991993010403204+49617+006217FM-15+0379ELLX V0200601N00251999991CY0099001N1-01001-01501999999ADDAG11000MA1102711999999REMMET008CAVOK NOEQDQ01+000000PRSWM2
0061065900999991993010403504+49617+006217FM-15+0379ELLX V0200501N00151999991CY0099001N1-01001-01501999999ADDAG11999MA1102711999999REMMET008CAVOK NOEQDQ01+000000PRSWM2
0102065900999991993010404004+49617+006217FM-12+0379ELLX V0200501N00151220001CN0100001N9-00991-01541103151ADDAG12999GA1001+999999999GF100991001001999999001001MD1210011+9999OA149900311REMSYN016 333 91106 91205
0061065900999991993010404204+49617+006217FM-15+0379ELLX V0200701N00201999991CY0099001N1-01001-01501999999ADDAG11999MA1102711999999REMMET008CAVOK NOEQDQ01+000000PRSWM2
0061065900999991993010404504+49617+006217FM-15+0379ELLX V0200701N00201999991CY0099001N1-01001-01501999999ADDAG11999MA1102711999999REMMET008CAVOK NOEQDQ01+000000PRSWM2
0102065900999991993010405004+49617+006217FM-12+0379ELLX V0200701N00211220001CN0100001N9-00971-01541103121ADDAG12999GA1001+999999999GF100991001001999999001001MD1710031+9999OA149900311REMSYN016 333 91106 91204
0061065900999991993010405204+49617+006217FM-15+0379ELLX V0200701N00201999991CY0099001N1-01001-01601999999ADDAG11999MA1102711999999REMMET008CAVOK NOEQDQ01+000000PRSWM2
0058065900999991993010405504+49617+006217FM-15+0379ELLX V0200701N00251220001CN0070001N1-01101-01601999999ADDAG11000MA1102711999999REMMET005NOSIGEQDQ01+000000PRSWM2
0170065900999991993010406004+49617+006217FM-12+0379ELLX V0200701N00261220001CN0070001N9-01081-01591103111ADDAA106000091AG14000GA1001+999999999GF100991001001999999001001GJ103009IA1149IA2999-01209KA1120N-01081MD1710031+9999OA149900461REMSYN034 333 21108 34112 91109 91207 94050
0058065900999991993010406204+49617+006217FM-15+0379ELLX V0209991V00101220001CN0080001N1-01101-01601999999ADDAG11000MA1102711999999REMMET005NOSIGEQDQ01+000000PRSWM2
0058065900999991993010406504+49617+006217FM-15+0379ELLX V0200801N00251220001CN0080001N1-01001-01601999999ADDAG11999MA1102711999999REMMET005NOSIGEQDQ01+000000PRSWM2
0102065900999991993010407004+49617+006217FM-12+0379ELLX V0200801N00261220001CN0080001N9-01041-01551103141ADDAG12999GA1001+999999999GF100991001001999999001001MD1710021+9999OA149900311REMSYN016 333 91106 91205
0074065900999991993010407204+49617+006217FM-15+0379ELLX V0201101N00251220001CN0080001N1-01001-01501999999ADDAG11999GA1021+060009009MA1102711999999REMMET005NOSIGEQDQ01+000000PRSWM2
0074065900999991993010407504+49617+006217FM-15+0379ELLX V0201301N00201220001CN0080001N1-01001-01501999999ADDAG11999GA1021+060009009MA1102711999999REMMET005NOSIGEQDQ01+000000PRSWM2
0044065900999991993010408204+49617+006217FM-15+0379ELLX V0201401N00101220001CN0112651N1-01001-01501999999ADDAG11999MA1102811999999EQDQ01+000000PRSWM2
0074065900999991993010408504+49617+006217FM-15+0379ELLX V0201101N00251220001CN0080001N1-00901-01501999999ADDAG11000GA1031+060009009MA1102811999999REMMET005NOSIGEQDQ01+000000PRSWM2
0108065900999991993010409004+49617+006217FM-12+0379ELLX V0201101N00261220001CN0080001N9-00941-01461103221ADDAG12000GA1031+060009009GF103991001001999999001021MD1210101+9999OA149900461REMSYN022 333 83070 91109 91206
0074065900999991993010409204+49617+006217FM-15+0379ELLX V0201201N00301060001CN0080001N1-00901-01401999999ADDAG11000GA1051+060009009MA1102711999999REMMET005NOSIGEQDQ01+000000PRSWM2
0090065900999991993010409504+49617+006217FM-15+0379ELLX V0201301N00361060001CN0080001N1-00901-01501999999ADDAG11999GA1011+030009039GA2061+060009009MA1102711999999REMMET005NOSIGEQDQ01+000000PRSWM2
0130065900999991993010410004+49617+006217FM-12+0379ELLX V0201301N00361060001CN0080001N9-00881-01461103201ADDAG12999GA1011+030009039GA2061+060009009GF106991011001999999031021MD1210061+9999OA149900511REMSYN028 333 81360 86070 91110 91207
0074065900999991993010410204+49617+006217FM-15+0379ELLX V0201301N00301060001CN0080001N1-00901-01401999999ADDAG11999GA1071+060009009MA1102711999999REMMET005NOSIGEQDQ01+000000PRSWM2
0090065900999991993010410504+49617+006217FM-15+0379ELLX V0201301N00411060001CN0070001N1-00801-01401999999ADDAG11999GA1011+030009039GA2071+060009009MA1102611999999REMMET005NOSIGEQDQ01+000000PRSWM2
0130065900999991993010411004+49617+006217FM-12+0379ELLX V0201301N00411060001CN0070001N9-00801-01401103061ADDAG12999GA1011+030009039GA2071+060009009GF107991011001999999031021MD1710131+9999OA149900671REMSYN028 333 81360 87070 91113 91208
0090065900999991993010411204+49617+006217FM-15+0379ELLX V0201301N00411060001CN0060001N1-00801-01401999999ADDAG11999GA1011+030009039GA2071+060009009MA1102611999999REMMET005NOSIGEQDQ01+000000PRSWM2
0090065900999991993010411504+49617+006217FM-15+0379ELLX V0209991V00151060001CN0060001N1-00701-01301999999ADDAG11000GA1011+030009039GA2071+060009009MA1102711999999REMMET005NOSIGEQDQ01+000000PRSWM2
0141065900999991993010412004+49617+006217FM-12+0379ELLX V0209991V00151060001CN0060001N9-00721-01321103111ADDAA106000091AG14000GA1011+030009039GA2071+060009009GF107991011001999999031021MD1710101+9999OA149900671REMSYN028 333 81360 87070 91113 91209
0074065900999991993010412204+49617+006217FM-15+0379ELLX V0202201N00301060001CN0060001N1-00701-01301999999ADDAG11000GA1061+060009009MA1102711999999REMMET005NOSIGEQDQ01+000000PRSWM2
0061065900999991993010412504+49617+006217FM-15+0379ELLX V0209991V00151999991CY0099001N1-00701-01301999999ADDAG11999MA1102711999999REMMET008CAVOK NOEQDQ01+000000PRSWM2
0130065900999991993010413004+49617+006217FM-12+0379ELLX V0209991V00151060001CN0100001N9-00691-01321103101ADDAG12999GA1011+030009039GA2041+060009009GF105991011001999999031021MD1710091+9999OA149900411REMSYN028 333 81360 84070 91108 91206
0061065900999991993010413204+49617+006217FM-15+0379ELLX V0209991V00151999991CY0099001N1-00601-01301999999ADDAG11999MA1102711999999REMMET008CAVOK NOEQDQ01+000000PRSWM2
0061065900999991993010413504+49617+006217FM-15+0379ELLX V0209991V00201999991CY0099001N1-00601-01301999999ADDAG11999MA1102711999999REMMET008CAVOK NOEQDQ01+000000PRSWM2
0130065900999991993010414004+49617+006217FM-12+0379ELLX V0209991V00211060001CN0100001N9-00641-01331103101ADDAG12999GA1011+030009039GA2041+060009009GF105991011001999999031021MD1210051+9999OA149900361REMSYN028 333 81360 84070 91107 91204
0090065900999991993010414204+49617+006217FM-15+0379ELLX V0209991V00101060001CN0080001N1-00601-01301999999ADDAG11999GA1031+030009039GA2041+060009009MA1102711999999REMMET005NOSIGEQDQ01+000000PRSWM2
0090065900999991993010414504+49617+006217FM-15+0379ELLX V0201701N00101060001CN0080001N1-00701-01301999999ADDAG11000GA1031+030009039GA2031+060009009MA1102711999999REMMET005NOSIGEQDQ01+000000PRSWM2
0130065900999991993010415004+49617+006217FM-12+0379ELLX V0201701N00101060001CN0080001N9-00661-01331103141ADDAG12000GA1031+030009039GA2031+060009009GF105991031001999999031021MD1210041+9999OA149900411REMSYN028 333 83360 83070 91108 91206
0090065900999991993010415204+49617+006217FM-15+0379ELLX V0209991V00201060001CN0080001N1-00701-01301999999ADDAG11000GA1041+030009039GA2031+060009009MA1102711999999REMMET005NOSIGEQDQ01+000000PRSWM2
0074065900999991993010415504+49617+006217FM-15+0379ELLX V0201401N00201018001CN0080001N1-00701-01301999999ADDAG11999GA1051+018009059MA1102711999999REMMET005NOSIGEQDQ01+000000PRSWM2
0108065900999991993010416004+49617+006217FM-12+0379ELLX V0201401N00211018001CN0080001N9-00701-01291103161ADDAG12999GA1051+018009059GF106991051051017501031021MD1210061+9999OA149900361REMSYN022 333 85656 91107 91205
0074065900999991993010416204+49617+006217FM-15+0379ELLX V0209991V00151018001CN0080001N1-00701-01301999999ADDAG11999GA1051+018009059MA1102711999999REMMET005NOSIGEQDQ01+000000PRSWM2
0090065900999991993010416504+49617+006217FM-15+0379ELLX V0201701N00251030001CN0080001N1-00801-01301999999ADDAG11999GA1031+018009059GA2031+030009039MA1102811999999REMMET005NOSIGEQDQ01+000000PRSWM2
0130065900999991993010417004+49617+006217FM-12+0379ELLX V0201701N00261030001CN0080001N9-00801-01321103211ADDAG12999GA1031+018009059GA2031+030009039GF105991031051017501031021MD1210091+9999OA149900671REMSYN028 333 83656 83360 91113 91205
0090065900999991993010417204+49617+006217FM-15+0379ELLX V0201901N00301030001CN0080001N1-00701-01301999999ADDAG11999GA1031+018009059GA2041+030009039MA1102811999999REMMET005NOSIGEQDQ01+000000PRSWM2
0090065900999991993010417504+49617+006217FM-15+0379ELLX V0201901N00361030001CN0060001N1-00701-01301999999ADDAG11000GA1041+018009059GA2051+030009039MA1102811999999REMMET005NOSIGEQDQ01+000000PRSWM2
0160065900999991993010418004+49617+006217FM-12+0379ELLX V0201901N00361030001CN0060001N9-00701-01271103271ADDAA106000091AG14000GA1041+018009059GA2051+030009039GF107991041051017501031999KA1120M-00611MD1210111+9999OA149900671REMSYN034 333 11061 84656 85360 91113 91207
0090065900999991993010418204+49617+006217FM-15+0379ELLX V0202001N00361030001CN0060001N1-00701-01201999999ADDAG11000GA1041+018009059GA2041+030009039MA1102811999999REMMET005NOSIGEQDQ01+000000PRSWM2
0090065900999991993010418504+49617+006217FM-15+0379ELLX V0201901N00301030001CN0060001N1-00701-01201999999ADDAG11999GA1041+018009059GA2051+030009039MA1102911999999REMMET005NOSIGEQDQ01+000000PRSWM2
0130065900999991993010419004+49617+006217FM-12+0379ELLX V0201901N00311030001CN0060001N9-00681-01191103331ADDAG12999GA1041+018009059GA2051+030009039GF107991041051017501031999MD1210161+9999OA149900571REMSYN028 333 84656 85360 91111 91207
0074065900999991993010419204+49617+006217FM-15+0379ELLX V0209991V00151018001CN0060001N1-00701-01201999999ADDAG11999GA1061+018009059MA1102911999999REMMET005NOSIGEQDQ01+000000PRSWM2
0074065900999991993010419504+49617+006217FM-15+0379ELLX V0201801N00201015001CN0060001N1-00801-01201999999ADDAG11999GA1061+015009059MA1102911999999REMMET005NOSIGEQDQ01+000000PRSWM2
0127065900999991993010420004+49617+006217FM-12+0379ELLX V0201801N00211018001CN0060001N9-00751-01201103401ADDAG12999GA1061+018009059GF106991061051017501999001MD1210181+9999OA149900411REMSYN022 333 86656 91108 91206EQDQ01    003SCOMCG
0076065900999991993010420204+49617+006217FM-15+0379ELLX V0201701N00151220001CN0060001N1-00801-01201999999ADDAG11999GA1031+015009059MA1102911999999REMMET007NOSIG ?EQDQ01+000000PRSWM2
0074065900999991993010420504+49617+006217FM-15+0379ELLX V0201801N00151220001CN0060001N1-00801-01201999999ADDAG11000GA1031+015009059MA1103011999999REMMET005NOSIGEQDQ01+000000PRSWM2
0127065900999991993010421004+49617+006217FM-12+0379ELLX V0201801N00151220001CN0060001N9-00841-01221103431ADDAG12000GA1031+018009059GF103991031051017501999001MD1210151+9999OA149900571REMSYN022 333 83656 91111 91207EQDQ01    003SCOMCG
0074065900999991993010421204+49617+006217FM-15+0379ELLX V0201701N00151220001CN0060001N1-00901-01301999999ADDAG11000GA1031+018009059MA1103011999999REMMET005NOSIGEQDQ01+000000PRSWM2
0074065900999991993010421504+49617+006217FM-15+0379ELLX V0201801N00151220001CN0060001N1-00901-01301999999ADDAG11999GA1011+018009059MA1103011999999REMMET005NOSIGEQDQ01+000000PRSWM2
0143065900999991993010422004+49617+006217FM-12+0379ELLX V0201801N00151018001CN0060001N9-00931-01291103441ADDAG12999GA1051+018009059GF105991999051017501999001MD1210091+9999OA149900311REMSYN022 333 85656 91106 91205EQDQ01+000012SCOTLCQ02    003SCOMCG
0061065900999991993010422204+49617+006217FM-15+0379ELLX V0202001N00251220001CN0050001N1-00901-01301999999ADDAG11999GA1011+015009059MA1103011999999MW1101REMMET005NOSIG
0045065900999991993010422504+49617+006217FM-15+0379ELLX V0202101N00251220001CN0050001N1-00901-01301999999ADDAG11999MA1103011999999MW1101REMMET005NOSIG
0102065900999991993010423004+49617+006217FM-12+0379ELLX V0202101N00261220001CN0050001N9-00921-01271103471ADDAG12999GA1001+999999999GF100991001001999999001001MD1210071+9999OA149900361REMSYN016 333 91107 91206
0045065900999991993010423204+49617+006217FM-15+0379ELLX V0202001N00251220001CN0050001N1-00901-01201999999ADDAG11999MA1103011999999MW1051REMMET005NOSIG
0045065900999991993010423504+49617+006217FM-15+0379ELLX V0209991V00051220001CN0050001N1-00901-01301999999ADDAG11000MA1103011999999MW1051REMMET005NOSIG
0135065900999991993010500004+49617+006217FM-12+0379ELLX V0209991V00051220001CN0050001N9-00941-01251103501ADDAA106000091AG10000AW1051AZ101061AZ201061GA1001+999999999GF100991001001999999001001MD1210081+9999OA149900571REMSYN016 333 91111 91207
0055065900999991993010500204+49617+006217FM-15+0379ELLX V0201401N00151220001CN0010001N1-00901-01201999999ADDAG11000ED124U20009MA1103011999999EQDQ01+000000PRSWM2
0055065900999991993010500504+49617+006217FM-15+0379ELLX V0209991V00101220001CN0011001N1-00901-01201999999ADDAG11999ED124U20009MA1103121999999EQDQ01+000000PRSWM2
0060065900999991993010501004+49617+006217FM-12+0379ELLX V0209991V001019999999N0011001N9-00941-01221103501ADDAG12999MD1210081+9999OA149900261REMSYN016 333 91105 91204
0055065900999991993010501204+49617+006217FM-15+0379ELLX V0202001N00251220001CN0010001N1-01001-01301999999ADDAG11999ED124U20009MA1103121999999EQDQ01+000000PRSWM2
0055065900999991993010501504+49617+006217FM-15+0379ELLX V0201701N00251220001CN0010001N1-00901-01201999999ADDAG11999ED124U20009MA1103121999999EQDQ01+000000PRSWM2
0060065900999991993010502004+49617+006217FM-12+0379ELLX V0201701N002619999999N0010001N9-00921-01191103531ADDAG12999MD1210071+9999OA149900361REMSYN016 333 91107 91205
0055065900999991993010502204+49617+006217FM-15+0379ELLX V0201801N00251220001CN0010001N1-00901-01201999999ADDAG11999ED124U20009MA1103121999999EQDQ01+000000PRSWM2
0061065900999991993010502504+49617+006217FM-15+0379ELLX V0202001N00251220001CN0040001N1-00901-01201999999ADDAG11000GA1041+006009059MA1103121999999MW1101REMMET005NOSIG
0130065900999991993010503004+49617+006217FM-12+0379ELLX V0202001N00261220001CN0040001N9-00901-01171103521ADDAG11000AW1101AZ101031AZ201031GA1041+007509059GF104991041051008001001001MD1210031+9999OA149900411REMSYN022 333 84625 91108 91206
0055065900999991993010503204+49617+006217FM-15+0379ELLX V0201701N00201220001CN0010001N1-01001-01201999999ADDAG11000ED124U20009MA1103011999999EQDQ01+000000PRSWM2
0061065900999991993010503504+49617+006217FM-15+0379ELLX V0209991V00201220001CN0040001N1-00901-01201999999ADDAG11999GA1031+010509059MA1103121999999MW1101REMMET005NOSIG
0130065900999991993010504004+49617+006217FM-12+0379ELLX V0209991V00211010501CN0040001N9-00901-01171103511ADDAG11999AW1101AZ111011AZ211011GA1061+010509059GF106991061051012501999999MD1210011+9999OA149900361REMSYN022 333 86635 91107 91205
0061065900999991993010504204+49617+006217FM-15+0379ELLX V0202201N00201220001CN0038001N1-00901-01101999999ADDAG11999GA1031+010509059MA1103121999999MW1101REMMET005NOSIG
0061065900999991993010504504+49617+006217FM-15+0379ELLX V0201601N00201220001CN0030001N1-00901-01201999999ADDAG11999GA1031+010509059MA1103121999999MW1101REMMET005NOSIG
0130065900999991993010505004+49617+006217FM-12+0379ELLX V0201601N00211220001CN0030001N9-00901-01171103561ADDAG11999AW1101AZ101021AZ201021GA1021+009009059GF102991021051008001001001MD1210021+9999OA149900411REMSYN022 333 82630 91108 91206
0045065900999991993010505204+49617+006217FM-15+0379ELLX V0201801N00201220001CN0030001N1-00901-01201999999ADDAG11999MA1103121999999MW1101REMMET005NOSIG
0045065900999991993010505504+49617+006217FM-15+0379ELLX V0209991V00151220001CN0030001N1-00901-01101999999ADDAG11000MA1103121999999MW1101REMMET005NOSIG
0192065900999991993010506004+49617+006217FM-12+0379ELLX V0209991V00151220001CN0030001N9-00881-01151103541ADDAA106000091AG10000AW1101AZ101061AZ201061GA1001+999999999GF100991001001999999001001GJ100849IA1149IA2999-01309KA1120N-01001MD1210021+9999OA149900411REMSYN034 333 21100 34113 91108 91206 94014
0045065900999991993010506204+49617+006217FM-15+0379ELLX V0202001N00151220001CN0025001N1-00901-01201999999ADDAG11000MA1103121999999MW1051REMMET005NOSIG
0061065900999991993010506504+49617+006217FM-15+0379ELLX V0209991V00151013501CN0025001N1-00901-01201999999ADDAG11999GA1051+013509059MA1103121999999MW1051REMMET005NOSIG
0130065900999991993010507004+49617+006217FM-12+0379ELLX V0209991V00151013501CN0025001N9-00921-01191103591ADDAG11999AW1051AZ111011AZ211011GA1051+013509059GF105991051051012501001001MD1210071+9999OA149900361REMSYN022 333 85645 91107 91203
0061065900999991993010507204+49617+006217FM-15+0379ELLX V0209991V00201013501CN0025001N1-00801-01101999999ADDAG11999GA1051+013509059MA1103181999999MW1051REMMET005NOSIG
0077065900999991993010507504+49617+006217FM-15+0379ELLX V0209991V00201060001CN0030001N1-00801-01101999999ADDAG11999GA1031+015009059GA2031+060009009MA1103181999999MW1051REMMET005NOSIG
0077065900999991993010508204+49617+006217FM-15+0379ELLX V0201701N00361060001CN0030001N1-00801-01101999999ADDAG11999GA1011+015009059GA2061+060009009MA1103181999999MW1051REMMET005NOSIG
0130065900999991993010509004+49617+006217FM-12+0379ELLX V0209991V00261060001CN0030001N9-00741-01041103681ADDAG11000AW1051AZ111031AZ211031GA1071+060009029GF107991001001999999001061MD1210131+9999OA149900511REMSYN022 333 87270 91110 91207
0061065900999991993010509204+49617+006217FM-15+0379ELLX V0201801N00251060001CN0035001N1-00701-01001999999ADDAG11000GA1071+060009029MA1103291999999MW1051REMMET005NOSIG
0077065900999991993010509504+49617+006217FM-15+0379ELLX V0201501N00361060001CN0035001N1-00601-01001999999ADDAG11999GA1011+030009039GA2071+060009029MA1103181999999MW1051REMMET005NOSIG
0090065900999991993010510204+49617+006217FM-15+0379ELLX V0201601N00251060001CN0035001N1-00601-00901999999ADDAG11999GA1021+030009039GA2071+060009029MA1103291999999REMMET005NOSIGEQDQ01+000000PRSWM2
0077065900999991993010511204+49617+006217FM-15+0379ELLX V0201701N00361060001CN0035001N1-00501-00901999999ADDAG11999GA1031+030009039GA2071+060009029MA1103181999999MW1051REMMET005NOSIG
0077065900999991993010511504+49617+006217FM-15+0379ELLX V0201901N00251030001CN0035001N1-00401-00901999999ADDAG11000GA1051+030009049GA2081+060009029MA1103181999999MW1051REMMET005NOSIG
0077065900999991993010512204+49617+006217FM-15+0379ELLX V0201701N00251030001CN0035001N1-00401-00901999999ADDAG11000GA1051+030009049GA2081+060009029MA1103181999999MW1051REMMET005NOSIG
0061065900999991993010512504+49617+006217FM-15+0379ELLX V0201701N00411030001CN0040001N1-00301-00901999999ADDAG11999GA1071+030009039MA1103121999999MW1051REMMET005NOSIG
0061065900999991993010513504+49617+006217FM-15+0379ELLX V0201801N00361030001CN0040001N1-00201-00801999999ADDAG11999GA1071+030009039MA1103181999999MW1051REMMET005NOSIG
0130065900999991993010514004+49617+006217FM-12+0379ELLX V0201701N00361036001CN0040001N9-00211-00821103531ADDAG11999AW1051AZ121021AZ221021GA1071+999999039GF107991071001999999071999MD1710111+9999OA149900621REMSYN022 333 8730/ 91112 91208
0061065900999991993010514204+49617+006217FM-15+0379ELLX V0201701N00361030001CN0040001N1-00201-00801999999ADDAG11999GA1071+030009039MA1103121999999MW1051REMMET005NOSIG
0061065900999991993010514504+49617+006217FM-15+0379ELLX V0201701N00301030001CN0040001N1-00201-00801999999ADDAG11000GA1071+030009039MA1103121999999MW1051REMMET005NOSIG
0130065900999991993010515004+49617+006217FM-12+0379ELLX V0201701N00311030001CN0040001N9-00191-00761103501ADDAG11000AW1051AZ121031AZ221031GA1071+030009039GF107991071001999999071999MD1710111+9999OA149900671REMSYN022 333 87360 91113 91209
0061065900999991993010515204+49617+006217FM-15+0379ELLX V0201701N00301030001CN0040001N1-00201-00701999999ADDAG11000GA1071+030009039MA1103121999999MW1051REMMET005NOSIG
0061065900999991993010515504+49617+006217FM-15+0379ELLX V0201801N00301030001CN0040001N1-00201-00701999999ADDAG11999GA1071+030009039MA1103121999999MW1051REMMET005NOSIG
0130065900999991993010516004+49617+006217FM-12+0379ELLX V0201801N00311030001CN0040001N9-00171-00701103471ADDAG11999AW1051AZ121011AZ221011GA1071+030009039GF107991071001999999071999MD1710061+9999OA149900721REMSYN022 333 87360 91114 91207
0077065900999991993010516204+49617+006217FM-15+0379ELLX V0202001N00251027001CN0035001N1-00101-00701999999ADDAG11999GA1031+013809059GA2071+027009049MA1103121999999MW1051REMMET005NOSIG
0077065900999991993010516504+49617+006217FM-15+0379ELLX V0201801N00301027001CN0035001N1-00101-00701999999ADDAG11999GA1031+006009059GA2071+027009049MA1103121999999MW1051REMMET005NOSIG
0077065900999991993010516554+49617+006217FM-15+0379ELLX V0201801N00301027001CN0035001N1-00101-00701999999ADDAG11999GA1031+006009059GA2071+027009049MA1103121999999MW1051REMMET005NOSIG
0152065900999991993010517004+49617+006217FM-12+0379ELLX V0201801N00311027001CN0035001N9-00071-00671103531ADDAG11999AW1051AZ121021AZ221021GA1031+006309059GA2071+027009049GF108991031051008001071999MD1210011+9999OA149900621REMSYN028 333 83621 87459 91112 91206
0077065900999991993010517204+49617+006217FM-15+0379ELLX V0201901N00251027001CN0040001N1-00101-00601999999ADDAG11999GA1041+005709059GA2071+027009049MA1103121999999MW1661REMMET005NOSIG
0077065900999991993010517504+49617+006217FM-15+0379ELLX V0201801N00301005401CN0040001N1+00001-00601999999ADDAG11000GA1051+005409059GA2071+027009049MA1103181999999MW1241REMMET005NOSIG
0201065900999991993010518004+49617+006217FM-12+0379ELLX V0201801N00311005401CN0040001N9-00011-00631103531ADDAA106999999AG14001AW1241AZ171061AZ221061GA1051+005409059GA2071+027009049GF108991051051004501071999KA1120M-00011MD1210051+9999OA149900721REMSYN034 333 11001 85618 87459 91114 91209EQDQ01  00002PRCP06
0077065900999991993010518204+49617+006217FM-15+0379ELLX V0201901N00411004501CN0060001N1+00001-00701999999ADDAG11000GA1051+004509059GA2071+027009049MA1103181999999MW1581REMMET005NOSIG
0077065900999991993010518504+49617+006217FM-15+0379ELLX V0201801N00411004501CN0060001N1+00001-00601999999ADDAG11999GA1051+004509059GA2071+027009049MA1103181999999MW1581REMMET005NOSIG
0152065900999991993010519004+49617+006217FM-12+0379ELLX V0201801N00411004501CN0060001N9+00021-00581103531ADDAG12999AW1581AZ121011AZ221011GA1051+004509059GA2071+027009049GF108991051051004501071999MD1210071+9999OA149900621REMSYN028 333 85615 87459 91112 91209
0077065900999991993010519204+49617+006217FM-15+0379ELLX V0201901N00411003901CN0060001N1+00001-00501999999ADDAG11999GA1051+003909059GA2071+027009049MA1103181999999MW1601REMMET005NOSIG
0077065900999991993010519504+49617+006217FM-15+0379ELLX V0202001N00361004201CN0040001N1+00001-00401999999ADDAG11999GA1051+004209059GA2071+027009049MA1103181999999MW1661REMMET005NOSIG
0152065900999991993010520004+49617+006217FM-12+0379ELLX V0202001N00361004201CN0040001N9-00011-00441103551ADDAG12999AW1661AZ161021AZ221021GA1051+004209059GA2071+027009049GF108991051051004501071999MD1210041+9999OA149900621REMSYN028 333 85614 87459 91112 91209
0061065900999991993010520204+49617+006217FM-15+0379ELLX V0202001N00461004501CN0030001N1+00001-00401999999ADDAG11999GA1071+004509059MA1103181999999MW1661REMMET005NOSIG
0061065900999991993010520504+49617+006217FM-15+0379ELLX V0201901N00361003601CN0025001N1-00101-00401999999ADDAG11000GA1071+003609059MA1103181999999MW1661REMMET005NOSIG
0130065900999991993010521004+49617+006217FM-12+0379ELLX V0201901N00361003601CN0025001N9-00051-00391103541ADDAG12001AW1661AZ161031AZ261031GA1071+003609059GF108991071051004501999999MD1210021+9999OA149900621REMSYN022 333 87612 91112 91209
0061065900999991993010521204+49617+006217FM-15+0379ELLX V0201801N00411003601CN0025001N1+00001-00301999999ADDAG11000GA1071+003609059MA1103181999999MW1241REMMET005NOSIG
0061065900999991993010521504+49617+006217FM-15+0379ELLX V0201801N00361003301CN0025001N1+00001-00301999999ADDAG11999GA1071+003309059MA1103181999999MW1241REMMET005NOSIG
0130065900999991993010522004+49617+006217FM-12+0379ELLX V0201801N00361003301CN0025001N9-00041-00341103511ADDAG12999AW1241AZ121011AZ221011GA1071+003309059GF108991071051004501999999MD1410001+9999OA149900621REMSYN022 333 87611 91112 91208
0077065900999991993010522204+49617+006217FM-15+0379ELLX V0202001N00361003601CN0025001N1+00001-00301999999ADDAG11999GA1041+001209079GA2071+003609059MA1103181999999MW1101REMMET005NOSIG
0061065900999991993010522504+49617+006217FM-15+0379ELLX V0201801N00251003301CN0025001N1+00001-00301999999ADDAG11999GA1071+003309059MA1103181999999MW1101REMMET005NOSIG
0130065900999991993010523004+49617+006217FM-12+0379ELLX V0201801N00261003301CN0025001N9-00021-00311103511ADDAG11999AW1101AZ121021AZ221021GA1071+003309059GF108991071051004501999999MD1710021+9999OA149900621REMSYN022 333 87611 91112 91209
0061065900999991993010523204+49617+006217FM-15+0379ELLX V0202001N00361003301CN0025001N1+00001-00301999999ADDAG11999GA1071+003309059MA1103181999999MW1101REMMET005NOSIG
0061065900999991993010523504+49617+006217FM-15+0379ELLX V0201901N00301002701CN0025001N1+00001-00201999999ADDAG11000GA1071+002709079MA1103181999999MW1101REMMET005NOSIG
0141065900999991993010600004+49617+006217FM-12+0379ELLX V0201901N00311002701CN0025001N9-00041-00251103501ADDAA106000191AG10001AW1101AZ161061AZ221061GA1071+002709079GF108991071061002501999999MD1710011+9999OA149900621REMSYN022 333 87709 91112 91209
0055065900999991993010600204+49617+006217FM-15+0379ELLX V0201701N00251220001CN0008001N1+00001-00201999999ADDAG11000ED124U20009MA1103121999999EQDQ01+000000PRSWM2
0055065900999991993010600504+49617+006217FM-15+0379ELLX V0201701N00251220001CN0008001N1+00001-00201999999ADDAG11999ED124U20009MA1103121999999EQDQ01+000000PRSWM2
0060065900999991993010601004+49617+006217FM-12+0379ELLX V0201701N002619999999N0008001N9-00041-00181103441ADDAG12999MD1710041+9999OA149900461REMSYN016 333 91109 91206
0055065900999991993010601204+49617+006217FM-15+0379ELLX V0201901N00301220001CN0012001N1+00001-00101999999ADDAG11999ED124U20009MA1103121999999EQDQ01+000000PRSWM2
0055065900999991993010601504+49617+006217FM-15+0379ELLX V0201801N00251220001CN0013001N1+00001-00101999999ADDAG11999ED124U20009MA1103121999999EQDQ01+000000PRSWM2
0060065900999991993010602004+49617+006217FM-12+0379ELLX V0201801N002619999999N0013001N9+00031-00131103461ADDAG12999MD1710021+9999OA149900461REMSYN016 333 91109 91206
0055065900999991993010602204+49617+006217FM-15+0379ELLX V0201901N00361220001CN0011001N1+00001-00101999999ADDAG11999ED124U20009MA1103121999999EQDQ01+000000PRSWM2
0058065900999991993010602504+49617+006217FM-15+0379ELLX V0201801N00301000601CN0011001N1+00101-00101999999ADDAG11000ED124U20009GA1071+000609079MA1103121999999MW1101
0130065900999991993010603004+49617+006217FM-12+0379ELLX V0201801N00311000901CN0011001N9+00071-00061103421ADDAG11000AW1101AZ121031AZ221031GA1071+000909079GF108991071061000751999999MD1710051+9999OA149900511REMSYN022 333 87703 91110 91208
0055065900999991993010603204+49617+006217FM-15+0379ELLX V0202001N00361220001CN0008001N1+00101+00001999999ADDAG11000ED124U20009MA1103121999999EQDQ01+000000PRSWM2
0072065900999991993010603504+49617+006217FM-15+0379ELLX V0202001N00301000601CN0011001N1+00101+00001999999ADDAG11999ED124U20009GA1071+000609079MA1103121999999MW1101REMMET005NOSIG
0130065900999991993010604004+49617+006217FM-12+0379ELLX V0202001N00311000601CN0011001N9+00111-00021103411ADDAG11999AW1101AZ121011AZ221011GA1081+000609079GF108991081061000751999999MD1410001+9999OA149900511REMSYN022 333 88702 91110 91208
0072065900999991993010604204+49617+006217FM-15+0379ELLX V0201801N00301000601CN0003001N1+00101+00101999999ADDAG11999ED124U17009GA1071+000609079MA1103121999999MW1461REMMET005NOSIG
0072065900999991993010604504+49617+006217FM-15+0379ELLX V0201801N00301000601CN0001001N1+00201+00201999999ADDAG11999ED124U10009GA1071+000609079MA1103121999999MW1461REMMET005NOSIG
0130065900999991993010605004+49617+006217FM-12+0379ELLX V0201801N00311000601CN0001001N9+00161+00161103381ADDAG11999AW1461AZ121021AZ221021GA1071+000609079GF108991081061000751999999MD1710051+9999OA149900461REMSYN022 333 87702 91109 91207
0072065900999991993010605204+49617+006217FM-15+0379ELLX V0201901N00461000601CN0001001N1+00201+00201999999ADDAG11999ED124U04509GA1071+000609079MA1103121999999MW1441REMMET005NOSIG
0072065900999991993010605504+49617+006217FM-15+0379ELLX V0202101N00411000601CN0001001N1+00201+00201999999ADDAG11000ED124U04509GA1071+000609079MA1103121999999MW1441REMMET005NOSIG
0198065900999991993010606004+49617+006217FM-12+0379ELLX V0202101N00411000601CN0001001N9+00191+00191103391ADDAA199000191AG13000AW1441AZ141061AZ221061GA1071+000609079GF108991081061000751999999GJ100009IA1099IA2999-00109KA1120N-00061MD1410001+9999OA149900671REMSYN040 333 21006 31101 87702 91113 91209 94000
0072065900999991993010606204+49617+006217FM-15+0379ELLX V0202001N00461000301CN0001001N1+00201+00201999999ADDAG11000ED124U04009GA1071+000309079MA1103121999999MW1561REMMET005NOSIG
0072065900999991993010606504+49617+006217FM-15+0379ELLX V0202001N00461000301CN0001001N1+00201+00201999999ADDAG11999ED124U04009GA1071+000309079MA1103121999999MW1501REMMET005NOSIG
0130065900999991993010607004+49617+006217FM-12+0379ELLX V0202001N00461000301CN0001001N9+00211+00211103361ADDAG12999AW1501AZ151011AZ241011GA1071+000309079GF108991071061000251999999MD1710031+9999OA149900671REMSYN022 333 87701 91113 91210
0072065900999991993010607204+49617+006217FM-15+0379ELLX V0202001N00411000301CN0001001N1+00201+00201999999ADDAG11999ED124U04509GA1071+000309079MA1103121999999MW1511REMMET005NOSIG
0072065900999991993010607504+49617+006217FM-15+0379ELLX V0202001N00361000151CN0000001N1+00201+00201999999ADDAG11999ED124U04009GA1081+000159079MA1103121999999MW1511REMMET005NOSIG
0130065900999991993010608004+49617+006217FM-12+0379ELLX V0202001N00361000151CN0000001N9+00231+00231103381ADDAG12999AW1511AZ151021AZ241021GA1081+000159079GF108991081061000251999999MD1210011+9999OA149900621REMSYN022 333 88700 91112 91209
0072065900999991993010608204+49617+006217FM-15+0379ELLX V0202001N00411000151CN0000001N1+00201+00201999999ADDAG11999ED124U05509GA1081+000159079MA1103121999999MW1511REMMET005NOSIG
0072065900999991993010608504+49617+006217FM-15+0379ELLX V0202101N00361000301CN0001001N1+00301+00301999999ADDAG11000ED124U04509GA1081+000309079MA1103121999999MW1511REMMET005NOSIG
0130065900999991993010609004+49617+006217FM-12+0379ELLX V0202101N00361000301CN0001001N9+00261+00261103411ADDAG12000AW1511AZ151031AZ241031GA1081+000309079GF108991081061000251999999MD1210021+9999OA149900671REMSYN022 333 88701 91113 91210
0072065900999991993010609204+49617+006217FM-15+0379ELLX V0202001N00411000301CN0001001N1+00301+00301999999ADDAG11000ED124U04009GA1081+000309079MA1103121999999MW1511REMMET005NOSIG
0072065900999991993010609504+49617+006217FM-15+0379ELLX V0202001N00461000151CN0000001N1+00301+00301999999ADDAG11999ED124U03759GA1081+000159079MA1103121999999MW1511REMMET005NOSIG
0130065900999991993010610004+49617+006217FM-12+0379ELLX V0202001N00461000151CN0000001N9+00321+00321103401ADDAG12999AW1511AZ151011AZ241011GA1081+000159079GF108991081061000251999999MD1210051+9999OA149900671REMSYN022 333 88700 91113 91210
0072065900999991993010610204+49617+006217FM-15+0379ELLX V0202101N00411000151CN0000001N1+00301+00301999999ADDAG11999ED124U03259GA1081+000159079MA1103181999999MW1511REMMET005NOSIG
0072065900999991993010610504+49617+006217FM-15+0379ELLX V0202101N00411000151CN0000001N1+00401+00401999999ADDAG11999ED124U02759GA1081+000159079MA1103121999999MW1511REMMET005NOSIG
0130065900999991993010611004+49617+006217FM-12+0379ELLX V0202101N00411000151CN0000001N9+00361+00361103371ADDAG12999AW1511AZ151021AZ241021GA1081+000159079GF108991081061000251999999MD1410001+9999OA149900571REMSYN022 333 88700 91111 91209
0072065900999991993010611204+49617+006217FM-15+0379ELLX V0202301N00361000151CN0000001N1+00401+00401999999ADDAG11999ED124U02759GA1081+000159079MA1103121999999MW1511REMMET005NOSIG
0072065900999991993010611504+49617+006217FM-15+0379ELLX V0202201N00361000151CN0000001N1+00401+00401999999ADDAG11000ED124U02759GA1081+000159079MA1103121999999MW1511REMMET005NOSIG
0141065900999991993010612004+49617+006217FM-12+0379ELLX V0202201N00361000151CN0000001N9+00401+00401103351ADDAA106000191AG10000AW1511AZ151061AZ241061GA1081+000159079GF108991081061000251999999MD1710041+9999OA149900671REMSYN022 333 88700 91113 91210
0072065900999991993010612204+49617+006217FM-15+0379ELLX V0202201N00361000151CN0000001N1+00401+00401999999ADDAG11000ED124U03259GA1081+000159079MA1103121999999MW1511REMMET005NOSIG
0147065900999991993010612504+49617+006217FM-15+0379ELLX V0202201N00301000301CN0001001N1+00401+00401999999ADDAG11999ED124U03509GA1081+000309079MA1103011999999MW1601REMMET080NOSIG EBCI 41115 82115 10071 20064 40292 56003 75822 877// 333 8770- 91122 91215
0130065900999991993010613004+49617+006217FM-12+0379ELLX V0202201N00311000301CN0001001N9+00451+00451103291ADDAG12999AW1601AZ151011AZ241011GA1081+000309079GF108991081061000251999999MD1710101+9999OA149900461REMSYN022 333 88701 91109 91207
0072065900999991993010613204+49617+006217FM-15+0379ELLX V0202201N00301000301CN0001001N1+00501+00501999999ADDAG11999ED124U12009GA1081+000309079MA1103011999999MW1441REMMET005NOSIG
0072065900999991993010613504+49617+006217FM-15+0379ELLX V0202101N00301000301CN0001001N1+00501+00501999999ADDAG11999ED124U06009GA1081+000309079MA1103011999999MW1441REMMET005NOSIG
0130065900999991993010614004+49617+006217FM-12+0379ELLX V0202101N00311000301CN0001001N9+00521+00521103261ADDAG12999AW1441AZ161021AZ221021GA1081+000309079GF108991081061000251999999MD1710081+9999OA149900511REMSYN022 333 88701 91110 91207
0072065900999991993010614204+49617+006217FM-15+0379ELLX V0202401N00361000301CN0002001N1+00601+00601999999ADDAG11999ED124U17009GA1081+000309079MA1103011999999MW1501REMMET005NOSIG
0072065900999991993010614504+49617+006217FM-15+0379ELLX V0202401N00361000301CN0001001N1+00601+00601999999ADDAG11000ED124U06009GA1081+000309079MA1103011999999MW1511REMMET005NOSIG
0130065900999991993010615004+49617+006217FM-12+0379ELLX V0202401N00361000301CN0001001N9+00601+00601103221ADDAG12001AW1501AZ161031AZ241031GA1081+000309079GF108991081061000251999999MD1710101+9999OA149900621REMSYN022 333 88701 91112 91208
0072065900999991993010615204+49617+006217FM-15+0379ELLX V0202201N00361000301CN0001001N1+00601+00601999999ADDAG11000ED124U08009GA1081+000309079MA1103011999999MW1511REMMET005NOSIG
0072065900999991993010616004+49617+006217FM-15+0379ELLX V0202201N00301000301CN0001001N1+00601+00601999999ADDAG11999ED124U07009GA1081+000309079MA1103011999999MW1601REMMET005NOSIG
0072065900999991993010616204+49617+006217FM-15+0379ELLX V0202101N00301000301CN0001001N1+00501+00501999999ADDAG11999ED124U05509GA1081+000309079MA1103011999999MW1581REMMET005NOSIG
0072065900999991993010616504+49617+006217FM-15+0379ELLX V0202101N00361000301CN0001001N1+00601+00601999999ADDAG11999ED124U12009GA1081+000309079MA1102911999999MW1611REMMET005NOSIG
0130065900999991993010617004+49617+006217FM-12+0379ELLX V0202101N00361000301CN0001001N9+00581+00581103171ADDAG12999AW1601AZ161021AZ241021GA1081+000309079GF108991081071000251999999MD1710081+9999OA149900571REMSYN022 333 88701 91111 91207
0072065900999991993010617204+49617+006217FM-15+0379ELLX V0202201N00411000301CN0001001N1+00601+00601999999ADDAG11999ED124U08009GA1081+000309079MA1102911999999MW1441REMMET005NOSIG
0072065900999991993010617504+49617+006217FM-15+0379ELLX V0202001N00361000301CN0001001N1+00501+00501999999ADDAG11000ED124U04009GA1081+000309079MA1102911999999MW1581REMMET005NOSIG
0160065900999991993010618004+49617+006217FM-12+0379ELLX V0202001N00361000301CN0001001N9+00541+00541103121ADDAA199002091AG10001AW1581AZ161061AZ241061GA1081+000309079GF108991081061000251999999KA1120M+00621MD1710091+9999OA149900771REMSYN028 333 10062 88701 91115 91209
0072065900999991993010618204+49617+006217FM-15+0379ELLX V0202001N00461000301CN0001001N1+00501+00501999999ADDAG11000ED124U04009GA1081+000309079MA1102911999999MW1581REMMET005NOSIG
0072065900999991993010618504+49617+006217FM-15+0379ELLX V0202101N00411000301CN0001001N1+00501+00501999999ADDAG11999ED124U06009GA1081+000309079MA1102911999999MW1581REMMET005NOSIG
0130065900999991993010619004+49617+006217FM-12+0379ELLX V0202101N00411000301CN0001001N9+00531+00531103101ADDAG12999AW1581AZ161011AZ241011GA1081+000309079GF108991081071000251999999MD1710091+9999OA149900671REMSYN022 333 88701 91113 91209
0088065900999991993010619204+49617+006217FM-15+0379ELLX V0202101N00411000301CN0002001N1+00501+00501999999ADDAG11999ED124U08009GA1061+000309079GA2081+000609079MA1102911999999MW1601REMMET005NOSIG
0072065900999991993010619504+49617+006217FM-15+0379ELLX V0202001N00461000301CN0002001N1+00501+00501999999ADDAG11999ED124U13009GA1081+000309079MA1102811999999MW1621REMMET005NOSIG
0152065900999991993010620004+49617+006217FM-12+0379ELLX V0202001N00461000301CN0002001N9+00551+00551103071ADDAG12999AW1621AZ161021AZ241021GA1061+000309079GA2071+000609079GF108991081071000251999999MD1710091+9999OA149900621REMSYN028 333 86701 87702 91112 91209
0088065900999991993010620204+49617+006217FM-15+0379ELLX V0202101N00411000301CN0002001N1+00501+00501999999ADDAG11999ED124U11009GA1051+000309079GA2071+000609079MA1102811999999MW1611REMMET005NOSIG
0088065900999991993010620504+49617+006217FM-15+0379ELLX V0202101N00411000301CN0002001N1+00601+00601999999ADDAG11001ED124U05009GA1061+000309079GA2081+000609079MA1102811999999MW1611REMMET005NOSIG
0152065900999991993010621004+49617+006217FM-12+0379ELLX V0202101N00411000301CN0002001N9+00581+00581103021ADDAG12001AW1611AZ161031AZ251031GA1061+000309079GA2081+000609079GF108991081071000251999999MD1710091+9999OA149900671REMSYN028 333 86701 88702 91113 91209
0072065900999991993010621204+49617+006217FM-15+0379ELLX V0202301N00561000301CN0002001N1+00601+00601999999ADDAG11000ED124U05009GA1081+000309079MA1102811999999MW1501REMMET005NOSIG
0072065900999991993010621504+49617+006217FM-15+0379ELLX V0202301N00611000301CN0001001N1+00701+00701999999ADDAG11999ED124U04509GA1081+000309079MA1102811999999MW1461REMMET005NOSIG
0130065900999991993010622004+49617+006217FM-12+0379ELLX V0202301N00621000301CN0001001N9+00681+00681102971ADDAG12999AW1461AZ161011AZ251011GA1081+000309079GF108991081061000251999999MD1710101+9999OA149900821REMSYN022 333 88701 91116 91212
0072065900999991993010622204+49617+006217FM-15+0379ELLX V0202201N00611000301CN0001001N1+00701+00701999999ADDAG11999ED124U06009GA1081+000309079MA1102711999999MW1511REMMET005NOSIG
0072065900999991993010622504+49617+006217FM-15+0379ELLX V0202201N00611000301CN0001001N1+00701+00701999999ADDAG11999ED124U06509GA1081+000309079MA1102711999999MW1441REMMET005NOSIG
0130065900999991993010623004+49617+006217FM-12+0379ELLX V0202201N00621000301CN0001001N9+00681+00681102911ADDAG11999AW1441AZ141021AZ241021GA1081+000309079GF108991081061000251999999MD1710131+9999OA149900881REMSYN022 333 88701 91117 91213
0072065900999991993010623204+49617+006217FM-15+0379ELLX V0202301N00611000601CN0008001N1+00701+00701999999ADDAG11999ED124U20009GA1071+000609079MA1102711999999MW1601REMMET005NOSIG
0072065900999991993010623504+49617+006217FM-15+0379ELLX V0202301N00721000601CN0008001N1+00701+00701999999ADDAG11000ED124U20009GA1081+000609079MA1102711999999MW1421REMMET005NOSIG
0141065900999991993010700004+49617+006217FM-12+0379ELLX V0202301N00721000601CN0008001N9+00711+00711102861ADDAA106002091AG10001AW1421AZ161061AZ251061GA1081+000609079GF108991081061000751999999MD1710131+9999OA149900981REMSYN022 333 88702 91119 91215
0055065900999991993010700204+49617+006217FM-15+0379ELLX V0202301N00661220001CN0008001N1+00701+00701999999ADDAG11000ED124U20009MA1102611999999EQDQ01+000000PRSWM2
0055065900999991993010700504+49617+006217FM-15+0379ELLX V0202401N00721220001CN0010001N1+00701+00701999999ADDAG11999ED124U20009MA1102611999999EQDQ01+000000PRSWM2
0060065900999991993010701004+49617+006217FM-12+0379ELLX V0202401N007219999999N0010001N9+00741+00741102781ADDAG12999MD1710171+9999OA149901031REMSYN016 333 91120 91215
0055065900999991993010701204+49617+006217FM-15+0379ELLX V0202301N00661220001CN0011001N1+00701+00701999999ADDAG11999ED124U20009MA1102611999999EQDQ01+000000PRSWM2
0055065900999991993010701504+49617+006217FM-15+0379ELLX V0202401N00661220001CN0013001N1+00701+00701999999ADDAG11999ED124U20009MA1102611999999EQDQ01+000000PRSWM2
0060065900999991993010702004+49617+006217FM-12+0379ELLX V0202401N006719999999N0013001N9+00751+00751102761ADDAG12999MD1710121+9999OA149900981REMSYN016 333 91119 91214
0055065900999991993010702204+49617+006217FM-15+0379ELLX V0202401N00721220001CN0013001N1+00701+00701999999ADDAG11999ED124U20009MA1102611999999EQDQ01+000000PRSWM2
0072065900999991993010702504+49617+006217FM-15+0379ELLX V0202401N00721000901CN0013001N1+00801+00801999999ADDAG11000ED124U20009GA1081+000909079MA1102511999999MW1101REMMET005NOSIG
0130065900999991993010703004+49617+006217FM-12+0379ELLX V0202401N00721000901CN0015001N9+00771+00771102721ADDAG11000AW1101AZ121031AZ221031GA1081+000909079GF108991081061000751999999MD1710111+9999OA149901031REMSYN022 333 88703 91120 91215
0055065900999991993010703204+49617+006217FM-15+0379ELLX V0202401N00661220001CN0013001N1+00801+00801999999ADDAG11000ED124U20009MA1102511999999EQDQ01+000000PRSWM2
0130065900999991993010704004+49617+006217FM-12+0379ELLX V0202401N00671000601CN0012001N9+00751+00751102701ADDAG12999AW1621AZ161011AZ221011GA1071+000609079GF108991071071000751999999MD1710071+9999OA149901031REMSYN022 333 87702 91120 91215
0061065900999991993010704504+49617+006217FM-15+0379ELLX V0202501N00511000901CN0112651N1+00701+00701999999ADDAG11999GA1071+000909999MA1102511999999MW1611REMMET005NOSIG
0130065900999991993010705004+49617+006217FM-12+0379ELLX V0202501N00511000901CN0100001N9+00751+00751102671ADDAG12999AW1611AZ161021AZ261021GA1071+000909079GF108991071071000751999999MD1710081+9999OA149900821REMSYN022 333 87703 91116 91213
0061065900999991993010705204+49617+006217FM-15+0379ELLX V0202501N00511000601CN0020001N1+00701+00701999999ADDAG11999GA1071+000609079MA1102511999999MW1611REMMET005NOSIG
0088065900999991993010705504+49617+006217FM-15+0379ELLX V0202601N00461000301CN0012001N1+00701+00701999999ADDAG11000ED124U20009GA1051+000309079GA2081+000609079MA1102511999999MW1101REMMET005NOSIG
0220065900999991993010706004+49617+006217FM-12+0379ELLX V0202601N00461000301CN0012001N9+00731+00701102691ADDAA199006091AG10001AW1101AZ161061AZ241061GA1051+000309079GA2081+000609079GF108991081061000251999999GJ100009IA1099IA2999+00409KA1120N+00501MD1710041+9999OA149901031REMSYN046 333 20050 31004 85701 88702 91120 91215 94000
0088065900999991993010706204+49617+006217FM-15+0379ELLX V0202601N00611000301CN0011001N1+00701+00701999999ADDAG11000ED124U18009GA1051+000309079GA2081+000609079MA1102511999999MW1601REMMET005NOSIG
0072065900999991993010706504+49617+006217FM-15+0379ELLX V0202501N00411000301CN0008001N1+00701+00701999999ADDAG11999ED124U12009GA1081+000309079MA1102511999999MW1601REMMET005NOSIG
0130065900999991993010707004+49617+006217FM-12+0379ELLX V0202501N00411000301CN0008001N9+00701+00701102721ADDAG12999AW1601AZ141011AZ221011GA1081+000309079GF108991081061000251999999MD1210021+9999OA149900931REMSYN022 333 88701 91118 91212
0072065900999991993010707204+49617+006217FM-15+0379ELLX V0202601N00301000301CN0008001N1+00701+00701999999ADDAG11999ED124U12009GA1081+000309079MA1102611999999MW1611REMMET005NOSIG
0072065900999991993010707504+49617+006217FM-15+0379ELLX V0202601N00461000301CN0008001N1+00701+00701999999ADDAG11999ED124U16009GA1081+000309079MA1102611999999MW1421REMMET005NOSIG
0130065900999991993010708004+49617+006217FM-12+0379ELLX V0202601N00461000301CN0008001N9+00701+00701102801ADDAG12999AW1421AZ161021AZ241021GA1081+000309079GF108991081061000251999999MD1210111+9999OA149900721REMSYN022 333 88701 91114 91209
0072065900999991993010708204+49617+006217FM-15+0379ELLX V0202601N00511000301CN0005001N1+00701+00701999999ADDAG11999ED124U10009GA1081+000309079MA1102611999999MW1461REMMET005NOSIG
0072065900999991993010708504+49617+006217FM-15+0379ELLX V0202601N00361000301CN0005001N1+00701+00701999999ADDAG11000ED124U15009GA1081+000309079MA1102611999999MW1441REMMET005NOSIG
0130065900999991993010709004+49617+006217FM-12+0379ELLX V0202601N00361000301CN0005001N9+00691+00691102801ADDAG12001AW1441AZ161031AZ241031GA1081+000309079GF108991081061000251999999MD1210111+9999OA149900931REMSYN022 333 88701 91118 91212
0072065900999991993010709504+49617+006217FM-15+0379ELLX V0202601N00361000301CN0003001N1+00701+00701999999ADDAG11999ED124U09009GA1081+000309079MA1102711999999MW1461REMMET005NOSIG
0130065900999991993010710004+49617+006217FM-12+0379ELLX V0202601N00361000301CN0003001N9+00691+00691102861ADDAG11999AW1461AZ141011AZ241011GA1081+000309079GF108991081061000251999999MD1210141+9999OA149900671REMSYN022 333 88701 91113 91208
0072065900999991993010710204+49617+006217FM-15+0379ELLX V0202601N00301000301CN0002001N1+00701+00701999999ADDAG11999ED124U07509GA1081+000309079MA1102711999999MW1461REMMET005NOSIG
0072065900999991993010710504+49617+006217FM-15+0379ELLX V0202601N00301000301CN0003001N1+00701+00701999999ADDAG11999ED124U04509GA1081+000309079MA1102711999999MW1441REMMET005NOSIG
0072065900999991993010710554+49617+006217FM-15+0379ELLX V0202601N00301000301CN0003001N1+00701+00701999999ADDAG11999ED124U04509GA1081+000309079MA1102711999999MW1441REMMET005NOSIG
0130065900999991993010711004+49617+006217FM-12+0379ELLX V0202601N00311000301CN0003001N9+00691+00691102861ADDAG11999AW1441AZ141021AZ241021GA1081+000309079GF108991081061000251999999MD1210071+9999OA149900571REMSYN022 333 88701 91111 91207
0072065900999991993010711204+49617+006217FM-15+0379ELLX V0209991V00251000301CN0003001N1+00701+00701999999ADDAG11999ED124U05009GA1081+000309079MA1102711999999MW1441REMMET005NOSIG
0072065900999991993010711504+49617+006217FM-15+0379ELLX V0202501N00251000301CN0003001N1+00701+00701999999ADDAG11000ED124U06509GA1081+000309079MA1102611999999MW1441REMMET005NOSIG
0072065900999991993010711554+49617+006217FM-15+0379ELLX V0202501N00251000301CN0003001N1+00701+00701999999ADDAG11000ED124U06509GA1081+000309079MA1102611999999MW1441REMMET005NOSIG
0141065900999991993010712004+49617+006217FM-12+0379ELLX V0202501N00261000301CN0003001N9+00691+00691102811ADDAA106001091AG10001AW1441AZ161061AZ241061GA1081+000309079GF108991081061000251999999MD1210021+9999OA149900931REMSYN022 333 88701 91118 91212
0072065900999991993010712204+49617+006217FM-15+0379ELLX V0202401N00201000301CN0001001N1+00701+00701999999ADDAG11000ED124U04509GA1081+000309079MA1102611999999MW1461REMMET005NOSIG
0072065900999991993010712504+49617+006217FM-15+0379ELLX V0202301N00251000301CN0001001N1+00701+00701999999ADDAG11999ED124U03509GA1081+000309079MA1102611999999MW1501REMMET005NOSIG
0130065900999991993010713004+49617+006217FM-12+0379ELLX V0202301N00261000301CN0001001N9+00661+00661102761ADDAG12999AW1501AZ141011AZ241011GA1081+000309079GF108991081061000251999999MD1710091+9999OA149900361REMSYN022 333 88701 91107 91206
0072065900999991993010713204+49617+006217FM-15+0379ELLX V0202301N00301000301CN0003001N1+00601+00601999999ADDAG11999ED124U10009GA1081+000309079MA1102611999999MW1511REMMET005NOSIG
0072065900999991993010713504+49617+006217FM-15+0379ELLX V0202301N00301000301CN0003001N1+00601+00601999999ADDAG11999ED124U18009GA1081+000309079MA1102611999999MW1511REMMET005NOSIG
0130065900999991993010714004+49617+006217FM-12+0379ELLX V0202301N00311000301CN0003001N9+00651+00651102731ADDAG12999AW1511AZ151021AZ241021GA1081+000309079GF108991081061000251999999MD1710121+9999OA149900461REMSYN022 333 88701 91109 91207
0077065900999991993010714204+49617+006217FM-15+0379ELLX V0202301N00301000301CN0023001N1+00601+00601999999ADDAG11999GA1051+000309079GA2071+000909079MA1102511999999MW1101REMMET005NOSIG
0075065900999991993010714504+49617+006217FM-15+0379ELLX V0202201N00361000301CN0007001N1+00601+00601999999ADDAG11000ED124U20009GA1081+000309079MA1102511999999MW1501REMMET008GRADU 03
0075065900999991993010715204+49617+006217FM-15+0379ELLX V0202301N00301000301CN0007001N1+00601+00601999999ADDAG11000ED124U16009GA1081+000309079MA1102511999999MW1511REMMET008GRADU 03
0081065900999991993010715504+49617+006217FM-15+0379ELLX V0202301N00411220001CN0003001N1+99999+99999999999ADDAG11999ED199U02729REMMET032=24 51DZ 8ST001 06/06 1025 NOSIGEQDQ01+000000PRSWM2
0130065900999991993010716004+49617+006217FM-12+0379ELLX V0202301N00411000301CN0003001N9+00611+00611102691ADDAG12999AW1511AZ151011AZ241011GA1081+000309079GF108991081061000251999999MD1710071+9999OA149900511REMSYN022 333 88701 91110 91208
0072065900999991993010716204+49617+006217FM-15+0379ELLX V0202301N00361000301CN0004001N1+00601+00601999999ADDAG11999ED124U17009GA1081+000309079MA1102511999999MW1511REMMET005NOSIG
0072065900999991993010716504+49617+006217FM-15+0379ELLX V0202201N00301000301CN0004001N1+00601+00601999999ADDAG11999ED124U14009GA1081+000309079MA1102511999999MW1511REMMET005NOSIG
0130065900999991993010717004+49617+006217FM-12+0379ELLX V0202201N00311000301CN0004001N9+00591+00591102661ADDAG12999AW1511AZ151021AZ241021GA1081+000309079GF108991081061000251999999MD1710071+9999OA149900571REMSYN022 333 88701 91111 91208
0072065900999991993010717204+49617+006217FM-15+0379ELLX V0202301N00361000301CN0008001N1+00601+00601999999ADDAG11999ED124U06509GA1081+000309079MA1102511999999MW1511REMMET005NOSIG
0072065900999991993010717504+49617+006217FM-15+0379ELLX V0202201N00361000301CN0003001N1+00601+00601999999ADDAG11000ED124U08009GA1081+000309079MA1102511999999MW1511REMMET005NOSIG
0160065900999991993010718004+49617+006217FM-12+0379ELLX V0202201N00361000301CN0003001N9+00581+00581102661ADDAA199001091AG10000AW1511AZ151061AZ241061GA1081+000309079GF108991081061000251999999KA1120M+00741MD1710041+9999OA149900881REMSYN028 333 10074 88701 91117 91208
0072065900999991993010718204+49617+006217FM-15+0379ELLX V0202101N00301000301CN0003001N1+00601+00601999999ADDAG11000ED124U08009GA1081+000309079MA1102511999999MW1441REMMET005NOSIG
0072065900999991993010718504+49617+006217FM-15+0379ELLX V0202201N00411000301CN0001001N1+00601+00601999999ADDAG11999ED124U06509GA1081+000309079MA1102511999999MW1461REMMET005NOSIG
0130065900999991993010719004+49617+006217FM-12+0379ELLX V0202201N00411000301CN0001001N9+00591+00591102641ADDAG11999AW1461AZ141011AZ241011GA1081+000309079GF108991081061000251999999MD1710061+9999OA149900621REMSYN022 333 88701 91112 91208
0072065900999991993010719204+49617+006217FM-15+0379ELLX V0202201N00461000301CN0001001N1+00601+00601999999ADDAG11999ED124U04009GA1081+000309079MA1102401999999MW1441REMMET005NOSIG
0072065900999991993010719504+49617+006217FM-15+0379ELLX V0202301N00611000301CN0001001N1+00601+00601999999ADDAG11999ED124U05009GA1081+000309079MA1102401999999MW1441REMMET005NOSIG
0072065900999991993010720204+49617+006217FM-15+0379ELLX V0202401N00511000301CN0001001N1+00601+00601999999ADDAG11999ED124U07509GA1081+000309079MA1102401999999MW1441REMMET005NOSIG
0088065900999991993010720504+49617+006217FM-15+0379ELLX V0202301N00511000301CN0004001N1+00601+00601999999ADDAG11000ED124U20009GA1051+000309079GA2081+000609079MA1102401999999MW1421REMMET005NOSIG
0152065900999991993010721004+49617+006217FM-12+0379ELLX V0202301N00511000301CN0004001N9+00611+00611102621ADDAG12001AW1421AZ161031AZ241031GA1051+000309079GA2081+000609079GF108991081061000251999999MD1710041+9999OA149900881REMSYN028 333 85701 88702 91117 91213
0088065900999991993010721204+49617+006217FM-15+0379ELLX V0202201N00461000301CN0006001N1+00601+00601999999ADDAG11000ED124U20009GA1051+000309079GA2081+000609079MA1102401999999MW1501REMMET005NOSIG
0152065900999991993010722004+49617+006217FM-12+0379ELLX V0202201N00571000301CN0006001N9+00631+00631102591ADDAG12999AW1501AZ151011AZ241011GA1051+000309079GA2081+000609079GF108991081061000251999999MD1710041+9999OA149900821REMSYN028 333 85701 88702 91116 91211
0088065900999991993010722204+49617+006217FM-15+0379ELLX V0202301N00511000301CN0006001N1+00601+00601999999ADDAG11999ED124U01759GA1051+000309079GA2081+000609079MA1102401999999MW1511REMMET005NOSIG
0088065900999991993010722504+49617+006217FM-15+0379ELLX V0202301N00411000301CN0006001N1+00601+00601999999ADDAG11999ED124U07509GA1051+000309079GA2081+000609079MA1102401999999MW1511REMMET005NOSIG
0152065900999991993010723004+49617+006217FM-12+0379ELLX V0202301N00411000301CN0006001N9+00621+00621102581ADDAG12999AW1511AZ151021AZ241021GA1051+000309079GA2081+000609079GF108991081061000251999999MD1710031+9999OA149900721REMSYN028 333 85701 88702 91114 91211
0072065900999991993010723204+49617+006217FM-15+0379ELLX V0202301N00461000301CN0001001N1+00601+00601999999ADDAG11999ED124U04509GA1081+000309079MA1102401999999MW1461REMMET005NOSIG
0072065900999991993010723504+49617+006217FM-15+0379ELLX V0202301N00411000301CN0001001N1+00601+00601999999ADDAG11000ED124U04009GA1081+000309079MA1102401999999MW1461REMMET005NOSIG
0141065900999991993010800004+49617+006217FM-12+0379ELLX V0202301N00411000301CN0001001N9+00611+00611102571ADDAA106000591AG10000AW1461AZ151061AZ241061GA1081+000309079GF108991081061000251999999MD1710051+9999OA149900881REMSYN022 333 88701 91117 91213
0055065900999991993010800204+49617+006217FM-15+0379ELLX V0202301N00411220001CN0000001N1+00601+00601999999ADDAG11000ED124U04009MA1102401999999EQDQ01+000000PRSWM2
0055065900999991993010800504+49617+006217FM-15+0379ELLX V0202301N00561220001CN0001001N1+00601+00601999999ADDAG11999ED124U04009MA1102401999999EQDQ01+000000PRSWM2
0060065900999991993010801004+49617+006217FM-12+0379ELLX V0202301N005719999999N0001001N9+00631+00631102551ADDAG12999MD1710041+9999OA149900771REMSYN016 333 91115 91211
0055065900999991993010801204+49617+006217FM-15+0379ELLX V0202301N00561220001CN0001001N1+00601+00601999999ADDAG11999ED124U06509MA1102401999999EQDQ01+000000PRSWM2
0055065900999991993010801504+49617+006217FM-15+0379ELLX V0202301N00611220001CN0002001N1+00601+00601999999ADDAG11999ED124U09009MA1102401999999EQDQ01+000000PRSWM2
0060065900999991993010802004+49617+006217FM-12+0379ELLX V0202301N006219999999N0002001N9+00621+00621102541ADDAG12999MD1710041+9999OA149900881REMSYN016 333 91117 91213
0055065900999991993010802204+49617+006217FM-15+0379ELLX V0202301N00561220001CN0012001N1+00601+00601999999ADDAG11999ED124U20009MA1102301999999EQDQ01+000000PRSWM2
0072065900999991993010802504+49617+006217FM-15+0379ELLX V0202401N00511000601CN0006001N1+00601+00601999999ADDAG11000ED124U20009GA1081+000609079MA1102301999999MW1421REMMET005NOSIG
0130065900999991993010803004+49617+006217FM-12+0379ELLX V0202401N00511000601CN0006001N9+00641+00641102501ADDAG11000AW1421AZ141031AZ241031GA1081+000609079GF108991081061000751999999MD1710071+9999OA149900881REMSYN022 333 88702 91117 91213
0055065900999991993010803204+49617+006217FM-15+0379ELLX V0202401N00611220001CN0003001N1+00601+00601999999ADDAG11000ED124U14009MA1102301999999EQDQ01+000000PRSWM2
0072065900999991993010803504+49617+006217FM-15+0379ELLX V0202401N00461000301CN0001001N1+00601+00601999999ADDAG11999ED124U09009GA1081+000309079MA1102301999999MW1461REMMET005NOSIG
0130065900999991993010804004+49617+006217FM-12+0379ELLX V0202401N00461000301CN0001001N9+00641+00641102491ADDAG11999AW1461AZ141011AZ241011GA1081+000309079GF108991081061000251999999MD1710061+9999OA149900821REMSYN022 333 88701 91116 91212
0055065900999991993010804204+49617+006217FM-15+0379ELLX V0202401N00511220001CN0001001N1+00701+00701999999ADDAG11999ED124U05509MA1102301999999EQDQ01+000000PRSWM2
0072065900999991993010804504+49617+006217FM-15+0379ELLX V0202401N00561000301CN0001001N1+00701+00701999999ADDAG11999ED124U08009GA1081+000309079MA1102301999999MW1441REMMET005NOSIG
0130065900999991993010805004+49617+006217FM-12+0379ELLX V0202401N00571000301CN0001001N9+00671+00671102491ADDAG11999AW1441AZ141021AZ241021GA1081+000309079GF108991081061000251999999MD1710051+9999OA149900821REMSYN022 333 88701 91116 91211
0072065900999991993010805204+49617+006217FM-15+0379ELLX V0202401N00561000301CN0006001N1+00701+00701999999ADDAG11999ED124U20009GA1081+000309079MA1102301999999MW1441REMMET005NOSIG
0088065900999991993010805504+49617+006217FM-15+0379ELLX V0202401N00611000301CN0005001N1+00701+00701999999ADDAG11000ED124U20009GA1051+000309079GA2081+000609079MA1102301999999MW1601REMMET005NOSIG
0220065900999991993010806004+49617+006217FM-12+0379ELLX V0202401N00621000301CN0005001N9+00681+00681102511ADDAA199001091AG10001AW1601AZ161061AZ241061GA1051+000309079GA2081+000609079GF108991081061000251999999GJ100009IA1099IA2999+00509KA1120N+00551MD1210011+9999OA149900881REMSYN046 333 20055 31005 85701 88702 91117 91213 94000
0072065900999991993010806204+49617+006217FM-15+0379ELLX V0202301N00561000601CN0013001N1+00701+00601999999ADDAG11000ED124U20009GA1081+000609079MA1102301999999MW1601REMMET005NOSIG
0072065900999991993010806504+49617+006217FM-15+0379ELLX V0202401N00511000601CN0014001N1+00701+00601999999ADDAG11999ED124U20009GA1081+000609079MA1102401999999MW1611REMMET005NOSIG
0130065900999991993010807004+49617+006217FM-12+0379ELLX V0202401N00511000601CN0014001N9+00681+00651102531ADDAG12999AW1611AZ161011AZ241011GA1081+000609079GF108991081061000751999999MD1210041+9999OA149900821REMSYN022 333 88702 91116 91212
0061065900999991993010807204+49617+006217FM-15+0379ELLX V0202501N00611001801CN0025001N1+00701+00701999999ADDAG11999GA1071+001809079MA1102401999999MW1611REMMET005NOSIG
0061065900999991993010807504+49617+006217FM-15+0379ELLX V0202401N00461000601CN0018001N1+00701+00601999999ADDAG11999GA1081+000609079MA1102401999999MW1501REMMET005NOSIG
0130065900999991993010808004+49617+006217FM-12+0379ELLX V0202401N00461000601CN0018001N9+00711+00651102571ADDAG12999AW1501AZ161021AZ241021GA1081+000609079GF108991081061000751999999MD1210081+9999OA149900931REMSYN022 333 88702 91118 91213
0061065900999991993010808204+49617+006217FM-15+0379ELLX V0202401N00511000601CN0018001N1+00701+00701999999ADDAG11999GA1081+000609079MA1102511999999MW1501REMMET005NOSIG
0061065900999991993010808504+49617+006217FM-15+0379ELLX V0202501N00561000901CN0016001N1+00701+00701999999ADDAG11000GA1081+000909079MA1102511999999MW1511REMMET005NOSIG
0130065900999991993010809004+49617+006217FM-12+0379ELLX V0202501N00571000901CN0016001N9+00731+00701102661ADDAG12001AW1511AZ161031AZ241031GA1081+000909079GF108991081061000751999999MD1210151+9999OA149900931REMSYN022 333 88703 91118 91213
0061065900999991993010809204+49617+006217FM-15+0379ELLX V0202601N00511000901CN0025001N1+00701+00701999999ADDAG11000GA1081+000909079MA1102511999999MW1511REMMET005NOSIG
0077065900999991993010809504+49617+006217FM-15+0379ELLX V0202501N00511000901CN0035001N1+00701+00701999999ADDAG11999GA1051+000909079GA2081+001509079MA1102611999999MW1201REMMET005NOSIG
0152065900999991993010810004+49617+006217FM-12+0379ELLX V0202501N00511000901CN0035001N9+00751+00721102731ADDAG12999AW1201AZ121011AZ221011GA1051+000909079GA2081+001509079GF108991081061000751999999MD1210201+9999OA149900821REMSYN028 333 85703 88705 91116 91211
0077065900999991993010810204+49617+006217FM-15+0379ELLX V0203001N00561003601CN0112651N1+00701+00501999999ADDAG11999GA1041+001509079GA2071+003609059MA1102611999999MW1201REMMET005NOSIG
0074065900999991993010810504+49617+006217FM-15+0379ELLX V0203301N00301004501CN0112651N1+00601+00401999999ADDAG11999GA1071+004509059MA1102711999999REMMET005NOSIGEQDQ01+000000PRSWM2
0108065900999991993010811004+49617+006217FM-12+0379ELLX V0203301N00311004501CN0100001N9+00561+00441102841ADDAG12999GA1071+004509059GF107991071051004501999999MD1210251+9999OA149900931REMSYN022 333 87615 91118 91212
0074065900999991993010811204+49617+006217FM-15+0379ELLX V0209991V00251005401CN0112651N1+00601+00201999999ADDAG11999GA1071+005409059MA1102711999999REMMET005NOSIGEQDQ01+000000PRSWM2
0074065900999991993010811504+49617+006217FM-15+0379ELLX V0209991V00251007201CN0112651N1+00601+00201999999ADDAG11000GA1071+007209059MA1102711999999REMMET005NOSIGEQDQ01+000000PRSWM2
0141065900999991993010812004+49617+006217FM-12+0379ELLX V0209991V00261007201CN0200001N9+00591+00241102841ADDAA106000591AG10001AW1021AZ161061AZ251061GA1071+007209049GF107991071051008001999999MD1210161+9999OA149900931REMSYN022 333 87524 91118 91213
0074065900999991993010812204+49617+006217FM-15+0379ELLX V0209991V00151008401CN0112651N1+00601+00201999999ADDAG11000GA1061+008409059MA1102711999999REMMET005NOSIGEQDQ01+000000PRSWM2
0074065900999991993010812504+49617+006217FM-15+0379ELLX V0209991V00251220001CN0112651N1+00701+00301999999ADDAG11999GA1031+009009059MA1102711999999REMMET005NOSIGEQDQ01+000000PRSWM2
0108065900999991993010813004+49617+006217FM-12+0379ELLX V0209991V00261036001CN0200001N9+00661+00301102861ADDAG12999GA1031+009009059GF105991031051008001031021MD1210111+9999OA149900461REMSYN022 333 83630 91109 91205
0090065900999991993010813204+49617+006217FM-15+0379ELLX V0209991V00251009001CN0112651N1+00701+00201999999ADDAG11999GA1021+006009089GA2031+009009059MA1102711999999REMMET005NOSIGEQDQ01+000000PRSWM2
0090065900999991993010813254+49617+006217FM-15+0379ELLX V0209991V00251009001CN0112651N1+00701+00201999999ADDAG11999GA1021+006009089GA2031+009009059MA1102711999999REMMET005NOSIGEQDQ01+000000PRSWM2
0074065900999991993010813504+49617+006217FM-15+0379ELLX V0209991V00251220001CN0112651N1+00701+00201999999ADDAG11999GA1031+007509089MA1102711999999REMMET005NOSIGEQDQ01+000000PRSWM2
0074065900999991993010814204+49617+006217FM-15+0379ELLX V0209991V00251220001CN0112651N1+00701+00101999999ADDAG11999GA1031+007509089MA1102811999999REMMET005NOSIGEQDQ01+000000PRSWM2
0074065900999991993010814504+49617+006217FM-15+0379ELLX V0209991V00201220001CN0112651N1+00601+00001999999ADDAG11000GA1031+009009089MA1102811999999REMMET005NOSIGEQDQ01+000000PRSWM2
0108065900999991993010815004+49617+006217FM-12+0379ELLX V0209991V00211220001CN0200001N9+00601+00011103021ADDAG12000GA1031+009009089GF104991031081008001001021MD1210171+9999OA149900721REMSYN022 333 83830 91114 91207
0074065900999991993010815204+49617+006217FM-15+0379ELLX V0209991V00201220001CN0112651N1+00501+00001999999ADDAG11000GA1021+009009089MA1102911999999REMMET005NOSIGEQDQ01+000000PRSWM2
0074065900999991993010815254+49617+006217FM-15+0379ELLX V0209991V00201220001CN0112651N1+00501+00001999999ADDAG11000GA1021+009009089MA1102911999999REMMET005NOSIGEQDQ01+000000PRSWM2
0074065900999991993010815504+49617+006217FM-15+0379ELLX V0209991V00101220001CN0112651N1+00501-00101999999ADDAG11999GA1011+009009059MA1102911999999REMMET005NOSIGEQDQ01+000000PRSWM2
0108065900999991993010816004+49617+006217FM-12+0379ELLX V0209991V00101220001CN0200001N9+00481-00101103071ADDAG12999GA1011+009009059GF103991011051008001001021MD1210191+9999OA149900361REMSYN022 333 81630 91107 91204
0061065900999991993010816204+49617+006217FM-15+0379ELLX V0203501N00101999991CY0099001N1+00401-00101999999ADDAG11999MA1102911999999REMMET008CAVOK NOEQDQ01+000000PRSWM2
