0043065900999991951010100004+49617+006200FM-12+038099999V0201601N00511001501CN0016001N9-00221-00281100311ADDAY171999GF108991081071001501999999MW1721
0056065900999991951010106004+49617+006200FM-12+038099999V0201601N00671002401CN0050001N9+00001-00111099711ADDAY171999GF108991081071002501999999KA1999N-00501MW1221
0043065900999991951010112004+49617+006200FM-12+038099999V0202001N00671002401CN0160001N9+00001+00001099631ADDAY171999GF108991081051002501999999MW1231
0056065900999991951010118004+49617+006200FM-12+038099999V0202001N00771220001CN0160001N9+00111-00111099711ADDAY121999GF104991041051004501001001KA1999M+00111MW1021
0043065900999991951010200004+49617+006200FM-12+038099999V0201701N00571000601CN0120001N9+00001-00111099571ADDAY121999GF108991081061000751999999MW1021
0056065900999991951010206004+49617+006200FM-12+038099999V0201601N00511000601CN0028001N9+00001+00001098981ADDAY171999GF108991081071000751999999KA1999N-00111MW1721
0043065900999991951010212004+49617+006200FM-12+038099999V0202001N00311000601CN0008001N9+00001+00001098901ADDAY171999GF108991081071000751999999MW1701
0056065900999991951010218004+49617+006200FM-12+038099999V0202001N00211000151CN0002001N9+00001+00001099191ADDAY171999GF109991091999000251999999KA1999M+00001MW1451
0043065900999991951010300004+49617+006200FM-12+038099999V0202301N00511002401CN0060001N9+00001+00001099431ADDAY171999GF108991081071002501999999MW1221
0056065900999991951010306004+49617+006200FM-12+038099999V0202001N00621004501CN0140001N9-00111-00221099871ADDAY121999GF108991071051004501999999KA1999N-00111MW1031
0043065900999991951010312004+49617+006200FM-12+038099999V0202201N00461001501CN0040001N9+00001-00111100501ADDAY181999GF108991061061001501999999MW1051
0056065900999991951010318004+49617+006200FM-12+038099999V0202301N00671000151CN0008001N9+00001+00001101131ADDAY151999GF109991091999000251999999KA1999M+00001MW1431
0043065900999991951010400004+49617+006200FM-12+038099999V0202701N00571001501CN0050001N9+00001-00221101611ADDAY121999GF108991081061001501999999MW1051
0056065900999991951010406004+49617+006200FM-12+038099999V0202301N00261001501CN0030001N9-00111-00111101831ADDAY121999GF108991081061001501999999KA1999N-00111MW1051
0043065900999991951010412004+49617+006200FM-12+038099999V0201701N00571001501CN0040001N9-00111-00221101911ADDAY141999GF108991071061001501999999MW1051
0056065900999991951010418004+49617+006200FM-12+038099999V0201801N00621000601CN0016001N9-00111-00111101751ADDAY171999GF108991081071000751999999KA1999M+00001MW1721
0043065900999991951010500004+49617+006200FM-12+038099999V0201801N00461000601CN0006001N9+00001+00001101661ADDAY171999GF108991081071000751999999MW1621
0056065900999991951010506004+49617+006200FM-12+038099999V0202301N00511000151CN0002001N9+00281+00281101661ADDAY161999GF109991091999000251999999KA1999N-00111MW1601
0043065900999991951010512004+49617+006200FM-12+038099999V0202001N00461000151CN0001001N9+00281+00281101691ADDAY161999GF109991091999000251999999MW1451
0056065900999991951010518004+49617+006200FM-12+038099999V0201801N00571220001CN0060001N9+00281+00111101441ADDAY141999GF103991031051008001001001KA1999M+00391MW1051
0043065900999991951010600004+49617+006200FM-12+038099999V0202001N005119999999N0140001N9+00281+00221101551ADDAY121999GF108991041051008001031999MW1021
0056065900999991951010606004+49617+006200FM-12+038099999V0201801N00511220001CN0120001N9+00221-00221101431ADDAY121999GF104991041051008001041001KA1999N+00221MW1011
0043065900999991951010612004+49617+006200FM-12+038099999V0201801N00361220001CN0120001N9+00281-00111101301ADDAY121999GF105991001001999999071061MW1021
0075065900999991951010618004+49617+006200FM-12+038099999V0201801N00571220001CN0080001N9+00391+00001101131ADDAY121999GF104991999001999999071001KA1999M+00611MW1051EQDQ01+000002SCOTLC
0043065900999991951010700004+49617+006200FM-12+038099999V0201801N00511220001CN0120001N9+00391+00001101091ADDAY121999GF107991001001999999071999MW1031
0056065900999991951010706004+49617+006200FM-12+038099999V0202001N00981002401CN0160001N9+00391+00391100851ADDAY161999GF108991081071002501999999KA1999N+00281MW1611
0043065900999991951010712004+49617+006200FM-12+038099999V0202901N00721004501CN0150001N9+00391+00281101301ADDAY181999GF107991051081004501999999MW1811
0056065900999991951010718004+49617+006200FM-12+038099999V0202501N00821220001CN0120001N9+00391+00111101511ADDAY181999GF104991041051012501001001KA1999M+00391MW1021
0043065900999991951010800004+49617+006200FM-12+038099999V0202301N00571004501CN0140001N9+00281+00281101741ADDAY181999GF107991051081004501999999MW1811
0056065900999991951010806004+49617+006200FM-12+038099999V0202101N00511000151CN0010001N9+00221+00221101781ADDAY121999GF108991081061000251999999KA1999N+00221MW1101
0043065900999991951010812004+49617+006200FM-12+038099999V0202001N004619999999N0050001N9+00281+00281101741ADDAY141999GF108991041061000751999999MW1051
0056065900999991951010818004+49617+006200FM-12+038099999V0201801N004619999999N0120001N9+00281+00221101501ADDAY161999GF107991031051004501999999KA1999M+00391MW1021
0043065900999991951010900004+49617+006200FM-12+038099999V0201801N00571001501CN0080001N9+00281+00221101141ADDAY121999GF108991081061001501999999MW1051
0056065900999991951010906004+49617+006200FM-12+038099999V0202001N00461001501CN0060001N9+00281+00281101001ADDAY161999GF108991081071001501999999KA1999N+00221MW1611
0043065900999991951010912004+49617+006200FM-12+038099999V0202501N00771220001CN0200001N9+00391-00221101591ADDAY181999GF104991041051008001001001MW1021
0056065900999991951010918004+49617+006200FM-12+038099999V0202301N00461220001CN0160001N9+00221+00001101801ADDAY111999GF101991011051008001001001KA1999M+00501MW1011
0043065900999991951011000004+49617+006200FM-12+038099999V0209991C00001220001CN0160001N9-00111-00221101931ADDAY101999GF100991001001999999001001MW1001
0056065900999991951011006004+49617+006200FM-12+038099999V0200901N00461220001CN0120001N9+00001-00221101781ADDAY101999GF100991001001999999001001KA1999N-00111MW1001
0043065900999991951011012004+49617+006200FM-12+038099999V0201401N00261220001CN0060001N9+00281-00221101631ADDAY121999GF105991001001999999001061MW1051
0056065900999991951011018004+49617+006200FM-12+038099999V0201601N00511220001CN0090001N9+00221-00221101431ADDAY121999GF105991001001999999001061KA1999M+00391MW1051
0043065900999991951011100004+49617+006200FM-12+038099999V0202301N00511220001CN0160001N9+00391+00221101261ADDAY121999GF108991001001999999071999MW1021
0056065900999991951011106004+49617+006200FM-12+038099999V0202301N009819999999N0200001N9+00611+00281100921ADDAY181999GF108991041021004501999999KA1999N+00221MW1021
0043065900999991951011112004+49617+006200FM-12+038099999V0202301N01031004501CN0200001N9+00721+00281100561ADDAY121999GF107991071051004501999999MW1021
0056065900999991951011118004+49617+006200FM-12+038099999V0202301N008219999999N0200001N9+00611+00221100021ADDAY121999GF106991011051008001001061KA1999M+00781MW1021
0043065900999991951011200004+49617+006200FM-12+038099999V0202301N01181004501CN0120001N9+00501+00501099791ADDAY161999GF108991071071004501021999MW1631
0056065900999991951011206004+49617+006200FM-12+038099999V0202301N00671002401CN0120001N9+00391+00281099751ADDAY161999GF108991071071002501999999KA1999N+00391MW1601
0043065900999991951011212004+49617+006200FM-12+038099999V0202301N00671007801CN0200001N9+00281+00001099911ADDAY181999GF108991051051008001021999MW1021
0056065900999991951011218004+49617+006200FM-12+038099999V0201901N006219999999N0050001N9+00281+00221099831ADDAY121999GF108991041021004501999999KA1999M+00391MW1811
0043065900999991951011300004+49617+006200FM-12+038099999V0201801N00621220001CN0160001N9+00111+00111099761ADDAY181999GF104991041081004501001001MW1251
0056065900999991951011306004+49617+006200FM-12+038099999V0202001N00511002401CN0080001N9+00221+00111099911ADDAY181999GF108991051021002501999999KA1999N+00111MW1801
0043065900999991951011312004+49617+006200FM-12+038099999V0202001N00621002401CN0160001N9+00221+00111100091ADDAY181999GF108991071051002501999999MW1021
0056065900999991951011318004+49617+006200FM-12+038099999V0202301N00511004501CN0060001N9+00281+00281100301ADDAY161999GF108991071071004501999999KA1999M+00281MW1601
0062065900999991951011400004+49617+006200FM-12+038099999V0202501N00511220001CN0160001N9+00221+00221100731ADDAY161999GF104991999051004501001001MW1011EQDQ01+000022SCOTLC
0056065900999991951011406004+49617+006200FM-12+038099999V0202001N00511000601CN0050001N9+00221+00221101021ADDAY161999GF108991081061000751999999KA1999N+00221MW1051
0043065900999991951011412004+49617+006200FM-12+038099999V0202301N00671002401CN0120001N9+00391+00391101151ADDAY181999GF108991081071002501999999MW1251
0056065900999991951011418004+49617+006200FM-12+038099999V0202301N00461002401CN0060001N9+00391+00391101231ADDAY181999GF108991081071002501999999KA1999M+00501MW1251
0043065900999991951011500004+49617+006200FM-12+038099999V0202301N00621004501CN0060001N9+00501+00391101191ADDAY161999GF108991081051004501999999MW1051
0056065900999991951011506004+49617+006200FM-12+038099999V0202001N00621002401CN0060001N9+00281+00221100451ADDAY161999GF108991081071002501999999KA1999N+00281MW1611
0043065900999991951011512004+49617+006200FM-12+038099999V0203001N00621004501CN0200001N9+00501+00501100111ADDAY161999GF108991071051004501999999MW1211
0075065900999991951011518004+49617+006200FM-12+038099999V0203001N00621220001CN0160001N9+00111-00111101472ADDAY181999GF102991021081008001001001KA1999M+00611MW1011EQDQ01+101473APOSLP
0043065900999991951011600004+49617+006200FM-12+038099999V0202901N00511220001CN0120001N9+00001-00221102341ADDAY111999GF101991011051004501001001MW1011
0056065900999991951011606004+49617+006200FM-12+038099999V0202901N005719999999N0070001N9+00111+00001102701ADDAY121999GF107991041021004501999999KA1999N-00111MW1051
0062065900999991951011612004+49617+006200FM-12+038099999V0203201N00361220001CN0080001N9+00281+00001103091ADDAY121999GF104991999081008001001001MW1051EQDQ01+000032SCOTLC
0056065900999991951011618004+49617+006200FM-12+038099999V0202901N00101220001CN0060001N9+00111-00221103381ADDAY121999GF104991041051012501001001KA1999M+00391MW1051
0043065900999991951011700004+49617+006200FM-12+038099999V0202301N00361007801CN0060001N9+00111+00001103341ADDAY121999GF108991081051008001999999MW1051
0056065900999991951011706004+49617+006200FM-12+038099999V0202001N00571001501CN0030001N9+00111+00111102871ADDAY161999GF108991081071001501999999KA1999N+00111MW1691
0043065900999991951011712004+49617+006200FM-12+038099999V0202301N00771001501CN0030001N9+00221+00221102371ADDAY161999GF108991081071001501999999MW1501
0056065900999991951011718004+49617+006200FM-12+038099999V0202301N00771000601CN0030001N9+00391+00391101761ADDAY151999GF108991081071000751999999KA1999M+00391MW1501
0043065900999991951011800004+49617+006200FM-12+038099999V0202401N00871004501CN0160001N9+00611+00391101461ADDAY161999GF108991061051004501021999MW1211
0056065900999991951011806004+49617+006200FM-12+038099999V0202501N00981004501CN0120001N9+00501+00281100981ADDAY161999GF108991061071004501021999KA1999N+00391MW1611
0043065900999991951011812004+49617+006200FM-12+038099999V0202701N008219999999N0100001N9+00611+00391100641ADDAY181999GF107991041021002501999999MW1801
0056065900999991951011818004+49617+006200FM-12+038099999V0202501N00621220001CN0120001N9+00221+00111100831ADDAY191999GF102991021051008001001001KA1999M+00721MW1011
0043065900999991951011900004+49617+006200FM-12+038099999V0202701N00571220001CN0200001N9+00221+00111101061ADDAY181999GF103991031081008001001001MW1251
0056065900999991951011906004+49617+006200FM-12+038099999V0202901N00461007801CN0200001N9+00221-00111101581ADDAY121999GF106991061051008001999999KA1999N+00221MW1021
0043065900999991951011912004+49617+006200FM-12+038099999V0202501N00721002401CN0040001N9+00221+00111101831ADDAY121999GF108991061051002501999999MW1051
0056065900999991951011918004+49617+006200FM-12+038099999V0202701N00621002401CN0120001N9+00281+00221101791ADDAY161999GF108991071071002501999999KA1999M+00281MW1501
0043065900999991951012000004+49617+006200FM-12+038099999V0202701N00771001501CN0120001N9+00501+00391101361ADDAY161999GF108991081071001501999999MW1621
0056065900999991951012006004+49617+006200FM-12+038099999V0202901N00821004501CN0120001N9+00721+00611101301ADDAY161999GF108991071071004501999999KA1999N+00281MW1201
0043065900999991951012012004+49617+006200FM-12+038099999V0202501N00621001501CN0080001N9+00721+00611101401ADDAY161999GF108991061071001501999999MW1501
0056065900999991951012018004+49617+006200FM-12+038099999V0202501N00621001501CN0090001N9+00721+00611101501ADDAY161999GF108991061071001501021999KA1999M+00781MW1601
0043065900999991951012100004+49617+006200FM-12+038099999V0202701N00461002401CN0070001N9+00611+00501101791ADDAY161999GF108991071051002501999999MW1051
0056065900999991951012106004+49617+006200FM-12+038099999V0202301N00101000601CN0014001N9+00611+00501102051ADDAY151999GF108991071061000751999999KA1999N+00611MW1501
0043065900999991951012112004+49617+006200FM-12+038099999V0202701N00621000601CN0012001N9+00611+00611102301ADDAY161999GF108991081071000751999999MW1581
0056065900999991951012118004+49617+006200FM-12+038099999V0202601N00411001501CN0040001N9+00611+00611102391ADDAY151999GF108991061071001501999999KA1999M+00721MW1501
0043065900999991951012200004+49617+006200FM-12+038099999V0202701N00211000151CN0006001N9+00501+00501102451ADDAY151999GF109991091999000251999999MW1471
0056065900999991951012206004+49617+006200FM-12+038099999V0202501N00261000601CN0018001N9+00501+00501102351ADDAY141999GF108991081061000751999999KA1999N+00501MW1101
0043065900999991951012212004+49617+006200FM-12+038099999V0202301N00411004501CN0200001N9+00501+00281102261ADDAY121999GF108991061051004501021999MW1021
0056065900999991951012218004+49617+006200FM-12+038099999V0209991C00001007801CN0090001N9+00391+00281102071ADDAY161999GF108991081051008001999999KA1999M+00501MW1051
0043065900999991951012300004+49617+006200FM-12+038099999V0202301N00101000151CN0004001N9+00281+00281101981ADDAY151999GF109991091999000251999999MW1471
0056065900999991951012306004+49617+006200FM-12+038099999V0202001N00101000601CN0030001N9+00281+00281101861ADDAY161999GF108991071071000751999999KA1999N+00281MW1601
0043065900999991951012312004+49617+006200FM-12+038099999V0201801N00051002401CN0080001N9+00391+00281101891ADDAY161999GF108991071051002501999999MW1051
0056065900999991951012318004+49617+006200FM-12+038099999V0200501N003119999999N0160001N9+00281+00221101901ADDAY121999GF105991011051008001001061KA1999M+00501MW1021
0043065900999991951012400004+49617+006200FM-12+038099999V0200501N00361004501CN0160001N9+00281+00221101931ADDAY121999GF108991081051004501999999MW1021
0056065900999991951012406004+49617+006200FM-12+038099999V0200701N00261220001CN0160001N9+00111+00001101931ADDAY121999GF102991001001999999001061KA1999N+00111MW1021
0043065900999991951012412004+49617+006200FM-12+038099999V0200701N006719999999N0160001N9+00391+00001101801ADDAY121999GF105991021051004501001061MW1021
0056065900999991951012418004+49617+006200FM-12+038099999V0200701N00571220001CN0050001N9+00281+00001101651ADDAY121999GF108991001001999999021999KA1999M+00391MW1051
0043065900999991951012500004+49617+006200FM-12+038099999V0200901N00361007801CN0080001N9+00281+00001101571ADDAY121999GF106991061051008001999999MW1051
0056065900999991951012506004+49617+006200FM-12+038099999V0200701N00461004501CN0060001N9+00111-00111101301ADDAY121999GF108991081061004501999999KA1999N+00111MW1051
0043065900999991951012512004+49617+006200FM-12+038099999V0200501N00411004501CN0080001N9+00111-00111101181ADDAY121999GF108991081051004501999999MW1051
0056065900999991951012518004+49617+006200FM-12+038099999V0201101N00211002401CN0060001N9+00111-00111101151ADDAY121999GF108991081051002501999999KA1999M+00221MW1051
0043065900999991951012600004+49617+006200FM-12+038099999V0200701N00151002401CN0040001N9+00001-00111101111ADDAY121999GF108991081061002501999999MW1051
0056065900999991951012606004+49617+006200FM-12+038099999V0200901N00051001501CN0018001N9+00001+00001100951ADDAY121999GF108991081061001501999999KA1999N+00001MW1101
0043065900999991951012612004+49617+006200FM-12+038099999V0201401N00101000151CN0004001N9+00221+00221100981ADDAY141999GF109991091999000251999999MW1471
0056065900999991951012618004+49617+006200FM-12+038099999V0201801N00151002401CN0060001N9+00221+00111100911ADDAY151999GF108991081061002501999999KA1999M+00221MW1281
0043065900999991951012700004+49617+006200FM-12+038099999V0202001N00101007801CN0090001N9+00111+00001100861ADDAY121999GF107991061051008001999999MW1051
0056065900999991951012706004+49617+006200FM-12+038099999V0201101N00311001501CN0050001N9+00221+00111100591ADDAY121999GF108991071061001501999999KA1999N+00001MW1051
0043065900999991951012712004+49617+006200FM-12+038099999V0201801N00461000151CN0002001N9+00221+00221100391ADDAY141999GF109991091999000251999999MW1451
0056065900999991951012718004+49617+006200FM-12+038099999V0209991C00001000151CN0002001N9+00111+00111100151ADDAY141999GF109991091999000251999999KA1999M+00221MW1451
0043065900999991951012800004+49617+006200FM-12+038099999V0200501N00461004501CN0030001N9+00221+00221100031ADDAY141999GF108991081051004501999999MW1051
0056065900999991951012806004+49617+006200FM-12+038099999V0200501N00461002401CN0080001N9+00221+00001100071ADDAY121999GF108991071051002501999999KA1999N+00111MW1051
0043065900999991951012812004+49617+006200FM-12+038099999V0200501N00411007801CN0140001N9+00221+00001100381ADDAY121999GF108991081051008001999999MW1021
0056065900999991951012818004+49617+006200FM-12+038099999V0203401N00311007801CN0050001N9+00281+00111100701ADDAY161999GF108991081051008001999999KA1999M+00281MW1051
0043065900999991951012900004+49617+006200FM-12+038099999V0203601N00361004501CN0060001N9+00111-00111101061ADDAY121999GF108991081051004501999999MW1051
0056065900999991951012906004+49617+006200FM-12+038099999V0203601N00461004501CN0080001N9+00111-00111101311ADDAY121999GF108991081051004501999999KA1999N+00111MW1051
0043065900999991951012912004+49617+006200FM-12+038099999V0200101N00261007801CN0040001N9+00111-00111101631ADDAY121999GF108991071051008001999999MW1051
0056065900999991951012918004+49617+006200FM-12+038099999V0203401N00211007801CN0040001N9+00111-00221101791ADDAY121999GF108991071051008001999999KA1999M+00221MW1051
0043065900999991951013000004+49617+006200FM-12+038099999V0203401N00151004501CN0060001N9+00001-00111101901ADDAY121999GF108991071051004501999999MW1051
0056065900999991951013006004+49617+006200FM-12+038099999V0203401N00051004501CN0040001N9+00001-00111101901ADDAY121999GF108991081061004501999999KA1999N+00001MW1051
0043065900999991951013012004+49617+006200FM-12+038099999V0200301N00361001501CN0028001N9+00001-00111101831ADDAY151999GF108991071061001501999999MW1051
0056065900999991951013018004+49617+006200FM-12+038099999V0209991C00001002401CN0030001N9+00111-00111101651ADDAY121999GF108991081061002501999999KA1999M+00111MW1051
0043065900999991951013100004+49617+006200FM-12+038099999V0200201N00261002401CN0030001N9+00001-00111101501ADDAY121999GF108991081061002501999999MW1051
0056065900999991951013106004+49617+006200FM-12+038099999V0200201N00151002401CN0030001N9+00001+00001101361ADDAY121999GF108991081061002501999999KA1999N+00001MW1051
0043065900999991951013112004+49617+006200FM-12+038099999V0200501N00211002401CN0014001N9+00111+00001101471ADDAY171999GF108991081051002501999999MW1101
0056065900999991951013118004+49617+006200FM-12+038099999V0209991C00001007801CN0026001N9+00111+00001101721ADDAY121999GF108991081051008001999999KA1999M+00111MW1051
0043065900999991951020100004+49617+006200FM-12+038099999V0209991C00001012301CN0018001N9+00001-00111101951ADDAY121999GF108991071051012501999999MW1101
0056065900999991951020106004+49617+006200FM-12+038099999V0200201N00151012301CN0020001N9+00111+00001102121ADDAY121999GF108991071051012501999999KA1999N+00001MW1051
0043065900999991951020112004+49617+006200FM-12+038099999V0200501N00311004501CN0024001N9+00221+00111102341ADDAY151999GF108991061061004501999999MW1201
0056065900999991951020118004+49617+006200FM-12+038099999V0209991C00001007801CN0030001N9+00221+00001102411ADDAY121999GF108991081051008001999999KA1999M+00281MW1051
0043065900999991951020200004+49617+006200FM-12+038099999V0200501N00211220001CN0026001N9+00111+00001102451ADDAY121999GF100991001001999999001001MW1051
0056065900999991951020206004+49617+006200FM-12+038099999V0200201N00261007801CN0030001N9+00111+00001102391ADDAY121999GF108991081051008001999999KA1999N+00001MW1051
0043065900999991951020212004+49617+006200FM-12+038099999V0200501N00151002401CN0020001N9+00221+00111102261ADDAY121999GF108991081061002501999999MW1051
0056065900999991951020218004+49617+006200FM-12+038099999V0200501N00101004501CN0020001N9+00221+00001101971ADDAY121999GF108991081061004501999999KA1999M+00221MW1051
0043065900999991951020300004+49617+006200FM-12+038099999V0200901N00101007801CN0050001N9+00111-00221101591ADDAY121999GF108991071051008001999999MW1051
0056065900999991951020306004+49617+006200FM-12+038099999V0200701N00101004501CN0020001N9+00111-00111101141ADDAY171999GF108991081051004501999999KA1999N+00001MW1701
0043065900999991951020312004+49617+006200FM-12+038099999V0201401N00211002401CN0014001N9+00111+00001100811ADDAY171999GF108991071071002501999999MW1221
0056065900999991951020318004+49617+006200FM-12+038099999V0201401N00411007801CN0060001N9+00221-00111100461ADDAY121999GF108991071051008001999999KA1999M+00221MW1051
0043065900999991951020400004+49617+006200FM-12+038099999V0201801N00461001501CN0016001N9+00111+00001100191ADDAY171999GF108991081071001501999999MW1711
0056065900999991951020406004+49617+006200FM-12+038099999V0202001N00361001501CN0030001N9+00221+00221099821ADDAY171999GF108991081071001501999999KA1999N+00221MW1051
0043065900999991951020412004+49617+006200FM-12+038099999V0202001N00671004501CN0160001N9+00281+00221099221ADDAY161999GF107991071051004501999999MW1021
0056065900999991951020418004+49617+006200FM-12+038099999V0201801N009319999999N0160001N9+00611+00001098261ADDAY121999GF108991031051008001021999KA1999M+00611MW1021
0043065900999991951020500004+49617+006200FM-12+038099999V0202001N00821001501CN0090001N9+00391+00391098201ADDAY161999GF108991051071001501021999MW1631
0056065900999991951020506004+49617+006200FM-12+038099999V0201601N006219999999N0160001N9+00391+00221098341ADDAY161999GF108991041051004501021999KA1999N+00281MW1021
0043065900999991951020512004+49617+006200FM-12+038099999V0202001N006219999999N0200001N9+00391+00221098621ADDAY161999GF108991031021008001999999MW1021
0056065900999991951020518004+49617+006200FM-12+038099999V0201801N00511220001CN0200001N9+00281+00221098901ADDAY121999GF103991021011012501001061KA1999M+00611MW1011
0043065900999991951020600004+49617+006200FM-12+038099999V0202001N00671004501CN0080001N9+00221+00111099351ADDAY181999GF108991051081004501071999MW1841
0056065900999991951020606004+49617+006200FM-12+038099999V0202001N00511004501CN0120001N9+00221+00111099541ADDAY121999GF108991061081004501999999KA1999N+00111MW1021
0043065900999991951020612004+49617+006200FM-12+038099999V0202001N006719999999N0080001N9+00281+00001099711ADDAY181999GF107991031081004501999999MW1051
0056065900999991951020618004+49617+006200FM-12+038099999V0201601N00671007801CN0160001N9+00281-00111099821ADDAY121999GF105991051051008001001001KA1999M+00501MW1021
0043065900999991951020700004+49617+006200FM-12+038099999V0201801N00461220001CN0200001N9+00111+00001100271ADDAY181999GF103991031051008001001001MW1011
0056065900999991951020706004+49617+006200FM-12+038099999V0209991C00001220001CN0120001N9-00111-00221100561ADDAY141999GF101991011051012501001001KA1999N-00221MW1111
0043065900999991951020712004+49617+006200FM-12+038099999V0202001N006219999999N0200001N9+00391+00001100781ADDAY121999GF107991041081008001031999MW1021
0056065900999991951020718004+49617+006200FM-12+038099999V0202101N005119999999N0160001N9+00221+00111101001ADDAY171999GF107991041071004501999999KA1999M+00391MW1211
0043065900999991951020800004+49617+006200FM-12+038099999V0201801N00571220001CN0140001N9+00111+00001101041ADDAY121999GF102991021051008001001001MW1011
0056065900999991951020806004+49617+006200FM-12+038099999V0201801N00671220001CN0140001N9+00111-00111100791ADDAY121999GF108991001001999999071999KA1999N+00001MW1021
0043065900999991951020812004+49617+006200FM-12+038099999V0201801N00571001501CN0040001N9+00391+00281100601ADDAY161999GF108991081071001501999999MW1051
0056065900999991951020818004+49617+006200FM-12+038099999V0201601N00721004501CN0040001N9+00611+00391100381ADDAY161999GF108991081051004501999999KA1999M+00611MW1211
0043065900999991951020900004+49617+006200FM-12+038099999V0201701N00721220001CN0120001N9+00611+00501100331ADDAY151999GF107991001001999999021999MW1031
0056065900999991951020906004+49617+006200FM-12+038099999V0202001N00771220001CN0200001N9+00781+00391100381ADDAY121999GF108991001001999999071999KA1999N+00611MW1021
0043065900999991951020912004+49617+006200FM-12+038099999V0202301N005119999999N0200001N9+00721+00281100831ADDAY121999GF108991041051008001021999MW1021
0056065900999991951020918004+49617+006200FM-12+038099999V0209991C00001220001CN0050001N9+00391+00281101041ADDAY161999GF108991001001999999021999KA1999M+00781MW1611
0043065900999991951021000004+49617+006200FM-12+038099999V0209991C00001220001CN0050001N9+00221+00111101181ADDAY161999GF108991001001999999021999MW1631
0056065900999991951021006004+49617+006200FM-12+038099999V0200501N00151220001CN0080001N9+00221+00111101181ADDAY161999GF108991001001999999021999KA1999N+00221MW1051
0043065900999991951021012004+49617+006200FM-12+038099999V0200701N00051007801CN0120001N9+00391+00221101301ADDAY161999GF107991051021008001999999MW1011
0056065900999991951021018004+49617+006200FM-12+038099999V0200501N00511004501CN0100001N9+00281+00221101261ADDAY121999GF108991081051004501999999KA1999M+00391MW1021
0043065900999991951021100004+49617+006200FM-12+038099999V0200501N00571220001CN0070001N9+00221+00111101131ADDAY111999GF100991001001999999001001MW1051
0056065900999991951021106004+49617+006200FM-12+038099999V0200501N00621220001CN0070001N9+00281+00111100671ADDAY121999GF106991001001999999071999KA1999N+00111MW1051
0043065900999991951021112004+49617+006200FM-12+038099999V0201401N00411004501CN0020001N9+00391+00281100981ADDAY161999GF108991051071004501021999MW1631
0056065900999991951021118004+49617+006200FM-12+038099999V0201801N00621002401CN0080001N9+00391+00281101111ADDAY161999GF108991071071002501999999KA1999M+00391MW1051
0043065900999991951021200004+49617+006200FM-12+038099999V0201601N00151000601CN0140001N9+00281+00281101231ADDAY121999GF108991081061000751999999MW1021
0056065900999991951021206004+49617+006200FM-12+038099999V0201601N00151001501CN0080001N9+00281+00281101271ADDAY121999GF108991081061001501999999KA1999N+00281MW1051
0043065900999991951021212004+49617+006200FM-12+038099999V0201601N00361002401CN0040001N9+00281+00281100621ADDAY121999GF108991081061002501999999MW1051
0056065900999991951021218004+49617+006200FM-12+038099999V0201601N00151004501CN0200001N9+00501+00221100501ADDAY121999GF107991071051004501999999KA1999M+00611MW1021
0062065900999991951021300004+49617+006200FM-12+038099999V0200501N00311220001CN0080001N9+00391+00221101021ADDAY111999GF101991999001999999031001MW1051EQDQ01+000002SCOTLC
0056065900999991951021306004+49617+006200FM-12+038099999V0200501N00721007801CN0080001N9+00221+00111100521ADDAY111999GF106991061051008001999999KA1999N+00221MW1051
0043065900999991951021312004+49617+006200FM-12+038099999V0201601N00361002401CN0040001N9+00281+00281100621ADDAY121999GF108991081061002501999999MW1051
0056065900999991951021318004+49617+006200FM-12+038099999V0201601N00151004501CN0200001N9+00501+00221100501ADDAY121999GF107991071051004501999999KA1999M+00611MW1021
0043065900999991951021400004+49617+006200FM-12+038099999V0202001N00621004501CN0200001N9+00391+00221100551ADDAY161999GF108991071051004501999999MW1021
0056065900999991951021406004+49617+006200FM-12+038099999V0202101N00621004501CN0160001N9+00391+00221100521ADDAY161999GF108991051051004501999999KA1999N+00281MW1021
0043065900999991951021412004+49617+006200FM-12+038099999V0202301N00671004501CN0050001N9+00281+00221100791ADDAY161999GF108991061051004501999999MW1051
0056065900999991951021418004+49617+006200FM-12+038099999V0202301N00671004501CN0030001N9+00281+00221100991ADDAY121999GF108991071051004501999999KA1999M+00391MW1051
0043065900999991951021500004+49617+006200FM-12+038099999V0202301N00361007801CN0200001N9+00111+00111101181ADDAY121999GF108991081051008001999999MW1021
0056065900999991951021506004+49617+006200FM-12+038099999V0209991C00001004501CN0060001N9+00111+00111101261ADDAY181999GF107991071051004501999999KA1999N+00001MW1051
0043065900999991951021512004+49617+006200FM-12+038099999V0203201N002119999999N0120001N9+00281-00111101511ADDAY121999GF107991031021008001999999MW1021
0056065900999991951021518004+49617+006200FM-12+038099999V0202701N00101015001CN0160001N9+00221-00391101631ADDAY121999GF107991071051017501999999KA1999M+00281MW1021
0043065900999991951021600004+49617+006200FM-12+038099999V0209991C00001220001CN0120001N9-00111-00391101781ADDAY121999GF100991001001999999001001MW1001
0056065900999991951021606004+49617+006200FM-12+038099999V0201101N00101220001CN0120001N9-00111-00281101751ADDAY121999GF106991001001999999071999KA1999N-00221MW1031
0043065900999991951021612004+49617+006200FM-12+038099999V0201601N00461220001CN0050001N9+00281-00111101691ADDAY121999GF102991001001999999001061MW1051
0056065900999991951021618004+49617+006200FM-12+038099999V0201601N00571220001CN0060001N9+00221+00001101551ADDAY111999GF105991001001999999001061KA1999M+00501MW1051
0043065900999991951021700004+49617+006200FM-12+038099999V0201801N003119999999N0080001N9+00001+00001101581ADDAY111999GF105991031051008001031061MW1051
0056065900999991951021706004+49617+006200FM-12+038099999V0201801N00511000601CN0050001N9+00111+00111101361ADDAY161999GF108991081071000751999999KA1999N+00001MW1611
0043065900999991951021712004+49617+006200FM-12+038099999V0201701N00721004501CN0120001N9+00391+00281101021ADDAY161999GF108991081051004501999999MW1601
0056065900999991951021718004+49617+006200FM-12+038099999V0201901N00931001501CN0050001N9+00611+00611100271ADDAY161999GF108991061071001501999999KA1999M+00611MW1651
0043065900999991951021800004+49617+006200FM-12+038099999V0202901N00721004501CN0160001N9+00281+00111100691ADDAY161999GF108991071051004501999999MW1021
0056065900999991951021806004+49617+006200FM-12+038099999V0202701N00671220001CN0160001N9+00111-00281101101ADDAY121999GF102991021051008001001001KA1999N+00111MW1011
0043065900999991951021812004+49617+006200FM-12+038099999V0202301N00771220001CN0200001N9+00501-00281101291ADDAY111999GF103991031021012501001001MW1021
0056065900999991951021818004+49617+006200FM-12+038099999V0202301N005719999999N0200001N9+00281-00391101131ADDAY111999GF107991011051012501071061KA1999M+00611MW1021
0043065900999991951021900004+49617+006200FM-12+038099999V0201601N00361015001CN0140001N9+00111-00111100701ADDAY121999GF107991071051017501999999MW1021
0056065900999991951021906004+49617+006200FM-12+038099999V0201801N00571001501CN0060001N9+00111+00111100101ADDAY161999GF108991071071001501999999KA1999N+00111MW1601
0043065900999991951021912004+49617+006200FM-12+038099999V0202401N00981004501CN0140001N9+00391+00221099821ADDAY161999GF108991061051004501021999MW1611
0056065900999991951021918004+49617+006200FM-12+038099999V0202901N00571220001CN0160001N9+00221+00001100591ADDAY161999GF102991011081008001001031KA1999M+00501MW1021
0043065900999991951022000004+49617+006200FM-12+038099999V0202301N00261001501CN0060001N9+00111+00111100831ADDAY181999GF108991081071001501999999MW1021
0056065900999991951022006004+49617+006200FM-12+038099999V0202001N00461002401CN0120001N9+00221+00111100851ADDAY121999GF108991081071002501999999KA1999N+00001MW1021
0043065900999991951022012004+49617+006200FM-12+038099999V0201801N00721001501CN0040001N9+00281+00281100491ADDAY181999GF108991071071001501999999MW1601
0056065900999991951022018004+49617+006200FM-12+038099999V0201901N00871004501CN0200001N9+00611+00281099631ADDAY161999GF108991051021004501999999KA1999M+00721MW1811
0043065900999991951022100004+49617+006200FM-12+038099999V0202301N00871002401CN0080001N9+00391+00281099151ADDAY181999GF108991051071002501021999MW1651
0056065900999991951022106004+49617+006200FM-12+038099999V0202301N00671007801CN0160001N9+00221+00111099021ADDAY181999GF107991051031008001999999KA1999N+00111MW1261
0043065900999991951022112004+49617+006200FM-12+038099999V0202301N01131002401CN0120001N9+00221+00221099361ADDAY181999GF107991061081002501999999MW1261
0056065900999991951022118004+49617+006200FM-12+038099999V0202501N00621004501CN0160001N9+00281-00111099651ADDAY181999GF107991071081004501999999KA1999M+00391MW1031
0043065900999991951022200004+49617+006200FM-12+038099999V0202301N005719999999N0160001N9+00111+00001100061ADDAY181999GF108991031021004501999999MW1021
0056065900999991951022206004+49617+006200FM-12+038099999V0202501N006219999999N0080001N9+00111+00111100301ADDAY181999GF108991041021001501999999KA1999N+00001MW1051
0043065900999991951022212004+49617+006200FM-12+038099999V0202001N00671004501CN0160001N9+00281+00001100431ADDAY181999GF107991061051004501071061MW1031
0056065900999991951022218004+49617+006200FM-12+038099999V0202301N00821004501CN0160001N9+00111+00001100591ADDAY181999GF107991061031004501999999KA1999M+00281MW1261
0043065900999991951022300004+49617+006200FM-12+038099999V0203201N00621001501CN0060001N9+00001+00001100901ADDAY181999GF108991081071001501999999MW1261
0056065900999991951022306004+49617+006200FM-12+038099999V0202501N00671001501CN0060001N9+00111+00111101171ADDAY171999GF108991081071001501999999KA1999N+00001MW1051
0043065900999991951022312004+49617+006200FM-12+038099999V0202501N00461001501CN0140001N9+00111+00111101541ADDAY181999GF108991081071001501999999MW1261
0056065900999991951022318004+49617+006200FM-12+038099999V0202501N00571007801CN0200001N9+00221-00111101461ADDAY121999GF105991051051008001999999KA1999M+00281MW1021
0043065900999991951022400004+49617+006200FM-12+038099999V0202001N00361220001CN0160001N9+00001-00111101441ADDAY181999GF103991031051017501001001MW1021
0056065900999991951022406004+49617+006200FM-12+038099999V0209991C00001220001CN0090001N9-00111-00221101221ADDAY111999GF102991021051017501031001KA1999N-00111MW1051
0043065900999991951022412004+49617+006200FM-12+038099999V0201401N00261220001CN0120001N9+00501+00001100961ADDAY111999GF103991001001999999001061MW1021
0056065900999991951022418004+49617+006200FM-12+038099999V0209991C000019999999N0090001N9+00391-00281100791ADDAY121999GF107991041081008001001061KA1999M+00721MW1051
0043065900999991951022500004+49617+006200FM-12+038099999V0209991C00001220001CN0100001N9+00221-00221100861ADDAY111999GF104991041051012501001001MW1021
0056065900999991951022506004+49617+006200FM-12+038099999V0209991C00001220001CN0060001N9-00111-00221100921ADDAY111999GF103991011051012501001061KA1999N-00111MW1051
0043065900999991951022512004+49617+006200FM-12+038099999V0202001N002619999999N0120001N9+00501+00001101021ADDAY111999GF105991031021012501001061MW1031
0056065900999991951022518004+49617+006200FM-12+038099999V0209991C00001220001CN0150001N9+00281-00221101131ADDAY181999GF104991031021012501031001KA1999M+00721MW1011
0043065900999991951022600004+49617+006200FM-12+038099999V0200201N00261220001CN0120001N9+00001-00281101271ADDAY111999GF100991001001999999001001MW1001
0056065900999991951022606004+49617+006200FM-12+038099999V0203201N00311220001CN0030001N9-00221-00221101401ADDAY111999GF103991001001999999031061KA1999N-00281MW1051
0043065900999991951022612004+49617+006200FM-12+038099999V0203401N003119999999N0030001N9+00221-00111101501ADDAY181999GF107991041081004501999999MW1051
0075065900999991951022618004+49617+006200FM-12+038099999V0203201N00311220001CN0080001N9+00001-00111101491ADDAY181999GF103991999081008001001001KA1999M+00391MW1261EQDQ01+000022SCOTLC
0043065900999991951022700004+49617+006200FM-12+038099999V0209991C000019999999N0024001N9-00221-00221101491ADDAY181999GF107991041051004501071999MW1051
0056065900999991951022706004+49617+006200FM-12+038099999V0200901N00051000151CN0002001N9-00221-00221101421ADDAY171999GF109991091999000251999999KA1999N-00221MW1451
0043065900999991951022712004+49617+006200FM-12+038099999V0200501N00151004501CN0060001N9-00111-00221101591ADDAY141999GF107991071051004501999999MW1051
0056065900999991951022718004+49617+006200FM-12+038099999V0203601N00311012301CN0060001N9-00111-00281101791ADDAY121999GF106991051051012501999999KA1999M+00001MW1051
0043065900999991951022800004+49617+006200FM-12+038099999V0203601N00511220001CN0060001N9-00221-00281102051ADDAY171999GF100991001001999999001001MW1051
0056065900999991951022806004+49617+006200FM-12+038099999V0203601N00461004501CN0060001N9-00221-00281102351ADDAY121999GF107991071051004501999999KA1999N-00281MW1051
0043065900999991951022812004+49617+006200FM-12+038099999V0200201N00361220001CN0060001N9+00111-00221102621ADDAY111999GF104991041081008001001001MW1051
0056065900999991951022818004+49617+006200FM-12+038099999V0200201N00211007801CN0040001N9+00001-00221102671ADDAY121999GF108991071051008001999999KA1999M+00221MW1051
0043065900999991951030100004+49617+006200FM-12+038099999V0200501N00261220001CN0090001N9-00221-00501102931ADDAY121999GF102991021051012501001001MW1051
0056065900999991951030106004+49617+006200FM-12+038099999V0203501N00101220001CN0060001N9-00281-00501102901ADDAY121999GF102991021051012501001001KA1999N-00281MW1051
0043065900999991951030112004+49617+006200FM-12+038099999V0203601N00571012301CN0160001N9+00001-00611102891ADDAY111999GF105991051031012501001001MW1021
0056065900999991951030118004+49617+006200FM-12+038099999V0203201N00101220001CN0060001N9+00001-00501102711ADDAY121999GF107991001001999999071999KA1999M+00221MW1051
0043065900999991951030200004+49617+006200FM-12+038099999V0209991C000019999999N0030001N9-00111-00111102491ADDAY171999GF108991031061002501021999MW1771
0056065900999991951030206004+49617+006200FM-12+038099999V0202301N00361000601CN0016001N9-00111-00111102141ADDAY171999GF108991081071000751999999KA1999N-00111MW1711
0043065900999991951030212004+49617+006200FM-12+038099999V0201001N00051000151CN0002001N9-00111-00111102061ADDAY171999GF109991091999000251999999MW1711
0056065900999991951030218004+49617+006200FM-12+038099999V0200201N00511001501CN0020001N9-00111-00111102031ADDAY171999GF108991081071001501999999KA1999M+00001MW1711
0043065900999991951030300004+49617+006200FM-12+038099999V0200601N00571004501CN0070001N9-00221-00221102261ADDAY171999GF108991081001004501021999MW1221
0056065900999991951030306004+49617+006200FM-12+038099999V0200501N00671220001CN0060001N9-00611-00721102461ADDAY101999GF100991001001999999001001KA1999N-00611MW1051
0043065900999991951030312004+49617+006200FM-12+038099999V0200501N007719999999N0060001N9-00221-00501102511ADDAY121999GF106991021051008001001061MW1051
0056065900999991951030318004+49617+006200FM-12+038099999V0200501N00931004501CN0060001N9-00281-00611102471ADDAY121999GF108991081051004501999999KA1999M-00221MW1051
0043065900999991951030400004+49617+006200FM-12+038099999V0200701N00511004501CN0080001N9-00391-00721102621ADDAY121999GF108991081051004501999999MW1051
0056065900999991951030406004+49617+006200FM-12+038099999V0200501N00511220001CN0070001N9-00721-00891102581ADDAY121999GF108991001001999999001051KA1999N-00781MW1051
0043065900999991951030412004+49617+006200FM-12+038099999V0200201N00461220001CN0080001N9-00221-00721102451ADDAY101999GF101991001001999999001051MW1051
0056065900999991951030418004+49617+006200FM-12+038099999V0200201N00461220001CN0070001N9-00111-00611102231ADDAY101999GF102991001001999999001061KA1999M+00001MW1051
0043065900999991951030500004+49617+006200FM-12+038099999V0201401N00411220001CN0080001N9-00391-00781102171ADDAY101999GF100991001001999999001001MW1051
0056065900999991951030506004+49617+006200FM-12+038099999V0200201N00101220001CN0060001N9-00781-01111102111ADDAY101999GF101991001001999999001051KA1999N-00781MW1051
0043065900999991951030512004+49617+006200FM-12+038099999V0209991C00001220001CN0060001N9+00221-00891101941ADDAY101999GF102991001001999999001061MW1051
0056065900999991951030518004+49617+006200FM-12+038099999V0209991C00001220001CN0060001N9+00221-00501101721ADDAY101999GF101991001001999999001051KA1999M+00721MW1051
0043065900999991951030600004+49617+006200FM-12+038099999V0203601N00051220001CN0070001N9+00001-00721101701ADDAY101999GF100991001001999999001001MW1051
0056065900999991951030606004+49617+006200FM-12+038099999V0200201N00151220001CN0040001N9-00221-00721101531ADDAY101999GF101991001001999999001051KA1999N-00391MW1051
0043065900999991951030612004+49617+006200FM-12+038099999V0202201N00101220001CN0040001N9+00611-00611101361ADDAY101999GF101991001001999999001051MW1051
0056065900999991951030618004+49617+006200FM-12+038099999V0201401N00051220001CN0040001N9+00391-00611101141ADDAY101999GF101991001001999999001051KA1999M+00781MW1051
0043065900999991951030700004+49617+006200FM-12+038099999V0209991C00001220001CN0060001N9+00111-00781101031ADDAY101999GF100991001001999999001001MW1051
0056065900999991951030706004+49617+006200FM-12+038099999V0200201N00361220001CN0060001N9+00001-00501100731ADDAY101999GF100991001001999999001001KA1999N-00221MW1051
0043065900999991951030712004+49617+006200FM-12+038099999V0200701N00511220001CN0080001N9+00611-00781100311ADDAY101999GF101991001001999999001051MW1051
0056065900999991951030718004+49617+006200FM-12+038099999V0200901N00621220001CN0120001N9+00501-00501100021ADDAY111999GF106991001001999999031061KA1999M+00891MW1021
0043065900999991951030800004+49617+006200FM-12+038099999V0200501N00461220001CN0120001N9+00391-00501099891ADDAY121999GF108991001001999999001071MW1021
0056065900999991951030806004+49617+006200FM-12+038099999V0200701N00411004501CN0070001N9+00111-00221099761ADDAY121999GF108991071051004501999999KA1999N+00111MW1051
0043065900999991951030812004+49617+006200FM-12+038099999V0200501N00511002401CN0026001N9+00221+00001099551ADDAY121999GF108991081051002501999999MW1051
0056065900999991951030818004+49617+006200FM-12+038099999V0200301N00871002401CN0024001N9+00221+00001099271ADDAY121999GF108991081061002501999999KA1999M+00221MW1051
0043065900999991951030900004+49617+006200FM-12+038099999V0200501N00671001501CN0030001N9+00111+00001099461ADDAY151999GF108991081071001501999999MW1601
0056065900999991951030906004+49617+006200FM-12+038099999V0200701N00621000601CN0040001N9+00001+00001099531ADDAY161999GF108991081071000751999999KA1999N+00001MW1611
0043065900999991951030912004+49617+006200FM-12+038099999V0200601N00461000151CN0012001N9+00001-00111099781ADDAY171999GF108991081061000251999999MW1501
0056065900999991951030918004+49617+006200FM-12+038099999V0200601N00411000151CN0012001N9-00111-00111099891ADDAY171999GF108991081061000251999999KA1999M-00111MW1101
0043065900999991951031000004+49617+006200FM-12+038099999V0200501N00101000151CN0012001N9-00111-00111100031ADDAY141999GF108991081061000251999999MW1281
0056065900999991951031006004+49617+006200FM-12+038099999V0201401N00101000151CN0002001N9-00111-00111100141ADDAY141999GF109991091999000251999999KA1999N-00111MW1471
0043065900999991951031012004+49617+006200FM-12+038099999V0201601N00211000151CN0004001N9+00221+00221100311ADDAY141999GF109991091999000251999999MW1431
0056065900999991951031018004+49617+006200FM-12+038099999V0201401N00101004501CN0020001N9+00391+00111100181ADDAY121999GF108991071051004501999999KA1999M+00391MW1051
0043065900999991951031100004+49617+006200FM-12+038099999V0201101N00311015001CN0040001N9+00281+00111100051ADDAY121999GF108991081051017501999999MW1051
0056065900999991951031106004+49617+006200FM-12+038099999V0201101N00411220001CN0060001N9+00111-00221099751ADDAY111999GF105991001001999999031051KA1999N+00111MW1051
0043065900999991951031112004+49617+006200FM-12+038099999V0201401N004619999999N0060001N9+00391+00111099531ADDAY161999GF108991041051008001021999MW1601
0056065900999991951031118004+49617+006200FM-12+038099999V0201401N00511004501CN0050001N9+00281+00281099251ADDAY161999GF108991061051004501021999KA1999M+00501MW1611
0043065900999991951031200004+49617+006200FM-12+038099999V0201601N01031002401CN0200001N9+00501+00501099321ADDAY161999GF108991081071002501999999MW1021
0056065900999991951031206004+49617+006200FM-12+038099999V0202001N01081004501CN0200001N9+00391+00221099891ADDAY121999GF108991071051004501999999KA1999N+00281MW1021
0062065900999991951031212004+49617+006200FM-12+038099999V0202001N007219999999N0200001N9+00611+00001100271ADDAY181999GF105991999021008001001001MW1011EQDQ01+000032SCOTLC
0056065900999991951031218004+49617+006200FM-12+038099999V0201601N00511015001CN0200001N9+00721+00001100231ADDAY121999GF106991061051017501999999KA1999M+00891MW1021
0043065900999991951031300004+49617+006200FM-12+038099999V0201401N00311220001CN0160001N9+00391+00001100271ADDAY121999GF107991001001999999071999MW1031
0056065900999991951031306004+49617+006200FM-12+038099999V0201401N00261012301CN0160001N9+00391-00111100011ADDAY121999GF107991071051012501999999KA1999N+00281MW1031
0043065900999991951031312004+49617+006200FM-12+038099999V0201601N006719999999N0160001N9+01111+00391099461ADDAY121999GF106991031021012501001061MW1031
0056065900999991951031318004+49617+006200FM-12+038099999V0201601N00821004501CN0080001N9+00891+00781099031ADDAY161999GF108991081071004501999999KA1999M+01281MW1631
0043065900999991951031400004+49617+006200FM-12+038099999V0202001N00721015001CN0200001N9+00611+00281099461ADDAY191999GF108991051051017501071999MW1021
0056065900999991951031406004+49617+006200FM-12+038099999V0202001N00821004501CN0200001N9+00501+00221099821ADDAY121999GF107991071021004501999999KA1999N+00391MW1001
0043065900999991951031412004+49617+006200FM-12+038099999V0202201N011819999999N0200001N9+00781+00111100061ADDAY181999GF107991031081004501001061MW1251
0056065900999991951031418004+49617+006200FM-12+038099999V0202201N00821220001CN0200001N9+00611+00221100391ADDAY181999GF101991011031008001001001KA1999M+00891MW1011
0043065900999991951031500004+49617+006200FM-12+038099999V0202301N00721220001CN0200001N9+00281+00221100821ADDAY181999GF101991011051008001001001MW1011
0056065900999991951031506004+49617+006200FM-12+038099999V0202301N00771004501CN0160001N9+00391+00221101091ADDAY121999GF107991061081004501999999KA1999N+00281MW1021
0043065900999991951031512004+49617+006200FM-12+038099999V0202701N006719999999N0200001N9+00611+00111101231ADDAY111999GF106991041081012501001061MW1021
0056065900999991951031518004+49617+006200FM-12+038099999V0202501N00211220001CN0200001N9+00721+00001101311ADDAY111999GF104991011051012501001061KA1999M+00891MW1021
0043065900999991951031600004+49617+006200FM-12+038099999V0203601N00051220001CN0160001N9+00281+00001101581ADDAY101999GF100991001001999999001001MW1001
0043065900999991951031612004+49617+006200FM-12+038099999V0201601N00571220001CN0060001N9+01221+00501101611ADDAY111999GF104991021011008001001061MW1051
0043065900999991951031700004+49617+006200FM-12+038099999V0201801N00571000601CN0008001N9+00891+00891100701ADDAY161999GF108991081071000751999999MW1651
0056065900999991951031706004+49617+006200FM-12+038099999V0202301N00461001501CN0020001N9+01111+01111100511ADDAY161999GF108991081071001501999999KA1999N+00891MW1611
0043065900999991951031712004+49617+006200FM-12+038099999V0202301N00671001501CN0044001N9+01221+01111100781ADDAY161999GF108991071071001501999999MW1621
0056065900999991951031718004+49617+006200FM-12+038099999V0202001N006219999999N0160001N9+01281+01111100511ADDAY181999GF107991041031008001031051KA1999M+01391MW1151
0062065900999991951031800004+49617+006200FM-12+038099999V0201601N002119999999N0160001N9+00781+00781100351ADDAY191999GF105991999081008001001001MW1021EQDQ01+000032SCOTLC
0056065900999991951031806004+49617+006200FM-12+038099999V0202501N00871002401CN0050001N9+01111+00891100011ADDAY181999GF108991071071002501999999KA1999N+00891MW1811
0043065900999991951031812004+49617+006200FM-12+038099999V0202301N00771004501CN0200001N9+00781+00221100461ADDAY181999GF107991071081004501999999MW1021
0075065900999991951031818004+49617+006200FM-12+038099999V0202301N007719999999N0200001N9+00721+00501100451ADDAY181999GF105991999031004501001001KA1999M+01111MW1251EQDQ01+000022SCOTLC
0043065900999991951031900004+49617+006200FM-12+038099999V0202301N00931004501CN0200001N9+00611+00611100601ADDAY181999GF105991051081004501001001MW1021
0056065900999991951031906004+49617+006200FM-12+038099999V0202301N00821001501CN0100001N9+00611+00501100291ADDAY161999GF108991061071001501021999KA1999N+00501MW1611
0043065900999991951031912004+49617+006200FM-12+038099999V0202101N011819999999N0200001N9+00781+00611099871ADDAY181999GF108991041031004501011999MW1251
0056065900999991951031918004+49617+006200FM-12+038099999V0202501N00771004501CN0080001N9+00501+00281100221ADDAY181999GF108991061031004501999999KA1999M+00891MW1251
0043065900999991951032000004+49617+006200FM-12+038099999V0202701N004619999999N0120001N9+00221+00111100661ADDAY181999GF108991031071004501021999MW1621
0056065900999991951032006004+49617+006200FM-12+038099999V0203401N00311004501CN0060001N9+00221+00001101221ADDAY161999GF107991071081004501999999KA1999N+00221MW1051
0043065900999991951032012004+49617+006200FM-12+038099999V0203401N00411007801CN0200001N9+00391-00611101711ADDAY121999GF107991071051008001999999MW1031
0056065900999991951032018004+49617+006200FM-12+038099999V0203101N00571220001CN0200001N9+00281-00501101841ADDAY121999GF104991031051008001001051KA1999M+00501MW1021
0043065900999991951032100004+49617+006200FM-12+038099999V0202901N00151220001CN0200001N9-00221-00391102301ADDAY101999GF100991001001999999001001MW1001
0043065900999991951032106004+49617+006200FM-12+038099999V0203401N00411220001CN0200001N9-00221-00611102701ADDAY111999GF101991011011008001001001MW1021
0043065900999991951032112004+49617+006200FM-12+038099999V0200201N00361220001CN0200001N9+00281-00781103031ADDAY101999GF101991011011008001001001MW1021
0056065900999991951032118004+49617+006200FM-12+038099999V0209991C00001220001CN0200001N9+00281-00611103031ADDAY101999GF103991001001999999001051KA1999M+00611MW1031
0043065900999991951032200004+49617+006200FM-12+038099999V0201801N00461220001CN0160001N9+00111-00781103061ADDAY121999GF108991001001999999001071MW1021
0056065900999991951032206004+49617+006200FM-12+038099999V0201801N00151007801CN0140001N9+00001-00721102701ADDAY121999GF107991071051008001999999KA1999N+00001MW1021
0043065900999991951032212004+49617+006200FM-12+038099999V0202001N00721004501CN0060001N9+00391-00391102311ADDAY171999GF108991081051004501999999MW1221
0056065900999991951032218004+49617+006200FM-12+038099999V0202301N00771004501CN0120001N9+00221+00111101941ADDAY151999GF108991081051004501999999KA1999M+00391MW1201
0043065900999991951032300004+49617+006200FM-12+038099999V0202301N00821004501CN0120001N9+00721+00611101571ADDAY121999GF108991081051004501999999MW1021
0056065900999991951032306004+49617+006200FM-12+038099999V0202501N00671002401CN0080001N9+00721+00611101421ADDAY181999GF108991071051002501999999KA1999N+00221MW1251
0043065900999991951032312004+49617+006200FM-12+038099999V0202301N00981004501CN0200001N9+00781+00391101171ADDAY161999GF108991071051004501999999MW1021
0056065900999991951032318004+49617+006200FM-12+038099999V0202301N006219999999N0200001N9+00891+00721100341ADDAY121999GF105991011051008001001061KA1999M+01001MW1011
0043065900999991951032400004+49617+006200FM-12+038099999V0202001N00981004501CN0120001N9+00781+00611100071ADDAY161999GF108991071051004501999999MW1601
0056065900999991951032406004+49617+006200FM-12+038099999V0202901N00571007801CN0140001N9+00281+00001100511ADDAY161999GF107991071051008001999999KA1999N+00281MW1021
0043065900999991951032412004+49617+006200FM-12+038099999V0203101N00671007801CN0160001N9+00391-00111100991ADDAY181999GF107991051081008001999999MW1021
0056065900999991951032418004+49617+006200FM-12+038099999V0203101N004619999999N0200001N9+00221-00281101171ADDAY181999GF105991031081008001031001KA1999M+00501MW1261
0043065900999991951032500004+49617+006200FM-12+038099999V0202701N005119999999N0200001N9-00221-00221101211ADDAY171999GF106991031051008001071999MW1221
0043065900999991951032512004+49617+006200FM-12+038099999V0203201N00671007801CN0200001N9+00111-00501101501ADDAY111999GF105991051081008001001001MW1021
0043065900999991951032600004+49617+006200FM-12+038099999V0203101N00361220001CN0200001N9-00111-00281101701ADDAY111999GF100991001001999999001001MW1001
0056065900999991951032606004+49617+006200FM-12+038099999V0202501N00821000601CN0012001N9-00111-00501101251ADDAY171999GF108991081071000751999999KA1999N-00221MW1701
0043065900999991951032612004+49617+006200FM-12+038099999V0202301N00671002401CN0030001N9+00111+00001101031ADDAY171999GF108991081061002501999999MW1681
0056065900999991951032618004+49617+006200FM-12+038099999V0202301N00511002401CN0050001N9+00281+00281100981ADDAY161999GF108991061071002501021999KA1999M+00391MW1611
0043065900999991951032700004+49617+006200FM-12+038099999V0202301N00981002401CN0140001N9+00501+00391100641ADDAY161999GF108991071071002501999999MW1611
0043065900999991951032712004+49617+006200FM-12+038099999V0202301N00771004501CN0150001N9+00501+00391100391ADDAY181999GF107991071021004501999999MW1251
0043065900999991951032800004+49617+006200FM-12+038099999V0203401N00151220001CN0200001N9+00001-00111100991ADDAY111999GF102991021051008001001001MW1021
0075065900999991951032806004+49617+006200FM-12+038099999V0202701N00211007801CN0060001N9-00111-00221101211ADDAY111999GF106991999051008001001001KA1999N-00221MW1051EQDQ01+000052SCOTLC
0043065900999991951032812004+49617+006200FM-12+038099999V0202501N00721007801CN0140001N9+00281-00391101191ADDAY111999GF106991061081008001001001MW1021
0056065900999991951032818004+49617+006200FM-12+038099999V0203201N00511220001CN0140001N9+00221-00391101041ADDAY181999GF104991031091008001001031KA1999M+00501MW1261
0043065900999991951032900004+49617+006200FM-12+038099999V0209991C00001220001CN0080001N9-00221-00221101141ADDAY121999GF100991001001999999001001MW1051
0056065900999991951032906004+49617+006200FM-12+038099999V0202401N00051000151CN0000001N9-00281-00281101001ADDAY141999GF109991091999000251999999KA1999N-00281MW1491
0043065900999991951032912004+49617+006200FM-12+038099999V0201101N00311004501CN0060001N9+00111+00111100771ADDAY141999GF106991051021004501031061MW1051
0056065900999991951032918004+49617+006200FM-12+038099999V0201801N00571012301CN0160001N9+00221-00281100521ADDAY181999GF106991061081012501001011KA1999M+00281MW1021
0062065900999991951033000004+49617+006200FM-12+038099999V0200901N00261220001CN0100001N9-00111+99999100391ADDAY111999GF100991001001999999001001MW1001EQDQ01+027532ATOD  
0056065900999991951033006004+49617+006200FM-12+038099999V0200501N003619999999N0090001N9-00111-00391100271ADDAY111999GF106991021051012501031061KA1999N-00221MW1051
0043065900999991951033012004+49617+006200FM-12+038099999V0200901N003619999999N0060001N9+00281-00221100231ADDAY121999GF108991041051008001041999MW1051
0056065900999991951033018004+49617+006200FM-12+038099999V0201601N00361220001CN0060001N9+00391+00001100291ADDAY121999GF108991001001999999071071KA1999M+00611MW1051
0043065900999991951033100004+49617+006200FM-12+038099999V0203601N00261007801CN0120001N9+00281+00001100511ADDAY161999GF108991061051008001021999MW1601
0056065900999991951033106004+49617+006200FM-12+038099999V0200501N00101007801CN0030001N9+00221+00001100731ADDAY161999GF108991081051008001999999KA1999N+00111MW1051
0043065900999991951033112004+49617+006200FM-12+038099999V0203201N00461004501CN0040001N9+00221+00111101321ADDAY171999GF108991081051004501999999MW1221
0056065900999991951033118004+49617+006200FM-12+038099999V0202501N00511220001CN0160001N9+00281-00391101361ADDAY121999GF104991011021012501031061KA1999M+00391MW1011
0043065900999991951040100004+49617+006200FM-12+038099999V0202301N00821004501CN0120001N9+00221-00221101401ADDAY111999GF108991081051004501999999MW1021
0056065900999991951040106004+49617+006200FM-12+038099999V0202001N00671001501CN0050001N9+00221+00221101301ADDAY161999GF108991081071001501999999KA1999N+00001MW1611
0043065900999991951040112004+49617+006200FM-12+038099999V0202301N00821004501CN0160001N9+00501+00281101171ADDAY161999GF108991071051004501999999MW1601
0056065900999991951040118004+49617+006200FM-12+038099999V0202301N00821004501CN0160001N9+00721+00501100851ADDAY181999GF108991081081004501999999KA1999M+00721MW1801
0043065900999991951040200004+49617+006200FM-12+038099999V0202001N00361004501CN0200001N9+00391+00391101041ADDAY181999GF108991071061004501999999MW1021
0056065900999991951040206004+49617+006200FM-12+038099999V0202001N00671004501CN0120001N9+00391+00281101041ADDAY181999GF107991051021004501999999KA1999N+00221MW1801
0043065900999991951040212004+49617+006200FM-12+038099999V0202301N008719999999N0200001N9+00721+00221101141ADDAY181999GF106991041091008001031061MW1021
0056065900999991951040218004+49617+006200FM-12+038099999V0202101N00511220001CN0200001N9+00611+00221101291ADDAY181999GF103991021091008001031031KA1999M+00781MW1021
0043065900999991951040300004+49617+006200FM-12+038099999V0202701N00151220001CN0160001N9+00221+00221101721ADDAY181999GF102991021051017501001001MW1011
0056065900999991951040306004+49617+006200FM-12+038099999V0202301N00101004501CN0020001N9+00221+00111101951ADDAY121999GF108991081061004501999999KA1999N+00111MW1101
0043065900999991951040312004+49617+006200FM-12+038099999V0202301N00461004501CN0080001N9+00611+00111102231ADDAY121999GF106991051081004501999999MW1051
0056065900999991951040318004+49617+006200FM-12+038099999V0202701N00511220001CN0120001N9+00721-00221102311ADDAY181999GF103991021051012501001051KA1999M+00891MW1021
0043065900999991951040400004+49617+006200FM-12+038099999V0202501N00211220001CN0120001N9+00281+00111102581ADDAY101999GF100991001001999999001001MW1001
0056065900999991951040406004+49617+006200FM-12+038099999V0201601N00151220001CN0012001N9+00001+00001102511ADDAY101999GF101991011051012501001051KA1999N+00001MW1101
0043065900999991951040412004+49617+006200FM-12+038099999V0201801N008219999999N0200001N9+00781-00111102191ADDAY111999GF199999999081012501001001MW1021
0056065900999991951040418004+49617+006200FM-12+038099999V0202301N007219999999N0200001N9+00781+00111101871ADDAY121999GF107991011051017501001061KA1999M+01001MW1021
0043065900999991951040500004+49617+006200FM-12+038099999V0202301N00771001501CN0080001N9+00611+00501101941ADDAY151999GF108991081071001501999999MW1501
0056065900999991951040506004+49617+006200FM-12+038099999V0202701N00211001501CN0030001N9+00501+00501101981ADDAY161999GF108991081061001501999999KA1999N+00501MW1281
0043065900999991951040512004+49617+006200FM-12+038099999V0202501N00311220001CN0160001N9+01111+00111102051ADDAY121999GF103991011011017501001061MW1021
0056065900999991951040518004+49617+006200FM-12+038099999V0202501N00211220001CN0160001N9+01111-00111101981ADDAY111999GF101991011011017501001021KA1999M+01281MW1021
0043065900999991951040600004+49617+006200FM-12+038099999V0209991C00001220001CN0200001N9+00501-00111102101ADDAY101999GF100991001001999999001001MW1001
0056065900999991951040606004+49617+006200FM-12+038099999V0209991C00001220001CN0060001N9+00221+00001102031ADDAY101999GF102991001001999999001051KA1999N+00221MW1051
0043065900999991951040612004+49617+006200FM-12+038099999V0202001N00621007801CN0200001N9+01001+00501101651ADDAY121999GF107991051051008001031999MW1021
0056065900999991951040618004+49617+006200FM-12+038099999V0202301N00571007801CN0160001N9+01001+00721101391ADDAY161999GF107991051051008001999999KA1999M+01221MW1211
0043065900999991951040700004+49617+006200FM-12+038099999V0202001N005719999999N0160001N9+01001+00781101061ADDAY181999GF108991041021008001999999MW1801
0056065900999991951040706004+49617+006200FM-12+038099999V0201801N007719999999N0200001N9+00891+00721100591ADDAY121999GF108991031021004501999999KA1999N+00891MW1021
0043065900999991951040712004+49617+006200FM-12+038099999V0202701N00571002401CN0050001N9+00721+00611100351ADDAY161999GF108991051071002501999999MW1651
0056065900999991951040718004+49617+006200FM-12+038099999V0202001N006219999999N0200001N9+00721+00501100241ADDAY161999GF107991021081004501031061KA1999M+01001MW1021
0062065900999991951040800004+49617+006200FM-12+038099999V0202301N00621220001CN0160001N9+00281+00001100601ADDAY121999GF104991999081004501001001MW1011EQDQ01+000012SCOTLC
0043065900999991951040812004+49617+006200FM-12+038099999V0202301N00821004501CN0160001N9+00391+00221100731ADDAY181999GF107991061081004501999999MW1251
0043065900999991951040900004+49617+006200FM-12+038099999V0201901N00461015001CN0200001N9+00221+00221100921ADDAY181999GF108991081051017501999999MW1031
0056065900999991951040906004+49617+006200FM-12+038099999V0201801N00771001501CN0060001N9+00281+00281100431ADDAY161999GF108991071071001501999999KA1999N+00221MW1631
0043065900999991951040912004+49617+006200FM-12+038099999V0201801N00981001501CN0060001N9+00501+00501099871ADDAY161999GF108991071071001501999999MW1611
0056065900999991951040918004+49617+006200FM-12+038099999V0202301N00671004501CN0200001N9+00281+00221099821ADDAY181999GF106991061031004501999999KA1999M+00611MW1251
0043065900999991951041000004+49617+006200FM-12+038099999V0202301N01031004501CN0200001N9+00281+00111100101ADDAY181999GF108991071051004501999999MW1251
0056065900999991951041006004+49617+006200FM-12+038099999V0202301N00931004501CN0060001N9+00281+00111100371ADDAY181999GF107991071051004501999999KA1999N+00221MW1051
0043065900999991951041012004+49617+006200FM-12+038099999V0202701N00721007801CN0160001N9+00611-00111100691ADDAY121999GF106991061081008001001001MW1021
0056065900999991951041018004+49617+006200FM-12+038099999V0202501N00511220001CN0160001N9+00501-00111101031ADDAY181999GF104991041081008001001001KA1999M+00721MW1021
0043065900999991951041100004+49617+006200FM-12+038099999V0202701N00101220001CN0080001N9+00001-00111101441ADDAY101999GF101991011051012501001001MW1051
0056065900999991951041106004+49617+006200FM-12+038099999V0209991C00001220001CN0060001N9+00001-00111101661ADDAY111999GF103991031051008001001001KA1999N-00111MW1051
0043065900999991951041112004+49617+006200FM-12+038099999V0209991C000019999999N0200001N9+00501-00391101791ADDAY111999GF105991041081008001031001MW1021
0075065900999991951041118004+49617+006200FM-12+038099999V0203201N003119999999N0200001N9+00501-00111101871ADDAY111999GF106991999051004501001001KA1999M+00781MW1021EQDQ01+000042SCOTLC
0043065900999991951041200004+49617+006200FM-12+038099999V0209991C00001220001CN0080001N9-00111-00221102241ADDAY121999GF100991001001999999001001MW1051
0056065900999991951041206004+49617+006200FM-12+038099999V0201801N00101220001CN0050001N9-00111-00221102231ADDAY101999GF101991011051012501001001KA1999N-00221MW1051
0043065900999991951041212004+49617+006200FM-12+038099999V0202101N00621007801CN0200001N9+00721-00221102011ADDAY111999GF105991051051008001001001MW1021
0056065900999991951041218004+49617+006200FM-12+038099999V0202301N00571012301CN0200001N9+00781+00001101821ADDAY121999GF107991071051012501999999KA1999M+01001MW1021
0043065900999991951041300004+49617+006200FM-12+038099999V0202301N00461220001CN0160001N9+00611+00001101701ADDAY121999GF107991001001999999071999MW1021
0056065900999991951041306004+49617+006200FM-12+038099999V0202301N007219999999N0200001N9+00611+00221101431ADDAY121999GF108991031051017501071999KA1999N+00611MW1021
0043065900999991951041312004+49617+006200FM-12+038099999V0202301N01031007801CN0200001N9+00781+00221101181ADDAY121999GF107991061051008001999999MW1021
0056065900999991951041318004+49617+006200FM-12+038099999V0202301N00311007801CN0160001N9+00501+00281101261ADDAY181999GF106991061031008001999999KA1999M+00781MW1251
0043065900999991951041400004+49617+006200FM-12+038099999V0202301N00211220001CN0200001N9+00281+00221101351ADDAY181999GF101991011051012501001001MW1251
0056065900999991951041406004+49617+006200FM-12+038099999V0202301N00461220001CN0160001N9+00221+00001101581ADDAY111999GF102991021051008001001001KA1999N+00221MW1021
0043065900999991951041412004+49617+006200FM-12+038099999V0202701N00821012301CN0200001N9+00501-00281101821ADDAY181999GF105991051081012501001001MW1021
0056065900999991951041418004+49617+006200FM-12+038099999V0202901N005719999999N0200001N9+00281-00221102181ADDAY181999GF105991041031008001999999KA1999M+00721MW1021
0043065900999991951041500004+49617+006200FM-12+038099999V0202701N00411007801CN0120001N9+00111+00001102571ADDAY181999GF106991051031008001999999MW1251
0056065900999991951041506004+49617+006200FM-12+038099999V0202701N00151220001CN0060001N9-00111-00221102831ADDAY111999GF100991001001999999001001KA1999N-00111MW1051
0043065900999991951041512004+49617+006200FM-12+038099999V0202701N00101220001CN0160001N9+00721-00391102831ADDAY111999GF103991031011012501001001MW1021
0056065900999991951041518004+49617+006200FM-12+038099999V0202301N00211220001CN0200001N9+00781-00281102611ADDAY101999GF102991001001999999001061KA1999M+00891MW1021
0043065900999991951041600004+49617+006200FM-12+038099999V0209991C00001220001CN0080001N9+00281-00111102471ADDAY101999GF100991001001999999001001MW1051
0056065900999991951041606004+49617+006200FM-12+038099999V0209991C00001220001CN0060001N9+00001-00281102381ADDAY101999GF102991001001999999001061KA1999N+00001MW1051
0043065900999991951041612004+49617+006200FM-12+038099999V0202101N00621220001CN0200001N9+01281-00781101891ADDAY111999GF101991001001999999001061MW1011
0056065900999991951041618004+49617+006200FM-12+038099999V0202401N00571220001CN0200001N9+01391-00221101661ADDAY101999GF100991001001999999001001KA1999M+01611MW1001
0043065900999991951041700004+49617+006200FM-12+038099999V0203401N00261220001CN0160001N9+00781+00001101821ADDAY101999GF100991001001999999001001MW1001
0043065900999991951041712004+49617+006200FM-12+038099999V0202901N00411220001CN0200001N9+01001-00111102061ADDAY111999GF106991001001999999001061MW1021
0043065900999991951041800004+49617+006200FM-12+038099999V0200501N00671220001CN0160001N9+00391-00281102091ADDAY111999GF104991001001999999031061MW1021
0056065900999991951041806004+49617+006200FM-12+038099999V0200501N004119999999N0160001N9+00281-00281101951ADDAY121999GF107991011051017501071999KA1999N+00281MW1021
0043065900999991951041812004+49617+006200FM-12+038099999V0201601N00621220001CN0140001N9+01391+00281101581ADDAY121999GF104991001001999999001061MW1021
0056065900999991951041818004+49617+006200FM-12+038099999V0202001N005719999999N0160001N9+01221+00391101471ADDAY111999GF105991041051017501001051KA1999M+01611MW1021
0062065900999991951041900004+49617+006200FM-12+038099999V0201101N00151220001CN0160001N9+00721+00611101461ADDAY111999GF101991999001999999031001MW1021EQDQ01+000002SCOTLC
0056065900999991951041906004+49617+006200FM-12+038099999V0201401N00051220001CN0012001N9+00721+00611101381ADDAY101999GF101991011051017501001011KA1999N+00611MW1281
0043065900999991951041912004+49617+006200FM-12+038099999V0201101N001019999999N0140001N9+01611+00781101311ADDAY111999GF105991041081012501001061MW1021
0056065900999991951041918004+49617+006200FM-12+038099999V0203401N00671012301CN0060001N9+01281+01001101421ADDAY181999GF107991061031012501999999KA1999M+01781MW1801
0043065900999991951042000004+49617+006200FM-12+038099999V0203401N00821002401CN0030001N9+00721+00611101721ADDAY161999GF108991081071002501999999MW1251
0056065900999991951042006004+49617+006200FM-12+038099999V0203201N00771002401CN0030001N9+00611+00501101711ADDAY161999GF108991071071002501999999KA1999N+00501MW1211
0043065900999991951042012004+49617+006200FM-12+038099999V0200501N00311004501CN0050001N9+00611+00501101781ADDAY161999GF108991071071004501999999MW1621
0056065900999991951042018004+49617+006200FM-12+038099999V0200501N00511012301CN0090001N9+00721+00501101551ADDAY161999GF108991081051012501999999KA1999M+00781MW1051
0043065900999991951042100004+49617+006200FM-12+038099999V0200201N00361007801CN0060001N9+00611+00281101531ADDAY121999GF107991071051008001999999MW1051
0056065900999991951042106004+49617+006200FM-12+038099999V0200501N00361220001CN0100001N9+00611+00391101591ADDAY111999GF103991031051012501999999KA1999N+00391MW1021
0043065900999991951042112004+49617+006200FM-12+038099999V0200201N00621220001CN0160001N9+01111-00281101651ADDAY111999GF100991001001999999001001MW1001
0056065900999991951042118004+49617+006200FM-12+038099999V0200201N00671220001CN0160001N9+00781-00281101791ADDAY101999GF101991001001999999001051KA1999M+01221MW1021
0043065900999991951042200004+49617+006200FM-12+038099999V0200501N00721220001CN0160001N9+00221-00391102181ADDAY101999GF100991001001999999001001MW1001
0056065900999991951042206004+49617+006200FM-12+038099999V0200501N00571220001CN0160001N9+00111-00501102331ADDAY101999GF101991001001999999001051KA1999N+00001MW1021
0043065900999991951042212004+49617+006200FM-12+038099999V0200701N00671220001CN0200001N9+01001-00391102271ADDAY101999GF101991001001999999001051MW1021
0043065900999991951042218004+49617+006200FM-12+038099999V0200701N00571220001CN0200001N9+01001-00781102241ADDAY101999GF100991001001999999001001MW1001
0043065900999991951042300004+49617+006200FM-12+038099999V0200501N00461220001CN0200001N9+00501-00501102411ADDAY101999GF100991001001999999001001MW1001
0056065900999991951042306004+49617+006200FM-12+038099999V0200501N00571220001CN0200001N9+00391-00611102431ADDAY101999GF101991001001999999001051KA1999N+00281MW1031
0043065900999991951042312004+49617+006200FM-12+038099999V0200901N00621220001CN0200001N9+01391-00891102301ADDAY111999GF103991001001999999001051MW1021
0075065900999991951042318004+49617+006200FM-12+038099999V0200701N00461220001CN0200001N9+01501-00501102151ADDAY111999GF101991001001999999001051KA1999M+99999MW1031EQDQ01 +01392ATMX  
0043065900999991951042400004+49617+006200FM-12+038099999V0200501N00461220001CN0200001N9+00891-00611102391ADDAY101999GF101991001001999999001051MW1021
0056065900999991951042406004+49617+006200FM-12+038099999V0200501N00571220001CN0200001N9+00721-00721102411ADDAY111999GF104991001001999999001061KA1999N+00611MW1021
0043065900999991951042412004+49617+006200FM-12+038099999V0200901N00461220001CN0200001N9+01781-00781102151ADDAY101999GF101991001001999999001051MW1021
0056065900999991951042418004+49617+006200FM-12+038099999V0200701N00461220001CN0200001N9+01721-00611102031ADDAY101999GF100991001001999999001001KA1999M+02001MW1001
0043065900999991951042500004+49617+006200FM-12+038099999V0200501N00461220001CN0200001N9+00891-00391102141ADDAY101999GF100991001001999999001001MW1001
0056065900999991951042506004+49617+006200FM-12+038099999V0200501N00461220001CN0200001N9+01001-00281101991ADDAY101999GF100991001001999999001001KA1999N+00611MW1001
0043065900999991951042512004+49617+006200FM-12+038099999V0201601N00101220001CN0200001N9+02001+00391101691ADDAY101999GF100991001001999999001001MW1001
0056065900999991951042518004+49617+006200FM-12+038099999V0209991C00001220001CN0150001N9+02111+00611101341ADDAY101999GF100991001001999999001001KA1999M+02281MW1001
0043065900999991951042600004+49617+006200FM-12+038099999V0209991C00001220001CN0100001N9+01611+00391101221ADDAY101999GF100991001001999999001001MW1001
0056065900999991951042606004+49617+006200FM-12+038099999V0209991C00001220001CN0160001N9+01111+00391101151ADDAY101999GF102991001001999999001061KA1999N+01001MW1021
0043065900999991951042612004+49617+006200FM-12+038099999V0202301N00461220001CN0100001N9+01781+00721101031ADDAY121999GF105991001001999999001061MW1021
0056065900999991951042618004+49617+006200FM-12+038099999V0202301N00571220001CN0120001N9+01611+00721100981ADDAY121999GF107991001001999999071061KA1999M+01891MW1021
0043065900999991951042700004+49617+006200FM-12+038099999V0202001N00511012301CN0160001N9+01221+00891101061ADDAY181999GF108991061031012501071999MW1951
0056065900999991951042706004+49617+006200FM-12+038099999V0201101N00051015001CN0030001N9+01001+00891100921ADDAY181999GF108991061051017501999999KA1999N+00891MW1631
0043065900999991951042712004+49617+006200FM-12+038099999V0200401N00361004501CN0080001N9+01111+01001100741ADDAY161999GF108991071051004501021999MW1211
0056065900999991951042718004+49617+006200FM-12+038099999V0200201N00571007801CN0060001N9+00781+00611100781ADDAY181999GF108991081051008001999999KA1999M+01111MW1051
0043065900999991951042800004+49617+006200FM-12+038099999V0203201N00261000601CN0016001N9+00611+00611100831ADDAY161999GF108991081061000751999999MW1501
0056065900999991951042806004+49617+006200FM-12+038099999V0202701N00511001501CN0030001N9+00391+00281100991ADDAY151999GF108991071061001501999999KA1999N+00391MW1501
0043065900999991951042812004+49617+006200FM-12+038099999V0202901N00621004501CN0200001N9+00281+00001101341ADDAY151999GF107991061081004501999999MW1021
0056065900999991951042818004+49617+006200FM-12+038099999V0202701N00511004501CN0160001N9+00391+00111101501ADDAY181999GF106991051031004501999999KA1999M+00501MW1271
0043065900999991951042900004+49617+006200FM-12+038099999V0202901N00311004501CN0200001N9+00221+00001101061ADDAY111999GF108991071051004501999999MW1021
0056065900999991951042906004+49617+006200FM-12+038099999V0202901N004619999999N0200001N9+00221-00111101801ADDAY121999GF107991041051004501999999KA1999N+00111MW1021
0043065900999991951042912004+49617+006200FM-12+038099999V0202301N00571007801CN0160001N9+00611-00111101821ADDAY181999GF106991061081008001999999MW1261
0056065900999991951042918004+49617+006200FM-12+038099999V0201801N00361220001CN0200001N9+00501-00111101791ADDAY181999GF103991031031004501001061KA1999M+00781MW1021
0043065900999991951043000004+49617+006200FM-12+038099999V0200501N00361220001CN0160001N9+00111-00111101951ADDAY111999GF100991001001999999001001MW1001
0056065900999991951043006004+49617+006200FM-12+038099999V0200501N00361220001CN0080001N9+00111+00001101981ADDAY111999GF101991001001999999001061KA1999N-00111MW1051
0043065900999991951043012004+49617+006200FM-12+038099999V0201101N004619999999N0160001N9+00781-00221101911ADDAY121999GF106991041031012501999999MW1021
0056065900999991951043018004+49617+006200FM-12+038099999V0203401N005119999999N0090001N9+00391+00221101991ADDAY191999GF106991041031008001999999KA1999M+01001MW1291
0043065900999991951050100004+49617+006200FM-12+038099999V0200201N00361220001CN0080001N9+00221+00111102121ADDAY101999GF100991001001999999001001MW1051
0056065900999991951050106004+49617+006200FM-12+038099999V0200701N00211220001CN0100001N9+00391+00111102061ADDAY111999GF103991001001999999001061KA1999N+00221MW1001
0043065900999991951050112004+49617+006200FM-12+038099999V0201401N00571220001CN0200001N9+01281+00001101691ADDAY111999GF104991031011012501001051MW1021
0056065900999991951050118004+49617+006200FM-12+038099999V0201401N00311220001CN0200001N9+01501-00111101441ADDAY111999GF101991011011017501001051KA1999M+01611MW1011
0062065900999991951050200004+49617+006200FM-12+038099999V0200701N00511220001CN0200001N9+01001+00111101441ADDAY101999GF101991999001999999041001MW1021EQDQ01+000002SCOTLC
0056065900999991951050206004+49617+006200FM-12+038099999V0201101N001019999999N0150001N9+00891+00281101531ADDAY111999GF107991031051012501031999KA1999N+00891MW1021
0043065900999991951050212004+49617+006200FM-12+038099999V0201801N00461220001CN0110001N9+01611+00611101491ADDAY121999GF102991021021012501031001MW1031
0056065900999991951050218004+49617+006200FM-12+038099999V0202701N003619999999N0200001N9+01721+00611101421ADDAY111999GF106991011081012501031001KA1999M+01781MW1031
0043065900999991951050300004+49617+006200FM-12+038099999V0200201N006219999999N0160001N9+01221+00721101511ADDAY111999GF106991021051017501071999MW1021
0056065900999991951050306004+49617+006200FM-12+038099999V0200201N005719999999N0060001N9+01001+00721101431ADDAY111999GF105991021051017501031061KA1999N+00611MW1051
0056065900999991951050318004+49617+006200FM-12+038099999V0200901N00571220001CN0160001N9+01781+00611100791ADDAY111999GF104991011021012501031051KA1999M+02001MW1021
0043065900999991951050400004+49617+006200FM-12+038099999V0200501N00571220001CN0160001N9+01111+00611100861ADDAY111999GF100991001001999999001001MW1001
0075065900999991951050406004+49617+006200FM-12+038099999V0200901N00411220001CN0070001N9+00891+00611100781ADDAY111999GF102991999001999999031001KA1999N+00781MW1051EQDQ01+000002SCOTLC
0043065900999991951050412004+49617+006200FM-12+038099999V0202501N00151007801CN0160001N9+01281+01111100781ADDAY161999GF107991061081008001999999MW1021
0056065900999991951050418004+49617+006200FM-12+038099999V0202501N005119999999N0200001N9+01111+00721101001ADDAY111999GF105991021081012501001061KA1999M+01501MW1021
0043065900999991951050500004+49617+006200FM-12+038099999V0202001N00511220001CN0160001N9+00721+00501101231ADDAY111999GF100991001001999999001001MW1001
0056065900999991951050506004+49617+006200FM-12+038099999V0202301N00511220001CN0140001N9+00611+00391101311ADDAY101999GF101991001001999999001051KA1999N+00501MW1021
0043065900999991951050512004+49617+006200FM-12+038099999V0202301N00721012301CN0200001N9+01221+00221101271ADDAY111999GF105991051021012501001001MW1021
0056065900999991951050518004+49617+006200FM-12+038099999V0202301N00511220001CN0200001N9+01391+00111101191ADDAY111999GF103991031011012501001051KA1999M+01501MW1021
0043065900999991951050600004+49617+006200FM-12+038099999V0209991C00001220001CN0200001N9+01001+00281101251ADDAY101999GF100991001001999999001001MW1001
0075065900999991951050606004+49617+006200FM-12+038099999V0209991C00001220001CN0120001N9+00891+00391101211ADDAY101999GF101991999001999999031001KA1999N+00611MW1021EQDQ01+000002SCOTLC
0043065900999991951050612004+49617+006200FM-12+038099999V0201501N00361220001CN0200001N9+01721+00501100891ADDAY111999GF104991041021012501001051MW1031
0056065900999991951050618004+49617+006200FM-12+038099999V0200701N004619999999N0200001N9+01611+00501100691ADDAY111999GF106991041051017501071061KA1999M+01891MW1021
0043065900999991951050700004+49617+006200FM-12+038099999V0203601N004619999999N0200001N9+01281+00501100731ADDAY121999GF108991011051017501071999MW1021
0056065900999991951050706004+49617+006200FM-12+038099999V0202501N004619999999N0200001N9+01001+00781100711ADDAY121999GF107991041051012501071999KA1999N+01001MW1601
0043065900999991951050712004+49617+006200FM-12+038099999V0200301N003119999999N0160001N9+01501+00611100511ADDAY161999GF107991011011012501071999MW1021
0056065900999991951050718004+49617+006200FM-12+038099999V0200201N004119999999N0140001N9+01111+01001100521ADDAY181999GF107991041051008001071999KA1999M+01611MW1021
0043065900999991951050800004+49617+006200FM-12+038099999V0200301N00361000151CN0002001N9+00781+00781100591ADDAY191999GF108991081061000251999999MW1461
0056065900999991951050806004+49617+006200FM-12+038099999V0202101N00151004501CN0030001N9+00891+00721100331ADDAY181999GF108991071051004501999999KA1999N+00781MW1251
0043065900999991951050812004+49617+006200FM-12+038099999V0202301N00571012301CN0120001N9+01281+00781100201ADDAY181999GF106991061081012501999999MW1021
0043065900999991951050900004+49617+006200FM-12+038099999V0202901N00151007801CN0160001N9+00721+00611100781ADDAY121999GF108991081051008001999999MW1021
0056065900999991951050906004+49617+006200FM-12+038099999V0203601N00261007801CN0080001N9+00721+00501100991ADDAY121999GF108991081051008001999999KA1999N+00721MW1051
0043065900999991951050912004+49617+006200FM-12+038099999V0200501N004119999999N0160001N9+01111+00391101071ADDAY121999GF107991031021008001001061MW1021
0056065900999991951050918004+49617+006200FM-12+038099999V0203401N00571015001CN0160001N9+01001+00501101061ADDAY121999GF107991051051017501001061KA1999M+01221MW1021
0043065900999991951051000004+49617+006200FM-12+038099999V0203401N00621220001CN0060001N9+00611+00281101111ADDAY121999GF104991001001999999001061MW1051
0056065900999991951051006004+49617+006200FM-12+038099999V0200201N00821004501CN0030001N9+00781+00611100941ADDAY121999GF108991081061004501999999KA1999N+00611MW1051
0043065900999991951051012004+49617+006200FM-12+038099999V0200201N006719999999N0040001N9+01111+00501100891ADDAY121999GF108991021051004501021999MW1051
0056065900999991951051018004+49617+006200FM-12+038099999V0200201N006719999999N0040001N9+01001+00611101031ADDAY121999GF108991041051004501021999KA1999M+01281MW1051
0043065900999991951051100004+49617+006200FM-12+038099999V0200201N00671220001CN0150001N9+00781+00391101261ADDAY121999GF102991021051008001001001MW1011
0056065900999991951051106004+49617+006200FM-12+038099999V0200201N00671220001CN0160001N9+00611-00221101501ADDAY101999GF101991001001999999001061KA1999N+00501MW1021
0043065900999991951051112004+49617+006200FM-12+038099999V0200201N00771015001CN0200001N9+01001-00111101591ADDAY121999GF107991061051017501999999MW1021
0043065900999991951051118004+49617+006200FM-12+038099999V0200201N00621220001CN0200001N9+01111-00221101541ADDAY121999GF102991021051017501031051MW1021
0043065900999991951051200004+49617+006200FM-12+038099999V0200201N00461220001CN0200001N9+00611-00111101791ADDAY101999GF100991001001999999001001MW1001
0056065900999991951051206004+49617+006200FM-12+038099999V0200501N00361220001CN0200001N9+00391+00001101891ADDAY111999GF104991001001999999001061KA1999N+00281MW1031
0043065900999991951051212004+49617+006200FM-12+038099999V0200501N00771220001CN0200001N9+01221-00111101761ADDAY121999GF104991011011012501041061MW1011
0056065900999991951051218004+49617+006200FM-12+038099999V0200501N005119999999N0200001N9+01281-00221101581ADDAY111999GF106991011051017501041061KA1999M+01391MW1021
0043065900999991951051300004+49617+006200FM-12+038099999V0200201N00411220001CN0160001N9+00781+00111101651ADDAY111999GF100991001001999999001001MW1001
0056065900999991951051306004+49617+006200FM-12+038099999V0209991C00001220001CN0120001N9+00611+00221101541ADDAY101999GF100991001001999999001001KA1999N+00391MW1001
0043065900999991951051312004+49617+006200FM-12+038099999V0202501N006219999999N0120001N9+01501+00111101291ADDAY111999GF105991031011012501001061MW1021
0056065900999991951051318004+49617+006200FM-12+038099999V0203201N00511015001CN0200001N9+01281-00111101131ADDAY111999GF105991051051017501001001KA1999M+01611MW1021
0043065900999991951051400004+49617+006200FM-12+038099999V0203201N00461007801CN0160001N9+00611+00221101431ADDAY121999GF108991081051008001999999MW1021
0056065900999991951051406004+49617+006200FM-12+038099999V0203201N004619999999N0200001N9+00611+00221101491ADDAY121999GF108991041051004501999999KA1999N+00501MW1021
0043065900999991951051412004+49617+006200FM-12+038099999V0203401N006219999999N0200001N9+01001+00221101591ADDAY121999GF108991041051008001999999MW1021
0056065900999991951051418004+49617+006200FM-12+038099999V0203201N00621012301CN0200001N9+00721+00221101761ADDAY181999GF107991071051012501999999KA1999M+01111MW1021
0043065900999991951051500004+49617+006200FM-12+038099999V0203201N003619999999N0200001N9+00501+00281101941ADDAY121999GF107991041051008001071999MW1021
0056065900999991951051506004+49617+006200FM-12+038099999V0202901N002119999999N0200001N9+00391+00221102011ADDAY111999GF106991041051004501071999KA1999N+00391MW1021
0043065900999991951051512004+49617+006200FM-12+038099999V0202301N00361004501CN0160001N9+00611+00391101901ADDAY161999GF108991071051004501999999MW1021
0056065900999991951051518004+49617+006200FM-12+038099999V0202901N00461004501CN0100001N9+00721+00501101721ADDAY181999GF108991051081004501999999KA1999M+00781MW1021
0043065900999991951051600004+49617+006200FM-12+038099999V0202901N00311004501CN0060001N9+00611+00281101591ADDAY121999GF107991071051004501999999MW1051
0056065900999991951051606004+49617+006200FM-12+038099999V0202901N00411007801CN0060001N9+00391+00391101471ADDAY181999GF108991051081008001999999KA1999N+00391MW1251
0043065900999991951051612004+49617+006200FM-12+038099999V0202901N001519999999N0140001N9+00781+00391101211ADDAY121999GF108991041021008001999999MW1021
0056065900999991951051618004+49617+006200FM-12+038099999V0203401N00511007801CN0100001N9+00721+00391101141ADDAY181999GF108991051031008001999999KA1999M+00891MW1801
0043065900999991951051700004+49617+006200FM-12+038099999V0200301N00461015001CN0090001N9+00391+00281101221ADDAY161999GF108991081001017501021999MW1601
0056065900999991951051706004+49617+006200FM-12+038099999V0200501N005719999999N0060001N9+00391+00281101141ADDAY161999GF108991041071002501021999KA1999N+00281MW1631
0043065900999991951051712004+49617+006200FM-12+038099999V0200201N00511002401CN0060001N9+00611+00611101191ADDAY161999GF108991051071002501021999MW1211
0056065900999991951051718004+49617+006200FM-12+038099999V0200501N005119999999N0140001N9+01001+00611101171ADDAY111999GF106991021051012501071999KA1999M+01111MW1021
0043065900999991951051800004+49617+006200FM-12+038099999V0200301N00671220001CN0100001N9+00891+00501101231ADDAY121999GF105991001001999999001061MW1021
0056065900999991951051806004+49617+006200FM-12+038099999V0200501N00771220001CN0120001N9+00721+00501101301ADDAY111999GF105991001001999999001061KA1999N+00721MW1021
0043065900999991951051812004+49617+006200FM-12+038099999V0200701N00721007801CN0120001N9+01391+00611101261ADDAY111999GF106991051081008001999999MW1021
0056065900999991951051818004+49617+006200FM-12+038099999V0200501N00721004501CN0060001N9+01501+00891101061ADDAY111999GF107991061031004501999999KA1999M+01611MW1171
0043065900999991951051900004+49617+006200FM-12+038099999V0200501N00571220001CN0120001N9+00891+00611101211ADDAY181999GF103991001001999999001061MW1021
0056065900999991951051906004+49617+006200FM-12+038099999V0200901N00261220001CN0070001N9+00891+00721101171ADDAY111999GF106991001001999999001061KA1999N+00781MW1051
0043065900999991951051912004+49617+006200FM-12+038099999V0200701N00511220001CN0120001N9+01781+00781100851ADDAY111999GF104991011011017501001061MW1021
0056065900999991951051918004+49617+006200FM-12+038099999V0209991C00001220001CN0200001N9+01891+00721100621ADDAY111999GF104991001001999999001061KA1999M+02111MW1021
0043065900999991951052000004+49617+006200FM-12+038099999V0200201N00511220001CN0120001N9+01221+00721100791ADDAY111999GF102991001001999999001061MW1021
0056065900999991951052006004+49617+006200FM-12+038099999V0200501N00311220001CN0080001N9+01001+00781100941ADDAY111999GF106991001001999999031061KA1999N+00891MW1051
0043065900999991951052012004+49617+006200FM-12+038099999V0202301N00461004501CN0060001N9+01221+01001101001ADDAY121999GF108991081051004501999999MW1051
0056065900999991951052018004+49617+006200FM-12+038099999V0201801N00511220001CN0100001N9+01501+01111100921ADDAY121999GF102991021051012501001001KA1999M+01611MW1031
0043065900999991951052100004+49617+006200FM-12+038099999V0202301N00511007801CN0080001N9+01221+00891101141ADDAY121999GF108991071051008001999999MW1051
0056065900999991951052106004+49617+006200FM-12+038099999V0202301N002119999999N0120001N9+01001+00891101271ADDAY121999GF107991041051012501071999KA1999N+01001MW1021
0043065900999991951052112004+49617+006200FM-12+038099999V0202301N006719999999N0200001N9+01611+00721101171ADDAY181999GF107991041081008001999999MW1021
0056065900999991951052118004+49617+006200FM-12+038099999V0202501N00411220001CN0200001N9+01501+00721101221ADDAY181999GF104991031081008001001061KA1999M+01721MW1021
0043065900999991951052200004+49617+006200FM-12+038099999V0200201N00361220001CN0200001N9+00891+00781101311ADDAY111999GF100991001001999999001001MW1011
0056065900999991951052206004+49617+006200FM-12+038099999V0200501N00461220001CN0050001N9+00781+00781101171ADDAY121999GF108991001001999999071999KA1999N+00781MW1051
0043065900999991951052212004+49617+006200FM-12+038099999V0202001N005119999999N0060001N9+01391+01111101301ADDAY161999GF107991041081008001999999MW1051
0056065900999991951052218004+49617+006200FM-12+038099999V0202501N00621220001CN0200001N9+01611+00281101461ADDAY121999GF101991011041012501001001KA1999M+01781MW1021
0062065900999991951052300004+49617+006200FM-12+038099999V0202301N00151220001CN0160001N9+01001+00611101821ADDAY111999GF105991999001999999031001MW1031EQDQ01+000002SCOTLC
0056065900999991951052306004+49617+006200FM-12+038099999V0201601N001019999999N0120001N9+01001+00501101821ADDAY121999GF107991021051008001031999KA1999N+00891MW1021
0043065900999991951052312004+49617+006200FM-12+038099999V0202501N00511220001CN0200001N9+01891+00721101651ADDAY111999GF104991031081012501001061MW1021
0056065900999991951052318004+49617+006200FM-12+038099999V0202701N00151220001CN0200001N9+02111+00781101571ADDAY111999GF104991011051017501001061KA1999M+02221MW1021
0043065900999991951052400004+49617+006200FM-12+038099999V0200501N00461220001CN0200001N9+01281+00721101791ADDAY111999GF101991001001999999001051MW1031
0056065900999991951052406004+49617+006200FM-12+038099999V0200701N004619999999N0160001N9+01391+00781101721ADDAY111999GF105991021031012501031061KA1999N+01111MW1031
0043065900999991951052412004+49617+006200FM-12+038099999V0201601N00511220001CN0200001N9+02281+01001101551ADDAY111999GF105991001001999999031061MW1021
0056065900999991951052418004+49617+006200FM-12+038099999V0202301N00411220001CN0200001N9+02391+01391101361ADDAY111999GF106991001001999999031061KA1999M+02611MW1031
0043065900999991951052500004+49617+006200FM-12+038099999V0200501N00621220001CN0160001N9+01611+01221101571ADDAY111999GF102991001001999999001061MW1021
0056065900999991951052506004+49617+006200FM-12+038099999V0200901N001019999999N0080001N9+01611+01221101321ADDAY111999GF105991021021008001031061KA1999N+01391MW1051
0043065900999991951052512004+49617+006200FM-12+038099999V0202501N00511007801CN0160001N9+01781+01281101441ADDAY191999GF107991051081008001999999MW1021
0056065900999991951052518004+49617+006200FM-12+038099999V0202901N004619999999N0200001N9+01721+01221101431ADDAY111999GF105991031081012501001061KA1999M+01781MW1021
0043065900999991951052600004+49617+006200FM-12+038099999V0200501N00311220001CN0150001N9+01111+00781101511ADDAY111999GF100991001001999999001001MW1001
0056065900999991951052606004+49617+006200FM-12+038099999V0200501N00621220001CN0070001N9+01111+00891101101ADDAY101999GF102991001001999999031061KA1999N+01001MW1051
0043065900999991951052612004+49617+006200FM-12+038099999V0201401N00621015001CN0080001N9+02001+01281100421ADDAY121999GF107991071051017501999999MW1051
0056065900999991951052618004+49617+006200FM-12+038099999V0202301N00571012301CN0160001N9+01721+01281100191ADDAY191999GF106991051051012501001051KA1999M+02111MW1021
0043065900999991951052700004+49617+006200FM-12+038099999V0202501N00821007801CN0200001N9+01111+00781100621ADDAY121999GF108991061051008001999999MW1021
0056065900999991951052706004+49617+006200FM-12+038099999V0201801N00461004501CN0200001N9+00891+00781100601ADDAY121999GF108991061051004501999999KA1999N+00891MW1021
0043065900999991951052712004+49617+006200FM-12+038099999V0201601N00211007801CN0200001N9+01391+00781100451ADDAY161999GF107991051021008001031999MW1031
0056065900999991951052718004+49617+006200FM-12+038099999V0201401N00261007801CN0060001N9+01281+00781100291ADDAY121999GF108991051051008001021999KA1999M+01501MW1601
0043065900999991951052800004+49617+006200FM-12+038099999V0202501N008219999999N0060001N9+00781+00611100561ADDAY181999GF108991041071008001021999MW1651
0056065900999991951052806004+49617+006200FM-12+038099999V0202301N00511004501CN0160001N9+00891+00781100771ADDAY161999GF108991071051004501999999KA1999N+00721MW1021
0062065900999991951052812004+49617+006200FM-12+038099999V0202301N008219999999N0200001N9+01281+00721100901ADDAY121999GF105991999081008001001001MW1021EQDQ01+000042SCOTLC
0056065900999991951052818004+49617+006200FM-12+038099999V0202501N005119999999N0200001N9+01391+00721100991ADDAY111999GF105991021021008001031051KA1999M+01611MW1021
0043065900999991951052900004+49617+006200FM-12+038099999V0202301N00101220001CN0200001N9+00891+00721101271ADDAY111999GF106991001001999999031999MW1031
0056065900999991951052906004+49617+006200FM-12+038099999V0203601N00101220001CN0070001N9+00891+00781101381ADDAY111999GF106991001001999999031061KA1999N+00721MW1051
0043065900999991951052912004+49617+006200FM-12+038099999V0201801N003119999999N0160001N9+01501+00721101361ADDAY121999GF107991031031012501001031MW1021
0056065900999991951052918004+49617+006200FM-12+038099999V0200701N006219999999N0150001N9+01221+00891101461ADDAY151999GF106991031021008001031999KA1999M+01611MW1021
0043065900999991951053000004+49617+006200FM-12+038099999V0200501N00621220001CN0060001N9+00891+00781101621ADDAY111999GF101991011051004501001001MW1051
0056065900999991951053006004+49617+006200FM-12+038099999V0200501N007719999999N0080001N9+00721+00391101671ADDAY121999GF105991041051008001031001KA1999N+00721MW1051
0043065900999991951053012004+49617+006200FM-12+038099999V0200501N00721220001CN0120001N9+01391+00781101571ADDAY111999GF105991001001999999001061MW1021
0056065900999991951053018004+49617+006200FM-12+038099999V0200501N00621220001CN0080001N9+01281+00721101581ADDAY121999GF107991001001999999001081KA1999M+01501MW1051
0062065900999991951053100004+49617+006200FM-12+038099999V0200501N00671220001CN0120001N9+00891+00501101761ADDAY121999GF101991999001999999031001MW1011EQDQ01+000002SCOTLC
0056065900999991951053106004+49617+006200FM-12+038099999V0200501N00771220001CN0140001N9+00781+00391101701ADDAY111999GF104991041051012501031001KA1999N+00721MW1021
0043065900999991951053112004+49617+006200FM-12+038099999V0200701N00821220001CN0160001N9+01781+00781101541ADDAY111999GF101991011011012501001001MW1021
0056065900999991951053118004+49617+006200FM-12+038099999V0200701N00721220001CN0200001N9+01721+00781101391ADDAY111999GF104991041051017501001001KA1999M+01891MW1031
0043065900999991951060100004+49617+006200FM-12+038099999V0203601N00721012301CN0160001N9+01221+00391101531ADDAY111999GF106991061051012501999999MW1021
0056065900999991951060106004+49617+006200FM-12+038099999V0200201N006219999999N0200001N9+01111+00391101441ADDAY121999GF107991041051012501071999KA1999N+01111MW1021
0043065900999991951060112004+49617+006200FM-12+038099999V0200901N00511004501CN0060001N9+01111+01001101511ADDAY161999GF108991071051004501021999MW1211
0056065900999991951060118004+49617+006200FM-12+038099999V0201401N00411012301CN0140001N9+01281+01001101381ADDAY161999GF107991051051012501071999KA1999M+01391MW1021
0043065900999991951060200004+49617+006200FM-12+038099999V0200901N00101015001CN0070001N9+01001+00891101341ADDAY161999GF108991081051017501999999MW1051
0056065900999991951060206004+49617+006200FM-12+038099999V0202301N00101001501CN0020001N9+01111+01001101231ADDAY151999GF108991071061001501999999KA1999N+01001MW1201
0043065900999991951060212004+49617+006200FM-12+038099999V0201801N00151004501CN0060001N9+01281+01111101171ADDAY121999GF107991051051004501011999MW1051
0056065900999991951060218004+49617+006200FM-12+038099999V0202301N00211007801CN0100001N9+01391+01111101091ADDAY111999GF106991051031008001001061KA1999M+01611MW1021
0043065900999991951060300004+49617+006200FM-12+038099999V0209991C00001220001CN0070001N9+01001+01001101291ADDAY121999GF104991021051012501071001MW1051
0056065900999991951060306004+49617+006200FM-12+038099999V0202001N00051000151CN0002001N9+00891+00891101351ADDAY141999GF109991091999000251999999KA1999N+00781MW1451
0043065900999991951060312004+49617+006200FM-12+038099999V0202301N00311007801CN0070001N9+01501+01221101351ADDAY141999GF107991071051008001999999MW1051
0056065900999991951060318004+49617+006200FM-12+038099999V0202501N00461007801CN0110001N9+01721+01221101271ADDAY121999GF106991061091008001001031KA1999M+01781MW1031
0043065900999991951060400004+49617+006200FM-12+038099999V0203601N00411220001CN0030001N9+01111+01001101421ADDAY111999GF100991001001999999001001MW1051
0056065900999991951060406004+49617+006200FM-12+038099999V0209991C00001220001CN0012001N9+01111+01001101431ADDAY141999GF101991001001999999001051KA1999N+00891MW1281
0043065900999991951060412004+49617+006200FM-12+038099999V0200501N00461007801CN0110001N9+01721+01221101381ADDAY181999GF106991051021008001031999MW1251
0056065900999991951060418004+49617+006200FM-12+038099999V0200501N004619999999N0160001N9+01611+01221101311ADDAY181999GF107991041031008001031999KA1999M+02001MW1251
0043065900999991951060500004+49617+006200FM-12+038099999V0203601N00511220001CN0120001N9+01221+01001101491ADDAY181999GF100991001001999999001001MW1011
0075065900999991951060506004+49617+006200FM-12+038099999V0203601N00261220001CN0140001N9+01221+00891101401ADDAY101999GF101991999001999999031001KA1999N+01001MW1021EQDQ01+000002SCOTLC
0043065900999991951060512004+49617+006200FM-12+038099999V0200201N00571220001CN0200001N9+01891+00391101271ADDAY101999GF101991001001999999001051MW1031
0056065900999991951060518004+49617+006200FM-12+038099999V0203401N00461220001CN0200001N9+01891+00721101111ADDAY111999GF102991021011012501001001KA1999M+02111MW1021
0043065900999991951060600004+49617+006200FM-12+038099999V0203401N00461220001CN0080001N9+01281+01111101291ADDAY101999GF100991001001999999001001MW1051
0056065900999991951060606004+49617+006200FM-12+038099999V0203201N00361007801CN0040001N9+01221+01001101291ADDAY111999GF106991061051008001999999KA1999N+01001MW1051
0043065900999991951060612004+49617+006200FM-12+038099999V0200501N00721220001CN0160001N9+02001+00721101101ADDAY111999GF104991041021008001001001MW1021
0056065900999991951060618004+49617+006200FM-12+038099999V0200201N00461220001CN0200001N9+01891+00781101041ADDAY111999GF103991021021012501001051KA1999M+02111MW1021
0043065900999991951060700004+49617+006200FM-12+038099999V0200201N00411220001CN0200001N9+01281+00891101311ADDAY111999GF100991001001999999001001MW1001
0075065900999991951060706004+49617+006200FM-12+038099999V0200401N00511220001CN0070001N9+01281+01001101261ADDAY101999GF101991999001999999031001KA1999N+01001MW1051EQDQ01+000002SCOTLC
0043065900999991951060712004+49617+006200FM-12+038099999V0200201N00461220001CN0200001N9+02001+00891101041ADDAY101999GF101991011011012501001051MW1021
0056065900999991951060718004+49617+006200FM-12+038099999V0200201N00571220001CN0160001N9+01891+00891100871ADDAY101999GF101991001001999999001051KA1999M+02111MW1021
0043065900999991951060800004+49617+006200FM-12+038099999V0200501N00621220001CN0070001N9+01111+00721100981ADDAY101999GF100991001001999999001001MW1051
0056065900999991951060806004+49617+006200FM-12+038099999V0200501N00621220001CN0090001N9+01111+00721100771ADDAY111999GF102991001001999999001061KA1999N+01001MW1051
0043065900999991951060812004+49617+006200FM-12+038099999V0200701N005119999999N0140001N9+02111+01001100381ADDAY111999GF106991041081012501001061MW1021
0043065900999991951060818004+49617+006200FM-12+038099999V0201401N00361004501CN0060001N9+01721+01221100351ADDAY191999GF107991051051004501011999MW1051
0043065900999991951060900004+49617+006200FM-12+038099999V0200501N00621220001CN0060001N9+01501+01221100431ADDAY121999GF104991041051004501001001MW1051
0056065900999991951060906004+49617+006200FM-12+038099999V0200501N00461220001CN0030001N9+01221+00611100661ADDAY111999GF101991001001999999001051KA1999N+01111MW1051
0043065900999991951060912004+49617+006200FM-12+038099999V0202501N00411012301CN0120001N9+02001+01001100751ADDAY111999GF106991061021012501999999MW1031
0056065900999991951060918004+49617+006200FM-12+038099999V0202701N005119999999N0070001N9+01781+01221100901ADDAY121999GF107991021021012501071999KA1999M+02221MW1051
0043065900999991951061000004+49617+006200FM-12+038099999V0202901N004619999999N0090001N9+01001+00891101261ADDAY161999GF108991041071002501021999MW1611
0056065900999991951061006004+49617+006200FM-12+038099999V0202301N00311001501CN0160001N9+01111+01001101291ADDAY161999GF108991071061001501999999KA1999N+01001MW1021
0062065900999991951061012004+49617+006200FM-12+038099999V0202401N006719999999N0200001N9+01391+00611101321ADDAY181999GF105991999021008001001001MW1021EQDQ01+000042SCOTLC
0056065900999991951061018004+49617+006200FM-12+038099999V0202701N00511220001CN0200001N9+01391+00721101551ADDAY191999GF103991031051012501001001KA1999M+01611MW1011
0043065900999991951061100004+49617+006200FM-12+038099999V0202301N00051220001CN0120001N9+00891+00891101951ADDAY111999GF100991001001999999001001MW1001
0056065900999991951061106004+49617+006200FM-12+038099999V0201601N00051000151CN0002001N9+01001+01001102111ADDAY141999GF109991091999000251999999KA1999N+00781MW1451
0043065900999991951061112004+49617+006200FM-12+038099999V0201801N00211004501CN0160001N9+01501+01001102161ADDAY141999GF107991071081004501999999MW1021
0056065900999991951061118004+49617+006200FM-12+038099999V0201801N004119999999N0200001N9+01781+01111102121ADDAY111999GF106991021081012501031061KA1999M+01781MW1021
0043065900999991951061200004+49617+006200FM-12+038099999V0201601N00411220001CN0140001N9+01281+01221102241ADDAY111999GF101991011051017501001001MW1021
0056065900999991951061206004+49617+006200FM-12+038099999V0201401N00311220001CN0080001N9+01281+01221102071ADDAY111999GF104991001001999999031061KA1999N+01111MW1051
0043065900999991951061212004+49617+006200FM-12+038099999V0202501N00511007801CN0140001N9+01721+01611101841ADDAY181999GF107991071031008001999999MW1801
0056065900999991951061218004+49617+006200FM-12+038099999V0202701N002619999999N0160001N9+01501+01391101781ADDAY191999GF107991041091008001031031KA1999M+02001MW1251
