0043065900999991956010100004+49617+006200FM-12+038099999V0202801N00361015001CN0080001N9+00221+00111101881ADDAY181999GF107991071051017501999999MW1051
0056065900999991956010106004+49617+006200FM-12+038099999V0202601N00411001501CN0025001N9+00111+00001101801ADDAY171999GF108991081061001501999999KA1999N+00001MW1051
0043065900999991956010112004+49617+006200FM-12+038099999V0202401N00771000601CN0035001N9+00221+00111101111ADDAY151999GF108991071071000751999999MW1611
0056065900999991956010118004+49617+006200FM-12+038099999V0202301N00931001501CN0050001N9+00221+00221099991ADDAY161999GF108991081071001501999999KA1999M+00221MW1611
0043065900999991956010200004+49617+006200FM-12+038099999V0202601N00511001501CN0080001N9+00281+00281099841ADDAY161999GF108991081071001501999999MW1601
0056065900999991956010206004+49617+006200FM-12+038099999V0202901N00311012301CN0080001N9+00391+00281100271ADDAY161999GF107991051051012501031061KA1999N+00221MW1051
0043065900999991956010212004+49617+006200FM-12+038099999V0203501N00721002401CN0180001N9+00281+00111101071ADDAY181999GF107991051081002501031061MW1251
0056065900999991956010218004+49617+006200FM-12+038099999V0200201N00621004501CN0070001N9+00111-00221101851ADDAY121999GF108991081051004501999999KA1999M+00501MW1051
0043065900999991956010300004+49617+006200FM-12+038099999V0200201N00621220001CN0080001N9-00221-00501102421ADDAY111999GF101991011051017501001001MW1051
0056065900999991956010306004+49617+006200FM-12+038099999V0200301N00621220001CN0070001N9-00391-00501102751ADDAY101999GF100991001001999999001001KA1999N-00391MW1051
0043065900999991956010312004+49617+006200FM-12+038099999V0200301N00511007801CN0050001N9-00221-00391103091ADDAY111999GF107991071051008001999999MW1051
0056065900999991956010318004+49617+006200FM-12+038099999V0200501N00411220001CN0040001N9-00221-00281103331ADDAY111999GF100991001001999999001001KA1999M+00001MW1051
0043065900999991956010400004+49617+006200FM-12+038099999V0200401N00361220001CN0050001N9-00221-00281103491ADDAY101999GF100991001001999999001001MW1051
0056065900999991956010406004+49617+006200FM-12+038099999V0200501N00461220001CN0040001N9-00281-00391103511ADDAY101999GF100991001001999999001001KA1999N-00281MW1051
0043065900999991956010412004+49617+006200FM-12+038099999V0200501N00461220001CN0050001N9+00111-00391103421ADDAY101999GF101991001001999999001011MW1051
0056065900999991956010418004+49617+006200FM-12+038099999V0200401N00411220001CN0080001N9+00001-00501103431ADDAY101999GF100991001001999999001001KA1999M+00221MW1051
0043065900999991956010500004+49617+006200FM-12+038099999V0200501N00411220001CN0080001N9+00001-00721103351ADDAY101999GF100991001001999999001001MW1051
0056065900999991956010506004+49617+006200FM-12+038099999V0200501N00361220001CN0080001N9+00111-00391103201ADDAY111999GF102991011001999999031011KA1999N-00111MW1051
0043065900999991956010512004+49617+006200FM-12+038099999V0200401N00571004501CN0060001N9+00391+00111103131ADDAY111999GF108991081051004501999999MW1051
0056065900999991956010518004+49617+006200FM-12+038099999V0200501N00511220001CN0060001N9+00501+00391102921ADDAY111999GF100991001001999999001001KA1999M+00611MW1051
0043065900999991956010600004+49617+006200FM-12+038099999V0200401N00571000151CN0003001N9+00111+00111102861ADDAY111999GF108991081061000251999999MW1461
0056065900999991956010606004+49617+006200FM-12+038099999V0200501N00411000151CN0000001N9+00001+00001102721ADDAY141999GF109991091999000251999999KA1999N+00001MW1451
0043065900999991956010612004+49617+006200FM-12+038099999V0200501N00461000151CN0001001N9+00111+00111102601ADDAY141999GF109991091999000251999999MW1451
0056065900999991956010618004+49617+006200FM-12+038099999V0200501N00411000151CN0003001N9+00001+00001102531ADDAY141999GF109991091999000251999999KA1999M+00111MW1431
0043065900999991956010700004+49617+006200FM-12+038099999V0200501N00361000151CN0002001N9+00001+00001102471ADDAY141999GF109991091999000251999999MW1451
0056065900999991956010706004+49617+006200FM-12+038099999V0200501N00361220001CN0070001N9-00221-00281102311ADDAY141999GF100991001001999999001001KA1999N-00221MW1051
0043065900999991956010712004+49617+006200FM-12+038099999V0200501N00311004501CN0050001N9-00111-00391102101ADDAY111999GF105991051051004501001001MW1051
0056065900999991956010718004+49617+006200FM-12+038099999V0202701N00051220001CN0030001N9-00281-00391101761ADDAY111999GF100991001001999999001001KA1999M+00001MW1051
0043065900999991956010800004+49617+006200FM-12+038099999V0202001N00211002401CN0025001N9-00221-00391101391ADDAY111999GF108991081061002501999999MW1051
0056065900999991956010806004+49617+006200FM-12+038099999V0202401N00311002401CN0030001N9-00281-00501100921ADDAY121999GF108991081061002501999999KA1999N-00391MW1051
0043065900999991956010812004+49617+006200FM-12+038099999V0202101N00461002401CN0015001N9-00221-00281100441ADDAY171999GF108991071071002501999999MW1711
0056065900999991956010818004+49617+006200FM-12+038099999V0201801N00411001501CN0012001N9-00281-00281100101ADDAY171999GF108991071071001501999999KA1999M-00221MW1711
0043065900999991956010900004+49617+006200FM-12+038099999V0201301N00261000151CN0003001N9-00281-00281099801ADDAY171999GF108991081071000251999999MW1481
0056065900999991956010906004+49617+006200FM-12+038099999V0201701N00461001501CN0020001N9-00221-00221099481ADDAY171999GF108991081071001501999999KA1999N-00281MW1711
0043065900999991956010912004+49617+006200FM-12+038099999V0202301N00621004501CN0050001N9-00221-00281099631ADDAY171999GF108991071051004501999999MW1051
0056065900999991956010918004+49617+006200FM-12+038099999V0202001N00721002401CN0060001N9-00111-00281099701ADDAY171999GF108991071061002501999999KA1999M-00111MW1221
0043065900999991956011000004+49617+006200FM-12+038099999V0202401N00771004501CN0080001N9-00221-00281099991ADDAY171999GF108991081051004501999999MW1051
0056065900999991956011006004+49617+006200FM-12+038099999V0201701N00361004501CN0060001N9-00281-00391099971ADDAY121999GF108991081051004501999999KA1999N-00281MW1051
0043065900999991956011012004+49617+006200FM-12+038099999V0201801N005719999999N0090001N9-00221-00501099751ADDAY121999GF106991041061002501001061MW1051
0056065900999991956011018004+49617+006200FM-12+038099999V0201601N00871001501CN0008001N9-00221-00221099471ADDAY171999GF108991081071001501999999KA1999M-00111MW1731
0043065900999991956011100004+49617+006200FM-12+038099999V0202001N00621001501CN0050001N9+00001+00001099721ADDAY171999GF108991081071001501999999MW1221
0056065900999991956011106004+49617+006200FM-12+038099999V0201901N00771004501CN0080001N9+00111+00001099861ADDAY161999GF108991081051004501999999KA1999N-00221MW1051
0043065900999991956011112004+49617+006200FM-12+038099999V0202201N00771002401CN0160001N9+00391+00281100141ADDAY181999GF106991061081002501999999MW1251
0056065900999991956011118004+49617+006200FM-12+038099999V0202301N00721004501CN0040001N9+00501+00391100561ADDAY181999GF108991081031004501999999KA1999M+00611MW1811
0043065900999991956011200004+49617+006200FM-12+038099999V0202101N00571012301CN0090001N9+00611+00391100671ADDAY181999GF108991061051012501021999MW1611
0056065900999991956011206004+49617+006200FM-12+038099999V0201801N00361220001CN0080001N9+00281+00111100601ADDAY161999GF102991021051017501001001KA1999N+00281MW1051
0043065900999991956011212004+49617+006200FM-12+038099999V0201901N00621024001CN0120001N9+00721+00281100341ADDAY111999GF108991081001999999071999MW1211
0056065900999991956011218004+49617+006200FM-12+038099999V0202201N01031007801CN0200001N9+00781+00281100171ADDAY181999GF107991071081008001999999KA1999M+00891MW1251
0043065900999991956011300004+49617+006200FM-12+038099999V0202601N00621220001CN0250001N9+00391+00111101071ADDAY181999GF102991021081008001001001MW1011
0056065900999991956011306004+49617+006200FM-12+038099999V0202501N00361004501CN0150001N9+00281+00221101291ADDAY111999GF108991081081004501999999KA1999N+00281MW1021
0043065900999991956011312004+49617+006200FM-12+038099999V0202501N00151002401CN0040001N9+00391+00221101621ADDAY121999GF107991071081002501999999MW1051
0056065900999991956011318004+49617+006200FM-12+038099999V0203101N00051220001CN0080001N9+00221+00001101781ADDAY111999GF102991021051008001001001KA1999M+00501MW1051
0043065900999991956011400004+49617+006200FM-12+038099999V0202301N00101220001CN0022001N9+00001+00001101951ADDAY101999GF103991031051004501001001MW1051
0056065900999991956011406004+49617+006200FM-12+038099999V0200901N00261220001CN0022001N9-00221-00221101741ADDAY141999GF100991001001999999001001KA1999N-00221MW1051
0043065900999991956011412004+49617+006200FM-12+038099999V0201301N00211007801CN0030001N9+00111-00111101441ADDAY111999GF108991081051008001999999MW1051
0056065900999991956011418004+49617+006200FM-12+038099999V0202101N002619999999N0020001N9+00111+00111101271ADDAY121999GF108991021061004501999999KA1999M+00221MW1051
0043065900999991956011500004+49617+006200FM-12+038099999V0201801N00311000151CN0004001N9+00221+00221101051ADDAY141999GF109991091999000251999999MW1451
0056065900999991956011506004+49617+006200FM-12+038099999V0202101N005719999999N0060001N9+00391+00281100841ADDAY161999GF108991041071004501999999KA1999N+00111MW1601
0043065900999991956011512004+49617+006200FM-12+038099999V0202401N00931004501CN0220001N9+00611+00221100971ADDAY161999GF107991071081004501999999MW1021
0056065900999991956011518004+49617+006200FM-12+038099999V0202601N00721004501CN0080001N9+00391+00001101271ADDAY181999GF106991061081004501999999KA1999M+00611MW1251
0043065900999991956011600004+49617+006200FM-12+038099999V0202501N00361220001CN0090001N9+00221+00001101581ADDAY111999GF102991021051008001001001MW1051
0056065900999991956011606004+49617+006200FM-12+038099999V0202601N00361007801CN0060001N9+00001+00001101811ADDAY111999GF107991071051008001999999KA1999N+00001MW1051
0043065900999991956011612004+49617+006200FM-12+038099999V0202501N00461002401CN0024001N9+00221+00111102071ADDAY171999GF107991061071002501999999MW1211
0056065900999991956011618004+49617+006200FM-12+038099999V0202501N00261004501CN0030001N9+00221+00111102121ADDAY121999GF107991071081004501999999KA1999M+00391MW1051
0043065900999991956011700004+49617+006200FM-12+038099999V0202301N00101007801CN0040001N9+00111+00001102051ADDAY111999GF106991061051008001999999MW1051
0056065900999991956011706004+49617+006200FM-12+038099999V0202401N00151007801CN0030001N9+00001-00221101921ADDAY121999GF107991071051008001999999KA1999N+00001MW1051
0043065900999991956011712004+49617+006200FM-12+038099999V0202401N00311220001CN0020001N9+00391-00221101791ADDAY111999GF104991031051012501031061MW1051
0056065900999991956011718004+49617+006200FM-12+038099999V0201801N00211220001CN0018001N9+00001-00111101481ADDAY111999GF104991001001999999001061KA1999M+00391MW1101
0043065900999991956011800004+49617+006200FM-12+038099999V0201401N002119999999N0020001N9+00001-00111100951ADDAY111999GF107991021061001501031061MW1051
0056065900999991956011806004+49617+006200FM-12+038099999V0202001N00211000601CN0012001N9+00001-00111100301ADDAY161999GF108991081071000751999999KA1999N-00111MW1661
0043065900999991956011812004+49617+006200FM-12+038099999V0202401N00671000151CN0005001N9+00221+00221100181ADDAY161999GF108991081071000251999999MW1461
0056065900999991956011818004+49617+006200FM-12+038099999V0203101N00511012301CN0060001N9+00111+00111100641ADDAY161999GF108991081051012501999999KA1999M+00221MW1701
0043065900999991956011900004+49617+006200FM-12+038099999V0202701N00151220001CN0140001N9-00221-00221101271ADDAY171999GF101991011051004501001001MW1021
0056065900999991956011906004+49617+006200FM-12+038099999V0202701N00261220001CN0040001N9-00391-00501101561ADDAY101999GF100991001001999999001001KA1999N-00391MW1051
0043065900999991956011912004+49617+006200FM-12+038099999V0202401N00511220001CN0030001N9+00001-00501101701ADDAY101999GF103991031051008001001001MW1051
0056065900999991956011918004+49617+006200FM-12+038099999V0202401N00511220001CN0026001N9+00001-00281101731ADDAY111999GF103991031051008001001001KA1999M+00111MW1051
0043065900999991956012000004+49617+006200FM-12+038099999V0202401N007719999999N0070001N9+00001-00281101811ADDAY111999GF108991031051004501999999MW1051
0056065900999991956012006004+49617+006200FM-12+038099999V0202501N00511000151CN0012001N9+00001+00001101831ADDAY171999GF108991081071000251999999KA1999N-00111MW1661
0043065900999991956012012004+49617+006200FM-12+038099999V0202401N00571000601CN0008001N9+00111+00111101921ADDAY161999GF108991081071000751999999MW1501
0056065900999991956012018004+49617+006200FM-12+038099999V0202401N00771002401CN0080001N9+00221+00111101641ADDAY151999GF108991071051002501999999KA1999M+00281MW1051
0043065900999991956012100004+49617+006200FM-12+038099999V0202401N01081004501CN0140001N9+00111-00111101331ADDAY121999GF107991061061004501999999MW1021
0056065900999991956012106004+49617+006200FM-12+038099999V0202401N00981000601CN0035001N9+00111+00001101301ADDAY171999GF108991081071000751999999KA1999N+00111MW1611
0043065900999991956012112004+49617+006200FM-12+038099999V0202401N00571001501CN0050001N9+00281+00221101721ADDAY161999GF107991051071001501999999MW1051
0056065900999991956012118004+49617+006200FM-12+038099999V0202201N00621000151CN0006001N9+00221+00221101691ADDAY161999GF108991081071000251999999KA1999M+00501MW1501
0043065900999991956012200004+49617+006200FM-12+038099999V0202401N01131000151CN0022001N9+00391+00391101381ADDAY161999GF108991081071000251999999MW1611
0056065900999991956012206004+49617+006200FM-12+038099999V0202401N012319999999N0080001N9+00391+00281101221ADDAY161999GF108991041071001501999999KA1999N+00221MW1601
0043065900999991956012212004+49617+006200FM-12+038099999V0202401N00931001501CN0026001N9+00501+00391101361ADDAY161999GF108991071071001501999999MW1621
0056065900999991956012218004+49617+006200FM-12+038099999V0203001N001019999999N0018001N9+00001+00001101701ADDAY161999GF108991021071001501021999KA1999M+00501MW1711
0043065900999991956012300004+49617+006200FM-12+038099999V0202401N00721001501CN0050001N9+00391+00391101681ADDAY171999GF108991081071001501999999MW1211
0056065900999991956012306004+49617+006200FM-12+038099999V0202301N00721002401CN0120001N9+00391+00281101411ADDAY161999GF108991081081002501999999KA1999N+00001MW1251
0043065900999991956012312004+49617+006200FM-12+038099999V0202301N01031001501CN0070001N9+00501+00281101141ADDAY161999GF108991071071001501999999MW1611
0056065900999991956012318004+49617+006200FM-12+038099999V0202301N00871002401CN0070001N9+00391+00281100881ADDAY161999GF108991051071002501999999KA1999M+00501MW1611
0043065900999991956012400004+49617+006200FM-12+038099999V0202301N00721002401CN0060001N9+00391+00391100291ADDAY161999GF108991071071002501999999MW1631
0056065900999991956012406004+49617+006200FM-12+038099999V0203201N00571002401CN0140001N9+00111+00001100881ADDAY161999GF107991071081002501999999KA1999N+00111MW1261
0043065900999991956012412004+49617+006200FM-12+038099999V0202701N00671004501CN0040001N9+00111-00281101481ADDAY181999GF106991061081004501999999MW1051
0056065900999991956012418004+49617+006200FM-12+038099999V0202701N00461220001CN0080001N9-00111-00221101501ADDAY181999GF104991041081008001001001KA1999M+00111MW1051
0043065900999991956012500004+49617+006200FM-12+038099999V0202601N00511002401CN0100001N9+00001-00111101601ADDAY181999GF107991071081002501999999MW1261
0056065900999991956012506004+49617+006200FM-12+038099999V0202601N00411220001CN0050001N9-00221-00281101881ADDAY181999GF101991011051008001001001KA1999N-00221MW1051
0043065900999991956012512004+49617+006200FM-12+038099999V0202601N00571004501CN0060001N9+00111-00281102201ADDAY111999GF106991061081004501999999MW1051
0056065900999991956012518004+49617+006200FM-12+038099999V0202701N00101220001CN0050001N9-00111-00281102461ADDAY181999GF101991001001999999001051KA1999M+00111MW1051
0043065900999991956012600004+49617+006200FM-12+038099999V0201501N00101220001CN0040001N9-00281-00391102641ADDAY101999GF101991001001999999001061MW1051
0056065900999991956012606004+49617+006200FM-12+038099999V0201001N00311220001CN0020001N9-00391-00501102471ADDAY101999GF104991001001999999001061KA1999N-00501MW1051
0043065900999991956012612004+49617+006200FM-12+038099999V0201401N00511024001CN0025001N9-00221-00391102131ADDAY111999GF108991081001999999071999MW1701
0056065900999991956012618004+49617+006200FM-12+038099999V0202001N00511000601CN0006001N9+00001+00001101361ADDAY171999GF108991081071000751999999KA1999M+00001MW1661
0043065900999991956012700004+49617+006200FM-12+038099999V0202601N00411000601CN0010001N9+00611+00611101171ADDAY161999GF108991081071000751999999MW1281
0056065900999991956012706004+49617+006200FM-12+038099999V0202901N00511004501CN0140001N9+00611+00501101231ADDAY161999GF107991071081004501999999KA1999N+00001MW1251
0043065900999991956012712004+49617+006200FM-12+038099999V0202901N00771002401CN0100001N9+00721+00391101501ADDAY181999GF107991071081002501999999MW1211
0056065900999991956012718004+49617+006200FM-12+038099999V0203201N00461004501CN0060001N9+00221-00111102241ADDAY121999GF108991081051004501999999KA1999M+00721MW1051
0043065900999991956012800004+49617+006200FM-12+038099999V0200901N00461004501CN0050001N9+00001-00221102811ADDAY121999GF108991081051004501999999MW1051
0056065900999991956012806004+49617+006200FM-12+038099999V0201001N00461004501CN0050001N9+00001-00281102901ADDAY121999GF108991081061004501999999KA1999N-00111MW1051
0043065900999991956012812004+49617+006200FM-12+038099999V0201101N00461004501CN0040001N9+00111-00221102961ADDAY121999GF107991061051004501999999MW1051
0056065900999991956012818004+49617+006200FM-12+038099999V0201701N00101004501CN0045001N9+00111-00111102771ADDAY121999GF108991071051004501999999KA1999M+00221MW1051
0043065900999991956012900004+49617+006200FM-12+038099999V0201201N00151024001CN0014001N9+00001-00111102591ADDAY121999GF107991071001999999031999MW1101
0056065900999991956012906004+49617+006200FM-12+038099999V0201201N00311000601CN0010001N9+00001-00111102381ADDAY161999GF108991071071000751999999KA1999N-00111MW1501
0043065900999991956012912004+49617+006200FM-12+038099999V0201201N00261000151CN0002001N9+00111+00111102241ADDAY161999GF108991081071000251999999MW1461
0056065900999991956012918004+49617+006200FM-12+038099999V0201101N00261000151CN0000001N9+00221+00221101891ADDAY151999GF108991081071000251999999KA1999M+00221MW1611
0043065900999991956013000004+49617+006200FM-12+038099999V0209991V00101000151CN0003001N9+00221+00221101471ADDAY161999GF108991081071000251999999MW1631
0056065900999991956013006004+49617+006200FM-12+038099999V0202701N00461002401CN0050001N9+00391+00281101511ADDAY161999GF106991061071002501999999KA1999N+00221MW1051
0043065900999991956013012004+49617+006200FM-12+038099999V0202901N00461004501CN0100001N9+00611+00221101641ADDAY121999GF107991071081004501999999MW1031
0056065900999991956013018004+49617+006200FM-12+038099999V0202701N00051007801CN0040001N9+00391+00391101421ADDAY121999GF107991071051008001999999KA1999M+00611MW1051
0043065900999991956013100004+49617+006200FM-12+038099999V0201001N00511001501CN0018001N9-00281-00391101301ADDAY151999GF108991081061001501999999MW1101
0056065900999991956013106004+49617+006200FM-12+038099999V0201601N00721007801CN0100001N9-00611-00781101031ADDAY121999GF108991071051008001999999KA1999N-00611MW1021
0043065900999991956013112004+49617+006200FM-12+038099999V0200601N00771007801CN0040001N9-00781-01391101031ADDAY171999GF107991071051008001999999MW1701
0056065900999991956013118004+49617+006200FM-12+038099999V0200601N01131220001CN0060001N9-01111-01721101281ADDAY171999GF101991011051017501001001KA1999M-00611MW1051
0043065900999991956020100004+49617+006200FM-12+038099999V0200401N00821220001CN0070001N9-01721-02111101741ADDAY101999GF100991001001999999001001MW1051
0056065900999991956020106004+49617+006200FM-12+038099999V0200501N00871220001CN0070001N9-01891-02281102121ADDAY101999GF100991001001999999001001KA1999N-01891MW1051
0043065900999991956020112004+49617+006200FM-12+038099999V0200401N00771220001CN0070001N9-01611-02221102311ADDAY101999GF100991001001999999001001MW1051
0056065900999991956020118004+49617+006200FM-12+038099999V0200401N00771220001CN0100001N9-01611-02221102491ADDAY101999GF100991001001999999001001KA1999M-01391MW1011
0043065900999991956020200004+49617+006200FM-12+038099999V0200501N00821220001CN0100001N9-01781-02391102751ADDAY101999GF100991001001999999001001MW1021
0056065900999991956020206004+49617+006200FM-12+038099999V0200501N00621220001CN0080001N9-02001-02391103041ADDAY171999GF100991001001999999001001KA1999N-02001MW1051
0043065900999991956020212004+49617+006200FM-12+038099999V0200401N00771220001CN0080001N9-01391-02001103111ADDAY101999GF101991011011004501031001MW1051
0056065900999991956020218004+49617+006200FM-12+038099999V0200401N00671220001CN0180001N9-01221-01891103351ADDAY101999GF101991001001999999001011KA1999M-01221MW1021
0043065900999991956020300004+49617+006200FM-12+038099999V0200301N00461220001CN0120001N9-01221-01611103491ADDAY101999GF100991001001999999001001MW1021
0056065900999991956020306004+49617+006200FM-12+038099999V0200201N00511004501CN0050001N9-00891-01111103391ADDAY111999GF107991051051004501031999KA1999N-01221MW1051
0043065900999991956020312004+49617+006200FM-12+038099999V0200301N00671004501CN0040001N9-00391-00721103451ADDAY171999GF107991071081004501999999MW1051
0056065900999991956020318004+49617+006200FM-12+038099999V0200301N004119999999N0030001N9-00391-00721103521ADDAY181999GF107991041051008001031999KA1999M-00281MW1051
0043065900999991956020400004+49617+006200FM-12+038099999V0200401N00361007801CN0080001N9-00391-00721103541ADDAY171999GF106991061051008001999999MW1051
0056065900999991956020406004+49617+006200FM-12+038099999V0203601N003619999999N0050001N9-00611-00781103581ADDAY111999GF107991041051008001999999KA1999N-00611MW1701
0043065900999991956020412004+49617+006200FM-12+038099999V0200401N00261004501CN0060001N9-00391-01001103711ADDAY171999GF106991061021004501999999MW1851
0056065900999991956020418004+49617+006200FM-12+038099999V0200401N00261220001CN0120001N9-00611-01111103901ADDAY181999GF100991001001999999001001KA1999M-00281MW1011
0043065900999991956020500004+49617+006200FM-12+038099999V0200301N00361220001CN0100001N9-00781-01001103991ADDAY101999GF100991001001999999001001MW1021
0056065900999991956020506004+49617+006200FM-12+038099999V0203001N00051024001CN0040001N9-00891-01001103901ADDAY111999GF107991071001999999031999KA1999N-00891MW1051
0043065900999991956020512004+49617+006200FM-12+038099999V0202001N00311000151CN0006001N9-00611-00721103791ADDAY171999GF109991091999000251999999MW1731
0056065900999991956020518004+49617+006200FM-12+038099999V0202101N00261002401CN0020001N9-00611-00721103551ADDAY171999GF108991071071002501999999KA1999M-00611MW1221
0043065900999991956020600004+49617+006200FM-12+038099999V0201801N00151001501CN0020001N9-00611-00721103481ADDAY171999GF108991071071001501999999MW1051
0056065900999991956020606004+49617+006200FM-12+038099999V0202101N00051002401CN0020001N9-00611-00611103341ADDAY121999GF108991081061002501999999KA1999N-00611MW1051
0043065900999991956020612004+49617+006200FM-12+038099999V0203001N00151004501CN0012001N9-00391-00501103191ADDAY121999GF108991081051004501999999MW1101
0056065900999991956020618004+49617+006200FM-12+038099999V0200201N00261002401CN0025001N9-00281-00391103111ADDAY121999GF106991061061002501999999KA1999M-00221MW1051
0043065900999991956020700004+49617+006200FM-12+038099999V0203501N00151220001CN0028001N9-00611-00721103361ADDAY111999GF102991021051004501001001MW1051
0056065900999991956020706004+49617+006200FM-12+038099999V0200101N00461220001CN0050001N9-00721-00891103521ADDAY101999GF102991021051004501001001KA1999N-00721MW1051
0043065900999991956020712004+49617+006200FM-12+038099999V0200201N00461220001CN0050001N9-00391-00891103691ADDAY111999GF102991021081008001001001MW1051
0056065900999991956020718004+49617+006200FM-12+038099999V0200101N001519999999N0040001N9-00501-01001103701ADDAY111999GF106991031051012501031999KA1999M-00281MW1051
0043065900999991956020800004+49617+006200FM-12+038099999V0200301N00051220001CN0030001N9-00891-01001103701ADDAY111999GF100991001001999999001001MW1051
0056065900999991956020806004+49617+006200FM-12+038099999V0203001N00051220001CN0020001N9-00781-01001103381ADDAY101999GF104991041001999999031001KA1999N-01111MW1051
0043065900999991956020812004+49617+006200FM-12+038099999V0202701N00571015001CN0030001N9-00391-00891102781ADDAY111999GF107991051051017501071999MW1051
0056065900999991956020818004+49617+006200FM-12+038099999V0202901N00311001501CN0010001N9-00391-00391102191ADDAY171999GF107991051071001501999999KA1999M-00391MW1711
0043065900999991956020900004+49617+006200FM-12+038099999V0203501N00261007801CN0040001N9-00111-00501101961ADDAY121999GF108991081051008001999999MW1051
0056065900999991956020906004+49617+006200FM-12+038099999V0200501N00771220001CN0200001N9-00781-01391102241ADDAY171999GF101991011081008001001001KA1999N-00781MW1011
0043065900999991956020912004+49617+006200FM-12+038099999V0200601N00931220001CN0200001N9-01221-01891102681ADDAY181999GF103991031011008001001001MW1021
0056065900999991956020918004+49617+006200FM-12+038099999V0200401N00821220001CN0080001N9-01281-01891102671ADDAY101999GF103991031051008001001001KA1999M-00781MW1051
0043065900999991956021000004+49617+006200FM-12+038099999V0200501N00771220001CN0090001N9-01611-02221102881ADDAY101999GF100991001001999999001001MW1051
0056065900999991956021006004+49617+006200FM-12+038099999V0200501N00621220001CN0090001N9-01721-02111102731ADDAY101999GF100991001001999999001001KA1999N-01721MW1051
0043065900999991956021012004+49617+006200FM-12+038099999V0200501N01031220001CN0080001N9-01001-01501102451ADDAY101999GF103991031081004501001001MW1051
0056065900999991956021018004+49617+006200FM-12+038099999V0200601N00771002401CN0030001N9-01001-01391102181ADDAY181999GF107991071081002501999999KA1999M-00891MW1851
0043065900999991956021100004+49617+006200FM-12+038099999V0200401N00821220001CN0100001N9-01221-01721102111ADDAY181999GF101991011051008001001001MW1261
0056065900999991956021106004+49617+006200FM-12+038099999V0200401N00981220001CN0100001N9-01501-02001101941ADDAY101999GF100991001001999999001001KA1999N-01501MW1021
0043065900999991956021112004+49617+006200FM-12+038099999V0200401N01031220001CN0180001N9-01221-01891101631ADDAY101999GF100991001001999999001001MW1021
0056065900999991956021118004+49617+006200FM-12+038099999V0200401N01031220001CN0120001N9-01001-01891101401ADDAY101999GF101991001001999999001051KA1999M-00891MW1021
0043065900999991956021200004+49617+006200FM-12+038099999V0200401N00871220001CN0120001N9-01391-02111101421ADDAY101999GF100991001001999999001001MW1021
0056065900999991956021206004+49617+006200FM-12+038099999V0200401N00671220001CN0120001N9-01611-02111101381ADDAY111999GF102991021001999999031001KA1999N-01611MW1021
0043065900999991956021212004+49617+006200FM-12+038099999V0200401N00821012301CN0140001N9-01001-01721101341ADDAY111999GF107991071051012501999999MW1031
0056065900999991956021218004+49617+006200FM-12+038099999V0203501N00211007801CN0080001N9-00781-01281101141ADDAY171999GF107991071051008001999999KA1999M-00781MW1701
0043065900999991956021300004+49617+006200FM-12+038099999V0202501N00261004501CN0040001N9-00891-01111100751ADDAY171999GF108991071051004501999999MW1051
0056065900999991956021306004+49617+006200FM-12+038099999V0201401N00311000151CN0010001N9-01001-01221100181ADDAY171999GF109991091999000251999999KA1999N-01001MW1711
0043065900999991956021312004+49617+006200FM-12+038099999V0200701N002619999999N0035001N9-00721-01111100191ADDAY171999GF105991011081004501031061MW1711
0056065900999991956021318004+49617+006200FM-12+038099999V0200201N00311220001CN0100001N9-00891-01501100411ADDAY181999GF103991031051008001001001KA1999M-00611MW1021
0043065900999991956021400004+49617+006200FM-12+038099999V0203501N00211220001CN0040001N9-01221-01501100771ADDAY101999GF100991001001999999001001MW1051
0056065900999991956021406004+49617+006200FM-12+038099999V0209991V00151220001CN0015001N9-01501-01721100981ADDAY101999GF101991011051008001001001KA1999N-01611MW1101
0043065900999991956021412004+49617+006200FM-12+038099999V0202801N00411007801CN0045001N9-00721-01001100981ADDAY171999GF107991071051008001999999MW1221
0056065900999991956021418004+49617+006200FM-12+038099999V0203301N00311024001CN0060001N9-00781-01281101041ADDAY181999GF107991071001999999011999KA1999M-00721MW1701
0043065900999991956021500004+49617+006200FM-12+038099999V0202601N00571024001CN0050001N9-01001-01111101051ADDAY171999GF107991071001999999011999MW1711
0056065900999991956021506004+49617+006200FM-12+038099999V0202601N00821007801CN0040001N9-00891-01001100761ADDAY171999GF108991081001008001021999KA1999N-01001MW1711
0043065900999991956021512004+49617+006200FM-12+038099999V0202601N004119999999N0040001N9-00501-00721100781ADDAY171999GF108991041071002501021999MW1701
0056065900999991956021518004+49617+006200FM-12+038099999V0203101N004119999999N0080001N9-00611-01001101011ADDAY171999GF108991011021004501021999KA1999M-00281MW1051
0043065900999991956021600004+49617+006200FM-12+038099999V0200401N00261004501CN0100001N9-01001-01281101341ADDAY121999GF107991071051004501999999MW1021
0056065900999991956021606004+49617+006200FM-12+038099999V0200401N00361001501CN0050001N9-01501-01721101551ADDAY171999GF105991051061001501001001KA1999N-01501MW1051
0043065900999991956021612004+49617+006200FM-12+038099999V0200601N00051220001CN0045001N9-00721-01111101551ADDAY141999GF103991001001999999001061MW1051
0056065900999991956021618004+49617+006200FM-12+038099999V0200601N00211220001CN0035001N9-01001-01391101661ADDAY101999GF100991001001999999001001KA1999M-00611MW1051
0043065900999991956021700004+49617+006200FM-12+038099999V0200601N00211220001CN0040001N9-01281-01391101821ADDAY101999GF100991001001999999001001MW1051
0056065900999991956021706004+49617+006200FM-12+038099999V0200201N00311220001CN0018001N9-01281-01501101821ADDAY101999GF100991001001999999001001KA1999N-01501MW1101
0043065900999991956021712004+49617+006200FM-12+038099999V0200301N00361220001CN0022001N9-01111-01221101831ADDAY101999GF102991021051004501001001MW1051
0056065900999991956021718004+49617+006200FM-12+038099999V0200201N00361220001CN0026001N9-00781-01221101801ADDAY101999GF100991001001999999001001KA1999M-00721MW1051
0043065900999991956021800004+49617+006200FM-12+038099999V0200201N00411220001CN0028001N9-01111-01501101881ADDAY101999GF100991001001999999001001MW1051
0056065900999991956021806004+49617+006200FM-12+038099999V0200101N00311012301CN0018001N9-01111-01391101711ADDAY111999GF106991061051012501999999KA1999N-01221MW1101
0043065900999991956021812004+49617+006200FM-12+038099999V0200401N00571220001CN0030001N9-00781-01221101481ADDAY171999GF102991021011004501001001MW1051
0056065900999991956021818004+49617+006200FM-12+038099999V0200401N00461007801CN0030001N9-00781-01221101431ADDAY181999GF107991071051008001999999KA1999M-00721MW1701
0043065900999991956021900004+49617+006200FM-12+038099999V0200101N00511220001CN0030001N9-01221-01501101381ADDAY171999GF100991001001999999001001MW1051
0056065900999991956021906004+49617+006200FM-12+038099999V0200201N00511220001CN0040001N9-01391-01721101301ADDAY111999GF100991001001999999001001KA1999N-01391MW1051
0043065900999991956021912004+49617+006200FM-12+038099999V0200201N00621024001CN0028001N9-01001-01501101211ADDAY111999GF107991071001999999031999MW1051
0056065900999991956021918004+49617+006200FM-12+038099999V0203201N002619999999N0028001N9-01001-01391101221ADDAY111999GF106991021001999999031061KA1999M-01001MW1051
0043065900999991956022000004+49617+006200FM-12+038099999V0203001N00151220001CN0018001N9-01281-01501101461ADDAY171999GF106991001001999999001061MW1101
0056065900999991956022006004+49617+006200FM-12+038099999V0201001N00101000151CN0000001N9-01501-01721101621ADDAY141999GF109991091999000251999999KA1999N-01501MW1491
0043065900999991956022012004+49617+006200FM-12+038099999V0201601N00051002401CN0015001N9-01001-01221101661ADDAY171999GF106991061061002501999999MW1101
0056065900999991956022018004+49617+006200FM-12+038099999V0200501N00311220001CN0018001N9-01111-01501101561ADDAY111999GF100991001001999999001001KA1999M-00721MW1051
0043065900999991956022100004+49617+006200FM-12+038099999V0200401N00261220001CN0010001N9-01281-01501101601ADDAY101999GF100991001001999999001001MW1101
0056065900999991956022106004+49617+006200FM-12+038099999V0200401N00361220001CN0018001N9-01391-01611101471ADDAY101999GF100991001001999999001001KA1999N-01391MW1101
0043065900999991956022112004+49617+006200FM-12+038099999V0200601N00671220001CN0025001N9-00891-01281101401ADDAY101999GF100991001001999999001001MW1051
0056065900999991956022118004+49617+006200FM-12+038099999V0200501N00621220001CN0020001N9-00721-01221101391ADDAY101999GF100991001001999999001001KA1999M-00501MW1051
0043065900999991956022200004+49617+006200FM-12+038099999V0200401N00361220001CN0020001N9-01111-01391101551ADDAY101999GF100991001001999999001001MW1051
0056065900999991956022206004+49617+006200FM-12+038099999V0200501N00461220001CN0018001N9-01221-01391101441ADDAY101999GF100991001001999999001001KA1999N-01221MW1101
0043065900999991956022212004+49617+006200FM-12+038099999V0200501N00411220001CN0012001N9-00721-01001101411ADDAY101999GF100991001001999999001001MW1051
0056065900999991956022218004+49617+006200FM-12+038099999V0200401N00671220001CN0013001N9-00781-01111101411ADDAY101999GF100991001001999999001001KA1999M-00501MW1051
0043065900999991956022300004+49617+006200FM-12+038099999V0200301N00571220001CN0015001N9-01111-01391101651ADDAY111999GF102991021061004501001001MW1101
0056065900999991956022306004+49617+006200FM-12+038099999V0200401N00511004501CN0040001N9-01001-01221101681ADDAY111999GF108991081051004501999999KA1999N-01111MW1701
0043065900999991956022312004+49617+006200FM-12+038099999V0200401N00311220001CN0024001N9-00781-01111101801ADDAY171999GF100991001001999999001001MW1221
0056065900999991956022318004+49617+006200FM-12+038099999V0200301N00511220001CN0020001N9-00891-01281101821ADDAY111999GF104991041051008001001001KA1999M-00721MW1051
0043065900999991956022400004+49617+006200FM-12+038099999V0200401N00571220001CN0018001N9-01281-01611102101ADDAY101999GF100991001001999999001001MW1051
0056065900999991956022406004+49617+006200FM-12+038099999V0200501N00621220001CN0015001N9-01221-01391102181ADDAY101999GF100991001001999999001001KA1999N-01391MW1101
0043065900999991956022412004+49617+006200FM-12+038099999V0200601N00621220001CN0020001N9-00501-01001102231ADDAY101999GF100991001001999999001001MW1051
0056065900999991956022418004+49617+006200FM-12+038099999V0200501N00621220001CN0020001N9-00501-00891102301ADDAY101999GF100991001001999999001001KA1999M-00221MW1051
0043065900999991956022500004+49617+006200FM-12+038099999V0200501N00621220001CN0020001N9-00781-01111102401ADDAY101999GF100991001001999999001001MW1051
0056065900999991956022506004+49617+006200FM-12+038099999V0200401N00671220001CN0020001N9-01001-01221102371ADDAY101999GF100991001001999999001001KA1999N-01001MW1051
0043065900999991956022512004+49617+006200FM-12+038099999V0200401N00621220001CN0026001N9-00391-00891102321ADDAY101999GF100991001001999999001001MW1051
0056065900999991956022518004+49617+006200FM-12+038099999V0200401N00821220001CN0035001N9-00391-01281102211ADDAY101999GF100991001001999999001001KA1999M-00221MW1051
0043065900999991956022600004+49617+006200FM-12+038099999V0200301N00721220001CN0080001N9-00721-01391102241ADDAY101999GF100991001001999999001001MW1051
0056065900999991956022606004+49617+006200FM-12+038099999V0200501N00871220001CN0060001N9-01111-01391102241ADDAY101999GF100991001001999999001001KA1999N-01111MW1051
0043065900999991956022612004+49617+006200FM-12+038099999V0200601N00771220001CN0060001N9-00391-01111102191ADDAY101999GF100991001001999999001001MW1051
0056065900999991956022618004+49617+006200FM-12+038099999V0200501N00571220001CN0050001N9-00281-01111102161ADDAY101999GF100991001001999999001001KA1999M-00111MW1051
0043065900999991956022700004+49617+006200FM-12+038099999V0200501N00671220001CN0050001N9-00611-01111102361ADDAY101999GF100991001001999999001001MW1051
0056065900999991956022706004+49617+006200FM-12+038099999V0200401N00871220001CN0050001N9-00781-01221102401ADDAY101999GF100991001001999999001001KA1999N-00891MW1051
0043065900999991956022712004+49617+006200FM-12+038099999V0200301N00511220001CN0080001N9-00221-00781102521ADDAY101999GF101991001001999999001011MW1051
0056065900999991956022718004+49617+006200FM-12+038099999V0200301N00411220001CN0040001N9-00221-00611102631ADDAY101999GF102991001001999999001061KA1999M+00111MW1051
0043065900999991956022800004+49617+006200FM-12+038099999V0200301N00311220001CN0025001N9-00501-00611102851ADDAY101999GF100991001001999999001001MW1051
0056065900999991956022806004+49617+006200FM-12+038099999V0202901N00101000151CN0001001N9-00781-00781102841ADDAY141999GF109991091999000251999999KA1999N-00781MW1491
0043065900999991956022812004+49617+006200FM-12+038099999V0202501N00771001501CN0018001N9-00501-00501102761ADDAY141999GF107991071061001501999999MW1101
0056065900999991956022818004+49617+006200FM-12+038099999V0202401N00721000151CN0004001N9-00281-00281102661ADDAY171999GF108991081071000251999999KA1999M-00281MW1561
0043065900999991956022900004+49617+006200FM-12+038099999V0202601N00621000151CN0010001N9-00111-00111102801ADDAY161999GF108991081071000251999999MW1661
0056065900999991956022906004+49617+006200FM-12+038099999V0202301N00411000151CN0001001N9+00001+00001102751ADDAY161999GF108991081071000251999999KA1999N-00281MW1561
0043065900999991956022912004+49617+006200FM-12+038099999V0202401N00461000151CN0000001N9+00111+00111102721ADDAY161999GF108991081071000251999999MW1461
0056065900999991956022918004+49617+006200FM-12+038099999V0202401N00571000151CN0000001N9+00281+00281102351ADDAY161999GF108991081071000251999999KA1999M+00281MW1461
0043065900999991956030100004+49617+006200FM-12+038099999V0202401N01031001501CN0030001N9+00391+00391102191ADDAY161999GF108991081071001501999999MW1601
0056065900999991956030106004+49617+006200FM-12+038099999V0202901N00461220001CN0120001N9+00111+00001102571ADDAY161999GF102991011001999999031051KA1999N+00111MW1011
0043065900999991956030112004+49617+006200FM-12+038099999V0202701N00671004501CN0140001N9+00501+00001102721ADDAY111999GF107991071081004501999999MW1031
0056065900999991956030118004+49617+006200FM-12+038099999V0202501N006219999999N0050001N9+00501+00221102681ADDAY181999GF107991041051008001071999KA1999M+00611MW1051
0043065900999991956030200004+49617+006200FM-12+038099999V0202301N00981004501CN0080001N9+00501+00221102061ADDAY161999GF108991081051004501999999MW1601
0056065900999991956030206004+49617+006200FM-12+038099999V0202601N00871001501CN0030001N9+00611+00501101551ADDAY161999GF108991061071001501999999KA1999N+00391MW1611
0043065900999991956030212004+49617+006200FM-12+038099999V0202501N01031001501CN0028001N9+00721+00721101621ADDAY161999GF108991061071001501999999MW1501
0056065900999991956030218004+49617+006200FM-12+038099999V0202601N01181001501CN0030001N9+00781+00781101491ADDAY161999GF108991071071001501999999KA1999M+00781MW1581
0043065900999991956030300004+49617+006200FM-12+038099999V0202601N00931001501CN0090001N9+00781+00781101541ADDAY161999GF108991081071001501999999MW1611
0056065900999991956030306004+49617+006200FM-12+038099999V0202801N00511001501CN0080001N9+00721+00721101531ADDAY161999GF108991081071001501999999KA1999N+00721MW1631
0043065900999991956030312004+49617+006200FM-12+038099999V0202701N00721001501CN0040001N9+00781+00721101531ADDAY161999GF108991071071001501999999MW1501
0056065900999991956030318004+49617+006200FM-12+038099999V0202501N00671001501CN0040001N9+00721+00721101621ADDAY161999GF108991071071001501999999KA1999M+00781MW1611
0043065900999991956030400004+49617+006200FM-12+038099999V0202401N00821000601CN0030001N9+00611+00611101511ADDAY161999GF108991081071000751999999MW1511
0056065900999991956030406004+49617+006200FM-12+038099999V0202501N009819999999N0040001N9+00721+00611101121ADDAY161999GF108991041071000751999999KA1999N+00611MW1601
0043065900999991956030412004+49617+006200FM-12+038099999V0202501N01031001501CN0035001N9+00721+00611101011ADDAY161999GF108991081071001501999999MW1631
0056065900999991956030418004+49617+006200FM-12+038099999V0202901N00261220001CN0180001N9+00501-00281101601ADDAY161999GF104991021001999999041061KA1999M+00781MW1031
0043065900999991956030500004+49617+006200FM-12+038099999V0202701N00511220001CN0180001N9+00221-00111101551ADDAY101999GF100991001001999999001001MW1021
0056065900999991956030506004+49617+006200FM-12+038099999V0202901N00511007801CN0120001N9+00221-00221101791ADDAY111999GF107991071081008001999999KA1999N+00111MW1031
0043065900999991956030512004+49617+006200FM-12+038099999V0202901N00511004501CN0180001N9+00281-00501102361ADDAY181999GF105991051081004501001001MW1261
0056065900999991956030518004+49617+006200FM-12+038099999V0203101N00461220001CN0160001N9+00221-00501102731ADDAY181999GF102991021051012501001001KA1999M+00501MW1011
0043065900999991956030600004+49617+006200FM-12+038099999V0202601N00151220001CN0080001N9-00221-00391103041ADDAY101999GF100991001001999999001001MW1051
0056065900999991956030606004+49617+006200FM-12+038099999V0202301N00211220001CN0060001N9-00221-00391103001ADDAY101999GF102991021051008001001001KA1999N-00281MW1051
0043065900999991956030612004+49617+006200FM-12+038099999V0202501N008219999999N0140001N9+00501-00221102581ADDAY111999GF106991041021008001001061MW1031
0056065900999991956030618004+49617+006200FM-12+038099999V0202401N00571007801CN0090001N9+00391-00111102151ADDAY121999GF107991061051008001071999KA1999M+00611MW1051
0043065900999991956030700004+49617+006200FM-12+038099999V0202601N00671001501CN0050001N9+00281+00221101911ADDAY161999GF108991071071001501999999MW1201
0056065900999991956030706004+49617+006200FM-12+038099999V0202701N00461000601CN0013001N9+00281+00281101951ADDAY161999GF108991071071000751999999KA1999N+00281MW1101
0043065900999991956030712004+49617+006200FM-12+038099999V0203501N00671220001CN0220001N9+00391-00501102581ADDAY181999GF102991021011008001001001MW1011
0056065900999991956030718004+49617+006200FM-12+038099999V0200101N00511220001CN0200001N9+00001-00891103061ADDAY101999GF103991031051008001001001KA1999M+00501MW1021
0043065900999991956030800004+49617+006200FM-12+038099999V0200201N00511220001CN0180001N9-00221-00891103371ADDAY101999GF100991001001999999001001MW1021
0056065900999991956030806004+49617+006200FM-12+038099999V0200201N00461220001CN0100001N9-00501-00781103491ADDAY101999GF100991001001999999001001KA1999N-00501MW1021
0043065900999991956030812004+49617+006200FM-12+038099999V0200601N00571220001CN0220001N9+00111-01221103451ADDAY101999GF100991001001999999001001MW1021
0056065900999991956030818004+49617+006200FM-12+038099999V0200501N00361220001CN0220001N9+00001-01281103361ADDAY101999GF101991001001999999001011KA1999M+00221MW1031
0043065900999991956030900004+49617+006200FM-12+038099999V0200701N00311220001CN0100001N9-00391-01221103441ADDAY101999GF100991001001999999001001MW1021
0056065900999991956030906004+49617+006200FM-12+038099999V0200701N00311220001CN0100001N9-00501-01111103341ADDAY101999GF101991001001999999001011KA1999N-00501MW1031
0043065900999991956030912004+49617+006200FM-12+038099999V0200801N00511220001CN0220001N9+00221-01111103091ADDAY101999GF101991001001999999001011MW1031
0056065900999991956030918004+49617+006200FM-12+038099999V0200901N00461220001CN0200001N9+00001-01111102841ADDAY101999GF103991021001999999031061KA1999M+00391MW1021
0043065900999991956031000004+49617+006200FM-12+038099999V0200601N00411220001CN0180001N9-00281-01111102781ADDAY111999GF100991001001999999001001MW1021
0056065900999991956031006004+49617+006200FM-12+038099999V0200501N00571220001CN0120001N9-00501-01001102661ADDAY101999GF100991001001999999001001KA1999N-00501MW1021
0043065900999991956031012004+49617+006200FM-12+038099999V0200601N00411220001CN0120001N9+00281-00781102561ADDAY101999GF100991001001999999001001MW1021
0056065900999991956031018004+49617+006200FM-12+038099999V0200401N00311220001CN0150001N9+00221-00721102441ADDAY101999GF100991001001999999001001KA1999M+00611MW1021
0043065900999991956031100004+49617+006200FM-12+038099999V0200401N00571220001CN0080001N9-00111-00611102511ADDAY101999GF100991001001999999001001MW1051
0056065900999991956031106004+49617+006200FM-12+038099999V0200601N00621220001CN0050001N9-00281-00611102591ADDAY111999GF101991011051008001001001KA1999N-00281MW1051
0043065900999991956031112004+49617+006200FM-12+038099999V0200701N00621220001CN0200001N9+00111-00781102671ADDAY101999GF101991001001999999001011MW1031
0056065900999991956031118004+49617+006200FM-12+038099999V0200301N00461220001CN0200001N9+00111-01001102511ADDAY101999GF101991001001999999001011KA1999M+00281MW1021
0043065900999991956031200004+49617+006200FM-12+038099999V0200301N00511220001CN0150001N9-00221-00611102681ADDAY101999GF100991001001999999001001MW1021
0056065900999991956031206004+49617+006200FM-12+038099999V0200301N00621007801CN0070001N9-00221-00501102571ADDAY111999GF107991071051008001999999KA1999N-00221MW1051
0043065900999991956031212004+49617+006200FM-12+038099999V0200601N00571004501CN0060001N9+00001-00501102581ADDAY121999GF107991071081004501999999MW1051
0056065900999991956031218004+49617+006200FM-12+038099999V0200601N004619999999N0040001N9-00111-00611102571ADDAY121999GF107991021031004501999999KA1999M+00001MW1051
0043065900999991956031300004+49617+006200FM-12+038099999V0200601N00361220001CN0100001N9-00391-00781102721ADDAY111999GF100991001001999999001001MW1021
0056065900999991956031306004+49617+006200FM-12+038099999V0200601N00461007801CN0050001N9-00281-00721102651ADDAY111999GF108991081051008001999999KA1999N-00501MW1051
0043065900999991956031312004+49617+006200FM-12+038099999V0200801N00461220001CN0040001N9+00001-00721102601ADDAY111999GF102991011051008001031001MW1051
0056065900999991956031318004+49617+006200FM-12+038099999V0200301N00361220001CN0060001N9+00111-00721102401ADDAY101999GF101991011001999999031011KA1999M+00281MW1051
0043065900999991956031400004+49617+006200FM-12+038099999V0200401N00461220001CN0060001N9-00221-00611102261ADDAY101999GF100991001001999999001001MW1051
0056065900999991956031406004+49617+006200FM-12+038099999V0203601N00261007801CN0060001N9-00221-00391102021ADDAY111999GF107991071051008001999999KA1999N-00281MW1051
0043065900999991956031412004+49617+006200FM-12+038099999V0200501N00311001501CN0018001N9+00001-00221101861ADDAY171999GF107991051071001501999999MW1501
0056065900999991956031418004+49617+006200FM-12+038099999V0200501N00151220001CN0025001N9-00111-00281101641ADDAY171999GF103991031051012501001001KA1999M+00221MW1051
0043065900999991956031500004+49617+006200FM-12+038099999V0200901N00261007801CN0040001N9-00221-00281101421ADDAY111999GF107991071051008001999999MW1701
0056065900999991956031506004+49617+006200FM-12+038099999V0200501N00411012301CN0020001N9-00221-00391101281ADDAY171999GF108991071051012501999999KA1999N-00221MW1051
0043065900999991956031512004+49617+006200FM-12+038099999V0201501N00361220001CN0030001N9+00391-00721101061ADDAY111999GF102991011001999999031061MW1051
0056065900999991956031518004+49617+006200FM-12+038099999V0201801N00261220001CN0080001N9+00391-00781101011ADDAY101999GF102991011001999999031061KA1999M+00721MW1051
0043065900999991956031600004+49617+006200FM-12+038099999V0201101N00261220001CN0060001N9+00001-00721101221ADDAY101999GF100991001001999999001001MW1051
0056065900999991956031606004+49617+006200FM-12+038099999V0201001N00311220001CN0050001N9-00221-00611101351ADDAY101999GF100991001001999999001001KA1999N-00221MW1051
0043065900999991956031612004+49617+006200FM-12+038099999V0201301N00211220001CN0030001N9+00781-00391101351ADDAY101999GF101991001001999999001011MW1051
0056065900999991956031618004+49617+006200FM-12+038099999V0200801N001519999999N0100001N9+00611-00281101401ADDAY111999GF107991041051012501031061KA1999M+01001MW1051
0043065900999991956031700004+49617+006200FM-12+038099999V0200601N00311220001CN0080001N9+00281-00391101591ADDAY111999GF102991021001999999031001MW1051
0056065900999991956031706004+49617+006200FM-12+038099999V0200901N00361024001CN0060001N9+00281-00501101651ADDAY111999GF107991071001999999031999KA1999N+00221MW1051
0043065900999991956031712004+49617+006200FM-12+038099999V0201101N002119999999N0050001N9+01001-00721101601ADDAY121999GF107991011051017501031061MW1051
0056065900999991956031718004+49617+006200FM-12+038099999V0201201N002619999999N0030001N9+00891-00281101541ADDAY121999GF107991011001999999031061KA1999M+01221MW1051
0043065900999991956031800004+49617+006200FM-12+038099999V0200601N00311220001CN0060001N9+00281-00391101741ADDAY111999GF100991001001999999001001MW1051
0056065900999991956031806004+49617+006200FM-12+038099999V0200601N00311220001CN0040001N9+00001-00391101651ADDAY101999GF103991031001999999031061KA1999N+00001MW1051
0043065900999991956031812004+49617+006200FM-12+038099999V0200901N00361220001CN0050001N9+01001-00221101261ADDAY101999GF101991011001999999031001MW1051
0056065900999991956031818004+49617+006200FM-12+038099999V0200801N00361220001CN0080001N9+00781-00501100941ADDAY111999GF103991011001999999031061KA1999M+01221MW1051
0043065900999991956031900004+49617+006200FM-12+038099999V0200501N00511024001CN0080001N9+00501-00111100961ADDAY111999GF107991071001999999031999MW1051
0056065900999991956031906004+49617+006200FM-12+038099999V0200701N002619999999N0040001N9+00221+00001100961ADDAY121999GF108991011051017501031999KA1999N+00221MW1051
0043065900999991956031912004+49617+006200FM-12+038099999V0200601N003619999999N0070001N9+00611+00001100851ADDAY161999GF108991041051012501021999MW1051
0056065900999991956031918004+49617+006200FM-12+038099999V0201201N00311015001CN0040001N9+00891+00111100641ADDAY121999GF108991061051017501071999KA1999M+01001MW1051
0043065900999991956032000004+49617+006200FM-12+038099999V0200601N00511015001CN0060001N9+00611+00001100581ADDAY161999GF107991051051017501031999MW1051
0056065900999991956032006004+49617+006200FM-12+038099999V0201301N00261015001CN0050001N9+00391+00001100011ADDAY161999GF108991071031017501999999KA1999N+00391MW1051
0043065900999991956032012004+49617+006200FM-12+038099999V0200901N00411012301CN0080001N9+00781+00001100441ADDAY161999GF108991051051012501071999MW1051
0056065900999991956032018004+49617+006200FM-12+038099999V0201001N00511220001CN0040001N9+00781+00001100291ADDAY111999GF104991031081008001031001KA1999M+01281MW1051
0043065900999991956032100004+49617+006200FM-12+038099999V0201701N00571012301CN0060001N9+00611+00281100411ADDAY191999GF107991071051012501999999MW1211
0056065900999991956032106004+49617+006200FM-12+038099999V0201201N00361004501CN0080001N9+00611+00281100411ADDAY161999GF107991071081004501999999KA1999N+00501MW1801
0043065900999991956032112004+49617+006200FM-12+038099999V0201001N00511007801CN0060001N9+01001+00221100271ADDAY181999GF108991071051008001999999MW1601
0056065900999991956032118004+49617+006200FM-12+038099999V0201601N002119999999N0050001N9+00891+00281100141ADDAY161999GF107991031051012501021999KA1999M+01111MW1211
0043065900999991956032200004+49617+006200FM-12+038099999V0201101N00311012301CN0040001N9+00721+00281100191ADDAY161999GF108991081051012501999999MW1211
0056065900999991956032206004+49617+006200FM-12+038099999V0202401N003619999999N0050001N9+00611+00391100471ADDAY111999GF107991041051004501999999KA1999N+00501MW1051
0043065900999991956032212004+49617+006200FM-12+038099999V0202001N00511002401CN0150001N9+00721+00391100961ADDAY161999GF108991061071002501999999MW1021
0056065900999991956032218004+49617+006200FM-12+038099999V0201501N00461220001CN0220001N9+00721+00391101061ADDAY111999GF102991011051008001001061KA1999M+00891MW1011
0043065900999991956032300004+49617+006200FM-12+038099999V0200601N00261012301CN0030001N9+00281+00281101291ADDAY111999GF107991071051012501999999MW1051
0056065900999991956032306004+49617+006200FM-12+038099999V0200601N00311015001CN0060001N9+00281+00221101061ADDAY121999GF108991061051017501071999KA1999N+00281MW1051
0043065900999991956032312004+49617+006200FM-12+038099999V0201201N00261220001CN0050001N9+01001+00391100751ADDAY111999GF104991041001999999071001MW1051
0056065900999991956032318004+49617+006200FM-12+038099999V0201201N00571220001CN0100001N9+01001+00281100351ADDAY101999GF102991011001999999031061KA1999M+01221MW1021
0043065900999991956032400004+49617+006200FM-12+038099999V0200901N00361220001CN0060001N9+00391+00221100371ADDAY101999GF103991001001999999001061MW1051
0075065900999991956032406004+49617+006200FM-12+038099999V0200901N00261220001CN0026001N9+00281+00111100391ADDAY111999GF104991031031999999031061KA1999N+00281MW1051EQDQ01+000992SCOLCB
0043065900999991956032412004+49617+006200FM-12+038099999V0200601N00311220001CN0050001N9+01391+00391100241ADDAY101999GF104991011001999999031061MW1051
0056065900999991956032418004+49617+006200FM-12+038099999V0201001N002619999999N0200001N9+01391+00391100181ADDAY111999GF107991041001999999031061KA1999M+01721MW1021
0043065900999991956032500004+49617+006200FM-12+038099999V0202801N00211024001CN0030001N9+00781+00501100511ADDAY121999GF107991071001999999071999MW1051
0056065900999991956032506004+49617+006200FM-12+038099999V0202401N000519999999N0040001N9+00611+00501100731ADDAY111999GF105991021001999999031061KA1999N+00611MW1051
0043065900999991956032512004+49617+006200FM-12+038099999V0202501N004119999999N0180001N9+01281+00391100741ADDAY121999GF107991011011008001031061MW1021
0056065900999991956032518004+49617+006200FM-12+038099999V0202801N001519999999N0140001N9+00891+00781100941ADDAY161999GF108991031051012501021999KA1999M+01281MW1611
0043065900999991956032600004+49617+006200FM-12+038099999V0200101N00151012301CN0140001N9+00781+00721101161ADDAY161999GF108991071051012501999999MW1611
0056065900999991956032606004+49617+006200FM-12+038099999V0203601N00101012301CN0025001N9+00781+00721101331ADDAY161999GF108991071051012501999999KA1999N+00721MW1051
0043065900999991956032612004+49617+006200FM-12+038099999V0200501N00261007801CN0030001N9+01001+00781101521ADDAY161999GF108991071051008001999999MW1601
0056065900999991956032618004+49617+006200FM-12+038099999V0200101N00051007801CN0030001N9+00611+00611101661ADDAY161999GF108991081051008001999999KA1999M+01111MW1611
0043065900999991956032700004+49617+006200FM-12+038099999V0200201N002619999999N0018001N9+00781+00721101821ADDAY161999GF107991031051008001031999MW1101
0056065900999991956032706004+49617+006200FM-12+038099999V0200401N00211012301CN0024001N9+00781+00611101851ADDAY121999GF108991071051012501999999KA1999N+00781MW1051
0043065900999991956032712004+49617+006200FM-12+038099999V0200701N00261007801CN0030001N9+01281+00721101881ADDAY121999GF107991071081008001999999MW1051
0056065900999991956032718004+49617+006200FM-12+038099999V0200501N00411007801CN0024001N9+01111+00611101941ADDAY191999GF107991071031008001999999KA1999M+01501MW1291
0043065900999991956032800004+49617+006200FM-12+038099999V0200901N00461007801CN0050001N9+00611+00221102231ADDAY121999GF107991071051008001999999MW1051
0056065900999991956032806004+49617+006200FM-12+038099999V0200601N00511220001CN0050001N9+00221-00111102311ADDAY111999GF100991001001999999001001KA1999N+00111MW1051
0043065900999991956032812004+49617+006200FM-12+038099999V0200601N008219999999N0120001N9+00611-00221102111ADDAY111999GF105991041081008001031999MW1021
0056065900999991956032818004+49617+006200FM-12+038099999V0200701N00871012301CN0080001N9+00611-00111101931ADDAY121999GF106991061051012501999999KA1999M+00781MW1051
0043065900999991956032900004+49617+006200FM-12+038099999V0200601N00511220001CN0080001N9+00501+00111101841ADDAY111999GF101991011051012501001001MW1051
0056065900999991956032906004+49617+006200FM-12+038099999V0200601N00361220001CN0060001N9+00281+00111102031ADDAY111999GF102991011051012501001051KA1999N+00281MW1051
0043065900999991956032912004+49617+006200FM-12+038099999V0200601N00361220001CN0060001N9+01221+00221101971ADDAY111999GF107991001001999999001061MW1051
0056065900999991956032918004+49617+006200FM-12+038099999V0200601N00311220001CN0080001N9+01221+00221101891ADDAY121999GF107991001001999999001061KA1999M+01391MW1051
0043065900999991956033000004+49617+006200FM-12+038099999V0200201N00261220001CN0100001N9+00891+00001101991ADDAY111999GF104991001001999999001061MW1011
0056065900999991956033006004+49617+006200FM-12+038099999V0200301N00151220001CN0060001N9+00611+00221101981ADDAY101999GF103991001001999999001061KA1999N+00611MW1051
0043065900999991956033012004+49617+006200FM-12+038099999V0202201N00361220001CN0050001N9+01611+00281101811ADDAY111999GF107991001001999999001061MW1051
0056065900999991956033018004+49617+006200FM-12+038099999V0202501N002619999999N0120001N9+01721+00501101641ADDAY121999GF107991021051012501031061KA1999M+01891MW1021
0043065900999991956033100004+49617+006200FM-12+038099999V0203301N00261012301CN0022001N9+00891+00721101791ADDAY161999GF108991081051012501999999MW1211
0056065900999991956033106004+49617+006200FM-12+038099999V0203601N00211001501CN0012001N9+00501+00391101781ADDAY161999GF108991071071001501999999KA1999N+00501MW1601
0043065900999991956033112004+49617+006200FM-12+038099999V0200301N00311007801CN0040001N9+00781+00501101861ADDAY161999GF107991051051008001999999MW1051
0056065900999991956033118004+49617+006200FM-12+038099999V0203601N00311220001CN0032001N9+01001+00721101851ADDAY111999GF101991001001999999001011KA1999M+01111MW1051
0043065900999991956040100004+49617+006200FM-12+038099999V0200101N00361220001CN0030001N9+00611+00391101911ADDAY101999GF100991001001999999001001MW1051
0056065900999991956040106004+49617+006200FM-12+038099999V0203601N00211000601CN0010001N9+00501+00501101861ADDAY141999GF108991081061000751999999KA1999N+00391MW1101
0043065900999991956040112004+49617+006200FM-12+038099999V0203601N00511004501CN0045001N9+00721+00221101801ADDAY111999GF107991071081004501999999MW1051
0056065900999991956040118004+49617+006200FM-12+038099999V0203601N00511004501CN0160001N9+00501+00221101941ADDAY121999GF107991071081004501999999KA1999M+01001MW1021
0043065900999991956040200004+49617+006200FM-12+038099999V0203601N00311012301CN0090001N9+00391+00111102181ADDAY121999GF107991071051012501999999MW1051
0056065900999991956040206004+49617+006200FM-12+038099999V0200301N00261012301CN0070001N9+00281-00111102371ADDAY121999GF107991071051012501999999KA1999N+00281MW1051
0043065900999991956040212004+49617+006200FM-12+038099999V0200301N00461220001CN0200001N9+00781-00221102391ADDAY111999GF102991021051008001001001MW1011
0056065900999991956040218004+49617+006200FM-12+038099999V0200501N00361220001CN0150001N9+01001-00281102121ADDAY101999GF101991001001999999001011KA1999M+01111MW1021
0043065900999991956040300004+49617+006200FM-12+038099999V0203601N00101220001CN0120001N9+00111-00111102231ADDAY101999GF100991001001999999001001MW1021
0056065900999991956040306004+49617+006200FM-12+038099999V0203601N00051220001CN0020001N9-00111-00221102021ADDAY101999GF101991001001999999001011KA1999N-00221MW1051
0043065900999991956040312004+49617+006200FM-12+038099999V0202701N00511220001CN0080001N9+00721+00111101311ADDAY101999GF103991021051017501001061MW1051
0056065900999991956040318004+49617+006200FM-12+038099999V0202601N00511220001CN0030001N9+00781+00111101361ADDAY101999GF102991001001999999001061KA1999M+01001MW1051
0043065900999991956040400004+49617+006200FM-12+038099999V0202701N005119999999N0080001N9+00501+00221101261ADDAY111999GF105991021051017501001061MW1051
0056065900999991956040406004+49617+006200FM-12+038099999V0202901N00151001501CN0020001N9+00391+00281101111ADDAY181999GF108991081071001501999999KA1999N+00391MW1601
0043065900999991956040412004+49617+006200FM-12+038099999V0203301N00261220001CN0200001N9+00501-00501101241ADDAY161999GF104991041081004501001001MW1011
0056065900999991956040418004+49617+006200FM-12+038099999V0203301N00461007801CN0160001N9+00221-00111101321ADDAY181999GF107991071031008001999999KA1999M+00721MW1261
0043065900999991956040500004+49617+006200FM-12+038099999V0203001N00101220001CN0100001N9-00111-00281101321ADDAY111999GF100991001001999999001001MW1021
0056065900999991956040506004+49617+006200FM-12+038099999V0203201N002119999999N0035001N9-00221-00391101081ADDAY111999GF107991041051012501021999KA1999N-00281MW1051
0043065900999991956040512004+49617+006200FM-12+038099999V0201801N00461000601CN0006001N9-00111-00111100501ADDAY171999GF108991071071000751999999MW1711
0056065900999991956040518004+49617+006200FM-12+038099999V0200401N00511001501CN0060001N9+00001-00111100271ADDAY171999GF107991071071001501999999KA1999M+00001MW1221
0043065900999991956040600004+49617+006200FM-12+038099999V0203301N00101007801CN0120001N9-00221-00391100731ADDAY111999GF105991051051008001001001MW1021
0056065900999991956040606004+49617+006200FM-12+038099999V0203601N00311220001CN0180001N9-00221-00391100941ADDAY171999GF103991031081004501031001KA1999N-00281MW1011
0043065900999991956040612004+49617+006200FM-12+038099999V0203101N00311004501CN0200001N9+00111-00281101191ADDAY181999GF106991061031004501999021MW1871
0056065900999991956040618004+49617+006200FM-12+038099999V0203401N00361220001CN0200001N9+00001-00611101551ADDAY181999GF104991031031004501031031KA1999M+00221MW1851
0043065900999991956040700004+49617+006200FM-12+038099999V0203101N00361220001CN0120001N9-00281-00501102081ADDAY181999GF100991001001999999001001MW1021
0056065900999991956040706004+49617+006200FM-12+038099999V0203401N00361220001CN0050001N9-00281-00501102431ADDAY111999GF101991011051008001001001KA1999N-00391MW1051
0043065900999991956040712004+49617+006200FM-12+038099999V0203601N00361220001CN0200001N9+00221-00721102601ADDAY101999GF103991031021008001001001MW1011
0056065900999991956040718004+49617+006200FM-12+038099999V0203401N00211220001CN0250001N9+00281-01001102671ADDAY101999GF101991011011008001001011KA1999M+00501MW1011
0043065900999991956040800004+49617+006200FM-12+038099999V0200701N00051220001CN0180001N9+00001-00781102831ADDAY101999GF100991001001999999001001MW1021
0056065900999991956040806004+49617+006200FM-12+038099999V0202201N00101015001CN0040001N9+00001-00611102801ADDAY111999GF108991071051017501999999KA1999N-00111MW1051
0043065900999991956040812004+49617+006200FM-12+038099999V0202301N00511015001CN0120001N9+00391-00391102721ADDAY171999GF108991071051017501999999MW1701
0056065900999991956040818004+49617+006200FM-12+038099999V0202101N003619999999N0180001N9+00721-00281102451ADDAY171999GF105991041051012501001061KA1999M+00891MW1031
0043065900999991956040900004+49617+006200FM-12+038099999V0202101N00211220001CN0120001N9+00281-00281102611ADDAY111999GF100991001001999999001001MW1021
0056065900999991956040906004+49617+006200FM-12+038099999V0202401N00151220001CN0030001N9+00001-00281102611ADDAY101999GF104991001001999999001061KA1999N+00001MW1051
0043065900999991956040912004+49617+006200FM-12+038099999V0202601N00571220001CN0100001N9+01111-00611102421ADDAY111999GF105991001001999999001061MW1011
0056065900999991956040918004+49617+006200FM-12+038099999V0202601N00411220001CN0200001N9+01221-00611102241ADDAY111999GF103991001001999999001061KA1999M+01391MW1011
0043065900999991956041000004+49617+006200FM-12+038099999V0202401N00151220001CN0070001N9+00391-00221102291ADDAY101999GF100991001001999999001001MW1051
0056065900999991956041006004+49617+006200FM-12+038099999V0202801N00151220001CN0040001N9+00281-00281102191ADDAY101999GF100991001001999999001001KA1999N+00221MW1051
0043065900999991956041012004+49617+006200FM-12+038099999V0202501N00771220001CN0200001N9+01501-00221101861ADDAY101999GF102991011081008001001061MW1021
0056065900999991956041018004+49617+006200FM-12+038099999V0202401N00571220001CN0300001N9+01501+00001101521ADDAY111999GF104991011041012501001061KA1999M+01721MW1031
0043065900999991956041100004+49617+006200FM-12+038099999V0202601N00211220001CN0090001N9+00891-00111101521ADDAY101999GF102991001001999999001061MW1051
0056065900999991956041106004+49617+006200FM-12+038099999V0203001N001519999999N0120001N9+00781-00221101431ADDAY111999GF107991011001999999031071KA1999N+00721MW1031
0043065900999991956041112004+49617+006200FM-12+038099999V0202601N00411007801CN0100001N9+01281+00221101411ADDAY121999GF107991051081008001031999MW1601
0056065900999991956041118004+49617+006200FM-12+038099999V0202601N00261012301CN0100001N9+01391+00221101281ADDAY161999GF107991051051012501031999KA1999M+01501MW1021
0043065900999991956041200004+49617+006200FM-12+038099999V0200501N00211220001CN0090001N9+00781+00391101381ADDAY111999GF102991021051017501001001MW1051
0056065900999991956041206004+49617+006200FM-12+038099999V0200501N00311015001CN0030001N9+00501+00281101281ADDAY161999GF107991071051017501999999KA1999N+00501MW1051
0043065900999991956041212004+49617+006200FM-12+038099999V0201401N003619999999N0030001N9+01111+00891101131ADDAY161999GF106991021051012501071061MW1211
0056065900999991956041218004+49617+006200FM-12+038099999V0201501N00211015001CN0030001N9+01281+00891100881ADDAY161999GF107991061051017501999061KA1999M+01391MW1051
0043065900999991956041300004+49617+006200FM-12+038099999V0202401N00721001501CN0080001N9+01001+00891100881ADDAY181999GF108991051071001501999999MW1611
0056065900999991956041306004+49617+006200FM-12+038099999V0202401N00771001501CN0120001N9+00891+00781100831ADDAY161999GF108991071071001501999999KA1999N+00891MW1051
0043065900999991956041312004+49617+006200FM-12+038099999V0202401N00461004501CN0180001N9+01111+00891100661ADDAY181999GF107991071081004501999999MW1251
0056065900999991956041318004+49617+006200FM-12+038099999V0202201N00511001501CN0060001N9+01001+00891100341ADDAY181999GF108991071071001501999999KA1999M+01281MW1601
0043065900999991956041400004+49617+006200FM-12+038099999V0202101N00411002401CN0100001N9+01001+00891100401ADDAY161999GF108991061071002501999999MW1211
0056065900999991956041406004+49617+006200FM-12+038099999V0201701N00361001501CN0010001N9+00891+00891100181ADDAY161999GF108991081071001501999999KA1999N+00891MW1611
0043065900999991956041412004+49617+006200FM-12+038099999V0201601N00261000601CN0030001N9+01001+01001099931ADDAY161999GF108991071071000751999999MW1631
0056065900999991956041418004+49617+006200FM-12+038099999V0202101N00361002401CN0080001N9+01111+01001099721ADDAY181999GF108991061071002501021999KA1999M+01221MW1611
0043065900999991956041500004+49617+006200FM-12+038099999V0202601N00411000601CN0050001N9+01001+01001099791ADDAY161999GF108991061071000751999999MW1281
0056065900999991956041506004+49617+006200FM-12+038099999V0202601N00211000601CN0012001N9+00891+00891099931ADDAY141999GF108991081071000751999999KA1999N+00891MW1281
0043065900999991956041512004+49617+006200FM-12+038099999V0200601N001519999999N0030001N9+01001+00891100071ADDAY161999GF107991041071001501999999MW1051
0056065900999991956041518004+49617+006200FM-12+038099999V0203201N00101004501CN0150001N9+01111+00891100141ADDAY181999GF107991071081004501999999KA1999M+01221MW1031
0043065900999991956041600004+49617+006200FM-12+038099999V0200101N00361002401CN0050001N9+00611+00391100471ADDAY121999GF108991071061002501999999MW1051
0056065900999991956041606004+49617+006200FM-12+038099999V0200201N00511000601CN0025001N9+00391+00281100501ADDAY161999GF108991071071000751999999KA1999N+00391MW1631
0043065900999991956041612004+49617+006200FM-12+038099999V0200201N00671001501CN0026001N9+00501+00391100601ADDAY161999GF108991071071001501999999MW1611
0056065900999991956041618004+49617+006200FM-12+038099999V0200201N00621001501CN0028001N9+00281+00221100701ADDAY161999GF108991071071001501021999KA1999M+00501MW1611
0043065900999991956041700004+49617+006200FM-12+038099999V0203601N00361002401CN0040001N9+00221+00111100831ADDAY161999GF108991071071002501999999MW1631
0056065900999991956041706004+49617+006200FM-12+038099999V0203301N00461002401CN0030001N9+00111+00001101051ADDAY161999GF108991071071002501999999KA1999N+00111MW1211
0043065900999991956041712004+49617+006200FM-12+038099999V0203401N00361004501CN0050001N9+00221+00001101501ADDAY151999GF108991081051004501999999MW1051
0056065900999991956041718004+49617+006200FM-12+038099999V0200101N00411007801CN0100001N9+00391-00221101771ADDAY121999GF107991071051008001999999KA1999M+00501MW1021
0043065900999991956041800004+49617+006200FM-12+038099999V0200201N00151015001CN0080001N9+00221-00111102071ADDAY121999GF108991081051017501999999MW1051
0056065900999991956041806004+49617+006200FM-12+038099999V0203601N001019999999N0024001N9+00111+00001102161ADDAY171999GF107991031051004501071061KA1999N+00111MW1701
0043065900999991956041812004+49617+006200FM-12+038099999V0200301N004619999999N0100001N9+00501-00221102141ADDAY181999GF105991041021008001001061MW1261
0056065900999991956041818004+49617+006200FM-12+038099999V0200101N004119999999N0160001N9+00391-00611102271ADDAY181999GF105991021051012501001061KA1999M+00611MW1031
0043065900999991956041900004+49617+006200FM-12+038099999V0200101N00261220001CN0060001N9+00111-00221102421ADDAY111999GF104991031051008001001061MW1051
0056065900999991956041906004+49617+006200FM-12+038099999V0203501N00361004501CN0030001N9+00111-00111102461ADDAY171999GF107991071051004501999999KA1999N+00001MW1701
0043065900999991956041912004+49617+006200FM-12+038099999V0203501N00411007801CN0180001N9+00501-00501102381ADDAY121999GF106991051091008001001031MW1021
0056065900999991956041918004+49617+006200FM-12+038099999V0200201N004619999999N0090001N9+00281-00111102521ADDAY181999GF107991021021008001001061KA1999M+00721MW1051
0043065900999991956042000004+49617+006200FM-12+038099999V0200301N00101015001CN0100001N9+00111-00221102741ADDAY111999GF107991071051017501999999MW1021
0056065900999991956042006004+49617+006200FM-12+038099999V0203301N00101007801CN0020001N9+00001+00001102861ADDAY171999GF105991051051008001001001KA1999N-00221MW1051
0043065900999991956042012004+49617+006200FM-12+038099999V0200201N00211007801CN0160001N9+00611-00501102571ADDAY111999GF105991051021008001001001MW1021
0056065900999991956042018004+49617+006200FM-12+038099999V0200401N00311220001CN0200001N9+00781-00721102231ADDAY111999GF104991041051017501001001KA1999M+01001MW1031
0043065900999991956042100004+49617+006200FM-12+038099999V0200501N00511220001CN0060001N9+00221-00281102301ADDAY101999GF100991001001999999001001MW1051
0056065900999991956042106004+49617+006200FM-12+038099999V0200401N00311220001CN0040001N9+00111-00111102091ADDAY101999GF100991001001999999001001KA1999N+00001MW1051
0043065900999991956042112004+49617+006200FM-12+038099999V0200701N00261220001CN0090001N9+00891-00281101651ADDAY101999GF100991001001999999001001MW1051
0056065900999991956042118004+49617+006200FM-12+038099999V0200601N00511220001CN0140001N9+01001-00221101251ADDAY101999GF101991011011012501001001KA1999M+01221MW1021
0043065900999991956042200004+49617+006200FM-12+038099999V0200401N00511220001CN0070001N9+00391+00001101241ADDAY101999GF100991001001999999001001MW1051
0056065900999991956042206004+49617+006200FM-12+038099999V0200401N00671220001CN0050001N9+00281+00001100911ADDAY101999GF104991011001999999031061KA1999N+00221MW1051
0043065900999991956042212004+49617+006200FM-12+038099999V0200601N00771220001CN0180001N9+01221-00221100471ADDAY101999GF103991021011012501031061MW1021
0056065900999991956042218004+49617+006200FM-12+038099999V0200401N005119999999N0100001N9+01111-00111100281ADDAY111999GF107991011011012501031061KA1999M+01391MW1031
0043065900999991956042300004+49617+006200FM-12+038099999V0200501N00461220001CN0060001N9+00501-00111100501ADDAY111999GF104991041001999999031001MW1051
0056065900999991956042306004+49617+006200FM-12+038099999V0200301N00361220001CN0030001N9+00281+00001100611ADDAY111999GF104991031001999999031061KA1999N+00281MW1051
0043065900999991956042312004+49617+006200FM-12+038099999V0202401N00411220001CN0090001N9+01221-00281100551ADDAY111999GF104991041021008001001001MW1051
0056065900999991956042318004+49617+006200FM-12+038099999V0203101N00101007801CN0100001N9+01221-00281100611ADDAY111999GF107991061081008001031999KA1999M+01391MW1021
0043065900999991956042400004+49617+006200FM-12+038099999V0200101N00511220001CN0050001N9+00501-00111100981ADDAY111999GF101991011051017501001001MW1051
0056065900999991956042406004+49617+006200FM-12+038099999V0200101N00361220001CN0040001N9+00281-00221101061ADDAY101999GF100991001001999999001001KA1999N+00221MW1051
0043065900999991956042412004+49617+006200FM-12+038099999V0203301N00311220001CN0100001N9+01001-00391100921ADDAY101999GF104991041011008001001001MW1021
0056065900999991956042418004+49617+006200FM-12+038099999V0203401N00411220001CN0100001N9+00891-00391100941ADDAY101999GF101991001001999999001011KA1999M+01111MW1011
0043065900999991956042500004+49617+006200FM-12+038099999V0202701N00101220001CN0060001N9+00281-00221101111ADDAY101999GF100991001001999999001001MW1051
0056065900999991956042506004+49617+006200FM-12+038099999V0202701N00151012301CN0024001N9+00281-00111100981ADDAY111999GF107991071051012501999999KA1999N+00221MW1051
0043065900999991956042512004+49617+006200FM-12+038099999V0202701N00671007801CN0040001N9+01001+00001100851ADDAY161999GF107991071081008001999999MW1051
0056065900999991956042518004+49617+006200FM-12+038099999V0202501N003619999999N0060001N9+01111-00221100711ADDAY121999GF107991041081008001031061KA1999M+01221MW1051
0043065900999991956042600004+49617+006200FM-12+038099999V0201101N00151220001CN0050001N9+00501+00221100821ADDAY121999GF105991001001999999001061MW1051
0056065900999991956042606004+49617+006200FM-12+038099999V0200501N00151220001CN0030001N9+00391+00281100761ADDAY111999GF103991031081008001001001KA1999N+00391MW1051
0043065900999991956042612004+49617+006200FM-12+038099999V0201801N00151220001CN0060001N9+01501-00111100471ADDAY101999GF103991031081008001001001MW1051
0056065900999991956042618004+49617+006200FM-12+038099999V0203301N00261007801CN0090001N9+01281+00221100391ADDAY181999GF107991061031008001031999KA1999M+01611MW1251
0043065900999991956042700004+49617+006200FM-12+038099999V0200401N00411007801CN0070001N9+00781+00281100471ADDAY111999GF105991051081008001001001MW1051
0056065900999991956042706004+49617+006200FM-12+038099999V0209991V00101015001CN0030001N9+00721+00281100471ADDAY121999GF107991061051017501031999KA1999N+00721MW1051
0043065900999991956042712004+49617+006200FM-12+038099999V0200401N002619999999N0060001N9+01501+00111100281ADDAY161999GF105991021001999999031061MW1051
0056065900999991956042718004+49617+006200FM-12+038099999V0200301N003119999999N0140001N9+01391+00111100061ADDAY191999GF106991031031008001031061KA1999M+01721MW1251
0043065900999991956042800004+49617+006200FM-12+038099999V0200401N00671220001CN0080001N9+00891+00281100251ADDAY111999GF101991011051012501001001MW1051
0056065900999991956042806004+49617+006200FM-12+038099999V0200401N00621220001CN0025001N9+00781+00391100321ADDAY101999GF100991001001999999001001KA1999N+00391MW1051
0043065900999991956042812004+49617+006200FM-12+038099999V0202101N00311220001CN0040001N9+01721+00501100361ADDAY101999GF104991041021008001001001MW1051
0056065900999991956042818004+49617+006200FM-12+038099999V0201901N002619999999N0040001N9+01001+00781100721ADDAY191999GF108991031031008001031999KA1999M+01721MW1801
0043065900999991956042900004+49617+006200FM-12+038099999V0202301N00151001501CN0020001N9+00781+00781100901ADDAY181999GF108991061071001501999999MW1621
0056065900999991956042906004+49617+006200FM-12+038099999V0209991C00001001501CN0024001N9+00781+00721100911ADDAY161999GF108991071071001501999999KA1999N+00781MW1211
0043065900999991956042912004+49617+006200FM-12+038099999V0200601N00211004501CN0080001N9+01001+00721100971ADDAY161999GF108991051081004501999999MW1211
0056065900999991956042918004+49617+006200FM-12+038099999V0203601N00411001501CN0022001N9+00721+00611101051ADDAY161999GF107991061071001501999999KA1999M+01111MW1051
0043065900999991956043000004+49617+006200FM-12+038099999V0203501N00361004501CN0025001N9+00501+00391101261ADDAY121999GF108991081051004501999999MW1051
0056065900999991956043006004+49617+006200FM-12+038099999V0203601N00311004501CN0025001N9+00281+00221101471ADDAY121999GF108991081051004501999999KA1999N+00281MW1051
0043065900999991956043012004+49617+006200FM-12+038099999V0203501N00411007801CN0160001N9+00721-00221101671ADDAY121999GF107991071051008001999999MW1021
0056065900999991956043018004+49617+006200FM-12+038099999V0202901N00461220001CN0080001N9+00721-00221101771ADDAY111999GF104991041081008001001001KA1999M+00891MW1051
0043065900999991956050100004+49617+006200FM-12+038099999V0202901N003619999999N0100001N9+00281-00111101951ADDAY111999GF108991031051017501071999MW1031
0056065900999991956050106004+49617+006200FM-12+038099999V0202501N00311007801CN0060001N9+00281+00111101951ADDAY161999GF108991071051008001999999KA1999N+00281MW1601
0043065900999991956050112004+49617+006200FM-12+038099999V0209991V001519999999N0028001N9+00501+00281101981ADDAY161999GF108991041071002501999999MW1611
0056065900999991956050118004+49617+006200FM-12+038099999V0201001N00211007801CN0030001N9+00781+00501101901ADDAY161999GF107991071081008001031999KA1999M+01001MW1051
0043065900999991956050200004+49617+006200FM-12+038099999V0201801N00051220001CN0012001N9+00391+00391102191ADDAY111999GF100991001001999999001001MW1101
0056065900999991956050206004+49617+006200FM-12+038099999V0203601N00101000151CN0001001N9+00391+00391102231ADDAY141999GF109991091999000251999999KA1999N+00281MW1431
0043065900999991956050212004+49617+006200FM-12+038099999V0202301N00311004501CN0030001N9+01001+00611102231ADDAY141999GF106991061021004501999999MW1051
0056065900999991956050218004+49617+006200FM-12+038099999V0202701N00361220001CN0060001N9+01281+00501102171ADDAY111999GF102991011011008001031001KA1999M+01501MW1051
0043065900999991956050300004+49617+006200FM-12+038099999V0203601N00311220001CN0040001N9+00891+00391102401ADDAY101999GF100991001001999999001001MW1051
0056065900999991956050306004+49617+006200FM-12+038099999V0203001N00101012301CN0026001N9+00721+00501102461ADDAY111999GF107991071051012501999999KA1999N+00611MW1051
0043065900999991956050312004+49617+006200FM-12+038099999V0209991V00211007801CN0040001N9+01391+00391102381ADDAY111999GF107991071081008001999999MW1051
0056065900999991956050318004+49617+006200FM-12+038099999V0200701N00361220001CN0080001N9+01281+00501102451ADDAY181999GF103991021081012501001061KA1999M+01611MW1051
0043065900999991956050400004+49617+006200FM-12+038099999V0200801N00151220001CN0050001N9+00781+00501102751ADDAY101999GF100991001001999999001001MW1051
0056065900999991956050406004+49617+006200FM-12+038099999V0200201N00151220001CN0028001N9+00781+00501102901ADDAY101999GF100991001001999999001001KA1999N+00611MW1051
0043065900999991956050412004+49617+006200FM-12+038099999V0200901N00151220001CN0120001N9+01721+00281102841ADDAY101999GF103991031021012501001001MW1011
0056065900999991956050418004+49617+006200FM-12+038099999V0200101N00051220001CN0160001N9+01721+00221102761ADDAY111999GF102991021051022501001001KA1999M+01891MW1011
0043065900999991956050500004+49617+006200FM-12+038099999V0200301N00261220001CN0100001N9+01111+00391102961ADDAY101999GF100991001001999999001001MW1021
0056065900999991956050506004+49617+006200FM-12+038099999V0200501N00211012301CN0040001N9+01001+00611103021ADDAY111999GF107991071051012501999999KA1999N+00891MW1051
0043065900999991956050512004+49617+006200FM-12+038099999V0209991V00211220001CN0060001N9+02001+00281102851ADDAY111999GF104991041051017501001001MW1051
0056065900999991956050518004+49617+006200FM-12+038099999V0200501N00101220001CN0060001N9+01891+00221102691ADDAY101999GF101991011051017501001001KA1999M+02111MW1051
0043065900999991956050600004+49617+006200FM-12+038099999V0200901N00051220001CN0040001N9+01281+00391102871ADDAY101999GF100991001001999999001001MW1051
0056065900999991956050606004+49617+006200FM-12+038099999V0200401N00211220001CN0030001N9+01221+00501102921ADDAY101999GF100991001001999999001001KA1999N+01111MW1051
0043065900999991956050612004+49617+006200FM-12+038099999V0202101N00311220001CN0090001N9+02221+00281102741ADDAY101999GF100991001001999999001001MW1051
0056065900999991956050618004+49617+006200FM-12+038099999V0202201N00211220001CN0070001N9+02221+00281102551ADDAY101999GF103991011001999999031051KA1999M+02281MW1051
0043065900999991956050700004+49617+006200FM-12+038099999V0203201N00211220001CN0060001N9+01611+00391102711ADDAY111999GF100991001001999999001001MW1051
0056065900999991956050706004+49617+006200FM-12+038099999V0202901N00151220001CN0030001N9+01281+00721102781ADDAY101999GF101991001001999999001011KA1999N+01111MW1051
0043065900999991956050712004+49617+006200FM-12+038099999V0202401N00621220001CN0150001N9+02221+00501102631ADDAY101999GF104991031011017501001011MW1031
0056065900999991956050718004+49617+006200FM-12+038099999V0202601N00671220001CN0220001N9+02111+00501102501ADDAY111999GF104991011011017501001061KA1999M+02391MW1021
0043065900999991956050800004+49617+006200FM-12+038099999V0203201N00101220001CN0140001N9+01281+00611102741ADDAY101999GF100991001001999999001001MW1021
0056065900999991956050806004+49617+006200FM-12+038099999V0202601N00211220001CN0100001N9+00891+00611102781ADDAY101999GF101991011001999999031011KA1999N+00781MW1021
0043065900999991956050812004+49617+006200FM-12+038099999V0202601N00461220001CN0200001N9+01891+00221102661ADDAY101999GF102991011001999999031051MW1021
0056065900999991956050818004+49617+006200FM-12+038099999V0203301N00261220001CN0220001N9+01891+00001102551ADDAY101999GF101991001001999999041041KA1999M+02111MW1021
0043065900999991956050900004+49617+006200FM-12+038099999V0203301N00151220001CN0080001N9+01001+00721102821ADDAY101999GF100991001001999999001001MW1051
0056065900999991956050906004+49617+006200FM-12+038099999V0201301N00361007801CN0040001N9+01111+00781102701ADDAY111999GF107991071051008001999999KA1999N+00891MW1051
0043065900999991956050912004+49617+006200FM-12+038099999V0202401N00211012301CN0080001N9+01891+01001102311ADDAY111999GF106991061051012501999999MW1051
0056065900999991956050918004+49617+006200FM-12+038099999V0202501N00511220001CN0220001N9+02001+00721101831ADDAY111999GF103991011011012501001061KA1999M+02221MW1031
0043065900999991956051000004+49617+006200FM-12+038099999V0202401N004619999999N0140001N9+01501+00501101641ADDAY111999GF108991031051012501021999MW1021
0056065900999991956051006004+49617+006200FM-12+038099999V0202601N006219999999N0120001N9+01001+00891101771ADDAY161999GF107991031031002501999999KA1999N+01001MW1251
0043065900999991956051012004+49617+006200FM-12+038099999V0202701N008219999999N0180001N9+01281+00281101811ADDAY111999GF107991041081008001001061MW1021
0056065900999991956051018004+49617+006200FM-12+038099999V0202901N00821007801CN0180001N9+01281+00001101711ADDAY181999GF106991061081008001001001KA1999M+01501MW1251
0043065900999991956051100004+49617+006200FM-12+038099999V0203201N00211007801CN0060001N9+00781+00611102181ADDAY181999GF106991061081008001001001MW1051
0056065900999991956051106004+49617+006200FM-12+038099999V0202701N00571004501CN0050001N9+00721+00611102361ADDAY111999GF105991051021004501001001KA1999N+00611MW1051
0043065900999991956051112004+49617+006200FM-12+038099999V0202701N00411007801CN0140001N9+01281+00391102331ADDAY111999GF107991071081008001999999MW1021
0056065900999991956051118004+49617+006200FM-12+038099999V0202601N00511024001CN0150001N9+01391+00391102111ADDAY121999GF107991071001999999031999KA1999M+01501MW1021
0043065900999991956051200004+49617+006200FM-12+038099999V0202401N00311007801CN0070001N9+01111+00891101901ADDAY161999GF108991081051008001999999MW1051
0056065900999991956051206004+49617+006200FM-12+038099999V0203301N00211001501CN0050001N9+00891+00891101781ADDAY161999GF108991071071001501999999KA1999N+00891MW1611
0043065900999991956051212004+49617+006200FM-12+038099999V0203201N00621004501CN0140001N9+01221+00281102041ADDAY161999GF107991071081004501999999MW1021
0056065900999991956051218004+49617+006200FM-12+038099999V0203201N00511007801CN0120001N9+01111+00281102361ADDAY181999GF106991051081008001031999KA1999M+01281MW1031
0043065900999991956051300004+49617+006200FM-12+038099999V0203501N00261220001CN0080001N9+00611+00391102811ADDAY111999GF100991001001999999001001MW1051
0056065900999991956051306004+49617+006200FM-12+038099999V0200201N00361220001CN0050001N9+00611+00391103011ADDAY101999GF101991001001999999001061KA1999N+00391MW1051
0043065900999991956051312004+49617+006200FM-12+038099999V0200601N00411004501CN0250001N9+01221+00111103041ADDAY111999GF107991071081004501001011MW1021
0056065900999991956051318004+49617+006200FM-12+038099999V0200601N00211007801CN0300001N9+01221+00281103001ADDAY121999GF107991061081008001031999KA1999M+01281MW1021
0043065900999991956051400004+49617+006200FM-12+038099999V0200401N00311220001CN0080001N9+00781+00391103141ADDAY111999GF104991041051022501001001MW1051
0056065900999991956051406004+49617+006200FM-12+038099999V0200401N00151220001CN0120001N9+00781+00611103131ADDAY101999GF101991001001999999001011KA1999N+00391MW1021
0043065900999991956051412004+49617+006200FM-12+038099999V0200301N00211007801CN0180001N9+01501+00281102951ADDAY111999GF107991051021008001001061MW1031
0056065900999991956051418004+49617+006200FM-12+038099999V0202701N003119999999N0200001N9+01611+00281102731ADDAY121999GF108991021051017501021999KA1999M+01721MW1031
0043065900999991956051500004+49617+006200FM-12+038099999V0200101N002619999999N0120001N9+01111+00721102851ADDAY121999GF108991031051012501021999MW1021
0056065900999991956051506004+49617+006200FM-12+038099999V0200401N00211220001CN0090001N9+00891+00611103041ADDAY181999GF104991041051017501001001KA1999N+00891MW1051
0043065900999991956051512004+49617+006200FM-12+038099999V0203601N00101007801CN0100001N9+01281+00391102951ADDAY111999GF107991071081008001999999MW1031
0056065900999991956051518004+49617+006200FM-12+038099999V0200501N00211220001CN0180001N9+01501+00221102771ADDAY111999GF103991021041012501001051KA1999M+01721MW1021
0043065900999991956051600004+49617+006200FM-12+038099999V0200501N00411220001CN0200001N9+00891+00281102881ADDAY101999GF101991001001999999001061MW1021
0056065900999991956051606004+49617+006200FM-12+038099999V0200401N00211220001CN0100001N9+00891+00391102821ADDAY101999GF100991001001999999001001KA1999N+00721MW1011
0043065900999991956051612004+49617+006200FM-12+038099999V0202801N00261220001CN0040001N9+01781+00501102551ADDAY101999GF101991011011012501001011MW1051
0056065900999991956051618004+49617+006200FM-12+038099999V0202601N00511220001CN0140001N9+01891+00501102301ADDAY101999GF101991001001999999001011KA1999M+02001MW1021
0043065900999991956051700004+49617+006200FM-12+038099999V0203001N00151220001CN0120001N9+01221+00611102351ADDAY101999GF103991011051012501031001MW1031
0056065900999991956051706004+49617+006200FM-12+038099999V0202801N00211012301CN0035001N9+01001+00781102251ADDAY111999GF107991051051012501031999KA1999N+00891MW1051
0043065900999991956051712004+49617+006200FM-12+038099999V0202401N006719999999N0120001N9+01611+00891101981ADDAY181999GF107991041081008001071999MW1021
0056065900999991956051718004+49617+006200FM-12+038099999V0203601N00621004501CN0040001N9+01111+00781101911ADDAY161999GF108991061051004501071999KA1999M+01721MW1601
0043065900999991956051800004+49617+006200FM-12+038099999V0200601N00051024001CN0060001N9+00611+00611101961ADDAY161999GF108991081001999999071999MW1611
0056065900999991956051806004+49617+006200FM-12+038099999V0203301N00051012301CN0030001N9+00721+00611101771ADDAY161999GF107991071051012501999999KA1999N+00611MW1051
0043065900999991956051812004+49617+006200FM-12+038099999V0202501N00571007801CN0080001N9+01281+00391101531ADDAY111999GF106991061081008001999999MW1051
0056065900999991956051818004+49617+006200FM-12+038099999V0203001N00261007801CN0180001N9+01221+00221101441ADDAY181999GF105991051081008001001001KA1999M+01391MW1021
0043065900999991956051900004+49617+006200FM-12+038099999V0203601N002619999999N0120001N9+00611+00111101551ADDAY111999GF105991041051017501031001MW1011
0056065900999991956051906004+49617+006200FM-12+038099999V0200201N00461007801CN0080001N9+00391+00221101601ADDAY181999GF107991071081008001999999KA1999N+00391MW1051
0043065900999991956051912004+49617+006200FM-12+038099999V0200101N004119999999N0300001N9+00891-00221101601ADDAY111999GF105991041011008001001051MW1021
0056065900999991956051918004+49617+006200FM-12+038099999V0203501N00261220001CN0300001N9+01111-00501101611ADDAY111999GF102991021011008001001051KA1999M+01221MW1021
0043065900999991956052000004+49617+006200FM-12+038099999V0200101N00361220001CN0300001N9+00391+00111101981ADDAY101999GF100991001001999999001001MW1021
0056065900999991956052006004+49617+006200FM-12+038099999V0200201N00261220001CN0150001N9+00391+00001102081ADDAY101999GF101991001001999999001011KA1999N+00221MW1021
0043065900999991956052012004+49617+006200FM-12+038099999V0200301N00261007801CN0200001N9+01001-00111102021ADDAY111999GF106991061081008001999999MW1031
0056065900999991956052018004+49617+006200FM-12+038099999V0200501N00361220001CN0160001N9+01111-00281101921ADDAY111999GF102991021011017501001001KA1999M+01281MW1021
0043065900999991956052100004+49617+006200FM-12+038099999V0200401N00261220001CN0070001N9+00501-00111101981ADDAY101999GF100991001001999999001001MW1051
0056065900999991956052106004+49617+006200FM-12+038099999V0200401N00411220001CN0090001N9+00501+00001101831ADDAY111999GF106991001001999999001061KA1999N+00281MW1051
0043065900999991956052112004+49617+006200FM-12+038099999V0200901N00261220001CN0180001N9+01391+00111101451ADDAY111999GF101991001001999999001011MW1021
0056065900999991956052118004+49617+006200FM-12+038099999V0200701N00411220001CN0180001N9+01611+00001100981ADDAY101999GF101991001001999999001011KA1999M+01721MW1021
0043065900999991956052200004+49617+006200FM-12+038099999V0200501N00511220001CN0140001N9+01001+00221101141ADDAY101999GF100991001001999999001001MW1021
0056065900999991956052206004+49617+006200FM-12+038099999V0200501N00511220001CN0060001N9+00891+00281101141ADDAY101999GF102991011001999999031061KA1999N+00721MW1051
0043065900999991956052212004+49617+006200FM-12+038099999V0201201N00361007801CN0120001N9+01781+01001100991ADDAY111999GF107991051021008001031999MW1031
0056065900999991956052218004+49617+006200FM-12+038099999V0200701N00211007801CN0120001N9+01781+01111100921ADDAY181999GF107991061031008001071999KA1999M+02001MW1021
0043065900999991956052300004+49617+006200FM-12+038099999V0200701N00311007801CN0080001N9+01391+01111101241ADDAY191999GF107991071081008001999999MW1801
0056065900999991956052306004+49617+006200FM-12+038099999V0200901N00101015001CN0014001N9+01281+01281101461ADDAY181999GF108991071051017501999999KA1999N+01221MW1281
0043065900999991956052312004+49617+006200FM-12+038099999V0202301N00051004501CN0030001N9+01781+01281101661ADDAY161999GF107991051081004501031999MW1051
0056065900999991956052318004+49617+006200FM-12+038099999V0209991C000019999999N0030001N9+01611+01391101821ADDAY191999GF107991041091008001031031KA1999M+02221MW1291
0043065900999991956052400004+49617+006200FM-12+038099999V0200101N00261220001CN0050001N9+01281+01221101941ADDAY111999GF103991031001999999031001MW1051
0056065900999991956052406004+49617+006200FM-12+038099999V0200301N00151220001CN0030001N9+01391+01221101861ADDAY101999GF102991021001999999031001KA1999N+01111MW1051
0043065900999991956052412004+49617+006200FM-12+038099999V0201801N00211220001CN0090001N9+02111+01221101531ADDAY101999GF104991041031008001001001MW1051
0056065900999991956052418004+49617+006200FM-12+038099999V0201901N00361001501CN0030001N9+01391+01281101421ADDAY191999GF107991061031001501999031KA1999M+02111MW1951
0043065900999991956052500004+49617+006200FM-12+038099999V0201801N002619999999N0016001N9+01281+01221101171ADDAY191999GF108991041071000751021999MW1611
0056065900999991956052506004+49617+006200FM-12+038099999V0202901N00461000601CN0024001N9+00891+00781101051ADDAY161999GF108991071071000751999999KA1999N+00781MW1631
0043065900999991956052512004+49617+006200FM-12+038099999V0202901N00411001501CN0026001N9+01001+01001101421ADDAY161999GF108991071071001501999999MW1611
0056065900999991956052518004+49617+006200FM-12+038099999V0202801N00411002401CN0028001N9+01001+00721101761ADDAY161999GF108991071071002501999999KA1999M+01221MW1051
0043065900999991956052600004+49617+006200FM-12+038099999V0202901N00101220001CN0020001N9+00611+00501102131ADDAY111999GF100991001001999999001001MW1051
0056065900999991956052606004+49617+006200FM-12+038099999V0202901N00101220001CN0002001N9+00391+00391102411ADDAY141999GF100991001001999999001001KA1999N+00221MW1461
0043065900999991956052612004+49617+006200FM-12+038099999V0209991V00151220001CN0180001N9+01391+00611102461ADDAY141999GF104991041011004501001011MW1021
0056065900999991956052618004+49617+006200FM-12+038099999V0200401N00361220001CN0160001N9+01391+00501102421ADDAY111999GF103991001001999999001061KA1999M+01501MW1011
0043065900999991956052700004+49617+006200FM-12+038099999V0200401N00671220001CN0030001N9+00781+00721102781ADDAY111999GF104991001001999999001061MW1051
0056065900999991956052706004+49617+006200FM-12+038099999V0200401N00671024001CN0040001N9+00781+00721102701ADDAY111999GF107991051001999999031061KA1999N+00721MW1051
0043065900999991956052712004+49617+006200FM-12+038099999V0200701N00511220001CN0050001N9+01781+01111102451ADDAY111999GF101991011001999999031011MW1051
0056065900999991956052718004+49617+006200FM-12+038099999V0200501N00511220001CN0070001N9+02001+01111102121ADDAY101999GF104991021001999999031061KA1999M+02221MW1051
0043065900999991956052800004+49617+006200FM-12+038099999V0200501N00511220001CN0070001N9+01391+01001102151ADDAY101999GF101991011001999999031001MW1051
0056065900999991956052806004+49617+006200FM-12+038099999V0200501N003119999999N0060001N9+01391+01001102051ADDAY111999GF105991011051012501081001KA1999N+01281MW1051
0043065900999991956052812004+49617+006200FM-12+038099999V0201001N00461220001CN0140001N9+02721+00891101661ADDAY101999GF101991011001999999031001MW1021
0056065900999991956052818004+49617+006200FM-12+038099999V0200701N00461220001CN0180001N9+02611+01221101311ADDAY111999GF104991021001999999031061KA1999M+02781MW1031
0043065900999991956052900004+49617+006200FM-12+038099999V0203301N00211012301CN0080001N9+01781+01281101401ADDAY191999GF108991051031012501031999MW1911
0056065900999991956052906004+49617+006200FM-12+038099999V0200601N00571012301CN0080001N9+01611+01391101301ADDAY191999GF107991051031012501031999KA1999N+01611MW1811
0043065900999991956052912004+49617+006200FM-12+038099999V0209991V00151220001CN0180001N9+02281+01501101421ADDAY181999GF103991021081012501031021MW1021
0056065900999991956052918004+49617+006200FM-12+038099999V0202801N006219999999N0200001N9+01781+01281101561ADDAY191999GF107991021081012501071061KA1999M+02501MW1021
0043065900999991956053000004+49617+006200FM-12+038099999V0203101N00051004501CN0050001N9+01501+01391102011ADDAY121999GF107991051061004501071999MW1051
0056065900999991956053006004+49617+006200FM-12+038099999V0203301N00051220001CN0018001N9+01391+01391102001ADDAY141999GF101991011051004501001001KA1999N+01281MW1101
0043065900999991956053012004+49617+006200FM-12+038099999V0200601N003119999999N0100001N9+02111+01281101811ADDAY111999GF105991031011008001001061MW1011
0056065900999991956053018004+49617+006200FM-12+038099999V0200401N00261220001CN0090001N9+02111+01391101421ADDAY111999GF101991001001999999001011KA1999M+02221MW1051
0043065900999991956053100004+49617+006200FM-12+038099999V0201701N00361004501CN0050001N9+01391+01281101481ADDAY121999GF108991081081004501999999MW1251
0056065900999991956053106004+49617+006200FM-12+038099999V0201601N002619999999N0035001N9+01221+01221101501ADDAY191999GF107991041071001501999999KA1999N+01221MW1251
0043065900999991956053112004+49617+006200FM-12+038099999V0202101N004119999999N0200001N9+02001+01111101371ADDAY181999GF106991041021008001031001MW1011
0056065900999991956053118004+49617+006200FM-12+038099999V0202301N004619999999N0400001N9+01781+01111101341ADDAY121999GF106991011021008001001061KA1999M+02111MW1011
0043065900999991956060100004+49617+006200FM-12+038099999V0203301N00051002401CN0120001N9+01281+01221101521ADDAY111999GF108991081061002501999999MW1031
0056065900999991956060106004+49617+006200FM-12+038099999V0203201N00311004501CN0040001N9+01111+01001101761ADDAY121999GF108991071071004501999999KA1999N+01111MW1601
0043065900999991956060112004+49617+006200FM-12+038099999V0203201N00261004501CN0035001N9+01281+01001102071ADDAY161999GF108991081081004501999999MW1051
0056065900999991956060118004+49617+006200FM-12+038099999V0203401N002119999999N0060001N9+01281+00781102341ADDAY121999GF107991041051012501999999KA1999M+01501MW1051
0043065900999991956060200004+49617+006200FM-12+038099999V0203301N00311015001CN0050001N9+01111+00891102601ADDAY121999GF107991071051017501999999MW1051
0056065900999991956060206004+49617+006200FM-12+038099999V0200101N00151015001CN0040001N9+01111+00891102681ADDAY121999GF107991071051017501999999KA1999N+01001MW1051
0043065900999991956060212004+49617+006200FM-12+038099999V0202201N00211012301CN0050001N9+01611+00891102521ADDAY121999GF107991071081012501999999MW1051
0056065900999991956060218004+49617+006200FM-12+038099999V0202301N00261012301CN0090001N9+01721+00891102261ADDAY121999GF107991071081012501999999KA1999M+01781MW1051
0043065900999991956060300004+49617+006200FM-12+038099999V0202501N00101007801CN0060001N9+01221+01111102301ADDAY111999GF108991071051008001999999MW1051
0056065900999991956060306004+49617+006200FM-12+038099999V0202601N00361012301CN0070001N9+01111+00781102311ADDAY121999GF106991061051012501031999KA1999N+01001MW1051
0043065900999991956060312004+49617+006200FM-12+038099999V0202401N00361004501CN0160001N9+01501+00891102191ADDAY181999GF107991071081004501999999MW1021
0056065900999991956060318004+49617+006200FM-12+038099999V0202701N00261007801CN0200001N9+01501+01001101881ADDAY121999GF107991061081008001031999KA1999M+01721MW1021
0043065900999991956060400004+49617+006200FM-12+038099999V0202001N00211220001CN0080001N9+01111+01001101741ADDAY111999GF102991021051017501001001MW1051
0056065900999991956060406004+49617+006200FM-12+038099999V0201801N00411007801CN0040001N9+01221+01001101411ADDAY111999GF107991061051008001031999KA1999N+01001MW1051
0043065900999991956060412004+49617+006200FM-12+038099999V0202201N008219999999N0200001N9+02001+00891101001ADDAY121999GF106991031011008001001061MW1021
0056065900999991956060418004+49617+006200FM-12+038099999V0202301N00771007801CN0250001N9+02111+00891100771ADDAY121999GF107991051081008001031061KA1999M+02281MW1021
0043065900999991956060500004+49617+006200FM-12+038099999V0202301N006719999999N0140001N9+01611+00781100901ADDAY111999GF105991031051012501031061MW1031
0056065900999991956060506004+49617+006200FM-12+038099999V0202401N00621012301CN0160001N9+01391+01111101091ADDAY161999GF107991071051012501999999KA1999N+01391MW1021
0043065900999991956060512004+49617+006200FM-12+038099999V0202701N004119999999N0050001N9+01391+01221101491ADDAY181999GF108991031071004501999999MW1601
0056065900999991956060518004+49617+006200FM-12+038099999V0202501N00311004501CN0180001N9+01391+01111101521ADDAY161999GF108991051071004501999999KA1999M+01501MW1021
0043065900999991956060600004+49617+006200FM-12+038099999V0200501N00101007801CN0060001N9+01221+01221101491ADDAY161999GF108991071051008001999999MW1611
0056065900999991956060606004+49617+006200FM-12+038099999V0201801N00211000601CN0020001N9+01391+01281101311ADDAY181999GF108991071071000751999999KA1999N+01221MW1601
0043065900999991956060612004+49617+006200FM-12+038099999V0202101N003119999999N0035001N9+01611+01391101301ADDAY161999GF108991041071001501071999MW1611
0056065900999991956060618004+49617+006200FM-12+038099999V0202301N006219999999N0220001N9+01721+01281101381ADDAY181999GF106991041031004501031999KA1999M+01721MW1251
0043065900999991956060700004+49617+006200FM-12+038099999V0202001N00311220001CN0120001N9+01281+01221101421ADDAY181999GF102991021001999999031001MW1011
0056065900999991956060706004+49617+006200FM-12+038099999V0202001N00151007801CN0090001N9+01281+01221101391ADDAY111999GF106991061081008001999061KA1999N+01221MW1051
0043065900999991956060712004+49617+006200FM-12+038099999V0201801N00411004501CN0080001N9+01501+01221101121ADDAY161999GF107991061081004501071999MW1051
0056065900999991956060718004+49617+006200FM-12+038099999V0201901N00511001501CN0040001N9+01221+01111100971ADDAY181999GF108991081031001501999999KA1999M+01611MW1801
0043065900999991956060800004+49617+006200FM-12+038099999V0202301N00721002401CN0160001N9+00781+00611101431ADDAY181999GF108991081031002501999999MW1251
0056065900999991956060806004+49617+006200FM-12+038099999V0202201N00571001501CN0120001N9+00721+00611101451ADDAY181999GF108991081031001501999999KA1999N+00721MW1801
0043065900999991956060812004+49617+006200FM-12+038099999V0202201N00511004501CN0200001N9+01111+00611101451ADDAY181999GF106991061081004501031999MW1011
0056065900999991956060818004+49617+006200FM-12+038099999V0202601N00461007801CN0120001N9+01111+00721101461ADDAY181999GF107991051081008001031999KA1999M+01281MW1031
0043065900999991956060900004+49617+006200FM-12+038099999V0202901N00151015001CN0050001N9+00721+00611101671ADDAY181999GF107991071051017501999999MW1051
0056065900999991956060906004+49617+006200FM-12+038099999V0203001N00101002401CN0026001N9+00721+00611101771ADDAY121999GF107991071081002501999999KA1999N+00611MW1051
0043065900999991956060912004+49617+006200FM-12+038099999V0201901N00101007801CN0120001N9+01221+00221101841ADDAY121999GF107991071081008001999999MW1021
