0123065900999991980010100004+49617+006217FM-12+0491ELLX V0202801N00511015001CN0200001N9-00101-00401101101ADDAA106000091AY111999GA1071+015009059GF107991071051017501999999MD1410001+9999MW1021REMSYN011700// 87650EQDQ01  00003PRCP99
0058065900999991980010100504+49617+006217FM-15+0491ELLX V0202801N00511999991CY0099001N1-00201-00401999999ADDMA1100811999999REMMET012CAVOK NOSIG?EQDQ01+000000PRSWM2
0087065900999991980010101004+49617+006217FM-12+0491ELLX V0202801N00511015001CN0200001N9-00201-00401101101ADDAY111999GA1071+015009059GF107991071051017501999999MD1410001+9999MW1021REMSYN00587650
0058065900999991980010101504+49617+006217FM-15+0491ELLX V0202701N00461999991CY0099001N1-00201-00301999999ADDMA1100811999999REMMET012CAVOK NOSIG?EQDQ01+000000PRSWM2
0087065900999991980010102004+49617+006217FM-12+0491ELLX V0202801N00461015001CN0200001N9-00201-00301101101ADDAY121999GA1071+015009059GF107991071051017501999999MD1410001+9999MW1021REMSYN00587650
0058065900999991980010102204+49617+006217FM-15+0491ELLX V0202701N00411999991CY0099001N1-00201-00301999999ADDMA1100811999999REMMET012CAVOK NOSIG?EQDQ01+000000PRSWM2
0068065900999991980010102504+49617+006217FM-15+0491ELLX V0202801N00511009001CN0112001N1-00201-00401999999ADDGA1071+009009059MA1100811999999REMMET006NOSIG?EQDQ01+000000PRSWM2
0087065900999991980010103004+49617+006217FM-12+0491ELLX V0202801N00511009001CN0180001N9-00201-00401101111ADDAY121999GA1071+009009059GF107991071051008001999999MD1410001+9999MW1021REMSYN00587630
0084065900999991980010104504+49617+006217FM-15+0491ELLX V0202701N00511006001CN0112001N1-00201-00401999999ADDGA1041+002709079GA2061+006009059MA1100811999999REMMET006NOSIG?EQDQ01+000000PRSWM2
0109065900999991980010105004+49617+006217FM-12+0491ELLX V0202701N00511002701CN0180001N9-00201-00401101111ADDAY121999GA1051+002709079GA2061+006009059GF107991071051002501999999MD1810021+9999MW1021REMSYN01185709 86620
0084065900999991980010105204+49617+006217FM-15+0491ELLX V0202201N00411002701CN0060001N1-00301-00401999999ADDGA1051+002709079GA2061+007509059MA1100811999999REMMET006NOSIG?EQDQ01+000000PRSWM2
0139065900999991980010106004+49617+006217FM-12+0491ELLX V0202601N00461002101CN0100001N9-00201-00401101101ADDAA199000091AY121999GA1051+002109079GA2071+005109059GF107991071051002501999999KA1999N-00301MD1810021+9999MW1021REMSYN01770053 85707 87617
0068065900999991980010106204+49617+006217FM-15+0491ELLX V0202701N00411001501CN0060001N1-00301-00301999999ADDGA1071+001509079MA1100811999999REMMET006NOSIG?EQDQ01+000000PRSWM2
0084065900999991980010106504+49617+006217FM-15+0491ELLX V0202601N00301001501CN0080001N1-00301-00401999999ADDGA1061+001509079GA2071+006009059MA1100811999999REMMET006NOSIG?EQDQ01+000000PRSWM2
0109065900999991980010107004+49617+006217FM-12+0491ELLX V0202601N00311001501CN0080001N9-00301-00401101081ADDAY121999GA1061+001509079GA2071+006009059GF107991071051001501999999MD1410001+9999MW1021REMSYN01186705 87620
0084065900999991980010107204+49617+006217FM-15+0491ELLX V0202701N00301009001CN0080001N1-00301-00301999999ADDGA1031+001809079GA2071+009009059MA1100811999999REMMET006NOSIG?EQDQ01+000000PRSWM2
0076065900999991980010107504+49617+006217FM-15+0491ELLX V0202601N00301009001CN0080001N1-00301-00401999999ADDGA1031+001809079GA2071+009009059REMMET0132 1008 NOSIG?EQDQ01+000000PRSWM2
0109065900999991980010108004+49617+006217FM-12+0491ELLX V0202601N00311009001CN0080001N9-00301-00401101101ADDAY121999GA1031+001809079GA2071+009009059GF107991071051001501999999MD1310021+9999MW1021REMSYN01183706 87630
0084065900999991980010108204+49617+006217FM-15+0491ELLX V0202801N00361009001CN0070001N1-00201-00301999999ADDGA1021+002109079GA2071+009009059MA1100811999999REMMET006NOSIG?EQDQ01+000000PRSWM2
0100065900999991980010108504+49617+006217FM-15+0491ELLX V0202701N00461009001CN0070001N1-00201-00301999999ADDGA1021+002109079GA2051+009009059GA3051+060009009MA1100811999999REMMET006NOSIG?EQDQ01+000000PRSWM2
0115065900999991980010109004+49617+006217FM-12+0491ELLX V0202701N00461060001CN0070001N9-00201-00301101101ADDAY121999GA1021+002109079GA2051+060009009GF107991051051001501001021MD1110021+9999MW1021REMSYN01782707 85630 85070
0100065900999991980010109204+49617+006217FM-15+0491ELLX V0202701N00461009001CN0070001N1-00201-00301999999ADDGA1021+002409079GA2051+009009059GA3061+060009009MA1100811999999REMMET006NOSIG?EQDQ01+000000PRSWM2
0100065900999991980010109504+49617+006217FM-15+0491ELLX V0202701N00361009001CN0080001N1-00201-00401999999ADDGA1021+002409079GA2051+009009059GA3061+060009009MA1100811999999REMMET006NOSIG?EQDQ01+000000PRSWM2
0131065900999991980010110004+49617+006217FM-12+0491ELLX V0202701N00361009001CN0080001N9-00201-00401101121ADDAY121999GA1021+002409079GA2051+009009059GA3061+060009009GF107991051081002501031021MD1210051+9999MW1021REMSYN01782708 85630 86070
0084065900999991980010110204+49617+006217FM-15+0491ELLX V0202601N00411009001CN0080001N1-00201-00401999999ADDGA1041+004509089GA2061+009009059MA1100811999999REMMET006NOSIG?EQDQ01+000000PRSWM2
0075065900999991980010110504+49617+006217FM-15+0491ELLX V0202601N00461003901CN0080001N1+99999+99999999999ADDGA1041+002109079GA2071+003909089REMMET012M0--M04 778?EQDQ01+000000PRSWM2
0109065900999991980010111004+49617+006217FM-12+0491ELLX V0202601N00461003901CN0080001N9-00201-00401101071ADDAY121999GA1041+002109079GA2071+003909089GF107991071081002501999999MD1810021+9999MW1021REMSYN01184707 87813
0084065900999991980010111204+49617+006217FM-15+0491ELLX V0202601N00411003901CN0080001N1-00201-00401999999ADDGA1041+002109079GA2071+003909089MA1100811999999REMMET006NOSIG?EQDQ01+000000PRSWM2
0084065900999991980010111504+49617+006217FM-15+0491ELLX V0202601N00411003901CN0080001N1-00201-00401999999ADDGA1021+002109079GA2071+003909089MA1100711999999REMMET006NOSIG?EQDQ01+000000PRSWM2
0145065900999991980010112004+49617+006217FM-12+0491ELLX V0202601N00411003901CN0080001N9-00201-00401101011ADDAA106000091AY121999GA1021+002109079GA2071+003909089GF107991071081002501999999MD1810071+9999MW1021REMSYN017700// 82707 87813EQDQ01  00003PRCP99
0084065900999991980010112504+49617+006217FM-15+0491ELLX V0202801N00361004801CN0112001N1-00101-00401999999ADDGA1031+003009079GA2071+004809089MA1100711999999REMMET006NOSIG?EQDQ01+000000PRSWM2
0109065900999991980010113004+49617+006217FM-12+0491ELLX V0202801N00361004801CN0100001N9-00101-00401101011ADDAY121999GA1031+003009079GA2071+004809089GF107991071081004501999999MD1610101+9999MW1021REMSYN01183710 87816
0084065900999991980010113204+49617+006217FM-15+0491ELLX V0202701N00461004801CN0112001N1-00101-00401999999ADDGA1011+003009079GA2071+004809089MA1100711999999REMMET006NOSIG?EQDQ01+000000PRSWM2
0100065900999991980010113504+49617+006217FM-15+0491ELLX V0202601N00461060001CN0112001N1-00201-00401999999ADDGA1011+003009079GA2041+004809089GA3051+060009009MA1100711999999REMMET006NOSIG?EQDQ01+000000PRSWM2
0131065900999991980010114004+49617+006217FM-12+0491ELLX V0202601N00461060001CN0120001N9-00201-00401101021ADDAY121999GA1011+003009079GA2041+004809089GA3051+060009009GF107991051081004501031021MD1510041+9999MW1021REMSYN01781710 84816 85070
0084065900999991980010114204+49617+006217FM-15+0491ELLX V0202601N00511220001CN0112001N1-00201-00401999999ADDGA1011+004809089GA2041+060009009MA1100711999999REMMET006NOSIG?EQDQ01+000000PRSWM2
0084065900999991980010114504+49617+006217FM-15+0491ELLX V0202701N00461060001CN0112001N1-00201-00401999999ADDGA1031+004809089GA2041+060009009MA1100711999999REMMET006NOSIG?EQDQ01+000000PRSWM2
0109065900999991980010115004+49617+006217FM-12+0491ELLX V0202701N00461060001CN0120001N9-00201-00401101021ADDAY121999GA1031+004809089GA2041+060009009GF106991041081004501031021MD1010011+9999MW1011REMSYN01183816 84070
0084065900999991980010115204+49617+006217FM-15+0491ELLX V0202701N00511060001CN0112001N1-00201-00501999999ADDGA1031+004809089GA2041+060009009MA1100711999999REMMET006NOSIG?EQDQ01+000000PRSWM2
0084065900999991980010115504+49617+006217FM-15+0491ELLX V0202801N00411060001CN0112001N1-00201-00501999999ADDGA1021+005409089GA2041+060009009MA1100711999999REMMET006NOSIG?EQDQ01+000000PRSWM2
0109065900999991980010116004+49617+006217FM-12+0491ELLX V0202801N00411060001CN0150001N9-00201-00501101051ADDAY121999GA1021+005409089GA2041+060009009GF106991031081004501031021MD1210021+9999MW1021REMSYN01182818 84070
0084065900999991980010116204+49617+006217FM-15+0491ELLX V0202801N00301060001CN0112001N1-00301-00401999999ADDGA1031+004809089GA2041+060009009MA1100811999999REMMET006NOSIG?EQDQ01+000000PRSWM2
0084065900999991980010116504+49617+006217FM-15+0491ELLX V0202801N00361004501CN0112001N1-00301-00501999999ADDGA1021+003009079GA2041+004509089MA1100811999999REMMET006NOSIG?EQDQ01+000000PRSWM2
0109065900999991980010117004+49617+006217FM-12+0491ELLX V0202801N00361004501CN0120001N9-00301-00501101081ADDAY121999GA1021+003009079GA2041+004509089GF106991051081004501031021MD1310041+9999MW1021REMSYN01182710 84815
0084065900999991980010117204+49617+006217FM-15+0491ELLX V0202801N00411001801CN0112001N1-00301-00501999999ADDGA1061+001809079GA2051+003909089MA1100711999999REMMET006NOSIG?EQDQ01+000000PRSWM2
0084065900999991980010117504+49617+006217FM-15+0491ELLX V0202801N00361001501CN0112001N1-00301-00401999999ADDGA1061+001509079GA2071+004509059MA1100711999999REMMET006NOSIG?EQDQ01+000000PRSWM2
0162065900999991980010118004+49617+006217FM-12+0491ELLX V0202801N00361001501CN0100001N9-00301-00401101071ADDAA199000091AJ100029199999999AY121999GA1061+001509079GA2071+004509059GF107991071051001501999999KA1999M-00101MD1010031+9999MW1031REMSYN02370051 86705 87615 99602
0068065900999991980010118204+49617+006217FM-15+0491ELLX V0202801N00361001801CN0112001N1-00301-00401999999ADDGA1071+001809079MA1100711999999REMMET006NOSIG?EQDQ01+000000PRSWM2
0069065900999991980010118504+49617+006217FM-15+0491ELLX V0202701N00411002401CN0112001N1-00301-00401999999ADDGA1061+002409079MA1100711999999REMMET007NOSIG+?EQDQ01+000000PRSWM2
0087065900999991980010119004+49617+006217FM-12+0491ELLX V0202701N00411002401CN0100001N9-00301-00401101071ADDAY121999GA1061+002409079GF106991061061002501999999MD1010011+9999MW1011REMSYN00586708
0068065900999991980010119204+49617+006217FM-15+0491ELLX V0202701N00361001801CN0112001N1-00301-00401999999ADDGA1071+001809079MA1100811999999REMMET006NOSIG?EQDQ01+000000PRSWM2
0068065900999991980010119504+49617+006217FM-15+0491ELLX V0202701N00251002401CN0112001N1-00301-00401999999ADDGA1071+002409079MA1100811999999REMMET006NOSIG?EQDQ01+000000PRSWM2
0087065900999991980010120004+49617+006217FM-12+0491ELLX V0202701N00261002401CN0100001N9-00301-00401101101ADDAY121999GA1071+002409079GF107991071061002501999999MD1310011+9999MW1031REMSYN00587708
0068065900999991980010120204+49617+006217FM-15+0491ELLX V0202701N00251002401CN0112001N1-00301-00501999999ADDGA1071+002409079MA1100811999999REMMET006NOSIG?EQDQ01+000000PRSWM2
0068065900999991980010120504+49617+006217FM-15+0491ELLX V0202701N00301003901CN0112001N1-00301-00401999999ADDGA1071+003909059MA1100811999999REMMET006NOSIG?EQDQ01+000000PRSWM2
0087065900999991980010121004+49617+006217FM-12+0491ELLX V0202701N00311003901CN0100001N9-00301-00401101111ADDAY121999GA1071+003909059GF107991071051004501999999MD1210041+9999MW1021REMSYN00587613
0068065900999991980010121204+49617+006217FM-15+0491ELLX V0202701N00301003301CN0112001N1-00301-00401999999ADDGA1051+003309059MA1100811999999REMMET006NOSIG?EQDQ01+000000PRSWM2
0068065900999991980010121504+49617+006217FM-15+0491ELLX V0202801N00361003601CN0080001N1-00301-00401999999ADDGA1071+003609059MA1100811999999REMMET006NOSIG?EQDQ01+000000PRSWM2
0087065900999991980010122004+49617+006217FM-12+0491ELLX V0202801N00361003601CN0080001N9-00301-00401101131ADDAY121999GA1071+003609059GF107991071051004501999999MD1210061+9999MW1021REMSYN00587612
0068065900999991980010122204+49617+006217FM-15+0491ELLX V0202701N00301003301CN0080001N1-00301-00401999999ADDGA1071+003309059MA1100811999999REMMET006NOSIG?EQDQ01+000000PRSWM2
0068065900999991980010122504+49617+006217FM-15+0491ELLX V0202701N00201003601CN0080001N1-00301-00401999999ADDGA1071+003609059MA1100811999999REMMET006NOSIG?EQDQ01+000000PRSWM2
0087065900999991980010123004+49617+006217FM-12+0491ELLX V0202701N00211003601CN0080001N9-00301-00301101141ADDAY121999GA1071+003609059GF107991071051004501999999MD1210051+9999MW1021REMSYN00587612
0068065900999991980010123204+49617+006217FM-15+0491ELLX V0202701N00361003901CN0080001N1-00201-00301999999ADDGA1071+003909059MA1100811999999REMMET006NOSIG?EQDQ01+000000PRSWM2
0069065900999991980010123504+49617+006217FM-15+0491ELLX V0202701N00361004501CN0070001N1-00301-00401999999ADDGA1071+004509059MA1100811999999REMMET007NOPSIG?EQDQ01+000000PRSWM2
0123065900999991980010200004+49617+006217FM-12+0491ELLX V0202701N00361004501CN0070001N9-00301-00301101141ADDAA106000091AY121999GA1071+004509059GF107991071051004501999999MD1210041+9999MW1021REMSYN011700// 87615EQDQ01  00003PRCP99
0068065900999991980010200204+49617+006217FM-15+0491ELLX V0202701N00301004201CN0070001N1-00301-00401999999ADDGA1071+004209059MA1100811999999REMMET006NOSIG?EQDQ01+000000PRSWM2
0052065900999991980010200504+49617+006217FM-15+0491ELLX V0202701N00411220001CN0080001N1-00301-00401999999ADDMA1100811999999REMMET006NOSIG?EQDQ01+000000PRSWM2
0087065900999991980010201004+49617+006217FM-12+0491ELLX V0202701N00411003301CN0080001N9-00301-00401101151ADDAY121999GA1071+003309059GF107991071051004501999999MD1110021+9999MW1021REMSYN00587611
0068065900999991980010201204+49617+006217FM-15+0491ELLX V0202701N00361003001CN0080001N1-00301-00401999999ADDGA1071+003009059MA1100811999999REMMET006NOSIG?EQDQ01+000000PRSWM2
0068065900999991980010201504+49617+006217FM-15+0491ELLX V0202701N00411004501CN0080001N1-00201-00301999999ADDGA1071+004509059MA1100811999999REMMET006NOSIG?EQDQ01+000000PRSWM2
0087065900999991980010202004+49617+006217FM-12+0491ELLX V0202701N00411004501CN0080001N9-00201-00301101131ADDAY121999GA1071+004509059GF107991071051004501999999MD1410001+9999MW1021REMSYN00587615
0068065900999991980010202504+49617+006217FM-15+0491ELLX V0202701N00361003901CN0070001N1-00201-00301999999ADDGA1071+003909059MA1100811999999REMMET006NOSIG?EQDQ01+000000PRSWM2
0087065900999991980010203004+49617+006217FM-12+0491ELLX V0202701N00361003901CN0070001N9-00201-00301101121ADDAY121999GA1071+003909059GF107991071051004501999999MD1210021+9999MW1021REMSYN00587613
0068065900999991980010203504+49617+006217FM-15+0491ELLX V0202701N00411003001CN0060001N1-00201-00301999999ADDGA1071+003009059MA1100811999999REMMET006NOSIG?EQDQ01+000000PRSWM2
0106065900999991980010204004+49617+006217FM-12+0491ELLX V0202701N00411003001CN0060001N9-00201-00301999999ADDAY121999GA1071+003009059GF107991071051004501999999MD1210031+9999MW1021REMSYN00587610EQDQ01+102223APOSLP
0068065900999991980010204204+49617+006217FM-15+0491ELLX V0202701N00361003301CN0060001N1-00301-00301999999ADDGA1071+003309059MA1100811999999REMMET006NOSIG?EQDQ01+000000PRSWM2
0068065900999991980010204504+49617+006217FM-15+0491ELLX V0203001N00251220001CN0070001N1-00201-00301999999ADDGA1041+002409079MA1101021999999REMMET006NOSIG?EQDQ01+000000PRSWM2
0087065900999991980010205004+49617+006217FM-12+0491ELLX V0203001N00261220001CN0070001N9-00201-00301101281ADDAY111999GA1041+002409079GF104991041061002501001001MD1210141+9999MW1011REMSYN00584708
0068065900999991980010205204+49617+006217FM-15+0491ELLX V0203101N00361220001CN0080001N1-00201-00301999999ADDGA1031+002409079MA1101021999999REMMET006NOSIG?EQDQ01+000000PRSWM2
0068065900999991980010205504+49617+006217FM-15+0491ELLX V0203201N00361220001CN0080001N1-00201-00401999999ADDGA1021+003009059MA1101021999999REMMET006NOSIG?EQDQ01+000000PRSWM2
0140065900999991980010206004+49617+006217FM-12+0491ELLX V0203201N00361220001CN0080001N9-00201-00401101341ADDAA199999929AJ100029199999999AY171999GA1021+003009059GF102991021051004501001001KA1999N-00301MD1210151+9999MW1011REMSYN01779753 82610 99602
0068065900999991980010206504+49617+006217FM-15+0491ELLX V0203001N00301220001CN0112001N1-00201-00401999999ADDGA1011+009009059MA1101081999999REMMET006NOSIG?EQDQ01+000000PRSWM2
0087065900999991980010207004+49617+006217FM-12+0491ELLX V0203001N00311220001CN0120001N9-00201-00401101431ADDAY101999GA1011+009009059GF101991011051008001001001MD1210181+9999MW1011REMSYN00581630
0068065900999991980010207204+49617+006217FM-15+0491ELLX V0203101N00251006001CN0112001N1-00301-00401999999ADDGA1051+006009059MA1101081999999REMMET006NOSIG?EQDQ01+000000PRSWM2
0068065900999991980010207504+49617+006217FM-15+0491ELLX V0203101N00301220001CN0112001N1-00301-00401999999ADDGA1031+006009059MA1101191999999REMMET006NOSIG?EQDQ01+000000PRSWM2
0087065900999991980010208004+49617+006217FM-12+0491ELLX V0203101N00311220001CN0120001N9-00301-00401101531ADDAY101999GA1031+006009059GF103991031051008001031001MD1210231+9999MW1031REMSYN00583620
0071065900999991980010208504+49617+006217FM-15+0491ELLX V0203001N00201009001CN0112001N1-00201-00301999999ADDGA1031+006009089GA2041+009009059MA1101291999999MW1851REMMET006NOSIG?
0132065900999991980010209004+49617+006217FM-12+0491ELLX V0203001N00211009001CN0100001N9-00201-00301101601ADDAJ100029199999999AY111999GA1031+006009089GA2041+009009059GF106991061081008001001001MD1310251+9999MW1851REMSYN01783820 84630 99602
0055065900999991980010209204+49617+006217FM-15+0491ELLX V0203201N00301220001CN0112001N1-00101-00201999999ADDGA1021+006009089MA1101291999999MW1261REMMET006NOSIG?
0087065900999991980010210004+49617+006217FM-12+0491ELLX V0203301N00411012001CN0180001N9+00001-00201101661ADDAY121999GA1031+006909089GF105991051081008001001001MD1210251+9999MW1261REMSYN00583823
0084065900999991980010210504+49617+006217FM-15+0491ELLX V0203301N00461007501CN0112001N1+00001-00401999999ADDGA1051+007509089GA2051+012009059MA1101391999999REMMET006NOISG?EQDQ01+000000PRSWM2
0093065900999991980010211004+49617+006217FM-12+0491ELLX V0203301N00461012001CN0250001N9+00001-00401101721ADDAY121999GA1051+012009059GF107991071081008001999999MD1110221+9999MW1031REMSYN01185825 85640
0068065900999991980010211204+49617+006217FM-15+0491ELLX V0203301N00511007501CN0112001N1+00001-00401999999ADDGA1061+007509089MA1101391999999REMMET006NOSIG?EQDQ01+000000PRSWM2
0137065900999991980010212004+49617+006217FM-12+0491ELLX V0203301N00511007501CN0250001N9+00001-00401101781ADDAA106999929AY181999GA1061+007509089GF107991071081008001999999MD1210201+9999MW1021WG199130699999REMSYN011797// 86825EQDQ01  99993PRCP99
0068065900999991980010212204+49617+006217FM-15+0491ELLX V0200701N00411007801CN0112001N1+00001-00301999999ADDGA1051+007809089MA1101491999999REMMET006NOSIG?EQDQ01+000000PRSWM2
0068065900999991980010212504+49617+006217FM-15+0491ELLX V0203401N00561220001CN0112001N1+00001-00401999999ADDGA1041+007809089MA1101491999999REMMET006NOSIG?EQDQ01+000000PRSWM2
0087065900999991980010213004+49617+006217FM-12+0491ELLX V0203401N00571012001CN0180001N9+00001-00401101771ADDAY121999GA1041+007809089GF105991051081008001001001MD1110121+9999MW1011REMSYN00584826
0068065900999991980010213204+49617+006217FM-15+0491ELLX V0203401N00411220001CN0112001N1+00001-00401999999ADDGA1041+009009089MA1101491999999REMMET006NOSIG?EQDQ01+000000PRSWM2
0068065900999991980010213504+49617+006217FM-15+0491ELLX V0203301N00411220001CN0112001N1+00001-00401999999ADDGA1041+009009089MA1101591999999REMMET006NOSIG?EQDQ01+000000PRSWM2
0101065900999991980010214004+49617+006217FM-12+0491ELLX V0203301N00411012001CN0180001N9+00001-00401101851ADDAY121999GA1041+009009089GF105991051081008001001001MD1110121+9999MW1021WG199370999999REMSYN00584830
0084065900999991980010214204+49617+006217FM-15+0491ELLX V0203401N00511010501CN0112001N1+00001-00401999999ADDGA1031+007509089GA2041+010509059MA1101591999999REMMET006NOSIG?EQDQ01+000000PRSWM2
0084065900999991980010214504+49617+006217FM-15+0491ELLX V0203401N00561010501CN0112001N1+00001-00401999999ADDGA1031+007509089GA2041+010509059MA1101591999999REMMET006NOSIG?EQDQ01+000000PRSWM2
0109065900999991980010215004+49617+006217FM-12+0491ELLX V0203401N00571010501CN0140001N9+00001-00401101931ADDAY121999GA1031+007509089GA2041+010509059GF105991051081008001001021MD1210141+9999MW1021REMSYN01183825 84635
0084065900999991980010215204+49617+006217FM-15+0491ELLX V0203301N00461220001CN0112001N1-00101-00501999999ADDGA1011+007509089GA2031+010509059MA1101591999999REMMET006NOSIG?EQDQ01+000000PRSWM2
0068065900999991980010215504+49617+006217FM-15+0491ELLX V0203301N00411220001CN0112001N1-00101-00401999999ADDGA1011+007509089MA1101691999999REMMET006NOSIG?EQDQ01+000000PRSWM2
0087065900999991980010216004+49617+006217FM-12+0491ELLX V0203301N00411220001CN0120001N9-00101-00401102011ADDAY111999GA1011+007509089GF104991021081008001031021MD1210201+9999MW1011REMSYN00581825
0084065900999991980010216204+49617+006217FM-15+0491ELLX V0203101N00201012001CN0112001N1-00101-00401999999ADDGA1031+007509089GA2061+012009059MA1101691999999REMMET006NOSIG?EQDQ01+000000PRSWM2
0084065900999991980010216504+49617+006217FM-15+0491ELLX V0203101N00151012001CN0112001N1-00101-00401999999ADDGA1021+007509089GA2061+012009059MA1101691999999REMMET006NOSIG?EQDQ01+000000PRSWM2
0109065900999991980010217004+49617+006217FM-12+0491ELLX V0203101N00151012001CN0120001N9-00101-00401102051ADDAY111999GA1021+007509089GA2061+012009059GF107991071081008001999999MD1210181+9999MW1031REMSYN01182825 86640
0084065900999991980010217204+49617+006217FM-15+0491ELLX V0203001N00201012001CN0112001N1-00101-00401999999ADDGA1031+006009089GA2061+012009059MA1101691999999REMMET006NOSIG?EQDQ01+000000PRSWM2
0084065900999991980010217504+49617+006217FM-15+0491ELLX V0203101N00201012001CN0112001N1-00101-00401999999ADDGA1021+008409089GA2061+012009059MA1101691999999REMMET006NOSIG?EQDQ01+000000PRSWM2
0162065900999991980010218004+49617+006217FM-12+0491ELLX V0203101N00211012001CN0120001N9-00101-00301102051ADDAA199999929AJ100019199999999AY111999GA1021+008409089GA2061+012009059GF107991071081008001999999KA1999M+00001MD1110101+9999MW1021REMSYN02379700 82828 86640 99601
0068065900999991980010218204+49617+006217FM-15+0491ELLX V0203101N00251220001CN0112001N1-00101-00401999999ADDGA1041+012009059MA1101801999999REMMET006NOSIG?EQDQ01+000000PRSWM2
0084065900999991980010218504+49617+006217FM-15+0491ELLX V0203001N00201012001CN0112001N1-00201-00401999999ADDGA1021+006009059GA2051+012009059MA1101801999999REMMET006NOSIG?EQDQ01+000000PRSWM2
0109065900999991980010219004+49617+006217FM-12+0491ELLX V0203001N00211012001CN0120001N9-00201-00401102101ADDAY121999GA1021+006009059GA2051+012009059GF106991061081008001001001MD1110081+9999MW1011REMSYN01182620 85640
0084065900999991980010219204+49617+006217FM-15+0491ELLX V0202901N00201010501CN0112001N1-00101-00301999999ADDGA1031+007509059GA2061+010509059MA1101801999999REMMET006NOSIG?EQDQ01+000000PRSWM2
0084065900999991980010219504+49617+006217FM-15+0491ELLX V0203001N00301220001CN0112001N1-00101-00301999999ADDGA1011+006009059GA2031+010509059MA1101801999999REMMET006NOSIG?EQDQ01+000000PRSWM2
0123065900999991980010220004+49617+006217FM-12+0491ELLX V0203001N00311220001CN0120001N9-00101-00301102151ADDAY111999GA1011+006009059GA2031+010509059GF104991041081008001001001MD1110091+9999MW1011WG199370999999REMSYN01181620 83635
0084065900999991980010220204+49617+006217FM-15+0491ELLX V0203001N00361012001CN0112001N1-00201-00301999999ADDGA1031+007509059GA2061+012009059MA1101801999999REMMET006NOSIG?EQDQ01+000000PRSWM2
0084065900999991980010220504+49617+006217FM-15+0491ELLX V0203101N00301009001CN0112001N1-00101-00301999999ADDGA1041+004509059GA2061+009009059MA1101801999999REMMET006NOSIG?EQDQ01+000000PRSWM2
0109065900999991980010221004+49617+006217FM-12+0491ELLX V0203101N00311009001CN0120001N9-00101-00301102151ADDAY111999GA1041+004509059GA2061+009009059GF107991071051004501999999MD1110091+9999MW1031REMSYN01184615 86630
0084065900999991980010221204+49617+006217FM-15+0491ELLX V0203101N00411009001CN0112001N1-00101-00301999999ADDGA1041+006009059GA2061+009009059MA1101901999999REMMET006NOSIG?EQDQ01+000000PRSWM2
0084065900999991980010221504+49617+006217FM-15+0491ELLX V0203101N00411007501CN0112001N1-00101-00301999999ADDGA1041+004509059GA2061+007509059MA1101901999999REMMET006NOSIG?EQDQ01+000000PRSWM2
0109065900999991980010222004+49617+006217FM-12+0491ELLX V0203101N00411007501CN0120001N9-00101-00301102201ADDAY121999GA1041+004509059GA2061+007509059GF107991071051004501999999MD1310101+9999MW1021REMSYN01184615 86625
0084065900999991980010222204+49617+006217FM-15+0491ELLX V0203101N00301004501CN0112001N1-00101-00301999999ADDGA1051+004509059GA2061+006009059MA1101901999999REMMET006NOSIG?EQDQ01+000000PRSWM2
0068065900999991980010222504+49617+006217FM-15+0491ELLX V0203101N00201006001CN0112001N1-00101-00301999999ADDGA1061+006009059MA1101901999999REMMET006NOSIG?EQDQ01+000000PRSWM2
0087065900999991980010223004+49617+006217FM-12+0491ELLX V0203101N00211006001CN0120001N9-00101-00301102271ADDAY121999GA1061+006009059GF106991061051008001001001MD1310111+9999MW1011REMSYN00586620
0068065900999991980010223204+49617+006217FM-15+0491ELLX V0203201N00251006001CN0112001N1-00101-00301999999ADDGA1061+006009059MA1102001999999REMMET006NOSIG?EQDQ01+000000PRSWM2
0068065900999991980010223504+49617+006217FM-15+0491ELLX V0203001N00301007501CN0112001N1-00201-00401999999ADDGA1071+007509059MA1102001999999REMMET006NOSIG?EQDQ01+000000PRSWM2
0123065900999991980010300004+49617+006217FM-12+0491ELLX V0203001N00261006001CN0100001N9-00201-00401102291ADDAA106000091AY111999GA1071+006009059GF107991071051008001999999MD1110131+9999MW1021REMSYN011700// 87620EQDQ01  00003PRCP99
0087065900999991980010301004+49617+006217FM-12+0491ELLX V0203001N00261009001CN0200001N9-00201-00401102301ADDAY121999GA1071+009009059GF107991071051008001999999MD1110081+9999MW1021REMSYN00587630
0068065900999991980010301504+49617+006217FM-15+0491ELLX V0202601N00301009001CN0112001N1-00301-00401999999ADDGA1071+009009059MA1102001999999REMMET006NOSIG?EQDQ01+000000PRSWM2
0087065900999991980010302004+49617+006217FM-12+0491ELLX V0202601N00311009001CN0200001N9-00301-00401102371ADDAY121999GA1071+009009059GF107991071051008001999999MD1310071+9999MW1021REMSYN00587630
0068065900999991980010302204+49617+006217FM-15+0491ELLX V0202601N00301009001CN0112001N1-00301-00401999999ADDGA1071+009009059MA1102001999999REMMET006NOSIG?EQDQ01+000000PRSWM2
0068065900999991980010302504+49617+006217FM-15+0491ELLX V0202701N00411009001CN0112001N1-00301-00401999999ADDGA1071+009009059MA1102001999999REMMET006NOSIG?EQDQ01+000000PRSWM2
0087065900999991980010303004+49617+006217FM-12+0491ELLX V0202701N00411009001CN0200001N9-00301-00401102401ADDAY121999GA1071+009009059GF107991071051008001999999MD1310111+9999MW1021REMSYN00587630
0068065900999991980010303204+49617+006217FM-15+0491ELLX V0202801N00251009001CN0112001N1-00301-00401999999ADDGA1071+009009059MA1102101999999REMMET006NOSIG?EQDQ01+000000PRSWM2
0068065900999991980010303504+49617+006217FM-15+0491ELLX V0202901N00201009001CN0112001N1-00301-00401999999ADDGA1061+009009059MA1102101999999REMMET006NOSIG?EQDQ01+000000PRSWM2
0087065900999991980010304004+49617+006217FM-12+0491ELLX V0202901N00211009001CN0200001N9-00301-00401102431ADDAY121999GA1061+009009059GF106991061051008001001001MD1310141+9999MW1021REMSYN00586630
0068065900999991980010304204+49617+006217FM-15+0491ELLX V0202801N00201007501CN0112001N1-00301-00401999999ADDGA1061+007509059MA1102101999999REMMET006NOSIG?EQDQ01+000000PRSWM2
0068065900999991980010304504+49617+006217FM-15+0491ELLX V0202901N00251009001CN0112001N1-00301-00401999999ADDGA1071+009009059MA1102001999999REMMET006NOSIG?EQDQ01+000000PRSWM2
0087065900999991980010305004+49617+006217FM-12+0491ELLX V0202801N00261009001CN0200001N9-00301-00401102391ADDAY121999GA1071+009009059GF107991071051008001999999MD1110021+9999MW1021REMSYN00587630
0068065900999991980010305204+49617+006217FM-15+0491ELLX V0203101N00251012001CN0112001N1-00301-00401999999ADDGA1051+012009059MA1102001999999REMMET006NOSIG?EQDQ01+000000PRSWM2
0058065900999991980010305504+49617+006217FM-15+0491ELLX V0203101N00251999991CY0099001N1-00301-00401999999ADDMA1102101999999REMMET012CAVOK NOSIG?EQDQ01+000000PRSWM2
0159065900999991980010306004+49617+006217FM-12+0491ELLX V0203101N00261220001CN0150001N9-00301-00401102421ADDAA199000091AJ100019199999999AY121999GA1031+015009059GF103991031051017501999001KA1999N-00401MD1310031+9999MW1011REMSYN01770054 83650 99601EQDQ01    003SCOMCG
0068065900999991980010306204+49617+006217FM-15+0491ELLX V0203401N00201220001CN0090001N1-00301-00401999999ADDGA1011+015009059MA1102101999999REMMET006NOSIG?EQDQ01+000000PRSWM2
0058065900999991980010306504+49617+006217FM-15+0491ELLX V0203301N00201999991CY0099001N1-00401-00501999999ADDMA1102101999999REMMET012CAVOK NOISG?EQDQ01+000000PRSWM2
0087065900999991980010307004+49617+006217FM-12+0491ELLX V0203301N00211220001CN0100001N9-00401-00501102441ADDAY101999GA1011+015009059GF101991011051017501031021MD1310041+9999MW1011REMSYN00581650
0068065900999991980010307204+49617+006217FM-15+0491ELLX V0209991C00001220001CN0070001N1-00401-00501999999ADDGA1011+015009059MA1102101999999REMMET006NOSIG?EQDQ01+000000PRSWM2
0055065900999991980010307504+49617+006217FM-15+0491ELLX V0203301N00151220001CN0035001N1-00401-00501999999ADDGA1011+015009059MA1102101999999MW1101REMMET006NOSIG?
0101065900999991980010308004+49617+006217FM-12+0491ELLX V0203301N00151220001CN0035001N9-00401-00501102481ADDAY101999GA1011+015009059GF101991011051017501031021MD1210071+9999MW1101WG199990299999REMSYN00581650
0055065900999991980010308204+49617+006217FM-15+0491ELLX V0203301N00101220001CN0035001N1-00301-00301999999ADDGA1011+015009059MA1102101999999MW1101REMMET006NOSIG?
0055065900999991980010308504+49617+006217FM-15+0491ELLX V0202401N00151220001CN0022001N1-00401-00501999999ADDGA1011+015009059MA1102101999999MW1101REMMET006NOSIG?
0106065900999991980010309004+49617+006217FM-12+0491ELLX V0202401N00151220001CN0022001N9-00401-00501102501ADDAY101999GA1011+015009059GF102991011051017501999021MD1210061+9999MW1101REMSYN00581650EQDQ01    003SCOMCG
0055065900999991980010309504+49617+006217FM-15+0491ELLX V0202401N00051220001CN0035001N1-00201-00201999999ADDGA1011+002409079MA1102101999999MW1101REMMET006NOSIG?
0087065900999991980010310004+49617+006217FM-12+0491ELLX V0202401N00051036001CN0035001N9-00201-00201102461ADDAY111999GA1011+002409079GF106991011061002501031021MD1210061+9999MW1101REMSYN00581708
0087065900999991980010310204+49617+006217FM-15+0491ELLX V0202501N00201060001CN0035001N1-00201-00401999999ADDGA1011+002409079GA2031+015009059GA3061+060009009MA1102101999999MW1101REMMET006NOSIG?
0084065900999991980010310504+49617+006217FM-15+0491ELLX V0202401N00201004801CN0060001N1-00201-00301999999ADDGA1021+002709079GA2061+004809059MA1102101999999REMMET006NOSIG?EQDQ01+000000PRSWM2
0109065900999991980010311004+49617+006217FM-12+0491ELLX V0202401N00211004801CN0060001N9-00201-00301102471ADDAY121999GA1021+002709079GA2061+004809059GF107991071081002501999999MD1110031+9999MW1031REMSYN01182709 86616
0071065900999991980010311204+49617+006217FM-15+0491ELLX V0202401N00201003601CN0050001N1-00201-00301999999ADDGA1051+003609089GA2071+012009059MA1102101999999MW1101REMMET006NOSIG?
0071065900999991980010311504+49617+006217FM-15+0491ELLX V0202501N00251001801CN0030001N1-00201-00301999999ADDGA1061+001809079GA2071+012009059MA1102101999999MW1101REMMET006NOISG?
0095065900999991980010312004+49617+006217FM-12+0491ELLX V0202501N00261001801CN0030001N9-00201-00301102451ADDAY111999GA1061+001809079GF107991071051001501999999MD1410001+9999MW1101REMSYN01386706 87640/N
0071065900999991980010312204+49617+006217FM-15+0491ELLX V0202901N00361002101CN0035001N1-00201-00301999999ADDGA1061+002109079GA2071+018009059MA1102101999999MW1101REMMET006NOSIG?
0071065900999991980010312504+49617+006217FM-15+0491ELLX V0202401N00201002401CN0020001N1-00101-00301999999ADDGA1061+002409079GA2071+015009059MA1102101999999MW1771REMMET006NOSIG?
0109065900999991980010313004+49617+006217FM-12+0491ELLX V0202401N00211002401CN0020001N9-00101-00301102441ADDAY121999GA1061+002409079GA2071+015009059GF107991071051002501999999MD1810021+9999MW1771REMSYN01186708 87650
0055065900999991980010313204+49617+006217FM-15+0491ELLX V0202601N00201001801CN0024001N1-00101-00201999999ADDGA1071+001809079MA1102101999999MW1771REMMET006NOSIG?
0071065900999991980010313504+49617+006217FM-15+0491ELLX V0202601N00251001801CN0030001N1-00101-00201999999ADDGA1061+001809079GA2071+004509059MA1102101999999MW1771REMMET006NOSIG?
0123065900999991980010314004+49617+006217FM-12+0491ELLX V0202601N00261001801CN0030001N9-00101-00201102411ADDAY121999GA1061+001809079GA2071+004509059GF108991071051002501999999MD1710041+9999MW1771WG199370999999REMSYN01186706 87615
0071065900999991980010314504+49617+006217FM-15+0491ELLX V0202501N00361001501CN0025001N1-00101-00201999999ADDGA1061+001509079GA2071+003909059MA1102101999999MW1221REMMET006NOSIG?
0109065900999991980010315004+49617+006217FM-12+0491ELLX V0202501N00361001501CN0025001N9-00101-00201102371ADDAY171999GA1061+001509079GA2071+003909059GF108991071051001501999999MD1810071+9999MW1221REMSYN01186705 87613
0071065900999991980010315504+49617+006217FM-15+0491ELLX V0202601N00301002101CN0023001N1-00101-00201999999ADDGA1061+002109079GA2071+003609059MA1102001999999MW1771REMMET006NOSIG?
0146065900999991980010316004+49617+006217FM-12+0491ELLX V0202601N00311002101CN0023001N9-00101-00201102361ADDAJ100019199999999AY121999GA1061+002109079GA2071+003609059GF108991071051002501999999MD1710061+9999MW1771WG199370999999REMSYN01786707 87612 99601
0071065900999991980010316204+49617+006217FM-15+0491ELLX V0202501N00461001801CN0030001N1-00201-00301999999ADDGA1061+001809079GA2071+004509059MA1102001999999MW1201REMMET006NOSIG?
0071065900999991980010316504+49617+006217FM-15+0491ELLX V0202401N00301018001CN0070001N1-00201-00301999999ADDGA1041+003609059GA2071+018009059MA1102001999999MW1201REMMET006NOSIG?
0132065900999991980010317004+49617+006217FM-12+0491ELLX V0202401N00311018001CN0070001N9-00201-00301102341ADDAJ100019199999999AY121999GA1041+003609059GA2071+018009059GF108991071051004501999999MD1710081+9999MW1201REMSYN01784612 87656 99601
0068065900999991980010317204+49617+006217FM-15+0491ELLX V0202501N00251018001CN0080001N1-00201-00301999999ADDGA1071+018009059MA1102001999999REMMET006NOSIG?EQDQ01+000000PRSWM2
0084065900999991980010317504+49617+006217FM-15+0491ELLX V0202201N00361005101CN0080001N1-00201-00301999999ADDGA1051+005109059GA2071+018009059MA1102001999999REMMET006NOSIG?EQDQ01+000000PRSWM2
0162065900999991980010318004+49617+006217FM-12+0491ELLX V0202201N00361005101CN0080001N9-00201-00301102351ADDAA199999929AJ100019199999999AY171999GA1051+005109059GA2071+018009059GF108991071051004501999999KA1999M-00101MD1610041+9999MW1021REMSYN02379751 85617 87656 99601
0084065900999991980010318204+49617+006217FM-15+0491ELLX V0202201N00301005101CN0080001N1-00201-00301999999ADDGA1051+005109059GA2071+018009059MA1102001999999REMMET006NOSIG?EQDQ01+000000PRSWM2
0084065900999991980010318504+49617+006217FM-15+0491ELLX V0202301N00411018001CN0080001N1-00201-00301999999ADDGA1041+004509059GA2071+018009059MA1102001999999REMMET006NOSIG?EQDQ01+000000PRSWM2
0109065900999991980010319004+49617+006217FM-12+0491ELLX V0202301N00411018001CN0080001N9-00201-00301102291ADDAY121999GA1041+004509059GA2071+018009059GF108991071051004501999999MD1810081+9999MW1021REMSYN01184615 87656
0084065900999991980010319204+49617+006217FM-15+0491ELLX V0202301N00461030001CN0112001N1-00201-00301999999ADDGA1031+004509059GA2071+030009049MA1101901999999REMMET006NOSIG?EQDQ01+000000PRSWM2
0109065900999991980010320004+49617+006217FM-12+0491ELLX V0202301N00461006901CN0100001N9-00201-00401102241ADDAY121999GA1051+006909059GA2081+030009049GF108991051051008001011999MD1810101+9999MW1021REMSYN01185623 88460
0084065900999991980010320204+49617+006217FM-15+0491ELLX V0202201N00411004501CN0080001N1-00201-00401999999ADDGA1061+004509059GA2081+030009049MA1101901999999REMMET006NOSIG?EQDQ01+000000PRSWM2
0071065900999991980010320504+49617+006217FM-15+0491ELLX V0202301N00411004501CN0045001N1-00201-00401999999ADDGA1061+004509059GA2081+030009049MA1101901999999MW1701REMMET006NOSIG?
0087065900999991980010321204+49617+006217FM-15+0491ELLX V0202201N00411004501CN0040001N1-00201-00301999999ADDGA1041+002709079GA2061+004509059GA3081+030009049MA1101901999999MW1701REMMET006NOSIG?
0071065900999991980010321504+49617+006217FM-15+0491ELLX V0202101N00411003601CN0030001N1-00201-00301999999ADDGA1061+003609059GA2081+030009049MA1101801999999MW1711REMMET006NOSIG?
0132065900999991980010322004+49617+006217FM-12+0491ELLX V0202101N00411003601CN0030001N9-00201-00301102171ADDAJ100019199999999AY171999GA1061+003609059GA2081+030009049GF108991061051004501021999MD1710121+9999MW1711REMSYN01786612 88460 99601
0087065900999991980010322204+49617+006217FM-15+0491ELLX V0202101N00411003601CN0030001N1-00301-00401999999ADDGA1041+001809079GA2061+003609059GA3081+030009049MA1101801999999MW1711REMMET006NOSIG?
0071065900999991980010322504+49617+006217FM-15+0491ELLX V0202101N00411003301CN0030001N1-00301-00301999999ADDGA1061+003309059GA2081+030009049MA1101801999999MW1711REMMET006NOSIG?
0132065900999991980010323004+49617+006217FM-12+0491ELLX V0202101N00411003301CN0030001N9-00301-00301102151ADDAJ100029199999999AY171999GA1061+003309059GA2081+030009049GF108991061051004501021999MD1610101+9999MW1711REMSYN01786611 88460 99602
0071065900999991980010323204+49617+006217FM-15+0491ELLX V0202101N00411001801CN0030001N1-00301-00301999999ADDGA1061+001809079GA2081+030009049MA1101801999999MW1711REMMET006NOSIG?
0071065900999991980010323504+49617+006217FM-15+0491ELLX V0202201N00461003301CN0030001N1-00301-00301999999ADDGA1061+003309059GA2081+030009049MA1101691999999MW1711REMMET006NOSIG?
0168065900999991980010400004+49617+006217FM-12+0491ELLX V0200201N00461003301CN0030001N9-00301-00401102081ADDAA106001091AJ100029199999999AY171999GA1061+003309059GA2081+030009049GF108991061051004501021999MD1810141+9999MW1711REMSYN023701// 86611 88460 99602EQDQ01  00103PRCP99
0071065900999991980010401504+49617+006217FM-15+0491ELLX V0202001N00511003301CN0020001N1-00301-00301999999ADDGA1061+003309059GA2081+030009049MA1101591999999MW1711REMMET006NOSIG?
0123065900999991980010402004+49617+006217FM-12+0491ELLX V0202001N00511003001CN0025001N9-00301-00401102081ADDAY171999GA1061+003009059GA2081+030009049GF108991061051004501021999MD1610071+9999MW1711WG199370999999REMSYN01186610 88460
0071065900999991980010402504+49617+006217FM-15+0491ELLX V0201901N00561003001CN0020001N1-00301-00301999999ADDGA1061+003009079GA2081+030009049MA1101591999999MW1711REMMET006NOSIG?
0109065900999991980010403004+49617+006217FM-12+0491ELLX V0201901N00571003001CN0020001N9-00301-00301102051ADDAY171999GA1061+003009059GA2081+030009049GF108991061051004501021999MD1810101+9999MW1711REMSYN01186610 88460
0071065900999991980010403504+49617+006217FM-15+0491ELLX V0201901N00561003001CN0020001N1-00301-00301999999ADDGA1061+003009079GA2081+030009049MA1101491999999MW1711REMMET006NOSIG?
0109065900999991980010404004+49617+006217FM-12+0491ELLX V0201901N00571003001CN0020001N9-00301-00301102011ADDAY171999GA1061+003009059GA2081+030009049GF108991061051002501021999MD1810151+9999MW1711REMSYN01186610 88460
0071065900999991980010404204+49617+006217FM-15+0491ELLX V0202001N00511002401CN0020001N1-00301-00301999999ADDGA1061+002409079GA2081+030009049MA1101491999999MW1711REMMET006NOSIG?
0107065900999991980010404504+49617+006217FM-15+0491ELLX V0201901N00511003001CN0020001N1-00301-00401999999ADDAA124999999GA1061+003009059GA2081+030009049MA1101391999999MW1711REMMET012NOSIG 24401?EQDQ01  99982PRCP24
0132065900999991980010405004+49617+006217FM-12+0491ELLX V0201901N00511003001CN0020001N9-00301-00401101761ADDAJ100049199999999AY171999GA1061+003009059GA2081+030009049GF108991061051004501021999MD1710311+9999MW1711REMSYN01786610 88460 99604
0100065900999991980010405204+49617+006217FM-15+0491ELLX V0201901N00561003301CN0020001N1-00301-00301999999ADDGA1031+001209079GA2061+003309059GA3081+030009049MA1101391999999MW1711REMMET019NOSIG 243401     ??
0100065900999991980010405504+49617+006217FM-15+0491ELLX V0201901N00511003301CN0020001N1-00301-00401999999ADDGA1031+001209079GA2041+003309059GA3081+030009049MA1101391999999MW1711REMMET019NOSIG 243601     ??
0184065900999991980010406004+49617+006217FM-12+0491ELLX V0201901N00511003301CN0020001N9-00301-00401101721ADDAA199004091AJ100049199999999AY171999GA1031+001209079GA2041+003309059GA3081+030009049GF108991061051001501021999KA1999N-00301MD1610241+9999MW1711REMSYN02970453 83704 84611 88460 99604
0056065900999991980010406204+49617+006217FM-15+0491ELLX V0201901N00611001201CN0020001N1-00301-00301999999ADDGA1061+001209079GA2081+030009049MA1101391999999MW1711
0055065900999991980010406504+49617+006217FM-15+0491ELLX V0202101N00611000601CN0011001N1-00201-00301999999ADDGA1071+000609079MA1101391999999MW1661REMMET006NOSIG?
0110065900999991980010407004+49617+006217FM-12+0491ELLX V0202101N00621000601CN0011001N9-00201-00301101681ADDAJ100049199999999AY171999GA1071+000609079GF108991071071000751999999MD1610151+9999MW1661REMSYN01187702 99604
0079065900999991980010407204+49617+006217FM-15+0491ELLX V0202001N00511000601CN0010001N1-00201-00301999999ADDED199U16769GA1071+000609079MA1101291999999MW1661REMMET019NOSIG24399/      ??
0087065900999991980010408004+49617+006217FM-12+0491ELLX V0202001N00571000301CN0004001N9-00201-00201101581ADDAY161999GA1071+000309079GF108991081071000751999999MD1710161+9999MW1581REMSYN00587701
0079065900999991980010408204+49617+006217FM-15+0491ELLX V0201901N00411000301CN0002001N1-00201-00301999999ADDED199U04269GA1081+000309079MA1101191999999MW1661REMMET019NOSIG24399/      ??
0079065900999991980010408504+49617+006217FM-15+0491ELLX V0201901N00461000301CN0001001N1-00201-00201999999ADDED199U03359GA1081+000309079MA1101191999999MW1481REMMET019NOSIG24399/      ??
0087065900999991980010409004+49617+006217FM-12+0491ELLX V0201901N00461000301CN0001001N9-00201-00201101561ADDAY171999GA1081+000309079GF108991081061000751999999MD1710131+9999MW1481REMSYN00588701
0079065900999991980010409204+49617+006217FM-15+0491ELLX V0201901N00461000301CN0001001N1-00201-00201999999ADDED199U02439GA1081+000309079MA1101191999999MW1561REMMET019NOSIG24399/      ??
0051065900999991980010409504+49617+006217FM-15+0491ELLX V0201901N00411000301CN0001001N1-00201-00201999999ADDED199U02439GA1081+000309079MA1101191999999MW1661
0087065900999991980010410004+49617+006217FM-12+0491ELLX V0201901N00411000301CN0001001N9-00201-00201101551ADDAY141999GA1081+000309079GF108991081061000751999999MD1610121+9999MW1661REMSYN00588701
0057065900999991980010410204+49617+006217FM-15+0491ELLX V0201801N00361220001CN0001001N1-00201-00201999999ADDED199U01829MA1101191999999MW1561REMMET013NOSIG 240005?
0051065900999991980010410504+49617+006217FM-15+0491ELLX V0201901N00361000301CN0001001N1-00201-00201999999ADDED199U01829GA1081+000309079MA1101191999999MW1561
0087065900999991980010411004+49617+006217FM-12+0491ELLX V0201901N00361000301CN0001001N9-00201-00201101501ADDAY161999GA1081+000309079GF108991081061000251999999MD1810061+9999MW1561REMSYN00588701
0051065900999991980010411204+49617+006217FM-15+0491ELLX V0201901N00361000301CN0001001N1-00101-00201999999ADDED199U01829GA1081+000309079MA1101081999999MW1661
0123065900999991980010412004+49617+006217FM-12+0491ELLX V0201901N00361000301CN0001001N9-00101-00101101431ADDAA106000391AY171999GA1081+000309079GF108991081061000251999999MD1810121+9999MW1661REMSYN011793// 88701EQDQ01  00033PRCP99
0051065900999991980010412204+49617+006217FM-15+0491ELLX V0201901N00361000301CN0001001N1-00101-00101999999ADDED199U02749GA1081+000309079MA1101081999999MW1661
0051065900999991980010412504+49617+006217FM-15+0491ELLX V0201901N00361000301CN0001001N1-00101-00101999999ADDED199U02439GA1081+000309079MA1101021999999MW1481
0087065900999991980010413004+49617+006217FM-12+0491ELLX V0201901N00361000301CN0001001N9-00101-00101101331ADDAY161999GA1081+000309079GF108991081061000251999999MD1810191+9999MW1481REMSYN00588701
0051065900999991980010413204+49617+006217FM-15+0491ELLX V0202001N00461000151CN0001001N1-00101-00101999999ADDED199U01829GA1081+000159079MA1101021999999MW1561
0051065900999991980010413504+49617+006217FM-15+0491ELLX V0202001N00411000151CN0001001N1-00101-00101999999ADDED199U01829GA1081+000159079MA1101021999999MW1561
0087065900999991980010414004+49617+006217FM-12+0491ELLX V0202001N00411000151CN0001001N9-00101-00101101271ADDAY141999GA1081+000159079GF108991081061000251999999MD1710211+9999MW1561REMSYN00588700
0066065900999991980010414204+49617+006217FM-15+0491ELLX V0202001N00461000151CN0001001N1+00001+00001999999ADDED199U01829GA1081+000159079MA1100911999999MW1561REMMET006NOSIG?
0051065900999991980010414504+49617+006217FM-15+0491ELLX V0202001N00411000151CN0001001N1+00001+00001999999ADDED199U01829GA1081+000159079MA1100911999999MW1561
0087065900999991980010415004+49617+006217FM-12+0491ELLX V0202001N00411000151CN0001001N9+00001-00101101201ADDAY161999GA1081+000159079GF108991081061000251999999MD1710211+9999MW1561REMSYN00588700
0051065900999991980010415204+49617+006217FM-15+0491ELLX V0201901N00411000151CN0001001N1+00001+00001999999ADDED199U01829GA1081+000159079MA1100911999999MW1561
0051065900999991980010415504+49617+006217FM-15+0491ELLX V0202001N00411000151CN0001001N1+00001+00001999999ADDED199U02439GA1081+000159079MA1100911999999MW1561
0087065900999991980010416004+49617+006217FM-12+0491ELLX V0202001N00411000151CN0001001N9+00001+00001101151ADDAY151999GA1081+000159079GF108991081061000251999999MD1610161+9999MW1561REMSYN00588700
0066065900999991980010416204+49617+006217FM-15+0491ELLX V0201901N00511000151CN0001001N1+00001+00001999999ADDED199U02439GA1081+000159079MA1100911999999MW1561REMMET006NOSIG?
0073065900999991980010416504+49617+006217FM-15+0491ELLX V0201901N00411000151CN0001001N1+00001+00001999999ADDED199U02439GA1081+000159079MA1100811999999MW1501REMMET013NOSIG 240005?
0093065900999991980010417004+49617+006217FM-12+0491ELLX V0201901N00411000151CN0001001N9+00001+00001101091ADDAY151999GA1081+000159079GF108991081061000251999999MD1710161+9999MW1501REMSYN01187EE  88700
0073065900999991980010417204+49617+006217FM-15+0491ELLX V0201901N00461000151CN0001001N1+00001+00001999999ADDED199U02749GA1081+000159079MA1100811999999MW1501REMMET013NOSIG 240005?
0073065900999991980010417504+49617+006217FM-15+0491ELLX V0201901N00461000151CN0001001N1+00001+00001999999ADDED199U03969GA1081+000159079MA1100811999999MW1581REMMET013NOSIG 240005?
0140065900999991980010418004+49617+006217FM-12+0491ELLX V0201901N00461000151CN0001001N9+00001+00001101081ADDAA199001091AJ100049199999999AY161999GA1081+000159079GF108991081061000251999999KA1999M+00001MD1610101+9999MW1581REMSYN01770100 88700 99604
0073065900999991980010418204+49617+006217FM-15+0491ELLX V0201901N00411000301CN0001001N1+00001+00001999999ADDED199U03969GA1081+000309079MA1100811999999MW1581REMMET013NOSIG 240005?
0067065900999991980010419204+49617+006217FM-15+0491ELLX V0201901N00301000301CN0001001N1+00101+00101999999ADDED199U03359GA1081+000309079MA1100811999999MW1581REMMET007240005?
0066065900999991980010419504+49617+006217FM-15+0491ELLX V0201901N00301000301CN0001001N1+00101+00101999999ADDED199U03359GA1081+000309079MA1100811999999MW1581REMMET006NOSIG?
0087065900999991980010420004+49617+006217FM-12+0491ELLX V0201901N00311000301CN0001001N9+00101+00101101021ADDAY161999GA1081+000309079GF108991081061000251999999MD1710051+9999MW1581REMSYN00588701
0067065900999991980010420204+49617+006217FM-15+0491ELLX V0201901N00301000301CN0001001N1+00101+00101999999ADDED199U02749GA1081+000309079MA1100711999999MW1581REMMET007NOSIHG?
0066065900999991980010420504+49617+006217FM-15+0491ELLX V0201801N00201000301CN0001001N1+00101+00101999999ADDED199U02749GA1081+000309079MA1100711999999MW1581REMMET006NOSIG?
0087065900999991980010421004+49617+006217FM-12+0491ELLX V0201801N00211000301CN0001001N9+00101+00101100951ADDAY161999GA1081+000309079GF108991081061000251999999MD1810111+9999MW1581REMSYN00588701
0066065900999991980010421204+49617+006217FM-15+0491ELLX V0201901N00251000301CN0001001N1+00101+00101999999ADDED199U02749GA1081+000309079MA1100711999999MW1581REMMET006NOSIG?
0066065900999991980010421504+49617+006217FM-15+0491ELLX V0201901N00301000301CN0001001N1+00101+00101999999ADDED199U03359GA1081+000309079MA1100711999999MW1581REMMET006NOSIG?
0087065900999991980010422004+49617+006217FM-12+0491ELLX V0201901N00311000301CN0001001N9+00101+00101100941ADDAY161999GA1081+000309079GF108991081061000251999999MD1610091+9999MW1581REMSYN00588701
0066065900999991980010422204+49617+006217FM-15+0491ELLX V0202001N00301000301CN0001001N1+00101+00101999999ADDED199U03969GA1081+000309079MA1100711999999MW1581REMMET006NOSIG?
0066065900999991980010422504+49617+006217FM-15+0491ELLX V0202001N00301000301CN0001001N1+00101+00101999999ADDED199U03969GA1081+000309079MA1100711999999MW1581REMMET006NOSIG?
0087065900999991980010423004+49617+006217FM-12+0491ELLX V0202001N00311000301CN0001001N9+00101+00101100921ADDAY161999GA1081+000309079GF108991081061000251999999MD1610091+9999MW1581REMSYN00588701
0066065900999991980010423204+49617+006217FM-15+0491ELLX V0202101N00201000301CN0001001N1+00101+00101999999ADDED199U03969GA1081+000309079MA1100711999999MW1581REMMET006NOSIG?
0066065900999991980010423504+49617+006217FM-15+0491ELLX V0202101N00101000301CN0001001N1+00101+00101999999ADDED199U03969GA1081+000309079MA1100711999999MW1581REMMET006NOSIG?
0123065900999991980010500004+49617+006217FM-12+0491ELLX V0202101N00101000301CN0001001N9+00101+00101100901ADDAA106003091AY161999GA1081+000309079GF108991081061000251999999MD1810041+9999MW1581REMSYN011703// 88701EQDQ01  00303PRCP99
0066065900999991980010500204+49617+006217FM-15+0491ELLX V0202101N00201000301CN0001001N1+00101+00101999999ADDED199U04269GA1081+000309079MA1100711999999MW1581REMMET006NOSIG?
0066065900999991980010500504+49617+006217FM-15+0491ELLX V0202101N00201000301CN0002001N1+00101+00101999999ADDED199U07319GA1081+000309079MA1100711999999MW1581REMMET006NOSIG?
0087065900999991980010501004+49617+006217FM-12+0491ELLX V0202101N00211000301CN0002001N9+00101+00101100901ADDAY161999GA1081+000309079GF108991081061000751999999MD1610041+9999MW1581REMSYN00588701
0066065900999991980010501204+49617+006217FM-15+0491ELLX V0202101N00201000301CN0002001N1+00101+00101999999ADDED199U07319GA1081+000309079MA1100711999999MW1581REMMET006NOSIG?
0066065900999991980010501504+49617+006217FM-15+0491ELLX V0202101N00151000301CN0002001N1+00101+00101999999ADDED199U07319GA1081+000309079MA1100711999999MW1581REMMET006NOSIG?
0087065900999991980010502004+49617+006217FM-12+0491ELLX V0202101N00151000301CN0002001N9+00101+00101100901ADDAY161999GA1081+000309079GF108991081061000751999999MD1610021+9999MW1581REMSYN00588701
0066065900999991980010502204+49617+006217FM-15+0491ELLX V0202701N00151000301CN0004001N1+00101+00101999999ADDED199U07929GA1081+000309079MA1100711999999MW1601REMMET006NOSIG?
0066065900999991980010502504+49617+006217FM-15+0491ELLX V0202701N00201000601CN0008001N1+00101+00101999999ADDED199U11889GA1071+000609079MA1100711999999MW1421REMMET006NOSIG?
0087065900999991980010503004+49617+006217FM-12+0491ELLX V0202701N00211000601CN0008001N9+00101+00101100901ADDAY161999GA1071+000609079GF108991071071000751999999MD1610021+9999MW1421REMSYN00587702
0055065900999991980010503204+49617+006217FM-15+0491ELLX V0203001N00411000901CN0015001N1+00201+00101999999ADDGA1071+000909079MA1100711999999MW1101REMMET006NOSIG?
0071065900999991980010503504+49617+006217FM-15+0491ELLX V0202801N00201015001CN0020001N1+00201+00101999999ADDGA1041+001809079GA2061+015009059MA1100911999999MW1101REMMET006NOSIG?
0057065900999991980010504004+49617+006217FM-12+0491ELLX V0202801N002119999999N0020001N9+00201+99999100921ADDAY121999GF107991041061002501999999MW1101REMSYN005/////
0055065900999991980010504204+49617+006217FM-15+0491ELLX V0202701N00201001201CN0030001N1+00201+00101999999ADDGA1071+001209079MA1100911999999MW1101REMMET006NOSIG?
0068065900999991980010504504+49617+006217FM-15+0491ELLX V0202601N00361001501CN0080001N1+00101+00101999999ADDGA1071+001509079MA1100711999999REMMET006NOSIG?EQDQ01+000000PRSWM2
0087065900999991980010505004+49617+006217FM-12+0491ELLX V0202601N00361001501CN0080001N9+00101+00101100961ADDAY121999GA1071+001509079GF108991071061001501999999MD1310061+9999MW1021REMSYN00587705
0068065900999991980010505204+49617+006217FM-15+0491ELLX V0202801N00301001201CN0080001N1+00101+00101999999ADDGA1071+001209079MA1100711999999REMMET006NOSIG?EQDQ01+000000PRSWM2
0068065900999991980010505504+49617+006217FM-15+0491ELLX V0202801N00361001201CN0060001N1+00101+00101999999ADDGA1071+001209079MA1100811999999REMMET006NOSIG?EQDQ01+000000PRSWM2
0117065900999991980010506004+49617+006217FM-12+0491ELLX V0202801N00361001201CN0060001N9+00101+00101101011ADDAA199006091AY161999GA1071+001209079GF108991071061001501999999KA1999N+00101MD1310111+9999MW1021REMSYN01170601 87704
0060065900999991980010506204+49617+006217FM-15+0491ELLX V0202501N00251000901CN0025001N1+00101+00101999999ADDGA1071+000909079MA1100711999999MW1101REMMET011TEMPO 1000?
0066065900999991980010506504+49617+006217FM-15+0491ELLX V0202601N00301000601CN0004001N1+00101+00101999999ADDED199U06709GA1081+000609079MA1100711999999MW1461REMMET006NOSIG?
0087065900999991980010507004+49617+006217FM-12+0491ELLX V0202601N00311000601CN0004001N9+00101+00101100991ADDAY121999GA1081+000609079GF108991081061000751999999MD1010091+9999MW1461REMSYN00588702
0085065900999991980010507504+49617+006217FM-15+0491ELLX V0202601N00361000301CN0003001N1+00201+00201999999ADDED199U03359GA1081+000309079MA1100811999999MW1421REMMET025GRADU 08007ST003       ??
0101065900999991980010508004+49617+006217FM-12+0491ELLX V0202601N00361000301CN0003001N9+00201+00201101021ADDAY141999GA1081+000309079GF108991081061000751999999MD1510051+9999MW1421WG199370999999REMSYN00588701
0085065900999991980010508204+49617+006217FM-15+0491ELLX V0202701N00411000301CN0002001N1+00101+00101999999ADDED199U02749GA1081+000309079MA1100811999999MW1461REMMET025GRADU 08007ST001       ??
0085065900999991980010508504+49617+006217FM-15+0491ELLX V0202601N00361000301CN0001001N1+00101+00101999999ADDED199U02439GA1081+000309079MA1100811999999MW1461REMMET025GRADU08007ST003        ??
0101065900999991980010509004+49617+006217FM-12+0491ELLX V0202601N00361000301CN0001001N9+00101+00101101061ADDAY141999GA1081+000309079GF108991081061000751999999MD1510041+9999MW1461WG199010999999REMSYN00588701
0085065900999991980010509204+49617+006217FM-15+0491ELLX V0202401N00301000301CN0001001N1+00201+00201999999ADDED199U02439GA1081+000309079MA1100811999999MW1441REMMET025GRADU08007ST003        ??
0085065900999991980010509504+49617+006217FM-15+0491ELLX V0202401N00251000301CN0001001N1+00201+00201999999ADDED199U01829GA1081+000309079MA1100811999999MW1441REMMET025GRADU08007ST003        ??
0087065900999991980010510004+49617+006217FM-12+0491ELLX V0202401N00261000301CN0001001N9+00201+00201101081ADDAY141999GA1081+000309079GF108991081061000751999999MD1610081+9999MW1441REMSYN00588701
0085065900999991980010510204+49617+006217FM-15+0491ELLX V0202401N00301000301CN0001001N1+00201+00201999999ADDED199U01829GA1081+000309079MA1100811999999MW1441REMMET025GRADU08007ST003        ??
0074065900999991980010510504+49617+006217FM-15+0491ELLX V0202601N00461000301CN0003001N1+00201+00201999999ADDGA1081+000309079MA1100811999999MW1421REMMET025GRADU06007ST003        ??
0101065900999991980010511004+49617+006217FM-12+0491ELLX V0202601N00461000301CN0003001N9+00201+00201101071ADDAY141999GA1081+000309079GF108991081061000751999999MD1610061+9999MW1421WG199010999999REMSYN00588701
0075065900999991980010511504+49617+006217FM-15+0491ELLX V0202501N00611001201CN0018001N1+00201+00101999999ADDGA1031+000609079GA2061+001209079MA1100811999999MW1581REMMET010GRADU3000?
0145065900999991980010512004+49617+006217FM-12+0491ELLX V0202501N00621001201CN0018001N9+00201+00101101071ADDAA106999929AY141999GA1031+000609079GA2061+001209079GF107991071061000751999999MD1010011+9999MW1581REMSYN017797// 83702 86704EQDQ01  99993PRCP99
0085065900999991980010512204+49617+006217FM-15+0491ELLX V0202501N00511000301CN0002001N1+00201+00201999999ADDED199U04879GA1081+000309079MA1100811999999MW1581REMMET025GRADU06007ST003        ??
0075065900999991980010512504+49617+006217FM-15+0491ELLX V0202701N00511001201CN0023001N1+00201+00101999999ADDGA1031+000609079GA2061+001209079MA1100811999999MW1101REMMET010GRADU5000?
0109065900999991980010513004+49617+006217FM-12+0491ELLX V0202701N00511001201CN0023001N9+00201+00101101071ADDAY151999GA1031+000609079GA2061+001209079GF107991071061000751999999MD1510011+9999MW1281REMSYN01183702 86704
0071065900999991980010513204+49617+006217FM-15+0491ELLX V0202701N00511001201CN0025001N1+00201+00201999999ADDGA1031+000609079GA2061+001209079MA1100811999999MW1211REMMET006NOSIG?
0071065900999991980010513504+49617+006217FM-15+0491ELLX V0202701N00511001501CN0025001N1+00201+00101999999ADDGA1031+000909079GA2071+001509079MA1100811999999MW1211REMMET006NOSIG?
0109065900999991980010514004+49617+006217FM-12+0491ELLX V0202701N00511001501CN0025001N9+00201+00101101051ADDAY121999GA1031+000909079GA2071+001509079GF107991071061001501999999MD1710021+9999MW1211REMSYN01183703 87705
0071065900999991980010514204+49617+006217FM-15+0491ELLX V0202601N00361001801CN0060001N1+00201+00101999999ADDGA1031+001209079GA2061+001809079MA1100811999999MW1211REMMET006NOSIG?
0071065900999991980010514504+49617+006217FM-15+0491ELLX V0202601N00411003901CN0050001N1+00201+00101999999ADDGA1031+001809079GA2071+003909059MA1100811999999MW1101REMMET006NOSIG?
0109065900999991980010515004+49617+006217FM-12+0491ELLX V0202601N00411003901CN0050001N9+00201+00101101051ADDAY161999GA1031+001809079GA2071+003909059GF107991071051002501999999MD1710021+9999MW1101REMSYN01183706 87613
0084065900999991980010515204+49617+006217FM-15+0491ELLX V0202501N00361001801CN0060001N1+00201+00101999999ADDGA1051+001809079GA2071+003609059MA1100811999999REMMET006NOSIG?EQDQ01+000000PRSWM2
0055065900999991980010515504+49617+006217FM-15+0491ELLX V0202301N00251001501CN0030001N1+00201+00101999999ADDGA1071+001509079MA1100811999999MW1501REMMET006NOSIG?
0087065900999991980010516004+49617+006217FM-12+0491ELLX V0202301N00261001501CN0030001N9+00201+00101101071ADDAY121999GA1071+001509079GF107991071061001501999999MD1510001+9999MW1501REMSYN00587705
0055065900999991980010516204+49617+006217FM-15+0491ELLX V0202301N00301001501CN0030001N1+00201+00101999999ADDGA1071+001509079MA1100811999999MW1501REMMET006NOSIG?
0055065900999991980010516504+49617+006217FM-15+0491ELLX V0202401N00411001501CN0030001N1+00201+00101999999ADDGA1071+001509079MA1100811999999MW1501REMMET006NOSIG?
0087065900999991980010517004+49617+006217FM-12+0491ELLX V0202401N00411001501CN0030001N9+00201+00101101061ADDAY121999GA1071+001509079GF107991071061001501999999MD1210011+9999MW1501REMSYN00587705
0055065900999991980010517204+49617+006217FM-15+0491ELLX V0202401N00511001801CN0060001N1+00201+00101999999ADDGA1071+001809079MA1100811999999MW1201REMMET006NOSIG?
0071065900999991980010517504+49617+006217FM-15+0491ELLX V0202501N00511009001CN0060001N1+00201+00101999999ADDGA1041+002109079GA2071+009009059MA1100811999999MW1201REMMET006NOSIG?
0162065900999991980010518004+49617+006217FM-12+0491ELLX V0202501N00511009001CN0060001N9+00201+00101101071ADDAA199001091AJ100019199999999AY161999GA1041+002109079GA2071+009009059GF107991071051002501999999KA1999M+00201MD1210021+9999MW1201REMSYN02370102 84707 87630 99601
0068065900999991980010518204+49617+006217FM-15+0491ELLX V0202401N00461004801CN0080001N1+00201+00101999999ADDGA1071+004809059MA1100811999999REMMET006NOSIG?EQDQ01+000000PRSWM2
0084065900999991980010518504+49617+006217FM-15+0491ELLX V0202301N00361004801CN0080001N1+00201+00101999999ADDGA1041+002709079GA2071+004809059MA1100811999999REMMET006NOSIG?EQDQ01+000000PRSWM2
0109065900999991980010519004+49617+006217FM-12+0491ELLX V0202301N00361004801CN0080001N9+00201+00101101071ADDAY121999GA1041+002709079GA2071+004809059GF107991071051002501999999MD1210011+9999MW1021REMSYN01184709 87616
0055065900999991980010519204+49617+006217FM-15+0491ELLX V0202201N00361003001CN0080001N1+00101+00001999999ADDGA1071+003009059MA1100811999999MW1601REMMET006NOSIG?
0071065900999991980010519504+49617+006217FM-15+0491ELLX V0202201N00361002401CN0080001N1+00101+00101999999ADDGA1051+002409079GA2071+003609059MA1100811999999MW1211REMMET006NOSIG?
0109065900999991980010520004+49617+006217FM-12+0491ELLX V0202201N00361002401CN0070001N9+00101+00101101081ADDAY121999GA1051+002409079GA2071+003609059GF107991071051002501999999MD1110011+9999MW1211REMSYN01185708 87612
0055065900999991980010520204+49617+006217FM-15+0491ELLX V0202201N00411001801CN0080001N1+00101+00101999999ADDGA1071+001809079MA1100811999999MW1601REMMET006NOSIG?
0055065900999991980010520504+49617+006217FM-15+0491ELLX V0202201N00361000901CN0060001N1+00101+00101999999ADDGA1071+000909079MA1100811999999MW1601REMMET006NOSIG?
0087065900999991980010521004+49617+006217FM-12+0491ELLX V0202201N00361000901CN0060001N9+00101+00101101061ADDAY161999GA1071+000909079GF108991071071001501999999MD1810021+9999MW1601REMSYN00587703
0055065900999991980010521204+49617+006217FM-15+0491ELLX V0202201N00301000901CN0035001N1+00101+00101999999ADDGA1071+000909079MA1100811999999MW1611REMMET006NOSIG?
0066065900999991980010521504+49617+006217FM-15+0491ELLX V0202201N00301000601CN0006001N1+00101+00101999999ADDED199U12809GA1071+000609079MA1100811999999MW1461REMMET006NOSIG?
0087065900999991980010522004+49617+006217FM-12+0491ELLX V0202201N00311000601CN0006001N9+00101+00101101061ADDAY141999GA1071+000609079GF108991071071000751999999MD1610011+9999MW1461REMSYN00587702
0066065900999991980010522204+49617+006217FM-15+0491ELLX V0202301N00361000601CN0008001N1+00201+00201999999ADDED199U08839GA1071+000609079MA1100811999999MW1601REMMET006NOSIG?
0066065900999991980010522504+49617+006217FM-15+0491ELLX V0202401N00301000601CN0004001N1+00201+00201999999ADDED199U07319GA1071+000609079MA1100811999999MW1461REMMET006NOSIG?
0087065900999991980010523004+49617+006217FM-12+0491ELLX V0202401N00311000601CN0004001N9+00201+00201101051ADDAY161999GA1071+000609079GF108991071061000751999999MD1610021+9999MW1461REMSYN00587702
0066065900999991980010523504+49617+006217FM-15+0491ELLX V0202501N00251001201CN0008001N1+00201+00201999999ADDED199U16769GA1071+001209079MA1100811999999MW1421REMMET006NOSIG?
0066065900999991980010600504+49617+006217FM-15+0491ELLX V0202601N00361000601CN0008001N1+00201+00201999999ADDED199U16769GA1071+000609079MA1100811999999MW1441REMMET006NOSIG?
0087065900999991980010601004+49617+006217FM-12+0491ELLX V0202601N00361000601CN0008001N9+00201+00201101041ADDAY141999GA1071+000609079GF108991071061000751999999MD1410001+9999MW1441REMSYN00587702
0068065900999991980010601504+49617+006217FM-15+0491ELLX V0202601N00301001501CN0060001N1+00201+00201999999ADDGA1071+001509079MA1100811999999REMMET006NOSIG?EQDQ01+000000PRSWM2
0068065900999991980010602204+49617+006217FM-15+0491ELLX V0202701N00411001801CN0070001N1+00201+00201999999ADDGA1071+001809079MA1100811999999REMMET006NOSIG?EQDQ01+000000PRSWM2
0068065900999991980010602504+49617+006217FM-15+0491ELLX V0202601N00301001801CN0070001N1+00201+00201999999ADDGA1071+001809079MA1100811999999REMMET006NOSIG?EQDQ01+000000PRSWM2
0087065900999991980010603004+49617+006217FM-12+0491ELLX V0202601N00311001801CN0070001N9+00201+00201101051ADDAY141999GA1071+001809079GF108991071061001501999999MD1410001+9999MW1021REMSYN00587706
0068065900999991980010603204+49617+006217FM-15+0491ELLX V0202601N00301001801CN0070001N1+00201+00201999999ADDGA1071+001809079MA1100811999999REMMET006NOSIG?EQDQ01+000000PRSWM2
0068065900999991980010603504+49617+006217FM-15+0491ELLX V0202501N00301001801CN0070001N1+00201+00201999999ADDGA1071+001809079MA1100811999999REMMET006NOSIG?EQDQ01+000000PRSWM2
0087065900999991980010604004+49617+006217FM-12+0491ELLX V0202501N00311001801CN0070001N9+00201+00201101031ADDAY121999GA1071+001809079GF108991071061001501999999MD1810021+9999MW1021REMSYN00587706
0068065900999991980010604504+49617+006217FM-15+0491ELLX V0202801N00301001501CN0070001N1+00201+00101999999ADDGA1071+001509079MA1100811999999REMMET006NOSIG?EQDQ01+000000PRSWM2
0087065900999991980010605004+49617+006217FM-12+0491ELLX V0202801N00311001501CN0070001N9+00201+00101101091ADDAY121999GA1071+001509079GF108991071061001501999999MD1310041+9999MW1021REMSYN00587705
0066065900999991980010605504+49617+006217FM-15+0491ELLX V0202501N00361000601CN0004001N1+00201+00201999999ADDED199U05799GA1071+000609079MA1100911999999MW1461REMMET006NOSIG?
0117065900999991980010606004+49617+006217FM-12+0491ELLX V0202501N00361000601CN0004001N9+00201+00201101121ADDAA199001091AY141999GA1071+000609079GF108991071061000751999999KA1999N+00201MD1210071+9999MW1461REMSYN01170102 87702
0066065900999991980010606204+49617+006217FM-15+0491ELLX V0202601N00361000301CN0001001N1+00201+00201999999ADDED199U03359GA1081+000309079MA1100911999999MW1461REMMET006NOSIG?
0066065900999991980010606504+49617+006217FM-15+0491ELLX V0202601N00301000301CN0001001N1+00201+00201999999ADDED199U03359GA1081+000309079MA1100911999999MW1461REMMET006NOSIG?
0087065900999991980010607004+49617+006217FM-12+0491ELLX V0202601N00311000301CN0001001N9+00201+00201101141ADDAY141999GA1081+000309079GF108991081061000751999999MD1210071+9999MW1461REMSYN00588701
0066065900999991980010607204+49617+006217FM-15+0491ELLX V0202601N00361000301CN0001001N1+00201+00201999999ADDED199U03969GA1081+000309079MA1100911999999MW1501REMMET006NOSIG?
0106065900999991980010607504+49617+006217FM-15+0491ELLX V0202601N00411000601CN0012001N1+00201+00201999999ADDED199U19209GA1051+000609079GA2061+000909079MA1100911999999MW1201REMMET030GRADU4000        ?     6ST003?
0109065900999991980010608004+49617+006217FM-12+0491ELLX V0202601N00411000601CN0012001N9+00201+00201101151ADDAY151999GA1051+000609079GA2061+000909079GF107991071061000751999999MD1110061+9999MW1281REMSYN01185702 86703
0102065900999991980010608204+49617+006217FM-15+0491ELLX V0202601N00411001801CN0030001N1+00201+00201999999ADDGA1051+001809079GA2061+002709079MA1100911999999MW1581REMMET037GRADU5000        ?     3ST008 6CU015?
0102065900999991980010608504+49617+006217FM-15+0491ELLX V0202501N00301001801CN0030001N1+00201+00201999999ADDGA1051+001809079GA2061+002709079MA1100911999999MW1211REMMET037GRADU5000        ?     3ST008 6CU015?
0109065900999991980010609004+49617+006217FM-12+0491ELLX V0202501N00311001801CN0030001N9+00201+00201101171ADDAY161999GA1051+001809079GA2061+002709079GF107991071061001501999999MD1110051+9999MW1211REMSYN01185706 86709
0075065900999991980010609204+49617+006217FM-15+0491ELLX V0202501N00301002101CN0030001N1+00201+00201999999ADDGA1051+002109079GA2061+005409059MA1101021999999MW1211REMMET010GRADU5000?
0075065900999991980010609504+49617+006217FM-15+0491ELLX V0202401N00301001801CN0030001N1+00201+00201999999ADDGA1051+001809079GA2061+002709079MA1101021999999MW1101REMMET010GRADU5000?
0109065900999991980010610004+49617+006217FM-12+0491ELLX V0202401N00311001801CN0030001N9+00201+00201101231ADDAY121999GA1051+001809079GA2061+002709079GF107991071061001501999999MD1210091+9999MW1101REMSYN01185706 86709
0075065900999991980010610204+49617+006217FM-15+0491ELLX V0202501N00411001201CN0028001N1+00201+00201999999ADDGA1051+001209079GA2061+003009059MA1101021999999MW1581REMMET010GRADU5000?
0075065900999991980010610504+49617+006217FM-15+0491ELLX V0202601N00411000301CN0020001N1+00201+00201999999ADDGA1051+000309079GA2061+000909079MA1101021999999MW1211REMMET010GRADU3000?
0109065900999991980010611004+49617+006217FM-12+0491ELLX V0202601N00411000301CN0020001N9+00201+00201101251ADDAY121999GA1051+000309079GA2061+000909079GF107991071071000751999999MD1110101+9999MW1211REMSYN01185701 86703
0075065900999991980010611204+49617+006217FM-15+0491ELLX V0202701N00511000901CN0030001N1+00201+00201999999ADDGA1051+000909079GA2061+001809079MA1101021999999MW1101REMMET010GRADU5000?
0071065900999991980010611504+49617+006217FM-15+0491ELLX V0202601N00511001501CN0050001N1+00301+00201999999ADDGA1051+001509079GA2061+003009059MA1101021999999MW1211REMMET006NOSIG?
0156065900999991980010612004+49617+006217FM-12+0491ELLX V0202601N00511001501CN0050001N9+00301+00201101221ADDAA106999999AA299000191AY161999GA1051+001509079GA2061+003009059GF107991071051001501999999MD1110061+9999MW1211REMSYN017791// 85705 86610EQDQ01  00002PRCP06
0084065900999991980010612204+49617+006217FM-15+0491ELLX V0202601N00511001501CN0080001N1+00201+00201999999ADDGA1051+001509079GA2061+003009059MA1101021999999REMMET006NOSIG?EQDQ01+000000PRSWM2
0084065900999991980010612504+49617+006217FM-15+0491ELLX V0202701N00511002101CN0070001N1+00301+00201999999ADDGA1051+002109079GA2061+003009059MA1100911999999REMMET006NOSIG?EQDQ01+000000PRSWM2
0109065900999991980010613004+49617+006217FM-12+0491ELLX V0202701N00511002101CN0070001N9+00301+00201101161ADDAY121999GA1051+002109079GA2061+003009059GF107991071051002501999999MD1610061+9999MW1021REMSYN01185707 86610
0084065900999991980010613204+49617+006217FM-15+0491ELLX V0202701N00561002101CN0080001N1+00301+00201999999ADDGA1051+002109079GA2061+003609059MA1100911999999REMMET006NOSIG?EQDQ01+000000PRSWM2
0087065900999991980010613504+49617+006217FM-15+0491ELLX V0202701N00461003601CN0070001N1+00301+00201999999ADDGA1031+002409079GA2041+003609089GA3061+004509059MA1100911999999MW1801REMMET006NOSIG?
0131065900999991980010614004+49617+006217FM-12+0491ELLX V0202701N00461003601CN0070001N9+00301+00201101141ADDAY181999GA1031+002409079GA2041+003609089GA3061+004509059GF107991071081002501999999MD1610101+9999MW1801REMSYN01783708 84812 86615
0100065900999991980010614204+49617+006217FM-15+0491ELLX V0202701N00411003601CN0080001N1+00201+00101999999ADDGA1031+002409079GA2041+003609089GA3061+007509059MA1100911999999REMMET006NOSIG?EQDQ01+000000PRSWM2
0071065900999991980010614504+49617+006217FM-15+0491ELLX V0202701N00511003601CN0080001N1+00201+00101999999ADDGA1031+002409079GA2051+003609089MA1100911999999MW1251REMMET006NOSIG?
0109065900999991980010615004+49617+006217FM-12+0491ELLX V0202701N00511003601CN0080001N9+00201+00101101151ADDAY181999GA1031+002409079GA2051+003609089GF107991071081002501999999MD1610081+9999MW1251REMSYN01183708 85812
0084065900999991980010615204+49617+006217FM-15+0491ELLX V0202601N00361002101CN0070001N1+00201+00101999999ADDGA1031+001509079GA2061+002109079MA1100911999999REMMET006NOSIG?EQDQ01+000000PRSWM2
0071065900999991980010615504+49617+006217FM-15+0491ELLX V0202601N00511002101CN0050001N1+00201+00101999999ADDGA1041+001509079GA2071+002109079MA1100911999999MW1101REMMET006NOSIG?
0109065900999991980010616004+49617+006217FM-12+0491ELLX V0202601N00511002101CN0050001N9+00201+00101101141ADDAY121999GA1041+001509079GA2071+002109079GF107991071071001501999999MD1610021+9999MW1101REMSYN01184705 87707
0071065900999991980010616204+49617+006217FM-15+0491ELLX V0202601N00411001501CN0070001N1+00201+00101999999ADDGA1061+001509079GA2031+003609089MA1100911999999MW1801REMMET006NOSIG?
0071065900999991980010616504+49617+006217FM-15+0491ELLX V0202701N00411001501CN0070001N1+00201+00101999999ADDGA1051+001509079GA2071+002109079MA1100911999999MW1251REMMET006NOSIG?
0109065900999991980010617004+49617+006217FM-12+0491ELLX V0202701N00411001501CN0070001N9+00201+00101101171ADDAY121999GA1051+001509079GA2071+002109079GF107991071071000751999999MD1110021+9999MW1251REMSYN01185705 87707
0071065900999991980010617204+49617+006217FM-15+0491ELLX V0202601N00301001501CN0070001N1+00201+00101999999ADDGA1061+001509079GA2071+002109079MA1100911999999MW1251REMMET006NOSIG?
0084065900999991980010617504+49617+006217FM-15+0491ELLX V0202501N00361001801CN0070001N1+00201+00101999999ADDGA1061+001809079GA2071+003009059MA1100911999999REMMET006NOSIG?EQDQ01+000000PRSWM2
0139065900999991980010618004+49617+006217FM-12+0491ELLX V0202501N00361001801CN0070001N9+00201+00101101171ADDAA199000391AY181999GA1061+001809079GA2071+003009059GF107991071051002501999999KA1999M+00301MD1110021+9999MW1021REMSYN01779303 86706 87610
0068065900999991980010618204+49617+006217FM-15+0491ELLX V0202701N00411002401CN0070001N1+00201+00101999999ADDGA1061+002409079MA1100911999999REMMET006NOSIG?EQDQ01+000000PRSWM2
0084065900999991980010618504+49617+006217FM-15+0491ELLX V0202701N00461002401CN0070001N1+00201+00101999999ADDGA1051+002409079GA2061+003309059MA1100911999999REMMET006NOSIG?EQDQ01+000000PRSWM2
0109065900999991980010619004+49617+006217FM-12+0491ELLX V0202701N00461002401CN0070001N9+00201+00101101181ADDAY121999GA1051+002409079GA2061+003309059GF107991071051002501999999MD1110021+9999MW1021REMSYN01185708 86611
0068065900999991980010619504+49617+006217FM-15+0491ELLX V0202601N00251002101CN0060001N1+00201+00101999999ADDGA1071+002109079MA1100911999999REMMET006NOSIG?EQDQ01+000000PRSWM2
0087065900999991980010620004+49617+006217FM-12+0491ELLX V0202601N00261002101CN0060001N9+00201+00101101181ADDAY121999GA1071+002109079GF107991071061002501999999MD1410001+9999MW1021REMSYN00587707
0084065900999991980010620204+49617+006217FM-15+0491ELLX V0202601N00301002101CN0060001N1+00201+00101999999ADDGA1051+002109079GA2071+003609059MA1101021999999REMMET006NOSIG?EQDQ01+000000PRSWM2
0068065900999991980010620504+49617+006217FM-15+0491ELLX V0202701N00361001801CN0060001N1+00201+00101999999ADDGA1071+001809079MA1101021999999REMMET006NOSIG?EQDQ01+000000PRSWM2
0087065900999991980010621004+49617+006217FM-12+0491ELLX V0202701N00361001801CN0060001N9+00201+00101101231ADDAY121999GA1071+001809079GF107991071061001501999999MD1310061+9999MW1021REMSYN00587706
0068065900999991980010621204+49617+006217FM-15+0491ELLX V0202701N00411001501CN0060001N1+00201+00101999999ADDGA1071+001509079MA1101021999999REMMET006NOSIG?EQDQ01+000000PRSWM2
0068065900999991980010621504+49617+006217FM-15+0491ELLX V0202601N00411001501CN0060001N1+00101+00101999999ADDGA1071+001509079MA1101021999999REMMET006NOSIG?EQDQ01+000000PRSWM2
0087065900999991980010622004+49617+006217FM-12+0491ELLX V0202601N00411001501CN0060001N9+00101+00101101241ADDAY121999GA1071+001509079GF108991081061001501999999MD1110061+9999MW1031REMSYN00587705
0068065900999991980010622204+49617+006217FM-15+0491ELLX V0202701N00411001501CN0070001N1+00101+00001999999ADDGA1071+001509079MA1101021999999REMMET006NOSIG?EQDQ01+000000PRSWM2
0084065900999991980010622504+49617+006217FM-15+0491ELLX V0202701N00251001501CN0060001N1+00101+00001999999ADDGA1051+001509079GA2081+002409079MA1101021999999REMMET006NOSIG?EQDQ01+000000PRSWM2
0109065900999991980010623004+49617+006217FM-12+0491ELLX V0202701N00261001501CN0060001N9+00101+00001101251ADDAY121999GA1051+001509079GA2081+002409079GF108991081061001501999999MD1110061+9999MW1021REMSYN01185705 88708
0084065900999991980010623204+49617+006217FM-15+0491ELLX V0202701N00201001501CN0060001N1+00101+00101999999ADDGA1051+001509079GA2071+002409079MA1101021999999REMMET006NOSIG?EQDQ01+000000PRSWM2
0084065900999991980010623504+49617+006217FM-15+0491ELLX V0202501N00251001501CN0060001N1+00101+00001999999ADDGA1051+001509079GA2071+002409079MA1101021999999REMMET006NOSIG?EQDQ01+000000PRSWM2
0145065900999991980010700004+49617+006217FM-12+0491ELLX V0202501N00261001501CN0060001N9+00101+00001101251ADDAA106000091AY121999GA1051+001509079GA2071+002409079GF107991071061001501999999MD1410001+9999MW1011REMSYN017700// 85705 87708EQDQ01  00003PRCP99
0055065900999991980010700204+49617+006217FM-15+0491ELLX V0202401N00201001501CN0050001N1+00101+00101999999ADDGA1071+001509079MA1101021999999MW1101REMMET006NOSIG?
0055065900999991980010700504+49617+006217FM-15+0491ELLX V0202401N00201001501CN0040001N1+00101+00001999999ADDGA1071+001509079MA1101021999999MW1101REMMET006NOSIG?
0087065900999991980010701004+49617+006217FM-12+0491ELLX V0202401N00211001501CN0040001N9+00101+00001101251ADDAY121999GA1071+001509079GF107991071061001501999999MD1410001+9999MW1101REMSYN00587705
0055065900999991980010701204+49617+006217FM-15+0491ELLX V0202401N00151001501CN0040001N1+00101+00001999999ADDGA1071+001509079MA1101021999999MW1101REMMET006NOSIG?
0055065900999991980010701504+49617+006217FM-15+0491ELLX V0202401N00251001201CN0035001N1+00101+00001999999ADDGA1071+001209079MA1101021999999MW1101REMMET006NOSIG?
0101065900999991980010702004+49617+006217FM-12+0491ELLX V0202401N00261001201CN0035001N9+00101+00001101251ADDAY121999GA1071+001209079GF107991071061001501999999MD1410001+9999MW1101WG199030999999REMSYN00587704
0055065900999991980010702204+49617+006217FM-15+0491ELLX V0202401N00201001201CN0030001N1+00101+00001999999ADDGA1071+001209079MA1101021999999MW1101REMMET006NOSIG?
0055065900999991980010702504+49617+006217FM-15+0491ELLX V0202401N00201001201CN0030001N1+00101+00001999999ADDGA1071+001209079MA1101021999999MW1101REMMET006NOSIG?
0087065900999991980010703004+49617+006217FM-12+0491ELLX V0202401N00211001201CN0030001N9+00101+00001101261ADDAY121999GA1071+001209079GF107991071061001501999999MD1410001+9999MW1101REMSYN00587704
0055065900999991980010703504+49617+006217FM-15+0491ELLX V0202501N00251000901CN0040001N1+00101+00001999999ADDGA1071+000909079MA1101021999999MW1801REMMET006NOSIG?
0087065900999991980010704004+49617+006217FM-12+0491ELLX V0202501N00261000901CN0040001N9+00101+00001101271ADDAY121999GA1071+000909079GF107991071061000751999999MD1410001+9999MW1801REMSYN00587703
0055065900999991980010704204+49617+006217FM-15+0491ELLX V0202501N00301001501CN0050001N1+00101+00001999999ADDGA1071+001509079MA1101021999999MW1251REMMET006NOSIG?
0071065900999991980010704504+49617+006217FM-15+0491ELLX V0202501N00361001201CN0050001N1+00101+00101999999ADDGA1051+001209079GA2031+003609089MA1101021999999MW1801REMMET006NOSIG?
0109065900999991980010705004+49617+006217FM-12+0491ELLX V0202501N00361001201CN0050001N9+00101+00101101211ADDAY121999GA1051+001209079GA2031+003609089GF107991071081001501999999MD1610031+9999MW1801REMSYN01185704 83812
0071065900999991980010705204+49617+006217FM-15+0491ELLX V0202601N00361001201CN0030001N1+00101+00101999999ADDGA1061+001209079GA2041+003609089MA1101021999999MW1831REMMET006NOSIG?
0071065900999991980010705504+49617+006217FM-15+0491ELLX V0202401N00361000901CN0030001N1+00101+00001999999ADDGA1051+000909079GA2051+003609089MA1101021999999MW1851REMMET006NOSIG?
0123065900999991980010706004+49617+006217FM-12+0491ELLX V0202401N00361003601CN0030001N9+00101+00001101221ADDAA199002091AY181999GA1051+003609089GF107991071081001501999999KA1999N+00101MD1610031+9999MW1851REMSYN01770201 85703 85812
0055065900999991980010706204+49617+006217FM-15+0491ELLX V0202401N00301000901CN0030001N1+00101+00001999999ADDGA1071+000909079MA1101021999999MW1681REMMET006NOSIG?
0071065900999991980010706504+49617+006217FM-15+0491ELLX V0202401N00201000901CN0025001N1+00001+00001999999ADDGA1051+000909079GA2071+001809079MA1101021999999MW1681REMMET006NOSIG?
0109065900999991980010707004+49617+006217FM-12+0491ELLX V0202401N00211000901CN0025001N9+00001+00001101251ADDAY181999GA1051+000909079GA2071+001809079GF108991071071001501999999MD1310011+9999MW1681REMSYN01185703 87706
0055065900999991980010707204+49617+006217FM-15+0491ELLX V0202401N00301000901CN0018001N1+00001+00001999999ADDGA1071+000909079MA1101021999999MW1681REMMET006NOSIG?
0066065900999991980010707504+49617+006217FM-15+0491ELLX V0202401N00301000601CN0003001N1+00001+00001999999ADDED199U15849GA1071+000609079MA1101021999999MW1681REMMET006NOSIG?
0087065900999991980010708004+49617+006217FM-12+0491ELLX V0202401N00311000601CN0003001N9+00001+00001101271ADDAY171999GA1071+000609079GF108991071071000751999999MD1310031+9999MW1681REMSYN00587702
0066065900999991980010708504+49617+006217FM-15+0491ELLX V0202401N00151000601CN0003001N1+00001+00001999999ADDED199U07929GA1081+000609079MA1101021999999MW1441REMMET006NOSIG?
0087065900999991980010709004+49617+006217FM-12+0491ELLX V0202401N00151000601CN0003001N9+00001+00001101321ADDAY181999GA1081+000609079GF108991081061000751999999MD1310081+9999MW1441REMSYN00588702
0085065900999991980010709204+49617+006217FM-15+0491ELLX V0202401N00151000601CN0003001N1+00101+00101999999ADDED199U03969GA1071+000609079MA1101081999999MW1441REMMET025GRADU 15007ST003       ??
0085065900999991980010709504+49617+006217FM-15+0491ELLX V0209991C00001000301CN0003001N1+00101+00101999999ADDED199U04879GA1081+000309079MA1101081999999MW1441REMMET025GRADU 15007ST003       ??
0087065900999991980010710004+49617+006217FM-12+0491ELLX V0209991C00001000301CN0003001N9+00101+00101101351ADDAY141999GA1081+000309079GF108991081061000751999999MD1210111+9999MW1441REMSYN00588701
0085065900999991980010710204+49617+006217FM-15+0491ELLX V0202401N00101000301CN0002001N1+00101+00101999999ADDED199U03969GA1081+000309079MA1101081999999MW1461REMMET025GRADU 15007ST003       ??
0085065900999991980010710504+49617+006217FM-15+0491ELLX V0209991C00001000301CN0002001N1+00101+00101999999ADDED199U03359GA1081+000309079MA1101081999999MW1461REMMET025GRADU 15007ST003       ??
0087065900999991980010711004+49617+006217FM-12+0491ELLX V0209991C00001000301CN0002001N9+00101+00101101371ADDAY141999GA1081+000309079GF108991081061000251999999MD1110121+9999MW1461REMSYN00588701
0055065900999991980010711204+49617+006217FM-15+0491ELLX V0202401N00201000601CN0015001N1+00101+00101999999ADDGA1071+000609079MA1101081999999MW1601REMMET006NOSIG?
0055065900999991980010711504+49617+006217FM-15+0491ELLX V0202401N00101000601CN0015001N1+00101+00101999999ADDGA1071+000609079MA1101081999999MW1581REMMET006NOSIG?
0123065900999991980010712004+49617+006217FM-12+0491ELLX V0202401N00101000601CN0015001N9+00101+00101101391ADDAA106004091AY181999GA1071+000609079GF108991071071000751999999MD1210091+9999MW1581REMSYN011704// 87702EQDQ01  00403PRCP99
0071065900999991980010712204+49617+006217FM-15+0491ELLX V0202401N00151000901CN0018001N1+00101+00101999999ADDGA1051+000909079GA2071+001509079MA1101081999999MW1581REMMET006NOSIG?
0055065900999991980010712504+49617+006217FM-15+0491ELLX V0202401N00101000601CN0018001N1+00201+00101999999ADDGA1071+000609079MA1101191999999MW1601REMMET006NOSIG?
0087065900999991980010713004+49617+006217FM-12+0491ELLX V0202401N00101000601CN0018001N9+00201+00101101421ADDAY161999GA1071+000609079GF108991071071000751999999MD1210071+9999MW1601REMSYN00587702
0071065900999991980010713204+49617+006217FM-15+0491ELLX V0202401N00101000601CN0020001N1+00101+00101999999ADDGA1041+000309079GA2071+000609079MA1101191999999MW1601REMMET006NOSIG?
0082065900999991980010713504+49617+006217FM-15+0491ELLX V0202401N00101000601CN0010001N1+00101+00101999999ADDED199U15849GA1041+000309079GA2071+000609079MA1101191999999MW1611REMMET006NOSIG?
0109065900999991980010714004+49617+006217FM-12+0491ELLX V0202401N00101000601CN0010001N9+00101+00101101461ADDAY161999GA1041+000309079GA2071+000609079GF108991071071000751999999MD1310091+9999MW1611REMSYN01184701 87702
0079065900999991980010714204+49617+006217FM-15+0491ELLX V0202401N00101000301CN0004001N1+00201+00201999999ADDED199U11889GA1071+000309079MA1101191999999REMMET006NOSIG?EQDQ01+000000PRSWM2
0066065900999991980010714504+49617+006217FM-15+0491ELLX V0202401N00051000301CN0003001N1+00201+00201999999ADDED199U07319GA1071+000309079MA1101291999999MW1461REMMET006NOSIG?
0087065900999991980010715004+49617+006217FM-12+0491ELLX V0202401N00051000301CN0003001N9+00201+00201101501ADDAY161999GA1071+000309079GF108991071061000251999999MD1310121+9999MW1461REMSYN00587701
0066065900999991980010715204+49617+006217FM-15+0491ELLX V0202301N00101000301CN0001001N1+00201+00201999999ADDED199U05799GA1071+000309079MA1101291999999MW1441REMMET006NOSIG?
0087065900999991980010716004+49617+006217FM-12+0491ELLX V0202301N00051000301CN0001001N9+00201+00201101581ADDAY141999GA1071+000309079GF108991071061000251999999MD1210151+9999MW1461REMSYN00587701
0066065900999991980010716204+49617+006217FM-15+0491ELLX V0202301N00051000301CN0001001N1+00201+00201999999ADDED199U05489GA1071+000309079MA1101291999999MW1441REMMET006NOSIG?
0066065900999991980010716504+49617+006217FM-15+0491ELLX V0202301N00151000301CN0010001N1+00201+00201999999ADDED199U13719GA1071+000309079MA1101391999999MW1101REMMET006NOSIG?
0087065900999991980010717004+49617+006217FM-12+0491ELLX V0202301N00151000301CN0010001N9+00201+00201101621ADDAY121999GA1071+000309079GF108991071061000751999999MD1210151+9999MW1281REMSYN00587701
0106065900999991980010717204+49617+006217FM-15+0491ELLX V0202301N00201000901CN0010001N1+00201+00101999999ADDED199U11889GA1041+000309079GA2071+000909079MA1101391999999MW1101REMMET030TEMPO 0300       ?     7ST001?
0066065900999991980010717504+49617+006217FM-15+0491ELLX V0200401N00201000301CN0001001N1+00201+00201999999ADDED199U02439GA1071+000309079MA1101391999999MW1461REMMET006NOSIG?
0117065900999991980010718004+49617+006217FM-12+0491ELLX V0200401N00211000301CN0001001N9+00201+00201101671ADDAA199003091AY161999GA1071+000309079GF108991071061000251999999KA1999M+00201MD1210141+9999MW1461REMSYN01170302 87701
0066065900999991980010718204+49617+006217FM-15+0491ELLX V0200501N00201000301CN0001001N1+00101+00101999999ADDED199U03359GA1071+000309079MA1101391999999MW1461REMMET006NOSIG?
0082065900999991980010718504+49617+006217FM-15+0491ELLX V0200501N00201000301CN0010001N1+00101+00101999999ADDED199U15849GA1051+000309079GA2071+000609079MA1101391999999MW1501REMMET006NOSIG?
0109065900999991980010719004+49617+006217FM-12+0491ELLX V0200501N00211000301CN0010001N9+00101+00101101691ADDAY141999GA1051+000309079GA2071+000609079GF108991071061000251999999MD1110111+9999MW1501REMSYN01185701 87702
0087065900999991980010719204+49617+006217FM-15+0491ELLX V0200601N00201002101CN0040001N1+00101+00101999999ADDGA1041+000909079GA2051+002109079GA3071+004509059MA1101391999999MW1201REMMET006NOSIG?
0106065900999991980010719504+49617+006217FM-15+0491ELLX V0200601N00201000301CN0011001N1+00101+00101999999ADDED199U10979GA1051+000309079GA2071+001509079MA1101491999999MW1101REMMET030TEMPO 0400       ?     7ST001?
0109065900999991980010720004+49617+006217FM-12+0491ELLX V0200601N00211000301CN0011001N9+00101+00101101751ADDAY151999GA1051+000309079GA2071+001509079GF108991071061000751999999MD1210121+9999MW1101REMSYN01185701 87705
0066065900999991980010720204+49617+006217FM-15+0491ELLX V0200701N00151000601CN0005001N1+00201+00201999999ADDED199U05799GA1071+000609079MA1101491999999MW1461REMMET006NOSIG?
0066065900999991980010720504+49617+006217FM-15+0491ELLX V0200701N00101000601CN0005001N1+00101+00101999999ADDED199U05799GA1071+000609079MA1101491999999MW1461REMMET006NOSIG?
0087065900999991980010721004+49617+006217FM-12+0491ELLX V0200701N00101000601CN0005001N9+00101+00101101781ADDAY151999GA1071+000609079GF108991071061000751999999MD1210111+9999MW1461REMSYN00587702
0066065900999991980010721204+49617+006217FM-15+0491ELLX V0200701N00101000301CN0004001N1+00101+00101999999ADDED199U03969GA1071+000309079MA1101491999999MW1461REMMET006NOSIG?
0066065900999991980010721504+49617+006217FM-15+0491ELLX V0200701N00151000301CN0001001N1+00101+00101999999ADDED199U02749GA1081+000309079MA1101491999999MW1461REMMET006NOSIG?
0087065900999991980010722004+49617+006217FM-12+0491ELLX V0200701N00151000301CN0001001N9+00101+00101101801ADDAY141999GA1081+000309079GF108991081061000251999999MD1210111+9999MW1461REMSYN00588701
0066065900999991980010722204+49617+006217FM-15+0491ELLX V0200701N00151000301CN0001001N1+00101+00101999999ADDED199U02439GA1071+000309079MA1101591999999MW1461REMMET006NOSIG?
0066065900999991980010722504+49617+006217FM-15+0491ELLX V0200701N00201000301CN0001001N1+00101+00101999999ADDED199U02439GA1081+000309079MA1101591999999MW1441REMMET006NOSIG?
0087065900999991980010723004+49617+006217FM-12+0491ELLX V0200701N00211000301CN0001001N9+00101+00101101861ADDAY141999GA1081+000309079GF108991081061000251999999MD1210121+9999MW1461REMSYN00588701
0066065900999991980010723204+49617+006217FM-15+0491ELLX V0200701N00201000301CN0001001N1+00201+00201999999ADDED199U01829GA1071+000309079MA1101591999999MW1441REMMET006NOSIG?
0066065900999991980010723504+49617+006217FM-15+0491ELLX V0200701N00201000301CN0001001N1+00201+00201999999ADDED199U01829GA1081+000309079MA1101591999999MW1441REMMET006NOSIG?
0123065900999991980010800004+49617+006217FM-12+0491ELLX V0200701N00211000301CN0001001N9+00201+00201101881ADDAA106999929AY141999GA1081+000309079GF108991081061000251999999MD1110091+9999MW1441REMSYN011797// 88701EQDQ01  99993PRCP99
0066065900999991980010800504+49617+006217FM-15+0491ELLX V0200701N00151000301CN0001001N1+00201+00201999999ADDED199U02439GA1081+000309079MA1101591999999MW1441REMMET006NOSIG?
0087065900999991980010801004+49617+006217FM-12+0491ELLX V0200701N00151000301CN0001001N9+00201+00201101881ADDAY141999GA1081+000309079GF108991081061000251999999MD1110071+9999MW1441REMSYN00588701
0066065900999991980010801504+49617+006217FM-15+0491ELLX V0200601N00151000301CN0005001N1+00101+00101999999ADDED199U09759GA1081+000309079MA1101591999999MW1421REMMET006NOSIG?
0087065900999991980010802004+49617+006217FM-12+0491ELLX V0200601N00151000301CN0005001N9+00101+00101101901ADDAY141999GA1081+000309079GF108991081061000751999999MD1210031+9999MW1421REMSYN00588701
0066065900999991980010802204+49617+006217FM-15+0491ELLX V0200601N00251000301CN0005001N1+00101+00101999999ADDED199U05799GA1081+000309079MA1101591999999MW1441REMMET006NOSIG?
0055065900999991980010802504+49617+006217FM-15+0491ELLX V0200601N00201000301CN0005001N1+00101+00101999999ADDGA1071+000309079MA1101591999999MW1441REMMET006NOSIG?
0087065900999991980010803004+49617+006217FM-12+0491ELLX V0200601N00211000301CN0005001N9+00101+00101101921ADDAY141999GA1081+000309079GF108991081061000751999999MD1210041+9999MW1441REMSYN00588701
0055065900999991980010803504+49617+006217FM-15+0491ELLX V0200601N00201000601CN0015001N1+00101+00101999999ADDGA1071+000609079MA1101591999999MW1281REMMET006NOSIG?
0087065900999991980010804004+49617+006217FM-12+0491ELLX V0200601N00211000601CN0015001N9+00101+00101101931ADDAY141999GA1081+000609079GF108991081061000751999999MD1210051+9999MW1281REMSYN00588702
0055065900999991980010804204+49617+006217FM-15+0491ELLX V0200601N00201000601CN0015001N1+00101+00101999999ADDGA1071+000609079MA1101591999999MW1281REMMET006NOSIG?
0055065900999991980010804504+49617+006217FM-15+0491ELLX V0200701N00201000901CN0015001N1+00101+00101999999ADDGA1081+000909079MA1101691999999MW1101REMMET006NOSIG?
0087065900999991980010805004+49617+006217FM-12+0491ELLX V0200701N00211000901CN0015001N9+00101+00101101941ADDAY121999GA1081+000909079GF108991081061000751999999MD1110041+9999MW1101REMSYN00588703
0117065900999991980010806004+49617+006217FM-12+0491ELLX V0200701N00151001201CN0018001N9+00101+00101101991ADDAA199000091AY141999GA1071+001209079GF108991071061001501999999KA1999N+00101MD1310071+9999MW1101REMSYN01170001 87704
0055065900999991980010806204+49617+006217FM-15+0491ELLX V0200701N00201000901CN0020001N1+00101+00101999999ADDGA1071+000909079MA1101691999999MW1101REMMET006NOSIG?
0055065900999991980010806504+49617+006217FM-15+0491ELLX V0200601N00201000901CN0020001N1+00101+00001999999ADDGA1071+000909079MA1101801999999MW1101REMMET006NOSIG?
0087065900999991980010807004+49617+006217FM-12+0491ELLX V0200601N00211000901CN0020001N9+00101+00001102041ADDAY121999GA1071+000909079GF108991071061000751999999MD1110091+9999MW1101REMSYN00587703
0071065900999991980010807204+49617+006217FM-15+0491ELLX V0200601N00151000601CN0020001N1+00101+00001999999ADDGA1051+000609079GA2061+000909079MA1101801999999MW1601REMMET006NOSIG?
0079065900999991980010807504+49617+006217FM-15+0491ELLX V0200601N00101000601CN0008001N1+00101+00101999999ADDED199U13719GA1071+000609079MA1101801999999MW1411REMMET019TEMPO 0500 SW 1200?
0087065900999991980010808004+49617+006217FM-12+0491ELLX V0200601N00101000601CN0008001N9+00101+00101102091ADDAY121999GA1071+000609079GF108991071061000751999999MD1310131+9999MW1411REMSYN00587702
0085065900999991980010808204+49617+006217FM-15+0491ELLX V0200601N00201000601CN0008001N1+00101+00101999999ADDED199U18899GA1071+000609079MA1101901999999MW1411REMMET025TEMPO 0500SW1200       ??
0106065900999991980010808504+49617+006217FM-15+0491ELLX V0200801N00201000301CN0008001N1+00101+00101999999ADDED199U13719GA1051+000309079GA2071+000609079MA1101901999999MW1681REMMET030TEMPO 0500       ?     SW1200?
0123065900999991980010809004+49617+006217FM-12+0491ELLX V0200801N00211000301CN0008001N9+00101+00101102131ADDAY141999GA1051+000309079GA2071+000609079GF108991071071000751999999MD1110121+9999MW1681WG199010299999REMSYN01185701 87702
0087065900999991980010809204+49617+006217FM-15+0491ELLX V0200701N00251000301CN0008001N1+00101+00101999999ADDED199U10979GA1051+000309079GA2071+000609079MA1101901999999MW1681REMMET011TEMPO 0500?
0087065900999991980010809504+49617+006217FM-15+0491ELLX V0200801N00201000301CN0008001N1+00101+00101999999ADDED199U13719GA1051+000309079GA2071+000609079MA1101901999999MW1461REMMET011TEMPO 0500?
0109065900999991980010810004+49617+006217FM-12+0491ELLX V0200801N00211000301CN0008001N9+00101+00101102161ADDAY171999GA1051+000309079GA2071+000609079GF108991071071000751999999MD1210121+9999MW1461REMSYN01185701 87702
0071065900999991980010810204+49617+006217FM-15+0491ELLX V0200801N00101000301CN0015001N1+00101+00101999999ADDGA1051+000309079GA2071+000609079MA1101901999999MW1231REMMET006NOSIG?
0071065900999991980010810504+49617+006217FM-15+0491ELLX V0200801N00101000901CN0030001N1+00201+00101999999ADDGA1061+000909079GA2071+015009059MA1101901999999MW1101REMMET006NOSIG?
0109065900999991980010811004+49617+006217FM-12+0491ELLX V0200801N00101000901CN0030001N9+00201+00101102181ADDAY121999GA1061+000909079GA2071+015009059GF107991071051000751999999MD1110101+9999MW1281REMSYN01186703 87650
0087065900999991980010811204+49617+006217FM-15+0491ELLX V0201201N00151001201CN0040001N1+00201+00101999999ADDGA1051+001209079GA2041+003609059GA3061+015009059MA1101901999999MW1101REMMET006NOSIG?
0071065900999991980010811504+49617+006217FM-15+0491ELLX V0201501N00101003901CN0050001N1+00201+00101999999ADDGA1041+001809079GA2071+003909059MA1101901999999MW1101REMMET006NOSIG?
0137065900999991980010812004+49617+006217FM-12+0491ELLX V0201501N00101003901CN0050001N9+00201+00101102121ADDAA106000091AA299000191AY171999GA1041+001809079GA2071+003909059GF107991071051001501999999MD1010001+9999MW1101REMSYN017791// 84706 87613
0071065900999991980010812204+49617+006217FM-15+0491ELLX V0201501N00051001801CN0060001N1+00201+00101999999ADDGA1051+001809079GA2071+003909059MA1101901999999MW1101REMMET006NOSIG?
0084065900999991980010812504+49617+006217FM-15+0491ELLX V0201501N00051003901CN0060001N1+00201+00101999999ADDGA1041+001809079GA2071+003909059MA1101801999999REMMET006NOSIG?EQDQ01+000000PRSWM2
0109065900999991980010813004+49617+006217FM-12+0491ELLX V0201501N00051003901CN0060001N9+00201+00101102091ADDAY121999GA1041+001809079GA2071+003909059GF107991071051002501999999MD1610051+9999MW1101REMSYN01184706 87613
0084065900999991980010813204+49617+006217FM-15+0491ELLX V0201401N00101004201CN0060001N1+00201+00101999999ADDGA1041+001809079GA2071+004209059MA1101801999999REMMET006NOSIG?EQDQ01+000000PRSWM2
0071065900999991980010813504+49617+006217FM-15+0491ELLX V0201401N00101002101CN0050001N1+00201+00101999999ADDGA1051+002109079GA2071+004209059MA1101801999999MW1101REMMET006NOSIG?
0109065900999991980010814004+49617+006217FM-12+0491ELLX V0201401N00101002101CN0050001N9+00201+00101102081ADDAY121999GA1051+002109079GA2071+004209059GF107991071051002501999999MD1610101+9999MW1101REMSYN01185707 87614
0071065900999991980010814504+49617+006217FM-15+0491ELLX V0201001N00101001801CN0035001N1+00201+00101999999ADDGA1051+001809079GA2071+004209059MA1101801999999MW1101REMMET006NOSIG?
0109065900999991980010815004+49617+006217FM-12+0491ELLX V0201001N00101001801CN0035001N9+00201+00101102071ADDAY121999GA1051+001809079GA2071+004209059GF107991071051002501999999MD1610051+9999MW1101REMSYN01185706 87614
0071065900999991980010815204+49617+006217FM-15+0491ELLX V0201201N00201002401CN0035001N1+00201+00001999999ADDGA1051+002409079GA2071+004209059MA1101801999999MW1101REMMET006NOSIG?
0071065900999991980010815504+49617+006217FM-15+0491ELLX V0201101N00251004201CN0050001N1+00101+00001999999ADDGA1041+002709079GA2071+004209059MA1101801999999MW1101REMMET006NOSIG?
0123065900999991980010816004+49617+006217FM-12+0491ELLX V0201101N00261004201CN0050001N9+00101+00001102081ADDAY121999GA1041+002709079GA2071+004209059GF107991071051002501999999MD1510021+9999MW1101WG199030499999REMSYN01184709 87614
0084065900999991980010816204+49617+006217FM-15+0491ELLX V0201101N00201003601CN0060001N1+00101+00001999999ADDGA1051+003609059GA2071+005409059MA1101801999999REMMET006NOSIG?EQDQ01+000000PRSWM2
0084065900999991980010816504+49617+006217FM-15+0491ELLX V0201201N00151004201CN0070001N1+00101+00001999999ADDGA1051+004209059GA2071+009009059MA1101801999999REMMET006NOSIG?EQDQ01+000000PRSWM2
0109065900999991980010817004+49617+006217FM-12+0491ELLX V0201201N00151004201CN0070001N9+00101+00001102111ADDAY121999GA1051+004209059GA2071+009009059GF107991071051004501999999MD1310021+9999MW1021REMSYN01185614 87630
0084065900999991980010817504+49617+006217FM-15+0491ELLX V0201101N00151004201CN0070001N1+00101+00001999999ADDGA1051+004209059GA2071+009009059MA1101801999999REMMET006NOSIG?EQDQ01+000000PRSWM2
0139065900999991980010818004+49617+006217FM-12+0491ELLX V0201101N00151004201CN0070001N9+00101+00001102111ADDAA199000291AY121999GA1051+004209059GA2071+009009059GF107991071051004501999999KA1999M+00101MD1110031+9999MW1021REMSYN01779201 85614 87630
0084065900999991980010818204+49617+006217FM-15+0491ELLX V0200801N00301000301CN0070001N1+00101+00001999999ADDGA1061+000309059GA2071+009009059MA1101801999999REMMET006NOSIG?EQDQ01+000000PRSWM2
0068065900999991980010818504+49617+006217FM-15+0491ELLX V0200701N00201003901CN0070001N1+00101+00001999999ADDGA1071+003909059MA1101801999999REMMET006NOSIG?EQDQ01+000000PRSWM2
0087065900999991980010819004+49617+006217FM-12+0491ELLX V0200701N00211003901CN0070001N9+00101+00001102111ADDAY121999GA1071+003909059GF107991071051004501999999MD1110021+9999MW1021REMSYN00587613
0068065900999991980010819204+49617+006217FM-15+0491ELLX V0200701N00251003601CN0070001N1+00101+00001999999ADDGA1071+003609059MA1101801999999REMMET006NOSIG?EQDQ01+000000PRSWM2
0068065900999991980010819504+49617+006217FM-15+0491ELLX V0200701N00251003601CN0070001N1+00101+00001999999ADDGA1071+003609059MA1101901999999REMMET006NOSIG?EQDQ01+000000PRSWM2
0087065900999991980010820004+49617+006217FM-12+0491ELLX V0200701N00261003601CN0070001N9+00101+00001102131ADDAY121999GA1071+003609059GF107991071051004501999999MD1310021+9999MW1021REMSYN00587612
0068065900999991980010820204+49617+006217FM-15+0491ELLX V0201101N00201002401CN0070001N1+00101+00001999999ADDGA1071+002409079MA1101901999999REMMET006NOSIG?EQDQ01+000000PRSWM2
0084065900999991980010820504+49617+006217FM-15+0491ELLX V0201301N00301002401CN0070001N1+00101+00001999999ADDGA1051+002409079GA2071+003609059MA1101901999999REMMET006NOSIG?EQDQ01+000000PRSWM2
0109065900999991980010821004+49617+006217FM-12+0491ELLX V0201301N00311002401CN0070001N9+00101+00001102121ADDAY121999GA1051+002409079GA2071+003609059GF107991071051002501999999MD1110021+9999MW1021REMSYN01185708 87612
0084065900999991980010821204+49617+006217FM-15+0491ELLX V0201301N00361003301CN0060001N1+00101+00001999999ADDGA1031+002409079GA2071+003309059MA1101901999999REMMET006NOSIG?EQDQ01+000000PRSWM2
0084065900999991980010821504+49617+006217FM-15+0491ELLX V0201301N00301002401CN0060001N1+00101+00001999999ADDGA1051+002409079GA2071+004509059MA1101901999999REMMET006NOSIG?EQDQ01+000000PRSWM2
0109065900999991980010822004+49617+006217FM-12+0491ELLX V0201301N00311002401CN0060001N9+00101+00001102121ADDAY121999GA1051+002409079GA2071+004509059GF107991071051004501999999MD1110021+9999MW1021REMSYN01185708 87615
0068065900999991980010822204+49617+006217FM-15+0491ELLX V0201301N00301002101CN0060001N1+00101+00001999999ADDGA1071+002109079MA1101901999999REMMET006NOSIG?EQDQ01+000000PRSWM2
0068065900999991980010822504+49617+006217FM-15+0491ELLX V0201001N00411002401CN0070001N1+00101-00101999999ADDGA1071+002409079MA1101901999999REMMET006NOSIG?EQDQ01+000000PRSWM2
0087065900999991980010823004+49617+006217FM-12+0491ELLX V0201001N00411002401CN0070001N9+00101-00101102141ADDAY121999GA1071+002409079GF107991071061002501999999MD1410001+9999MW1021REMSYN00587708
0084065900999991980010823204+49617+006217FM-15+0491ELLX V0201101N00301002101CN0060001N1+00001-00101999999ADDGA1061+002109079GA2061+015009059MA1101901999999REMMET006NOSIG?EQDQ01+000000PRSWM2
0084065900999991980010823504+49617+006217FM-15+0491ELLX V0201101N00201002401CN0060001N1+00001-00101999999ADDGA1051+002409079GA2071+003609059MA1101901999999REMMET006NOSIG?EQDQ01+000000PRSWM2
0109065900999991980010900004+49617+006217FM-12+0491ELLX V0201101N00211002401CN0060001N9+00001-00101102141ADDAY121999GA1051+002409079GA2071+003609059GF107991071051002501999999MD1410001+9999MW1021REMSYN01185708 87612
0071065900999991980010900504+49617+006217FM-15+0491ELLX V0200801N00301004501CN0045001N1+00001-00101999999ADDGA1031+002109079GA2071+004509059MA1101801999999MW1101REMMET006NOSIG?
0123065900999991980010901004+49617+006217FM-12+0491ELLX V0200801N00311004501CN0045001N9+00001-00101102131ADDAY121999GA1031+002109079GA2071+004509059GF107991071051002501999999MD1810021+9999MW1101WG199370999999REMSYN01183707 87615
