0104065900999991974010100004+49633+006200FM-12+0378ELLX V0200901N00621004501CN0150001N9-00101-00301102981ADDAA199000091AY111999GA1081+004509059GF108991081051004501999999MD1810021+9999MW1021REMSYN011700// 88  5
0068065900999991974010100504+49633+006200FM-15+0378ELLX V0200801N00611004801CN0112001N1-00101-00401999999ADDGA1081+004809059MA1102611999999REMMET006NOSIG%EQDQ01+000000PRSWM2
0087065900999991974010101004+49633+006200FM-12+0378ELLX V0200801N00621004801CN0150001N9-00101-00401102921ADDAY121999GA1081+004809059GF108991081051004501999999MD1810081+9999MW1021REMSYN00588  6
0068065900999991974010101204+49633+006200FM-15+0378ELLX V0200801N00771005101CN0112001N1-00101-00401999999ADDGA1081+005109059MA1102611999999REMMET006NOSIG%EQDQ01+000000PRSWM2
0068065900999991974010101504+49633+006200FM-15+0378ELLX V0200901N00721004801CN0112001N1-00101-00401999999ADDGA1071+004809059MA1102611999999REMMET006NOSIG%EQDQ01+000000PRSWM2
0068065900999991974010102204+49633+006200FM-15+0378ELLX V0200801N00611005101CN0112001N1-00101-00401999999ADDGA1071+005109059MA1102611999999REMMET006NOSIG%EQDQ01+000000PRSWM2
0068065900999991974010102504+49633+006200FM-15+0378ELLX V0200801N00561004801CN0112001N1-00101-00401999999ADDGA1071+004809059MA1102611999999REMMET006NOSIG%EQDQ01+000000PRSWM2
0087065900999991974010103004+49633+006200FM-12+0378ELLX V0200801N00571004801CN0150001N9-00101-00401102871ADDAY121999GA1071+004809059GF107991071051004501999999MD1710111+9999MW1021REMSYN00587  6
0068065900999991974010103204+49633+006200FM-15+0378ELLX V0200701N00461005101CN0112001N1-00201-00401999999ADDGA1071+005109059MA1102611999999REMMET006NOSIG%EQDQ01+000000PRSWM2
0068065900999991974010103504+49633+006200FM-15+0378ELLX V0200801N00461220001CN0112001N1-00201-00401999999ADDGA1011+004809059MA1102611999999REMMET006NOSIG%EQDQ01+000000PRSWM2
0087065900999991974010104004+49633+006200FM-12+0378ELLX V0200801N00461220001CN0150001N9-00201-00401102871ADDAY111999GA1011+004809059GF101991011051004501001001MD1710071+9999MW1011REMSYN00581  6
0052065900999991974010104204+49633+006200FM-15+0378ELLX V0200701N00411999991CY0099001N1-00201-00401999999ADDMA1102611999999REMMET006NOSIG%EQDQ01+000000PRSWM2
0068065900999991974010104504+49633+006200FM-15+0378ELLX V0200701N00461220001CN0112001N1-00301-00401999999ADDGA1011+007509059MA1102511999999REMMET006NOSIG%EQDQ01+000000PRSWM2
0052065900999991974010105204+49633+006200FM-15+0378ELLX V0200701N00511999991CY0099001N1-00301-00401999999ADDMA1102511999999REMMET006NOSIG%EQDQ01+000000PRSWM2
0052065900999991974010105504+49633+006200FM-15+0378ELLX V0200601N00461999991CY0099001N1-00301-00401999999ADDMA1102511999999REMMET006NOSIG%EQDQ01+000000PRSWM2
0095065900999991974010106004+49633+006200FM-12+0378ELLX V0200601N00461220001CN0120001N9-00301-00401102811ADDAA199000091AY111999GF100991001001999999001001KA1999N-00301MD1710101+9999MW1011REMSYN00570053
0068065900999991974010106504+49633+006200FM-15+0378ELLX V0200801N00461220001CN0060001N1-00401-00501999999ADDGA1011+015009059MA1102511999999REMMET006NOSIG%EQDQ01+000000PRSWM2
0106065900999991974010107004+49633+006200FM-12+0378ELLX V0200801N00461220001CN0060001N9-00401-00501102851ADDAY101999GA1011+015009059GF101991011051017501999001MD1710061+9999MW1031REMSYN00581650EQDQ01    003SCOMCG
0068065900999991974010107204+49633+006200FM-15+0378ELLX V0200801N00561220001CN0060001N1-00301-00401999999ADDGA1011+060009009MA1102511999999REMMET006NOSIG%EQDQ01+000000PRSWM2
0068065900999991974010107504+49633+006200FM-15+0378ELLX V0200801N00461220001CN0060001N1-00401-00501999999ADDGA1011+015009059MA1102511999999REMMET006NOSIG%EQDQ01+000000PRSWM2
0087065900999991974010108004+49633+006200FM-12+0378ELLX V0200701N00511220001CN0060001N9-00401-00501102841ADDAY101999GA1011+060009009GF101991001001999999001011MD1110021+9999MW1021REMSYN00581070
0068065900999991974010108204+49633+006200FM-15+0378ELLX V0200801N00561220001CN0060001N1-00301-00401999999ADDGA1011+060009009MA1102511999999REMMET006NOSIG%EQDQ01+000000PRSWM2
0092065900999991974010109004+49633+006200FM-12+0378ELLX V0200701N00721220001CN0060001N9-00301+99999102811ADDAY101999GF101991001001999999001011MD1010001+9999MW1021EQDQ01+024223ATOD  Q02+000702APC3  
0068065900999991974010109204+49633+006200FM-15+0378ELLX V0200801N00721220001CN0070001N1-00201-00301999999ADDGA1011+060009009MA1102511999999REMMET006NOSIG%EQDQ01+000000PRSWM2
0068065900999991974010109504+49633+006200FM-15+0378ELLX V0200801N00721220001CN0070001N1-00201-00401999999ADDGA1011+060009009MA1102511999999REMMET006NOSIG%EQDQ01+000000PRSWM2
0087065900999991974010110004+49633+006200FM-12+0378ELLX V0200801N00721220001CN0070001N9-00201-00401102771ADDAY101999GA1011+060009009GF101991001001999999001011MD1610041+9999MW1021REMSYN00581070
0068065900999991974010110204+49633+006200FM-15+0378ELLX V0200801N00611220001CN0080001N1-00101-00401999999ADDGA1011+004509089MA1102511999999REMMET006NOSIG%EQDQ01+000000PRSWM2
0068065900999991974010110504+49633+006200FM-15+0378ELLX V0200801N00611220001CN0080001N1-00101-00301999999ADDGA1011+004509089MA1102511999999REMMET006NOSIG%EQDQ01+000000PRSWM2
0087065900999991974010111004+49633+006200FM-12+0378ELLX V0200801N00621220001CN0080001N9-00101-00301102741ADDAY101999GA1011+004509089GF101991011011004501001011MD1610041+9999MW1021REMSYN00581815
0052065900999991974010111504+49633+006200FM-15+0378ELLX V0200801N00611999991CY0099001N1+00001-00301999999ADDMA1102401999999REMMET006NOSIG%EQDQ01+000000PRSWM2
0092065900999991974010112004+49633+006200FM-12+0378ELLX V0200801N00621220001CN0120001N9+00001+99999102641ADDAY101999GA1011+060009009GF101991001001999999001011MW1021REMSYN00581070EQDQ01+025323ATOD  
0052065900999991974010112504+49633+006200FM-15+0378ELLX V0200801N00721999991CY0099001N1-00101-00401999999ADDMA1102301999999REMMET006NOSIG%EQDQ01+000000PRSWM2
0087065900999991974010113004+49633+006200FM-12+0378ELLX V0200801N00721220001CN0120001N9-00101-00401102551ADDAY101999GA1021+060009009GF102991001001999999001011MD1710181+9999MW1031REMSYN00582070
0052065900999991974010113204+49633+006200FM-15+0378ELLX V0200801N00721999991CY0099001N1-00101-00401999999ADDMA1102201999999REMMET006NOSIG%EQDQ01+000000PRSWM2
0087065900999991974010114004+49633+006200FM-12+0378ELLX V0200801N00721060001CN0120001N9-00101-00401102461ADDAY111999GA1051+060009009GF105991001001999999001021MD1710271+9999MW1031REMSYN00585070
0052065900999991974010114204+49633+006200FM-15+0378ELLX V0200801N00721999991CY0099001N1-00101-00401999999ADDMA1102201999999REMMET006NOSIG%EQDQ01+000000PRSWM2
0052065900999991974010114504+49633+006200FM-15+0378ELLX V0200801N00561999991CY0099001N1-00101-00401999999ADDMA1102201999999REMMET006NOSIG%EQDQ01+000000PRSWM2
0087065900999991974010115004+49633+006200FM-12+0378ELLX V0200801N00571060001CN0120001N9-00101-00401102461ADDAY111999GA1051+060009009GF105991001001999999001021MD1610191+9999MW1021REMSYN00585070
0052065900999991974010115204+49633+006200FM-15+0378ELLX V0200801N00411999991CY0099001N1-00101-00401999999ADDMA1102201999999REMMET006NOSIG%EQDQ01+000000PRSWM2
0052065900999991974010115504+49633+006200FM-15+0378ELLX V0200801N00561999991CY0099001N1-00201-00401999999ADDMA1102201999999REMMET006NOSIG%EQDQ01+000000PRSWM2
0087065900999991974010116004+49633+006200FM-12+0378ELLX V0200801N00571060001CN0120001N9-00201-00401102471ADDAY121999GA1051+060009009GF105991001001999999001021MD1610101+9999MW1021REMSYN00585070
0052065900999991974010116204+49633+006200FM-15+0378ELLX V0200601N00461999991CY0099001N1-00201-00401999999ADDMA1102201999999REMMET006NOSIG%EQDQ01+000000PRSWM2
0087065900999991974010117004+49633+006200FM-12+0378ELLX V0200801N00361220001CN0120001N9-00201-00401102471ADDAY111999GA1031+060009009GF103991001001999999001021MD1610011+9999MW1011REMSYN00583070
0052065900999991974010117204+49633+006200FM-15+0378ELLX V0200901N00411999991CY0099001N1-00301-00401999999ADDMA1102201999999REMMET006NOSIG%EQDQ01+000000PRSWM2
0052065900999991974010117504+49633+006200FM-15+0378ELLX V0200801N00411999991CY0099001N1-00301-00501999999ADDMA1102101999999REMMET006NOSIG%EQDQ01+000000PRSWM2
0117065900999991974010118004+49633+006200FM-12+0378ELLX V0200801N00411220001CN0120001N9-00301-00501102451ADDAA199000091AY111999GA1011+060009009GF101991001001999999001021KA1999M+00101MD1810041+9999MW1011REMSYN01170001 81070
0052065900999991974010118204+49633+006200FM-15+0378ELLX V0200701N00301999991CY0099001N1-00301-00401999999ADDMA1102101999999REMMET006NOSIG%EQDQ01+000000PRSWM2
0057065900999991974010119004+49633+006200FM-12+0378ELLX V0200701N00311220001CN0120001N9-00301-00401102411ADDAY101999GF100991001001999999001001MD1710081+9999MW1011
0052065900999991974010119204+49633+006200FM-15+0378ELLX V0200601N00301999991CY0099001N1-00301-00401999999ADDMA1102101999999REMMET006NOSIG%EQDQ01+000000PRSWM2
0057065900999991974010120004+49633+006200FM-12+0378ELLX V0200701N00361220001CN0120001N9-00301-00401102391ADDAY101999GF100991001001999999001001MD1710091+9999MW1021
0052065900999991974010120204+49633+006200FM-15+0378ELLX V0200701N00411999991CY0099001N1-00301-00401999999ADDMA1102101999999REMMET006NOSIG%EQDQ01+000000PRSWM2
0052065900999991974010120504+49633+006200FM-15+0378ELLX V0200701N00361999991CY0099001N1-00301-00401999999ADDMA1102001999999REMMET006NOSIG%EQDQ01+000000PRSWM2
0057065900999991974010121004+49633+006200FM-12+0378ELLX V0200701N00361220001CN0120001N9-00301-00401102361ADDAY101999GF100991001001999999001001MD1710091+9999MW1021
0052065900999991974010121204+49633+006200FM-15+0378ELLX V0200701N00411999991CY0099001N1-00301-00401999999ADDMA1102001999999REMMET006NOSIG%EQDQ01+000000PRSWM2
0068065900999991974010121504+49633+006200FM-15+0378ELLX V0200701N00411007501CN0112001N1-00201-00401999999ADDGA1051+007509059MA1102001999999REMMET006NOSIG%EQDQ01+000000PRSWM2
0087065900999991974010122004+49633+006200FM-12+0378ELLX V0200701N00411007501CN0100001N9-00201-00401102301ADDAY111999GA1051+007509059GF105991051051008001001001MD1710101+9999MW1031REMSYN00585  5
0052065900999991974010200204+49633+006200FM-15+0378ELLX V0200701N00301220001CN0112001N1-00401-00501999999ADDMA1101901999999REMMET006NOSIG%EQDQ01+000000PRSWM2
0057065900999991974010201004+49633+006200FM-12+0378ELLX V0200701N00311220001CN0090001N9-00301-00401102161ADDAY101999GF100991001001999999001001MD1710121+9999MW1021
0087065900999991974010202004+49633+006200FM-12+0378ELLX V0200701N00311220001CN0080001N9-00301-00401102061ADDAY101999GA1041+006009059GF104991041051008001001001MD1710181+9999MW1031REMSYN00584  0
0068065900999991974010202504+49633+006200FM-15+0378ELLX V0200701N00361004801CN0080001N1-00301-00401999999ADDGA1061+004809059MA1101801999999REMMET006NOSIG%EQDQ01+000000PRSWM2
0087065900999991974010203004+49633+006200FM-12+0378ELLX V0200701N00361004801CN0080001N9-00301-00401102061ADDAY111999GA1061+004809059GF106991061051004501001001MD1610131+9999MW1031REMSYN00586  6
0068065900999991974010203204+49633+006200FM-15+0378ELLX V0200601N00361004801CN0080001N1-00301-00401999999ADDGA1071+004809059MA1101691999999REMMET006NOSIG%EQDQ01+000000PRSWM2
0068065900999991974010203504+49633+006200FM-15+0378ELLX V0200701N00361004501CN0080001N1-00301-00401999999ADDGA1071+004509059MA1101691999999REMMET006NOSIG%EQDQ01+000000PRSWM2
0087065900999991974010204004+49633+006200FM-12+0378ELLX V0200701N00361004501CN0080001N9-00301-00401102001ADDAY121999GA1071+004509059GF107991071051004501999999MD1710121+9999MW1031REMSYN00587  5
0068065900999991974010204204+49633+006200FM-15+0378ELLX V0200701N00301004501CN0080001N1-00301-00401999999ADDGA1071+004509059MA1101691999999REMMET006NOSIG%EQDQ01+000000PRSWM2
0068065900999991974010204504+49633+006200FM-15+0378ELLX V0200701N00411004501CN0080001N1-00301-00401999999ADDGA1071+004509059MA1101691999999REMMET006NOSIG%EQDQ01+000000PRSWM2
0087065900999991974010205004+49633+006200FM-12+0378ELLX V0200701N00411004501CN0080001N9-00301-00401101951ADDAY121999GA1071+004509059GF107991071051004501999999MD1710101+9999MW1021REMSYN00587  5
0117065900999991974010206004+49633+006200FM-12+0378ELLX V0200701N00311004801CN0080001N9-00301-00401101921ADDAA199000091AY111999GA1071+004809059GF107991071051004501999999KA1999N-00401MD1710131+9999MW1021REMSYN01170054 87  6
0069065900999991974010206204+49633+006200FM-15+0378ELLX V0200701N00301004501CN0080001N1-00301-00401999999ADDGA1071+004509059MA1101591999999REMMET007NOSIG %EQDQ01+000000PRSWM2
0053065900999991974010206504+49633+006200FM-15+0378ELLX V0200701N00201220001CN0080001N1-00301-00401999999ADDMA1101591999999REMMET007NOSIG %EQDQ01+000000PRSWM2
0087065900999991974010207004+49633+006200FM-12+0378ELLX V0200701N00211004801CN0080001N9-00301-00401101911ADDAY121999GA1071+004809059GF107991071051004501999999MD1610091+9999MW1021REMSYN00587  6
0069065900999991974010207204+49633+006200FM-15+0378ELLX V0200701N00251004501CN0050001N1-00301-00401999999ADDGA1071+004509059MA1101591999999REMMET007NOSIG %EQDQ01+000000PRSWM2
0069065900999991974010207504+49633+006200FM-15+0378ELLX V0200701N00251004501CN0040001N1-00301-00401999999ADDGA1071+004509059MA1101591999999REMMET007NOSIG %EQDQ01+000000PRSWM2
0090065900999991974010208204+49633+006200FM-15+0378ELLX V0200701N00251004501CN0040001N1-00301-00401999999ADDGA1061+004509059GA2071+015009059MA1101591999999REMMET012NOSIG %    ^EQDQ01+000000PRSWM2
0069065900999991974010208504+49633+006200FM-15+0378ELLX V0200701N00201220001CN0025001N1+99999+99999999999ADDMA1101591999999REMMET007NOSIG %EQDQ01+028023ATOT  Q02+000000PRSWM2
0087065900999991974010209004+49633+006200FM-12+0378ELLX V0200701N00211003901CN0025001N9-00301-00401101911ADDAY121999GA1071+003909059GF108991081051004501999999MD1610021+9999MW1031REMSYN00587  3
0069065900999991974010209204+49633+006200FM-15+0378ELLX V0200801N00251003901CN0025001N1-00301-00301999999ADDGA1071+003909059MA1101591999999REMMET007NOSIG %EQDQ01+000000PRSWM2
0069065900999991974010209504+49633+006200FM-15+0378ELLX V0200801N00151003901CN0025001N1-00201-00401999999ADDGA1071+003909059MA1101591999999REMMET007NOSIG %EQDQ01+000000PRSWM2
0087065900999991974010210004+49633+006200FM-12+0378ELLX V0200801N00151003901CN0025001N9-00201-00401101911ADDAY121999GA1071+003909059GF108991081051004501999999MD1410001+9999MW1021REMSYN00587  3
0069065900999991974010210204+49633+006200FM-15+0378ELLX V0200801N00201003901CN0025001N1-00301-00301999999ADDGA1071+003909059MA1101591999999REMMET007NOSIG %EQDQ01+000000PRSWM2
0069065900999991974010210504+49633+006200FM-15+0378ELLX V0200801N00151003901CN0025001N1-00301-00301999999ADDGA1071+003909059MA1101591999999REMMET007NOSIG %EQDQ01+000000PRSWM2
0087065900999991974010211004+49633+006200FM-12+0378ELLX V0200801N00151003901CN0025001N9-00301-00301101901ADDAY121999GA1071+003909059GF108991081051004501999999MD1810021+9999MW1771REMSYN00587  3
0056065900999991974010211204+49633+006200FM-15+0378ELLX V0200901N00101003001CN0025001N1-00201-00301999999ADDGA1071+003009059MA1101591999999MW1771REMMET007NOSIG %
0134065900999991974010212004+49633+006200FM-12+0378ELLX V0201101N00151003001CN0020001N9-00201-00301101771ADDAA106999999AA299999929AY121999GA1081+003009059GF108991081051004501999999MD1810111+9999MW1221REMSYN011797// 88  0EQDQ01  00002PRCP06
0055065900999991974010212204+49633+006200FM-15+0378ELLX V0201201N00151002701CN0020001N1-00201-00301999999ADDGA1071+002709079MA1101491999999MW1221REMMET006NOSIG%
0084065900999991974010212504+49633+006200FM-15+0378ELLX V0201201N00151002401CN0020001N1-00101-00201999999ADDGA1071+002409079GA2081+009909059MA1101391999999REMMET006NOSIG%EQDQ01+000000PRSWM2
0109065900999991974010213004+49633+006200FM-12+0378ELLX V0201201N00151002401CN0020001N9-00101-00201101701ADDAY121999GA1071+002409059GA2081+009909059GF108991081051002501999999MD1810191+9999MW1021REMSYN01187608 88  3
0084065900999991974010213204+49633+006200FM-15+0378ELLX V0201301N00201002701CN0020001N1-00201-00301999999ADDGA1051+002709079GA2071+009909059MA1101391999999REMMET006NOSIG%EQDQ01+000000PRSWM2
0071065900999991974010213504+49633+006200FM-15+0378ELLX V0201301N00151001801CN0020001N1-00101-00201999999ADDGA1051+001809079GA2081+009909059MA1101391999999MW1771REMMET006NOSIG%
0109065900999991974010214004+49633+006200FM-12+0378ELLX V0201301N00151001801CN0020001N9-00101-00201101651ADDAY121999GA1051+001809079GA2081+009909059GF108991081051002501999999MD1710201+9999MW1771REMSYN01185706 88  3
0071065900999991974010214504+49633+006200FM-15+0378ELLX V0201501N00151001801CN0025001N1-00101-00201999999ADDGA1051+001809079GA2081+009909059MA1101391999999MW1221REMMET006NOSIG%
0109065900999991974010215004+49633+006200FM-12+0378ELLX V0201501N00151001801CN0025001N9-00101-00201101621ADDAY121999GA1051+001809079GA2081+009909059GF108991081051001501999999MD1610131+9999MW1221REMSYN01185706 88  3
0084065900999991974010217204+49633+006200FM-15+0378ELLX V0201301N00151003901CN0025001N1-00101-00201999999ADDGA1051+003909059GA2081+009009059MA1101291999999REMMET006NOSIG%EQDQ01+000000PRSWM2
0084065900999991974010217504+49633+006200FM-15+0378ELLX V0201301N00151003901CN0025001N1-00101-00201999999ADDGA1061+003909059GA2081+009009059MA1101291999999REMMET006NOSIG%EQDQ01+000000PRSWM2
0139065900999991974010218004+49633+006200FM-12+0378ELLX V0201301N00151003901CN0025001N9-00101-00201101601ADDAA199999929AY171999GA1061+003909059GA2081+009009059GF108991081051004501999999KA1999M-00101MD1610021+9999MW1101REMSYN01779751 86  3 88  0
0068065900999991974010218504+49633+006200FM-15+0378ELLX V0201301N00151003301CN0025001N1-00101-00201999999ADDGA1071+003309059MA1101291999999REMMET006NOSIG%EQDQ01+000000PRSWM2
0087065900999991974010219004+49633+006200FM-12+0378ELLX V0201301N00151003301CN0025001N9-00101-00201101571ADDAY121999GA1071+003309059GF108991081051004501999999MD1810021+9999MW1101REMSYN00587  1
0068065900999991974010219204+49633+006200FM-15+0378ELLX V0201501N00151003001CN0025001N1-00101-00201999999ADDGA1081+003009059MA1101291999999REMMET006NOSIG%EQDQ01+000000PRSWM2
0087065900999991974010220004+49633+006200FM-12+0378ELLX V0201501N00151003001CN0025001N9-00101-00301101541ADDAY121999GA1081+003009059GF108991081051004501999999MD1510051+9999MW1101REMSYN00588  0
0068065900999991974010220204+49633+006200FM-15+0378ELLX V0201501N00151002701CN0025001N1-00101-00101999999ADDGA1081+002709059MA1101291999999REMMET006NOSIG%EQDQ01+000000PRSWM2
0068065900999991974010220504+49633+006200FM-15+0378ELLX V0201501N00101002401CN0020001N1-00101-00101999999ADDGA1081+002409079MA1101291999999REMMET006NOSIG%EQDQ01+000000PRSWM2
0087065900999991974010221004+49633+006200FM-12+0378ELLX V0201501N00101002401CN0020001N9-00101-00101101531ADDAY121999GA1081+002409079GF108991081061002501999999MD1710061+9999MW1101REMSYN00588708
0068065900999991974010221204+49633+006200FM-15+0378ELLX V0201401N00101002701CN0020001N1-00101-00101999999ADDGA1081+002709079MA1101291999999REMMET006NOSIG%EQDQ01+000000PRSWM2
0068065900999991974010221504+49633+006200FM-15+0378ELLX V0201101N00201002401CN0020001N1-00101-00101999999ADDGA1081+002409079MA1101291999999REMMET006NOSIG%EQDQ01+000000PRSWM2
0087065900999991974010222004+49633+006200FM-12+0378ELLX V0201101N00261002401CN0020001N9-00101-00101101511ADDAY121999GA1081+002409079GF108991081061002501999999MD1710061+9999MW1101REMSYN00588708
0068065900999991974010222204+49633+006200FM-15+0378ELLX V0201101N00101002101CN0020001N1+00001-00101999999ADDGA1081+002109079MA1101191999999REMMET006NOSIG%EQDQ01+000000PRSWM2
0068065900999991974010300504+49633+006200FM-15+0378ELLX V0200801N00301030001CN0025001N1-00101-00201999999ADDGA1051+030009039MA1101081999999REMMET006NOSIG%EQDQ01+000000PRSWM2
0087065900999991974010301004+49633+006200FM-12+0378ELLX V0200801N00311030001CN0025001N9-00101-00201101351ADDAY111999GA1051+030009039GF105991051001999999031001MD1610161+9999MW1101REMSYN00585360
0068065900999991974010301204+49633+006200FM-15+0378ELLX V0200801N00251030001CN0025001N1-00101-00201999999ADDGA1051+030009039MA1101081999999REMMET006NOSIG%EQDQ01+000000PRSWM2
0087065900999991974010302004+49633+006200FM-12+0378ELLX V0200801N00261030001CN0025001N9-00101-00201101331ADDAY121999GA1061+030009039GF106991061001999999031001MD1710151+9999MW1101REMSYN00586360
0087065900999991974010303004+49633+006200FM-12+0378ELLX V0201001N00211220001CN0025001N9-00301-00301101321ADDAY111999GA1031+030009039GF103991031001999999031001MD1710081+9999MW1101REMSYN00583360
0087065900999991974010304004+49633+006200FM-12+0378ELLX V0201001N00261220001CN0025001N9-00301-00401101321ADDAY101999GA1031+030009039GF103991031001999999031001MD1710061+9999MW1101REMSYN00583360
0068065900999991974010304504+49633+006200FM-15+0378ELLX V0201001N00201220001CN0025001N1-00301-00301999999ADDGA1031+030009999MA1101021999999REMMET006NOSIG%EQDQ01+000000PRSWM2
0087065900999991974010305004+49633+006200FM-12+0378ELLX V0201001N00261030001CN0025001N9-00201-00301101291ADDAY111999GA1051+030009039GF105991051001999999031001MD1710051+9999MW1101REMSYN00585360
0068065900999991974010305204+49633+006200FM-15+0378ELLX V0201001N00201030001CN0025001N1-00101-00201999999ADDGA1051+030009039MA1101021999999REMMET006NOSIG%EQDQ01+000000PRSWM2
0117065900999991974010306004+49633+006200FM-12+0378ELLX V0201001N00151030001CN0020001N9-00101-00201101281ADDAA199000091AY111999GA1061+030009039GF106991061001999999031001KA1999N-00301MD1610021+9999MW1101REMSYN01170053 86360
0068065900999991974010306204+49633+006200FM-15+0378ELLX V0201001N00151030001CN0025001N1-00101-00101999999ADDGA1071+030009039MA1101021999999REMMET006NOSIG%EQDQ01+000000PRSWM2
0068065900999991974010306504+49633+006200FM-15+0378ELLX V0201201N00151030001CN0030001N1-00101-00101999999ADDGA1071+030009039MA1101021999999REMMET006NOSIG%EQDQ01+000000PRSWM2
0087065900999991974010307004+49633+006200FM-12+0378ELLX V0201201N00151030001CN0030001N9-00101-00101101241ADDAY121999GA1071+030009039GF107991071001999999031999MD1710041+9999MW1101REMSYN00587360
0068065900999991974010307204+49633+006200FM-15+0378ELLX V0201401N00151027001CN0023001N1-00101-00201999999ADDGA1071+027009039MA1101021999999REMMET006NOSIG%EQDQ01+000000PRSWM2
0084065900999991974010307504+49633+006200FM-15+0378ELLX V0201201N00201027001CN0025001N1-00101-00201999999ADDGA1011+003009079GA2071+027009039MA1101021999999REMMET006NOSIG%EQDQ01+000000PRSWM2
0087065900999991974010308004+49633+006200FM-12+0378ELLX V0201201N00211027001CN0025001N9-00101-00201101271ADDAY121999GA1071+027009039GF107991011061004501031999MD1510011+9999MW1101REMSYN00587359
0069065900999991974010308204+49633+006200FM-15+0378ELLX V0201501N00251001201CN0010001N1-00101-00101999999ADDGA1081+001209079MA1101021999999REMMET007T 0400%EQDQ01+000000PRSWM2
0040065900999991974010308504+49633+006200FM-15+0378ELLX V0201501N00251000901CN0007001N1-00101-00201999999ADDGA1081+000909079MA1101081999999MW1461
0087065900999991974010309004+49633+006200FM-12+0378ELLX V0201801N00261000901CN0007001N9-00101-00201101311ADDAY121999GA1081+000909079GF108991081061001501999999MD1110031+9999MW1461REMSYN00588703
0040065900999991974010309204+49633+006200FM-15+0378ELLX V0201201N00251000601CN0004001N1-00101-00201999999ADDGA1081+000609079MA1101081999999MW1461
0056065900999991974010309504+49633+006200FM-15+0378ELLX V0201801N00361000601CN0004001N1-00101-00201999999ADDGA1071+000609079GA2081+001209079MA1101081999999MW1461
0109065900999991974010310004+49633+006200FM-12+0378ELLX V0201801N00361000601CN0004001N9-00101-00201101341ADDAY141999GA1071+000609079GA2081+001209079GF108991081061000751999999MD1310091+9999MW1461REMSYN01187702 88704
0040065900999991974010310204+49633+006200FM-15+0378ELLX V0201501N00361000601CN0003001N1-00101-00201999999ADDGA1081+000609079MA1101081999999MW1461
0087065900999991974010311004+49633+006200FM-12+0378ELLX V0201501N00311000601CN0006001N9-00201-00201101341ADDAY141999GA1081+000609079GF108991081061000751999999MD1010071+9999MW1421REMSYN00588702
0040065900999991974010311204+49633+006200FM-15+0378ELLX V0201201N00411000301CN0001001N1-00201-00201999999ADDGA1081+000309079MA1101081999999MW1461
0040065900999991974010311504+49633+006200FM-15+0378ELLX V0201401N00361000301CN0002001N1-00201-00201999999ADDGA1081+000309079MA1101021999999MW1461
0104065900999991974010312004+49633+006200FM-12+0378ELLX V0201401N00361000301CN0002001N9-00201-00201101271ADDAA199000091AY141999GA1081+000309079GF108991081061000751999999MD1810041+9999MW1461REMSYN011700// 88701
0040065900999991974010312504+49633+006200FM-15+0378ELLX V0201301N00201000601CN0005001N1-00201-00201999999ADDGA1081+000609079MA1101021999999MW1421
0087065900999991974010313004+49633+006200FM-12+0378ELLX V0201301N00211000601CN0005001N9-00201-00201101241ADDAY141999GA1081+000609079GF108991081061000751999999MD1810101+9999MW1421REMSYN00588702
0068065900999991974010313504+49633+006200FM-15+0378ELLX V0201401N00301000601CN0010001N1-00101-00201999999ADDGA1081+000609079MA1101021999999REMMET006NOSIG%EQDQ01+000000PRSWM2
0087065900999991974010314004+49633+006200FM-12+0378ELLX V0201401N00311000601CN0010001N9-00101-00201101251ADDAY121999GA1081+000609079GF108991081061000751999999MD1510091+9999MW1281REMSYN00588702
0040065900999991974010314204+49633+006200FM-15+0378ELLX V0201301N00361000601CN0007001N1-00101-00201999999ADDGA1081+000609079MA1101021999999MW1461
0040065900999991974010314504+49633+006200FM-15+0378ELLX V0201201N00251000601CN0007001N1-00101-00201999999ADDGA1081+000609079MA1101021999999MW1461
0087065900999991974010315004+49633+006200FM-12+0378ELLX V0201201N00261000601CN0007001N9-00101-00201101271ADDAY141999GA1081+000609079GF108991081061000751999999MD1510001+9999MW1461REMSYN00588702
0040065900999991974010315204+49633+006200FM-15+0378ELLX V0201401N00251000601CN0008001N1-00201-00201999999ADDGA1081+000609079MA1101021999999MW1441
0068065900999991974010315504+49633+006200FM-15+0378ELLX V0201201N00251000601CN0012001N1-00101-00201999999ADDGA1081+000609079MA1101081999999REMMET006NOSIG%EQDQ01+000000PRSWM2
0087065900999991974010316004+49633+006200FM-12+0378ELLX V0201201N00261000601CN0012001N9-00101-00201101311ADDAY121999GA1081+000609079GF108991081061000751999999MD1310071+9999MW1281REMSYN00588702
0068065900999991974010316204+49633+006200FM-15+0378ELLX V0201201N00361000601CN0010001N1-00201-00201999999ADDGA1081+000609079MA1101081999999REMMET006NOSIG%EQDQ01+000000PRSWM2
0040065900999991974010316504+49633+006200FM-15+0378ELLX V0201201N00361000601CN0006001N1-00201-00201999999ADDGA1081+000609079MA1101081999999MW1461
0040065900999991974010317504+49633+006200FM-15+0378ELLX V0201201N00361000601CN0005001N1-00201-00201999999ADDGA1081+000609079MA1101081999999MW1461
0117065900999991974010318004+49633+006200FM-12+0378ELLX V0201201N00361000601CN0005001N9-00201-00201101401ADDAA199000091AY141999GA1081+000609079GF108991081061000751999999KA1999M-00101MD1210121+9999MW1461REMSYN01170051 88702
0040065900999991974010318204+49633+006200FM-15+0378ELLX V0201201N00301000601CN0003001N1-00201-00201999999ADDGA1081+000609079MA1101081999999MW1461
0040065900999991974010318504+49633+006200FM-15+0378ELLX V0201401N00361000601CN0003001N1-00201-00201999999ADDGA1081+000609079MA1101191999999MW1461
0087065900999991974010319004+49633+006200FM-12+0378ELLX V0201401N00361000601CN0003001N9-00201-00201101441ADDAY141999GA1081+000609079GF108991081061000751999999MD1210111+9999MW1461REMSYN00588702
0040065900999991974010319204+49633+006200FM-15+0378ELLX V0201601N00361000301CN0002001N1-00201-00201999999ADDGA1081+000309079MA1101191999999MW1461
0040065900999991974010319504+49633+006200FM-15+0378ELLX V0201401N00361000301CN0002001N1-00201-00201999999ADDGA1081+000309079MA1101191999999MW1461
0087065900999991974010320004+49633+006200FM-12+0378ELLX V0201401N00361000301CN0002001N9-00201-00201101501ADDAY141999GA1081+000309079GF108991081061000251999999MD1210121+9999MW1461REMSYN00588701
0040065900999991974010320204+49633+006200FM-15+0378ELLX V0201401N00301000301CN0003001N1-00301-00301999999ADDGA1081+000309079MA1101191999999MW1441
0024065900999991974010320504+49633+006200FM-15+0378ELLX V0201401N00411220001CN0002001N1-00301-00301999999ADDMA1101191999999MW1441
0087065900999991974010321004+49633+006200FM-12+0378ELLX V0201401N00411000301CN0002001N9-00301-00301101501ADDAY141999GA1081+000309079GF108991081061000251999999MD1110081+9999MW1441REMSYN00588701
0040065900999991974010321204+49633+006200FM-15+0378ELLX V0201501N00411000301CN0002001N1-00301-00301999999ADDGA1081+000309079MA1101191999999MW1441
0040065900999991974010321504+49633+006200FM-15+0378ELLX V0201501N00301000301CN0002001N1-00201-00201999999ADDGA1081+000309079MA1101291999999MW1441
0087065900999991974010322004+49633+006200FM-12+0378ELLX V0201501N00311000301CN0002001N9-00201-00201101551ADDAY141999GA1081+000309079GF108991081061000251999999MD1210101+9999MW1441REMSYN00588701
0040065900999991974010322204+49633+006200FM-15+0378ELLX V0201301N00301000301CN0002001N1-00201-00201999999ADDGA1081+000309079MA1101291999999MW1441
0087065900999991974010323004+49633+006200FM-12+0378ELLX V0201401N00261000301CN0002001N9-00201-00201101561ADDAY141999GA1081+000309079GF108991081061000251999999MD1310071+9999MW1441REMSYN00588701
0040065900999991974010323504+49633+006200FM-15+0378ELLX V0201501N00201000301CN0002001N1-00201-00201999999ADDGA1081+000309079MA1101291999999MW1441
0087065900999991974010400004+49633+006200FM-12+0378ELLX V0201501N00211000301CN0002001N9-00201-00201101561ADDAY141999GA1081+000309079GF108991081061000251999999MD1110071+9999MW1441REMSYN00588701
0053065900999991974010400504+49633+006200FM-15+0378ELLX V0201401N00251000601CN0004001N1-00201-00201999999ADDGA1081+000609079MA1101291999999EQDQ01+000000PRSWM2
0087065900999991974010401004+49633+006200FM-12+0378ELLX V0201401N00261000601CN0004001N9-00201-00201101601ADDAY141999GA1081+000609079GF108991081061000751999999MD1210051+9999MW1481REMSYN00588702
0040065900999991974010401204+49633+006200FM-15+0378ELLX V0201401N00301000601CN0004001N1-00201-00201999999ADDGA1081+000609079MA1101291999999MW1481
0024065900999991974010401504+49633+006200FM-15+0378ELLX V0201501N00301220001CN0003001N1-00201-00201999999ADDMA1101291999999MW1481
0087065900999991974010402004+49633+006200FM-12+0378ELLX V0201501N00311000301CN0003001N9-00201-00201101621ADDAY141999GA1081+000309079GF108991081061000251999999MD1210051+9999MW1481REMSYN00588701
0040065900999991974010402204+49633+006200FM-15+0378ELLX V0201401N00251000301CN0003001N1-00201-00201999999ADDGA1081+000309079MA1101291999999MW1481
0040065900999991974010402504+49633+006200FM-15+0378ELLX V0201501N00251000301CN0003001N1-00201-00201999999ADDGA1081+000309079MA1101391999999MW1481
0087065900999991974010403004+49633+006200FM-12+0378ELLX V0201501N00261000301CN0003001N9-00201-00201101641ADDAY141999GA1081+000309079GF108991081061000251999999MD1210071+9999MW1481REMSYN00588701
0040065900999991974010403204+49633+006200FM-15+0378ELLX V0201901N00301000301CN0003001N1-00201-00201999999ADDGA1081+000309079MA1101391999999MW1481
0040065900999991974010403504+49633+006200FM-15+0378ELLX V0201901N00251000301CN0003001N1-00201-00201999999ADDGA1081+000309079MA1101391999999MW1481
0087065900999991974010404004+49633+006200FM-12+0378ELLX V0201901N00261000301CN0003001N9-00201-00201101711ADDAY141999GA1081+000309079GF108991081061000251999999MD1310101+9999MW1481REMSYN00588701
0040065900999991974010404204+49633+006200FM-15+0378ELLX V0201801N00201000301CN0003001N1-00201-00201999999ADDGA1081+000309079MA1101391999999MW1481
0040065900999991974010404504+49633+006200FM-15+0378ELLX V0201801N00151000301CN0002001N1-00201-00201999999ADDGA1081+000309079MA1101491999999MW1481
0087065900999991974010405004+49633+006200FM-12+0378ELLX V0201801N00151000301CN0002001N9-00201-00201101741ADDAY141999GA1081+000309079GF108991081061000251999999MD1210121+9999MW1481REMSYN00588701
0040065900999991974010405204+49633+006200FM-15+0378ELLX V0201601N00201000301CN0002001N1-00201-00201999999ADDGA1081+000309079MA1101491999999MW1481
0040065900999991974010405504+49633+006200FM-15+0378ELLX V0201801N00101000301CN0003001N1-00201-00201999999ADDGA1081+000309079MA1101491999999MW1481
0117065900999991974010406004+49633+006200FM-12+0378ELLX V0201801N00101000301CN0003001N9-00201-00201101771ADDAA199000091AY141999GA1081+000309079GF108991081061000251999999KA1999N-00301MD1210131+9999MW1481REMSYN01170053 88701
0040065900999991974010406204+49633+006200FM-15+0378ELLX V0201501N00151000301CN0007001N1-00201-00201999999ADDGA1081+000309079MA1101491999999MW1481
0040065900999991974010406504+49633+006200FM-15+0378ELLX V0201901N00101000601CN0008001N1-00201-00201999999ADDGA1081+000609079MA1101491999999MW1481
0087065900999991974010407004+49633+006200FM-12+0378ELLX V0201901N00101000601CN0008001N9-00201-00201101791ADDAY141999GA1081+000609079GF108991081061000751999999MD1210091+9999MW1481REMSYN00588702
0040065900999991974010407204+49633+006200FM-15+0378ELLX V0201701N00201000601CN0005001N1-00201-00201999999ADDGA1081+000609079MA1101491999999MW1481
0040065900999991974010407504+49633+006200FM-15+0378ELLX V0209991C00001000601CN0008001N1-00201-00201999999ADDGA1081+000609079MA1101591999999MW1481
0087065900999991974010408004+49633+006200FM-12+0378ELLX V0209991C00001000601CN0008001N9-00201-00201101831ADDAY141999GA1081+000609079GF108991081061000751999999MD1210101+9999MW1481REMSYN00588702
0060065900999991974010408204+49633+006200FM-15+0378ELLX V0201601N00101000601CN0010001N1-00101-00101999999ADDGA1081+000609079MA1101591999999MW1281REMMET011GRADU 2000%
0076065900999991974010408504+49633+006200FM-15+0378ELLX V0201701N00151000901CN0012001N1-00101-00101999999ADDGA1061+000909079GA2081+009909059MA1101591999999MW1281REMMET011GRADU 2000%
0109065900999991974010409004+49633+006200FM-12+0378ELLX V0201701N00151000901CN0012001N9-00101-00201101891ADDAY141999GA1061+000909079GA2081+009909059GF108991081051001501999999MD1310151+9999MW1281REMSYN01186703 88  3
0084065900999991974010409204+49633+006200FM-15+0378ELLX V0201701N00051030001CN0012001N1-00101-00101999999ADDGA1041+009909059GA2071+030009049MA1101691999999REMMET006NOSIG%EQDQ01+000000PRSWM2
0084065900999991974010409504+49633+006200FM-15+0378ELLX V0201701N00101000901CN0012001N1+00001-00101999999ADDGA1051+000909079GA2071+030009049MA1101691999999REMMET006NOSIG%EQDQ01+000000PRSWM2
0109065900999991974010410004+49633+006200FM-12+0378ELLX V0201701N00101000901CN0012001N9+00001-00101101911ADDAY121999GA1051+000909079GA2071+030009049GF107991051051002501011999MD1310161+9999MW1011REMSYN01185703 87460
0076065900999991974010410204+49633+006200FM-15+0378ELLX V0201901N00151036001CN0015001N1+00001+00001999999ADDGA1021+030009039GA2071+036009049MA1101691999999MW1601REMMET011GRADU 3000%
0090065900999991974010410504+49633+006200FM-15+0378ELLX V0201801N00201060001CN0015001N1+00001-00101999999ADDGA1021+030009049GA2061+060009029MA1101691999999REMMET012GRADU 30000%EQDQ01+000000PRSWM2
0109065900999991974010411004+49633+006200FM-12+0378ELLX V0201801N00211060001CN0015001N9+00001-00101101951ADDAY121999GA1021+030009049GA2061+060009029GF107991021001999999011081MD1210151+9999MW1211REMSYN01182460 86270
0046065900999991974010411204+49633+006200FM-15+0378ELLX V0201801N00251009901CN0025001N1+00101+00001999999ADDGA1061+009909059MW1221REMMET012101--? 98? %
0085065900999991974010411504+49633+006200FM-15+0378ELLX V0201401N00151060001CN0022001N1+00201+00201999999ADDGA1041+030009039GA2051+060009009MA1101801999999REMMET007NOSIG %EQDQ01+000000PRSWM2
0109065900999991974010412004+49633+006200FM-12+0378ELLX V0201401N00151060001CN0022001N9+00201+00201102021ADDAY161999GA1041+030009039GA2051+060009009GF106991041001999999031021MD1210161+9999MW1011REMSYN01184360 85070
0085065900999991974010412504+49633+006200FM-15+0378ELLX V0201901N00251220001CN0025001N1+00201+00101999999ADDGA1011+009009089GA2031+030009039MA1101691999999REMMET007NOSIG %EQDQ01+000000PRSWM2
0109065900999991974010413004+49633+006200FM-12+0378ELLX V0201901N00261036001CN0025001N9+00201+00101101921ADDAY121999GA1011+009009089GA2031+030009039GF106991021081008001031021MD1010041+9999MW1021REMSYN01181830 83360
0084065900999991974010413204+49633+006200FM-15+0378ELLX V0201801N00251220001CN0030001N1+00401+00101999999ADDGA1011+009009089GA2031+030009039MA1101691999999REMMET006NOSIG%EQDQ01+000000PRSWM2
0068065900999991974010413504+49633+006200FM-15+0378ELLX V0201501N00361220001CN0050001N1+00301+00101999999ADDGA1021+030009039MA1101691999999REMMET006NOSIG%EQDQ01+000000PRSWM2
0087065900999991974010414004+49633+006200FM-12+0378ELLX V0201501N00361220001CN0050001N9+00301+00101101871ADDAY121999GA1021+030009039GF103991021001999999031021MD1010041+9999MW1051REMSYN00582360
0068065900999991974010414204+49633+006200FM-15+0378ELLX V0201701N00301220001CN0040001N1+00301+00101999999ADDGA1031+030009039MA1101691999999REMMET006NOSIG%EQDQ01+000000PRSWM2
0068065900999991974010414504+49633+006200FM-15+0378ELLX V0201601N00361220001CN0040001N1+00301+00001999999ADDGA1021+030009039MA1101691999999REMMET006NOSIG%EQDQ01+000000PRSWM2
0087065900999991974010415004+49633+006200FM-12+0378ELLX V0201601N00361220001CN0040001N9+00301+00001101871ADDAY121999GA1021+030009039GF102991021001999999031001MD1610141+9999MW1101REMSYN00582360
0068065900999991974010415204+49633+006200FM-15+0378ELLX V0201601N00411220001CN0030001N1+00201+00001999999ADDGA1011+030009039MA1101691999999REMMET006NOSIG%EQDQ01+000000PRSWM2
0068065900999991974010415504+49633+006200FM-15+0378ELLX V0201701N00251220001CN0035001N1+00201+00001999999ADDGA1031+033009039MA1101691999999REMMET006NOSIG%EQDQ01+000000PRSWM2
0087065900999991974010416004+49633+006200FM-12+0378ELLX V0201701N00261220001CN0035001N9+00201+00001101941ADDAY101999GA1031+033009039GF103991031001999999031001MD1310011+9999MW1101REMSYN00583361
0068065900999991974010416204+49633+006200FM-15+0378ELLX V0201801N00251220001CN0035001N1+00201+00101999999ADDGA1031+033009039MA1101691999999REMMET006NOSIG%EQDQ01+000000PRSWM2
0084065900999991974010416504+49633+006200FM-15+0378ELLX V0201701N00251002701CN0040001N1+00201+00101999999ADDGA1061+002709079GA2041+033009039MA1101691999999REMMET006NOSIG%EQDQ01+000000PRSWM2
0109065900999991974010417004+49633+006200FM-12+0378ELLX V0201701N00261002701CN0040001N9+00201+00101101961ADDAY111999GA1061+002709079GA2041+033009039GF107991061061002501031999MD1310071+9999MW1101REMSYN01186709 84361
0068065900999991974010417204+49633+006200FM-15+0378ELLX V0201701N00301002701CN0040001N1+00301+00201999999ADDGA1071+002709079MA1101691999999REMMET006NOSIG%EQDQ01+000000PRSWM2
0117065900999991974010418004+49633+006200FM-12+0378ELLX V0201701N00411003301CN0040001N9+00301+00201101941ADDAA199000091AY111999GA1071+003309079GF108991071061004501999999KA1999M+00401MD1110081+9999MW1101REMSYN01170004 87711
0068065900999991974010418204+49633+006200FM-15+0378ELLX V0201701N00361003001CN0040001N1+00401+00301999999ADDGA1071+003009079MA1101801999999REMMET006NOSIG%EQDQ01+000000PRSWM2
0068065900999991974010418504+49633+006200FM-15+0378ELLX V0201801N00411003301CN0040001N1+00301+00201999999ADDGA1071+003309079MA1101691999999REMMET006NOSIG%EQDQ01+000000PRSWM2
0087065900999991974010419004+49633+006200FM-12+0378ELLX V0201801N00411003301CN0040001N9+00301+00201101941ADDAY121999GA1081+003309079GF108991071061004501999999MD1110021+9999MW1101REMSYN00588711
0068065900999991974010419204+49633+006200FM-15+0378ELLX V0201801N00301003001CN0030001N1+00301+00201999999ADDGA1081+003009079MA1101801999999REMMET006NOSIG%EQDQ01+000000PRSWM2
0068065900999991974010419504+49633+006200FM-15+0378ELLX V0201801N00301220001CN0030001N1+00301+00201999999ADDGA1031+003009079MA1101801999999REMMET006NOSIG%EQDQ01+000000PRSWM2
0087065900999991974010420004+49633+006200FM-12+0378ELLX V0201801N00311220001CN0030001N9+00301+00201101971ADDAY111999GA1031+003009079GF103991031061004501001001MD1310021+9999MW1101REMSYN00583710
0068065900999991974010420204+49633+006200FM-15+0378ELLX V0201701N00461220001CN0040001N1+00201+00101999999ADDGA1021+003009079MA1101801999999REMMET006NOSIG%EQDQ01+000000PRSWM2
0068065900999991974010420504+49633+006200FM-15+0378ELLX V0201601N00361220001CN0040001N1+00201+00101999999ADDGA1021+003009079MA1101801999999REMMET006NOSIG%EQDQ01+000000PRSWM2
0087065900999991974010421004+49633+006200FM-12+0378ELLX V0201601N00361220001CN0040001N9+00201+00101102001ADDAY111999GA1021+003009079GF102991021061004501001001MD1210031+9999MW1101REMSYN00582710
0052065900999991974010421204+49633+006200FM-15+0378ELLX V0201601N00411220001CN0040001N1+00201+00101999999ADDMA1101691999999REMMET006NOSIG%EQDQ01+000000PRSWM2
0052065900999991974010421504+49633+006200FM-15+0378ELLX V0201601N00361220001CN0050001N1+00201+00001999999ADDMA1101801999999REMMET006NOSIG%EQDQ01+000000PRSWM2
0057065900999991974010422004+49633+006200FM-12+0378ELLX V0201601N00361220001CN0050001N9+00201+00001101971ADDAY101999GF100991001001999999001001MD1010011+9999MW1101
0052065900999991974010422504+49633+006200FM-15+0378ELLX V0201501N00201220001CN0040001N1+00101+00001999999ADDMA1101801999999REMMET006NOSIG%EQDQ01+000000PRSWM2
0057065900999991974010423004+49633+006200FM-12+0378ELLX V0201501N00211220001CN0040001N9+00101+00001101981ADDAY101999GF100991001001999999001001MD1710011+9999MW1101
0052065900999991974010423204+49633+006200FM-15+0378ELLX V0201601N00201220001CN0040001N1+00101+00001999999ADDMA1101801999999REMMET006NOSIG%EQDQ01+000000PRSWM2
0052065900999991974010423504+49633+006200FM-15+0378ELLX V0201601N00301220001CN0040001N1+00101+00001999999ADDMA1101691999999REMMET006NOSIG%EQDQ01+000000PRSWM2
0082065900999991974010500004+49633+006200FM-12+0378ELLX V0201601N00311220001CN0040001N9+00101+00001101951ADDAA199000091AY111999GF100991001001999999001001MD1810051+9999MW1101REMSYN005700//
0068065900999991974010500504+49633+006200FM-15+0378ELLX V0201501N00201007501CN0040001N1+00201+00001999999ADDGA1061+007509059MA1101691999999REMMET006NOSIG%EQDQ01+000000PRSWM2
0087065900999991974010501004+49633+006200FM-12+0378ELLX V0201501N00211007501CN0040001N9+00201+00001101901ADDAY111999GA1061+007509059GF106991061051008001001001MD1710081+9999MW1101REMSYN00586  5
0068065900999991974010501204+49633+006200FM-15+0378ELLX V0201601N00201007501CN0040001N1+00201+00001999999ADDGA1061+007509059MA1101691999999REMMET006NOSIG%EQDQ01+000000PRSWM2
0068065900999991974010501504+49633+006200FM-15+0378ELLX V0201501N00301007501CN0040001N1+00201+00101999999ADDGA1071+007509059MA1101691999999REMMET006NOSIG%EQDQ01+000000PRSWM2
0087065900999991974010502004+49633+006200FM-12+0378ELLX V0201501N00311007501CN0040001N9+00201+00101101891ADDAY121999GA1071+007509059GF107991071051008001999999MD1610081+9999MW1101REMSYN00587  5
0068065900999991974010502204+49633+006200FM-15+0378ELLX V0201601N00301007501CN0040001N1+00201+00101999999ADDGA1071+007509059MA1101691999999REMMET006NOSIG%EQDQ01+000000PRSWM2
0087065900999991974010503004+49633+006200FM-12+0378ELLX V0201501N00261007501CN0040001N9+00201+00101101891ADDAY111999GA1071+007509059GF107991071051008001999999MD1610051+9999MW1101REMSYN00587  5
0068065900999991974010503504+49633+006200FM-15+0378ELLX V0201401N00251006001CN0040001N1+00301+00101999999ADDGA1071+006009059MA1101691999999REMMET006NOSIG%EQDQ01+000000PRSWM2
0068065900999991974010504204+49633+006200FM-15+0378ELLX V0201401N00251006001CN0050001N1+00301+00101999999ADDGA1071+006009059MA1101591999999REMMET006NOSIG%EQDQ01+000000PRSWM2
0068065900999991974010504504+49633+006200FM-15+0378ELLX V0201601N00361009901CN0070001N1+00301+00201999999ADDGA1071+009909059MA1101491999999REMMET006NOSIG%EQDQ01+000000PRSWM2
0087065900999991974010505004+49633+006200FM-12+0378ELLX V0201601N00361009901CN0070001N9+00301+00201101731ADDAY121999GA1071+009909059GF107991071051012501999999MD1810131+9999MW1021REMSYN00587  3
0068065900999991974010505504+49633+006200FM-15+0378ELLX V0201501N00461220001CN0080001N1+00301+00201999999ADDGA1031+012009059MA1101491999999REMMET006NOSIG%EQDQ01+000000PRSWM2
0117065900999991974010506004+49633+006200FM-12+0378ELLX V0201501N00461220001CN0080001N9+00301+00201101721ADDAA199000091AY111999GA1031+012009059GF103991031051012501001001KA1999N+00101MD1710151+9999MW1011REMSYN01170001 83640
0068065900999991974010506204+49633+006200FM-15+0378ELLX V0201401N00411220001CN0090001N1+00301+00101999999ADDGA1011+012009059MA1101491999999REMMET006NOSIG%EQDQ01+000000PRSWM2
0128065900999991974010507004+49633+006200FM-12+0378ELLX V0201601N00361220001CN0090001N9+00301+00101101691ADDAY101999GA1011+015009059GA2031+060009009GF104991011051017501999011MD1610111+9999MW1031REMSYN01181650 83070EQDQ01    003SCOMCG
0052065900999991974010507204+49633+006200FM-15+0378ELLX V0201701N00361999991CY0099001N1+00301+00101999999ADDMA1101491999999REMMET006NOSIG%EQDQ01+000000PRSWM2
0052065900999991974010507504+49633+006200FM-15+0378ELLX V0201701N00511999991CY0099001N1+00401+00101999999ADDMA1101491999999REMMET006NOSIG%EQDQ01+000000PRSWM2
0109065900999991974010508004+49633+006200FM-12+0378ELLX V0201701N00511060001CN0120001N9+00401+00101101661ADDAY111999GA1011+015009059GA2061+060009009GF106991011051017501031021MD1610071+9999MW1031REMSYN01181650 86070
0052065900999991974010508204+49633+006200FM-15+0378ELLX V0201701N00411999991CY0099001N1+00401+00101999999ADDMA1101491999999REMMET006NOSIG%EQDQ01+000000PRSWM2
0052065900999991974010508504+49633+006200FM-15+0378ELLX V0201801N00361999991CY0099001N1+00501+00101999999ADDMA1101491999999REMMET006NOSIG%EQDQ01+000000PRSWM2
0109065900999991974010509004+49633+006200FM-12+0378ELLX V0201801N00361060001CN0120001N9+00501+00101101661ADDAY111999GA1021+036009049GA2071+060009009GF107991021001999999071021MD1510031+9999MW1031REMSYN01182462 87070
0052065900999991974010509504+49633+006200FM-15+0378ELLX V0201701N00411999991CY0099001N1+00501+00001999999ADDMA1101491999999REMMET006NOSIG%EQDQ01+000000PRSWM2
0109065900999991974010510004+49633+006200FM-12+0378ELLX V0201701N00411060001CN0120001N9+00501+00001101621ADDAY121999GA1011+030009039GA2071+060009009GF107991021001999999071021MD1810031+9999MW1021REMSYN01181360 87070
0052065900999991974010510204+49633+006200FM-15+0378ELLX V0201801N00361999991CY0099001N1+00601+00001999999ADDMA1101491999999REMMET006NOSIG%EQDQ01+000000PRSWM2
0052065900999991974010510504+49633+006200FM-15+0378ELLX V0201901N00361999991CY0099001N1+00701+00001999999ADDMA1101491999999REMMET006NOSIG%EQDQ01+000000PRSWM2
0131065900999991974010511004+49633+006200FM-12+0378ELLX V0201901N00361060001CN0100001N9+00701+00001101581ADDAY121999GA1011+030009039GA2031+036009049GA3071+060009009GF107991031001999999071021MD1610021+9999MW1021REMSYN01781360 83462 87070
0052065900999991974010511204+49633+006200FM-15+0378ELLX V0201901N00461999991CY0099001N1+00601+00001999999ADDMA1101391999999REMMET006NOSIG%EQDQ01+000000PRSWM2
0052065900999991974010511504+49633+006200FM-15+0378ELLX V0201901N00561999991CY0099001N1+00701+00101999999ADDMA1101391999999REMMET006NOSIG%EQDQ01+000000PRSWM2
0131065900999991974010512004+49633+006200FM-12+0378ELLX V0201901N00571036001CN0120001N9+00701+00101101491ADDAY121999GA1011+030009039GA2051+036009049GA3071+060009009GF107991051001999999071021MD1810121+9999MW1021REMSYN01781360 85462 87070
0052065900999991974010512204+49633+006200FM-15+0378ELLX V0201901N00461999991CY0099001N1+00701+00101999999ADDMA1101291999999REMMET006NOSIG%EQDQ01+000000PRSWM2
0052065900999991974010512504+49633+006200FM-15+0378ELLX V0201701N00301999991CY0099001N1+00801+00101999999ADDMA1101291999999REMMET006NOSIG%EQDQ01+000000PRSWM2
0131065900999991974010513004+49633+006200FM-12+0378ELLX V0201701N00361036001CN0150001N9+00801+00101101391ADDAY121999GA1011+030009039GA2051+036009049GA3071+060009009GF107991051001999999071021MD1810181+9999MW1021REMSYN01781360 85462 87070
0052065900999991974010513204+49633+006200FM-15+0378ELLX V0201901N00411999991CY0099001N1+00801+00101999999ADDMA1101291999999REMMET006NOSIG%EQDQ01+000000PRSWM2
0052065900999991974010513504+49633+006200FM-15+0378ELLX V0201601N00461999991CY0099001N1+00801+00101999999ADDMA1101191999999REMMET006NOSIG%EQDQ01+000000PRSWM2
0131065900999991974010514004+49633+006200FM-12+0378ELLX V0201601N00461036001CN0150001N9+00801+00101101281ADDAY121999GA1021+030009039GA2051+036009049GA3071+060009029GF107991051001999999071061MD1710261+9999MW1021REMSYN01782360 85462 87270
0052065900999991974010514204+49633+006200FM-15+0378ELLX V0201901N00511999991CY0099001N1+00801+00201999999ADDMA1101191999999REMMET006NOSIG%EQDQ01+000000PRSWM2
0052065900999991974010514504+49633+006200FM-15+0378ELLX V0202001N00411999991CY0099001N1+00801+00201999999ADDMA1101191999999REMMET006NOSIG%EQDQ01+000000PRSWM2
0131065900999991974010515004+49633+006200FM-12+0378ELLX V0202001N00411036001CN0150001N9+00801+00201101291ADDAY121999GA1031+030009039GA2061+036009049GA3071+060009029GF107991061001999999071061MD1610181+9999MW1021REMSYN01783360 86462 87270
0052065900999991974010515204+49633+006200FM-15+0378ELLX V0201901N00561999991CY0099001N1+00701+00201999999ADDMA1101191999999REMMET006NOSIG%EQDQ01+000000PRSWM2
0052065900999991974010515504+49633+006200FM-15+0378ELLX V0201701N00511999991CY0099001N1+00701+00201999999ADDMA1101191999999REMMET006NOSIG%EQDQ01+000000PRSWM2
0131065900999991974010516004+49633+006200FM-12+0378ELLX V0201701N00511036001CN0150001N9+00701+00201101301ADDAY121999GA1031+030009039GA2061+036009049GA3071+060009029GF107991061001999999071061MD1610101+9999MW1021REMSYN01783360 86462 87270
0052065900999991974010516204+49633+006200FM-15+0378ELLX V0201901N00511999991CY0099001N1+00701+00201999999ADDMA1101191999999REMMET006NOSIG%EQDQ01+000000PRSWM2
0052065900999991974010516504+49633+006200FM-15+0378ELLX V0201901N00411999991CY0099001N1+00701+00201999999ADDMA1101191999999REMMET006NOSIG%EQDQ01+000000PRSWM2
0131065900999991974010517004+49633+006200FM-12+0378ELLX V0201901N00411036001CN0150001N9+00701+00201101301ADDAY121999GA1031+030009039GA2061+036009049GA3071+060009029GF107991061001999999071061MD1410001+9999MW1021REMSYN01783360 86462 87270
0161065900999991974010518004+49633+006200FM-12+0378ELLX V0201601N00411036001CN0150001N9+00601+00201101221ADDAA199000091AY121999GA1031+030009039GA2051+036009049GA3071+060009029GF107991051001999999071061KA1999M+00901MD1810091+9999MW1021REMSYN02370009 83360 85462 87270
0052065900999991974010518204+49633+006200FM-15+0378ELLX V0201601N00361999991CY0099001N1+00601+00201999999ADDMA1101081999999REMMET006NOSIG%EQDQ01+000000PRSWM2
0052065900999991974010518504+49633+006200FM-15+0378ELLX V0201601N00301999991CY0099001N1+00601+00201999999ADDMA1101081999999REMMET006NOSIG%EQDQ01+000000PRSWM2
0131065900999991974010519004+49633+006200FM-12+0378ELLX V0201601N00311036001CN0150001N9+00601+00201101211ADDAY121999GA1021+030009039GA2051+036009049GA3071+060009029GF107991051001999999071061MD1810111+9999MW1021REMSYN01782360 85462 87270
0052065900999991974010519204+49633+006200FM-15+0378ELLX V0201601N00411999991CY0099001N1+00601+00201999999ADDMA1101081999999REMMET006NOSIG%EQDQ01+000000PRSWM2
0052065900999991974010519504+49633+006200FM-15+0378ELLX V0201601N00411999991CY0099001N1+00601+00201999999ADDMA1101021999999REMMET006NOSIG%EQDQ01+000000PRSWM2
0131065900999991974010520004+49633+006200FM-12+0378ELLX V0201601N00411036001CN0150001N9+00601+00201101171ADDAY121999GA1031+030009039GA2061+036009049GA3071+060009029GF107991061001999999071061MD1710141+9999MW1021REMSYN01783360 86462 87270
0052065900999991974010520204+49633+006200FM-15+0378ELLX V0201601N00411999991CY0099001N1+00601+00201999999ADDMA1101021999999REMMET006NOSIG%EQDQ01+000000PRSWM2
0052065900999991974010520504+49633+006200FM-15+0378ELLX V0201601N00461999991CY0099001N1+00601+00201999999ADDMA1101021999999REMMET006NOSIG%EQDQ01+000000PRSWM2
0052065900999991974010521204+49633+006200FM-15+0378ELLX V0201601N00411999991CY0099001N1+00501+00201999999ADDMA1101021999999REMMET006NOSIG%EQDQ01+000000PRSWM2
0052065900999991974010521504+49633+006200FM-15+0378ELLX V0202501N00301999991CY0099001N1+00601+00201999999ADDMA1101021999999REMMET006NOSIG%EQDQ01+000000PRSWM2
0087065900999991974010522004+49633+006200FM-12+0378ELLX V0201501N00311030001CN0150001N9+00601+00201101171ADDAY121999GA1071+030009039GF107991071001999999071999MD1610031+9999MW1021REMSYN00587360
0052065900999991974010522204+49633+006200FM-15+0378ELLX V0201501N00411999991CY0099001N1+00601+00201999999ADDMA1101021999999REMMET006NOSIG%EQDQ01+000000PRSWM2
0071065900999991974010522504+49633+006200FM-15+0378ELLX V0201601N00361006001CN0112001N1+00601+00201999999ADDGA1051+006009059GA2071+030009039MA1101021999999MW1601REMMET006NOSIG%
0109065900999991974010523004+49633+006200FM-12+0378ELLX V0201601N00361006001CN0120001N9+00601+00201101131ADDAY121999GA1051+006009059GA2071+030009039GF107991051051008001071999MD1810041+9999MW1601REMSYN01185  0 87360
0071065900999991974010523204+49633+006200FM-15+0378ELLX V0201601N00411006001CN0090001N1+00501+00201999999ADDGA1061+006009059GA2071+030009039MA1101021999999MW1601REMMET006NOSIG%
0071065900999991974010523504+49633+006200FM-15+0378ELLX V0201701N00411006001CN0080001N1+00601+00301999999ADDGA1071+006009059GA2081+030009049MA1100911999999MW1611REMMET006NOSIG%
0109065900999991974010600004+49633+006200FM-12+0378ELLX V0201701N00411006001CN0080001N9+00601+00301101061ADDAY121999GA1071+006009059GA2081+030009049GF108991071071008001051021MD1810111+9999MW1611REMSYN01187  0 88460
0087065900999991974010601004+49633+006200FM-12+0378ELLX V0201701N00411002101CN0060001N9+00601+00301101061ADDAY161999GA1071+002109079GF108991071071002501999999MD1610111+9999MW1611REMSYN00587707
0055065900999991974010601504+49633+006200FM-15+0378ELLX V0201801N00511002101CN0050001N1+00501+00401999999ADDGA1071+002109079MA1100911999999MW1611REMMET006NOSIG%
0087065900999991974010602004+49633+006200FM-12+0378ELLX V0201801N00511002101CN0050001N9+00501+00401101071ADDAY161999GA1071+002109079GF108991071071002501999999MD1610071+9999MW1611REMSYN00587707
0055065900999991974010602204+49633+006200FM-15+0378ELLX V0201801N00511001201CN0040001N1+00501+00401999999ADDGA1071+001209079MA1100911999999MW1611REMMET006NOSIG%
0055065900999991974010602504+49633+006200FM-15+0378ELLX V0201901N00511002101CN0040001N1+00501+00401999999ADDGA1071+002109079MA1100911999999MW1611REMMET006NOSIG%
0087065900999991974010603004+49633+006200FM-12+0378ELLX V0201901N00511002101CN0040001N9+00501+00401101001ADDAY161999GA1071+002109079GF108991071071002501999999MD1710071+9999MW1611REMSYN00587707
0055065900999991974010603204+49633+006200FM-15+0378ELLX V0201901N00511001501CN0030001N1+00601+00501999999ADDGA1071+001509079MA1100811999999MW1611REMMET006NOSIG%
0055065900999991974010603504+49633+006200FM-15+0378ELLX V0201901N00511001501CN0025001N1+00601+00501999999ADDGA1071+001509079MA1100911999999MW1611REMMET006NOSIG%
0088065900999991974010604004+49633+006200FM-12+0378ELLX V0201901N00511001501CN0025001N9+00601+00501100991ADDAY161999GA1071+001509079GF108991071071001501999999MD1710071+9999MW1611REMSYN00687705^
0055065900999991974010604204+49633+006200FM-15+0378ELLX V0202001N00511001201CN0020001N1+00601+00601999999ADDGA1071+001209079MA1100811999999MW1611REMMET006NOSIG%
0055065900999991974010604504+49633+006200FM-15+0378ELLX V0202001N00511001201CN0020001N1+00601+00501999999ADDGA1071+001209079MA1100911999999MW1611REMMET006NOSIG%
0087065900999991974010605004+49633+006200FM-12+0378ELLX V0202001N00511001201CN0020001N9+00601+00501100991ADDAY161999GA1071+001209079GF108991071071001501999999MD1610071+9999MW1611REMSYN00587704
0055065900999991974010605204+49633+006200FM-15+0378ELLX V0202201N00411000601CN0015001N1+00601+00601999999ADDGA1071+000609079MA1100811999999MW1611REMMET006NOSIG%
0055065900999991974010605504+49633+006200FM-15+0378ELLX V0202101N00411000601CN0008001N1+00601+00501999999ADDGA1071+000609079MA1100911999999MW1611REMMET006NOSIG%
0117065900999991974010606004+49633+006200FM-12+0378ELLX V0202101N00411000601CN0008001N9+00601+00501100991ADDAA199007091AY161999GA1071+000609079GF108991071071001501999999KA1999N+00501MD1410001+9999MW1611REMSYN01170705 87702
0040065900999991974010606204+49633+006200FM-15+0378ELLX V0202101N00361000601CN0008001N1+00601+00601999999ADDGA1071+000609079MA1100911999999MW1611
0067065900999991974010606504+49633+006200FM-15+0378ELLX V0202101N00361000301CN0015001N1+00601+00601999999ADDGA1071+000309079MA1100911999999MW1611REMMET018GRADU 3000 7ST004%
0087065900999991974010607004+49633+006200FM-12+0378ELLX V0202101N00361000301CN0015001N9+00601+00601101001ADDAY161999GA1071+000309079GF108991071071000751999999MD1310011+9999MW1611REMSYN00587701
0067065900999991974010607204+49633+006200FM-15+0378ELLX V0202301N00411000301CN0013001N1+00601+00601999999ADDGA1071+000309079MA1100911999999MW1611REMMET018GRADU 3000 7ST004%
0067065900999991974010607504+49633+006200FM-15+0378ELLX V0202401N00411000301CN0015001N1+00601+00601999999ADDGA1071+000309079MA1100911999999MW1611REMMET018GRADU 3000 7ST004%
0087065900999991974010608004+49633+006200FM-12+0378ELLX V0202401N00411000301CN0015001N9+00601+00601101041ADDAY161999GA1071+000309079GF108991071071000751999999MD1310051+9999MW1611REMSYN00587701
0105065900999991974010608204+49633+006200FM-15+0378ELLX V0202501N00411001201CN0112001N1+00601+00501999999ADDGA1011+000609079GA2051+001209079GA3081+004809059MA1100911999999MW1211REMMET024GRADU      ?     5SC012%
0093065900999991974010608504+49633+006200FM-15+0378ELLX V0202501N00461002101CN0112001N1+00601+00501999999ADDGA1021+000909079GA2061+002109079GA3081+004809059MA1101021999999MW1211REMMET012GRADU 5SC012
0131065900999991974010609004+49633+006200FM-12+0378ELLX V0202501N00461002101CN0120001N9+00601+00501101141ADDAY121999GA1021+000909079GA2061+002109079GA3081+004809059GF108991081051000751999999MD1210151+9999MW1211REMSYN01782703 86707 88  6
0093065900999991974010609204+49633+006200FM-15+0378ELLX V0202601N00461004801CN0112001N1+00601+00501999999ADDGA1011+000909079GA2031+002109079GA3081+004809059MA1101081999999MW1801REMMET012GRADU 5SC012
0087065900999991974010609504+49633+006200FM-15+0378ELLX V0202601N00461003601CN0112001N1+00601+00501999999ADDGA1041+002109079GA2031+003609089GA3081+004809059MA1101081999999MW1251REMMET006NOSIG%
0131065900999991974010610004+49633+006200FM-12+0378ELLX V0202601N00461003601CN0180001N9+00601+00501101211ADDAY121999GA1041+002109079GA2031+003609089GA3081+004809059GF108991081081002501999999MD1210211+9999MW1251REMSYN01784707 83812 88  6
0100065900999991974010610204+49633+006200FM-15+0378ELLX V0202601N00611003601CN0112001N1+00601+00501999999ADDGA1031+002409079GA2031+003609089GA3071+006009059MA1101081999999REMMET006NOSIG%EQDQ01+000000PRSWM2
0100065900999991974010610504+49633+006200FM-15+0378ELLX V0202601N00461003901CN0112001N1+00601+00501999999ADDGA1031+002709079GA2031+003909089GA3071+012009059MA1101081999999REMMET006NOSIG%EQDQ01+000000PRSWM2
0131065900999991974010611004+49633+006200FM-12+0378ELLX V0202601N00461003901CN0150001N9+00601+00501101251ADDAY121999GA1031+002709079GA2031+003909089GA3071+012009059GF107991071081002501999999MD1210221+9999MW1011REMSYN01783709 83813 87640
0100065900999991974010611204+49633+006200FM-15+0378ELLX V0202501N00461003901CN0112001N1+00601+00501999999ADDGA1041+002409079GA2041+003909089GA3071+006009059MA1101081999999REMMET006NOSIG%EQDQ01+000000PRSWM2
0100065900999991974010611504+49633+006200FM-15+0378ELLX V0202601N00461004201CN0112001N1+00601+00501999999ADDGA1011+002709079GA2051+004209089GA3071+012009059MA1101191999999REMMET006NOSIG%EQDQ01+000000PRSWM2
0167065900999991974010612004+49633+006200FM-12+0378ELLX V0202601N00461004201CN0150001N9+00601+00501101281ADDAA106001091AY181999GA1011+002709079GA2051+004209089GA3071+012009059GF107991071081002501999999MD1110151+9999MW1021REMSYN023701// 81709 85814 87640EQDQ01  00103PRCP99
0084065900999991974010612204+49633+006200FM-15+0378ELLX V0202501N00561004501CN0112001N1+00701+00401999999ADDGA1051+004509089GA2071+012009059MA1101191999999REMMET006NOSIG%EQDQ01+000000PRSWM2
0071065900999991974010612504+49633+006200FM-15+0378ELLX V0202501N00561003901CN0112001N1+00601+00401999999ADDGA1061+003909089GA2071+012009059MA1101081999999MW1801REMMET006NOSIG%
0109065900999991974010613004+49633+006200FM-12+0378ELLX V0202501N00571003901CN0150001N9+00601+00401101261ADDAY121999GA1061+003909089GA2071+012009059GF107991071081004501999999MD1010061+9999MW1801REMSYN01186813 87640
0087065900999991974010613204+49633+006200FM-15+0378ELLX V0202501N00661003901CN0112001N1+00601+00401999999ADDGA1021+002109079GA2051+003909089GA3071+012009059MA1101081999999MW1251REMMET006NOSIG%
0071065900999991974010613504+49633+006200FM-15+0378ELLX V0202501N00511012001CN0112001N1+00601+00401999999ADDGA1041+003909089GA2071+012009059MA1101191999999MW1251REMMET006NOSIG%
0109065900999991974010614004+49633+006200FM-12+0378ELLX V0202501N00511012001CN0120001N9+00601+00401101281ADDAY121999GA1041+003909089GA2071+012009059GF107991071081004501999999MD1310031+9999MW1261REMSYN01184813 87640
0087065900999991974010614204+49633+006200FM-15+0378ELLX V0202501N00511003901CN0112001N1+00601+00501999999ADDGA1021+002709079GA2031+003909089GA3071+012009059MA1101191999999MW1801REMMET006NOSIG%
0087065900999991974010614504+49633+006200FM-15+0378ELLX V0202501N00511003901CN0112001N1+00601+00501999999ADDGA1021+002709079GA2031+003909089GA3071+012009059MA1101191999999MW1251REMMET006NOSIG%
0131065900999991974010615004+49633+006200FM-12+0378ELLX V0202501N00511003901CN0120001N9+00601+00501101361ADDAY121999GA1021+002709079GA2031+003909089GA3071+012009059GF107991071081002501999999MD1310081+9999MW1251REMSYN01782709 83813 87640
0100065900999991974010615204+49633+006200FM-15+0378ELLX V0202401N00461012001CN0112001N1+00601+00501999999ADDGA1011+003009099GA2041+003909089GA3071+012009059MA1101191999999REMMET006NOSIG%EQDQ01+000000PRSWM2
0087065900999991974010615504+49633+006200FM-15+0378ELLX V0202501N00511003001CN0112001N1+00601+00501999999ADDGA1031+002409079GA2041+003009099GA3071+012009059MA1101291999999MW1801REMMET006NOSIG%
0131065900999991974010616004+49633+006200FM-12+0378ELLX V0202501N00511003001CN0150001N9+00601+00501101371ADDAY121999GA1031+002409079GA2041+003009099GA3071+012009059GF107991071091002501999999MD1210111+9999MW1801REMSYN01783708 84910 87640
0055065900999991974010616204+49633+006200FM-15+0378ELLX V0202501N00301220001CN0090001N1+00601+00401999999ADDGA1021+003309099MA1101291999999MW1251REMMET006NOSIG%
0071065900999991974010616504+49633+006200FM-15+0378ELLX V0202301N00301007501CN0112001N1+00601+00401999999ADDGA1041+003609099GA2061+007509059MA1101291999999MW1801REMMET006NOSIG%
0109065900999991974010617004+49633+006200FM-12+0378ELLX V0202301N00311007501CN0150001N9+00601+00401101441ADDAY121999GA1041+003609099GA2061+007509059GF106991061091004501999999MD1210141+9999MW1801REMSYN01184912 86  5
0084065900999991974010617204+49633+006200FM-15+0378ELLX V0202501N00411006001CN0112001N1+00501+00401999999ADDGA1011+003609099GA2051+006009059MA1101291999999REMMET006NOSIG%EQDQ01+000000PRSWM2
0071065900999991974010617504+49633+006200FM-15+0378ELLX V0202401N00301006001CN0112001N1+00501+00401999999ADDGA1011+004509089GA2071+006009059MA1101291999999MW1251REMMET006NOSIG%
0117065900999991974010618004+49633+006200FM-12+0378ELLX V0202401N00311006001CN0180001N9+00501+00401101491ADDAA199001091AY121999GA1071+006009059GF107991071081004501999999KA1999M+00701MD1210101+9999MW1251REMSYN01170107 87  0
0084065900999991974010618204+49633+006200FM-15+0378ELLX V0202401N00361006001CN0112001N1+00501+00401999999ADDGA1031+004509059GA2061+006009059MA1101391999999REMMET006NOSIG%EQDQ01+000000PRSWM2
0084065900999991974010618504+49633+006200FM-15+0378ELLX V0202301N00301006001CN0112001N1+00501+00401999999ADDGA1041+004509059GA2061+006009059MA1101391999999REMMET006NOSIG%EQDQ01+000000PRSWM2
0109065900999991974010619004+49633+006200FM-12+0378ELLX V0202301N00311006001CN0180001N9+00501+00401101511ADDAY121999GA1041+004509059GA2061+006009059GF107991071051004501999999MD1110101+9999MW1021REMSYN01184  5 86  0
0068065900999991974010619204+49633+006200FM-15+0378ELLX V0202301N00301004501CN0112001N1+00501+00401999999ADDGA1061+004509059MA1101391999999REMMET006NOSIG%EQDQ01+000000PRSWM2
0068065900999991974010619504+49633+006200FM-15+0378ELLX V0202401N00361003301CN0112001N1+00501+00401999999ADDGA1071+003309059MA1101391999999REMMET006NOSIG%EQDQ01+000000PRSWM2
0087065900999991974010620004+49633+006200FM-12+0378ELLX V0202401N00361003301CN0150001N9+00501+00401101561ADDAY121999GA1071+003309059GF107991071051004501999999MD1210101+9999MW1021REMSYN00587  1
0068065900999991974010620204+49633+006200FM-15+0378ELLX V0202301N00301003601CN0112001N1+00501+00401999999ADDGA1061+003609059MA1101391999999REMMET006NOSIG%EQDQ01+000000PRSWM2
0068065900999991974010620504+49633+006200FM-15+0378ELLX V0202301N00301003601CN0112001N1+00501+00401999999ADDGA1071+003609059MA1101491999999REMMET006NOSIG%EQDQ01+000000PRSWM2
0087065900999991974010621004+49633+006200FM-12+0378ELLX V0202301N00311003601CN0150001N9+00501+00401101611ADDAY121999GA1071+003609059GF107991071051004501999999MD1210101+9999MW1021REMSYN00587  2
0068065900999991974010621204+49633+006200FM-15+0378ELLX V0202201N00361001801CN0112001N1+00501+00301999999ADDGA1071+001809079MA1101491999999REMMET006NOSIG%EQDQ01+000000PRSWM2
0068065900999991974010622204+49633+006200FM-15+0378ELLX V0202201N00301220001CN0090001N1+00401+00301999999ADDGA1041+001809079MA1101491999999REMMET006NOSIG%EQDQ01+000000PRSWM2
0073065900999991974010622504+49633+006200FM-15+0378ELLX V0202201N00201001801CN0070001N1+00301+00201999999ADDGA1061+001809079MA1101491999999REMMET011GRADU 3000%EQDQ01+000000PRSWM2
0087065900999991974010623004+49633+006200FM-12+0378ELLX V0202201N00211001801CN0070001N9+00301+00201101681ADDAY121999GA1061+001809079GF106991061061002501001001MD1210081+9999MW1021REMSYN00586706
0073065900999991974010623204+49633+006200FM-15+0378ELLX V0202101N00201001801CN0040001N1+00301+00301999999ADDGA1061+001809079MA1101491999999REMMET011GRADU 2000%EQDQ01+000000PRSWM2
0150065900999991974010700004+49633+006200SY-MT+0378ELLX V0202001N00211001801CN0035001N1+00301+00301101681ADDAA199000091AY121999GA1061+001809079GF106991061061002501001001MA1101491999999MD1110041+9999MW1101REMSYN011700// 86706MET006NOSIG%EQDQ01+000000PRSWM2
0068065900999991974010700204+49633+006200FM-15+0378ELLX V0202001N00151001801CN0030001N1+00301+00301999999ADDGA1051+001809079MA1101491999999REMMET006NOSIG%EQDQ01+000000PRSWM2
0068065900999991974010700504+49633+006200FM-15+0378ELLX V0201901N00201001501CN0025001N1+00301+00201999999ADDGA1051+001509079MA1101491999999REMMET006NOSIG%EQDQ01+000000PRSWM2
0087065900999991974010701504+49633+006200FM-15+0378ELLX V0201901N00201001501CN0024001N1+00301+00301999999ADDGA1051+001509079GA2031+003609089GA3071+007509059MA1101491999999MW1801REMMET006NOSIG%
0131065900999991974010702004+49633+006200FM-12+0378ELLX V0201901N00211001501CN0024001N9+00301+00301101691ADDAY121999GA1051+001509079GA2031+003609089GA3071+007509059GF107991071081001501999999MD1210011+9999MW1801REMSYN01785705 83812 87  5
0055065900999991974010702204+49633+006200FM-15+0378ELLX V0201901N00201000901CN0010001N1+00301+00301999999ADDGA1071+000909079MA1101491999999MW1251REMMET006NOSIG%
0084065900999991974010702504+49633+006200FM-15+0378ELLX V0201901N00301003601CN0022001N1+00301+00301999999ADDGA1051+003609059GA2061+030009039MA1101491999999REMMET006NOSIG%EQDQ01+000000PRSWM2
0109065900999991974010703004+49633+006200FM-12+0378ELLX V0201901N00311003601CN0022001N9+00301+00301101661ADDAY121999GA1051+003609059GA2061+030009039GF107991051051004501031999MD1710021+9999MW1251REMSYN01185  2 86360
0084065900999991974010703204+49633+006200FM-15+0378ELLX V0202001N00251003601CN0024001N1+00301+00301999999ADDGA1051+003609059GA2061+030009039MA1101491999999REMMET006NOSIG%EQDQ01+000000PRSWM2
0072065900999991974010703504+49633+006200FM-15+0378ELLX V0201801N00201220001CN0025001N1+99999+99999999999ADDGA1031+003909059REMMET0257ACBQPP PEXPE QPQT NOSIG%EQDQ01+000000PRSWM2
0084065900999991974010704204+49633+006200FM-15+0378ELLX V0201801N00151030001CN0025001N1+00301+00301999999ADDGA1031+004509059GA2071+030009039MA1101491999999REMMET006NOSIG%EQDQ01+000000PRSWM2
0109065900999991974010705004+49633+006200FM-12+0378ELLX V0201601N00211030001CN0028001N9+00201+00201101681ADDAY121999GA1031+004509059GA2071+030009039GF107991031051004501021999MD1710031+9999MW1101REMSYN01183  5 87360
0084065900999991974010705204+49633+006200FM-15+0378ELLX V0201501N00201030001CN0030001N1+00201+00201999999ADDGA1031+004509059GA2071+030009039MA1101491999999REMMET006NOSIG%EQDQ01+000000PRSWM2
0084065900999991974010705504+49633+006200FM-15+0378ELLX V0201501N00151030001CN0040001N1+00201+00201999999ADDGA1031+004509059GA2071+030009039MA1101491999999REMMET006NOSIG%EQDQ01+000000PRSWM2
0139065900999991974010706004+49633+006200FM-12+0378ELLX V0201501N00151030001CN0040001N9+00201+00201101671ADDAA199000291AY181999GA1031+004509059GA2071+030009039GF107991031051004501031021KA1999N+00201MD1810021+9999MW1101REMSYN01779202 83  5 87360
0071065900999991974010706504+49633+006200FM-15+0378ELLX V0201701N00151030001CN0060001N1+00301+00201999999ADDGA1021+003909059GA2071+030009039MA1101391999999MW1601REMMET006NOSIG%
0131065900999991974010707004+49633+006200FM-12+0378ELLX V0201701N00151030001CN0060001N9+00301+00201101631ADDAY121999GA1021+003909059GA2051+030009039GA3071+036009049GF107991021051004501071999MD1710051+9999MW1601REMSYN01782  3 85360 87462
0055065900999991974010707204+49633+006200FM-15+0378ELLX V0201601N00301024001CN0040001N1+00201+00201999999ADDGA1071+024009039MA1101391999999MW1211REMMET006NOSIG%
0087065900999991974010708004+49633+006200FM-12+0378ELLX V0201701N00311024001CN0040001N9+00301+00201101511ADDAY121999GA1071+024009039GF107991071001999999031999MD1810151+9999MW1211REMSYN00587358
0068065900999991974010708204+49633+006200FM-15+0378ELLX V0201801N00361024001CN0060001N1+00301+00201999999ADDGA1061+024009039MA1101291999999REMMET006NOSIG%EQDQ01+000000PRSWM2
0068065900999991974010708504+49633+006200FM-15+0378ELLX V0201901N00411024001CN0070001N1+00301+00201999999ADDGA1071+024009039MA1101391999999REMMET006NOSIG%EQDQ01+000000PRSWM2
0087065900999991974010709004+49633+006200FM-12+0378ELLX V0201901N00411024001CN0070001N9+00301+00201101571ADDAY161999GA1071+024009039GF107991071001999999031999MD1510071+9999MW1021REMSYN00587358
0068065900999991974010709204+49633+006200FM-15+0378ELLX V0201801N00411024001CN0080001N1+00301+00201999999ADDGA1071+024009039MA1101391999999REMMET006NOSIG%EQDQ01+000000PRSWM2
0068065900999991974010709504+49633+006200FM-15+0378ELLX V0201701N00361024001CN0090001N1+00301+00201999999ADDGA1071+024009039MA1101291999999REMMET006NOSIG%EQDQ01+000000PRSWM2
0087065900999991974010710004+49633+006200FM-12+0378ELLX V0201701N00361024001CN0090001N9+00301+00201101531ADDAY121999GA1071+024009039GF107991071001999999031999MD1710081+9999MW1021REMSYN00587358
0052065900999991974010710204+49633+006200FM-15+0378ELLX V0201501N00301999991CY0099001N1+00401+00301999999ADDMA1101291999999REMMET006NOSIG%EQDQ01+000000PRSWM2
0052065900999991974010710504+49633+006200FM-15+0378ELLX V0201701N00411999991CY0099001N1+00501+00201999999ADDMA1101291999999REMMET006NOSIG%EQDQ01+000000PRSWM2
0109065900999991974010711004+49633+006200FM-12+0378ELLX V0201701N00411024001CN0140001N9+00501+00201101471ADDAY121999GA1061+024009039GA2071+060009009GF107991061001999999031021MD1810011+9999MW1021REMSYN01186358 87070
0052065900999991974010711204+49633+006200FM-15+0378ELLX V0201801N00361999991CY0099001N1+00401+00201999999ADDMA1101291999999REMMET006NOSIG%EQDQ01+000000PRSWM2
0055065900999991974010711504+49633+006200FM-15+0378ELLX V0202001N00301024001CN0112001N1+00501+00201999999ADDGA1081+024009039MA1101191999999MW1601REMMET006NOSIG%
0156065900999991974010712004+49633+006200FM-12+0378ELLX V0202001N00311024001CN0120001N9+00501+00201101401ADDAA106999999AA299999929AY161999GA1061+024009039GA2081+030009049GF108991081001999999031999MD1810131+9999MW1601REMSYN017797// 86358 88460EQDQ01  00002PRCP06
0055065900999991974010712204+49633+006200FM-15+0378ELLX V0201801N00511024001CN0090001N1+00501+00201999999ADDGA1081+024009039MA1101191999999MW1211REMMET006NOSIG%
0055065900999991974010712504+49633+006200FM-15+0378ELLX V0201901N00411024001CN0080001N1+00401+00201999999ADDGA1081+024009039MA1101081999999MW1601REMMET006NOSIG%
0109065900999991974010713004+49633+006200FM-12+0378ELLX V0201901N00411024001CN0080001N9+00401+00201101311ADDAY121999GA1061+024009039GA2081+030009049GF108991081001999999031999MD1610111+9999MW1601REMSYN01186358 88460
0055065900999991974010713204+49633+006200FM-15+0378ELLX V0202001N00611015001CN0112001N1+00501+00201999999ADDGA1071+015009059MA1101081999999MW1211REMMET006NOSIG%
0084065900999991974010713504+49633+006200FM-15+0378ELLX V0201801N00561006901CN0090001N1+00401+00201999999ADDGA1061+006909059GA2081+030009049MA1101021999999REMMET006NOSIG%EQDQ01+000000PRSWM2
0109065900999991974010714004+49633+006200FM-12+0378ELLX V0201801N00571006901CN0090001N9+00401+00201101171ADDAY121999GA1061+006909059GA2081+030009049GF108991061051008001071999MD1810291+9999MW1211REMSYN01186  3 88460
0084065900999991974010714204+49633+006200FM-15+0378ELLX V0201901N00511006001CN0080001N1+00401+00201999999ADDGA1061+006009059GA2081+030009049MA1101021999999REMMET006NOSIG%EQDQ01+000000PRSWM2
0084065900999991974010714504+49633+006200FM-15+0378ELLX V0202001N00511004801CN0060001N1+00401+00201999999ADDGA1061+004809059GA2081+030009049MA1101021999999REMMET006NOSIG%EQDQ01+000000PRSWM2
0109065900999991974010715004+49633+006200FM-12+0378ELLX V0202001N00511004801CN0060001N9+00401+00201101171ADDAY161999GA1061+004809059GA2081+030009049GF108991061051004501071999MD1610241+9999MW1021REMSYN01186  6 88460
0055065900999991974010715204+49633+006200FM-15+0378ELLX V0201801N00611003901CN0060001N1+00401+00201999999ADDGA1071+003909059MA1101021999999MW1581REMMET006NOSIG%
0055065900999991974010715504+49633+006200FM-15+0378ELLX V0202201N00411001801CN0025001N1+00401+00301999999ADDGA1071+001809079MA1101021999999MW1621REMMET006NOSIG%
0087065900999991974010716004+49633+006200FM-12+0378ELLX V0202201N00411001801CN0025001N9+00401+00301101181ADDAY121999GA1071+001809079GF108991071071001501999999MD1510151+9999MW1621REMSYN00587706
0055065900999991974010716204+49633+006200FM-15+0378ELLX V0202101N00511001201CN0020001N1+00401+00301999999ADDGA1071+001209079MA1101021999999MW1621REMMET006NOSIG%
0072065900999991974010716504+49633+006200FM-15+0378ELLX V0202801N00771006001CN0112001N1+00501+00401999999ADDGA1041+001809079GA2071+006009059MA1101081999999MW1211REMMET007NOQSIG%
0071065900999991974010717204+49633+006200FM-15+0378ELLX V0202701N00511006001CN0112001N1+00501+00401999999ADDGA1021+002409079GA2061+006009059MA1101081999999MW1211REMMET006NOSIG%
0068065900999991974010717504+49633+006200FM-15+0378ELLX V0202601N00511012001CN0112001N1+00501+00301999999ADDGA1051+012009059MA1101081999999REMMET006NOSIG%EQDQ01+000000PRSWM2
0117065900999991974010718004+49633+006200FM-12+0378ELLX V0202601N00511012001CN0180001N9+00501+00301101261ADDAA199004091AY161999GA1051+012009059GF106991051051012501001021KA1999M+00501MD1210101+9999MW1011REMSYN01170405 85640
0084065900999991974010718504+49633+006200FM-15+0378ELLX V0202801N00661003001CN0112001N1+00501+00301999999ADDGA1051+003009079GA2061+012009059MA1101191999999REMMET006NOSIG%EQDQ01+000000PRSWM2
0109065900999991974010719004+49633+006200FM-12+0378ELLX V0202801N00671003001CN0180001N9+00501+00301101361ADDAY121999GA1051+003009079GA2061+012009059GF107991061051004501999999MD1210201+9999MW1031REMSYN01185710 86640
0100065900999991974010719204+49633+006200FM-15+0378ELLX V0202801N00511005401CN0112001N1+00501+00301999999ADDGA1031+003309079GA2061+005409089GA3061+012009059MA1101291999999REMMET006NOSIG%EQDQ01+000000PRSWM2
0100065900999991974010719504+49633+006200FM-15+0378ELLX V0202701N00461004801CN0112001N1+00501+00401999999ADDGA1031+003309079GA2051+004809089GA3051+012009059MA1101291999999REMMET006NOSIG%EQDQ01+000000PRSWM2
0131065900999991974010720004+49633+006200FM-12+0378ELLX V0202701N00461004801CN0150001N9+00501+00401101431ADDAY121999GA1031+003309079GA2051+004809089GA3051+012009059GF107991071081004501999999MD1310161+9999MW1021REMSYN01783711 85816 85640
0084065900999991974010720204+49633+006200FM-15+0378ELLX V0202701N00461012001CN0112001N1+00501+00401999999ADDGA1041+002709079GA2051+012009059MA1101391999999REMMET006NOSIG%EQDQ01+000000PRSWM2
0084065900999991974010720504+49633+006200FM-15+0378ELLX V0202701N00661220001CN0112001N1+00501+00301999999ADDGA1011+003609089GA2031+012009059MA1101391999999REMMET006NOSIG%EQDQ01+000000PRSWM2
0109065900999991974010721004+49633+006200FM-12+0378ELLX V0202701N00671220001CN0150001N9+00501+00301101551ADDAY121999GA1011+003609089GA2031+012009059GF103991031081004501001001MD1210271+9999MW1011REMSYN01181812 83640
0052065900999991974010721204+49633+006200FM-15+0378ELLX V0202601N00461999991CY0099001N1+00401+00301999999ADDMA1101491999999REMMET006NOSIG%EQDQ01+000000PRSWM2
0068065900999991974010721504+49633+006200FM-15+0378ELLX V0202401N00411220001CN0112001N1+00401+00301999999ADDGA1031+012009059MA1101491999999REMMET006NOSIG%EQDQ01+000000PRSWM2
0087065900999991974010722004+49633+006200FM-12+0378ELLX V0202401N00411220001CN0120001N9+00401+00301101671ADDAY101999GA1031+012009059GF103991031051012501001001MD1310281+9999MW1021REMSYN00583640
0071065900999991974010722204+49633+006200FM-15+0378ELLX V0202501N00461002401CN0080001N1+00401+00301999999ADDGA1051+002409079GA2061+004509059MA1101491999999MW1251REMMET006NOSIG%
0087065900999991974010722504+49633+006200FM-15+0378ELLX V0203001N00301001801CN0040001N1+00401+00301999999ADDGA1051+001809079GA2041+003609099GA3071+009909059MA1101591999999MW1811REMMET006NOSIG%
0131065900999991974010723004+49633+006200FM-12+0378ELLX V0203001N00311001801CN0040001N9+00401+00301101741ADDAY111999GA1051+001809079GA2041+003609099GA3071+009909059GF108991081091002501999999MD1210281+9999MW1811REMSYN01785706 84912 87  3
0055065900999991974010723504+49633+006200FM-15+0378ELLX V0202801N00611006001CN0080001N1+00401+00301999999ADDGA1061+006009059MA1101591999999MW1251REMMET006NOSIG%
0123065900999991974010800004+49633+006200FM-12+0378ELLX V0202801N00621006001CN0080001N9+00401+00301101811ADDAA106003091AY191999GA1061+006009059GF106991061051008001001001MD1210241+9999MW1251REMSYN011703// 86  0EQDQ01  00303PRCP99
0071065900999991974010800204+49633+006200FM-15+0378ELLX V0202801N00511007501CN0080001N1+00401+00301999999ADDGA1021+003609089GA2071+007509059MA1101591999999MW1801REMMET006NOSIG%
0071065900999991974010800504+49633+006200FM-15+0378ELLX V0202801N00611007501CN0090001N1+00401+00301999999ADDGA1031+004509089GA2071+007509059MA1101691999999MW1251REMMET006NOSIG%
0109065900999991974010801004+49633+006200FM-12+0378ELLX V0202801N00621007501CN0090001N9+00401+00301101841ADDAY121999GA1031+004509089GA2071+007509059GF107991071081004501999999MD1110171+9999MW1251REMSYN01183815 87  5
0084065900999991974010801204+49633+006200FM-15+0378ELLX V0202801N00611007501CN0090001N1+00401+00301999999ADDGA1021+004509089GA2071+007509059MA1101691999999REMMET006NOSIG%EQDQ01+000000PRSWM2
0084065900999991974010801504+49633+006200FM-15+0378ELLX V0202701N00721007501CN0112001N1+00401+00301999999ADDGA1031+003609089GA2071+007509059MA1101691999999REMMET006NOSIG%EQDQ01+000000PRSWM2
0109065900999991974010802004+49633+006200FM-12+0378ELLX V0202701N00721007501CN0100001N9+00401+00301101901ADDAY121999GA1031+003609089GA2071+007509059GF107991071081002501999999MD1210161+9999MW1021REMSYN01183812 87  5
0084065900999991974010802204+49633+006200FM-15+0378ELLX V0202701N00661007501CN0112001N1+00401+00301999999ADDGA1041+003909089GA2071+007509059MA1101801999999REMMET006NOSIG%EQDQ01+000000PRSWM2
0084065900999991974010802504+49633+006200FM-15+0378ELLX V0202801N00611007501CN0112001N1+00401+00301999999ADDGA1031+003609089GA2071+007509059MA1101801999999REMMET006NOSIG%EQDQ01+000000PRSWM2
0085065900999991974010803504+49633+006200FM-15+0378ELLX V0202801N00511007501CN0112001N1+00401+00301999999ADDGA1021+003609089GA2061+007509059MA1102001999999REMMET007NOSIG %EQDQ01+000000PRSWM2
0109065900999991974010804004+49633+006200FM-12+0378ELLX V0202801N00511007501CN0120001N9+00401+00301102031ADDAY121999GA1021+003609089GA2061+007509059GF106991061081002501999999MD1210171+9999MW1011REMSYN01182812 86  5
0085065900999991974010804204+49633+006200FM-15+0378ELLX V0202701N00361007501CN0112001N1+00301+00201999999ADDGA1021+003909089GA2061+007509059MA1101901999999REMMET007NOSIG %EQDQ01+000000PRSWM2
0085065900999991974010804504+49633+006200FM-15+0378ELLX V0202701N00461007501CN0112001N1+00301+00201999999ADDGA1021+003609089GA2061+007509059MA1101901999999REMMET007NOSIG %EQDQ01+000000PRSWM2
0085065900999991974010805204+49633+006200FM-15+0378ELLX V0202701N00461007501CN0112001N1+00301+00201999999ADDGA1021+003609089GA2061+007509059MA1101901999999REMMET007NOSIG %EQDQ01+000000PRSWM2
0084065900999991974010805504+49633+006200FM-15+0378ELLX V0202701N00361006001CN0112001N1+00401+00301999999ADDGA1021+003609089GA2071+006009059MA1101901999999REMMET006NOSIG%EQDQ01+000000PRSWM2
0139065900999991974010806004+49633+006200FM-12+0378ELLX V0202701N00621006001CN0120001N9+00401+00301102061ADDAA199003091AY181999GA1021+003609089GA2071+006009059GF107991071081002501999999KA1999N+00301MD1110081+9999MW1031REMSYN01770303 82812 87  0
0084065900999991974010806204+49633+006200FM-15+0378ELLX V0202201N00201007501CN0112001N1+00301+00201999999ADDGA1031+004509089GA2061+007509059MA1101901999999REMMET006NOSIG%EQDQ01+000000PRSWM2
0084065900999991974010806504+49633+006200FM-15+0378ELLX V0202201N00251007501CN0112001N1+00301+00201999999ADDGA1031+004509089GA2061+007509059MA1101901999999REMMET006NOSIG%EQDQ01+000000PRSWM2
0109065900999991974010807004+49633+006200FM-12+0378ELLX V0202201N00261007501CN0100001N9+00301+00201102051ADDAY121999GA1031+004509089GA2061+007509059GF107991071081004501999999MD1010011+9999MW1021REMSYN01183815 86  5
0084065900999991974010807204+49633+006200FM-15+0378ELLX V0209999999999004501CN0060001N1+00201+00201999999ADDGA1021+000909079GA2061+004509059MA1101801999999REMMET006NOSIG%EQDQ01+000000PRSWM2
0084065900999991974010807504+49633+006200FM-15+0378ELLX V0202201N00411004501CN0060001N1+00201+00201999999ADDGA1021+000909079GA2061+004509059MA1101801999999REMMET006NOSIG%EQDQ01+000000PRSWM2
0109065900999991974010808004+49633+006200FM-12+0378ELLX V0202201N00411000901CN0040001N9+00301+00201102061ADDAY121999GA1051+000909079GA2071+004509059GF107991071051001501999999MD1010001+9999MW1101REMSYN01185703 87  5
0040065900999991974010808204+49633+006200FM-15+0378ELLX V0202201N00411000601CN0003001N1+00201+00201999999ADDGA1081+000609079MA1101901999999MW1461
0040065900999991974010808504+49633+006200FM-15+0378ELLX V0202201N00411000301CN0002001N1+00201+00201999999ADDGA1081+000309079MA1101901999999MW1461
0040065900999991974010809204+49633+006200FM-15+0378ELLX V0202401N00361000301CN0002001N1+00301+00301999999ADDGA1081+000309079MA1101901999999MW1441
0068065900999991974010809504+49633+006200FM-15+0378ELLX V0202301N00461001201CN0025001N1+00301+00301999999ADDGA1081+001209079MA1101801999999REMMET006NOSIG%EQDQ01+000000PRSWM2
0084065900999991974010810204+49633+006200FM-15+0378ELLX V0202301N00361004501CN0080001N1+00401+00401999999ADDGA1031+002109079GA2061+004509059MA1101801999999REMMET006NOSIG%EQDQ01+000000PRSWM2
0084065900999991974010810504+49633+006200FM-15+0378ELLX V0202301N00411004501CN0112001N1+00401+00301999999ADDGA1031+002109079GA2061+004509059MA1101691999999REMMET006NOSIG%EQDQ01+000000PRSWM2
0109065900999991974010811004+49633+006200FM-12+0378ELLX V0202301N00411004501CN0150001N9+00401+00301101891ADDAY121999GA1031+002109079GA2061+004509059GF107991071051002501999999MD1810141+9999MW1011REMSYN01183707 86  5
0084065900999991974010811204+49633+006200FM-15+0378ELLX V0202101N00301060001CN0112001N1+00501+00301999999ADDGA1031+002409079GA2071+060009029MA1101591999999REMMET006NOSIG%EQDQ01+000000PRSWM2
0084065900999991974010811504+49633+006200FM-15+0378ELLX V0202001N00251060001CN0112001N1+00501+00301999999ADDGA1021+003009079GA2061+060009029MA1101591999999REMMET006NOSIG%EQDQ01+000000PRSWM2
0109065900999991974010812004+49633+006200FM-12+0378ELLX V0202001N00261060001CN0150001N9+00501+00301101771ADDAY141999GA1021+003009079GA2061+060009029GF107991021061004501001061MD1810251+9999MW1021REMSYN01182710 86270
0084065900999991974010812504+49633+006200FM-15+0378ELLX V0201701N00301030001CN0040001N1+00501+00301999999ADDGA1051+030009039GA2071+060009029MA1101491999999REMMET006NOSIG%EQDQ01+000000PRSWM2
0109065900999991974010813004+49633+006200FM-12+0378ELLX V0201701N00311030001CN0040001N9+00501+00301101621ADDAY121999GA1051+030009049GA2071+060009029GF107991051001999999071061MD1810351+9999MW1101REMSYN01185460 87270
0100065900999991974010813204+49633+006200FM-15+0378ELLX V0201701N00301030001CN0060001N1+00501+00301999999ADDGA1011+004509059GA2051+030009039GA3071+060009029MA1101391999999REMMET006NOSIO%EQDQ01+000000PRSWM2
0084065900999991974010813504+49633+006200FM-15+0378ELLX V0201401N00361030001CN0070001N1+00501+00301999999ADDGA1011+004509059GA2071+030009039MA1101291999999REMMET006NOSIG%EQDQ01+000000PRSWM2
0131065900999991974010814004+49633+006200FM-12+0378ELLX V0201401N00361033001CN0070001N9+00501+00301101491ADDAY121999GA1011+004509059GA2031+030009039GA3071+033009049GF107991011051004501071999MD1710361+9999MW1021REMSYN01781  5 83360 87461
0084065900999991974010814204+49633+006200FM-15+0378ELLX V0201801N00361030001CN0112001N1+00501+00301999999ADDGA1031+004509059GA2071+030009039MA1101291999999REMMET006NOSIG%EQDQ01+000000PRSWM2
0100065900999991974010814504+49633+006200FM-15+0378ELLX V0201701N00461030001CN0112001N1+00501+00301999999ADDGA1041+004509059GA2031+030009039GA3081+033009049MA1101191999999REMMET006NOSIG%EQDQ01+000000PRSWM2
0131065900999991974010815004+49633+006200FM-12+0378ELLX V0201701N00461030001CN0120001N9+00501+00301101401ADDAY121999GA1041+004509059GA2031+030009039GA3081+033009049GF108991041051004501071999MD1710361+9999MW1031REMSYN01784  5 83360 88461
0100065900999991974010815204+49633+006200FM-15+0378ELLX V0201701N00511030001CN0112001N1+00501+00301999999ADDGA1041+004509059GA2031+030009039GA3081+033009049MA1101191999999REMMET006NOSIG%EQDQ01+000000PRSWM2
0100065900999991974010815504+49633+006200FM-15+0378ELLX V0201401N00361030001CN0112001N1+00401+00301999999ADDGA1031+004509059GA2041+030009039GA3081+033009049MA1101081999999REMMET006NOSIG%EQDQ01+000000PRSWM2
0131065900999991974010816004+49633+006200FM-12+0378ELLX V0201401N00361030001CN0150001N9+00401+00301101271ADDAY121999GA1031+004509059GA2041+030009039GA3081+033009049GF108991031051004501071999MD1710341+9999MW1021REMSYN01783  5 84360 88461
0100065900999991974010816204+49633+006200FM-15+0378ELLX V0201401N00361027001CN0112001N1+00401+00301999999ADDGA1011+004509059GA2071+027009039GA3081+030009049MA1101081999999REMMET006NOSIG%EQDQ01+000000PRSWM2
0100065900999991974010816504+49633+006200FM-15+0378ELLX V0201301N00461027001CN0112001N1+00401+00301999999ADDGA1021+004509059GA2061+027009039GA3081+030009049MA1101021999999REMMET006NOSIG%EQDQ01+000000PRSWM2
0131065900999991974010817004+49633+006200FM-12+0378ELLX V0201301N00461027001CN0150001N9+00401+00301101131ADDAY121999GA1021+004509059GA2061+027009039GA3081+030009049GF108991021051004501071999MD1710361+9999MW1021REMSYN01782  5 86359 88460
0100065900999991974010817204+49633+006200FM-15+0378ELLX V0201601N00511027001CN0112001N1+00401+00201999999ADDGA1021+004509059GA2071+027009039GA3081+030009049MA1101021999999REMMET006NOSIG%EQDQ01+000000PRSWM2
0100065900999991974010817504+49633+006200FM-15+0378ELLX V0201701N00511027001CN0112001N1+00501+00101999999ADDGA1021+006009059GA2071+027009039GA3081+030009049MA1101021999999REMMET006NOSIG%EQDQ01+000000PRSWM2
0161065900999991974010818004+49633+006200FM-12+0378ELLX V0201701N00511027001CN0150001N9+00501+00101101121ADDAA199000091AY121999GA1021+006009059GA2071+027009039GA3081+030009049GF108991021051008001071999KA1999M+00501MD1610271+9999MW1021REMSYN02370005 82  0 87359 88460
0087065900999991974010818204+49633+006200FM-15+0378ELLX V0201801N00511027001CN0080001N1+00401+00101999999ADDGA1031+006009059GA2071+027009039GA3081+030009049MA1100911999999MW1601REMMET006NOSIG%
0041065900999991974010818504+49633+006200FM-15+0378ELLX V0201601N00461006901CN0080001N1+00401+00201999999ADDGA1051+006909059GA2081+030009049MW1601
0109065900999991974010819004+49633+006200FM-12+0378ELLX V0201601N00461006901CN0080001N9+00401+00201101051ADDAY121999GA1051+006909059GA2081+030009049GF108991051051008001021999MD1710211+9999MW1601REMSYN01185  3 88460
0062065900999991974010819204+49633+006200FM-15+0378ELLX V0201701N00461004801CN0112001N1+00401+00201999999ADDGA1071+004809059MA1100811999999MW1611REMMET013GRADU 6ST008%
0062065900999991974010819504+49633+006200FM-15+0378ELLX V0201801N00511004501CN0112001N1+00401+00201999999ADDGA1071+004509059MA1100811999999MW1611REMMET013GRADU 6ST008%
0087065900999991974010820004+49633+006200FM-12+0378ELLX V0201801N00511004501CN0100001N9+00401+00201100961ADDAY161999GA1071+004509059GF108991071051004501999999MD1810171+9999MW1611REMSYN00587  5
0087065900999991974010820204+49633+006200FM-15+0378ELLX V0201801N00511002101CN0035001N1+00401+00301999999ADDGA1061+002109079GA2071+003909059GA3081+030009049MA1100811999999MW1611REMMET006NOSIG%
0109065900999991974010821004+49633+006200FM-12+0378ELLX V0202001N00511001201CN0025001N9+00401+00301100931ADDAY161999GA1071+001209079GA2081+030009049GF108991071071001501081999MD1610191+9999MW1611REMSYN01187704 88460
0071065900999991974010821204+49633+006200FM-15+0378ELLX V0202201N00411000601CN0020001N1+00401+00401999999ADDGA1071+000609079GA2081+030009049MA1100811999999MW1211REMMET006NOSIG%
0071065900999991974010821504+49633+006200FM-15+0378ELLX V0202301N00561001201CN0025001N1+00501+00401999999ADDGA1071+001209079GA2081+030009049MA1100811999999MW1601REMMET006NOSIG%
0109065900999991974010822004+49633+006200FM-12+0378ELLX V0202301N00571001201CN0025001N9+00501+00401100941ADDAY161999GA1071+001209079GA2081+030009049GF108991071071001501081999MD1510101+9999MW1601REMSYN01187704 88460
0055065900999991974010822504+49633+006200FM-15+0378ELLX V0202501N00411001501CN0112001N1+00501+00501999999ADDGA1071+001509079MA1100911999999MW1631REMMET006NOSIG%
0071065900999991974010823204+49633+006200FM-15+0378ELLX V0202701N00301003901CN0112001N1+00501+00401999999ADDGA1041+001509079GA2061+003909089MA1100911999999MW1251REMMET006NOSIG%
0071065900999991974010823504+49633+006200FM-15+0378ELLX V0202701N00411003901CN0112001N1+00501+00401999999ADDGA1051+003909089GA2031+012009059MA1100911999999MW1251REMMET006NOSIG%
0145065900999991974010900004+49633+006200FM-12+0378ELLX V0202701N00411003901CN0120001N9+00501+00401101081ADDAA106002091AY161999GA1051+003909089GA2031+012009059GF107991071081004501999999MD1110161+9999MW1251REMSYN017702// 85813 83640EQDQ01  00203PRCP99
0100065900999991974010900204+49633+006200FM-15+0378ELLX V0202701N00511004501CN0112001N1+00501+00401999999ADDGA1021+002109079GA2051+004509089GA3051+012009059MA1100911999999REMMET006NOSIG%EQDQ01+000000PRSWM2
0109065900999991974010901004+49633+006200FM-12+0378ELLX V0202701N00511220001CN0120001N9+00501+00401101101ADDAY111999GA1011+001209079GA2031+007509059GF104991041081001501001001MD1110061+9999MW1011REMSYN01181704 83  5
0068065900999991974010901204+49633+006200FM-15+0378ELLX V0202701N00461220001CN0112001N1+00401+00301999999ADDGA1011+003909089MA1101021999999REMMET006NOSIG%EQDQ01+000000PRSWM2
0068065900999991974010901504+49633+006200FM-15+0378ELLX V0202801N00251220001CN0112001N1+00301+00301999999ADDGA1021+003909089MA1101021999999REMMET006NOSIG%EQDQ01+000000PRSWM2
0087065900999991974010902004+49633+006200FM-12+0378ELLX V0202801N00261220001CN0120001N9+00301+00301101201ADDAY101999GA1021+003909089GF103991031081004501001001MD1310151+9999MW1011REMSYN00582813
0068065900999991974010902204+49633+006200FM-15+0378ELLX V0202701N00301220001CN0112001N1+00301+00201999999ADDGA1011+002409079MA1101021999999REMMET006NOSIG%EQDQ01+000000PRSWM2
0068065900999991974010902504+49633+006200FM-15+0378ELLX V0202701N00251220001CN0112001N1+00201+00201999999ADDGA1011+003909089MA1101081999999REMMET006NOSIG%EQDQ01+000000PRSWM2
0087065900999991974010903004+49633+006200FM-12+0378ELLX V0202701N00261220001CN0100001N9+00201+00201101281ADDAY111999GA1011+003909089GF102991021081004501001001MD1210151+9999MW1011REMSYN00581813
0068065900999991974010903204+49633+006200FM-15+0378ELLX V0202701N00201220001CN0112001N1+00201+00201999999ADDGA1011+003909089MA1101081999999REMMET006NOSIG%EQDQ01+000000PRSWM2
0068065900999991974010903504+49633+006200FM-15+0378ELLX V0202701N00151220001CN0112001N1+00201+00201999999ADDGA1011+004509089MA1101021999999REMMET006NOSIG%EQDQ01+000000PRSWM2
0095065900999991974010904204+49633+006200FM-15+0378ELLX V0202701N00101220001CN0040001N1+00201+00201999999ADDGA1011+004509089GA2031+060009009MA1101021999999MW1111REMMET030GRADU 2KM        ?     7ST004%
0078065900999991974010904504+49633+006200FM-15+0378ELLX V0202001N00151012001CN0020001N1+00001+00001999999ADDGA1021+004509089GA2071+012009059MA1100911999999MW1111REMMET013TEMPO 7ST004%
0109065900999991974010905004+49633+006200FM-12+0378ELLX V0202001N00151012001CN0020001N9+00001+00001101161ADDAY111999GA1021+004509089GA2071+012009059GF107991071081004501999999MD1710081+9999MW1111REMSYN01182815 87640
0068065900999991974010905204+49633+006200FM-15+0378ELLX V0202001N00201220001CN0010001N1+00101+00101999999ADDGA1021+004509089MA1100911999999MW1111REMMET019SW 1KM TEMPO 7ST004
0075065900999991974010905504+49633+006200FM-15+0378ELLX V0202201N00201003601CN0040001N1+00201+00101999999ADDGA1061+003609089MA1100911999999REMMET013TEMPO 7ST004%EQDQ01+000000PRSWM2
0117065900999991974010906004+49633+006200FM-12+0378ELLX V0202201N00211003601CN0040001N9+00201+00101101141ADDAA199002091AY111999GA1061+003609089GF107991071081004501999999KA1999N+00001MD1610151+9999MW1101REMSYN01170200 86812
0068065900999991974010906204+49633+006200FM-15+0378ELLX V0202001N00201002701CN0030001N1+00101+00101999999ADDGA1071+002709079MA1100911999999REMMET006NOSIG%EQDQ01+000000PRSWM2
0084065900999991974010906504+49633+006200FM-15+0378ELLX V0201901N00151012001CN0030001N1+00201+00101999999ADDGA1041+003609089GA2071+012009059MA1100811999999REMMET006NOSIG%EQDQ01+000000PRSWM2
0109065900999991974010907004+49633+006200FM-12+0378ELLX V0201901N00151012001CN0030001N9+00201+00101101051ADDAY121999GA1041+003609089GA2071+012009059GF107991071081004501999999MD1810181+9999MW1101REMSYN01184812 87640
0060065900999991974010907204+49633+006200FM-15+0378ELLX V0201301N00151000901CN0004001N1+00101+00101999999ADDGA1071+000909079MA1100811999999MW1461REMMET011GRADU 1000%
0090065900999991974010907504+49633+006200FM-15+0378ELLX V0201201N00201012001CN0011001N1+00201+00101999999ADDGA1041+003009079GA2061+012009059MA1100811999999REMMET012GRADU 3000 %EQDQ01+000000PRSWM2
0040065900999991974010908204+49633+006200FM-15+0378ELLX V0201301N00251000301CN0001001N1+00201+00201999999ADDGA1081+000309079MA1100811999999MW1461
0087065900999991974010909004+49633+006200FM-12+0378ELLX V0201101N00361000301CN0001001N9+00201+00201100961ADDAY141999GA1081+000309079GF108991081061000251999999MD1810161+9999MW1461REMSYN00588701
0060065900999991974010909204+49633+006200FM-15+0378ELLX V0201101N00301000301CN0000001N1+00201+00201999999ADDGA1081+000309079MA1100811999999MW1461REMMET011GRADU 0800%
0053065900999991974010909504+49633+006200FM-15+0378ELLX V0200901N00301000301CN0001001N1+00301+00301999999ADDGA1081+000309079MA1100711999999EQDQ01+000000PRSWM2
0087065900999991974010910004+49633+006200FM-12+0378ELLX V0200901N00311000301CN0001001N9+00301+00301100931ADDAY141999GA1081+000309079GF108991081061000251999999MD1710091+9999MW1461REMSYN00588701
0077065900999991974010911204+49633+006200FM-15+0378ELLX V0200801N00411220001CN0010001N1+99999+99999999999REMMET049SW1500 28REFG 8ST003 03/02 1006 GRADU 3000 6ST005EQDQ01+000000PRSWM2
0104065900999991974010912004+49633+006200FM-12+0378ELLX V0200801N00361000901CN0030001N9+00301+00301100731ADDAA199000091AY141999GA1081+000909079GF108991081061000751999999MD1810211+9999MW1281REMSYN011700// 88703
0084065900999991974010912204+49633+006200FM-15+0378ELLX V0200901N00411003901CN0050001N1+00401+00301999999ADDGA1041+001509079GA2071+003909059MA1100511999999REMMET006NOSIG%EQDQ01+000000PRSWM2
0084065900999991974010913204+49633+006200FM-15+0378ELLX V0201101N00461015001CN0112001N1+00501+00301999999ADDGA1021+002709079GA2071+015009059MA1100411999999REMMET006NOSIG%EQDQ01+000000PRSWM2
0106065900999991974010913504+49633+006200FM-15+0378ELLX V0201101N00461012001CN0112001N1+00501+00301999999ADDGA1011+002709079GA2061+012009059GA3071+030009039MA1100311999999REMMET012NOSIG%     (EQDQ01+000000PRSWM2
0131065900999991974010914004+49633+006200FM-12+0378ELLX V0201101N00411012001CN0120001N9+00501+00301100501ADDAY121999GA1011+002709079GA2061+012009059GA3071+030009039GF107991061051002501071999MD1710281+9999MW1031REMSYN01781709 86640 87360
0100065900999991974010914204+49633+006200FM-15+0378ELLX V0201201N00561012001CN0112001N1+00501+00301999999ADDGA1011+002709079GA2061+012009059GA3071+030009039MA1100311999999REMMET006NOSIG%EQDQ01+000000PRSWM2
0087065900999991974010914504+49633+006200FM-15+0378ELLX V0201401N00511030001CN0112001N1+00501+00301999999ADDGA1011+002709079GA2041+012009059GA3081+030009049MA1100311999999MW1601REMMET006NOSIG%
0131065900999991974010915004+49633+006200FM-12+0378ELLX V0201401N00511030001CN0100001N9+00501+00301100441ADDAY121999GA1011+002709079GA2041+012009059GA3081+030009049GF108991041051002501071999MD1610331+9999MW1601REMSYN01781709 84640 88460
0087065900999991974010915204+49633+006200FM-15+0378ELLX V0201201N00461027001CN0060001N1+00501+00301999999ADDGA1011+002709079GA2071+027009039GA3081+030009049MA1100311999999MW1611REMMET006NOSIG%
0093065900999991974010915504+49633+006200FM-15+0378ELLX V0201201N00611012001CN0050001N1+00501+00301999999ADDGA1011+002709079GA2051+012009059GA3081+030009049MA1100311999999MW1611REMMET012GRADU 5ST006
0131065900999991974010916004+49633+006200FM-12+0378ELLX V0201201N00621012001CN0050001N9+00501+00301100461ADDAY161999GA1011+002709079GA2051+012009059GA3081+030009049GF108991051051002501071999MD1510111+9999MW1611REMSYN01781709 85640 88460
0062065900999991974010916204+49633+006200FM-15+0378ELLX V0201201N00511003001CN0050001N1+00401+00301999999ADDGA1071+003009079MA1100311999999MW1611REMMET013GRADU 7ST006%
0062065900999991974010916504+49633+006200FM-15+0378ELLX V0201101N00511002401CN0045001N1+00401+00301999999ADDGA1071+002409079MA1100311999999MW1611REMMET013GRADU 7ST006%
0087065900999991974010917004+49633+006200FM-12+0378ELLX V0201101N00511002401CN0045001N9+00401+00301100501ADDAY161999GA1071+002409079GF108991071071002501999999MD1510011+9999MW1611REMSYN00587708
0071065900999991974010917204+49633+006200FM-15+0378ELLX V0201201N00461001201CN0035001N1+00401+00301999999ADDGA1061+001209079GA2071+002109079MA1100311999999MW1611REMMET006NOSIG%
0071065900999991974010917504+49633+006200FM-15+0378ELLX V0201101N00461001201CN0030001N1+00401+00301999999ADDGA1061+001209079GA2071+002109079MA1100311999999MW1611REMMET006NOSIG%
0055065900999991974010918204+49633+006200FM-15+0378ELLX V0201101N00461001801CN0040001N1+00401+00401999999ADDGA1071+001809079MA1100311999999MW1611REMMET006NOSIG%
0055065900999991974010918504+49633+006200FM-15+0378ELLX V0201201N00411001801CN0030001N1+00401+00301999999ADDGA1071+001809079MA1100311999999MW1611REMMET006NOSIG%
0087065900999991974010919004+49633+006200FM-12+0378ELLX V0201201N00151001801CN0030001N9+00401+00301100461ADDAY161999GA1071+001809079GF108991071071001501999999MD1010011+9999MW1611REMSYN00587706
0071065900999991974010919204+49633+006200FM-15+0378ELLX V0201201N00461001801CN0040001N1+00401+00301999999ADDGA1071+001809079GA2081+006009059MA1100311999999MW1611REMMET006NOSIG%
0071065900999991974010919504+49633+006200FM-15+0378ELLX V0201201N00411002101CN0030001N1+00401+00401999999ADDGA1071+002109079GA2081+006009059MA1100311999999MW1611REMMET006NOSIG%
0109065900999991974010920004+49633+006200FM-12+0378ELLX V0201201N00411002101CN0030001N9+00401+00401100481ADDAY161999GA1071+002109079GA2081+006009059GF108991081051002501999999MD1010111+9999MW1611REMSYN01187707 88  0
0055065900999991974010920204+49633+006200FM-15+0378ELLX V0201301N00361001801CN0030001N1+00501+00401999999ADDGA1071+001809079MA1100311999999MW1611REMMET006NOSIG%
0056065900999991974010920504+49633+006200FM-15+0378ELLX V0201401N00361001801CN0030001N1+00401+00401999999ADDGA1071+001809079MA1100411999999MW1611REMMET007NOSIG %
0087065900999991974010921004+49633+006200FM-12+0378ELLX V0201401N00361001801CN0030001N9+00401+00401100511ADDAY161999GA1071+001809079GF108991071071001501999999MD1310061+9999MW1611REMSYN00587706
0055065900999991974010921204+49633+006200FM-15+0378ELLX V0201401N00301001801CN0030001N1+00401+00401999999ADDGA1071+001809079MA1100411999999MW1211REMMET006NOSIG%
0056065900999991974010921504+49633+006200FM-15+0378ELLX V0201301N00201001801CN0035001N1+00401+00401999999ADDGA1071+001809079MA1100411999999MW1211REMMET007NOSIG %
0127065900999991974010922004+49633+006200SY-MT+0378ELLX V0201301N00211001801CN0035001N1+00401+00401100571ADDAY161999GA1071+001809079GF108991071071001501999999MA1100511999999MD1310111+9999MW1211MW2251REMSYN00587706MET013NOSIG % STLIB
