0117065900999991998010100004+49617+006217SY-MT+0379ELLX V0202601N001019999999N0016001N1+00651+00551101461ADDAA106001091AG10000MA1101291096911MD1210181+9999OA149900411REMSYN017 333 91108 91205;MET005NEW ;EQDQ01+000000PRSWM2
0106065900999991998010101004+49617+006217SY-MT+0379ELLX V0202501N000519999999N0027001N1+00591+00491101501ADDAG10999MA1101291096941MD1210131+9999OA149900151REMSYN017 333 91103 91202;MET005NEW ;EQDQ01+000000PRSWM2
0106065900999991998010102004+49617+006217SY-MT+0379ELLX V0202401N000519999999N0045001N1+00591+00491101571ADDAG10999MA1101391097011MD1210131+9999OA149900151REMSYN017 333 91103 91202;MET005NEW ;EQDQ01+000000PRSWM2
0106065900999991998010103004+49617+006217SY-MT+0379ELLX V0202601N001019999999N0027001N1+00591+00501101611ADDAG10000MA1101391097051MD1210141+9999OA149900151REMSYN017 333 91103 91202;MET005NEW ;EQDQ01+000000PRSWM2
0090065900999991998010104204+49617+006217FM-15+0379ELLX V0202501N00211999999CN0028001N1+00501+00401101571ADDAG10999MA1101391097001REMMET005NEW ;EQDQ01+999990APOSP Q02+999990APOSLPQ03+000000PRSWM2
0157065900999991998010105004+49617+006217SY-MT+0379ELLX V0202601N00051001201CN0120001N1+00551+00451101591ADDAG10999GA1071+001209999GF108991081061001501999999MA1101391097021MD1010011+9999OA149900151REMSYN023 333 87704 91103 91202;MET008NEW NOSIEQDQ01+000000PRSWM2
0222065900999991998010106004+49617+006217SY-MT+0379ELLX V0202301N00101001201CN0080001N1+00521+00431101661ADDAA106000091AA299001091AG10000GA1071+001209999GF108991071061001501999999IA1099IA2999+00409KA1120N+00511MA1101491097081MD1310031+9999OA149900151REMSYN035 333 20051 31004 87704 91103 91202;MET008NEW NOSIEQDQ01+000000PRSWM2
0199065900999991998010107004+49617+006217SY-MT+0379ELLX V0202201N00101000601CN0018001N1+00531+00441101681ADDAG10999AY121011AY221011GA1071+000609999GA2071+001509999GF108991071061000751999999MA1101491097101MD1310081+9999MW1101OA149900151REMSYN029 333 85702 87705 91103 91202;MET025NEW BECMG 0600 FG BKN001;
0188065900999991998010108004+49617+006217SY-MT+0379ELLX V0202401N00101000601CN0015001N1+00521+00491101711ADDAG10999AY151021AY221021GA1021+000309999GA2081+000609999GF108991081061000251999999MA1101491097131MD1210111+9999MW1101MW2281OA149900151REMSYN029 333 84701 88702 91103 91202;MET008NEW NOSI
0200065900999991998010109004+49617+006217SY-MT+0379ELLX V0202301N00101000601CN0020001N1+00531+00501101721ADDAG10000AY151031AY241031GA1071+000609999GA2081+000909999GF108991081061000751999999MA1101491097141MD1210061+9999MW1101MW2511MW3581MW4611OA149900151REMSYN029 333 87702 88704 91103 91202;MET008NEW NOSI
0200065900999991998010110004+49617+006217SY-MT+0379ELLX V0202301N00101000601CN0028001N1+00541+00511101721ADDAG10999AY161011AY261011GA1071+000609999GA2081+000909999GF108991081061000751999999MA1101491097141MD1110041+9999MW1101MW2511MW3581MW4611OA149900151REMSYN029 333 86702 88703 91103 91202;MET008NEW NOSI
0200065900999991998010111004+49617+006217SY-MT+0379ELLX V0202201N00101000901CN0030001N1+00551+00511101701ADDAG10999AY161021AY261021GA1071+000909999GA2081+003009999GF108991081051000751999999MA1101491097131MD1010001+9999MW1101MW2511MW3581MW4611OA149900211REMSYN029 333 86703 88610 91104 91202;MET008NEW NOSI
0228065900999991998010112004+49617+006217SY-MT+0379ELLX V0202401N00151002701CN0180001N1+00581+00491101631ADDAA106000391AG10000AY151061AY241061GA1071+002709999GA2071+007509999GF108991071051002501999999MA1101491097071MD1810071+9999MW1211OA149900261REMSYN029 333 85709 87625 91105 91203;MET008NEW NOSIEQDQ01+999990APOSLPQ02+000000PRSWM2
0194065900999991998010113004+49617+006217SY-MT+0379ELLX V0202401N00151006901CN0200001N1+00551+00281101591ADDAG10999AY161011AY221011GA1021+003609999GA2071+006909999GF108991071051004501999999MA1101391097021MD1710121+9999MW1511MW2581MW3611OA149900311REMSYN029 333 83612 87623 91106 91205;MET008NEW NOSI
0201065900999991998010114004+49617+006217SY-MT+0379ELLX V0202301N00151030001CN0200001N1+00521+00311101541ADDAG10999AY161021AY251021GA1021+003609999GA2071+030009999GF108991031051004501071999MA1101391096971MD1710161+9999MW1211OA149900311REMSYN029 333 83612 87360 91106 91204;MET008NEW NOSIEQDQ01+000000PRSWM2
0201065900999991998010115004+49617+006217SY-MT+0379ELLX V0202101N00151030001CN0250001N1+00491+00291101471ADDAG10001AY161031AY251031GA1021+004509999GA2071+030009999GF107991031051004501031999MA1101291096901MD1710171+9999MW1011OA149900311REMSYN029 333 83615 87360 91106 91205;MET008NEW NOSIEQDQ01+000000PRSWM2
0179065900999991998010116004+49617+006217SY-MT+0379ELLX V0202001N00151030001CN0200001N1+00461+00311101431ADDAG10999GA1021+004509999GA2071+030009999GF107991071051004501999999MA1101191096851MD1710171+9999OA149900261REMSYN029 333 83615 87360 91105 91203;MET008NEW NOSIEQDQ01+000000PRSWM2
0179065900999991998010117004+49617+006217SY-MT+0379ELLX V0201901N00211000901CN0200001N1+00451+00331101381ADDAG10999GA1071+000909999GA2071+012009999GF107991071051000751999999MA1101191096811MD1710161+9999OA149900311REMSYN029 333 85703 86640 91106 91204;MET008NEW NOSIEQDQ01+000000PRSWM2
0242065900999991998010118004+49617+006217SY-MT+0379ELLX V0201901N00211001201CN0200001N1+00441+00321101321ADDAA106000091AA299001091AG10001AY161061AY251061GA1071+001209999GA2071+012009999GF107991071051001501999999KA1120M+00591MA1101081096751MD1710151+9999MW1021OA149900361REMSYN035 333 10059 85704 87640 91107 91205;MET008NEW NOSIEQDQ01+000000PRSWM2
0210065900999991998010119004+49617+006217SY-MT+0379ELLX V0202001N00261001501CN0200001N1+00421+00301101251ADDAG10999AY161011AY221011GA1071+001509999GA2021+004509999GA3071+012009999GF107991071051001501999999MA1101081096681MD1710171+9999MW1601MW2611OA149900411REMSYN035 333 85705 84615 87640 91108 91205;MET008NEW NOSI
0223065900999991998010120004+49617+006217SY-MT+0379ELLX V0202101N00311003601CN0200001N1+00411+00251101141ADDAG10999AY121021AY221021GA1021+001509999GA2071+003609999GA3071+012009999GF107991071051001501999999MA1100911096571MD1710241+9999MW1211OA149900461REMSYN035 333 84705 85612 87640 91109 91206;MET008NEW NOSIEQDQ01+000000PRSWM2
0223065900999991998010121004+49617+006217SY-MT+0379ELLX V0202001N00311003601CN0200001N1+00411+00261101041ADDAG10001AY161031AY221031GA1021+001509999GA2071+003609999GA3071+011109999GF107991071051001501999999MA1100811096471MD1710281+9999MW1211OA149900461REMSYN035 333 84705 85612 87637 91109 91206;MET008NEW NOSIEQDQ01+000000PRSWM2
0179065900999991998010122004+49617+006217SY-MT+0379ELLX V0202101N00311002101CN0250001N1+00431+00271100891ADDAG10999GA1071+002109999GA2071+003909999GF107991071051002501999999MA1100711096331MD1710351+9999OA149900671REMSYN029 333 85707 87613 91113 91207;MET008NEW NOSIEQDQ01+000000PRSWM2
0179065900999991998010123004+49617+006217SY-MT+0379ELLX V0202001N00311003901CN0250001N1+00431+00271100731ADDAG10999GA1021+002409999GA2071+003909999GF107991071051002501999999MA1100511096181MD1710391+9999OA149900621REMSYN029 333 84708 87613 91112 91207;MET008NEW NOSIEQDQ01+000000PRSWM2
0212065900999991998010200004+49617+006217SY-MT+0379ELLX V0202001N00311004501CN0250001N1+00391+00211100581ADDAA106999929AG10001AY161061AY221061GA1021+002409999GA2071+004509999GF107991071051002501999999MA1100411096031MD1710441+9999MW1021OA149900671REMSYN029 333 84708 87615 91113 91207;MET008NEW NOSIEQDQ01+000000PRSWM2
0106065900999991998010201004+49617+006217SY-MT+0379ELLX V0202101N003119999999N0100001N1+00431+00201100451ADDAG10999MA1100311095911MD1710421+9999OA149900571REMSYN017 333 91111 91207;MET005NEW ;EQDQ01+000000PRSWM2
0114065900999991998010202004+49617+006217SY-MT+0379ELLX V0202101N004119999999N0100001N1+00421+00221100331ADDAG10999MA1100101095801MD1710381+9999OA149900671OC101391REMSYN017 333 91113 91208;MET005NEW ;EQDQ01+000000PRSWM2
0188065900999991998010203004+49617+006217SY-MT+0379ELLX V0202101N00411002101CN0070001N1+00371+00211100201ADDAG10004AY161031AY261031GA1071+002109999GA2071+003909999GF108991071051002501999999MA1100001095671MD1710361+9999MW1611MW2631OA149900721REMSYN029 333 85707 87613 91114 91209;MET008NEW NOSI
0188065900999991998010204004+49617+006217SY-MT+0379ELLX V0202101N00361001801CN0120001N1+00371+00221100091ADDAG10999AY161011AY261011GA1071+001809999GA2071+003909999GF108991071051001501999999MA1099901095561MD1710351+9999MW1611MW2631OA149900671REMSYN029 333 85706 87613 91113 91209;MET008NEW NOSI
0201065900999991998010205004+49617+006217SY-MT+0379ELLX V0202301N00461003901CN0250001N1+00501+00321100061ADDAG10999AY161021AY221021GA1021+002109999GA2071+003909999GF108991071051002501999999MA1099901095551MD1710251+9999MW1211OA149900671REMSYN029 333 84707 87613 91113 91209;MET008NEW NOSIEQDQ01+000000PRSWM2
0282065900999991998010206004+49617+006217SY-MT+0379ELLX V0202301N00571003601CN0250001N1+00561+00331099991ADDAA106999999AA299004091AG10001AY161061AY221061GA1021+002109999GA2071+003609999GF107991071051002501999999IA1099IA2999+00309KA1120N+00351MA1099801095501MD1710171+9999MW1211OA149900771REMSYN041 333 20035 31003 83707 87612 91115 91211;MET008NEW NOSIEQDQ01+000000PRSWM2Q02  00002PRCP06
0157065900999991998010207004+49617+006217SY-MT+0379ELLX V0202201N00361003601CN0250001N1+00601+00371099951ADDAG10999GA1071+003609999GF107991071051004501999999MA1099801095461MD1710101+9999OA149900721REMSYN023 333 87612 91114 91211;MET008NEW NOSIEQDQ01+000000PRSWM2
0194065900999991998010208004+49617+006217SY-MT+0379ELLX V0202201N00361003601CN0080001N1+00601+00351099911ADDAG10999AY121021AY221021GA1021+002109999GA2071+003609999GF108991071051002501999999MA1099801095431MD1710121+9999MW1511MW2581MW3611OA149900621REMSYN029 333 83707 87612 91112 91209;MET008NEW NOSI
0188065900999991998010209004+49617+006217SY-MT+0379ELLX V0202101N00311001501CN0100001N1+00571+00421099841ADDAG10002AY161031AY221031GA1071+001509999GA2071+003609999GF108991071051002501999999MA1099701095351MD1710151+9999MW1601MW2611OA149900721REMSYN029 333 85707 87612 91114 91211;MET008NEW NOSI
0182065900999991998010210004+49617+006217SY-MT+0379ELLX V0202001N00311001501CN0200001N1+00571+00451099741ADDAG10999AY161011AY261011GA1071+001509999GA2071+003609999GF108991071051001501999999MA1099591095261MD1710201+9999MW1611OA149900571REMSYN029 333 85705 87612 91111 91207;MET008NEW NOSI
0201065900999991998010211004+49617+006217SY-MT+0379ELLX V0201901N00411001501CN0180001N1+00601+00461099571ADDAG10999AY161021AY221021GA1071+001509999GA2071+004509999GF108991071051001501999999MA1099391095101MD1710331+9999MW1211OA149900621REMSYN029 333 85705 87615 91112 91208;MET008NEW NOSIEQDQ01+000000PRSWM2
0199065900999991998010212004+49617+006217SY-MT+0379ELLX V0201901N00311002401CN0150001N1+00611+00431099411ADDAA106002091AG10002AY161061AY221061GA1071+002409999GA2071+005109999GF108991071051002501999999MA1099291094951MD1710401+9999MW1601MW2611OA149900771REMSYN029 333 85708 87617 91115 91211;MET008NEW NOSI
0190065900999991998010213004+49617+006217SY-MT+0379ELLX V0201901N00461002401CN0050001N1+00641+00471099301ADDAG10999AY161011AY261011GA1071+002409999GA2071+003909999GF108991071051002501999999MA1099191094851MD1710411+9999MW1611OA149900821OC101651REMSYN029 333 85708 87613 91116 91209;MET008NEW NOSI
0190065900999991998010214004+49617+006217SY-MT+0379ELLX V0202101N00511003601CN0150001N1+00681+00481099211ADDAG10999AY161021AY261021GA1021+002409999GA2071+003609999GF108991071051002501999999MA1099091094771MD1710331+9999MW1611OA149900981OC101701REMSYN029 333 84708 87612 91119 91210;MET008NEW NOSI
0209065900999991998010215004+49617+006217SY-MT+0379ELLX V0202301N00671003601CN0200001N1+00661+00381099321ADDAG10001AY161031AY221031GA1071+003609999GA2071+009009999GF107991071081004501999999MA1099191094871MD1510081+9999MW1211OA149900981OC101951REMSYN029 333 85812 87630 91119 91213;MET008NEW NOSIEQDQ01+000000PRSWM2
0179065900999991998010216004+49617+006217SY-MT+0379ELLX V0202301N00571004501CN0200001N1+00571+00341099421ADDAG10999AY121011AY221011GA1071+004509999GF107991071081004501999999MA1099291094951MD1310101+9999MW1251OA149900931REMSYN023 333 87815 91118 91213;MET008NEW NOSIEQDQ01+000000PRSWM2
0160065900999991998010217004+49617+006217SY-MT+0379ELLX V0202301N00461005101CN0200001N1+00561+00291099461ADDAG10999AY121021AY221021GA1071+005109999GF107991071081004501999999MA1099291094991MD1210221+9999MW1801OA149900821REMSYN023 333 87817 91116 91211;MET008NEW NOSI
0250065900999991998010218004+49617+006217SY-MT+0379ELLX V0202201N00571003601CN0150001N1+00551+00371099541ADDAA106999999AA299006091AG10001AY181061AY261061GA1021+002409999GA2071+003609999GF107991071081002501999999KA1120M+00711MA1099391095061MD1210191+9999MW1801OA149900981OC101751REMSYN035 333 10071 83708 87812 91119 91213;MET008NEW NOSIEQDQ01  00002PRCP06
0209065900999991998010219004+49617+006217SY-MT+0379ELLX V0202301N00671003601CN0200001N1+00581+00361099581ADDAG10999AY121011AY221011GA1021+002409999GA2071+003609999GF107991071081002501999999MA1099391095111MD1210161+9999MW1251OA149900981OC101851REMSYN029 333 83708 87812 91119 91213;MET008NEW NOSIEQDQ01+000000PRSWM2
0190065900999991998010220004+49617+006217SY-MT+0379ELLX V0202701N00511003601CN0050001N1+00551+00351099851ADDAG10999AY181021AY221021GA1021+002409999GA2071+003609999GF108991071081002501999999MA1099701095361MD1210371+9999MW1811OA149900981OC101701REMSYN029 333 84708 87812 91119 91213;MET008NEW NOSI
0223065900999991998010221004+49617+006217SY-MT+0379ELLX V0202601N00511005401CN0130001N1+00581+00331100041ADDAG10001AY181031AY221031GA1021+001209999GA2071+005409999GA3071+012609999GF107991071081001501999999MA1099901095551MD1210491+9999MW1251OA149900981REMSYN035 333 82704 85818 86642 91119 91213;MET008NEW NOSIEQDQ01+000000PRSWM2
0223065900999991998010222004+49617+006217SY-MT+0379ELLX V0202601N00411005101CN0200001N1+00611+00291100251ADDAG10999AY121011AY221011GA1021+000909999GA2071+005109999GA3071+007809999GF107991071081000751999999MA1100101095751MD1210641+9999MW1251OA149900771REMSYN035 333 82703 85817 87626 91115 91211;MET008NEW NOSIEQDQ01+000000PRSWM2
0179065900999991998010223004+49617+006217SY-MT+0379ELLX V0202501N00361220001CN0200001N1+00601+00281100441ADDAG10999AY111021AY211021GA1021+005109999GF104991041081004501001001MA1100311095931MD1210571+9999MW1251OA149900771REMSYN023 333 83817 91115 91210;MET008NEW NOSIEQDQ01+000000PRSWM2
0206065900999991998010300004+49617+006217SY-MT+0379ELLX V0202501N00311003601CN0200001N1+00551+00301100561ADDAA106004091AG10001AY181061AY211061GA1071+003609999GF199999061081004501001001MA1100411096041MD1210491+9999MW1031OA149900981REMSYN023 333 85812 91119 91213;MET008NEW NOSIEQDQ01+000062SCOTCVQ02+000000PRSWM2
0106065900999991998010301004+49617+006217SY-MT+0379ELLX V0202501N003619999999N0100001N1+00581+00351100601ADDAG10999MA1100411096081MD1210331+9999OA149900571REMSYN017 333 91111 91208;MET005NEW ;EQDQ01+000000PRSWM2
0106065900999991998010302004+49617+006217SY-MT+0379ELLX V0202501N004119999999N0100001N1+00541+00291100671ADDAG10999MA1100511096141MD1210211+9999OA149900671REMSYN017 333 91113 91209;MET005NEW ;EQDQ01+000000PRSWM2
0106065900999991998010303004+49617+006217SY-MT+0379ELLX V0202401N003119999999N0100001N1+00501+00301100731ADDAG10000MA1100611096191MD1210151+9999OA149900671REMSYN017 333 91113 91209;MET005NEW ;EQDQ01+000000PRSWM2
0157065900999991998010304004+49617+006217SY-MT+0379ELLX V0202301N00361003001CN0200001N1+00511+00301100741ADDAG10999GA1071+003009999GF107991071051004501999999MA1100611096201MD1210121+9999OA149900511REMSYN023 333 87610 91110 91208;MET008NEW NOSIEQDQ01+000000PRSWM2
0135065900999991998010304504+49617+006217FM-15+0379ELLX V0202301N007710030019N0112651N1+00501+00301100681ADDAG10999GA1071+003009999GF107991999999999999999999MA1100511096151REMMET008NEW NOSIEQDQ01+999990APOSP Q02+999990APOSLPQ03+000000PRSWM2
0222065900999991998010306004+49617+006217SY-MT+0379ELLX V0202201N00361002101CN0200001N1+00491+00311100701ADDAA106000091AA299004091AG10000GA1081+002109999GF108991081061002501999999IA1099IA2999+00509KA1120N+00481MA1100511096161MD1810031+9999OA149900671REMSYN035 333 20048 31005 88707 91113 91209;MET008NEW NOSIEQDQ01+000000PRSWM2
0157065900999991998010307004+49617+006217SY-MT+0379ELLX V0202001N00311002701CN0090001N1+00501+00321100621ADDAG10999GA1071+002709999GF108991081061002501999999MA1100511096091MD1710111+9999OA149900621REMSYN023 333 87709 91112 91208;MET008NEW NOSIEQDQ01+000000PRSWM2
0166065900999991998010308004+49617+006217SY-MT+0379ELLX V0202101N00361002701CN0100001N1+00511+00301100581ADDAG10999AY121021AY221021GA1071+002709999GF108991071071002501999999MA1100411096051MD1710131+9999MW1601MW2611OA149900621REMSYN023 333 87709 91112 91208;MET008NEW NOSI
0201065900999991998010309004+49617+006217SY-MT+0379ELLX V0202101N00361003601CN0100001N1+00531+00331100501ADDAG10001AY161031AY221031GA1021+002709999GA2071+003609999GF108991071051002501999999MA1100311095981MD1710181+9999MW1211OA149900671REMSYN029 333 84709 87612 91113 91209;MET008NEW NOSIEQDQ01+000000PRSWM2
0188065900999991998010310004+49617+006217SY-MT+0379ELLX V0202101N00361002101CN0080001N1+00531+00381100391ADDAG10999AY161011AY221011GA1071+002109999GA2071+003609999GF108991071051002501999999MA1100201095871MD1710221+9999MW1601MW2611OA149900621REMSYN029 333 85707 87612 91112 91208;MET008NEW NOSI
0180065900999991998010311004+49617+006217SY-MT+0379ELLX V0202101N00461000901CN0035001N1+00551+00481100201ADDAG10999AY161021AY251021GA1071+000909999GF108991081061000751999999MA1100001095691MD1710361+9999MW1501MW2511OA149900771OC101591REMSYN029 333 86703 88705 91115 91210;MET008NEW NOSI
0171065900999991998010312004+49617+006217SY-MT+0379ELLX V0202201N00411000901CN0050001N1+00601+00531100041ADDAA106001091AG10001AY161061AY221061GA1071+000909999GF108991081061000751999999MA1099901095551MD1710431+9999MW1511OA149900821REMSYN023 333 87703 91116 91210;MET008NEW NOSI
0172065900999991998010313004+49617+006217SY-MT+0379ELLX V0202101N00411000901CN0035001N1+00711+00591099871ADDAG10999AY151011AY251011GA1071+000909999GF108991081061001501999999MA1099701095401MD1710471+9999MW1101MW2511MW3611OA149900721REMSYN023 333 87704 91114 91209;MET008NEW NOSI
0194065900999991998010314004+49617+006217SY-MT+0379ELLX V0202201N00511000901CN0030001N1+00811+00691099701ADDAG10999AY151021AY251021GA1071+000909999GA2071+003009999GF108991081051000751999999MA1099591095261MD1710431+9999MW1101MW2601MW3611OA149900771REMSYN029 333 87703 87610 91115 91210;MET008NEW NOSI
0168065900999991998010315004+49617+006217SY-MT+0379ELLX V0202201N00571001201CN0035001N1+00851+00731099631ADDAG10002AY161031AY251031GA1071+001209999GF108991081071001501999999MA1099491095201MD1710351+9999MW1611OA149900821OC101651REMSYN023 333 87704 91116 91211;MET008NEW NOSI
0202065900999991998010316004+49617+006217SY-MT+0379ELLX V0202601N00721001801CN0022001N1+00961+00741099561ADDAG10999AY161011AY261011GA1071+001809999GA2071+003309999GF108991081051001501999999MA1099491095151MD1710251+9999MW1101MW2611MW3631OA149901181OC102111REMSYN029 333 86706 87611 91123 91217;MET008NEW NOSI
0209065900999991998010317004+49617+006217SY-MT+0379ELLX V0202801N00461015001CN0200001N1+00871+00411099781ADDAG10999AY161021AY221021GA1021+006009999GA2071+015009999GF107991071051008001999999MA1099701095341MD1310081+9999MW1211OA149901081OC101541REMSYN029 333 84620 87650 91121 91215;MET008NEW NOSIEQDQ01+000000PRSWM2
0189065900999991998010319004+49617+006217SY-MT+0379ELLX V0202801N00361220001CN0200001N1+00691+00101100201ADDAG10999GA1011+015009059GF101991011051017501999001MA1100101095721MD1210571+9999OA149900821OC101441REMSYN023 333 81650 91116 91210;MET016NEW CAVOK NOSIG;EQDQ01+000000PRSWM2Q02    003SCOMCG
0181065900999991998010320004+49617+006217SY-MT+0379ELLX V0202601N00461220001CN0200001N1+00641+00071100391ADDAG10999GA1021+009009999GF199999011051008001001001MA1100201095891MD1210551+9999OA149900771OC101541REMSYN023 333 81630 91115 91209;MET008NEW NOSIEQDQ01+000012SCOTCVQ02+000000PRSWM2
0197065900999991998010321004+49617+006217SY-MT+0379ELLX V0202601N00461009001CN0200001N1+00621+00011100551ADDAG10000GA1071+009009999GF199999061051008001001001MA1100411096041MD1210522+9999OA149900821OC101491REMSYN023 333 86630 91116 91211;MET008NEW NOSIEQDQ01+000062SCOTCVQ02+000522APC3  Q03+000000PRSWM2
0173065900999991998010322004+49617+006217SY-MT+0379ELLX V0202601N00411009001CN0200001N1+00491-00011100741ADDAG10999GA1071+009009999GF199999051051008001001001MA1100611096201MD1210481+9999OA149900981REMSYN023 333 85630 91119 91212;MET008NEW NOSIEQDQ01+000052SCOTCVQ02+000000PRSWM2
0165065900999991998010323004+49617+006217SY-MT+0379ELLX V0202501N00461220001CN0200001N1+00461-00021100891ADDAG10999GA1021+009009999GF104991041051008001001001MA1100711096341MD1210451+9999OA149900881OC101751REMSYN023 333 84630 91117 91210;MET008NEW NOSIEQDQ01+000000PRSWM2
0184065900999991998010400004+49617+006217SY-MT+0379ELLX V0202501N00411009001CN0200001N1+00481-00021100991ADDAA106000091AG10000GA1071+009009999GF199999051051008001001001MA1100811096441MD1210401+9999OA149900981REMSYN023 333 85630 91119 91212;MET008NEW NOSIEQDQ01+000052SCOTCVQ02+000000PRSWM2
0106065900999991998010401004+49617+006217SY-MT+0379ELLX V0202501N004619999999N0100001N1+00451-00011101091ADDAG10999MA1100911096531MD1210331+9999OA149900771REMSYN017 333 91115 91210;MET005NEW ;EQDQ01+000000PRSWM2
0182065900999991998010404004+49617+006217SY-MT+0379ELLX V0202401N00411004501CN0100001N1+00391+00181101131ADDAG10999AY181041AY221041GA1021+001509999GA2071+004509999GF107991071081001501999999MA1100911096561MD1310031+9999MW1801OA149900771REMSYN029 333 84705 86815 91115 91210;MET008NEW NOSI
0201065900999991998010405004+49617+006217SY-MT+0379ELLX V0202401N00411003901CN0150001N1+00391+00211101081ADDAG10999AY121051AY221051GA1021+001809999GA2071+003909999GF107991071081001501999999MA1100911096511MD1810081+9999MW1251OA149900571REMSYN029 333 84706 86813 91111 91208;MET008NEW NOSIEQDQ01+000000PRSWM2
0166065900999991998010407004+49617+006217SY-MT+0379ELLX V0202501N00311004501CN0150001N1+00461+00201101081ADDAG10999AY121999AY221999GA1071+004509999GF107991071081004501999999MA1100911096521MD1810041+9999MW1801MW2851OA149900621REMSYN023 333 86815 91112 91209;MET008NEW NOSI
0179065900999991998010408004+49617+006217SY-MT+0379ELLX V0202401N00411003901CN0200001N1+00471+00221101111ADDAG10999AY121999AY221999GA1071+003909999GF107991061081004501001021MA1100911096551MD1310041+9999MW1251OA149900621REMSYN023 333 86813 91112 91208;MET008NEW NOSIEQDQ01+000000PRSWM2
0179065900999991998010409004+49617+006217SY-MT+0379ELLX V0202301N00311003601CN0200001N1+00491+00241101141ADDAG10001AY181031AY221031GA1071+003609999GF107991071081004501999999MA1101021096581MD1310021+9999MW1021OA149900621REMSYN023 333 87812 91112 91209;MET008NEW NOSIEQDQ01+000000PRSWM2
0157065900999991998010410004+49617+006217SY-MT+0379ELLX V0202201N00311004201CN0180001N1+00531+00281101111ADDAG10999GA1071+004209999GF107991071081004501999999MA1100911096561MD1010041+9999OA149900671REMSYN023 333 87814 91113 91208;MET008NEW NOSIEQDQ01+000000PRSWM2
0187065900999991998010411004+49617+006217SY-MT+0379ELLX V0202101N00311012001CN0200001N1+00571+00291100961ADDAG10999GA1021+004509999GA2071+012009999GF107991071081004501999999MA1100811096421MD1810131+9999OA149900621OC101291REMSYN029 333 83815 87640 91112 91207;MET008NEW NOSIEQDQ01+000000PRSWM2
0212065900999991998010412004+49617+006217SY-MT+0379ELLX V0202001N00311004201CN0200001N1+00541+00311100811ADDAA106000191AG10001AY181061AY221061GA1071+004209999GA2071+013509999GF107991071081004501999999MA1100611096281MD1710301+9999MW1021OA149900671REMSYN029 333 85814 87645 91113 91209;MET008NEW NOSIEQDQ01+000000PRSWM2
0179065900999991998010413004+49617+006217SY-MT+0379ELLX V0202101N00411015001CN0200001N1+00661+00251100521ADDAG10999GA1021+004509999GA2071+015009999GF107991071081004501999999MA1100411096021MD1710541+9999OA149900671REMSYN029 333 81815 87650 91113 91209;MET008NEW NOSIEQDQ01+000000PRSWM2
0201065900999991998010414004+49617+006217SY-MT+0379ELLX V0201801N00311015001CN0200001N1+00651+00181100231ADDAG10999GA1021+004509999GA2071+015009999GA3071+030009999GF107991061081004501031021MA1100101095741MD1710681+9999OA149900671REMSYN035 333 81815 86650 86360 91113 91209;MET008NEW NOSIEQDQ01+000000PRSWM2
0218065900999991998010415004+49617+006217SY-MT+0379ELLX V0202201N00571004501CN0035001N1+00551+00111100151ADDAG10004AY161031AY221031GA1021+002109999GA2071+004509999GA3071+015009999GF108991061051002501071999MA1100001095651MD1710631+9999MW1621MW2631OA149900981OC102011REMSYN035 333 83707 86615 87360 91119 91212;MET008NEW NOSI
0230065900999991998010416004+49617+006217SY-MT+0379ELLX V0202101N00361006601CN0250001N1+00541+00221099961ADDAG10999AY121011AY221011GA1021+004509999GA2071+006609999GA3071+030009999GF107991061081004501071999MA1099801095461MD1710561+9999MW1211OA149900721REMSYN035 333 82815 86620 86360 91114 91211;MET015NEW RERA NOSIG;EQDQ01+000000PRSWM2
0179065900999991998010417004+49617+006217SY-MT+0379ELLX V0202401N00511010501CN0200001N1+00631+00221099961ADDAG10999GA1021+004509999GA2071+010509999GF107991071081004501999999MA1099801095481MD1510261+9999OA149900771REMSYN029 333 82815 87635 91115 91211;MET008NEW NOSIEQDQ01+000000PRSWM2
0162065900999991998010417504+49617+006217FM-15+0379ELLX V0202501N011310060019N0112651N1+00601+00201100051ADDAA106000091AG10000GA1021+004509999GA2071+006009999GF107991999999999999999999MA1099901095561REMMET008NEW NOSIEQDQ01+999990APOSP Q02+999990APOSLPQ03+000000PRSWM2
0224065900999991998010419004+49617+006217SY-MT+0379ELLX V0202601N00361010501CN0070001N1+00271+00121100171ADDAG10999AY181041AY221041GA1021+004509099GA2071+010509999GF199999051091004501001001MA1100001095621MD1210161+9999MW1271OA149900881REMSYN029 333 81915 85635 91117 91212;MET015NEW REGS NOSIG;EQDQ01+000052SCOTCVQ02+000000PRSWM2
0187065900999991998010420004+49617+006217SY-MT+0379ELLX V0202401N00671008401CN0200001N1+00511+00051100171ADDAG10999GA1021+004809999GA2071+008409999GF107991071081004501999999MA1100001095661MD1210181+9999OA149900981OC101951REMSYN029 333 82816 87628 91119 91213;MET008NEW NOSIEQDQ01+000000PRSWM2
0159065900999991998010421204+49617+006217FM-15+0379ELLX V0202401N01391220001CN0112651N1+00501+00001100261ADDAG10000GA1021+006009999GA2021+009009999GF104991999999999999999999MA1100101095751OC102161REMMET008NEW NOSIEQDQ01+999990APOSP Q02+999990APOSLPQ03+000000PRSWM2
0179065900999991998010422004+49617+006217SY-MT+0379ELLX V0202401N00621007501CN0200001N1+00501-00021100331ADDAG10999GA1021+006009999GA2021+012009999GF105991051051008001001001MA1100201095811MD1210191+9999OA149901081REMSYN029 333 83620 85640 91121 91214;MET008NEW NOSIEQDQ01+000000PRSWM2
0195065900999991998010423004+49617+006217SY-MT+0379ELLX V0202401N00671013501CN0200001N1+00511-00051100371ADDAG10999GA1021+006909999GA2071+013509999GF199999051051008001001001MA1100201095851MD1210191+9999OA149901031REMSYN029 333 82623 85645 91120 91214;MET008NEW NOSIEQDQ01+000052SCOTCVQ02+000000PRSWM2
0214065900999991998010500004+49617+006217SY-MT+0379ELLX V0202401N00671009001CN0200001N1+00461-00041100391ADDAA106004091AG10001AY181061AY221061GA1071+009009999GF199999051051008001001001MA1100201095861MD1210111+9999MW1021OA149901081OC102111REMSYN023 333 85630 91121 91215;MET008NEW NOSIEQDQ01+000052SCOTCVQ02+000000PRSWM2
0114065900999991998010502004+49617+006217SY-MT+0379ELLX V0202501N00571999999CN0100001N1+00451-00071100611ADDAG10999MA1100411096071MD1210221+9999OA149900931OC101751REMSYN017 333 91118 91213;MET005NEW ;EQDQ01+000000PRSWM2
0165065900999991998010503004+49617+006217SY-MT+0379ELLX V0202501N00461006901CN0200001N1+00441+00001100671ADDAG10000GA1071+006909999GF107991071051008001999999MA1100511096131MD1210271+9999OA149901081OC101491REMSYN023 333 87623 91121 91215;MET008NEW NOSIEQDQ01+000000PRSWM2
0165065900999991998010504004+49617+006217SY-MT+0379ELLX V0202501N00511006001CN0200001N1+00431+00011100731ADDAG10999GA1071+006009999GF107991071051008001999999MA1100511096181MD1210241+9999OA149900821OC101651REMSYN023 333 87620 91116 91212;MET008NEW NOSIEQDQ01+000000PRSWM2
0187065900999991998010505004+49617+006217SY-MT+0379ELLX V0202501N00621006001CN0200001N1+00421-00061100791ADDAG10999GA1021+005409999GA2071+006009999GF107991071051004501999999MA1100611096241MD1210171+9999OA149900881OC101751REMSYN029 333 83618 86635 91117 91212;MET008NEW NOSIEQDQ01+000000PRSWM2
0290065900999991998010506004+49617+006217SY-MT+0379ELLX V0202601N00511006001CN0200001N1+00381-00021100901ADDAA106999999AA299004091AG10000AY121061AY221061GA1021+003609999GA2071+006009999GF107991071081004501999999IA1099IA2999+00209KA1120N+00261MA1100711096341MD1210211+9999MW1251OA149901081OC101651REMSYN041 333 20026 31002 83812 86620 91121 91215;MET008NEW NOSIEQDQ01+000000PRSWM2Q02  00002PRCP06
0187065900999991998010507004+49617+006217SY-MT+0379ELLX V0202501N00511006901CN0200001N1+00371-00051100961ADDAG10999GA1021+004809999GA2071+006909999GF107991071081004501999999MA1100811096391MD1210211+9999OA149900821OC101541REMSYN029 333 83816 87623 91116 91211;MET008NEW NOSIEQDQ01+000000PRSWM2
0179065900999991998010508004+49617+006217SY-MT+0379ELLX V0202401N00461090001CN0200001N1+00301-00061101051ADDAG10999GA1021+004509999GA2021+007509999GF105991041081004501001021MA1100811096471MD1210231+9999OA149900671REMSYN029 333 82815 83625 91113 91211;MET008NEW NOSIEQDQ01+000000PRSWM2
0157065900999991998010509004+49617+006217SY-MT+0379ELLX V0202401N00361004501CN0200001N1+00361+00011101111ADDAG10000GA1071+004509999GF107991071051004501999999MA1100911096531MD1210191+9999OA149900821REMSYN023 333 87615 91116 91211;MET008NEW NOSIEQDQ01+000000PRSWM2
0195065900999991998010510004+49617+006217SY-MT+0379ELLX V0202401N00411060001CN0200001N1+00501+00091101031ADDAG10999GA1021+005109999GA2071+060009999GF199999031051004501031021MA1100911096481MD1010091+9999OA149900671REMSYN029 333 83617 85070 91113 91210;MET008NEW NOSIEQDQ01+000062SCOTCVQ02+000000PRSWM2
0165065900999991998010511004+49617+006217SY-MT+0379ELLX V0202201N00361005701CN0180001N1+00591+00161100951ADDAG10999GA1071+005709999GF107991071081004501999999MA1100811096421MD1810051+9999OA149900621OC101291REMSYN023 333 86819 91112 91209;MET008NEW NOSIEQDQ01+000000PRSWM2
0196065900999991998010512004+49617+006217SY-MT+0379ELLX V0202201N00461005401CN0150001N1+00591+00241100811ADDAA106999999AG10002AY121061AY221061GA1071+005409999GF107991071081004501999999MA1100611096281MD1710251+9999MW1801MW2811OA149900821REMSYN023 333 86818 91116 91211;MET008NEW NOSIEQDQ01  00002PRCP06
0201065900999991998010513004+49617+006217SY-MT+0379ELLX V0202101N00361007501CN0180001N1+00611+00241100631ADDAG10999AY121011AY221011GA1021+004809999GA2071+007509999GF107991071081004501999999MA1100511096111MD1710371+9999MW1251OA149900821REMSYN029 333 84816 86625 91116 91210;MET008NEW NOSIEQDQ01+000000PRSWM2
0190065900999991998010514004+49617+006217SY-MT+0379ELLX V0202201N00511006901CN0280001N1+00651+00181100461ADDAG10999AY121021AY221021GA1071+006909999GA2071+009909999GF107991071081008001999999MA1100311095961MD1710461+9999MW1801OA149900771OC101591REMSYN029 333 85823 86633 91115 91211;MET008NEW NOSI
0190065900999991998010515004+49617+006217SY-MT+0379ELLX V0202101N00511008401CN0250001N1+00671+00181100281ADDAG10001AY181031AY221031GA1071+008409999GA2071+010509999GF107991071081008001999999MA1100101095791MD1710491+9999MW1801OA149900881OC101591REMSYN029 333 85825 87633 91117 91211;MET008NEW NOSI
0188065900999991998010516004+49617+006217SY-MT+0379ELLX V0202101N00511007801CN0100001N1+00631+00241100111ADDAG10999AY181011AY221011GA1071+007809999GA2081+030009999GF108991061051008001021999MA1100001095621MD1710491+9999MW1601MW2611OA149900881REMSYN029 333 86626 88460 91117 91212;MET008NEW NOSI
0214065900999991998010517004+49617+006217SY-MT+0379ELLX V0202201N00511005401CN0080001N1+00581+00331100001ADDAG10999AY161021AY261021GA1071+005409999GA2081+030009999GF108991061051004501021999MA1099801095511MD1710451+9999MW1631OA149900881REMSYN029 333 86618 88460 91117 91211;MET040NEW TEMPO23035G45K T 1000 TSRA BKN015CB;
0201065900999991998010519004+49617+006217SY-MT+0379ELLX V0202401N00511007501CN0200001N1+00511+00161099991ADDAG10999AY121041AY221041GA1071+007509999GA2071+030009999GF108991061051008001021999MA1099801095491MD1810131+9999MW1211OA149901031REMSYN029 333 86625 88460 91120 91214;MET008NEW NOSIEQDQ01+000000PRSWM2
0190065900999991998010520004+49617+006217SY-MT+0379ELLX V0202701N00461006001CN0040001N1+00361+00101100041ADDAG10999AY121051AY221051GA1021+003009999GA2071+006009999GF107991071081004501999999MA1099801095511MD1510001+9999MW1801OA149900981OC101851REMSYN029 333 83710 86820 91119 91212;MET008NEW NOSI
0217065900999991998010521004+49617+006217SY-MT+0379ELLX V0202301N00211013501CN0120001N1+00291+00171100021ADDAG10000AY121031AY221031GA1021+004509999GA2071+013509999GF199999061081004501001001MA1099801095481MD1810051+9999MW1251OA149901031REMSYN029 333 83815 85645 91120 91214;MET008NEW NOSIEQDQ01+000062SCOTCVQ02+000000PRSWM2
0195065900999991998010522004+49617+006217SY-MT+0379ELLX V0202401N00571012001CN0150001N1+00451+00051099981ADDAG10999GA1021+006009999GA2071+012009999GF199999061081004501001001MA1099801095471MD1810021+9999OA149900771REMSYN029 333 83815 85640 91115 91211;MET008NEW NOSIEQDQ01+000062SCOTCVQ02+000000PRSWM2
0141065900999991998010522504+49617+006217FM-15+0379ELLX V0202401N012310060019N0112651N1+00401+00101099981ADDAG10999GA1021+004509999GA2071+006009999GF107991999999999999999999MA1099801095461MW1801REMMET008NEW NOSIEQDQ01+999990APOSP Q02+999990APOSLP
0212065900999991998010600004+49617+006217SY-MT+0379ELLX V0202601N00571003601CN0060001N1+00361+00161100131ADDAA106005091AG10000AY121061AY221061GA1071+003609999GA2071+006009999GF107991071081004501999999MA1099901095601MD1310121+9999MW1251OA149901131REMSYN029 333 84812 86620 91122 91215;MET008NEW NOSIEQDQ01+000000PRSWM2
0114065900999991998010601004+49617+006217SY-MT+0379ELLX V0202801N004619999999N0100001N1+00381+00141100331ADDAG10999MA1100101095791MD1210321+9999OA149900931OC101801REMSYN017 333 91118 91212;MET005NEW ;EQDQ01+000000PRSWM2
0122065900999991998010602004+49617+006217SY-MT+0379ELLX V0202801N003619999999N0100001N1+00311+00021100651ADDAG10999MA1100511096091MD1210612+9999OA149900881REMSYN017 333 91117 91210;MET005NEW ;EQDQ01+000612APC3  Q02+000000PRSWM2
0179065900999991998010604004+49617+006217SY-MT+0379ELLX V0202701N00361006001CN0150001N1+00271-00071101041ADDAG10999GA1021+004509999GA2071+006009999GF107991071081004501999999MA1100811096451MD1210661+9999OA149900671REMSYN029 333 83815 85620 91113 91208;MET008NEW NOSIEQDQ01+000000PRSWM2
0157065900999991998010605004+49617+006217SY-MT+0379ELLX V0202801N00261006001CN0150001N1+00251-00091101211ADDAG10999GA1071+006009999GF107991071051008001999999MA1101021096611MD1210521+9999OA149900571REMSYN023 333 87620 91111 91207;MET008NEW NOSIEQDQ01+000000PRSWM2
0244065900999991998010606004+49617+006217SY-MT+0379ELLX V0202701N00261007501CN0200001N1+00261-00071101301ADDAA106000091AA299005091AG10000GA1021+006009999GA2071+007509999GF107991071051008001999999IA1099IA2999+00209KA1120N+00231MA1101081096701MD1210401+9999OA149900931REMSYN041 333 20023 31002 82620 85625 91118 91212;MET008NEW NOSIEQDQ01+000000PRSWM2
0179065900999991998010607004+49617+006217SY-MT+0379ELLX V0202601N00311004201CN0200001N1+00261-00021101401ADDAG10999GA1021+003609999GA2021+007509999GF105991051051004501001001MA1101191096791MD1210341+9999OA149900511REMSYN029 333 82612 83625 91110 91206;MET008NEW NOSIEQDQ01+000000PRSWM2
0195065900999991998010608004+49617+006217SY-MT+0379ELLX V0202601N00311007501CN0200001N1+00281+00001101501ADDAG10999GA1021+004509999GA2071+007509999GF199999061051004501001021MA1101291096891MD1210281+9999OA149900511REMSYN029 333 82615 84625 91110 91207;MET008NEW NOSIEQDQ01+000062SCOTCVQ02+000000PRSWM2
0179065900999991998010609004+49617+006217SY-MT+0379ELLX V0202501N00261007501CN0200001N1+00321+00061101571ADDAG10000GA1021+003609999GA2071+007509999GF107991071051004501999999MA1101391096971MD1210271+9999OA149900511REMSYN029 333 84612 86625 91110 91207;MET008NEW NOSIEQDQ01+000000PRSWM2
0179065900999991998010610004+49617+006217SY-MT+0379ELLX V0202401N00261003901CN0200001N1+00321+00091101721ADDAG10999GA1021+002709999GA2071+003909999GF107991071051002501999999MA1101491097111MD1210321+9999OA149900411REMSYN029 333 84709 87613 91108 91206;MET008NEW NOSIEQDQ01+000000PRSWM2
0179065900999991998010611004+49617+006217SY-MT+0379ELLX V0202501N00261003301CN0200001N1+00361+00121101751ADDAG10999GA1071+003309999GA2071+009009999GF107991071051004501999999MA1101491097141MD1210251+9999OA149900461REMSYN029 333 85611 86630 91109 91206;MET008NEW NOSIEQDQ01+000000PRSWM2
0190065900999991998010612004+49617+006217SY-MT+0379ELLX V0202401N00311003601CN0200001N1+00401+00121101741ADDAA106000091AG10000GA1071+003609999GA2071+009009999GF107991071051004501999999MA1101491097141MD1110171+9999OA149900511REMSYN029 333 85612 86630 91110 91207;MET008NEW NOSIEQDQ01+000000PRSWM2
0151065900999991998010613204+49617+006217FM-15+0379ELLX V0202401N00411003001CN0112651N1+00501+00201101671ADDAG10999GA1071+003009999GA2071+015009999GF107991999999999999999999MA1101491097091REMMET008NEW NOSIEQDQ01+999990APOSP Q02+999990APOSLPQ03+000000PRSWM2
0187065900999991998010616004+49617+006217FM-12+0379ELLX V0202201N00211009001CN0220001N1+00441+00201101711ADDAG10999AY121041AY221041GA1031+003909089GA2071+009009059GF107991071081004501999999MA1101521097121MD1310011+9999MW1251OA149900311REMSYN029 333 83813 87630 91106 91204;EQDQ01+999990APOA  
0194065900999991998010617004+49617+006217SY-MT+0379ELLX V0202101N00151000901CN0120001N1+00371+00191101721ADDAG10999AY161051AY221051GA1071+000909999GA2071+003009999GF108991071051002501999999MA1101491097121MD1310011+9999MW1511MW2581MW3611OA149900311REMSYN029 333 86708 87618 91106 91204;MET008NEW NOSI
0254065900999991998010618004+49617+006217SY-MT+0379ELLX V0201901N00151000901CN0040001N1+00351+00231101711ADDAA106999999AA299999929AG10002AY181061AY261061GA1071+000909999GA2071+002409999GF108991071061000751999999KA1120M+00501MA1101491097101MD1810031+9999MW1511MW2581MW3611OA149900361REMSYN035 333 10050 86703 87708 91107 91205;MET008NEW NOSIEQDQ01  00002PRCP06
0166065900999991998010619004+49617+006217SY-MT+0379ELLX V0201901N00211000301CN0006001N1+00351+00351101701ADDAG10999AY161011AY251011GA1081+000309999GF108991081061000251999999MA1101491097091MD1810031+9999MW1501MW2511OA149900361REMSYN023 333 88701 91107 91204;MET008NEW NOSI
0171065900999991998010620004+49617+006217SY-MT+0379ELLX V0202001N00151000301CN0003001N1+00361+00361101681ADDAG10999AY151021AY241021ED199U05009GA1081+000309999GF108991081061000251999999MA1101491097081MD1710041+9999MW1511OA149900311REMSYN023 333 88701 91106 91204;MET008NEW NOSI
0171065900999991998010621004+49617+006217SY-MT+0379ELLX V0202101N00151000301CN0001001N1+00421+00421101651ADDAG10000AY151031AY241031ED199U04009GA1081+000309999GF108991081061000251999999MA1101491097061MD1710041+9999MW1511OA149900361REMSYN023 333 88701 91107 91204;MET008NEW NOSI
0171065900999991998010622004+49617+006217SY-MT+0379ELLX V0202001N00101000301CN0001001N1+00451+00451101641ADDAG10999AY151011AY241011ED199U05009GA1081+000309999GF108991081061000251999999MA1101391097051MD1710041+9999MW1441OA149900261REMSYN023 333 88701 91105 91203;MET008NEW NOSI
0177065900999991998010623004+49617+006217SY-MT+0379ELLX V0202101N00151000301CN0001001N1+00551+00551101601ADDAG10999AY161021AY241021ED199U06009GA1081+000309999GF108991081071000251999999MA1101391097031MD1710051+9999MW1601MW2611OA149900211REMSYN023 333 88701 91104 91203;MET008NEW NOSI
0182065900999991998010700004+49617+006217SY-MT+0379ELLX V0202201N00151000301CN0002001N1+00671+00671101561ADDAA106002091AG10002AY161061AY251061ED199U12009GA1071+000309999GF108991081071000251999999MA1101391097011MD1710051+9999MW1611OA149900361REMSYN023 333 87701 91107 91204;MET008NEW NOSI
0106065900999991998010701004+49617+006217SY-MT+0379ELLX V0202401N003119999999N0100001N1+00821+00821101511ADDAG10999MA1101391096991MD1710061+9999OA149900411REMSYN017 333 91108 91206;MET005NEW ;EQDQ01+000000PRSWM2
0106065900999991998010702004+49617+006217SY-MT+0379ELLX V0202401N003619999999N0100001N1+00851+00851101521ADDAG10999MA1101391097001MD1510031+9999OA149900571REMSYN017 333 91111 91208;MET005NEW ;EQDQ01+000000PRSWM2
0179065900999991998010703004+49617+006217SY-MT+0379ELLX V0202401N00361001501CN0100001N1+00861+00861101491ADDAG10001AY161031AY221031GA1071+001509999GF108991071071001501999999MA1101391096981MD1810031+9999MW1211OA149900621REMSYN023 333 87706 91112 91209;MET008NEW NOSIEQDQ01+000000PRSWM2
0166065900999991998010704004+49617+006217SY-MT+0379ELLX V0202401N00361002101CN0100001N1+00881+00741101471ADDAG10999AY121011AY221011GA1071+002109999GF108991071071002501999999MA1101391096961MD1810031+9999MW1601MW2611OA149900571REMSYN023 333 87607 91111 91208;MET008NEW NOSI
0160065900999991998010705004+49617+006217SY-MT+0379ELLX V0202401N00461002101CN0100001N1+00891+00741101451ADDAG10999AY161021AY261021GA1071+002109999GF108991071071002501999999MA1101291096941MD1710061+9999MW1611OA149900671REMSYN023 333 87707 91113 91210;MET008NEW NOSI
0266065900999991998010706004+49617+006217SY-MT+0379ELLX V0202301N00411002101CN0100001N1+00881+00711101441ADDAA106000091AA299003091AG10001AY161061AY221061GA1071+002109999GA2071+003309999GF108991081051002501999999IA1099IA2999+00409KA1120N+00331MA1101291096931MD1710051+9999MW1021OA149900671REMSYN041 333 20033 31004 86707 87610 91113 91210;MET008NEW NOSIEQDQ01+000000PRSWM2
0210065900999991998010707004+49617+006217SY-MT+0379ELLX V0202301N00361004501CN0100001N1+00871+00631101431ADDAG10999AY121011AY221011GA1021+002109999GA2071+004509999GA3071+013509999GF108991081051002501999999MA1101291096921MD1710041+9999MW1601MW2611OA149900571REMSYN035 333 84707 86615 87645 91111 91208;MET008NEW NOSI
0223065900999991998010708004+49617+006217SY-MT+0379ELLX V0202301N00361006601CN0250001N1+00851+00561101461ADDAG10999AY121021AY221021GA1021+002409999GA2071+006609999GA3071+015009999GF107991071051002501999999MA1101291096951MD1310011+9999MW1211OA149900511REMSYN035 333 84708 86622 87650 91110 91208;MET008NEW NOSIEQDQ01+000000PRSWM2
0223065900999991998010709004+49617+006217SY-MT+0379ELLX V0202401N00411006001CN0250001N1+00871+00511101481ADDAG10001AY161031AY221031GA1021+002409999GA2071+006009999GA3071+015009999GF107991071051002501999999MA1101391096971MD1310041+9999MW1021OA149900671REMSYN035 333 83708 85620 87650 91113 91209;MET008NEW NOSIEQDQ01+000000PRSWM2
0227065900999991998010710004+49617+006217SY-MT+0379ELLX V0202301N00461006001CN0100001N1+00851+00491101491ADDAG10999AY121011AY221011GA1021+002409999GA2071+006009999GA3071+015009999GF107991071051002501999999MA1101391096971MD1110051+9999MW1601MW2611OA149900621REMSYN035 333 83708 86620 87650 91112 91209;MET025NEW TEMPO 7000 RA BKN012;
0224065900999991998010711004+49617+006217SY-MT+0379ELLX V0202401N00411003601CN0080001N1+00771+00581101521ADDAG10999AY161021AY261021GA1021+002409999GA2071+003609999GA3071+015009999GF107991071051002501999999MA1101391096991MD1310041+9999MW1611OA149900721OC101441REMSYN035 333 83708 87612 87750 91114 91209;MET020NEW BECMG NS W BKN02
0234065900999991998010712004+49617+006217SY-MT+0379ELLX V0202301N00461003301CN0200001N1+00771+00571101491ADDAA106002091AG10001AY161061AY221061GA1021+002409999GA2071+003309999GA3071+015009999GF107991071081002501999999MA1101391096961MD1810011+9999MW1211OA149900721REMSYN035 333 82708 85811 87650 91114 91210;MET008NEW NOSIEQDQ01+000000PRSWM2
0209065900999991998010713004+49617+006217SY-MT+0379ELLX V0202501N00461004501CN0250001N1+00871+00511101451ADDAG10999AY121011AY221011GA1021+002409999GA2071+004509999GF107991071081002501031999MA1101291096941MD1810031+9999MW1021OA149900721OC101491REMSYN029 333 82708 86815 91114 91210;MET008NEW NOSIEQDQ01+000000PRSWM2
0190065900999991998010714004+49617+006217SY-MT+0379ELLX V0202401N00621005401CN0150001N1+00881+00541101471ADDAG10999AY121021AY221021GA1021+001509999GA2071+005409999GF107991071081001501031999MA1101391096961MD1510031+9999MW1801OA149900881OC101751REMSYN029 333 83705 86818 91117 91212;MET008NEW NOSI
0201065900999991998010715004+49617+006217SY-MT+0379ELLX V0202401N00511220001CN0250001N1+00911+00491101511ADDAG10000AY121031AY221031GA1021+006009099GA2021+010509999GF104991021031008001031001MA1101391097001MD1310041+9999MW1251OA149900881REMSYN029 333 81920 83635 91117 91212;MET008NEW NOSIEQDQ01+000000PRSWM2
0173065900999991998010716004+49617+006217SY-MT+0379ELLX V0202501N00411004501CN0280001N1+00851+00531101611ADDAG10999GA1071+004509999GF199999051081004501031021MA1101491097091MD1210151+9999OA149900671REMSYN023 333 85815 91113 91210;MET008NEW NOSIEQDQ01+000062SCOTCVQ02+000000PRSWM2
0173065900999991998010717004+49617+006217SY-MT+0379ELLX V0202501N00361005101CN0280001N1+00821+00501101701ADDAG10999GA1071+005109999GF199999061081004501031021MA1101591097171MD1210211+9999OA149900671REMSYN023 333 85817 91113 91209;MET008NEW NOSIEQDQ01+000062SCOTCVQ02+000000PRSWM2
0242065900999991998010718004+49617+006217SY-MT+0379ELLX V0202501N00361036001CN0250001N1+00831+00491101781ADDAA106000091AA299002091AG10001AY181061AY211061GA1021+005409999GA2021+007509999GF105991041081004501031021KA1120M+00911MA1101691097251MD1210251+9999MW1011OA149900881REMSYN035 333 10091 82818 83625 91117 91212;MET008NEW NOSIEQDQ01+000000PRSWM2
0173065900999991998010719004+49617+006217SY-MT+0379ELLX V0202401N00311220001CN0250001N1+00731+00461101881ADDAG10999GA1021+012009999GF199999011081004501001001MA1101801097331MD1210241+9999OA149900571REMSYN023 333 81816 91111 91208;MET008NEW NOSIEQDQ01+000012SCOTCVQ02+000000PRSWM2
0179065900999991998010720004+49617+006217SY-MT+0379ELLX V0202401N00311220001CN0250001N1+00691+00421101951ADDAG10999GA1021+004809999GA2021+013509999GF103991031081004501001001MA1101801097391MD1210221+9999OA149900511REMSYN029 333 81816 83645 91110 91207;MET008NEW NOSIEQDQ01+000000PRSWM2
0157065900999991998010721004+49617+006217SY-MT+0379ELLX V0202501N00361220001CN0250001N1+00711+00391101961ADDAG10000GA1021+013509999GF103991021051012501001021MA1101801097401MD1210151+9999OA149900621REMSYN023 333 82645 91112 91208;MET008NEW NOSIEQDQ01+000000PRSWM2
0157065900999991998010722004+49617+006217SY-MT+0379ELLX V0202401N00311090001CN0200001N1+00691+00401102041ADDAG10999GA1021+006009999GF105991041051008001001021MA1101901097471MD1210141+9999OA149900511REMSYN023 333 84620 91110 91208;MET008NEW NOSIEQDQ01+000000PRSWM2
0117065900999991998010800004+49617+006217SY-MT+0379ELLX V0202401N004119999999N0100001N1+00681+00341102101ADDAA106000091AG10000MA1101901097531MD1210131+9999OA149900671REMSYN017 333 91113 91209;MET005NEW ;EQDQ01+000000PRSWM2
0106065900999991998010801004+49617+006217SY-MT+0379ELLX V0202401N00411999999CN0100001N1+00681+00361102111ADDAG10999MA1102001097541MD1210071+9999OA149900671REMSYN017 333 91113 91209;MET005NEW ;EQDQ01+000000PRSWM2
0106065900999991998010802004+49617+006217SY-MT+0379ELLX V0202501N00411999999CN0100001N1+00711+00391102171ADDAG10999MA1102001097601MD1210101+9999OA149900671REMSYN017 333 91113 91209;MET005NEW ;EQDQ01+000000PRSWM2
0179065900999991998010803004+49617+006217SY-MT+0379ELLX V0202401N00461003901CN0100001N1+00721+00421102171ADDAG10000GA1071+003909999GA2071+012009999GF107991071051004501999999MA1102001097601MD1110071+9999OA149900671REMSYN029 333 86613 87640 91113 91209;MET008NEW NOSIEQDQ01+000000PRSWM2
0157065900999991998010804004+49617+006217SY-MT+0379ELLX V0202401N00461004501CN0100001N1+00711+00411102191ADDAG10999GA1071+004509999GF107991071051004501999999MA1102001097621MD1310081+9999OA149900671REMSYN023 333 87615 91113 91210;MET008NEW NOSIEQDQ01+000000PRSWM2
0157065900999991998010805004+49617+006217SY-MT+0379ELLX V0202401N00461003301CN0100001N1+00701+00431102241ADDAG10999GA1071+003309999GF107991071051004501999999MA1102101097671MD1310071+9999OA149900671REMSYN023 333 87611 91113 91210;MET008NEW NOSIEQDQ01+000000PRSWM2
0211065900999991998010806004+49617+006217SY-MT+0379ELLX V0202501N00411004501CN0200001N1+00741+00421102331ADDAA106000091AG10000GA1071+004509999GF107991071051004501999999IA1099IA2999+00609KA1120N+00651MA1102201097761MD1210161+9999OA149900671REMSYN035 333 20065 31006 87615 91113 91210;MET008NEW NOSIEQDQ01+000000PRSWM2
0179065900999991998010807004+49617+006217SY-MT+0379ELLX V0202401N00461004501CN0200001N1+00731+00461102401ADDAG10999GA1071+004509999GA2071+009009999GF107991071051004501999999MA1102201097821MD1210201+9999OA149900671REMSYN029 333 85615 86630 91113 91209;MET008NEW NOSIEQDQ01+000000PRSWM2
0201065900999991998010808004+49617+006217SY-MT+0379ELLX V0202401N00361009001CN0250001N1+00731+00441102511ADDAG10999AY121021AY221021GA1021+003909999GA2071+009009999GF107991071051004501999999MA1102401097931MD1210261+9999MW1021OA149900511REMSYN029 333 84613 87630 91110 91208;MET008NEW NOSIEQDQ01+000000PRSWM2
0179065900999991998010809004+49617+006217SY-MT+0379ELLX V0202401N00411006001CN0200001N1+00741+00471102551ADDAG10000GA1021+003909999GA2071+006009999GF107991071051004501999999MA1102401097971MD1210211+9999OA149900671REMSYN029 333 84613 87620 91113 91209;MET008NEW NOSIEQDQ01+000000PRSWM2
0179065900999991998010810004+49617+006217SY-MT+0379ELLX V0202401N00411009001CN0250001N1+00791+00471102571ADDAG10999GA1021+004509999GA2071+009009999GF107991071051004501999999MA1102401098001MD1210181+9999OA149900621REMSYN029 333 84615 86630 91112 91208;MET008NEW NOSIEQDQ01+000000PRSWM2
0179065900999991998010811004+49617+006217SY-MT+0379ELLX V0202401N00411007801CN0200001N1+00801+00441102601ADDAG10999GA1021+005109999GA2071+007809999GF107991071081004501999999MA1102511098031MD1210101+9999OA149900621REMSYN029 333 83817 86626 91112 91209;MET008NEW NOSIEQDQ01+000000PRSWM2
0179065900999991998010813004+49617+006217SY-MT+0379ELLX V0202401N00461005101CN0280001N1+00861+00461102551ADDAG10999GA1071+005109999GA2071+007509999GF107991071081004501999999MA1102401097991MD1810011+9999OA149900721REMSYN029 333 86816 87630 91114 91209;MET008NEW NOSIEQDQ01+000000PRSWM2
0179065900999991998010814004+49617+006217SY-MT+0379ELLX V0202401N00411006001CN0280001N1+00901+00461102561ADDAG10999GA1071+006009999GA2071+011409999GF107991071081008001999999MA1102401098001MD1510031+9999OA149900671REMSYN029 333 86820 86638 91113 91210;MET008NEW NOSIEQDQ01+000000PRSWM2
0179065900999991998010815004+49617+006217SY-MT+0379ELLX V0202401N00411006001CN0280001N1+00951+00491102541ADDAG10000GA1071+006009999GA2021+010509999GF107991061081008001031021MA1102401097991MD1810041+9999OA149900721REMSYN029 333 85820 84635 91114 91210;MET008NEW NOSIEQDQ01+000000PRSWM2
0157065900999991998010816004+49617+006217SY-MT+0379ELLX V0202401N00461006901CN0300001N1+00911+00471102591ADDAG10999GA1071+006909999GF107991061081008001001021MA1102511098031MD1310041+9999OA149900671REMSYN023 333 86823 91113 91209;MET008NEW NOSIEQDQ01+000000PRSWM2
0195065900999991998010817004+49617+006217SY-MT+0379ELLX V0202401N00311015001CN0300001N1+00851+00431102641ADDAG10999GA1021+006909999GA2071+015009999GF199999061081008001001021MA1102511098071MD1310071+9999OA149900671REMSYN029 333 82823 85650 91113 91209;MET008NEW NOSIEQDQ01+000062SCOTCVQ02+000000PRSWM2
0225065900999991998010818004+49617+006217SY-MT+0379ELLX V0202401N00311015001CN0300001N1+00841+00391102691ADDAA106000091AG10000GA1021+007509999GA2071+015009999GF199999061081008001001021KA1120M+00951MA1102611098121MD1210131+9999OA149900721REMSYN035 333 10095 84825 86650 91114 91210;MET008NEW NOSIEQDQ01+000062SCOTCVQ02+000000PRSWM2
0195065900999991998010819004+49617+006217SY-MT+0379ELLX V0202401N00311015001CN0300001N1+00821+00391102721ADDAG10999GA1021+007509999GA2071+015009999GF199999061081008001001001MA1102611098141MD1210111+9999OA149900511REMSYN029 333 82825 85650 91110 91207;MET008NEW NOSIEQDQ01+000062SCOTCVQ02+000000PRSWM2
0173065900999991998010820004+49617+006217SY-MT+0379ELLX V0202301N00261013501CN0300001N1+00821+00391102741ADDAG10999GA1071+013509999GF199999051051012501001001MA1102611098161MD1210091+9999OA149900511REMSYN023 333 85845 91110 91207;MET008NEW NOSIEQDQ01+000052SCOTCVQ02+000000PRSWM2
0173065900999991998010821004+49617+006217SY-MT+0379ELLX V0202301N00261012001CN0200001N1+00811+00391102761ADDAG10000GA1071+012009999GF199999051051012501001001MA1102611098181MD1210061+9999OA149900511REMSYN023 333 85640 91110 91207;MET008NEW NOSIEQDQ01+000052SCOTCVQ02+000000PRSWM2
0106065900999991998010822004+49617+006217SY-MT+0379ELLX V0202301N002619999999N0100001N1+00831+00391102781ADDAG10999MA1102611098201MD1210061+9999OA149900411REMSYN017 333 91108 91205;MET005NEW ;EQDQ01+000000PRSWM2
0168065900999991998010900004+49617+006217SY-MT+0379ELLX V0202301N00311013501CN0100001N1+00891+00451102831ADDAA106000091AG10000GA1071+013509999GF107991071051012501999999MA1102711098261MD1210081+9999OA149900571REMSYN023 333 87645 91111 91207;MET008NEW NOSIEQDQ01+000000PRSWM2
0090065900999991998010900504+49617+006217FM-15+0379ELLX V0202301N00511999999CN0112651N1+00901+00501102831ADDAG10999MA1102711098271REMMET005NEW ;EQDQ01+999990APOSP Q02+999990APOSLPQ03+000000PRSWM2
0106065900999991998010902004+49617+006217SY-MT+0379ELLX V0202501N00211999999CN0100001N1+00831+00471102881ADDAG10999MA1102711098301MD1210061+9999OA149900411REMSYN017 333 91108 91206;MET005NEW ;EQDQ01+000000PRSWM2
0181065900999991998010903004+49617+006217SY-MT+0379ELLX V0202401N00211220001CN0100001N1+00811+00491102911ADDAG10000GA1041+015009059GF104991041051017501999001MA1102811098321MD1210061+9999OA149900461REMSYN023 333 84650 91109 91206;MET016NEW CAVOK NOSIG;EQDQ01+000000PRSWM2Q02    003SCOMCG
0157065900999991998010904004+49617+006217SY-MT+0379ELLX V0202501N00261004501CN0100001N1+00831+00491102881ADDAG10999GA1071+004509999GF107991071051004501999999MA1102711098301MD1010031+9999OA149900361REMSYN023 333 87615 91107 91206;MET008NEW NOSIEQDQ01+000000PRSWM2
0157065900999991998010905004+49617+006217SY-MT+0379ELLX V0202501N00261003601CN0100001N1+00811+00501102881ADDAG10999GA1071+003609999GF107991071051004501999999MA1102711098301MD1010001+9999OA149900361REMSYN023 333 87612 91107 91205;MET008NEW NOSIEQDQ01+000000PRSWM2
0233065900999991998010906004+49617+006217SY-MT+0379ELLX V0202501N00151009001CN0100001N1+00761+00511102951ADDAA106000091AG10000GA1021+003609999GA2071+009009999GF107991071051004501999999IA1099IA2999+00709KA1120N+00751MA1102811098351MD1310031+9999OA149900461REMSYN041 333 20075 31007 84612 86630 91109 91206;MET008NEW NOSIEQDQ01+000000PRSWM2
0157065900999991998010907004+49617+006217SY-MT+0379ELLX V0202501N00151004501CN0150001N1+00741+00501103021ADDAG10999GA1071+004509999GF107991071051004501999999MA1102911098421MD1310121+9999OA149900261REMSYN023 333 87615 91105 91204;MET008NEW NOSIEQDQ01+000000PRSWM2
0157065900999991998010908004+49617+006217SY-MT+0379ELLX V0202401N00151004501CN0150001N1+00771+00531103071ADDAG10999GA1071+004509999GF107991071051004501999999MA1102911098471MD1210171+9999OA149900361REMSYN023 333 87615 91107 91204;MET008NEW NOSIEQDQ01+000000PRSWM2
0157065900999991998010909004+49617+006217SY-MT+0379ELLX V0202301N00101003601CN0150001N1+00771+00551103141ADDAG10000GA1071+003609999GF107991071051004501999999MA1103011098541MD1210191+9999OA149900361REMSYN023 333 87612 91107 91204;MET008NEW NOSIEQDQ01+000000PRSWM2
0173065900999991998010910004+49617+006217SY-MT+0379ELLX V0202301N00101220001CN0150001N1+00851+00561103161ADDAG10999GA1071+003609999GF199999021051004501031001MA1103011098571MD1210151+9999OA149900211REMSYN023 333 82612 91104 91203;MET008NEW NOSIEQDQ01+000042SCOTCVQ02+000000PRSWM2
0179065900999991998010911004+49617+006217SY-MT+0379ELLX V0202401N00151012001CN0150001N1+00881+00551103201ADDAG10999GA1021+006009999GA2071+012009999GF107991071051008001999999MA1103121098611MD1210141+9999OA149900261REMSYN029 333 82620 86640 91105 91203;MET008NEW NOSIEQDQ01+000000PRSWM2
0168065900999991998010912004+49617+006217SY-MT+0379ELLX V0202301N00151013501CN0200001N1+00961+00561103191ADDAA106000091AG10000GA1071+013509999GF107991071051012501999999MA1103121098621MD1210081+9999OA149900361REMSYN023 333 87645 91107 91204;MET008NEW NOSIEQDQ01+000000PRSWM2
0157065900999991998010913004+49617+006217SY-MT+0379ELLX V0202501N00151012001CN0200001N1+01001+00541103191ADDAG10999GA1071+012009999GF107991071051012501999999MA1103121098621MD1110051+9999OA149900261REMSYN023 333 87640 91105 91203;MET008NEW NOSIEQDQ01+000000PRSWM2
0165065900999991998010914004+49617+006217SY-MT+0379ELLX V0202501N001510150019N0280001N1+01051+00571103171ADDAG10999GA1071+015009059GF107991071051017501999999MA1103121098611MD1010001+9999OA149900261REMSYN023 333 87650 91105 91203;MET016NEW CAVOK NOSIG;EQDQ01+000000PRSWM2
0181065900999991998010915004+49617+006217SY-MT+0379ELLX V0202201N00101015001CN0300001N1+01021+00601103171ADDAG10000GA1071+015009059GF107991071051017501999021MA1103121098611MD1710011+9999OA149900361REMSYN023 333 87650 91107 91203;MET016NEW CAVOK NOSIG;EQDQ01+000000PRSWM2Q02    003SCOMCG
0181065900999991998010916004+49617+006217SY-MT+0379ELLX V0202301N00101015001CN0300001N1+00981+00581103171ADDAG10999GA1051+015009059GF105991051051017501999001MA1103121098601MD1710021+9999OA149900261REMSYN023 333 85650 91105 91203;MET016NEW CAVOK NOSIG;EQDQ01+000000PRSWM2Q02    003SCOMCG
0181065900999991998010917004+49617+006217SY-MT+0379ELLX V0202101N00101220001CN0250001N1+00771+00471103191ADDAG10999GA1011+018009059GF101991011051017501999001MA1103121098591MD1810021+9999OA149900211REMSYN023 333 81656 91104 91202;MET016NEW CAVOK NOSIG;EQDQ01+000000PRSWM2Q02    003SCOMCG
0173065900999991998010918004+49617+006217SY-MT+0379ELLX V0209991C00001220001CN0250001N1+00821+00531103201ADDAA106000091AG10000GF100991001001999999001001KA1120M+01061MA1103121098601MD1510011+9999OA149900361REMSYN023 333 10106 91107 91203;MET016NEW CAVOK NOSIG;EQDQ01+000000PRSWM2
0143065900999991998010919004+49617+006217SY-MT+0379ELLX V0209991C00001220001CN0250001N1+00761+00521103211ADDAG10999GF100991001001999999001001MA1103121098601MD1510001+9999OA149900101REMSYN017 333 91102 91201;MET016NEW CAVOK NOSIG;EQDQ01+000000PRSWM2
0143065900999991998010920004+49617+006217SY-MT+0379ELLX V0209991C00001220001CN0250001N1+00771+00531103191ADDAG10999GF100991001001999999001001MA1103011098591MD1010001+9999OA149900101REMSYN017 333 91102 91200;MET016NEW CAVOK NOSIG;EQDQ01+000000PRSWM2
0143065900999991998010921004+49617+006217SY-MT+0379ELLX V0209991V00051220001CN0250001N1+00731+00501103211ADDAG10000GF100991001001999999001001MA1103121098601MD1510001+9999OA149900101REMSYN017 333 91102 91201;MET016NEW CAVOK NOSIG;EQDQ01+000000PRSWM2
0143065900999991998010922004+49617+006217SY-MT+0379ELLX V0201501N00051220001CN0200001N1+00691+00461103201ADDAG10999GF100991001001999999001001MA1103011098581MD1810021+9999OA149900151REMSYN017 333 91103 91201;MET016NEW CAVOK NOSIG;EQDQ01+000000PRSWM2
0143065900999991998010923004+49617+006217SY-MT+0379ELLX V0209991C00001220001CN0200001N1+00651+00431103191ADDAG10999GF100991001001999999001001MA1103011098571MD1810021+9999OA149900101REMSYN017 333 91102 91201;MET016NEW CAVOK NOSIG;EQDQ01+000000PRSWM2
0154065900999991998011000004+49617+006217SY-MT+0379ELLX V0209991C00001220001CN0150001N1+00611+00411103181ADDAA106000091AG10000GF100991001001999999001001MA1103011098551MD1710051+9999OA149900151REMSYN017 333 91103 91201;MET016NEW CAVOK NOSIG;EQDQ01+000000PRSWM2
0106065900999991998011001004+49617+006217SY-MT+0379ELLX V0201101N000519999999N0100001N1+00591+00361103111ADDAG10999MA1102911098481MD1710101+9999OA149900101REMSYN017 333 91102 91201;MET005NEW ;EQDQ01+000000PRSWM2
0106065900999991998011002004+49617+006217SY-MT+0379ELLX V0201001N000519999999N0100001N1+00591+00341103101ADDAG10999MA1102911098471MD1710101+9999OA149900101REMSYN017 333 91102 91201;MET005NEW ;EQDQ01+000000PRSWM2
0143065900999991998011003004+49617+006217SY-MT+0379ELLX V0200901N00051220001CN0150001N1+00491+00311103071ADDAG10000GF100991001001999999001001MA1102911098431MD1710121+9999OA149900151REMSYN017 333 91103 91202;MET016NEW CAVOK NOSIG;EQDQ01+000000PRSWM2
0143065900999991998011005004+49617+006217SY-MT+0379ELLX V0201301N00051220001CN0100001N1+00391+00191103031ADDAG10999GF100991001001999999001001MA1102811098371MD1710101+9999OA149900151REMSYN017 333 91103 91202;MET016NEW CAVOK NOSIG;EQDQ01+000000PRSWM2
0197065900999991998011006004+49617+006217SY-MT+0379ELLX V0201301N00051220001CN0100001N1+00451+00201103021ADDAA106000091AG10000GF100991001001999999001001IA1099IA2999+00109KA1120N+00361MA1102811098371MD1610061+9999OA149900151REMSYN029 333 20036 31001 91103 91202;MET016NEW CAVOK NOSIG;EQDQ01+000000PRSWM2
0143065900999991998011007004+49617+006217SY-MT+0379ELLX V0201401N00051220001CN0100001N1+00401+00121103031ADDAG10999GF100991001001999999001001MA1102811098371MD1610031+9999OA149900211REMSYN017 333 91104 91201;MET016NEW CAVOK NOSIG;EQDQ01+000000PRSWM2
0143065900999991998011008004+49617+006217SY-MT+0379ELLX V0201401N00051220001CN0150001N1+00331+00071103051ADDAG10999GF100991001001999999001001MA1102811098381MD1310011+9999OA149900151REMSYN017 333 91103 91201;MET016NEW CAVOK NOSIG;EQDQ01+000000PRSWM2
0165065900999991998011009004+49617+006217SY-MT+0379ELLX V0209991V00051220001CN0150001N1+00421+00121103031ADDAG10000GA1011+030009039GF101991011001999999031001MA1102811098381MD1110011+9999OA149900211REMSYN023 333 81360 91104 91202;MET016NEW CAVOK NOSIG;EQDQ01+000000PRSWM2
0165065900999991998011010004+49617+006217SY-MT+0379ELLX V0209991V00051220001CN0150001N1+00611+00181103001ADDAG10999GA1011+060009009GF101991001001999999001021MA1102811098381MD1110011+9999OA149900211REMSYN023 333 81070 91104 91201;MET016NEW CAVOK NOSIG;EQDQ01+000000PRSWM2
0165065900999991998011011004+49617+006217SY-MT+0379ELLX V0201801N00101220001CN0150001N1+00731+00161102971ADDAG10999GA1011+060009009GF101991001001999999001021MA1102811098371MD1810011+9999OA149900211REMSYN023 333 81070 91104 91202;MET016NEW CAVOK NOSIG;EQDQ01+000000PRSWM2
0176065900999991998011012004+49617+006217SY-MT+0379ELLX V0201901N00101220001CN0180001N1+00771+00221102951ADDAA106000091AG10000GA1011+060009009GF101991001001999999001011MA1102811098361MD1810021+9999OA149900311REMSYN023 333 81070 91106 91203;MET016NEW CAVOK NOSIG;EQDQ01+000000PRSWM2
0165065900999991998011013004+49617+006217SY-MT+0379ELLX V0201701N00101220001CN0180001N1+00891+00181102871ADDAG10999GA1011+060009009GF101991001001999999001011MA1102711098301MD1710081+9999OA149900261REMSYN023 333 81070 91105 91203;MET016NEW CAVOK NOSIG;EQDQ01+000000PRSWM2
0165065900999991998011014004+49617+006217SY-MT+0379ELLX V0201801N00101220001CN0150001N1+00911+00181102831ADDAG10999GA1011+060009009GF101991001001999999001011MA1102711098261MD1710111+9999OA149900261REMSYN023 333 81070 91105 91203;MET016NEW CAVOK NOSIG;EQDQ01+000000PRSWM2
0165065900999991998011015004+49617+006217SY-MT+0379ELLX V0209991V00051220001CN0150001N1+00881+00241102781ADDAG10000GA1021+060009009GF102991001001999999001011MA1102611098211MD1710151+9999OA149900311REMSYN023 333 82070 91106 91203;MET016NEW CAVOK NOSIG;EQDQ01+000000PRSWM2
0165065900999991998011016004+49617+006217SY-MT+0379ELLX V0209991V00051220001CN0150001N1+00791+00221102771ADDAG10999GA1021+060009009GF102991001001999999001011MA1102611098191MD1710111+9999OA149900211REMSYN023 333 82070 91104 91201;MET016NEW CAVOK NOSIG;EQDQ01+000000PRSWM2
0165065900999991998011017004+49617+006217SY-MT+0379ELLX V0201301N00051220001CN0200001N1+00701+00171102761ADDAG10999GA1021+060009009GF102991001001999999001011MA1102611098161MD1710101+9999OA149900151REMSYN023 333 82070 91103 91202;MET016NEW CAVOK NOSIG;EQDQ01+000000PRSWM2
0195065900999991998011018004+49617+006217SY-MT+0379ELLX V0201401N00101220001CN0200001N1+00621+00131102731ADDAA106000091AG10000GA1021+060009009GF102991001001999999001011KA1120M+00931MA1102611098121MD1710091+9999OA149900311REMSYN029 333 10093 82070 91106 91203;MET016NEW CAVOK NOSIG;EQDQ01+000000PRSWM2
0165065900999991998011019004+49617+006217SY-MT+0379ELLX V0201301N00051220001CN0200001N1+00671+00061102711ADDAG10999GA1021+060009009GF102991001001999999001011MA1102511098111MD1710081+9999OA149900151REMSYN023 333 82070 91103 91202;MET016NEW CAVOK NOSIG;EQDQ01+000000PRSWM2
0101065900999991998011019504+49617+006217FM-15+0379ELLX V0201101N00101999991CY0099001N1+00701+00001102661ADDAG10999MA1102511098071REMMET016NEW CAVOK NOSIG;EQDQ01+999990APOSP Q02+999990APOSLPQ03+000000PRSWM2
0157065900999991998011021004+49617+006217SY-MT+0379ELLX V0201001N00101220001CN0200001N1+00511+00051102681ADDAG10000GA1021+060009009GF102991001001999999001021MA1102511098061MD1710061+9999OA149900211REMSYN023 333 82070 91104 91202;MET008NEW CAVOEQDQ01+000000PRSWM2
0165065900999991998011023004+49617+006217SY-MT+0379ELLX V0209991C00001220001CN0200001N1+00471+00101102661ADDAG10999GA1011+060009009GF101991001001999999001011MA1102511098031MD1810061+9999OA149900051REMSYN023 333 81070 91101 91201;MET016NEW CAVOK NOSIG;EQDQ01+000000PRSWM2
0154065900999991998011100004+49617+006217SY-MT+0379ELLX V0209991C00001220001CN0200001N1+00491+00081102621ADDAA106000091AG10000GF100991001001999999001001MA1102401098001MD1810061+9999OA149900211REMSYN017 333 91104 91202;MET016NEW CAVOK NOSIG;EQDQ01+000000PRSWM2
0106065900999991998011101004+49617+006217SY-MT+0379ELLX V0201201N000519999999N0100001N1+00321-00011102621ADDAG10999MA1102401097971MD1710091+9999OA149900101REMSYN017 333 91102 91201;MET005NEW ;EQDQ01+000000PRSWM2
0106065900999991998011102004+49617+006217SY-MT+0379ELLX V0209991V000519999999N0100001N1+00401+00001102581ADDAG10999MA1102401097941MD1710091+9999OA149900101REMSYN017 333 91102 91201;MET005NEW ;EQDQ01+000000PRSWM2
0165065900999991998011103004+49617+006217SY-MT+0379ELLX V0201501N00101220001CN0100001N1+00301-00011102551ADDAG10000GA1031+060009009GF103991001001999999001021MA1102301097901MD1710101+9999OA149900211REMSYN023 333 83070 91104 91202;MET016NEW CAVOK NOSIG;EQDQ01+000000PRSWM2
0101065900999991998011104204+49617+006217FM-15+0379ELLX V0201401N00261999991CY0099001N1+00301+00001102421ADDAG10999MA1102201097781REMMET016NEW CAVOK NOSIG;EQDQ01+999990APOSP Q02+999990APOSLPQ03+000000PRSWM2
0165065900999991998011105004+49617+006217SY-MT+0379ELLX V0201401N00101220001CN0200001N1+00231-00051102461ADDAG10999GA1011+060009009GF101991001001999999001021MA1102201097801MD1710141+9999OA149900211REMSYN023 333 81070 91104 91202;MET016NEW CAVOK NOSIG;EQDQ01+000000PRSWM2
0219065900999991998011106004+49617+006217SY-MT+0379ELLX V0201401N00051220001CN0150001N1+00241-00021102451ADDAA106000091AG10000GA1011+060009009GF101991001001999999001021IA1099IA2999-00109KA1120N+00201MA1102201097791MD1710111+9999OA149900211REMSYN035 333 20020 31101 81070 91104 91203;MET016NEW CAVOK NOSIG;EQDQ01+000000PRSWM2
0165065900999991998011107004+49617+006217SY-MT+0379ELLX V0201601N00101220001CN0100001N1+00171-00051102461ADDAG10999GA1011+030009039GF101991011001999999031021MA1102201097791MD1610061+9999OA149900151REMSYN023 333 81360 91103 91202;MET016NEW CAVOK NOSIG;EQDQ01+000000PRSWM2
0157065900999991998011108004+49617+006217SY-MT+0379ELLX V0201401N00051220001CN0080001N1+00181-00041102461ADDAG10999GA1021+060009999GF102991021001999999031021MA1102201097791MD1610011+9999OA149900151REMSYN023 333 82362 91103 91202;MET008NEW NOSIEQDQ01+000000PRSWM2
0165065900999991998011109004+49617+006217SY-MT+0379ELLX V0201501N00051220001CN0100001N1+00271+00011102421ADDAG10000GA1011+036009039GF101991011001999999031021MA1102201097771MD1810021+9999OA149900261REMSYN023 333 81362 91105 91202;MET016NEW CAVOK NOSIG;EQDQ01+000000PRSWM2
0165065900999991998011110004+49617+006217SY-MT+0379ELLX V0201701N00151220001CN0100001N1+00431+00061102411ADDAG10999GA1011+036009039GF101991011001999999031021MA1102201097791MD1510001+9999OA149900261REMSYN023 333 81362 91105 91203;MET016NEW CAVOK NOSIG;EQDQ01+000000PRSWM2
0176065900999991998011112004+49617+006217SY-MT+0379ELLX V0201801N00151220001CN0100001N1+00621+00131102331ADDAA106000091AG10000GA1011+060009009GF101991001001999999001021MA1102201097741MD1810031+9999OA149900311REMSYN023 333 81070 91106 91203;MET016NEW CAVOK NOSIG;EQDQ01+000000PRSWM2
0165065900999991998011113004+49617+006217SY-MT+0379ELLX V0201701N00151220001CN0110001N1+00701+00171102291ADDAG10999GA1011+060009009GF101991001001999999001021MA1102101097711MD1710081+9999OA149900571REMSYN023 333 81070 91111 91204;MET016NEW CAVOK NOSIG;EQDQ01+000000PRSWM2
0165065900999991998011115004+49617+006217SY-MT+0379ELLX V0201901N00101220001CN0100001N1+00741+00231102261ADDAG10000GA1011+030009039GF101991011001999999031021MA1102101097691MD1610051+9999OA149900571REMSYN023 333 81360 91111 91204;MET016NEW CAVOK NOSIG;EQDQ01+000000PRSWM2
0165065900999991998011116004+49617+006217SY-MT+0379ELLX V0201901N00101220001CN0100001N1+00601+00171102271ADDAG10999GA1021+030009039GF102991021001999999031021MA1102101097681MD1810031+9999OA149900151REMSYN023 333 82360 91103 91202;MET016NEW CAVOK NOSIG;EQDQ01+000000PRSWM2
0165065900999991998011117004+49617+006217SY-MT+0379ELLX V0201701N00101220001CN0200001N1+00561+00211102261ADDAG10999GA1021+030009039GF102991021001999999031021MA1102101097661MD1810031+9999OA149900311REMSYN023 333 82360 91106 91202;MET016NEW CAVOK NOSIG;EQDQ01+000000PRSWM2
0195065900999991998011118004+49617+006217SY-MT+0379ELLX V0201701N00051220001CN0200001N1+00571+00241102241ADDAA106000091AG10000GA1021+030009039GF102991021001999999031021KA1120M+00801MA1102101097651MD1710041+9999OA149900571REMSYN029 333 10080 82360 91111 91204;MET016NEW CAVOK NOSIG;EQDQ01+000000PRSWM2
0165065900999991998011119004+49617+006217SY-MT+0379ELLX V0201901N00101220001CN0200001N1+00491+00231102271ADDAG10999GA1011+030009039GF102991011001999999031021MA1102101097661MD1510021+9999OA149900151REMSYN023 333 81360 91103 91202;MET016NEW CAVOK NOSIG;EQDQ01+000000PRSWM2
0165065900999991998011120004+49617+006217SY-MT+0379ELLX V0209991C00001220001CN0200001N1+00471+00211102241ADDAG10999GA1011+030009039GF102991011001999999031021MA1102001097631MD1810031+9999OA149900261REMSYN023 333 81360 91105 91203;MET016NEW CAVOK NOSIG;EQDQ01+000000PRSWM2
0165065900999991998011121004+49617+006217SY-MT+0379ELLX V0209991V00051220001CN0150001N1+00381+00121102301ADDAG10000GA1011+060009009GF101991001001999999001021MA1102101097671MD1310021+9999OA149900261REMSYN023 333 81070 91105 91203;MET016NEW CAVOK NOSIG;EQDQ01+000000PRSWM2
0165065900999991998011122004+49617+006217SY-MT+0379ELLX V0209991V00051220001CN0150001N1+00401+00121102301ADDAG10999GA1011+060009009GF101991001001999999001021MA1102101097681MD1310021+9999OA149900151REMSYN023 333 81070 91103 91201;MET016NEW CAVOK NOSIG;EQDQ01+000000PRSWM2
0143065900999991998011123004+49617+006217SY-MT+0379ELLX V0201901N00101220001CN0150001N1+00361+00081102331ADDAG10999GF100991001001999999001001MA1102101097701MD1210071+9999OA149900151REMSYN017 333 91103 91202;MET016NEW CAVOK NOSIG;EQDQ01+000000PRSWM2
0154065900999991998011200004+49617+006217SY-MT+0379ELLX V0209991C00001220001CN0150001N1+00391+00111102341ADDAA106000091AG10000GF100991001001999999001001MA1102101097711MD1210041+9999OA149900261REMSYN017 333 91105 91203;MET016NEW CAVOK NOSIG;EQDQ01+000000PRSWM2
0106065900999991998011201004+49617+006217SY-MT+0379ELLX V0209991V000519999999N0100001N1+00361+00121102331ADDAG10999MA1102101097701MD1010021+9999OA149900151REMSYN017 333 91103 91201;MET005NEW ;EQDQ01+000000PRSWM2
0106065900999991998011202004+49617+006217SY-MT+0379ELLX V0201901N001019999999N0100001N1+00321+00091102341ADDAG10999MA1102101097701MD1010001+9999OA149900211REMSYN017 333 91104 91202;MET005NEW ;EQDQ01+000000PRSWM2
0143065900999991998011203004+49617+006217SY-MT+0379ELLX V0201801N00051220001CN0150001N1+00281+00071102341ADDAG10000GF100991001001999999001001MA1102101097691MD1810021+9999OA149900211REMSYN017 333 91104 91202;MET016NEW CAVOK NOSIG;EQDQ01+000000PRSWM2
0143065900999991998011204004+49617+006217SY-MT+0379ELLX V0209991V00051220001CN0120001N1+00331+00121102301ADDAG10999GF100991001001999999001001MA1102101097661MD1810041+9999OA149900151REMSYN017 333 91103 91202;MET016NEW CAVOK NOSIG;EQDQ01+000000PRSWM2
0143065900999991998011205004+49617+006217SY-MT+0379ELLX V0209991V00051220001CN0120001N1+00331+00121102301ADDAG10999GF100991001001999999001001MA1102101097661MD1610041+9999OA149900101REMSYN017 333 91102 91201;MET016NEW CAVOK NOSIG;EQDQ01+000000PRSWM2
0197065900999991998011206004+49617+006217SY-MT+0379ELLX V0201801N00051220001CN0150001N1+00291+00051102271ADDAA106000091AG10000GF100991001001999999001001IA1149IA2999-00109KA1120N+00271MA1102001097631MD1810061+9999OA149900211REMSYN029 333 20027 34101 91104 91202;MET016NEW CAVOK NOSIG;EQDQ01+000000PRSWM2
0165065900999991998011207004+49617+006217SY-MT+0379ELLX V0209991V00051220001CN0100001N1+00311+00101102291ADDAG10999GA1021+060009009GF102991001001999999001021MA1102101097651MD1510011+9999OA149900151REMSYN023 333 82070 91103 91201;MET016NEW CAVOK NOSIG;EQDQ01+000000PRSWM2
0187065900999991998011208004+49617+006217SY-MT+0379ELLX V0209991V000510600019N0100001N1+00291+00101102261ADDAG10999GA1021+030009039GA2061+060009009GF106991021001999999031021MA1102001097621MD1810041+9999OA149900101REMSYN029 333 82360 86070 91102 91201;MET016NEW CAVOK NOSIG;EQDQ01+000000PRSWM2
0187065900999991998011209004+49617+006217SY-MT+0379ELLX V0201801N000510600019N0100001N1+00351+00151102281ADDAG10000GA1021+030009039GA2061+060009009GF106991021001999999031021MA1102101097651MD1310021+9999OA149900151REMSYN029 333 82360 86070 91103 91202;MET016NEW CAVOK NOSIG;EQDQ01+000000PRSWM2
0187065900999991998011210004+49617+006217SY-MT+0379ELLX V0201701N000510600019N0100001N1+00451+00201102221ADDAG10999GA1021+030009039GA2061+060009009GF106991021001999999031021MA1102001097611MD1810041+9999OA149900151REMSYN029 333 82360 86070 91103 91202;MET016NEW CAVOK NOSIG;EQDQ01+000000PRSWM2
0176065900999991998011212004+49617+006217SY-MT+0379ELLX V0201801N001010600019N0110001N1+00681+00311102121ADDAA106000091AG10000GA1061+060009009GF106991001001999999001021MA1102001097551MD1710101+9999OA149900311REMSYN023 333 86070 91106 91203;MET016NEW CAVOK NOSIG;EQDQ01+000000PRSWM2
0165065900999991998011213004+49617+006217SY-MT+0379ELLX V0201601N001010600019N0110001N1+00711+00301102061ADDAG10999GA1061+060009009GF106991001001999999001021MA1101901097501MD1710111+9999OA149900261REMSYN023 333 86070 91105 91203;MET016NEW CAVOK NOSIG;EQDQ01+000000PRSWM2
0187065900999991998011214004+49617+006217SY-MT+0379ELLX V0201701N001010600019N0100001N1+00791+00321101991ADDAG10999GA1011+030009039GA2051+060009009GF105991011001999999031021MA1101901097441MD1710151+9999OA149900311REMSYN029 333 81360 85070 91106 91202;MET016NEW CAVOK NOSIG;EQDQ01+000000PRSWM2
0187065900999991998011215004+49617+006217SY-MT+0379ELLX V0201701N001510600019N0100001N1+00791+00321101981ADDAG10000GA1021+030009039GA2051+060009009GF106991021001999999031021MA1101801097431MD1710121+9999OA149900311REMSYN029 333 82360 85070 91106 91204;MET016NEW CAVOK NOSIG;EQDQ01+000000PRSWM2
0187065900999991998011216004+49617+006217SY-MT+0379ELLX V0201701N001010600019N0100001N1+00671+00311102001ADDAG10999GA1021+030009039GA2051+060009009GF106991021001999999031021MA1101801097431MD1610071+9999OA149900311REMSYN029 333 82360 85070 91106 91203;MET016NEW CAVOK NOSIG;EQDQ01+000000PRSWM2
0187065900999991998011217004+49617+006217SY-MT+0379ELLX V0201401N001010600019N0180001N1+00641+00291101961ADDAG10999GA1021+030009039GA2051+060009009GF106991021001999999031021MA1101801097391MD1810051+9999OA149900211REMSYN029 333 82360 85070 91104 91202;MET016NEW CAVOK NOSIG;EQDQ01+000000PRSWM2
0217065900999991998011218004+49617+006217SY-MT+0379ELLX V0209991C000010600019N0200001N1+00621+00271101911ADDAA106000091AG10000GA1021+030009039GA2051+060009009GF106991021001999999031021KA1120M+00861MA1101691097341MD1810091+9999OA149900311REMSYN035 333 10086 82360 85070 91106 91204;MET016NEW CAVOK NOSIG;EQDQ01+000000PRSWM2
0187065900999991998011219004+49617+006217SY-MT+0379ELLX V0209991V000510600019N0200001N1+00561+00241101901ADDAG10999GA1021+030009039GA2051+060009009GF106991021001999999031021MA1101691097321MD1710111+9999OA149900101REMSYN029 333 82360 85070 91102 91201;MET016NEW CAVOK NOSIG;EQDQ01+000000PRSWM2
0187065900999991998011221004+49617+006217SY-MT+0379ELLX V0201801N00101220001CN0200001N1+00521+00261101811ADDAG10000GA1021+030009039GA2031+060009009GF103991021001999999031021MA1101591097231MD1710111+9999OA149900211REMSYN029 333 82360 83070 91104 91203;MET016NEW CAVOK NOSIG;EQDQ01+000000PRSWM2
0187065900999991998011222004+49617+006217SY-MT+0379ELLX V0201701N00101220001CN0200001N1+00501+00221101761ADDAG10999GA1011+030009039GA2031+060009009GF103991011001999999031021MA1101591097181MD1710141+9999OA149900211REMSYN029 333 81360 83070 91104 91203;MET016NEW CAVOK NOSIG;EQDQ01+000000PRSWM2
0176065900999991998011223004+49617+006217SY-MT+0379ELLX V0202201N001010600019N0200001N1+00521+00201101701ADDAG10999GA1011+030009039GA2061+060009009GF106991011001999999031021MA1101491097121MD1710171+9999OA149900411REMSYN029 333 81360 86070 91108 91203;MET005NEW ;EQDQ01+000000PRSWM2
0117065900999991998011300004+49617+006217SY-MT+0379ELLX V0209991V000519999999N0100001N1+00521+00191101661ADDAA106000091AG10000MA1101491097081MD1710151+9999OA149900411REMSYN017 333 91108 91203;MET005NEW ;EQDQ01+000000PRSWM2
0106065900999991998011301004+49617+006217SY-MT+0379ELLX V0201601N001019999999N0100001N1+00461+00161101611ADDAG10999MA1101391097031MD1710151+9999OA149900211REMSYN017 333 91104 91202;MET005NEW ;EQDQ01+000000PRSWM2
0106065900999991998011302004+49617+006217SY-MT+0379ELLX V0201801N001019999999N0100001N1+00441+00161101561ADDAG10999MA1101391096981MD1710141+9999OA149900151REMSYN017 333 91103 91202;MET005NEW ;EQDQ01+000000PRSWM2
0151065900999991998011302504+49617+006217FM-15+0379ELLX V0201701N002610600019N0112651N1+00501+00201101471ADDAG10000GA1021+012009999GA2071+060009999GF107991999999999999999999MA1101291096901REMMET008NEW NOSIEQDQ01+999990APOSP Q02+999990APOSLPQ03+000000PRSWM2
0101065900999991998011303504+49617+006217FM-15+0379ELLX V0201701N00311999991CY0099001N1+00501+00201101361ADDAG10999MA1101191096801REMMET016NEW CAVOK NOSIG;EQDQ01+999990APOSP Q02+999990APOSLPQ03+000000PRSWM2
0165065900999991998011305004+49617+006217SY-MT+0379ELLX V0201701N00151220001CN0200001N1+00481+00181101341ADDAG10999GA1031+060009009GF103991001001999999001011MA1101191096771MD1710211+9999OA149900261REMSYN023 333 83070 91105 91203;MET016NEW CAVOK NOSIG;EQDQ01+000000PRSWM2
0165065900999991998011308004+49617+006217SY-MT+0379ELLX V0201301N00051220001CN0100001N1+00381+00141101281ADDAG10999GA1031+060009009GF103991001001999999001011MA1101081096701MD1710071+9999OA149900151REMSYN023 333 83070 91103 91202;MET016NEW CAVOK NOSIG;EQDQ01+000000PRSWM2
0187065900999991998011309004+49617+006217SY-MT+0379ELLX V0201601N001010600019N0150001N1+00481+00161101261ADDAG10000GA1021+030009039GA2071+060009009GF107991021001999999031021MA1101081096701MD1610031+9999OA149900211REMSYN029 333 82360 87070 91104 91202;MET016NEW CAVOK NOSIG;EQDQ01+000000PRSWM2
0219065900999991998011310004+49617+006217SY-MT+0379ELLX V0201801N00151060001CN0150001N1+00631+00241101241ADDAG10999GA1021+030009039GA2071+060009029GF107991021031999999999071MA1101081096701MD1610011+9999OA149900261REMSYN029 333 82360 87270 91105 91203;MET016NEW CAVOK NOSIG;EQDQ01+000992SCOLCBQ02+000002SCOMCGQ03+000000PRSWM2
0219065900999991998011311004+49617+006217SY-MT+0379ELLX V0201801N001510600019N0150001N1+00741+00271101181ADDAG10999GA1021+030009039GA2071+060009029GF107991021031999999999071MA1101021096661MD1810041+9999OA149900461REMSYN029 333 82360 87270 91109 91203;MET016NEW CAVOK NOSIG;EQDQ01+000992SCOLCBQ02+000002SCOMCGQ03+000000PRSWM2
0198065900999991998011312004+49617+006217SY-MT+0379ELLX V0201701N002110300019N0150001N1+00821+00311101111ADDAA106000091AG10000GA1051+030009039GA2071+060009029GF107991051001999999031071MA1101021096611MD1810091+9999OA149900461REMSYN029 333 85360 87270 91109 91204;MET016NEW CAVOK NOSIG;EQDQ01+000000PRSWM2
0187065900999991998011313004+49617+006217SY-MT+0379ELLX V0201701N00211060001CN0200001N1+01031+00401101031ADDAG10999GA1021+030009039GA2061+060009009GF106991021001999999031021MA1100911096561MD1710141+9999OA149900411REMSYN029 333 82360 86070 91108 91205;MET016NEW CAVOK NOSIG;EQDQ01+000000PRSWM2
0195065900999991998011314004+49617+006217SY-MT+0379ELLX V0201701N00151009001CN0150001N1+00981+00381101011ADDAG10999GA1071+009009999GF199999031001999999031021MA1100911096541MD1710121+9999OA149900621REMSYN029 333 83360 85070 91112 91204;MET008NEW NOSIEQDQ01+000062SCOTCVQ02+000992SCOLCBQ03+000000PRSWM2
0166065900999991998011315004+49617+006217SY-MT+0379ELLX V0202001N00151008401CN0140001N1+00941+00441101031ADDAG10001AY121031AY221031GA1071+008409999GF107991071051008001999999MA1100911096551MD1510061+9999MW1601MW2611OA149900621REMSYN023 333 87629 91112 91205;MET008NEW NOSI
0201065900999991998011316004+49617+006217SY-MT+0379ELLX V0201501N00051013501CN0150001N1+00831+00511101001ADDAG10999AY161011AY261011GA1021+003609999GA2071+013509999GF107991071051004501999999MA1100911096501MD1810061+9999MW1611OA149900261REMSYN029 333 83612 87644 91105 91203;MET008NEW NOSIEQDQ01+000000PRSWM2
0179065900999991998011317004+49617+006217SY-MT+0379ELLX V0201801N00151013501CN0250001N1+00871+00531100971ADDAG10999AY121021AY221021GA1071+013509999GF107991071051012501999999MA1100911096481MD1810061+9999MW1211OA149900261REMSYN023 333 87645 91105 91203;MET008NEW NOSIEQDQ01+000000PRSWM2
0201065900999991998011319004+49617+006217SY-MT+0379ELLX V0201501N00151015001CN0200001N1+00791+00521100931ADDAG10999AY121041AY221041GA1021+009009999GA2071+015009999GF107991071051008001999999MA1100811096431MD1710071+9999MW1211OA149900361REMSYN029 333 83630 87650 91107 91204;MET008NEW NOSIEQDQ01+000000PRSWM2
0179065900999991998011320004+49617+006217SY-MT+0379ELLX V0201601N00151013501CN0200001N1+00821+00481100881ADDAG10999AY121051AY221051GA1071+013509999GF107991071051012501999999MA1100811096391MD1710091+9999MW1581OA149900261REMSYN023 333 87645 91105 91203;MET008NEW NOSIEQDQ01+000000PRSWM2
0166065900999991998011321004+49617+006217SY-MT+0379ELLX V0201801N00151012001CN0200001N1+00781+00531100911ADDAG10001AY121031AY221031GA1071+012009999GF107991071051012501999999MA1100811096411MD1510051+9999MW1601MW2611OA149900361REMSYN023 333 87640 91107 91204;MET008NEW NOSI
0182065900999991998011322004+49617+006217SY-MT+0379ELLX V0201801N00151013501CN0180001N1+00791+00541100911ADDAG10999AY161011AY261011GA1021+009009999GA2071+013509999GF108991071051008001999999MA1100811096411MD1510021+9999MW1611OA149900311REMSYN029 333 83630 87645 91106 91204;MET008NEW NOSI
0217065900999991998011323004+49617+006217SY-MT+0379ELLX V0201801N00151013501CN0220001N1+00741+00541100931ADDAG10999AY121021AY221021GA1071+013509999GA2071+060009999GF199999051051012501031021MA1100811096421MD1310031+9999MW1211OA149900311REMSYN029 333 85645 85070 91106 91203;MET008NEW NOSIEQDQ01+000062SCOTCVQ02+000000PRSWM2
0214065900999991998011400004+49617+006217SY-MT+0379ELLX V0201901N00211220001CN0250001N1+00681+00481100931ADDAA106001091AG10001AY161061AY211061GA1021+015009059GF102991021051017501999021MA1100811096411MD1310011+9999MW1011OA149900361REMSYN023 333 82650 91107 91204;MET016NEW CAVOK NOSIG;EQDQ01+000000PRSWM2Q02    003SCOMCG
0106065900999991998011401004+49617+006217SY-MT+0379ELLX V0201801N001519999999N0100001N1+00621+00401100931ADDAG10999MA1100811096401MD1810011+9999OA149900311REMSYN017 333 91106 91204;MET005NEW ;EQDQ01+000000PRSWM2
0106065900999991998011402004+49617+006217SY-MT+0379ELLX V0201801N001019999999N0100001N1+00561+00361100881ADDAG10999MA1100711096351MD1710071+9999OA149900261REMSYN017 333 91105 91203;MET005NEW ;EQDQ01+000000PRSWM2
0181065900999991998011403004+49617+006217SY-MT+0379ELLX V0201901N00101220001CN0220001N1+00521+00341100911ADDAG10000GA1011+015009059GF101991011051017501999021MA1100711096371MD1510041+9999OA149900311REMSYN023 333 81650 91106 91204;MET016NEW CAVOK NOSIG;EQDQ01+000000PRSWM2Q02    003SCOMCG
0157065900999991998011404004+49617+006217SY-MT+0379ELLX V0202101N00151009601CN0200001N1+00581+00311100861ADDAG10999GA1071+009609999GF107991071051008001999999MA1100711096331MD1810071+9999OA149900311REMSYN023 333 87632 91106 91203;MET008NEW NOSIEQDQ01+000000PRSWM2
0157065900999991998011405004+49617+006217SY-MT+0379ELLX V0202001N00211009001CN0200001N1+00611+00291100871ADDAG10999GA1071+009009999GF107991071051008001999999MA1100711096341MD1510011+9999OA149900411REMSYN023 333 87630 91108 91204;MET008NEW NOSIEQDQ01+000000PRSWM2
0146065900999991998011405504+49617+006217FM-15+0379ELLX V0202101N005110096019N0112651N1+00701+00201100851ADDAA106000091AG10000GA1071+009609999GF107991999999999999999999MA1100711096341REMMET008NEW NOSIEQDQ01+999990APOSP Q02+999990APOSLPQ03+000000PRSWM2
0157065900999991998011407004+49617+006217SY-MT+0379ELLX V0202101N00211007501CN0100001N1+00671+00281100941ADDAG10999GA1071+007509999GF107991071051008001999999MA1100811096421MD1310091+9999OA149900411REMSYN023 333 87625 91108 91205;MET008NEW NOSIEQDQ01+000000PRSWM2
0157065900999991998011408004+49617+006217SY-MT+0379ELLX V0202001N00261006901CN0200001N1+00661+00271101011ADDAG10999GA1071+006909999GF107991071051008001999999MA1100911096491MD1310151+9999OA149900461REMSYN023 333 87623 91109 91206;MET008NEW NOSIEQDQ01+000000PRSWM2
0179065900999991998011409004+49617+006217SY-MT+0379ELLX V0202101N00261009001CN0250001N1+00681+00271101071ADDAG10000GA1021+006609999GA2071+009009999GF107991071081008001999999MA1100911096551MD1210211+9999OA149900511REMSYN029 333 81820 87630 91110 91207;MET008NEW NOSIEQDQ01+000000PRSWM2
0157065900999991998011410004+49617+006217SY-MT+0379ELLX V0202201N00311008401CN0250001N1+00701+00271101141ADDAG10999GA1071+008409999GF107991071051008001999999MA1101021096621MD1210201+9999OA149900571REMSYN023 333 87628 91111 91207;MET008NEW NOSIEQDQ01+000000PRSWM2
0194065900999991998011411004+49617+006217SY-MT+0379ELLX V0202301N00361006001CN0150001N1+00721+00271101181ADDAG10999AY161021AY221021GA1021+001509999GA2071+006009999GF108991071051001501999999MA1101021096661MD1210171+9999MW1511MW2581MW3611OA149900571REMSYN029 333 83705 87620 91111 91207;MET008NEW NOSI
0212065900999991998011412004+49617+006217SY-MT+0379ELLX V0202301N00311003601CN0200001N1+00611+00431101251ADDAA106000191AG10001AY161061AY251061GA1021+001509999GA2071+003609999GF107991071051001501999999MA1101081096711MD1210161+9999MW1211OA149900621REMSYN029 333 83705 87612 91112 91209;MET008NEW NOSIEQDQ01+000000PRSWM2
0223065900999991998011413004+49617+006217SY-MT+0379ELLX V0202201N00261009001CN0200001N1+00631+00411101271ADDAG10999AY121011AY221011GA1021+001509999GA2021+003609999GA3071+009009999GF107991071081002501999999MA1101081096731MD1210111+9999MW1251OA149900511REMSYN035 333 83708 84812 87630 91110 91207;MET008NEW NOSIEQDQ01+000000PRSWM2
0182065900999991998011415004+49617+006217SY-MT+0379ELLX V0202501N00311001801CN0140001N1+00591+00451101461ADDAG10002AY161031AY221031GA1071+001809999GA2071+003909999GF107991071051001501999999MA1101291096901MD1210191+9999MW1611OA149900511REMSYN029 333 85706 86613 91110 91207;MET008NEW NOSI
0185065900999991998011416004+49617+006217SY-MT+0379ELLX V0202601N00361003301CN0150001N1+00561+00311101581ADDAG10999AY121011AY221011GA1071+003309999GF107991071051004501999999MA1101391097011MD1210281+9999MW1211OA149900571REMSYN029 333 85611 86622 91111 91208;MET008NEW NOSIEQDQ01+000000PRSWM2
0157065900999991998011417004+49617+006217SY-MT+0379ELLX V0202601N00261003301CN0200001N1+00561+00331101671ADDAG10999GA1071+003309999GF107991071051004501999999MA1101491097101MD1210331+9999OA149900571REMSYN023 333 87611 91111 91207;MET008NEW NOSIEQDQ01+000000PRSWM2
0220065900999991998011418004+49617+006217SY-MT+0379ELLX V0202601N00211220001CN0250001N1+00511+00261101771ADDAA106000091AA299000591AG10001AY181061AY261061GA1021+003609999GF103991031051004501001001KA1120M+00731MA1101591097191MD1210291+9999MW1011OA149900571REMSYN029 333 10073 83612 91111 91208;MET008NEW NOSIEQDQ01+000000PRSWM2
0157065900999991998011419004+49617+006217SY-MT+0379ELLX V0202601N00261220001CN0250001N1+00481+00271101871ADDAG10999GA1021+003909999GF103991021051004501031001MA1101691097281MD1210271+9999OA149900461REMSYN023 333 83612 91109 91206;MET008NEW NOSIEQDQ01+000000PRSWM2
0157065900999991998011420004+49617+006217SY-MT+0379ELLX V0202501N00211220001CN0250001N1+00421+00191101991ADDAG10999GA1021+003909999GF102991021051004501001001MA1101801097381MD1210281+9999OA149900361REMSYN023 333 82613 91107 91205;MET008NEW NOSIEQDQ01+000000PRSWM2
0157065900999991998011421004+49617+006217SY-MT+0379ELLX V0202501N00101220001CN0250001N1+00321+00141102071ADDAG10000GA1021+002109999GF102991021061002501001001MA1101901097441MD1210251+9999OA149900461REMSYN023 333 82708 91109 91206;MET008NEW NOSIEQDQ01+000000PRSWM2
0143065900999991998011422004+49617+006217SY-MT+0379ELLX V0202401N00151220001CN0250001N1+00241+00111102141ADDAG10999GF100991001001999999001001MA1101901097501MD1210221+9999OA149900361REMSYN017 333 91107 91205;MET016NEW CAVOK NOSIG;EQDQ01+000000PRSWM2
0157065900999991998011423004+49617+006217SY-MT+0379ELLX V0202401N00211220001CN0200001N1+00221+00071102221ADDAG10999GA1021+013509999GF102991021051012501001001MA1102001097571MD1210191+9999OA149900311REMSYN023 333 82645 91106 91204;MET008NEW NOSIEQDQ01+000000PRSWM2
0154065900999991998011500004+49617+006217SY-MT+0379ELLX V0202401N00151220001CN0200001N1+00181+00031102261ADDAA106000091AG10000GF100991001001999999001001MA1102001097601MD1210161+9999OA149900461REMSYN017 333 91109 91206;MET016NEW CAVOK NOSIG;EQDQ01+000000PRSWM2
0106065900999991998011501004+49617+006217SY-MT+0379ELLX V0202401N00101999999CN0100001N1+00121-00031102301ADDAG10999MA1102001097631MD1210131+9999OA149900261REMSYN017 333 91105 91203;MET005NEW ;EQDQ01+000000PRSWM2
0106065900999991998011502004+49617+006217SY-MT+0379ELLX V0202101N001019999999N0100001N1-00031-00161102371ADDAG10999MA1102101097671MD1210101+9999OA149900211REMSYN017 333 91104 91203;MET005NEW ;EQDQ01+000000PRSWM2
0165065900999991998011503004+49617+006217SY-MT+0379ELLX V0202101N00101220001CN0200001N1-00011-00111102381ADDAG10000GA1031+060009009GF103991001001999999001021MA1102101097681MD1210081+9999OA149900261REMSYN023 333 83070 91105 91203;MET016NEW CAVOK NOSIG;EQDQ01+000000PRSWM2
0173065900999991998011504004+49617+006217SY-MT+0379ELLX V0202101N00151009901CN0200001N1+00081-00021102341ADDAG10999GA1071+009909999GF199999051051008001001021MA1102101097661MD1010031+9999OA149900211REMSYN023 333 85633 91104 91203;MET008NEW NOSIEQDQ01+000052SCOTCVQ02+000000PRSWM2
0174065900999991998011505004+49617+006217SY-MT+0379ELLX V0202201N001510600019N0200001N1+00071-00031102331ADDAG10999GA1051+060009009GF105991001001999999001021MA1102101097651MD1810021+9999OA149900211REMSYN023 333 85070 91104 91203;MET025NEW CAVOK NOSIG 06290072;EQDQ01+000000PRSWM2
0219065900999991998011506004+49617+006217SY-MT+0379ELLX V0202001N001510300019N0200001N1+00131+00031102271ADDAA106000091AG10000GA1071+030009049GF107991071001999999021999IA1099IA2999-00209KA1120N-00041MA1102001097601MD1710081+9999OA149900261REMSYN035 333 21004 31102 87460 91105 91203;MET016NEW CAVOK NOSIG;EQDQ01+000000PRSWM2
0179065900999991998011507004+49617+006217SY-MT+0379ELLX V0202101N00211030001CN0120001N1+00111-00011102231ADDAG10999GA1021+000909999GA2071+030009999GF107991041061000751021999MA1102001097561MD1710101+9999OA149900361REMSYN029 333 84703 87460 91107 91204;MET008NEW NOSIEQDQ01+000000PRSWM2
0201065900999991998011508004+49617+006217SY-MT+0379ELLX V0201801N00151030001CN0060001N1+00121+00001102221ADDAG10999GA1021+000909999GA2021+027009999GA3071+030009999GF107991041061000751071021MA1102001097551MD1710101+9999OA149900261REMSYN035 333 84703 84359 86460 91105 91203;MET008NEW NOSIEQDQ01+000000PRSWM2
0201065900999991998011509004+49617+006217SY-MT+0379ELLX V0202001N00211030001CN0100001N1+00151+00021102201ADDAG10000GA1021+027009999GA2071+030009999GA3071+060009999GF107991051001999999071021MA1102001097541MD1710061+9999OA149900361REMSYN035 333 83359 85460 85070 91107 91204;MET008NEW NOSIEQDQ01+000000PRSWM2
0185065900999991998011510004+49617+006217SY-MT+0379ELLX V0202001N00261015001CN0120001N1+00271+00081102161ADDAG10999GA1021+009009999GA2071+015009999GF107991041051008001071999MA1101901097521MD1710041+9999OA149900361REMSYN035 333 84630 85359 86460 91107 91205;MET008NEW NOSIEQDQ01+000000PRSWM2
0210065900999991998011511004+49617+006217SY-MT+0379ELLX V0202001N00311015001CN0120001N1+00361+00131102121ADDAG10999AY121021AY221021GA1021+006009999GA2071+015009999GA3071+030009999GF108991061051008001071999MA1101901097501MD1710051+9999MW1601MW2611OA149900461REMSYN035 333 84620 86650 87460 91109 91206;MET008NEW NOSI
0193065900999991998011512004+49617+006217SY-MT+0379ELLX V0202001N00211004501CN0100001N1+00361+00161102081ADDAA106999929AG10002AY161061AY221061GA1071+004509999GA2081+030009999GF108991061051004501071999MA1101901097461MD1710081+9999MW1611OA149900461REMSYN029 333 86715 88460 91109 91206;MET008NEW NOSI
0182065900999991998011513004+49617+006217SY-MT+0379ELLX V0202001N00261003601CN0100001N1+00441+00241101961ADDAG10999AY161011AY261011GA1021+002409999GA2071+003609999GF108991071051002501999999MA1101801097361MD1710161+9999MW1611OA149900461REMSYN029 333 84708 87612 91109 91205;MET008NEW NOSI
0182065900999991998011515004+49617+006217SY-MT+0379ELLX V0202001N00211002401CN0050001N1+00401+00271101911ADDAG10002AY161031AY261031GA1021+001509999GA2071+002409999GF108991071071001501999999MA1101691097301MD1710161+9999MW1611OA149900461REMSYN029 333 84705 87708 91109 91206;MET008NEW NOSI
0141065900999991998011515504+49617+006217FM-15+0379ELLX V0201901N00511000901CN0040001N1+00401+00301101891ADDAG10999GA1071+000909999GA2071+001809999GF107991999999999999999999MA1101691097291MW1611REMMET008NEW NOSIEQDQ01+999990APOSP Q02+999990APOSLP
0182065900999991998011517004+49617+006217SY-MT+0379ELLX V0202001N00211000901CN0050001N1+00441+00341101841ADDAG10999AY161021AY261021GA1071+000909999GA2071+001809999GF108991071071000751999999MA1101591097241MD1710091+9999MW1611OA149900411REMSYN029 333 85703 87706 91108 91205;MET008NEW NOSI
0242065900999991998011518004+49617+006217SY-MT+0379ELLX V0202001N00211000901CN0039001N1+00451+00361101791ADDAA106999999AA299001091AG10002AY161061AY261061GA1071+000909999GA2071+001509999GF108991071071000751999999KA1120M+00461MA1101591097201MD1710101+9999MW1611OA149900461REMSYN035 333 10046 85703 87705 91109 91206;MET008NEW NOSIEQDQ01  00002PRCP06
0166065900999991998011519004+49617+006217SY-MT+0379ELLX V0202001N00261000901CN0025001N1+00441+00351101731ADDAG10999AY161011AY261011GA1071+000909999GF108991071071000751999999MA1101491097141MD1710111+9999MW1101MW2611OA149900511REMSYN023 333 87703 91110 91206;MET008NEW NOSI
0194065900999991998011520004+49617+006217SY-MT+0379ELLX V0202101N00311000601CN0024001N1+00461+00371101681ADDAG10999AY161021AY261021GA1071+000609999GA2071+000909999GF108991071071000751999999MA1101491097091MD1710151+9999MW1101MW2501MW3511OA149900461REMSYN029 333 85702 87703 91109 91206;MET008NEW NOSI
0160065900999991998011521004+49617+006217SY-MT+0379ELLX V0202101N00261000601CN0050001N1+00471+00381101611ADDAG10001AY161031AY251031GA1071+000609999GF108991081061000751999999MA1101391097031MD1710171+9999MW1511OA149900511REMSYN023 333 87702 91110 91206;MET008NEW NOSI
0188065900999991998011522004+49617+006217SY-MT+0379ELLX V0202101N00311000301CN0030001N1+00471+00381101551ADDAG10999AY151011AY251011GA1071+000309999GA2081+000909999GF108991081061000251999999MA1101391096971MD1710171+9999MW1101MW2511OA149900511REMSYN029 333 86701 88703 91110 91206;MET008NEW NOSI
0194065900999991998011523004+49617+006217SY-MT+0379ELLX V0202101N00261000601CN0045001N1+00511+00421101491ADDAG10999AY161021AY251021GA1071+000609999GA2081+001209999GF108991081061000751999999MA1101291096921MD1710171+9999MW1511MW2581MW3611OA149900511REMSYN029 333 86702 88703 91110 91206;MET008NEW NOSI
0199065900999991998011600004+49617+006217SY-MT+0379ELLX V0202201N00261000601CN0040001N1+00541+00451101421ADDAA106001091AG10001AY161061AY251061GA1071+000609999GA2081+000909999GF108991081061000751999999MA1101191096861MD1710171+9999MW1501MW2511OA149900511REMSYN029 333 86702 88703 91110 91206;MET008NEW NOSI
0106065900999991998011601004+49617+006217SY-MT+0379ELLX V0202201N002619999999N0049001N1+00551+00461101371ADDAG10999MA1101191096811MD1710161+9999OA149900461REMSYN017 333 91109 91206;MET005NEW ;EQDQ01+000000PRSWM2
0106065900999991998011602004+49617+006217SY-MT+0379ELLX V0202101N002619999999N0100001N1+00571+00501101311ADDAG10999MA1101081096761MD1710161+9999OA149900411REMSYN017 333 91108 91206;MET005NEW ;EQDQ01+000000PRSWM2
0172065900999991998011603004+49617+006217SY-MT+0379ELLX V0202001N00211000301CN0035001N1+00581+00511101241ADDAG10002AY161031AY251031GA1081+000309999GF108991081061000251999999MA1101081096691MD1710171+9999MW1511MW2581MW3611OA149900461REMSYN023 333 88701 91109 91206;MET008NEW NOSI
0178065900999991998011604004+49617+006217SY-MT+0379ELLX V0202001N00211000301CN0025001N1+00571+00501101161ADDAG10999AY161011AY261011GA1081+000309999GF108991081061000251999999MA1101021096611MD1710201+9999MW1101MW2511MW3581MW4611OA149900411REMSYN023 333 88701 91108 91205;MET008NEW NOSI
0200065900999991998011605004+49617+006217SY-MT+0379ELLX V0202201N00211000301CN0025001N1+00581+00511101121ADDAG10999AY161021AY261021GA1071+000309999GA2081+000909999GF108991081061000251999999MA1101021096581MD1710181+9999MW1101MW2511MW3581MW4611OA149900361REMSYN029 333 86701 88703 91107 91205;MET008NEW NOSI
0294065900999991998011606004+49617+006217SY-MT+0379ELLX V0202301N00151000301CN0008001N1+00601+00601101101ADDAA106999999AA299005091AG10002AY161061AY251061ED199U20009GA1071+000309999GA2081+000609999GF108991081061000251999999IA1099IA2999+00409KA1120N+00421MA1100911096561MD1710131+9999MW1441MW2511MW3581MW4611OA149900461REMSYN041 333 20042 31004 86701 88702 91109 91206;MET007NEW NOSEQDQ01  00002PRCP06
0188065900999991998011607004+49617+006217SY-MT+0379ELLX V0202301N00051001201CN0030001N1+00611+00541101091ADDAG10999AY161011AY251011GA1071+001209999GA2071+007509999GF108991071051001501999999MA1100911096551MD1710061+9999MW1601MW2611OA149900211REMSYN029 333 86704 87625 91104 91203;MET008NEW NOSI
0201065900999991998011608004+49617+006217SY-MT+0379ELLX V0202301N00151001501CN0100001N1+00621+00551101061ADDAG10999AY121021AY221021GA1071+001509999GA2071+002409999GF108991071071001501999999MA1100911096531MD1710051+9999MW1211OA149900411REMSYN029 333 85705 87708 91108 91206;MET008NEW NOSIEQDQ01+000000PRSWM2
0223065900999991998011609004+49617+006217SY-MT+0379ELLX V0202301N00151003001CN0150001N1+00611+00521101051ADDAG10001AY161031AY251031GA1021+001509999GA2071+003009999GA3071+013509999GF108991071051001501999999MA1100911096521MD1710041+9999MW1021OA149900411REMSYN035 333 84705 85710 87645 91108 91206;MET008NEW NOSIEQDQ01+000000PRSWM2
0179065900999991998011610004+49617+006217SY-MT+0379ELLX V0202101N00211001501CN0200001N1+00651+00551101021ADDAG10999GA1021+000909999GA2071+001509999GF108991071061000751999999MA1100911096491MD1710061+9999OA149900261REMSYN029 333 84703 86705 91105 91204;MET008NEW NOSIEQDQ01+000000PRSWM2
0131065900999991998011610204+49617+006217FM-15+0379ELLX V0201801N003610003019N0010001N1+00601+00501101071ADDAG10999GA1081+000309999GF108991999999999999999999MA1100911096541MW1101MW2511REMMET008NEW NOSIEQDQ01+999990APOSP Q02+999990APOSLP
0172065900999991998011611004+49617+006217SY-MT+0379ELLX V0201801N00211000301CN0010001N1+00621+00531100951ADDAG10999AY151021AY221021GA1071+000309999GF108991071071000251999999MA1100811096421MD1710111+9999MW1101MW2601MW3611OA149900361REMSYN023 333 87701 91107 91205;MET008NEW NOSI
0152065900999991998011611204+49617+006217FM-15+0379ELLX V0201801N00411000301CN0012001N1+00601+00501100971ADDAG10999ED199U14009GA1071+000309999GA2071+000609999GF107991999999999999999999MA1100811096441MW1101REMMET008NEW NOSIEQDQ01+999990APOSP Q02+999990APOSLP
0205065900999991998011612004+49617+006217SY-MT+0379ELLX V0201901N00261000301CN0015001N1+00601+00511100931ADDAA106000591AG10002AY161061AY251061GA1071+000309999GA2071+000609999GF108991071071000251999999MA1100811096401MD1710121+9999MW1511MW2581MW3611OA149900411REMSYN029 333 85701 87702 91108 91206;MET008NEW NOSI
0166065900999991998011613004+49617+006217SY-MT+0379ELLX V0201901N00211000901CN0030001N1+00611+00521100851ADDAG10999AY121011AY221011GA1071+000909999GF108991071061000751999999MA1100711096321MD1710171+9999MW1101MW2211OA149900411REMSYN023 333 87703 91108 91205;MET008NEW NOSI
0182065900999991998011614004+49617+006217SY-MT+0379ELLX V0202101N00151001501CN0042001N1+00631+00541100831ADDAG10999AY161021AY221021GA1021+000909999GA2071+001509999GF108991071071000751999999MA1100711096311MD1710111+9999MW1601MW2611OA149900361REMSYN023 333 87703 91107 91205;MET008NEW NOSI
0201065900999991998011615004+49617+006217SY-MT+0379ELLX V0202601N00211002701CN0100001N1+00641+00551100861ADDAG10001AY161031AY221031GA1021+000909999GA2071+002709999GF107991071061000751999999MA1100711096341MD1510061+9999MW1211OA149900461REMSYN029 333 84703 87709 91109 91205;MET008NEW NOSIEQDQ01+000000PRSWM2
