0110065900999991999010100004+49620+006220SY-MT+0379ELLX V0201001N001019999999N0100001N1+00031-00211101341ADDAA199000091MA1101081096701MD1310091+9999OA149900311REMSYN017 333 91106 91205;MET005NEW ;EQDQ01  00002PRCP99
0099065900999991999010101004+49620+006220SY-MT+0379ELLX V0201101N002019999999N0080001N1-00071-00241101341ADDMA1101081096681MD1010041+9999OA149999999REMSYN017 333 91103 91202;MET005NEW ;EQDQ01  00152WGOSPD
0099065900999991999010102004+49620+006220SY-MT+0379ELLX V0200701N003019999999N0050001N1-00061-00231101301ADDMA1101021096651MD1010011+9999OA149999999REMSYN017 333 91104 91203;MET005NEW ;EQDQ01  00212WGOSPD
0080065900999991999010103004+49620+006220SY-MT+0379ELLX V0200601N003019999999N0050001N1-00051-00211101281ADDMA1101021096631MD1710071+9999OA149900311REMSYN017 333 91106 91205;MET005NEW ;
0080065900999991999010104004+49620+006220SY-MT+0379ELLX V0200601N002019999999N0060001N1-00021-00211101271ADDMA1101021096621MD1710061+9999OA149900211REMSYN017 333 91104 91203;MET005NEW ;
0158065900999991999010105004+49620+006220SY-MT+0379ELLX V0209999V001010300019N0080001N1+00001-00191101341ADDGA1071+030009999GF107991071001999999031999MA1101081096691MD1310041+9999MW1001OA149900151REMSYN023 333 87360 91103 91202;MET010NEW NOSIG;EQDQ01+000000PRSWM2
0228065900999991999010106004+49620+006220SY-MT+0379ELLX V0200701N002010300019N0080001N1+00021-00171101311ADDAA199000091GA1071+030009999GF107991071001999999031999IA1149IA2999-00109KA1120N-00111MA1101081096671MD1010041+9999MW1001OA149900311REMSYN035 333 21011 34101 87360 91106 91205;MET010NEW NOSIG;EQDQ01+000000PRSWM2Q02  00002PRCP99
0206065900999991999010107004+49620+006220SY-MT+0379ELLX V0209999V001012200019N0050001N1-00091-00251101391ADDAY111999AY211999GA1021+030009999GA2021+060009999GF102991021001999999031021MA1101081096731MD1310111+9999MW1101OA149900211REMSYN023 333 82360 91104 91203;MET010NEW NOSIG;EQDQ01+000000PRSWM2Q02    003PRSWM1
0212065900999991999010108004+49620+006220SY-MT+0379ELLX V0209999V001019999999N0035001N1-00091-00281101431ADDAY111999AY211999GA1021+030009999GA2021+060009999GF105991021001999999031021MA1101081096761MD1310071+9999MW1101OA149900211REMSYN029 333 82360 84070 91104 91203;MET010NEW NOSIG;EQDQ01+000000PRSWM2Q02    003PRSWM1
0228065900999991999010109004+49620+006220SY-MT+0379ELLX V0200701N002010600019N0035001N1-00091-00251101481ADDAY111031AY211031GA1021+030009999GA2071+060009999GF199999041001999999031021MA1101191096811MD1210141+9999MW1101OA149900211REMSYN029 333 84360 85070 91104 91203;MET010NEW NOSIG;EQDQ01+000062SCOTCVQ02+000000PRSWM2Q03    003PRSWM1
0228065900999991999010110004+49620+006220SY-MT+0379ELLX V0200801N001010600019N0035001N1+00041-00181101521ADDAY121999AY221999GA1021+030009999GA2071+060009999GF199999041001999999031021MA1101291096871MD1210141+9999MW1101OA149900151REMSYN029 333 84360 86070 91103 91202;MET010NEW NOSIG;EQDQ01+000062SCOTCVQ02+000000PRSWM2Q03    003PRSWM1
0212065900999991999010111004+49620+006220SY-MT+0379ELLX V0201101N001010600019N0040001N1+00081-00211101541ADDAY121999AY221999GA1021+030009999GA2071+060009999GF107991041001999999031021MA1101291096901MD1210141+9999MW1101OA149900101REMSYN029 333 84360 87070 91102 91201;MET010NEW NOSIG;EQDQ01+000000PRSWM2Q02    003PRSWM1
0239065900999991999010112004+49620+006220SY-MT+0379ELLX V0209999V001010600019N0040001N1+00081-00181101561ADDAA199000091AY111061AY211061GA1021+030009999GA2071+060009999GF107991041001999999031021MA1101291096921MD1210111+9999MW1101OA149900211REMSYN029 333 84360 87070 91104 91203;MET010NEW NOSIG;EQDQ01+000000PRSWM2Q02  00002PRCP99Q03    003PRSWM1
0228065900999991999010113004+49620+006220SY-MT+0379ELLX V0201401N002010600019N0040001N1+00181-00181101501ADDAY121999AY221999GA1021+030009999GA2071+060009999GF199999021001999999031021MA1101291096881MD1010011+9999MW1051OA149900211REMSYN029 333 82360 86070 91104 91202;MET010NEW NOSIG;EQDQ01+000062SCOTCVQ02+000000PRSWM2Q03    003PRSWM1
0228065900999991999010114004+49620+006220SY-MT+0379ELLX V0209999C000010600019N0040001N1+00291-00161101491ADDAY121999AY221999GA1021+030009999GA2071+060009999GF199999021001999999031021MA1101291096881MD1610021+9999MW1051OA149900211REMSYN029 333 82360 86070 91104 91202;MET010NEW NOSIG;EQDQ01+000062SCOTCVQ02+000000PRSWM2Q03    003PRSWM1
0228065900999991999010115004+49620+006220SY-MT+0379ELLX V0201301N002010600019N0040001N1+00231-00151101491ADDAY121031AY221031GA1021+015009999GA2071+060009999GF199999021051017501031021MA1101291096871MD1810051+9999MW1051OA149900211REMSYN029 333 82650 85070 91104 91202;MET010NEW NOSIG;EQDQ01+000062SCOTCVQ02+000000PRSWM2Q03    003PRSWM1
0228065900999991999010116004+49620+006220SY-MT+0379ELLX V0201601N002010600019N0040001N1+00141-00151101511ADDAY121999AY221999GA1021+030009999GA2071+060009999GF199999021001999999031021MA1101291096881MD1510001+9999MW1101OA149900211REMSYN029 333 82360 85070 91104 91203;MET010NEW NOSIG;EQDQ01+000052SCOTCVQ02+000000PRSWM2Q03    003PRSWM1
0196065900999991999010117004+49620+006220SY-MT+0379ELLX V0201601N002010600019N0060001N1+00111-00211101521ADDGA1021+030009999GA2071+060009999GF199999021001999999031021MA1101291096881MD1510001+9999MW1001OA149900211REMSYN029 333 82360 85070 91104 91203;MET010NEW NOSIG;EQDQ01+000062SCOTCVQ02+000000PRSWM2
0242065900999991999010118004+49620+006220SY-MT+0379ELLX V0209999V001010600019N0060001N1+00041-00231101551ADDAA199000091GA1021+030009999GA2071+060009999GF199999021001999999031021KA1120M+00311MA1101291096901MD1310031+9999MW1001OA149900211REMSYN035 333 10031 82360 85070 91104 91203;MET010NEW NOSIG;EQDQ01+000052SCOTCVQ02+000000PRSWM2Q03  00002PRCP99
0228065900999991999010119004+49620+006220SY-MT+0379ELLX V0201901N002012200019N0040001N1-00101-00271101591ADDAY111999AY211999GA1021+030009999GA2021+060009999GF103991011001999999031021MA1101291096921MD1310041+9999MW1101OA149999999REMSYN029 333 81360 83070 91103 91202;MET010NEW NOSIG;EQDQ01+000000PRSWM2Q02  00152WGOSPDQ03    003PRSWM1
0206065900999991999010120004+49620+006220SY-MT+0379ELLX V0201601N002012200019N0030001N1-00081-00241101591ADDAY101999AY201999GA1021+060009999GF199999001001999999001021MA1101291096921MD1110041+9999MW1101OA149999999REMSYN023 333 81070 91103 91202;MET010NEW NOSIG;EQDQ01+000012SCOTCVQ02  00152WGOSPDQ03    003PRSWM1
0168065900999991999010121004+49620+006220SY-MT+0379ELLX V0209999V001012200019N0035001N1-00091-00261101581ADDAY101031AY201031GF100991001001999999001001MA1101291096911MD1010011+9999MW1101OA149900151REMSYN017 333 91103 91202;MET010NEW NOSIG;EQDQ01+000000PRSWM2Q02    003PRSWM1
0168065900999991999010122004+49620+006220SY-MT+0379ELLX V0209999C000012200019N0050001N1-00061-00251101561ADDAY101999AY201999GF100991001001999999001001MA1101291096891MD1810031+9999MW1101OA149900101REMSYN017 333 91102 91201;MET010NEW NOSIG;EQDQ01+000000PRSWM2Q02    003PRSWM1
0158065900999991999010123004+49620+006220SY-MT+0379ELLX V0201901N001012200019N0045001N1+00001-00191101571ADDGA1021+060009999GF103991001001999999001021MA1101291096911MD1510011+9999MW1001OA149900211REMSYN023 333 83070 91104 91202;MET010NEW NOSIG;EQDQ01+000000PRSWM2
0201065900999991999010200004+49620+006220SY-MT+0379ELLX V0201901N002012200019N0040001N1-00031-00191101531ADDAA199000091AY101061AY201061GF102991001001999999001021MA1101291096871MD1810041+9999MW1101OA149900211REMSYN023 333 82070 91104 91202;MET010NEW NOSIG;EQDQ01+000000PRSWM2Q02  00002PRCP99Q03    003PRSWM1
0080065900999991999010201004+49620+006220SY-MT+0379ELLX V0201701N002019999999N0035001N1-00011-00171101471ADDMA1101191096821MD1810071+9999OA149900211REMSYN017 333 91104 91203;MET005NEW ;
0091065900999991999010202004+49620+006220SY-MT+0379ELLX V0201701N001019999999N0014001N1-00011-00151101461ADDED199U20009MA1101191096811MD1710101+9999OA149900101REMSYN017 333 91102 91201;MET005NEW ;
0190065900999991999010203004+49620+006220SY-MT+0379ELLX V0201801N001012200019N0050001N1+00021-00151101391ADDAY101031AY201031GA1021+060009999GF104991001001999999001021MA1101081096741MD1710131+9999MW1101OA149900211REMSYN023 333 84070 91104 91203;MET010NEW NOSIG;EQDQ01+000000PRSWM2Q02    003PRSWM1
0190065900999991999010204004+49620+006220SY-MT+0379ELLX V0201701N002012200019N0046001N1+00041-00141101301ADDAY101999AY201999GA1021+060009999GF104991001001999999001021MA1101021096661MD1710161+9999MW1101OA149900211REMSYN023 333 84070 91104 91203;MET010NEW NOSIG;EQDQ01+000000PRSWM2Q02    003PRSWM1
0174065900999991999010205004+49620+006220SY-MT+0379ELLX V0201801N003010150019N0080001N1+00121-00061101251ADDGA1071+015009999GF107991071051017501999999MA1101021096631MD1710181+9999MW1001OA149999999REMSYN023 333 87650 91105 91203;MET010NEW NOSIG;EQDQ01+000000PRSWM2Q02  00262WGOSPD
0244065900999991999010206004+49620+006220SY-MT+0379ELLX V0201801N003010150019N0080001N1+00161-00021101191ADDAA199000091GA1071+015009999GF108991071051017501999999IA1099IA2999-00309KA1120N-00121MA1101021096581MD1710161+9999MW1001OA149999999REMSYN035 333 21012 31103 87650 91105 91203;MET010NEW NOSIG;EQDQ01+000000PRSWM2Q02  00002PRCP99Q03  00262WGOSPD
0180065900999991999010207004+49620+006220SY-MT+0379ELLX V0201801N004010300019N0060001N1+00211+00051101151ADDGA1021+013209999GA2071+030009999GF107991021051012501031021MA1100911096551MD1710111+9999MW1001OA149900411REMSYN029 333 82644 87360 91108 91204;MET010NEW NOSIG;EQDQ01+000000PRSWM2
0174065900999991999010208004+49620+006220SY-MT+0379ELLX V0201801N005010126019N0060001N1+00331+00151101081ADDGA1071+012609999GF107991071051012501999999MA1100911096501MD1710131+9999MW1001OA149999999REMSYN023 333 87642 91108 91205;MET010NEW NOSIG;EQDQ01+000000PRSWM2Q02  00412WGOSPD
0196065900999991999010209004+49620+006220SY-MT+0379ELLX V0201801N005010135019N0080001N1+00361+00161101051ADDGA1071+013509999GA2071+060009999GF107991051051012501031021MA1100911096481MD1710101+9999MW1001OA149999999REMSYN029 333 85645 87070 91108 91205;MET010NEW NOSIG;EQDQ01+000000PRSWM2Q02  00412WGOSPD
0196065900999991999010210004+49620+006220SY-MT+0379ELLX V0201801N00501036001CN0080001N1+00471+00261100981ADDGA1021+013509999GA2021+030009999GF106991021051012501031021MA1100811096431MD1710121+9999MW1001OA149999999REMSYN029 333 82645 84360 91108 91205;MET010NEW NOSIG;EQDQ01+000000PRSWM2Q02  00412WGOSPD
0202065900999991999010211004+49620+006220SY-MT+0379ELLX V0201801N00501030001CN0100001N1+00541+00311100901ADDGA1031+015009069GA2051+030009039GF106991031051017501031021MA1100711096361MD1710141+9999MW1001OA149999999REMSYN029 333 83650 85360 91108 91206;MET016NEW CAVOK NOSIG;EQDQ01+000000PRSWM2Q02  00412WGOSPD
0185065900999991999010212004+49620+006220SY-MT+0379ELLX V0201801N004010099019N0120001N1+00601+00321100821ADDAA199000091GA1071+009909999GF107991061051008001031021MA1100711096291MD1710191+9999MW1001OA149900621REMSYN023 333 86633 91112 91206;MET010NEW NOSIG;EQDQ01+000000PRSWM2Q02  00002PRCP99
0188065900999991999010213004+49620+006220SY-MT+0379ELLX V0201901N004010072019N0120001N1+00651+00311100741ADDAY121999AY221999GA1071+007209999GF107991071051008001999999MA1100611096231MD1710201+9999MW1601MW2611OA149900511OC101031REMSYN023 333 87624 91110 91205;MET010NEW NOSIG;EQDQ01    003PRSWM1
0212065900999991999010214004+49620+006220SY-MT+0379ELLX V0202301N007010030019N0120001N1+00601+00401100751ADDAY161999AY261999GA1071+003009999GA2071+006609999GF108991071051004501999999MA1100611096231MD1610131+9999MW1611OA149999999REMSYN029 333 85610 87622 91111 91208;MET010NEW NOSIG;EQDQ01  00572WGOSPDQ02    003PRSWM1
0196065900999991999010215004+49620+006220SY-MT+0379ELLX V0202201N006010024019N0130001N1+00561+00391100741ADDAY161031AY221031GA1071+002409999GA2071+003909999GF108991071051002501999999MA1100611096211MD1810081+9999MW1611OA149900621REMSYN029 333 85708 87613 91112 91208;MET010NEW NOSIG;EQDQ01    003PRSWM1
0212065900999991999010216004+49620+006220SY-MT+0379ELLX V0202201N006010018019N0150001N1+00551+00421100751ADDAY161999AY261999GA1071+001809999GA2071+003309999GF108991071051001501999999MA1100611096221MD1510011+9999MW1611OA149999999REMSYN029 333 85706 87611 91109 91206;MET010NEW NOSIG;EQDQ01  00462WGOSPDQ02    003PRSWM1
0212065900999991999010217004+49620+006220SY-MT+0379ELLX V0202101N004010015019N0150001N1+00541+00421100761ADDAY121999AY221999GA1071+001509999GA2071+003309999GF107991071051001501999999MA1100611096231MD1510001+9999MW1211OA149900411REMSYN029 333 85705 87611 91108 91206;MET010NEW NOSIG;EQDQ01+000000PRSWM2Q02    003PRSWM1
0152065900999991999010217504+49620+006220FM-15+0379ELLX V0202101N004610018019N0112651N1+00501+00401100791ADDGA1071+001809999GA2071+003909999GF107991999999999999999999MA1100611096251MW1001REMMET010NEW NOSIG;EQDQ01+999990APOSP Q02+999990APOSLPQ03+000000PRSWM2
0180065900999991999010219004+49620+006220SY-MT+0379ELLX V0202201N004010012019N0150001N1+00541+00421100831ADDGA1071+001209999GA2071+003909999GF107991071081001501999999MA1100711096291MD1310071+9999MW1001OA149900511REMSYN029 333 85704 86813 91110 91205;MET010NEW NOSIG;EQDQ01+000000PRSWM2
0212065900999991999010220004+49620+006220SY-MT+0379ELLX V0202201N005010120019N0150001N1+00541+00391100801ADDGA1021+003609999GA2071+012009999GF199999061081004501999999MA1100611096271MD1010041+9999MW1001OA149999999REMSYN029 333 83812 86740 91108 91206;MET010NEW NOSIG;EQDQ01+000062SCOTCVQ02+000000PRSWM2Q03  00412WGOSPD
0219065900999991999010221004+49620+006220SY-MT+0379ELLX V0202001N004010090019N0070001N1+00521+00401100831ADDAY181031AY221031GA1021+001509999GA2021+003309099GA3071+009009999GF107991061091001501999999MA1100711096291MD1310061+9999MW1801OA149900511REMSYN035 333 83705 82911 85630 91110 91206;MET011NEW NOS IG;EQDQ01    003PRSWM1
0250065900999991999010222004+49620+006220SY-MT+0379ELLX V0201901N004010090019N0100001N1+00541+00421100741ADDAY121999AY221999GA1021+001509999GA2021+003609999GA3071+009009999GF107991071081001501999999MA1100611096211MD1810081+9999MW1251OA149999999REMSYN035 333 82705 83812 86620 91107 91205;MET010NEW NOSIG;EQDQ01+000000PRSWM2Q02  00362WGOSPDQ03    003PRSWM1
0241065900999991999010223004+49620+006220SY-MT+0379ELLX V0202001N005010045019N0050001N1+00541+00421100731ADDAY181999AY221999GA1021+001509999GA2021+003609999GA3071+004509999GF107991071081001501999999MA1100611096201MD1810071+9999MW1801MW2821OA149999999REMSYN035 333 83705 84812 86615 91108 91205;MET011NEW NOSIG ;EQDQ01  00412WGOSPDQ02    003PRSWM1
0223065900999991999010300004+49620+006220SY-MT+0379ELLX V0202401N006010036019N0050001N1+00471+00271100841ADDAA199001091AY181061AY221061GA1021+003009999GA2071+003609999GF107991071081004501999999MA1100711096291MD1510001+9999MW1251OA149900881REMSYN029 333 83811 86613 91117 91210;MET010NEW NOSIG;EQDQ01+000000PRSWM2Q02    003PRSWM1
0099065900999991999010301004+49620+006220SY-MT+0379ELLX V0202401N006019999999N0100001N1+00441+00261100891ADDMA1100711096341MD1310131+9999OA149999999REMSYN017 333 91109 91207;MET005NEW ;EQDQ01  00462WGOSPD
0099065900999991999010302004+49620+006220SY-MT+0379ELLX V0202401N007019999999N0100001N1+00411+00201100961ADDMA1100811096401MD1210201+9999OA149999999REMSYN017 333 91111 91207;MET005NEW ;EQDQ01  00572WGOSPD
0168065900999991999010302504+49620+006220FM-15+0379ELLX V0202501N007210045019N0112651N1+00401+00201101001ADDGA1021+003009999GA2071+004509999GF107991999999999999999999MA1100811096441MW1801REMMET010NEW NOSIG;EQDQ01+999990APOSP Q02+999990APOSLPQ03+000003PRSWM1Q04    003PRSWM1
0196065900999991999010303004+49620+006220FM-12+0379ELLX V0202501N00701015001CN0100001N1+00401+00201101021ADDAY181031AY221031GA1061+015009069GA2031+030009089GF107991071081999999999999MA1100821096451MD1210161+9999MW1801OA149999999REMSYN029 333 83860 86650 91111 91208;EQDQ01+999990APOA  Q02  00572WGOSPD
0180065900999991999010304004+49620+006220SY-MT+0379ELLX V0202501N00601009001CN0100001N1+00381+00151101061ADDGA1021+003309999GF107991071081004501999999MA1100911096491MD1210151+9999MW1001OA149999999REMSYN029 333 82811 86615 91110 91207;MET010NEW NOSIG;EQDQ01+000000PRSWM2Q02  00512WGOSPD
0235065900999991999010305004+49620+006220SY-MT+0379ELLX V0202401N005010090019N0100001N1+00321+00171101101ADDAY121999AY221999GA1021+001509999GA2021+003609999GA3071+009009999GF107991071081001501999999MA1100911096521MD1210121+9999MW1801OA149999999REMSYN035 333 83705 84812 86630 91108 91206;MET011NEW NOSIG ;EQDQ01  00412WGOSPDQ02    003PRSWM1
0266065900999991999010306004+49620+006220SY-MT+0379ELLX V0202301N005010060019N0100001N1+00321+00161101101ADDAA199002091AY181061AY221061GA1021+003609999GA2071+006009999GF107991071081004501999999IA1099IA2999+00309KA1120N+00301MA1100911096521MD1110071+9999MW1021OA149900571REMSYN041 333 20030 31003 83812 86620 91111 91208;MET010NEW NOSIG;EQDQ01+000000PRSWM2Q02    003PRSWM1
0196065900999991999010307004+49620+006220SY-MT+0379ELLX V0202401N006010066019N0250001N1+00331+00101101121ADDGA1021+003909999GA2071+006609999GF107991071081004501999999MA1100911096541MD1310051+9999MW1001OA149999999REMSYN029 333 84813 87622 91109 91206;MET010NEW NOSIG;EQDQ01+000000PRSWM2Q02  00462WGOSPD
0158065900999991999010308004+49620+006220SY-MT+0379ELLX V0202201N005010039019N0250001N1+00301+00071101101ADDGA1071+003909999GF107991071081004501999999MA1100911096511MD1810011+9999MW1001OA149900571REMSYN023 333 87813 91111 91208;MET010NEW NOSIG;EQDQ01+000000PRSWM2
0180065900999991999010309004+49620+006220SY-MT+0379ELLX V0202101N007010039019N0250001N1+00341+00161101051ADDGA1071+003909999GF107991071081002501999999MA1100811096471MD1810051+9999MW1001OA149999999REMSYN029 333 83709 86818 91111 91208;MET010NEW NOSIG;EQDQ01+000000PRSWM2Q02  00572WGOSPD
0174065900999991999010310004+49620+006220SY-MT+0379ELLX V0202001N006010036019N0220001N1+00391+00181100881ADDGA1071+003609999GF107991071081004501999999MA1100711096321MD1810221+9999MW1001OA149999999REMSYN023 333 87813 91109 91207;MET010NEW NOSIG;EQDQ01+000000PRSWM2Q02  00462WGOSPD
0218065900999991999010311004+49620+006220SY-MT+0379ELLX V0201901N007010018019N0140001N1+00391+00231100691ADDAY161999AY221999GA1071+001809999GA2071+003009999GF108991071051001501999999MA1100511096141MD1710371+9999MW1601MW2611OA149999999REMSYN029 333 85706 87610 91111 91207;MET010NEW NOSIG;EQDQ01  00572WGOSPDQ02    003PRSWM1
0223065900999991999010312004+49620+006220SY-MT+0379ELLX V0201901N008010018019N0050001N1+00421+00271100441ADDAA199001091AY161061AY221061GA1071+001809999GA2071+003909999GF108991081051001501999999MA1100311095901MD1710571+9999MW1631OA149999999REMSYN029 333 85706 87613 91113 91208;MET010NEW NOSIG;EQDQ01  00672WGOSPDQ02    003PRSWM1
0212065900999991999010313004+49620+006220SY-MT+0379ELLX V0202001N009010015019N0050001N1+00481+00361100171ADDAY161999AY261999GA1021+000909999GA2071+001509999GF108991081071000751999999MA1100001095651MD1710671+9999MW1631OA149999999REMSYN029 333 84703 87705 91113 91209;MET010NEW NOSIG;EQDQ01  00672WGOSPDQ02    003PRSWM1
0220065900999991999010314004+49620+006220SY-MT+0379ELLX V0202201N008010012019N0140001N1+00591+00471100091ADDAY161999AY261999GA1071+001209999GA2071+003609999GF108991071051001501999999MA1099901095601MD1710541+9999MW1611OA149999999OC101541REMSYN029 333 85704 87612 91115 91210;MET010NEW NOSIG;EQDQ01  00772WGOSPDQ02    003PRSWM1
0218065900999991999010315004+49620+006220SY-MT+0379ELLX V0202401N009010066019N0140001N1+00761+00511100081ADDAY161031AY221031GA1021+003609999GA2071+006609999GF107991071051004501999999MA1100001095611MD1510291+9999MW1601MW2611OA149999999REMSYN029 333 83612 86622 91115 91210;MET010NEW NOSIG;EQDQ01  00772WGOSPDQ02    003PRSWM1
0252065900999991999010316004+49620+006220SY-MT+0379ELLX V0202601N013010066019N0150001N1+00771+00391100181ADDAY121999AY221999GA1021+004509999GA2071+006609999GF199999061051004501001001MA1100101095711MD1310061+9999MW1211OA149999999OC101951REMSYN029 333 81615 86622 91119 91213;MET010NEW NOSIG;EQDQ01+000062SCOTCVQ02+000000PRSWM2Q03  00982WGOSPDQ04    003PRSWM1
0208065900999991999010317004+49620+006220SY-MT+0379ELLX V0202601N009010024019N0150001N1+00621+00421100401ADDAY121999AY221999GA1071+002409999GA2071+003609999GF108991071091002501999999MA1100411095901MD1210301+9999MW1601MW2611OA149900981REMSYN035 333 85708 81911 86614 91119 91213;MET010NEW NOSIG;EQDQ01    003PRSWM1
0192065900999991999010317504+49620+006220FM-15+0379ELLX V0202601N009810024019N0112651N1+00601+00401100471ADDGA1071+002409999GA2021+003309099GA3071+004209999GF107991999999999999999999MA1100311095961MW1611OC101541REMMET010NEW NOSIG;EQDQ01+999990APOSP Q02+999990APOSLPQ03+000003PRSWM1Q04    003PRSWM1
0242065900999991999010318004+49620+006220SY-MT+0379ELLX V0202701N008010045019N0200001N1+00641+00341100631ADDAA199004191AY161061AY221061GA1071+004509999GA2071+012009999GF107991071051004501999999KA1120M+00801MA1100511096121MD1210511+9999MW1011OA149900981REMSYN035 333 10080 85614 87640 91119 91213;MET010NEW NOSIG;EQDQ01+000000PRSWM2Q02    003PRSWM1
0204065900999991999010319004+49620+006220SY-MT+0379ELLX V0202801N010010099019N0200001N1+00591+00111100911ADDGA1021+006009999GA2071+009909999GF107991071051008001999999MA1100811096381MD1210671+9999MW1001OA149999999OC101701REMSYN029 333 84620 86633 91117 91210;MET010NEW NOSIG;EQDQ01+000000PRSWM2Q02  00882WGOSPD
0220065900999991999010320004+49620+006220SY-MT+0379ELLX V0202901N009010099019N0200001N1+00531+00031101151ADDGA1021+006009999GA2071+009909999GF199999061051008001001001MA1101021096601MD1210701+9999MW1001OA149999999OC101591REMSYN029 333 81620 85633 91117 91210;MET010NEW NOSIG;EQDQ01+000062SCOTCVQ02+000000PRSWM2Q03  00882WGOSPD
0196065900999991999010321004+49620+006220SY-MT+0379ELLX V0202601N005010066019N0200001N1+00501+00111101321ADDGA1021+004509999GA2071+006609999GF199999061051004501001001MA1101081096761MD1210641+9999MW1001OA149900881REMSYN029 333 82615 86622 91117 91210;MET010NEW NOSIG;EQDQ01+000062SCOTCVQ02+000000PRSWM2
0174065900999991999010322004+49620+006220SY-MT+0379ELLX V0202701N005010054019N0150001N1+00481+00091101461ADDGA1071+005409999GF199999061051004501999999MA1101291096891MD1210511+9999MW1001OA149900511REMSYN023 333 87618 91110 91206;MET010NEW NOSIG;EQDQ01+000062SCOTCVQ02+000000PRSWM2
0136065900999991999010322504+49620+006220FM-15+0379ELLX V0202501N004610045019N0112651N1+00501+00201101571ADDGA1071+004509999GF107991999999999999999999MA1101391097001MW1001REMMET010NEW NOSIG;EQDQ01+999990APOSP Q02+999990APOSLPQ03+000000PRSWM2
0152065900999991999010400004+49620+006220SY-MT+0379ELLX V0202501N005010042019N0100001N1+00501+00221101591ADDAA199000021GA1071+004209999GF107991071051004501999999MA1101391097011MD1210251+9999MW1001REMSYN017 333 87614 91117;MET010NEW NOSIG;EQDQ01+000000PRSWM2
0089065900999991999010400504+49620+006220FM-15+0379ELLX V0202501N006212200019N0112651N1+00501+00201101571ADDMA1101391097001MW1001REMMET005NEW ;EQDQ01+999990APOSP Q02+999990APOSLPQ03+000000PRSWM2
0089065900999991999010401504+49620+006220FM-15+0379ELLX V0202401N006212200019N0112651N1+00501+00201101571ADDMA1101391097001MW1001REMMET005NEW ;EQDQ01+999990APOSP Q02+999990APOSLPQ03+000000PRSWM2
0136065900999991999010402504+49620+006220FM-15+0379ELLX V0202301N005710060019N0112651N1+00501+00201101571ADDGA1071+006009999GF107991999999999999999999MA1101391097001MW1001REMMET010NEW NOSIG;EQDQ01+999990APOSP Q02+999990APOSLPQ03+000000PRSWM2
0152065900999991999010404204+49620+006220FM-15+0379ELLX V0202001N005110012019N0090001N1+00401+00301101481ADDGA1071+001209999GF107991999999999999999999MA1101291096901MW1611REMMET010NEW NOSIG;EQDQ01+999990APOSP Q02+999990APOSLPQ03+000003PRSWM1Q04    003PRSWM1
0158065900999991999010404504+49620+006220FM-15+0379ELLX V0202101N005710006019N0030001N1+00501+00401101471ADDGA1071+000609999GF107991999999999999999999MA1101291096901MW1101MW2611REMMET010NEW NOSIG;EQDQ01+999990APOSP Q02+999990APOSLPQ03+000003PRSWM1Q04    003PRSWM1
0250065900999991999010406004+49620+006220SY-MT+0379ELLX V0202101N005010003019N0016001N1+00491+00401101461ADDAA199002091AY161061AY221061GA1071+000309999GF108991071071000251001011IA1099IA2999+00409KA1120N+00431MA1101291096891MD1610081+9999MW1101MW2611OA149999999REMSYN035 333 20043 31004 87701 91109 91207;MET010NEW NOSIG;EQDQ01  00462WGOSPDQ02    003PRSWM1
0169065900999991999010406504+49620+006220FM-15+0379ELLX V0202101N004610003019N0010001N1+00601+00501101451ADDED199U16009GA1071+000309999GF107991999999999999999999MA1101291096901MW1101MW2611REMMET010NEW NOSIG;EQDQ01+999990APOSP Q02+999990APOSLPQ03+000003PRSWM1Q04    003PRSWM1
0169065900999991999010407504+49620+006220FM-15+0379ELLX V0202101N004110003019N0012001N1+00601+00601101451ADDED199U20009GA1071+000309999GF107991999999999999999999MA1101291096901MW1101MW2611REMMET010NEW NOSIG;EQDQ01+999990APOSP Q02+999990APOSLPQ03+000003PRSWM1Q04    003PRSWM1
0207065900999991999010409004+49620+006220SY-MT+0379ELLX V0202101N004010003019N0012001N1+00731+00661101471ADDAY161031AY241031ED199U20009GA1071+000309999GF108991071071000251999999MA1101291096941MD1310051+9999MW1101MW2611OA149999999REMSYN023 333 87701 91107 91205;MET010NEW NOSIG;EQDQ01  00362WGOSPDQ02    003PRSWM1
0169065900999991999010409504+49620+006220FM-15+0379ELLX V0202301N007210009019N0040001N1+00901+00801101511ADDGA1021+000609999GA2071+000909999GF107991999999999999999999MA1101391097001MW1101REMMET011NEW NOSIG ;EQDQ01+999990APOSP Q02+999990APOSLPQ03+000003PRSWM1Q04    003PRSWM1
0219065900999991999010410004+49620+006220SY-MT+0379ELLX V0202301N007010009019N0040001N1+00911+00831101481ADDAY121999AY221999GA1021+000609999GA2071+000909999GF108991071061000751999999MA1101391096971MD1210091+9999MW1101MW2211OA149999999REMSYN029 333 84702 87703 91110 91207;MET011NEW NOSIG ;EQDQ01  00512WGOSPDQ02    003PRSWM1
0158065900999991999010411004+49620+006220SY-MT+0379ELLX V0202301N007010009019N0120001N1+00951+00871101501ADDGA1071+000909999GF108991071061001501999999MA1101391097001MD1210091+9999MW1611OA149900721REMSYN023 333 87704 91114 91208;MET010NEW NOSIG;EQDQ01    003PRSWM1
0201065900999991999010412004+49620+006220SY-MT+0379ELLX V0202401N008010012019N0200001N1+00971+00881101531ADDAA199001091AY161061AY261061GA1071+001209999GF108991071071001501999999MA1101391097031MD1210091+9999MW1611OA149999999REMSYN023 333 87704 91114 91209;MET010NEW NOSIG;EQDQ01  00722WGOSPDQ02    003PRSWM1
0136065900999991999010412204+49620+006220FM-15+0379ELLX V0202401N008710024019N0112651N1+01001+00801101491ADDGA1071+002409999GF107991999999999999999999MA1101391097001MW1001REMMET010NEW NOSIG;EQDQ01+999990APOSP Q02+999990APOSLPQ03+000000PRSWM2
0152065900999991999010412504+49620+006220FM-15+0379ELLX V0202401N008710030019N0112651N1+01001+00801101491ADDGA1021+002109999GA2071+003009999GF107991999999999999999999MA1101391097001MW1001REMMET010NEW NOSIG;EQDQ01+999990APOSP Q02+999990APOSLPQ03+000000PRSWM2
0174065900999991999010414204+49620+006220FM-15+0379ELLX V0202301N007210009019N0070001N1+01001+00901101491ADDGA1071+000909999GA2071+001809999GF107991999999999999999999MA1101391097001MW1511MW2611REMMET010NEW NOSIG;EQDQ01+999990APOSP Q02+999990APOSLPQ03+000003PRSWM1Q04    003PRSWM1
0224065900999991999010415004+49620+006220SY-MT+0379ELLX V0202301N008010009019N0060001N1+01001+00891101561ADDAY161031AY221031GA1071+000909999GA2071+001809999GF108991071071000751999999MA1101491097061MD1310031+9999MW1511MW2581MW3611OA149999999REMSYN029 333 86703 87706 91113 91209;MET010NEW NOSIG;EQDQ01  00672WGOSPDQ02    003PRSWM1
0218065900999991999010416004+49620+006220SY-MT+0379ELLX V0202301N006010009019N0060001N1+00981+00871101621ADDAY161999AY261999GA1071+000909999GA2071+001509999GF108991071071000751999999MA1101521097121MD1310071+9999MW1511MW2581OA149999999REMSYN029 333 85703 87705 91111 91208;MET010NEW NOSIG;EQDQ01  00572WGOSPDQ02    003PRSWM1
0222065900999991999010417004+49620+006220SY-MT+0379ELLX V0202301N007010009019N0070001N1+00991+00881101691ADDAY161999AY251999GA1071+000909999GA2071+001809999GF108991071061000751999999MA1101591097191MD1210151+9999MW1501OA149999999REMSYN023 333 87703 91110 91207;MET010NEW NOSIG;EQDQ01+000000PRSWM2Q02  00512WGOSPDQ03    003PRSWM1
0110065900999991999010418004+49620+006220SY-MT+0379ELLX V0202301N006019999999N0100001N1+01011+00891101751ADDAA199002091KA1120M+01021MA1101691097251MD1210191+9999OA149900671REMSYN023 333 10102 91113 91209;MET005NEW ;
0196065900999991999010419004+49620+006220SY-MT+0379ELLX V0202401N007010018019N0100001N1+01051+00911101801ADDAY121999AY221999GA1071+001809999GF108991071071001501999999MA1101691097301MD1210181+9999MW1601MW2611OA149999999REMSYN023 333 87706 91110 91207;MET010NEW NOSIG;EQDQ01  00512WGOSPDQ02    003PRSWM1
0196065900999991999010420004+49620+006220SY-MT+0379ELLX V0202301N007010009019N0080001N1+01021+00911101851ADDAY161999AY261999GA1071+000909999GF108991071061000751999999MA1101691097341MD1210151+9999MW1501MW2511OA149999999REMSYN023 333 87703 91112 91208;MET010NEW NOSIG;EQDQ01  00622WGOSPDQ02    003PRSWM1
0206065900999991999010421004+49620+006220SY-MT+0379ELLX V0202301N007010012019N0150001N1+01031+00921101861ADDAY151031AY221031GA1081+001209999GF108991081061001501999999MA1101801097361MD1210111+9999MW1211OA149999999REMSYN023 333 88704 91112 91208;MET010NEW NOSIG;EQDQ01+000000PRSWM2Q02  00622WGOSPDQ03    003PRSWM1
0174065900999991999010422004+49620+006220SY-MT+0379ELLX V0202401N007010012019N0150001N1+01031+00911101921ADDGA1071+001209999GF107991071061001501999999MA1101801097411MD1210111+9999MW1001OA149999999REMSYN023 333 87704 91111 91208;MET010NEW NOSIG;EQDQ01+000000PRSWM2Q02  00572WGOSPD
0186065900999991999010423004+49620+006220SY-MT+0379ELLX V0202401N006010012019N0150001N1+01021+00901101941ADDAY121999AY221999GA1071+001209999GF108991071071001501999999MA1101801097431MD1210091+9999MW1511MW2581MW3611OA149900621REMSYN023 333 87704 91112 91208;MET010NEW NOSIG;EQDQ01    003PRSWM1
0201065900999991999010500004+49620+006220SY-MT+0379ELLX V0202401N006010012019N0080001N1+01021+00911101981ADDAA199000191AY161061AY221061GA1071+001209999GF108991071061001501999999MA1101901097471MD1210111+9999MW1211OA149900621REMSYN023 333 87704 91112 91208;MET010NEW NOSIG;EQDQ01+000000PRSWM2Q02    003PRSWM1
0099065900999991999010501004+49620+006220SY-MT+0379ELLX V0202401N006019999999N0100001N1+01041+00901101991ADDMA1101901097481MD1210071+9999OA149999999REMSYN017 333 91110 91207;MET005NEW ;EQDQ01  00512WGOSPD
0099065900999991999010502004+49620+006220SY-MT+0379ELLX V0202201N005019999999N0100001N1+01031+00861102031ADDMA1101901097521MD1210091+9999OA149999999REMSYN017 333 91109 91206;MET005NEW ;EQDQ01  00462WGOSPD
0158065900999991999010503004+49620+006220SY-MT+0379ELLX V0202301N005010021019N0150001N1+01031+00871102041ADDGA1071+002109999GF107991071061002501999999MA1101901097531MD1210061+9999MW1001OA149900511REMSYN023 333 87707 91110 91207;MET010NEW NOSIG;EQDQ01+000000PRSWM2
0099065900999991999010504004+49620+006220SY-MT+0379ELLX V0202401N005019999999N0100001N1+01031+00891102041ADDMA1101901097531MD1110051+9999OA149999999REMSYN017 333 91108 91206;MET005NEW ;EQDQ01  00412WGOSPD
0180065900999991999010505004+49620+006220SY-MT+0379ELLX V0202501N004010120019N0150001N1+01031+00861102011ADDGA1021+002109999GA2071+012009999GF107991071051002501999999MA1101901097501MD1810021+9999MW1001OA149900411REMSYN029 333 82707 87640 91108 91206;MET010NEW NOSIG;EQDQ01+000000PRSWM2
0234065900999991999010506004+49620+006220SY-MT+0379ELLX V0202101N002010066019N0150001N1+00901+00761102051ADDAA199000191GA1021+003309999GA2071+006609999GF107991061051004501001021IA1099IA2999+00809KA1120N+00881MA1101901097521MD1510011+9999MW1001OA149900511REMSYN041 333 20088 31008 83611 85622 91110 91207;MET010NEW NOSIG;EQDQ01+000000PRSWM2
0180065900999991999010507004+49620+006220SY-MT+0379ELLX V0201901N002010600019N0100001N1+00871+00761102071ADDGA1071+060009999GF199999021061001501001021MA1101901097531MD1510001+9999MW1001OA149900261REMSYN029 333 82705 85070 91105 91202;MET010NEW NOSIG;EQDQ01+000052SCOTCVQ02+000000PRSWM2
0206065900999991999010508004+49620+006220SY-MT+0379ELLX V0201901N003010006019N0040001N1+00861+00771102101ADDAY121999AY221999GA1071+000609999GF107991071061000751999999MA1102001097561MD1210061+9999MW1101OA149999999REMSYN023 333 87703 91104 91203;MET010NEW NOSIG;EQDQ01+000000PRSWM2Q02  00212WGOSPDQ03    003PRSWM1
0228065900999991999010509004+49620+006220SY-MT+0379ELLX V0201901N003010600019N0040001N1+00881+00791102101ADDAY121031AY221031GA1021+001209999GA2071+060009999GF107991041061000751031999MA1102001097561MD1110041+9999MW1101OA149999999REMSYN029 333 84703 87360 91105 91203;MET010NEW NOSIG;EQDQ01+000000PRSWM2Q02  00262WGOSPDQ03    003PRSWM1
0152065900999991999010510204+49620+006220FM-15+0379ELLX V0202001N002610600019N0112651N1+01001+00801102111ADDGA1021+001509999GA2071+060009999GF107991999999999999999999MA1102001097591MW1001REMMET010NEW NOSIG;EQDQ01+999990APOSP Q02+999990APOSLPQ03+000000PRSWM2
0152065900999991999010511204+49620+006220FM-15+0379ELLX V0202101N004610600019N0112651N1+01001+00901102111ADDGA1021+001209999GA2071+060009999GF107991999999999999999999MA1102001097591MW1001REMMET010NEW NOSIG;EQDQ01+999990APOSP Q02+999990APOSLPQ03+000000PRSWM2
0207065900999991999010512004+49620+006220SY-MT+0379ELLX V0202001N003010600019N0100001N1+01081+00861102001ADDAA199000021GA1021+001809999GA2071+060009999GF199999011061001501031021MA1101901097501MD1810061+9999MW1001OA149900411REMSYN029 333 81706 86070 91108 91204;MET010NEW NOSIG;EQDQ01+000062SCOTCVQ02+000000PRSWM2
0100065900999991999010512504+49620+006220FM-15+0379ELLX V0202001N00361220001CN0099001N1+01201+00901101971ADDMA1101901097491MW1001REMMET016NEW CAVOK NOSIG;EQDQ01+999990APOSP Q02+999990APOSLPQ03+000000PRSWM2
0100065900999991999010513504+49620+006220FM-15+0379ELLX V0201901N00311220001CN0099001N1+01301+00901101851ADDMA1101801097391MW1001REMMET016NEW CAVOK NOSIG;EQDQ01+999990APOSP Q02+999990APOSLPQ03+000000PRSWM2
0186065900999991999010515004+49620+006220SY-MT+0379ELLX V0201701N00201060001CN0180001N1+01261+00941101851ADDGA1011+030009039GA2071+060009009GF107991011001999999031021MA1101801097381MD1710121+9999MW1001OA149900311REMSYN029 333 81360 87070 91106 91204;MET016NEW CAVOK NOSIG;EQDQ01+000000PRSWM2
0202065900999991999010516004+49620+006220SY-MT+0379ELLX V0201901N00301060001CN0220001N1+01181+00881101871ADDGA1011+030009039GA2061+060009009GF106991011001999999031021MA1101801097391MD1510051+9999MW1001OA149999999REMSYN029 333 81360 86070 91104 91203;MET016NEW CAVOK NOSIG;EQDQ01+000000PRSWM2Q02  00212WGOSPD
0180065900999991999010517004+49620+006220SY-MT+0379ELLX V0202001N003012200019N0300001N1+01051+00811101901ADDGA1041+060009009GF104991001001999999001021MA1101801097401MD1510001+9999MW1001OA149999999REMSYN023 333 84070 91105 91203;MET016NEW CAVOK NOSIG;EQDQ01+000000PRSWM2Q02  00262WGOSPD
0194065900999991999010518004+49620+006220SY-MT+0379ELLX V0202101N003012200019N0300001N1+01041+00761101891ADDAA199000091GF104991001001999999001021KA1120M+01321MA1101801097391MD1010011+9999MW1001OA149900361REMSYN029 333 10132 4070/ 91107 91204;MET016NEW CAVOK NOSIG;EQDQ01+000000PRSWM2Q02  00002PRCP99
0180065900999991999010519004+49620+006220SY-MT+0379ELLX V0202001N004012200019N0300001N1+00911+00651101951ADDGA1031+060009009GF103991001001999999001021MA1101801097421MD1310031+9999MW1001OA149999999REMSYN023 333 83070 91107 91204;MET016NEW CAVOK NOSIG;EQDQ01+000000PRSWM2Q02  00362WGOSPD
0164065900999991999010520004+49620+006220SY-MT+0379ELLX V0202001N002012200019N0300001N1+00821+00601102001ADDGA1021+060009009GF102991001001999999001021MA1101901097461MD1310061+9999MW1001OA149900261REMSYN023 333 82070 91105 91204;MET016NEW CAVOK NOSIG;EQDQ01+000000PRSWM2
0137065900999991999010521004+49620+006220SY-MT+0379ELLX V0201901N001012200019N0300001N1+00691+00521102071ADDGF100991001001999999001001MA1101901097501MD1210111+9999MW1001OA149900361REMSYN017 333 91107 91204;MET011NEW CAVOK ;EQDQ01+000000PRSWM2
0158065900999991999010522004+49620+006220SY-MT+0379ELLX V0201901N002012200019N0300001N1+00591+00421102071ADDGF100991001001999999001001MA1101901097491MD1010071+9999MW1001OA149999999REMSYN017 333 91103 91202;MET016NEW CAVOK NOSIG;EQDQ01+000000PRSWM2Q02  00152WGOSPD
0158065900999991999010523004+49620+006220SY-MT+0379ELLX V0201801N002012200019N0300001N1+00571+00431102131ADDGF100991001001999999001001MA1102001097541MD1310081+9999MW1001OA149999999REMSYN017 333 91103 91202;MET016NEW CAVOK NOSIG;EQDQ01+000000PRSWM2Q02  00152WGOSPD
0169065900999991999010600004+49620+006220SY-MT+0379ELLX V0202001N002012200019N0250001N1+00531+00381102141ADDAA199000091GF100991001001999999001001MA1102001097541MD1110041+9999MW1001OA149900361REMSYN017 333 91107 91204;MET016NEW CAVOK NOSIG;EQDQ01+000000PRSWM2Q02  00002PRCP99
0080065900999991999010602004+49620+006220SY-MT+0379ELLX V0202001N002019999999N0100001N1+00501+00351102151ADDMA1102001097551MD1310011+9999OA149900211REMSYN017 333 91104 91203;MET005NEW ;
0142065900999991999010603004+49620+006220SY-MT+0379ELLX V0202101N001012200019N0200001N1+00501+00351102151ADDGF100991001001999999001001MA1102001097551MD1110011+9999MW1001OA149900211REMSYN017 333 91104 91204;MET016NEW CAVOK NOSIG;EQDQ01+000000PRSWM2
0142065900999991999010604004+49620+006220SY-MT+0379ELLX V0201801N001012200019N0200001N1+00421+00291102131ADDGF100991001001999999001001MA1101901097521MD1810021+9999MW1001OA149900151REMSYN017 333 91103 91202;MET016NEW CAVOK NOSIG;EQDQ01+000000PRSWM2
0142065900999991999010605004+49620+006220SY-MT+0379ELLX V0202001N001012200019N0150001N1+00441+00321102121ADDGF100991001001999999001001MA1101901097511MD1810041+9999MW1001OA149900101REMSYN017 333 91102 91201;MET016NEW CAVOK NOSIG;EQDQ01+000000PRSWM2
0212065900999991999010606004+49620+006220SY-MT+0379ELLX V0202001N001012200019N0150001N1+00401+00301102141ADDAA199000091GF100991001001999999001001IA1099IA2999+00009KA1120N+00371MA1101901097521MD1510031+9999MW1001OA149900311REMSYN029 333 20037 31000 91106 91204;MET016NEW CAVOK NOSIG;EQDQ01+000000PRSWM2Q02  00002PRCP99
0136065900999991999010607004+49620+006220SY-MT+0379ELLX V0202001N001012200019N0070001N1+00351+00261102151ADDGF100991001001999999001001MA1101901097521MD1510001+9999MW1001OA149900211REMSYN017 333 91104 91202;MET010NEW NOSIG;EQDQ01+000000PRSWM2
0158065900999991999010608004+49620+006220SY-MT+0379ELLX V0201901N001012200019N0035001N1+00421+00331102131ADDGA1021+060009999GF104991001001999999001021MA1101901097521MD1110011+9999MW1001OA149900151REMSYN023 333 84070 91103 91202;MET010NEW NOSIG;EQDQ01+000000PRSWM2
0206065900999991999010609004+49620+006220SY-MT+0379ELLX V0209999V001010600019N0045001N1+00501+00371102121ADDAY111031AY211031GA1071+060009999GF199999001001999999001021MA1101901097521MD1410001+9999MW1101OA149900211REMSYN023 333 86070 91104 91202;MET010NEW NOSIG;EQDQ01+000062SCOTCVQ02+000000PRSWM2Q03    003PRSWM1
0222065900999991999010610004+49620+006220SY-MT+0379ELLX V0201901N002010600019N0040001N1+00631+00431102091ADDAY121999AY221999GA1071+060009999GF199999001001999999001021MA1101901097511MD1810011+9999MW1101OA149999999REMSYN023 333 86070 91103 91202;MET010NEW NOSIG;EQDQ01+000062SCOTCVQ02+000000PRSWM2Q03  00152WGOSPDQ04    003PRSWM1
0206065900999991999010611004+49620+006220SY-MT+0379ELLX V0202101N002010600019N0050001N1+00731+00501102041ADDAY121999AY221999GA1071+060009999GF199999001001999999001021MA1101901097481MD1810041+9999MW1101OA149900261REMSYN023 333 85070 91105 91203;MET010NEW NOSIG;EQDQ01+000052SCOTCVQ02+000000PRSWM2Q03    003PRSWM1
0201065900999991999010612004+49620+006220SY-MT+0379ELLX V0201901N001010600019N0070001N1+00831+00491101951ADDAA199000091GA1071+060009999GF199999001001999999001021MA1101801097411MD1710111+9999MW1001OA149900261REMSYN023 333 85070 91105 91203;MET010NEW NOSIG;EQDQ01+000052SCOTCVQ02+000000PRSWM2Q03  00002PRCP99
0158065900999991999010613004+49620+006220SY-MT+0379ELLX V0201801N002012200019N0080001N1+00971+00591101851ADDGA1021+060009999GF104991001001999999001021MA1101691097341MD1710171+9999MW1001OA149900211REMSYN023 333 84070 91104 91202;MET010NEW NOSIG;EQDQ01+000000PRSWM2
0180065900999991999010614004+49620+006220SY-MT+0379ELLX V0201801N00401060001CN0100001N1+00951+00591101791ADDGA1061+060009009GF106991001001999999001021MA1101691097281MD1710201+9999MW1001OA149999999REMSYN023 333 86070 91105 91204;MET016NEW CAVOK NOSIG;EQDQ01+000000PRSWM2Q02  00262WGOSPD
0100065900999991999010614204+49620+006220FM-15+0379ELLX V0201801N00361220001CN0099001N1+01001+00601101791ADDMA1101691097291MW1001REMMET016NEW CAVOK NOSIG;EQDQ01+999990APOSP Q02+999990APOSLPQ03+000000PRSWM2
0153065900999991999010615004+49620+006220SY-MT+0379ELLX V0201901N00301060001CN0100001N1+00971+00611101741ADDGA1061+060009009GF106991001001999999001021MA1101591097231MD1710181+9999MW1001OA149900361REMSYN023 333 86070 91107 91204;MET005NEW ;EQDQ01+000000PRSWM2
0164065900999991999010616004+49620+006220SY-MT+0379ELLX V0202001N00201060001CN0100001N1+00811+00541101701ADDGA1061+060009009GF106991001001999999001021MA1101591097171MD1710171+9999MW1001OA149900261REMSYN023 333 86070 91105 91203;MET016NEW CAVOK NOSIG;EQDQ01+000000PRSWM2
0164065900999991999010617004+49620+006220SY-MT+0379ELLX V0202101N002012200019N0120001N1+00661+00441101711ADDGA1031+060009009GF103991001001999999001021MA1101491097151MD1710131+9999MW1001OA149900311REMSYN023 333 83070 91106 91202;MET016NEW CAVOK NOSIG;EQDQ01+000000PRSWM2
0210065900999991999010618004+49620+006220SY-MT+0379ELLX V0202001N001012200019N0150001N1+00641+00411101651ADDAA199000091GA1031+060009009GF103991001001999999001021KA1120M+00981MA1101491097091MD1710141+9999MW1001OA149900361REMSYN029 333 10098 83070 91107 91204;MET016NEW CAVOK NOSIG;EQDQ01+000000PRSWM2Q02  00002PRCP99
0206065900999991999010619004+49620+006220SY-MT+0379ELLX V0202201N002012200019N0120001N1+00611+00441101651ADDGA1021+060009009GF102991001001999999001021MA1101491097091MD1610081+9999MW1001OA149900211REMSYN065 22202 10061 20044 39709 40165 56008 80002 333 82070 91104 91202;MET016NEW CAVOK NOSIG;EQDQ01+000000PRSWM2
0174065900999991999010620004+49620+006220SY-MT+0379ELLX V0202001N002012200019N0070001N1+00471+00321101671ADDGA1021+060009999GF199999001001999999001021MA1101491097091MD1610061+9999MW1001OA149900211REMSYN023 333 81070 91104 91203;MET010NEW NOSIG;EQDQ01+000012SCOTCVQ02+000000PRSWM2
0180065900999991999010621004+49620+006220SY-MT+0379ELLX V0202001N004012200019N0100001N1+00521+00341101561ADDGA1011+060009009GF101991001001999999001021MA1101391096991MD1810101+9999MW1001OA149999999REMSYN023 333 81070 91106 91204;MET016NEW CAVOK NOSIG;EQDQ01+000000PRSWM2Q02  00312WGOSPD
0180065900999991999010622004+49620+006220SY-MT+0379ELLX V0202101N004012200019N0200001N1+00471+00301101561ADDGA1021+060009009GF102991001001999999001021MA1101391096981MD1810111+9999MW1001OA149999999REMSYN023 333 82070 91107 91205;MET016NEW CAVOK NOSIG;EQDQ01+000000PRSWM2Q02  00362WGOSPD
0180065900999991999010623004+49620+006220SY-MT+0379ELLX V0202201N005012200019N0100001N1+00521+00271101521ADDGA1011+060009009GF101991001001999999001021MA1101291096951MD1710141+9999MW1001OA149999999REMSYN023 333 81070 91107 91205;MET016NEW CAVOK NOSIG;EQDQ01+000000PRSWM2Q02  00362WGOSPD
0213065900999991999010700004+49620+006220SY-MT+0379ELLX V0202201N006012200019N0100001N1+00541+00241101441ADDAA199000091GA1011+060009009GF101991001001999999001021MA1101291096881MD1710111+9999MW1001OA149999999REMSYN029 333 41070 81070 91107 91206;MET016NEW CAVOK NOSIG;EQDQ01+000000PRSWM2Q02  00002PRCP99Q03  00362WGOSPD
0099065900999991999010701004+49620+006220SY-MT+0379ELLX V0202301N004019999999N0100001N1+00501+00201101471ADDMA1101291096901MD1510081+9999OA149999999REMSYN017 333 91107 91206;MET005NEW ;EQDQ01  00362WGOSPD
0099065900999991999010702004+49620+006220SY-MT+0379ELLX V0202301N006019999999N0100001N1+00571+00221101431ADDMA1101291096871MD1810081+9999OA149999999REMSYN017 333 91108 91206;MET005NEW ;EQDQ01  00412WGOSPD
0180065900999991999010703004+49620+006220SY-MT+0379ELLX V0202301N007012200019N0150001N1+00601+00261101341ADDGA1021+060009009GF102991001001999999001021MA1101191096791MD1810091+9999MW1001OA149999999REMSYN023 333 82070 91109 91207;MET016NEW CAVOK NOSIG;EQDQ01+000000PRSWM2Q02  00462WGOSPD
0202065900999991999010704004+49620+006220SY-MT+0379ELLX V0202201N00501060001CN0150001N1+00621+00321101251ADDGA1021+030009039GA2061+060009009GF106991021001999999031021MA1101081096711MD1710191+9999MW1001OA149999999REMSYN029 333 82360 86070 91109 91207;MET016NEW CAVOK NOSIG;EQDQ01+000000PRSWM2Q02  00462WGOSPD
0158065900999991999010705004+49620+006220SY-MT+0379ELLX V0201901N002010060019N0150001N1+00591+00311101191ADDGA1071+006009999GF107991071051008001999999MA1101021096651MD1710221+9999MW1001OA149900461REMSYN023 333 87620 91109 91206;MET010NEW NOSIG;EQDQ01+000000PRSWM2
0244065900999991999010706004+49620+006220SY-MT+0379ELLX V0202401N006010060019N0100001N1+00781+00371101141ADDAA199000091GA1071+006009999GF107991071051008001999999IA1099IA2999+00209KA1120N+00441MA1101021096631MD1710161+9999MW1001OA149999999REMSYN035 333 20044 31002 87620 91110 91207;MET010NEW NOSIG;EQDQ01+000000PRSWM2Q02  00002PRCP99Q03  00512WGOSPD
0174065900999991999010707004+49620+006220SY-MT+0379ELLX V0202601N007010054019N0150001N1+00831+00361101161ADDGA1071+005409999GF108991071051004501999999MA1101021096661MD1510051+9999MW1001OA149999999REMSYN023 333 87618 91112 91208;MET010NEW NOSIG;EQDQ01+000000PRSWM2Q02  00622WGOSPD
0196065900999991999010708004+49620+006220SY-MT+0379ELLX V0202501N008010600019N0150001N1+00811+00341101191ADDGA1021+005409999GA2071+060009999GF107991031051004501001021MA1101081096681MD1310031+9999MW1001OA149999999REMSYN029 333 83618 87070 91112 91208;MET010NEW NOSIG;EQDQ01+000000PRSWM2Q02  00622WGOSPD
0202065900999991999010709004+49620+006220SY-MT+0379ELLX V0202501N006010300019N0150001N1+00821+00421101131ADDGA1021+006009999GA2071+030009999GA3071+060009999GF107991031051008001031021MA1101021096631MD1010001+9999MW1001OA149900621REMSYN035 333 83620 85360 86070 91112 91209;MET010NEW NOSIG;EQDQ01+000000PRSWM2
0196065900999991999010710004+49620+006220SY-MT+0379ELLX V0202601N006010051019N0150001N1+00831+00411101131ADDGA1071+005109999GA2071+030009999GF108991051051004501031999MA1101021096631MD1610031+9999MW1001OA149999999REMSYN029 333 85617 87360 91110 91207;MET010NEW NOSIG;EQDQ01+000000PRSWM2Q02  00512WGOSPD
0196065900999991999010711004+49620+006220SY-MT+0379ELLX V0202401N006010048019N0150001N1+00821+00441101091ADDAY121999AY221999GA1071+004809999GF108991071051004501999999MA1101021096591MD1810091+9999MW1601MW2611OA149999999REMSYN023 333 87616 91110 91208;MET010NEW NOSIG;EQDQ01  00512WGOSPDQ02    003PRSWM1
0185065900999991999010712004+49620+006220SY-MT+0379ELLX V0202601N004010045019N0080001N1+00731+00481101051ADDAA199000891AY161061AY221061GA1071+004509999GF108991071051004501999999MA1100911096531MD1810101+9999MW1611OA149900621REMSYN023 333 87715 91112 91209;MET010NEW NOSIG;EQDQ01    003PRSWM1
0196065900999991999010713004+49620+006220SY-MT+0379ELLX V0202701N004010018019N0030001N1+00651+00511101051ADDAY161999AY261999GA1071+001809999GF108991071071001501999999MA1100911096521MD1710111+9999MW1101MW2611OA149999999REMSYN023 333 87706 91107 91205;MET010NEW NOSIG;EQDQ01  00362WGOSPDQ02    003PRSWM1
0224065900999991999010714004+49620+006220SY-MT+0379ELLX V0203001N002010045019N0120001N1+00531+00401101071ADDAY161999AY251999GA1021+001809999GA2071+004509999GA3081+030009999GF108991071051001501021999MA1100911096521MD1610071+9999MW1501MW2511OA149900461REMSYN035 333 82706 86615 88460 91109 91205;MET010NEW NOSIG;EQDQ01    003PRSWM1
0239065900999991999010715004+49620+006220SY-MT+0379ELLX V0202901N002010054019N0150001N1+00541+00421101111ADDAY161031AY251031GA1021+001209999GA2071+005409999GA3081+030009999GF108991061051001501021999MA1100911096561MD1310031+9999MW1211OA149900461REMSYN035 333 83704 85618 88460 91109 91205;MET015NEW RERA NOSIG;EQDQ01+000000PRSWM2Q02    003PRSWM1
0203065900999991999010716004+49620+006220SY-MT+0379ELLX V0202801N002010018019N0200001N1+00521+00391101151ADDGA1071+001809999GA2071+004209999GA3071+006909999GF107991071081001501999999MA1101021096601MD1310081+9999MW1001OA149900261REMSYN035 333 85706 85814 87623 91105 91203;MET011NEW NOS IG;EQDQ01+000000PRSWM2
0180065900999991999010717004+49620+006220SY-MT+0379ELLX V0202801N001010045019N0150001N1+00511+00381101181ADDGA1021+001809999GA2071+004509999GF107991071081001501999999MA1101021096621MD1210101+9999MW1001OA149900211REMSYN029 333 83706 86815 91104 91202;MET010NEW NOSIG;EQDQ01+000000PRSWM2
0242065900999991999010718004+49620+006220SY-MT+0379ELLX V0202401N003010009019N0120001N1+00501+00381101201ADDAA199002091AY161061AY251061GA1071+000909999GA2071+007509999GF107991071051000751999999KA1120M+00841MA1101021096641MD1210081+9999MW1021OA149900461REMSYN035 333 10084 86703 87525 91109 91205;MET010NEW NOSIG;EQDQ01+000000PRSWM2Q02    003PRSWM1
0196065900999991999010719004+49620+006220SY-MT+0379ELLX V0202601N003010015019N0100001N1+00491+00361101191ADDGA1071+001509999GA2071+006009999GF107991071051001501999999MA1101021096631MD1010031+9999MW1001OA149999999REMSYN029 333 86705 87620 91104 91203;MET010NEW NOSIG;EQDQ01+000000PRSWM2Q02  00212WGOSPD
0180065900999991999010720004+49620+006220SY-MT+0379ELLX V0202501N002010015019N0120001N1+00451+00331101151ADDGA1071+001509999GA2071+005409999GF107991071051001501999999MA1101021096591MD1810031+9999MW1001OA149900211REMSYN029 333 85705 86618 91104 91203;MET010NEW NOSIG;EQDQ01+000000PRSWM2
0180065900999991999010721004+49620+006220SY-MT+0379ELLX V0202401N003010015019N0100001N1+00441+00311101121ADDGA1071+001509999GA2071+006009999GF107991071051001501999999MA1100911096561MD1710081+9999MW1001OA149900311REMSYN029 333 85705 87620 91106 91204;MET010NEW NOSIG;EQDQ01+000000PRSWM2
0174065900999991999010722004+49620+006220SY-MT+0379ELLX V0202301N003010021019N0100001N1+00411+00291101061ADDGA1071+002109999GF107991071061002501999999MA1100911096491MD1710141+9999MW1001OA149999999REMSYN023 333 87707 91105 91204;MET010NEW NOSIG;EQDQ01+000000PRSWM2Q02  00262WGOSPD
0174065900999991999010723004+49620+006220SY-MT+0379ELLX V0202301N004010024019N0100001N1+00451+00301100971ADDGA1071+002409999GF107991071061002501999999MA1100811096411MD1710181+9999MW1001OA149999999REMSYN023 333 87708 91106 91204;MET010NEW NOSIG;EQDQ01+000000PRSWM2Q02  00312WGOSPD
0207065900999991999010800004+49620+006220SY-MT+0379ELLX V0202401N006010027019N0100001N1+00471+00301100861ADDAA199000191AY121061AY221061GA1071+002709999GF107991071071002501999999MA1100711096311MD1710251+9999MW1601MW2611OA149999999REMSYN023 333 87709 91109 91206;MET010NEW NOSIG;EQDQ01  00462WGOSPDQ02    003PRSWM1
0099065900999991999010801004+49620+006220SY-MT+0379ELLX V0202301N008019999999N0100001N1+00441+00271100751ADDMA1100611096201MD1710291+9999OA149999999REMSYN017 333 91113 91209;MET005NEW ;EQDQ01  00672WGOSPD
0099065900999991999010802004+49620+006220SY-MT+0379ELLX V0202301N008019999999N0100001N1+00451+00301100651ADDMA1100511096111MD1710301+9999OA149999999REMSYN017 333 91113 91210;MET005NEW ;EQDQ01  00672WGOSPD
0099065900999991999010803004+49620+006220SY-MT+0379ELLX V0202301N008019999999N0100001N1+00471+00321100581ADDMA1100411096041MD1710271+9999OA149999999REMSYN017 333 91113 91210;MET005NEW ;EQDQ01  00672WGOSPD
0190065900999991999010804004+49620+006220SY-MT+0379ELLX V0202401N008010018019N0100001N1+00501+00371100481ADDAY161999AY261999GA1071+001809999GF108991071071001501999999MA1100311095951MD1710251+9999MW1611OA149999999REMSYN023 333 87705 91112 91208;MET010NEW NOSIG;EQDQ01  00622WGOSPDQ02    003PRSWM1
0190065900999991999010805004+49620+006220SY-MT+0379ELLX V0202601N007010015019N0070001N1+00501+00381100491ADDAY161999AY261999GA1071+001509999GF108991071071001501999999MA1100311095961MD1510151+9999MW1611OA149999999REMSYN023 333 87705 91113 91208;MET010NEW NOSIG;EQDQ01  00672WGOSPDQ02    003PRSWM1
0266065900999991999010806004+49620+006220SY-MT+0379ELLX V0202701N005010060019N0200001N1+00501+00301100541ADDAA199003091AY161061AY221061GA1021+003009999GA2071+006009999GF107991071051004501999999IA1099IA2999+00409KA1120N+00401MA1100411096011MD1510031+9999MW1211OA149900671REMSYN041 333 20040 31004 84710 87620 91113 91210;MET010NEW NOSIG;EQDQ01+000000PRSWM2Q02    003PRSWM1
0212065900999991999010807004+49620+006220SY-MT+0379ELLX V0202601N004010027019N0200001N1+00501+00321100581ADDAY121999AY221999GA1071+002709999GA2071+009009999GF108991071051002501999999MA1100411096051MD1210101+9999MW1031OA149900411REMSYN029 333 85709 87630 91108 91205;MET010NEW NOSIG;EQDQ01+000000PRSWM2Q02    003PRSWM1
0212065900999991999010808004+49620+006220SY-MT+0379ELLX V0202601N004010045019N0120001N1+00461+00291100591ADDAY161999AY261999GA1021+003009999GA2071+004509999GF108991071051004501999999MA1100411096051MD1110091+9999MW1611OA149999999REMSYN029 333 84710 87615 91107 91205;MET010NEW NOSIG;EQDQ01  00362WGOSPDQ02    003PRSWM1
0212065900999991999010809004+49620+006220SY-MT+0379ELLX V0202601N00601009001CN0200001N1+00461+00231100611ADDAY121031AY221031GA1021+003009999GA2021+004509999GF105991051081004501031001MA1100411096071MD1310061+9999MW1211OA149900621REMSYN029 333 82710 84815 91112 91207;MET010NEW NOSIG;EQDQ01+000000PRSWM2Q02    003PRSWM1
0152065900999991999010810004+49620+006220FM-12+0379ELLX V0202701N00601009001CN0200001N1+00491+00161100631ADDGA1041+005109089GF105991051081004501031001MA1100461096101MD1310051+9999OA149999999REMSYN023 333 84817 91111 91207;EQDQ01+999990APOA  Q02  00572WGOSPD
0190065900999991999010811004+49620+006220SY-MT+0379ELLX V0202701N006010045019N0120001N1+00491+00171100691ADDGA1071+004509999GF199999061081004501001001MA1100511096151MD1210101+9999MW1001OA149999999REMSYN023 333 85815 91110 91206;MET010NEW NOSIG;EQDQ01+000062SCOTCVQ02+000000PRSWM2Q03  00512WGOSPD
0208065900999991999010812004+49620+006220SY-MT+0379ELLX V0202701N005010045019N0080001N1+00521+00131100631ADDAA199000591AY161061AY221061GA1021+001509999GA2071+004509999GF107991071081001501999999MA1100511096101MD1010031+9999MW1801OA149900621REMSYN029 333 83705 86815 91112 91208;MET011NEW NOSI G;EQDQ01    003PRSWM1
0228065900999991999010813004+49620+006220SY-MT+0379ELLX V0202601N006010045019N0150001N1+00441+00181100621ADDAY121999AY221999GA1021+003009999GA2071+004509999GF199999061081004501001001MA1100411096081MD1810021+9999MW1251OA149900621REMSYN029 333 83710 85815 91112 91208;MET010NEW NOSIG;EQDQ01+000062SCOTCVQ02+000000PRSWM2Q03    003PRSWM1
0245065900999991999010814004+49620+006220SY-MT+0379ELLX V0202401N008010600019N0220001N1+00501+00131100561ADDAY121999AY221999GA1021+005409999GA2021+015009999GA3071+060009999GF107991061081004501031021MA1100411096031MD1710121+9999MW1251OA149999999REMSYN029 333 85813 83650 91111 91208;MET011NEW NOS IG;EQDQ01+000000PRSWM2Q02  00572WGOSPDQ03    003PRSWM1
0228065900999991999010815004+49620+006220SY-MT+0379ELLX V0202501N007010051019N0220001N1+00491+00081100531ADDAY181031AY221031GA1071+005109999GA2071+060009999GF107991061081004501031021MA1100311096001MD1710101+9999MW1021OA149999999REMSYN029 333 85818 87070 91112 91208;MET010NEW NOSIG;EQDQ01+000000PRSWM2Q02  00622WGOSPDQ03    003PRSWM1
0212065900999991999010816004+49620+006220SY-MT+0379ELLX V0202501N005010600019N0220001N1+00451+00061100531ADDGA1021+005409999GA2071+060009999GF199999041081004501031021MA1100311095991MD1710091+9999MW1001OA149999999REMSYN029 333 83818 86070 91109 91206;MET010NEW NOSIG;EQDQ01+000062SCOTCVQ02+000000PRSWM2Q03  00462WGOSPD
0212065900999991999010817004+49620+006220SY-MT+0379ELLX V0202501N005010600019N0220001N1+00421+00121100541ADDGA1021+004509999GA2071+060009999GF199999021081004501001021MA1100411096001MD1510031+9999MW1001OA149999999REMSYN029 333 82815 85070 91108 91206;MET010NEW NOSIG;EQDQ01+000052SCOTCVQ02+000000PRSWM2Q03  00412WGOSPD
0226065900999991999010818004+49620+006220SY-MT+0379ELLX V0202501N006012200019N0200001N1+00391+00111100541ADDAA199000591AY181061AY211061GA1041+060009009GF104991001001999999001021KA1120M+00601MA1100311095991MD1810011+9999MW1011OA149900621REMSYN029 333 10060 84070 91112 91208;MET016NEW CAVOK NOSIG;EQDQ01+000000PRSWM2Q02    003PRSWM1
0174065900999991999010819004+49620+006220SY-MT+0379ELLX V0202501N005010036019N0200001N1+00381+00141100531ADDGA1071+003609999GF107991071081004501999999MA1100311095981MD1810011+9999MW1001OA149999999REMSYN023 333 87812 91109 91206;MET010NEW NOSIG;EQDQ01+000000PRSWM2Q02  00462WGOSPD
0174065900999991999010820004+49620+006220SY-MT+0379ELLX V0202501N005010042019N0200001N1+00411+00161100541ADDGA1071+004209999GF107991071081004501999999MA1100411096001MD1510001+9999MW1001OA149999999REMSYN023 333 87814 91108 91206;MET010NEW NOSIG;EQDQ01+000000PRSWM2Q02  00412WGOSPD
0196065900999991999010821004+49620+006220SY-MT+0379ELLX V0202601N005010060019N0200001N1+00411+00131100551ADDGA1021+003909999GA2071+006009999GF107991071081004501999999MA1100411096011MD1310021+9999MW1001OA149999999REMSYN029 333 84813 85620 91109 91206;MET010NEW NOSIG;EQDQ01+000000PRSWM2Q02  00462WGOSPD
0196065900999991999010822004+49620+006220SY-MT+0379ELLX V0202601N005010060019N0200001N1+00391+00141100581ADDGA1021+004209999GA2071+006009999GF107991071081004501999999MA1100411096031MD1210051+9999MW1001OA149999999REMSYN029 333 84814 85620 91108 91206;MET010NEW NOSIG;EQDQ01+000000PRSWM2Q02  00412WGOSPD
0196065900999991999010823004+49620+006220SY-MT+0379ELLX V0202401N004010045019N0200001N1+00371+00211100581ADDGA1021+002709999GA2071+004509999GF107991071081002501999999MA1100411096031MD1110031+9999MW1001OA149999999REMSYN029 333 84809 85815 91107 91205;MET010NEW NOSIG;EQDQ01+000000PRSWM2Q02  00362WGOSPD
0169065900999991999010900004+49620+006220SY-MT+0379ELLX V0202401N004010030019N0150001N1+00371+00211100551ADDAA199000021GA1071+003009999GF107991071061004501999999MA1100411096001MD1810011+9999MW1001OA149900461REMSYN023 333 87710 91109 91206;MET010NEW NOSIG;EQDQ01+000000PRSWM2
0099065900999991999010901004+49620+006220SY-MT+0379ELLX V0202401N005019999999N0100001N1+00351+00201100511ADDMA1100311095961MD1810071+9999OA149999999REMSYN017 333 91108 91206;MET005NEW ;EQDQ01  00412WGOSPD
0099065900999991999010902004+49620+006220SY-MT+0379ELLX V0202401N005019999999N0100001N1+00351+00231100481ADDMA1100311095931MD1710101+9999OA149999999REMSYN017 333 91107 91205;MET005NEW ;EQDQ01  00362WGOSPD
0190065900999991999010903004+49620+006220SY-MT+0379ELLX V0202401N004010030019N0150001N1+00351+00201100461ADDAY121031AY221031GA1071+003009999GF107991071061004501999999MA1100311095911MD1710091+9999MW1211OA149900411REMSYN023 333 87710 91108 91206;MET010NEW NOSIG;EQDQ01+000000PRSWM2Q02    003PRSWM1
0174065900999991999010904004+49620+006220SY-MT+0379ELLX V0202301N004010030019N0150001N1+00351+00191100401ADDGA1071+003009999GF107991071061004501999999MA1100201095851MD1710111+9999MW1001OA149999999REMSYN023 333 87710 91107 91205;MET010NEW NOSIG;EQDQ01+000000PRSWM2Q02  00362WGOSPD
0196065900999991999010905004+49620+006220SY-MT+0379ELLX V0202501N003010018019N0150001N1+00231+00101100401ADDAY121999AY221999GA1071+001809999GA2071+004509999GF107991071081001501999999MA1100201095831MD1710101+9999MW1801OA149900411REMSYN029 333 85706 86815 91108 91206;MET010NEW NOSIG;EQDQ01    003PRSWM1
0256065900999991999010906004+49620+006220SY-MT+0379ELLX V0202301N004010012019N0060001N1+00281+00181100361ADDAA199002091AY181061AY261061GA1071+001209999GA2071+002109999GF108991071071001501999999IA1099IA2999+00309KA1120N+00231MA1100101095801MD1710111+9999MW1601MW2611OA149900411REMSYN041 333 20023 31003 85704 87707 91108 91206;MET010NEW NOSIG;EQDQ01    003PRSWM1
0136065900999991999010906504+49620+006220FM-15+0379ELLX V0202401N002610018019N0112651N1+00201+00101100311ADDGA1071+001809999GF107991999999999999999999MA1100101095751MW1001REMMET010NEW NOSIG;EQDQ01+999990APOSP Q02+999990APOSLPQ03+000000PRSWM2
0180065900999991999010908004+49620+006220SY-MT+0379ELLX V0202201N002010018019N0070001N1+00231+00131100391ADDGA1021+000909999GA2071+001809999GF108991071061000751999999MA1100201095821MD1510011+9999MW1001OA149900311REMSYN029 333 84703 87706 91106 91204;MET010NEW NOSIG;EQDQ01+000000PRSWM2
0180065900999991999010909004+49620+006220SY-MT+0379ELLX V0202501N004010027019N0100001N1+00211+00081100431ADDGA1021+001509999GA2071+002709999GF108991071061001501999999MA1100201095861MD1310061+9999MW1001OA149900511REMSYN029 333 84705 87709 91110 91207;MET010NEW NOSIG;EQDQ01+000000PRSWM2
0212065900999991999010910004+49620+006220SY-MT+0379ELLX V0202801N002010012019N0070001N1+00191+00091100501ADDAY121999AY221999GA1021+000909999GA2071+001209999GF108991071061000751999999MA1100311095921MD1210121+9999MW1251OA149900261REMSYN029 333 84703 87704 91105 91204;MET010NEW NOSIG;EQDQ01+000000PRSWM2Q02    003PRSWM1
0213065900999991999010911004+49620+006220SY-MT+0379ELLX V0200101N005010021019N0100001N1+00191+00031100541ADDGA1021+000909999GA2071+002109999GA3071+003609999GF108991071061001501999999MA1100411095961MD1210141+9999MW1001OA149999999REMSYN029 333 85704 87708 91108 91205;MET011NEW NOS IG;EQDQ01+000000PRSWM2Q02  00412WGOSPD
0191065900999991999010912004+49620+006220SY-MT+0379ELLX V0200101N004010024019N0080001N1+00211+00031100611ADDAA199003091AY181061AY271061GA1071+002409999GF108991071061002501999999MA1100411096031MD1210171+9999MW1701MW2711OA149900511REMSYN023 333 87708 91110 91207;MET010NEW NOSIG;EQDQ01    003PRSWM1
0228065900999991999010913004+49620+006220SY-MT+0379ELLX V0200101N004010036019N0030001N1+00121-00041100701ADDAY171999AY261999GA1021+002709999GA2071+003609999GF108991071071001501999999MA1100511096101MD1210181+9999MW1681OA149999999REMSYN029 333 85705 87708 91107 91204;MET010NEW NOSIG;EQDQ01+000000PRSWM2Q02  00362WGOSPDQ03    003PRSWM1
0212065900999991999010914004+49620+006220SY-MT+0379ELLX V0203601N003010045019N0100001N1+00101-00081100771ADDAY121999AY221999GA1021+002709999GA2071+004509999GF108991071051002501999999MA1100511096171MD1210211+9999MW1231OA149900411REMSYN029 333 84709 87615 91108 91205;MET010NEW NOSIG;EQDQ01+000000PRSWM2Q02    003PRSWM1
0190065900999991999010915004+49620+006220SY-MT+0379ELLX V0200101N003010039019N0180001N1+00081-00161100861ADDAY171031AY221031GA1071+003909999GF107991071051004501999999MA1100611096251MD1210221+9999MW1011OA149900411REMSYN023 333 87613 91108 91205;MET010NEW NOSIG;EQDQ01+000000PRSWM2Q02    003PRSWM1
0158065900999991999010916004+49620+006220SY-MT+0379ELLX V0200101N004010057019N0200001N1+00051-00291100971ADDGA1071+005709999GF107991071051004501999999MA1100711096351MD1210251+9999MW1001OA149900411REMSYN023 333 87619 91108 91204;MET010NEW NOSIG;EQDQ01+000000PRSWM2
0200065900999991999010917004+49620+006220SY-MT+0379ELLX V0203301N003012200019N0200001N1-00031-00371101071ADDGA1021+009909999GF103991021051008001001021MA1100811096431MD1210261+9999MW1001OA149900411REMSYN065 33303 11003 21037 39643 40107 52026 82502 333 82633 91108 91205;MET010NEW NOSIG;EQDQ01+000000PRSWM2
0229065900999991999010918004+49620+006220SY-MT+0379ELLX V0203401N002012200019N0250001N1-00061-00381101161ADDAA199003091AY171061AY211061GA1021+009909999GF102991021051008001001021KA1120M+00301MA1100911096511MD1210261+9999MW1011OA149900411REMSYN029 333 10030 82633 91108 91205;MET019NEW NOSIG 06790030;EQDQ01+000000PRSWM2Q02    003PRSWM1
0173065900999991999010919004+49620+006220SY-MT+0379ELLX V0203501N002012200019N0250001N1-00101-00431101211ADDGA1011+060009009GF101991001001999999001021MA1100911096551MD1210201+9999MW1001OA149900261REMSYN023 333 81070 91105 91202;MET025NEW CAVOK NOSIG 06CLRD//;EQDQ01+000000PRSWM2
0164065900999991999010920004+49620+006220SY-MT+0379ELLX V0203401N001012200019N0250001N1-00131-00411101241ADDGA1011+060009009GF101991001001999999001021MA1101021096581MD1210151+9999MW1001OA149900211REMSYN023 333 81070 91104 91202;MET016NEW CAVOK NOSIG;EQDQ01+000000PRSWM2
0142065900999991999010921004+49620+006220SY-MT+0379ELLX V0209999V001012200019N0250001N1-00141-00411101301ADDGF100991001001999999001001MA1101021096631MD1210121+9999MW1001OA149900261REMSYN017 333 91105 91202;MET016NEW CAVOK NOSIG;EQDQ01+000000PRSWM2
0151065900999991999010922004+49620+006220SY-MT+0379ELLX V0209999C000012200019N0250001N1-00261-00431101391ADDGF100991001001999999001001MA1101081096701MD1210151+9999MW1001OA149900101REMSYN017 333 91102 91201;MET025NEW CAVOK NOSIG 0619//48;EQDQ01+000000PRSWM2
0151065900999991999010923004+49620+006220SY-MT+0379ELLX V0203601N001012200019N0250001N1-00261-00421101391ADDGF100991001001999999001001MA1101081096701MD1110121+9999MW1001OA149900101REMSYN017 333 91102 91201;MET025NEW CAVOK NOSIG 0619//48;EQDQ01+000000PRSWM2
0187065900999991999011100004+49620+006220SY-MT+0379ELLX V0200501N006010036019N0150001N1-00031-00331100841ADDAA199000091GA1071+003609999GF107991071051004501999999MA1100611096211MW1001OA149999999REMSYN023 333 87612 91111 91208;MET010NEW NOSIG;EQDQ01+000000PRSWM2Q02  00002PRCP99Q03  00572WGOSPD
0073065900999991999011100504+49620+006220FM-15+0379ELLX V0200401N006212200019N0112651N1+99999+99999999999ADDMA1100511096151MW1001REMMET005NEW ;EQDQ01+999990APOSP Q02+000000PRSWM2
0099065900999991999011102004+49620+006220SY-MT+0379ELLX V0200401N006019999999N0100001N1-00061-00381100761ADDMA1100511096131MD1810081+9999OA149999999REMSYN017 333 91110 91206;MET005NEW ;EQDQ01  00512WGOSPD
0174065900999991999011103004+49620+006220SY-MT+0379ELLX V0200501N006010036019N0150001N1-00081-00381100751ADDGA1071+003609999GF107991071051004501999999MA1100511096121MD1710091+9999MW1001OA149999999REMSYN023 333 87612 91111 91207;MET010NEW NOSIG;EQDQ01+000000PRSWM2Q02  00572WGOSPD
0174065900999991999011104004+49620+006220SY-MT+0379ELLX V0200501N006010039019N0150001N1-00131-00451100721ADDGA1071+003909999GF107991071051004501999999MA1100411096081MD1710061+9999MW1001OA149999999REMSYN023 333 87613 91110 91207;MET010NEW NOSIG;EQDQ01+000000PRSWM2Q02  00512WGOSPD
0183065900999991999011105004+49620+006220SY-MT+0379ELLX V0200401N005010036019N0150001N1-00131-00451100691ADDGA1071+003609999GF107991071051004501999999MA1100411096051MD1710081+9999MW1001OA149999999REMSYN023 333 87612 91109 91206;MET019NEW NOSIG 0619//70;EQDQ01+000000PRSWM2Q02  00462WGOSPD
0237065900999991999011106004+49620+006220SY-MT+0379ELLX V0200401N004010033019N0200001N1-00151-00431100751ADDAA199000091GA1071+003309999GF107991071051004501999999IA1149IA2999-00109KA1120N-00161MA1100511096111MD1510011+9999MW1001OA149900571REMSYN035 333 21016 34101 87611 91111 91207;MET019NEW NOSIG 0619//70;EQDQ01+000000PRSWM2Q02  00002PRCP99
0174065900999991999011107004+49620+006220SY-MT+0379ELLX V0200401N005010033019N0180001N1-00151-00431100711ADDGA1071+003309999GF107991071051004501999999MA1100411096071MD1810011+9999MW1001OA149999999REMSYN023 333 87611 91108 91205;MET010NEW NOSIG;EQDQ01+000000PRSWM2Q02  00412WGOSPD
0158065900999991999011108004+49620+006220SY-MT+0379ELLX V0200301N004010033019N0120001N1-00171-00471100791ADDGA1071+003309999GF107991071051004501999999MA1100511096141MD1310091+9999MW1001OA149900411REMSYN023 333 87611 91108 91205;MET010NEW NOSIG;EQDQ01+000000PRSWM2
0158065900999991999011109004+49620+006220SY-MT+0379ELLX V0200201N004010030019N0120001N1-00181-00461100831ADDGA1081+003009999GF108991081051004501999999MA1100511096181MD1310071+9999MW1001OA149900411REMSYN023 333 88610 91108 91205;MET010NEW NOSIG;EQDQ01+000000PRSWM2
0174065900999991999011110004+49620+006220SY-MT+0379ELLX V0200201N005010030019N0120001N1-00191-00491100871ADDGA1081+003009999GF108991081051004501999999MA1100611096211MD1210141+9999MW1001OA149999999REMSYN023 333 88610 91109 91206;MET010NEW NOSIG;EQDQ01+000000PRSWM2Q02  00462WGOSPD
0158065900999991999011111004+49620+006220SY-MT+0379ELLX V0200201N004010030019N0100001N1-00201-00481100911ADDGA1081+003009999GF108991081051004501999999MA1100611096251MD1210111+9999MW1001OA149900461REMSYN023 333 88610 91109 91206;MET010NEW NOSIG;EQDQ01+000000PRSWM2
0201065900999991999011112004+49620+006220SY-MT+0379ELLX V0200201N004010030019N0080001N1-00181-00481100861ADDAA199000791AY121061AY221061GA1081+003009999GF108991081051004501999999MA1100611096211MD1010031+9999MW1221OA149900511REMSYN023 333 88610 91110 91206;MET010NEW NOSIG;EQDQ01+000000PRSWM2Q02    003PRSWM1
0174065900999991999011113004+49620+006220SY-MT+0379ELLX V0200201N005010036019N0100001N1-00171-00521100851ADDGA1081+003609999GF108991081051004501999999MA1100611096201MD1810011+9999MW1001OA149999999REMSYN023 333 88612 91109 91206;MET010NEW NOSIG;EQDQ01+000000PRSWM2Q02  00462WGOSPD
0158065900999991999011114004+49620+006220SY-MT+0379ELLX V0200101N005010039019N0035001N1-00191-00521100871ADDGA1071+003909999GF108991081051004501999999MA1100611096211MD1510041+9999MW1001OA149900511REMSYN023 333 88613 91110 91206;MET010NEW NOSIG;EQDQ01+000000PRSWM2
0190065900999991999011115004+49620+006220SY-MT+0379ELLX V0200101N003010036019N0040001N1-00181-00501100931ADDAY121031AY221031GA1081+003609999GF108991081051004501999999MA1100611096271MD1310061+9999MW1051OA149900511REMSYN023 333 88612 91110 91206;MET010NEW NOSIG;EQDQ01+000000PRSWM2Q02    003PRSWM1
0206065900999991999011116004+49620+006220SY-MT+0379ELLX V0200101N004010045019N0035001N1-00201-00501100981ADDAY121999AY221999GA1081+004509999GF108991081051004501999999MA1100711096321MD1210121+9999MW1101OA149999999REMSYN023 333 88615 91107 91204;MET010NEW NOSIG;EQDQ01+000000PRSWM2Q02  00362WGOSPDQ03    003PRSWM1
0158065900999991999011117004+49620+006220SY-MT+0379ELLX V0200101N003010042019N0100001N1-00201-00531101061ADDGA1081+004209999GF108991081051004501999999MA1100811096391MD1210181+9999MW1001OA149900361REMSYN023 333 88614 91107 91204;MET010NEW NOSIG;EQDQ01+000000PRSWM2
0188065900999991999011118004+49620+006220SY-MT+0379ELLX V0203601N003010051019N0100001N1-00201-00571101101ADDAA199000791GA1071+005109999GF107991071051004501999999KA1120M-00141MA1100811096431MD1210161+9999MW1001OA149900511REMSYN029 333 11014 87617 91110 91206;MET010NEW NOSIG;EQDQ01+000000PRSWM2
0158065900999991999011119004+49620+006220SY-MT+0379ELLX V0203501N004010060019N0100001N1-00211-00631101171ADDGA1071+006009999GF107991071051008001999999MA1100911096501MD1210181+9999MW1001OA149900461REMSYN023 333 87620 91109 91205;MET010NEW NOSIG;EQDQ01+000000PRSWM2
0158065900999991999011120004+49620+006220SY-MT+0379ELLX V0203601N003010081019N0100001N1-00241-00751101231ADDGA1071+008109999GF107991071051008001999999MA1100911096551MD1210161+9999MW1001OA149900461REMSYN023 333 87627 91109 91205;MET010NEW NOSIG;EQDQ01+000000PRSWM2
0158065900999991999011121004+49620+006220SY-MT+0379ELLX V0203501N003010075019N0180001N1-00261-00791101301ADDGA1071+007509999GF107991071051008001999999MA1101021096611MD1210181+9999MW1001OA149900461REMSYN023 333 87625 91109 91205;MET010NEW NOSIG;EQDQ01+000000PRSWM2
0158065900999991999011122004+49620+006220SY-MT+0379ELLX V0203601N003010075019N0200001N1-00281-00891101361ADDGA1071+007509999GF107991071051008001999999MA1101081096671MD1210171+9999MW1001OA149900511REMSYN023 333 87625 91110 91204;MET010NEW NOSIG;EQDQ01+000000PRSWM2
0158065900999991999011123004+49620+006220SY-MT+0379ELLX V0203501N003010084019N0200001N1-00321-00851101481ADDGA1071+008409999GF107991071051008001999999MA1101191096771MD1210221+9999MW1001OA149900361REMSYN023 333 87628 91107 91203;MET010NEW NOSIG;EQDQ01+000000PRSWM2
0169065900999991999011200004+49620+006220SY-MT+0379ELLX V0203401N003010090019N0150001N1-00341-00861101521ADDAA199000021GA1071+009009999GF107991071051008001999999MA1101191096811MD1210201+9999MW1001OA149900511REMSYN023 333 87630 91110 91205;MET010NEW NOSIG;EQDQ01+000000PRSWM2
0073065900999991999011200504+49620+006220FM-15+0379ELLX V0203201N003112200019N0112651N1+99999+99999999999ADDMA1101191096801MW1001REMMET005NEW ;EQDQ01+999990APOSP Q02+000000PRSWM2
0080065900999991999011202004+49620+006220SY-MT+0379ELLX V0203101N002019999999N0100001N1-00361-00831101611ADDMA1101291096891MD1210121+9999OA149900261REMSYN017 333 91105 91203;MET005NEW ;
0174065900999991999011203004+49620+006220SY-MT+0379ELLX V0203001N002010060019N0150001N1-00391-00781101671ADDGA1071+006009999GF199999061051008001001001MA1101391096941MD1210131+9999MW1001OA149900311REMSYN023 333 86623 91106 91203;MET010NEW NOSIG;EQDQ01+000062SCOTCVQ02+000000PRSWM2
0174065900999991999011204004+49620+006220SY-MT+0379ELLX V0202901N003010048019N0150001N1-00391-00771101731ADDGA1071+004809999GF199999051051004501001001MA1101391097001MD1210171+9999MW1001OA149900311REMSYN023 333 85616 91106 91204;MET010NEW NOSIG;EQDQ01+000052SCOTCVQ02+000000PRSWM2
0174065900999991999011205004+49620+006220SY-MT+0379ELLX V0202601N003012200019N0120001N1-00471-00731101781ADDGA1021+003009999GF102991021051004501001001MA1101391097031MD1210141+9999MW1001OA149999999REMSYN023 333 82610 91105 91203;MET010NEW NOSIG;EQDQ01+000000PRSWM2Q02  00262WGOSPD
0244065900999991999011206004+49620+006220SY-MT+0379ELLX V0202601N005010018019N0090001N1-00501-00681101841ADDAA199000091GA1071+001809999GF107991071061001501999999IA1149IA2999-00609KA1120N-00521MA1101491097091MD1210151+9999MW1001OA149999999REMSYN035 333 21052 34106 87706 91106 91205;MET010NEW NOSIG;EQDQ01+000000PRSWM2Q02  00002PRCP99Q03  00312WGOSPD
0174065900999991999011207004+49620+006220SY-MT+0379ELLX V0202401N004010015019N0070001N1-00451-00621101861ADDGA1071+001509999GF107991071061001501999999MA1101491097111MD1210111+9999MW1001OA149999999REMSYN023 333 87705 91106 91205;MET010NEW NOSIG;EQDQ01+000000PRSWM2Q02  00312WGOSPD
0190065900999991999011208004+49620+006220SY-MT+0379ELLX V0202501N005010009019N0030001N1-00471-00591101891ADDAY121999AY221999GA1071+000909999GF108991071061000751999999MA1101491097141MD1210111+9999MW1101OA149999999REMSYN023 333 87703 91107 91206;MET010NEW NOSIG;EQDQ01  00362WGOSPDQ02    003PRSWM1
0228065900999991999011209004+49620+006220SY-MT+0379ELLX V0202601N005010018019N0080001N1-00391-00571101931ADDAY121031AY221031GA1021+000909999GA2071+001809999GF107991071061000751999999MA1101591097191MD1210101+9999MW1221OA149999999REMSYN029 333 83703 87706 91108 91206;MET010NEW NOSIG;EQDQ01+000000PRSWM2Q02  00412WGOSPDQ03    003PRSWM1
0174065900999991999011210004+49620+006220SY-MT+0379ELLX V0202401N007010024019N0080001N1-00341-00571101921ADDGA1071+002409999GF107991071061002501999999MA1101591097191MD1110081+9999MW1001OA149999999REMSYN023 333 87708 91110 91208;MET010NEW NOSIG;EQDQ01+000000PRSWM2Q02  00512WGOSPD
0174065900999991999011211004+49620+006220SY-MT+0379ELLX V0202401N005010024019N0100001N1-00271-00521101891ADDGA1071+002409999GF107991071061002501999999MA1101591097171MD1010031+9999MW1001OA149999999REMSYN023 333 87708 91109 91207;MET010NEW NOSIG;EQDQ01+000000PRSWM2Q02  00462WGOSPD
0239065900999991999011212004+49620+006220SY-MT+0379ELLX V0202401N00601090001CN0100001N1-00151-00551101761ADDAA199000791AY171061AY221061GA1021+003609999GA2021+060009999GF106991041051004501001021MA1101491097071MD1810121+9999MW1011OA149999999REMSYN029 333 83612 84070 91110 91208;MET010NEW NOSIG;EQDQ01+000000PRSWM2Q02  00512WGOSPDQ03    003PRSWM1
0158065900999991999011213004+49620+006220SY-MT+0379ELLX V0202301N004010033019N0100001N1-00181-00461101691ADDGA1071+003309999GF108991071051004501999999MA1101391097001MD1710191+9999MW1001OA149900461REMSYN023 333 87611 91109 91207;MET010NEW NOSIG;EQDQ01+000000PRSWM2
0174065900999991999011214004+49620+006220SY-MT+0379ELLX V0202301N006010024019N0100001N1-00201-00451101621ADDGA1071+002409999GF108991071061002501999999MA1101291096931MD1710241+9999MW1001OA149999999REMSYN023 333 87708 91110 91206;MET010NEW NOSIG;EQDQ01+000000PRSWM2Q02  00512WGOSPD
0174065900999991999011215004+49620+006220SY-MT+0379ELLX V0202201N006010021019N0100001N1-00201-00421101541ADDGA1071+002109999GF108991071061002501999999MA1101191096851MD1710221+9999MW1001OA149999999REMSYN023 333 87707 91110 91207;MET010NEW NOSIG;EQDQ01+000000PRSWM2Q02  00512WGOSPD
0218065900999991999011216004+49620+006220SY-MT+0379ELLX V0202201N006010036019N0100001N1-00181-00451101401ADDGA1021+002409999GA2071+003609999GA3081+060009999GF108991061051002501031021MA1101081096721MD1710281+9999MW1001OA149999999REMSYN035 333 82708 85612 88070 91109 91207;MET010NEW NOSIG;EQDQ01+000000PRSWM2Q02  00462WGOSPD
0174065900999991999011217004+49620+006220SY-MT+0379ELLX V0202101N007010105019N0120001N1-00211-00561101321ADDGA1071+010509999GF108991071051012501999999MA1101021096641MD1710291+9999MW1001OA149999999REMSYN023 333 87635 91111 91208;MET010NEW NOSIG;EQDQ01+000000PRSWM2Q02  00572WGOSPD
0210065900999991999011218004+49620+006220SY-MT+0379ELLX V0202101N006012200019N0150001N1-00261-00621101221ADDAA199000791GA1041+060009009GF104991001001999999001021KA1120M-00121MA1100911096541MD1710311+9999MW1001OA149999999REMSYN029 333 11012 84070 91111 91208;MET016NEW CAVOK NOSIG;EQDQ01+000000PRSWM2Q02  00572WGOSPD
0202065900999991999011219004+49620+006220SY-MT+0379ELLX V0202101N00701060001CN0120001N1-00251-00701101111ADDGA1041+015009069GA2051+060009009GF106991041051017501031021MA1100811096431MD1710291+9999MW1001OA149999999REMSYN029 333 84650 85070 91111 91207;MET016NEW CAVOK NOSIG;EQDQ01+000000PRSWM2Q02  00572WGOSPD
0211065900999991999011220004+49620+006220SY-MT+0379ELLX V0202001N006010300019N0025001N1-00341-00571100971ADDAY121999AY221999GA1021+000609999GA2071+030009999GF108991041071000751021999MA1100611096281MD1710361+9999MW1701MW2711OA149900621OC101291REMSYN029 333 84702 88460 91112 91208;MET011NEW N OSIG;EQDQ01    003PRSWM1
0209065900999991999011221004+49620+006220SY-MT+0379ELLX V0201901N006010009019N0016001N1-00381-00521100821ADDAY171031AY221031GA1071+000909999GA2071+001809999GF108991071071000751999999MA1100511096131MD1710411+9999MW1101MW2711OA149900621REMSYN035 333 46997 86703 87706 91112 91208;MET011NEW N OSIG;EQDQ01    003PRSWM1
0252065900999991999011222004+49620+006220SY-MT+0379ELLX V0202101N006010240019N0006001N1-00411-00411100731ADDAY171999AY271999ED199U08009GA1021+000909999GA2081+024009999GF108991031071000751021999MA1100401096041MD1710391+9999MW1481MW2711OA149999999REMSYN029 333 83703 88458 91110 91207;MET017NEW Q10 04 NOSIG;EQDQ01+999990APOA  Q02  00512WGOSPDQ03    003PRSWM1
0238065900999991999011223004+49620+006220SY-MT+0379ELLX V0202101N006010015019N0014001N1-00411-00531100601ADDAY171999AY271999ED199U20009GA1071+001509999GA2071+004209999GF108991071051001501999999MA1100311095921MD1710361+9999MW1101MW2711OA149999999REMSYN029 333 85705 86614 91110 91207;MET019NEW NOSIG 06490222;EQDQ01  00512WGOSPDQ02    003PRSWM1
0253065900999991999011300004+49620+006220SY-MT+0379ELLX V0202101N006010009019N0020001N1-00401-00511100531ADDAA199000591AG19998AJ199999900635099AY171061AY241061GA1071+000909999GA2071+002409999GF108991071071000751999999MA1100201095851MD1710281+9999MW1101MW2711OA149900621REMSYN035 333 48003 85703 87708 91112 91208;MET020NEW NOSIG 064 90325;EQDQ01    003PRSWM1
0099065900999991999011301004+49620+006220SY-MT+0379ELLX V0202101N005019999999N0049001N1-00341-00451100481ADDMA1100201095821MD1710221+9999OA149999999REMSYN017 333 91108 91206;MET005NEW ;EQDQ01  00412WGOSPD
0099065900999991999011302004+49620+006220SY-MT+0379ELLX V0202101N004019999999N0022001N1-00281-00391100461ADDMA1100201095811MD1710111+9999OA149999999REMSYN017 333 91107 91205;MET005NEW ;EQDQ01  00362WGOSPD
0205065900999991999011303004+49620+006220SY-MT+0379ELLX V0202301N006010015019N0030001N1-00201-00311100431ADDAY171031AY271031GA1071+001509999GF108991071071001501999999MA1100101095791MD1710061+9999MW1711OA149999999REMSYN029 333 48003 87705 91108 91206;MET019NEW NOSIG 06490325;EQDQ01  00412WGOSPDQ02    003PRSWM1
0199065900999991999011304004+49620+006220SY-MT+0379ELLX V0202601N003010012019N0100001N1-00141-00241100471ADDAY171999AY271999GA1071+001209999GF108991071071001501999999MA1100201095841MD1310021+9999MW1711OA149900411REMSYN023 333 87704 91108 91206;MET019NEW NOSIG 06490325;EQDQ01+000000PRSWM2Q02    003PRSWM1
0206065900999991999011305004+49620+006220SY-MT+0379ELLX V0202601N004010015019N0100001N1-00051-00131100511ADDAY121999AY221999GA1071+001509999GF108991071061001501999999MA1100201095891MD1310081+9999MW1221OA149999999REMSYN023 333 87705 91106 91204;MET010NEW NOSIG;EQDQ01+000000PRSWM2Q02  00312WGOSPDQ03    003PRSWM1
0270065900999991999011306004+49620+006220SY-MT+0379ELLX V0202701N004010015019N0100001N1+00001-00101100591ADDAA199000591AJ100039199999999AY171061AY221061GA1071+001509999GF108991071061001501999999IA2999-00309KA1120N-00431MA1100311095981MD1210191+9999MW1021OA149900411REMSYN041 333 21043 3/103 48003 87705 91108 91206;MET019NEW NOSIG 0629//53;EQDQ01+000000PRSWM2Q02    003PRSWM1
0196065900999991999011307004+49620+006220SY-MT+0379ELLX V0202801N005010015019N0100001N1+00051-00051100691ADDAY121999AY221999GA1071+001509999GF108991071061001501999999MA1100411096081MD1210241+9999MW1701MW2711OA149999999REMSYN023 333 87705 91108 91205;MET010NEW NOSIG;EQDQ01  00412WGOSPDQ02    003PRSWM1
0206065900999991999011308004+49620+006220SY-MT+0379ELLX V0202701N005010015019N0060001N1+00051-00051100801ADDAY121999AY221999GA1071+001509999GF107991071061001501999999MA1100611096191MD1210301+9999MW1221OA149999999REMSYN023 333 87705 91109 91206;MET010NEW NOSIG;EQDQ01+000000PRSWM2Q02  00462WGOSPDQ03    003PRSWM1
0186065900999991999011309004+49620+006220SY-MT+0379ELLX V0202701N004010018019N0070001N1+00091-00041100901ADDAY171031AY221031GA1071+001809999GF107991071071001501999999MA1100711096291MD1210311+9999MW1701MW2711OA149900461REMSYN029 333 47003 87706 91109 91206;MET010NEW NOSIG;EQDQ01    003PRSWM1
0152065900999991999011309504+49620+006220FM-15+0379ELLX V0202701N005110036019N0112651N1+00101+00001101051ADDGA1021+002409999GA2071+003609999GF107991999999999999999999MA1100811096441MW1001REMMET010NEW NOSIG;EQDQ01+999990APOSP Q02+999990APOSLPQ03+000000PRSWM2
0202065900999991999011311004+49620+006220SY-MT+0379ELLX V0202701N005010021019N0120001N1+00131-00051101051ADDAY121999AY221999GA1071+002109999GF107991071071002501999999MA1100811096441MD1210251+9999MW1611MW2681MW3711OA149999999REMSYN023 333 87707 91109 91206;MET010NEW NOSIG;EQDQ01  00462WGOSPDQ02    003PRSWM1
0229065900999991999011312004+49620+006220SY-MT+0379ELLX V0202801N005010099019N0140001N1+00151-00091101091ADDAA199000791AY171061AY221061GA1021+003609999GA2071+009909999GF107991071051004501999999MA1100911096481MD1210191+9999MW1021OA149900511REMSYN035 333 47003 83612 87633 91110 91206;MET010NEW NOSIG;EQDQ01+000000PRSWM2Q02    003PRSWM1
0196065900999991999011313004+49620+006220SY-MT+0379ELLX V0202701N006010105019N0150001N1+00161-00111101121ADDGA1021+004209999GA2071+010509999GF107991071051004501999999MA1100911096511MD1210111+9999MW1001OA149999999REMSYN029 333 83612 87635 91111 91207;MET010NEW NOSIG;EQDQ01+000000PRSWM2Q02  00572WGOSPD
0196065900999991999011314004+49620+006220SY-MT+0379ELLX V0202701N006010105019N0200001N1+00191-00141101151ADDGA1021+004509999GA2071+010509999GF107991071051004501999999MA1100911096541MD1210101+9999MW1001OA149999999REMSYN029 333 84615 85635 91110 91207;MET010NEW NOSIG;EQDQ01+000000PRSWM2Q02  00512WGOSPD
0175065900999991999011315004+49620+006220SY-MT+0379ELLX V0202601N00501060001CN0200001N1+00141-00181101191ADDGA1031+004509069GA2051+060009009GF107991031051004501031021MA1100911096571MD1210091+9999MW1001OA149900571REMSYN029 333 83615 85070 91111 91207;MET005NEW ;EQDQ01+000000PRSWM2
0218065900999991999011316004+49620+006220SY-MT+0379ELLX V0202601N006010600019N0120001N1+00131-00161101221ADDGA1021+004509999GA2021+007509999GA3071+060009999GF107991051051004501031021MA1101021096601MD1210091+9999MW1001OA149999999REMSYN035 333 82615 84625 85070 91110 91207;MET010NEW NOSIG;EQDQ01+000000PRSWM2Q02  00512WGOSPD
0158065900999991999011317004+49620+006220SY-MT+0379ELLX V0202401N004010024019N0120001N1+00111-00101101241ADDGA1071+002409999GF107991071061002501999999MA1101021096621MD1210081+9999MW1001OA149900461REMSYN023 333 87708 91109 91206;MET010NEW NOSIG;EQDQ01+000000PRSWM2
0194065900999991999011318004+49620+006220SY-MT+0379ELLX V0202401N005010018019N0080001N1+00101-00061101271ADDAA199000791GA1071+001809999GF107991071061001501999999KA1120M+00221MA1101021096641MD1210071+9999MW1001OA149900571REMSYN035 333 10022 47002 87706 91111 91207;MET010NEW NOSIG;EQDQ01+000000PRSWM2
0174065900999991999011319004+49620+006220SY-MT+0379ELLX V0202301N005010015019N0050001N1+00091-00061101241ADDGA1071+001509999GF108991071061001501999999MA1101021096611MD1010011+9999MW1001OA149999999REMSYN023 333 87705 91109 91206;MET010NEW NOSIG;EQDQ01+000000PRSWM2Q02  00462WGOSPD
0186065900999991999011320004+49620+006220SY-MT+0379ELLX V0202301N005010009019N0040001N1+00061-00051101201ADDAY161999AY221999GA1071+000909999GF108991071071000751999999MA1100911096571MD1810051+9999MW1611MW2681MW3711OA149900511REMSYN023 333 87703 91110 91207;MET010NEW NOSIG;EQDQ01    003PRSWM1
0208065900999991999011321004+49620+006220SY-MT+0379ELLX V0202301N007010012019N0060001N1+00081-00031101151ADDAY171031AY271031GA1071+001209999GF108991081071001501999999MA1100911096531MD1710111+9999MW1611MW2681MW3711OA149999999REMSYN029 333 47002 87704 91111 91207;MET010NEW NOSIG;EQDQ01  00572WGOSPDQ02    003PRSWM1
0218065900999991999011322004+49620+006220SY-MT+0379ELLX V0202301N007010009019N0040001N1+00071-00041101101ADDAY171999AY271999GA1071+000909999GA2071+001509999GF108991081071000751999999MA1100911096481MD1710131+9999MW1701MW2711OA149999999REMSYN029 333 86703 87705 91111 91208;MET010NEW NOSIG;EQDQ01  00572WGOSPDQ02    003PRSWM1
0206065900999991999011323004+49620+006220SY-MT+0379ELLX V0202201N007010015019N0080001N1+00071-00031101011ADDAY171999AY221999GA1071+001509999GF108991081071001501999999MA1100811096391MD1710181+9999MW1221OA149999999REMSYN023 333 87705 91111 91208;MET010NEW NOSIG;EQDQ01+000000PRSWM2Q02  00572WGOSPDQ03    003PRSWM1
0213065900999991999011400004+49620+006220SY-MT+0379ELLX V0202301N007010006019N0025001N1+00051-00051100941ADDAA199000591AY171061AY221061GA1071+000609999GF108991081071000751999999MA1100711096321MD1710211+9999MW1701MW2711OA149999999REMSYN029 333 47002 87702 91111 91208;MET010NEW NOSIG;EQDQ01  00572WGOSPDQ02    003PRSWM1
0099065900999991999011401004+49620+006220SY-MT+0379ELLX V0202201N007019999999N0090001N1+00061-00031100881ADDMA1100611096261MD1710221+9999OA149999999REMSYN017 333 91110 91207;MET005NEW ;EQDQ01  00512WGOSPD
0099065900999991999011402004+49620+006220SY-MT+0379ELLX V0202301N007019999999N0090001N1+00071-00021100791ADDMA1100511096181MD1710211+9999OA149999999REMSYN017 333 91111 91208;MET005NEW ;EQDQ01  00572WGOSPD
0196065900999991999011403004+49620+006220SY-MT+0379ELLX V0202401N006010009019N0080001N1+00131+00041100751ADDAY171031AY221031GA1071+000909999GF108991081071000751999999MA1100511096151MD1710171+9999MW1221OA149999999REMSYN029 333 47002 87703 91111 91208;MET010NEW NOSIG;EQDQ01  00572WGOSPDQ02    003PRSWM1
0190065900999991999011404004+49620+006220SY-MT+0379ELLX V0202401N005010006019N0080001N1+00171+00081100691ADDAY121999AY221999GA1071+000609999GF108991081061000751999999MA1100511096101MD1710161+9999MW1231OA149999999REMSYN023 333 87702 91109 91207;MET010NEW NOSIG;EQDQ01  00462WGOSPDQ02    003PRSWM1
0212065900999991999011405004+49620+006220SY-MT+0379ELLX V0202501N006010003019N0090001N1+00221+00151100651ADDAY171999AY221999GA1071+000309999GA2081+000609999GF108991081071000751999999MA1100411096071MD1710111+9999MW1611MW2681OA149999999REMSYN023 333 87702 91109 91206;MET010NEW NOSIG;EQDQ01  00462WGOSPDQ02    003PRSWM1
0273065900999991999011406004+49620+006220SY-MT+0379ELLX V0202501N005010003019N0025001N1+00271+00201100661ADDAA199002091AJ100019199999999AY171061AY261061GA1071+000309999GA2081+000609999GF108991081061000251999999IA2999+00109KA1120N+00041MA1100511096091MD1510061+9999MW1501MW2511OA149900571REMSYN047 333 20004 3/001 46001 86701 88702 91111 91208;MET010NEW NOSIG;EQDQ01    003PRSWM1
0110065900999991999011406504+49620+006220FM-15+0379ELLX V0202601N005710009019N0045001N1+00301+00201100711ADDGA1071+000909999GF107991999999999999999999MA1100511096151MW1511MW2611REMMET010NEW NOSIG;EQDQ01    003PRSWM1
0190065900999991999011408004+49620+006220SY-MT+0379ELLX V0202601N005010021019N0070001N1+00331+00211100751ADDAY121999AY221999GA1071+002109999GF108991071071002501999999MA1100511096181MD1210111+9999MW1211OA149999999REMSYN023 333 87707 91108 91205;MET010NEW NOSIG;EQDQ01  00412WGOSPDQ02    003PRSWM1
0180065900999991999011409004+49620+006220SY-MT+0379ELLX V0202601N005010018019N0100001N1+00351+00221100821ADDAY161031AY251031GA1071+001809999GF108991071061001501999999MA1100611096251MD1210161+9999MW1021OA149900511REMSYN029 333 46001 87705 91110 91206;MET010NEW NOSIG;EQDQ01    003PRSWM1
0180065900999991999011410004+49620+006220SY-MT+0379ELLX V0202701N005010030019N0120001N1+00351+00191100891ADDGA1021+002109999GA2071+003009999GF107991071061002501999999MA1100711096321MD1210191+9999MW1001OA149999999REMSYN029 333 84707 85710 91109 91205;MET010NEW NOSIG;EQDQ01  00462WGOSPD
0180065900999991999011411004+49620+006220SY-MT+0379ELLX V0202701N005010033019N0100001N1+00391+00181100971ADDGA1021+002409999GA2071+003309999GF107991071051002501999999MA1100811096401MD1210221+9999MW1001OA149999999REMSYN029 333 84708 85611 91109 91206;MET010NEW NOSIG;EQDQ01  00462WGOSPD
0229065900999991999011412004+49620+006220SY-MT+0379ELLX V0202701N006010045019N0100001N1+00441+00141101021ADDAA199000591AY161061AY251061GA1021+003309999GA2071+004509999GF107991071081004501999999MA1100811096461MD1210211+9999MW1021OA149999999REMSYN035 333 41997 82811 85615 91110 91206;MET010NEW NOSIG;EQDQ01  00512WGOSPDQ02    003PRSWM1
0101065900999991999011413204+49620+006220FM-15+0379ELLX V0202901N006712200019N0112651N1+00401+00101101101ADDGA1021+004509999GA2021+007509999GF104991999999999999999999MA1100911096531MW1001REMMET010NEW NOSIG;
0101065900999991999011413504+49620+006220FM-15+0379ELLX V0202701N005712200019N0112651N1+00401+00101101211ADDGA1021+004809999GA2021+009009999GF104991999999999999999999MA1101021096641MW1001REMMET010NEW NOSIG;
0139065900999991999011415004+49620+006220SY-MT+0379ELLX V0202701N005012200019N0200001N1+00401-00041101261ADDGA1021+006009999GF103991031081008001001001MA1101081096681MD1210221+9999MW1001OA149900511REMSYN023 333 83820 91110 91207;MET010NEW NOSIG;
0085065900999991999011415504+49620+006220FM-15+0379ELLX V0202701N004112200019N0112651N1+00401+00001101271ADDGA1021+006009999GF104991999999999999999999MA1101081096701MW1001REMMET010NEW NOSIG;
0085065900999991999011416504+49620+006220FM-15+0379ELLX V0202401N003112200019N0112651N1+00201+00001101311ADDGA1021+006009999GF102991999999999999999999MA1101081096701MW1001REMMET010NEW NOSIG;
0175065900999991999011418004+49620+006220SY-MT+0379ELLX V0202401N004012200019N0200001N1+00191-00041101401ADDAA199000591GA1021+007209999GF103991031051008001001001KA1120M+00451MA1101191096781MD1210101+9999MW1001OA149900511REMSYN035 333 10045 41997 83624 91110 91207;MET010NEW NOSIG;
0158065900999991999011419004+49620+006220SY-MT+0379ELLX V0202601N006012200019N0200001N1+00281+00021101481ADDGA1021+007509999GF103991031051008001001001MA1101291096871MD1210121+9999MW1001OA149999999REMSYN023 333 83625 91108 91206;MET010NEW NOSIG;EQDQ01  00412WGOSPD
0139065900999991999011420004+49620+006220SY-MT+0379ELLX V0202501N004012200019N0200001N1+00221-00021101541ADDGA1021+009009999GF104991041051008001001001MA1101291096921MD1210161+9999MW1001OA149900411REMSYN023 333 84630 91108 91206;MET010NEW NOSIG;
0164065900999991999011421004+49620+006220SY-MT+0379ELLX V0202301N005012200019N0200001N1+00141-00041101591ADDGA1021+005409999GF103991031051004501001001MA1101391096961MD1210181+9999MW1001OA149999999REMSYN029 333 41997 83618 91108 91206;MET010NEW NOSIG;EQDQ01  00412WGOSPD
0158065900999991999011422004+49620+006220SY-MT+0379ELLX V0202301N007012200019N0200001N1+00141-00021101581ADDGA1021+006609999GF104991041051008001001001MA1101291096951MD1010081+9999MW1001OA149999999REMSYN023 333 84622 91113 91207;MET010NEW NOSIG;EQDQ01  00672WGOSPD
0158065900999991999011423004+49620+006220SY-MT+0379ELLX V0202301N007012200019N0200001N1+00161-00021101561ADDGA1021+009009999GF102991021051008001001001MA1101291096931MD1010011+9999MW1001OA149999999REMSYN023 333 82630 91110 91207;MET010NEW NOSIG;EQDQ01  00512WGOSPD
0229065900999991999011500004+49620+006220SY-MT+0379ELLX V0202401N007010033019N0180001N1+00191+00041101541ADDAA199000091GA1021+001809999GA2071+003309999GF107991071051001501999999MA1101291096921MD1710041+9999MW1001OA149999999REMSYN035 333 41997 82706 87611 91113 91207;MET010NEW NOSIG;EQDQ01+000000PRSWM2Q02  00002PRCP99Q03  00672WGOSPD
0174065900999991999011501004+49620+006220SY-MT+0379ELLX V0202401N007010024019N0180001N1+00241+00091101531ADDGA1071+002409999GF107991071061002501999999MA1101291096911MD1710041+9999MW1001OA149999999REMSYN023 333 87708 91111 91208;MET010NEW NOSIG;EQDQ01+000000PRSWM2Q02  00572WGOSPD
0099065900999991999011502004+49620+006220SY-MT+0379ELLX V0202401N008019999999N0100001N1+00261+00111101531ADDMA1101291096921MD1510011+9999OA149999999REMSYN017 333 91110 91208;MET005NEW ;EQDQ01  00512WGOSPD
0202065900999991999011503004+49620+006220SY-MT+0379ELLX V0202501N007010021019N0150001N1+00311+00151101531ADDAY121031AY221031GA1071+002109999GF108991081071002501999999MA1101291096931MD1310011+9999MW1601MW2611OA149999999REMSYN029 333 41997 87707 91112 91208;MET010NEW NOSIG;EQDQ01  00622WGOSPDQ02    003PRSWM1
0228065900999991999011504004+49620+006220SY-MT+0379ELLX V0202401N007010033019N0150001N1+00301+00181101521ADDAY121999AY221999GA1021+001509999GA2071+003309999GF108991081051001501999999MA1101291096911MD1010001+9999MW1221OA149999999REMSYN029 333 84705 87611 91110 91207;MET010NEW NOSIG;EQDQ01+000000PRSWM2Q02  00512WGOSPDQ03    003PRSWM1
0196065900999991999011505004+49620+006220SY-MT+0379ELLX V0202401N007010018019N0120001N1+00321+00171101561ADDGA1071+001809999GA2071+003309999GF108991081051001501999999MA1101391096961MD1310041+9999MW1001OA149999999REMSYN029 333 85706 87611 91110 91208;MET010NEW NOSIG;EQDQ01+000000PRSWM2Q02  00512WGOSPD
0261065900999991999011506004+49620+006220SY-MT+0379ELLX V0202301N006010015019N0120001N1+00321+00191101611ADDAA199000191AJ100009199999999AY161061AY221061GA1071+001509999GF108991081071001501999999IA2999+00009KA1120N+00131MA1101391097001MD1310071+9999MW1211OA149900621REMSYN041 333 20013 3/000 41997 87705 91112 91208;MET010NEW NOSIG;EQDQ01+000000PRSWM2Q02    003PRSWM1
0206065900999991999011507004+49620+006220SY-MT+0379ELLX V0202401N006010018019N0060001N1+00301+00181101671ADDAY161999AY221999GA1071+001809999GF108991081071001501999999MA1101491097061MD1210151+9999MW1601OA149999999REMSYN023 333 87705 91108 91206;MET010NEW NOSIG;EQDQ01+000000PRSWM2Q02  00412WGOSPDQ03    003PRSWM1
0206065900999991999011508004+49620+006220SY-MT+0379ELLX V0202301N005010015019N0080001N1+00311+00191101711ADDAY121999AY221999GA1071+001509999GF108991081061001501999999MA1101491097101MD1210141+9999MW1211OA149999999REMSYN023 333 87705 91108 91206;MET010NEW NOSIG;EQDQ01+000000PRSWM2Q02  00412WGOSPDQ03    003PRSWM1
0206065900999991999011509004+49620+006220SY-MT+0379ELLX V0202301N006010018019N0070001N1+00321+00201101711ADDAY161031AY221031GA1071+001809999GF108991071061001501999999MA1101491097101MD1110101+9999MW1021OA149999999REMSYN023 333 87705 91109 91207;MET010NEW NOSIG;EQDQ01+000000PRSWM2Q02  00462WGOSPDQ03    003PRSWM1
0174065900999991999011510004+49620+006220SY-MT+0379ELLX V0202401N006010018019N0090001N1+00351+00221101711ADDGA1071+001809999GF108991071061001501999999MA1101491097101MD1110041+9999MW1001OA149999999REMSYN023 333 87706 91110 91207;MET010NEW NOSIG;EQDQ01+000000PRSWM2Q02  00512WGOSPD
0174065900999991999011511004+49620+006220FM-12+0379ELLX V0202301N006010018019N0100001N1+00421+00271101701ADDAY121999AY221999GA1071+001809079GF108991071061001501999999MA1101511097111MD1310011+9999MW1581OA149999999REMSYN023 333 87706 91110 91207;EQDQ01+999990APOA  Q02  00512WGOSPD
0152065900999991999011511504+49620+006220FM-15+0379ELLX V0202301N007710039019N0112651N1+00501+00301101671ADDGA1021+002709999GA2071+003909999GF107991999999999999999999MA1101491097091MW1001REMMET010NEW NOSIG;EQDQ01+999990APOSP Q02+999990APOSLPQ03+000000PRSWM2
0218065900999991999011513004+49620+006220SY-MT+0379ELLX V0202301N007010042019N0100001N1+00511+00261101571ADDGA1021+002709999GA2071+004209999GA3071+013509999GF108991071051002501999999MA1101291097001MD1810101+9999MW1001OA149999999REMSYN035 333 83709 86612 87642 91112 91208;MET010NEW NOSIG;EQDQ01+000000PRSWM2Q02  00622WGOSPD
0212065900999991999011514004+49620+006220SY-MT+0379ELLX V0202301N008010600019N0100001N1+00571+00291101511ADDGA1021+005109999GA2021+012009999GA3071+060009999GF107991071051004501999999MA1101291096951MD1710161+9999MW1001OA149999999REMSYN029 333 85616 87640 91111 91208;MET010NEW NOSIG;EQDQ01+000000PRSWM2Q02  00572WGOSPD
0168065900999991999011514504+49620+006220FM-15+0379ELLX V0202301N007710120019N0112651N1+00601+00301101451ADDGA1021+004509999GA2071+012009999GA3071+060009999GF107991999999999999999999MA1101291096901MW1001REMMET010NEW NOSIG;EQDQ01+999990APOSP Q02+999990APOSLPQ03+000000PRSWM2
0218065900999991999011516004+49620+006220SY-MT+0379ELLX V0202201N007010150019N0200001N1+00551+00231101411ADDGA1021+006009999GA2071+015009999GA3071+060009999GF107991051051004501031021MA1101191096851MD1710151+9999MW1001OA149999999REMSYN035 333 84615 85640 86070 91111 91208;MET010NEW NOSIG;EQDQ01+000000PRSWM2Q02  00572WGOSPD
0174065900999991999011517004+49620+006220SY-MT+0379ELLX V0202301N007010114019N0150001N1+00541+00211101371ADDGA1071+011409999GF107991071051012501999999MA1101191096811MD1710141+9999MW1001OA149999999REMSYN023 333 87638 91110 91207;MET010NEW NOSIG;EQDQ01+000000PRSWM2Q02  00512WGOSPD
0188065900999991999011518004+49620+006220SY-MT+0379ELLX V0202201N005010114019N0150001N1+00531+00181101381ADDAA199000391GA1071+011409999GF107991071051012501999999KA1120M+00591MA1101191096821MD1510061+9999MW1001OA149900621REMSYN029 333 10059 87738 91112 91208;MET010NEW NOSIG;EQDQ01+000000PRSWM2
0174065900999991999011519004+49620+006220SY-MT+0379ELLX V0202101N006010114019N0100001N1+00521+00131101331ADDGA1071+011409999GF107991071051012501999999MA1101191096771MD1810081+9999MW1001OA149999999REMSYN023 333 87638 91109 91206;MET010NEW NOSIG;EQDQ01+000000PRSWM2Q02  00462WGOSPD
0174065900999991999011520004+49620+006220SY-MT+0379ELLX V0202101N005010099019N0150001N1+00511+00141101301ADDGA1071+009909999GF107991071051012501999999MA1101081096741MD1810071+9999MW1001OA149999999REMSYN023 333 87635 91109 91206;MET010NEW NOSIG;EQDQ01+000000PRSWM2Q02  00462WGOSPD
0174065900999991999011521004+49620+006220SY-MT+0379ELLX V0202101N006010105019N0200001N1+00461+00071101231ADDGA1071+010509999GF107991071051012501999999MA1101021096661MD1710161+9999MW1001OA149999999REMSYN023 333 87635 91111 91207;MET010NEW NOSIG;EQDQ01+000000PRSWM2Q02  00572WGOSPD
0174065900999991999011522004+49620+006220SY-MT+0379ELLX V0202201N006010099019N0200001N1+00421+00051101221ADDGA1071+009909999GF107991071051008001999999MA1101021096651MD1710121+9999MW1001OA149999999REMSYN023 333 87633 91109 91206;MET010NEW NOSIG;EQDQ01+000000PRSWM2Q02  00462WGOSPD
0174065900999991999011523004+49620+006220SY-MT+0379ELLX V0202301N007010090019N0200001N1+00451+00061101211ADDGA1071+009009999GF107991071051008001999999MA1101021096641MD1710101+9999MW1001OA149999999REMSYN023 333 87630 91109 91207;MET010NEW NOSIG;EQDQ01+000000PRSWM2Q02  00462WGOSPD
0201065900999991999011600004+49620+006220SY-MT+0379ELLX V0202101N006010093019N0200001N1+00431+00061101181ADDAA199000091GA1081+009309999GF108991081051008001999999MA1101021096611MD1710051+9999MW1001OA149999999REMSYN023 333 88631 91111 91207;MET010NEW NOSIG;EQDQ01+000000PRSWM2Q02  00002PRCP99Q03  00572WGOSPD
0099065900999991999011601004+49620+006220SY-MT+0379ELLX V0202201N006019999999N0100001N1+00441+00071101151ADDMA1101021096581MD1710071+9999OA149999999REMSYN017 333 91109 91206;MET005NEW ;EQDQ01  00462WGOSPD
0099065900999991999011602004+49620+006220SY-MT+0379ELLX V0202301N006019999999N0100001N1+00461+00061101121ADDMA1100911096561MD1710081+9999OA149999999REMSYN017 333 91109 91206;MET005NEW ;EQDQ01  00462WGOSPD
0174065900999991999011603004+49620+006220SY-MT+0379ELLX V0202101N006010090019N0250001N1+00471+00051101051ADDGA1071+009009999GF108991071051008001999999MA1100911096491MD1710121+9999MW1001OA149999999REMSYN023 333 87630 91110 91207;MET010NEW NOSIG;EQDQ01+000000PRSWM2Q02  00512WGOSPD
0152065900999991999011603504+49620+006220FM-15+0379ELLX V0202201N005710063019N0112651N1+00401+00101101001ADDGA1081+006309999GF108991999999999999999999MA1100811096441MW1611REMMET010NEW NOSIG;EQDQ01+999990APOSP Q02+999990APOSLPQ03+000003PRSWM1Q04    003PRSWM1
0196065900999991999011605004+49620+006220SY-MT+0379ELLX V0202001N005010060019N0200001N1+00371+00091100961ADDAY161999AY221999GA1081+006009999GF108991081051008001999999MA1100811096391MD1710171+9999MW1601MW2611OA149999999REMSYN023 333 88620 91109 91206;MET010NEW NOSIG;EQDQ01  00462WGOSPDQ02    003PRSWM1
0216065900999991999011606004+49620+006220SY-MT+0379ELLX V0202201N00601006601CN0200001N1+00451+00141100971ADDAA199000191AY121061GA1081+006609999IA1099IA2999+00309KA1120N+00361MA1100811096411MD1510081+9999MW1061MW2611OA149999999REMSYN035 333 20036 31003 88622 91110 91207;MET010NEW NOSIG;EQDQ01  00512WGOSPDQ02    003PRSWM1
0206065900999991999011607004+49620+006220SY-MT+0379ELLX V0202201N007010051019N0200001N1+00481+00161100951ADDAY121999AY221999GA1071+005109999GF108991081051004501999999MA1100811096401MD1810051+9999MW1211OA149999999REMSYN023 333 88617 91111 91208;MET010NEW NOSIG;EQDQ01+000000PRSWM2Q02  00572WGOSPDQ03    003PRSWM1
