0043065900999991953010100004+49617+006200FM-12+038099999V0201601N00821001501CN0030001N9-00221-00281100021ADDAY121999GF108991081061001501999999MW1051
0056065900999991953010106004+49617+006200FM-12+038099999V0200901N00621004501CN0030001N9-00221-00391099721ADDAY121999GF107991071051004501999999KA1999N-00391MW1051
0043065900999991953010112004+49617+006200FM-12+038099999V0200701N00671220001CN0070001N9+00001-00391099691ADDAY121999GF104991001001999999001061MW1051
0075065900999991953010118004+49617+006200FM-12+038099999V0200501N00771220001CN0040001N9+00001-00391099871ADDAY111999GF101991999001999999031001KA1999M+00221MW1051EQDQ01+000002SCOTLC
0043065900999991953010200004+49617+006200FM-12+038099999V0200201N00771012301CN0040001N9+00111-00611100121ADDAY121999GF107991071051012501999999MW1051
0056065900999991953010206004+49617+006200FM-12+038099999V0203601N00571220001CN0060001N9-00221-00501100511ADDAY101999GF100991001001999999001001KA1999N-00221MW1051
0043065900999991953010212004+49617+006200FM-12+038099999V0200201N00621002401CN0030001N9-00281-00501100851ADDAY121999GF108991081061002501999999MW1051
0056065900999991953010218004+49617+006200FM-12+038099999V0203401N00361007801CN0030001N9-00221-00391100981ADDAY121999GF108991081051008001999999KA1999M-00221MW1051
0043065900999991953010300004+49617+006200FM-12+038099999V0202901N00311007801CN0060001N9-00221-00391100991ADDAY121999GF107991071051008001999999MW1051
0056065900999991953010306004+49617+006200FM-12+038099999V0203401N00151220001CN0030001N9-00391-00501100911ADDAY121999GF104991041051012501999999KA1999N-00391MW1051
0043065900999991953010312004+49617+006200FM-12+038099999V0200501N00211004501CN0030001N9-00221-00501100921ADDAY171999GF106991061051004501999999MW1051
0056065900999991953010318004+49617+006200FM-12+038099999V0200301N00411220001CN0060001N9-00391-00611101091ADDAY181999GF103991031051004501001001KA1999M-00221MW1051
0043065900999991953010400004+49617+006200FM-12+038099999V0200201N00571007801CN0060001N9-00391-00611101341ADDAY171999GF107991071051008001999999MW1051
0056065900999991953010406004+49617+006200FM-12+038099999V0200501N00571004501CN0040001N9-00281-00611101531ADDAY121999GF108991081051004501999999KA1999N-00391MW1051
0043065900999991953010412004+49617+006200FM-12+038099999V0200401N008219999999N0070001N9-00221-00391101701ADDAY171999GF108991041061002501999999MW1051
0056065900999991953010418004+49617+006200FM-12+038099999V0200201N00821004501CN0060001N9-00221-00281101891ADDAY121999GF108991081051004501999999KA1999M-00111MW1051
0043065900999991953010500004+49617+006200FM-12+038099999V0200401N00821002401CN0050001N9-00221-00281102101ADDAY121999GF108991061061002501999999MW1051
0056065900999991953010506004+49617+006200FM-12+038099999V0203601N00571004501CN0060001N9-00221-00391102141ADDAY121999GF108991081051004501999999KA1999N-00221MW1051
0043065900999991953010512004+49617+006200FM-12+038099999V0200301N00461004501CN0050001N9-00281-00501102161ADDAY171999GF108991081051004501999999MW1221
0056065900999991953010518004+49617+006200FM-12+038099999V0203601N00311004501CN0060001N9-00281-00721101981ADDAY171999GF108991081051004501999999KA1999M-00221MW1051
0043065900999991953010600004+49617+006200FM-12+038099999V0209991C00001007801CN0160001N9-00281-00781101741ADDAY121999GF108991081051008001999999MW1021
0056065900999991953010606004+49617+006200FM-12+038099999V0201601N00411007801CN0080001N9-00391-00721101341ADDAY121999GF108991081051008001999999KA1999N-00501MW1051
0043065900999991953010612004+49617+006200FM-12+038099999V0201301N00261007801CN0040001N9-00391-00611100941ADDAY171999GF108991081051008001999999MW1701
0056065900999991953010618004+49617+006200FM-12+038099999V0200701N00511007801CN0090001N9-00391-01001100741ADDAY171999GF108991071051008001999999KA1999M-00391MW1051
0043065900999991953010700004+49617+006200FM-12+038099999V0200201N00771007801CN0080001N9-00391-00721100601ADDAY121999GF108991081051008001999999MW1051
0056065900999991953010706004+49617+006200FM-12+038099999V0200501N00671004501CN0060001N9-00391-00781100601ADDAY171999GF107991071051004501999999KA1999N-00611MW1701
0043065900999991953010712004+49617+006200FM-12+038099999V0200101N00821004501CN0028001N9-00281-00611100781ADDAY171999GF108991071051004501999999MW1701
0056065900999991953010718004+49617+006200FM-12+038099999V0200201N00821004501CN0030001N9-00391-00721101061ADDAY171999GF108991071051004501999999KA1999M-00281MW1701
0043065900999991953010800004+49617+006200FM-12+038099999V0200201N00721004501CN0040001N9-00391-00611101221ADDAY171999GF108991081061004501999999MW1701
0056065900999991953010806004+49617+006200FM-12+038099999V0200201N00621004501CN0040001N9-00391-00501101401ADDAY171999GF108991081061004501999999KA1999N-00391MW1051
0043065900999991953010812004+49617+006200FM-12+038099999V0200501N00621007801CN0080001N9-00221-00501101611ADDAY171999GF107991061051008001999999MW1051
0056065900999991953010818004+49617+006200FM-12+038099999V0200301N00571004501CN0050001N9-00221-00391101791ADDAY121999GF108991081051004501999999KA1999M-00221MW1051
0043065900999991953010900004+49617+006200FM-12+038099999V0203201N00311004501CN0040001N9-00221-00501101941ADDAY121999GF108991081051004501999999MW1051
0056065900999991953010906004+49617+006200FM-12+038099999V0203201N00261220001CN0030001N9-00281-00391102021ADDAY121999GF104991041051008001001001KA1999N-00281MW1051
0043065900999991953010912004+49617+006200FM-12+038099999V0202501N00621007801CN0050001N9-00221-00391102021ADDAY121999GF108991081051008001999999MW1051
0056065900999991953010918004+49617+006200FM-12+038099999V0202701N00821000601CN0012001N9-00221-00281101941ADDAY171999GF108991081061000751999999KA1999M-00221MW1561
0043065900999991953011000004+49617+006200FM-12+038099999V0202701N00461000151CN0004001N9-00221-00221101831ADDAY151999GF109991091999000251999999MW1471
0056065900999991953011006004+49617+006200FM-12+038099999V0202501N00571000151CN0012001N9-00111-00111101711ADDAY151999GF108991081061000251999999KA1999N-00221MW1281
0043065900999991953011012004+49617+006200FM-12+038099999V0202701N002619999999N0024001N9+00111+00001101801ADDAY141999GF107991041061001501999999MW1051
0056065900999991953011018004+49617+006200FM-12+038099999V0203201N00411220001CN0120001N9+00001-00281102151ADDAY121999GF104991041051008001001001KA1999M+00221MW1011
0043065900999991953011100004+49617+006200FM-12+038099999V0203601N00411220001CN0090001N9-00221-00391102541ADDAY111999GF100991001001999999001001MW1051
0056065900999991953011106004+49617+006200FM-12+038099999V0203401N00101220001CN0030001N9-00611-00721102901ADDAY111999GF100991001001999999001001KA1999N-00611MW1051
0043065900999991953011112004+49617+006200FM-12+038099999V0200201N00511220001CN0140001N9-00111-00391103071ADDAY111999GF100991001001999999001001MW1011
0056065900999991953011118004+49617+006200FM-12+038099999V0200201N00101220001CN0160001N9-00221-00501103191ADDAY101999GF101991001001999999001051KA1999M+00001MW1021
0043065900999991953011200004+49617+006200FM-12+038099999V0200401N00101220001CN0090001N9-00501-00611103371ADDAY101999GF100991001001999999001001MW1051
0056065900999991953011206004+49617+006200FM-12+038099999V0200401N00461220001CN0100001N9-00391-00611103351ADDAY111999GF100991001001999999001001KA1999N-00611MW1011
0043065900999991953011212004+49617+006200FM-12+038099999V0200501N00311220001CN0120001N9-00111-00391103351ADDAY101999GF101991001001999999001051MW1021
0056065900999991953011218004+49617+006200FM-12+038099999V0200501N00571220001CN0070001N9-00221-00501103311ADDAY111999GF100991001001999999001001KA1999M+00001MW1051
0043065900999991953011300004+49617+006200FM-12+038099999V0200501N00511004501CN0070001N9-00221-00501103311ADDAY121999GF107991071051004501999999MW1051
0056065900999991953011306004+49617+006200FM-12+038099999V0200301N00311004501CN0060001N9-00281-00501103351ADDAY121999GF108991081061004501999999KA1999N-00391MW1051
0043065900999991953011312004+49617+006200FM-12+038099999V0200301N00411220001CN0040001N9-00281-00391103301ADDAY141999GF101991011051004501001001MW1051
0056065900999991953011318004+49617+006200FM-12+038099999V0200401N00361220001CN0030001N9-00391-00501103131ADDAY111999GF100991001001999999001001KA1999M-00221MW1051
0043065900999991953011400004+49617+006200FM-12+038099999V0200701N00261004501CN0020001N9-00611-00721103011ADDAY111999GF106991061061004501001001MW1051
0056065900999991953011406004+49617+006200FM-12+038099999V0200701N00261004501CN0020001N9-00501-00611102821ADDAY121999GF108991071061004501999999KA1999N-00611MW1051
0043065900999991953011412004+49617+006200FM-12+038099999V0200501N00411220001CN0030001N9-00391-00721102771ADDAY121999GF100991001001999999001001MW1051
0056065900999991953011418004+49617+006200FM-12+038099999V0200501N00101220001CN0030001N9-00501-00611102771ADDAY101999GF100991001001999999001001KA1999M+00001MW1051
0043065900999991953011500004+49617+006200FM-12+038099999V0200501N00211220001CN0030001N9-00611-00781102751ADDAY101999GF100991001001999999001001MW1051
0056065900999991953011506004+49617+006200FM-12+038099999V0200201N00051220001CN0030001N9-00781-01001102861ADDAY101999GF100991001001999999001001KA1999N-01001MW1051
0043065900999991953011512004+49617+006200FM-12+038099999V0201201N00051004501CN0026001N9-00501-00721102891ADDAY121999GF107991071051004501999999MW1051
0056065900999991953011518004+49617+006200FM-12+038099999V0202001N00101004501CN0020001N9-00501-00721102741ADDAY121999GF108991051051004501021999KA1999M-00501MW1101
0043065900999991953011600004+49617+006200FM-12+038099999V0202301N00461001501CN0016001N9-00501-00611102701ADDAY121999GF108991081061001501999999MW1101
0056065900999991953011606004+49617+006200FM-12+038099999V0202501N00461001501CN9999999N9-00501-00501102661ADDAY171999GF108991081071001501999999KA1999N-00501MW1711
0043065900999991953011612004+49617+006200FM-12+038099999V0202301N00511001501CN0010001N9-00391-00501102671ADDAY171999GF108991081071001501999999MW1661
0056065900999991953011618004+49617+006200FM-12+038099999V0202201N00311000601CN0010001N9-00281-00391102691ADDAY161999GF108991081071000751999999KA1999M-00281MW1661
0043065900999991953011700004+49617+006200FM-12+038099999V0200901N00211000151CN0002001N9-00221-00281102661ADDAY151999GF109991091999000251999999MW1471
0056065900999991953011706004+49617+006200FM-12+038099999V0201801N00101000151CN0008001N9-00111-00111102631ADDAY151999GF109991091999000251999999KA1999N-00281MW1431
0043065900999991953011712004+49617+006200FM-12+038099999V0200401N00461000601CN0028001N9+00001+00001102671ADDAY141999GF108991081061000751999999MW1051
0056065900999991953011718004+49617+006200FM-12+038099999V0200701N00511002401CN0050001N9+00001-00111102691ADDAY121999GF108991081051002501999999KA1999M+00111MW1051
0043065900999991953011800004+49617+006200FM-12+038099999V0200401N00311004501CN0100001N9-00221-00281102821ADDAY121999GF107991071051004501999999MW1031
0043065900999991953011806004+49617+006200FM-12+038099999V0200501N00151004501CN0080001N9-00221-00281102871ADDAY121999GF108991081051004501999999MW1051
0043065900999991953011812004+49617+006200FM-12+038099999V0200401N00361002401CN0060001N9-00221-00391103011ADDAY121999GF108991081051002501999999MW1051
0043065900999991953011818004+49617+006200FM-12+038099999V0200501N00151001501CN0030001N9-00221-00281103101ADDAY121999GF108991081061001501999999MW1051
0043065900999991953011900004+49617+006200FM-12+038099999V0200201N00461001501CN0030001N9+00001-00111103111ADDAY121999GF108991081061001501999999MW1051
0056065900999991953011906004+49617+006200FM-12+038099999V0200201N00571004501CN0030001N9+00001-00281103251ADDAY121999GF107991061051004501999999KA1999N-00221MW1051
0043065900999991953011912004+49617+006200FM-12+038099999V0202901N00261004501CN0090001N9+00001-00221103331ADDAY121999GF108991071051004501999999MW1051
0056065900999991953011918004+49617+006200FM-12+038099999V0202901N00151002401CN0050001N9+00111+00001103221ADDAY121999GF108991081061002501999999KA1999M+00111MW1051
0043065900999991953012000004+49617+006200FM-12+038099999V0203201N00621007801CN0070001N9+00221+00111103351ADDAY151999GF107991071051008001999999MW1051
0056065900999991953012006004+49617+006200FM-12+038099999V0200601N00411001501CN0080001N9+00221+00111103451ADDAY121999GF108991081061001501999999KA1999N+00111MW1051
0043065900999991953012012004+49617+006200FM-12+038099999V0200401N00211004501CN0030001N9+00221+00001103531ADDAY141999GF108991071051004501999999MW1051
0056065900999991953012018004+49617+006200FM-12+038099999V0200701N00051000601CN0016001N9+00111+00111103431ADDAY121999GF108991081061000751999999KA1999M+00281MW1101
0043065900999991953012100004+49617+006200FM-12+038099999V0209991C00001000151CN0002001N9+00111+00111103411ADDAY141999GF109991091999000251999999MW1471
0056065900999991953012106004+49617+006200FM-12+038099999V0209991C00001000151CN0000001N9-00111-00111103311ADDAY141999GF109991091999000251999999KA1999N-00111MW1451
0043065900999991953012112004+49617+006200FM-12+038099999V0203101N00151220001CN0000001N9-00111-00111103291ADDAY141999GF100991001001999999001001MW1441
0056065900999991953012118004+49617+006200FM-12+038099999V0202701N00051004501CN0020001N9+00001+00001103141ADDAY141999GF108991081051004501999999KA1999M+00111MW1051
0043065900999991953012200004+49617+006200FM-12+038099999V0200501N00051220001CN0012001N9-00221-00281103131ADDAY121999GF100991001001999999001001MW1101
0056065900999991953012206004+49617+006200FM-12+038099999V0202701N00101007801CN0018001N9-00111-00221102981ADDAY141999GF108991081051008001999999KA1999N-00221MW1101
0043065900999991953012212004+49617+006200FM-12+038099999V0202801N00151007801CN0010001N9+00001-00111102871ADDAY141999GF108991061051008001999999MW1281
0056065900999991953012218004+49617+006200FM-12+038099999V0209991C00001007801CN0016001N9+00001-00111102741ADDAY121999GF107991071051008001999999KA1999M+00111MW1101
0043065900999991953012300004+49617+006200FM-12+038099999V0203201N00361004501CN0050001N9+00111-00221102591ADDAY121999GF108991061051004501999999MW1051
0056065900999991953012306004+49617+006200FM-12+038099999V0203401N00261007801CN0060001N9+00001-00111102451ADDAY121999GF108991071051008001999999KA1999N+00001MW1051
0043065900999991953012312004+49617+006200FM-12+038099999V0202301N00151007801CN0030001N9+00221+00001102371ADDAY121999GF106991061051008001001001MW1051
0056065900999991953012318004+49617+006200FM-12+038099999V0200501N00261004501CN0030001N9+00111-00111102231ADDAY121999GF107991061051004501999999KA1999M+00281MW1051
0043065900999991953012400004+49617+006200FM-12+038099999V0201601N00211000151CN0002001N9+00001-00111102161ADDAY141999GF109991091999000251999999MW1471
0056065900999991953012406004+49617+006200FM-12+038099999V0201701N00461000151CN0000001N9-00111-00111102011ADDAY141999GF109991091999000251999999KA1999N-00111MW1491
0043065900999991953012412004+49617+006200FM-12+038099999V0201801N00311000151CN0000001N9-00221-00221102021ADDAY141999GF109991091999000251999999MW1491
0056065900999991953012418004+49617+006200FM-12+038099999V0201401N00261000151CN0000001N9-00221-00281101741ADDAY141999GF109991091999000251999999KA1999M-00111MW1491
0043065900999991953012500004+49617+006200FM-12+038099999V0201401N00261000151CN0000001N9-00281-00281101431ADDAY141999GF109991091999000251999999MW1491
0056065900999991953012506004+49617+006200FM-12+038099999V0202001N00461001501CN0020001N9-00281-00391101131ADDAY141999GF108991081061001501999999KA1999N-00281MW1051
0043065900999991953012512004+49617+006200FM-12+038099999V0202401N00671000151CN0002001N9-00221-00221101111ADDAY171999GF109991091999000251999999MW1471
0056065900999991953012518004+49617+006200FM-12+038099999V0202701N00311000601CN0014001N9+00001+00001101171ADDAY171999GF108991081071000751999999KA1999M+00001MW1101
0043065900999991953012600004+49617+006200FM-12+038099999V0203601N00311004501CN0030001N9+00001+00001101571ADDAY151999GF108991081051004501999999MW1051
0043065900999991953012606004+49617+006200FM-12+038099999V0203601N00311004501CN0030001N9-00111-00221102061ADDAY121999GF108991081051004501999999MW1051
0043065900999991953012612004+49617+006200FM-12+038099999V0203201N00051004501CN0022001N9-00111-00111102611ADDAY121999GF108991081051004501999999MW1051
0056065900999991953012618004+49617+006200FM-12+038099999V0202901N00051004501CN0030001N9-00111-00221102811ADDAY121999GF108991081051004501999999KA1999M+00001MW1051
0043065900999991953012700004+49617+006200FM-12+038099999V0202701N00671004501CN0040001N9-00221-00221102911ADDAY121999GF108991081051004501999999MW1051
0056065900999991953012706004+49617+006200FM-12+038099999V0201601N00361004501CN0040001N9-00111-00221102691ADDAY121999GF108991081051004501999999KA1999N-00221MW1051
0043065900999991953012712004+49617+006200FM-12+038099999V0202301N00621002401CN0024001N9+00001-00111102531ADDAY121999GF108991081061002501999999MW1051
0056065900999991953012718004+49617+006200FM-12+038099999V0202501N00721000601CN0018001N9+00111+00111102351ADDAY161999GF108991081071000751999999KA1999M+00111MW1601
0043065900999991953012800004+49617+006200FM-12+038099999V0202301N00771000151CN0002001N9+00111+00111102311ADDAY161999GF109991091999000251999999MW1511
0056065900999991953012806004+49617+006200FM-12+038099999V0202301N00771000151CN0002001N9+00221+00221102301ADDAY151999GF109991091999000251999999KA1999N+00111MW1511
0043065900999991953012812004+49617+006200FM-12+038099999V0202401N00931000151CN0000001N9+00281+00281102381ADDAY151999GF109991091999000251999999MW1511
0056065900999991953012818004+49617+006200FM-12+038099999V0202501N01031000151CN0006001N9+00391+00391102411ADDAY161999GF109991091999000251999999KA1999M+00501MW1601
0043065900999991953012900004+49617+006200FM-12+038099999V0202501N01031000601CN0050001N9+00501+00391102471ADDAY151999GF108991081071000751999999MW1511
0056065900999991953012906004+49617+006200FM-12+038099999V0202501N01081000601CN0060001N9+00391+00391102461ADDAY151999GF108991081071000751999999KA1999N+00391MW1501
0043065900999991953012912004+49617+006200FM-12+038099999V0202501N00771002401CN0030001N9+00501+00391102551ADDAY161999GF108991071051002501999999MW1051
0056065900999991953012918004+49617+006200FM-12+038099999V0202501N00721000601CN0024001N9+00501+00501102621ADDAY151999GF108991081071000751999999KA1999M+00501MW1501
0043065900999991953013000004+49617+006200FM-12+038099999V0202501N00411000151CN0014001N9+00501+00501102751ADDAY161999GF108991081071000251999999MW1601
0056065900999991953013006004+49617+006200FM-12+038099999V0202501N00511000151CN0001001N9+00391+00391102701ADDAY161999GF109991091999000251999999KA1999N+00391MW1451
0043065900999991953013012004+49617+006200FM-12+038099999V0202801N004619999999N0030001N9+00501+00501102621ADDAY141999GF107991041061001501999999MW1281
0056065900999991953013018004+49617+006200FM-12+038099999V0202101N00411220001CN0120001N9+00391+00281102221ADDAY121999GF104991021051008001001061KA1999M+00721MW1011
0043065900999991953013100004+49617+006200FM-12+038099999V0202001N00511220001CN0030001N9+00221+00111101741ADDAY121999GF108991001001999999001071MW1051
0056065900999991953013106004+49617+006200FM-12+038099999V0201601N00821002401CN0060001N9+00221+00001100831ADDAY161999GF108991071051002501999999KA1999N+00111MW1601
0043065900999991953013112004+49617+006200FM-12+038099999V0202901N01231004501CN0160001N9+00221+00111100221ADDAY181999GF107991051081004501999999MW1251
0056065900999991953013118004+49617+006200FM-12+038099999V0202901N01031002401CN0020001N9-00111-00111100561ADDAY181999GF108991081031002501999999KA1999M+00611MW1861
0043065900999991953020100004+49617+006200FM-12+038099999V0202601N01441001501CN0020001N9+00001-00111100461ADDAY181999GF108991081071001501999999MW1721
0056065900999991953020106004+49617+006200FM-12+038099999V0202801N01231002401CN0060001N9-00221-00501100581ADDAY171999GF107991061071002501999999KA1999N-00221MW1051
0043065900999991953020112004+49617+006200FM-12+038099999V0202501N01541000601CN0002001N9-00281-00391100491ADDAY171999GF108991081071000751999999MW1711
0056065900999991953020118004+49617+006200FM-12+038099999V0203101N01231004501CN0060001N9+00111-00111100601ADDAY171999GF108991081071004501999999KA1999M+00111MW1711
0043065900999991953020200004+49617+006200FM-12+038099999V0203001N00871002401CN0160001N9+00111-00111101041ADDAY171999GF107991071081002501999999MW1021
0056065900999991953020206004+49617+006200FM-12+038099999V0203401N00771004501CN0034001N9+00001-00111101321ADDAY171999GF108991081071004501999999KA1999N-00111MW1711
0043065900999991953020212004+49617+006200FM-12+038099999V0200201N00571004501CN0200001N9+00001-00221101581ADDAY181999GF108991051051004501011999MW1261
0056065900999991953020218004+49617+006200FM-12+038099999V0200201N004119999999N0160001N9-00111-00391101741ADDAY181999GF108991031081004501011999KA1999M+00111MW1021
0043065900999991953020300004+49617+006200FM-12+038099999V0200201N00461007801CN0160001N9-00221-00501102061ADDAY171999GF108991071051008001999999MW1021
0056065900999991953020306004+49617+006200FM-12+038099999V0200201N00721220001CN0080001N9-00281-00611102461ADDAY121999GF103991021051012501031001KA1999N-00391MW1051
0043065900999991953020312004+49617+006200FM-12+038099999V0200301N006719999999N0090001N9-00221-00501102851ADDAY111999GF106991031051008001001061MW1051
0056065900999991953020318004+49617+006200FM-12+038099999V0203601N00571002401CN0040001N9-00221-00391102911ADDAY121999GF108991081061002501999999KA1999M-00111MW1051
0043065900999991953020400004+49617+006200FM-12+038099999V0203601N00411001501CN0020001N9-00221-00281102891ADDAY121999GF108991081071001501999999MW1051
0056065900999991953020406004+49617+006200FM-12+038099999V0203401N00411001501CN0030001N9-00281-00281102871ADDAY171999GF108991081071001501999999KA1999N-00281MW1051
0043065900999991953020412004+49617+006200FM-12+038099999V0202701N00571002401CN0080001N9-00221-00501102611ADDAY171999GF108991081061002501999999MW1051
0056065900999991953020418004+49617+006200FM-12+038099999V0202501N00771004501CN0060001N9-00391-00611102111ADDAY121999GF108991081061004501999999KA1999M-00221MW1051
0043065900999991953020500004+49617+006200FM-12+038099999V0202501N00931001501CN0030001N9-00281-00391101541ADDAY171999GF108991081071001501999999MW1711
0056065900999991953020506004+49617+006200FM-12+038099999V0202701N00621004501CN0120001N9-00111-00391101231ADDAY181999GF108991061081004501999999KA1999N-00391MW1261
0043065900999991953020512004+49617+006200FM-12+038099999V0202701N00931004501CN0120001N9+00111-00281101191ADDAY181999GF107991051081004501999999MW1261
0056065900999991953020518004+49617+006200FM-12+038099999V0202801N00571004501CN0080001N9+00001-00111101071ADDAY171999GF106991051051004501999999KA1999M+00001MW1221
0043065900999991953020600004+49617+006200FM-12+038099999V0202701N00931007801CN0006001N9+00001-00221100941ADDAY171999GF107991071051008001999999MW1051
0056065900999991953020606004+49617+006200FM-12+038099999V0202301N00821000601CN0002001N9-00111-00221100711ADDAY181999GF108991081071000751999999KA1999N-00221MW1701
0043065900999991953020612004+49617+006200FM-12+038099999V0200501N00411002401CN0080001N9+00111-00111100731ADDAY181999GF108991061081002501999999MW1261
0056065900999991953020618004+49617+006200FM-12+038099999V0200901N00411007801CN0050001N9-00281-00391100921ADDAY181999GF107991061051008001999999KA1999M+00111MW1051
0043065900999991953020700004+49617+006200FM-12+038099999V0203601N00511004501CN0024001N9-00501-00781101171ADDAY171999GF108991081071004501999999MW1731
0056065900999991953020706004+49617+006200FM-12+038099999V0203601N00511220001CN0080001N9-01001-01221101381ADDAY171999GF100991001001999999001001KA1999N-01111MW1051
0043065900999991953020712004+49617+006200FM-12+038099999V0200201N00461220001CN0140001N9-00721-01281101631ADDAY111999GF102991001001999999031061MW1021
0075065900999991953020718004+49617+006200FM-12+038099999V0202801N002619999999N0120001N9-00721-01221101751ADDAY111999GF105991999051012501001001KA1999M-00391MW1021EQDQ01+000042SCOTLC
0043065900999991953020800004+49617+006200FM-12+038099999V0202901N00211220001CN0080001N9-01221-01391102011ADDAY111999GF100991001001999999001001MW1051
0056065900999991953020806004+49617+006200FM-12+038099999V0202001N00211012301CN0080001N9-01221-01391101991ADDAY121999GF107991071051012501999999KA1999N-01281MW1051
0043065900999991953020812004+49617+006200FM-12+038099999V0201601N00311000151CN0008001N9-01001-01221101911ADDAY141999GF109991091999000251999999MW1491
0056065900999991953020818004+49617+006200FM-12+038099999V0201801N00311004501CN0018001N9-00611-00721101661ADDAY141999GF108991081061004501999999KA1999M-00611MW1101
0043065900999991953020900004+49617+006200FM-12+038099999V0202301N00821002401CN0030001N9-00391-00501101221ADDAY171999GF108991081071002501999999MW1221
0056065900999991953020906004+49617+006200FM-12+038099999V0202001N00981001501CN0012001N9-00501-00611100291ADDAY171999GF108991081071001501999999KA1999N-00611MW1721
0043065900999991953020912004+49617+006200FM-12+038099999V0202501N01031002401CN0080001N9+00111+00001100261ADDAY171999GF108991081081002501999999MW1051
0056065900999991953020918004+49617+006200FM-12+038099999V0202301N01131004501CN0090001N9+00111-00111100411ADDAY121999GF107991071081004501999999KA1999M+00221MW1051
0043065900999991953021000004+49617+006200FM-12+038099999V0202001N01031002401CN0050001N9+00001+00001099821ADDAY171999GF108991081071002501999999MW1221
0056065900999991953021006004+49617+006200FM-12+038099999V0201801N01031000601CN0010001N9+00001+00001099021ADDAY161999GF108991081071000751999999KA1999N+00001MW1681
0062065900999991953021012004+49617+006200FM-12+038099999V0202001N01341001501CN0060001N9+00221+00111098052ADDAY181999GF108991061071001501999999MW1601EQDQ01+098053APOSLP
0056065900999991953021018004+49617+006200FM-12+038099999V0202301N00871002401CN0080001N9+00111+00001098091ADDAY181999GF108991081051002501999999KA1999M+00221MW1051
0043065900999991953021100004+49617+006200FM-12+038099999V0202101N01131004501CN0140001N9+00111-00111098151ADDAY181999GF108991081051004501999999MW1261
0056065900999991953021106004+49617+006200FM-12+038099999V0202101N01031001501CN0018001N9+00001+00001098091ADDAY171999GF108991081071001501999999KA1999N+00001MW1711
0043065900999991953021112004+49617+006200FM-12+038099999V0201801N00981001501CN0030001N9+00001+00001098341ADDAY171999GF108991081071001501999999MW1701
0056065900999991953021118004+49617+006200FM-12+038099999V0201801N00261001501CN0030001N9+99999+99999098671ADDAY171999GF108991081071001501999999KA1999M+00001MW1051
0043065900999991953021200004+49617+006200FM-12+038099999V0201801N00261001501CN0020001N9+00001+00001099071ADDAY171999GF108991081071001501999999MW1711
0056065900999991953021206004+49617+006200FM-12+038099999V0203201N00211002401CN0050001N9-00111-00111099501ADDAY121999GF108991071061002501999999KA1999N-00111MW1051
0043065900999991953021212004+49617+006200FM-12+038099999V0203401N00411012301CN0050001N9+00111-00111099901ADDAY171999GF106991061051012501071999MW1051
0056065900999991953021218004+49617+006200FM-12+038099999V0203401N00411002401CN0024001N9-00111-00281100431ADDAY171999GF108991081051002501999999KA1999M+00111MW1701
0043065900999991953021300004+49617+006200FM-12+038099999V0200201N00771007801CN0060001N9-00281-00501100951ADDAY171999GF108991081051008001999999MW1051
0056065900999991953021306004+49617+006200FM-12+038099999V0200201N00671001501CN0030001N9-00281-00391101381ADDAY121999GF108991081061001501999999KA1999N-00391MW1051
0043065900999991953021312004+49617+006200FM-12+038099999V0200201N00931007801CN0032001N9-00111-00391101671ADDAY121999GF106991061051008001001001MW1051
0056065900999991953021318004+49617+006200FM-12+038099999V0203601N00621007801CN0050001N9-00281-00391101831ADDAY121999GF107991071051008001999999KA1999M+00001MW1051
0043065900999991953021400004+49617+006200FM-12+038099999V0200201N00261007801CN0060001N9-00391-00611101831ADDAY121999GF108991071051008001999999MW1051
0056065900999991953021406004+49617+006200FM-12+038099999V0200201N00261002401CN0040001N9-00391-00501101711ADDAY171999GF108991071071002501999999KA1999N-00391MW1711
0043065900999991953021412004+49617+006200FM-12+038099999V0200201N00571001501CN0020001N9-00221-00391101671ADDAY171999GF108991081061001501999999MW1221
0056065900999991953021418004+49617+006200FM-12+038099999V0200201N00671004501CN0026001N9-00111-00281101791ADDAY121999GF107991071051004501999999KA1999M-00111MW1051
0043065900999991953021500004+49617+006200FM-12+038099999V0200501N00871220001CN0030001N9-00221-00391102011ADDAY121999GF100991001001999999001001MW1051
0056065900999991953021506004+49617+006200FM-12+038099999V0200501N00931220001CN0040001N9-00391-00721102061ADDAY101999GF102991021051008001001001KA1999N-00501MW1051
0043065900999991953021512004+49617+006200FM-12+038099999V0200501N01031004501CN0060001N9-00281-00721102071ADDAY121999GF108991071071004501999999MW1051
0056065900999991953021518004+49617+006200FM-12+038099999V0200501N01081004501CN0080001N9-00281-00611101971ADDAY121999GF108991061051004501999999KA1999M-00281MW1051
0043065900999991953021600004+49617+006200FM-12+038099999V0200501N01131004501CN0080001N9-00281+99999101971ADDAY121999GF108991081051004501999999MW1051
0056065900999991953021606004+49617+006200FM-12+038099999V0200501N00981004501CN0070001N9-00391+99999102061ADDAY121999GF108991081051004501999999KA1999N-00391MW1051
0043065900999991953021612004+49617+006200FM-12+038099999V0200701N00821007801CN0090001N9-00281+99999102291ADDAY121999GF108991071051008001999999MW1051
0056065900999991953021618004+49617+006200FM-12+038099999V0200201N00621007801CN0120001N9-00391+99999102431ADDAY121999GF105991051051008001001001KA1999M-00281MW1021
0043065900999991953021700004+49617+006200FM-12+038099999V0200401N00311220001CN0120001N9-00611+99999102591ADDAY101999GF100991001001999999001001MW1001
0056065900999991953021706004+49617+006200FM-12+038099999V0200201N00311220001CN0100001N9-00781+99999102621ADDAY101999GF100991001001999999001001KA1999N-00891MW1051
0043065900999991953021712004+49617+006200FM-12+038099999V0202201N00151220001CN0060001N9-00221+99999102531ADDAY111999GF102991001001999999001051MW1051
0056065900999991953021718004+49617+006200FM-12+038099999V0202601N00571012301CN0060001N9+00001+99999102271ADDAY121999GF108991071051012501999999KA1999M+00111MW1051
0043065900999991953021800004+49617+006200FM-12+038099999V0202701N00721000151CN0010001N9+00001+99999102161ADDAY161999GF108991081071000251999999MW1661
0056065900999991953021806004+49617+006200FM-12+038099999V0202701N00671000151CN0002001N9+00001+99999102091ADDAY161999GF109991091999000251999999KA1999N-00111MW1561
0043065900999991953021812004+49617+006200FM-12+038099999V0202701N00461000151CN0002001N9+00111+99999102121ADDAY151999GF109991091999000251999999MW1451
0056065900999991953021818004+49617+006200FM-12+038099999V0202001N00261000151CN0000001N9+00111+99999102071ADDAY151999GF109991091999000251999999KA1999M+00111MW1451
0043065900999991953021900004+49617+006200FM-12+038099999V0202001N00461000151CN0000001N9+00111+99999102051ADDAY141999GF109991091999000251999999MW1451
0056065900999991953021906004+49617+006200FM-12+038099999V0202001N00511000151CN0000001N9+00111+99999101911ADDAY151999GF109991091999000251999999KA1999N+00001MW1501
0043065900999991953021912004+49617+006200FM-12+038099999V0202001N00411000151CN0000001N9+00221+99999101971ADDAY151999GF109991091999000251999999MW1451
0056065900999991953021918004+49617+006200FM-12+038099999V0201801N00411000151CN0000001N9+00221+99999101991ADDAY151999GF109991091999000251999999KA1999M+00221MW1501
0043065900999991953022000004+49617+006200FM-12+038099999V0202001N00411000151CN0000001N9+00221+99999102141ADDAY161999GF109991091999000251999999MW1601
0056065900999991953022006004+49617+006200FM-12+038099999V0202001N00511000151CN0000001N9+00221+99999102241ADDAY161999GF109991091999000251999999KA1999N+00111MW1451
0043065900999991953022012004+49617+006200FM-12+038099999V0202401N00211000151CN0000001N9+00391+99999102531ADDAY141999GF109991091999000251999999MW1451
0056065900999991953022018004+49617+006200FM-12+038099999V0202201N00571220001CN0050001N9+00281+99999102661ADDAY141999GF103991031051008001001001KA1999M+00501MW1051
0043065900999991953022100004+49617+006200FM-12+038099999V0202401N00571000151CN0000001N9+00221+99999102811ADDAY141999GF108991081061000251999999MW1441
0056065900999991953022106004+49617+006200FM-12+038099999V0201801N00411000151CN0000001N9+00001+99999102931ADDAY141999GF109991091999000251999999KA1999N+00001MW1451
0043065900999991953022112004+49617+006200FM-12+038099999V0202401N00821001501CN0040001N9+00281+99999103061ADDAY141999GF108991081061001501999999MW1051
0056065900999991953022118004+49617+006200FM-12+038099999V0202401N00671004501CN0120001N9+00501+99999103011ADDAY121999GF108991071051004501999999KA1999M+00611MW1021
0043065900999991953022200004+49617+006200FM-12+038099999V0202501N00571001501CN0080001N9+00501+99999103151ADDAY121999GF108991081061001501999999MW1051
0056065900999991953022206004+49617+006200FM-12+038099999V0202401N00211000151CN0000001N9+00391+99999103191ADDAY151999GF109991091999000251999999KA1999N+00391MW1451
0043065900999991953022212004+49617+006200FM-12+038099999V0202301N00621000151CN0001001N9+00501+99999103221ADDAY141999GF109991091999000251999999MW1431
0056065900999991953022218004+49617+006200FM-12+038099999V0202301N00621000151CN0001001N9+00611+99999103051ADDAY151999GF109991091999000251999999KA1999M+00611MW1501
0043065900999991953022300004+49617+006200FM-12+038099999V0202501N00211004501CN0020001N9+00501+00501103061ADDAY151999GF108991081051004501999999MW1281
0056065900999991953022306004+49617+006200FM-12+038099999V0209991C00001000601CN0001001N9+00391+00391102821ADDAY151999GF108991081071000751999999KA1999N+00391MW1501
0043065900999991953022312004+49617+006200FM-12+038099999V0202601N002619999999N0040001N9+00501+00391102821ADDAY121999GF108991041051002501999999MW1051
0056065900999991953022318004+49617+006200FM-12+038099999V0202601N00211004501CN0040001N9+00611+00281102551ADDAY121999GF107991061051004501999999KA1999M+00611MW1051
0043065900999991953022400004+49617+006200FM-12+038099999V0202901N00511007801CN0060001N9+00391+00111102631ADDAY121999GF107991061051008001999999MW1051
0056065900999991953022406004+49617+006200FM-12+038099999V0202901N00311004501CN0120001N9+00281-00111102711ADDAY121999GF108991081051004501999999KA1999N+00281MW1021
0043065900999991953022412004+49617+006200FM-12+038099999V0200301N00261007801CN0200001N9+00501-00221102871ADDAY121999GF108991081051008001999999MW1021
0056065900999991953022418004+49617+006200FM-12+038099999V0202001N00101007801CN0160001N9+00391+00001102851ADDAY121999GF107991071051008001999999KA1999M+00721MW1021
0043065900999991953022500004+49617+006200FM-12+038099999V0200501N00261220001CN0120001N9+00111-00221102981ADDAY121999GF100991001001999999001001MW1001
0056065900999991953022506004+49617+006200FM-12+038099999V0200401N00461220001CN0050001N9+00001-00221103011ADDAY101999GF100991001001999999001001KA1999N-00111MW1051
0043065900999991953022512004+49617+006200FM-12+038099999V0200201N00511220001CN0040001N9+00721+00111103101ADDAY101999GF100991001001999999001001MW1051
0056065900999991953022518004+49617+006200FM-12+038099999V0200401N00261220001CN0050001N9+00781+00001103151ADDAY111999GF103991001001999999001051KA1999M+01111MW1051
0062065900999991953022600004+49617+006200FM-12+038099999V0200501N00721220001CN0060001N9+00611+00221103331ADDAY111999GF103991999001999999031001MW1051EQDQ01+000002SCOTLC
0056065900999991953022606004+49617+006200FM-12+038099999V0200501N00621220001CN0030001N9+00281+00111103411ADDAY101999GF100991001001999999001001KA1999N+00281MW1051
0043065900999991953022612004+49617+006200FM-12+038099999V0200601N00771220001CN0090001N9+00891+00111103341ADDAY101999GF101991001001999999001011MW1051
0075065900999991953022618004+49617+006200FM-12+038099999V0200701N00211220001CN0060001N9+00781+00001103311ADDAY101999GF101991999001999999031001KA1999M+01221MW1051EQDQ01+000002SCOTLC
0043065900999991953022700004+49617+006200FM-12+038099999V0200501N00411220001CN0090001N9+00281-00221103381ADDAY101999GF100991001001999999001001MW1051
0056065900999991953022706004+49617+006200FM-12+038099999V0200501N00461220001CN0080001N9+00221-00281103391ADDAY101999GF100991001001999999001001KA1999N+00221MW1051
0043065900999991953022712004+49617+006200FM-12+038099999V0200401N00511220001CN0070001N9+01001-00281103331ADDAY101999GF100991001001999999001001MW1051
0056065900999991953022718004+49617+006200FM-12+038099999V0200201N00261220001CN0100001N9+01001+00111103341ADDAY101999GF100991001001999999001001KA1999M+01281MW1001
0043065900999991953022800004+49617+006200FM-12+038099999V0200501N00671220001CN0020001N9+00501+00001103531ADDAY101999GF100991001001999999001001MW1101
0056065900999991953022806004+49617+006200FM-12+038099999V0200501N00931220001CN0030001N9+00281+00001103611ADDAY101999GF100991001001999999001001KA1999N+00281MW1051
0043065900999991953022812004+49617+006200FM-12+038099999V0200501N00981220001CN0120001N9+00781-00111103611ADDAY121999GF100991001001999999001001MW1011
0056065900999991953022818004+49617+006200FM-12+038099999V0200701N00821220001CN0160001N9+00781-00721103491ADDAY101999GF100991001001999999001001KA1999M+01111MW1001
0043065900999991953030100004+49617+006200FM-12+038099999V0200201N00721220001CN0140001N9+00391-00281103581ADDAY101999GF102991001001999999001051MW1021
0056065900999991953030106004+49617+006200FM-12+038099999V0200501N00721220001CN0160001N9+00111-00391103581ADDAY111999GF101991001001999999001051KA1999N+00111MW1021
0043065900999991953030112004+49617+006200FM-12+038099999V0200501N00821220001CN0160001N9+00781-00391103461ADDAY101999GF100991001001999999001001MW1001
0056065900999991953030118004+49617+006200FM-12+038099999V0200601N00931220001CN0200001N9+00781-00501103301ADDAY101999GF100991001001999999001001KA1999M+01001MW1001
0043065900999991953030200004+49617+006200FM-12+038099999V0200701N00721220001CN0160001N9+00281-00391103461ADDAY101999GF100991001001999999001001MW1001
0056065900999991953030206004+49617+006200FM-12+038099999V0200501N00571220001CN0090001N9+00001-00281103571ADDAY101999GF101991001001999999001021KA1999N+00001MW1051
0043065900999991953030212004+49617+006200FM-12+038099999V0200201N00511220001CN0160001N9+00781-00111103571ADDAY101999GF101991001001999999001051MW1021
0056065900999991953030218004+49617+006200FM-12+038099999V0200201N00311220001CN0100001N9+00891-00391103451ADDAY101999GF101991001001999999001051KA1999M+01281MW1051
0043065900999991953030300004+49617+006200FM-12+038099999V0209991C00001220001CN0060001N9+00281-00501103631ADDAY101999GF100991001001999999001001MW1051
0056065900999991953030306004+49617+006200FM-12+038099999V0209991C00001220001CN0110001N9+00281-00501103581ADDAY101999GF100991001001999999001001KA1999N+00111MW1051
0043065900999991953030312004+49617+006200FM-12+038099999V0202101N00151220001CN0080001N9+01221-00221103491ADDAY101999GF101991001001999999001011MW1051
0056065900999991953030318004+49617+006200FM-12+038099999V0203601N00311220001CN0160001N9+01001-00721103431ADDAY111999GF104991001001999999001061KA1999M+01501MW1021
0043065900999991953030400004+49617+006200FM-12+038099999V0203601N00671220001CN0060001N9+00281-00221103631ADDAY101999GF100991001001999999001001MW1051
0056065900999991953030406004+49617+006200FM-12+038099999V0200401N00461001501CN0016001N9+00111+00111103631ADDAY121999GF108991081061001501999999KA1999N+00111MW1101
0043065900999991953030412004+49617+006200FM-12+038099999V0202001N00101220001CN0030001N9+00891+00391103421ADDAY111999GF103991001001999999001061MW1051
0056065900999991953030418004+49617+006200FM-12+038099999V0203401N00211220001CN0140001N9+01111+00221103181ADDAY111999GF106991001001999999031061KA1999M+01281MW1021
0043065900999991953030500004+49617+006200FM-12+038099999V0203601N00361220001CN0060001N9+00391+00001103391ADDAY101999GF100991001001999999001001MW1051
0056065900999991953030506004+49617+006200FM-12+038099999V0200201N00671001501CN0040001N9+00111+00001103611ADDAY121999GF108991081061001501999999KA1999N+00001MW1051
0043065900999991953030512004+49617+006200FM-12+038099999V0200501N00871004501CN0120001N9+00501+00281103671ADDAY121999GF108991081051004501999999MW1021
0056065900999991953030518004+49617+006200FM-12+038099999V0200701N00621004501CN0050001N9+00501+00281103461ADDAY121999GF108991081051004501999999KA1999M+00781MW1051
0043065900999991953030600004+49617+006200FM-12+038099999V0200501N00621220001CN0030001N9+00221+00221103671ADDAY121999GF100991001001999999001001MW1051
0056065900999991953030606004+49617+006200FM-12+038099999V0200401N00571001501CN0024001N9+00111+00001103711ADDAY121999GF107991071061001501999999KA1999N+00111MW1051
0043065900999991953030612004+49617+006200FM-12+038099999V0200401N00361220001CN0100001N9+00891+00001103611ADDAY101999GF100991001001999999001001MW1051
0056065900999991953030618004+49617+006200FM-12+038099999V0200301N00311220001CN0090001N9+00891+00111103341ADDAY101999GF101991001001999999001051KA1999M+01111MW1051
0043065900999991953030700004+49617+006200FM-12+038099999V0202301N00151220001CN0050001N9+00611+00001103171ADDAY101999GF101991001001999999001051MW1051
0056065900999991953030706004+49617+006200FM-12+038099999V0202901N00461220001CN0040001N9+00281-00111102811ADDAY111999GF104991001001999999001061KA1999N+00221MW1051
0043065900999991953030712004+49617+006200FM-12+038099999V0203201N00621007801CN0028001N9+00501+00221102651ADDAY121999GF107991071051008001999999MW1051
0056065900999991953030718004+49617+006200FM-12+038099999V0203401N00621220001CN0160001N9+00221-00111102901ADDAY181999GF103991031051008001001001KA1999M+00611MW1011
0043065900999991953030800004+49617+006200FM-12+038099999V0200201N00671220001CN0140001N9+00111-00281103231ADDAY111999GF100991001001999999001001MW1001
0056065900999991953030806004+49617+006200FM-12+038099999V0200201N00571220001CN0120001N9-00111-00281103421ADDAY101999GF101991001001999999001061KA1999N-00111MW1031
0043065900999991953030812004+49617+006200FM-12+038099999V0200301N00411220001CN0160001N9+00391-00611103461ADDAY101999GF100991001001999999001001MW1001
0075065900999991953030818004+49617+006200FM-12+038099999V0200201N00621220001CN0140001N9+00281-00611103431ADDAY111999GF103991999001999999071001KA1999M+00611MW1031EQDQ01+000002SCOTLC
0043065900999991953030900004+49617+006200FM-12+038099999V0200201N00571220001CN0120001N9-00111-00391103571ADDAY101999GF100991001001999999001001MW1001
0075065900999991953030906004+49617+006200FM-12+038099999V0200501N00621220001CN0040001N9-00111-00281103591ADDAY101999GF101991999001999999031001KA1999N-00221MW1051EQDQ01+000002SCOTLC
0043065900999991953030912004+49617+006200FM-12+038099999V0200401N008219999999N0160001N9+00501+00001103511ADDAY121999GF107991041051008001999999MW1021
0056065900999991953030918004+49617+006200FM-12+038099999V0200501N007719999999N0050001N9+00501+00001103541ADDAY121999GF107991031051004501999999KA1999M+00611MW1051
0043065900999991953031000004+49617+006200FM-12+038099999V0203401N00511220001CN0060001N9+00221-00111103731ADDAY121999GF100991001001999999001001MW1051
0043065900999991953031012004+49617+006200FM-12+038099999V0200401N00571220001CN0060001N9+00391-00281103981ADDAY111999GF104991001001999999001011MW1051
0043065900999991953031100004+49617+006200FM-12+038099999V0203401N00151220001CN0050001N9+00001-00221103691ADDAY111999GF106991001001999999001081MW1051
0056065900999991953031106004+49617+006200FM-12+038099999V0209991V00621004501CN0010001N9-00111-00221103031ADDAY121999GF108991081051004501999999KA1999N-00111MW1101
0062065900999991953031112004+49617+006200FM-12+038099999V0203601N00821004501CN0080001N9+00391+00001102661ADDAY181999GF107991999081004501001001MW1251EQDQ01+000052SCOTLC
0056065900999991953031118004+49617+006200FM-12+038099999V0203501N00671002401CN0080001N9+00281+00111102501ADDAY181999GF108991061081002501999999KA1999M+00611MW1801
0043065900999991953031200004+49617+006200FM-12+038099999V0200201N00621002401CN0080001N9+00221+00111102771ADDAY181999GF108991081071002501999999MW1211
0056065900999991953031206004+49617+006200FM-12+038099999V0200201N00101007801CN0060001N9+00111-00111102861ADDAY121999GF107991071051008001999999KA1999N+00111MW1051
0043065900999991953031212004+49617+006200FM-12+038099999V0200501N00821007801CN0120001N9+00611-00221102981ADDAY121999GF107991061081008001999999MW1021
0056065900999991953031218004+49617+006200FM-12+038099999V0200501N00671004501CN0060001N9+00281+00001103231ADDAY121999GF108991071051004501999999KA1999M+00611MW1051
0043065900999991953031300004+49617+006200FM-12+038099999V0200201N00511220001CN0040001N9+00001-00111103461ADDAY121999GF100991001001999999001001MW1051
0056065900999991953031306004+49617+006200FM-12+038099999V0200201N00721000151CN0004001N9-00111-00111103621ADDAY141999GF109991091999000251999999KA1999N-00111MW1471
0043065900999991953031312004+49617+006200FM-12+038099999V0200501N00821220001CN0100001N9+00611-00111103671ADDAY141999GF104991041021008001001001MW1031
0056065900999991953031318004+49617+006200FM-12+038099999V0200501N006719999999N0080001N9+00611-00111103531ADDAY121999GF107991041051012501999999KA1999M+00611MW1051
0043065900999991953031400004+49617+006200FM-12+038099999V0203401N00511220001CN0060001N9+00221+00001103611ADDAY121999GF103991031051012501001001MW1051
0056065900999991953031406004+49617+006200FM-12+038099999V0200201N00721220001CN0090001N9+00221-00221103431ADDAY111999GF104991041051008001001001KA1999N+00111MW1051
0043065900999991953031412004+49617+006200FM-12+038099999V0200401N01131220001CN0140001N9+00391-00281103341ADDAY111999GF101991011051017501001001MW1011
0056065900999991953031418004+49617+006200FM-12+038099999V0200901N00931220001CN0120001N9+00391-00501103261ADDAY101999GF100991001001999999001001KA1999M+00611MW1001
0043065900999991953031500004+49617+006200FM-12+038099999V0200901N00821220001CN0200001N9+00111-00721103271ADDAY101999GF100991001001999999001001MW1001
0056065900999991953031506004+49617+006200FM-12+038099999V0200701N00931220001CN0140001N9-00221-00611102991ADDAY101999GF100991001001999999001001KA1999N-00221MW1001
0043065900999991953031512004+49617+006200FM-12+038099999V0201101N00771220001CN0200001N9+00721-00281102541ADDAY101999GF101991001001999999001051MW1021
0056065900999991953031518004+49617+006200FM-12+038099999V0200901N00511220001CN0160001N9+00721-00721102311ADDAY111999GF103991001001999999001061KA1999M+01001MW1021
0043065900999991953031600004+49617+006200FM-12+038099999V0200501N00511220001CN0120001N9+00281-00781102301ADDAY101999GF100991001001999999001001MW1011
0056065900999991953031606004+49617+006200FM-12+038099999V0200201N00411220001CN0150001N9+00001-00611102351ADDAY101999GF102991001001999999001061KA1999N+00001MW1031
0043065900999991953031612004+49617+006200FM-12+038099999V0200701N00461220001CN0160001N9+01111-00221102271ADDAY101999GF101991001001999999001021MW1021
0056065900999991953031618004+49617+006200FM-12+038099999V0200701N00101220001CN0160001N9+01001+00281102241ADDAY111999GF103991001001999999001061KA1999M+01221MW1021
0043065900999991953031700004+49617+006200FM-12+038099999V0200501N00361220001CN0060001N9+00501-00111102391ADDAY101999GF100991001001999999001001MW1051
0056065900999991953031706004+49617+006200FM-12+038099999V0200501N00461220001CN0060001N9+00391-00221102381ADDAY111999GF104991001001999999001061KA1999N+00221MW1051
0043065900999991953031712004+49617+006200FM-12+038099999V0200801N00511220001CN0070001N9+01111+00281102291ADDAY111999GF106991001001999999001081MW1051
0056065900999991953031718004+49617+006200FM-12+038099999V0200201N00411220001CN0040001N9+01111+00501102111ADDAY111999GF105991001001999999001061KA1999M+01391MW1051
0043065900999991953031800004+49617+006200FM-12+038099999V0200201N00621220001CN0060001N9+00501+00281102271ADDAY111999GF100991001001999999001001MW1051
0056065900999991953031806004+49617+006200FM-12+038099999V0200401N00621220001CN0030001N9+00281+00001102241ADDAY101999GF100991001001999999001001KA1999N+00281MW1051
0043065900999991953031812004+49617+006200FM-12+038099999V0201601N00051220001CN0050001N9+01391+00001102121ADDAY101999GF100991001001999999001001MW1051
0056065900999991953031818004+49617+006200FM-12+038099999V0209991C00001220001CN0050001N9+01281+00111102021ADDAY101999GF100991001001999999001001KA1999M+01721MW1051
0043065900999991953031900004+49617+006200FM-12+038099999V0200901N00411220001CN0050001N9+00891+00001102201ADDAY101999GF100991001001999999001001MW1051
0056065900999991953031906004+49617+006200FM-12+038099999V0200301N00511220001CN0040001N9+00391+00111102391ADDAY101999GF100991001001999999001001KA1999N+00221MW1051
0043065900999991953031912004+49617+006200FM-12+038099999V0201001N00261220001CN0050001N9+01501+00111102371ADDAY101999GF100991001001999999001001MW1051
0056065900999991953031918004+49617+006200FM-12+038099999V0201701N00261220001CN0060001N9+01281+00111102411ADDAY101999GF102991021011012501001001KA1999M+01721MW1051
0043065900999991953032000004+49617+006200FM-12+038099999V0200501N00051220001CN0050001N9+01001-00221102611ADDAY101999GF100991001001999999001001MW1051
0056065900999991953032006004+49617+006200FM-12+038099999V0200701N00101220001CN0040001N9+00721-00111102811ADDAY101999GF100991001001999999001001KA1999N+00281MW1051
0043065900999991953032012004+49617+006200FM-12+038099999V0209991V00151220001CN0040001N9+01611+00111102771ADDAY101999GF100991001001999999001001MW1051
0056065900999991953032018004+49617+006200FM-12+038099999V0209991C00001220001CN0080001N9+01391+00391102711ADDAY101999GF101991001001999999031011KA1999M+01781MW1051
0043065900999991953032100004+49617+006200FM-12+038099999V0200501N00361220001CN0060001N9+00781+00611102891ADDAY111999GF100991001001999999001001MW1051
0056065900999991953032106004+49617+006200FM-12+038099999V0200501N00461220001CN0040001N9+00611+00501102871ADDAY111999GF103991001001999999001061KA1999N+00611MW1051
0043065900999991953032112004+49617+006200FM-12+038099999V0200201N00411220001CN0030001N9+01501+00501102741ADDAY101999GF100991001001999999001001MW1051
0056065900999991953032118004+49617+006200FM-12+038099999V0200401N00571220001CN0080001N9+01391+00611102651ADDAY121999GF108991001001999999051071KA1999M+01721MW1051
0043065900999991953032200004+49617+006200FM-12+038099999V0200501N00721220001CN0060001N9+00721+00391102831ADDAY121999GF100991001001999999001001MW1051
0056065900999991953032206004+49617+006200FM-12+038099999V0200201N00511220001CN0012001N9+00501+00391102871ADDAY101999GF102991001001999999001051KA1999N+00501MW1101
0043065900999991953032212004+49617+006200FM-12+038099999V0200901N00311220001CN0050001N9+01501+00611102791ADDAY101999GF101991001001999999001051MW1051
0056065900999991953032218004+49617+006200FM-12+038099999V0200501N00261220001CN0100001N9+01391+00111102791ADDAY101999GF101991001001999999001011KA1999M+01781MW1031
0043065900999991953032300004+49617+006200FM-12+038099999V0200501N00151220001CN0060001N9+00891+00221103061ADDAY101999GF100991001001999999001001MW1051
0056065900999991953032306004+49617+006200FM-12+038099999V0200501N00461220001CN0050001N9+00501+00221103231ADDAY101999GF100991001001999999001001KA1999N+00501MW1051
0043065900999991953032312004+49617+006200FM-12+038099999V0209991C00001220001CN0040001N9+01721+00611103171ADDAY101999GF100991001001999999001001MW1051
0056065900999991953032318004+49617+006200FM-12+038099999V0203401N00511220001CN0160001N9+01391-00891103171ADDAY111999GF104991001001999999001061KA1999M+01891MW1021
0043065900999991953032400004+49617+006200FM-12+038099999V0200401N00871220001CN0100001N9+00611-00111103431ADDAY111999GF100991001001999999001001MW1051
0056065900999991953032406004+49617+006200FM-12+038099999V0200401N00821220001CN0014001N9+00221+00001103541ADDAY101999GF100991001001999999001001KA1999N+00111MW1101
0043065900999991953032412004+49617+006200FM-12+038099999V0200501N00571220001CN0050001N9+01391+00281103491ADDAY101999GF100991001001999999001001MW1051
0056065900999991953032418004+49617+006200FM-12+038099999V0200501N00461220001CN0140001N9+01501+00281103351ADDAY101999GF100991001001999999001001KA1999M+01781MW1001
0043065900999991953032500004+49617+006200FM-12+038099999V0200501N00771220001CN0034001N9+00891+00501103621ADDAY101999GF100991001001999999001001MW1051
0056065900999991953032506004+49617+006200FM-12+038099999V0200501N00671220001CN0030001N9+00611+00111103651ADDAY101999GF100991001001999999001001KA1999N+00611MW1051
0043065900999991953032512004+49617+006200FM-12+038099999V0200901N00051220001CN0050001N9+01721+00001103391ADDAY101999GF100991001001999999001001MW1051
0056065900999991953032518004+49617+006200FM-12+038099999V0200401N00411220001CN0120001N9+01611-00391103141ADDAY101999GF100991001001999999001001KA1999M+01891MW1001
0043065900999991953032600004+49617+006200FM-12+038099999V0200401N00411220001CN0090001N9+01001-00391103171ADDAY101999GF100991001001999999001001MW1051
0056065900999991953032606004+49617+006200FM-12+038099999V0200401N00361220001CN0060001N9+00611-00281102941ADDAY101999GF100991001001999999001001KA1999N+00611MW1051
0043065900999991953032612004+49617+006200FM-12+038099999V0201701N00571220001CN0060001N9+01721-00221102411ADDAY101999GF100991001001999999001001MW1051
0056065900999991953032618004+49617+006200FM-12+038099999V0202701N00821220001CN0200001N9+01611-00221101971ADDAY101999GF100991001001999999001001KA1999M+01891MW1001
0043065900999991953032700004+49617+006200FM-12+038099999V0202901N007219999999N0100001N9+01001+00111101931ADDAY121999GF107991031051012501001061MW1021
0056065900999991953032706004+49617+006200FM-12+038099999V0202301N00461015001CN0040001N9+00611+00281101931ADDAY121999GF108991081051017501999999KA1999N+00611MW1051
0043065900999991953032712004+49617+006200FM-12+038099999V0202901N00411004501CN0150001N9+00781+00501101891ADDAY161999GF108991061081004501999999MW1021
0056065900999991953032718004+49617+006200FM-12+038099999V0200201N00311007801CN0080001N9+00611+00281101941ADDAY121999GF106991061051008001999999KA1999M+00781MW1051
0043065900999991953032800004+49617+006200FM-12+038099999V0200901N00211220001CN0060001N9+00221-00221102161ADDAY121999GF100991001001999999001001MW1051
0056065900999991953032806004+49617+006200FM-12+038099999V0201801N00051220001CN0028001N9+00111+00001102201ADDAY121999GF106991001001999999071999KA1999N+00111MW1051
0043065900999991953032812004+49617+006200FM-12+038099999V0202701N01131220001CN0100001N9+00891+00111102101ADDAY111999GF104991021011008001001061MW1021
0056065900999991953032818004+49617+006200FM-12+038099999V0202501N01031007801CN0160001N9+01001+00781102051ADDAY121999GF108991051051008001071999KA1999M+01111MW1021
0043065900999991953032900004+49617+006200FM-12+038099999V0202301N00871004501CN0120001N9+00891+00611102151ADDAY161999GF108991081051004501999999MW1021
0056065900999991953032906004+49617+006200FM-12+038099999V0202301N01181004501CN0200001N9+00891+00501102091ADDAY121999GF108991051051004501999999KA1999N+00781MW1021
0043065900999991953032912004+49617+006200FM-12+038099999V0202501N013919999999N0200001N9+01111+00391102151ADDAY121999GF106991041051008001001061MW1021
0056065900999991953032918004+49617+006200FM-12+038099999V0202301N01441220001CN0200001N9+01391+00391101861ADDAY111999GF106991001001999999031061KA1999M+01391MW1021
0043065900999991953033000004+49617+006200FM-12+038099999V0202301N00821220001CN0150001N9+01001+00281101911ADDAY111999GF101991001001999999031051MW1011
0056065900999991953033006004+49617+006200FM-12+038099999V0202001N00721220001CN0200001N9+00721+00391101721ADDAY121999GF108991001001999999071071KA1999N+00721MW1021
0043065900999991953033012004+49617+006200FM-12+038099999V0202301N02061012301CN0200001N9+01781-00281101191ADDAY121999GF107991051051012501001061MW1021
0056065900999991953033018004+49617+006200FM-12+038099999V0202301N01341007801CN0200001N9+01781+00111100521ADDAY121999GF107991051051008001001081KA1999M+02001MW1021
0043065900999991953033100004+49617+006200FM-12+038099999V0202901N01131012301CN0160001N9+00611+00111101171ADDAY191999GF108991051081012501999999MW1801
0056065900999991953033106004+49617+006200FM-12+038099999V0202301N00621220001CN0160001N9+00281+00001101551ADDAY181999GF104991041081004501001051KA1999N+00281MW1021
0043065900999991953033112004+49617+006200FM-12+038099999V0202401N01031007801CN0200001N9+00721-00281101691ADDAY181999GF107991051081008001999999MW1801
0056065900999991953033118004+49617+006200FM-12+038099999V0202601N00931007801CN0200001N9+00781-00281101671ADDAY121999GF107991061051008001999999KA1999M+00891MW1021
0043065900999991953040100004+49617+006200FM-12+038099999V0202301N00311220001CN0140001N9+00501-00111101871ADDAY121999GF104991041051017501001001MW1021
0056065900999991953040106004+49617+006200FM-12+038099999V0202301N00261220001CN0030001N9+00221-00111101951ADDAY111999GF102991021051008001001001KA1999N+00221MW1051
0043065900999991953040112004+49617+006200FM-12+038099999V0202501N00821007801CN0200001N9+00891-00221101871ADDAY121999GF107991071051008001999999MW1021
0056065900999991953040118004+49617+006200FM-12+038099999V0202301N005119999999N0200001N9+01111-00111101591ADDAY121999GF107991031051012501011061KA1999M+01281MW1021
0043065900999991953040200004+49617+006200FM-12+038099999V0202501N00461007801CN0140001N9+00721+00001101741ADDAY121999GF107991071051008001999999MW1031
0056065900999991953040206004+49617+006200FM-12+038099999V0202001N003619999999N0060001N9+00501+00001101711ADDAY121999GF106991031051008001001061KA1999N+00501MW1051
0043065900999991953040212004+49617+006200FM-12+038099999V0201601N00671001501CN0030001N9+00721+00721101511ADDAY161999GF108991081071001501999999MW1611
0056065900999991953040218004+49617+006200FM-12+038099999V0202001N00771007801CN0160001N9+01281+00781101221ADDAY161999GF107991071051008001999999KA1999M+01281MW1021
0043065900999991953040300004+49617+006200FM-12+038099999V0201601N00821007801CN0160001N9+01001+00891101231ADDAY181999GF106991061051008001999999MW1021
0056065900999991953040306004+49617+006200FM-12+038099999V0201601N00721220001CN0090001N9+00891+00891101041ADDAY121999GF104991021051008001001051KA1999N+00891MW1051
0043065900999991953040312004+49617+006200FM-12+038099999V0201801N01031004501CN0160001N9+01721+01111100911ADDAY121999GF106991061021004501999999MW1021
0056065900999991953040318004+49617+006200FM-12+038099999V0201701N00931220001CN0200001N9+01781+00611100581ADDAY121999GF102991011021008001001051KA1999M+02001MW1021
0043065900999991953040400004+49617+006200FM-12+038099999V0201701N01341220001CN0120001N9+01391+00501100471ADDAY101999GF100991001001999999001001MW1001
0056065900999991953040406004+49617+006200FM-12+038099999V0201701N006719999999N0080001N9+01001+00721100581ADDAY111999GF105991041051008001001061KA1999N+01001MW1051
0043065900999991953040412004+49617+006200FM-12+038099999V0202501N00931004501CN0100001N9+00781+00501100751ADDAY121999GF108991081081004501999999MW1051
0056065900999991953040418004+49617+006200FM-12+038099999V0202501N00261001501CN0140001N9+00391+00281101151ADDAY181999GF108991071071001501999999KA1999M+01501MW1601
0043065900999991953040500004+49617+006200FM-12+038099999V0202701N00511004501CN0160001N9+00391+00221101341ADDAY161999GF107991071051004501999999MW1021
0056065900999991953040506004+49617+006200FM-12+038099999V0201801N00511002401CN0160001N9+00281+00221101551ADDAY121999GF108991081051002501999999KA1999N+00281MW1021
0043065900999991953040512004+49617+006200FM-12+038099999V0201801N00461220001CN0160001N9+00721+00221101321ADDAY121999GF104991031081008001041001MW1011
0056065900999991953040518004+49617+006200FM-12+038099999V0201801N00621004501CN0200001N9+00391+00391101261ADDAY181999GF107991071081004501999999KA1999M+01221MW1211
0043065900999991953040600004+49617+006200FM-12+038099999V0202001N00621220001CN0200001N9+00281+00221101441ADDAY121999GF100991001001999999001001MW1011
0056065900999991953040606004+49617+006200FM-12+038099999V0202001N007219999999N0120001N9+00281+00221101321ADDAY181999GF107991031081004501999999KA1999N+00221MW1251
0043065900999991953040612004+49617+006200FM-12+038099999V0202001N00771002401CN0130001N9+00611+00391101211ADDAY181999GF108991061081002501999999MW1801
0056065900999991953040618004+49617+006200FM-12+038099999V0202001N006719999999N0200001N9+00611+00281101191ADDAY181999GF107991041031004501031031KA1999M+00781MW1021
0043065900999991953040700004+49617+006200FM-12+038099999V0202001N00621220001CN0160001N9+00281+00221101461ADDAY181999GF103991031081004501001001MW1021
0056065900999991953040706004+49617+006200FM-12+038099999V0202301N00771004501CN0080001N9+00281+00221101721ADDAY181999GF107991071031004501999999KA1999N+00281MW1801
0043065900999991953040712004+49617+006200FM-12+038099999V0203201N00671007801CN0160001N9+00721-00111101951ADDAY111999GF106991051081008001999999MW1021
0056065900999991953040718004+49617+006200FM-12+038099999V0202601N00361220001CN0200001N9+00781-00111102011ADDAY111999GF104991031031012501001061KA1999M+01001MW1011
0043065900999991953040800004+49617+006200FM-12+038099999V0200501N00361220001CN0120001N9+00391-00111102061ADDAY111999GF100991001001999999001001MW1001
0056065900999991953040806004+49617+006200FM-12+038099999V0200501N00411220001CN0060001N9+00281-00111101801ADDAY111999GF106991001001999999031061KA1999N+00221MW1051
0043065900999991953040812004+49617+006200FM-12+038099999V0200901N00721220001CN0160001N9+01221+00001101261ADDAY121999GF106991001001999999001061MW1021
0056065900999991953040818004+49617+006200FM-12+038099999V0201201N00461015001CN0090001N9+00781+00721100951ADDAY161999GF108991061051017501021999KA1999M+01221MW1601
0043065900999991953040900004+49617+006200FM-12+038099999V0201601N00411012301CN0070001N9+00781+00611100701ADDAY161999GF108991081051012501999999MW1211
0056065900999991953040906004+49617+006200FM-12+038099999V0201601N00621001501CN0030001N9+00721+00721100591ADDAY161999GF108991061071001501021999KA1999N+00721MW1051
0043065900999991953040912004+49617+006200FM-12+038099999V0201701N00211004501CN0080001N9+01221+00781100461ADDAY121999GF108991051081004501071999MW1051
0056065900999991953040918004+49617+006200FM-12+038099999V0202101N00571000601CN0050001N9+00891+00891100461ADDAY161999GF108991061071000751071999KA1999M+01221MW1631
0043065900999991953041000004+49617+006200FM-12+038099999V0203601N002619999999N0040001N9+00781+00721100661ADDAY161999GF108991041071002501021999MW1611
0056065900999991953041006004+49617+006200FM-12+038099999V0203401N00411001501CN0040001N9+00721+00611100921ADDAY161999GF106991061071001501021999KA1999N+00611MW1611
0043065900999991953041012004+49617+006200FM-12+038099999V0200101N01031001501CN0030001N9+00391+00391101401ADDAY161999GF108991061071001501021999MW1611
0056065900999991953041018004+49617+006200FM-12+038099999V0203601N005119999999N0040001N9+00611+00281101831ADDAY161999GF108991031061004501071999KA1999M+00721MW1211
0043065900999991953041100004+49617+006200FM-12+038099999V0200501N00571007801CN0100001N9+00721+00281102151ADDAY121999GF108991081051008001999999MW1021
0056065900999991953041106004+49617+006200FM-12+038099999V0200301N00621220001CN0060001N9+00501+00111102291ADDAY111999GF101991001001999999041051KA1999N+00281MW1051
0043065900999991953041112004+49617+006200FM-12+038099999V0209991V003119999999N0080001N9+01281+00611102121ADDAY111999GF105991041021008001001051MW1051
0056065900999991953041118004+49617+006200FM-12+038099999V0201901N00361220001CN0120001N9+01281+00781101911ADDAY111999GF103991001001999999001061KA1999M+01501MW1021
0043065900999991953041200004+49617+006200FM-12+038099999V0201201N00261220001CN0050001N9+00721+00611101971ADDAY111999GF100991001001999999001001MW1051
0056065900999991953041206004+49617+006200FM-12+038099999V0201201N00261220001CN0030001N9+00501+00501101711ADDAY111999GF106991001001999999001061KA1999N+00501MW1051
0043065900999991953041212004+49617+006200FM-12+038099999V0201701N01031220001CN0050001N9+01391+00721101311ADDAY111999GF106991001001999999001061MW1051
0056065900999991953041218004+49617+006200FM-12+038099999V0202301N00511220001CN0200001N9+01611+00221101031ADDAY121999GF107991001001999999071061KA1999M+01891MW1021
0043065900999991953041300004+49617+006200FM-12+038099999V0202001N003619999999N0080001N9+01111+00611101091ADDAY121999GF108991031051004501021999MW1051
0056065900999991953041306004+49617+006200FM-12+038099999V0202601N00671002401CN0120001N9+00781+00611101341ADDAY161999GF107991051071002501071999KA1999N+00611MW1211
0043065900999991953041312004+49617+006200FM-12+038099999V0202601N00721007801CN0140001N9+00781+00111101841ADDAY121999GF106991051081008001001061MW1011
0056065900999991953041318004+49617+006200FM-12+038099999V0203201N00771220001CN0200001N9+00891-00221101941ADDAY111999GF104991021011012501031021KA1999M+01111MW1021
0043065900999991953041400004+49617+006200FM-12+038099999V0202901N00151220001CN0160001N9+00391+00111102151ADDAY111999GF102991021051017501001001MW1011
0056065900999991953041406004+49617+006200FM-12+038099999V0203601N001019999999N0120001N9+00281+00221102021ADDAY181999GF107991031081004501999999KA1999N+00221MW1251
0043065900999991953041412004+49617+006200FM-12+038099999V0202301N005119999999N0200001N9+00781-00281101701ADDAY121999GF106991041021004501001051MW1021
0056065900999991953041418004+49617+006200FM-12+038099999V0200201N002119999999N0090001N9+00391+00221101651ADDAY181999GF106991041081004501001051KA1999M+00781MW1051
0043065900999991953041500004+49617+006200FM-12+038099999V0203401N00211220001CN0080001N9+00001-00111101741ADDAY121999GF100991001001999999001001MW1051
0056065900999991953041506004+49617+006200FM-12+038099999V0202901N00461001501CN0040001N9-00111-00111101651ADDAY171999GF106991061061001501999999KA1999N-00111MW1051
0043065900999991953041512004+49617+006200FM-12+038099999V0201801N00261004501CN0140001N9+00391-00111101591ADDAY181999GF107991061081004501999999MW1261
0056065900999991953041518004+49617+006200FM-12+038099999V0200201N00571220001CN0160001N9+00501-00281101701ADDAY121999GF103991021081012501001011KA1999M+00721MW1021
0043065900999991953041600004+49617+006200FM-12+038099999V0203201N00311220001CN0080001N9+00281+00001101801ADDAY111999GF104991041051017501001001MW1051
0056065900999991953041606004+49617+006200FM-12+038099999V0203201N003119999999N0030001N9+00281+00221101891ADDAY111999GF106991031051008001999999KA1999N+00221MW1051
0043065900999991953041612004+49617+006200FM-12+038099999V0203401N004619999999N0150001N9+00721+00001101931ADDAY161999GF108991041081004501999999MW1021
0056065900999991953041618004+49617+006200FM-12+038099999V0203101N00261012301CN0110001N9+00611+00221101911ADDAY121999GF107991071051012501999999KA1999M+00721MW1021
0043065900999991953041700004+49617+006200FM-12+038099999V0201801N00051220001CN0060001N9+00391+00221101931ADDAY121999GF100991001001999999001001MW1051
0056065900999991953041706004+49617+006200FM-12+038099999V0201701N00101220001CN0040001N9+00221+00001101891ADDAY101999GF100991001001999999001001KA1999N+00111MW1051
0043065900999991953041712004+49617+006200FM-12+038099999V0201801N00361220001CN0100001N9+01001-00221101711ADDAY111999GF104991031021012501001061MW1021
0056065900999991953041718004+49617+006200FM-12+038099999V0209991V00211220001CN0200001N9+01221+00111101631ADDAY121999GF107991001001999999001081KA1999M+01281MW1021
0043065900999991953041800004+49617+006200FM-12+038099999V0200501N00411220001CN0090001N9+00721+00111101821ADDAY121999GF104991001001999999001061MW1051
0056065900999991953041806004+49617+006200FM-12+038099999V0200401N00621220001CN0050001N9+00611+00221101841ADDAY111999GF104991001001999999001061KA1999N+00501MW1051
0043065900999991953041812004+49617+006200FM-12+038099999V0201001N00821220001CN0140001N9+01721+00001101621ADDAY111999GF103991011011012501041061MW1021
0056065900999991953041818004+49617+006200FM-12+038099999V0200901N00461220001CN0160001N9+01611+00111101551ADDAY111999GF104991001001999999041061KA1999M+01891MW1011
0043065900999991953041900004+49617+006200FM-12+038099999V0200401N00461220001CN0090001N9+01001+00111101801ADDAY111999GF100991001001999999001001MW1051
0056065900999991953041906004+49617+006200FM-12+038099999V0200201N00621220001CN0120001N9+00781+00221101891ADDAY101999GF100991001001999999001001KA1999N+00721MW1001
0043065900999991953041912004+49617+006200FM-12+038099999V0200701N00671220001CN0200001N9+01721+00111101791ADDAY101999GF101991011011017501001001MW1021
0056065900999991953041918004+49617+006200FM-12+038099999V0200501N00621220001CN0160001N9+01721+00111101701ADDAY101999GF101991011011017501001011KA1999M+01891MW1021
0043065900999991953042000004+49617+006200FM-12+038099999V0200401N00821220001CN0120001N9+00891+00501101991ADDAY101999GF100991001001999999001001MW1001
0056065900999991953042006004+49617+006200FM-12+038099999V0200401N00721220001CN0090001N9+00721+00281102051ADDAY101999GF100991001001999999001001KA1999N+00721MW1051
0043065900999991953042012004+49617+006200FM-12+038099999V0200501N00671220001CN0140001N9+01721+00391101841ADDAY101999GF100991001001999999001001MW1001
0056065900999991953042018004+49617+006200FM-12+038099999V0200501N00671220001CN0200001N9+01611+00001101721ADDAY101999GF100991001001999999001001KA1999M+01781MW1001
0043065900999991953042100004+49617+006200FM-12+038099999V0200501N00621220001CN0160001N9+00891+00281101931ADDAY101999GF100991001001999999001001MW1001
0056065900999991953042106004+49617+006200FM-12+038099999V0200401N00721220001CN0100001N9+00721+00111101951ADDAY101999GF100991001001999999001001KA1999N+00611MW1001
0043065900999991953042112004+49617+006200FM-12+038099999V0200201N00621220001CN0160001N9+01611+00221101721ADDAY101999GF100991001001999999001001MW1001
0056065900999991953042118004+49617+006200FM-12+038099999V0200501N00721220001CN0160001N9+01721-00221101551ADDAY101999GF100991001001999999001001KA1999M+01891MW1001
0043065900999991953042200004+49617+006200FM-12+038099999V0200501N00571220001CN0160001N9+00891-00111101711ADDAY101999GF100991001001999999001001MW1001
0056065900999991953042206004+49617+006200FM-12+038099999V0200501N00571220001CN0160001N9+00781-00111101741ADDAY101999GF100991001001999999001001KA1999N+00611MW1001
0043065900999991953042212004+49617+006200FM-12+038099999V0200701N00671220001CN0160001N9+01781-00111101531ADDAY101999GF100991001001999999001001MW1001
0056065900999991953042218004+49617+006200FM-12+038099999V0200501N00571220001CN0200001N9+01721-00111101381ADDAY101999GF100991001001999999001001KA1999M+01891MW1001
0043065900999991953042300004+49617+006200FM-12+038099999V0200401N00411220001CN0160001N9+01001+00001101571ADDAY101999GF100991001001999999001001MW1001
0056065900999991953042306004+49617+006200FM-12+038099999V0200401N00721220001CN0130001N9+00891+00001101511ADDAY101999GF100991001001999999001001KA1999N+00781MW1001
0043065900999991953042312004+49617+006200FM-12+038099999V0200701N00571220001CN0160001N9+01891+00001101291ADDAY101999GF100991001001999999001001MW1001
0056065900999991953042318004+49617+006200FM-12+038099999V0200101N00311220001CN0200001N9+01781+00221101171ADDAY101999GF100991001001999999001001KA1999M+02111MW1001
0043065900999991953042400004+49617+006200FM-12+038099999V0200401N00211220001CN0140001N9+01111+00111101381ADDAY101999GF100991001001999999001001MW1021
0056065900999991953042406004+49617+006200FM-12+038099999V0200401N00261220001CN0100001N9+01001+00281101421ADDAY101999GF101991001001999999001051KA1999N+00891MW1021
0043065900999991953042412004+49617+006200FM-12+038099999V0201601N00101220001CN0140001N9+02001+00281101181ADDAY101999GF102991021011017501041001MW1031
0056065900999991953042418004+49617+006200FM-12+038099999V0200401N00051220001CN0160001N9+01721+00501101071ADDAY111999GF104991041031017501001001KA1999M+02111MW1021
0043065900999991953042500004+49617+006200FM-12+038099999V0203401N00261015001CN0120001N9+01001+00391101251ADDAY111999GF106991061051017501999999MW1031
0056065900999991953042506004+49617+006200FM-12+038099999V0209991C00001220001CN0034001N9+00611+00391101381ADDAY111999GF106991001001999999031061KA1999N+00501MW1051
0043065900999991953042512004+49617+006200FM-12+038099999V0200201N00151007801CN0050001N9+01111+00281101321ADDAY121999GF107991071081008001999999MW1051
0056065900999991953042518004+49617+006200FM-12+038099999V0203401N001519999999N0100001N9+01111+00221101191ADDAY121999GF107991031051012501071999KA1999M+01391MW1051
0043065900999991953042600004+49617+006200FM-12+038099999V0200601N00361220001CN0060001N9+00721+00221101291ADDAY111999GF104991021051012501001061MW1051
0056065900999991953042606004+49617+006200FM-12+038099999V0200401N00211220001CN0050001N9+00501+00221101211ADDAY121999GF100991001001999999001001KA1999N+00501MW1051
0043065900999991953042612004+49617+006200FM-12+038099999V0200801N00621220001CN0080001N9+01611+00281100741ADDAY111999GF104991001001999999001061MW1051
0056065900999991953042618004+49617+006200FM-12+038099999V0200901N00621220001CN0100001N9+01721+00281100201ADDAY111999GF104991001001999999001061KA1999M+01891MW1031
0043065900999991953042700004+49617+006200FM-12+038099999V0202001N001519999999N0090001N9+01221+00501100091ADDAY121999GF108991031051017501011999MW1051
0056065900999991953042706004+49617+006200FM-12+038099999V0200901N001519999999N0070001N9+01111+00501099831ADDAY121999GF107991021051017501031999KA1999N+01001MW1051
0043065900999991953042712004+49617+006200FM-12+038099999V0202301N005119999999N0160001N9+01611+00891099671ADDAY121999GF107991041081008001071999MW1021
0056065900999991953042718004+49617+006200FM-12+038099999V0202501N00511002401CN0030001N9+01001+01001099751ADDAY161999GF108991071071002501999999KA1999M+01611MW1631
0043065900999991953042800004+49617+006200FM-12+038099999V0202301N00821012301CN0090001N9+00781+00721099951ADDAY161999GF107991071051012501999999MW1051
0056065900999991953042806004+49617+006200FM-12+038099999V0202301N00931004501CN0160001N9+00611+00611100101ADDAY181999GF107991071071004501999999KA1999N+00611MW1251
0043065900999991953042812004+49617+006200FM-12+038099999V0202301N00931007801CN0200001N9+00891+00391100261ADDAY181999GF105991051081008001999999MW1251
0056065900999991953042818004+49617+006200FM-12+038099999V0202101N006719999999N0200001N9+00781+00391100511ADDAY181999GF106991041031008001041031KA1999M+01281MW1161
0043065900999991953042900004+49617+006200FM-12+038099999V0202501N00671004501CN0160001N9+00501+00281100781ADDAY181999GF107991061031004501041999MW1021
0056065900999991953042906004+49617+006200FM-12+038099999V0202301N00981004501CN0200001N9+00501+00281101001ADDAY121999GF108991081051004501999999KA1999N+00501MW1021
0043065900999991953042912004+49617+006200FM-12+038099999V0202301N00931004501CN0160001N9+00611+00391101171ADDAY181999GF106991051031004501999999MW1251
0075065900999991953042918004+49617+006200FM-12+038099999V0202501N00511220001CN0160001N9+00721+00281101531ADDAY191999GF104991011081008001001061KA1999M+99999MW1011EQDQ01 +00612ATMX  
0043065900999991953043000004+49617+006200FM-12+038099999V0201801N002619999999N0018001N9+00391+00391101841ADDAY121999GF107991031081008001041999MW1101
0056065900999991953043006004+49617+006200FM-12+038099999V0201801N00511000601CN0020001N9+00391+00391101861ADDAY141999GF107991061061000751999999KA1999N+00281MW1281
0043065900999991953043012004+49617+006200FM-12+038099999V0202101N00821007801CN0200001N9+01281+00391101631ADDAY111999GF106991051081008001001061MW1021
0056065900999991953043018004+49617+006200FM-12+038099999V0201901N005719999999N0200001N9+01501+00501101441ADDAY111999GF105991011051012501001081KA1999M+01611MW1021
0043065900999991953050100004+49617+006200FM-12+038099999V0200901N00311220001CN0100001N9+00891+00501101551ADDAY111999GF102991001001999999001061MW1021
0056065900999991953050106004+49617+006200FM-12+038099999V0200701N00361220001CN0060001N9+00781+00501101471ADDAY111999GF103991001001999999001061KA1999N+00611MW1051
0043065900999991953050112004+49617+006200FM-12+038099999V0201601N00361220001CN0160001N9+01781+00501101291ADDAY111999GF106991001001999999041061MW1021
0056065900999991953050118004+49617+006200FM-12+038099999V0201401N001019999999N0200001N9+01781+00611101221ADDAY121999GF106991021081008001031061KA1999M+01891MW1021
0043065900999991953050200004+49617+006200FM-12+038099999V0201701N001519999999N0120001N9+01281+00611101661ADDAY121999GF107991031051012501011999MW1021
0056065900999991953050206004+49617+006200FM-12+038099999V0200201N00621220001CN0200001N9+01221+00501101831ADDAY111999GF105991001001999999001061KA1999N+00891MW1021
0043065900999991953050212004+49617+006200FM-12+038099999V0200401N00671220001CN0200001N9+01891+00501101831ADDAY121999GF107991001001999999001081MW1021
0056065900999991953050218004+49617+006200FM-12+038099999V0200401N00671220001CN0200001N9+01781+00611101941ADDAY121999GF105991001001999999001061KA1999M+02001MW1021
0043065900999991953050300004+49617+006200FM-12+038099999V0200201N00671220001CN0140001N9+01221+00721102111ADDAY111999GF103991001001999999001061MW1021
0056065900999991953050306004+49617+006200FM-12+038099999V0200401N00771220001CN0160001N9+01281+00721102111ADDAY121999GF106991001001999999031061KA1999N+01221MW1021
0043065900999991953050312004+49617+006200FM-12+038099999V0200501N01131220001CN0160001N9+02111+00221101971ADDAY111999GF102991001001999999001051MW1021
0056065900999991953050318004+49617+006200FM-12+038099999V0200501N00981220001CN0120001N9+02111+00281101931ADDAY101999GF102991011011012501001051KA1999M+02281MW1021
0043065900999991953050400004+49617+006200FM-12+038099999V0200301N00771220001CN0140001N9+01391+00391102161ADDAY101999GF100991001001999999001001MW1001
0056065900999991953050406004+49617+006200FM-12+038099999V0200201N01031220001CN0140001N9+01221+00721102201ADDAY101999GF100991001001999999001001KA1999N+01111MW1001
0043065900999991953050412004+49617+006200FM-12+038099999V0200301N00871220001CN0160001N9+02001+00391102111ADDAY101999GF102991011011017501001051MW1031
0056065900999991953050418004+49617+006200FM-12+038099999V0200101N00821220001CN0200001N9+01501+00611102121ADDAY111999GF102991001001999999001061KA1999M+02111MW1011
0043065900999991953050500004+49617+006200FM-12+038099999V0200201N00981220001CN0060001N9+00781+00611102431ADDAY101999GF100991001001999999001001MW1051
0056065900999991953050506004+49617+006200FM-12+038099999V0200101N00571220001CN0060001N9+00891+00611102451ADDAY111999GF103991001001999999001061KA1999N+00721MW1051
0043065900999991953050512004+49617+006200FM-12+038099999V0203601N007719999999N0200001N9+01721+00721102181ADDAY111999GF105991041011012501001061MW1031
0056065900999991953050518004+49617+006200FM-12+038099999V0203201N006219999999N0200001N9+01391+00781102071ADDAY111999GF105991021011012501041061KA1999M+01891MW1021
0062065900999991953050600004+49617+006200FM-12+038099999V0203201N00621220001CN0160001N9+00891+00221102051ADDAY111999GF103991999001999999031001MW1031EQDQ01+000002SCOTLC
0056065900999991953050606004+49617+006200FM-12+038099999V0203201N00621004501CN0090001N9+00781+00501101831ADDAY121999GF107991061081004501999999KA1999N+00781MW1051
0043065900999991953050612004+49617+006200FM-12+038099999V0203401N00621004501CN0160001N9+00891+00391101821ADDAY121999GF108991061081004501999999MW1021
0056065900999991953050618004+49617+006200FM-12+038099999V0203001N00571012301CN0140001N9+00891+00221101661ADDAY121999GF106991051051012501031999KA1999M+01111MW1021
0043065900999991953050700004+49617+006200FM-12+038099999V0203001N00361012301CN0080001N9+00391+00111101751ADDAY121999GF107991071051012501999999MW1051
0056065900999991953050706004+49617+006200FM-12+038099999V0202901N00361004501CN0060001N9+00391+00111101621ADDAY121999GF108991051051004501071999KA1999N+00391MW1051
0043065900999991953050712004+49617+006200FM-12+038099999V0203401N00771007801CN0160001N9+00721-00111101791ADDAY181999GF107991071081008001999999MW1021
0056065900999991953050718004+49617+006200FM-12+038099999V0200401N00571012301CN0150001N9+00781+00111101911ADDAY181999GF107991071081012501999999KA1999M+01001MW1021
0043065900999991953050800004+49617+006200FM-12+038099999V0200401N00211220001CN0060001N9+00281+00111102021ADDAY121999GF100991001001999999001001MW1051
0056065900999991953050806004+49617+006200FM-12+038099999V0200201N00311220001CN0030001N9+00281+00221101871ADDAY111999GF104991001001999999031061KA1999N+00221MW1051
0043065900999991953050812004+49617+006200FM-12+038099999V0200301N00461007801CN0150001N9+01001-00221101661ADDAY111999GF106991051021008001031061MW1031
0056065900999991953050818004+49617+006200FM-12+038099999V0203301N00511012301CN0200001N9+00781+00111101661ADDAY181999GF106991051021012501031999KA1999M+01221MW1021
0043065900999991953050900004+49617+006200FM-12+038099999V0203401N00211012301CN0060001N9+00501+00221101701ADDAY121999GF108991071051012501999999MW1051
0056065900999991953050906004+49617+006200FM-12+038099999V0203501N00361220001CN0060001N9+00391+00111101651ADDAY121999GF104991021051012501001061KA1999N+00281MW1051
0062065900999991953050912004+49617+006200FM-12+038099999V0203201N007719999999N0200001N9+01001-00221101531ADDAY181999GF105991999081012501001001MW1051EQDQ01+000032SCOTLC
0056065900999991953050918004+49617+006200FM-12+038099999V0203101N00771007801CN0140001N9+00781+00221101361ADDAY181999GF107991071081008001999999KA1999M+01001MW1021
0043065900999991953051000004+49617+006200FM-12+038099999V0202701N00621004501CN0080001N9+00391+00281101131ADDAY161999GF107991071051004501999999MW1211
0056065900999991953051006004+49617+006200FM-12+038099999V0200201N00721220001CN0200001N9+00221-00221101321ADDAY181999GF103991031081004501001001KA1999N+00111MW1011
0043065900999991953051012004+49617+006200FM-12+038099999V0200301N00721220001CN0200001N9+00721-00391101581ADDAY111999GF104991041081012501001001MW1031
0075065900999991953051018004+49617+006200FM-12+038099999V0200301N00411220001CN0200001N9+00781-00501101531ADDAY111999GF103991999081012501001001KA1999M+01001MW1011EQDQ01+000012SCOTLC
0043065900999991953051100004+49617+006200FM-12+038099999V0200501N00261220001CN0160001N9+00281-00221101631ADDAY101999GF100991001001999999001001MW1001
0056065900999991953051106004+49617+006200FM-12+038099999V0200501N00211220001CN0140001N9+00281+00001101551ADDAY101999GF100991001001999999001001KA1999N+00001MW1001
0043065900999991953051112004+49617+006200FM-12+038099999V0200301N00051220001CN0200001N9+01001-00391101421ADDAY111999GF101991011011017501001011MW1011
0056065900999991953051118004+49617+006200FM-12+038099999V0209991V00051220001CN0200001N9+01221-00501101191ADDAY101999GF101991011011017501001001KA1999M+01281MW1021
0043065900999991953051200004+49617+006200FM-12+038099999V0200201N00361220001CN0140001N9+00611-00281101261ADDAY101999GF100991001001999999001001MW1001
0056065900999991953051206004+49617+006200FM-12+038099999V0202701N00051220001CN0050001N9+00391-00221101231ADDAY111999GF104991001001999999031061KA1999N+00221MW1051
0043065900999991953051212004+49617+006200FM-12+038099999V0203201N00511007801CN0160001N9+01001-00281101171ADDAY111999GF106991061051008001999999MW1021
0056065900999991953051218004+49617+006200FM-12+038099999V0203401N00511220001CN0040001N9+00891+00111101131ADDAY111999GF103991031051017501001001KA1999M+01111MW1051
0043065900999991953051300004+49617+006200FM-12+038099999V0203501N00311220001CN0060001N9+00501+00001101211ADDAY111999GF100991001001999999001001MW1051
0075065900999991953051306004+49617+006200FM-12+038099999V0209991C00001220001CN0028001N9+00281+00111101151ADDAY101999GF101991999001999999031001KA1999N+00221MW1051EQDQ01+000002SCOTLC
0043065900999991953051312004+49617+006200FM-12+038099999V0209991V00211220001CN0160001N9+01391-00111100831ADDAY111999GF103991031011012501001001MW1021
0056065900999991953051318004+49617+006200FM-12+038099999V0200401N00621220001CN0160001N9+01391+00281100511ADDAY111999GF106991001001999999071011KA1999M+01611MW1021
0043065900999991953051400004+49617+006200FM-12+038099999V0200501N00621220001CN0100001N9+00721+00391100591ADDAY111999GF103991001001999999071051MW1021
0056065900999991953051406004+49617+006200FM-12+038099999V0200701N00571220001CN0060001N9+00721+00391100501ADDAY111999GF106991001001999999071061KA1999N+00501MW1051
0043065900999991953051412004+49617+006200FM-12+038099999V0202001N00311001501CN0020001N9+01001+01001100591ADDAY161999GF108991071071001501999999MW1621
0056065900999991953051418004+49617+006200FM-12+038099999V0202501N004619999999N0090001N9+01281+00891100981ADDAY161999GF105991021081008001031001KA1999M+01281MW1051
0062065900999991953051500004+49617+006200FM-12+038099999V0202001N00211220001CN0090001N9+00891+00781101391ADDAY111999GF101991999001999999031001MW1051EQDQ01+000002SCOTLC
0056065900999991953051506004+49617+006200FM-12+038099999V0201601N002119999999N0046001N9+00781+00781101591ADDAY111999GF106991021051012501031061KA1999N+00721MW1051
0043065900999991953051512004+49617+006200FM-12+038099999V0202201N007219999999N0160001N9+01391+01001101631ADDAY121999GF108991041081008001021999MW1021
0056065900999991953051518004+49617+006200FM-12+038099999V0201801N007219999999N0200001N9+01891+01001101381ADDAY121999GF107991031021008001021061KA1999M+02001MW1021
0043065900999991953051600004+49617+006200FM-12+038099999V0201601N00411220001CN0140001N9+01391+01001101571ADDAY121999GF105991001001999999031061MW1021
0056065900999991953051606004+49617+006200FM-12+038099999V0201401N00511220001CN0140001N9+01281+01001101511ADDAY111999GF103991001001999999001021KA1999N+01111MW1021
0043065900999991953051612004+49617+006200FM-12+038099999V0201801N008219999999N0160001N9+02501+00721101251ADDAY111999GF106991021021008001031061MW1021
0056065900999991953051618004+49617+006200FM-12+038099999V0202301N010319999999N0200001N9+02391+00891101221ADDAY111999GF106991041031008001001031KA1999M+02721MW1031
0043065900999991953051700004+49617+006200FM-12+038099999V0201801N00051220001CN0100001N9+01391+01281101631ADDAY191999GF100991001001999999001001MW1051
0056065900999991953051706004+49617+006200FM-12+038099999V0202501N00361012301CN0050001N9+01391+01221101761ADDAY161999GF107991061051012501021999KA1999N+01281MW1601
0043065900999991953051712004+49617+006200FM-12+038099999V0202301N00771007801CN0160001N9+01781+01281101911ADDAY161999GF107991061031008001999999MW1021
0056065900999991953051718004+49617+006200FM-12+038099999V0202701N00211220001CN0200001N9+01891+01221101951ADDAY121999GF103991011011008001071011KA1999M+02001MW1021
0043065900999991953051800004+49617+006200FM-12+038099999V0200201N00361220001CN0200001N9+01391+01001102181ADDAY111999GF102991011041012501001011MW1021
0056065900999991953051806004+49617+006200FM-12+038099999V0200501N00671220001CN0160001N9+01391+00891102011ADDAY111999GF102991011051012501001011KA1999N+01281MW1021
0043065900999991953051812004+49617+006200FM-12+038099999V0209991V002619999999N0140001N9+02281+01391101621ADDAY121999GF106991031051017501031061MW1021
0056065900999991953051818004+49617+006200FM-12+038099999V0202301N004619999999N0200001N9+02281+01001101511ADDAY121999GF107991031051017501071011KA1999M+02721MW1021
0043065900999991953051900004+49617+006200FM-12+038099999V0209991V00101220001CN0090001N9+01721+01111101751ADDAY121999GF101991001001999999001051MW1051
0056065900999991953051906004+49617+006200FM-12+038099999V0200401N003119999999N0080001N9+01611+01221101871ADDAY111999GF105991021051017501031061KA1999N+01281MW1051
0043065900999991953051912004+49617+006200FM-12+038099999V0201601N00671220001CN0200001N9+02611+00611101761ADDAY121999GF104991001001999999031061MW1021
0056065900999991953051918004+49617+006200FM-12+038099999V0202901N004619999999N0200001N9+02111+01221101841ADDAY111999GF106991011021012501031031KA1999M+02721MW1021
0043065900999991953052000004+49617+006200FM-12+038099999V0203201N00151220001CN0100001N9+01501+01221102221ADDAY111999GF105991001001999999041011MW1021
0056065900999991953052006004+49617+006200FM-12+038099999V0200201N005119999999N0036001N9+01391+01281102291ADDAY121999GF107991041081012501021061KA1999N+01281MW1051
0043065900999991953052012004+49617+006200FM-12+038099999V0200401N00571220001CN0080001N9+01891+01281102161ADDAY121999GF103991031081012501001001MW1051
0075065900999991953052018004+49617+006200FM-12+038099999V0200401N00621220001CN0160001N9+02221+01221101841ADDAY111999GF102991999001999999031001KA1999M+02281MW1021EQDQ01+000002SCOTLC
0043065900999991953052100004+49617+006200FM-12+038099999V0200201N00721220001CN0080001N9+01721+01111101941ADDAY101999GF100991001001999999001001MW1051
0075065900999991953052106004+49617+006200FM-12+038099999V0200401N00461220001CN0030001N9+01501+01281101831ADDAY111999GF101991999001999999031001KA1999N+01391MW1051EQDQ01+000002SCOTLC
0043065900999991953052112004+49617+006200FM-12+038099999V0200701N00411220001CN0090001N9+02611+01611101581ADDAY101999GF101991011011012501001011MW1051
0056065900999991953052118004+49617+006200FM-12+038099999V0200101N00311220001CN0100001N9+02221+01391101431ADDAY121999GF102991001001999999031011KA1999M+02721MW1011
0043065900999991953052200004+49617+006200FM-12+038099999V0200201N00461007801CN0080001N9+01781+01391101531ADDAY121999GF107991051051008001021999MW1051
0056065900999991953052206004+49617+006200FM-12+038099999V0203601N005719999999N0040001N9+01611+01281101651ADDAY121999GF108991041031008001999999KA1999N+01501MW1171
0043065900999991953052212004+49617+006200FM-12+038099999V0200201N00671220001CN0160001N9+02111+01221101621ADDAY121999GF104991001001999999001061MW1021
0056065900999991953052218004+49617+006200FM-12+038099999V0200201N003619999999N0200001N9+02111+01111101621ADDAY111999GF106991021051012501001061KA1999M+02391MW1021
0043065900999991953052300004+49617+006200FM-12+038099999V0200201N00311220001CN0140001N9+01611+01221101931ADDAY111999GF105991001001999999031061MW1031
0056065900999991953052306004+49617+006200FM-12+038099999V0200101N00101015001CN0140001N9+01721+01281101981ADDAY121999GF106991051051017501031011KA1999N+01281MW1021
0043065900999991953052312004+49617+006200FM-12+038099999V0200401N002119999999N0200001N9+02391+01001102051ADDAY111999GF105991031081012501031061MW1021
0056065900999991953052318004+49617+006200FM-12+038099999V0203401N00211220001CN0200001N9+02391+01221102021ADDAY111999GF102991011041017501031011KA1999M+02501MW1011
0043065900999991953052400004+49617+006200FM-12+038099999V0200201N00361220001CN0140001N9+01781+01221102231ADDAY101999GF100991001001999999001001MW1001
0056065900999991953052406004+49617+006200FM-12+038099999V0200501N00621220001CN0100001N9+01781+01281102261ADDAY101999GF101991001001999999001011KA1999N+01611MW1021
0043065900999991953052412004+49617+006200FM-12+038099999V0200501N00621220001CN0160001N9+02721+01221102151ADDAY101999GF102991011011017501001011MW1021
0056065900999991953052418004+49617+006200FM-12+038099999V0200901N00511220001CN0200001N9+02611+01281102021ADDAY111999GF102991011011017501001061KA1999M+02781MW1021
0043065900999991953052500004+49617+006200FM-12+038099999V0200501N00671220001CN0140001N9+02001+01391102241ADDAY101999GF100991001001999999001001MW1001
0056065900999991953052506004+49617+006200FM-12+038099999V0200501N00571220001CN0120001N9+01781+01391102331ADDAY101999GF100991001001999999001001KA1999N+01721MW1001
0043065900999991953052512004+49617+006200FM-12+038099999V0200701N00511220001CN0120001N9+02721+01391102141ADDAY111999GF103991031011017501001001MW1031
0056065900999991953052518004+49617+006200FM-12+038099999V0200901N00261220001CN0130001N9+02721+01391101951ADDAY111999GF101991001001999999001011KA1999M+02891MW1021
0043065900999991953052600004+49617+006200FM-12+038099999V0200401N00211220001CN0090001N9+02001+01391102141ADDAY101999GF100991001001999999001001MW1051
0056065900999991953052606004+49617+006200FM-12+038099999V0200501N00101220001CN0060001N9+02001+01391102061ADDAY111999GF101991001001999999001051KA1999N+01721MW1051
0043065900999991953052612004+49617+006200FM-12+038099999V0202701N00821220001CN0160001N9+02781+01221101901ADDAY111999GF103991031021017501001001MW1021
0056065900999991953052618004+49617+006200FM-12+038099999V0203101N00771220001CN0200001N9+01781+01111102331ADDAY111999GF103991021011017501031001KA1999M+02781MW1021
0043065900999991953052700004+49617+006200FM-12+038099999V0203401N00361220001CN0140001N9+01001+00781102711ADDAY111999GF102991001001999999001061MW1021
0056065900999991953052706004+49617+006200FM-12+038099999V0202901N00151220001CN0060001N9+01111+00721102531ADDAY111999GF104991001001999999031061KA1999N+00781MW1051
0043065900999991953052712004+49617+006200FM-12+038099999V0202601N00771004501CN0160001N9+01221+01111102181ADDAY161999GF108991071081004501999999MW1611
0056065900999991953052718004+49617+006200FM-12+038099999V0202701N00461001501CN0028001N9+01281+01221101651ADDAY161999GF108991071071001501999999KA1999M+01391MW1611
0043065900999991953052800004+49617+006200FM-12+038099999V0200201N004119999999N0140001N9+01001+00891101511ADDAY181999GF108991041081004501999999MW1801
0056065900999991953052806004+49617+006200FM-12+038099999V0203601N00411004501CN0080001N9+00781+00721101991ADDAY121999GF107991051051004501999999KA1999N+00721MW1051
0043065900999991953052812004+49617+006200FM-12+038099999V0203401N00511007801CN0200001N9+01001+00391102331ADDAY181999GF107991061081008001999999MW1021
0056065900999991953052818004+49617+006200FM-12+038099999V0203601N00511007801CN0160001N9+01001+00221102531ADDAY121999GF107991061081008001999999KA1999M+01221MW1021
0043065900999991953052900004+49617+006200FM-12+038099999V0203401N00511007801CN0120001N9+00721+00391102691ADDAY121999GF108991071051008001999999MW1021
0056065900999991953052906004+49617+006200FM-12+038099999V0200301N00211220001CN0080001N9+00501+00221102591ADDAY121999GF104991031051008001001051KA1999N+00391MW1051
0043065900999991953052912004+49617+006200FM-12+038099999V0202301N002119999999N0120001N9+01111+00281102331ADDAY111999GF106991021021012501041061MW1031
0056065900999991953052918004+49617+006200FM-12+038099999V0202701N00621015001CN0080001N9+01221+00611101871ADDAY161999GF108991071051017501021999KA1999M+01391MW1601
0043065900999991953053000004+49617+006200FM-12+038099999V0202901N00461001501CN0050001N9+01001+01001101611ADDAY161999GF108991081061001501999999MW1211
0056065900999991953053006004+49617+006200FM-12+038099999V0202701N00621002401CN0060001N9+01001+00891101271ADDAY121999GF108991081071002501999999KA1999N+01001MW1051
0043065900999991953053012004+49617+006200FM-12+038099999V0202501N006719999999N0080001N9+00781+00721101061ADDAY161999GF107991031031004501999999MW1611
0056065900999991953053018004+49617+006200FM-12+038099999V0202801N007219999999N0200001N9+00891+00391100861ADDAY181999GF107991031031004501031031KA1999M+01111MW1021
0043065900999991953053100004+49617+006200FM-12+038099999V0203401N00361007801CN0160001N9+00501+00281101061ADDAY181999GF106991051081008001999999MW1021
0056065900999991953053106004+49617+006200FM-12+038099999V0203201N00261007801CN0100001N9+00611+00391101071ADDAY111999GF106991061051008001999999KA1999N+00391MW1021
0043065900999991953053112004+49617+006200FM-12+038099999V0202901N00621007801CN0160001N9+00891+00391101071ADDAY181999GF108991051081008001021999MW1801
0056065900999991953053118004+49617+006200FM-12+038099999V0202501N00721002401CN0140001N9+00781+00721101061ADDAY181999GF107991051061002501999999KA1999M+01001MW1251
0043065900999991953060100004+49617+006200FM-12+038099999V0202701N006219999999N0110001N9+00721+00501100981ADDAY121999GF108991031051008001999999MW1021
0056065900999991953060106004+49617+006200FM-12+038099999V0202601N00571002401CN0070001N9+00721+00611100831ADDAY121999GF107991061061002501999999KA1999N+00611MW1051
0043065900999991953060112004+49617+006200FM-12+038099999V0202301N01341002401CN0060001N9+01111+00611100451ADDAY181999GF108991071031002501999999MW1811
0043065900999991953060118004+49617+006200FM-12+038099999V0202601N006219999999N0160001N9+00891+00391100181ADDAY181999GF105991041081004501031001MW1021
0043065900999991953060200004+49617+006200FM-12+038099999V0202501N00311004501CN0140001N9+00501+00391100241ADDAY121999GF106991061061004501999999MW1021
0056065900999991953060206004+49617+006200FM-12+038099999V0202301N00411001501CN0030001N9+00501+00501100101ADDAY161999GF107991051061001501999999KA1999N+00391MW1211
0043065900999991953060212004+49617+006200FM-12+038099999V0202501N00571004501CN0200001N9+00501+00281100071ADDAY181999GF106991051081004501999999MW1021
0056065900999991953060218004+49617+006200FM-12+038099999V0202501N00821004501CN0120001N9+00721+00391100021ADDAY181999GF108991051081004501999999KA1999M+00891MW1251
0043065900999991953060300004+49617+006200FM-12+038099999V0202501N00771002401CN0140001N9+00611+00391100071ADDAY181999GF108991081061002501999999MW1021
0056065900999991953060306004+49617+006200FM-12+038099999V0202501N00621002401CN0120001N9+00721+00391100111ADDAY161999GF107991071081002501999999KA1999N+00611MW1021
0043065900999991953060312004+49617+006200FM-12+038099999V0202301N00821004501CN0120001N9+00781+00611100241ADDAY181999GF106991051081004501999999MW1251
0056065900999991953060318004+49617+006200FM-12+038099999V0202001N00461007801CN0090001N9+00891+00611100371ADDAY121999GF106991051081008001999999KA1999M+00891MW1051
0043065900999991953060400004+49617+006200FM-12+038099999V0202001N00261001501CN0070001N9+00611+00611100671ADDAY121999GF108991081061001501999999MW1051
0056065900999991953060406004+49617+006200FM-12+038099999V0202401N002119999999N0050001N9+00721+00611100861ADDAY121999GF108991031081004501999999KA1999N+00501MW1051
0043065900999991953060412004+49617+006200FM-12+038099999V0202301N00461007801CN0120001N9+01221+00391101001ADDAY161999GF106991051081008001001061MW1021
0056065900999991953060418004+49617+006200FM-12+038099999V0201801N00211220001CN0200001N9+01221+00501101141ADDAY181999GF103991021091012501031031KA1999M+01281MW1011
0043065900999991953060500004+49617+006200FM-12+038099999V0209991C00001220001CN0120001N9+00611+00501101461ADDAY111999GF101991001001999999001011MW1021
0056065900999991953060506004+49617+006200FM-12+038099999V0200701N00101220001CN0030001N9+00891+00721101501ADDAY101999GF101991001001999999001011KA1999N+00501MW1051
0043065900999991953060512004+49617+006200FM-12+038099999V0200201N003119999999N0200001N9+01611+00391101471ADDAY111999GF105991041021008001001051MW1021
0056065900999991953060518004+49617+006200FM-12+038099999V0209991V00151220001CN0200001N9+01781+00281101341ADDAY111999GF104991021021017501001061KA1999M+01891MW1021
0043065900999991953060600004+49617+006200FM-12+038099999V0200201N00771220001CN0100001N9+01001+00721101621ADDAY111999GF100991001001999999001001MW1001
0056065900999991953060606004+49617+006200FM-12+038099999V0200301N00981220001CN0050001N9+01001+00721101701ADDAY101999GF101991001001999999001011KA1999N+00781MW1051
0043065900999991953060612004+49617+006200FM-12+038099999V0200401N00931220001CN0200001N9+02001+00611101501ADDAY111999GF103991021011012501001041MW1031
0056065900999991953060618004+49617+006200FM-12+038099999V0200201N00931220001CN0080001N9+01781+00781101461ADDAY111999GF100991001001999999001001KA1999M+02111MW1051
0043065900999991953060700004+49617+006200FM-12+038099999V0200301N00981220001CN0050001N9+01221+00721101531ADDAY101999GF101991001001999999001011MW1051
0056065900999991953060706004+49617+006200FM-12+038099999V0200401N009819999999N0060001N9+01111+00781101431ADDAY111999GF105991011051017501041061KA1999N+01111MW1051
0043065900999991953060712004+49617+006200FM-12+038099999V0200201N00621220001CN0090001N9+02221+01111101211ADDAY111999GF104991021021012501001061MW1051
0056065900999991953060718004+49617+006200FM-12+038099999V0200201N00101220001CN0160001N9+02221+01111101271ADDAY161999GF103991011021012501031001KA1999M+02391MW1011
0043065900999991953060800004+49617+006200FM-12+038099999V0200201N00621220001CN0080001N9+01391+01221101431ADDAY111999GF100991001001999999001001MW1051
0056065900999991953060806004+49617+006200FM-12+038099999V0200201N008219999999N0050001N9+01501+01221101261ADDAY121999GF107991021051017501071999KA1999N+01281MW1051
0043065900999991953060812004+49617+006200FM-12+038099999V0200301N00821220001CN0120001N9+02221+01281100991ADDAY181999GF103991011021017501031001MW1011
0056065900999991953060818004+49617+006200FM-12+038099999V0200401N00671220001CN0050001N9+02001+01391100891ADDAY121999GF107991001001999999031061KA1999M+02391MW1051
0043065900999991953060900004+49617+006200FM-12+038099999V0200201N00821220001CN0060001N9+01611+01391100791ADDAY121999GF105991001001999999001061MW1051
0056065900999991953060906004+49617+006200FM-12+038099999V0200201N007219999999N0050001N9+01501+01281100581ADDAY111999GF106991041061002501001061KA1999N+01501MW1051
0043065900999991953060912004+49617+006200FM-12+038099999V0203601N00821004501CN0060001N9+01781+01501100491ADDAY121999GF108991081051004501999999MW1051
0056065900999991953060918004+49617+006200FM-12+038099999V0203601N00981004501CN0050001N9+01721+01281100521ADDAY181999GF108991071051004501021999KA1999M+02001MW1021
0043065900999991953061000004+49617+006200FM-12+038099999V0203201N00511002401CN0060001N9+01391+01391100661ADDAY181999GF108991071071002501999999MW1621
0056065900999991953061006004+49617+006200FM-12+038099999V0203401N00621001501CN0120001N9+01221+01221100781ADDAY161999GF108991071071001501999999KA1999N+01221MW1211
0043065900999991953061012004+49617+006200FM-12+038099999V0203401N00511004501CN0200001N9+01281+01111100951ADDAY121999GF108991081051004501999999MW1021
