0128065900999991996010100004+49617+006217SY-MT+0379ELLX V0201001N00101999999CN0006001N1+00031+00021100261ADDAA106000191AG10000ED199U16009MA1100001095671MD1210111+9999OA149900311REMSYN017 333 91106 91205;MET005NEW ;EQDQ01+000000PRSWM2
0117065900999991996010101004+49617+006217SY-MT+0379ELLX V0200601N00151999999CN0002001N1+00021+00011100251ADDAG10999ED199U07009MA1100001095661MD1010071+9999OA149900261REMSYN017 333 91105 91204;MET005NEW ;EQDQ01+000000PRSWM2
0117065900999991996010102004+49617+006217SY-MT+0379ELLX V0200401N00101999999CN0002001N1+00041+00031100311ADDAG10999ED199U07009MA1100101095721MD1310091+9999OA149900211REMSYN017 333 91104 91203;MET005NEW ;EQDQ01+000000PRSWM2
0160065900999991996010103004+49617+006217SY-MT+0379ELLX V0201001N00101999999CN0006001N1+00031+00021100261ADDAA106000191AG10000ED199U07009MA1100101095751MD1210111+9999OA149900311REMSYN017 333 91106 91205;MET005NEW ;EQDQ01+096703APOSP Q02+999990APOSP Q03+000000PRSWM2
0117065900999991996010104004+49617+006217SY-MT+0379ELLX V0200801N00151999999CN0001001N1+00031+00021100351ADDAG10999ED199U04509MA1100101095751MD1210091+9999OA149900261REMSYN017 333 91105 91205;MET005NEW ;EQDQ01+000000PRSWM2
0126065900999991996010107204+49617+006217FM-15+0379ELLX V0201101N00101000301CN0002001N1+00001+00001100351ADDAG10999ED199U07509GA1071+000309999GA2081+000609999MA1100101095751MW1441REMMET008NEW NOSIEQDQ01+999990APOSP Q02+999990APOSLP
0179065900999991996010108004+49617+006217SY-MT+0379ELLX V0200901N00051000301CN0002001N1+00041+00031100411ADDAG10999AY141051AY241051ED199U07509GA1071+000309999GA2081+000609999GF108991081061000251999999MA1100201095811MW1441OA149900211REMSYN029 333 85701 88702 91104 91202;MET008NEW NOSI
0179065900999991996010109004+49617+006217SY-MT+0379ELLX V0200801N00151000301CN0001001N1+00041+00041100391ADDAG10000AY141031AY241031ED199U03259GA1071+000309999GA2081+000609999GF108991081061000251999999MA1100101095791MW1441OA149900211REMSYN029 333 85701 88702 91104 91203;MET008NEW NOSI
0182065900999991996010110004+49617+006217SY-MT+0379ELLX V0200801N00151000901CN0006001N1+00071+00071100391ADDAG10999AY141011AY241011ED199U13009GA1021+000309999GA2081+000909999GF108991081061000251999999MA1100101095801MW1421MW2441OA149900261REMSYN029 333 83701 88703 91105 91204;MET005NEW ;
0188065900999991996010111004+49617+006217SY-MT+0379ELLX V0200801N00211000601CN0002001N1+00121+00121100371ADDAG10999AY141021AY241021GA1021+000309999GA2081+000609999GF108991081061000251999999MA1100101095791MD1810021+9999MW1441MW2461OA149900311REMSYN029 333 83701 88702 91106 91204;MET008NEW NOSI
0110065900999991996010112204+49617+006217FM-15+0379ELLX V0200901N00211000301CN0001001N1+00101+00101100331ADDAG10000ED199U01759GA1081+000309999MA1100101095751MW1441REMMET008NEW NOSIEQDQ01+999990APOSP Q02+999990APOSLP
0182065900999991996010113004+49617+006217SY-MT+0379ELLX V0200801N00151000301CN0001001N1+00151+00151100301ADDAG10999AY141011AY241011ED199U01759GA1081+000309999GF108991081061000251999999MA1100101095731MD1810071+9999MW1441OA149900361REMSYN023 333 88701 91107 91205;MET019NEW NOSIG 06CLRD//;
0171065900999991996010114004+49617+006217SY-MT+0379ELLX V0200601N00261000301CN0001001N1+00171+00171100271ADDAG10999AY141021AY241021ED199U01759GA1081+000309999GF108991081061000251999999MA1100001095701MD1710091+9999MW1441OA149900411REMSYN023 333 88701 91108 91206;MET008NEW NOSI
0171065900999991996010115004+49617+006217SY-MT+0379ELLX V0200601N00211000301CN0001001N1+00161+00161100321ADDAG10000AY141031AY241031ED199U02009GA1081+000309999GF108991081061000251999999MA1100101095751MD1310011+9999MW1441OA149900411REMSYN023 333 88701 91108 91206;MET008NEW NOSI
0171065900999991996010116004+49617+006217SY-MT+0379ELLX V0200601N00261000301CN0001001N1+00141+00141100351ADDAG10999AY141011AY241011ED199U03759GA1081+000309999GF108991081061000251999999MA1100101095771MD1310041+9999MW1441OA149900461REMSYN023 333 88701 91109 91206;MET008NEW NOSI
0171065900999991996010117004+49617+006217SY-MT+0379ELLX V0200701N00311000301CN0001001N1+00111+00111100351ADDAG10999AY141021AY241021ED199U02509GA1081+000309999GF108991081061000251999999MA1100101095771MD1110071+9999MW1441OA149900461REMSYN023 333 88701 91109 91207;MET008NEW NOSI
0201065900999991996010118004+49617+006217SY-MT+0379ELLX V0200501N00411000301CN0001001N1+00111+00111100331ADDAA106000091AG10000AY141061AY241061ED199U02259GA1081+000309999GF108991081061000251999999KA1120M+00181MA1100101095751MD1010001+9999MW1441OA149900671REMSYN029 333 10018 88701 91113 91209;MET008NEW NOSI
0171065900999991996010119004+49617+006217SY-MT+0379ELLX V0200701N00211000301CN0001001N1+00091+00091100391ADDAG10999AY141011AY241011ED199U02259GA1081+000309999GF108991081061000251999999MA1100101095801MD1310031+9999MW1441OA149900511REMSYN023 333 88701 91110 91207;MET008NEW NOSI
0171065900999991996010120004+49617+006217SY-MT+0379ELLX V0200501N00311000301CN0001001N1+00091+00091100411ADDAG10999AY141021AY241021ED199U02009GA1081+000309999GF108991081061000251999999MA1100201095821MD1310051+9999MW1441OA149900411REMSYN023 333 88701 91108 91207;MET008NEW NOSI
0171065900999991996010121004+49617+006217SY-MT+0379ELLX V0200501N00311000301CN0001001N1+00071+00071100411ADDAG10000AY141031AY241031ED199U02009GA1081+000309999GF108991081061000251999999MA1100201095821MD1110071+9999MW1441OA149900511REMSYN023 333 88701 91110 91207;MET008NEW NOSI
0171065900999991996010122004+49617+006217SY-MT+0379ELLX V0200601N00411000301CN0001001N1+00031+00031100421ADDAG10999AY141011AY241011ED199U02509GA1081+000309999GF108991081061000251999999MA1100201095821MD1110021+9999MW1441OA149900511REMSYN023 333 88701 91110 91208;MET008NEW NOSI
0204065900999991996010200004+49617+006217SY-MT+0379ELLX V0200601N00511000301CN0010001N1-00031-00041100451ADDAA106000091AG10000AY141061AY221061ED199U18009GA1071+000309999GA2071+000609999GF108991081061000251999999MA1100201095841MD1710021+9999MW1101OA149900671REMSYN029 333 85701 87702 91113 91210;MET008NEW NOSI
0103065900999991996010201004+49617+006217SY-MT+0379ELLX V0200701N00461999999CN0004001N1-00051-00061100501ADDAG10999ED199U12009MA1100201095881OA149900721REMSYN017 333 91114 91211;MET005NEW ;EQDQ01+000000PRSWM2
0103065900999991996010202004+49617+006217SY-MT+0379ELLX V0200701N00361999999CN0006001N1-00051-00061100561ADDAG10999ED199U12009MA1100311095941OA149900511REMSYN017 333 91110 91209;MET005NEW ;EQDQ01+000000PRSWM2
0171065900999991996010203004+49617+006217SY-MT+0379ELLX V0200601N00411000601CN0011001N1-00051-00061100561ADDAG10000AY121031AY221031ED199U18009GA1071+000609999GF108991081061000751999999MA1100311095941MD1110101+9999MW1101OA149900721REMSYN023 333 87702 91114 91211;MET008NEW NOSI
0171065900999991996010204004+49617+006217SY-MT+0379ELLX V0200601N00571000601CN0006001N1-00061-00071100581ADDAG10999AY121011AY221011ED199U07009GA1071+000609999GF108991081061000751999999MA1100311095961MD1310081+9999MW1481OA149900721REMSYN023 333 87702 91114 91211;MET008NEW NOSI
0171065900999991996010205004+49617+006217SY-MT+0379ELLX V0200501N00511000301CN0003001N1-00061-00071100611ADDAG10999AY141021AY241021ED199U17009GA1081+000309999GF108991081061000251999999MA1100311095991MD1310051+9999MW1481OA149900721REMSYN023 333 88701 91114 91211;MET008NEW NOSI
0236065900999991996010206004+49617+006217SY-MT+0379ELLX V0200601N00461000301CN0007001N1-00061-00071100651ADDAA106000091AG10000AY141061AY221061GA1071+000309999GA2081+000609999GF108991081061000251999999IA1149IA2999-00109KA1120N-00071MA1100411096031MD1210091+9999MW1481OA149900771REMSYN041 333 21007 34101 86701 88702 91115 91212;MET008NEW NOSI
0168065900999991996010207004+49617+006217SY-MT+0379ELLX V0200701N00511000301CN0005001N1-00081-00091100721ADDAG10999AY141011AY241011ED199U07009GA1081+000309999GF108991081061000251999999MA1100511096091MD1210131+9999MW1481OA149900621REMSYN023 333 88701 91112 91210;MET005NEW ;
0171065900999991996010208004+49617+006217SY-MT+0379ELLX V0200801N00261000301CN0003001N1-00081-00091100811ADDAG10999AY141021AY241021ED199U06509GA1081+000309999GF108991081061000251999999MA1100511096171MD1210191+9999MW1481OA149900461REMSYN023 333 88701 91109 91208;MET008NEW NOSI
0171065900999991996010209004+49617+006217SY-MT+0379ELLX V0200901N00261000301CN0002001N1-00091-00091100911ADDAG10000AY141031AY241031ED199U05509GA1081+000309999GF108991081061000251999999MA1100611096271MD1210241+9999MW1481OA149900461REMSYN023 333 88701 91109 91208;MET008NEW NOSI
0171065900999991996010210004+49617+006217SY-MT+0379ELLX V0200601N00361000301CN0001001N1-00111-00111101001ADDAG10999AY141011AY241011ED199U03009GA1081+000309999GF108991081061000251999999MA1100711096351MD1210261+9999MW1481OA149900511REMSYN023 333 88701 91110 91208;MET008NEW NOSI
0171065900999991996010211004+49617+006217SY-MT+0379ELLX V0200501N00311000301CN0001001N1-00081-00081101071ADDAG10999AY141021AY241021ED199U02509GA1081+000309999GF108991081061000251999999MA1100811096421MD1210251+9999MW1481OA149900821REMSYN023 333 88701 91116 91208;MET008NEW NOSI
0182065900999991996010212004+49617+006217SY-MT+0379ELLX V0200401N00361000301CN0001001N1-00101-00101101131ADDAA106000091AG10000AY141061AY241061ED199U02509GA1081+000309999GF108991081061000251999999MA1100911096481MD1210211+9999MW1481OA149900821REMSYN023 333 88701 91116 91208;MET008NEW NOSI
0157065900999991996010213004+49617+006217SY-MT+0379ELLX V0200301N00261000301CN0003001N1-00071-00071101181ADDAG10999AY141011AY241011GA1081+000309999GF108991081061000251999999MA1100911096531MD1210181+9999MW1481OA149900411REMSYN023 333 88701 91108 91206;MET005NEW ;
0193065900999991996010214004+49617+006217SY-MT+0379ELLX V0200301N00211000301CN0002001N1-00081-00081101271ADDAG10999AY141021AY241021ED199U07009GA1071+000309999GA2081+000909999GF108991081061000251999999MA1101021096611MD1210191+9999MW1481OA149900411REMSYN029 333 86701 88703 91108 91206;MET008NEW NOSI
0182065900999991996010215004+49617+006217SY-MT+0379ELLX V0203601N00151000301CN0006001N1-00061-00061101371ADDAG10000AY141031AY241031GA1071+000309999GA2081+000909999GF108991081061000251999999MA1101081096711MD1210231+9999MW1481OA149900411REMSYN029 333 85701 88703 91108 91206;MET008NEW NOSI
0184065900999991996010216004+49617+006217SY-MT+0379ELLX V0200401N00151018001CN0014001N1-00041-00041101481ADDAG10999AY121011AY221011ED199U20009GA1071+018009999GF107991061051017501031999MA1101191096821MD1210291+9999MW1101MW2281OA149900261REMSYN023 333 86656 91105 91203;MET015NEW BECMG 5000;
0167065900999991996010217004+49617+006217SY-MT+0379ELLX V0200701N00101018001CN0018001N1-00041-00101101561ADDAG10999AY121021AY221021GA1071+018009999GF107991061051017501031999MA1101291096901MD1210291+9999MW1101OA149900261REMSYN023 333 86656 91105 91203;MET015NEW BECMG 8000;
0216065900999991996010218004+49617+006217SY-MT+0379ELLX V0200901N00101018001CN0035001N1-00061-00121101661ADDAA106000091AG10000AY141061AY221061GA1071+018009999GF107991061051017501031999KA1120M-00021MA1101391096991MD1210281+9999MW1101OA149900411REMSYN029 333 11002 86656 91108 91206;MET015NEW BECMG 8000;EQDQ01+000000PRSWM2
0186065900999991996010219004+49617+006217SY-MT+0379ELLX V0209991C00001018001CN0026001N1-00071-00131101771ADDAG10999AY121011AY221011GA1071+018009999GF107991061051017501031999MA1101491097091MD1210281+9999MW1101OA149900311REMSYN023 333 86656 91106 91203;MET015NEW BECMG 8000;EQDQ01+000000PRSWM2
0160065900999991996010220004+49617+006217SY-MT+0379ELLX V0209991C00001018001CN0037001N1-00051-00111101891ADDAG10999AY121021AY221021GA1071+018009999GF107991061051017501999999MA1101591097211MD1210311+9999MW1101OA149900101REMSYN023 333 86656 91102 91201;MET008NEW NOSI
0160065900999991996010221004+49617+006217SY-MT+0379ELLX V0202201N00151018001CN0020001N1-00071-00101101961ADDAG10000AY121031AY221031GA1071+018009999GF107991061051017501999999MA1101691097271MD1210281+9999MW1101OA149900311REMSYN023 333 86656 91106 91203;MET008NEW NOSI
0171065900999991996010222004+49617+006217SY-MT+0379ELLX V0202501N00151220001CN0013001N1-00081-00111102001ADDAG10999AY111011AY211011ED199U20009GA1021+018009999GF104991041051017501001001MA1101691097311MD1210221+9999MW1101OA149900211REMSYN023 333 84656 91104 91203;MET008NEW NOSI
0160065900999991996010223004+49617+006217SY-MT+0379ELLX V0201901N00051220001CN0002001N1-00201-00231102061ADDAG10999AY101021AY201021GA1021+000909999GF104991041061000751001001MA1101801097351MD1210151+9999MW1481OA149900261REMSYN023 333 84703 91105 91204;MET008NEW NOSI
0201065900999991996010300004+49617+006217SY-MT+0379ELLX V0203001N00051000901CN0000001N1-00201-00231102171ADDAA106000091AG10000AY141061AY241061ED199U02259GA1071+000909999GF199999061061000751999999MA1101901097451MD1210181+9999MW1481OA149900311REMSYN023 333 86603 91106 91204;MET008NEW NOSIEQDQ01+000062SCOTCV
0106065900999991996010301004+49617+006217SY-MT+0379ELLX V0202201N00051999999CN0000001N1-00301-00331102171ADDAG10999MA1101801097431MD1010121+9999OA149900211REMSYN017 333 91104 91203;MET005NEW ;EQDQ01+000000PRSWM2
0117065900999991996010302004+49617+006217SY-MT+0379ELLX V0202101N00101999999CN0000001N1-00301-00331102241ADDAG10999ED199U02259MA1101901097501MD1310151+9999OA149900151REMSYN017 333 91103 91202;MET005NEW ;EQDQ01+000000PRSWM2
0212065900999991996010303004+49617+006217SY-MT+0379ELLX V0202101N00101013201CN0006001N1-00251-00281102251ADDAG10000AY141031AY241031ED199U16009GA1021+000909999GA2071+013209999GF199999061051000751999999MA1101901097521MD1310081+9999MW1481OA149900211REMSYN029 333 84703 85644 91104 91204;MET008NEW NOSIEQDQ01+000062SCOTCV
0199065900999991996010304004+49617+006217SY-MT+0379ELLX V0202301N00151000901CN0011001N1-00241-00271102281ADDAG10999AY121011AY221011ED199U20009GA1071+000909999GA2071+013209999GF107991071051000751999999MA1102001097551MD1210121+9999MW1101MW2281OA149900311REMSYN029 333 86703 86644 91106 91204;MET008NEW NOSI
0194065900999991996010305004+49617+006217SY-MT+0379ELLX V0202201N00211000901CN0011001N1-00211-00241102311ADDAG10999AY121021AY221021ED199U20009GA1071+000909999GF107991071051000751999999MA1102001097581MD1210081+9999MW1101MW2281OA149900311REMSYN029 333 86703 86656 91106 91204;MET019NEW NOSIG 06390032;
0058065900999991996010305504+49617+006217FM-16+0379ELLX V0202201N00101999999CN0008001N1+00401+99999999999ADDAG10999REMMET020NEW P2000 M02/M03 Q1EQDQ01+000000PRSWM2
0241065900999991996010306004+49617+006217SY-MT+0379ELLX V0202201N00101000601CN0011001N1-00221-00281102351ADDAA106000091AG10000AY141061AY221061ED199U20009GA1071+000609079GF107991071061000751999999IA1149IA2999-00409KA1120N-00341MA1102001097621MD1210101+9999MW1101OA149900311REMSYN035 333 21034 34104 87702 91106 91204;MET005NEW ;EQDQ01+000000PRSWM2
0171065900999991996010307004+49617+006217SY-MT+0379ELLX V0202401N00261000601CN0002001N1-00251-00251102381ADDAG10999AY121011AY221011ED199U05009GA1071+000609999GF107991071061000751999999MA1102101097641MD1210091+9999MW1481OA149900361REMSYN023 333 87702 91107 91205;MET008NEW NOSI
0160065900999991996010308004+49617+006217SY-MT+0379ELLX V0202501N00151000601CN0002001N1-00241-00241102441ADDAG10999AY141021AY241021GA1081+000609999GF108991081061000751999999MA1102101097701MD1210121+9999MW1481OA149900261REMSYN023 333 88702 91105 91204;MET008NEW NOSI
0171065900999991996010309004+49617+006217SY-MT+0379ELLX V0202701N00101000601CN0001001N1-00201-00201102481ADDAG10000AY141031AY221031ED199U04509GA1081+000609999GF108991081061000751999999MA1102201097751MD1210131+9999MW1481OA149900361REMSYN023 333 88702 91107 91206;MET008NEW NOSI
0171065900999991996010310004+49617+006217SY-MT+0379ELLX V0209991C00001000601CN0002001N1-00161-00161102491ADDAG10999AY141011AY241011ED199U11009GA1081+000609999GF108991081061000751999999MA1102201097761MD1210121+9999MW1481OA149900211REMSYN023 333 88702 91104 91202;MET008NEW NOSI
0210065900999991996010311004+49617+006217SY-MT+0379ELLX V0201501N00051001201CN0007001N1-00141-00141102491ADDAG10999AY141021AY241021ED199U13009GA1021+000609999GA2071+001209999GF107991071061000751999999MA1102201097771MD1210071+9999MW1481OA149900211REMSYN029 333 84702 87704 91104 91202;MET025NEW BECMG 1500 BR BKN006;
0247065900999991996010312004+49617+006217SY-MT+0379ELLX V0200301N00051001201CN0013001N1-00091-00121102471ADDAA106000091AG10000AY141061AY221061ED199U20009GA1021+000609999GA2071+001209999GF107991071061000751999999MA1102171097761MD1010011+9999MW1481OA149900361REMSYN029 333 84702 86704 91107 91206;MET032NEW Q10-23$BECMG 1500 BR BKN006;EQDQ01+999990APOA  
0099065900999991996010313204+49617+006217FM-15+0379ELLX V0201501N00101000601CN0003001N1-00101-00101102491ADDAG10999GA1071+000609999MA1102201097781MW1481REMMET008NEW NOSIEQDQ01+999990APOSP Q02+999990APOSLP
0171065900999991996010314004+49617+006217SY-MT+0379ELLX V0201001N00051000301CN0002001N1-00111-00111102471ADDAG10999AY141021AY241021ED199U07009GA1071+000309999GF107991071061000251999999MA1102201097751MD1510021+9999MW1481OA149900261REMSYN023 333 87701 91105 91202;MET008NEW NOSI
0171065900999991996010315004+49617+006217SY-MT+0379ELLX V0200701N00151000301CN0001001N1-00121-00121102461ADDAG10000AY141031AY241031ED199U03009GA1071+000309999GF107991071061000251999999MA1102201097741MD1510021+9999MW1481OA149900311REMSYN023 333 87701 91106 91203;MET008NEW NOSI
0171065900999991996010316004+49617+006217SY-MT+0379ELLX V0201101N00211000301CN0001001N1-00121-00121102471ADDAG10999AY141011AY241011ED199U02509GA1081+000309999GF108991081061000251999999MA1102201097751MD1510001+9999MW1481OA149900571REMSYN023 333 88701 91111 91204;MET008NEW NOSI
0171065900999991996010317004+49617+006217SY-MT+0379ELLX V0200901N00211000301CN0001001N1-00111-00111102491ADDAG10999AY141021AY241021ED199U03759GA1081+000309999GF108991081061000251999999MA1102201097771MD1310021+9999MW1481OA149900461REMSYN023 333 88701 91109 91204;MET008NEW NOSI
0201065900999991996010318004+49617+006217SY-MT+0379ELLX V0201101N00051000301CN0002001N1-00101-00101102511ADDAA106000091AG10000AY141061AY241061ED199U04509GA1081+000309999GF108991081061000251999999KA1120M-00051MA1102201097791MD1210051+9999MW1481OA149900571REMSYN029 333 11005 88701 91111 91204;MET008NEW NOSI
0171065900999991996010319004+49617+006217SY-MT+0379ELLX V0209991C00001030001CN0002001N1-00071-00071102561ADDAG10999AY141011AY241011ED199U05509GA1081+030009999GF108991081061000251999999MA1102301097851MD1210101+9999MW1481OA149900151REMSYN023 333 88701 91103 91201;MET008NEW NOSI
0171065900999991996010320004+49617+006217SY-MT+0379ELLX V0201501N00051000601CN0006001N1-00061-00061102581ADDAG10999AY141021AY241021ED199U06509GA1081+000609999GF108991081061000751999999MA1102301097871MD1210101+9999MW1481OA149900211REMSYN023 333 88702 91104 91202;MET008NEW NOSI
0177065900999991996010321004+49617+006217SY-MT+0379ELLX V0202001N00151000901CN0012001N1-00041-00051102601ADDAG10000AY141031AY221031ED199U15009GA1071+000909999GF107991071061000751999999MA1102301097891MD1210101+9999MW1101MW2281OA149900311REMSYN023 333 87703 91106 91203;MET008NEW NOSI
0171065900999991996010322004+49617+006217SY-MT+0379ELLX V0200701N00101000601CN0002001N1-00051-00051102581ADDAG10999AY141011AY221011ED199U02509GA1071+000609999GF107991071061000751999999MA1102301097871MD1010021+9999MW1481OA149900261REMSYN023 333 87702 91105 91203;MET008NEW NOSI
0171065900999991996010323004+49617+006217SY-MT+0379ELLX V0200701N00101000601CN0002001N1-00041-00041102551ADDAG10999AY141021AY241021ED199U02259GA1071+000609999GF107991071061000751999999MA1102301097841MD1810031+9999MW1481OA149900211REMSYN023 333 87702 91104 91203;MET008NEW NOSI
0171065900999991996010400004+49617+006217SY-MT+0379ELLX V0200701N00151000601CN0002001N1-00051-00051102471ADDAA106000091AG10000AY141061AY221061GA1071+000609999GF107991071061000751999999MA1102201097761MD1710131+9999MW1481OA149900361REMSYN023 333 87702 91107 91205;MET008NEW NOSI
0106065900999991996010401004+49617+006217SY-MT+0379ELLX V0201001N00101999999CN0003001N1-00051-00051102421ADDAG10999MA1102101097721MD1710151+9999OA149900311REMSYN017 333 91106 91203;MET005NEW ;EQDQ01+000000PRSWM2
0117065900999991996010402004+49617+006217SY-MT+0379ELLX V0202401N00051999999CN0012001N1-00051-00051102411ADDAG10999ED199U20009MA1102101097711MD1710131+9999OA149900151REMSYN017 333 91103 91202;MET005NEW ;EQDQ01+000000PRSWM2
0166065900999991996010403004+49617+006217SY-MT+0379ELLX V0209991C00001000601CN0002001N1-00061-00061102381ADDAG10000AY141031AY241031GA1071+000609999GF107991071061000751999999MA1102101097681MD1710081+9999MW1441MW2481OA149900311REMSYN023 333 87702 91106 91203;MET008NEW NOSI
0171065900999991996010404004+49617+006217SY-MT+0379ELLX V0200801N00151000601CN0002001N1-00061-00061102321ADDAG10999AY141011AY241011ED199U20009GA1071+000609999GF107991071061000751999999MA1102001097621MD1710101+9999MW1481OA149900211REMSYN023 333 87702 91104 91203;MET008NEW NOSI
0182065900999991996010405004+49617+006217SY-MT+0379ELLX V0200701N00261000901CN0005001N1-00081-00081102271ADDAG10999AY141021AY241021GA1071+000909999GA2071+004209999GF107991071061000751999999MA1102001097571MD1710141+9999MW1481OA149900361REMSYN029 333 86703 87614 91107 91206;MET008NEW NOSI
0247065900999991996010406004+49617+006217SY-MT+0379ELLX V0200901N00151000901CN0009001N1-00141-00151102231ADDAA106000091AG10000AY141061AY221061ED199U20009GA1071+000909999GA2071+003609999GF107991071051000751999999IA1149IA2999-00209KA1120N-00121MA1101901097521MD1710161+9999MW1101OA149900361REMSYN041 333 21012 34102 85703 87612 91107 91206;MET008NEW NOSI
0160065900999991996010407004+49617+006217SY-MT+0379ELLX V0201001N00151220001CN0020001N1-00191-00201102191ADDAG10999AY111011AY211011GA1021+004509999GF103991031051004501001001MA1101901097471MD1710151+9999MW1101OA149900511REMSYN023 333 83615 91110 91205;MET008NEW NOSI
0182065900999991996010408004+49617+006217SY-MT+0379ELLX V0201001N00211220001CN0025001N1-00281-00311102161ADDAG10999AY101021AY201021GA1021+004509999GA2021+060009999GF104991011051004501001021MA1101801097431MD1710141+9999MW1101OA149900361REMSYN029 333 81615 84070 91107 91204;MET008NEW NOSI
0198065900999991996010409004+49617+006217SY-MT+0379ELLX V0200901N00311220001CN0035001N1-00241-00271102111ADDAG10000AY111031AY211031GA1021+004509999GA2021+060009999GF104991011051004501031021MA1101801097391MD1710131+9999MW1101OA149900511REMSYN029 333 81615 84070 91110 91206;MET005NEW ;EQDQ01+000000PRSWM2
0134065900999991996010410004+49617+006217SY-MT+0379ELLX V0200801N00261220001CN0060001N1-00121-00151102101ADDAG10999GA1021+060009999GF104991001001999999001021MA1101801097401MD1010071+9999REMSYN011 333 84070;MET008NEW NOSIEQDQ01+000000PRSWM2
0125065900999991996010411204+49617+006217FM-15+0379ELLX V0200901N00311220001CN0080001N1+00001-00201101961ADDAG10999GA1021+002709999GA2021+060009999MA1101691097291REMMET008NEW NOSIEQDQ01+999990APOSP Q02+999990APOSLPQ03+000000PRSWM2
0168065900999991996010412004+49617+006217SY-MT+0379ELLX V0200901N00411220001CN0080001N1+00001-00221101881ADDAA106000091AG10000GA1021+060009999GF103991001001999999001021MA1101591097211MD1810181+9999OA149900621REMSYN023 333 83070 91112 91209;MET008NEW NOSIEQDQ01+000000PRSWM2
0165065900999991996010413004+49617+006217SY-MT+0379ELLX V0200801N00461220001CN0100001N1+00051-00201101751ADDAG10999GA1021+060009009GF102991001001999999001021MA1101491097091MD1810311+9999OA149900721REMSYN023 333 82070 91114 91210;MET016NEW CAVOK NOSIG;EQDQ01+000000PRSWM2
0157065900999991996010414004+49617+006217SY-MT+0379ELLX V0200901N00411220001CN0100001N1+00031-00241101691ADDAG10999GA1021+060009009GF102991001001999999001021MA1101391097031MD1710291+9999OA149900621REMSYN023 333 82070 91112 91210;MET008NEW CAVOEQDQ01+000000PRSWM2
0165065900999991996010415004+49617+006217SY-MT+0379ELLX V0200601N00261220001CN0100001N1+00021-00251101671ADDAG10000GA1021+060009009GF102991001001999999001021MA1101391097011MD1710201+9999OA149900721REMSYN023 333 82070 91114 91210;MET016NEW CAVOK NOSIG;EQDQ01+000000PRSWM2
0165065900999991996010416004+49617+006217SY-MT+0379ELLX V0200701N00361060001CN0100001N1-00131-00331101651ADDAG10999GA1051+060009009GF105991001001999999001021MA1101391096971MD1710121+9999OA149900411REMSYN023 333 85070 91108 91207;MET016NEW CAVOK NOSIG;EQDQ01+000000PRSWM2
0165065900999991996010417004+49617+006217SY-MT+0379ELLX V0200901N00211060001CN0100001N1-00211-00381101641ADDAG10999GA1051+060009009GF105991001001999999001021MA1101291096941MD1710091+9999OA149900511REMSYN023 333 85070 91110 91208;MET016NEW CAVOK NOSIG;EQDQ01+000000PRSWM2
0173065900999991996010418004+49617+006217FM-12+0379ELLX V0202501N00461060001CN0120001N1-00251-00411101611ADDAA106000091AG10000GA1051+060009009GF106991001001999999001021KA1120M+00101MA1101291096911MD1710101+9999OA149900721REMSYN029 333 10010 85070 91114 91210;EQDQ01+999990APOA  
0195065900999991996010418004+49617+006217SY-MT+0379ELLX V0202501N004610600019N0120001N1-00251-00411101611ADDAA106000091AG10000GA1051+060009009GF106991001001999999001021KA1120M+00101MA1101291096911MD1710101+9999OA149900721REMSYN029 333 10010 85070 91114 91210;MET016NEW CAVOK NOSIG;EQDQ01+000000PRSWM2
0165065900999991996010419004+49617+006217SY-MT+0379ELLX V0201101N00311060001CN0120001N1-00251-00471101591ADDAG10999GA1051+060009009GF105991001001999999001021MA1101291096891MD1710081+9999OA149900571REMSYN023 333 85070 91111 91206;MET016NEW CAVOK NOSIG;EQDQ01+000000PRSWM2
0165065900999991996010420004+49617+006217SY-MT+0379ELLX V0201201N00261220001CN0100001N1-00251-00471101581ADDAG10999GA1041+060009009GF104991001001999999001021MA1101291096881MD1710061+9999OA149900571REMSYN023 333 84070 91111 91208;MET016NEW CAVOK NOSIG;EQDQ01+000000PRSWM2
0165065900999991996010421004+49617+006217SY-MT+0379ELLX V0201101N00461220001CN0100001N1-00291-00491101491ADDAG10000GA1031+060009009GF103991001001999999001021MA1101191096791MD1710121+9999OA149900771REMSYN023 333 83070 91115 91210;MET016NEW CAVOK NOSIG;EQDQ01+000000PRSWM2
0165065900999991996010422004+49617+006217SY-MT+0379ELLX V0200901N00461060001CN0100001N1-00281-00481101391ADDAG10999GA1051+060009009GF105991001001999999001021MA1101081096691MD1710201+9999OA149900771REMSYN023 333 85070 91115 91210;MET016NEW CAVOK NOSIG;EQDQ01+000000PRSWM2
0165065900999991996010423004+49617+006217SY-MT+0379ELLX V0200901N00361060001CN0100001N1-00321-00511101321ADDAG10999GA1051+060009009GF105991001001999999001021MA1101021096621MD1710261+9999OA149900721REMSYN023 333 85070 91114 91209;MET016NEW CAVOK NOSIG;EQDQ01+000000PRSWM2
0176065900999991996010500004+49617+006217SY-MT+0379ELLX V0200701N00311060001CN0100001N1-00391-00541101301ADDAA106000091AG10000GA1061+060009009GF106991001001999999001021MA1101021096591MD1710201+9999OA149900771REMSYN023 333 86070 91115 91210;MET016NEW CAVOK NOSIG;EQDQ01+000000PRSWM2
0106065900999991996010501004+49617+006217SY-MT+0379ELLX V0200601N003119999999N0080001N1-00441-00581101191ADDAG10999MA1100911096481MD1710211+9999OA149900461REMSYN017 333 91109 91208;MET005NEW ;EQDQ01+000000PRSWM2
0106065900999991996010502004+49617+006217SY-MT+0379ELLX V0200801N00311999999CN0100001N1-00481-00591101121ADDAG10999MA1100811096401MD1710221+9999OA149900621REMSYN017 333 91112 91211;MET005NEW ;EQDQ01+000000PRSWM2
0173065900999991996010503004+49617+006217SY-MT+0379ELLX V0200701N00261060001CN0070001N1-00431-00551101051ADDAG10000GA1071+060009999GF199999001001999999001021MA1100711096341MD1710251+9999OA149900621REMSYN023 333 86070 91112 91211;MET008NEW NOSIEQDQ01+000062SCOTCVQ02+000000PRSWM2
0165065900999991996010504004+49617+006217SY-MT+0379ELLX V0200901N00361220001CN0100001N1-00371-00541100941ADDAG10999GA1041+060009009GF104991001001999999001021MA1100611096251MD1710231+9999OA149900511REMSYN023 333 84070 91110 91208;MET016NEW CAVOK NOSIG;EQDQ01+000000PRSWM2
0165065900999991996010505004+49617+006217SY-MT+0379ELLX V0200801N00311220001CN0100001N1-00451-00571100921ADDAG10999GA1041+060009009GF104991001001999999001021MA1100611096221MD1710181+9999OA149900411REMSYN023 333 84070 91108 91206;MET016NEW CAVOK NOSIG;EQDQ01+000000PRSWM2
0241065900999991996010506004+49617+006217SY-MT+0379ELLX V0201001N00411060001CN0100001N1-00371-00571100901ADDAA106000091AG10000GA1031+030009039GA2051+060009009GF106991031001999999031021IA1149IA2999-00609KA1120N-00511MA1100611096211MD1710131+9999OA149900621REMSYN041 333 21051 34106 83360 85070 91112 91211;MET016NEW CAVOK NOSIG;EQDQ01+000000PRSWM2
0187065900999991996010507004+49617+006217SY-MT+0379ELLX V0200901N00361060001CN0100001N1-00361-00561100901ADDAG10999GA1031+030009039GA2061+060009009GF106991031001999999031021MA1100611096211MD1610041+9999OA149900621REMSYN029 333 83360 86070 91112 91210;MET016NEW CAVOK NOSIG;EQDQ01+000000PRSWM2
0195065900999991996010508004+49617+006217SY-MT+0379ELLX V0201001N00411060001CN0080001N1-00391-00601100861ADDAG10999GA1021+030009999GA2071+060009999GF199999011001999999031021MA1100511096171MD1810051+9999OA149900671REMSYN029 333 81360 86070 91113 91209;MET008NEW NOSIEQDQ01+000062SCOTCVQ02+000000PRSWM2
0179065900999991996010509004+49617+006217SY-MT+0379ELLX V0200701N00211060001CN0080001N1-00351-00531100861ADDAG10000GA1021+030009999GA2071+060009999GF107991031001999999031021MA1100511096181MD1510031+9999OA149900671REMSYN029 333 83360 87070 91113 91210;MET008NEW NOSIEQDQ01+000000PRSWM2
0179065900999991996010510004+49617+006217SY-MT+0379ELLX V0200901N00361060001CN0080001N1-00281-00541100791ADDAG10999GA1021+030009999GA2071+060009999GF107991031001999999031021MA1100511096121MD1810091+9999OA149900511REMSYN029 333 83360 87070 91110 91208;MET008NEW NOSIEQDQ01+000000PRSWM2
0195065900999991996010511004+49617+006217SY-MT+0379ELLX V0200801N00361060001CN0070001N1-00161-00431100661ADDAG10999GA1021+030009999GA2071+060009999GF199999021001999999031021MA1100411096021MD1810151+9999OA149900511REMSYN029 333 82360 86070 91110 91208;MET008NEW ASIGEQDQ01+000062SCOTCVQ02+000000PRSWM2
0206065900999991996010512004+49617+006217SY-MT+0379ELLX V0200801N00311060001CN0070001N1-00141-00461100591ADDAA106000091AG10000GA1021+030009999GA2071+060009999GF199999021001999999031021MA1100311095951MD1710231+9999OA149900771REMSYN029 333 82360 85070 91115 91210;MET008NEW NOSIEQDQ01+000062SCOTCVQ02+000000PRSWM2
0157065900999991996010513004+49617+006217SY-MT+0379ELLX V0201201N00261220001CN0080001N1-00051-00461100511ADDAG10999GA1021+030009999GF102991011001999999031021MA1100201095891MD1710231+9999OA149900411REMSYN023 333 81360 91108 91205;MET008NEW NOSIEQDQ01+000000PRSWM2
0157065900999991996010514004+49617+006217SY-MT+0379ELLX V0200901N00361220001CN0080001N1-00011-00511100431ADDAG10999GA1021+030009999GF102991011001999999031021MA1100201095821MD1710201+9999OA149900511REMSYN023 333 81360 91110 91207;MET008NEW NOSIEQDQ01+000000PRSWM2
0165065900999991996010515004+49617+006217SY-MT+0379ELLX V0200901N00311220001CN0100001N1-00141-00581100411ADDAG10000GA1021+030009039GF104991021001999999031021MA1100101095781MD1710171+9999OA149900621REMSYN023 333 82360 91112 91208;MET016NEW CAVOK NOSIG;EQDQ01+000000PRSWM2
0187065900999991996010516004+49617+006217SY-MT+0379ELLX V0201001N00261060001CN0100001N1-00231-00611100411ADDAG10999GA1021+030009039GA2031+060009009GF105991021001999999031021MA1100101095771MD1710121+9999OA149900511REMSYN029 333 82360 83070 91110 91207;MET016NEW CAVOK NOSIG;EQDQ01+000000PRSWM2
0187065900999991996010517004+49617+006217SY-MT+0379ELLX V0200901N00261060001CN0100001N1-00301-00661100401ADDAG10999GA1021+030009039GA2031+060009009GF105991021001999999031021MA1100101095751MD1710071+9999OA149900461REMSYN029 333 82360 83070 91109 91206;MET016NEW CAVOK NOSIG;EQDQ01+000000PRSWM2
0195065900999991996010518004+49617+006217SY-MT+0379ELLX V0201001N00261220001CN0120001N1-00351-00631100401ADDAA106000091AG10000GA1031+060009009GF103991001001999999001021KA1120M+00011MA1100101095741MD1710041+9999OA149900621REMSYN029 333 10001 83070 91112 91208;MET016NEW CAVOK NOSIG;EQDQ01+000000PRSWM2
0165065900999991996010519004+49617+006217SY-MT+0379ELLX V0200901N00311220001CN0120001N1-00401-00651100401ADDAG10999GA1021+060009009GF102991001001999999001021MA1100101095731MD1710041+9999OA149900461REMSYN023 333 82070 91109 91206;MET016NEW CAVOK NOSIG;EQDQ01+000000PRSWM2
0165065900999991996010520004+49617+006217SY-MT+0379ELLX V0200701N00311220001CN0100001N1-00481-00691100421ADDAG10999GA1021+060009009GF102991001001999999001021MA1100101095741MD1510011+9999OA149900411REMSYN023 333 82070 91108 91207;MET016NEW CAVOK NOSIG;EQDQ01+000000PRSWM2
0157065900999991996010521004+49617+006217SY-MT+0379ELLX V0200701N00311012001CN0100001N1-00391-00671100411ADDAG10000GA1071+012009999GF107991071051012501999999MA1100101095741MD1510001+9999OA149900461REMSYN023 333 87640 91109 91207;MET008NEW NOSIEQDQ01+000000PRSWM2
0157065900999991996010522004+49617+006217SY-MT+0379ELLX V0200501N00211012001CN0100001N1-00411-00721100371ADDAG10999GA1071+012009999GF107991071051012501999999MA1100001095701MD1810031+9999OA149900411REMSYN023 333 87640 91108 91206;MET008NEW NOSIEQDQ01+000000PRSWM2
0157065900999991996010523004+49617+006217SY-MT+0379ELLX V0200601N00311012001CN0100001N1-00421-00711100371ADDAG10999GA1071+012009999GF107991071051012501999999MA1100001095701MD1610041+9999OA149900411REMSYN023 333 87640 91108 91207;MET008NEW NOSIEQDQ01+000000PRSWM2
0168065900999991996010600004+49617+006217SY-MT+0379ELLX V0200601N00411012001CN0100001N1-00481-00741100331ADDAA106000091AG10000GA1071+012009999GF107991071051012501999999MA1100001095651MD1810091+9999OA149900571REMSYN023 333 87640 91111 91208;MET008NEW NOSIEQDQ01+000000PRSWM2
0106065900999991996010601004+49617+006217SY-MT+0379ELLX V0200801N002619999999N0100001N1-00481-00711100311ADDAG10999MA1100001095631MD1810071+9999OA149900511REMSYN017 333 91110 91208;MET005NEW ;EQDQ01+000000PRSWM2
0106065900999991996010602004+49617+006217SY-MT+0379ELLX V0200801N00261999999CN0100001N1-00481-00771100331ADDAG10999MA1100001095651MD1510051+9999OA149900511REMSYN017 333 91110 91207;MET005NEW ;EQDQ01+000000PRSWM2
0179065900999991996010603004+49617+006217SY-MT+0379ELLX V0200801N00311012001CN0100001N1-00491-00731100321ADDAG10000GA1071+012009999GA2071+030009999GF107991051051012501031999MA1100001095641MD1810011+9999OA149900511REMSYN029 333 85640 87360 91110 91208;MET008NEW NOSIEQDQ01+000000PRSWM2
0179065900999991996010604004+49617+006217SY-MT+0379ELLX V0200801N00311030001CN0100001N1-00501-00761100301ADDAG10999GA1021+012009999GA2071+030009999GF107991041051012501031999MA1100001095621MD1810011+9999OA149900411REMSYN029 333 84640 87360 91108 91207;MET008NEW NOSIEQDQ01+000000PRSWM2
0179065900999991996010605004+49617+006217SY-MT+0379ELLX V0200801N00311006001CN0100001N1-00491-00771100291ADDAG10999GA1071+006009999GA2071+030009999GF107991051051008001031999MA1100001095611MD1710041+9999OA149900461REMSYN029 333 85620 87360 91109 91207;MET008NEW NOSIEQDQ01+000000PRSWM2
0233065900999991996010606004+49617+006217SY-MT+0379ELLX V0200901N00311004501CN0100001N1-00501-00781100291ADDAA106000091AG10000AY121061AY221061GA1071+004509999GF108991071051004501999999IA1149IA2999-00609KA1120N-00551MA1100001095611MD1610031+9999MW1031OA149900511REMSYN035 333 21055 34106 87615 91110 91208;MET008NEW NOSIEQDQ01+000000PRSWM2
0157065900999991996010607004+49617+006217SY-MT+0379ELLX V0200901N00261003601CN0100001N1-00491-00771100291ADDAG10999GA1071+003609999GF108991071051004501999999MA1100001095611MD1610011+9999OA149900621REMSYN023 333 87612 91112 91207;MET008NEW NOSIEQDQ01+000000PRSWM2
0160065900999991996010608004+49617+006217SY-MT+0379ELLX V0201001N00261003001CN0050001N1-00491-00771100301ADDAG10999AY121021AY221021GA1071+003009999GF108991071051004501999999MA1100001095621MD1310011+9999MW1661OA149900461REMSYN023 333 87610 91109 91206;MET008NEW NOSI
0188065900999991996010609004+49617+006217SY-MT+0379ELLX V0201001N00311003001CN0030001N1-00491-00641100281ADDAG10001AY161031AY221031GA1021+002409999GA2071+003009999GF108991071051002501999999MA1099901095601MD1810011+9999MW1101MW2661OA149900621REMSYN029 333 83708 87610 91112 91207;MET008NEW NOSI
0199065900999991996010610004+49617+006217SY-MT+0379ELLX V0200901N00311001501CN0030001N1-00501-00611100291ADDAG10999AY161011AY261011GA1071+001509999GA2071+002409999GF108991071071001501999999MA1100001095611MD1510001+9999MW1101MW2661OA149900461REMSYN029 333 85705 87708 91109 91206;MET019NEW NOSIG 0629//68;
0178065900999991996010611004+49617+006217SY-MT+0379ELLX V0200901N00211001201CN0030001N1-00471-00541100241ADDAG10999AY121021AY221021GA1071+001209999GF108991071061001501999999MA1099901095571MD1810051+9999MW1101MW2241OA149900411REMSYN023 333 87704 91108 91206;MET020NEW NOSIG 0629// 60;
0182065900999991996010612004+49617+006217SY-MT+0379ELLX V0201201N00211000901CN0020001N1-00461-00511100241ADDAA106999929AG10001AY161061AY221061GA1081+000909999GF108991081061000751999999MA1099901095571MD1610031+9999MW1101OA149900621REMSYN023 333 88703 91112 91207;MET019NEW NOSIG 0629//60;
0182065900999991996010613004+49617+006217SY-MT+0379ELLX V0201001N00261000601CN0010001N1-00461-00501100171ADDAG10999AY141011AY221011ED199U17009GA1081+000609999GF108991081061000751999999MA1099801095501MD1810111+9999MW1561OA149900571REMSYN023 333 88702 91111 91205;MET019NEW NOSIG 0629//60;
0182065900999991996010614004+49617+006217SY-MT+0379ELLX V0201001N00261000601CN0005001N1-00441-00441100111ADDAG10999AY151021AY221021ED199U15009GA1081+000609999GF108991081061000751999999MA1099801095451MD1810121+9999MW1481OA149900411REMSYN023 333 88702 91108 91206;MET019NEW NOSIG 0629//60;
0182065900999991996010615004+49617+006217SY-MT+0379ELLX V0200801N00311000301CN0004001N1-00421-00421100081ADDAG10000AY151031AY241031ED199U16009GA1081+000309999GF108991081061000251999999MA1099801095421MD1710151+9999MW1481OA149900571REMSYN023 333 88701 91111 91206;MET019NEW NOSIG 0629//60;
0182065900999991996010616004+49617+006217SY-MT+0379ELLX V0201001N00261000301CN0004001N1-00421-00421100091ADDAG10999AY141011AY241011ED199U20009GA1081+000309999GF108991081061000251999999MA1099801095431MD1510071+9999MW1481OA149900511REMSYN023 333 88701 91110 91207;MET019NEW NOSIG 0629//70;
0177065900999991996010617004+49617+006217SY-MT+0379ELLX V0200901N00261000601CN0020001N1-00401-00441100051ADDAG10999AY141021AY221021GA1081+000609999GF108991081061000751999999MA1099701095401MD1810051+9999MW1101MW2281OA149900511REMSYN023 333 88702 91110 91207;MET019NEW NOSIG 0629//70;
0218065900999991996010618004+49617+006217SY-MT+0379ELLX V0200901N00411000601CN0012001N1-00371-00411099951ADDAA199999929AG10000AY151061AY241061ED199U20009GA1081+000609999GF108991081061000751999999KA1120M-00361MA1099591095311MD1810111+9999MW1101OA149900621REMSYN035 333 11036 40997 88702 91112 91208;MET019NEW NOSIG 0629//70;
0171065900999991996010619004+49617+006217SY-MT+0379ELLX V0201001N00411000601CN0012001N1-00351-00391099911ADDAG10999AY121011AY221011ED199U20009GA1081+000609999GF108991081061000751999999MA1099591095271MD1710161+9999MW1101OA149900721REMSYN023 333 88702 91114 91208;MET008NEW NOSI
0182065900999991996010620004+49617+006217SY-MT+0379ELLX V0200901N00411000601CN0014001N1-00321-00361099801ADDAG10999AY121021AY221021ED199U20009GA1081+000609999GF108991081061000751999999MA1099491095171MD1710231+9999MW1101OA149900671REMSYN023 333 88702 91113 91209;MET019NEW NOSIG 0629//80;
0172065900999991996010621004+49617+006217SY-MT+0379ELLX V0200901N00411000601CN0020001N1-00281-00311099751ADDAG10000AY121031AY221031GA1081+000609999GF108991081061000751999999MA1099491095131MD1710181+9999MW1101OA149900721REMSYN023 333 88702 91114 91209;MET020NEW NOSIG 0629// 80;
0165065900999991996010622004+49617+006217SY-MT+0379ELLX V0200801N00311000901CN0020001N1-00301-00331099681ADDAG10999AY121011AY221011GA1071+000909999GF108991071061000751999999MA1099391095061MD1710211+9999MW1101OA149900461REMSYN023 333 87703 91109 91207;MET013NEW 0629//81;
0158065900999991996010623004+49617+006217SY-MT+0379ELLX V0201001N00311001501CN0025001N1-00251-00281099671ADDAG10999AY121021AY221021GA1071+001509999GF107991071061001501999999MA1099391095061MW1101OA149900461REMSYN023 333 87705 91109 91207;MET020NEW NOSIG 0629// 81;
0190065900999991996010700004+49617+006217SY-MT+0379ELLX V0201001N00211006601CN0025001N1-00201-00231099611ADDAA106000091AG10000AY121061AY221061GA1021+001509999GA2071+006609999GF107991071051001501999999MA1099291095011MW1101OA149900721REMSYN029 333 83705 87622 91114 91209;MET019NEW NOSIG 0629//81;
0103065900999991996010701004+49617+006217SY-MT+0379ELLX V0201201N00361999999CN0014001N1-00061-00091099521ADDAG10999ED199U20009MA1099291094951OA149900511REMSYN017 333 91110 91207;MET005NEW ;EQDQ01+000000PRSWM2
0117065900999991996010702004+49617+006217SY-MT+0379ELLX V0201301N00411999999CN0010001N1+00011+00001099511ADDAG10999ED199U20009MA1099291094951MD1610111+9999OA149900671REMSYN017 333 91113 91209;MET005NEW ;EQDQ01+000000PRSWM2
0187065900999991996010703004+49617+006217SY-MT+0379ELLX V0201501N00361000301CN0025001N1+00101+00091099501ADDAG10001AY161031AY221031ED199U19009GA1071+000309079GF108991071071000251999999MA1099291094951MD1610061+9999MW1601OA149900671REMSYN023 333 87701 91113 91209;MET005NEW ;EQDQ01+000000PRSWM2
0188065900999991996010704004+49617+006217SY-MT+0379ELLX V0201601N00511000301CN0002001N1+00181+00181099491ADDAG10999AY151011AY241011ED199U08009GA1081+000309999GF108991081061000251999999MA1099291094961MD1310011+9999MW1511MW2581OA149900821REMSYN023 333 88701 91116 91210;MET019NEW NOSIG 0639//44;
0182065900999991996010705004+49617+006217SY-MT+0379ELLX V0201701N00411000301CN0002001N1+00181+00181099571ADDAG10999AY151021AY241021ED199U17009GA1081+000309999GF108991081061000251999999MA1099391095031MD1310081+9999MW1511OA149900721REMSYN023 333 88701 91114 91210;MET019NEW NOSIG 0639//44;
0254065900999991996010706004+49617+006217SY-MT+0379ELLX V0201701N00311000301CN0018001N1+00281+00251099561ADDAA199000591AG10001AY161061AY251061GA1071+000309999GA2081+000609999GF108991081061000251999999IA1149IA2999-00309KA1120N-00381MA1099391095041MD1210091+9999MW1101MW2281OA149900821REMSYN041 333 21038 34103 85701 88702 91116 91210;MET020NEW NOSIG 0629// 73;
0194065900999991996010707004+49617+006217SY-MT+0379ELLX V0201701N00361000601CN0018001N1+00301+00271099631ADDAG10999AY121011AY221011GA1071+000609999GA2081+003609999GF108991081051000751999999MA1099391095111MD1210151+9999MW1101OA149900671REMSYN029 333 85702 88612 91113 91209;MET020NEW NOSIG 0629// 73;
0205065900999991996010708004+49617+006217SY-MT+0379ELLX V0201701N00411000601CN0016001N1+00341+00311099691ADDAG10999AY161021AY251021GA1071+000609999GA2081+000909999GF108991081061000751999999MA1099491095171MD1210141+9999MW1101MW2501MW3511OA149900621REMSYN029 333 86702 88703 91112 91209;MET019NEW NOSIG 06CLRD//;
0157065900999991996010709004+49617+006217SY-MT+0379ELLX V0201801N00511002401CN0015001N1+00401+00371099741ADDAG10000GA1021+000909999GA2071+002409999GA3081+003309999MA1099591095231MD1210191+9999OA149900721REMSYN017 333 91114 91210;MET008NEW NOSIEQDQ01+000003PRSWM1
0205065900999991996010710004+49617+006217SY-MT+0379ELLX V0201801N00411000301CN0012001N1+00411+00401099861ADDAG10999AY151011AY221011ED199U19009GA1071+000309999GA2081+002409999GF108991081061000251999999MA1099701095351MD1210241+9999MW1101MW2501MW3511OA149900721REMSYN029 333 86701 88708 91114 91211;MET008NEW NOSI
0193065900999991996010711004+49617+006217SY-MT+0379ELLX V0201801N00411000301CN0011001N1+00441+00441099941ADDAG10999AY121021AY221021ED199U20009GA1071+000309999GA2081+002409999GF108991081061000251999999MA1099801095431MD1210261+9999MW1101OA149900721REMSYN029 333 86701 88708 91114 91209;MET008NEW NOSI
0204065900999991996010712004+49617+006217SY-MT+0379ELLX V0201801N00411000601CN0014001N1+00491+00481100021ADDAA106000191AG10000AY121061AY221061ED199U20009GA1071+000609999GA2081+002109999GF108991081061000751999999MA1099801095511MD1210281+9999MW1101OA149900931REMSYN029 333 86702 88607 91118 91211;MET008NEW NOSI
0193065900999991996010713004+49617+006217SY-MT+0379ELLX V0201801N00361000901CN0013001N1+00511+00501100061ADDAG10999AY121011AY221011ED199U20009GA1071+000909999GA2081+002109999GF108991081061000751999999MA1099901095551MD1210201+9999MW1101OA149900571REMSYN029 333 86703 88707 91111 91207;MET008NEW NOSI
0205065900999991996010714004+49617+006217SY-MT+0379ELLX V0201901N00361000901CN0013001N1+00541+00511100111ADDAG10999AY121021AY221021ED199U20009GA1071+000909999GA2081+002109999GF108991081061000751999999MA1100001095611MD1210191+9999MW1101MW2501MW3511OA149900621REMSYN029 333 86703 88707 91112 91207;MET008NEW NOSI
0199065900999991996010715004+49617+006217SY-MT+0379ELLX V0202001N00261001201CN0014001N1+00571+00541100191ADDAG10000AY151031AY221031ED199U20009GA1071+001209999GA2081+002409999GF108991081061001501999999MA1100001095691MD1210181+9999MW1101MW2511OA149900621REMSYN029 333 86704 88708 91112 91207;MET008NEW NOSI
0199065900999991996010716004+49617+006217SY-MT+0379ELLX V0202001N00311002701CN0012001N1+00561+00531100281ADDAG10999AY121011AY221011ED199U20009GA1021+001209999GA2071+002709999GF107991071061001501999999MA1100101095771MD1210221+9999MW1101MW2201OA149900511REMSYN029 333 84704 87709 91110 91206;MET008NEW NOSI
0193065900999991996010717004+49617+006217SY-MT+0379ELLX V0201801N00151001501CN0012001N1+00581+00551100401ADDAG10999AY121021AY221021ED199U20009GA1071+001509999GA2071+002709999GF107991071061001501999999MA1100201095891MD1210281+9999MW1101OA149900361REMSYN029 333 85705 87709 91107 91206;MET008NEW NOSI
0223065900999991996010718004+49617+006217SY-MT+0379ELLX V0202101N00211002101CN0012001N1+00531+00501100491ADDAA199000191AG10000AY151061AY221061ED199U16009GA1071+002109999GA2071+009009999GF107991071051002501999999KA1120M+00621MA1100311095971MD1210281+9999MW1101OA149900821REMSYN035 333 10062 86707 87630 91116 91207;MET008NEW NOSI
0193065900999991996010719004+49617+006217SY-MT+0379ELLX V0201901N00211002701CN0012001N1+00511+00501100591ADDAG10999AY121011AY221011ED199U20009GA1071+002709999GA2071+004509999GF107991071051002501999999MA1100411096061MD1210291+9999MW1101OA149900411REMSYN029 333 85709 87615 91108 91205;MET008NEW NOSI
0131065900999991996010719204+49617+006217FM-15+0379ELLX V0201601N00051002101CN0011001N1+00501+00501100681ADDAG10999GA1021+000909999GA2071+002109999GA3071+003309999MA1100511096151MW1101REMMET008NEW NOSIEQDQ01+999990APOSP Q02+999990APOSLP
0250065900999991996010720004+49617+006217SY-MT+0379ELLX V0202101N00311002101CN0010001N1+00411+00381100731ADDAA106000091AG10999AY121021AY221021ED199U04009GA1021+000909999GA2071+002109999GF107991071051000751999999MA1100541096181MD1210291+9999MW1101OA149900361REMSYN035 333 84703 85707 86620 91107 91206;MET029NEW BKB020 04/04 Q1005 NOSIG;EQDQ01+999990APOA  
0126065900999991996010720504+49617+006217FM-15+0379ELLX V0201801N00051220001CN0001501N1+00401+00401100791ADDAG10000ED199U02759GA1021+000909999GA2021+004509999MA1100611096241MW1441REMMET008NEW NOSIEQDQ01+999990APOSP Q02+999990APOSLP
0190065900999991996010722004+49617+006217SY-MT+0379ELLX V0201601N00211001201CN0001001N1+00401+00401100891ADDAG10999AY141999AY241999ED199U03009GA1071+001209999GF199999061061001501001001MA1100711096331MD1210271+9999MW1441OA149900361REMSYN023 333 86704 91107 91204;MET008NEW NOSIEQDQ01+000062SCOTCV
0181065900999991996010723004+49617+006217SY-MT+0379ELLX V0202201N00101000301CN0001001N1+00381+00381100971ADDAG10999AY141999AY241999ED199U02509GA1071+000309999GF107991071061000251999999MA1100811096401MD1210221+9999MW1441OA149900621REMSYN023 333 87701 91112 91205;MET018NEW NOSIG 0622069;
0201065900999991996010800004+49617+006217SY-MT+0379ELLX V0201701N00101000301CN0001001N1+00351+00351101011ADDAA106000091AG10000AY141061AY221061ED199U02009GA1071+000309999GF199999061061000251001001MA1100811096441MD1210201+9999MW1441OA149900621REMSYN023 333 86701 91112 91206;MET008NEW NOSIEQDQ01+000062SCOTCV
0117065900999991996010801004+49617+006217SY-MT+0379ELLX V0201601N00101999999CN0000001N1+00291+00291101091ADDAG10999ED199U02259MA1100911096501MD1210171+9999OA149900211REMSYN017 333 91104 91202;MET005NEW ;EQDQ01+000000PRSWM2
0117065900999991996010802004+49617+006217SY-MT+0379ELLX V0201501N00151999999CN0000001N1+00351+00351101171ADDAG10999ED199U02509MA1101021096591MD1210191+9999OA149900311REMSYN017 333 91106 91204;MET005NEW ;EQDQ01+000000PRSWM2
0171065900999991996010803004+49617+006217SY-MT+0379ELLX V0201801N00261000301CN0001001N1+00301+00301101211ADDAG10000AY141031AY241031ED199U03009GA1071+000309999GF107991071061000251999999MA1101021096621MD1210181+9999MW1441OA149900411REMSYN023 333 87601 91108 91205;MET008NEW NOSI
0171065900999991996010804004+49617+006217SY-MT+0379ELLX V0201501N00051000301CN0001001N1+00281+00281101251ADDAG10999AY141011AY241011ED199U03009GA1071+000309999GF108991071061000251999999MA1101021096651MD1210151+9999MW1441OA149900311REMSYN023 333 87701 91106 91205;MET008NEW NOSI
0171065900999991996010805004+49617+006217SY-MT+0379ELLX V0201701N00101000301CN0001001N1+00301+00301101281ADDAG10999AY141021AY241021ED199U03009GA1071+000309999GF108991071061000251999999MA1101081096691MD1210101+9999MW1441OA149900311REMSYN023 333 87701 91106 91204;MET008NEW NOSI
0225065900999991996010806004+49617+006217SY-MT+0379ELLX V0201501N00211000301CN0001001N1+00351+00351101321ADDAA106000091AG10000AY141061AY241061ED199U04009GA1071+000309999GF108991081061000251999999IA1099IA2999+00209KA1120N+00261MA1101081096731MD1210111+9999MW1441OA149900411REMSYN035 333 20026 31002 87601 91108 91205;MET008NEW NOSI
0171065900999991996010807004+49617+006217SY-MT+0379ELLX V0201601N00211000301CN0001001N1+00371+00371101371ADDAG10999AY141011AY241011ED199U03759GA1081+000309999GF108991081061000251999999MA1101191096781MD1210131+9999MW1441OA149900411REMSYN023 333 88701 91108 91204;MET008NEW NOSI
0171065900999991996010808004+49617+006217SY-MT+0379ELLX V0201301N00211000301CN0001001N1+00361+00361101431ADDAG10999AY141021AY241021ED199U04509GA1081+000309999GF108991081061000251999999MA1101191096841MD1210151+9999MW1441OA149900361REMSYN023 333 88701 91107 91204;MET008NEW NOSI
0171065900999991996010809004+49617+006217SY-MT+0379ELLX V0201501N00261000301CN0001001N1+00411+00411101441ADDAG10000AY141031AY241031ED199U03759GA1081+000309999GF108991081061000251999999MA1101191096861MD1210131+9999MW1441OA149900411REMSYN023 333 88701 91108 91205;MET008NEW NOSI
0192065900999991996010810004+49617+006217SY-MT+0379ELLX V0201801N00261000301CN0001001N1+00431+00431101491ADDAG10999AY141011AY241011ED199U04009GA1081+000309999GF108991081061000251999999MA1101291096911MD1210131+9999MW1441OA149900461REMSYN023 333 88701 91109 91207;MET029NEW BECMG TL1200 0500 OVC002;
0181065900999991996010811004+49617+006217SY-MT+0379ELLX V0201801N00261000301CN0001001N1+00471+00471101481ADDAG10999AY141021AY241021GA1081+000309999GF108991081061000251999999MA1101291096901MD1010061+9999MW1441OA149900461REMSYN023 333 88701 91109 91205;MET029NEW BECMG TL1200 0500 OVC002;
0210065900999991996010812004+49617+006217SY-MT+0379ELLX V0201601N00361000301CN0008001N1+00511+00511101451ADDAA106000091AG10000AY141061AY241061ED199U20009GA1071+000309999GA2081+000909999GF108991081061000251999999MA1101291096881MD1010021+9999MW1421MW2441OA149900571REMSYN029 333 86701 88702 91111 91207;MET008NEW NOSI
0199065900999991996010813004+49617+006217SY-MT+0379ELLX V0201601N00261000901CN0020001N1+00551+00541101391ADDAG10999AY121011AY221011ED199U20009GA1071+000909999GA2071+001509999GF107991071061000751999999MA1101191096831MD1710081+9999MW1101MW2281OA149900671REMSYN029 333 85703 87705 91113 91207;MET008NEW NOSI
0195065900999991996010814004+49617+006217SY-MT+0379ELLX V0201501N00151005701CN0100001N1+00591+00581101341ADDAG10999GA1021+003909999GA2071+005709999GF199999061081004501001001MA1101191096791MD1710111+9999OA149900411REMSYN029 333 83813 85619 91108 91205;MET008NEW NOSIEQDQ01+000062SCOTCVQ02+000000PRSWM2
0157065900999991996010815004+49617+006217SY-MT+0379ELLX V0201401N00101003601CN0130001N1+00601+00571101341ADDAG10000GA1071+003609999GF107991071051004501999999MA1101191096791MD1610091+9999OA149900671REMSYN023 333 87612 91113 91207;MET008NEW NOSIEQDQ01+000000PRSWM2
0157065900999991996010816004+49617+006217SY-MT+0379ELLX V0201201N00211220001CN0130001N1+00531+00471101321ADDAG10999GA1021+005409999GF103991021051004501001021MA1101081096761MD1810071+9999OA149900511REMSYN023 333 82618 91110 91206;MET008NEW NOSIEQDQ01+000000PRSWM2
0165065900999991996010817004+49617+006217SY-MT+0379ELLX V0201201N00311220001CN0130001N1+00421+00381101331ADDAG10999GA1031+060009009GF103991001001999999001021MA1101081096751MD1810041+9999OA149900461REMSYN023 333 83070 91109 91206;MET016NEW CAVOK NOSIG;EQDQ01+000000PRSWM2
0207065900999991996010818004+49617+006217SY-MT+0379ELLX V0201101N00261000301CN0001001N1+00451+00451101311ADDAA199000191AG10000AY141061AY211061ED199U03759GA1071+000309999GF107991071061000251999999KA1120M+00641MA1101081096741MD1710051+9999MW1441MW2461OA149900671REMSYN029 333 10064 87701 91113 91207;MET008NEW NOSI
0177065900999991996010819004+49617+006217SY-MT+0379ELLX V0201101N00411000301CN0008001N1+00421+00421101261ADDAG10999AY141011AY241011ED199U20009GA1071+000309999GF107991071061000251999999MA1101081096691MD1710071+9999MW1421MW2441OA149900671REMSYN023 333 87701 91113 91209;MET008NEW NOSI
0177065900999991996010820004+49617+006217SY-MT+0379ELLX V0201001N00411000601CN0013001N1+00371+00371101221ADDAG10999AY121021AY221021ED199U20009GA1071+000609999GF107991071061000751999999MA1101021096641MD1710111+9999MW1101MW2281OA149900821REMSYN023 333 87702 91116 91210;MET008NEW NOSI
0160065900999991996010821004+49617+006217SY-MT+0379ELLX V0200901N00361220001CN0030001N1+00301+00291101171ADDAG10000AY141031AY211031GA1021+060009999GF102991001001999999001021MA1101021096581MD1710161+9999MW1101OA149900821REMSYN023 333 82070 91116 91210;MET008NEW NOSI
0173065900999991996010822004+49617+006217SY-MT+0379ELLX V0201001N00361220001CN0080001N1+00321+00281101101ADDAG10999GA1021+060009999GF199999001001999999001021MA1100911096521MD1710171+9999OA149900721REMSYN023 333 81070 91114 91208;MET008NEW NOSIEQDQ01+000012SCOTCVQ02+000000PRSWM2
0154065900999991996010823004+49617+006217SY-MT+0379ELLX V0201001N00311220001CN0100001N1+00281+00241101111ADDAG10999GA1011+060009009GF101991001001999999001021MA1100911096521MD1610121+9999OA149900511REMSYN023 333 81070 91110 91206;MET005NEW ;EQDQ01+000000PRSWM2
0198065900999991996010900004+49617+006217SY-MT+0379ELLX V0201101N00361220001CN0100001N1+00281+00211100991ADDAA106000091AG10000AY141061AY211061GA1011+060009009GF101991001001999999001021MA1100811096411MD1810171+9999MW1021OA149900821REMSYN023 333 81070 91116 91210;MET016NEW CAVOK NOSIG;EQDQ01+000000PRSWM2
0106065900999991996010901004+49617+006217SY-MT+0379ELLX V0201101N00411999999CN0100001N1+00291+00171100901ADDAG10999MA1100711096321MD1810201+9999OA149900721REMSYN017 333 91114 91209;MET005NEW ;EQDQ01+000000PRSWM2
0106065900999991996010902004+49617+006217SY-MT+0379ELLX V0201101N004619999999N0100001N1+00251+00151100841ADDAG10999MA1100611096261MD1710261+9999OA149900671REMSYN017 333 91113 91209;MET005NEW ;EQDQ01+000000PRSWM2
0165065900999991996010903004+49617+006217SY-MT+0379ELLX V0201101N00361060001CN0100001N1+00261+00131100761ADDAG10000GA1051+060009009GF105991001001999999001021MA1100511096181MD1710231+9999OA149900721REMSYN023 333 85070 91114 91209;MET016NEW CAVOK NOSIG;EQDQ01+000000PRSWM2
0165065900999991996010904004+49617+006217SY-MT+0379ELLX V0201101N00361220001CN0100001N1+00241+00121100711ADDAG10999GA1041+060009009GF104991001001999999001021MA1100511096131MD1710191+9999OA149900771REMSYN023 333 84070 91115 91210;MET016NEW CAVOK NOSIG;EQDQ01+000000PRSWM2
0165065900999991996010905004+49617+006217SY-MT+0379ELLX V0201001N00411220001CN0120001N1+00181+00081100671ADDAG10999GA1021+060009009GF102991001001999999001021MA1100411096081MD1710181+9999OA149900621REMSYN023 333 82070 91112 91209;MET016NEW CAVOK NOSIG;EQDQ01+000000PRSWM2
0219065900999991996010906004+49617+006217SY-MT+0379ELLX V0201301N00311220001CN0100001N1+00151+00031100691ADDAA106000091AG10000GA1021+060009009GF102991001001999999001021IA1099IA2999+00009KA1120N+00141MA1100511096101MD1510081+9999OA149900771REMSYN035 333 20014 31000 82070 91115 91210;MET016NEW CAVOK NOSIG;EQDQ01+000000PRSWM2
0181065900999991996010907004+49617+006217SY-MT+0379ELLX V0201501N004110180019N0100001N1+00231+00021100701ADDAG10999GA1051+018009059GF106991051051017501999021MA1100511096121MD1510011+9999OA149900621REMSYN023 333 85656 91112 91208;MET016NEW CAVOK NOSIG;EQDQ01+000000PRSWM2Q02    003SCOMCG
0187065900999991996010908004+49617+006217SY-MT+0379ELLX V0201401N005710300019N0100001N1+00281+00021100691ADDAG10999GA1041+015009059GA2051+030009039GF107991041051017501031021MA1100511096121MD1110041+9999OA149900821REMSYN029 333 84650 85360 91116 91211;MET016NEW CAVOK NOSIG;EQDQ01+000000PRSWM2
0179065900999991996010909004+49617+006217SY-MT+0379ELLX V0201401N003610600019N0100001N1+00331+00021100681ADDAG10000GA1031+030009039GA2051+060009009GF106991031001999999031021MA1100511096121MD1110021+9999OA149900931REMSYN029 333 83360 85070 91118 91211;MET008NEW CAVOEQDQ01+000000PRSWM2
0165065900999991996010910004+49617+006217SY-MT+0379ELLX V0201501N00361030001CN0100001N1+00421+00051100721ADDAG10999GA1061+030009039GF107991061001999999031021MA1100511096171MD1310051+9999OA149900721REMSYN023 333 86360 91114 91209;MET016NEW CAVOK NOSIG;EQDQ01+000000PRSWM2
0165065900999991996010911004+49617+006217SY-MT+0379ELLX V0201601N003610300019N0100001N1+00491+00071100741ADDAG10999GA1061+030009039GF107991061001999999031021MA1100611096201MD1310081+9999OA149900821REMSYN023 333 86360 91116 91208;MET016NEW CAVOK NOSIG;EQDQ01+000000PRSWM2
0198065900999991996010912004+49617+006217SY-MT+0379ELLX V0201701N00411030001CN0100001N1+00521+00101100691ADDAA106000091AG10000GA1031+015009059GA2061+030009039GF107991031051017501031021MA1100511096161MD1010041+9999OA149900931REMSYN029 333 83650 86360 91118 91211;MET016NEW CAVOK NOSIG;EQDQ01+000000PRSWM2
0188065900999991996010913004+49617+006217SY-MT+0379ELLX V0201701N00411030001CN0100001N1+00501+00181100741ADDAG10999AY121011AY221011GA1021+012009999GA2071+030009999GF107991031051012501071999MA1100611096201MD1310031+9999MW1601MW2611OA149900821REMSYN029 333 83640 87360 91116 91208;MET008NEW NOSI
0182065900999991996010914004+49617+006217SY-MT+0379ELLX V0201501N00261010501CN0100001N1+00541+00331100751ADDAG10999AY161021AY261021GA1071+010509999GA2081+030009999GF108991051051012501071999MA1100611096221MD1310021+9999MW1611OA149900671REMSYN029 333 85635 87360 91113 91209;MET008NEW NOSI
0182065900999991996010915004+49617+006217SY-MT+0379ELLX V0201601N00261012001CN0100001N1+00581+00431100781ADDAG10002AY161031AY221031GA1071+012009999GA2081+030009999GF108991061051012501071999MA1100611096251MD1210091+9999MW1611OA149900821REMSYN029 333 86640 87360 91116 91209;MET008NEW NOSI
0182065900999991996010916004+49617+006217SY-MT+0379ELLX V0201401N00311009001CN0100001N1+00541+00411100831ADDAG10999AY161011AY261011GA1071+009009999GA2081+030009999GF108991051051008001021999MA1100711096291MD1210091+9999MW1611OA149900511REMSYN029 333 85630 88460 91110 91207;MET008NEW NOSI
0182065900999991996010917004+49617+006217SY-MT+0379ELLX V0201401N00361008101CN0150001N1+00561+00421100861ADDAG10999AY161021AY261021GA1071+008109999GA2081+030009999GF108991061051008001021999MA1100711096331MD1210111+9999MW1611OA149900621REMSYN029 333 86627 88460 91112 91208;MET008NEW NOSI
0209065900999991996010918004+49617+006217SY-MT+0379ELLX V0201401N00411009001CN0150001N1+00581+00491100901ADDAA199001091AG10001AY161061AY221061GA1071+009009999GF107991071051008001999999KA1120M+00601MA1100711096371MD1210121+9999MW1211OA149900821REMSYN029 333 10060 87630 91116 91209;MET008NEW NOSIEQDQ01+000000PRSWM2
0201065900999991996010919004+49617+006217SY-MT+0379ELLX V0201701N00261003301CN0150001N1+00581+00521100951ADDAG10999GA1021+001209999GA2071+003309999GA3071+012009999GF107991071051001501999999MA1100811096421MD1210131+9999OA149900621REMSYN035 333 83705 85611 87640 91112 91208;MET008NEW NOSIEQDQ01+000000PRSWM2
0166065900999991996010920004+49617+006217SY-MT+0379ELLX V0201701N00311000901CN0050001N1+00581+00541100981ADDAG10999AY151021AY221021GA1081+000909999GF108991081061000751999999MA1100811096441MD1210111+9999MW1501MW2511OA149900621REMSYN023 333 88703 91112 91208;MET008NEW NOSI
0188065900999991996010921004+49617+006217SY-MT+0379ELLX V0201701N00311001501CN0028001N1+00601+00571100981ADDAG10000AY151031AY221031GA1021+000609999GA2071+001509999GF108991081061000751999999MA1100811096451MD1210081+9999MW1101MW2201OA149900621REMSYN029 333 84702 88705 91112 91208;MET008NEW NOSI
0179065900999991996010922004+49617+006217SY-MT+0379ELLX V0201201N00151000601CN0045001N1+00591+00561100981ADDAG10999AY121011AY221011GA1071+000609999GF108991081061000751999999MA1100811096451MD1110031+9999MW1101OA149900511REMSYN023 333 87702 91110 91206;MET008NEW NOSIEQDQ01+000000PRSWM2
0101065900999991996011002204+49617+006217FM-15+0379ELLX V0201001N00211999991CY0099001N1+00501+00401100991ADDAG10999MA1100811096441REMMET016NEW CAVOK NOSIG;EQDQ01+999990APOSP Q02+999990APOSLPQ03+000000PRSWM2
0165065900999991996011003004+49617+006217SY-MT+0379ELLX V0201001N00101220001CN0100001N1+00511+00441100951ADDAG10000GA1021+060009009GF102991001001999999001021MA1100811096401MD1810061+9999OA149900311REMSYN023 333 82070 91106 91204;MET016NEW CAVOK NOSIG;EQDQ01+000000PRSWM2
0109065900999991996011004204+49617+006217FM-15+0379ELLX V0201101N00151220001CN0070001N1+00401+00301101001ADDAG10999GA1021+060009999MA1100811096441REMMET008NEW NOSIEQDQ01+999990APOSP Q02+999990APOSLPQ03+000000PRSWM2
0173065900999991996011005004+49617+006217SY-MT+0379ELLX V0200801N00151030001CN0060001N1+00361+00321100971ADDAG10999GA1071+030009999GF199999061001999999031999MA1100811096401MD1610041+9999OA149900311REMSYN023 333 86360 91106 91205;MET008NEW NOSIEQDQ01+000062SCOTCVQ02+000000PRSWM2
0266065900999991996011006004+49617+006217SY-MT+0379ELLX V0200901N00151030001CN0080001N1+00351+00311100951ADDAA199999929AG10000AY151061AY211061GA1021+018009999GA2071+030009999GF107991041051017501031999IA1099IA2999+00109KA1120N+00331MA1100811096381MD1810021+9999MW1031OA149900311REMSYN041 333 20033 31001 84656 86360 91106 91205;MET019NEW NOSIG 0629//61;EQDQ01+000000PRSWM2
0187065900999991996011007004+49617+006217SY-MT+0379ELLX V0200701N00211030001CN0100001N1+00321+00261100991ADDAG10999GA1031+018009059GA2061+030009039GF107991031051017501031999MA1100811096411MD1510001+9999OA149900311REMSYN029 333 83656 86360 91106 91204;MET016NEW CAVOK NOSIG;EQDQ01+000000PRSWM2
0179065900999991996011008004+49617+006217SY-MT+0379ELLX V0200701N00151030001CN0100001N1+00441+00321101011ADDAG10999GA1041+018009059GA2071+030009039GF107991041051017501031999MA1100811096451MD1310051+9999OA149900411REMSYN029 333 84656 87360 91108 91206;MET008NEW CAVOEQDQ01+000000PRSWM2
0188065900999991996011009004+49617+006217SY-MT+0379ELLX V0200701N00051030001CN0100001N1+00561+00331101081ADDAG10001AY121031AY221031GA1021+018009999GA2071+030009999GF107991041051017501071999MA1100911096541MD1210161+9999MW1601MW2611OA149900461REMSYN029 333 84656 87360 91109 91206;MET008NEW NOSI
0115065900999991996011009504+49617+006217FM-15+0379ELLX V0200701N00151030001CN0112651N1+00601+00401101071ADDAG10999GA1021+010509999GA2081+030009999MA1100911096541MW1611REMMET008NEW NOSIEQDQ01+999990APOSP Q02+999990APOSLP
0115065900999991996011010504+49617+006217FM-15+0379ELLX V0200401N00261018001CN0112651N1+00601+00501101071ADDAG10999GA1021+012009999GA2071+018009999MA1100911096541MW1611REMMET008NEW NOSIEQDQ01+999990APOSP Q02+999990APOSLP
0212065900999991996011012004+49617+006217SY-MT+0379ELLX V0200401N00411030001CN0100001N1+00561+00421100931ADDAA106002091AG10001AY161061AY221061GA1021+012009999GA2071+030009999GF107991031051012501071999MA1100811096391MD1810151+9999MW1211OA149900721REMSYN029 333 83640 87460 91114 91211;MET008NEW NOSIEQDQ01+000000PRSWM2
0187065900999991996011013004+49617+006217SY-MT+0379ELLX V0200601N00461030001CN0100001N1+00561+00391100831ADDAG10999GA1041+015009059GA2071+030009039GF107991041051017501071999MA1100711096301MD1710241+9999OA149900671REMSYN029 333 84650 87360 91113 91211;MET016NEW CAVOK NOSIG;EQDQ01+000000PRSWM2
0187065900999991996011014004+49617+006217SY-MT+0379ELLX V0200501N00151030001CN0100001N1+00691+00461100821ADDAG10999GA1031+015009059GA2051+030009039GF106991031051017501071999MA1100711096311MD1510171+9999OA149900621REMSYN029 333 83650 85360 91112 91210;MET016NEW CAVOK NOSIG;EQDQ01+000000PRSWM2
0187065900999991996011015004+49617+006217SY-MT+0379ELLX V0200601N00211030001CN0140001N1+00581+00431100861ADDAG10000GA1031+015009059GA2061+030009039GF107991031051017501071999MA1100711096331MD1510061+9999OA149900671REMSYN029 333 83650 86360 91113 91211;MET016NEW CAVOK NOSIG;EQDQ01+000000PRSWM2
0187065900999991996011016004+49617+006217SY-MT+0379ELLX V0200401N00051060001CN0130001N1+00631+00401100811ADDAG10999GA1021+015009059GA2061+060009009GF107991021051017501031021MA1100711096291MD1810011+9999OA149900621REMSYN029 333 82650 86070 91112 91209;MET016NEW CAVOK NOSIG;EQDQ01+000000PRSWM2
0179065900999991996011017004+49617+006217SY-MT+0379ELLX V0201201N00211220001CN0150001N1+00441+00311100871ADDAG10999GA1021+030009039GA2031+060009009GF104991021001999999031021MA1100711096321MD1310011+9999OA149900311REMSYN029 333 82360 83070 91106 91204;MET008NEW CAVOEQDQ01+000000PRSWM2
0195065900999991996011018004+49617+006217SY-MT+0379ELLX V0201001N00211220001CN0150001N1+00391+00301100921ADDAA199002091AG10000GA1021+030009039GF103991021001999999031021KA1120M+00721MA1100711096361MD1310031+9999OA149900671REMSYN029 333 10072 82360 91113 91211;MET016NEW CAVOK NOSIG;EQDQ01+000000PRSWM2
0165065900999991996011019004+49617+006217SY-MT+0379ELLX V0201001N00261220001CN0130001N1+00321+00261100901ADDAG10999GA1031+030009039GF103991031001999999031021MA1100711096331MD1010041+9999OA149900361REMSYN023 333 83360 91107 91205;MET016NEW CAVOK NOSIG;EQDQ01+000000PRSWM2
0165065900999991996011020004+49617+006217SY-MT+0379ELLX V0201101N00151220001CN0120001N1+00241+00171100921ADDAG10999GA1031+030009039GF103991031001999999031021MA1100711096331MD1010011+9999OA149900411REMSYN023 333 83360 91108 91206;MET016NEW CAVOK NOSIG;EQDQ01+000000PRSWM2
0165065900999991996011021004+49617+006217SY-MT+0379ELLX V0201101N00151220001CN0100001N1+00151+00081100921ADDAG10000GA1011+030009039GF102991011001999999031021MA1100711096321MD1810041+9999OA149900621REMSYN023 333 81360 91112 91206;MET016NEW CAVOK NOSIG;EQDQ01+000000PRSWM2
0157065900999991996011022004+49617+006217SY-MT+0379ELLX V0201401N00101220001CN0080001N1+00171+00101100911ADDAG10999GA1021+030009999GF102991011001999999031021MA1100711096311MD1810021+9999OA149900511REMSYN023 333 81360 91110 91203;MET008NEW NOSIEQDQ01+000000PRSWM2
0195065900999991996011023004+49617+006217SY-MT+0379ELLX V0202401N00311060001CN0070001N1+00061-00011100961ADDAG10999GA1021+001209999GA2071+060009999GF199999011061001501031021MA1100711096341MD1310011+9999OA149900361REMSYN029 333 81704 86070 91107 91206;MET008NEW NOSIEQDQ01+000062SCOTCVQ02+000000PRSWM2
0128065900999991996011100004+49617+006217SY-MT+0379ELLX V0202001N003619999999N0016001N1-00011-00051101011ADDAA106000191AG10000ED199U20009MA1100811096381MD1310061+9999OA149900621REMSYN017 333 91112 91207;MET005NEW ;EQDQ01+000000PRSWM2
0117065900999991996011101004+49617+006217SY-MT+0379ELLX V0201201N003619999999N0013001N1+00031+00001100941ADDAG10999ED199U20009MA1100711096321MD1010011+9999OA149900721REMSYN017 333 91114 91209;MET005NEW ;EQDQ01+000000PRSWM2
0154065900999991996011102004+49617+006217SY-MT+0379ELLX V0201101N00211000601CN0018001N1+00031+00001100931ADDAG10999AY121021AY221021GA1071+000609999GF107991999999999999999999MA1100711096311MD1810031+9999MW1101OA149900571REMSYN017 333 91111 91207;MET008NEW NOSI
0187065900999991996011103004+49617+006217SY-MT+0379ELLX V0201501N00151000901CN0018001N1+00021-00011100911ADDAG10000AY121031AY221031ED199U20009GA1071+000909079GF107991071061000751999999MA1100711096291MD1710091+9999MW1101OA149900721REMSYN023 333 87703 91114 91209;MET005NEW ;EQDQ01+000000PRSWM2
0117065900999991996011104004+49617+006217SY-MT+0379ELLX V0201401N00261999999CN0011001N1+00031+00001100861ADDAG10999ED199U20009MA1100611096241MD1710081+9999OA149900411REMSYN017 333 91108 91206;MET005NEW ;EQDQ01+000000PRSWM2
0194065900999991996011105004+49617+006217SY-MT+0379ELLX V0201401N00311002101CN0030001N1+00071+00041100821ADDAG10999AY121021AY221021GA1071+002109999GA2071+009009999GF107991071051001501999999MA1100611096211MD1710101+9999MW1101OA149900461REMSYN029 333 85706 87630 91109 91206;MET020NEW NOSIG 0619// 73;
0247065900999991996011106004+49617+006217SY-MT+0379ELLX V0201601N00261002101CN0028001N1+00121+00081100791ADDAA106000091AG10000AY121061AY221061GA1071+002109999GA2071+003609999GF107991071051002501999999IA1099IA2999-00209KA1120N-00051MA1100611096191MD1710101+9999MW1101OA149900721REMSYN041 333 21005 31102 86707 87612 91114 91209;MET019NEW NOSIG 0619//73;
0171065900999991996011107004+49617+006217SY-MT+0379ELLX V0201701N00511001201CN0015001N1+00141+00101100781ADDAG10999AY121011AY221011ED199U20009GA1071+001209999GF107991071061001501999999MA1100511096181MD1710061+9999MW1101OA149900721REMSYN023 333 87704 91114 91210;MET008NEW NOSI
0205065900999991996011108004+49617+006217SY-MT+0379ELLX V0201701N00411001501CN0011001N1+00191+00161100811ADDAG10999AY121021AY221021ED199U20009GA1071+001509999GA2071+004509999GF108991071051001501999999MA1100611096221MD1310011+9999MW1101MW2501MW3511OA149900771REMSYN029 333 85706 87615 91115 91210;MET008NEW NOSI
0199065900999991996011109004+49617+006217SY-MT+0379ELLX V0201601N00261006001CN0013001N1+00251+00221100801ADDAG10000AY121031AY221031ED199U20009GA1021+004509999GA2071+006009999GF107991071051004501999999MA1100611096221MD1110031+9999MW1101MW2201OA149900771REMSYN029 333 83615 87620 91115 91210;MET008NEW NOSI
0157065900999991996011110004+49617+006217SY-MT+0379ELLX V0201601N00311009001CN0070001N1+00341+00301100751ADDAG10999GA1071+009009999GF107991071051008001999999MA1100611096191MD1010011+9999OA149900511REMSYN023 333 87630 91110 91207;MET008NEW NOSIEQDQ01+000000PRSWM2
0179065900999991996011111004+49617+006217SY-MT+0379ELLX V0201601N00411090001CN0100001N1+00551+00401100671ADDAG10999GA1021+009009999GA2021+060009999GF105991031051008001001021MA1100511096141MD1810081+9999OA149900821REMSYN029 333 83630 84070 91116 91208;MET008NEW NOSIEQDQ01+000000PRSWM2
0228065900999991996011112004+49617+006217SY-MT+0379ELLX V0201401N00361060001CN0100001N1+00621+00441100601ADDAA106999929AG10000AY151061AY221061GA1021+004509999GA2071+060009999GF199999031051004501001021MA1100511096091MD1710131+9999MW1031OA149900821REMSYN029 333 83615 85070 91116 91210;MET008NEW NOSIEQDQ01+000062SCOTCVQ02+000000PRSWM2
0179065900999991996011113004+49617+006217SY-MT+0379ELLX V0201301N00361060001CN0150001N1+00621+00421100501ADDAG10999GA1021+012009999GA2071+060009999GF107991041051012501031021MA1100311095991MD1710201+9999OA149900821REMSYN029 333 84640 85070 91116 91209;MET008NEW NOSIEQDQ01+000000PRSWM2
0187065900999991996011114004+49617+006217SY-MT+0379ELLX V0201401N00361060001CN0140001N1+00691+00401100401ADDAG10999GA1041+030009039GA2051+060009009GF107991041001999999031021MA1100311095911MD1710231+9999OA149900821REMSYN029 333 84360 85070 91116 91211;MET016NEW CAVOK NOSIG;EQDQ01+000000PRSWM2
0187065900999991996011115004+49617+006217SY-MT+0379ELLX V0201301N00361060001CN0150001N1+00731+00431100351ADDAG10000GA1041+030009039GA2051+060009009GF107991041001999999031021MA1100201095871MD1710221+9999OA149900821REMSYN029 333 84360 85070 91116 91211;MET016NEW CAVOK NOSIG;EQDQ01+000000PRSWM2
0187065900999991996011116004+49617+006217SY-MT+0379ELLX V0201501N00461060001CN0150001N1+00701+00411100351ADDAG10999GA1041+030009039GA2061+060009009GF107991041001999999031021MA1100201095861MD1710131+9999OA149900721REMSYN029 333 84360 86070 91114 91209;MET016NEW CAVOK NOSIG;EQDQ01+000000PRSWM2
0179065900999991996011117004+49617+006217SY-MT+0379ELLX V0201401N00361030001CN0150001N1+00691+00441100321ADDAG10999GA1021+006009999GA2071+030009999GF107991031051008001071999MA1100201095831MD1710081+9999OA149900671REMSYN029 333 83620 87460 91113 91209;MET008NEW NOSIEQDQ01+000000PRSWM2
0209065900999991996011118004+49617+006217SY-MT+0379ELLX V0201401N00411030001CN0200001N1+00691+00461100301ADDAA106000091AG10000GA1021+006009999GA2071+030009999GF107991021051008001071999KA1120M+00751MA1100201095811MD1710061+9999OA149900821REMSYN035 333 10075 82620 87460 91116 91211;MET008NEW NOSIEQDQ01+000000PRSWM2
0179065900999991996011119004+49617+006217SY-MT+0379ELLX V0201401N00361030001CN0200001N1+00671+00421100301ADDAG10999GA1021+006009999GA2071+030009999GF107991021051008001071999MA1100201095811MD1610051+9999OA149900721REMSYN029 333 82620 87460 91114 91209;MET008NEW NOSIEQDQ01+000000PRSWM2
0201065900999991996011120004+49617+006217SY-MT+0379ELLX V0201401N00361030001CN0200001N1+00691+00421100251ADDAG10999AY121021AY221021GA1021+012009999GA2071+030009999GF107991031051012501071999MA1100101095761MD1810071+9999MW1211OA149900771REMSYN029 333 83640 87460 91115 91208;MET008NEW NOSIEQDQ01+000000PRSWM2
0201065900999991996011121004+49617+006217SY-MT+0379ELLX V0201501N00311009901CN0180001N1+00681+00381100261ADDAG10001AY161031AY221031GA1071+009909999GA2071+030009999GF107991061051008001071999MA1100101095771MD1510041+9999MW1021OA149900771REMSYN029 333 86633 87460 91115 91209;MET008NEW NOSIEQDQ01+000000PRSWM2
0179065900999991996011122004+49617+006217SY-MT+0379ELLX V0201401N00361007501CN0180001N1+00701+00381100231ADDAG10999GA1071+007509999GA2071+030009999GF107991061051008001071999MA1100101095751MD1810061+9999OA149900671REMSYN029 333 85625 87460 91113 91209;MET008NEW NOSIEQDQ01+000000PRSWM2
0201065900999991996011123004+49617+006217SY-MT+0379ELLX V0201601N00311013501CN0180001N1+00721+00431100211ADDAG10999GA1021+006009999GA2071+013509999GA3071+030009999GF107991061051008001071999MA1100101095731MD1810031+9999OA149900621REMSYN035 333 83620 85645 87460 91112 91208;MET008NEW NOSIEQDQ01+000000PRSWM2
0228065900999991996011200004+49617+006217SY-MT+0379ELLX V0201601N00311012001CN0180001N1+00711+00421100201ADDAA106999929AG10001AY161061AY221061GA1021+007509999GA2071+012009999GA3071+030009999GF107991071051008001999999MA1100101095721MD1710051+9999MW1021OA149900771REMSYN029 333 83625 86640 91115 91209;MET008NEW NOSIEQDQ01+000000PRSWM2
0106065900999991996011201004+49617+006217SY-MT+0379ELLX V0201801N00261999999CN0100001N1+00681+00431100211ADDAG10999MA1100101095721MD1610031+9999OA149900511REMSYN017 333 91110 91206;MET005NEW ;EQDQ01+000000PRSWM2
0106065900999991996011202004+49617+006217SY-MT+0379ELLX V0201701N00311999999CN0100001N1+00711+00531100221ADDAG10999MA1100101095741MD1310011+9999OA149900571REMSYN017 333 91111 91207;MET005NEW ;EQDQ01+000000PRSWM2
0157065900999991996011203004+49617+006217SY-MT+0379ELLX V0201801N00461009001CN0120001N1+00771+00581100251ADDAG10000GA1071+009009999GF107991071051008001999999MA1100101095781MD1310061+9999OA149900721REMSYN023 333 87630 91114 91210;MET008NEW NOSIEQDQ01+000000PRSWM2
0157065900999991996011204004+49617+006217SY-MT+0379ELLX V0201701N00411010501CN0150001N1+00741+00541100251ADDAG10999GA1071+010509999GF107991071051012501999999MA1100101095771MD1010051+9999OA149900821REMSYN023 333 87635 91116 91210;MET008NEW NOSIEQDQ01+000000PRSWM2
0157065900999991996011205004+49617+006217SY-MT+0379ELLX V0201601N00311011401CN0120001N1+00721+00551100311ADDAG10999GA1071+011409999GF107991071051012501999999MA1100201095831MD1310091+9999OA149900511REMSYN023 333 87638 91110 91207;MET008NEW NOSIEQDQ01+000000PRSWM2
0233065900999991996011206004+49617+006217SY-MT+0379ELLX V0201701N00361015001CN0150001N1+00651+00511100371ADDAA199999929AG10000GA1021+012009999GA2071+015009999GF107991071051012501999999IA1099IA2999+00409KA1120N+00651MA1100201095871MD1310091+9999OA149900821REMSYN041 333 20065 31004 84640 87650 91116 91210;MET008NEW NOSIEQDQ01+000000PRSWM2
0165065900999991996011207004+49617+006217SY-MT+0379ELLX V0201701N00361036001CN0100001N1+00681+00511100381ADDAG10999GA1041+015009059GF105991041051017501031021MA1100201095891MD1210121+9999OA149900821REMSYN023 333 84650 91116 91210;MET016NEW CAVOK NOSIG;EQDQ01+000000PRSWM2
0187065900999991996011208004+49617+006217SY-MT+0379ELLX V0201601N00311030001CN0150001N1+00651+00481100421ADDAG10999GA1031+015009059GA2041+030009039GF106991031051017501031021MA1100311095921MD1210091+9999OA149900671REMSYN029 333 83650 84360 91113 91208;MET016NEW CAVOK NOSIG;EQDQ01+000000PRSWM2
0179065900999991996011209004+49617+006217SY-MT+0379ELLX V0201601N00361030001CN0180001N1+00671+00491100441ADDAG10000GA1031+015009059GA2061+030009039GF107991031051017501031999MA1100311095941MD1210071+9999OA149900821REMSYN029 333 83650 86360 91116 91210;MET008NEW CAVOEQDQ01+000000PRSWM2
0201065900999991996011210004+49617+006217SY-MT+0379ELLX V0201701N00361030001CN0150001N1+00711+00571100501ADDAG10999GA1021+003609999GA2021+012009999GA3071+030009999GF107991051051004501031999MA1100411096011MD1210121+9999OA149900621REMSYN035 333 82612 83640 86360 91112 91209;MET008NEW NOSIEQDQ01+000000PRSWM2
0217065900999991996011211004+49617+006217SY-MT+0379ELLX V0201701N00461030001CN0150001N1+00791+00621100481ADDAG10999GA1021+003609999GA2021+012009999GA3071+030009999GF199999051051004501031001MA1100411096001MD1010081+9999OA149901241REMSYN035 333 83612 83640 85360 91124 91210;MET008NEW NOSIEQDQ01+000062SCOTCVQ02+000000PRSWM2
0199065900999991996011212004+49617+006217SY-MT+0379ELLX V0201701N00361006001CN0150001N1+00781+00661100511ADDAA106999929AG10001AY121061AY221061GA1021+003009999GA2071+006009999GF107991071051004501999999MA1100411096031MD1310091+9999MW1601MW2611OA149901241REMSYN029 333 84710 87620 91124 91210;MET008NEW NOSI
0201065900999991996011213004+49617+006217SY-MT+0379ELLX V0201501N00361006001CN0150001N1+00801+00681100471ADDAG10999AY121011AY221011GA1021+003009999GA2071+006009999GF107991071051004501999999MA1100311095991MD1810021+9999MW1211OA149900621REMSYN029 333 83710 87620 91112 91207;MET008NEW NOSIEQDQ01+000000PRSWM2
0179065900999991996011214004+49617+006217SY-MT+0379ELLX V0201601N00411001801CN0100001N1+00821+00701100511ADDAG10999GA1071+001809999GA2071+003009999GF107991071051001501999999MA1100411096031MD1310031+9999OA149900621REMSYN029 333 85706 87610 91112 91208;MET008NEW NOSIEQDQ01+000000PRSWM2
0188065900999991996011215004+49617+006217SY-MT+0379ELLX V0201601N00361003601CN0100001N1+00781+00691100621ADDAG10002AY161031AY221031GA1071+003609999GA2071+010509999GF108991071051004501999999MA1100511096131MD1310101+9999MW1601MW2611OA149900671REMSYN029 333 85612 87635 91113 91209;MET008NEW NOSI
0182065900999991996011216004+49617+006217SY-MT+0379ELLX V0201701N00361005701CN0130001N1+00771+00651100681ADDAG10999AY161011AY261011GA1071+005709999GA2071+012009999GF107991071051004501999999MA1100611096191MD1210201+9999MW1611OA149900621REMSYN029 333 85619 87640 91112 91207;MET008NEW NOSI
0160065900999991996011217004+49617+006217SY-MT+0379ELLX V0201701N00361003601CN0200001N1+00761+00621100751ADDAG10999AY161021AY261021GA1071+003609999GF107991071051004501999999MA1100611096251MD1210221+9999MW1611OA149900981REMSYN023 333 87614 91119 91211;MET008NEW NOSI
0217065900999991996011218004+49617+006217FM-12+0379ELLX V0201701N00211013501CN0150001N1+00691+00621100791ADDAA199999929AG10001AY161061AY221061GA1031+004509059GA2071+013509059GF107991071051004501999999KA1120M+00851MA1100641096281MD1210151+9999MW1211OA149900981REMSYN035 333 10085 83615 87645 91119 91211;EQDQ01+999990APOA  
0179065900999991996011219004+49617+006217SY-MT+0379ELLX V0201601N00311018001CN0150001N1+00701+00611100871ADDAG10999GA1021+012009999GA2071+018009999GF107991071051008001999999MA1100711096361MD1210171+9999OA149900721REMSYN029 333 84625 87640 91114 91206;MET008NEW NOSIEQDQ01+000000PRSWM2
0157065900999991996011220004+49617+006217SY-MT+0379ELLX V0201701N00361012601CN0150001N1+00731+00611100931ADDAG10999GA1071+012609999GF107991071051012501999999MA1100811096421MD1210171+9999OA149900621REMSYN023 333 87642 91112 91208;MET008NEW NOSIEQDQ01+000000PRSWM2
0125065900999991996011221204+49617+006217FM-15+0379ELLX V0201801N00261009001CN0112651N1+00701+00601101061ADDAG10000GA1021+003609999GA2071+009009999MA1100911096541REMMET008NEW NOSIEQDQ01+999990APOSP Q02+999990APOSLPQ03+000000PRSWM2
0157065900999991996011222004+49617+006217SY-MT+0379ELLX V0201701N00211003601CN0150001N1+00711+00621101051ADDAG10999GA1071+003609999GF107991071051004501999999MA1100911096531MD1210171+9999OA149900511REMSYN023 333 87612 91110 91207;MET008NEW NOSIEQDQ01+000000PRSWM2
0179065900999991996011223004+49617+006217SY-MT+0379ELLX V0201901N00261003601CN0120001N1+00681+00611101081ADDAG10999GA1021+002409999GA2071+003609999GF107991071051004501999999MA1101021096561MD1210141+9999OA149900411REMSYN029 333 82612 87626 91108 91206;MET008NEW NOSIEQDQ01+000000PRSWM2
0212065900999991996011300004+49617+006217SY-MT+0379ELLX V0201701N00311003601CN0060001N1+00651+00591101151ADDAA106999929AG10001AY161061AY221061GA1021+001809999GA2071+003609999GF107991071051001501999999MA1101021096621MD1210131+9999MW1021OA149900721REMSYN029 333 84706 87612 91114 91208;MET008NEW NOSIEQDQ01+000000PRSWM2
0106065900999991996011301004+49617+006217SY-MT+0379ELLX V0202201N00261999999CN0070001N1+00661+00621101201ADDAG10999MA1101081096671MD1210141+9999OA149900511REMSYN017 333 91110 91207;MET005NEW ;EQDQ01+000000PRSWM2
0106065900999991996011302004+49617+006217SY-MT+0379ELLX V0202201N00311999999CN0100001N1+00541+00471101281ADDAG10999MA1101081096721MD1210161+9999OA149900771REMSYN017 333 91115 91210;MET005NEW ;EQDQ01+000000PRSWM2
0117065900999991996011303004+49617+006217SY-MT+0379ELLX V0201801N00211999999CN0019001N1+00541+00511101351ADDAG10000ED199U20009MA1101191096791MD1210171+9999OA149900771REMSYN017 333 91115 91210;MET005NEW ;EQDQ01+000000PRSWM2
0157065900999991996011304004+49617+006217SY-MT+0379ELLX V0201601N00261003001CN0080001N1+00591+00551101401ADDAG10999GA1071+003009999GF107991071051004501999999MA1101191096851MD1210181+9999OA149900361REMSYN023 333 87610 91107 91206;MET008NEW NOSIEQDQ01+000000PRSWM2
0217065900999991996011305004+49617+006217SY-MT+0379ELLX V0201601N00211003001CN0040001N1+00471+00441101471ADDAG10999AY121021AY221021GA1021+001809999GA2071+003009999GF199999051051001501001021MA1101291096891MD1210171+9999MW1101OA149900361REMSYN029 333 82706 85610 91107 91205;MET008NEW NOSIEQDQ01+000052SCOTCVQ02+000000PRSWM2
0244065900999991996011306004+49617+006217SY-MT+0379ELLX V0201601N00261000601CN0010001N1+00481+00451101541ADDAA199999929AG10000AY121061AY221061ED199U20009GA1071+000609999GF199999061061000751999999IA1099IA2999+00109KA1120N+00381MA1101391096961MD1210171+9999MW1101OA149900771REMSYN035 333 20038 31001 86702 91115 91210;MET008NEW NOSIEQDQ01+000062SCOTCV
0182065900999991996011307004+49617+006217SY-MT+0379ELLX V0201801N00311000901CN0025001N1+00521+00491101651ADDAG10999AY121011AY221011GA1021+000309999GA2071+000909999GF108991081061000251999999MA1101491097071MD1210221+9999MW1101OA149900511REMSYN029 333 84701 87703 91110 91206;MET008NEW NOSI
0177065900999991996011308004+49617+006217SY-MT+0379ELLX V0202201N00261000301CN0001001N1+00471+00471101721ADDAG10999AY141021AY221021ED199U04509GA1071+000309999GF108991071061000251999999MA1101491097131MD1210241+9999MW1441MW2461OA149900461REMSYN023 333 87701 91109 91207;MET008NEW NOSI
0183065900999991996011309004+49617+006217SY-MT+0379ELLX V0202001N00261000301CN0001001N1+00461+00461101791ADDAG10000AY141031AY221031ED199U04009GA1071+000309999GF107991071061000251999999MA1101591097201MD1210241+9999MW1441OA149900511REMSYN023 333 87701 91110 91207;MET020NEW BECMG 1500 BKN00
0189065900999991996011310004+49617+006217SY-MT+0379ELLX V0201601N00211000301CN0003001N1+00501+00501101841ADDAG10999AY141011AY241011ED199U04509GA1071+000309999GF107991071061000251999999MA1101691097251MD1210181+9999MW1421MW2441OA149900411REMSYN023 333 87701 91108 91206;MET020NEW BECMG 0800 BKN00
0177065900999991996011311004+49617+006217SY-MT+0379ELLX V0201801N00261000301CN0001001N1+00491+00491101891ADDAG10999AY141021AY241021ED199U18009GA1071+000309999GF107991071061000251999999MA1101691097301MD1210171+9999MW1441MW2461OA149900511REMSYN023 333 87701 91110 91207;MET008NEW NOSI
0196065900999991996011312004+49617+006217SY-MT+0379ELLX V0202101N00211000301CN0005001N1+00551+00551101851ADDAA106000091AG10000AY141061AY221061GA1071+000309999GF199999061061000251001001MA1101691097271MD1010071+9999MW1421MW2441OA149900511REMSYN023 333 86701 91110 91207;MET008NEW NOSIEQDQ01+000062SCOTCV
0196065900999991996011313004+49617+006217SY-MT+0379ELLX V0201801N00151000601CN0012001N1+00601+00571101841ADDAG10999AY121011AY221011ED199U19009GA1071+000609999GF199999061061000751001001MA1101691097271MD1010021+9999MW1101MW2281OA149900311REMSYN023 333 86702 91106 91204;MET008NEW NOSIEQDQ01+000062SCOTCV
0166065900999991996011314004+49617+006217SY-MT+0379ELLX V0201701N00151000301CN0001001N1+00551+00551101881ADDAG10999AY121021AY221021GA1071+000309999GF107991071061000251999999MA1101691097301MD1510001+9999MW1441MW2461OA149900411REMSYN023 333 87701 91108 91205;MET008NEW NOSI
0171065900999991996011315004+49617+006217SY-MT+0379ELLX V0201801N00101000301CN0001001N1+00541+00541101901ADDAG10000AY141031AY221031ED199U02759GA1071+000309999GF107991071061000251999999MA1101691097321MD1310051+9999MW1441OA149900411REMSYN023 333 87701 91108 91205;MET008NEW NOSI
0171065900999991996011316004+49617+006217SY-MT+0379ELLX V0201601N00151000301CN0001001N1+00471+00471101941ADDAG10999AY141011AY241011ED199U03009GA1071+000309999GF107991071061000251999999MA1101691097341MD1210071+9999MW1441OA149900361REMSYN023 333 87701 91107 91204;MET008NEW NOSI
0171065900999991996011317004+49617+006217SY-MT+0379ELLX V0209991C00001000301CN0001001N1+00461+00461101981ADDAG10999AY141021AY241021ED199U02759GA1081+000309999GF108991071061000251999999MA1101801097381MD1210081+9999MW1441OA149900411REMSYN023 333 88701 91108 91205;MET008NEW NOSI
0201065900999991996011318004+49617+006217SY-MT+0379ELLX V0201401N00211000301CN0001001N1+00451+00451102011ADDAA106000091AG10000AY141061AY221061ED199U02259GA1081+000309999GF108991081061000251999999KA1120M+00641MA1101801097411MD1210091+9999MW1441OA149900411REMSYN029 333 10064 88701 91108 91205;MET008NEW NOSI
0171065900999991996011319004+49617+006217SY-MT+0379ELLX V0201201N00101000301CN0001001N1+00441+00441102041ADDAG10999AY141011AY241011ED199U02259GA1081+000309999GF108991081061000251999999MA1101801097431MD1210091+9999MW1441OA149900311REMSYN023 333 88701 91106 91204;MET008NEW NOSI
0110065900999991996011320204+49617+006217FM-15+0379ELLX V0200801N00151000301CN0001001N1+00401+00401102101ADDAG10999ED199U02259GA1081+000309999MA1101901097491MW1441REMMET008NEW NOSIEQDQ01+999990APOSP Q02+999990APOSLP
0171065900999991996011321004+49617+006217SY-MT+0379ELLX V0201101N00051000301CN0001001N1+00411+00411102091ADDAG10000AY141031AY241031ED199U02509GA1081+000309999GF108991081061000251999999MA1101901097481MD1210071+9999MW1441OA149900261REMSYN023 333 88701 91105 91203;MET008NEW NOSI
0171065900999991996011322004+49617+006217SY-MT+0379ELLX V0200701N00101000301CN0001001N1+00391+00391102131ADDAG10999AY141011AY241011ED199U02009GA1081+000309999GF108991081061000251999999MA1101901097511MD1210081+9999MW1441OA149900211REMSYN023 333 88701 91104 91202;MET008NEW NOSI
0171065900999991996011323004+49617+006217SY-MT+0379ELLX V0200701N00211000301CN0001001N1+00341+00341102151ADDAG10999AY141021AY241021ED199U02009GA1081+000309999GF108991081061000251999999MA1101901097521MD1210071+9999MW1441OA149900311REMSYN023 333 88701 91106 91204;MET008NEW NOSI
0182065900999991996011400004+49617+006217SY-MT+0379ELLX V0200601N00261000301CN0001001N1+00311+00311102141ADDAA106000091AG10000AY141061AY241061ED199U02009GA1081+000309999GF108991081061000251999999MA1101901097511MD1010031+9999MW1441OA149900311REMSYN023 333 88701 91106 91206;MET008NEW NOSI
0117065900999991996011401004+49617+006217SY-MT+0379ELLX V0200401N00151999999CN0000001N1+00271+00271102161ADDAG10999ED199U02009MA1101901097521MD1310011+9999OA149900261REMSYN017 333 91105 91204;MET005NEW ;EQDQ01+000000PRSWM2
0117065900999991996011402004+49617+006217SY-MT+0379ELLX V0200501N00211999999CN0000001N1+00181+00181102201ADDAG10999ED199U02259MA1102001097541MD1310021+9999OA149900261REMSYN017 333 91105 91204;MET005NEW ;EQDQ01+000000PRSWM2
0196065900999991996011403004+49617+006217SY-MT+0379ELLX V0200501N00261000301CN0002001N1+00131+00131102201ADDAG10000AY141031AY241031ED199U02259GA1071+000309999GF199999061061000251001021MA1102001097541MD1110031+9999MW1421MW2441OA149900311REMSYN023 333 86601 91106 91205;MET008NEW NOSIEQDQ01+000062SCOTCV
0196065900999991996011404004+49617+006217SY-MT+0379ELLX V0200501N00311000301CN0001001N1+00121+00121102191ADDAG10999AY141011AY241011ED199U02259GA1071+000309999GF199999061061000251001021MA1101901097521MD1010001+9999MW1441MW2461OA149900361REMSYN023 333 86701 91107 91206;MET008NEW NOSIEQDQ01+000062SCOTCV
0171065900999991996011405004+49617+006217SY-MT+0379ELLX V0200501N00151000301CN0001001N1+00101+00101102201ADDAG10999AY141021AY241021ED199U02259GA1071+000309999GF107991071061000251999999MA1101901097531MD1510011+9999MW1441OA149900311REMSYN023 333 87701 91106 91205;MET008NEW NOSI
0231065900999991996011406004+49617+006217SY-MT+0379ELLX V0200401N00211220001CN0008001N1+00181+00181102171ADDAA106000091AG10000AY141061AY241061ED199U03009GA1021+000309999GF102991021061000251001001IA1099IA2999+00009KA1120N+00071MA1101901097521MD1810021+9999MW1421MW2441OA149900361REMSYN035 333 20007 31000 82701 91107 91206;MET008NEW NOSI
0166065900999991996011407004+49617+006217SY-MT+0379ELLX V0200301N00261220001CN0021001N1+00211+00201102181ADDAG10999AY121011AY221011GA1021+060009999GF103991001001999999001021MA1101901097531MD1310011+9999MW1101MW2281OA149900411REMSYN023 333 83070 91108 91206;MET008NEW NOSI
0160065900999991996011408004+49617+006217SY-MT+0379ELLX V0200601N00361220001CN0021001N1+00211+00201102191ADDAG10999AY101021AY201021GA1021+060009999GF103991001001999999001021MA1102001097541MD1310011+9999MW1101OA149900461REMSYN023 333 83070 91109 91208;MET008NEW NOSI
0171065900999991996011409004+49617+006217SY-MT+0379ELLX V0200501N00211220001CN0021001N1+00241+00231102221ADDAG10000AY141031AY201031ED199U20009GA1021+060009999GF104991001001999999001021MA1102001097571MD1210051+9999MW1101OA149900461REMSYN023 333 84070 91109 91208;MET008NEW NOSI
0185065900999991996011410004+49617+006217SY-MT+0379ELLX V0200601N00261000601CN0001001N1+00121+00121102281ADDAG10999AY141011AY211011GA1071+000609999GF199999051061000751001021MA1102001097611MD1210081+9999MW1441MW2461OA149900411REMSYN023 333 85702 91108 91206;MET008NEW NOSIEQDQ01+000052SCOTCV
0190065900999991996011411004+49617+006217SY-MT+0379ELLX V0200601N00211000601CN0001001N1+00191+00191102211ADDAG10999AY141021AY241021ED199U01509GA1071+000609999GF199999051061000751001021MA1102001097561MD1010021+9999MW1441OA149900361REMSYN023 333 85702 91107 91206;MET008NEW NOSIEQDQ01+000062SCOTCV
0182065900999991996011412004+49617+006217SY-MT+0379ELLX V0201301N00101000301CN0001001N1+00141+00141102231ADDAA106000091AG10000AY141061AY221061ED199U01509GA1071+000309999GF107991071061000251999999MA1102001097571MD1510001+9999MW1441OA149900461REMSYN023 333 87701 91109 91208;MET008NEW NOSI
0171065900999991996011413004+49617+006217SY-MT+0379ELLX V0201001N00151000301CN0001001N1+00161+00161102221ADDAG10999AY141011AY241011ED199U02009GA1071+000309999GF107991071061000251999999MA1102001097561MD1810051+9999MW1441OA149900411REMSYN023 333 87701 91108 91204;MET008NEW NOSI
0171065900999991996011414004+49617+006217SY-MT+0379ELLX V0201401N00211000301CN0001001N1+00171+00171102221ADDAG10999AY141021AY241021ED199U02009GA1071+000309999GF108991071061000251999999MA1102001097561MD1010001+9999MW1441OA149900461REMSYN023 333 87701 91109 91205;MET008NEW NOSI
0171065900999991996011415004+49617+006217SY-MT+0379ELLX V0201301N00211000301CN0001001N1+00121+00121102261ADDAG10000AY141031AY241031ED199U03759GA1071+000309999GF108991071061000251999999MA1102001097591MD1310021+9999MW1441OA149900461REMSYN023 333 87701 91109 91205;MET008NEW NOSI
0177065900999991996011416004+49617+006217SY-MT+0379ELLX V0201301N00261000301CN0002001N1+00031+00031102281ADDAG10999AY141011AY241011ED199U09009GA1071+000309999GF108991071061000251999999MA1102001097601MD1310041+9999MW1421MW2441OA149900461REMSYN023 333 87701 91109 91206;MET008NEW NOSI
0171065900999991996011417004+49617+006217SY-MT+0379ELLX V0201301N00261000301CN0002001N1+00001+00001102331ADDAG10999AY141021AY241021ED199U11009GA1071+000309999GF108991071061000251999999MA1102101097641MD1210081+9999MW1441OA149900571REMSYN023 333 87701 91111 91207;MET008NEW NOSI
0207065900999991996011418004+49617+006217SY-MT+0379ELLX V0201301N00311000301CN0001001N1-00061-00061102391ADDAA106000091AG10000AY141061AY241061ED199U07009GA1071+000309999GF108991071061000251999999KA1120M+00301MA1102101097691MD1210101+9999MW1441MW2481OA149900621REMSYN029 333 10030 87701 91112 91207;MET008NEW NOSI
0171065900999991996011419004+49617+006217SY-MT+0379ELLX V0201101N00211000301CN0001001N1-00061-00061102441ADDAG10999AY141011AY241011ED199U05009GA1081+000309999GF108991081061000251999999MA1102201097731MD1210131+9999MW1481OA149900461REMSYN023 333 88701 91109 91206;MET008NEW NOSI
0171065900999991996011420004+49617+006217SY-MT+0379ELLX V0201301N00311000301CN0001001N1-00061-00061102491ADDAG10999AY141021AY241021ED199U04509GA1081+000309999GF108991081061000251999999MA1102201097781MD1210141+9999MW1481OA149900511REMSYN023 333 88701 91110 91207;MET008NEW NOSI
0171065900999991996011421004+49617+006217SY-MT+0379ELLX V0201101N00261000301CN0001001N1-00051-00051102511ADDAG10000AY141031AY241031ED199U05009GA1081+000309999GF108991081061000251999999MA1102201097801MD1210111+9999MW1481OA149900511REMSYN023 333 88701 91110 91207;MET008NEW NOSI
0171065900999991996011422004+49617+006217SY-MT+0379ELLX V0201201N00361000301CN0001001N1-00031-00031102551ADDAG10999AY141011AY241011ED199U03759GA1081+000309999GF108991081061000251999999MA1102301097841MD1210111+9999MW1481OA149900511REMSYN023 333 88701 91110 91207;MET008NEW NOSI
0171065900999991996011423004+49617+006217SY-MT+0379ELLX V0201201N00361000301CN0001001N1-00031-00031102581ADDAG10999AY141021AY241021ED199U05009GA1081+000309999GF108991081061000251999999MA1102301097871MD1210091+9999MW1481OA149900511REMSYN023 333 88701 91110 91207;MET008NEW NOSI
0182065900999991996011500004+49617+006217SY-MT+0379ELLX V0201201N00211000301CN0001001N1-00031-00031102611ADDAA106000091AG10000AY141061AY241061ED199U04509GA1081+000309999GF108991081061000251999999MA1102301097901MD1210101+9999MW1481OA149900511REMSYN023 333 88701 91110 91208;MET008NEW NOSI
0117065900999991996011501004+49617+006217SY-MT+0379ELLX V0201201N00261999999CN0001001N1-00041-00041102641ADDAG10999ED199U03759MA1102401097931MD1210091+9999OA149900411REMSYN017 333 91108 91205;MET005NEW ;EQDQ01+000000PRSWM2
0117065900999991996011502004+49617+006217SY-MT+0379ELLX V0201101N00211999999CN0000001N1-00031-00031102661ADDAG10999ED199U02509MA1102401097951MD1210081+9999OA149900361REMSYN017 333 91107 91205;MET005NEW ;EQDQ01+000000PRSWM2
0171065900999991996011503004+49617+006217SY-MT+0379ELLX V0201101N00211000301CN0000001N1-00051-00051102691ADDAG10000AY141031AY241031ED199U02759GA1081+000309999GF108991081061000251999999MA1102401097971MD1210071+9999MW1481OA149900411REMSYN023 333 88701 91108 91205;MET008NEW NOSI
0171065900999991996011504004+49617+006217SY-MT+0379ELLX V0200901N00211000301CN0000001N1-00061-00061102711ADDAG10999AY141011AY241011ED199U02509GA1081+000309999GF108991081061000251999999MA1102401097991MD1210061+9999MW1481OA149900311REMSYN023 333 88701 91106 91204;MET008NEW NOSI
0171065900999991996011505004+49617+006217SY-MT+0379ELLX V0201401N00261000301CN0000001N1-00061-00061102751ADDAG10999AY141021AY241021ED199U02509GA1081+000309999GF108991081061000251999999MA1102511098031MD1210081+9999MW1481OA149900361REMSYN023 333 88701 91107 91205;MET008NEW NOSI
0225065900999991996011506004+49617+006217SY-MT+0379ELLX V0201101N00261000301CN0001001N1-00061-00061102801ADDAA106000091AG10000AY141061AY241061ED199U02759GA1081+000309999GF108991081061000251999999IA1099IA2999+00009KA1120N-00071MA1102511098081MD1210111+9999MW1481OA149900411REMSYN035 333 21007 31000 88701 91108 91205;MET008NEW NOSI
0171065900999991996011507004+49617+006217SY-MT+0379ELLX V0201101N00211000301CN0002001N1-00041-00041102831ADDAG10999AY141011AY241011ED199U03509GA1081+000309999GF108991081061000251999999MA1102511098111MD1210121+9999MW1481OA149900411REMSYN023 333 88701 91108 91205;MET008NEW NOSI
0177065900999991996011508004+49617+006217SY-MT+0379ELLX V0201101N00211000301CN0001001N1-00041-00041102891ADDAG10999AY141021AY241021ED199U03009GA1081+000309999GF108991081061000251999999MA1102611098171MD1210141+9999MW1441MW2481OA149900411REMSYN023 333 88701 91108 91205;MET008NEW NOSI
0177065900999991996011509004+49617+006217SY-MT+0379ELLX V0201201N00151000301CN0001001N1-00041-00041102941ADDAG10000AY141031AY241031ED199U02509GA1081+000309999GF108991081061000251999999MA1102611098211MD1210131+9999MW1441MW2481OA149900411REMSYN023 333 88701 91108 91205;MET008NEW NOSI
0177065900999991996011510004+49617+006217SY-MT+0379ELLX V0200801N00211000301CN0001001N1-00031-00031102951ADDAG10999AY141011AY241011ED199U01759GA1081+000309999GF108991081061000251999999MA1102711098221MD1210111+9999MW1441MW2481OA149900411REMSYN023 333 88701 91108 91206;MET008NEW NOSI
0177065900999991996011511004+49617+006217SY-MT+0379ELLX V0200901N00261000301CN0001001N1-00021-00021102941ADDAG10999AY141021AY241021ED199U01759GA1081+000309999GF108991081061000251999999MA1102711098221MD1110051+9999MW1441MW2481OA149900411REMSYN023 333 88701 91108 91207;MET008NEW NOSI
0182065900999991996011512004+49617+006217SY-MT+0379ELLX V0200901N00261000301CN0001001N1+00001+00001102941ADDAA106000091AG10000AY141061AY241061ED199U02009GA1081+000309999GF108991081061000251999999MA1102711098221MD1110011+9999MW1441OA149900821REMSYN023 333 88701 91116 91207;MET008NEW NOSI
0110065900999991996011514204+49617+006217FM-15+0379ELLX V0201201N00151000301CN0001001N1+00101+00101102971ADDAG10999ED199U09009GA1081+000309999MA1102711098271MW1441REMMET008NEW NOSIEQDQ01+999990APOSP Q02+999990APOSLP
0171065900999991996011515004+49617+006217SY-MT+0379ELLX V0201001N00151000301CN0001001N1+00081+00081102971ADDAG10000AY141031AY241031ED199U07009GA1081+000309999GF108991081061000251999999MA1102711098261MD1210041+9999MW1441OA149900671REMSYN023 333 88701 91113 91205;MET008NEW NOSI
0171065900999991996011516004+49617+006217SY-MT+0379ELLX V0201101N00211000301CN0001001N1+00071+00071102961ADDAG10999AY141011AY241011ED199U07509GA1081+000309999GF108991081061000251999999MA1102711098251MD1010021+9999MW1441OA149900361REMSYN023 333 88701 91107 91205;MET008NEW NOSI
0171065900999991996011517004+49617+006217SY-MT+0379ELLX V0201201N00211000301CN0001001N1+00071+00071103011ADDAG10999AY141021AY241021ED199U04009GA1081+000309999GF108991081061000251999999MA1102711098301MD1310061+9999MW1441OA149900361REMSYN023 333 88701 91107 91204;MET008NEW NOSI
0084065900999991996011518204+49617+006217FM-15+0379ELLX V0201001N00151000301CN0001001N1+99999+99999999999ADDAG10000ED199U02009GA1081+000309999KA1999M-02801MW1441REMMET019NEW 07011028 NOSIG;
0171065900999991996011519004+49617+006217SY-MT+0379ELLX V0201101N00151000301CN0001001N1+00041+00041103051ADDAG10999AY141011AY241011ED199U02259GA1081+000309999GF108991081061000251999999MA1102811098331MD1210081+9999MW1441OA149900361REMSYN023 333 88701 91107 91205;MET008NEW NOSI
0171065900999991996011520004+49617+006217SY-MT+0379ELLX V0201001N00151000301CN0001001N1+00011+00011103071ADDAG10999AY141021AY241021ED199U02259GA1081+000309999GF108991081061000251999999MA1102811098351MD1210051+9999MW1441OA149900361REMSYN023 333 88701 91107 91205;MET008NEW NOSI
0076065900999991996011520204+49617+006217FM-16+0379ELLX V0201001N00151999999CN0001081N1+99999+99999999999ADDAG10999REMMET038NEW 0200N FG OVC001 00/00 Q1028 NOSIG;EQDQ01+000000PRSWM2
0171065900999991996011521004+49617+006217SY-MT+0379ELLX V0201301N00151000301CN0001001N1-00011-00011103101ADDAG10000AY141031AY241031ED199U02259GA1081+000309999GF108991081061000251999999MA1102811098371MD1210051+9999MW1441OA149900361REMSYN023 333 88701 91107 91205;MET008NEW NOSI
0171065900999991996011522004+49617+006217SY-MT+0379ELLX V0201001N00151000301CN0001001N1-00031-00031103121ADDAG10999AY141011AY241011ED199U02259GA1081+000309999GF108991081061000251999999MA1102811098391MD1210061+9999MW1441OA149900311REMSYN023 333 88701 91106 91204;MET008NEW NOSI
0171065900999991996011523004+49617+006217SY-MT+0379ELLX V0201001N00101000301CN0001001N1-00031-00031103141ADDAG10999AY141021AY241021ED199U02009GA1081+000309999GF108991081061000251999999MA1102911098411MD1210061+9999MW1441OA149900261REMSYN023 333 88701 91105 91204;MET008NEW NOSI
0128065900999991996011600004+49617+006217SY-MT+0379ELLX V0201001N00151999999CN0000001N1-00091-00091103171ADDAA106000091AG10000ED199U03009MA1102911098421MD1210051+9999OA149900361REMSYN017 333 91107 91205;MET005NEW ;EQDQ01+000000PRSWM2
0120065900999991996011601004+49617+006217SY-MT+0379ELLX V0201001N00211999999CN0001001N1-00081-00081103171ADDAG10999ED199U02509MA1102911098431MD1210041+9999OA149900261REMSYN017 333 91105 91204;MET008NEW NOSIEQDQ01+000000PRSWM2
