0043065900999991950010100004+49617+006200FM-12+038099999V0200501N00721220001CN0080001N9-00281-00501103021ADDAY101999GF100991001001999999001001MW1051
0056065900999991950010106004+49617+006200FM-12+038099999V0200501N00621220001CN0080001N9-00501-00611103141ADDAY101999GF100991001001999999001001KA1999N-00501MW1051
0043065900999991950010112004+49617+006200FM-12+038099999V0200501N00361220001CN0200001N9-00111-00891103261ADDAY111999GF101991001001999999001051MW1021
0056065900999991950010118004+49617+006200FM-12+038099999V0200301N00261220001CN0160001N9-00221-00891103301ADDAY101999GF101991001001999999001051KA1999M+00001MW1021
0043065900999991950010200004+49617+006200FM-12+038099999V0201801N00101220001CN0140001N9-00391-00891103341ADDAY101999GF102991001001999999041061MW1031
0056065900999991950010206004+49617+006200FM-12+038099999V0202701N00261220001CN0040001N9-00501-00781103101ADDAY121999GF105991001001999999001061KA1999N-00501MW1051
0043065900999991950010212004+49617+006200FM-12+038099999V0202501N00621000151CN0004001N9-00221-00221102691ADDAY141999GF109991091999000251999999MW1471
0056065900999991950010218004+49617+006200FM-12+038099999V0202501N00411000151CN0004001N9+00001+00001102191ADDAY151999GF109991091999000251999999KA1999M+00001MW1561
0043065900999991950010300004+49617+006200FM-12+038099999V0202701N00821000601CN0060001N9+00111+00111101781ADDAY151999GF108991081061000751999999MW1601
0056065900999991950010306004+49617+006200FM-12+038099999V0202901N00151007801CN0060001N9+00281+00281101621ADDAY161999GF107991071051008001999999KA1999N+00001MW1281
0043065900999991950010312004+49617+006200FM-12+038099999V0209991C00001012301CN0026001N9+00221+00221101651ADDAY141999GF108991081051012501999999MW1051
0056065900999991950010318004+49617+006200FM-12+038099999V0202001N00051004501CN0012001N9+00221+00111101461ADDAY161999GF108991071051004501021999KA1999M+00281MW1601
0043065900999991950010400004+49617+006200FM-12+038099999V0202901N00261004501CN0060001N9+00221+00221101341ADDAY161999GF108991081061004501999999MW1531
0056065900999991950010406004+49617+006200FM-12+038099999V0202901N00051001501CN0012001N9+00111+00111101381ADDAY151999GF108991081061001501999999KA1999N+00111MW1501
0043065900999991950010412004+49617+006200FM-12+038099999V0202701N00211001501CN0014001N9+00221+00221101391ADDAY151999GF108991081061001501999999MW1101
0056065900999991950010418004+49617+006200FM-12+038099999V0209991C00001000151CN0006001N9+00221+00221101321ADDAY161999GF109991091999000251999999KA1999M+00221MW1611
0043065900999991950010500004+49617+006200FM-12+038099999V0202701N00261000601CN0070001N9+00391+00391101211ADDAY161999GF108991081071000751999999MW1281
0056065900999991950010506004+49617+006200FM-12+038099999V0202501N00871004501CN0060001N9+00391+00281101191ADDAY151999GF107991071051004501999999KA1999N+00111MW1051
0043065900999991950010512004+49617+006200FM-12+038099999V0202501N00721004501CN0140001N9+00501+00281101131ADDAY161999GF107991071051004501999999MW1021
0056065900999991950010518004+49617+006200FM-12+038099999V0202301N00671004501CN0120001N9+00501+00391101061ADDAY161999GF108991081051004501999999KA1999M+00501MW1021
0043065900999991950010600004+49617+006200FM-12+038099999V0202301N00871004501CN0120001N9+00611+00391100871ADDAY121999GF108991081051004501999999MW1021
0056065900999991950010606004+49617+006200FM-12+038099999V0202501N00461220001CN0200001N9+00391+00221101041ADDAY161999GF101991011051008001001001KA1999N+00391MW1601
0043065900999991950010612004+49617+006200FM-12+038099999V0202501N00721004501CN0150001N9+00391+00111101491ADDAY121999GF106991061051004501999999MW1021
0056065900999991950010618004+49617+006200FM-12+038099999V0202301N00571220001CN0200001N9+00221+00111101631ADDAY121999GF101991001001999999001051KA1999M+00501MW1011
0043065900999991950010700004+49617+006200FM-12+038099999V0202501N00571220001CN0200001N9+00221+00111101791ADDAY121999GF108991001001999999001071MW1021
0056065900999991950010706004+49617+006200FM-12+038099999V0202301N00361220001CN0120001N9+00111+00001101901ADDAY121999GF108991001001999999001071KA1999N+00111MW1021
0043065900999991950010712004+49617+006200FM-12+038099999V0202301N004119999999N0200001N9+00391+00001102061ADDAY121999GF107991041051008001001061MW1011
0056065900999991950010718004+49617+006200FM-12+038099999V0202301N00461007801CN0200001N9+00501+00221102021ADDAY121999GF107991071051008001999999KA1999M+00501MW1021
0043065900999991950010800004+49617+006200FM-12+038099999V0201101N00051220001CN0140001N9+00111+00001102391ADDAY111999GF100991001001999999001001MW1001
0056065900999991950010806004+49617+006200FM-12+038099999V0201101N00261220001CN0090001N9+00001-00111102371ADDAY101999GF101991001001999999001051KA1999N+00001MW1051
0043065900999991950010812004+49617+006200FM-12+038099999V0200901N00101220001CN0060001N9+00501+00001102271ADDAY121999GF106991001001999999001061MW1051
0075065900999991950010818004+49617+006200FM-12+038099999V0201401N00101220001CN0040001N9+00281+00001102161ADDAY121999GF102991999001999999041001KA1999M+00611MW1051EQDQ01+000002SCOTLC
0043065900999991950010900004+49617+006200FM-12+038099999V0201801N00051220001CN0060001N9+00221-00111102021ADDAY121999GF107991001001999999071999MW1051
0056065900999991950010906004+49617+006200FM-12+038099999V0201401N00211220001CN0060001N9+00221-00221101841ADDAY121999GF107991001001999999071999KA1999N+00111MW1051
0043065900999991950010912004+49617+006200FM-12+038099999V0201601N00151220001CN0060001N9+00391+00111101791ADDAY121999GF107991001001999999041999MW1051
0056065900999991950010918004+49617+006200FM-12+038099999V0202001N00151220001CN0060001N9+00391+00221101951ADDAY121999GF104991001001999999071999KA1999M+00501MW1051
0043065900999991950011000004+49617+006200FM-12+038099999V0202001N00101220001CN0020001N9+00281+00281102271ADDAY121999GF107991001001999999031999MW1051
0056065900999991950011006004+49617+006200FM-12+038099999V0202501N00211012301CN0008001N9+00391+00391102611ADDAY141999GF108991081051012501999999KA1999N+00281MW1461
0043065900999991950011012004+49617+006200FM-12+038099999V0202501N00211000151CN0000001N9+00611+00611102891ADDAY141999GF109991091999000251999999MW1451
0056065900999991950011018004+49617+006200FM-12+038099999V0202001N00101000151CN0002001N9+00611+00611103051ADDAY151999GF109991091999000251999999KA1999M+00611MW1501
0043065900999991950011100004+49617+006200FM-12+038099999V0202301N00101000151CN0002001N9+00611+00611103141ADDAY151999GF109991091999000251999999MW1451
0056065900999991950011106004+49617+006200FM-12+038099999V0202301N00411000151CN0008001N9+00611+00611103141ADDAY141999GF109991091999000251999999KA1999N+00501MW1471
0043065900999991950011112004+49617+006200FM-12+038099999V0202501N00211000151CN0001001N9+00721+00721103271ADDAY141999GF109991091999000251999999MW1451
0056065900999991950011118004+49617+006200FM-12+038099999V0202501N00151000151CN0001001N9+00611+00611103341ADDAY141999GF109991091999000251999999KA1999M+00721MW1451
0043065900999991950011200004+49617+006200FM-12+038099999V0202501N00261000151CN0006001N9+00611+00611103431ADDAY151999GF109991091999000251999999MW1511
0056065900999991950011206004+49617+006200FM-12+038099999V0202501N00261000151CN0002001N9+00611+00611103351ADDAY151999GF109991091999000251999999KA1999N+00611MW1471
0043065900999991950011212004+49617+006200FM-12+038099999V0203401N00261007801CN0100001N9+00721+00611103451ADDAY141999GF106991061051008001001001MW1021
0056065900999991950011218004+49617+006200FM-12+038099999V0203201N00101220001CN0050001N9+00391+00221103611ADDAY111999GF100991001001999999001001KA1999M+00891MW1051
0043065900999991950011300004+49617+006200FM-12+038099999V0200201N00101220001CN0050001N9+00111+00111103621ADDAY101999GF100991001001999999001001MW1051
0056065900999991950011306004+49617+006200FM-12+038099999V0200401N00101220001CN0030001N9+00001-00111103461ADDAY141999GF104991041051012501001001KA1999N-00111MW1281
0043065900999991950011312004+49617+006200FM-12+038099999V0200901N00211220001CN0100001N9+00391+00111103191ADDAY121999GF105991001001999999001061MW1051
0056065900999991950011318004+49617+006200FM-12+038099999V0209991C00001220001CN0100001N9+00221+00111102981ADDAY121999GF104991041051012501001001KA1999M+00501MW1051
0043065900999991950011400004+49617+006200FM-12+038099999V0201601N00051220001CN0030001N9+00001+00001102991ADDAY121999GF100991001001999999001001MW1051
0056065900999991950011406004+49617+006200FM-12+038099999V0202501N00261000151CN0001001N9-00221-00221103011ADDAY141999GF109991091999000251999999KA1999N-00221MW1491
0043065900999991950011412004+49617+006200FM-12+038099999V0202501N00211000151CN0000001N9+00001+00001103151ADDAY141999GF109991091999000251999999MW1451
0056065900999991950011418004+49617+006200FM-12+038099999V0202501N00311000151CN0000001N9+00221+00221103251ADDAY141999GF109991091999000251999999KA1999M+00221MW1451
0043065900999991950011500004+49617+006200FM-12+038099999V0202501N00361000151CN0002001N9+00391+00391103191ADDAY151999GF109991091999000251999999MW1511
0056065900999991950011506004+49617+006200FM-12+038099999V0202301N00361000601CN0040001N9+00281+00281103071ADDAY151999GF108991081061000751999999KA1999N+00221MW1521
0043065900999991950011512004+49617+006200FM-12+038099999V0202301N00511002401CN0160001N9+00281+00281102951ADDAY151999GF108991081061002501999999MW1501
0056065900999991950011518004+49617+006200FM-12+038099999V0202301N00671000601CN0040001N9+00281+00281102631ADDAY151999GF108991081061000751999999KA1999M+00281MW1201
0043065900999991950011600004+49617+006200FM-12+038099999V0202501N00821001501CN0080001N9+00391+00391102261ADDAY151999GF108991081061001501999999MW1511
0056065900999991950011606004+49617+006200FM-12+038099999V0202501N00821001501CN0080001N9+00391+00391101691ADDAY161999GF108991081071001501999999KA1999N+00281MW1211
0043065900999991950011612004+49617+006200FM-12+038099999V0202901N00461001501CN0050001N9+00391+00281101231ADDAY161999GF108991081071001501999999MW1611
0056065900999991950011618004+49617+006200FM-12+038099999V0202701N00211001501CN0060001N9+00281+00221101171ADDAY161999GF106991061071001501999999KA1999M+00501MW1211
0043065900999991950011700004+49617+006200FM-12+038099999V0209991C00001001501CN0040001N9+00111+00001101321ADDAY181999GF108991081061001501999999MW1051
0056065900999991950011706004+49617+006200FM-12+038099999V0202401N00211002401CN0060001N9+00001+00001101301ADDAY121999GF108991081061002501999999KA1999N+00001MW1051
0043065900999991950011712004+49617+006200FM-12+038099999V0203201N00051004501CN0060001N9+00111+00111101551ADDAY161999GF108991081051004501999999MW1281
0056065900999991950011718004+49617+006200FM-12+038099999V0203401N00101004501CN0080001N9+00111+00111101821ADDAY181999GF108991081051004501999999KA1999M+00221MW1021
0043065900999991950011800004+49617+006200FM-12+038099999V0200201N00151004501CN0080001N9+00111+00001102111ADDAY151999GF108991081061004501999999MW1501
0056065900999991950011806004+49617+006200FM-12+038099999V0200501N00311002401CN0080001N9+00111+00001102351ADDAY181999GF108991081071002501999999KA1999N+00001MW1021
0043065900999991950011812004+49617+006200FM-12+038099999V0200301N00571007801CN0150001N9+00111-00221102711ADDAY121999GF105991051051008001999999MW1011
0056065900999991950011818004+49617+006200FM-12+038099999V0200501N00621004501CN0080001N9-00111-00281102871ADDAY121999GF108991081051004501999999KA1999M+00221MW1051
0043065900999991950011900004+49617+006200FM-12+038099999V0200301N00771004501CN0200001N9-00391-00781102981ADDAY121999GF108991081051004501999999MW1021
0056065900999991950011906004+49617+006200FM-12+038099999V0200501N00771004501CN0200001N9-00721-01281102981ADDAY171999GF106991061051004501999999KA1999N-00721MW1221
0043065900999991950011912004+49617+006200FM-12+038099999V0200501N00821220001CN0200001N9-00611-01281102901ADDAY171999GF103991031051008001001001MW1021
0056065900999991950011918004+49617+006200FM-12+038099999V0200501N00571220001CN0200001N9-00611-01281102851ADDAY101999GF100991001001999999001001KA1999M-00501MW1011
0043065900999991950012000004+49617+006200FM-12+038099999V0200501N00721007801CN0160001N9-00781-01221102691ADDAY121999GF108991081051008001999999MW1021
0056065900999991950012006004+49617+006200FM-12+038099999V0200501N00721007801CN0160001N9-00891-01281102671ADDAY121999GF107991071051008001999999KA1999N-01001MW1031
0043065900999991950012012004+49617+006200FM-12+038099999V0200501N00571004501CN0080001N9-00501-00891102581ADDAY121999GF107991071051004501999999MW1051
0056065900999991950012018004+49617+006200FM-12+038099999V0200501N00361220001CN0080001N9-00501-00891102631ADDAY121999GF104991041051008001001001KA1999M-00501MW1051
0043065900999991950012100004+49617+006200FM-12+038099999V0200501N00361007801CN0120001N9-00501-00781102751ADDAY121999GF108991081051008001999999MW1021
0056065900999991950012106004+49617+006200FM-12+038099999V0200501N00311004501CN0100001N9-00721-00781102831ADDAY121999GF108991081051004501999999KA1999N-00721MW1021
0062065900999991950012112004+49617+006200FM-12+038099999V0200601N00211220001CN0120001N9-00391-01001102941ADDAY121999GF102991999001999999041001MW1021EQDQ01+000002SCOTLC
0075065900999991950012118004+49617+006200FM-12+038099999V0200501N00571220001CN0160001N9-00281-01111102931ADDAY111999GF101991999001999999041001KA1999M-00111MW1011EQDQ01+000002SCOTLC
0043065900999991950012200004+49617+006200FM-12+038099999V0200501N00311220001CN0120001N9-00501-01221102981ADDAY101999GF100991001001999999001001MW1001
0056065900999991950012206004+49617+006200FM-12+038099999V0200501N00411220001CN0120001N9-00611-01221102931ADDAY101999GF100991001001999999001001KA1999N-00721MW1001
0043065900999991950012212004+49617+006200FM-12+038099999V0200501N00461004501CN0080001N9-00391-00501102861ADDAY121999GF108991081051004501999999MW1051
0056065900999991950012218004+49617+006200FM-12+038099999V0200501N00721220001CN0060001N9-00391-00611102861ADDAY121999GF100991001001999999001001KA1999M-00111MW1051
0043065900999991950012300004+49617+006200FM-12+038099999V0200501N00571220001CN0090001N9-00391-00611102821ADDAY101999GF100991001001999999001001MW1051
0056065900999991950012306004+49617+006200FM-12+038099999V0200501N00571220001CN0090001N9-00391-00611102741ADDAY101999GF100991001001999999001001KA1999N-00891MW1051
0043065900999991950012312004+49617+006200FM-12+038099999V0200501N00931220001CN0160001N9-00221-00781102631ADDAY101999GF100991001001999999001001MW1011
0056065900999991950012318004+49617+006200FM-12+038099999V0200601N00871220001CN0140001N9-00501-01001102541ADDAY101999GF100991001001999999001001KA1999M-00111MW1001
0043065900999991950012400004+49617+006200FM-12+038099999V0200501N00721220001CN0120001N9-00781-01111102531ADDAY101999GF100991001001999999001001MW1001
0056065900999991950012406004+49617+006200FM-12+038099999V0200501N00771220001CN0120001N9-00891-01221102311ADDAY101999GF100991001001999999001001KA1999N-00891MW1001
0043065900999991950012412004+49617+006200FM-12+038099999V0200501N00621220001CN0120001N9-00611-01221102161ADDAY101999GF100991001001999999001001MW1011
0056065900999991950012418004+49617+006200FM-12+038099999V0200501N00361220001CN0100001N9-00611-01281102061ADDAY101999GF100991001001999999001001KA1999M-00391MW1001
0043065900999991950012500004+49617+006200FM-12+038099999V0200501N00411220001CN0120001N9-00891-01281101981ADDAY101999GF100991001001999999001001MW1001
0056065900999991950012506004+49617+006200FM-12+038099999V0200501N00261220001CN0120001N9-00891-01221102031ADDAY111999GF104991041051008001001001KA1999N-01111MW1021
0043065900999991950012512004+49617+006200FM-12+038099999V0209991C00001004501CN0020001N9-00501-00721102191ADDAY171999GF108991081071004501999999MW1711
0056065900999991950012518004+49617+006200FM-12+038099999V0200501N00101012301CN0030001N9-00281-00611102191ADDAY171999GF108991081051012501999999KA1999M-00281MW1051
0043065900999991950012600004+49617+006200FM-12+038099999V0209991C00001012301CN0050001N9-00281-00721102261ADDAY171999GF108991081051012501999999MW1051
0056065900999991950012606004+49617+006200FM-12+038099999V0200501N00151004501CN0050001N9-00221-00611102371ADDAY121999GF108991081051004501999999KA1999N-00281MW1051
0043065900999991950012612004+49617+006200FM-12+038099999V0200501N00051007801CN0070001N9+00001-00391102531ADDAY121999GF107991071051008001999999MW1051
0056065900999991950012618004+49617+006200FM-12+038099999V0200501N00101012301CN0060001N9+00001-00221102541ADDAY121999GF107991071051012501999999KA1999M+00111MW1051
0043065900999991950012700004+49617+006200FM-12+038099999V0200501N00051007801CN0060001N9-00111-00391102631ADDAY121999GF107991071051008001999999MW1051
0056065900999991950012706004+49617+006200FM-12+038099999V0200501N00261220001CN0080001N9-00281-00501102631ADDAY111999GF102991021051008001001001KA1999N-00281MW1051
0043065900999991950012712004+49617+006200FM-12+038099999V0201401N00051220001CN0050001N9+00281-00611102451ADDAY111999GF100991001001999999001001MW1051
0056065900999991950012718004+49617+006200FM-12+038099999V0200501N00051220001CN0050001N9+00001-00611102271ADDAY121999GF107991001001999999031999KA1999M+00611MW1051
0043065900999991950012800004+49617+006200FM-12+038099999V0200501N00261012301CN0070001N9-00221-00721102091ADDAY121999GF107991071051012501999999MW1051
0056065900999991950012806004+49617+006200FM-12+038099999V0200501N00571001501CN0030001N9-00281-00501101911ADDAY171999GF108991081071001501999999KA1999N-00281MW1711
0062065900999991950012812004+49617+006200FM-12+038099999V0200501N00821220001CN0040001N9-00281-00781101971ADDAY171999GF101991999001999999041001MW1051EQDQ01+000002SCOTLC
0056065900999991950012818004+49617+006200FM-12+038099999V0200501N00771220001CN0040001N9-00391-01111101971ADDAY101999GF100991001001999999001001KA1999M-00221MW1051
0043065900999991950012900004+49617+006200FM-12+038099999V0200501N00461220001CN0120001N9-00721-01001102161ADDAY111999GF100991001001999999001001MW1001
0056065900999991950012906004+49617+006200FM-12+038099999V0200501N00571220001CN0120001N9-00891-01221102191ADDAY111999GF100991001001999999001001KA1999N-00891MW1001
0043065900999991950012912004+49617+006200FM-12+038099999V0200501N004119999999N0160001N9-00721-01221102141ADDAY121999GF105991031051012501031001MW1021
0056065900999991950012918004+49617+006200FM-12+038099999V0200901N00261220001CN0060001N9-00721-01221102091ADDAY121999GF101991011051017501001001KA1999M-00501MW1051
0043065900999991950013000004+49617+006200FM-12+038099999V0200701N00151220001CN0080001N9-00781-01391102121ADDAY101999GF100991001001999999001001MW1051
0056065900999991950013006004+49617+006200FM-12+038099999V0200501N00151220001CN0080001N9-01001-01281102271ADDAY101999GF100991001001999999001001KA1999N-01111MW1051
0043065900999991950013012004+49617+006200FM-12+038099999V0201401N00211007801CN0070001N9-00611-01111102291ADDAY121999GF108991081051008001999999MW1051
0056065900999991950013018004+49617+006200FM-12+038099999V0201401N00411007801CN0060001N9-00501-00781102151ADDAY121999GF108991081051008001999999KA1999M-00391MW1051
0043065900999991950013100004+49617+006200FM-12+038099999V0201401N00311004501CN0050001N9-00391-00501102051ADDAY121999GF108991081051004501999999MW1721
0056065900999991950013106004+49617+006200FM-12+038099999V0201601N00261002401CN0030001N9-00281-00281101781ADDAY171999GF108991081071002501999999KA1999N-00611MW1661
0043065900999991950013112004+49617+006200FM-12+038099999V0201601N00461004501CN0040001N9+00001-00221101741ADDAY161999GF107991071061004501999999MW1601
0056065900999991950013118004+49617+006200FM-12+038099999V0201401N00461220001CN0030001N9+00111-00111101531ADDAY161999GF106991001001999999071999KA1999M+00111MW1051
0043065900999991950020100004+49617+006200FM-12+038099999V0201601N00461007801CN0060001N9+00221-00111101431ADDAY121999GF108991081051008001999999MW1051
0056065900999991950020106004+49617+006200FM-12+038099999V0202001N00461002401CN0040001N9+00221+00111101441ADDAY161999GF108991081061002501999999KA1999N+00111MW1611
0043065900999991950020112004+49617+006200FM-12+038099999V0202301N00671004501CN0200001N9+00221-00111101781ADDAY161999GF105991051051004501001001MW1021
0056065900999991950020118004+49617+006200FM-12+038099999V0201601N00311220001CN0160001N9+00221-00221101821ADDAY111999GF106991001001999999071081KA1999M+00391MW1021
0043065900999991950020200004+49617+006200FM-12+038099999V0201601N00621220001CN0120001N9+00111+00001101831ADDAY121999GF106991001001999999071061MW1011
0056065900999991950020206004+49617+006200FM-12+038099999V0201601N00461220001CN0120001N9+00001-00111101821ADDAY121999GF107991001001999999071061KA1999N+00001MW1021
0043065900999991950020212004+49617+006200FM-12+038099999V0201601N005119999999N0150001N9+00281-00111101941ADDAY161999GF107991041051012501071999MW1021
0056065900999991950020218004+49617+006200FM-12+038099999V0201401N000519999999N0160001N9+00221-00221101711ADDAY121999GF105991031051012501031061KA1999M+00611MW1011
0043065900999991950020300004+49617+006200FM-12+038099999V0201601N00571220001CN0160001N9+00281-00221101551ADDAY121999GF108991001001999999001071MW1021
0056065900999991950020306004+49617+006200FM-12+038099999V0201601N007219999999N0160001N9+00391+00111101431ADDAY121999GF107991041051008001071999KA1999N+00111MW1021
0043065900999991950020312004+49617+006200FM-12+038099999V0201401N004619999999N0160001N9+00721+00281101431ADDAY121999GF108991031051012501071999MW1021
0056065900999991950020318004+49617+006200FM-12+038099999V0201801N00721004501CN0160001N9+00611+00281101471ADDAY161999GF108991061051004501021999KA1999M+00721MW1021
0043065900999991950020400004+49617+006200FM-12+038099999V0201701N00461004501CN0140001N9+00611+00391101551ADDAY161999GF108991061051004501021999MW1611
0056065900999991950020406004+49617+006200FM-12+038099999V0201801N00411000601CN0028001N9+00501+00501101391ADDAY161999GF108991081071000751999999KA1999N+00501MW1611
0043065900999991950020412004+49617+006200FM-12+038099999V0201701N00461001501CN0040001N9+00611+00611101311ADDAY161999GF108991081061001501999999MW1051
0056065900999991950020418004+49617+006200FM-12+038099999V0201101N005119999999N0100001N9+00501+00391101041ADDAY121999GF108991041051017501071999KA1999M+00781MW1021
0043065900999991950020500004+49617+006200FM-12+038099999V0201801N00571004501CN0100001N9+00611+00611100941ADDAY161999GF108991071051004501021999MW1211
0056065900999991950020506004+49617+006200FM-12+038099999V0202001N01031004501CN0100001N9+00501+00281101181ADDAY181999GF108991051051004501021999KA1999N+00391MW1021
0043065900999991950020512004+49617+006200FM-12+038099999V0202301N01081220001CN0200001N9+00721+00221101001ADDAY121999GF104991041081004501001001MW1011
0056065900999991950020518004+49617+006200FM-12+038099999V0201601N00621007801CN0160001N9+00501+00001100391ADDAY121999GF108991081051008001999999KA1999M+00721MW1031
0043065900999991950020600004+49617+006200FM-12+038099999V0202001N00821001501CN0150001N9+00501+00391099871ADDAY161999GF108991061071001501021999MW1611
0056065900999991950020606004+49617+006200FM-12+038099999V0201801N00821001501CN0090001N9+00391+00391099821ADDAY181999GF108991081031001501999999KA1999N+00391MW1801
0043065900999991950020612004+49617+006200FM-12+038099999V0202001N00821002401CN0120001N9+00501+00391099721ADDAY181999GF108991081081002501999999MW1251
0056065900999991950020618004+49617+006200FM-12+038099999V0202001N005719999999N0200001N9+00501+00391099971ADDAY181999GF106991041051004501071999KA1999M+00611MW1021
0043065900999991950020700004+49617+006200FM-12+038099999V0202701N00211004501CN0050001N9+00281+00221100521ADDAY161999GF108991061071004501021999MW1611
0056065900999991950020706004+49617+006200FM-12+038099999V0203201N00571004501CN0160001N9+00281+00001101461ADDAY161999GF108991081051004501999999KA1999N+00221MW1021
0043065900999991950020712004+49617+006200FM-12+038099999V0202501N00621002401CN0050001N9+00221+00001102101ADDAY121999GF108991081051002501999999MW1051
0056065900999991950020718004+49617+006200FM-12+038099999V0202001N00311004501CN0150001N9+00281+00111102151ADDAY121999GF108991081051004501999999KA1999M+00391MW1031
0043065900999991950020800004+49617+006200FM-12+038099999V0202001N00511004501CN0150001N9+00111+00001101911ADDAY121999GF108991081051004501999999MW1031
0056065900999991950020806004+49617+006200FM-12+038099999V0202001N00511000151CN0004001N9+00221+00221101231ADDAY161999GF109991091999000251999999KA1999N+00111MW1511
0043065900999991950020812004+49617+006200FM-12+038099999V0202001N00511000601CN0020001N9+00281+00281100771ADDAY161999GF108991081071000751999999MW1631
0056065900999991950020818004+49617+006200FM-12+038099999V0202501N005119999999N0160001N9+00281+00111100941ADDAY161999GF106991031051008001071999KA1999M+00721MW1021
0043065900999991950020900004+49617+006200FM-12+038099999V0202501N00721004501CN0060001N9+00001+00001101181ADDAY181999GF108991081071004501999999MW1711
0056065900999991950020906004+49617+006200FM-12+038099999V0202701N00721004501CN0120001N9+00001-00111101711ADDAY181999GF107991071051004501999999KA1999N+00001MW1021
0043065900999991950020912004+49617+006200FM-12+038099999V0202101N00721001501CN0014001N9+00001+00001101621ADDAY181999GF108991081071001501999999MW1701
0056065900999991950020918004+49617+006200FM-12+038099999V0201801N00361000151CN0008001N9-00111-00111100901ADDAY171999GF109991091999000251999999KA1999M+00001MW1731
0043065900999991950021000004+49617+006200FM-12+038099999V0202501N00931000601CN0100001N9+00611+00611100421ADDAY171999GF108991081071000751999999MW1611
0056065900999991950021006004+49617+006200FM-12+038099999V0202501N00871000601CN0050001N9+00781+00721100521ADDAY161999GF108991081071000751999999KA1999N-00111MW1611
0043065900999991950021012004+49617+006200FM-12+038099999V0202501N01131002401CN0060001N9+00891+00781100701ADDAY161999GF108991061071002501021999MW1611
0056065900999991950021018004+49617+006200FM-12+038099999V0202501N01181002401CN0160001N9+01001+00721100521ADDAY161999GF108991061071002501021999KA1999M+01001MW1211
0043065900999991950021100004+49617+006200FM-12+038099999V0202301N01131001501CN0050001N9+00781+00781100141ADDAY161999GF108991081071001501999999MW1611
0056065900999991950021106004+49617+006200FM-12+038099999V0202701N00931004501CN0120001N9+00501+00281100241ADDAY161999GF106991061051004501001001KA1999N+00501MW1021
0043065900999991950021112004+49617+006200FM-12+038099999V0202301N01541004501CN0200001N9+00611+00001100241ADDAY121999GF107991071081004501999999MW1031
0056065900999991950021118004+49617+006200FM-12+038099999V0202301N01391004501CN0200001N9+00501+00001100011ADDAY181999GF105991051081004501001001KA1999M+00611MW1251
0043065900999991950021200004+49617+006200FM-12+038099999V0202301N01181001501CN0160001N9+00281+00111100111ADDAY181999GF108991081091001501999999MW1811
0056065900999991950021206004+49617+006200FM-12+038099999V0202301N01341002401CN0060001N9+00111+00111100231ADDAY181999GF108991081091002501999999KA1999N+00111MW1841
0043065900999991950021212004+49617+006200FM-12+038099999V0202401N01391004501CN0200001N9+00281+00221100641ADDAY181999GF106991061081004501001001MW1251
0056065900999991950021218004+49617+006200FM-12+038099999V0202301N00771220001CN0200001N9+00391+00111100921ADDAY181999GF104991041051008001001001KA1999M+00501MW1021
0043065900999991950021300004+49617+006200FM-12+038099999V0202001N00931004501CN0200001N9+00501+00281100621ADDAY121999GF108991081051004501999999MW1021
0056065900999991950021306004+49617+006200FM-12+038099999V0202001N01031220001CN0200001N9+00501+00111099951ADDAY121999GF104991041051012501001001KA1999N+00391MW1021
0043065900999991950021312004+49617+006200FM-12+038099999V0202101N01291001501CN0120001N9+00501+00281099721ADDAY161999GF108991081071001501999999MW1601
0056065900999991950021318004+49617+006200FM-12+038099999V0202001N01031001501CN0160001N9+00501+00281099571ADDAY161999GF108991081071001501999999KA1999M+00501MW1211
0043065900999991950021400004+49617+006200FM-12+038099999V0202301N00671004501CN0160001N9+00391+00221099671ADDAY181999GF108991051071004501021999MW1021
0056065900999991950021406004+49617+006200FM-12+038099999V0202801N00771002401CN0120001N9+00111-00111100201ADDAY181999GF107991071051002501999999KA1999N+00111MW1021
0043065900999991950021412004+49617+006200FM-12+038099999V0203001N00571004501CN0120001N9+00221-00281101301ADDAY181999GF108991081081004501999999MW1021
0075065900999991950021418004+49617+006200FM-12+038099999V0202301N00211220001CN0050001N9+00111-00281101891ADDAY121999GF101991999001999999071001KA1999M+00281MW1051EQDQ01+000002SCOTLC
0043065900999991950021500004+49617+006200FM-12+038099999V0202001N00571002401CN0080001N9+00221-00111102071ADDAY121999GF108991081071002501999999MW1681
0056065900999991950021506004+49617+006200FM-12+038099999V0202001N00721002401CN0200001N9+00221+00111102051ADDAY161999GF108991081071002501999999KA1999N+00001MW1601
0043065900999991950021512004+49617+006200FM-12+038099999V0202301N00871000601CN0030001N9+00611+00611102231ADDAY161999GF108991081071000751999999MW1511
0056065900999991950021518004+49617+006200FM-12+038099999V0202301N00871000601CN0080001N9+00721+00721102581ADDAY161999GF108991081071000751999999KA1999M+00781MW1611
0043065900999991950021600004+49617+006200FM-12+038099999V0202301N00771002401CN0070001N9+00781+00721102891ADDAY161999GF108991081061002501999999MW1201
0056065900999991950021606004+49617+006200FM-12+038099999V0202301N00821004501CN0120001N9+00721+00611103141ADDAY121999GF108991081051004501999999KA1999N+00721MW1021
0043065900999991950021612004+49617+006200FM-12+038099999V0202501N00771004501CN0200001N9+00781+00391103381ADDAY161999GF108991081051004501999999MW1021
0056065900999991950021618004+49617+006200FM-12+038099999V0202301N00461007801CN0200001N9+00721+00281103431ADDAY121999GF108991081051008001999999KA1999M+00781MW1021
0043065900999991950021700004+49617+006200FM-12+038099999V0202001N00361220001CN0200001N9+00391+00281103491ADDAY121999GF100991001001999999001001MW1001
0056065900999991950021706004+49617+006200FM-12+038099999V0209991C00001220001CN0120001N9+00221+00111103461ADDAY101999GF100991001001999999001001KA1999N+00221MW1001
0043065900999991950021712004+49617+006200FM-12+038099999V0201801N00311220001CN0080001N9+00891+00391103331ADDAY101999GF100991001001999999001001MW1051
0056065900999991950021718004+49617+006200FM-12+038099999V0201801N00261220001CN0070001N9+00891+00391103221ADDAY101999GF100991001001999999001001KA1999M+01221MW1051
0043065900999991950021800004+49617+006200FM-12+038099999V0201801N00151220001CN0030001N9+00611+00501103231ADDAY101999GF100991001001999999001001MW1051
0056065900999991950021806004+49617+006200FM-12+038099999V0209991C00001220001CN0014001N9+00281+00281103181ADDAY101999GF100991001001999999001001KA1999N+00281MW1101
0043065900999991950021812004+49617+006200FM-12+038099999V0209991C00001220001CN0060001N9+01281+00501102871ADDAY101999GF100991001001999999001001MW1051
0056065900999991950021818004+49617+006200FM-12+038099999V0209991C00001220001CN0080001N9+01111+00281102511ADDAY111999GF101991001001999999001051KA1999M+01611MW1051
0043065900999991950021900004+49617+006200FM-12+038099999V0202501N00051220001CN0034001N9+00721+00281102461ADDAY101999GF100991001001999999001001MW1051
0056065900999991950021906004+49617+006200FM-12+038099999V0202301N00051220001CN0030001N9+00501+00281102411ADDAY101999GF101991001001999999041061KA1999N+00391MW1051
0043065900999991950021912004+49617+006200FM-12+038099999V0201601N00261220001CN0070001N9+01111+00391102341ADDAY111999GF107991001001999999001071MW1051
0056065900999991950021918004+49617+006200FM-12+038099999V0201801N00261220001CN0070001N9+00781+00391102071ADDAY121999GF104991001001999999041061KA1999M+01281MW1051
0043065900999991950022000004+49617+006200FM-12+038099999V0201801N00261220001CN0060001N9+00501+00281101791ADDAY111999GF100991001001999999001001MW1051
0056065900999991950022006004+49617+006200FM-12+038099999V0201601N00411007801CN0070001N9+00501+00281101261ADDAY121999GF108991081051008001999999KA1999N+00391MW1051
0043065900999991950022012004+49617+006200FM-12+038099999V0202001N00981000601CN0050001N9+00721+00611100561ADDAY161999GF108991081071000751999999MW1601
0056065900999991950022018004+49617+006200FM-12+038099999V0202501N01181004501CN0200001N9+00721+00611100371ADDAY191999GF106991061091004501999999KA1999M+00891MW1251
0043065900999991950022100004+49617+006200FM-12+038099999V0202501N01181002401CN0150001N9+00611+00391100661ADDAY161999GF107991071071002501999999MW1601
0056065900999991950022106004+49617+006200FM-12+038099999V0202701N00821004501CN0150001N9+00391+00281100871ADDAY161999GF108991081051004501999999KA1999N+00391MW1021
0043065900999991950022112004+49617+006200FM-12+038099999V0203201N01181007801CN0200001N9+00501+00111101221ADDAY181999GF108991081051008001999999MW1021
0056065900999991950022118004+49617+006200FM-12+038099999V0203201N005119999999N0200001N9+00221+00001101901ADDAY181999GF107991021051004501021999KA1999M+00611MW1021
0043065900999991950022200004+49617+006200FM-12+038099999V0202901N00261220001CN0160001N9+00221+00001102371ADDAY121999GF103991031051004501001001MW1031
0056065900999991950022206004+49617+006200FM-12+038099999V0203301N00151007801CN0200001N9+00111-00391102731ADDAY121999GF107991071051008001999999KA1999N+00111MW1021
0043065900999991950022212004+49617+006200FM-12+038099999V0200501N00261220001CN0200001N9+00281-00501102871ADDAY121999GF102991021021012501001001MW1021
0056065900999991950022218004+49617+006200FM-12+038099999V0209991C00001220001CN0200001N9+00281-00281102701ADDAY121999GF104991001001999999001061KA1999M+00611MW1021
0043065900999991950022300004+49617+006200FM-12+038099999V0200701N00211220001CN0120001N9+00001-00281102471ADDAY111999GF100991001001999999001001MW1001
0056065900999991950022306004+49617+006200FM-12+038099999V0200701N00211220001CN0090001N9-00221-00391102071ADDAY101999GF105991001001999999031061KA1999N-00221MW1051
0043065900999991950022312004+49617+006200FM-12+038099999V0201801N00721220001CN0070001N9+00281-00281101611ADDAY121999GF106991001001999999031061MW1051
0056065900999991950022318004+49617+006200FM-12+038099999V0202001N00461015001CN0070001N9+00501-00111101271ADDAY121999GF107991071051017501999999KA1999M+00611MW1051
0043065900999991950022400004+49617+006200FM-12+038099999V0202501N00721000601CN0050001N9+00501+00501101101ADDAY161999GF108991081071000751999999MW1611
0056065900999991950022406004+49617+006200FM-12+038099999V0202301N00621000601CN0030001N9+00611+00611100891ADDAY161999GF108991081071000751999999KA1999N+00391MW1611
0043065900999991950022412004+49617+006200FM-12+038099999V0202501N00871004501CN0200001N9+00721+00611100851ADDAY181999GF108991081071004501999999MW1251
0056065900999991950022418004+49617+006200FM-12+038099999V0202501N005119999999N0200001N9+00781+00501100731ADDAY181999GF106991041051008001071999KA1999M+00891MW1021
0043065900999991950022500004+49617+006200FM-12+038099999V0202301N007719999999N0160001N9+00721+00611100541ADDAY161999GF107991041071004501071999MW1021
0056065900999991950022506004+49617+006200FM-12+038099999V0201901N00621004501CN0080001N9+00501+00391100021ADDAY161999GF108991071051004501021999KA1999N+00501MW1211
0043065900999991950022512004+49617+006200FM-12+038099999V0202101N00621004501CN0090001N9+00611+00611099691ADDAY161999GF108991061071004501021999MW1611
0056065900999991950022518004+49617+006200FM-12+038099999V0200701N00311001501CN0050001N9+00611+00501099181ADDAY161999GF108991081071001501999999KA1999M+00611MW1611
0043065900999991950022600004+49617+006200FM-12+038099999V0203601N00101000601CN0060001N9+00611+00611098781ADDAY161999GF108991081071000751999999MW1611
0056065900999991950022606004+49617+006200FM-12+038099999V0203401N00821000601CN0120001N9-00111-00111099181ADDAY171999GF108991061071000751021999KA1999N-00111MW1711
0043065900999991950022612004+49617+006200FM-12+038099999V0203601N006719999999N0200001N9-00111-00501099711ADDAY171999GF108991041051004501021999MW1021
0056065900999991950022618004+49617+006200FM-12+038099999V0203401N00821004501CN0200001N9-00111-00501100381ADDAY121999GF107991061051004501071999KA1999M+00111MW1021
0043065900999991950022700004+49617+006200FM-12+038099999V0203501N00571220001CN0200001N9-00221-00721100951ADDAY171999GF107991001001999999031999MW1021
0056065900999991950022706004+49617+006200FM-12+038099999V0203401N00621007801CN0200001N9-00391-00781101341ADDAY121999GF108991081051008001999999KA1999N-00391MW1021
0043065900999991950022712004+49617+006200FM-12+038099999V0200201N007219999999N0200001N9-00111-00891101651ADDAY121999GF107991021051008001001071MW1021
0056065900999991950022718004+49617+006200FM-12+038099999V0200201N00721220001CN0070001N9-00221-00721101871ADDAY121999GF102991001001999999001051KA1999M+00001MW1051
0043065900999991950022800004+49617+006200FM-12+038099999V0200201N00361220001CN0090001N9-00281-00781102051ADDAY111999GF104991001001999999001061MW1051
0056065900999991950022806004+49617+006200FM-12+038099999V0200201N00051220001CN0070001N9-00501-00721102031ADDAY111999GF104991041051008001001001KA1999N-00611MW1051
0043065900999991950022812004+49617+006200FM-12+038099999V0200201N00461007801CN0150001N9+00001-00611101931ADDAY121999GF105991051081008001001001MW1021
0056065900999991950022818004+49617+006200FM-12+038099999V0200201N00261220001CN0150001N9-00111-00501101871ADDAY121999GF104991031051008001071001KA1999M+00221MW1021
0043065900999991950030100004+49617+006200FM-12+038099999V0200201N00211220001CN0120001N9-00281-00501102091ADDAY121999GF101991011051012501001001MW1021
0056065900999991950030106004+49617+006200FM-12+038099999V0200201N00261220001CN0080001N9-00281-00611102191ADDAY111999GF101991011051012501001001KA1999N-00391MW1051
0043065900999991950030112004+49617+006200FM-12+038099999V0200201N00621220001CN0070001N9+00111-00391102341ADDAY111999GF104991041021008001001001MW1051
0056065900999991950030118004+49617+006200FM-12+038099999V0200201N00511007801CN0070001N9+00001+00001102391ADDAY181999GF107991071051008001999999KA1999M+00281MW1261
0043065900999991950030200004+49617+006200FM-12+038099999V0203601N00511220001CN0080001N9-00221-00611102631ADDAY181999GF104991041051012501001001MW1051
0056065900999991950030206004+49617+006200FM-12+038099999V0200401N00411220001CN0060001N9-00501-00721102791ADDAY111999GF100991001001999999001001KA1999N-00501MW1051
0043065900999991950030212004+49617+006200FM-12+038099999V0200601N00571220001CN0120001N9-00111-01221102951ADDAY101999GF100991001001999999001001MW1001
0056065900999991950030218004+49617+006200FM-12+038099999V0200501N00511220001CN0160001N9+00001-01111103011ADDAY101999GF101991001001999999001051KA1999M+00221MW1021
0043065900999991950030300004+49617+006200FM-12+038099999V0200501N00511220001CN0160001N9-00221-00781103071ADDAY101999GF100991001001999999001001MW1001
0056065900999991950030306004+49617+006200FM-12+038099999V0200501N00511220001CN0150001N9-00281-00721103021ADDAY101999GF101991001001999999001051KA1999N-00281MW1031
0043065900999991950030312004+49617+006200FM-12+038099999V0200701N00411220001CN0120001N9+00391-01221102941ADDAY101999GF101991001001999999001061MW1021
0056065900999991950030318004+49617+006200FM-12+038099999V0200701N00101220001CN0140001N9+00501-00721102851ADDAY111999GF107991001001999999071061KA1999M+00721MW1021
0043065900999991950030400004+49617+006200FM-12+038099999V0209991C00001015001CN0150001N9+00281-00611102931ADDAY121999GF107991071051017501999999MW1021
0056065900999991950030406004+49617+006200FM-12+038099999V0202301N00051007801CN0080001N9+00221-00391102931ADDAY121999GF108991081051008001999999KA1999N+00001MW1051
0043065900999991950030412004+49617+006200FM-12+038099999V0202701N00101004501CN0050001N9+00501+00111103021ADDAY161999GF108991081051004501999999MW1051
0056065900999991950030418004+49617+006200FM-12+038099999V0203401N00311220001CN0050001N9+00501+00281103151ADDAY121999GF102991021051008001001001KA1999M+00781MW1051
0043065900999991950030500004+49617+006200FM-12+038099999V0203401N00151220001CN0060001N9+00281+00001103351ADDAY101999GF100991001001999999001001MW1051
0056065900999991950030506004+49617+006200FM-12+038099999V0209991C00001007801CN0120001N9+00111+00001103431ADDAY121999GF107991051051008001071999KA1999N+00111MW1051
0043065900999991950030512004+49617+006200FM-12+038099999V0201701N00101012301CN0120001N9+00781+00111103391ADDAY121999GF107991051051012501031061MW1021
0056065900999991950030518004+49617+006200FM-12+038099999V0200201N00411007801CN0200001N9+00721+00221103391ADDAY121999GF108991081051008001999999KA1999M+00891MW1021
0043065900999991950030600004+49617+006200FM-12+038099999V0200201N00511007801CN0140001N9+00501+00281103581ADDAY121999GF107991071051008001999999MW1011
0056065900999991950030606004+49617+006200FM-12+038099999V0200501N00571220001CN0060001N9+00281+00221103661ADDAY121999GF100991001001999999001001KA1999N+00281MW1051
0043065900999991950030612004+49617+006200FM-12+038099999V0200501N00721220001CN0110001N9+01111+00391103651ADDAY101999GF100991001001999999001001MW1001
0056065900999991950030618004+49617+006200FM-12+038099999V0200501N00671220001CN0090001N9+00781+00501103571ADDAY111999GF101991001001999999001051KA1999M+01281MW1051
0043065900999991950030700004+49617+006200FM-12+038099999V0200501N00511220001CN0060001N9+00391+00281103671ADDAY101999GF100991001001999999001001MW1051
0056065900999991950030706004+49617+006200FM-12+038099999V0200201N00511220001CN0030001N9+00221+00221103661ADDAY101999GF100991001001999999001001KA1999N+00221MW1051
0043065900999991950030712004+49617+006200FM-12+038099999V0201101N00461220001CN0150001N9+01281+00501103501ADDAY101999GF100991001001999999001001MW1001
0056065900999991950030718004+49617+006200FM-12+038099999V0209991C00001220001CN0070001N9+01221+00501103231ADDAY101999GF100991001001999999001001KA1999M+01611MW1051
0043065900999991950030800004+49617+006200FM-12+038099999V0203401N00051220001CN0160001N9+01001+00281103171ADDAY101999GF100991001001999999001001MW1001
0056065900999991950030806004+49617+006200FM-12+038099999V0200201N00151220001CN0040001N9+00501+00281103131ADDAY101999GF100991001001999999001001KA1999N+00501MW1051
0043065900999991950030812004+49617+006200FM-12+038099999V0202501N00621220001CN0100001N9+01281+00281102791ADDAY101999GF100991001001999999001001MW1001
0056065900999991950030818004+49617+006200FM-12+038099999V0202501N00461220001CN0090001N9+01281+00501102451ADDAY101999GF100991001001999999001001KA1999M+01611MW1001
0043065900999991950030900004+49617+006200FM-12+038099999V0203201N00311220001CN0090001N9+00721+00391102431ADDAY101999GF100991001001999999001001MW1051
0056065900999991950030906004+49617+006200FM-12+038099999V0209991C00001220001CN0016001N9+00391+00281102291ADDAY101999GF100991001001999999001001KA1999N+00281MW1101
0043065900999991950030912004+49617+006200FM-12+038099999V0202501N00461220001CN0040001N9+01221+00281102021ADDAY101999GF102991001001999999001061MW1051
0075065900999991950030918004+49617+006200FM-12+038099999V0202501N00571220001CN0030001N9+01001+00611101711ADDAY101999GF101991999001999999041001KA1999M+01391MW1051EQDQ01+000002SCOTLC
0043065900999991950031000004+49617+006200FM-12+038099999V0209991C00001220001CN0026001N9+00391+00281101701ADDAY101999GF100991001001999999001001MW1051
0056065900999991950031006004+49617+006200FM-12+038099999V0202501N00621001501CN0012001N9+00281+00281101441ADDAY161999GF108991081061001501999999KA1999N+00281MW1211
0043065900999991950031012004+49617+006200FM-12+038099999V0203401N00511004501CN0160001N9+00501+00221101721ADDAY181999GF107991071051004501999999MW1021
0056065900999991950031018004+49617+006200FM-12+038099999V0203201N00461004501CN0150001N9+00391+00111101991ADDAY121999GF108991081051004501999999KA1999M+00501MW1031
0043065900999991950031100004+49617+006200FM-12+038099999V0203401N00361220001CN0150001N9+00111+00001102301ADDAY151999GF100991001001999999001001MW1001
0056065900999991950031106004+49617+006200FM-12+038099999V0203401N00151004501CN0150001N9+00001-00391102221ADDAY121999GF108991081051004501999999KA1999N-00111MW1021
0043065900999991950031112004+49617+006200FM-12+038099999V0202501N00721007801CN0160001N9+00281-00611102021ADDAY121999GF106991061051008001001001MW1011
0056065900999991950031118004+49617+006200FM-12+038099999V0202501N00821007801CN0070001N9+00221-00281101691ADDAY121999GF108991081051008001999999KA1999M+00391MW1051
0043065900999991950031200004+49617+006200FM-12+038099999V0202001N00931004501CN0070001N9+00281-00111101291ADDAY121999GF108991081051004501999999MW1051
0056065900999991950031206004+49617+006200FM-12+038099999V0202501N00981004501CN0050001N9+00281+00111101111ADDAY161999GF108991081051004501999999KA1999N+00221MW1021
0043065900999991950031212004+49617+006200FM-12+038099999V0202901N00571004501CN0110001N9+00391+00111101271ADDAY161999GF107991071051004501999999MW1021
0056065900999991950031218004+49617+006200FM-12+038099999V0202501N00211220001CN0160001N9+00221-00111101391ADDAY161999GF104991011051012501001061KA1999M+00501MW1021
0043065900999991950031300004+49617+006200FM-12+038099999V0202301N00361220001CN0090001N9-00221-00281101691ADDAY121999GF100991001001999999001001MW1051
0056065900999991950031306004+49617+006200FM-12+038099999V0209991C00001220001CN0040001N9-00281-00391101701ADDAY101999GF100991001001999999001001KA1999N-00391MW1051
0043065900999991950031312004+49617+006200FM-12+038099999V0203201N00411007801CN0160001N9+00391-00391101541ADDAY111999GF106991061081008001001001MW1031
0056065900999991950031318004+49617+006200FM-12+038099999V0202701N00511220001CN0200001N9+00391-00501101541ADDAY121999GF104991041051012501001001KA1999M+00501MW1021
0043065900999991950031400004+49617+006200FM-12+038099999V0203401N00311007801CN0120001N9+00111-00501101721ADDAY121999GF107991071051008001999999MW1021
0056065900999991950031406004+49617+006200FM-12+038099999V0203601N00261007801CN0080001N9+00001-00221101791ADDAY121999GF108991081051008001999999KA1999N+00001MW1051
0043065900999991950031412004+49617+006200FM-12+038099999V0200501N004619999999N0080001N9+00611-00611101781ADDAY121999GF105991031051017501031001MW1051
0056065900999991950031418004+49617+006200FM-12+038099999V0201601N00411012301CN0050001N9+00501-00221101671ADDAY121999GF108991081051012501999999KA1999M+00781MW1051
0043065900999991950031500004+49617+006200FM-12+038099999V0209991C00001007801CN0060001N9+00391+00001101751ADDAY121999GF108991081051008001999999MW1051
0056065900999991950031506004+49617+006200FM-12+038099999V0201801N00361007801CN0100001N9+00391+00111101751ADDAY121999GF107991071051008001999999KA1999N+00281MW1021
0043065900999991950031512004+49617+006200FM-12+038099999V0202501N004119999999N0140001N9+01001+00281101871ADDAY121999GF105991041021012501031001MW1031
0056065900999991950031518004+49617+006200FM-12+038099999V0200901N00461220001CN0200001N9+01001+00111101691ADDAY121999GF101991001001999999001051KA1999M+01281MW1011
0043065900999991950031600004+49617+006200FM-12+038099999V0200901N00771220001CN0140001N9+00611+00111101621ADDAY101999GF101991001001999999001051MW1021
0056065900999991950031606004+49617+006200FM-12+038099999V0201101N00621220001CN0100001N9+00281+00001101501ADDAY101999GF101991001001999999041051KA1999N+00281MW1031
0043065900999991950031612004+49617+006200FM-12+038099999V0202001N00721012301CN0200001N9+01221+00391101491ADDAY121999GF108991061051012501021999MW1021
0056065900999991950031618004+49617+006200FM-12+038099999V0201801N00361220001CN0150001N9+01001+00501101721ADDAY121999GF104991041051017501001001KA1999M+01281MW1011
0043065900999991950031700004+49617+006200FM-12+038099999V0201801N00571220001CN0150001N9+00611+00391101901ADDAY121999GF100991001001999999001001MW1001
0056065900999991950031706004+49617+006200FM-12+038099999V0201601N00461012301CN0070001N9+00501+00391101891ADDAY111999GF106991061051012501001001KA1999N+00391MW1051
0043065900999991950031712004+49617+006200FM-12+038099999V0202001N00571015001CN0160001N9+01001+00501101701ADDAY161999GF107991051051017501071999MW1211
0056065900999991950031718004+49617+006200FM-12+038099999V0202301N01031004501CN0080001N9+00891+00721101651ADDAY161999GF108991051071004501021999KA1999M+01281MW1611
0043065900999991950031800004+49617+006200FM-12+038099999V0202301N00621220001CN0160001N9+00501+00281102261ADDAY181999GF100991001001999999001001MW1011
0056065900999991950031806004+49617+006200FM-12+038099999V0202301N00771220001CN0160001N9+00391+00281102431ADDAY111999GF102991011051004501041061KA1999N+00391MW1031
0043065900999991950031812004+49617+006200FM-12+038099999V0201601N004619999999N0160001N9+00891+00391102271ADDAY121999GF108991041051012501021999MW1021
0056065900999991950031818004+49617+006200FM-12+038099999V0201401N00571220001CN0160001N9+01111+00001101541ADDAY121999GF105991001001999999001061KA1999M+01281MW1021
0043065900999991950031900004+49617+006200FM-12+038099999V0201101N00621220001CN0160001N9+01001+00281101231ADDAY121999GF101991001001999999001051MW1021
0056065900999991950031906004+49617+006200FM-12+038099999V0202001N00571007801CN0160001N9+00891+00501101251ADDAY121999GF107991071051008001999999KA1999N+00781MW1021
0043065900999991950031912004+49617+006200FM-12+038099999V0202001N00771004501CN0200001N9+00891+00391101671ADDAY121999GF106991061081004501999999MW1021
0056065900999991950031918004+49617+006200FM-12+038099999V0202301N00461220001CN0200001N9+00891+00281101841ADDAY121999GF104991041051012501001001KA1999M+01111MW1021
0043065900999991950032000004+49617+006200FM-12+038099999V0202301N00261220001CN0090001N9+00611+00281102121ADDAY111999GF100991001001999999001001MW1051
0056065900999991950032006004+49617+006200FM-12+038099999V0201601N00211220001CN0080001N9+00281+00221102141ADDAY111999GF103991001001999999041051KA1999N+00281MW1051
0043065900999991950032012004+49617+006200FM-12+038099999V0201901N008719999999N0200001N9+01001+00281101911ADDAY121999GF107991041011012501041071MW1021
0056065900999991950032018004+49617+006200FM-12+038099999V0202501N004119999999N0200001N9+00891+00221101621ADDAY121999GF107991011051012501071999KA1999M+01281MW1031
0043065900999991950032100004+49617+006200FM-12+038099999V0201801N00411220001CN0120001N9+00611+00501101581ADDAY161999GF108991001001999999021999MW1611
0056065900999991950032106004+49617+006200FM-12+038099999V0201801N00511000151CN0002001N9+00611+00611101321ADDAY161999GF109991091999000251999999KA1999N+00501MW1451
0043065900999991950032112004+49617+006200FM-12+038099999V0201801N00511004501CN0160001N9+00891+00721101271ADDAY161999GF106991061081004501001001MW1011
0056065900999991950032118004+49617+006200FM-12+038099999V0201601N00621004501CN0160001N9+00891+00611101441ADDAY181999GF107991071081004501999999KA1999M+01001MW1801
0043065900999991950032200004+49617+006200FM-12+038099999V0209991C00001004501CN0100001N9+00611+00611101821ADDAY181999GF106991061051004501001001MW1021
0056065900999991950032206004+49617+006200FM-12+038099999V0209991C00001007801CN0040001N9+00501+00501102151ADDAY141999GF108991081051008001999999KA1999N+00501MW1051
0043065900999991950032212004+49617+006200FM-12+038099999V0201401N00101007801CN0070001N9+01111+00611102331ADDAY141999GF105991051081008001001001MW1021
0056065900999991950032218004+49617+006200FM-12+038099999V0209991C00001220001CN0200001N9+00891+00391102541ADDAY121999GF103991031051017501001001KA1999M+01281MW1011
0043065900999991950032300004+49617+006200FM-12+038099999V0209991C00001220001CN0060001N9+00611+00501102701ADDAY101999GF100991001001999999001001MW1051
0056065900999991950032306004+49617+006200FM-12+038099999V0209991C00001220001CN0001001N9+00501+00501102861ADDAY121999GF103991031051012501001001KA1999N+00501MW1461
0043065900999991950032312004+49617+006200FM-12+038099999V0201601N00211015001CN0040001N9+01111+00721102851ADDAY141999GF107991071051017501999999MW1051
0056065900999991950032318004+49617+006200FM-12+038099999V0201601N00311220001CN0160001N9+01221+00501102671ADDAY121999GF104991031051012501001051KA1999M+01391MW1011
0043065900999991950032400004+49617+006200FM-12+038099999V0201601N00051007801CN0120001N9+01001+00501102661ADDAY121999GF108991081051008001999999MW1021
0056065900999991950032406004+49617+006200FM-12+038099999V0202201N00211007801CN0040001N9+00781+00781102701ADDAY161999GF108991061051008001071999KA1999N+00781MW1211
0043065900999991950032412004+49617+006200FM-12+038099999V0202501N00571007801CN0200001N9+01221+00781102741ADDAY161999GF108991081081008001999999MW1021
0056065900999991950032418004+49617+006200FM-12+038099999V0203201N00571220001CN0160001N9+01001+00281102861ADDAY121999GF102991011011012501001061KA1999M+01281MW1021
0043065900999991950032500004+49617+006200FM-12+038099999V0209991C00001220001CN0160001N9+00611+00391102951ADDAY111999GF100991001001999999001001MW1001
0056065900999991950032506004+49617+006200FM-12+038099999V0203401N00261220001CN0060001N9+00281+00281102941ADDAY121999GF102991021051008001999999KA1999N+00281MW1011
0043065900999991950032512004+49617+006200FM-12+038099999V0200701N00411007801CN0120001N9+00891+00281102711ADDAY121999GF106991061051008001001001MW1021
0056065900999991950032518004+49617+006200FM-12+038099999V0200201N00821220001CN0200001N9+00721+00221102501ADDAY121999GF101991011051008001001001KA1999M+01111MW1021
0043065900999991950032600004+49617+006200FM-12+038099999V0200501N00671220001CN0080001N9+00501+00221102341ADDAY111999GF103991031051008001001001MW1051
0056065900999991950032606004+49617+006200FM-12+038099999V0200501N00511220001CN0080001N9+00281+00111102261ADDAY101999GF101991011051008001001001KA1999N+00221MW1051
0043065900999991950032612004+49617+006200FM-12+038099999V0200701N00621220001CN0200001N9+00781+00001102161ADDAY121999GF104991041081012501001001MW1021
0056065900999991950032618004+49617+006200FM-12+038099999V0200701N00571220001CN0200001N9+00891-00111102051ADDAY101999GF100991001001999999001001KA1999M+01111MW1001
0043065900999991950032700004+49617+006200FM-12+038099999V0200501N00571220001CN0160001N9+00501-00221102161ADDAY101999GF100991001001999999001001MW1001
0056065900999991950032706004+49617+006200FM-12+038099999V0200401N00621220001CN0100001N9+00221-00111102301ADDAY101999GF100991001001999999001001KA1999N+00221MW1001
0043065900999991950032712004+49617+006200FM-12+038099999V0200501N00671220001CN0160001N9+01111-00221102221ADDAY101999GF100991001001999999001001MW1001
0075065900999991950032718004+49617+006200FM-12+038099999V0200501N00621220001CN0160001N9+01221-00501102101ADDAY101999GF101991999001999999041001KA1999M+01391MW1001EQDQ01+000002SCOTLC
0043065900999991950032800004+49617+006200FM-12+038099999V0200501N00311220001CN0160001N9+00611+00001102311ADDAY101999GF100991001001999999001001MW1001
0056065900999991950032806004+49617+006200FM-12+038099999V0200501N00571220001CN0060001N9+00391+00001102261ADDAY101999GF100991001001999999001001KA1999N+00391MW1051
0043065900999991950032812004+49617+006200FM-12+038099999V0200501N00571220001CN0150001N9+01281+00111102061ADDAY101999GF100991001001999999001001MW1001
0056065900999991950032818004+49617+006200FM-12+038099999V0200201N00621220001CN0070001N9+01111+00281101761ADDAY101999GF100991001001999999001001KA1999M+01501MW1051
0043065900999991950032900004+49617+006200FM-12+038099999V0200201N00621220001CN0050001N9+00391+00001101751ADDAY101999GF100991001001999999001001MW1051
0056065900999991950032906004+49617+006200FM-12+038099999V0200201N00571220001CN0060001N9+00111-00221101581ADDAY101999GF100991001001999999001001KA1999N+00111MW1051
0043065900999991950032912004+49617+006200FM-12+038099999V0200201N00621220001CN0110001N9+00611-00111101461ADDAY121999GF104991041051008001001001MW1011
0056065900999991950032918004+49617+006200FM-12+038099999V0203601N00721220001CN0200001N9+00391-00501101381ADDAY111999GF104991011011008001041001KA1999M+00781MW1031
0043065900999991950033000004+49617+006200FM-12+038099999V0203601N00361220001CN0160001N9+00111-00111101531ADDAY111999GF104991041051012501001001MW1031
0056065900999991950033006004+49617+006200FM-12+038099999V0203401N00151007801CN0060001N9+00221+00001101441ADDAY121999GF108991081051008001999999KA1999N+00111MW1051
0043065900999991950033012004+49617+006200FM-12+038099999V0200201N00621007801CN0200001N9+00501-00221101611ADDAY121999GF107991051051008001011999MW1021
0056065900999991950033018004+49617+006200FM-12+038099999V0200201N005119999999N0200001N9+00391-00281101751ADDAY121999GF107991041051008001071999KA1999M+00611MW1021
0043065900999991950033100004+49617+006200FM-12+038099999V0200101N00311220001CN0160001N9+00221-00281102011ADDAY121999GF101991011051017501001001MW1011
0056065900999991950033106004+49617+006200FM-12+038099999V0209991C00001220001CN0140001N9+00001-00501102051ADDAY101999GF101991001001999999001051KA1999N-00111MW1031
0043065900999991950033112004+49617+006200FM-12+038099999V0200401N00511220001CN0160001N9+00721-00391101991ADDAY101999GF101991011011012501001001MW1031
0056065900999991950033118004+49617+006200FM-12+038099999V0203401N00211220001CN0160001N9+00781-00221101761ADDAY101999GF104991001001999999001061KA1999M+01001MW1031
0043065900999991950040100004+49617+006200FM-12+038099999V0209991C00001015001CN0120001N9+00221-00111101891ADDAY111999GF106991061051017501001001MW1031
0056065900999991950040106004+49617+006200FM-12+038099999V0202301N00151007801CN0016001N9+00221+00001101751ADDAY121999GF108991081051008001999999KA1999N+00111MW1101
0043065900999991950040112004+49617+006200FM-12+038099999V0202301N00571002401CN0060001N9+00611+00281101591ADDAY121999GF108991071071002501021999MW1501
0056065900999991950040118004+49617+006200FM-12+038099999V0202001N00671002401CN0040001N9+00611+00501101381ADDAY151999GF108991071071002501021999KA1999M+00611MW1501
0043065900999991950040200004+49617+006200FM-12+038099999V0202301N00931002401CN0060001N9+00721+00611100851ADDAY161999GF108991071071002501021999MW1211
0056065900999991950040206004+49617+006200FM-12+038099999V0202301N01231000601CN0040001N9+00721+00611100061ADDAY161999GF108991081071000751999999KA1999N+00611MW1601
0043065900999991950040212004+49617+006200FM-12+038099999V0202701N01341002401CN0050001N9+00611+00391099461ADDAY161999GF108991081071002501999999MW1811
0056065900999991950040218004+49617+006200FM-12+038099999V0202501N00871007801CN0200001N9+00781+00001099151ADDAY181999GF106991061031008001031999KA1999M+00891MW1031
0043065900999991950040300004+49617+006200FM-12+038099999V0202301N00721004501CN0120001N9+00281+00111099351ADDAY121999GF108991081051004501999999MW1021
0056065900999991950040306004+49617+006200FM-12+038099999V0202501N00621004501CN0080001N9+00221+00111099501ADDAY181999GF108991081051004501999999KA1999N+00221MW1051
0043065900999991950040312004+49617+006200FM-12+038099999V0202901N00571004501CN0160001N9+00611+00281099791ADDAY181999GF105991051081004501001001MW1251
0056065900999991950040318004+49617+006200FM-12+038099999V0203201N00571220001CN0200001N9+00391+00221100271ADDAY181999GF103991031051008001001001KA1999M+00781MW1011
0043065900999991950040400004+49617+006200FM-12+038099999V0202901N00211220001CN0200001N9+00111+00001100691ADDAY111999GF101991011051004501001001MW1021
0056065900999991950040406004+49617+006200FM-12+038099999V0202701N00051220001CN0080001N9+00001-00111100911ADDAY111999GF103991031051008001001001KA1999N+00001MW1051
0043065900999991950040412004+49617+006200FM-12+038099999V0202501N00361007801CN0200001N9+00501-00281100941ADDAY181999GF107991061081008001011999MW1021
0056065900999991950040418004+49617+006200FM-12+038099999V0202001N00261004501CN0100001N9+00391+00221100981ADDAY181999GF108991061051004501021999KA1999M+00721MW1021
0043065900999991950040500004+49617+006200FM-12+038099999V0202301N00311012301CN0100001N9+00391+00111101061ADDAY121999GF108991081051012501999999MW1021
0056065900999991950040506004+49617+006200FM-12+038099999V0202301N00621000151CN0004001N9+00391+00391101071ADDAY161999GF109991091999000251999999KA1999N+00281MW1451
0043065900999991950040512004+49617+006200FM-12+038099999V0203201N00721004501CN0160001N9+00781-00111101271ADDAY181999GF105991051081004501001001MW1011
0056065900999991950040518004+49617+006200FM-12+038099999V0202701N00721220001CN0200001N9+00781-00221101441ADDAY121999GF104991041081008001001001KA1999M+00891MW1011
0043065900999991950040600004+49617+006200FM-12+038099999V0202501N00101015001CN0120001N9+00501+00221101711ADDAY121999GF107991071051017501999999MW1021
0056065900999991950040606004+49617+006200FM-12+038099999V0202901N00051012301CN0140001N9+00281+00111101801ADDAY121999GF107991071051012501999999KA1999N+00281MW1021
0043065900999991950040612004+49617+006200FM-12+038099999V0202301N001519999999N0200001N9+00781-00221101901ADDAY121999GF107991041081008001071999MW1021
0056065900999991950040618004+49617+006200FM-12+038099999V0200501N00051220001CN0200001N9+00781-00111101981ADDAY121999GF104991041051012501001001KA1999M+01111MW1021
0043065900999991950040700004+49617+006200FM-12+038099999V0200501N00151220001CN0140001N9+00501-00111102191ADDAY111999GF100991001001999999001001MW1001
0056065900999991950040706004+49617+006200FM-12+038099999V0200201N00511220001CN0120001N9+00221-00221102301ADDAY101999GF100991001001999999001001KA1999N+00221MW1001
0043065900999991950040712004+49617+006200FM-12+038099999V0201401N00821220001CN0150001N9+01221-00391102101ADDAY101999GF101991001001999999001051MW1011
0056065900999991950040718004+49617+006200FM-12+038099999V0201101N00621220001CN0150001N9+01221-00221101981ADDAY101999GF100991001001999999001001KA1999M+01501MW1001
0043065900999991950040800004+49617+006200FM-12+038099999V0201101N00261220001CN0120001N9+00611+00001102091ADDAY101999GF100991001001999999001001MW1001
0056065900999991950040806004+49617+006200FM-12+038099999V0201601N00261220001CN0060001N9+00501+00001102021ADDAY121999GF107991001001999999071061KA1999N+00501MW1051
0043065900999991950040812004+49617+006200FM-12+038099999V0202001N00771220001CN0200001N9+01891+00391101591ADDAY121999GF104991001001999999001061MW1031
0056065900999991950040818004+49617+006200FM-12+038099999V0202501N00821220001CN0200001N9+01781+00391101391ADDAY121999GF106991001001999999031061KA1999M+02001MW1011
0043065900999991950040900004+49617+006200FM-12+038099999V0202301N01031220001CN0200001N9+01221+00611101311ADDAY121999GF100991001001999999001001MW1001
0056065900999991950040906004+49617+006200FM-12+038099999V0202401N01181004501CN0200001N9+00891+00611101101ADDAY121999GF107991071051004501999999KA1999N+00891MW1021
0043065900999991950040912004+49617+006200FM-12+038099999V0202501N01131002401CN0200001N9+00611+00391101131ADDAY181999GF108991071071002501021999MW1601
0056065900999991950040918004+49617+006200FM-12+038099999V0202501N01031007801CN0200001N9+00611-00221101131ADDAY181999GF105991051081008001001001KA1999M+01111MW1211
0043065900999991950041000004+49617+006200FM-12+038099999V0202301N00621220001CN0200001N9+00281+00111101441ADDAY181999GF102991021051008001001001MW1011
0056065900999991950041006004+49617+006200FM-12+038099999V0202301N00871001501CN0160001N9+00281+00221101261ADDAY181999GF108991081051001501999999KA1999N+00221MW1251
0043065900999991950041012004+49617+006200FM-12+038099999V0202901N00671007801CN0200001N9+00501+00281101211ADDAY181999GF108991081081008001999999MW1251
0056065900999991950041018004+49617+006200FM-12+038099999V0202301N01181004501CN0060001N9+00501+00391100511ADDAY161999GF108991081071004501999999KA1999M+00611MW1611
0043065900999991950041100004+49617+006200FM-12+038099999V0202501N01131002401CN0100001N9+00501+00391100191ADDAY161999GF108991081071002501999999MW1611
0056065900999991950041106004+49617+006200FM-12+038099999V0202301N00721220001CN0160001N9+00221-00111100421ADDAY121999GF102991021051004501001001KA1999N+00221MW1021
0043065900999991950041112004+49617+006200FM-12+038099999V0202501N00931007801CN0200001N9+00721+00111100391ADDAY181999GF105991051031008001001001MW1271
0056065900999991950041118004+49617+006200FM-12+038099999V0202501N00771220001CN0200001N9+00721-00111100501ADDAY181999GF101991011081008001001001KA1999M+00781MW1021
0043065900999991950041200004+49617+006200FM-12+038099999V0202301N00261220001CN0160001N9+00221+00001100711ADDAY101999GF102991021051008001001001MW1031
0056065900999991950041206004+49617+006200FM-12+038099999V0201601N002619999999N0080001N9+00221+00001100431ADDAY121999GF106991031051008001031051KA1999N+00111MW1051
0043065900999991950041212004+49617+006200FM-12+038099999V0202301N006719999999N0200001N9+00721+00001100331ADDAY121999GF107991021081008001071999MW1021
0056065900999991950041218004+49617+006200FM-12+038099999V0202501N00261007801CN0200001N9+00721+00221100201ADDAY121999GF107991071081008001999999KA1999M+00781MW1021
0043065900999991950041300004+49617+006200FM-12+038099999V0200501N001519999999N0160001N9+00391+00221100201ADDAY181999GF108991041071004501021999MW1611
0056065900999991950041306004+49617+006200FM-12+038099999V0202501N00361004501CN0050001N9+00221+00111100341ADDAY161999GF108991081071004501999999KA1999N+00221MW1211
0043065900999991950041312004+49617+006200FM-12+038099999V0202501N008219999999N0200001N9+00501+00111100561ADDAY121999GF106991041091008001001031MW1871
0056065900999991950041318004+49617+006200FM-12+038099999V0202501N005719999999N0200001N9+00781-00111100541ADDAY181999GF105991041091008001001031KA1999M+00891MW1021
0043065900999991950041400004+49617+006200FM-12+038099999V0202301N00411220001CN0160001N9+00221+00111100861ADDAY181999GF100991001001999999001001MW1001
0043065900999991950041406004+49617+006200FM-12+038099999V0201401N00101004501CN0030001N9+00111+00001100901ADDAY121999GF107991071061004501999999MW1051
0043065900999991950041412004+49617+006200FM-12+038099999V0200201N00261007801CN0200001N9+00781+00001100831ADDAY121999GF107991071081008001999999MW1021
0056065900999991950041418004+49617+006200FM-12+038099999V0200201N002619999999N0160001N9+00781-00111100731ADDAY121999GF107991041081008001001061KA1999M+01001MW1021
0043065900999991950041500004+49617+006200FM-12+038099999V0200201N00511220001CN0200001N9+00501-00111100911ADDAY121999GF101991011051008001001001MW1011
0056065900999991950041506004+49617+006200FM-12+038099999V0203601N00571220001CN0160001N9+00391-00221100891ADDAY121999GF108991001001999999071999KA1999N+00391MW1021
0043065900999991950041512004+49617+006200FM-12+038099999V0200501N006719999999N0150001N9+00891-00391100911ADDAY121999GF108991041051008001021999MW1021
0056065900999991950041518004+49617+006200FM-12+038099999V0200201N00361220001CN0060001N9+00501+00221101171ADDAY181999GF107991001001999999011061KA1999M+00891MW1051
0043065900999991950041600004+49617+006200FM-12+038099999V0203401N002619999999N0120001N9+00281+00221101431ADDAY161999GF108991041051008001021999MW1211
0056065900999991950041606004+49617+006200FM-12+038099999V0209991C000019999999N0060001N9+00221+00111101441ADDAY161999GF106991031051008001071999KA1999N+00111MW1051
0043065900999991950041612004+49617+006200FM-12+038099999V0203601N005719999999N0200001N9+00781-00391101531ADDAY121999GF107991041021008001041061MW1021
0056065900999991950041618004+49617+006200FM-12+038099999V0209991C000019999999N0200001N9+00611-00221101581ADDAY181999GF107991031081008001071061KA1999M+01001MW1251
0043065900999991950041700004+49617+006200FM-12+038099999V0200201N00051015001CN0140001N9+00281-00111101791ADDAY121999GF105991051051017501001001MW1031
0056065900999991950041706004+49617+006200FM-12+038099999V0209991C000019999999N0060001N9+00111-00111101791ADDAY121999GF107991011051008001001061KA1999N-00111MW1051
0043065900999991950041712004+49617+006200FM-12+038099999V0202301N00411220001CN0200001N9+00891-00721101511ADDAY111999GF103991031011012501001001MW1021
0056065900999991950041718004+49617+006200FM-12+038099999V0201801N00411220001CN0200001N9+00891-00501101041ADDAY111999GF103991021041012501041001KA1999M+01111MW1021
0043065900999991950041800004+49617+006200FM-12+038099999V0201601N00311220001CN0120001N9+00391-00221100691ADDAY101999GF100991001001999999001001MW1001
0056065900999991950041806004+49617+006200FM-12+038099999V0201101N00311007801CN0040001N9+00391-00111100141ADDAY121999GF108991051051008001071999KA1999N+00281MW1051
0043065900999991950041812004+49617+006200FM-12+038099999V0201401N00671007801CN0160001N9+00611+00281099841ADDAY161999GF108991081051008001999999MW1021
0056065900999991950041818004+49617+006200FM-12+038099999V0201101N00511007801CN0040001N9+00781+00611099651ADDAY161999GF108991061051008001021999KA1999M+00781MW1631
0043065900999991950041900004+49617+006200FM-12+038099999V0201901N00621004501CN0060001N9+00721+00721099901ADDAY161999GF108991081071004501999999MW1211
0056065900999991950041906004+49617+006200FM-12+038099999V0202001N00511001501CN0050001N9+00501+00391100451ADDAY161999GF108991081071001501999999KA1999N+00501MW1201
0043065900999991950041912004+49617+006200FM-12+038099999V0201101N00461220001CN0160001N9+01001+00111100751ADDAY121999GF103991021011012501041001MW1011
0056065900999991950041918004+49617+006200FM-12+038099999V0200201N00361220001CN0200001N9+01221+00221100821ADDAY111999GF104991021041012501041061KA1999M+01281MW1021
0043065900999991950042000004+49617+006200FM-12+038099999V0200201N00931220001CN0200001N9+00891+00391100951ADDAY111999GF100991001001999999001001MW1001
0056065900999991950042006004+49617+006200FM-12+038099999V0200201N006719999999N0120001N9+00891+00281100961ADDAY121999GF106991021051012501071999KA1999N+00781MW1021
0043065900999991950042012004+49617+006200FM-12+038099999V0200501N00931007801CN0160001N9+01391+00391100991ADDAY121999GF107991051051008001071999MW1021
0056065900999991950042018004+49617+006200FM-12+038099999V0200501N00671007801CN0160001N9+01001+00611101191ADDAY161999GF108991061051008001071999KA1999M+01391MW1021
0062065900999991950042100004+49617+006200FM-12+038099999V0200501N00621220001CN0120001N9+00781+00611101391ADDAY121999GF101991999001999999031001MW1011EQDQ01+000002SCOTLC
0056065900999991950042106004+49617+006200FM-12+038099999V0200501N00621004501CN0070001N9+00781+00611101511ADDAY121999GF107991051051004501031999KA1999N+00721MW1011
0043065900999991950042112004+49617+006200FM-12+038099999V0200501N006719999999N0200001N9+01391+00501101471ADDAY121999GF105991041051012501001051MW1021
0056065900999991950042118004+49617+006200FM-12+038099999V0200101N00571220001CN0080001N9+01391+00391101301ADDAY121999GF107991001001999999071999KA1999M+01611MW1051
0043065900999991950042200004+49617+006200FM-12+038099999V0200201N00821220001CN0060001N9+01001+00611101261ADDAY121999GF108991001001999999021999MW1051
0056065900999991950042206004+49617+006200FM-12+038099999V0203401N00571001501CN0040001N9+00781+00721101191ADDAY161999GF108991061071001501021999KA1999N+00781MW1631
0043065900999991950042212004+49617+006200FM-12+038099999V0203601N00571002401CN0040001N9+00781+00721101361ADDAY161999GF108991061071002501021999MW1581
0056065900999991950042218004+49617+006200FM-12+038099999V0203601N00671002401CN0070001N9+00781+00721101501ADDAY161999GF108991061071002501021999KA1999M+00781MW1581
0043065900999991950042300004+49617+006200FM-12+038099999V0203601N01181004501CN0070001N9+00721+00391101611ADDAY161999GF108991081051004501999999MW1051
0056065900999991950042306004+49617+006200FM-12+038099999V0200201N00311012301CN0060001N9+00501+00391101531ADDAY121999GF108991081051012501999999KA1999N+00501MW1051
0043065900999991950042312004+49617+006200FM-12+038099999V0203401N00461220001CN0160001N9+01111+00221101131ADDAY101999GF101991011011017501001001MW1021
0056065900999991950042318004+49617+006200FM-12+038099999V0203401N00671220001CN0200001N9+01001+00221100951ADDAY111999GF104991001001999999001051KA1999M+01281MW1021
0043065900999991950042400004+49617+006200FM-12+038099999V0202501N00211012301CN0120001N9+00611+00391100811ADDAY121999GF108991081051012501999999MW1021
0056065900999991950042406004+49617+006200FM-12+038099999V0202001N00411000151CN0004001N9+00611+00611100151ADDAY161999GF109991091999000251999999KA1999N+00501MW1611
0043065900999991950042412004+49617+006200FM-12+038099999V0202301N00871004501CN0160001N9+00501+00281099831ADDAY161999GF108991081051004501999999MW1021
0056065900999991950042418004+49617+006200FM-12+038099999V0202501N002619999999N0120001N9+00281+00111099791ADDAY181999GF107991021081008001071999KA1999M+00611MW1021
0043065900999991950042500004+49617+006200FM-12+038099999V0202901N00571004501CN0160001N9+00111+00001100051ADDAY181999GF106991061081004501001001MW1261
0056065900999991950042506004+49617+006200FM-12+038099999V0202501N00511007801CN0120001N9-00111-00221100501ADDAY181999GF105991051021008001001001KA1999N-00111MW1021
0043065900999991950042512004+49617+006200FM-12+038099999V0202601N00771004501CN0200001N9+00281-00781100691ADDAY121999GF107991071081004501999999MW1031
0056065900999991950042518004+49617+006200FM-12+038099999V0202501N00621004501CN0100001N9+00111+00001100691ADDAY181999GF108991081091004501999999KA1999M+00611MW1851
0043065900999991950042600004+49617+006200FM-12+038099999V0201801N00981000601CN0014001N9+00001+00001100701ADDAY181999GF108991081071000751999999MW1221
0056065900999991950042606004+49617+006200FM-12+038099999V0201801N00821000601CN0070001N9+00111+00111100201ADDAY171999GF108991081071000751999999KA1999N+00001MW1611
0043065900999991950042612004+49617+006200FM-12+038099999V0202001N00981004501CN0200001N9+00221+00001099951ADDAY171999GF108991081051004501999999MW1221
0056065900999991950042618004+49617+006200FM-12+038099999V0202301N01131002401CN0080001N9+00221+00221100261ADDAY181999GF108991081071002501999999KA1999M+00281MW1611
0043065900999991950042700004+49617+006200FM-12+038099999V0202301N00621000601CN0160001N9+00221+00221100581ADDAY161999GF108991081071000751999999MW1021
0056065900999991950042706004+49617+006200FM-12+038099999V0202301N00821001501CN0160001N9+00281+00221100581ADDAY181999GF107991071071001501999999KA1999N+00001MW1011
0043065900999991950042712004+49617+006200FM-12+038099999V0202301N00721004501CN0120001N9+00281+00221101131ADDAY181999GF106991061091004501999999MW1271
0056065900999991950042718004+49617+006200FM-12+038099999V0202901N00621220001CN0160001N9+00721-00111101571ADDAY181999GF102991021021008001001001KA1999M+00721MW1011
0043065900999991950042800004+49617+006200FM-12+038099999V0202501N00461015001CN0200001N9+00281-00221101931ADDAY121999GF106991061051017501999999MW1021
0056065900999991950042806004+49617+006200FM-12+038099999V0202301N004619999999N0050001N9+00221+00111101891ADDAY171999GF108991041051004501021999KA1999N+00111MW1221
0043065900999991950042812004+49617+006200FM-12+038099999V0202301N00771007801CN0150001N9+00501+00281101871ADDAY121999GF108991071051008001021999MW1021
0056065900999991950042818004+49617+006200FM-12+038099999V0202501N00671004501CN0050001N9+00721+00501101801ADDAY181999GF107991071031004501999999KA1999M+00781MW1811
0043065900999991950042900004+49617+006200FM-12+038099999V0202501N00771002401CN0060001N9+00611+00611101871ADDAY161999GF108991081071002501999999MW1611
0056065900999991950042906004+49617+006200FM-12+038099999V0202301N00571001501CN0040001N9+00721+00721101981ADDAY161999GF108991081071001501999999KA1999N+00611MW1511
0043065900999991950042912004+49617+006200FM-12+038099999V0202701N00571001501CN0160001N9+00891+00781102301ADDAY151999GF108991081071001501999999MW1581
0056065900999991950042918004+49617+006200FM-12+038099999V0202901N00151002401CN0120001N9+01001+00891102411ADDAY161999GF108991071051002501021999KA1999M+01001MW1211
0043065900999991950043000004+49617+006200FM-12+038099999V0202301N00411000601CN0016001N9+00891+00891102531ADDAY161999GF108991081071000751999999MW1501
0056065900999991950043006004+49617+006200FM-12+038099999V0202201N00311000151CN0002001N9+00891+00891102581ADDAY151999GF109991091999000251999999KA1999N+00891MW1451
0043065900999991950043012004+49617+006200FM-12+038099999V0201601N00151007801CN0160001N9+01391+00891102531ADDAY141999GF105991051021008001001001MW1021
0056065900999991950043018004+49617+006200FM-12+038099999V0202001N00261220001CN0200001N9+01611+00781102341ADDAY111999GF102991011041017501001051KA1999M+01721MW1021
0043065900999991950050100004+49617+006200FM-12+038099999V0200901N00151220001CN0200001N9+01111+00721102421ADDAY111999GF100991001001999999001001MW1001
0056065900999991950050106004+49617+006200FM-12+038099999V0200901N00151220001CN0150001N9+01111+00781102391ADDAY111999GF101991001001999999001051KA1999N+00891MW1021
0043065900999991950050112004+49617+006200FM-12+038099999V0201801N00511220001CN0200001N9+02001+01001102181ADDAY101999GF101991011011017501001021MW1021
0056065900999991950050118004+49617+006200FM-12+038099999V0201601N00411220001CN0200001N9+02001+00891101991ADDAY101999GF101991011011017501001051KA1999M+02221MW1021
0062065900999991950050200004+49617+006200FM-12+038099999V0201601N00361220001CN0200001N9+01501+00611101941ADDAY101999GF101991999001999999031001MW1021EQDQ01+000002SCOTLC
0056065900999991950050206004+49617+006200FM-12+038099999V0202501N004119999999N0060001N9+01221+00721101931ADDAY111999GF105991031081012501031051KA1999N+01111MW1051
0043065900999991950050212004+49617+006200FM-12+038099999V0202001N00621220001CN0200001N9+01721+00721101971ADDAY111999GF104991041011012501001001MW1031
0056065900999991950050218004+49617+006200FM-12+038099999V0202701N00511220001CN0200001N9+01501+00391101901ADDAY111999GF102991011011017501001051KA1999M+01781MW1021
0043065900999991950050300004+49617+006200FM-12+038099999V0203401N00571012301CN0200001N9+01001+00391102011ADDAY121999GF106991061051012501999999MW1021
0056065900999991950050306004+49617+006200FM-12+038099999V0203201N00151220001CN0200001N9+00721+00611102061ADDAY181999GF103991021051017501071001KA1999N+00611MW1021
0062065900999991950050312004+49617+006200FM-12+038099999V0203201N008219999999N0200001N9+01221+00391101941ADDAY181999GF106991999081008001001001MW1021EQDQ01+000032SCOTLC
0075065900999991950050318004+49617+006200FM-12+038099999V0203201N005719999999N0200001N9+01111+00391101871ADDAY121999GF105991999081012501001001KA1999M+01391MW1021EQDQ01+000032SCOTLC
0043065900999991950050400004+49617+006200FM-12+038099999V0203401N00511220001CN0200001N9+00611+00281102091ADDAY111999GF101991011051012501001001MW1011
0075065900999991950050406004+49617+006200FM-12+038099999V0203401N00621220001CN0080001N9+00611+00281102111ADDAY101999GF101991999001999999031001KA1999N+00391MW1051EQDQ01+000002SCOTLC
0062065900999991950050412004+49617+006200FM-12+038099999V0203401N005119999999N0200001N9+01221+00281101931ADDAY121999GF106991999081012501001001MW1021EQDQ01+000042SCOTLC
0056065900999991950050418004+49617+006200FM-12+038099999V0203401N00621220001CN0200001N9+00891+00391101951ADDAY121999GF104991041081012501001001KA1999M+01281MW1021
0043065900999991950050500004+49617+006200FM-12+038099999V0203401N00571220001CN0160001N9+00611+00391102091ADDAY121999GF102991021051017501001001MW1011
0056065900999991950050506004+49617+006200FM-12+038099999V0203401N00571007801CN0050001N9+00611+00391102051ADDAY121999GF107991071051008001999999KA1999N+00501MW1051
0043065900999991950050512004+49617+006200FM-12+038099999V0202501N00211004501CN0040001N9+00611+00611102111ADDAY151999GF108991061071004501021999MW1601
0056065900999991950050518004+49617+006200FM-12+038099999V0202701N00151007801CN0200001N9+00721+00501102071ADDAY161999GF107991051051008001011999KA1999M+00781MW1251
0043065900999991950050600004+49617+006200FM-12+038099999V0201601N00151220001CN0050001N9+00391+00391102141ADDAY121999GF100991001001999999001001MW1051
0056065900999991950050606004+49617+006200FM-12+038099999V0209991C00001220001CN0002001N9+00281+00281102161ADDAY141999GF100991001001999999001001KA1999N+00111MW1421
0043065900999991950050612004+49617+006200FM-12+038099999V0201601N00101220001CN0140001N9+01221+00111102031ADDAY111999GF102991021011012501001001MW1011
0056065900999991950050618004+49617+006200FM-12+038099999V0202701N00311220001CN0160001N9+01391+00111101901ADDAY101999GF101991011011012501041001KA1999M+01501MW1011
0043065900999991950050700004+49617+006200FM-12+038099999V0200101N00511220001CN0160001N9+00891+00281102021ADDAY111999GF101991011051012501001001MW1011
0056065900999991950050706004+49617+006200FM-12+038099999V0200401N00621220001CN0070001N9+00891+00391102021ADDAY101999GF102991021051012501001001KA1999N+00721MW1051
0043065900999991950050712004+49617+006200FM-12+038099999V0200201N00411220001CN0160001N9+01611+00111101841ADDAY111999GF104991041021012501001001MW1031
0056065900999991950050718004+49617+006200FM-12+038099999V0200201N00311007801CN0160001N9+01501+00501101741ADDAY121999GF106991061051008001999999KA1999M+01721MW1021
0043065900999991950050800004+49617+006200FM-12+038099999V0200501N00361220001CN0060001N9+00781+00611101931ADDAY121999GF100991001001999999001001MW1051
0056065900999991950050806004+49617+006200FM-12+038099999V0200501N00311220001CN0030001N9+00721+00611101871ADDAY101999GF102991001001999999001061KA1999N+00611MW1051
0043065900999991950050812004+49617+006200FM-12+038099999V0200501N005119999999N0120001N9+01501+00611101721ADDAY111999GF106991011011008001031061MW1031
0056065900999991950050818004+49617+006200FM-12+038099999V0200701N003119999999N0160001N9+01501+00611101621ADDAY121999GF105991011011008001071061KA1999M+01781MW1021
0043065900999991950050900004+49617+006200FM-12+038099999V0200501N00511220001CN0120001N9+01001+00611101841ADDAY111999GF101991001001999999001061MW1021
0056065900999991950050906004+49617+006200FM-12+038099999V0200201N00461220001CN0060001N9+00891+00721101871ADDAY111999GF105991001001999999001061KA1999N+00721MW1051
0043065900999991950050912004+49617+006200FM-12+038099999V0200501N00621220001CN0200001N9+01781+00501101761ADDAY121999GF101991011021008001001001MW1031
0056065900999991950050918004+49617+006200FM-12+038099999V0200301N00571220001CN0200001N9+01891+01001101701ADDAY101999GF101991001001999999001051KA1999M+02001MW1021
0043065900999991950051000004+49617+006200FM-12+038099999V0200201N00671220001CN0080001N9+01391+01111101901ADDAY111999GF100991001001999999001001MW1051
0056065900999991950051006004+49617+006200FM-12+038099999V0200501N00771220001CN0160001N9+01281+00891101911ADDAY111999GF104991031051012501031051KA1999N+01281MW1021
0043065900999991950051012004+49617+006200FM-12+038099999V0200501N00671220001CN0200001N9+02111+00721101831ADDAY111999GF101991011011008001001051MW1021
0056065900999991950051018004+49617+006200FM-12+038099999V0200501N00621220001CN0200001N9+01891+00501101781ADDAY101999GF102991001001999999001051KA1999M+02221MW1021
0043065900999991950051100004+49617+006200FM-12+038099999V0200501N00571220001CN0200001N9+01281+00391102101ADDAY121999GF100991001001999999001001MW1001
0056065900999991950051106004+49617+006200FM-12+038099999V0200501N00571220001CN0200001N9+01001+00281102261ADDAY101999GF100991001001999999001001KA1999N+01001MW1001
0043065900999991950051112004+49617+006200FM-12+038099999V0200501N00931220001CN0200001N9+01781+00221102151ADDAY101999GF100991001001999999001001MW1001
0056065900999991950051118004+49617+006200FM-12+038099999V0200701N00621220001CN0200001N9+01781+00281102081ADDAY101999GF100991001001999999001001KA1999M+02001MW1011
0043065900999991950051200004+49617+006200FM-12+038099999V0200501N00571220001CN0200001N9+01221+00281102291ADDAY101999GF100991001001999999001001MW1001
0056065900999991950051206004+49617+006200FM-12+038099999V0200501N00621220001CN0160001N9+01001+00391102331ADDAY101999GF100991001001999999001001KA1999N+00891MW1001
0043065900999991950051212004+49617+006200FM-12+038099999V0200701N00931220001CN0200001N9+02001+00221102091ADDAY101999GF100991001001999999001001MW1001
0056065900999991950051218004+49617+006200FM-12+038099999V0200901N00721220001CN0200001N9+02111+00391101931ADDAY101999GF101991001001999999001051KA1999M+02221MW1001
0056065900999991950051306004+49617+006200FM-12+038099999V0200201N00511220001CN0200001N9+01281+00391102021ADDAY101999GF100991001001999999001001KA1999N+01221MW1001
0043065900999991950051312004+49617+006200FM-12+038099999V0200501N00771220001CN0200001N9+02111+00391101781ADDAY101999GF100991001001999999001001MW1001
0056065900999991950051318004+49617+006200FM-12+038099999V0200501N00571220001CN0200001N9+02111+00501101511ADDAY111999GF102991021011017501001001KA1999M+02221MW1021
0043065900999991950051400004+49617+006200FM-12+038099999V0200501N00361220001CN0160001N9+01391+00501101691ADDAY111999GF101991011041012501001001MW1011
0056065900999991950051406004+49617+006200FM-12+038099999V0200201N00571220001CN0160001N9+01281+00501101631ADDAY101999GF100991001001999999001001KA1999N+01111MW1001
0043065900999991950051412004+49617+006200FM-12+038099999V0200401N00571220001CN0200001N9+02001+01501101471ADDAY101999GF101991011011012501001001MW1021
0056065900999991950051418004+49617+006200FM-12+038099999V0200501N00411220001CN0200001N9+02001+00391101311ADDAY101999GF101991011041017501001001KA1999M+02221MW1011
0043065900999991950051500004+49617+006200FM-12+038099999V0200201N00621220001CN0160001N9+01281+00221101571ADDAY101999GF100991001001999999001001MW1001
0075065900999991950051506004+49617+006200FM-12+038099999V0203601N00571220001CN0080001N9+01001+00781101591ADDAY111999GF101991999001999999031001KA1999N+00891MW1051EQDQ01+000002SCOTLC
0043065900999991950051512004+49617+006200FM-12+038099999V0200201N00411220001CN0200001N9+01721+00221101511ADDAY111999GF100991001001999999001001MW1011
0056065900999991950051518004+49617+006200FM-12+038099999V0200201N00571220001CN0200001N9+01501+00611101401ADDAY101999GF100991001001999999001001KA1999M+01891MW1001
0043065900999991950051600004+49617+006200FM-12+038099999V0200501N00621220001CN0160001N9+00611+00221101611ADDAY101999GF100991001001999999001001MW1001
0056065900999991950051606004+49617+006200FM-12+038099999V0200201N00511220001CN0070001N9+00611+00221101511ADDAY101999GF100991001001999999001001KA1999N+00391MW1051
0043065900999991950051612004+49617+006200FM-12+038099999V0200701N00571220001CN0160001N9+01501+00391101261ADDAY101999GF101991011011017501001001MW1011
0056065900999991950051618004+49617+006200FM-12+038099999V0200501N00261220001CN0200001N9+01721+00221100911ADDAY101999GF100991001001999999001001KA1999M+01721MW1011
0043065900999991950051700004+49617+006200FM-12+038099999V0200301N00511220001CN0100001N9+00891+00391100981ADDAY101999GF100991001001999999001001MW1001
0056065900999991950051706004+49617+006200FM-12+038099999V0200301N00571220001CN0046001N9+00781+00501100831ADDAY101999GF101991011051012501001011KA1999N+00611MW1051
0043065900999991950051712004+49617+006200FM-12+038099999V0200901N00411007801CN0090001N9+01721+00721100601ADDAY111999GF106991061051008001999999MW1051
0056065900999991950051718004+49617+006200FM-12+038099999V0201801N00411004501CN0060001N9+01281+01111100431ADDAY181999GF108991071051004501021999KA1999M+01781MW1601
0043065900999991950051800004+49617+006200FM-12+038099999V0201101N00261000601CN0040001N9+01221+01221100391ADDAY161999GF108991081071000751999999MW1051
0056065900999991950051806004+49617+006200FM-12+038099999V0202001N00511001501CN0040001N9+01221+01221100141ADDAY161999GF108991081071001501999999KA1999N+01111MW1621
0043065900999991950051812004+49617+006200FM-12+038099999V0202301N00671004501CN0200001N9+01391+01001100311ADDAY181999GF108991061081004501999999MW1251
0056065900999991950051818004+49617+006200FM-12+038099999V0202501N004119999999N0200001N9+01501+01001100311ADDAY181999GF107991031081004501071061KA1999M+01611MW1021
0043065900999991950051900004+49617+006200FM-12+038099999V0201801N00571000601CN0030001N9+01111+01111100641ADDAY141999GF108991081071000751999999MW1281
0056065900999991950051906004+49617+006200FM-12+038099999V0202001N00571001501CN0040001N9+01111+01111100791ADDAY151999GF108991081071001501999999KA1999N+01001MW1201
0062065900999991950051912004+49617+006200FM-12+038099999V0202401N006219999999N0090001N9+01281+00891101261ADDAY161999GF106991999081008001001001MW1051EQDQ01+000042SCOTLC
0056065900999991950051918004+49617+006200FM-12+038099999V0201101N004619999999N0160001N9+01501+00781101271ADDAY121999GF106991041061012501031091KA1999M+01611MW1021
0043065900999991950052000004+49617+006200FM-12+038099999V0200501N00621012301CN0120001N9+01221+00781101291ADDAY121999GF107991071051012501999999MW1031
0056065900999991950052006004+49617+006200FM-12+038099999V0201601N006219999999N0160001N9+01611+00891101361ADDAY121999GF106991021051017501071999KA1999N+01221MW1021
0043065900999991950052012004+49617+006200FM-12+038099999V0201801N003619999999N0200001N9+01611+01221101441ADDAY181999GF107991041051008001071999MW1021
0056065900999991950052018004+49617+006200FM-12+038099999V0201601N001519999999N0200001N9+02001+01281101341ADDAY121999GF107991021051012501071999KA1999M+02111MW1021
0062065900999991950052100004+49617+006200FM-12+038099999V0201101N00511220001CN0160001N9+01611+01111101421ADDAY121999GF101991999001999999071001MW1021EQDQ01+000002SCOTLC
0056065900999991950052106004+49617+006200FM-12+038099999V0201101N005119999999N0120001N9+01611+01221101361ADDAY121999GF107991021051017501071999KA1999N+01391MW1021
0043065900999991950052112004+49617+006200FM-12+038099999V0201601N006219999999N0200001N9+02001+01281101381ADDAY121999GF108991011051012501071999MW1031
0056065900999991950052118004+49617+006200FM-12+038099999V0200901N00511220001CN0200001N9+02281+01391101041ADDAY121999GF107991001001999999031061KA1999M+02391MW1031
0043065900999991950052200004+49617+006200FM-12+038099999V0203401N00511220001CN0160001N9+01781+01391101301ADDAY121999GF101991001001999999001051MW1011
0056065900999991950052206004+49617+006200FM-12+038099999V0202901N002119999999N0140001N9+01391+01391101611ADDAY181999GF107991031051012501001061KA1999N+01281MW1021
0043065900999991950052212004+49617+006200FM-12+038099999V0202501N005719999999N0200001N9+01781+01281101891ADDAY121999GF105991041021008001031001MW1011
0056065900999991950052218004+49617+006200FM-12+038099999V0202501N00101220001CN0200001N9+01781+01221101791ADDAY121999GF104991041081008001001051KA1999M+02001MW1021
0043065900999991950052300004+49617+006200FM-12+038099999V0200201N00261220001CN0200001N9+01391+01221101891ADDAY121999GF104991041051017501999999MW1021
0056065900999991950052306004+49617+006200FM-12+038099999V0200201N00261220001CN0200001N9+01391+01281101761ADDAY181999GF104991021051008001031001KA1999N+01281MW1021
0043065900999991950052312004+49617+006200FM-12+038099999V0201601N005719999999N0160001N9+02111+01391101491ADDAY121999GF107991031021008001001061MW1021
0056065900999991950052318004+49617+006200FM-12+038099999V0201401N004119999999N0200001N9+02001+01391101151ADDAY121999GF106991021021008001001061KA1999M+02281MW1021
0043065900999991950052400004+49617+006200FM-12+038099999V0202501N00511007801CN0120001N9+01391+01221101471ADDAY191999GF108991061051008001999999MW1601
0056065900999991950052406004+49617+006200FM-12+038099999V0202501N00361002401CN0030001N9+01281+01281101511ADDAY141999GF108991081061002501999999KA1999N+01111MW1281
0043065900999991950052412004+49617+006200FM-12+038099999V0202301N00621007801CN0100001N9+01721+01221101711ADDAY121999GF106991061021008001999999MW1021
0056065900999991950052418004+49617+006200FM-12+038099999V0202401N00461220001CN0200001N9+01781+01001101751ADDAY111999GF101991011021012501001001KA1999M+01891MW1011
0062065900999991950052500004+49617+006200FM-12+038099999V0200501N00821220001CN0080001N9+01001+00781101941ADDAY101999GF101991999001999999031001MW1051EQDQ01+000002SCOTLC
0056065900999991950052506004+49617+006200FM-12+038099999V0200501N007219999999N0030001N9+00781+00721101821ADDAY141999GF107991041061002501999999KA1999N+00781MW1051
0043065900999991950052512004+49617+006200FM-12+038099999V0201101N004619999999N0060001N9+01891+01391101551ADDAY121999GF107991021051017501071999MW1051
0056065900999991950052518004+49617+006200FM-12+038099999V0202701N003119999999N0150001N9+01721+01111101391ADDAY121999GF108991031051012501021999KA1999M+02111MW1801
0043065900999991950052600004+49617+006200FM-12+038099999V0202301N00411220001CN0160001N9+01221+01111101391ADDAY181999GF108991001001999999071999MW1021
0056065900999991950052606004+49617+006200FM-12+038099999V0202701N00511004501CN0090001N9+01111+01111101251ADDAY121999GF108991081051004501999999KA1999N+01111MW1051
0043065900999991950052612004+49617+006200FM-12+038099999V0202301N00671007801CN0200001N9+01611+01001101291ADDAY181999GF107991051011008001041061MW1021
0056065900999991950052618004+49617+006200FM-12+038099999V0202501N00411220001CN0200001N9+01391+01111101271ADDAY181999GF104991031081012501041061KA1999M+01781MW1011
0043065900999991950052700004+49617+006200FM-12+038099999V0202301N005119999999N0120001N9+01001+00891101361ADDAY121999GF106991031051017501071999MW1021
0056065900999991950052706004+49617+006200FM-12+038099999V0202301N00571004501CN0200001N9+01001+00891101351ADDAY161999GF107991071051004501999999KA1999N+00891MW1021
0043065900999991950052712004+49617+006200FM-12+038099999V0202301N00771004501CN0160001N9+01221+00891101271ADDAY181999GF107991071081004501999999MW1021
0056065900999991950052718004+49617+006200FM-12+038099999V0202501N00511220001CN0160001N9+01221+01001101291ADDAY181999GF104991041021008001001001KA1999M+01281MW1011
0043065900999991950052800004+49617+006200FM-12+038099999V0202501N00671007801CN0150001N9+00781+00781101421ADDAY181999GF105991051051008001999999MW1021
0056065900999991950052806004+49617+006200FM-12+038099999V0202701N00771002401CN0160001N9+00781+00611101351ADDAY161999GF108991061071002501021999KA1999N+00781MW1211
0043065900999991950052812004+49617+006200FM-12+038099999V0202501N00821004501CN0200001N9+01221+00721101651ADDAY181999GF107991071081004501999999MW1021
0056065900999991950052818004+49617+006200FM-12+038099999V0203201N00571012301CN0200001N9+01221+00501102151ADDAY181999GF105991051081012501001001KA1999M+01501MW1021
0043065900999991950052900004+49617+006200FM-12+038099999V0202001N00261012301CN0160001N9+00781+00611102701ADDAY121999GF107991071051012501999999MW1021
0056065900999991950052906004+49617+006200FM-12+038099999V0202301N00151220001CN0120001N9+00721+00611102931ADDAY111999GF100991001001999999001001KA1999N+00501MW1001
0043065900999991950052912004+49617+006200FM-12+038099999V0202401N00571007801CN0200001N9+01501+00781102831ADDAY121999GF106991061051008001999999MW1021
0056065900999991950052918004+49617+006200FM-12+038099999V0202301N00461220001CN0200001N9+01501+00781102651ADDAY121999GF103991031051008001001001KA1999M+01721MW1011
0043065900999991950053000004+49617+006200FM-12+038099999V0202701N00211220001CN0160001N9+01111+00721102771ADDAY121999GF102991021051012501001001MW1011
0056065900999991950053006004+49617+006200FM-12+038099999V0202301N00051220001CN0080001N9+00891+00781102741ADDAY111999GF103991031051012501001001KA1999N+00611MW1051
0043065900999991950053012004+49617+006200FM-12+038099999V0202501N00461220001CN0200001N9+01721+01001102591ADDAY111999GF103991031021012501001001MW1021
0056065900999991950053018004+49617+006200FM-12+038099999V0201401N00101220001CN0200001N9+01781+01221102311ADDAY111999GF103991011021017501001061KA1999M+02001MW1021
0043065900999991950053100004+49617+006200FM-12+038099999V0200501N00411220001CN0120001N9+01281+00891102231ADDAY111999GF102991021051017501071999MW1021
0056065900999991950053106004+49617+006200FM-12+038099999V0200501N006719999999N0050001N9+01281+01001102411ADDAY111999GF106991021051017501001061KA1999N+01111MW1051
0043065900999991950053112004+49617+006200FM-12+038099999V0200501N006219999999N0160001N9+01781+01001102261ADDAY121999GF105991021011017501001061MW1031
0056065900999991950053118004+49617+006200FM-12+038099999V0200201N00571220001CN0160001N9+01721+01001102141ADDAY121999GF108991001001999999001071KA1999M+01891MW1021
0043065900999991950060100004+49617+006200FM-12+038099999V0200501N005719999999N0060001N9+01281+01001102231ADDAY121999GF107991021051017501071999MW1051
0056065900999991950060106004+49617+006200FM-12+038099999V0200301N00671220001CN0160001N9+01111+00721102241ADDAY121999GF107991001001999999071061KA1999N+01111MW1021
0043065900999991950060112004+49617+006200FM-12+038099999V0200501N00621220001CN0200001N9+01891+00391102121ADDAY121999GF104991001001999999001061MW1011
0056065900999991950060118004+49617+006200FM-12+038099999V0200901N00511220001CN0200001N9+02001+00891102031ADDAY111999GF102991001001999999001051KA1999M+02111MW1021
0043065900999991950060200004+49617+006200FM-12+038099999V0200201N00211220001CN0200001N9+01221+00501102271ADDAY101999GF100991001001999999001001MW1001
0056065900999991950060206004+49617+006200FM-12+038099999V0200201N00311220001CN0150001N9+01221+00501102301ADDAY101999GF101991001001999999001061KA1999N+01111MW1021
0043065900999991950060212004+49617+006200FM-12+038099999V0201801N00571220001CN0160001N9+02221+01001102111ADDAY101999GF102991021011012501001001MW1021
0056065900999991950060218004+49617+006200FM-12+038099999V0201101N00511220001CN0200001N9+02221+01001102011ADDAY101999GF101991011011017501001001KA1999M+02391MW1021
0043065900999991950060300004+49617+006200FM-12+038099999V0200201N00311220001CN0160001N9+01501+00721102261ADDAY101999GF100991001001999999001001MW1011
0056065900999991950060306004+49617+006200FM-12+038099999V0200501N00511220001CN0160001N9+01501+00721102351ADDAY101999GF101991001001999999001061KA1999N+01221MW1021
0043065900999991950060312004+49617+006200FM-12+038099999V0200701N00461220001CN0200001N9+02391+00721102231ADDAY111999GF101991011011012501031051MW1021
0056065900999991950060318004+49617+006200FM-12+038099999V0200501N00361220001CN0200001N9+02391+00891102161ADDAY101999GF101991001001999999001041KA1999M+02501MW1021
0056065900999991950060406004+49617+006200FM-12+038099999V0200201N00361220001CN0160001N9+01721+01001102471ADDAY101999GF100991001001999999001001KA1999N+01281MW1001
0043065900999991950060412004+49617+006200FM-12+038099999V0201101N00461220001CN0200001N9+02501+00891102381ADDAY101999GF101991011011017501001001MW1031
0056065900999991950060418004+49617+006200FM-12+038099999V0209991C00001220001CN0200001N9+02611+01281102291ADDAY101999GF101991011011017501001001KA1999M+02721MW1021
0043065900999991950060500004+49617+006200FM-12+038099999V0200901N00311220001CN0160001N9+01611+00721102431ADDAY101999GF100991001001999999001001MW1001
0056065900999991950060506004+49617+006200FM-12+038099999V0200301N00411220001CN0160001N9+01891+01221102551ADDAY101999GF101991001001999999001051KA1999N+01611MW1021
0043065900999991950060512004+49617+006200FM-12+038099999V0200701N00571220001CN0200001N9+02721+00891102491ADDAY101999GF101991011011017501001041MW1021
0056065900999991950060518004+49617+006200FM-12+038099999V0201101N00361220001CN0200001N9+02611+01001102351ADDAY101999GF102991001001999999001061KA1999M+02781MW1031
0043065900999991950060600004+49617+006200FM-12+038099999V0200501N00411220001CN0200001N9+01781+00891102501ADDAY111999GF101991001001999999001051MW1021
0056065900999991950060606004+49617+006200FM-12+038099999V0200501N00511220001CN0200001N9+01781+00891102471ADDAY121999GF104991001001999999001061KA1999N+01611MW1021
0043065900999991950060612004+49617+006200FM-12+038099999V0201601N00511220001CN0160001N9+02721+00721102351ADDAY111999GF104991011011017501001061MW1021
0056065900999991950060618004+49617+006200FM-12+038099999V0209991C00001220001CN0200001N9+02721+01111102161ADDAY111999GF104991011011012501001061KA1999M+02781MW1021
0043065900999991950060700004+49617+006200FM-12+038099999V0209991C00001220001CN0200001N9+01891+01111102371ADDAY111999GF100991001001999999001001MW1001
0056065900999991950060706004+49617+006200FM-12+038099999V0200201N00151220001CN0200001N9+01781+01111102381ADDAY101999GF100991001001999999001001KA1999N+01611MW1001
0043065900999991950060712004+49617+006200FM-12+038099999V0201601N00151220001CN0160001N9+02721+01111102161ADDAY101999GF101991011011017501001001MW1021
0056065900999991950060718004+49617+006200FM-12+038099999V0209991C00001220001CN0160001N9+02611+01611101951ADDAY101999GF103991011011017501041051KA1999M+02891MW1031
0043065900999991950060800004+49617+006200FM-12+038099999V0202901N00361220001CN0160001N9+01781+01221102061ADDAY121999GF102991001001999999001061MW1011
0056065900999991950060806004+49617+006200FM-12+038099999V0202901N00151220001CN0100001N9+01891+01501101931ADDAY111999GF103991001001999999041061KA1999N+01501MW1021
0062065900999991950060812004+49617+006200FM-12+038099999V0202701N00571220001CN0200001N9+02611+01281101701ADDAY111999GF104991999031017501001001MW1021EQDQ01+000032SCOTLC
0056065900999991950060818004+49617+006200FM-12+038099999V0202901N00311220001CN0200001N9+02501+01281101421ADDAY121999GF104991031091017501001031KA1999M+02721MW1021
0043065900999991950060900004+49617+006200FM-12+038099999V0202901N00571220001CN0160001N9+01781+01111101431ADDAY121999GF104991041051008001001001MW1021
0056065900999991950060906004+49617+006200FM-12+038099999V0202901N004619999999N0140001N9+01501+01281101391ADDAY191999GF105991041081012501001051KA1999N+01281MW1031
0062065900999991950060912004+49617+006200FM-12+038099999V0202901N00621220001CN0090001N9+02001+01281101471ADDAY121999GF104991999081008001001001MW1051EQDQ01+000032SCOTLC
0056065900999991950060918004+49617+006200FM-12+038099999V0203401N00571220001CN0200001N9+01781+00781101581ADDAY121999GF105991001001999999001061KA1999M+02111MW1011
0043065900999991950061000004+49617+006200FM-12+038099999V0200201N00411220001CN0140001N9+01001+00721101951ADDAY111999GF101991001001999999001051MW1021
0056065900999991950061006004+49617+006200FM-12+038099999V0200501N00511220001CN0100001N9+01001+00611102111ADDAY101999GF101991001001999999001051KA1999N+00781MW1021
